{
  "_format": "hh-sol-artifact-1",
  "contractName": "ERC721Contract",
  "sourceName": "contracts/hts-precompile/examples/erc-721/ERC721Contract.sol",
  "abi": [
    {
      "inputs": [
        {
          "internalType": "address",
          "name": "token",
          "type": "address"
        },
        {
          "internalType": "address",
          "name": "to",
          "type": "address"
        },
        {
          "internalType": "uint256",
          "name": "tokenId",
          "type": "uint256"
        }
      ],
      "name": "approve",
      "outputs": [],
      "stateMutability": "payable",
      "type": "function"
    },
    {
      "inputs": [
        {
          "internalType": "address",
          "name": "token",
          "type": "address"
        },
        {
          "internalType": "address",
          "name": "owner",
          "type": "address"
        }
      ],
      "name": "balanceOf",
      "outputs": [
        {
          "internalType": "uint256",
          "name": "",
          "type": "uint256"
        }
      ],
      "stateMutability": "view",
      "type": "function"
    },
    {
      "inputs": [
        {
          "internalType": "address",
          "name": "token",
          "type": "address"
        },
        {
          "internalType": "address",
          "name": "to",
          "type": "address"
        },
        {
          "internalType": "uint256",
          "name": "tokenId",
          "type": "uint256"
        }
      ],
      "name": "delegateApprove",
      "outputs": [],
      "stateMutability": "payable",
      "type": "function"
    },
    {
      "inputs": [
        {
          "internalType": "address",
          "name": "token",
          "type": "address"
        },
        {
          "internalType": "address",
          "name": "operator",
          "type": "address"
        },
        {
          "internalType": "bool",
          "name": "approved",
          "type": "bool"
        }
      ],
      "name": "delegateSetApprovalForAll",
      "outputs": [],
      "stateMutability": "nonpayable",
      "type": "function"
    },
    {
      "inputs": [
        {
          "internalType": "address",
          "name": "token",
          "type": "address"
        },
        {
          "internalType": "address",
          "name": "from",
          "type": "address"
        },
        {
          "internalType": "address",
          "name": "to",
          "type": "address"
        },
        {
          "internalType": "uint256",
          "name": "tokenId",
          "type": "uint256"
        }
      ],
      "name": "delegateTransferFrom",
      "outputs": [],
      "stateMutability": "payable",
      "type": "function"
    },
    {
      "inputs": [
        {
          "internalType": "address",
          "name": "token",
          "type": "address"
        },
        {
          "internalType": "uint256",
          "name": "tokenId",
          "type": "uint256"
        }
      ],
      "name": "getApproved",
      "outputs": [
        {
          "internalType": "address",
          "name": "",
          "type": "address"
        }
      ],
      "stateMutability": "view",
      "type": "function"
    },
    {
      "inputs": [
        {
          "internalType": "address",
          "name": "token",
          "type": "address"
        },
        {
          "internalType": "address",
          "name": "owner",
          "type": "address"
        },
        {
          "internalType": "address",
          "name": "operator",
          "type": "address"
        }
      ],
      "name": "isApprovedForAll",
      "outputs": [
        {
          "internalType": "bool",
          "name": "",
          "type": "bool"
        }
      ],
      "stateMutability": "view",
      "type": "function"
    },
    {
      "inputs": [
        {
          "internalType": "address",
          "name": "token",
          "type": "address"
        }
      ],
      "name": "name",
      "outputs": [
        {
          "internalType": "string",
          "name": "",
          "type": "string"
        }
      ],
      "stateMutability": "view",
      "type": "function"
    },
    {
      "inputs": [
        {
          "internalType": "address",
          "name": "token",
          "type": "address"
        },
        {
          "internalType": "uint256",
          "name": "tokenId",
          "type": "uint256"
        }
      ],
      "name": "ownerOf",
      "outputs": [
        {
          "internalType": "address",
          "name": "",
          "type": "address"
        }
      ],
      "stateMutability": "view",
      "type": "function"
    },
    {
      "inputs": [
        {
          "internalType": "address",
          "name": "token",
          "type": "address"
        },
        {
          "internalType": "address",
          "name": "from",
          "type": "address"
        },
        {
          "internalType": "address",
          "name": "to",
          "type": "address"
        },
        {
          "internalType": "uint256",
          "name": "tokenId",
          "type": "uint256"
        }
      ],
      "name": "safeTransferFrom",
      "outputs": [],
      "stateMutability": "payable",
      "type": "function"
    },
    {
      "inputs": [
        {
          "internalType": "address",
          "name": "token",
          "type": "address"
        },
        {
          "internalType": "address",
          "name": "from",
          "type": "address"
        },
        {
          "internalType": "address",
          "name": "to",
          "type": "address"
        },
        {
          "internalType": "uint256",
          "name": "tokenId",
          "type": "uint256"
        },
        {
          "internalType": "bytes",
          "name": "data",
          "type": "bytes"
        }
      ],
      "name": "safeTransferFromWithData",
      "outputs": [],
      "stateMutability": "payable",
      "type": "function"
    },
    {
      "inputs": [
        {
          "internalType": "address",
          "name": "token",
          "type": "address"
        },
        {
          "internalType": "address",
          "name": "operator",
          "type": "address"
        },
        {
          "internalType": "bool",
          "name": "approved",
          "type": "bool"
        }
      ],
      "name": "setApprovalForAll",
      "outputs": [],
      "stateMutability": "nonpayable",
      "type": "function"
    },
    {
      "inputs": [
        {
          "internalType": "address",
          "name": "token",
          "type": "address"
        }
      ],
      "name": "symbol",
      "outputs": [
        {
          "internalType": "string",
          "name": "",
          "type": "string"
        }
      ],
      "stateMutability": "view",
      "type": "function"
    },
    {
      "inputs": [
        {
          "internalType": "address",
          "name": "token",
          "type": "address"
        },
        {
          "internalType": "uint256",
          "name": "index",
          "type": "uint256"
        }
      ],
      "name": "tokenByIndex",
      "outputs": [
        {
          "internalType": "uint256",
          "name": "",
          "type": "uint256"
        }
      ],
      "stateMutability": "view",
      "type": "function"
    },
    {
      "inputs": [
        {
          "internalType": "address",
          "name": "token",
          "type": "address"
        },
        {
          "internalType": "address",
          "name": "owner",
          "type": "address"
        },
        {
          "internalType": "uint256",
          "name": "index",
          "type": "uint256"
        }
      ],
      "name": "tokenOfOwnerByIndex",
      "outputs": [
        {
          "internalType": "uint256",
          "name": "",
          "type": "uint256"
        }
      ],
      "stateMutability": "view",
      "type": "function"
    },
    {
      "inputs": [
        {
          "internalType": "address",
          "name": "token",
          "type": "address"
        },
        {
          "internalType": "uint256",
          "name": "tokenId",
          "type": "uint256"
        }
      ],
      "name": "tokenURI",
      "outputs": [
        {
          "internalType": "string",
          "name": "",
          "type": "string"
        }
      ],
      "stateMutability": "view",
      "type": "function"
    },
    {
      "inputs": [
        {
          "internalType": "address",
          "name": "token",
          "type": "address"
        }
      ],
      "name": "totalSupply",
      "outputs": [
        {
          "internalType": "uint256",
          "name": "",
          "type": "uint256"
        }
      ],
      "stateMutability": "view",
      "type": "function"
    },
    {
      "inputs": [
        {
          "internalType": "address",
          "name": "token",
          "type": "address"
        },
        {
          "internalType": "address",
          "name": "from",
          "type": "address"
        },
        {
          "internalType": "address",
          "name": "to",
          "type": "address"
        },
        {
          "internalType": "uint256",
          "name": "tokenId",
          "type": "uint256"
        }
      ],
      "name": "transferFrom",
      "outputs": [],
      "stateMutability": "payable",
      "type": "function"
    }
  ],
  "bytecode": "0x608060405234801561001057600080fd5b50610f81806100206000396000f3fe6080604052600436106101095760003560e01c8063a86e357611610095578063e4dc2aa411610064578063e4dc2aa4146102ab578063e9dc6375146102cb578063eac6f3fe146102eb578063f49f40db146102fe578063f7888aec1461032e57600080fd5b8063a86e357614610245578063cb60f1bf14610265578063d9fc4b6114610285578063e1f21c671461029857600080fd5b806315dacbea116100dc57806315dacbea146101b15780631f29d2dc146101c4578063367605ca146101e45780636b42bf2f14610204578063734194a71461023257600080fd5b8063019848921461010e578063039d6f1914610144578063098f2366146101595780630db1cc1b14610191575b600080fd5b34801561011a57600080fd5b5061012e610129366004610b0e565b61034e565b60405161013b9190610b4f565b60405180910390f35b610157610152366004610b82565b6103bc565b005b34801561016557600080fd5b50610179610174366004610c35565b61042a565b6040516001600160a01b03909116815260200161013b565b34801561019d57600080fd5b506101576101ac366004610c6f565b61049e565b6101576101bf366004610cba565b61058b565b3480156101d057600080fd5b506101796101df366004610c35565b6105fc565b3480156101f057600080fd5b506101576101ff366004610c6f565b61062c565b34801561021057600080fd5b5061022461021f366004610d0b565b610695565b60405190815260200161013b565b610157610240366004610d0b565b610712565b34801561025157600080fd5b5061012e610260366004610b0e565b61076b565b34801561027157600080fd5b50610224610280366004610c35565b6107ab565b610157610293366004610cba565b610818565b6101576102a6366004610d0b565b610855565b3480156102b757600080fd5b506102246102c6366004610b0e565b61088a565b3480156102d757600080fd5b5061012e6102e6366004610c35565b6108ee565b6101576102f9366004610cba565b61095e565b34801561030a57600080fd5b5061031e610319366004610d4c565b610a4e565b604051901515815260200161013b565b34801561033a57600080fd5b50610224610349366004610d8c565b610ac4565b6060816001600160a01b03166306fdde036040518163ffffffff1660e01b8152600401600060405180830381865afa15801561038e573d6000803e3d6000fd5b505050506040513d6000823e601f3d908101601f191682016040526103b69190810190610ddb565b92915050565b604051635c46a7ef60e11b81526001600160a01b0387169063b88d4fde906103f09088908890889088908890600401610e88565b600060405180830381600087803b15801561040a57600080fd5b505af115801561041e573d6000803e3d6000fd5b50505050505050505050565b60405163020604bf60e21b8152600481018290526000906001600160a01b0384169063081812fc906024015b602060405180830381865afa158015610473573d6000803e3d6000fd5b505050506040513d601f19601f820116820180604052508101906104979190610edc565b9392505050565b6040516001600160a01b03838116602483015282151560448301526000919085169060640160408051601f198184030181529181526020820180516001600160e01b031663a22cb46560e01b179052516104f89190610ef9565b600060405180830381855af49150503d8060008114610533576040519150601f19603f3d011682016040523d82523d6000602084013e610538565b606091505b50509050806105855760405162461bcd60e51b815260206004820152601460248201527311195b1959d85d194818d85b1b0819985a5b195960621b60448201526064015b60405180910390fd5b50505050565b6040516323b872dd60e01b81526001600160a01b0384811660048301528381166024830152604482018390528516906323b872dd906064015b600060405180830381600087803b1580156105de57600080fd5b505af11580156105f2573d6000803e3d6000fd5b5050505050505050565b6040516331a9108f60e11b8152600481018290526000906001600160a01b03841690636352211e90602401610456565b60405163a22cb46560e01b81526001600160a01b038381166004830152821515602483015284169063a22cb465906044015b600060405180830381600087803b15801561067857600080fd5b505af115801561068c573d6000803e3d6000fd5b50505050505050565b604051632f745c5960e01b81526001600160a01b0383811660048301526024820183905260009190851690632f745c5990604401602060405180830381865afa1580156106e6573d6000803e3d6000fd5b505050506040513d601f19601f8201168201806040525081019061070a9190610f15565b949350505050565b6040516001600160a01b038381166024830152604482018390526000919085169060640160408051601f198184030181529181526020820180516001600160e01b031663095ea7b360e01b179052516104f89190610ef9565b6060816001600160a01b03166395d89b416040518163ffffffff1660e01b8152600401600060405180830381865afa15801561038e573d6000803e3d6000fd5b604051634f6ccce760e01b8152600481018290526000906001600160a01b03841690634f6ccce7906024015b602060405180830381865afa1580156107f4573d6000803e3d6000fd5b505050506040513d601f19601f820116820180604052508101906104979190610f15565b604051632142170760e11b81526001600160a01b0384811660048301528381166024830152604482018390528516906342842e0e906064016105c4565b60405163095ea7b360e01b81526001600160a01b0383811660048301526024820183905284169063095ea7b39060440161065e565b6000816001600160a01b03166318160ddd6040518163ffffffff1660e01b8152600401602060405180830381865afa1580156108ca573d6000803e3d6000fd5b505050506040513d601f19601f820116820180604052508101906103b69190610f15565b60405163c87b56dd60e01b8152600481018290526060906001600160a01b0384169063c87b56dd90602401600060405180830381865afa158015610936573d6000803e3d6000fd5b505050506040513d6000823e601f3d908101601f191682016040526104979190810190610ddb565b6040516001600160a01b0384811660248301528381166044830152606482018390526000919086169060840160408051601f198184030181529181526020820180516001600160e01b03166323b872dd60e01b179052516109bf9190610ef9565b600060405180830381855af49150503d80600081146109fa576040519150601f19603f3d011682016040523d82523d6000602084013e6109ff565b606091505b5050905080610a475760405162461bcd60e51b815260206004820152601460248201527311195b1959d85d194818d85b1b0819985a5b195960621b604482015260640161057c565b5050505050565b60405163e985e9c560e01b81526001600160a01b03838116600483015282811660248301526000919085169063e985e9c590604401602060405180830381865afa158015610aa0573d6000803e3d6000fd5b505050506040513d601f19601f8201168201806040525081019061070a9190610f2e565b6040516370a0823160e01b81526001600160a01b038281166004830152600091908416906370a08231906024016107d7565b6001600160a01b0381168114610b0b57600080fd5b50565b600060208284031215610b2057600080fd5b813561049781610af6565b60005b83811015610b46578181015183820152602001610b2e565b50506000910152565b6020815260008251806020840152610b6e816040850160208701610b2b565b601f01601f19169190910160400192915050565b60008060008060008060a08789031215610b9b57600080fd5b8635610ba681610af6565b95506020870135610bb681610af6565b94506040870135610bc681610af6565b935060608701359250608087013567ffffffffffffffff80821115610bea57600080fd5b818901915089601f830112610bfe57600080fd5b813581811115610c0d57600080fd5b8a6020828501011115610c1f57600080fd5b6020830194508093505050509295509295509295565b60008060408385031215610c4857600080fd5b8235610c5381610af6565b946020939093013593505050565b8015158114610b0b57600080fd5b600080600060608486031215610c8457600080fd5b8335610c8f81610af6565b92506020840135610c9f81610af6565b91506040840135610caf81610c61565b809150509250925092565b60008060008060808587031215610cd057600080fd5b8435610cdb81610af6565b93506020850135610ceb81610af6565b92506040850135610cfb81610af6565b9396929550929360600135925050565b600080600060608486031215610d2057600080fd5b8335610d2b81610af6565b92506020840135610d3b81610af6565b929592945050506040919091013590565b600080600060608486031215610d6157600080fd5b8335610d6c81610af6565b92506020840135610d7c81610af6565b91506040840135610caf81610af6565b60008060408385031215610d9f57600080fd5b8235610daa81610af6565b91506020830135610dba81610af6565b809150509250929050565b634e487b7160e01b600052604160045260246000fd5b600060208284031215610ded57600080fd5b815167ffffffffffffffff80821115610e0557600080fd5b818401915084601f830112610e1957600080fd5b815181811115610e2b57610e2b610dc5565b604051601f8201601f19908116603f01168101908382118183101715610e5357610e53610dc5565b81604052828152876020848701011115610e6c57600080fd5b610e7d836020830160208801610b2b565b979650505050505050565b60006001600160a01b03808816835280871660208401525084604083015260806060830152826080830152828460a0840137600060a0848401015260a0601f19601f85011683010190509695505050505050565b600060208284031215610eee57600080fd5b815161049781610af6565b60008251610f0b818460208701610b2b565b9190910192915050565b600060208284031215610f2757600080fd5b5051919050565b600060208284031215610f4057600080fd5b815161049781610c6156fea264697066735822122089717c52affa807a3eb1e0b66cb1f5b8eedbe60af75d70105349fbc28b0ddc5d64736f6c63430008170033",
  "linkReferences": {},
  "deployedLinkReferences": {}
}