{
  "_format": "hh-sol-artifact-1",
  "contractName": "ERC721Contract",
  "sourceName": "contracts/hts-precompile/examples/erc-721/ERC721Contract.sol",
  "abi": [
    {
      "inputs": [
        {
          "internalType": "address",
          "name": "token",
          "type": "address"
        },
        {
          "internalType": "address",
          "name": "to",
          "type": "address"
        },
        {
          "internalType": "uint256",
          "name": "tokenId",
          "type": "uint256"
        }
      ],
      "name": "approve",
      "outputs": [],
      "stateMutability": "payable",
      "type": "function"
    },
    {
      "inputs": [
        {
          "internalType": "address",
          "name": "token",
          "type": "address"
        },
        {
          "internalType": "address",
          "name": "owner",
          "type": "address"
        }
      ],
      "name": "balanceOf",
      "outputs": [
        {
          "internalType": "uint256",
          "name": "",
          "type": "uint256"
        }
      ],
      "stateMutability": "view",
      "type": "function"
    },
    {
      "inputs": [
        {
          "internalType": "address",
          "name": "token",
          "type": "address"
        },
        {
          "internalType": "address",
          "name": "to",
          "type": "address"
        },
        {
          "internalType": "uint256",
          "name": "tokenId",
          "type": "uint256"
        }
      ],
      "name": "delegateApprove",
      "outputs": [],
      "stateMutability": "payable",
      "type": "function"
    },
    {
      "inputs": [
        {
          "internalType": "address",
          "name": "token",
          "type": "address"
        },
        {
          "internalType": "address",
          "name": "operator",
          "type": "address"
        },
        {
          "internalType": "bool",
          "name": "approved",
          "type": "bool"
        }
      ],
      "name": "delegateSetApprovalForAll",
      "outputs": [],
      "stateMutability": "nonpayable",
      "type": "function"
    },
    {
      "inputs": [
        {
          "internalType": "address",
          "name": "token",
          "type": "address"
        },
        {
          "internalType": "address",
          "name": "from",
          "type": "address"
        },
        {
          "internalType": "address",
          "name": "to",
          "type": "address"
        },
        {
          "internalType": "uint256",
          "name": "tokenId",
          "type": "uint256"
        }
      ],
      "name": "delegateTransferFrom",
      "outputs": [],
      "stateMutability": "payable",
      "type": "function"
    },
    {
      "inputs": [
        {
          "internalType": "address",
          "name": "token",
          "type": "address"
        },
        {
          "internalType": "uint256",
          "name": "tokenId",
          "type": "uint256"
        }
      ],
      "name": "getApproved",
      "outputs": [
        {
          "internalType": "address",
          "name": "",
          "type": "address"
        }
      ],
      "stateMutability": "view",
      "type": "function"
    },
    {
      "inputs": [
        {
          "internalType": "address",
          "name": "token",
          "type": "address"
        },
        {
          "internalType": "address",
          "name": "owner",
          "type": "address"
        },
        {
          "internalType": "address",
          "name": "operator",
          "type": "address"
        }
      ],
      "name": "isApprovedForAll",
      "outputs": [
        {
          "internalType": "bool",
          "name": "",
          "type": "bool"
        }
      ],
      "stateMutability": "view",
      "type": "function"
    },
    {
      "inputs": [
        {
          "internalType": "address",
          "name": "token",
          "type": "address"
        }
      ],
      "name": "name",
      "outputs": [
        {
          "internalType": "string",
          "name": "",
          "type": "string"
        }
      ],
      "stateMutability": "view",
      "type": "function"
    },
    {
      "inputs": [
        {
          "internalType": "address",
          "name": "token",
          "type": "address"
        },
        {
          "internalType": "uint256",
          "name": "tokenId",
          "type": "uint256"
        }
      ],
      "name": "ownerOf",
      "outputs": [
        {
          "internalType": "address",
          "name": "",
          "type": "address"
        }
      ],
      "stateMutability": "view",
      "type": "function"
    },
    {
      "inputs": [
        {
          "internalType": "address",
          "name": "token",
          "type": "address"
        },
        {
          "internalType": "address",
          "name": "from",
          "type": "address"
        },
        {
          "internalType": "address",
          "name": "to",
          "type": "address"
        },
        {
          "internalType": "uint256",
          "name": "tokenId",
          "type": "uint256"
        }
      ],
      "name": "safeTransferFrom",
      "outputs": [],
      "stateMutability": "payable",
      "type": "function"
    },
    {
      "inputs": [
        {
          "internalType": "address",
          "name": "token",
          "type": "address"
        },
        {
          "internalType": "address",
          "name": "from",
          "type": "address"
        },
        {
          "internalType": "address",
          "name": "to",
          "type": "address"
        },
        {
          "internalType": "uint256",
          "name": "tokenId",
          "type": "uint256"
        },
        {
          "internalType": "bytes",
          "name": "data",
          "type": "bytes"
        }
      ],
      "name": "safeTransferFromWithData",
      "outputs": [],
      "stateMutability": "payable",
      "type": "function"
    },
    {
      "inputs": [
        {
          "internalType": "address",
          "name": "token",
          "type": "address"
        },
        {
          "internalType": "address",
          "name": "operator",
          "type": "address"
        },
        {
          "internalType": "bool",
          "name": "approved",
          "type": "bool"
        }
      ],
      "name": "setApprovalForAll",
      "outputs": [],
      "stateMutability": "nonpayable",
      "type": "function"
    },
    {
      "inputs": [
        {
          "internalType": "address",
          "name": "token",
          "type": "address"
        }
      ],
      "name": "symbol",
      "outputs": [
        {
          "internalType": "string",
          "name": "",
          "type": "string"
        }
      ],
      "stateMutability": "view",
      "type": "function"
    },
    {
      "inputs": [
        {
          "internalType": "address",
          "name": "token",
          "type": "address"
        },
        {
          "internalType": "uint256",
          "name": "index",
          "type": "uint256"
        }
      ],
      "name": "tokenByIndex",
      "outputs": [
        {
          "internalType": "uint256",
          "name": "",
          "type": "uint256"
        }
      ],
      "stateMutability": "view",
      "type": "function"
    },
    {
      "inputs": [
        {
          "internalType": "address",
          "name": "token",
          "type": "address"
        },
        {
          "internalType": "address",
          "name": "owner",
          "type": "address"
        },
        {
          "internalType": "uint256",
          "name": "index",
          "type": "uint256"
        }
      ],
      "name": "tokenOfOwnerByIndex",
      "outputs": [
        {
          "internalType": "uint256",
          "name": "",
          "type": "uint256"
        }
      ],
      "stateMutability": "view",
      "type": "function"
    },
    {
      "inputs": [
        {
          "internalType": "address",
          "name": "token",
          "type": "address"
        },
        {
          "internalType": "uint256",
          "name": "tokenId",
          "type": "uint256"
        }
      ],
      "name": "tokenURI",
      "outputs": [
        {
          "internalType": "string",
          "name": "",
          "type": "string"
        }
      ],
      "stateMutability": "view",
      "type": "function"
    },
    {
      "inputs": [
        {
          "internalType": "address",
          "name": "token",
          "type": "address"
        }
      ],
      "name": "totalSupply",
      "outputs": [
        {
          "internalType": "uint256",
          "name": "",
          "type": "uint256"
        }
      ],
      "stateMutability": "view",
      "type": "function"
    },
    {
      "inputs": [
        {
          "internalType": "address",
          "name": "token",
          "type": "address"
        },
        {
          "internalType": "address",
          "name": "from",
          "type": "address"
        },
        {
          "internalType": "address",
          "name": "to",
          "type": "address"
        },
        {
          "internalType": "uint256",
          "name": "tokenId",
          "type": "uint256"
        }
      ],
      "name": "transferFrom",
      "outputs": [],
      "stateMutability": "payable",
      "type": "function"
    }
  ],
  "bytecode": "0x608060405234801561001057600080fd5b50610f46806100206000396000f3fe6080604052600436106101095760003560e01c8063a86e357611610095578063e4dc2aa411610064578063e4dc2aa4146102ab578063e9dc6375146102cb578063eac6f3fe146102eb578063f49f40db146102fe578063f7888aec1461032e57600080fd5b8063a86e357614610245578063cb60f1bf14610265578063d9fc4b6114610285578063e1f21c671461029857600080fd5b806315dacbea116100dc57806315dacbea146101b15780631f29d2dc146101c4578063367605ca146101e45780636b42bf2f14610204578063734194a71461023257600080fd5b8063019848921461010e578063039d6f1914610144578063098f2366146101595780630db1cc1b14610191575b600080fd5b34801561011a57600080fd5b5061012e610129366004610ac7565b61034e565b60405161013b9190610b14565b60405180910390f35b610157610152366004610b47565b6103cb565b005b34801561016557600080fd5b50610179610174366004610bfa565b610439565b6040516001600160a01b03909116815260200161013b565b34801561019d57600080fd5b506101576101ac366004610c34565b6104bc565b6101576101bf366004610c7f565b61055a565b3480156101d057600080fd5b506101796101df366004610bfa565b6105cb565b3480156101f057600080fd5b506101576101ff366004610c34565b6105fb565b34801561021057600080fd5b5061022461021f366004610cd0565b610664565b60405190815260200161013b565b610157610240366004610cd0565b6106f0565b34801561025157600080fd5b5061012e610260366004610ac7565b610745565b34801561027157600080fd5b50610224610280366004610bfa565b610780565b610157610293366004610c7f565b6107fc565b6101576102a6366004610cd0565b610839565b3480156102b757600080fd5b506102246102c6366004610ac7565b61086e565b3480156102d757600080fd5b5061012e6102e6366004610bfa565b6108e1565b6101576102f9366004610c7f565b610960565b34801561030a57600080fd5b5061031e610319366004610d11565b6109f8565b604051901515815260200161013b565b34801561033a57600080fd5b50610224610349366004610d51565b610a7d565b6060816001600160a01b03166306fdde036040518163ffffffff1660e01b815260040160006040518083038186803b15801561038957600080fd5b505afa15801561039d573d6000803e3d6000fd5b505050506040513d6000823e601f3d908101601f191682016040526103c59190810190610da0565b92915050565b604051635c46a7ef60e11b81526001600160a01b0387169063b88d4fde906103ff9088908890889088908890600401610e4d565b600060405180830381600087803b15801561041957600080fd5b505af115801561042d573d6000803e3d6000fd5b50505050505050505050565b60405163020604bf60e21b8152600481018290526000906001600160a01b0384169063081812fc906024015b60206040518083038186803b15801561047d57600080fd5b505afa158015610491573d6000803e3d6000fd5b505050506040513d601f19601f820116820180604052508101906104b59190610ea1565b9392505050565b6040516001600160a01b038381166024830152821515604483015284169060640160408051601f198184030181529181526020820180516001600160e01b031663a22cb46560e01b179052516105129190610ebe565b600060405180830381855af49150503d806000811461054d576040519150601f19603f3d011682016040523d82523d6000602084013e610552565b606091505b505050505050565b6040516323b872dd60e01b81526001600160a01b0384811660048301528381166024830152604482018390528516906323b872dd906064015b600060405180830381600087803b1580156105ad57600080fd5b505af11580156105c1573d6000803e3d6000fd5b5050505050505050565b6040516331a9108f60e11b8152600481018290526000906001600160a01b03841690636352211e90602401610465565b60405163a22cb46560e01b81526001600160a01b038381166004830152821515602483015284169063a22cb465906044015b600060405180830381600087803b15801561064757600080fd5b505af115801561065b573d6000803e3d6000fd5b50505050505050565b604051632f745c5960e01b81526001600160a01b0383811660048301526024820183905260009190851690632f745c599060440160206040518083038186803b1580156106b057600080fd5b505afa1580156106c4573d6000803e3d6000fd5b505050506040513d601f19601f820116820180604052508101906106e89190610eda565b949350505050565b6040516001600160a01b0383811660248301526044820183905284169060640160408051601f198184030181529181526020820180516001600160e01b031663095ea7b360e01b179052516105129190610ebe565b6060816001600160a01b03166395d89b416040518163ffffffff1660e01b815260040160006040518083038186803b15801561038957600080fd5b604051634f6ccce760e01b8152600481018290526000906001600160a01b03841690634f6ccce7906024015b60206040518083038186803b1580156107c457600080fd5b505afa1580156107d8573d6000803e3d6000fd5b505050506040513d601f19601f820116820180604052508101906104b59190610eda565b604051632142170760e11b81526001600160a01b0384811660048301528381166024830152604482018390528516906342842e0e90606401610593565b60405163095ea7b360e01b81526001600160a01b0383811660048301526024820183905284169063095ea7b39060440161062d565b6000816001600160a01b03166318160ddd6040518163ffffffff1660e01b815260040160206040518083038186803b1580156108a957600080fd5b505afa1580156108bd573d6000803e3d6000fd5b505050506040513d601f19601f820116820180604052508101906103c59190610eda565b60405163c87b56dd60e01b8152600481018290526060906001600160a01b0384169063c87b56dd9060240160006040518083038186803b15801561092457600080fd5b505afa158015610938573d6000803e3d6000fd5b505050506040513d6000823e601f3d908101601f191682016040526104b59190810190610da0565b6040516001600160a01b03848116602483015283811660448301526064820183905285169060840160408051601f198184030181529181526020820180516001600160e01b03166323b872dd60e01b179052516109bd9190610ebe565b600060405180830381855af49150503d806000811461065b576040519150601f19603f3d011682016040523d82523d6000602084013e61065b565b60405163e985e9c560e01b81526001600160a01b03838116600483015282811660248301526000919085169063e985e9c59060440160206040518083038186803b158015610a4557600080fd5b505afa158015610a59573d6000803e3d6000fd5b505050506040513d601f19601f820116820180604052508101906106e89190610ef3565b6040516370a0823160e01b81526001600160a01b038281166004830152600091908416906370a08231906024016107ac565b6001600160a01b0381168114610ac457600080fd5b50565b600060208284031215610ad957600080fd5b81356104b581610aaf565b60005b83811015610aff578181015183820152602001610ae7565b83811115610b0e576000848401525b50505050565b6020815260008251806020840152610b33816040850160208701610ae4565b601f01601f19169190910160400192915050565b60008060008060008060a08789031215610b6057600080fd5b8635610b6b81610aaf565b95506020870135610b7b81610aaf565b94506040870135610b8b81610aaf565b935060608701359250608087013567ffffffffffffffff80821115610baf57600080fd5b818901915089601f830112610bc357600080fd5b813581811115610bd257600080fd5b8a6020828501011115610be457600080fd5b6020830194508093505050509295509295509295565b60008060408385031215610c0d57600080fd5b8235610c1881610aaf565b946020939093013593505050565b8015158114610ac457600080fd5b600080600060608486031215610c4957600080fd5b8335610c5481610aaf565b92506020840135610c6481610aaf565b91506040840135610c7481610c26565b809150509250925092565b60008060008060808587031215610c9557600080fd5b8435610ca081610aaf565b93506020850135610cb081610aaf565b92506040850135610cc081610aaf565b9396929550929360600135925050565b600080600060608486031215610ce557600080fd5b8335610cf081610aaf565b92506020840135610d0081610aaf565b929592945050506040919091013590565b600080600060608486031215610d2657600080fd5b8335610d3181610aaf565b92506020840135610d4181610aaf565b91506040840135610c7481610aaf565b60008060408385031215610d6457600080fd5b8235610d6f81610aaf565b91506020830135610d7f81610aaf565b809150509250929050565b634e487b7160e01b600052604160045260246000fd5b600060208284031215610db257600080fd5b815167ffffffffffffffff80821115610dca57600080fd5b818401915084601f830112610dde57600080fd5b815181811115610df057610df0610d8a565b604051601f8201601f19908116603f01168101908382118183101715610e1857610e18610d8a565b81604052828152876020848701011115610e3157600080fd5b610e42836020830160208801610ae4565b979650505050505050565b60006001600160a01b03808816835280871660208401525084604083015260806060830152826080830152828460a0840137600060a0848401015260a0601f19601f85011683010190509695505050505050565b600060208284031215610eb357600080fd5b81516104b581610aaf565b60008251610ed0818460208701610ae4565b9190910192915050565b600060208284031215610eec57600080fd5b5051919050565b600060208284031215610f0557600080fd5b81516104b581610c2656fea2646970667358221220df629aa4718dd204690fe956dee141105e2c5646a000edc753ffbecd57e812fc64736f6c63430008090033",
  "linkReferences": {},
  "deployedLinkReferences": {}
}