{
  "_format": "hh-sol-artifact-1",
  "contractName": "ERC721Contract",
  "sourceName": "contracts/hts-precompile/examples/erc-721/ERC721Contract.sol",
  "abi": [
    {
      "inputs": [
        {
          "internalType": "address",
          "name": "token",
          "type": "address"
        },
        {
          "internalType": "address",
          "name": "to",
          "type": "address"
        },
        {
          "internalType": "uint256",
          "name": "tokenId",
          "type": "uint256"
        }
      ],
      "name": "approve",
      "outputs": [],
      "stateMutability": "payable",
      "type": "function"
    },
    {
      "inputs": [
        {
          "internalType": "address",
          "name": "token",
          "type": "address"
        },
        {
          "internalType": "address",
          "name": "owner",
          "type": "address"
        }
      ],
      "name": "balanceOf",
      "outputs": [
        {
          "internalType": "uint256",
          "name": "",
          "type": "uint256"
        }
      ],
      "stateMutability": "view",
      "type": "function"
    },
    {
      "inputs": [
        {
          "internalType": "address",
          "name": "token",
          "type": "address"
        },
        {
          "internalType": "address",
          "name": "to",
          "type": "address"
        },
        {
          "internalType": "uint256",
          "name": "tokenId",
          "type": "uint256"
        }
      ],
      "name": "delegateApprove",
      "outputs": [],
      "stateMutability": "payable",
      "type": "function"
    },
    {
      "inputs": [
        {
          "internalType": "address",
          "name": "token",
          "type": "address"
        },
        {
          "internalType": "address",
          "name": "from",
          "type": "address"
        },
        {
          "internalType": "address",
          "name": "to",
          "type": "address"
        },
        {
          "internalType": "uint256",
          "name": "tokenId",
          "type": "uint256"
        }
      ],
      "name": "delegateTransferFrom",
      "outputs": [],
      "stateMutability": "payable",
      "type": "function"
    },
    {
      "inputs": [
        {
          "internalType": "address",
          "name": "token",
          "type": "address"
        },
        {
          "internalType": "uint256",
          "name": "tokenId",
          "type": "uint256"
        }
      ],
      "name": "getApproved",
      "outputs": [
        {
          "internalType": "address",
          "name": "",
          "type": "address"
        }
      ],
      "stateMutability": "view",
      "type": "function"
    },
    {
      "inputs": [
        {
          "internalType": "address",
          "name": "token",
          "type": "address"
        },
        {
          "internalType": "address",
          "name": "owner",
          "type": "address"
        },
        {
          "internalType": "address",
          "name": "operator",
          "type": "address"
        }
      ],
      "name": "isApprovedForAll",
      "outputs": [
        {
          "internalType": "bool",
          "name": "",
          "type": "bool"
        }
      ],
      "stateMutability": "view",
      "type": "function"
    },
    {
      "inputs": [
        {
          "internalType": "address",
          "name": "token",
          "type": "address"
        }
      ],
      "name": "name",
      "outputs": [
        {
          "internalType": "string",
          "name": "",
          "type": "string"
        }
      ],
      "stateMutability": "view",
      "type": "function"
    },
    {
      "inputs": [
        {
          "internalType": "address",
          "name": "token",
          "type": "address"
        },
        {
          "internalType": "uint256",
          "name": "tokenId",
          "type": "uint256"
        }
      ],
      "name": "ownerOf",
      "outputs": [
        {
          "internalType": "address",
          "name": "",
          "type": "address"
        }
      ],
      "stateMutability": "view",
      "type": "function"
    },
    {
      "inputs": [
        {
          "internalType": "address",
          "name": "token",
          "type": "address"
        },
        {
          "internalType": "address",
          "name": "from",
          "type": "address"
        },
        {
          "internalType": "address",
          "name": "to",
          "type": "address"
        },
        {
          "internalType": "uint256",
          "name": "tokenId",
          "type": "uint256"
        }
      ],
      "name": "safeTransferFrom",
      "outputs": [],
      "stateMutability": "payable",
      "type": "function"
    },
    {
      "inputs": [
        {
          "internalType": "address",
          "name": "token",
          "type": "address"
        },
        {
          "internalType": "address",
          "name": "from",
          "type": "address"
        },
        {
          "internalType": "address",
          "name": "to",
          "type": "address"
        },
        {
          "internalType": "uint256",
          "name": "tokenId",
          "type": "uint256"
        },
        {
          "internalType": "bytes",
          "name": "data",
          "type": "bytes"
        }
      ],
      "name": "safeTransferFromWithData",
      "outputs": [],
      "stateMutability": "payable",
      "type": "function"
    },
    {
      "inputs": [
        {
          "internalType": "address",
          "name": "token",
          "type": "address"
        },
        {
          "internalType": "address",
          "name": "operator",
          "type": "address"
        },
        {
          "internalType": "bool",
          "name": "approved",
          "type": "bool"
        }
      ],
      "name": "setApprovalForAll",
      "outputs": [],
      "stateMutability": "nonpayable",
      "type": "function"
    },
    {
      "inputs": [
        {
          "internalType": "address",
          "name": "token",
          "type": "address"
        }
      ],
      "name": "symbol",
      "outputs": [
        {
          "internalType": "string",
          "name": "",
          "type": "string"
        }
      ],
      "stateMutability": "view",
      "type": "function"
    },
    {
      "inputs": [
        {
          "internalType": "address",
          "name": "token",
          "type": "address"
        },
        {
          "internalType": "uint256",
          "name": "index",
          "type": "uint256"
        }
      ],
      "name": "tokenByIndex",
      "outputs": [
        {
          "internalType": "uint256",
          "name": "",
          "type": "uint256"
        }
      ],
      "stateMutability": "view",
      "type": "function"
    },
    {
      "inputs": [
        {
          "internalType": "address",
          "name": "token",
          "type": "address"
        },
        {
          "internalType": "address",
          "name": "owner",
          "type": "address"
        },
        {
          "internalType": "uint256",
          "name": "index",
          "type": "uint256"
        }
      ],
      "name": "tokenOfOwnerByIndex",
      "outputs": [
        {
          "internalType": "uint256",
          "name": "",
          "type": "uint256"
        }
      ],
      "stateMutability": "view",
      "type": "function"
    },
    {
      "inputs": [
        {
          "internalType": "address",
          "name": "token",
          "type": "address"
        },
        {
          "internalType": "uint256",
          "name": "tokenId",
          "type": "uint256"
        }
      ],
      "name": "tokenURI",
      "outputs": [
        {
          "internalType": "string",
          "name": "",
          "type": "string"
        }
      ],
      "stateMutability": "view",
      "type": "function"
    },
    {
      "inputs": [
        {
          "internalType": "address",
          "name": "token",
          "type": "address"
        }
      ],
      "name": "totalSupply",
      "outputs": [
        {
          "internalType": "uint256",
          "name": "",
          "type": "uint256"
        }
      ],
      "stateMutability": "view",
      "type": "function"
    },
    {
      "inputs": [
        {
          "internalType": "address",
          "name": "token",
          "type": "address"
        },
        {
          "internalType": "address",
          "name": "from",
          "type": "address"
        },
        {
          "internalType": "address",
          "name": "to",
          "type": "address"
        },
        {
          "internalType": "uint256",
          "name": "tokenId",
          "type": "uint256"
        }
      ],
      "name": "transferFrom",
      "outputs": [],
      "stateMutability": "payable",
      "type": "function"
    }
  ],
  "bytecode": "0x608060405234801561001057600080fd5b50610ec5806100206000396000f3fe6080604052600436106100fe5760003560e01c8063a86e357611610095578063e4dc2aa411610064578063e4dc2aa414610280578063e9dc6375146102a0578063eac6f3fe146102c0578063f49f40db146102d3578063f7888aec1461030357600080fd5b8063a86e35761461021a578063cb60f1bf1461023a578063d9fc4b611461025a578063e1f21c671461026d57600080fd5b80631f29d2dc116100d15780631f29d2dc14610199578063367605ca146101b95780636b42bf2f146101d9578063734194a71461020757600080fd5b80630198489214610103578063039d6f1914610139578063098f23661461014e57806315dacbea14610186575b600080fd5b34801561010f57600080fd5b5061012361011e366004610a46565b610323565b6040516101309190610a93565b60405180910390f35b61014c610147366004610ac6565b6103a0565b005b34801561015a57600080fd5b5061016e610169366004610b79565b61040e565b6040516001600160a01b039091168152602001610130565b61014c610194366004610ba5565b610491565b3480156101a557600080fd5b5061016e6101b4366004610b79565b610502565b3480156101c557600080fd5b5061014c6101d4366004610c04565b610532565b3480156101e557600080fd5b506101f96101f4366004610c4f565b61059b565b604051908152602001610130565b61014c610215366004610c4f565b610627565b34801561022657600080fd5b50610123610235366004610a46565b6106c4565b34801561024657600080fd5b506101f9610255366004610b79565b6106ff565b61014c610268366004610ba5565b61077b565b61014c61027b366004610c4f565b6107b8565b34801561028c57600080fd5b506101f961029b366004610a46565b6107ed565b3480156102ac57600080fd5b506101236102bb366004610b79565b610860565b61014c6102ce366004610ba5565b6108df565b3480156102df57600080fd5b506102f36102ee366004610c90565b610977565b6040519015158152602001610130565b34801561030f57600080fd5b506101f961031e366004610cd0565b6109fc565b6060816001600160a01b03166306fdde036040518163ffffffff1660e01b815260040160006040518083038186803b15801561035e57600080fd5b505afa158015610372573d6000803e3d6000fd5b505050506040513d6000823e601f3d908101601f1916820160405261039a9190810190610d1f565b92915050565b604051635c46a7ef60e11b81526001600160a01b0387169063b88d4fde906103d49088908890889088908890600401610dcc565b600060405180830381600087803b1580156103ee57600080fd5b505af1158015610402573d6000803e3d6000fd5b50505050505050505050565b60405163020604bf60e21b8152600481018290526000906001600160a01b0384169063081812fc906024015b60206040518083038186803b15801561045257600080fd5b505afa158015610466573d6000803e3d6000fd5b505050506040513d601f19601f8201168201806040525081019061048a9190610e20565b9392505050565b6040516323b872dd60e01b81526001600160a01b0384811660048301528381166024830152604482018390528516906323b872dd906064015b600060405180830381600087803b1580156104e457600080fd5b505af11580156104f8573d6000803e3d6000fd5b5050505050505050565b6040516331a9108f60e11b8152600481018290526000906001600160a01b03841690636352211e9060240161043a565b60405163a22cb46560e01b81526001600160a01b038381166004830152821515602483015284169063a22cb465906044015b600060405180830381600087803b15801561057e57600080fd5b505af1158015610592573d6000803e3d6000fd5b50505050505050565b604051632f745c5960e01b81526001600160a01b0383811660048301526024820183905260009190851690632f745c599060440160206040518083038186803b1580156105e757600080fd5b505afa1580156105fb573d6000803e3d6000fd5b505050506040513d601f19601f8201168201806040525081019061061f9190610e3d565b949350505050565b6040516001600160a01b0383811660248301526044820183905284169060640160408051601f198184030181529181526020820180516001600160e01b031663095ea7b360e01b1790525161067c9190610e56565b600060405180830381855af49150503d80600081146106b7576040519150601f19603f3d011682016040523d82523d6000602084013e6106bc565b606091505b505050505050565b6060816001600160a01b03166395d89b416040518163ffffffff1660e01b815260040160006040518083038186803b15801561035e57600080fd5b604051634f6ccce760e01b8152600481018290526000906001600160a01b03841690634f6ccce7906024015b60206040518083038186803b15801561074357600080fd5b505afa158015610757573d6000803e3d6000fd5b505050506040513d601f19601f8201168201806040525081019061048a9190610e3d565b604051632142170760e11b81526001600160a01b0384811660048301528381166024830152604482018390528516906342842e0e906064016104ca565b60405163095ea7b360e01b81526001600160a01b0383811660048301526024820183905284169063095ea7b390604401610564565b6000816001600160a01b03166318160ddd6040518163ffffffff1660e01b815260040160206040518083038186803b15801561082857600080fd5b505afa15801561083c573d6000803e3d6000fd5b505050506040513d601f19601f8201168201806040525081019061039a9190610e3d565b60405163c87b56dd60e01b8152600481018290526060906001600160a01b0384169063c87b56dd9060240160006040518083038186803b1580156108a357600080fd5b505afa1580156108b7573d6000803e3d6000fd5b505050506040513d6000823e601f3d908101601f1916820160405261048a9190810190610d1f565b6040516001600160a01b03848116602483015283811660448301526064820183905285169060840160408051601f198184030181529181526020820180516001600160e01b03166323b872dd60e01b1790525161093c9190610e56565b600060405180830381855af49150503d8060008114610592576040519150601f19603f3d011682016040523d82523d6000602084013e610592565b60405163e985e9c560e01b81526001600160a01b03838116600483015282811660248301526000919085169063e985e9c59060440160206040518083038186803b1580156109c457600080fd5b505afa1580156109d8573d6000803e3d6000fd5b505050506040513d601f19601f8201168201806040525081019061061f9190610e72565b6040516370a0823160e01b81526001600160a01b038281166004830152600091908416906370a082319060240161072b565b6001600160a01b0381168114610a4357600080fd5b50565b600060208284031215610a5857600080fd5b813561048a81610a2e565b60005b83811015610a7e578181015183820152602001610a66565b83811115610a8d576000848401525b50505050565b6020815260008251806020840152610ab2816040850160208701610a63565b601f01601f19169190910160400192915050565b60008060008060008060a08789031215610adf57600080fd5b8635610aea81610a2e565b95506020870135610afa81610a2e565b94506040870135610b0a81610a2e565b935060608701359250608087013567ffffffffffffffff80821115610b2e57600080fd5b818901915089601f830112610b4257600080fd5b813581811115610b5157600080fd5b8a6020828501011115610b6357600080fd5b6020830194508093505050509295509295509295565b60008060408385031215610b8c57600080fd5b8235610b9781610a2e565b946020939093013593505050565b60008060008060808587031215610bbb57600080fd5b8435610bc681610a2e565b93506020850135610bd681610a2e565b92506040850135610be681610a2e565b9396929550929360600135925050565b8015158114610a4357600080fd5b600080600060608486031215610c1957600080fd5b8335610c2481610a2e565b92506020840135610c3481610a2e565b91506040840135610c4481610bf6565b809150509250925092565b600080600060608486031215610c6457600080fd5b8335610c6f81610a2e565b92506020840135610c7f81610a2e565b929592945050506040919091013590565b600080600060608486031215610ca557600080fd5b8335610cb081610a2e565b92506020840135610cc081610a2e565b91506040840135610c4481610a2e565b60008060408385031215610ce357600080fd5b8235610cee81610a2e565b91506020830135610cfe81610a2e565b809150509250929050565b634e487b7160e01b600052604160045260246000fd5b600060208284031215610d3157600080fd5b815167ffffffffffffffff80821115610d4957600080fd5b818401915084601f830112610d5d57600080fd5b815181811115610d6f57610d6f610d09565b604051601f8201601f19908116603f01168101908382118183101715610d9757610d97610d09565b81604052828152876020848701011115610db057600080fd5b610dc1836020830160208801610a63565b979650505050505050565b60006001600160a01b03808816835280871660208401525084604083015260806060830152826080830152828460a0840137600060a0848401015260a0601f19601f85011683010190509695505050505050565b600060208284031215610e3257600080fd5b815161048a81610a2e565b600060208284031215610e4f57600080fd5b5051919050565b60008251610e68818460208701610a63565b9190910192915050565b600060208284031215610e8457600080fd5b815161048a81610bf656fea2646970667358221220435e7ab83df9e872ee32fae86e21a22612135118c0003896eb486c88cd8fe62d64736f6c63430008090033",
  "linkReferences": {},
  "deployedLinkReferences": {}
}