{
  "_format": "hh-sol-artifact-1",
  "contractName": "CryptoMath",
  "sourceName": "contracts/solidity/cryptomath/CryptoMath.sol",
  "abi": [
    {
      "inputs": [
        {
          "internalType": "uint256",
          "name": "x",
          "type": "uint256"
        },
        {
          "internalType": "uint256",
          "name": "y",
          "type": "uint256"
        },
        {
          "internalType": "uint256",
          "name": "k",
          "type": "uint256"
        }
      ],
      "name": "callAddMod",
      "outputs": [
        {
          "internalType": "uint256",
          "name": "",
          "type": "uint256"
        }
      ],
      "stateMutability": "pure",
      "type": "function"
    },
    {
      "inputs": [
        {
          "internalType": "bytes32",
          "name": "hash",
          "type": "bytes32"
        },
        {
          "internalType": "uint8",
          "name": "v",
          "type": "uint8"
        },
        {
          "internalType": "bytes32",
          "name": "r",
          "type": "bytes32"
        },
        {
          "internalType": "bytes32",
          "name": "s",
          "type": "bytes32"
        }
      ],
      "name": "callEcrecover",
      "outputs": [
        {
          "internalType": "address",
          "name": "",
          "type": "address"
        }
      ],
      "stateMutability": "pure",
      "type": "function"
    },
    {
      "inputs": [
        {
          "internalType": "bytes",
          "name": "input",
          "type": "bytes"
        }
      ],
      "name": "callKeccak256",
      "outputs": [
        {
          "internalType": "bytes32",
          "name": "",
          "type": "bytes32"
        }
      ],
      "stateMutability": "pure",
      "type": "function"
    },
    {
      "inputs": [
        {
          "internalType": "uint256",
          "name": "x",
          "type": "uint256"
        },
        {
          "internalType": "uint256",
          "name": "y",
          "type": "uint256"
        },
        {
          "internalType": "uint256",
          "name": "k",
          "type": "uint256"
        }
      ],
      "name": "callMulMod",
      "outputs": [
        {
          "internalType": "uint256",
          "name": "",
          "type": "uint256"
        }
      ],
      "stateMutability": "pure",
      "type": "function"
    },
    {
      "inputs": [
        {
          "internalType": "bytes",
          "name": "input",
          "type": "bytes"
        }
      ],
      "name": "callRipemd160",
      "outputs": [
        {
          "internalType": "bytes20",
          "name": "",
          "type": "bytes20"
        }
      ],
      "stateMutability": "pure",
      "type": "function"
    },
    {
      "inputs": [
        {
          "internalType": "bytes",
          "name": "input",
          "type": "bytes"
        }
      ],
      "name": "callSha256",
      "outputs": [
        {
          "internalType": "bytes32",
          "name": "",
          "type": "bytes32"
        }
      ],
      "stateMutability": "pure",
      "type": "function"
    }
  ],
  "bytecode": "0x608060405234801561001057600080fd5b50610444806100206000396000f3fe608060405234801561001057600080fd5b50600436106100725760003560e01c80634f9305c0116100505780634f9305c0146100e85780638af606d414610101578063dd0678f11461013257600080fd5b806301f56b7814610077578063062ddbb8146100b4578063224df9db146100d5575b600080fd5b61008a61008536600461027a565b610145565b60405173ffffffffffffffffffffffffffffffffffffffff90911681526020015b60405180910390f35b6100c76100c23660046102bd565b6101ad565b6040519081526020016100ab565b6100c76100e33660046102bd565b6101c8565b6100c76100f63660046102ff565b805160209091012090565b61011461010f3660046102ff565b6101e3565b6040516bffffffffffffffffffffffff1990911681526020016100ab565b6100c76101403660046102ff565b610222565b6040805160008082526020820180845287905260ff861692820192909252606081018490526080810183905260019060a0016020604051602081039080840390855afa158015610199573d6000803e3d6000fd5b5050604051601f1901519695505050505050565b600081806101bd576101bd6103b0565b838509949350505050565b600081806101d8576101d86103b0565b838508949350505050565b60006003826040516101f591906103c6565b602060405180830381855afa158015610212573d6000803e3d6000fd5b50506040515160601b9392505050565b600060028260405161023491906103c6565b602060405180830381855afa158015610251573d6000803e3d6000fd5b5050506040513d601f19601f8201168201806040525081019061027491906103f5565b92915050565b6000806000806080858703121561029057600080fd5b84359350602085013560ff811681146102a857600080fd5b93969395505050506040820135916060013590565b6000806000606084860312156102d257600080fd5b505081359360208301359350604090920135919050565b634e487b7160e01b600052604160045260246000fd5b60006020828403121561031157600080fd5b813567ffffffffffffffff8082111561032957600080fd5b818401915084601f83011261033d57600080fd5b81358181111561034f5761034f6102e9565b604051601f8201601f19908116603f01168101908382118183101715610377576103776102e9565b8160405282815287602084870101111561039057600080fd5b826020860160208301376000928101602001929092525095945050505050565b634e487b7160e01b600052601260045260246000fd5b6000825160005b818110156103e757602081860181015185830152016103cd565b506000920191825250919050565b60006020828403121561040757600080fd5b505191905056fea264697066735822122016e2ed062363114e78152fb57f4cfa486fd9e96f3d920f0bf121ffe6a7e45eb464736f6c63430008170033",
  "linkReferences": {},
  "deployedLinkReferences": {}
}