{
  "_format": "hh-sol-artifact-1",
  "contractName": "ERC777SenderHookImpl",
  "sourceName": "contracts/openzeppelin/ERC-777/hooks/ERC777SenderHookImpl.sol",
  "abi": [
    {
      "anonymous": false,
      "inputs": [
        {
          "indexed": false,
          "internalType": "address",
          "name": "operator",
          "type": "address"
        },
        {
          "indexed": false,
          "internalType": "address",
          "name": "from",
          "type": "address"
        },
        {
          "indexed": false,
          "internalType": "address",
          "name": "to",
          "type": "address"
        },
        {
          "indexed": false,
          "internalType": "uint256",
          "name": "amount",
          "type": "uint256"
        },
        {
          "indexed": false,
          "internalType": "bytes",
          "name": "userData",
          "type": "bytes"
        },
        {
          "indexed": false,
          "internalType": "bytes",
          "name": "operatorData",
          "type": "bytes"
        }
      ],
      "name": "ERC777SenderHook",
      "type": "event"
    },
    {
      "inputs": [
        {
          "internalType": "bytes32",
          "name": "",
          "type": "bytes32"
        },
        {
          "internalType": "address",
          "name": "",
          "type": "address"
        }
      ],
      "name": "canImplementInterfaceForAddress",
      "outputs": [
        {
          "internalType": "bytes32",
          "name": "",
          "type": "bytes32"
        }
      ],
      "stateMutability": "pure",
      "type": "function"
    },
    {
      "inputs": [
        {
          "internalType": "address",
          "name": "operator",
          "type": "address"
        },
        {
          "internalType": "address",
          "name": "from",
          "type": "address"
        },
        {
          "internalType": "address",
          "name": "to",
          "type": "address"
        },
        {
          "internalType": "uint256",
          "name": "amount",
          "type": "uint256"
        },
        {
          "internalType": "bytes",
          "name": "userData",
          "type": "bytes"
        },
        {
          "internalType": "bytes",
          "name": "operatorData",
          "type": "bytes"
        }
      ],
      "name": "tokensToSend",
      "outputs": [],
      "stateMutability": "nonpayable",
      "type": "function"
    }
  ],
  "bytecode": "0x608060405234801561001057600080fd5b5061031e806100206000396000f3fe608060405234801561001057600080fd5b50600436106100365760003560e01c8063249cb3fa1461003b57806375ab9782146100a8575b600080fd5b610096610049366004610135565b6040517f455243313832305f4143434550545f4d41474943000000000000000000000000602082015260009060340160405160208183030381529060405280519060200120905092915050565b60405190815260200160405180910390f35b6100bb6100b63660046101aa565b6100bd565b005b7fe0bcf0654b0a4c2f6a5501548303b0273eed694f922b43037a41aaea8f9823a088888888888888886040516100fa98979695949392919061027e565b60405180910390a15050505050505050565b803573ffffffffffffffffffffffffffffffffffffffff8116811461013057600080fd5b919050565b6000806040838503121561014857600080fd5b823591506101586020840161010c565b90509250929050565b60008083601f84011261017357600080fd5b50813567ffffffffffffffff81111561018b57600080fd5b6020830191508360208285010111156101a357600080fd5b9250929050565b60008060008060008060008060c0898b0312156101c657600080fd5b6101cf8961010c565b97506101dd60208a0161010c565b96506101eb60408a0161010c565b955060608901359450608089013567ffffffffffffffff8082111561020f57600080fd5b61021b8c838d01610161565b909650945060a08b013591508082111561023457600080fd5b506102418b828c01610161565b999c989b5096995094979396929594505050565b81835281816020850137506000828201602090810191909152601f909101601f19169091010190565b600073ffffffffffffffffffffffffffffffffffffffff808b168352808a16602084015280891660408401525086606083015260c060808301526102c660c083018688610255565b82810360a08401526102d9818587610255565b9b9a505050505050505050505056fea26469706673582212206104ff14899bc63c94ea146e73be7abd82574744911e8f0a75dfa9820b49e5e564736f6c63430008170033",
  "linkReferences": {},
  "deployedLinkReferences": {}
}