{
  "_format": "hh-sol-artifact-1",
  "contractName": "ERC777Token",
  "sourceName": "contracts/openzeppelin/ERC-777/ERC777Token.sol",
  "abi": [
    {
      "inputs": [
        {
          "internalType": "string",
          "name": "name_",
          "type": "string"
        },
        {
          "internalType": "string",
          "name": "symbol_",
          "type": "string"
        },
        {
          "internalType": "address",
          "name": "_erc1820Addr",
          "type": "address"
        },
        {
          "internalType": "address[]",
          "name": "defaultOperators_",
          "type": "address[]"
        }
      ],
      "stateMutability": "nonpayable",
      "type": "constructor"
    },
    {
      "anonymous": false,
      "inputs": [
        {
          "indexed": true,
          "internalType": "address",
          "name": "operator",
          "type": "address"
        },
        {
          "indexed": true,
          "internalType": "address",
          "name": "tokenHolder",
          "type": "address"
        }
      ],
      "name": "AuthorizedOperator",
      "type": "event"
    },
    {
      "anonymous": false,
      "inputs": [
        {
          "indexed": true,
          "internalType": "address",
          "name": "operator",
          "type": "address"
        },
        {
          "indexed": true,
          "internalType": "address",
          "name": "from",
          "type": "address"
        },
        {
          "indexed": false,
          "internalType": "uint256",
          "name": "amount",
          "type": "uint256"
        },
        {
          "indexed": false,
          "internalType": "bytes",
          "name": "data",
          "type": "bytes"
        },
        {
          "indexed": false,
          "internalType": "bytes",
          "name": "operatorData",
          "type": "bytes"
        }
      ],
      "name": "Burned",
      "type": "event"
    },
    {
      "anonymous": false,
      "inputs": [
        {
          "indexed": true,
          "internalType": "address",
          "name": "operator",
          "type": "address"
        },
        {
          "indexed": true,
          "internalType": "address",
          "name": "to",
          "type": "address"
        },
        {
          "indexed": false,
          "internalType": "uint256",
          "name": "amount",
          "type": "uint256"
        },
        {
          "indexed": false,
          "internalType": "bytes",
          "name": "data",
          "type": "bytes"
        },
        {
          "indexed": false,
          "internalType": "bytes",
          "name": "operatorData",
          "type": "bytes"
        }
      ],
      "name": "Minted",
      "type": "event"
    },
    {
      "anonymous": false,
      "inputs": [
        {
          "indexed": true,
          "internalType": "address",
          "name": "operator",
          "type": "address"
        },
        {
          "indexed": true,
          "internalType": "address",
          "name": "tokenHolder",
          "type": "address"
        }
      ],
      "name": "RevokedOperator",
      "type": "event"
    },
    {
      "anonymous": false,
      "inputs": [
        {
          "indexed": true,
          "internalType": "address",
          "name": "operator",
          "type": "address"
        },
        {
          "indexed": true,
          "internalType": "address",
          "name": "from",
          "type": "address"
        },
        {
          "indexed": true,
          "internalType": "address",
          "name": "to",
          "type": "address"
        },
        {
          "indexed": false,
          "internalType": "uint256",
          "name": "amount",
          "type": "uint256"
        },
        {
          "indexed": false,
          "internalType": "bytes",
          "name": "data",
          "type": "bytes"
        },
        {
          "indexed": false,
          "internalType": "bytes",
          "name": "operatorData",
          "type": "bytes"
        }
      ],
      "name": "Sent",
      "type": "event"
    },
    {
      "inputs": [
        {
          "internalType": "address",
          "name": "operator",
          "type": "address"
        }
      ],
      "name": "authorizeOperator",
      "outputs": [],
      "stateMutability": "nonpayable",
      "type": "function"
    },
    {
      "inputs": [
        {
          "internalType": "address",
          "name": "tokenHolder",
          "type": "address"
        }
      ],
      "name": "balanceOf",
      "outputs": [
        {
          "internalType": "uint256",
          "name": "",
          "type": "uint256"
        }
      ],
      "stateMutability": "view",
      "type": "function"
    },
    {
      "inputs": [
        {
          "internalType": "uint256",
          "name": "amount",
          "type": "uint256"
        },
        {
          "internalType": "bytes",
          "name": "data",
          "type": "bytes"
        }
      ],
      "name": "burn",
      "outputs": [],
      "stateMutability": "nonpayable",
      "type": "function"
    },
    {
      "inputs": [],
      "name": "defaultOperators",
      "outputs": [
        {
          "internalType": "address[]",
          "name": "",
          "type": "address[]"
        }
      ],
      "stateMutability": "view",
      "type": "function"
    },
    {
      "inputs": [],
      "name": "granularity",
      "outputs": [
        {
          "internalType": "uint256",
          "name": "",
          "type": "uint256"
        }
      ],
      "stateMutability": "view",
      "type": "function"
    },
    {
      "inputs": [
        {
          "internalType": "address",
          "name": "operator",
          "type": "address"
        },
        {
          "internalType": "address",
          "name": "tokenHolder",
          "type": "address"
        }
      ],
      "name": "isOperatorFor",
      "outputs": [
        {
          "internalType": "bool",
          "name": "",
          "type": "bool"
        }
      ],
      "stateMutability": "view",
      "type": "function"
    },
    {
      "inputs": [
        {
          "internalType": "address",
          "name": "_addr",
          "type": "address"
        },
        {
          "internalType": "uint256",
          "name": "_amount",
          "type": "uint256"
        },
        {
          "internalType": "bytes",
          "name": "userData",
          "type": "bytes"
        },
        {
          "internalType": "bytes",
          "name": "operatorData",
          "type": "bytes"
        }
      ],
      "name": "mint",
      "outputs": [],
      "stateMutability": "nonpayable",
      "type": "function"
    },
    {
      "inputs": [],
      "name": "name",
      "outputs": [
        {
          "internalType": "string",
          "name": "",
          "type": "string"
        }
      ],
      "stateMutability": "view",
      "type": "function"
    },
    {
      "inputs": [
        {
          "internalType": "address",
          "name": "account",
          "type": "address"
        },
        {
          "internalType": "uint256",
          "name": "amount",
          "type": "uint256"
        },
        {
          "internalType": "bytes",
          "name": "data",
          "type": "bytes"
        },
        {
          "internalType": "bytes",
          "name": "operatorData",
          "type": "bytes"
        }
      ],
      "name": "operatorBurn",
      "outputs": [],
      "stateMutability": "nonpayable",
      "type": "function"
    },
    {
      "inputs": [
        {
          "internalType": "address",
          "name": "sender",
          "type": "address"
        },
        {
          "internalType": "address",
          "name": "recipient",
          "type": "address"
        },
        {
          "internalType": "uint256",
          "name": "amount",
          "type": "uint256"
        },
        {
          "internalType": "bytes",
          "name": "data",
          "type": "bytes"
        },
        {
          "internalType": "bytes",
          "name": "operatorData",
          "type": "bytes"
        }
      ],
      "name": "operatorSend",
      "outputs": [],
      "stateMutability": "nonpayable",
      "type": "function"
    },
    {
      "inputs": [
        {
          "internalType": "address",
          "name": "operator",
          "type": "address"
        }
      ],
      "name": "revokeOperator",
      "outputs": [],
      "stateMutability": "nonpayable",
      "type": "function"
    },
    {
      "inputs": [
        {
          "internalType": "address",
          "name": "recipient",
          "type": "address"
        },
        {
          "internalType": "uint256",
          "name": "amount",
          "type": "uint256"
        },
        {
          "internalType": "bytes",
          "name": "data",
          "type": "bytes"
        }
      ],
      "name": "send",
      "outputs": [],
      "stateMutability": "nonpayable",
      "type": "function"
    },
    {
      "inputs": [],
      "name": "symbol",
      "outputs": [
        {
          "internalType": "string",
          "name": "",
          "type": "string"
        }
      ],
      "stateMutability": "view",
      "type": "function"
    },
    {
      "inputs": [],
      "name": "totalSupply",
      "outputs": [
        {
          "internalType": "uint256",
          "name": "",
          "type": "uint256"
        }
      ],
      "stateMutability": "view",
      "type": "function"
    }
  ],
  "bytecode": "0x60a06040523480156200001157600080fd5b506040516200197e3803806200197e8339810160408190526200003491620002d6565b60006200004285826200047e565b5060016200005184826200047e565b5080516200006790600790602084019062000162565b5060005b8151811015620000cb576001600460008484815181106200009057620000906200054a565b6020908102919091018101516001600160a01b03168252810191909152604001600020805460ff19169115159190911790556001016200006b565b506001600160a01b03821660808190526040516329965a1d60e01b815230600482018190527fac7fbab5f54a3ca8194167523c6753bfeb96a445279294b6125b68cce2177054602483015260448201526329965a1d90606401600060405180830381600087803b1580156200013f57600080fd5b505af115801562000154573d6000803e3d6000fd5b505050505050505062000560565b828054828255906000526020600020908101928215620001ba579160200282015b82811115620001ba57825182546001600160a01b0319166001600160a01b0390911617825560209092019160019091019062000183565b50620001c8929150620001cc565b5090565b5b80821115620001c85760008155600101620001cd565b634e487b7160e01b600052604160045260246000fd5b604051601f8201601f191681016001600160401b0381118282101715620002245762000224620001e3565b604052919050565b600082601f8301126200023e57600080fd5b81516001600160401b038111156200025a576200025a620001e3565b602062000270601f8301601f19168201620001f9565b82815285828487010111156200028557600080fd5b60005b83811015620002a557858101830151828201840152820162000288565b506000928101909101919091529392505050565b80516001600160a01b0381168114620002d157600080fd5b919050565b60008060008060808587031215620002ed57600080fd5b84516001600160401b03808211156200030557600080fd5b62000313888389016200022c565b95506020915081870151818111156200032b57600080fd5b6200033989828a016200022c565b9550506200034a60408801620002b9565b93506060870151818111156200035f57600080fd5b8701601f810189136200037157600080fd5b805182811115620003865762000386620001e3565b8060051b925062000399848401620001f9565b818152928201840192848101908b851115620003b457600080fd5b928501925b84841015620003dd57620003cd84620002b9565b82529285019290850190620003b9565b989b979a50959850505050505050565b600181811c908216806200040257607f821691505b6020821081036200042357634e487b7160e01b600052602260045260246000fd5b50919050565b601f82111562000479576000816000526020600020601f850160051c81016020861015620004545750805b601f850160051c820191505b81811015620004755782815560010162000460565b5050505b505050565b81516001600160401b038111156200049a576200049a620001e3565b620004b281620004ab8454620003ed565b8462000429565b602080601f831160018114620004ea5760008415620004d15750858301515b600019600386901b1c1916600185901b17855562000475565b600085815260208120601f198616915b828110156200051b57888601518255948401946001909101908401620004fa565b50858210156200053a5787850151600019600388901b60f8161c191681555b5050505050600190811b01905550565b634e487b7160e01b600052603260045260246000fd5b6080516113fb6200058360003960008181610a060152610cf001526113fb6000f3fe608060405234801561001057600080fd5b50600436106100ea5760003560e01c806395d89b411161008c578063dcdc7dd011610066578063dcdc7dd0146101ca578063fad8b32a146101dd578063fc673c4f146101f0578063fe9d93031461020357600080fd5b806395d89b411461018c5780639bd9bbc614610194578063d95b6371146101a757600080fd5b8063556f0dc7116100c8578063556f0dc71461013457806362ad1b831461013b57806370a0823114610150578063959b8c3f1461017957600080fd5b806306e48538146100ef57806306fdde031461010d57806318160ddd14610122575b600080fd5b6100f7610216565b6040516101049190610f33565b60405180910390f35b610115610278565b6040516101049190610fc6565b6002545b604051908152602001610104565b6001610126565b61014e610149366004611094565b610301565b005b61012661015e366004611127565b6001600160a01b031660009081526003602052604090205490565b61014e610187366004611127565b610387565b6101156104a4565b61014e6101a236600461114b565b6104b3565b6101ba6101b53660046111a4565b6104d6565b6040519015158152602001610104565b61014e6101d83660046111dd565b61057a565b61014e6101eb366004611127565b61058c565b61014e6101fe3660046111dd565b6106a7565b61014e61021136600461125d565b61071e565b6060600780548060200260200160405190810160405280929190818152602001828054801561026e57602002820191906000526020600020905b81546001600160a01b03168152600190910190602001808311610250575b5050505050905090565b606060008054610287906112a4565b80601f01602080910402602001604051908101604052809291908181526020018280546102b3906112a4565b801561026e5780601f106102d55761010080835404028352916020019161026e565b820191906000526020600020905b8154815290600101906020018083116102e357509395945050505050565b61030b33866104d6565b6103715760405162461bcd60e51b815260206004820152602c60248201527f4552433737373a2063616c6c6572206973206e6f7420616e206f70657261746f60448201526b39103337b9103437b63232b960a11b60648201526084015b60405180910390fd5b6103808585858585600161073d565b5050505050565b6001600160a01b03811633036103eb5760405162461bcd60e51b8152602060048201526024808201527f4552433737373a20617574686f72697a696e672073656c66206173206f70657260448201526330ba37b960e11b6064820152608401610368565b6001600160a01b03811660009081526004602052604090205460ff161561043c573360009081526006602090815260408083206001600160a01b03851684529091529020805460ff1916905561046b565b3360009081526005602090815260408083206001600160a01b03851684529091529020805460ff191660011790555b60405133906001600160a01b038316907ff4caeb2d6ca8932a215a353d0703c326ec2d81fc68170f320eb2ab49e9df61f990600090a350565b606060018054610287906112a4565b6104d13384848460405180602001604052806000815250600161073d565b505050565b6000816001600160a01b0316836001600160a01b0316148061054157506001600160a01b03831660009081526004602052604090205460ff16801561054157506001600160a01b0380831660009081526006602090815260408083209387168352929052205460ff16155b8061057157506001600160a01b0380831660009081526005602090815260408083209387168352929052205460ff165b90505b92915050565b6105868484848461083b565b50505050565b336001600160a01b038216036105ee5760405162461bcd60e51b815260206004820152602160248201527f4552433737373a207265766f6b696e672073656c66206173206f70657261746f6044820152603960f91b6064820152608401610368565b6001600160a01b03811660009081526004602052604090205460ff1615610642573360009081526006602090815260408083206001600160a01b03851684529091529020805460ff1916600117905561066e565b3360009081526005602090815260408083206001600160a01b03851684529091529020805460ff191690555b60405133906001600160a01b038316907f50546e66e5f44d728365dc3908c63bc5cfeeab470722c1677e3073a6ac294aa190600090a350565b6106b133856104d6565b6107125760405162461bcd60e51b815260206004820152602c60248201527f4552433737373a2063616c6c6572206973206e6f7420616e206f70657261746f60448201526b39103337b9103437b63232b960a11b6064820152608401610368565b61058684848484610849565b61073933838360405180602001604052806000815250610849565b5050565b6001600160a01b0386166107a25760405162461bcd60e51b815260206004820152602660248201527f4552433737373a207472616e736665722066726f6d20746865207a65726f206160448201526564647265737360d01b6064820152608401610368565b6001600160a01b0385166108045760405162461bcd60e51b8152602060048201526024808201527f4552433737373a207472616e7366657220746f20746865207a65726f206164646044820152637265737360e01b6064820152608401610368565b3361081581888888888860016109be565b610823818888888888610b8f565b61083281888888888888610ca8565b50505050505050565b610586848484846001610e3c565b6001600160a01b0384166108aa5760405162461bcd60e51b815260206004820152602260248201527f4552433737373a206275726e2066726f6d20746865207a65726f206164647265604482015261737360f01b6064820152608401610368565b336108bc8186600087878760016109be565b6001600160a01b038516600090815260036020526040902054848110156109315760405162461bcd60e51b815260206004820152602360248201527f4552433737373a206275726e20616d6f756e7420657863656564732062616c616044820152626e636560e81b6064820152608401610368565b6001600160a01b03861660009081526003602052604081208683039055600280548792906109609084906112f4565b92505081905550856001600160a01b0316826001600160a01b03167fa78a9be3a7b862d26933ad85fb11d80ef66b8f972d7cbba06621d583943a40988787876040516109ae93929190611307565b60405180910390a3505050505050565b60405163555ddc6560e11b81526001600160a01b0387811660048301527f29ddb589b1fb5fc7cf394961c1adf5f8c6454761adf795e67fe149f658abe89560248301526000917f00000000000000000000000000000000000000000000000000000000000000009091169063aabbb8ca90604401602060405180830381865afa158015610a4f573d6000803e3d6000fd5b505050506040513d601f19601f82011682018060405250810190610a73919061133c565b90506001600160a01b03811615610af157604051633ad5cbc160e11b81526001600160a01b038216906375ab978290610aba908b908b908b908b908b908b90600401611359565b600060405180830381600087803b158015610ad457600080fd5b505af1158015610ae8573d6000803e3d6000fd5b50505050610b85565b8115610b85576001600160a01b0387163b15610b855760405162461bcd60e51b815260206004820152604760248201527f4552433737373a20746f6b656e2073656e64657220636f6e747261637420686160448201527f73206e6f20696d706c656d656e74657220666f7220455243373737546f6b656e60648201526639a9b2b73232b960c91b608482015260a401610368565b5050505050505050565b6001600160a01b03851660009081526003602052604090205483811015610c085760405162461bcd60e51b815260206004820152602760248201527f4552433737373a207472616e7366657220616d6f756e7420657863656564732060448201526662616c616e636560c81b6064820152608401610368565b6001600160a01b03808716600090815260036020526040808220878503905591871681529081208054869290610c3f9084906113b2565b92505081905550846001600160a01b0316866001600160a01b0316886001600160a01b03167f06b541ddaa720db2b10a4d0cdac39b8d360425fc073085fac19bc82614677987878787604051610c9793929190611307565b60405180910390a450505050505050565b60405163555ddc6560e11b81526001600160a01b0386811660048301527fb281fc8c12954d22544db45de3159a39272895b169a852b314f9cc762e44c53b60248301526000917f00000000000000000000000000000000000000000000000000000000000000009091169063aabbb8ca90604401602060405180830381865afa158015610d39573d6000803e3d6000fd5b505050506040513d601f19601f82011682018060405250810190610d5d919061133c565b90506001600160a01b03811615610da2576040516223de2960e01b81526001600160a01b038216906223de2990610aba908b908b908b908b908b908b90600401611359565b8115610b85576001600160a01b0386163b15610b855760405162461bcd60e51b815260206004820152604d60248201527f4552433737373a20746f6b656e20726563697069656e7420636f6e747261637460448201527f20686173206e6f20696d706c656d656e74657220666f7220455243373737546f60648201526c1ad95b9cd49958da5c1a595b9d609a1b608482015260a401610368565b6001600160a01b038516610e925760405162461bcd60e51b815260206004820181905260248201527f4552433737373a206d696e7420746f20746865207a65726f20616464726573736044820152606401610368565b60003390508460026000828254610ea991906113b2565b90915550506001600160a01b03861660009081526003602052604081208054879290610ed69084906113b2565b90915550610eec90508160008888888888610ca8565b856001600160a01b0316816001600160a01b03167f2fe5be0146f74c5bce36c0b80911af6c7d86ff27e89d5cfa61fc681327954e5d8787876040516109ae93929190611307565b6020808252825182820181905260009190848201906040850190845b81811015610f745783516001600160a01b031683529284019291840191600101610f4f565b50909695505050505050565b6000815180845260005b81811015610fa657602081850181015186830182015201610f8a565b506000602082860101526020601f19601f83011685010191505092915050565b6020815260006105716020830184610f80565b6001600160a01b0381168114610fee57600080fd5b50565b634e487b7160e01b600052604160045260246000fd5b600082601f83011261101857600080fd5b813567ffffffffffffffff8082111561103357611033610ff1565b604051601f8301601f19908116603f0116810190828211818310171561105b5761105b610ff1565b8160405283815286602085880101111561107457600080fd5b836020870160208301376000602085830101528094505050505092915050565b600080600080600060a086880312156110ac57600080fd5b85356110b781610fd9565b945060208601356110c781610fd9565b935060408601359250606086013567ffffffffffffffff808211156110eb57600080fd5b6110f789838a01611007565b9350608088013591508082111561110d57600080fd5b5061111a88828901611007565b9150509295509295909350565b60006020828403121561113957600080fd5b813561114481610fd9565b9392505050565b60008060006060848603121561116057600080fd5b833561116b81610fd9565b925060208401359150604084013567ffffffffffffffff81111561118e57600080fd5b61119a86828701611007565b9150509250925092565b600080604083850312156111b757600080fd5b82356111c281610fd9565b915060208301356111d281610fd9565b809150509250929050565b600080600080608085870312156111f357600080fd5b84356111fe81610fd9565b935060208501359250604085013567ffffffffffffffff8082111561122257600080fd5b61122e88838901611007565b9350606087013591508082111561124457600080fd5b5061125187828801611007565b91505092959194509250565b6000806040838503121561127057600080fd5b82359150602083013567ffffffffffffffff81111561128e57600080fd5b61129a85828601611007565b9150509250929050565b600181811c908216806112b857607f821691505b6020821081036112d857634e487b7160e01b600052602260045260246000fd5b50919050565b634e487b7160e01b600052601160045260246000fd5b81810381811115610574576105746112de565b8381526060602082015260006113206060830185610f80565b82810360408401526113328185610f80565b9695505050505050565b60006020828403121561134e57600080fd5b815161114481610fd9565b60006001600160a01b038089168352808816602084015280871660408401525084606083015260c0608083015261139360c0830185610f80565b82810360a08401526113a58185610f80565b9998505050505050505050565b80820180821115610574576105746112de56fea2646970667358221220989e917c23a833df7fb716fb5897f23d6ba93c82db4e4d6751aab222315e706464736f6c63430008170033",
  "linkReferences": {},
  "deployedLinkReferences": {}
}