{
  "_format": "hh-sol-artifact-1",
  "contractName": "BlockInfo",
  "sourceName": "contracts/solidity/block/BlockInfo.sol",
  "abi": [
    {
      "inputs": [],
      "name": "getBlockBaseFee",
      "outputs": [
        {
          "internalType": "uint256",
          "name": "",
          "type": "uint256"
        }
      ],
      "stateMutability": "view",
      "type": "function"
    },
    {
      "inputs": [],
      "name": "getBlockDifficulty",
      "outputs": [
        {
          "internalType": "uint256",
          "name": "",
          "type": "uint256"
        }
      ],
      "stateMutability": "view",
      "type": "function"
    },
    {
      "inputs": [],
      "name": "getBlockGasLimit",
      "outputs": [
        {
          "internalType": "uint256",
          "name": "",
          "type": "uint256"
        }
      ],
      "stateMutability": "view",
      "type": "function"
    },
    {
      "inputs": [],
      "name": "getBlockHash",
      "outputs": [
        {
          "internalType": "bytes32",
          "name": "",
          "type": "bytes32"
        }
      ],
      "stateMutability": "view",
      "type": "function"
    },
    {
      "inputs": [],
      "name": "getBlockNumber",
      "outputs": [
        {
          "internalType": "uint256",
          "name": "",
          "type": "uint256"
        }
      ],
      "stateMutability": "view",
      "type": "function"
    },
    {
      "inputs": [],
      "name": "getBlockPrevrando",
      "outputs": [
        {
          "internalType": "uint256",
          "name": "",
          "type": "uint256"
        }
      ],
      "stateMutability": "view",
      "type": "function"
    },
    {
      "inputs": [],
      "name": "getBlockTimestamp",
      "outputs": [
        {
          "internalType": "uint256",
          "name": "",
          "type": "uint256"
        }
      ],
      "stateMutability": "view",
      "type": "function"
    },
    {
      "inputs": [],
      "name": "getMinerAddress",
      "outputs": [
        {
          "internalType": "address",
          "name": "",
          "type": "address"
        }
      ],
      "stateMutability": "view",
      "type": "function"
    }
  ],
  "bytecode": "0x608060405234801561001057600080fd5b5061012b806100206000396000f3fe6080604052348015600f57600080fd5b5060043610607d5760003560e01c806343169b0611605457806343169b06146082578063796b89b91460ae5780639663f88f1460b3578063b13f272b1460b957600080fd5b806312e05dd114608257806322faa3601460975780632cc8377d1460a457806342cbb15c1460a9575b600080fd5b445b6040519081526020015b60405180910390f35b604051418152602001608e565b456084565b436084565b426084565b608460be565b486084565b600060c960014360cf565b40905090565b8181038181111560ef57634e487b7160e01b600052601160045260246000fd5b9291505056fea2646970667358221220ef13b5264d17fa34b3e8612b0c07293070dcf1a1ca85bad953a70f9cfaf0bbeb64736f6c63430008170033",
  "linkReferences": {},
  "deployedLinkReferences": {}
}