{
  "_format": "hh-sol-artifact-1",
  "contractName": "ReceiverPays",
  "sourceName": "contracts/solidity/signature-example/ReceiverPays.sol",
  "abi": [
    {
      "inputs": [],
      "stateMutability": "payable",
      "type": "constructor"
    },
    {
      "inputs": [
        {
          "internalType": "uint256",
          "name": "amount",
          "type": "uint256"
        },
        {
          "internalType": "uint256",
          "name": "nonce",
          "type": "uint256"
        },
        {
          "internalType": "bytes",
          "name": "signature",
          "type": "bytes"
        }
      ],
      "name": "claimPayment",
      "outputs": [],
      "stateMutability": "nonpayable",
      "type": "function"
    },
    {
      "inputs": [],
      "name": "shutdown",
      "outputs": [],
      "stateMutability": "nonpayable",
      "type": "function"
    }
  ],
  "bytecode": "0x6080604052600080546001600160a01b03191633179055610412806100256000396000f3fe608060405234801561001057600080fd5b50600436106100365760003560e01c8063a90ae8871461003b578063fc0e74d114610050575b600080fd5b61004e610049366004610318565b610058565b005b61004e6101f7565b60008281526001602052604090205460ff16156100ac5760405162461bcd60e51b815260206004820152600d60248201526c696e76616c6964206e6f6e636560981b60448201526064015b60405180910390fd5b6000828152600160208181526040808420805460ff191690931790925581516bffffffffffffffffffffffff1933606090811b821683850152603483018990526054830188905230901b166074820152825180820360680181526088820184528051908301207f19457468657265756d205369676e6564204d6573736167653a0a33320000000060a883015260c4808301919091528351808303909101815260e4909101909252815191012090546001600160a01b031661016d8284610254565b6001600160a01b0316146101c35760405162461bcd60e51b815260206004820152601160248201527f696e76616c6964207369676e617475726500000000000000000000000000000060448201526064016100a3565b604051339085156108fc029086906000818181858888f193505050501580156101f0573d6000803e3d6000fd5b5050505050565b6000546001600160a01b031633146102515760405162461bcd60e51b815260206004820152601760248201527f6f6e6c79206f776e65722063616e2073687574646f776e00000000000000000060448201526064016100a3565b33ff5b600080600080610263856102d3565b6040805160008152602081018083528b905260ff8516918101919091526060810183905260808101829052929550909350915060019060a0016020604051602081039080840390855afa1580156102be573d6000803e3d6000fd5b5050604051601f190151979650505050505050565b600080600083516041146102e657600080fd5b5050506020810151604082015160609092015160001a92909190565b634e487b7160e01b600052604160045260246000fd5b60008060006060848603121561032d57600080fd5b8335925060208401359150604084013567ffffffffffffffff8082111561035357600080fd5b818601915086601f83011261036757600080fd5b81358181111561037957610379610302565b604051601f8201601f19908116603f011681019083821181831017156103a1576103a1610302565b816040528281528960208487010111156103ba57600080fd5b826020860160208301376000602084830101528095505050505050925092509256fea26469706673582212209f817d0f7f4b7f0d443439d32d36aaebeb12d1066c84054dbdb4029a1fcae5b964736f6c63430008170033",
  "linkReferences": {},
  "deployedLinkReferences": {}
}