{
  "_format": "hh-sol-artifact-1",
  "contractName": "ExchangeRateMock",
  "sourceName": "contracts/system-contracts/exchange-rate/ExchangeRateMock.sol",
  "abi": [
    {
      "anonymous": false,
      "inputs": [
        {
          "indexed": false,
          "internalType": "uint256",
          "name": "tinybars",
          "type": "uint256"
        }
      ],
      "name": "TinyBars",
      "type": "event"
    },
    {
      "anonymous": false,
      "inputs": [
        {
          "indexed": false,
          "internalType": "uint256",
          "name": "tinycents",
          "type": "uint256"
        }
      ],
      "name": "TinyCents",
      "type": "event"
    },
    {
      "inputs": [
        {
          "internalType": "uint256",
          "name": "tinybars",
          "type": "uint256"
        }
      ],
      "name": "convertTinybarsToTinycents",
      "outputs": [
        {
          "internalType": "uint256",
          "name": "tineycents",
          "type": "uint256"
        }
      ],
      "stateMutability": "nonpayable",
      "type": "function"
    },
    {
      "inputs": [
        {
          "internalType": "uint256",
          "name": "tineycents",
          "type": "uint256"
        }
      ],
      "name": "convertTinycentsToTinybars",
      "outputs": [
        {
          "internalType": "uint256",
          "name": "tinybars",
          "type": "uint256"
        }
      ],
      "stateMutability": "nonpayable",
      "type": "function"
    }
  ],
  "bytecode": "0x608060405234801561000f575f80fd5b506102c88061001d5f395ff3fe608060405234801561000f575f80fd5b5060043610610034575f3560e01c80634abd27a314610038578063677feb671461005d575b5f80fd5b61004b610046366004610238565b610070565b60405190815260200160405180910390f35b61004b61006b366004610238565b6100ba565b5f61007a826100f7565b90507f1e2eedf37f019c356cd1ab2a7445bef30fa8b9e32be6636e6efae70244c7b3e0816040516100ad91815260200190565b60405180910390a1919050565b5f6100c482610201565b90507fc399bb30ec076dee6179663a550714898c27a4a8cf23a336b2e49ec777779459816040516100ad91815260200190565b5f805f61016873ffffffffffffffffffffffffffffffffffffffff16632e3cff6a60e01b8560405160240161012e91815260200190565b60408051601f198184030181529181526020820180517bffffffffffffffffffffffffffffffffffffffffffffffffffffffff167fffffffff00000000000000000000000000000000000000000000000000000000909416939093179092529051610199919061024f565b5f604051808303815f865af19150503d805f81146101d2576040519150601f19603f3d011682016040523d82523d5f602084013e6101d7565b606091505b5091509150816101e5575f80fd5b808060200190518101906101f9919061027b565b949350505050565b5f805f61016873ffffffffffffffffffffffffffffffffffffffff166343a8822960e01b8560405160240161012e91815260200190565b5f60208284031215610248575f80fd5b5035919050565b5f82515f5b8181101561026e5760208186018101518583015201610254565b505f920191825250919050565b5f6020828403121561028b575f80fd5b505191905056fea264697066735822122020c2f9bdbf9c77533dcf0e817f4538cd46ba5a1d761e8d01cc311ca4cd2cc7f864736f6c63430008180033",
  "linkReferences": {},
  "deployedLinkReferences": {}
}