{
  "_format": "hh-sol-artifact-1",
  "contractName": "EthNativePrecompileCaller",
  "sourceName": "contracts/native-precompiles/EthNativePrecompileCaller.sol",
  "abi": [
    {
      "anonymous": false,
      "inputs": [
        {
          "indexed": false,
          "internalType": "bytes",
          "name": "result",
          "type": "bytes"
        }
      ],
      "name": "PrecompileResult",
      "type": "event"
    },
    {
      "anonymous": false,
      "inputs": [
        {
          "indexed": false,
          "internalType": "bytes32",
          "name": "result",
          "type": "bytes32"
        }
      ],
      "name": "PrecompileResult32",
      "type": "event"
    },
    {
      "anonymous": false,
      "inputs": [
        {
          "indexed": false,
          "internalType": "uint256",
          "name": "result",
          "type": "uint256"
        }
      ],
      "name": "PrecompileResultUint",
      "type": "event"
    },
    {
      "inputs": [
        {
          "internalType": "bytes",
          "name": "callData",
          "type": "bytes"
        }
      ],
      "name": "call0x01",
      "outputs": [
        {
          "internalType": "bool",
          "name": "",
          "type": "bool"
        }
      ],
      "stateMutability": "nonpayable",
      "type": "function"
    },
    {
      "inputs": [
        {
          "internalType": "string",
          "name": "input",
          "type": "string"
        }
      ],
      "name": "call0x02",
      "outputs": [
        {
          "internalType": "bool",
          "name": "",
          "type": "bool"
        }
      ],
      "stateMutability": "nonpayable",
      "type": "function"
    },
    {
      "inputs": [
        {
          "internalType": "string",
          "name": "input",
          "type": "string"
        }
      ],
      "name": "call0x02sha256",
      "outputs": [
        {
          "internalType": "bytes32",
          "name": "",
          "type": "bytes32"
        }
      ],
      "stateMutability": "pure",
      "type": "function"
    },
    {
      "inputs": [
        {
          "internalType": "string",
          "name": "input",
          "type": "string"
        }
      ],
      "name": "call0x03",
      "outputs": [
        {
          "internalType": "bool",
          "name": "",
          "type": "bool"
        }
      ],
      "stateMutability": "nonpayable",
      "type": "function"
    },
    {
      "inputs": [
        {
          "internalType": "string",
          "name": "data",
          "type": "string"
        }
      ],
      "name": "call0x04",
      "outputs": [
        {
          "internalType": "bool",
          "name": "",
          "type": "bool"
        }
      ],
      "stateMutability": "nonpayable",
      "type": "function"
    },
    {
      "inputs": [
        {
          "internalType": "uint64",
          "name": "base",
          "type": "uint64"
        },
        {
          "internalType": "uint64",
          "name": "exp",
          "type": "uint64"
        },
        {
          "internalType": "uint64",
          "name": "modulus",
          "type": "uint64"
        }
      ],
      "name": "call0x05",
      "outputs": [
        {
          "internalType": "bytes",
          "name": "",
          "type": "bytes"
        }
      ],
      "stateMutability": "nonpayable",
      "type": "function"
    },
    {
      "inputs": [
        {
          "internalType": "bytes",
          "name": "callData",
          "type": "bytes"
        }
      ],
      "name": "call0x06",
      "outputs": [
        {
          "internalType": "bool",
          "name": "",
          "type": "bool"
        }
      ],
      "stateMutability": "nonpayable",
      "type": "function"
    },
    {
      "inputs": [
        {
          "internalType": "bytes",
          "name": "callData",
          "type": "bytes"
        }
      ],
      "name": "call0x07",
      "outputs": [
        {
          "internalType": "bool",
          "name": "",
          "type": "bool"
        }
      ],
      "stateMutability": "nonpayable",
      "type": "function"
    },
    {
      "inputs": [
        {
          "internalType": "bytes",
          "name": "callData",
          "type": "bytes"
        }
      ],
      "name": "call0x08",
      "outputs": [
        {
          "internalType": "bool",
          "name": "",
          "type": "bool"
        }
      ],
      "stateMutability": "nonpayable",
      "type": "function"
    },
    {
      "inputs": [
        {
          "internalType": "bytes",
          "name": "callData",
          "type": "bytes"
        }
      ],
      "name": "call0x09",
      "outputs": [
        {
          "internalType": "bool",
          "name": "",
          "type": "bool"
        }
      ],
      "stateMutability": "nonpayable",
      "type": "function"
    }
  ],
  "bytecode": "0x608060405234801561001057600080fd5b50610e2e806100206000396000f3fe608060405234801561001057600080fd5b506004361061009e5760003560e01c8063830d164b11610066578063830d164b146101245780638ac063fb14610137578063ae6928c214610158578063e030a3d21461016b578063fa285edf1461017e57600080fd5b80630fcbb997146100a3578063128f1e1c146100cb57806335d43f10146100de5780635cd72a8b146100f157806380cd05bd14610111575b600080fd5b6100b66100b1366004610b71565b610191565b60405190151581526020015b60405180910390f35b6100b66100d9366004610b71565b6102da565b6100b66100ec366004610b71565b6103e7565b6101046100ff366004610bd0565b6104da565b6040516100c29190610c37565b6100b661011f366004610b71565b610694565b6100b6610132366004610b71565b610746565b61014a610145366004610c80565b610860565b6040519081526020016100c2565b6100b6610166366004610c80565b6108ba565b6100b6610179366004610b71565b6109c4565b6100b661018c366004610b71565b610a76565b600080600060066001600160a01b031685856040516101b1929190610d31565b600060405180830381855afa9150503d80600081146101ec576040519150601f19603f3d011682016040523d82523d6000602084013e6101f1565b606091505b5091509150816102485760405162461bcd60e51b815260206004820152601d60248201527f4572726f722063616c6c696e6720707265636f6d70696c65203078303600000060448201526064015b60405180910390fd5b6000808280602001905181019061025f9190610d41565b915091507fa4d25ad3af8cd28c310d289065bd4a5427f045fa4e168cdebb590bbbc7d914b68260405161029491815260200190565b60405180910390a16040518181527fa4d25ad3af8cd28c310d289065bd4a5427f045fa4e168cdebb590bbbc7d914b69060200160405180910390a1509195945050505050565b600080600060086001600160a01b031685856040516102fa929190610d31565b600060405180830381855afa9150503d8060008114610335576040519150601f19603f3d011682016040523d82523d6000602084013e61033a565b606091505b50915091508161038c5760405162461bcd60e51b815260206004820152601d60248201527f4572726f722063616c6c696e6720707265636f6d70696c652030783038000000604482015260640161023f565b6000818060200190518101906103a29190610d65565b90507fa4d25ad3af8cd28c310d289065bd4a5427f045fa4e168cdebb590bbbc7d914b6816040516103d591815260200190565b60405180910390a15090949350505050565b600080600060016001600160a01b03168585604051610407929190610d31565b6000604051808303816000865af19150503d8060008114610444576040519150601f19603f3d011682016040523d82523d6000602084013e610449565b606091505b50915091508161049b5760405162461bcd60e51b815260206004820152601d60248201527f4572726f722063616c6c696e6720707265636f6d70696c652030783031000000604482015260640161023f565b7f1e294729a14a0826febb93010ae2a312c2099fa867fcd57d7cedcaf2a65957b1816040516104ca9190610c37565b60405180910390a1509392505050565b604080517fffffffffffffffff00000000000000000000000000000000000000000000000060c086811b821660208401819052845180850360080181526028850186525187831b84166048860181905286518087036030018152605087018852519388901b909416607086018190528651808703605801815260788701885251609887019290925260b886019390935260d8808601919091528551808603909101815260f8850186526101188501919091526101208401929092526101288301528251808303610110018152610130830190935260609290916000906105c7908490849061015001610d7e565b604051602081830303815290604052905060008060056001600160a01b0316836040516105f49190610dad565b6000604051808303816000865af19150503d8060008114610631576040519150601f19603f3d011682016040523d82523d6000602084013e610636565b606091505b5091509150816106885760405162461bcd60e51b815260206004820152601d60248201527f4572726f722063616c6c696e6720707265636f6d70696c652030783035000000604482015260640161023f565b98975050505050505050565b600080600060076001600160a01b031685856040516106b4929190610d31565b600060405180830381855afa9150503d80600081146106ef576040519150601f19603f3d011682016040523d82523d6000602084013e6106f4565b606091505b5091509150816102485760405162461bcd60e51b815260206004820152601d60248201527f4572726f722063616c6c696e6720707265636f6d70696c652030783037000000604482015260640161023f565b600080600060046001600160a01b03168585604051610766929190610d31565b600060405180830381855afa9150503d80600081146107a1576040519150601f19603f3d011682016040523d82523d6000602084013e6107a6565b606091505b5091509150816107f85760405162461bcd60e51b815260206004820152601d60248201527f4572726f722063616c6c696e6720707265636f6d70696c652030783034000000604482015260640161023f565b7f1e294729a14a0826febb93010ae2a312c2099fa867fcd57d7cedcaf2a65957b1816040516108279190610c37565b60405180910390a17f1e294729a14a0826febb93010ae2a312c2099fa867fcd57d7cedcaf2a65957b185856040516104ca929190610dc9565b6000806002836040516108739190610dad565b602060405180830381855afa158015610890573d6000803e3d6000fd5b5050506040513d601f19601f820116820180604052508101906108b39190610d65565b9392505050565b600080600060026001600160a01b0316846040516108d89190610dad565b600060405180830381855afa9150503d8060008114610913576040519150601f19603f3d011682016040523d82523d6000602084013e610918565b606091505b50915091508161096a5760405162461bcd60e51b815260206004820152601d60248201527f4572726f722063616c6c696e6720707265636f6d70696c652030783032000000604482015260640161023f565b6000818060200190518101906109809190610d65565b90507fa4d25ad3af8cd28c310d289065bd4a5427f045fa4e168cdebb590bbbc7d914b6816040516109b391815260200190565b60405180910390a150909392505050565b600080600060036001600160a01b031685856040516109e4929190610d31565b600060405180830381855afa9150503d8060008114610a1f576040519150601f19603f3d011682016040523d82523d6000602084013e610a24565b606091505b50915091508161038c5760405162461bcd60e51b815260206004820152601d60248201527f4572726f722063616c6c696e6720707265636f6d70696c652030783033000000604482015260640161023f565b600080600060096001600160a01b03168585604051610a96929190610d31565b600060405180830381855afa9150503d8060008114610ad1576040519150601f19603f3d011682016040523d82523d6000602084013e610ad6565b606091505b50915091508161049b5760405162461bcd60e51b815260206004820152601d60248201527f4572726f722063616c6c696e6720707265636f6d70696c652030783039000000604482015260640161023f565b60008083601f840112610b3a57600080fd5b50813567ffffffffffffffff811115610b5257600080fd5b602083019150836020828501011115610b6a57600080fd5b9250929050565b60008060208385031215610b8457600080fd5b823567ffffffffffffffff811115610b9b57600080fd5b610ba785828601610b28565b90969095509350505050565b803567ffffffffffffffff81168114610bcb57600080fd5b919050565b600080600060608486031215610be557600080fd5b610bee84610bb3565b9250610bfc60208501610bb3565b9150610c0a60408501610bb3565b90509250925092565b60005b83811015610c2e578181015183820152602001610c16565b50506000910152565b6020815260008251806020840152610c56816040850160208701610c13565b601f01601f19169190910160400192915050565b634e487b7160e01b600052604160045260246000fd5b600060208284031215610c9257600080fd5b813567ffffffffffffffff80821115610caa57600080fd5b818401915084601f830112610cbe57600080fd5b813581811115610cd057610cd0610c6a565b604051601f8201601f19908116603f01168101908382118183101715610cf857610cf8610c6a565b81604052828152876020848701011115610d1157600080fd5b826020860160208301376000928101602001929092525095945050505050565b8183823760009101908152919050565b60008060408385031215610d5457600080fd5b505080516020909101519092909150565b600060208284031215610d7757600080fd5b5051919050565b60008351610d90818460208801610c13565b835190830190610da4818360208801610c13565b01949350505050565b60008251610dbf818460208701610c13565b9190910192915050565b60208152816020820152818360408301376000818301604090810191909152601f909201601f1916010191905056fea26469706673582212209a74272a8e84f17d7a8cd2b6fb69841bfd04a1a7812d339dfcd90a9f6e16120064736f6c63430008170033",
  "linkReferences": {},
  "deployedLinkReferences": {}
}