{
  "_format": "hh-sol-artifact-1",
  "contractName": "EthNativePrecompileCaller",
  "sourceName": "contracts/native-precompiles/EthNativePrecompileCaller.sol",
  "abi": [
    {
      "anonymous": false,
      "inputs": [
        {
          "indexed": false,
          "internalType": "bytes",
          "name": "result",
          "type": "bytes"
        }
      ],
      "name": "PrecompileResult",
      "type": "event"
    },
    {
      "anonymous": false,
      "inputs": [
        {
          "indexed": false,
          "internalType": "bytes32",
          "name": "result",
          "type": "bytes32"
        }
      ],
      "name": "PrecompileResult32",
      "type": "event"
    },
    {
      "anonymous": false,
      "inputs": [
        {
          "indexed": false,
          "internalType": "uint256",
          "name": "result",
          "type": "uint256"
        }
      ],
      "name": "PrecompileResultUint",
      "type": "event"
    },
    {
      "inputs": [
        {
          "internalType": "bytes",
          "name": "callData",
          "type": "bytes"
        }
      ],
      "name": "call0x01",
      "outputs": [
        {
          "internalType": "bool",
          "name": "",
          "type": "bool"
        }
      ],
      "stateMutability": "nonpayable",
      "type": "function"
    },
    {
      "inputs": [
        {
          "internalType": "string",
          "name": "input",
          "type": "string"
        }
      ],
      "name": "call0x02",
      "outputs": [
        {
          "internalType": "bool",
          "name": "",
          "type": "bool"
        }
      ],
      "stateMutability": "nonpayable",
      "type": "function"
    },
    {
      "inputs": [
        {
          "internalType": "string",
          "name": "input",
          "type": "string"
        }
      ],
      "name": "call0x02sha256",
      "outputs": [
        {
          "internalType": "bytes32",
          "name": "",
          "type": "bytes32"
        }
      ],
      "stateMutability": "pure",
      "type": "function"
    },
    {
      "inputs": [
        {
          "internalType": "string",
          "name": "input",
          "type": "string"
        }
      ],
      "name": "call0x03",
      "outputs": [
        {
          "internalType": "bool",
          "name": "",
          "type": "bool"
        }
      ],
      "stateMutability": "nonpayable",
      "type": "function"
    },
    {
      "inputs": [
        {
          "internalType": "string",
          "name": "data",
          "type": "string"
        }
      ],
      "name": "call0x04",
      "outputs": [
        {
          "internalType": "bool",
          "name": "",
          "type": "bool"
        }
      ],
      "stateMutability": "nonpayable",
      "type": "function"
    },
    {
      "inputs": [
        {
          "internalType": "bytes",
          "name": "callData",
          "type": "bytes"
        }
      ],
      "name": "call0x05",
      "outputs": [
        {
          "internalType": "bool",
          "name": "",
          "type": "bool"
        }
      ],
      "stateMutability": "nonpayable",
      "type": "function"
    },
    {
      "inputs": [
        {
          "internalType": "bytes",
          "name": "callData",
          "type": "bytes"
        }
      ],
      "name": "call0x06",
      "outputs": [
        {
          "internalType": "bool",
          "name": "",
          "type": "bool"
        }
      ],
      "stateMutability": "nonpayable",
      "type": "function"
    },
    {
      "inputs": [
        {
          "internalType": "bytes",
          "name": "callData",
          "type": "bytes"
        }
      ],
      "name": "call0x07",
      "outputs": [
        {
          "internalType": "bool",
          "name": "",
          "type": "bool"
        }
      ],
      "stateMutability": "nonpayable",
      "type": "function"
    },
    {
      "inputs": [
        {
          "internalType": "bytes",
          "name": "callData",
          "type": "bytes"
        }
      ],
      "name": "call0x08",
      "outputs": [
        {
          "internalType": "bool",
          "name": "",
          "type": "bool"
        }
      ],
      "stateMutability": "nonpayable",
      "type": "function"
    },
    {
      "inputs": [
        {
          "internalType": "bytes",
          "name": "callData",
          "type": "bytes"
        }
      ],
      "name": "call0x09",
      "outputs": [
        {
          "internalType": "bool",
          "name": "",
          "type": "bool"
        }
      ],
      "stateMutability": "nonpayable",
      "type": "function"
    }
  ],
  "bytecode": "0x608060405234801561001057600080fd5b50610c8a806100206000396000f3fe608060405234801561001057600080fd5b506004361061009e5760003560e01c80638ac063fb116100665780638ac063fb14610117578063ae6928c214610138578063e030a3d21461014b578063f81d3c651461015e578063fa285edf1461017157600080fd5b80630fcbb997146100a3578063128f1e1c146100cb57806335d43f10146100de57806380cd05bd146100f1578063830d164b14610104575b600080fd5b6100b66100b1366004610a5c565b610184565b60405190151581526020015b60405180910390f35b6100b66100d9366004610a5c565b6102cd565b6100b66100ec366004610a5c565b6103da565b6100b66100ff366004610a5c565b6104cd565b6100b6610112366004610a5c565b61057f565b61012a610125366004610ab4565b610699565b6040519081526020016100c2565b6100b6610146366004610ab4565b6106f3565b6100b6610159366004610a5c565b6107fd565b6100b661016c366004610a5c565b6108af565b6100b661017f366004610a5c565b610961565b600080600060066001600160a01b031685856040516101a4929190610b65565b600060405180830381855afa9150503d80600081146101df576040519150601f19603f3d011682016040523d82523d6000602084013e6101e4565b606091505b50915091508161023b5760405162461bcd60e51b815260206004820152601d60248201527f4572726f722063616c6c696e6720707265636f6d70696c65203078303600000060448201526064015b60405180910390fd5b600080828060200190518101906102529190610b75565b915091507fa4d25ad3af8cd28c310d289065bd4a5427f045fa4e168cdebb590bbbc7d914b68260405161028791815260200190565b60405180910390a16040518181527fa4d25ad3af8cd28c310d289065bd4a5427f045fa4e168cdebb590bbbc7d914b69060200160405180910390a1509195945050505050565b600080600060086001600160a01b031685856040516102ed929190610b65565b600060405180830381855afa9150503d8060008114610328576040519150601f19603f3d011682016040523d82523d6000602084013e61032d565b606091505b50915091508161037f5760405162461bcd60e51b815260206004820152601d60248201527f4572726f722063616c6c696e6720707265636f6d70696c6520307830380000006044820152606401610232565b6000818060200190518101906103959190610b99565b90507fa4d25ad3af8cd28c310d289065bd4a5427f045fa4e168cdebb590bbbc7d914b6816040516103c891815260200190565b60405180910390a15090949350505050565b600080600060016001600160a01b031685856040516103fa929190610b65565b6000604051808303816000865af19150503d8060008114610437576040519150601f19603f3d011682016040523d82523d6000602084013e61043c565b606091505b50915091508161048e5760405162461bcd60e51b815260206004820152601d60248201527f4572726f722063616c6c696e6720707265636f6d70696c6520307830310000006044820152606401610232565b7f1e294729a14a0826febb93010ae2a312c2099fa867fcd57d7cedcaf2a65957b1816040516104bd9190610bd6565b60405180910390a1509392505050565b600080600060076001600160a01b031685856040516104ed929190610b65565b600060405180830381855afa9150503d8060008114610528576040519150601f19603f3d011682016040523d82523d6000602084013e61052d565b606091505b50915091508161023b5760405162461bcd60e51b815260206004820152601d60248201527f4572726f722063616c6c696e6720707265636f6d70696c6520307830370000006044820152606401610232565b600080600060046001600160a01b0316858560405161059f929190610b65565b600060405180830381855afa9150503d80600081146105da576040519150601f19603f3d011682016040523d82523d6000602084013e6105df565b606091505b5091509150816106315760405162461bcd60e51b815260206004820152601d60248201527f4572726f722063616c6c696e6720707265636f6d70696c6520307830340000006044820152606401610232565b7f1e294729a14a0826febb93010ae2a312c2099fa867fcd57d7cedcaf2a65957b1816040516106609190610bd6565b60405180910390a17f1e294729a14a0826febb93010ae2a312c2099fa867fcd57d7cedcaf2a65957b185856040516104bd929190610c09565b6000806002836040516106ac9190610c38565b602060405180830381855afa1580156106c9573d6000803e3d6000fd5b5050506040513d601f19601f820116820180604052508101906106ec9190610b99565b9392505050565b600080600060026001600160a01b0316846040516107119190610c38565b600060405180830381855afa9150503d806000811461074c576040519150601f19603f3d011682016040523d82523d6000602084013e610751565b606091505b5091509150816107a35760405162461bcd60e51b815260206004820152601d60248201527f4572726f722063616c6c696e6720707265636f6d70696c6520307830320000006044820152606401610232565b6000818060200190518101906107b99190610b99565b90507fa4d25ad3af8cd28c310d289065bd4a5427f045fa4e168cdebb590bbbc7d914b6816040516107ec91815260200190565b60405180910390a150909392505050565b600080600060036001600160a01b0316858560405161081d929190610b65565b600060405180830381855afa9150503d8060008114610858576040519150601f19603f3d011682016040523d82523d6000602084013e61085d565b606091505b50915091508161037f5760405162461bcd60e51b815260206004820152601d60248201527f4572726f722063616c6c696e6720707265636f6d70696c6520307830330000006044820152606401610232565b600080600060056001600160a01b031685856040516108cf929190610b65565b600060405180830381855afa9150503d806000811461090a576040519150601f19603f3d011682016040523d82523d6000602084013e61090f565b606091505b50915091508161037f5760405162461bcd60e51b815260206004820152601d60248201527f4572726f722063616c6c696e6720707265636f6d70696c6520307830350000006044820152606401610232565b600080600060096001600160a01b03168585604051610981929190610b65565b600060405180830381855afa9150503d80600081146109bc576040519150601f19603f3d011682016040523d82523d6000602084013e6109c1565b606091505b50915091508161048e5760405162461bcd60e51b815260206004820152601d60248201527f4572726f722063616c6c696e6720707265636f6d70696c6520307830390000006044820152606401610232565b60008083601f840112610a2557600080fd5b50813567ffffffffffffffff811115610a3d57600080fd5b602083019150836020828501011115610a5557600080fd5b9250929050565b60008060208385031215610a6f57600080fd5b823567ffffffffffffffff811115610a8657600080fd5b610a9285828601610a13565b90969095509350505050565b634e487b7160e01b600052604160045260246000fd5b600060208284031215610ac657600080fd5b813567ffffffffffffffff80821115610ade57600080fd5b818401915084601f830112610af257600080fd5b813581811115610b0457610b04610a9e565b604051601f8201601f19908116603f01168101908382118183101715610b2c57610b2c610a9e565b81604052828152876020848701011115610b4557600080fd5b826020860160208301376000928101602001929092525095945050505050565b8183823760009101908152919050565b60008060408385031215610b8857600080fd5b505080516020909101519092909150565b600060208284031215610bab57600080fd5b5051919050565b60005b83811015610bcd578181015183820152602001610bb5565b50506000910152565b6020815260008251806020840152610bf5816040850160208701610bb2565b601f01601f19169190910160400192915050565b60208152816020820152818360408301376000818301604090810191909152601f909201601f19160101919050565b60008251610c4a818460208701610bb2565b919091019291505056fea2646970667358221220dbb53decdff9b1305d3f596b3addf2b6c7a47378f7fb78b7e184ef70afbaea9564736f6c63430008140033",
  "linkReferences": {},
  "deployedLinkReferences": {}
}