{
  "_format": "hh-sol-artifact-1",
  "contractName": "AddressContract",
  "sourceName": "contracts/solidity/address/Address.sol",
  "abi": [
    {
      "anonymous": false,
      "inputs": [
        {
          "indexed": false,
          "internalType": "string",
          "name": "a",
          "type": "string"
        }
      ],
      "name": "emitMessage",
      "type": "event"
    },
    {
      "anonymous": false,
      "inputs": [
        {
          "indexed": false,
          "internalType": "bool",
          "name": "success",
          "type": "bool"
        }
      ],
      "name": "emitMessageData",
      "type": "event"
    },
    {
      "anonymous": false,
      "inputs": [
        {
          "indexed": false,
          "internalType": "bool",
          "name": "answer",
          "type": "bool"
        },
        {
          "indexed": false,
          "internalType": "bytes",
          "name": "data",
          "type": "bytes"
        }
      ],
      "name": "res",
      "type": "event"
    },
    {
      "inputs": [
        {
          "internalType": "address payable",
          "name": "addressToQuery",
          "type": "address"
        },
        {
          "internalType": "uint256",
          "name": "amount",
          "type": "uint256"
        }
      ],
      "name": "callAddr",
      "outputs": [
        {
          "internalType": "bool",
          "name": "",
          "type": "bool"
        }
      ],
      "stateMutability": "nonpayable",
      "type": "function"
    },
    {
      "inputs": [
        {
          "internalType": "address payable",
          "name": "addressToQuery",
          "type": "address"
        },
        {
          "internalType": "uint256",
          "name": "amount",
          "type": "uint256"
        },
        {
          "internalType": "string",
          "name": "functionSig",
          "type": "string"
        }
      ],
      "name": "callAddrWithSig",
      "outputs": [
        {
          "internalType": "bytes",
          "name": "",
          "type": "bytes"
        }
      ],
      "stateMutability": "payable",
      "type": "function"
    },
    {
      "inputs": [],
      "name": "callNonExistingAddress",
      "outputs": [],
      "stateMutability": "nonpayable",
      "type": "function"
    },
    {
      "inputs": [
        {
          "internalType": "address payable",
          "name": "addressToQuery",
          "type": "address"
        },
        {
          "internalType": "string",
          "name": "functionSig",
          "type": "string"
        }
      ],
      "name": "delegate",
      "outputs": [
        {
          "internalType": "bytes",
          "name": "",
          "type": "bytes"
        }
      ],
      "stateMutability": "payable",
      "type": "function"
    },
    {
      "inputs": [
        {
          "internalType": "address",
          "name": "addressToQuery",
          "type": "address"
        }
      ],
      "name": "getAddressBalance",
      "outputs": [
        {
          "internalType": "uint256",
          "name": "",
          "type": "uint256"
        }
      ],
      "stateMutability": "view",
      "type": "function"
    },
    {
      "inputs": [
        {
          "internalType": "address",
          "name": "addressToQuery",
          "type": "address"
        }
      ],
      "name": "getAddressCode",
      "outputs": [
        {
          "internalType": "bytes",
          "name": "",
          "type": "bytes"
        }
      ],
      "stateMutability": "view",
      "type": "function"
    },
    {
      "inputs": [
        {
          "internalType": "address",
          "name": "addressToQuery",
          "type": "address"
        }
      ],
      "name": "getAddressCodeHash",
      "outputs": [
        {
          "internalType": "bytes32",
          "name": "",
          "type": "bytes32"
        }
      ],
      "stateMutability": "view",
      "type": "function"
    },
    {
      "inputs": [
        {
          "internalType": "address payable",
          "name": "addressToQuery",
          "type": "address"
        },
        {
          "internalType": "uint256",
          "name": "amount",
          "type": "uint256"
        }
      ],
      "name": "sendTo",
      "outputs": [
        {
          "internalType": "bool",
          "name": "",
          "type": "bool"
        }
      ],
      "stateMutability": "nonpayable",
      "type": "function"
    },
    {
      "inputs": [
        {
          "internalType": "address payable",
          "name": "addressToQuery",
          "type": "address"
        },
        {
          "internalType": "string",
          "name": "functionSig",
          "type": "string"
        }
      ],
      "name": "staticCall",
      "outputs": [
        {
          "internalType": "bytes",
          "name": "",
          "type": "bytes"
        }
      ],
      "stateMutability": "payable",
      "type": "function"
    },
    {
      "inputs": [
        {
          "internalType": "address payable",
          "name": "addressToQuery",
          "type": "address"
        },
        {
          "internalType": "string",
          "name": "functionSig",
          "type": "string"
        },
        {
          "internalType": "uint256",
          "name": "number",
          "type": "uint256"
        }
      ],
      "name": "staticCallSet",
      "outputs": [
        {
          "internalType": "bytes",
          "name": "",
          "type": "bytes"
        }
      ],
      "stateMutability": "payable",
      "type": "function"
    },
    {
      "inputs": [
        {
          "internalType": "address payable",
          "name": "addressToQuery",
          "type": "address"
        },
        {
          "internalType": "uint256",
          "name": "amount",
          "type": "uint256"
        }
      ],
      "name": "transferTo",
      "outputs": [],
      "stateMutability": "nonpayable",
      "type": "function"
    },
    {
      "stateMutability": "payable",
      "type": "receive"
    }
  ],
  "bytecode": "0x60e0604052602160808181529062000c8b60a039600090620000229082620000f5565b50600180546001600160a01b03191664e8d4a50fff1790553480156200004757600080fd5b50620001c1565b634e487b7160e01b600052604160045260246000fd5b600181811c908216806200007957607f821691505b6020821081036200009a57634e487b7160e01b600052602260045260246000fd5b50919050565b601f821115620000f0576000816000526020600020601f850160051c81016020861015620000cb5750805b601f850160051c820191505b81811015620000ec57828155600101620000d7565b5050505b505050565b81516001600160401b038111156200011157620001116200004e565b620001298162000122845462000064565b84620000a0565b602080601f831160018114620001615760008415620001485750858301515b600019600386901b1c1916600185901b178555620000ec565b600085815260208120601f198616915b82811015620001925788860151825594840194600190910190840162000171565b5085821015620001b15787850151600019600388901b60f8161c191681555b5050505050600190811b01905550565b610aba80620001d16000396000f3fe6080604052600436106100b05760003560e01c80637f07ebf411610074578063d5f45b7e1161004e578063d5f45b7e146101ce578063d9c12231146101ee578063dc8e89141461020357600080fd5b80637f07ebf4146101635780639e1a00aa1461018b578063c2954285146101bb57600080fd5b80630effde2a146100bc5780632ccb1b30146100e557806335046722146101075780635e1296791461013d5780637c9b42221461015057600080fd5b366100b757005b600080fd5b6100cf6100ca366004610890565b610223565b6040516100dc9190610930565b60405180910390f35b3480156100f157600080fd5b5061010561010036600461094a565b610351565b005b34801561011357600080fd5b5061012f610122366004610976565b6001600160a01b03163190565b6040519081526020016100dc565b6100cf61014b366004610890565b61038c565b6100cf61015e366004610993565b610433565b34801561016f57600080fd5b5061012f61017e366004610976565b6001600160a01b03163f90565b34801561019757600080fd5b506101ab6101a636600461094a565b610569565b60405190151581526020016100dc565b6100cf6101c93660046109ec565b6105d8565b3480156101da57600080fd5b506100cf6101e9366004610976565b610688565b3480156101fa57600080fd5b506101056106b6565b34801561020f57600080fd5b506101ab61021e36600461094a565b61074b565b6040805160048152602481019182905260609160009182916001600160a01b0387169190610252908790610a45565b60408051918290039091206020830180516001600160e01b03166001600160e01b0319909216919091179052516102899190610a45565b600060405180830381855afa9150503d80600081146102c4576040519150601f19603f3d011682016040523d82523d6000602084013e6102c9565b606091505b5091509150816103105760405162461bcd60e51b815260206004820152600d60248201526c4572726f722063616c6c696e6760981b60448201526064015b60405180910390fd5b7fe7074f0c502697e04ca45ddd313cdd2fba43f4190584801a390520d6d45a2b4b8282604051610341929190610a61565b60405180910390a1949350505050565b6040516001600160a01b0383169082156108fc029083906000818181858888f19350505050158015610387573d6000803e3d6000fd5b505050565b6040805160048152602481019182905260609160009182916001600160a01b0387169163055d4a80916103c0908890610a45565b60408051918290039091206020830180516001600160e01b03166001600160e01b0319909216919091179052516103f79190610a45565b6000604051808303818686f4925050503d80600081146102c4576040519150601f19603f3d011682016040523d82523d6000602084013e6102c9565b6060600080856001600160a01b0316620dbba086866040516024016040516020818303038152906040529060405161046b9190610a45565b60408051918290039091206020830180516001600160e01b03166001600160e01b0319909216919091179052516104a29190610a45565b600060405180830381858888f193505050503d80600081146104e0576040519150601f19603f3d011682016040523d82523d6000602084013e6104e5565b606091505b5091509150816105275760405162461bcd60e51b815260206004820152600d60248201526c4572726f722063616c6c696e6760981b6044820152606401610307565b7fe7074f0c502697e04ca45ddd313cdd2fba43f4190584801a390520d6d45a2b4b8282604051610558929190610a61565b60405180910390a195945050505050565b600080836001600160a01b03166108fc849081150290604051600060405180830381858888f1935050505090507f1d29d0f04057864b829c60f025fdba344f1623eb30b90820f5a6c39ffbd1c512816040516105c9911515815260200190565b60405180910390a19392505050565b6060600080856001600160a01b031685856040516024016105fb91815260200190565b60408051601f19818403018152908290529161061691610a45565b60408051918290039091206020830180516001600160e01b03166001600160e01b03199092169190911790525161064d9190610a45565b600060405180830381855afa9150503d80600081146104e0576040519150601f19603f3d011682016040523d82523d6000602084013e6104e5565b6060816001600160a01b0316803b806020016040519081016040528181526000908060200190933c92915050565b60015460405160009182916001600160a01b03909116908281818181865af19150503d8060008114610704576040519150601f19603f3d011682016040523d82523d6000602084013e610709565b606091505b50915091507fe7074f0c502697e04ca45ddd313cdd2fba43f4190584801a390520d6d45a2b4b828260405161073f929190610a61565b60405180910390a15050565b600080836001600160a01b03168360405160006040518083038185875af1925050503d8060008114610799576040519150601f19603f3d011682016040523d82523d6000602084013e61079e565b606091505b505090507f1d29d0f04057864b829c60f025fdba344f1623eb30b90820f5a6c39ffbd1c512816040516105c9911515815260200190565b6001600160a01b03811681146107ea57600080fd5b50565b634e487b7160e01b600052604160045260246000fd5b600082601f83011261081457600080fd5b813567ffffffffffffffff8082111561082f5761082f6107ed565b604051601f8301601f19908116603f01168101908282118183101715610857576108576107ed565b8160405283815286602085880101111561087057600080fd5b836020870160208301376000602085830101528094505050505092915050565b600080604083850312156108a357600080fd5b82356108ae816107d5565b9150602083013567ffffffffffffffff8111156108ca57600080fd5b6108d685828601610803565b9150509250929050565b60005b838110156108fb5781810151838201526020016108e3565b50506000910152565b6000815180845261091c8160208601602086016108e0565b601f01601f19169290920160200192915050565b6020815260006109436020830184610904565b9392505050565b6000806040838503121561095d57600080fd5b8235610968816107d5565b946020939093013593505050565b60006020828403121561098857600080fd5b8135610943816107d5565b6000806000606084860312156109a857600080fd5b83356109b3816107d5565b925060208401359150604084013567ffffffffffffffff8111156109d657600080fd5b6109e286828701610803565b9150509250925092565b600080600060608486031215610a0157600080fd5b8335610a0c816107d5565b9250602084013567ffffffffffffffff811115610a2857600080fd5b610a3486828701610803565b925050604084013590509250925092565b60008251610a578184602087016108e0565b9190910192915050565b8215158152604060208201526000610a7c6040830184610904565b94935050505056fea26469706673582212206e1cbf9a78f4ccfc4e30fd49a825bd40acbefc40e2fcbc5d0dc085376914759e64736f6c6343000817003348656c6c6f20576f726c642066726f6d2041646472657373436f6e747261637421",
  "linkReferences": {},
  "deployedLinkReferences": {}
}