{
  "_format": "hh-sol-artifact-1",
  "contractName": "AddressContract",
  "sourceName": "contracts/solidity/address/Address.sol",
  "abi": [
    {
      "anonymous": false,
      "inputs": [
        {
          "indexed": false,
          "internalType": "string",
          "name": "a",
          "type": "string"
        }
      ],
      "name": "emitMessage",
      "type": "event"
    },
    {
      "anonymous": false,
      "inputs": [
        {
          "indexed": false,
          "internalType": "bool",
          "name": "answer",
          "type": "bool"
        },
        {
          "indexed": false,
          "internalType": "bytes",
          "name": "data",
          "type": "bytes"
        }
      ],
      "name": "res",
      "type": "event"
    },
    {
      "inputs": [
        {
          "internalType": "address payable",
          "name": "addressToQuery",
          "type": "address"
        },
        {
          "internalType": "uint256",
          "name": "amount",
          "type": "uint256"
        }
      ],
      "name": "callAddr",
      "outputs": [],
      "stateMutability": "nonpayable",
      "type": "function"
    },
    {
      "inputs": [
        {
          "internalType": "address payable",
          "name": "addressToQuery",
          "type": "address"
        },
        {
          "internalType": "uint256",
          "name": "amount",
          "type": "uint256"
        },
        {
          "internalType": "string",
          "name": "functionSig",
          "type": "string"
        }
      ],
      "name": "callAddrWithSig",
      "outputs": [
        {
          "internalType": "bytes",
          "name": "",
          "type": "bytes"
        }
      ],
      "stateMutability": "payable",
      "type": "function"
    },
    {
      "inputs": [
        {
          "internalType": "address payable",
          "name": "addressToQuery",
          "type": "address"
        },
        {
          "internalType": "string",
          "name": "functionSig",
          "type": "string"
        }
      ],
      "name": "delegate",
      "outputs": [
        {
          "internalType": "bytes",
          "name": "",
          "type": "bytes"
        }
      ],
      "stateMutability": "payable",
      "type": "function"
    },
    {
      "inputs": [
        {
          "internalType": "address",
          "name": "addressToQuery",
          "type": "address"
        }
      ],
      "name": "getAddressBalance",
      "outputs": [
        {
          "internalType": "uint256",
          "name": "",
          "type": "uint256"
        }
      ],
      "stateMutability": "view",
      "type": "function"
    },
    {
      "inputs": [
        {
          "internalType": "address",
          "name": "addressToQuery",
          "type": "address"
        }
      ],
      "name": "getAddressCode",
      "outputs": [
        {
          "internalType": "bytes",
          "name": "",
          "type": "bytes"
        }
      ],
      "stateMutability": "view",
      "type": "function"
    },
    {
      "inputs": [
        {
          "internalType": "address",
          "name": "addressToQuery",
          "type": "address"
        }
      ],
      "name": "getAddressCodeHash",
      "outputs": [
        {
          "internalType": "bytes32",
          "name": "",
          "type": "bytes32"
        }
      ],
      "stateMutability": "view",
      "type": "function"
    },
    {
      "inputs": [
        {
          "internalType": "address payable",
          "name": "addressToQuery",
          "type": "address"
        },
        {
          "internalType": "uint256",
          "name": "amount",
          "type": "uint256"
        }
      ],
      "name": "sendTo",
      "outputs": [],
      "stateMutability": "nonpayable",
      "type": "function"
    },
    {
      "inputs": [
        {
          "internalType": "address payable",
          "name": "addressToQuery",
          "type": "address"
        },
        {
          "internalType": "string",
          "name": "functionSig",
          "type": "string"
        }
      ],
      "name": "staticCall",
      "outputs": [
        {
          "internalType": "bytes",
          "name": "",
          "type": "bytes"
        }
      ],
      "stateMutability": "payable",
      "type": "function"
    },
    {
      "inputs": [
        {
          "internalType": "address payable",
          "name": "addressToQuery",
          "type": "address"
        },
        {
          "internalType": "string",
          "name": "functionSig",
          "type": "string"
        },
        {
          "internalType": "uint256",
          "name": "number",
          "type": "uint256"
        }
      ],
      "name": "staticCallSet",
      "outputs": [
        {
          "internalType": "bytes",
          "name": "",
          "type": "bytes"
        }
      ],
      "stateMutability": "payable",
      "type": "function"
    },
    {
      "inputs": [
        {
          "internalType": "address payable",
          "name": "addressToQuery",
          "type": "address"
        },
        {
          "internalType": "uint256",
          "name": "amount",
          "type": "uint256"
        }
      ],
      "name": "transferTo",
      "outputs": [],
      "stateMutability": "nonpayable",
      "type": "function"
    },
    {
      "stateMutability": "payable",
      "type": "receive"
    }
  ],
  "bytecode": "0x60e06040526021608081815290610b8460a03960009061001f90826100d1565b5034801561002c57600080fd5b50610190565b634e487b7160e01b600052604160045260246000fd5b600181811c9082168061005c57607f821691505b60208210810361007c57634e487b7160e01b600052602260045260246000fd5b50919050565b601f8211156100cc57600081815260208120601f850160051c810160208610156100a95750805b601f850160051c820191505b818110156100c8578281556001016100b5565b5050505b505050565b81516001600160401b038111156100ea576100ea610032565b6100fe816100f88454610048565b84610082565b602080601f831160018114610133576000841561011b5750858301515b600019600386901b1c1916600185901b1785556100c8565b600085815260208120601f198616915b8281101561016257888601518255948401946001909101908401610143565b50858210156101805787850151600019600388901b60f8161c191681555b5050505050600190811b01905550565b6109e58061019f6000396000f3fe6080604052600436106100955760003560e01c80637f07ebf4116100595780637f07ebf4146101485780639e1a00aa14610170578063c295428514610190578063d5f45b7e146101a3578063dc8e8914146101c357600080fd5b80630effde2a146100a15780632ccb1b30146100ca57806335046722146100ec5780635e129679146101225780637c9b42221461013557600080fd5b3661009c57005b600080fd5b6100b46100af3660046107bb565b6101e3565b6040516100c1919061085b565b60405180910390f35b3480156100d657600080fd5b506100ea6100e5366004610875565b610311565b005b3480156100f857600080fd5b506101146101073660046108a1565b6001600160a01b03163190565b6040519081526020016100c1565b6100b46101303660046107bb565b61034c565b6100b46101433660046108be565b6103f3565b34801561015457600080fd5b506101146101633660046108a1565b6001600160a01b03163f90565b34801561017c57600080fd5b506100ea61018b366004610875565b610529565b6100b461019e366004610917565b61058f565b3480156101af57600080fd5b506100b46101be3660046108a1565b61063f565b3480156101cf57600080fd5b506100ea6101de366004610875565b61066d565b6040805160048152602481019182905260609160009182916001600160a01b0387169190610212908790610970565b60408051918290039091206020830180516001600160e01b03166001600160e01b0319909216919091179052516102499190610970565b600060405180830381855afa9150503d8060008114610284576040519150601f19603f3d011682016040523d82523d6000602084013e610289565b606091505b5091509150816102d05760405162461bcd60e51b815260206004820152600d60248201526c4572726f722063616c6c696e6760981b60448201526064015b60405180910390fd5b7fe7074f0c502697e04ca45ddd313cdd2fba43f4190584801a390520d6d45a2b4b828260405161030192919061098c565b60405180910390a1949350505050565b6040516001600160a01b0383169082156108fc029083906000818181858888f19350505050158015610347573d6000803e3d6000fd5b505050565b6040805160048152602481019182905260609160009182916001600160a01b0387169163055d4a8091610380908890610970565b60408051918290039091206020830180516001600160e01b03166001600160e01b0319909216919091179052516103b79190610970565b6000604051808303818686f4925050503d8060008114610284576040519150601f19603f3d011682016040523d82523d6000602084013e610289565b6060600080856001600160a01b0316620dbba086866040516024016040516020818303038152906040529060405161042b9190610970565b60408051918290039091206020830180516001600160e01b03166001600160e01b0319909216919091179052516104629190610970565b600060405180830381858888f193505050503d80600081146104a0576040519150601f19603f3d011682016040523d82523d6000602084013e6104a5565b606091505b5091509150816104e75760405162461bcd60e51b815260206004820152600d60248201526c4572726f722063616c6c696e6760981b60448201526064016102c7565b7fe7074f0c502697e04ca45ddd313cdd2fba43f4190584801a390520d6d45a2b4b828260405161051892919061098c565b60405180910390a195945050505050565b6040516000906001600160a01b0384169083156108fc0290849084818181858888f193505050509050806103475760405162461bcd60e51b815260206004820152600d60248201526c4572726f722073656e64696e6760981b60448201526064016102c7565b6060600080856001600160a01b031685856040516024016105b291815260200190565b60408051601f1981840301815290829052916105cd91610970565b60408051918290039091206020830180516001600160e01b03166001600160e01b0319909216919091179052516106049190610970565b600060405180830381855afa9150503d80600081146104a0576040519150601f19603f3d011682016040523d82523d6000602084013e6104a5565b6060816001600160a01b0316803b806020016040519081016040528181526000908060200190933c92915050565b6000826001600160a01b03168260405160006040518083038185875af1925050503d80600081146106ba576040519150601f19603f3d011682016040523d82523d6000602084013e6106bf565b606091505b50509050806103475760405162461bcd60e51b815260206004820152600d60248201526c4572726f722063616c6c696e6760981b60448201526064016102c7565b6001600160a01b038116811461071557600080fd5b50565b634e487b7160e01b600052604160045260246000fd5b600082601f83011261073f57600080fd5b813567ffffffffffffffff8082111561075a5761075a610718565b604051601f8301601f19908116603f0116810190828211818310171561078257610782610718565b8160405283815286602085880101111561079b57600080fd5b836020870160208301376000602085830101528094505050505092915050565b600080604083850312156107ce57600080fd5b82356107d981610700565b9150602083013567ffffffffffffffff8111156107f557600080fd5b6108018582860161072e565b9150509250929050565b60005b8381101561082657818101518382015260200161080e565b50506000910152565b6000815180845261084781602086016020860161080b565b601f01601f19169290920160200192915050565b60208152600061086e602083018461082f565b9392505050565b6000806040838503121561088857600080fd5b823561089381610700565b946020939093013593505050565b6000602082840312156108b357600080fd5b813561086e81610700565b6000806000606084860312156108d357600080fd5b83356108de81610700565b925060208401359150604084013567ffffffffffffffff81111561090157600080fd5b61090d8682870161072e565b9150509250925092565b60008060006060848603121561092c57600080fd5b833561093781610700565b9250602084013567ffffffffffffffff81111561095357600080fd5b61095f8682870161072e565b925050604084013590509250925092565b6000825161098281846020870161080b565b9190910192915050565b82151581526040602082015260006109a7604083018461082f565b94935050505056fea2646970667358221220f61d2cbda2b2f7b1ca10b20314a10d4493bdd966fb9ef4daadae74c0be90e6f764736f6c6343000814003348656c6c6f20576f726c642066726f6d2041646472657373436f6e747261637421",
  "linkReferences": {},
  "deployedLinkReferences": {}
}