{
  "_format": "hh-sol-artifact-1",
  "contractName": "Factory",
  "sourceName": "contracts/Factory.sol",
  "abi": [
    {
      "anonymous": false,
      "inputs": [
        {
          "indexed": false,
          "internalType": "address",
          "name": "addr",
          "type": "address"
        },
        {
          "indexed": false,
          "internalType": "uint256",
          "name": "salt",
          "type": "uint256"
        }
      ],
      "name": "Deployed",
      "type": "event"
    },
    {
      "inputs": [
        {
          "internalType": "bytes",
          "name": "bytecode",
          "type": "bytes"
        }
      ],
      "name": "deploy",
      "outputs": [
        {
          "internalType": "address",
          "name": "addr",
          "type": "address"
        }
      ],
      "stateMutability": "nonpayable",
      "type": "function"
    },
    {
      "inputs": [
        {
          "internalType": "bytes",
          "name": "bytecode",
          "type": "bytes"
        },
        {
          "internalType": "uint256",
          "name": "salt",
          "type": "uint256"
        }
      ],
      "name": "deploy2",
      "outputs": [
        {
          "internalType": "address",
          "name": "",
          "type": "address"
        }
      ],
      "stateMutability": "nonpayable",
      "type": "function"
    },
    {
      "inputs": [
        {
          "internalType": "bytes",
          "name": "bytecode",
          "type": "bytes"
        },
        {
          "internalType": "uint256",
          "name": "salt",
          "type": "uint256"
        }
      ],
      "name": "getPredictedAddress",
      "outputs": [
        {
          "internalType": "address",
          "name": "",
          "type": "address"
        }
      ],
      "stateMutability": "view",
      "type": "function"
    }
  ],
  "bytecode": "0x608060405234801561001057600080fd5b506105c7806100206000396000f3fe608060405234801561001057600080fd5b50600436106100405760003560e01c806277436014610045578063467fb93114610075578063b980a2b2146100a5575b600080fd5b61005f600480360381019061005a91906102f3565b6100d5565b60405161006c919061037d565b60405180910390f35b61008f600480360381019061008a91906103ce565b6100f2565b60405161009c919061037d565b60405180910390f35b6100bf60048036038101906100ba91906103ce565b61013c565b6040516100cc919061037d565b60405180910390f35b60008151602083016000f09050803b6100ed57600080fd5b919050565b60008060ff60f81b30848680519060200120604051602001610117949392919061050b565b6040516020818303038152906040528051906020012090508060001c91505092915050565b600080828451602086016000f59050803b61015657600080fd5b7fb03c53b28e78a88e31607a27e1fa48234dce28d5d9d9ec7b295aeb02e674a1e18184604051610187929190610568565b60405180910390a18091505092915050565b6000604051905090565b600080fd5b600080fd5b600080fd5b600080fd5b6000601f19601f8301169050919050565b7f4e487b7100000000000000000000000000000000000000000000000000000000600052604160045260246000fd5b610200826101b7565b810181811067ffffffffffffffff8211171561021f5761021e6101c8565b5b80604052505050565b6000610232610199565b905061023e82826101f7565b919050565b600067ffffffffffffffff82111561025e5761025d6101c8565b5b610267826101b7565b9050602081019050919050565b82818337600083830152505050565b600061029661029184610243565b610228565b9050828152602081018484840111156102b2576102b16101b2565b5b6102bd848285610274565b509392505050565b600082601f8301126102da576102d96101ad565b5b81356102ea848260208601610283565b91505092915050565b600060208284031215610309576103086101a3565b5b600082013567ffffffffffffffff811115610327576103266101a8565b5b610333848285016102c5565b91505092915050565b600073ffffffffffffffffffffffffffffffffffffffff82169050919050565b60006103678261033c565b9050919050565b6103778161035c565b82525050565b6000602082019050610392600083018461036e565b92915050565b6000819050919050565b6103ab81610398565b81146103b657600080fd5b50565b6000813590506103c8816103a2565b92915050565b600080604083850312156103e5576103e46101a3565b5b600083013567ffffffffffffffff811115610403576104026101a8565b5b61040f858286016102c5565b9250506020610420858286016103b9565b9150509250929050565b60007fff0000000000000000000000000000000000000000000000000000000000000082169050919050565b6000819050919050565b61047161046c8261042a565b610456565b82525050565b60008160601b9050919050565b600061048f82610477565b9050919050565b60006104a182610484565b9050919050565b6104b96104b48261035c565b610496565b82525050565b6000819050919050565b6104da6104d582610398565b6104bf565b82525050565b6000819050919050565b6000819050919050565b610505610500826104e0565b6104ea565b82525050565b60006105178287610460565b60018201915061052782866104a8565b60148201915061053782856104c9565b60208201915061054782846104f4565b60208201915081905095945050505050565b61056281610398565b82525050565b600060408201905061057d600083018561036e565b61058a6020830184610559565b939250505056fea264697066735822122070fa6784f348ea7ac2c416058d5e3ed4ea8ce93d55d9e4ad811a8243768032f464736f6c63430008140033",
  "linkReferences": {},
  "deployedLinkReferences": {}
}