{
  "_format": "hh-sol-artifact-1",
  "contractName": "AnotherContract",
  "sourceName": "contracts/solidity/typeops/AnotherContract.sol",
  "abi": [
    {
      "inputs": [],
      "name": "myFunction",
      "outputs": [
        {
          "internalType": "uint256",
          "name": "",
          "type": "uint256"
        }
      ],
      "stateMutability": "pure",
      "type": "function"
    },
    {
      "inputs": [],
      "name": "sayHelloWorld",
      "outputs": [
        {
          "internalType": "string",
          "name": "",
          "type": "string"
        }
      ],
      "stateMutability": "pure",
      "type": "function"
    }
  ],
  "bytecode": "0x608060405234801561001057600080fd5b5060fb8061001f6000396000f3fe6080604052348015600f57600080fd5b506004361060325760003560e01c806345773e4e146037578063c3780a3a14606b575b600080fd5b604080518082018252600b81526a12195b1b1bc815dbdc9b1960aa1b60208201529051606291906079565b60405180910390f35b604051607b81526020016062565b600060208083528351808285015260005b8181101560a457858101830151858201604001528201608a565b506000604082860101526040601f19601f830116850101925050509291505056fea2646970667358221220359d0640d327182f5005289b502c694c49e709adf4e5e14b8786b21054b7282d64736f6c63430008140033",
  "linkReferences": {},
  "deployedLinkReferences": {}
}