{
  "_format": "hh-sol-artifact-1",
  "contractName": "ShanghaiOpcodes",
  "sourceName": "contracts/shanghai-opcodes/ShanghaiOpcodes.sol",
  "abi": [
    {
      "inputs": [
        {
          "internalType": "address",
          "name": "_addr",
          "type": "address"
        }
      ],
      "name": "opExtCodeHash",
      "outputs": [
        {
          "internalType": "bytes32",
          "name": "_resp",
          "type": "bytes32"
        }
      ],
      "stateMutability": "view",
      "type": "function"
    },
    {
      "inputs": [],
      "name": "opPush0",
      "outputs": [
        {
          "internalType": "uint256",
          "name": "_resp",
          "type": "uint256"
        }
      ],
      "stateMutability": "pure",
      "type": "function"
    },
    {
      "inputs": [
        {
          "internalType": "uint256",
          "name": "_one",
          "type": "uint256"
        },
        {
          "internalType": "uint256",
          "name": "_two",
          "type": "uint256"
        }
      ],
      "name": "opSar",
      "outputs": [
        {
          "internalType": "uint256",
          "name": "_resp",
          "type": "uint256"
        }
      ],
      "stateMutability": "pure",
      "type": "function"
    },
    {
      "inputs": [
        {
          "internalType": "uint256",
          "name": "_one",
          "type": "uint256"
        },
        {
          "internalType": "uint256",
          "name": "_two",
          "type": "uint256"
        }
      ],
      "name": "opShl",
      "outputs": [
        {
          "internalType": "uint256",
          "name": "_resp",
          "type": "uint256"
        }
      ],
      "stateMutability": "pure",
      "type": "function"
    },
    {
      "inputs": [
        {
          "internalType": "uint256",
          "name": "_one",
          "type": "uint256"
        },
        {
          "internalType": "uint256",
          "name": "_two",
          "type": "uint256"
        }
      ],
      "name": "opShr",
      "outputs": [
        {
          "internalType": "uint256",
          "name": "_resp",
          "type": "uint256"
        }
      ],
      "stateMutability": "pure",
      "type": "function"
    }
  ],
  "bytecode": "0x608060405234801561001057600080fd5b50610155806100206000396000f3fe608060405234801561001057600080fd5b50600436106100575760003560e01c80631bdbf00f1461005c5780634cb909a3146100805780638d71c7ff1461009357806399174e14146100a6578063b20ba9b1146100ad575b600080fd5b61006e61006a3660046100c0565b3f90565b60405190815260200160405180910390f35b61006e61008e3660046100fd565b901b90565b61006e6100a13660046100fd565b901d90565b605f61006e565b61006e6100bb3660046100fd565b901c90565b6000602082840312156100d257600080fd5b813573ffffffffffffffffffffffffffffffffffffffff811681146100f657600080fd5b9392505050565b6000806040838503121561011057600080fd5b5050803592602090910135915056fea26469706673582212207376790d853d6313f22867d84d1022a5e11b1b547c5135b8a3da1f4b57a12d0164736f6c63430008170033",
  "linkReferences": {},
  "deployedLinkReferences": {}
}