{
  "_format": "hh-sol-artifact-1",
  "contractName": "InternalCaller",
  "sourceName": "contracts/discrepancies/nonce/InternalCaller.sol",
  "abi": [
    {
      "inputs": [],
      "stateMutability": "payable",
      "type": "constructor"
    },
    {
      "stateMutability": "payable",
      "type": "fallback"
    },
    {
      "inputs": [
        {
          "internalType": "address",
          "name": "_addr",
          "type": "address"
        }
      ],
      "name": "callExternalFunction",
      "outputs": [
        {
          "internalType": "uint256",
          "name": "",
          "type": "uint256"
        }
      ],
      "stateMutability": "nonpayable",
      "type": "function"
    },
    {
      "inputs": [
        {
          "internalType": "address",
          "name": "_addr",
          "type": "address"
        }
      ],
      "name": "callNonExisting",
      "outputs": [],
      "stateMutability": "nonpayable",
      "type": "function"
    },
    {
      "inputs": [
        {
          "internalType": "address",
          "name": "_addr",
          "type": "address"
        }
      ],
      "name": "callRevertWithRevertReason",
      "outputs": [],
      "stateMutability": "nonpayable",
      "type": "function"
    },
    {
      "inputs": [
        {
          "internalType": "address",
          "name": "_addr",
          "type": "address"
        }
      ],
      "name": "callRevertWithoutRevertReason",
      "outputs": [],
      "stateMutability": "nonpayable",
      "type": "function"
    },
    {
      "inputs": [
        {
          "internalType": "address",
          "name": "_addr",
          "type": "address"
        }
      ],
      "name": "callWithValueTo",
      "outputs": [],
      "stateMutability": "nonpayable",
      "type": "function"
    },
    {
      "inputs": [
        {
          "internalType": "address",
          "name": "_addr",
          "type": "address"
        }
      ],
      "name": "delegateCallExternalFunction",
      "outputs": [
        {
          "internalType": "uint256",
          "name": "",
          "type": "uint256"
        }
      ],
      "stateMutability": "nonpayable",
      "type": "function"
    },
    {
      "inputs": [
        {
          "internalType": "address payable",
          "name": "_addr",
          "type": "address"
        }
      ],
      "name": "selfdestruct",
      "outputs": [],
      "stateMutability": "nonpayable",
      "type": "function"
    },
    {
      "inputs": [
        {
          "internalType": "address payable",
          "name": "_addr",
          "type": "address"
        }
      ],
      "name": "sendTo",
      "outputs": [],
      "stateMutability": "nonpayable",
      "type": "function"
    },
    {
      "inputs": [
        {
          "internalType": "address",
          "name": "_addr",
          "type": "address"
        }
      ],
      "name": "staticCallExternalFunction",
      "outputs": [
        {
          "internalType": "uint256",
          "name": "",
          "type": "uint256"
        }
      ],
      "stateMutability": "nonpayable",
      "type": "function"
    },
    {
      "inputs": [
        {
          "internalType": "address",
          "name": "_addr",
          "type": "address"
        }
      ],
      "name": "staticCallNonExisting",
      "outputs": [],
      "stateMutability": "nonpayable",
      "type": "function"
    },
    {
      "inputs": [
        {
          "internalType": "address payable",
          "name": "_addr",
          "type": "address"
        }
      ],
      "name": "transferTo",
      "outputs": [],
      "stateMutability": "nonpayable",
      "type": "function"
    },
    {
      "stateMutability": "payable",
      "type": "receive"
    }
  ],
  "bytecode": "0x60806040526106e4806100136000396000f3fe6080604052600436106100a75760003560e01c8063a03fa7e31161006e578063cfc720071161004b578063cfc72007146101c2578063dd731395146101e2578063e6d252451461020257005b8063a03fa7e314610162578063a6a3a30014610182578063cc19f13f146101a257005b80632da1b130146100b05780633e657d0a146100d05780637a223a77146100f05780637ec86f891461011057806390f18d831461013057005b366100ae57005b005b3480156100bc57600080fd5b506100ae6100cb366004610642565b610222565b3480156100dc57600080fd5b506100ae6100eb366004610642565b610277565b3480156100fc57600080fd5b506100ae61010b366004610642565b61030b565b34801561011c57600080fd5b506100ae61012b366004610642565b610384565b34801561013c57600080fd5b5061015061014b366004610642565b6103c2565b60405190815260200160405180910390f35b34801561016e57600080fd5b506100ae61017d366004610642565b610484565b34801561018e57600080fd5b5061015061019d366004610642565b6104ba565b3480156101ae57600080fd5b506100ae6101bd366004610642565b61053b565b3480156101ce57600080fd5b506100ae6101dd366004610642565b610579565b3480156101ee57600080fd5b506101506101fd366004610642565b610585565b34801561020e57600080fd5b506100ae61021d366004610642565b610606565b6040516001600160a01b03821690600190600081818185875af1925050503d806000811461026c576040519150601f19603f3d011682016040523d82523d6000602084013e610271565b606091505b50505050565b60408051600481526024810182526020810180516001600160e01b03167fff489d310000000000000000000000000000000000000000000000000000000017905290516001600160a01b038316916102ce91610666565b6000604051808303816000865af19150503d806000811461026c576040519150601f19603f3d011682016040523d82523d6000602084013e610271565b60408051600481526024810182526020810180516001600160e01b031663477387d160e01b17905290516001600160a01b0383169161034991610666565b600060405180830381855afa9150503d806000811461026c576040519150601f19603f3d011682016040523d82523d6000602084013e610271565b60408051600481526024810182526020810180516001600160e01b03166311f95f6f60e01b17905290516001600160a01b038316916102ce91610666565b60408051600481526024810182526020810180516001600160e01b0316633a32b54960e01b1790529051600091829182916001600160a01b038616916104089190610666565b6000604051808303816000865af19150503d8060008114610445576040519150601f19603f3d011682016040523d82523d6000602084013e61044a565b606091505b509150915081801561045d575060008151115b61046857600061047c565b8080602001905181019061047c9190610695565b949350505050565b6040516001600160a01b0382169060009060019082818181858883f193505050501580156104b6573d6000803e3d6000fd5b5050565b60408051600481526024810182526020810180516001600160e01b0316633a32b54960e01b1790529051600091829182916001600160a01b038616916105009190610666565b600060405180830381855afa9150503d8060008114610445576040519150601f19603f3d011682016040523d82523d6000602084013e61044a565b60408051600481526024810182526020810180516001600160e01b031663477387d160e01b17905290516001600160a01b038316916102ce91610666565b806001600160a01b0316ff5b60408051600481526024810182526020810180516001600160e01b0316633a32b54960e01b1790529051600091829182916001600160a01b038616916105cb9190610666565b600060405180830381855af49150503d8060008114610445576040519150601f19603f3d011682016040523d82523d6000602084013e61044a565b6040516001600160a01b0382169060009060019082818181858883f1505050505050565b6001600160a01b038116811461063f57600080fd5b50565b60006020828403121561065457600080fd5b813561065f8161062a565b9392505050565b6000825160005b81811015610687576020818601810151858301520161066d565b506000920191825250919050565b6000602082840312156106a757600080fd5b505191905056fea26469706673582212200e81ea07be7e8f9caf3f909b16342ad8da56e6c0d2c720108fa0f232f56f0c2564736f6c63430008170033",
  "linkReferences": {},
  "deployedLinkReferences": {}
}