{
  "_format": "hh-sol-artifact-1",
  "contractName": "Errors",
  "sourceName": "contracts/solidity/errors/Errors.sol",
  "abi": [
    {
      "inputs": [
        {
          "internalType": "address",
          "name": "errorsExternalAddr",
          "type": "address"
        }
      ],
      "stateMutability": "nonpayable",
      "type": "constructor"
    },
    {
      "inputs": [
        {
          "internalType": "uint256",
          "name": "available",
          "type": "uint256"
        },
        {
          "internalType": "uint256",
          "name": "required",
          "type": "uint256"
        }
      ],
      "name": "InsufficientBalance",
      "type": "error"
    },
    {
      "anonymous": false,
      "inputs": [
        {
          "indexed": false,
          "internalType": "uint256",
          "name": "code",
          "type": "uint256"
        },
        {
          "indexed": false,
          "internalType": "string",
          "name": "message",
          "type": "string"
        }
      ],
      "name": "Result",
      "type": "event"
    },
    {
      "inputs": [
        {
          "internalType": "bool",
          "name": "condition",
          "type": "bool"
        }
      ],
      "name": "assertCheck",
      "outputs": [
        {
          "internalType": "bool",
          "name": "",
          "type": "bool"
        }
      ],
      "stateMutability": "pure",
      "type": "function"
    },
    {
      "inputs": [
        {
          "internalType": "bool",
          "name": "shouldRevert",
          "type": "bool"
        }
      ],
      "name": "requireCheck",
      "outputs": [
        {
          "internalType": "bool",
          "name": "",
          "type": "bool"
        }
      ],
      "stateMutability": "pure",
      "type": "function"
    },
    {
      "inputs": [],
      "name": "revertCheck",
      "outputs": [
        {
          "internalType": "bool",
          "name": "",
          "type": "bool"
        }
      ],
      "stateMutability": "pure",
      "type": "function"
    },
    {
      "inputs": [],
      "name": "revertWithCustomError",
      "outputs": [
        {
          "internalType": "bool",
          "name": "",
          "type": "bool"
        }
      ],
      "stateMutability": "pure",
      "type": "function"
    },
    {
      "inputs": [
        {
          "internalType": "string",
          "name": "message",
          "type": "string"
        }
      ],
      "name": "revertWithMessageCheck",
      "outputs": [
        {
          "internalType": "bool",
          "name": "",
          "type": "bool"
        }
      ],
      "stateMutability": "pure",
      "type": "function"
    },
    {
      "inputs": [
        {
          "internalType": "string",
          "name": "message",
          "type": "string"
        }
      ],
      "name": "tryCatchWithErrorMessageRevert",
      "outputs": [
        {
          "internalType": "int256",
          "name": "value",
          "type": "int256"
        },
        {
          "internalType": "bool",
          "name": "success",
          "type": "bool"
        }
      ],
      "stateMutability": "nonpayable",
      "type": "function"
    },
    {
      "inputs": [],
      "name": "tryCatchWithPanic",
      "outputs": [
        {
          "internalType": "uint256",
          "name": "value",
          "type": "uint256"
        },
        {
          "internalType": "bool",
          "name": "success",
          "type": "bool"
        }
      ],
      "stateMutability": "nonpayable",
      "type": "function"
    },
    {
      "inputs": [],
      "name": "tryCatchWithSimpleRevert",
      "outputs": [
        {
          "internalType": "int256",
          "name": "value",
          "type": "int256"
        },
        {
          "internalType": "bool",
          "name": "success",
          "type": "bool"
        }
      ],
      "stateMutability": "nonpayable",
      "type": "function"
    }
  ],
  "bytecode": "0x608060405234801561001057600080fd5b5060405161087938038061087983398101604081905261002f91610054565b600080546001600160a01b0319166001600160a01b0392909216919091179055610084565b60006020828403121561006657600080fd5b81516001600160a01b038116811461007d57600080fd5b9392505050565b6107e6806100936000396000f3fe608060405234801561001057600080fd5b50600436106100885760003560e01c806351a645651161005b57806351a64565146100d757806368b2d264146100ea578063b519719e146100fd578063efa12a761461011057600080fd5b80630135b7d01461008d5780632632dfbf146100af5780633c45fa44146100c757806346fc4bb1146100cf575b600080fd5b610095610123565b604080519283529015156020830152015b60405180910390f35b6100b7600080fd5b60405190151581526020016100a6565b610095610224565b6100b761031e565b6100956100e53660046104b8565b610349565b6100b76100f8366004610551565b610434565b6100b761010b3660046105d4565b610452565b6100b761011e3660046105d4565b610469565b6000805460408051634700d30560e01b8152905183926001600160a01b031691634700d3059160048083019260209291908290030181865afa925050508015610189575060408051601f3d908101601f19168201909252610186918101906105f8565b60015b61021757610195610611565b634e487b710361020d576101a761062d565b906101b2575061020d565b7f0b0757697195159b9153065c6009e143c818510c8596fb3f2c42f6c4a5e9366c816040516102009181526040602082018190526005908201526470616e696360d81b606082015260800190565b60405180910390a1509091565b3d6000803e3d6000fd5b92600092509050565b9091565b60008054604080516338ff7c2760e21b8152905183926001600160a01b03169163e3fdf09c9160048083019260209291908290030181865afa92505050801561028a575060408051601f3d908101601f191682019092526102879181019061064a565b60015b610314573d8080156102b8576040519150601f19603f3d011682016040523d82523d6000602084013e6102bd565b606091505b507f0b0757697195159b9153065c6009e143c818510c8596fb3f2c42f6c4a5e9366c6000604051610200918152604060208201819052600c908201526b72657665727453696d706c6560a01b606082015260800190565b6001939092509050565b60405163cf47918160e01b815260016004820152606460248201526000906044015b60405180910390fd5b60008054604051630d97e21f60e11b815282916001600160a01b031690631b2fc43e9061037a9086906004016106ad565b602060405180830381865afa9250505080156103b3575060408051601f3d908101601f191682019092526103b09181019061064a565b60015b610429576103bf610611565b806308c379a00361041e57506103d36106c0565b806103de575061020d565b7f0b0757697195159b9153065c6009e143c818510c8596fb3f2c42f6c4a5e9366c60008260405161041092919061074a565b60405180910390a150915091565b503d6000803e3d6000fd5b600194909350915050565b6000828260405162461bcd60e51b815260040161034092919061076b565b6000816104615761046161079a565b506001919050565b60008161046157600080fd5b634e487b7160e01b600052604160045260246000fd5b601f8201601f1916810167ffffffffffffffff811182821017156104b1576104b1610475565b6040525050565b600060208083850312156104cb57600080fd5b823567ffffffffffffffff808211156104e357600080fd5b818501915085601f8301126104f757600080fd5b81358181111561050957610509610475565b6040519150610521601f8201601f191685018361048b565b808252868482850101111561053557600080fd5b8084840185840137600090820190930192909252509392505050565b6000806020838503121561056457600080fd5b823567ffffffffffffffff8082111561057c57600080fd5b818501915085601f83011261059057600080fd5b81358181111561059f57600080fd5b8660208285010111156105b157600080fd5b60209290920196919550909350505050565b80151581146105d157600080fd5b50565b6000602082840312156105e657600080fd5b81356105f1816105c3565b9392505050565b60006020828403121561060a57600080fd5b5051919050565b600060033d111561062a5760046000803e5060005160e01c5b90565b60008060233d1115610220576020600460003e5050600051600191565b60006020828403121561065c57600080fd5b81516105f1816105c3565b6000815180845260005b8181101561068d57602081850181015186830182015201610671565b506000602082860101526020601f19601f83011685010191505092915050565b6020815260006105f16020830184610667565b600060443d10156106ce5790565b6040516003193d81016004833e81513d67ffffffffffffffff81602484011181841117156106fe57505050505090565b82850191508151818111156107165750505050505090565b843d87010160208285010111156107305750505050505090565b61073f6020828601018761048b565b509095945050505050565b8281526040602082015260006107636040830184610667565b949350505050565b60208152816020820152818360408301376000818301604090810191909152601f909201601f19160101919050565b634e487b7160e01b600052600160045260246000fdfea2646970667358221220348701ecb382444eb9464aaca3e61a51c4d16d2c03ce878e2a0e94786967f1d764736f6c63430008170033",
  "linkReferences": {},
  "deployedLinkReferences": {}
}