{
  "_format": "hh-sol-artifact-1",
  "contractName": "CryptoUnits",
  "sourceName": "contracts/solidity/units/cryptoUnits.sol",
  "abi": [
    {
      "inputs": [],
      "stateMutability": "nonpayable",
      "type": "constructor"
    },
    {
      "inputs": [],
      "name": "get1Eth",
      "outputs": [
        {
          "internalType": "uint256",
          "name": "",
          "type": "uint256"
        }
      ],
      "stateMutability": "pure",
      "type": "function"
    },
    {
      "inputs": [],
      "name": "get1GWei",
      "outputs": [
        {
          "internalType": "uint256",
          "name": "",
          "type": "uint256"
        }
      ],
      "stateMutability": "pure",
      "type": "function"
    },
    {
      "inputs": [],
      "name": "get1Wei",
      "outputs": [
        {
          "internalType": "uint256",
          "name": "",
          "type": "uint256"
        }
      ],
      "stateMutability": "pure",
      "type": "function"
    }
  ],
  "bytecode": "0x6080604052348015600f57600080fd5b5060a28061001e6000396000f3fe6080604052348015600f57600080fd5b5060043610603c5760003560e01c806303774f801460415780633424a559146056578063fdccc16b14605f575b600080fd5b60015b60405190815260200160405180910390f35b633b9aca006044565b670de0b6b3a7640000604456fea2646970667358221220a77ccf2104c24f92122b991d68a3de607ac88731d980bb19eb476b816776b05564736f6c63430008140033",
  "linkReferences": {},
  "deployedLinkReferences": {}
}