{
  "_format": "hh-sol-artifact-1",
  "contractName": "DestructuringReturns",
  "sourceName": "contracts/solidity/assignments/DestructuringReturns.sol",
  "abi": [
    {
      "inputs": [],
      "name": "f",
      "outputs": [
        {
          "internalType": "uint256",
          "name": "",
          "type": "uint256"
        },
        {
          "internalType": "bool",
          "name": "",
          "type": "bool"
        },
        {
          "internalType": "uint256",
          "name": "",
          "type": "uint256"
        }
      ],
      "stateMutability": "pure",
      "type": "function"
    },
    {
      "inputs": [],
      "name": "testDestructuredReturnParams",
      "outputs": [
        {
          "internalType": "uint256",
          "name": "",
          "type": "uint256"
        },
        {
          "internalType": "bool",
          "name": "",
          "type": "bool"
        },
        {
          "internalType": "uint256",
          "name": "",
          "type": "uint256"
        }
      ],
      "stateMutability": "pure",
      "type": "function"
    }
  ],
  "bytecode": "0x6080604052348015600f57600080fd5b50609d8061001e6000396000f3fe6080604052348015600f57600080fd5b506004361060325760003560e01c806326121ff01460375780639670083414605d575b600080fd5b6007600160025b6040805193845291151560208401529082015260600160405180910390f35b600760016002603e56fea26469706673582212202a58814f25dde9b9e0a58188ec8631ce75f3cb901f9e9dc2717a5efffe5174d364736f6c63430008180033",
  "linkReferences": {},
  "deployedLinkReferences": {}
}