{
  "_format": "hh-sol-artifact-1",
  "contractName": "TimeUnits",
  "sourceName": "contracts/solidity/units/timeUnits.sol",
  "abi": [
    {
      "inputs": [],
      "stateMutability": "nonpayable",
      "type": "constructor"
    },
    {
      "inputs": [],
      "name": "get1Day",
      "outputs": [
        {
          "internalType": "uint256",
          "name": "",
          "type": "uint256"
        }
      ],
      "stateMutability": "pure",
      "type": "function"
    },
    {
      "inputs": [],
      "name": "get1Hour",
      "outputs": [
        {
          "internalType": "uint256",
          "name": "",
          "type": "uint256"
        }
      ],
      "stateMutability": "pure",
      "type": "function"
    },
    {
      "inputs": [],
      "name": "get1Minute",
      "outputs": [
        {
          "internalType": "uint256",
          "name": "",
          "type": "uint256"
        }
      ],
      "stateMutability": "pure",
      "type": "function"
    },
    {
      "inputs": [],
      "name": "get1Second",
      "outputs": [
        {
          "internalType": "uint256",
          "name": "",
          "type": "uint256"
        }
      ],
      "stateMutability": "pure",
      "type": "function"
    },
    {
      "inputs": [],
      "name": "get1Week",
      "outputs": [
        {
          "internalType": "uint256",
          "name": "",
          "type": "uint256"
        }
      ],
      "stateMutability": "pure",
      "type": "function"
    }
  ],
  "bytecode": "0x608060405234801561001057600080fd5b5060bd8061001f6000396000f3fe6080604052348015600f57600080fd5b506004361060505760003560e01c806306e5f85f1460555780635a5ec77b14606c578063756c55c1146072578063a0e38b02146079578063a8463aa514607f575b600080fd5b620151805b60405190815260200160405180910390f35b6001605a565b610e10605a565b603c605a565b62093a80605a56fea264697066735822122000e602684816eccbd0630f077e2af131c3440ca6849a6e5814dbf4bcd52b5b5564736f6c63430008180033",
  "linkReferences": {},
  "deployedLinkReferences": {}
}