{
  "_format": "hh-sol-artifact-1",
  "contractName": "ExampleHtsFungibleTokenSupplyManager",
  "sourceName": "contracts/system-contracts/hedera-token-service/native-token/examples/ExampleHtsFungibleTokenSupplyManager.sol",
  "abi": [
    {
      "inputs": [
        {
          "internalType": "string",
          "name": "name",
          "type": "string"
        },
        {
          "internalType": "string",
          "name": "symbol",
          "type": "string"
        },
        {
          "internalType": "int64",
          "name": "_initialTotalSupply",
          "type": "int64"
        },
        {
          "internalType": "uint8",
          "name": "_decimals",
          "type": "uint8"
        }
      ],
      "stateMutability": "payable",
      "type": "constructor"
    },
    {
      "inputs": [
        {
          "internalType": "address",
          "name": "owner",
          "type": "address"
        }
      ],
      "name": "OwnableInvalidOwner",
      "type": "error"
    },
    {
      "inputs": [
        {
          "internalType": "address",
          "name": "account",
          "type": "address"
        }
      ],
      "name": "OwnableUnauthorizedAccount",
      "type": "error"
    },
    {
      "anonymous": false,
      "inputs": [
        {
          "indexed": true,
          "internalType": "address",
          "name": "owner",
          "type": "address"
        },
        {
          "indexed": true,
          "internalType": "address",
          "name": "spender",
          "type": "address"
        },
        {
          "indexed": false,
          "internalType": "uint256",
          "name": "value",
          "type": "uint256"
        }
      ],
      "name": "Approval",
      "type": "event"
    },
    {
      "anonymous": false,
      "inputs": [
        {
          "indexed": true,
          "internalType": "address",
          "name": "previousOwner",
          "type": "address"
        },
        {
          "indexed": true,
          "internalType": "address",
          "name": "newOwner",
          "type": "address"
        }
      ],
      "name": "OwnershipTransferred",
      "type": "event"
    },
    {
      "anonymous": false,
      "inputs": [
        {
          "indexed": false,
          "internalType": "address",
          "name": "tokenAddress",
          "type": "address"
        },
        {
          "indexed": false,
          "internalType": "address",
          "name": "creatorAddress",
          "type": "address"
        }
      ],
      "name": "TokenCreated",
      "type": "event"
    },
    {
      "anonymous": false,
      "inputs": [
        {
          "indexed": true,
          "internalType": "address",
          "name": "from",
          "type": "address"
        },
        {
          "indexed": true,
          "internalType": "address",
          "name": "to",
          "type": "address"
        },
        {
          "indexed": false,
          "internalType": "uint256",
          "name": "value",
          "type": "uint256"
        }
      ],
      "name": "Transfer",
      "type": "event"
    },
    {
      "inputs": [
        {
          "internalType": "address",
          "name": "owner",
          "type": "address"
        },
        {
          "internalType": "address",
          "name": "spender",
          "type": "address"
        }
      ],
      "name": "allowance",
      "outputs": [
        {
          "internalType": "uint256",
          "name": "",
          "type": "uint256"
        }
      ],
      "stateMutability": "view",
      "type": "function"
    },
    {
      "inputs": [
        {
          "internalType": "address",
          "name": "spender",
          "type": "address"
        },
        {
          "internalType": "uint256",
          "name": "amount",
          "type": "uint256"
        }
      ],
      "name": "approve",
      "outputs": [
        {
          "internalType": "bool",
          "name": "",
          "type": "bool"
        }
      ],
      "stateMutability": "nonpayable",
      "type": "function"
    },
    {
      "inputs": [
        {
          "internalType": "address",
          "name": "account",
          "type": "address"
        }
      ],
      "name": "balanceOf",
      "outputs": [
        {
          "internalType": "uint256",
          "name": "",
          "type": "uint256"
        }
      ],
      "stateMutability": "view",
      "type": "function"
    },
    {
      "inputs": [
        {
          "internalType": "uint256",
          "name": "amount",
          "type": "uint256"
        }
      ],
      "name": "burn",
      "outputs": [
        {
          "internalType": "int256",
          "name": "responseCode",
          "type": "int256"
        },
        {
          "internalType": "int64",
          "name": "newTotalSupply",
          "type": "int64"
        }
      ],
      "stateMutability": "nonpayable",
      "type": "function"
    },
    {
      "inputs": [
        {
          "internalType": "address",
          "name": "from",
          "type": "address"
        },
        {
          "internalType": "uint256",
          "name": "amount",
          "type": "uint256"
        }
      ],
      "name": "burnFrom",
      "outputs": [
        {
          "internalType": "int256",
          "name": "responseCode",
          "type": "int256"
        },
        {
          "internalType": "int64",
          "name": "newTotalSupply",
          "type": "int64"
        }
      ],
      "stateMutability": "nonpayable",
      "type": "function"
    },
    {
      "inputs": [],
      "name": "decimals",
      "outputs": [
        {
          "internalType": "uint8",
          "name": "",
          "type": "uint8"
        }
      ],
      "stateMutability": "view",
      "type": "function"
    },
    {
      "inputs": [],
      "name": "htsTokenAddress",
      "outputs": [
        {
          "internalType": "address",
          "name": "",
          "type": "address"
        }
      ],
      "stateMutability": "view",
      "type": "function"
    },
    {
      "inputs": [
        {
          "internalType": "uint256",
          "name": "amount",
          "type": "uint256"
        }
      ],
      "name": "mint",
      "outputs": [
        {
          "internalType": "int256",
          "name": "responseCode",
          "type": "int256"
        },
        {
          "internalType": "int64",
          "name": "newTotalSupply",
          "type": "int64"
        }
      ],
      "stateMutability": "nonpayable",
      "type": "function"
    },
    {
      "inputs": [
        {
          "internalType": "address",
          "name": "to",
          "type": "address"
        },
        {
          "internalType": "uint256",
          "name": "amount",
          "type": "uint256"
        }
      ],
      "name": "mintTo",
      "outputs": [
        {
          "internalType": "int256",
          "name": "responseCode",
          "type": "int256"
        },
        {
          "internalType": "int64",
          "name": "newTotalSupply",
          "type": "int64"
        }
      ],
      "stateMutability": "nonpayable",
      "type": "function"
    },
    {
      "inputs": [],
      "name": "name",
      "outputs": [
        {
          "internalType": "string",
          "name": "",
          "type": "string"
        }
      ],
      "stateMutability": "view",
      "type": "function"
    },
    {
      "inputs": [],
      "name": "owner",
      "outputs": [
        {
          "internalType": "address",
          "name": "",
          "type": "address"
        }
      ],
      "stateMutability": "view",
      "type": "function"
    },
    {
      "inputs": [],
      "name": "renounceOwnership",
      "outputs": [],
      "stateMutability": "nonpayable",
      "type": "function"
    },
    {
      "inputs": [],
      "name": "symbol",
      "outputs": [
        {
          "internalType": "string",
          "name": "",
          "type": "string"
        }
      ],
      "stateMutability": "view",
      "type": "function"
    },
    {
      "inputs": [],
      "name": "totalSupply",
      "outputs": [
        {
          "internalType": "uint256",
          "name": "",
          "type": "uint256"
        }
      ],
      "stateMutability": "view",
      "type": "function"
    },
    {
      "inputs": [
        {
          "internalType": "address",
          "name": "recipient",
          "type": "address"
        },
        {
          "internalType": "uint256",
          "name": "amount",
          "type": "uint256"
        }
      ],
      "name": "transfer",
      "outputs": [
        {
          "internalType": "bool",
          "name": "",
          "type": "bool"
        }
      ],
      "stateMutability": "nonpayable",
      "type": "function"
    },
    {
      "inputs": [
        {
          "internalType": "address",
          "name": "sender",
          "type": "address"
        },
        {
          "internalType": "address",
          "name": "recipient",
          "type": "address"
        },
        {
          "internalType": "uint256",
          "name": "amount",
          "type": "uint256"
        }
      ],
      "name": "transferFrom",
      "outputs": [
        {
          "internalType": "bool",
          "name": "",
          "type": "bool"
        }
      ],
      "stateMutability": "nonpayable",
      "type": "function"
    },
    {
      "inputs": [
        {
          "internalType": "address",
          "name": "newOwner",
          "type": "address"
        }
      ],
      "name": "transferOwnership",
      "outputs": [],
      "stateMutability": "nonpayable",
      "type": "function"
    }
  ],
  "bytecode": "0x608060405260405162001ffd38038062001ffd8339810160408190526200002691620007cb565b600160208181527fa6eef7e35abe7026729641147f7915573c7e97b47efa546f5f6e3230263bcb499190915560027fcc69885fda6bcc1a4ace058b4a62bf5e179ea78fd58a1ccd71c22cc9b688792f5560047fd9d16d34ffb15ba3a3d852f0d403e2ce1d691fb54de27ac87cd2f993f3ec330f5560087f7dfe757ecd65cbd7922a9c0161e935dd7fdbcc0e999689c7d31633896b1fc60b5560107fedc95719e9a3b28dd8e80877cb5880a9be7de1a13fc8b05e7999683b6b567643557fe2689cd4a84e23ad2f564004f1c9013e9589d260bde6380aba3ca7e09e4df40c5560065f5260407f8f331abe73332f95a25873e8b430885974c0409691f89d643119a11623a7924a5583838383338085858585620001448484848462000193565b5050506001600160a01b03821690506200017857604051631e4fbdf760e01b81525f60048201526024015b60405180910390fd5b62000183816200033a565b5050505050505050505062000b20565b5f620001a085856200038b565b90505f806101676001600160a01b031634630fb65bf360e01b858888604051602401620001d09392919062000972565b60408051601f198184030181529181526020820180516001600160e01b03166001600160e01b031990941693909317909252905162000210919062000aa4565b5f6040518083038185875af1925050503d805f81146200024c576040519150601f19603f3d011682016040523d82523d5f602084013e62000251565b606091505b50915091505f8083620002675760155f6200027d565b828060200190518101906200027d919062000ac1565b915060030b9150601660030b8214620002d95760405162461bcd60e51b815260206004820152601a60248201527f4661696c656420746f206372656174652048545320746f6b656e00000000000060448201526064016200016f565b600280546001600160a01b0319166001600160a01b038316908117909155604080519182523060208301527fd5f9bdf12adf29dab0248c349842c3822d53ae2bb4f36352f301630d018c8139910160405180910390a1505050505050505050565b600380546001600160a01b038381166001600160a01b0319831681179093556040519116919082907f8be0079c531659141344cd1fd0a4f28419497f9722a3daafe3b4186f6b6457e0905f90a35050565b620003f16040805161012081018252606080825260208083018290525f8385018190528284018390526080840181905260a0840181905260c0840181905260e0840183905284519283018552808352908201819052928101929092529061010082015290565b6040805160018082528183019092525f91816020015b62000411620006b0565b815260200190600190039081620004075790505090506200044960045f60405180602001604052805f8152506200050360201b60201c565b815f815181106200045e576200045e62000b0c565b60209081029190910181019190915260408051606080820183525f80835230838601819052627a120084860152845161012081018652998a5289860198909852888401979097528251808401909352601983527f48747346756e6769626c65546f6b656e206372656174696f6e0000000000000093830193909352918601526001608086015261138860a086015260c085019390935260e08401525061010082015290565b6200050d620006b0565b604051806040016040528062000529866200054460201b60201c565b81526020016200053a858562000586565b9052949350505050565b5f60015f8360068111156200055d576200055d62000862565b600681111562000571576200057162000862565b81526020019081526020015f20549050919050565b620005ca6040518060a001604052805f151581526020015f6001600160a01b0316815260200160608152602001606081526020015f6001600160a01b031681525090565b5f836004811115620005e057620005e062000862565b03620005f05760018152620006a5565b600183600481111562000607576200060762000862565b0362000623575f546001600160a01b03166020820152620006a5565b60028360048111156200063a576200063a62000862565b036200064d5760408101829052620006a5565b600383600481111562000664576200066462000862565b03620006775760608101829052620006a5565b60048360048111156200068e576200068e62000862565b03620006a5575f546001600160a01b031660808201525b92915050565b905290565b60405180604001604052805f8152602001620006ab6040518060a001604052805f151581526020015f6001600160a01b0316815260200160608152602001606081526020015f6001600160a01b031681525090565b634e487b7160e01b5f52604160045260245ffd5b5f5b83811015620007355781810151838201526020016200071b565b50505f910152565b5f82601f8301126200074d575f80fd5b81516001600160401b03808211156200076a576200076a62000705565b604051601f8301601f19908116603f0116810190828211818310171562000795576200079562000705565b81604052838152866020858801011115620007ae575f80fd5b620007c184602083016020890162000719565b9695505050505050565b5f805f8060808587031215620007df575f80fd5b84516001600160401b0380821115620007f6575f80fd5b62000804888389016200073d565b955060208701519150808211156200081a575f80fd5b5062000829878288016200073d565b93505060408501518060070b811462000840575f80fd5b606086015190925060ff8116811462000857575f80fd5b939692955090935050565b634e487b7160e01b5f52602160045260245ffd5b5f81518084526200088f81602086016020860162000719565b601f01601f19169290920160200192915050565b5f82825180855260208086019550808260051b8401018186015f5b848110156200096557858303601f1901895281518051845284015160408585018190528151151581860152818601516001600160a01b039081166060808801919091529183015160a060808089018290529193909290916200092460e08a018662000876565b92860151898403603f1901858b015292945062000942858462000876565b9501511660c09790970196909652505098840198925090830190600101620008be565b5090979650505050505050565b606081525f8451610160806060850152620009926101c085018362000876565b91506020870151605f1980868503016080870152620009b2848362000876565b935060408901519150620009d160a08701836001600160a01b03169052565b60608901519150808685030160c0870152620009ee848362000876565b93506080890151915062000a0660e087018315159052565b60a0890151915061010062000a1f8188018460070b9052565b60c08a0151151561012088015260e08a01518786038301610140890152925062000a4a8584620008a3565b9450808a01519250505062000a85828601828051600790810b83526020808301516001600160a01b031690840152604091820151900b910152565b5050600785900b6020840152905060ff83166040830152949350505050565b5f825162000ab781846020870162000719565b9190910192915050565b5f806040838503121562000ad3575f80fd5b82518060030b811462000ae4575f80fd5b60208401519092506001600160a01b038116811462000b01575f80fd5b809150509250929050565b634e487b7160e01b5f52603260045260245ffd5b6114cf8062000b2e5f395ff3fe608060405234801561000f575f80fd5b5060043610610106575f3560e01c8063715018a61161009e57806395d89b411161006e57806395d89b4114610238578063a0712d6814610240578063a9059cbb14610253578063dd62ed3e14610266578063f2fde38b14610279575f80fd5b8063715018a6146101df5780637796c477146101e957806379cc6790146102145780638da5cb5b14610227575f80fd5b8063313ce567116100d9578063313ce5671461017457806342966c681461018e578063449a52f8146101b957806370a08231146101cc575f80fd5b806306fdde031461010a578063095ea7b31461012857806318160ddd1461014b57806323b872dd14610161575b5f80fd5b61011261028c565b60405161011f91906110dd565b60405180910390f35b61013b61013636600461110a565b6102ff565b604051901515815260200161011f565b6101536103f5565b60405190815260200161011f565b61013b61016f366004611132565b610460565b61017c610564565b60405160ff909116815260200161011f565b6101a161019c36600461116b565b6105cf565b6040805192835260079190910b60208301520161011f565b6101a16101c736600461110a565b610734565b6101536101da366004611182565b6109c2565b6101e7610a34565b005b6002546101fc906001600160a01b031681565b6040516001600160a01b03909116815260200161011f565b6101a161022236600461110a565b610a47565b6003546001600160a01b03166101fc565b610112610cb4565b6101a161024e36600461116b565b610cfb565b61013b61026136600461110a565b610e6a565b61015361027436600461119b565b610f54565b6101e7610287366004611182565b610fc8565b600254604080516306fdde0360e01b815290516060926001600160a01b0316916306fdde03916004808301925f9291908290030181865afa1580156102d3573d5f803e3d5ffd5b505050506040513d5f823e601f3d908101601f191682016040526102fa9190810190611211565b905090565b6002546040516001600160a01b038481166024830152604482018490525f92839291169060640160408051601f198184030181529181526020820180516001600160e01b031663095ea7b360e01b1790525161035b91906112a0565b5f60405180830381855af49150503d805f8114610393576040519150601f19603f3d011682016040523d82523d5f602084013e610398565b606091505b50509050806103ee5760405162461bcd60e51b815260206004820152601c60248201527f44656c656761746520617070726f76652063616c6c206661696c65640000000060448201526064015b60405180910390fd5b9392505050565b600254604080516318160ddd60e01b815290515f926001600160a01b0316916318160ddd9160048083019260209291908290030181865afa15801561043c573d5f803e3d5ffd5b505050506040513d601f19601f820116820180604052508101906102fa91906112bb565b6002546040516001600160a01b0385811660248301528481166044830152606482018490525f92839291169060840160408051601f198184030181529181526020820180516001600160e01b03166323b872dd60e01b179052516104c491906112a0565b5f60405180830381855af49150503d805f81146104fc576040519150601f19603f3d011682016040523d82523d5f602084013e610501565b606091505b505090508061055c5760405162461bcd60e51b815260206004820152602160248201527f44656c6567617465207472616e7366657246726f6d2063616c6c206661696c656044820152601960fa1b60648201526084016103e5565b949350505050565b6002546040805163313ce56760e01b815290515f926001600160a01b03169163313ce5679160048083019260209291908290030181865afa1580156105ab573d5f803e3d5ffd5b505050506040513d601f19601f820116820180604052508101906102fa91906112d2565b5f806105d9611005565b6002545f90819061016790636b48868360e11b906001600160a01b0316878460405190808252806020026020018201604052801561062b57816020015b60608152602001906001900390816106165790505b5060405160240161063e939291906112f2565b60408051601f198184030181529181526020820180516001600160e01b03166001600160e01b031990941693909317909252905161067c91906112a0565b5f604051808303815f865af19150503d805f81146106b5576040519150601f19603f3d011682016040523d82523d5f602084013e6106ba565b606091505b5091509150816106cc5760155f6106e0565b808060200190518101906106e0919061138e565b60039190910b945092506016841461072d5760405162461bcd60e51b815260206004820152601060248201526f121514ce88109d5c9b8819985a5b195960821b60448201526064016103e5565b5050915091565b5f8061073e611005565b6002545f9081906101679063707a02cd60e11b906001600160a01b0316878460405190808252806020026020018201604052801561079057816020015b606081526020019060019003908161077b5790505b506040516024016107a3939291906112f2565b60408051601f198184030181529181526020820180516001600160e01b03166001600160e01b03199094169390931790925290516107e191906112a0565b5f604051808303815f865af19150503d805f811461081a576040519150601f19603f3d011682016040523d82523d5f602084013e61081f565b606091505b50915091508161084157604080515f8082526020820190925260159190610855565b8080602001905181019061085591906113b6565b5060039190910b94509250601684146108a35760405162461bcd60e51b815260206004820152601060248201526f121514ce88135a5b9d0819985a5b195960821b60448201526064016103e5565b600254604080516001600160a01b039283166024820152306044820152918816606483015260848083018890528151808403909101815260a490920181526020820180516001600160e01b031663eca3691760e01b1790525161016791610909916112a0565b5f604051808303815f865af19150503d805f8114610942576040519150601f19603f3d011682016040523d82523d5f602084013e610947565b606091505b5090925090508161095957601561096d565b8080602001905181019061096d9190611480565b60030b9350601684146109b95760405162461bcd60e51b8152602060048201526014602482015273121514ce88151c985b9cd9995c8819985a5b195960621b60448201526064016103e5565b50509250929050565b6002546040516370a0823160e01b81526001600160a01b0383811660048301525f9216906370a0823190602401602060405180830381865afa158015610a0a573d5f803e3d5ffd5b505050506040513d601f19601f82011682018060405250810190610a2e91906112bb565b92915050565b610a3c611005565b610a455f611032565b565b5f80610a51611005565b600254604080516001600160a01b039283166024820152918616604483015230606483015260848083018690528151808403909101815260a490920181526020820180516001600160e01b031663eca3691760e01b179052515f91829161016791610abb916112a0565b5f604051808303815f865af19150503d805f8114610af4576040519150601f19603f3d011682016040523d82523d5f602084013e610af9565b606091505b509150915081610b0a576015610b1e565b80806020019051810190610b1e9190611480565b60030b935060168414610b6a5760405162461bcd60e51b8152602060048201526014602482015273121514ce88151c985b9cd9995c8819985a5b195960621b60448201526064016103e5565b600254604080515f8082526020820190925261016792636b48868360e11b926001600160a01b03909116918991610bb1565b6060815260200190600190039081610b9c5790505b50604051602401610bc4939291906112f2565b60408051601f198184030181529181526020820180516001600160e01b03166001600160e01b0319909416939093179092529051610c0291906112a0565b5f604051808303815f865af19150503d805f8114610c3b576040519150601f19603f3d011682016040523d82523d5f602084013e610c40565b606091505b50909250905081610c535760155f610c67565b80806020019051810190610c67919061138e565b60039190910b94509250601684146109b95760405162461bcd60e51b815260206004820152601060248201526f121514ce88109d5c9b8819985a5b195960821b60448201526064016103e5565b600254604080516395d89b4160e01b815290516060926001600160a01b0316916395d89b41916004808301925f9291908290030181865afa1580156102d3573d5f803e3d5ffd5b5f80610d05611005565b6002545f9081906101679063707a02cd60e11b906001600160a01b03168784604051908082528060200260200182016040528015610d5757816020015b6060815260200190600190039081610d425790505b50604051602401610d6a939291906112f2565b60408051601f198184030181529181526020820180516001600160e01b03166001600160e01b0319909416939093179092529051610da891906112a0565b5f604051808303815f865af19150503d805f8114610de1576040519150601f19603f3d011682016040523d82523d5f602084013e610de6565b606091505b509150915081610e0857604080515f8082526020820190925260159190610e1c565b80806020019051810190610e1c91906113b6565b5060039190910b945092506016841461072d5760405162461bcd60e51b815260206004820152601060248201526f121514ce88135a5b9d0819985a5b195960821b60448201526064016103e5565b6002546040516001600160a01b038481166024830152604482018490525f92839291169060640160408051601f198184030181529181526020820180516001600160e01b031663a9059cbb60e01b17905251610ec691906112a0565b5f60405180830381855af49150503d805f8114610efe576040519150601f19603f3d011682016040523d82523d5f602084013e610f03565b606091505b50509050806103ee5760405162461bcd60e51b815260206004820152601d60248201527f44656c6567617465207472616e736665722063616c6c206661696c656400000060448201526064016103e5565b600254604051636eb1769f60e11b81526001600160a01b03848116600483015283811660248301525f92169063dd62ed3e90604401602060405180830381865afa158015610fa4573d5f803e3d5ffd5b505050506040513d601f19601f820116820180604052508101906103ee91906112bb565b610fd0611005565b6001600160a01b038116610ff957604051631e4fbdf760e01b81525f60048201526024016103e5565b61100281611032565b50565b6003546001600160a01b03163314610a455760405163118cdaa760e01b81523360048201526024016103e5565b600380546001600160a01b0383811673ffffffffffffffffffffffffffffffffffffffff19831681179093556040519116919082907f8be0079c531659141344cd1fd0a4f28419497f9722a3daafe3b4186f6b6457e0905f90a35050565b5f5b838110156110aa578181015183820152602001611092565b50505f910152565b5f81518084526110c9816020860160208601611090565b601f01601f19169290920160200192915050565b602081525f6103ee60208301846110b2565b80356001600160a01b0381168114611105575f80fd5b919050565b5f806040838503121561111b575f80fd5b611124836110ef565b946020939093013593505050565b5f805f60608486031215611144575f80fd5b61114d846110ef565b925061115b602085016110ef565b9150604084013590509250925092565b5f6020828403121561117b575f80fd5b5035919050565b5f60208284031215611192575f80fd5b6103ee826110ef565b5f80604083850312156111ac575f80fd5b6111b5836110ef565b91506111c3602084016110ef565b90509250929050565b634e487b7160e01b5f52604160045260245ffd5b604051601f8201601f1916810167ffffffffffffffff81118282101715611209576112096111cc565b604052919050565b5f60208284031215611221575f80fd5b815167ffffffffffffffff80821115611238575f80fd5b818401915084601f83011261124b575f80fd5b81518181111561125d5761125d6111cc565b611270601f8201601f19166020016111e0565b9150808252856020828501011115611286575f80fd5b611297816020840160208601611090565b50949350505050565b5f82516112b1818460208701611090565b9190910192915050565b5f602082840312156112cb575f80fd5b5051919050565b5f602082840312156112e2575f80fd5b815160ff811681146103ee575f80fd5b5f606082016001600160a01b038616835260208560208501526060604085015281855180845260808601915060808160051b8701019350602087015f5b8281101561135d57607f1988870301845261134b8683516110b2565b9550928401929084019060010161132f565b50939998505050505050505050565b8051600381900b8114611105575f80fd5b8051600781900b8114611105575f80fd5b5f806040838503121561139f575f80fd5b6113a88361136c565b91506111c36020840161137d565b5f805f606084860312156113c8575f80fd5b6113d18461136c565b925060206113e081860161137d565b9250604085015167ffffffffffffffff808211156113fc575f80fd5b818701915087601f83011261140f575f80fd5b815181811115611421576114216111cc565b8060051b91506114328483016111e0565b818152918301840191848101908a84111561144b575f80fd5b938501935b83851015611470576114618561137d565b82529385019390850190611450565b8096505050505050509250925092565b5f60208284031215611490575f80fd5b6103ee8261136c56fea2646970667358221220079543b4b49901d4a731633e06a4f80891e6184a79011308387b7694584de21364736f6c63430008180033",
  "linkReferences": {},
  "deployedLinkReferences": {}
}