{
  "_format": "hh-sol-artifact-1",
  "contractName": "ExampleHtsFungibleTokenSupplyManager",
  "sourceName": "contracts/system-contracts/hedera-token-service/native-token/examples/ExampleHtsFungibleTokenSupplyManager.sol",
  "abi": [
    {
      "inputs": [
        {
          "internalType": "string",
          "name": "name",
          "type": "string"
        },
        {
          "internalType": "string",
          "name": "symbol",
          "type": "string"
        },
        {
          "internalType": "int64",
          "name": "_initialTotalSupply",
          "type": "int64"
        },
        {
          "internalType": "uint8",
          "name": "_decimals",
          "type": "uint8"
        }
      ],
      "stateMutability": "payable",
      "type": "constructor"
    },
    {
      "inputs": [
        {
          "internalType": "address",
          "name": "owner",
          "type": "address"
        }
      ],
      "name": "OwnableInvalidOwner",
      "type": "error"
    },
    {
      "inputs": [
        {
          "internalType": "address",
          "name": "account",
          "type": "address"
        }
      ],
      "name": "OwnableUnauthorizedAccount",
      "type": "error"
    },
    {
      "anonymous": false,
      "inputs": [
        {
          "indexed": true,
          "internalType": "address",
          "name": "owner",
          "type": "address"
        },
        {
          "indexed": true,
          "internalType": "address",
          "name": "spender",
          "type": "address"
        },
        {
          "indexed": false,
          "internalType": "uint256",
          "name": "value",
          "type": "uint256"
        }
      ],
      "name": "Approval",
      "type": "event"
    },
    {
      "anonymous": false,
      "inputs": [
        {
          "indexed": true,
          "internalType": "address",
          "name": "previousOwner",
          "type": "address"
        },
        {
          "indexed": true,
          "internalType": "address",
          "name": "newOwner",
          "type": "address"
        }
      ],
      "name": "OwnershipTransferred",
      "type": "event"
    },
    {
      "anonymous": false,
      "inputs": [
        {
          "indexed": false,
          "internalType": "address",
          "name": "tokenAddress",
          "type": "address"
        },
        {
          "indexed": false,
          "internalType": "address",
          "name": "creatorAddress",
          "type": "address"
        }
      ],
      "name": "TokenCreated",
      "type": "event"
    },
    {
      "anonymous": false,
      "inputs": [
        {
          "indexed": true,
          "internalType": "address",
          "name": "from",
          "type": "address"
        },
        {
          "indexed": true,
          "internalType": "address",
          "name": "to",
          "type": "address"
        },
        {
          "indexed": false,
          "internalType": "uint256",
          "name": "value",
          "type": "uint256"
        }
      ],
      "name": "Transfer",
      "type": "event"
    },
    {
      "inputs": [
        {
          "internalType": "address",
          "name": "owner",
          "type": "address"
        },
        {
          "internalType": "address",
          "name": "spender",
          "type": "address"
        }
      ],
      "name": "allowance",
      "outputs": [
        {
          "internalType": "uint256",
          "name": "",
          "type": "uint256"
        }
      ],
      "stateMutability": "view",
      "type": "function"
    },
    {
      "inputs": [
        {
          "internalType": "address",
          "name": "spender",
          "type": "address"
        },
        {
          "internalType": "uint256",
          "name": "amount",
          "type": "uint256"
        }
      ],
      "name": "approve",
      "outputs": [
        {
          "internalType": "bool",
          "name": "",
          "type": "bool"
        }
      ],
      "stateMutability": "nonpayable",
      "type": "function"
    },
    {
      "inputs": [
        {
          "internalType": "address",
          "name": "account",
          "type": "address"
        }
      ],
      "name": "balanceOf",
      "outputs": [
        {
          "internalType": "uint256",
          "name": "",
          "type": "uint256"
        }
      ],
      "stateMutability": "view",
      "type": "function"
    },
    {
      "inputs": [
        {
          "internalType": "uint256",
          "name": "amount",
          "type": "uint256"
        }
      ],
      "name": "burn",
      "outputs": [
        {
          "internalType": "int256",
          "name": "responseCode",
          "type": "int256"
        },
        {
          "internalType": "int64",
          "name": "newTotalSupply",
          "type": "int64"
        }
      ],
      "stateMutability": "nonpayable",
      "type": "function"
    },
    {
      "inputs": [
        {
          "internalType": "address",
          "name": "from",
          "type": "address"
        },
        {
          "internalType": "uint256",
          "name": "amount",
          "type": "uint256"
        }
      ],
      "name": "burnFrom",
      "outputs": [
        {
          "internalType": "int256",
          "name": "responseCode",
          "type": "int256"
        },
        {
          "internalType": "int64",
          "name": "newTotalSupply",
          "type": "int64"
        }
      ],
      "stateMutability": "nonpayable",
      "type": "function"
    },
    {
      "inputs": [],
      "name": "decimals",
      "outputs": [
        {
          "internalType": "uint8",
          "name": "",
          "type": "uint8"
        }
      ],
      "stateMutability": "view",
      "type": "function"
    },
    {
      "inputs": [],
      "name": "getFungibleTokenInfo",
      "outputs": [
        {
          "internalType": "int64",
          "name": "responseCode",
          "type": "int64"
        },
        {
          "components": [
            {
              "components": [
                {
                  "components": [
                    {
                      "internalType": "string",
                      "name": "name",
                      "type": "string"
                    },
                    {
                      "internalType": "string",
                      "name": "symbol",
                      "type": "string"
                    },
                    {
                      "internalType": "address",
                      "name": "treasury",
                      "type": "address"
                    },
                    {
                      "internalType": "string",
                      "name": "memo",
                      "type": "string"
                    },
                    {
                      "internalType": "bool",
                      "name": "tokenSupplyType",
                      "type": "bool"
                    },
                    {
                      "internalType": "int64",
                      "name": "maxSupply",
                      "type": "int64"
                    },
                    {
                      "internalType": "bool",
                      "name": "freezeDefault",
                      "type": "bool"
                    },
                    {
                      "components": [
                        {
                          "internalType": "uint256",
                          "name": "keyType",
                          "type": "uint256"
                        },
                        {
                          "components": [
                            {
                              "internalType": "bool",
                              "name": "inheritAccountKey",
                              "type": "bool"
                            },
                            {
                              "internalType": "address",
                              "name": "contractId",
                              "type": "address"
                            },
                            {
                              "internalType": "bytes",
                              "name": "ed25519",
                              "type": "bytes"
                            },
                            {
                              "internalType": "bytes",
                              "name": "ECDSA_secp256k1",
                              "type": "bytes"
                            },
                            {
                              "internalType": "address",
                              "name": "delegatableContractId",
                              "type": "address"
                            }
                          ],
                          "internalType": "struct IHTSStructs.KeyValue",
                          "name": "key",
                          "type": "tuple"
                        }
                      ],
                      "internalType": "struct IHTSStructs.TokenKey[]",
                      "name": "tokenKeys",
                      "type": "tuple[]"
                    },
                    {
                      "components": [
                        {
                          "internalType": "int64",
                          "name": "second",
                          "type": "int64"
                        },
                        {
                          "internalType": "address",
                          "name": "autoRenewAccount",
                          "type": "address"
                        },
                        {
                          "internalType": "int64",
                          "name": "autoRenewPeriod",
                          "type": "int64"
                        }
                      ],
                      "internalType": "struct IHTSStructs.Expiry",
                      "name": "expiry",
                      "type": "tuple"
                    }
                  ],
                  "internalType": "struct IHTSStructs.HederaToken",
                  "name": "token",
                  "type": "tuple"
                },
                {
                  "internalType": "int64",
                  "name": "totalSupply",
                  "type": "int64"
                },
                {
                  "internalType": "bool",
                  "name": "deleted",
                  "type": "bool"
                },
                {
                  "internalType": "bool",
                  "name": "defaultKycStatus",
                  "type": "bool"
                },
                {
                  "internalType": "bool",
                  "name": "pauseStatus",
                  "type": "bool"
                },
                {
                  "components": [
                    {
                      "internalType": "int64",
                      "name": "amount",
                      "type": "int64"
                    },
                    {
                      "internalType": "address",
                      "name": "tokenId",
                      "type": "address"
                    },
                    {
                      "internalType": "bool",
                      "name": "useHbarsForPayment",
                      "type": "bool"
                    },
                    {
                      "internalType": "bool",
                      "name": "useCurrentTokenForPayment",
                      "type": "bool"
                    },
                    {
                      "internalType": "address",
                      "name": "feeCollector",
                      "type": "address"
                    }
                  ],
                  "internalType": "struct IHTSStructs.FixedFee[]",
                  "name": "fixedFees",
                  "type": "tuple[]"
                },
                {
                  "components": [
                    {
                      "internalType": "int64",
                      "name": "numerator",
                      "type": "int64"
                    },
                    {
                      "internalType": "int64",
                      "name": "denominator",
                      "type": "int64"
                    },
                    {
                      "internalType": "int64",
                      "name": "minimumAmount",
                      "type": "int64"
                    },
                    {
                      "internalType": "int64",
                      "name": "maximumAmount",
                      "type": "int64"
                    },
                    {
                      "internalType": "bool",
                      "name": "netOfTransfers",
                      "type": "bool"
                    },
                    {
                      "internalType": "address",
                      "name": "feeCollector",
                      "type": "address"
                    }
                  ],
                  "internalType": "struct IHTSStructs.FractionalFee[]",
                  "name": "fractionalFees",
                  "type": "tuple[]"
                },
                {
                  "components": [
                    {
                      "internalType": "int64",
                      "name": "numerator",
                      "type": "int64"
                    },
                    {
                      "internalType": "int64",
                      "name": "denominator",
                      "type": "int64"
                    },
                    {
                      "internalType": "int64",
                      "name": "amount",
                      "type": "int64"
                    },
                    {
                      "internalType": "address",
                      "name": "tokenId",
                      "type": "address"
                    },
                    {
                      "internalType": "bool",
                      "name": "useHbarsForPayment",
                      "type": "bool"
                    },
                    {
                      "internalType": "address",
                      "name": "feeCollector",
                      "type": "address"
                    }
                  ],
                  "internalType": "struct IHTSStructs.RoyaltyFee[]",
                  "name": "royaltyFees",
                  "type": "tuple[]"
                },
                {
                  "internalType": "string",
                  "name": "ledgerId",
                  "type": "string"
                }
              ],
              "internalType": "struct IHTSStructs.TokenInfo",
              "name": "tokenInfo",
              "type": "tuple"
            },
            {
              "internalType": "int32",
              "name": "decimals",
              "type": "int32"
            }
          ],
          "internalType": "struct IHTSStructs.FungibleTokenInfo",
          "name": "fungibleTokenInfo",
          "type": "tuple"
        }
      ],
      "stateMutability": "nonpayable",
      "type": "function"
    },
    {
      "inputs": [],
      "name": "htsTokenAddress",
      "outputs": [
        {
          "internalType": "address",
          "name": "",
          "type": "address"
        }
      ],
      "stateMutability": "view",
      "type": "function"
    },
    {
      "inputs": [
        {
          "internalType": "uint256",
          "name": "amount",
          "type": "uint256"
        }
      ],
      "name": "mint",
      "outputs": [
        {
          "internalType": "int256",
          "name": "responseCode",
          "type": "int256"
        },
        {
          "internalType": "int64",
          "name": "newTotalSupply",
          "type": "int64"
        }
      ],
      "stateMutability": "nonpayable",
      "type": "function"
    },
    {
      "inputs": [
        {
          "internalType": "address",
          "name": "to",
          "type": "address"
        },
        {
          "internalType": "uint256",
          "name": "amount",
          "type": "uint256"
        }
      ],
      "name": "mintTo",
      "outputs": [
        {
          "internalType": "int256",
          "name": "responseCode",
          "type": "int256"
        },
        {
          "internalType": "int64",
          "name": "newTotalSupply",
          "type": "int64"
        }
      ],
      "stateMutability": "nonpayable",
      "type": "function"
    },
    {
      "inputs": [],
      "name": "name",
      "outputs": [
        {
          "internalType": "string",
          "name": "",
          "type": "string"
        }
      ],
      "stateMutability": "view",
      "type": "function"
    },
    {
      "inputs": [],
      "name": "owner",
      "outputs": [
        {
          "internalType": "address",
          "name": "",
          "type": "address"
        }
      ],
      "stateMutability": "view",
      "type": "function"
    },
    {
      "inputs": [],
      "name": "renounceOwnership",
      "outputs": [],
      "stateMutability": "nonpayable",
      "type": "function"
    },
    {
      "inputs": [],
      "name": "symbol",
      "outputs": [
        {
          "internalType": "string",
          "name": "",
          "type": "string"
        }
      ],
      "stateMutability": "view",
      "type": "function"
    },
    {
      "inputs": [],
      "name": "totalSupply",
      "outputs": [
        {
          "internalType": "uint256",
          "name": "",
          "type": "uint256"
        }
      ],
      "stateMutability": "view",
      "type": "function"
    },
    {
      "inputs": [
        {
          "internalType": "address",
          "name": "recipient",
          "type": "address"
        },
        {
          "internalType": "uint256",
          "name": "amount",
          "type": "uint256"
        }
      ],
      "name": "transfer",
      "outputs": [
        {
          "internalType": "bool",
          "name": "",
          "type": "bool"
        }
      ],
      "stateMutability": "nonpayable",
      "type": "function"
    },
    {
      "inputs": [
        {
          "internalType": "address",
          "name": "sender",
          "type": "address"
        },
        {
          "internalType": "address",
          "name": "recipient",
          "type": "address"
        },
        {
          "internalType": "uint256",
          "name": "amount",
          "type": "uint256"
        }
      ],
      "name": "transferFrom",
      "outputs": [
        {
          "internalType": "bool",
          "name": "",
          "type": "bool"
        }
      ],
      "stateMutability": "nonpayable",
      "type": "function"
    },
    {
      "inputs": [
        {
          "internalType": "address",
          "name": "newOwner",
          "type": "address"
        }
      ],
      "name": "transferOwnership",
      "outputs": [],
      "stateMutability": "nonpayable",
      "type": "function"
    }
  ],
  "bytecode": "0x608060405260405162002dd238038062002dd28339810160408190526200002691620007cb565b600160208181527fa6eef7e35abe7026729641147f7915573c7e97b47efa546f5f6e3230263bcb499190915560027fcc69885fda6bcc1a4ace058b4a62bf5e179ea78fd58a1ccd71c22cc9b688792f5560047fd9d16d34ffb15ba3a3d852f0d403e2ce1d691fb54de27ac87cd2f993f3ec330f5560087f7dfe757ecd65cbd7922a9c0161e935dd7fdbcc0e999689c7d31633896b1fc60b5560107fedc95719e9a3b28dd8e80877cb5880a9be7de1a13fc8b05e7999683b6b567643557fe2689cd4a84e23ad2f564004f1c9013e9589d260bde6380aba3ca7e09e4df40c5560065f5260407f8f331abe73332f95a25873e8b430885974c0409691f89d643119a11623a7924a5583838383338085858585620001448484848462000193565b5050506001600160a01b03821690506200017857604051631e4fbdf760e01b81525f60048201526024015b60405180910390fd5b62000183816200033a565b5050505050505050505062000b20565b5f620001a085856200038b565b90505f806101676001600160a01b031634630fb65bf360e01b858888604051602401620001d09392919062000972565b60408051601f198184030181529181526020820180516001600160e01b03166001600160e01b031990941693909317909252905162000210919062000aa4565b5f6040518083038185875af1925050503d805f81146200024c576040519150601f19603f3d011682016040523d82523d5f602084013e62000251565b606091505b50915091505f8083620002675760155f6200027d565b828060200190518101906200027d919062000ac1565b915060030b9150601660030b8214620002d95760405162461bcd60e51b815260206004820152601a60248201527f4661696c656420746f206372656174652048545320746f6b656e00000000000060448201526064016200016f565b600280546001600160a01b0319166001600160a01b038316908117909155604080519182523060208301527fd5f9bdf12adf29dab0248c349842c3822d53ae2bb4f36352f301630d018c8139910160405180910390a1505050505050505050565b600380546001600160a01b038381166001600160a01b0319831681179093556040519116919082907f8be0079c531659141344cd1fd0a4f28419497f9722a3daafe3b4186f6b6457e0905f90a35050565b620003f16040805161012081018252606080825260208083018290525f8385018190528284018390526080840181905260a0840181905260c0840181905260e0840183905284519283018552808352908201819052928101929092529061010082015290565b6040805160018082528183019092525f91816020015b62000411620006b0565b815260200190600190039081620004075790505090506200044960045f60405180602001604052805f8152506200050360201b60201c565b815f815181106200045e576200045e62000b0c565b60209081029190910181019190915260408051606080820183525f80835230838601819052627a120084860152845161012081018652998a5289860198909852888401979097528251808401909352601983527f48747346756e6769626c65546f6b656e206372656174696f6e0000000000000093830193909352918601526001608086015261138860a086015260c085019390935260e08401525061010082015290565b6200050d620006b0565b604051806040016040528062000529866200054460201b60201c565b81526020016200053a858562000586565b9052949350505050565b5f60015f8360068111156200055d576200055d62000862565b600681111562000571576200057162000862565b81526020019081526020015f20549050919050565b620005ca6040518060a001604052805f151581526020015f6001600160a01b0316815260200160608152602001606081526020015f6001600160a01b031681525090565b5f836004811115620005e057620005e062000862565b03620005f05760018152620006a5565b600183600481111562000607576200060762000862565b0362000623575f546001600160a01b03166020820152620006a5565b60028360048111156200063a576200063a62000862565b036200064d5760408101829052620006a5565b600383600481111562000664576200066462000862565b03620006775760608101829052620006a5565b60048360048111156200068e576200068e62000862565b03620006a5575f546001600160a01b031660808201525b92915050565b905290565b60405180604001604052805f8152602001620006ab6040518060a001604052805f151581526020015f6001600160a01b0316815260200160608152602001606081526020015f6001600160a01b031681525090565b634e487b7160e01b5f52604160045260245ffd5b5f5b83811015620007355781810151838201526020016200071b565b50505f910152565b5f82601f8301126200074d575f80fd5b81516001600160401b03808211156200076a576200076a62000705565b604051601f8301601f19908116603f0116810190828211818310171562000795576200079562000705565b81604052838152866020858801011115620007ae575f80fd5b620007c184602083016020890162000719565b9695505050505050565b5f805f8060808587031215620007df575f80fd5b84516001600160401b0380821115620007f6575f80fd5b62000804888389016200073d565b955060208701519150808211156200081a575f80fd5b5062000829878288016200073d565b93505060408501518060070b811462000840575f80fd5b606086015190925060ff8116811462000857575f80fd5b939692955090935050565b634e487b7160e01b5f52602160045260245ffd5b5f81518084526200088f81602086016020860162000719565b601f01601f19169290920160200192915050565b5f82825180855260208086019550808260051b8401018186015f5b848110156200096557858303601f1901895281518051845284015160408585018190528151151581860152818601516001600160a01b039081166060808801919091529183015160a060808089018290529193909290916200092460e08a018662000876565b92860151898403603f1901858b015292945062000942858462000876565b9501511660c09790970196909652505098840198925090830190600101620008be565b5090979650505050505050565b606081525f8451610160806060850152620009926101c085018362000876565b91506020870151605f1980868503016080870152620009b2848362000876565b935060408901519150620009d160a08701836001600160a01b03169052565b60608901519150808685030160c0870152620009ee848362000876565b93506080890151915062000a0660e087018315159052565b60a0890151915061010062000a1f8188018460070b9052565b60c08a0151151561012088015260e08a01518786038301610140890152925062000a4a8584620008a3565b9450808a01519250505062000a85828601828051600790810b83526020808301516001600160a01b031690840152604091820151900b910152565b5050600785900b6020840152905060ff83166040830152949350505050565b5f825162000ab781846020870162000719565b9190910192915050565b5f806040838503121562000ad3575f80fd5b82518060030b811462000ae4575f80fd5b60208401519092506001600160a01b038116811462000b01575f80fd5b809150509250929050565b634e487b7160e01b5f52603260045260245ffd5b6122a48062000b2e5f395ff3fe608060405234801561000f575f80fd5b5060043610610111575f3560e01c8063715018a61161009e57806395d89b411161006e57806395d89b4114610259578063a0712d6814610261578063a9059cbb14610274578063dd62ed3e14610287578063f2fde38b1461029a575f80fd5b8063715018a6146102005780637796c4771461020a57806379cc6790146102355780638da5cb5b14610248575f80fd5b8063313ce567116100e4578063313ce5671461017f57806342966c6814610199578063449a52f8146101c457806353766487146101d757806370a08231146101ed575f80fd5b806306fdde0314610115578063095ea7b31461013357806318160ddd1461015657806323b872dd1461016c575b5f80fd5b61011d6102ad565b60405161012a91906112e4565b60405180910390f35b61014661014136600461130a565b610320565b604051901515815260200161012a565b61015e610416565b60405190815260200161012a565b61014661017a366004611334565b610481565b610187610585565b60405160ff909116815260200161012a565b6101ac6101a7366004611372565b6105f0565b6040805192835260079190910b60208301520161012a565b6101ac6101d236600461130a565b610755565b6101df6109e3565b60405161012a9291906116be565b61015e6101fb3660046117c8565b610b10565b610208610b82565b005b60025461021d906001600160a01b031681565b6040516001600160a01b03909116815260200161012a565b6101ac61024336600461130a565b610b95565b6003546001600160a01b031661021d565b61011d610e02565b6101ac61026f366004611372565b610e49565b61014661028236600461130a565b610fb8565b61015e6102953660046117e3565b6110a2565b6102086102a83660046117c8565b611116565b600254604080516306fdde0360e01b815290516060926001600160a01b0316916306fdde03916004808301925f9291908290030181865afa1580156102f4573d5f803e3d5ffd5b505050506040513d5f823e601f3d908101601f1916820160405261031b9190810190611953565b905090565b6002546040516001600160a01b038481166024830152604482018490525f92839291169060640160408051601f198184030181529181526020820180516001600160e01b031663095ea7b360e01b1790525161037c9190611985565b5f60405180830381855af49150503d805f81146103b4576040519150601f19603f3d011682016040523d82523d5f602084013e6103b9565b606091505b505090508061040f5760405162461bcd60e51b815260206004820152601c60248201527f44656c656761746520617070726f76652063616c6c206661696c65640000000060448201526064015b60405180910390fd5b9392505050565b600254604080516318160ddd60e01b815290515f926001600160a01b0316916318160ddd9160048083019260209291908290030181865afa15801561045d573d5f803e3d5ffd5b505050506040513d601f19601f8201168201806040525081019061031b91906119a0565b6002546040516001600160a01b0385811660248301528481166044830152606482018490525f92839291169060840160408051601f198184030181529181526020820180516001600160e01b03166323b872dd60e01b179052516104e59190611985565b5f60405180830381855af49150503d805f811461051d576040519150601f19603f3d011682016040523d82523d5f602084013e610522565b606091505b505090508061057d5760405162461bcd60e51b815260206004820152602160248201527f44656c6567617465207472616e7366657246726f6d2063616c6c206661696c656044820152601960fa1b6064820152608401610406565b949350505050565b6002546040805163313ce56760e01b815290515f926001600160a01b03169163313ce5679160048083019260209291908290030181865afa1580156105cc573d5f803e3d5ffd5b505050506040513d601f19601f8201168201806040525081019061031b91906119b7565b5f806105fa611153565b6002545f90819061016790636b48868360e11b906001600160a01b0316878460405190808252806020026020018201604052801561064c57816020015b60608152602001906001900390816106375790505b5060405160240161065f939291906119d7565b60408051601f198184030181529181526020820180516001600160e01b03166001600160e01b031990941693909317909252905161069d9190611985565b5f604051808303815f865af19150503d805f81146106d6576040519150601f19603f3d011682016040523d82523d5f602084013e6106db565b606091505b5091509150816106ed5760155f610701565b808060200190518101906107019190611a78565b60039190910b945092506016841461074e5760405162461bcd60e51b815260206004820152601060248201526f121514ce88109d5c9b8819985a5b195960821b6044820152606401610406565b5050915091565b5f8061075f611153565b6002545f9081906101679063707a02cd60e11b906001600160a01b031687846040519080825280602002602001820160405280156107b157816020015b606081526020019060019003908161079c5790505b506040516024016107c4939291906119d7565b60408051601f198184030181529181526020820180516001600160e01b03166001600160e01b03199094169390931790925290516108029190611985565b5f604051808303815f865af19150503d805f811461083b576040519150601f19603f3d011682016040523d82523d5f602084013e610840565b606091505b50915091508161086257604080515f8082526020820190925260159190610876565b808060200190518101906108769190611acc565b5060039190910b94509250601684146108c45760405162461bcd60e51b815260206004820152601060248201526f121514ce88135a5b9d0819985a5b195960821b6044820152606401610406565b600254604080516001600160a01b039283166024820152306044820152918816606483015260848083018890528151808403909101815260a490920181526020820180516001600160e01b031663eca3691760e01b179052516101679161092a91611985565b5f604051808303815f865af19150503d805f8114610963576040519150601f19603f3d011682016040523d82523d5f602084013e610968565b606091505b5090925090508161097a57601561098e565b8080602001905181019061098e9190611b86565b60030b9350601684146109da5760405162461bcd60e51b8152602060048201526014602482015273121514ce88151c985b9cd9995c8819985a5b195960621b6044820152606401610406565b50509250929050565b5f6109ec6111de565b600254604080516001600160a01b0390921660248084019190915281518084039091018152604490920181526020820180516001600160e01b0316633f28a19b60e01b179052515f91829161016791610a4491611985565b5f604051808303815f865af19150503d805f8114610a7d576040519150601f19603f3d011682016040523d82523d5f602084013e610a82565b606091505b5091509150610a8f6111de565b82610a9c57601581610ab0565b81806020019051810190610ab091906120e3565b9095509350600785900b601614610b095760405162461bcd60e51b815260206004820181905260248201527f4854533a2067657446756e6769626c65546f6b656e496e666f206661696c65646044820152606401610406565b5050509091565b6002546040516370a0823160e01b81526001600160a01b0383811660048301525f9216906370a0823190602401602060405180830381865afa158015610b58573d5f803e3d5ffd5b505050506040513d601f19601f82011682018060405250810190610b7c91906119a0565b92915050565b610b8a611153565b610b935f611180565b565b5f80610b9f611153565b600254604080516001600160a01b039283166024820152918616604483015230606483015260848083018690528151808403909101815260a490920181526020820180516001600160e01b031663eca3691760e01b179052515f91829161016791610c0991611985565b5f604051808303815f865af19150503d805f8114610c42576040519150601f19603f3d011682016040523d82523d5f602084013e610c47565b606091505b509150915081610c58576015610c6c565b80806020019051810190610c6c9190611b86565b60030b935060168414610cb85760405162461bcd60e51b8152602060048201526014602482015273121514ce88151c985b9cd9995c8819985a5b195960621b6044820152606401610406565b600254604080515f8082526020820190925261016792636b48868360e11b926001600160a01b03909116918991610cff565b6060815260200190600190039081610cea5790505b50604051602401610d12939291906119d7565b60408051601f198184030181529181526020820180516001600160e01b03166001600160e01b0319909416939093179092529051610d509190611985565b5f604051808303815f865af19150503d805f8114610d89576040519150601f19603f3d011682016040523d82523d5f602084013e610d8e565b606091505b50909250905081610da15760155f610db5565b80806020019051810190610db59190611a78565b60039190910b94509250601684146109da5760405162461bcd60e51b815260206004820152601060248201526f121514ce88109d5c9b8819985a5b195960821b6044820152606401610406565b600254604080516395d89b4160e01b815290516060926001600160a01b0316916395d89b41916004808301925f9291908290030181865afa1580156102f4573d5f803e3d5ffd5b5f80610e53611153565b6002545f9081906101679063707a02cd60e11b906001600160a01b03168784604051908082528060200260200182016040528015610ea557816020015b6060815260200190600190039081610e905790505b50604051602401610eb8939291906119d7565b60408051601f198184030181529181526020820180516001600160e01b03166001600160e01b0319909416939093179092529051610ef69190611985565b5f604051808303815f865af19150503d805f8114610f2f576040519150601f19603f3d011682016040523d82523d5f602084013e610f34565b606091505b509150915081610f5657604080515f8082526020820190925260159190610f6a565b80806020019051810190610f6a9190611acc565b5060039190910b945092506016841461074e5760405162461bcd60e51b815260206004820152601060248201526f121514ce88135a5b9d0819985a5b195960821b6044820152606401610406565b6002546040516001600160a01b038481166024830152604482018490525f92839291169060640160408051601f198184030181529181526020820180516001600160e01b031663a9059cbb60e01b179052516110149190611985565b5f60405180830381855af49150503d805f811461104c576040519150601f19603f3d011682016040523d82523d5f602084013e611051565b606091505b505090508061040f5760405162461bcd60e51b815260206004820152601d60248201527f44656c6567617465207472616e736665722063616c6c206661696c65640000006044820152606401610406565b600254604051636eb1769f60e11b81526001600160a01b03848116600483015283811660248301525f92169063dd62ed3e90604401602060405180830381865afa1580156110f2573d5f803e3d5ffd5b505050506040513d601f19601f8201168201806040525081019061040f91906119a0565b61111e611153565b6001600160a01b03811661114757604051631e4fbdf760e01b81525f6004820152602401610406565b61115081611180565b50565b6003546001600160a01b03163314610b935760405163118cdaa760e01b8152336004820152602401610406565b600380546001600160a01b0383811673ffffffffffffffffffffffffffffffffffffffff19831681179093556040519116919082907f8be0079c531659141344cd1fd0a4f28419497f9722a3daafe3b4186f6b6457e0905f90a35050565b60408051610280810182526060610160820181815261018083018290525f6101a084018190526101c084018390526101e0840181905261020084018190526102208401819052610240840183905284518084018652818152602081018290528086018290526102608501529383019081528183018490526080830184905260a0830184905260c083019390935260e082018190526101008201819052610120820181905261014082015290819081525f60209091015290565b5f5b838110156112b1578181015183820152602001611299565b50505f910152565b5f81518084526112d0816020860160208601611297565b601f01601f19169290920160200192915050565b602081525f61040f60208301846112b9565b6001600160a01b0381168114611150575f80fd5b5f806040838503121561131b575f80fd5b8235611326816112f6565b946020939093013593505050565b5f805f60608486031215611346575f80fd5b8335611351816112f6565b92506020840135611361816112f6565b929592945050506040919091013590565b5f60208284031215611382575f80fd5b5035919050565b5f82825180855260208086019550808260051b8401018186015f5b8481101561144157601f198684030189528151604081518552858201519150808686015281511515818601528582015160606001600160a01b038083168289015283850151935060a09250608083818a015261140360e08a01866112b9565b92860151898403603f1901858b015292945061141f85846112b9565b9501511660c097909701969096525050988401989250908301906001016113a4565b5090979650505050505050565b5f6101608251818552611463828601826112b9565b9150506020830151848203602086015261147d82826112b9565b915050604083015161149a60408601826001600160a01b03169052565b50606083015184820360608601526114b282826112b9565b91505060808301516114c8608086018215159052565b5060a08301516114dd60a086018260070b9052565b5060c08301516114f160c086018215159052565b5060e083015184820360e08601526115098282611389565b9150506101008084015161154582870182805160070b82526001600160a01b036020820151166020830152604081015160070b60408301525050565b5090949350505050565b5f815180845260208085019450602084015f5b838110156115bb578151805160070b8852838101516001600160a01b03908116858a01526040808301511515908a01526060808301511515908a0152608091820151169088015260a09096019590820190600101611562565b509495945050505050565b5f815180845260208085019450602084015f5b838110156115bb5781518051600790810b895284820151810b858a0152604080830151820b908a015260608083015190910b9089015260808082015115159089015260a0908101516001600160a01b03169088015260c090960195908201906001016115d9565b5f815180845260208085019450602084015f5b838110156115bb5781518051600790810b895284820151810b858a015260408083015190910b908901526060808201516001600160a01b03908116918a01919091526080808301511515908a015260a091820151169088015260c09096019590820190600101611653565b8260070b8152604060208201525f825160408084015280516101208060808601526116ed6101a086018361144e565b9150602083015161170360a087018260070b9052565b506040830151151560c08601526060830151151560e086015260808301518015156101008088019190915260a08501519150607f1980888603018489015261174b858461154f565b945060c08601519350808886030161014089015261176985856115c6565b945060e0860151935080888603016101608901526117878585611640565b94508186015195508088860301610180890152505050506117a881836112b9565b91505060208401516117bf606085018260030b9052565b50949350505050565b5f602082840312156117d8575f80fd5b813561040f816112f6565b5f80604083850312156117f4575f80fd5b82356117ff816112f6565b9150602083013561180f816112f6565b809150509250929050565b634e487b7160e01b5f52604160045260245ffd5b6040805190810167ffffffffffffffff811182821017156118515761185161181a565b60405290565b60405160a0810167ffffffffffffffff811182821017156118515761185161181a565b604051610120810167ffffffffffffffff811182821017156118515761185161181a565b60405160c0810167ffffffffffffffff811182821017156118515761185161181a565b604051601f8201601f1916810167ffffffffffffffff811182821017156118ea576118ea61181a565b604052919050565b5f82601f830112611901575f80fd5b815167ffffffffffffffff81111561191b5761191b61181a565b61192e601f8201601f19166020016118c1565b818152846020838601011115611942575f80fd5b61057d826020830160208701611297565b5f60208284031215611963575f80fd5b815167ffffffffffffffff811115611979575f80fd5b61057d848285016118f2565b5f8251611996818460208701611297565b9190910192915050565b5f602082840312156119b0575f80fd5b5051919050565b5f602082840312156119c7575f80fd5b815160ff8116811461040f575f80fd5b5f606082016001600160a01b038616835260208560208501526060604085015281855180845260808601915060808160051b8701019350602087015f5b82811015611a4257607f19888703018452611a308683516112b9565b95509284019290840190600101611a14565b50939998505050505050505050565b8051600381900b8114611a62575f80fd5b919050565b8051600781900b8114611a62575f80fd5b5f8060408385031215611a89575f80fd5b611a9283611a51565b9150611aa060208401611a67565b90509250929050565b5f67ffffffffffffffff821115611ac257611ac261181a565b5060051b60200190565b5f805f60608486031215611ade575f80fd5b611ae784611a51565b92506020611af6818601611a67565b9250604085015167ffffffffffffffff811115611b11575f80fd5b8501601f81018713611b21575f80fd5b8051611b34611b2f82611aa9565b6118c1565b81815260059190911b82018301908381019089831115611b52575f80fd5b928401925b82841015611b7757611b6884611a67565b82529284019290840190611b57565b80955050505050509250925092565b5f60208284031215611b96575f80fd5b61040f82611a51565b8051611a62816112f6565b80518015158114611a62575f80fd5b5f82601f830112611bc8575f80fd5b81516020611bd8611b2f83611aa9565b82815260059290921b84018101918181019086841115611bf6575f80fd5b8286015b84811015611d0757805167ffffffffffffffff80821115611c19575f80fd5b908801906040601f19838c038101821315611c32575f80fd5b611c3a61182e565b8885015181528285015184811115611c50575f80fd5b949094019360a0858e0383011215611c66575f80fd5b611c6e611857565b9150611c7b898601611baa565b825282850151611c8a816112f6565b828a015260608581015185811115611ca0575f80fd5b611cae8f8c838a01016118f2565b8585015250608093508386015185811115611cc7575f80fd5b611cd58f8c838a01016118f2565b82850152505060a08501519450611ceb856112f6565b9181019390935280870192909252508352918301918301611bfa565b509695505050505050565b5f60608284031215611d22575f80fd5b6040516060810181811067ffffffffffffffff82111715611d4557611d4561181a565b604052905080611d5483611a67565b81526020830151611d64816112f6565b6020820152611d7560408401611a67565b60408201525092915050565b5f6101608284031215611d92575f80fd5b611d9a61187a565b9050815167ffffffffffffffff80821115611db3575f80fd5b611dbf858386016118f2565b83526020840151915080821115611dd4575f80fd5b611de0858386016118f2565b6020840152611df160408501611b9f565b60408401526060840151915080821115611e09575f80fd5b611e15858386016118f2565b6060840152611e2660808501611baa565b6080840152611e3760a08501611a67565b60a0840152611e4860c08501611baa565b60c084015260e0840151915080821115611e60575f80fd5b50611e6d84828501611bb9565b60e083015250610100611e8284828501611d12565b9082015292915050565b5f82601f830112611e9b575f80fd5b81516020611eab611b2f83611aa9565b82815260a09283028501820192828201919087851115611ec9575f80fd5b8387015b858110156114415781818a031215611ee3575f80fd5b611eeb611857565b611ef482611a67565b815285820151611f03816112f6565b818701526040611f14838201611baa565b908201526060611f25838201611baa565b90820152608082810151611f38816112f6565b908201528452928401928101611ecd565b5f82601f830112611f58575f80fd5b81516020611f68611b2f83611aa9565b82815260c09283028501820192828201919087851115611f86575f80fd5b8387015b858110156114415781818a031215611fa0575f80fd5b611fa861189e565b611fb182611a67565b8152611fbe868301611a67565b868201526040611fcf818401611a67565b908201526060611fe0838201611a67565b908201526080611ff1838201611baa565b9082015260a082810151612004816112f6565b908201528452928401928101611f8a565b5f82601f830112612024575f80fd5b81516020612034611b2f83611aa9565b82815260c09283028501820192828201919087851115612052575f80fd5b8387015b858110156114415781818a03121561206c575f80fd5b61207461189e565b61207d82611a67565b815261208a868301611a67565b86820152604061209b818401611a67565b908201526060828101516120ae816112f6565b9082015260806120bf838201611baa565b9082015260a0828101516120d2816112f6565b908201528452928401928101612056565b5f80604083850312156120f4575f80fd5b6120fd83611a67565b9150602083015167ffffffffffffffff80821115612119575f80fd5b908401906040828703121561212c575f80fd5b61213461182e565b825182811115612142575f80fd5b83016101208189031215612154575f80fd5b61215c61187a565b81518481111561216a575f80fd5b6121768a828501611d81565b82525061218560208301611a67565b602082015261219660408301611baa565b60408201526121a760608301611baa565b60608201526121b860808301611baa565b608082015260a0820151848111156121ce575f80fd5b6121da8a828501611e8c565b60a08301525060c0820151848111156121f1575f80fd5b6121fd8a828501611f49565b60c08301525060e082015184811115612214575f80fd5b6122208a828501612015565b60e0830152506101008083015185811115612239575f80fd5b6122458b8286016118f2565b828401525050808352505061225c60208401611a51565b6020820152809350505050925092905056fea2646970667358221220d2095794d460194983ee9ca348c45ce3f9d2f0c4fc8834cf448c4da4fb57dc6c64736f6c63430008180033",
  "linkReferences": {},
  "deployedLinkReferences": {}
}