{
  "_format": "hh-sol-artifact-1",
  "contractName": "VaultV2",
  "sourceName": "contracts/openzeppelin/uups-upgradable/VaultV2.sol",
  "abi": [
    {
      "inputs": [
        {
          "internalType": "address",
          "name": "target",
          "type": "address"
        }
      ],
      "name": "AddressEmptyCode",
      "type": "error"
    },
    {
      "inputs": [
        {
          "internalType": "address",
          "name": "implementation",
          "type": "address"
        }
      ],
      "name": "ERC1967InvalidImplementation",
      "type": "error"
    },
    {
      "inputs": [],
      "name": "ERC1967NonPayable",
      "type": "error"
    },
    {
      "inputs": [],
      "name": "FailedInnerCall",
      "type": "error"
    },
    {
      "inputs": [],
      "name": "InsufficientFund",
      "type": "error"
    },
    {
      "inputs": [],
      "name": "InvalidInitialization",
      "type": "error"
    },
    {
      "inputs": [],
      "name": "NotInitializing",
      "type": "error"
    },
    {
      "inputs": [
        {
          "internalType": "address",
          "name": "owner",
          "type": "address"
        }
      ],
      "name": "OwnableInvalidOwner",
      "type": "error"
    },
    {
      "inputs": [
        {
          "internalType": "address",
          "name": "account",
          "type": "address"
        }
      ],
      "name": "OwnableUnauthorizedAccount",
      "type": "error"
    },
    {
      "inputs": [],
      "name": "UUPSUnauthorizedCallContext",
      "type": "error"
    },
    {
      "inputs": [
        {
          "internalType": "bytes32",
          "name": "slot",
          "type": "bytes32"
        }
      ],
      "name": "UUPSUnsupportedProxiableUUID",
      "type": "error"
    },
    {
      "anonymous": false,
      "inputs": [
        {
          "indexed": false,
          "internalType": "address",
          "name": "depositor",
          "type": "address"
        },
        {
          "indexed": false,
          "internalType": "uint256",
          "name": "amount",
          "type": "uint256"
        }
      ],
      "name": "Deposited",
      "type": "event"
    },
    {
      "anonymous": false,
      "inputs": [
        {
          "indexed": false,
          "internalType": "uint64",
          "name": "version",
          "type": "uint64"
        }
      ],
      "name": "Initialized",
      "type": "event"
    },
    {
      "anonymous": false,
      "inputs": [
        {
          "indexed": true,
          "internalType": "address",
          "name": "previousOwner",
          "type": "address"
        },
        {
          "indexed": true,
          "internalType": "address",
          "name": "newOwner",
          "type": "address"
        }
      ],
      "name": "OwnershipTransferred",
      "type": "event"
    },
    {
      "anonymous": false,
      "inputs": [
        {
          "indexed": true,
          "internalType": "address",
          "name": "implementation",
          "type": "address"
        }
      ],
      "name": "Upgraded",
      "type": "event"
    },
    {
      "anonymous": false,
      "inputs": [
        {
          "indexed": false,
          "internalType": "address",
          "name": "withdrawer",
          "type": "address"
        },
        {
          "indexed": false,
          "internalType": "uint256",
          "name": "amount",
          "type": "uint256"
        }
      ],
      "name": "Withdrawn",
      "type": "event"
    },
    {
      "inputs": [],
      "name": "UPGRADE_INTERFACE_VERSION",
      "outputs": [
        {
          "internalType": "string",
          "name": "",
          "type": "string"
        }
      ],
      "stateMutability": "view",
      "type": "function"
    },
    {
      "inputs": [],
      "name": "deposit",
      "outputs": [],
      "stateMutability": "payable",
      "type": "function"
    },
    {
      "inputs": [],
      "name": "getCurrentBeneficiary",
      "outputs": [
        {
          "internalType": "address",
          "name": "beneficiary",
          "type": "address"
        }
      ],
      "stateMutability": "view",
      "type": "function"
    },
    {
      "inputs": [],
      "name": "initialize",
      "outputs": [],
      "stateMutability": "nonpayable",
      "type": "function"
    },
    {
      "inputs": [
        {
          "internalType": "address",
          "name": "beneficiary",
          "type": "address"
        }
      ],
      "name": "initializeV2",
      "outputs": [],
      "stateMutability": "nonpayable",
      "type": "function"
    },
    {
      "inputs": [],
      "name": "owner",
      "outputs": [
        {
          "internalType": "address",
          "name": "",
          "type": "address"
        }
      ],
      "stateMutability": "view",
      "type": "function"
    },
    {
      "inputs": [],
      "name": "proxiableUUID",
      "outputs": [
        {
          "internalType": "bytes32",
          "name": "",
          "type": "bytes32"
        }
      ],
      "stateMutability": "view",
      "type": "function"
    },
    {
      "inputs": [],
      "name": "renounceOwnership",
      "outputs": [],
      "stateMutability": "nonpayable",
      "type": "function"
    },
    {
      "inputs": [],
      "name": "totalBalance",
      "outputs": [
        {
          "internalType": "uint256",
          "name": "total",
          "type": "uint256"
        }
      ],
      "stateMutability": "view",
      "type": "function"
    },
    {
      "inputs": [
        {
          "internalType": "address",
          "name": "newOwner",
          "type": "address"
        }
      ],
      "name": "transferOwnership",
      "outputs": [],
      "stateMutability": "nonpayable",
      "type": "function"
    },
    {
      "inputs": [
        {
          "internalType": "address",
          "name": "newImplementation",
          "type": "address"
        }
      ],
      "name": "upgradeTo",
      "outputs": [],
      "stateMutability": "nonpayable",
      "type": "function"
    },
    {
      "inputs": [
        {
          "internalType": "address",
          "name": "newImplementation",
          "type": "address"
        },
        {
          "internalType": "bytes",
          "name": "data",
          "type": "bytes"
        }
      ],
      "name": "upgradeToAndCall",
      "outputs": [],
      "stateMutability": "payable",
      "type": "function"
    },
    {
      "inputs": [],
      "name": "version",
      "outputs": [
        {
          "internalType": "uint256",
          "name": "currentVersion",
          "type": "uint256"
        }
      ],
      "stateMutability": "view",
      "type": "function"
    },
    {
      "inputs": [
        {
          "internalType": "uint256",
          "name": "_amount",
          "type": "uint256"
        }
      ],
      "name": "withdraw",
      "outputs": [],
      "stateMutability": "nonpayable",
      "type": "function"
    }
  ],
  "bytecode": "0x60a06040523060805234801561001457600080fd5b50608051610d6061003e60003960008181610684015281816106ad01526108170152610d606000f3fe6080604052600436106100dd5760003560e01c80638129fc1c1161007f578063ad7a672f11610059578063ad7a672f1461024d578063d0e30db014610262578063f12864f61461026a578063f2fde38b1461027f57600080fd5b80638129fc1c146101a95780638da5cb5b146101be578063ad3cb1cc1461020f57600080fd5b80634f1ef286116100bb5780634f1ef2861461014457806352d1902d1461015757806354fd4d501461017f578063715018a61461019457600080fd5b806329b6eca9146100e25780632e1a7d4d146101045780633659cfe614610124575b600080fd5b3480156100ee57600080fd5b506101026100fd366004610b92565b61029f565b005b34801561011057600080fd5b5061010261011f366004610bad565b610394565b34801561013057600080fd5b5061010261013f366004610b92565b610428565b610102610152366004610bdc565b610456565b34801561016357600080fd5b5061016c610475565b6040519081526020015b60405180910390f35b34801561018b57600080fd5b5060005461016c565b3480156101a057600080fd5b506101026104a4565b3480156101b557600080fd5b506101026104b8565b3480156101ca57600080fd5b507f9016d09d72d40fdae2fd8ceac6b6234c7706214fd39c1cd1e609a0528c199300546001600160a01b03165b6040516001600160a01b039091168152602001610176565b34801561021b57600080fd5b50610240604051806040016040528060058152602001640352e302e360dc1b81525081565b6040516101769190610cc2565b34801561025957600080fd5b5060015461016c565b6101026105d6565b34801561027657600080fd5b506002546101f7565b34801561028b57600080fd5b5061010261029a366004610b92565b610628565b7ff0c57e16840df040f15088dc2f81fe391c3923bec73e23a9662efc9c229c6a00805460029190600160401b900460ff16806102e95750805467ffffffffffffffff808416911610155b156103075760405163f92ee8a960e01b815260040160405180910390fd5b805468ffffffffffffffffff191667ffffffffffffffff831617600160401b1781556103386103333390565b610668565b60026000819055839055805468ff00000000000000001916815560405167ffffffffffffffff831681527fc7f505b2f371ae2175ee4913f4499e1f2633a7b5936321eed1cdaeb6115181d29060200160405180910390a1505050565b60025433146103a257600080fd5b6001548111156103c557604051636a259e3160e11b815260040160405180910390fd5b806001540360015560008060008084335af1806103e157600080fd5b507f7084f5476618d8e60b11ef0d7d3f06914655adb8793e28ff7f018d4c76d505d533604080516001600160a01b039092168252602082018490520160405180910390a150565b610430610679565b61043981610730565b604080516000815260208101909152610453908290610738565b50565b61045e610679565b61046782610730565b6104718282610738565b5050565b600061047f61080c565b507f360894a13ba1a3210667c828492db98dca3e2076cc3735a920a3ca505d382bbc90565b6104ac610855565b6104b660006108b0565b565b7ff0c57e16840df040f15088dc2f81fe391c3923bec73e23a9662efc9c229c6a008054600160401b810460ff16159067ffffffffffffffff166000811580156104fe5750825b905060008267ffffffffffffffff16600114801561051b5750303b155b905081158015610529575080155b156105475760405163f92ee8a960e01b815260040160405180910390fd5b845467ffffffffffffffff19166001178555831561057657845468ff00000000000000001916600160401b1785555b61057f33610668565b600160005583156105cf57845468ff000000000000000019168555604051600181527fc7f505b2f371ae2175ee4913f4499e1f2633a7b5936321eed1cdaeb6115181d29060200160405180910390a15b5050505050565b34600154016001557f2da466a7b24304f47e87fa2e1e5a81b9831ce54fec19055ce277ca2f39ba42c46106063390565b604080516001600160a01b0390921682523460208301520160405180910390a1565b610630610855565b6001600160a01b03811661065f57604051631e4fbdf760e01b8152600060048201526024015b60405180910390fd5b610453816108b0565b61067061092e565b61045381610977565b306001600160a01b037f000000000000000000000000000000000000000000000000000000000000000016148061071257507f00000000000000000000000000000000000000000000000000000000000000006001600160a01b03166107067f360894a13ba1a3210667c828492db98dca3e2076cc3735a920a3ca505d382bbc546001600160a01b031690565b6001600160a01b031614155b156104b65760405163703e46dd60e11b815260040160405180910390fd5b610453610855565b816001600160a01b03166352d1902d6040518163ffffffff1660e01b8152600401602060405180830381865afa925050508015610792575060408051601f3d908101601f1916820190925261078f91810190610cf5565b60015b6107ba57604051634c9c8ce360e01b81526001600160a01b0383166004820152602401610656565b7f360894a13ba1a3210667c828492db98dca3e2076cc3735a920a3ca505d382bbc81146107fd57604051632a87526960e21b815260048101829052602401610656565b610807838361097f565b505050565b306001600160a01b037f000000000000000000000000000000000000000000000000000000000000000016146104b65760405163703e46dd60e11b815260040160405180910390fd5b336108877f9016d09d72d40fdae2fd8ceac6b6234c7706214fd39c1cd1e609a0528c199300546001600160a01b031690565b6001600160a01b0316146104b65760405163118cdaa760e01b8152336004820152602401610656565b7f9016d09d72d40fdae2fd8ceac6b6234c7706214fd39c1cd1e609a0528c199300805473ffffffffffffffffffffffffffffffffffffffff1981166001600160a01b03848116918217845560405192169182907f8be0079c531659141344cd1fd0a4f28419497f9722a3daafe3b4186f6b6457e090600090a3505050565b7ff0c57e16840df040f15088dc2f81fe391c3923bec73e23a9662efc9c229c6a0054600160401b900460ff166104b657604051631afcd79f60e31b815260040160405180910390fd5b61063061092e565b610988826109d5565b6040516001600160a01b038316907fbc7cd75a20ee27fd9adebab32041f755214dbc6bffa90cc0225b39da2e5c2d3b90600090a28051156109cd576108078282610a59565b610471610acf565b806001600160a01b03163b600003610a0b57604051634c9c8ce360e01b81526001600160a01b0382166004820152602401610656565b7f360894a13ba1a3210667c828492db98dca3e2076cc3735a920a3ca505d382bbc805473ffffffffffffffffffffffffffffffffffffffff19166001600160a01b0392909216919091179055565b6060600080846001600160a01b031684604051610a769190610d0e565b600060405180830381855af49150503d8060008114610ab1576040519150601f19603f3d011682016040523d82523d6000602084013e610ab6565b606091505b5091509150610ac6858383610aee565b95945050505050565b34156104b65760405163b398979f60e01b815260040160405180910390fd5b606082610b0357610afe82610b4d565b610b46565b8151158015610b1a57506001600160a01b0384163b155b15610b4357604051639996b31560e01b81526001600160a01b0385166004820152602401610656565b50805b9392505050565b805115610b5d5780518082602001fd5b604051630a12f52160e11b815260040160405180910390fd5b80356001600160a01b0381168114610b8d57600080fd5b919050565b600060208284031215610ba457600080fd5b610b4682610b76565b600060208284031215610bbf57600080fd5b5035919050565b634e487b7160e01b600052604160045260246000fd5b60008060408385031215610bef57600080fd5b610bf883610b76565b9150602083013567ffffffffffffffff80821115610c1557600080fd5b818501915085601f830112610c2957600080fd5b813581811115610c3b57610c3b610bc6565b604051601f8201601f19908116603f01168101908382118183101715610c6357610c63610bc6565b81604052828152886020848701011115610c7c57600080fd5b8260208601602083013760006020848301015280955050505050509250929050565b60005b83811015610cb9578181015183820152602001610ca1565b50506000910152565b6020815260008251806020840152610ce1816040850160208701610c9e565b601f01601f19169190910160400192915050565b600060208284031215610d0757600080fd5b5051919050565b60008251610d20818460208701610c9e565b919091019291505056fea264697066735822122010b6f4d414111730e2cc7db7e98efb40d15d39a8b56f5aac786623d8a182926b64736f6c63430008140033",
  "linkReferences": {},
  "deployedLinkReferences": {}
}