{
  "_format": "hh-sol-artifact-1",
  "contractName": "VaultV2",
  "sourceName": "contracts/openzeppelin/uups-upgradable/VaultV2.sol",
  "abi": [
    {
      "inputs": [
        {
          "internalType": "address",
          "name": "target",
          "type": "address"
        }
      ],
      "name": "AddressEmptyCode",
      "type": "error"
    },
    {
      "inputs": [
        {
          "internalType": "address",
          "name": "implementation",
          "type": "address"
        }
      ],
      "name": "ERC1967InvalidImplementation",
      "type": "error"
    },
    {
      "inputs": [],
      "name": "ERC1967NonPayable",
      "type": "error"
    },
    {
      "inputs": [],
      "name": "FailedInnerCall",
      "type": "error"
    },
    {
      "inputs": [],
      "name": "InsufficientFund",
      "type": "error"
    },
    {
      "inputs": [],
      "name": "InvalidInitialization",
      "type": "error"
    },
    {
      "inputs": [],
      "name": "NotInitializing",
      "type": "error"
    },
    {
      "inputs": [
        {
          "internalType": "address",
          "name": "owner",
          "type": "address"
        }
      ],
      "name": "OwnableInvalidOwner",
      "type": "error"
    },
    {
      "inputs": [
        {
          "internalType": "address",
          "name": "account",
          "type": "address"
        }
      ],
      "name": "OwnableUnauthorizedAccount",
      "type": "error"
    },
    {
      "inputs": [],
      "name": "UUPSUnauthorizedCallContext",
      "type": "error"
    },
    {
      "inputs": [
        {
          "internalType": "bytes32",
          "name": "slot",
          "type": "bytes32"
        }
      ],
      "name": "UUPSUnsupportedProxiableUUID",
      "type": "error"
    },
    {
      "anonymous": false,
      "inputs": [
        {
          "indexed": false,
          "internalType": "address",
          "name": "depositor",
          "type": "address"
        },
        {
          "indexed": false,
          "internalType": "uint256",
          "name": "amount",
          "type": "uint256"
        }
      ],
      "name": "Deposited",
      "type": "event"
    },
    {
      "anonymous": false,
      "inputs": [
        {
          "indexed": false,
          "internalType": "uint64",
          "name": "version",
          "type": "uint64"
        }
      ],
      "name": "Initialized",
      "type": "event"
    },
    {
      "anonymous": false,
      "inputs": [
        {
          "indexed": true,
          "internalType": "address",
          "name": "previousOwner",
          "type": "address"
        },
        {
          "indexed": true,
          "internalType": "address",
          "name": "newOwner",
          "type": "address"
        }
      ],
      "name": "OwnershipTransferred",
      "type": "event"
    },
    {
      "anonymous": false,
      "inputs": [
        {
          "indexed": true,
          "internalType": "address",
          "name": "implementation",
          "type": "address"
        }
      ],
      "name": "Upgraded",
      "type": "event"
    },
    {
      "anonymous": false,
      "inputs": [
        {
          "indexed": false,
          "internalType": "address",
          "name": "withdrawer",
          "type": "address"
        },
        {
          "indexed": false,
          "internalType": "uint256",
          "name": "amount",
          "type": "uint256"
        }
      ],
      "name": "Withdrawn",
      "type": "event"
    },
    {
      "inputs": [],
      "name": "UPGRADE_INTERFACE_VERSION",
      "outputs": [
        {
          "internalType": "string",
          "name": "",
          "type": "string"
        }
      ],
      "stateMutability": "view",
      "type": "function"
    },
    {
      "inputs": [],
      "name": "deposit",
      "outputs": [],
      "stateMutability": "payable",
      "type": "function"
    },
    {
      "inputs": [],
      "name": "getCurrentBeneficiary",
      "outputs": [
        {
          "internalType": "address",
          "name": "beneficiary",
          "type": "address"
        }
      ],
      "stateMutability": "view",
      "type": "function"
    },
    {
      "inputs": [],
      "name": "initialize",
      "outputs": [],
      "stateMutability": "nonpayable",
      "type": "function"
    },
    {
      "inputs": [
        {
          "internalType": "address",
          "name": "beneficiary",
          "type": "address"
        }
      ],
      "name": "initializeV2",
      "outputs": [],
      "stateMutability": "nonpayable",
      "type": "function"
    },
    {
      "inputs": [],
      "name": "owner",
      "outputs": [
        {
          "internalType": "address",
          "name": "",
          "type": "address"
        }
      ],
      "stateMutability": "view",
      "type": "function"
    },
    {
      "inputs": [],
      "name": "proxiableUUID",
      "outputs": [
        {
          "internalType": "bytes32",
          "name": "",
          "type": "bytes32"
        }
      ],
      "stateMutability": "view",
      "type": "function"
    },
    {
      "inputs": [],
      "name": "renounceOwnership",
      "outputs": [],
      "stateMutability": "nonpayable",
      "type": "function"
    },
    {
      "inputs": [],
      "name": "totalBalance",
      "outputs": [
        {
          "internalType": "uint256",
          "name": "total",
          "type": "uint256"
        }
      ],
      "stateMutability": "view",
      "type": "function"
    },
    {
      "inputs": [
        {
          "internalType": "address",
          "name": "newOwner",
          "type": "address"
        }
      ],
      "name": "transferOwnership",
      "outputs": [],
      "stateMutability": "nonpayable",
      "type": "function"
    },
    {
      "inputs": [
        {
          "internalType": "address",
          "name": "newImplementation",
          "type": "address"
        },
        {
          "internalType": "bytes",
          "name": "data",
          "type": "bytes"
        }
      ],
      "name": "upgradeToAndCall",
      "outputs": [],
      "stateMutability": "payable",
      "type": "function"
    },
    {
      "inputs": [],
      "name": "version",
      "outputs": [
        {
          "internalType": "uint256",
          "name": "currentVersion",
          "type": "uint256"
        }
      ],
      "stateMutability": "view",
      "type": "function"
    },
    {
      "inputs": [
        {
          "internalType": "uint256",
          "name": "_amount",
          "type": "uint256"
        }
      ],
      "name": "withdraw",
      "outputs": [],
      "stateMutability": "nonpayable",
      "type": "function"
    }
  ],
  "bytecode": "0x60a06040523060805234801561001457600080fd5b50608051610d0a61003e6000396000818161062e0152818161065701526107c10152610d0a6000f3fe6080604052600436106100d25760003560e01c80638129fc1c1161007f578063ad7a672f11610059578063ad7a672f14610222578063d0e30db014610237578063f12864f61461023f578063f2fde38b1461025457600080fd5b80638129fc1c1461017e5780638da5cb5b14610193578063ad3cb1cc146101e457600080fd5b806352d1902d116100b057806352d1902d1461012c57806354fd4d5014610154578063715018a61461016957600080fd5b806329b6eca9146100d75780632e1a7d4d146100f95780634f1ef28614610119575b600080fd5b3480156100e357600080fd5b506100f76100f2366004610b3c565b610274565b005b34801561010557600080fd5b506100f7610114366004610b57565b610369565b6100f7610127366004610b86565b6103fd565b34801561013857600080fd5b5061014161041c565b6040519081526020015b60405180910390f35b34801561016057600080fd5b50600054610141565b34801561017557600080fd5b506100f761044b565b34801561018a57600080fd5b506100f761045f565b34801561019f57600080fd5b507f9016d09d72d40fdae2fd8ceac6b6234c7706214fd39c1cd1e609a0528c199300546001600160a01b03165b6040516001600160a01b03909116815260200161014b565b3480156101f057600080fd5b50610215604051806040016040528060058152602001640352e302e360dc1b81525081565b60405161014b9190610c6c565b34801561022e57600080fd5b50600154610141565b6100f761057d565b34801561024b57600080fd5b506002546101cc565b34801561026057600080fd5b506100f761026f366004610b3c565b6105cf565b7ff0c57e16840df040f15088dc2f81fe391c3923bec73e23a9662efc9c229c6a00805460029190600160401b900460ff16806102be5750805467ffffffffffffffff808416911610155b156102dc5760405163f92ee8a960e01b815260040160405180910390fd5b805468ffffffffffffffffff191667ffffffffffffffff831617600160401b17815561030d6103083390565b610612565b60026000819055839055805468ff00000000000000001916815560405167ffffffffffffffff831681527fc7f505b2f371ae2175ee4913f4499e1f2633a7b5936321eed1cdaeb6115181d29060200160405180910390a1505050565b600254331461037757600080fd5b60015481111561039a57604051636a259e3160e11b815260040160405180910390fd5b806001540360015560008060008084335af1806103b657600080fd5b507f7084f5476618d8e60b11ef0d7d3f06914655adb8793e28ff7f018d4c76d505d533604080516001600160a01b039092168252602082018490520160405180910390a150565b610405610623565b61040e826106da565b61041882826106e2565b5050565b60006104266107b6565b507f360894a13ba1a3210667c828492db98dca3e2076cc3735a920a3ca505d382bbc90565b6104536107ff565b61045d600061085a565b565b7ff0c57e16840df040f15088dc2f81fe391c3923bec73e23a9662efc9c229c6a008054600160401b810460ff16159067ffffffffffffffff166000811580156104a55750825b905060008267ffffffffffffffff1660011480156104c25750303b155b9050811580156104d0575080155b156104ee5760405163f92ee8a960e01b815260040160405180910390fd5b845467ffffffffffffffff19166001178555831561051d57845468ff00000000000000001916600160401b1785555b61052633610612565b6001600055831561057657845468ff000000000000000019168555604051600181527fc7f505b2f371ae2175ee4913f4499e1f2633a7b5936321eed1cdaeb6115181d29060200160405180910390a15b5050505050565b34600154016001557f2da466a7b24304f47e87fa2e1e5a81b9831ce54fec19055ce277ca2f39ba42c46105ad3390565b604080516001600160a01b0390921682523460208301520160405180910390a1565b6105d76107ff565b6001600160a01b03811661060657604051631e4fbdf760e01b8152600060048201526024015b60405180910390fd5b61060f8161085a565b50565b61061a6108d8565b61060f81610921565b306001600160a01b037f00000000000000000000000000000000000000000000000000000000000000001614806106bc57507f00000000000000000000000000000000000000000000000000000000000000006001600160a01b03166106b07f360894a13ba1a3210667c828492db98dca3e2076cc3735a920a3ca505d382bbc546001600160a01b031690565b6001600160a01b031614155b1561045d5760405163703e46dd60e11b815260040160405180910390fd5b61060f6107ff565b816001600160a01b03166352d1902d6040518163ffffffff1660e01b8152600401602060405180830381865afa92505050801561073c575060408051601f3d908101601f1916820190925261073991810190610c9f565b60015b61076457604051634c9c8ce360e01b81526001600160a01b03831660048201526024016105fd565b7f360894a13ba1a3210667c828492db98dca3e2076cc3735a920a3ca505d382bbc81146107a757604051632a87526960e21b8152600481018290526024016105fd565b6107b18383610929565b505050565b306001600160a01b037f0000000000000000000000000000000000000000000000000000000000000000161461045d5760405163703e46dd60e11b815260040160405180910390fd5b336108317f9016d09d72d40fdae2fd8ceac6b6234c7706214fd39c1cd1e609a0528c199300546001600160a01b031690565b6001600160a01b03161461045d5760405163118cdaa760e01b81523360048201526024016105fd565b7f9016d09d72d40fdae2fd8ceac6b6234c7706214fd39c1cd1e609a0528c199300805473ffffffffffffffffffffffffffffffffffffffff1981166001600160a01b03848116918217845560405192169182907f8be0079c531659141344cd1fd0a4f28419497f9722a3daafe3b4186f6b6457e090600090a3505050565b7ff0c57e16840df040f15088dc2f81fe391c3923bec73e23a9662efc9c229c6a0054600160401b900460ff1661045d57604051631afcd79f60e31b815260040160405180910390fd5b6105d76108d8565b6109328261097f565b6040516001600160a01b038316907fbc7cd75a20ee27fd9adebab32041f755214dbc6bffa90cc0225b39da2e5c2d3b90600090a2805115610977576107b18282610a03565b610418610a79565b806001600160a01b03163b6000036109b557604051634c9c8ce360e01b81526001600160a01b03821660048201526024016105fd565b7f360894a13ba1a3210667c828492db98dca3e2076cc3735a920a3ca505d382bbc805473ffffffffffffffffffffffffffffffffffffffff19166001600160a01b0392909216919091179055565b6060600080846001600160a01b031684604051610a209190610cb8565b600060405180830381855af49150503d8060008114610a5b576040519150601f19603f3d011682016040523d82523d6000602084013e610a60565b606091505b5091509150610a70858383610a98565b95945050505050565b341561045d5760405163b398979f60e01b815260040160405180910390fd5b606082610aad57610aa882610af7565b610af0565b8151158015610ac457506001600160a01b0384163b155b15610aed57604051639996b31560e01b81526001600160a01b03851660048201526024016105fd565b50805b9392505050565b805115610b075780518082602001fd5b604051630a12f52160e11b815260040160405180910390fd5b80356001600160a01b0381168114610b3757600080fd5b919050565b600060208284031215610b4e57600080fd5b610af082610b20565b600060208284031215610b6957600080fd5b5035919050565b634e487b7160e01b600052604160045260246000fd5b60008060408385031215610b9957600080fd5b610ba283610b20565b9150602083013567ffffffffffffffff80821115610bbf57600080fd5b818501915085601f830112610bd357600080fd5b813581811115610be557610be5610b70565b604051601f8201601f19908116603f01168101908382118183101715610c0d57610c0d610b70565b81604052828152886020848701011115610c2657600080fd5b8260208601602083013760006020848301015280955050505050509250929050565b60005b83811015610c63578181015183820152602001610c4b565b50506000910152565b6020815260008251806020840152610c8b816040850160208701610c48565b601f01601f19169190910160400192915050565b600060208284031215610cb157600080fd5b5051919050565b60008251610cca818460208701610c48565b919091019291505056fea264697066735822122036039f79f6cb9af2552b0bbbf4125a1709012314880cbdcc3ca3a4c146d2bd9b64736f6c63430008170033",
  "linkReferences": {},
  "deployedLinkReferences": {}
}