{
  "_format": "hh-sol-artifact-1",
  "contractName": "Receiver",
  "sourceName": "contracts/multicaller/Receiver.sol",
  "abi": [
    {
      "anonymous": false,
      "inputs": [
        {
          "indexed": false,
          "internalType": "uint256",
          "name": "",
          "type": "uint256"
        }
      ],
      "name": "Counter",
      "type": "event"
    },
    {
      "stateMutability": "payable",
      "type": "fallback"
    },
    {
      "inputs": [],
      "name": "counter",
      "outputs": [
        {
          "internalType": "uint256",
          "name": "",
          "type": "uint256"
        }
      ],
      "stateMutability": "view",
      "type": "function"
    },
    {
      "inputs": [
        {
          "components": [
            {
              "internalType": "uint256",
              "name": "a",
              "type": "uint256"
            },
            {
              "internalType": "uint256",
              "name": "b",
              "type": "uint256"
            },
            {
              "internalType": "uint256",
              "name": "c",
              "type": "uint256"
            },
            {
              "internalType": "uint256",
              "name": "d",
              "type": "uint256"
            }
          ],
          "internalType": "struct Receiver.SomeData",
          "name": "longInput",
          "type": "tuple"
        }
      ],
      "name": "processLongInput",
      "outputs": [
        {
          "internalType": "uint256",
          "name": "result",
          "type": "uint256"
        }
      ],
      "stateMutability": "pure",
      "type": "function"
    },
    {
      "inputs": [
        {
          "components": [
            {
              "internalType": "uint256",
              "name": "a",
              "type": "uint256"
            },
            {
              "internalType": "uint256",
              "name": "b",
              "type": "uint256"
            },
            {
              "internalType": "uint256",
              "name": "c",
              "type": "uint256"
            },
            {
              "internalType": "uint256",
              "name": "d",
              "type": "uint256"
            }
          ],
          "internalType": "struct Receiver.SomeData",
          "name": "longInput",
          "type": "tuple"
        }
      ],
      "name": "processLongInputTx",
      "outputs": [
        {
          "internalType": "uint256",
          "name": "",
          "type": "uint256"
        }
      ],
      "stateMutability": "payable",
      "type": "function"
    },
    {
      "inputs": [
        {
          "internalType": "uint24",
          "name": "count",
          "type": "uint24"
        }
      ],
      "name": "processLongOutput",
      "outputs": [
        {
          "components": [
            {
              "internalType": "uint256",
              "name": "a",
              "type": "uint256"
            },
            {
              "internalType": "uint256",
              "name": "b",
              "type": "uint256"
            },
            {
              "internalType": "uint256",
              "name": "c",
              "type": "uint256"
            },
            {
              "internalType": "uint256",
              "name": "d",
              "type": "uint256"
            }
          ],
          "internalType": "struct Receiver.SomeData[]",
          "name": "",
          "type": "tuple[]"
        }
      ],
      "stateMutability": "pure",
      "type": "function"
    },
    {
      "inputs": [
        {
          "internalType": "uint24",
          "name": "count",
          "type": "uint24"
        }
      ],
      "name": "processLongOutputTx",
      "outputs": [
        {
          "components": [
            {
              "internalType": "uint256",
              "name": "a",
              "type": "uint256"
            },
            {
              "internalType": "uint256",
              "name": "b",
              "type": "uint256"
            },
            {
              "internalType": "uint256",
              "name": "c",
              "type": "uint256"
            },
            {
              "internalType": "uint256",
              "name": "d",
              "type": "uint256"
            }
          ],
          "internalType": "struct Receiver.SomeData[]",
          "name": "",
          "type": "tuple[]"
        }
      ],
      "stateMutability": "payable",
      "type": "function"
    },
    {
      "stateMutability": "payable",
      "type": "receive"
    }
  ],
  "bytecode": "0x60806040526000805534801561001457600080fd5b506103ee806100246000396000f3fe60806040526004361061004b5760003560e01c806307ce9e5a1461005457806361bc221a1461008a5780637c500ba7146100ae5780637dffb458146100c1578063d014b2d3146100e257005b3661005257005b005b34801561006057600080fd5b5061007461006f366004610277565b6100f5565b60405161008191906102a3565b60405180910390f35b34801561009657600080fd5b506100a060005481565b604051908152602001610081565b6100a06100bc36600461031d565b61017b565b3480156100cd57600080fd5b506100a06100dc36600461031d565b50600590565b6100746100f0366004610277565b61019d565b606060008262ffffff1667ffffffffffffffff81111561011757610117610307565b60405190808252806020026020018201604052801561017357816020015b6101606040518060800160405280600081526020016000815260200160008152602001600081525090565b8152602001906001900390816101355790505b509392505050565b6000600160008082825461018f9190610391565b909155505060005492915050565b606060016000808282546101b19190610391565b909155506000905062ffffff831667ffffffffffffffff8111156101d7576101d7610307565b60405190808252806020026020018201604052801561023357816020015b6102206040518060800160405280600081526020016000815260200160008152602001600081525090565b8152602001906001900390816101f55790505b5090507f06902210c1ce472150a3254f11d8d646daf303c7526a89857bda9e9a5f7b8fd360005460405161026991815260200190565b60405180910390a192915050565b60006020828403121561028957600080fd5b813562ffffff8116811461029c57600080fd5b9392505050565b602080825282518282018190526000919060409081850190868401855b828110156102fa578151805185528681015187860152858101518686015260609081015190850152608090930192908501906001016102c0565b5091979650505050505050565b634e487b7160e01b600052604160045260246000fd5b60006080828403121561032f57600080fd5b6040516080810181811067ffffffffffffffff8211171561036057634e487b7160e01b600052604160045260246000fd5b8060405250823581526020830135602082015260408301356040820152606083013560608201528091505092915050565b808201808211156103b257634e487b7160e01b600052601160045260246000fd5b9291505056fea26469706673582212209ef39915f0e41346f282abce7cda024616c7e7e1ae689f3005cbb154cfd919e464736f6c63430008170033",
  "linkReferences": {},
  "deployedLinkReferences": {}
}