{
  "_format": "hh-sol-artifact-1",
  "contractName": "Receiver",
  "sourceName": "contracts/multicaller/Receiver.sol",
  "abi": [
    {
      "anonymous": false,
      "inputs": [
        {
          "indexed": false,
          "internalType": "uint256",
          "name": "",
          "type": "uint256"
        }
      ],
      "name": "Counter",
      "type": "event"
    },
    {
      "stateMutability": "payable",
      "type": "fallback"
    },
    {
      "inputs": [],
      "name": "counter",
      "outputs": [
        {
          "internalType": "uint256",
          "name": "",
          "type": "uint256"
        }
      ],
      "stateMutability": "view",
      "type": "function"
    },
    {
      "inputs": [
        {
          "components": [
            {
              "internalType": "uint256",
              "name": "a",
              "type": "uint256"
            },
            {
              "internalType": "uint256",
              "name": "b",
              "type": "uint256"
            },
            {
              "internalType": "uint256",
              "name": "c",
              "type": "uint256"
            },
            {
              "internalType": "uint256",
              "name": "d",
              "type": "uint256"
            }
          ],
          "internalType": "struct Receiver.SomeData",
          "name": "longInput",
          "type": "tuple"
        }
      ],
      "name": "processLongInput",
      "outputs": [
        {
          "internalType": "uint256",
          "name": "result",
          "type": "uint256"
        }
      ],
      "stateMutability": "pure",
      "type": "function"
    },
    {
      "inputs": [
        {
          "components": [
            {
              "internalType": "uint256",
              "name": "a",
              "type": "uint256"
            },
            {
              "internalType": "uint256",
              "name": "b",
              "type": "uint256"
            },
            {
              "internalType": "uint256",
              "name": "c",
              "type": "uint256"
            },
            {
              "internalType": "uint256",
              "name": "d",
              "type": "uint256"
            }
          ],
          "internalType": "struct Receiver.SomeData",
          "name": "longInput",
          "type": "tuple"
        }
      ],
      "name": "processLongInputTx",
      "outputs": [
        {
          "internalType": "uint256",
          "name": "",
          "type": "uint256"
        }
      ],
      "stateMutability": "payable",
      "type": "function"
    },
    {
      "inputs": [
        {
          "internalType": "uint24",
          "name": "count",
          "type": "uint24"
        }
      ],
      "name": "processLongOutput",
      "outputs": [
        {
          "components": [
            {
              "internalType": "uint256",
              "name": "a",
              "type": "uint256"
            },
            {
              "internalType": "uint256",
              "name": "b",
              "type": "uint256"
            },
            {
              "internalType": "uint256",
              "name": "c",
              "type": "uint256"
            },
            {
              "internalType": "uint256",
              "name": "d",
              "type": "uint256"
            }
          ],
          "internalType": "struct Receiver.SomeData[]",
          "name": "",
          "type": "tuple[]"
        }
      ],
      "stateMutability": "pure",
      "type": "function"
    },
    {
      "inputs": [
        {
          "internalType": "uint24",
          "name": "count",
          "type": "uint24"
        }
      ],
      "name": "processLongOutputTx",
      "outputs": [
        {
          "components": [
            {
              "internalType": "uint256",
              "name": "a",
              "type": "uint256"
            },
            {
              "internalType": "uint256",
              "name": "b",
              "type": "uint256"
            },
            {
              "internalType": "uint256",
              "name": "c",
              "type": "uint256"
            },
            {
              "internalType": "uint256",
              "name": "d",
              "type": "uint256"
            }
          ],
          "internalType": "struct Receiver.SomeData[]",
          "name": "",
          "type": "tuple[]"
        }
      ],
      "stateMutability": "payable",
      "type": "function"
    },
    {
      "stateMutability": "payable",
      "type": "receive"
    }
  ],
  "bytecode": "0x60806040525f8055348015610012575f80fd5b506103ce806100205f395ff3fe60806040526004361061004a575f3560e01c806307ce9e5a1461005357806361bc221a146100885780637c500ba7146100aa5780637dffb458146100bd578063d014b2d3146100dd57005b3661005157005b005b34801561005e575f80fd5b5061007261006d366004610263565b6100f0565b60405161007f919061028c565b60405180910390f35b348015610093575f80fd5b5061009c5f5481565b60405190815260200161007f565b61009c6100b8366004610303565b610171565b3480156100c8575f80fd5b5061009c6100d7366004610303565b50600590565b6100726100eb366004610263565b610190565b60605f8262ffffff1667ffffffffffffffff811115610111576101116102ef565b60405190808252806020026020018201604052801561016957816020015b61015660405180608001604052805f81526020015f81526020015f81526020015f81525090565b81526020019060019003908161012f5790505b509392505050565b5f60015f808282546101839190610373565b90915550505f5492915050565b606060015f808282546101a39190610373565b909155505f905062ffffff831667ffffffffffffffff8111156101c8576101c86102ef565b60405190808252806020026020018201604052801561022057816020015b61020d60405180608001604052805f81526020015f81526020015f81526020015f81525090565b8152602001906001900390816101e65790505b5090507f06902210c1ce472150a3254f11d8d646daf303c7526a89857bda9e9a5f7b8fd35f5460405161025591815260200190565b60405180910390a192915050565b5f60208284031215610273575f80fd5b813562ffffff81168114610285575f80fd5b9392505050565b602080825282518282018190525f919060409081850190868401855b828110156102e2578151805185528681015187860152858101518686015260609081015190850152608090930192908501906001016102a8565b5091979650505050505050565b634e487b7160e01b5f52604160045260245ffd5b5f60808284031215610313575f80fd5b6040516080810181811067ffffffffffffffff8211171561034257634e487b7160e01b5f52604160045260245ffd5b8060405250823581526020830135602082015260408301356040820152606083013560608201528091505092915050565b8082018082111561039257634e487b7160e01b5f52601160045260245ffd5b9291505056fea2646970667358221220a7d61f4da9562d5151314705c470000d30ea1e495e341a6be807f2907eb54e5264736f6c63430008140033",
  "linkReferences": {},
  "deployedLinkReferences": {}
}