{
  "_format": "hh-sol-artifact-1",
  "contractName": "MulticallTest",
  "sourceName": "contracts/openzeppelin/multicall/MulticallTest.sol",
  "abi": [
    {
      "inputs": [
        {
          "internalType": "address",
          "name": "target",
          "type": "address"
        }
      ],
      "name": "AddressEmptyCode",
      "type": "error"
    },
    {
      "inputs": [],
      "name": "FailedInnerCall",
      "type": "error"
    },
    {
      "inputs": [],
      "name": "bar",
      "outputs": [
        {
          "internalType": "uint256",
          "name": "",
          "type": "uint256"
        }
      ],
      "stateMutability": "pure",
      "type": "function"
    },
    {
      "inputs": [],
      "name": "foo",
      "outputs": [
        {
          "internalType": "uint256",
          "name": "",
          "type": "uint256"
        }
      ],
      "stateMutability": "pure",
      "type": "function"
    },
    {
      "inputs": [
        {
          "internalType": "bytes[]",
          "name": "data",
          "type": "bytes[]"
        }
      ],
      "name": "multicall",
      "outputs": [
        {
          "internalType": "bytes[]",
          "name": "results",
          "type": "bytes[]"
        }
      ],
      "stateMutability": "nonpayable",
      "type": "function"
    }
  ],
  "bytecode": "0x608060405234801561001057600080fd5b50610453806100206000396000f3fe608060405234801561001057600080fd5b50600436106100415760003560e01c8063ac9650d814610046578063c29855781461006f578063febb0f7e14610080575b600080fd5b610059610054366004610274565b610088565b604051610066919061030d565b60405180910390f35b607b5b604051908152602001610066565b6101c8610072565b60608167ffffffffffffffff8111156100a3576100a3610387565b6040519080825280602002602001820160405280156100d657816020015b60608152602001906001900390816100c15790505b50905060005b8281101561016b57610146308585848181106100fa576100fa61039d565b905060200281019061010c91906103b3565b8080601f01602080910402602001604051908101604052809392919081815260200183838082843760009201919091525061017292505050565b8282815181106101585761015861039d565b60209081029190910101526001016100dc565b5092915050565b6060600080846001600160a01b03168460405161018f9190610401565b600060405180830381855af49150503d80600081146101ca576040519150601f19603f3d011682016040523d82523d6000602084013e6101cf565b606091505b50915091506101df8583836101e8565b95945050505050565b6060826101fd576101f88261024b565b610244565b815115801561021457506001600160a01b0384163b155b1561024157604051639996b31560e01b81526001600160a01b038516600482015260240160405180910390fd5b50805b9392505050565b80511561025b5780518082602001fd5b604051630a12f52160e11b815260040160405180910390fd5b6000806020838503121561028757600080fd5b823567ffffffffffffffff8082111561029f57600080fd5b818501915085601f8301126102b357600080fd5b8135818111156102c257600080fd5b8660208260051b85010111156102d757600080fd5b60209290920196919550909350505050565b60005b838110156103045781810151838201526020016102ec565b50506000910152565b6000602080830181845280855180835260408601915060408160051b870101925083870160005b8281101561037a57878503603f190184528151805180875261035b818989018a85016102e9565b601f01601f191695909501860194509285019290850190600101610334565b5092979650505050505050565b634e487b7160e01b600052604160045260246000fd5b634e487b7160e01b600052603260045260246000fd5b6000808335601e198436030181126103ca57600080fd5b83018035915067ffffffffffffffff8211156103e557600080fd5b6020019150368190038213156103fa57600080fd5b9250929050565b600082516104138184602087016102e9565b919091019291505056fea26469706673582212206d73fee9feab20b49a345e95ccad82b016d653f3fbe3d2b4117dcebf75503fc364736f6c63430008170033",
  "linkReferences": {},
  "deployedLinkReferences": {}
}