{
  "_format": "hh-sol-artifact-1",
  "contractName": "CancelAirdrop",
  "sourceName": "contracts/system-contracts/hedera-token-service/examples/hrc-904/CancelAirdrop.sol",
  "abi": [
    {
      "anonymous": false,
      "inputs": [
        {
          "indexed": false,
          "internalType": "bool",
          "name": "",
          "type": "bool"
        },
        {
          "indexed": false,
          "internalType": "bytes",
          "name": "",
          "type": "bytes"
        }
      ],
      "name": "CallResponseEvent",
      "type": "event"
    },
    {
      "inputs": [
        {
          "internalType": "address",
          "name": "sender",
          "type": "address"
        },
        {
          "internalType": "address",
          "name": "receiver",
          "type": "address"
        },
        {
          "internalType": "address",
          "name": "token",
          "type": "address"
        }
      ],
      "name": "cancelAirdrop",
      "outputs": [
        {
          "internalType": "int64",
          "name": "responseCode",
          "type": "int64"
        }
      ],
      "stateMutability": "nonpayable",
      "type": "function"
    },
    {
      "inputs": [
        {
          "internalType": "address[]",
          "name": "senders",
          "type": "address[]"
        },
        {
          "internalType": "address[]",
          "name": "receivers",
          "type": "address[]"
        },
        {
          "internalType": "address[]",
          "name": "tokens",
          "type": "address[]"
        },
        {
          "internalType": "int64[]",
          "name": "serials",
          "type": "int64[]"
        }
      ],
      "name": "cancelMultipleAirdrops",
      "outputs": [
        {
          "internalType": "int64",
          "name": "responseCode",
          "type": "int64"
        }
      ],
      "stateMutability": "nonpayable",
      "type": "function"
    },
    {
      "inputs": [
        {
          "internalType": "address",
          "name": "sender",
          "type": "address"
        },
        {
          "internalType": "address",
          "name": "receiver",
          "type": "address"
        },
        {
          "internalType": "address",
          "name": "token",
          "type": "address"
        },
        {
          "internalType": "int64",
          "name": "serial",
          "type": "int64"
        }
      ],
      "name": "cancelNFTAirdrop",
      "outputs": [
        {
          "internalType": "int64",
          "name": "responseCode",
          "type": "int64"
        }
      ],
      "stateMutability": "nonpayable",
      "type": "function"
    },
    {
      "inputs": [
        {
          "internalType": "address",
          "name": "token",
          "type": "address"
        },
        {
          "internalType": "bytes",
          "name": "encodedFunctionSelector",
          "type": "bytes"
        }
      ],
      "name": "redirectForToken",
      "outputs": [
        {
          "internalType": "int256",
          "name": "responseCode",
          "type": "int256"
        },
        {
          "internalType": "bytes",
          "name": "response",
          "type": "bytes"
        }
      ],
      "stateMutability": "nonpayable",
      "type": "function"
    },
    {
      "inputs": [
        {
          "internalType": "address",
          "name": "token",
          "type": "address"
        },
        {
          "internalType": "address",
          "name": "from",
          "type": "address"
        },
        {
          "internalType": "address",
          "name": "to",
          "type": "address"
        },
        {
          "internalType": "uint256",
          "name": "amount",
          "type": "uint256"
        }
      ],
      "name": "transferFrom",
      "outputs": [
        {
          "internalType": "int64",
          "name": "responseCode",
          "type": "int64"
        }
      ],
      "stateMutability": "nonpayable",
      "type": "function"
    },
    {
      "inputs": [
        {
          "internalType": "address",
          "name": "token",
          "type": "address"
        },
        {
          "internalType": "address",
          "name": "from",
          "type": "address"
        },
        {
          "internalType": "address",
          "name": "to",
          "type": "address"
        },
        {
          "internalType": "uint256",
          "name": "serialNumber",
          "type": "uint256"
        }
      ],
      "name": "transferFromNFT",
      "outputs": [
        {
          "internalType": "int64",
          "name": "responseCode",
          "type": "int64"
        }
      ],
      "stateMutability": "nonpayable",
      "type": "function"
    }
  ],
  "bytecode": "0x608060405234801561000f575f80fd5b50610c4d8061001d5f395ff3fe608060405234801561000f575f80fd5b506004361061006f575f3560e01c80637e5fb7dc1161004d5780637e5fb7dc146100d25780638f68e13c146100e55780639b23d3d9146100f8575f80fd5b806304e74b561461007357806315dacbea1461009e578063618dc65e146100b1575b5f80fd5b610086610081366004610742565b61010b565b60405160079190910b81526020015b60405180910390f35b6100866100ac366004610782565b6101ca565b6100c46100bf36600461080f565b6102b9565b6040516100959291906108fc565b6100866100e03660046109c3565b6103d0565b6100866100f3366004610ac1565b610567565b610086610106366004610782565b61060f565b6040805160018082528183019092525f91829190816020015b604080516080810182525f8082526020808301829052928201819052606082015282525f19909201910181610124575050604080516080810182525f606082018190526001600160a01b03898116835288811660208401528716928201929092528251929350918291849161019b5761019b610b12565b60200260200101819052506101af82610653565b9250600783900b6016146101c1575f80fd5b50509392505050565b6040516001600160a01b038581166024830152848116604483015283166064820152608481018290525f908190819061016790630aed65f560e11b9060a4015b60408051601f198184030181529181526020820180516001600160e01b03166001600160e01b03199094169390931790925290516102489190610b26565b5f604051808303815f865af19150503d805f8114610281576040519150601f19603f3d011682016040523d82523d5f602084013e610286565b606091505b5091509150816102975760156102ab565b808060200190518101906102ab9190610b41565b60030b979650505050505050565b5f60605f806101676001600160a01b031663618dc65e60e01b87876040516024016102e5929190610b68565b60408051601f198184030181529181526020820180516001600160e01b03166001600160e01b03199094169390931790925290516103239190610b26565b5f604051808303815f865af19150503d805f811461035c576040519150601f19603f3d011682016040523d82523d5f602084013e610361565b606091505b50915091507f4af4780e06fe8cb9df64b0794fa6f01399af979175bb988e35e0e57e594567bc8282604051610397929190610b89565b60405180910390a1816103ba57601560405180602001604052805f8152506103be565b6016815b60039190910b97909650945050505050565b83515f90818167ffffffffffffffff8111156103ee576103ee6107ca565b60405190808252806020026020018201604052801561043e57816020015b604080516080810182525f8082526020808301829052928201819052606082015282525f1990920191018161040c5790505b5090505f5b8281101561054157604080516080810182525f80825260208201819052918101829052606081019190915288828151811061048057610480610b12565b60209081029190910101516001600160a01b0316815287518890839081106104aa576104aa610b12565b6020908102919091018101516001600160a01b03169082015286518790839081106104d7576104d7610b12565b60209081029190910101516001600160a01b03166040820152855186908390811061050457610504610b12565b602090810291909101015160070b60608201528251819084908490811061052d5761052d610b12565b602090810291909101015250600101610443565b5061054b81610653565b9250600783900b60161461055d575f80fd5b5050949350505050565b6040805160018082528183019092525f91829190816020015b604080516080810182525f8082526020808301829052928201819052606082015282525f19909201910181610580575050604080516080810182526001600160a01b0389811682528881166020830152871691810191909152600785900b6060820152815191925090819083905f906105fb576105fb610b12565b602002602001018190525061054b82610653565b6040516001600160a01b038581166024830152848116604483015283166064820152608481018290525f908190819061016790639b23d3d960e01b9060a40161020a565b5f805f6101676001600160a01b031663012ebcaf60e01b8560405160240161067b9190610ba3565b60408051601f198184030181529181526020820180516001600160e01b03166001600160e01b03199094169390931790925290516106b99190610b26565b5f604051808303815f865af19150503d805f81146106f2576040519150601f19603f3d011682016040523d82523d5f602084013e6106f7565b606091505b50915091508161070857601561071c565b8080602001905181019061071c9190610b41565b60030b949350505050565b80356001600160a01b038116811461073d575f80fd5b919050565b5f805f60608486031215610754575f80fd5b61075d84610727565b925061076b60208501610727565b915061077960408501610727565b90509250925092565b5f805f8060808587031215610795575f80fd5b61079e85610727565b93506107ac60208601610727565b92506107ba60408601610727565b9396929550929360600135925050565b634e487b7160e01b5f52604160045260245ffd5b604051601f8201601f1916810167ffffffffffffffff81118282101715610807576108076107ca565b604052919050565b5f8060408385031215610820575f80fd5b61082983610727565b915060208084013567ffffffffffffffff80821115610846575f80fd5b818601915086601f830112610859575f80fd5b81358181111561086b5761086b6107ca565b61087d601f8201601f191685016107de565b91508082528784828501011115610892575f80fd5b80848401858401375f848284010152508093505050509250929050565b5f5b838110156108c95781810151838201526020016108b1565b50505f910152565b5f81518084526108e88160208601602086016108af565b601f01601f19169290920160200192915050565b828152604060208201525f61091460408301846108d1565b949350505050565b5f67ffffffffffffffff821115610935576109356107ca565b5060051b60200190565b5f82601f83011261094e575f80fd5b8135602061096361095e8361091c565b6107de565b8083825260208201915060208460051b870101935086841115610984575f80fd5b602086015b848110156109a75761099a81610727565b8352918301918301610989565b509695505050505050565b8035600781900b811461073d575f80fd5b5f805f80608085870312156109d6575f80fd5b843567ffffffffffffffff808211156109ed575f80fd5b6109f98883890161093f565b9550602091508187013581811115610a0f575f80fd5b610a1b89828a0161093f565b955050604087013581811115610a2f575f80fd5b610a3b89828a0161093f565b945050606087013581811115610a4f575f80fd5b87019050601f81018813610a61575f80fd5b8035610a6f61095e8261091c565b81815260059190911b8201830190838101908a831115610a8d575f80fd5b928401925b82841015610ab257610aa3846109b2565b82529284019290840190610a92565b979a9699509497505050505050565b5f805f8060808587031215610ad4575f80fd5b610add85610727565b9350610aeb60208601610727565b9250610af960408601610727565b9150610b07606086016109b2565b905092959194509250565b634e487b7160e01b5f52603260045260245ffd5b5f8251610b378184602087016108af565b9190910192915050565b5f60208284031215610b51575f80fd5b81518060030b8114610b61575f80fd5b9392505050565b6001600160a01b0383168152604060208201525f61091460408301846108d1565b8215158152604060208201525f61091460408301846108d1565b602080825282518282018190525f919060409081850190868401855b82811015610c0a57815180516001600160a01b0390811686528782015181168887015286820151168686015260609081015160070b9085015260809093019290850190600101610bbf565b509197965050505050505056fea2646970667358221220f1a1f12b097858c4cc8e88d72e780efebeaca5729e9bf087780b4700756d2a9764736f6c63430008180033",
  "linkReferences": {},
  "deployedLinkReferences": {}
}