{
  "_format": "hh-sol-artifact-1",
  "contractName": "VestingWallet",
  "sourceName": "contracts/openzeppelin/finance/VestingWallet.sol",
  "abi": [
    {
      "inputs": [
        {
          "internalType": "address",
          "name": "beneficiary",
          "type": "address"
        },
        {
          "internalType": "uint64",
          "name": "startTimestamp",
          "type": "uint64"
        },
        {
          "internalType": "uint64",
          "name": "durationSeconds",
          "type": "uint64"
        }
      ],
      "stateMutability": "payable",
      "type": "constructor"
    },
    {
      "inputs": [
        {
          "internalType": "address",
          "name": "target",
          "type": "address"
        }
      ],
      "name": "AddressEmptyCode",
      "type": "error"
    },
    {
      "inputs": [
        {
          "internalType": "address",
          "name": "account",
          "type": "address"
        }
      ],
      "name": "AddressInsufficientBalance",
      "type": "error"
    },
    {
      "inputs": [],
      "name": "FailedInnerCall",
      "type": "error"
    },
    {
      "inputs": [
        {
          "internalType": "address",
          "name": "owner",
          "type": "address"
        }
      ],
      "name": "OwnableInvalidOwner",
      "type": "error"
    },
    {
      "inputs": [
        {
          "internalType": "address",
          "name": "account",
          "type": "address"
        }
      ],
      "name": "OwnableUnauthorizedAccount",
      "type": "error"
    },
    {
      "inputs": [
        {
          "internalType": "address",
          "name": "token",
          "type": "address"
        }
      ],
      "name": "SafeERC20FailedOperation",
      "type": "error"
    },
    {
      "anonymous": false,
      "inputs": [
        {
          "indexed": false,
          "internalType": "address",
          "name": "receiver",
          "type": "address"
        },
        {
          "indexed": true,
          "internalType": "address",
          "name": "token",
          "type": "address"
        },
        {
          "indexed": false,
          "internalType": "uint256",
          "name": "amount",
          "type": "uint256"
        }
      ],
      "name": "ERC20Released",
      "type": "event"
    },
    {
      "anonymous": false,
      "inputs": [
        {
          "indexed": false,
          "internalType": "address",
          "name": "receiver",
          "type": "address"
        },
        {
          "indexed": false,
          "internalType": "uint256",
          "name": "amount",
          "type": "uint256"
        }
      ],
      "name": "HbarReleased",
      "type": "event"
    },
    {
      "anonymous": false,
      "inputs": [
        {
          "indexed": true,
          "internalType": "address",
          "name": "previousOwner",
          "type": "address"
        },
        {
          "indexed": true,
          "internalType": "address",
          "name": "newOwner",
          "type": "address"
        }
      ],
      "name": "OwnershipTransferred",
      "type": "event"
    },
    {
      "inputs": [],
      "name": "duration",
      "outputs": [
        {
          "internalType": "uint256",
          "name": "",
          "type": "uint256"
        }
      ],
      "stateMutability": "view",
      "type": "function"
    },
    {
      "inputs": [],
      "name": "end",
      "outputs": [
        {
          "internalType": "uint256",
          "name": "",
          "type": "uint256"
        }
      ],
      "stateMutability": "view",
      "type": "function"
    },
    {
      "inputs": [],
      "name": "getCurrentTimestamp",
      "outputs": [
        {
          "internalType": "uint256",
          "name": "timestamp",
          "type": "uint256"
        }
      ],
      "stateMutability": "view",
      "type": "function"
    },
    {
      "inputs": [],
      "name": "owner",
      "outputs": [
        {
          "internalType": "address",
          "name": "",
          "type": "address"
        }
      ],
      "stateMutability": "view",
      "type": "function"
    },
    {
      "inputs": [
        {
          "internalType": "address",
          "name": "token",
          "type": "address"
        }
      ],
      "name": "releasable",
      "outputs": [
        {
          "internalType": "uint256",
          "name": "",
          "type": "uint256"
        }
      ],
      "stateMutability": "view",
      "type": "function"
    },
    {
      "inputs": [],
      "name": "releasable",
      "outputs": [
        {
          "internalType": "uint256",
          "name": "",
          "type": "uint256"
        }
      ],
      "stateMutability": "view",
      "type": "function"
    },
    {
      "inputs": [
        {
          "internalType": "address",
          "name": "token",
          "type": "address"
        }
      ],
      "name": "release",
      "outputs": [],
      "stateMutability": "nonpayable",
      "type": "function"
    },
    {
      "inputs": [],
      "name": "release",
      "outputs": [],
      "stateMutability": "nonpayable",
      "type": "function"
    },
    {
      "inputs": [],
      "name": "released",
      "outputs": [
        {
          "internalType": "uint256",
          "name": "",
          "type": "uint256"
        }
      ],
      "stateMutability": "view",
      "type": "function"
    },
    {
      "inputs": [
        {
          "internalType": "address",
          "name": "token",
          "type": "address"
        }
      ],
      "name": "released",
      "outputs": [
        {
          "internalType": "uint256",
          "name": "",
          "type": "uint256"
        }
      ],
      "stateMutability": "view",
      "type": "function"
    },
    {
      "inputs": [],
      "name": "renounceOwnership",
      "outputs": [],
      "stateMutability": "nonpayable",
      "type": "function"
    },
    {
      "inputs": [],
      "name": "start",
      "outputs": [
        {
          "internalType": "uint256",
          "name": "",
          "type": "uint256"
        }
      ],
      "stateMutability": "view",
      "type": "function"
    },
    {
      "inputs": [
        {
          "internalType": "address",
          "name": "newOwner",
          "type": "address"
        }
      ],
      "name": "transferOwnership",
      "outputs": [],
      "stateMutability": "nonpayable",
      "type": "function"
    },
    {
      "inputs": [
        {
          "internalType": "uint64",
          "name": "timestamp",
          "type": "uint64"
        }
      ],
      "name": "vestedAmount",
      "outputs": [
        {
          "internalType": "uint256",
          "name": "",
          "type": "uint256"
        }
      ],
      "stateMutability": "view",
      "type": "function"
    },
    {
      "inputs": [
        {
          "internalType": "address",
          "name": "token",
          "type": "address"
        },
        {
          "internalType": "uint64",
          "name": "timestamp",
          "type": "uint64"
        }
      ],
      "name": "vestedAmount",
      "outputs": [
        {
          "internalType": "uint256",
          "name": "",
          "type": "uint256"
        }
      ],
      "stateMutability": "view",
      "type": "function"
    },
    {
      "stateMutability": "payable",
      "type": "receive"
    }
  ],
  "bytecode": "0x60c0604052604051610d0e380380610d0e833981016040819052610022916100df565b826001600160a01b03811661005157604051631e4fbdf760e01b81526000600482015260240160405180910390fd5b61005a81610073565b506001600160401b039182166080521660a05250610130565b600080546001600160a01b038381166001600160a01b0319831681178455604051919092169283917f8be0079c531659141344cd1fd0a4f28419497f9722a3daafe3b4186f6b6457e09190a35050565b80516001600160401b03811681146100da57600080fd5b919050565b6000806000606084860312156100f457600080fd5b83516001600160a01b038116811461010b57600080fd5b9250610119602085016100c3565b9150610127604085016100c3565b90509250925092565b60805160a051610b966101786000396000818161013a01528181610557015261066a0152600081816102890152818161057b0152818161060701526106950152610b966000f3fe6080604052600436106100ec5760003560e01c80638da5cb5b1161008a578063be9a655511610059578063be9a65551461027a578063efbe1c1c146102b7578063f2fde38b146102cc578063fbccedae146102ec57600080fd5b80638da5cb5b146101e7578063961325211461020f5780639852595c14610224578063a3f8eace1461025a57600080fd5b80636c9230db116100c65780636c9230db1461018a578063715018a61461019d578063810ec23b146101b257806386d1a69f146101d257600080fd5b80630a17b06b146100f85780630fb5a6b41461012b578063191655871461016857600080fd5b366100f357005b600080fd5b34801561010457600080fd5b50610118610113366004610a01565b610301565b6040519081526020015b60405180910390f35b34801561013757600080fd5b507f000000000000000000000000000000000000000000000000000000000000000067ffffffffffffffff16610118565b34801561017457600080fd5b50610188610183366004610a33565b610325565b005b34801561019657600080fd5b5042610118565b3480156101a957600080fd5b506101886103e0565b3480156101be57600080fd5b506101186101cd366004610a4e565b6103f4565b3480156101de57600080fd5b5061018861048a565b3480156101f357600080fd5b506000546040516001600160a01b039091168152602001610122565b34801561021b57600080fd5b50600154610118565b34801561023057600080fd5b5061011861023f366004610a33565b6001600160a01b031660009081526002602052604090205490565b34801561026657600080fd5b50610118610275366004610a33565b61051a565b34801561028657600080fd5b507f000000000000000000000000000000000000000000000000000000000000000067ffffffffffffffff16610118565b3480156102c357600080fd5b50610118610547565b3480156102d857600080fd5b506101886102e7366004610a33565b6105a5565b3480156102f857600080fd5b506101186105e5565b600061031f61030f60015490565b6103199047610a97565b83610603565b92915050565b60006103308261051a565b6001600160a01b03831660009081526002602052604081208054929350839290919061035d908490610a97565b90915550506001600160a01b0382167f1998e30db89daf293a52c4fc4c4470cd506aafc3f9683e8e5daddad80cd6f4a461039f6000546001600160a01b031690565b604080516001600160a01b039092168252602082018590520160405180910390a26103dc826103d66000546001600160a01b031690565b836106ed565b5050565b6103e8610759565b6103f26000610786565b565b6001600160a01b038216600090815260026020526040812054610483906040516370a0823160e01b81523060048201526001600160a01b038616906370a0823190602401602060405180830381865afa158015610455573d6000803e3d6000fd5b505050506040513d601f19601f820116820180604052508101906104799190610aaa565b6103199190610a97565b9392505050565b60006104946105e5565b905080600160008282546104a89190610a97565b90915550506000547f26108200f61670a2e7156b9fd3e5e20126840586ad1d994b06f4ed80ef2a1d04906001600160a01b0316604080516001600160a01b039092168252602082018490520160405180910390a16105176105116000546001600160a01b031690565b826107e3565b50565b6001600160a01b03811660009081526002602052604081205461053d83426103f4565b61031f9190610ac3565b60006105a067ffffffffffffffff7f00000000000000000000000000000000000000000000000000000000000000008116907f000000000000000000000000000000000000000000000000000000000000000016610a97565b905090565b6105ad610759565b6001600160a01b0381166105dc57604051631e4fbdf760e01b8152600060048201526024015b60405180910390fd5b61051781610786565b60006105f060015490565b6105f942610301565b6105a09190610ac3565b60007f000000000000000000000000000000000000000000000000000000000000000067ffffffffffffffff168267ffffffffffffffff1610156106495750600061031f565b610651610547565b8267ffffffffffffffff161061066857508161031f565b7f000000000000000000000000000000000000000000000000000000000000000067ffffffffffffffff167f000000000000000000000000000000000000000000000000000000000000000067ffffffffffffffff166106d29067ffffffffffffffff8516610ac3565b6106dc9085610ad6565b6106e69190610aed565b905061031f565b604080516001600160a01b038416602482015260448082018490528251808303909101815260649091019091526020810180517bffffffffffffffffffffffffffffffffffffffffffffffffffffffff1663a9059cbb60e01b17905261075490849061087a565b505050565b6000546001600160a01b031633146103f25760405163118cdaa760e01b81523360048201526024016105d3565b600080546001600160a01b0383811673ffffffffffffffffffffffffffffffffffffffff19831681178455604051919092169283917f8be0079c531659141344cd1fd0a4f28419497f9722a3daafe3b4186f6b6457e09190a35050565b804710156108065760405163cd78605960e01b81523060048201526024016105d3565b6000826001600160a01b03168260405160006040518083038185875af1925050503d8060008114610853576040519150601f19603f3d011682016040523d82523d6000602084013e610858565b606091505b505090508061075457604051630a12f52160e11b815260040160405180910390fd5b600061088f6001600160a01b038416836108dd565b905080516000141580156108b45750808060200190518101906108b29190610b0f565b155b1561075457604051635274afe760e01b81526001600160a01b03841660048201526024016105d3565b60606104838383600084600080856001600160a01b031684866040516109039190610b31565b60006040518083038185875af1925050503d8060008114610940576040519150601f19603f3d011682016040523d82523d6000602084013e610945565b606091505b509150915061095586838361095f565b9695505050505050565b6060826109745761096f826109bb565b610483565b815115801561098b57506001600160a01b0384163b155b156109b457604051639996b31560e01b81526001600160a01b03851660048201526024016105d3565b5080610483565b8051156109cb5780518082602001fd5b604051630a12f52160e11b815260040160405180910390fd5b803567ffffffffffffffff811681146109fc57600080fd5b919050565b600060208284031215610a1357600080fd5b610483826109e4565b80356001600160a01b03811681146109fc57600080fd5b600060208284031215610a4557600080fd5b61048382610a1c565b60008060408385031215610a6157600080fd5b610a6a83610a1c565b9150610a78602084016109e4565b90509250929050565b634e487b7160e01b600052601160045260246000fd5b8082018082111561031f5761031f610a81565b600060208284031215610abc57600080fd5b5051919050565b8181038181111561031f5761031f610a81565b808202811582820484141761031f5761031f610a81565b600082610b0a57634e487b7160e01b600052601260045260246000fd5b500490565b600060208284031215610b2157600080fd5b8151801515811461048357600080fd5b6000825160005b81811015610b525760208186018101518583015201610b38565b50600092019182525091905056fea2646970667358221220458801bd27dc886a5ec3c3ece12729bc7c40ab1201b605514159821ac0cb816864736f6c63430008170033",
  "linkReferences": {},
  "deployedLinkReferences": {}
}