{
  "_format": "hh-sol-artifact-1",
  "contractName": "ERC20Contract",
  "sourceName": "contracts/hts-precompile/examples/erc-20/ERC20Contract.sol",
  "abi": [
    {
      "inputs": [
        {
          "internalType": "address",
          "name": "token",
          "type": "address"
        },
        {
          "internalType": "address",
          "name": "owner",
          "type": "address"
        },
        {
          "internalType": "address",
          "name": "spender",
          "type": "address"
        }
      ],
      "name": "allowance",
      "outputs": [
        {
          "internalType": "uint256",
          "name": "",
          "type": "uint256"
        }
      ],
      "stateMutability": "view",
      "type": "function"
    },
    {
      "inputs": [
        {
          "internalType": "address",
          "name": "token",
          "type": "address"
        },
        {
          "internalType": "address",
          "name": "spender",
          "type": "address"
        },
        {
          "internalType": "uint256",
          "name": "amount",
          "type": "uint256"
        }
      ],
      "name": "approve",
      "outputs": [
        {
          "internalType": "bool",
          "name": "",
          "type": "bool"
        }
      ],
      "stateMutability": "nonpayable",
      "type": "function"
    },
    {
      "inputs": [
        {
          "internalType": "address",
          "name": "token",
          "type": "address"
        },
        {
          "internalType": "address",
          "name": "account",
          "type": "address"
        }
      ],
      "name": "balanceOf",
      "outputs": [
        {
          "internalType": "uint256",
          "name": "",
          "type": "uint256"
        }
      ],
      "stateMutability": "view",
      "type": "function"
    },
    {
      "inputs": [
        {
          "internalType": "address",
          "name": "token",
          "type": "address"
        }
      ],
      "name": "decimals",
      "outputs": [
        {
          "internalType": "uint8",
          "name": "",
          "type": "uint8"
        }
      ],
      "stateMutability": "view",
      "type": "function"
    },
    {
      "inputs": [
        {
          "internalType": "address",
          "name": "token",
          "type": "address"
        },
        {
          "internalType": "address",
          "name": "recipient",
          "type": "address"
        },
        {
          "internalType": "uint256",
          "name": "amount",
          "type": "uint256"
        }
      ],
      "name": "delegateApprove",
      "outputs": [],
      "stateMutability": "nonpayable",
      "type": "function"
    },
    {
      "inputs": [
        {
          "internalType": "address",
          "name": "token",
          "type": "address"
        },
        {
          "internalType": "address",
          "name": "recipient",
          "type": "address"
        },
        {
          "internalType": "uint256",
          "name": "amount",
          "type": "uint256"
        }
      ],
      "name": "delegateTransfer",
      "outputs": [],
      "stateMutability": "nonpayable",
      "type": "function"
    },
    {
      "inputs": [
        {
          "internalType": "address",
          "name": "token",
          "type": "address"
        },
        {
          "internalType": "address",
          "name": "from",
          "type": "address"
        },
        {
          "internalType": "address",
          "name": "to",
          "type": "address"
        },
        {
          "internalType": "uint256",
          "name": "amount",
          "type": "uint256"
        }
      ],
      "name": "delegateTransferFrom",
      "outputs": [],
      "stateMutability": "payable",
      "type": "function"
    },
    {
      "inputs": [
        {
          "internalType": "address",
          "name": "token",
          "type": "address"
        }
      ],
      "name": "name",
      "outputs": [
        {
          "internalType": "string",
          "name": "",
          "type": "string"
        }
      ],
      "stateMutability": "view",
      "type": "function"
    },
    {
      "inputs": [
        {
          "internalType": "address",
          "name": "token",
          "type": "address"
        }
      ],
      "name": "symbol",
      "outputs": [
        {
          "internalType": "string",
          "name": "",
          "type": "string"
        }
      ],
      "stateMutability": "view",
      "type": "function"
    },
    {
      "inputs": [
        {
          "internalType": "address",
          "name": "token",
          "type": "address"
        }
      ],
      "name": "totalSupply",
      "outputs": [
        {
          "internalType": "uint256",
          "name": "",
          "type": "uint256"
        }
      ],
      "stateMutability": "view",
      "type": "function"
    },
    {
      "inputs": [
        {
          "internalType": "address",
          "name": "token",
          "type": "address"
        },
        {
          "internalType": "address",
          "name": "recipient",
          "type": "address"
        },
        {
          "internalType": "uint256",
          "name": "amount",
          "type": "uint256"
        }
      ],
      "name": "transfer",
      "outputs": [
        {
          "internalType": "bool",
          "name": "",
          "type": "bool"
        }
      ],
      "stateMutability": "nonpayable",
      "type": "function"
    },
    {
      "inputs": [
        {
          "internalType": "address",
          "name": "token",
          "type": "address"
        },
        {
          "internalType": "address",
          "name": "sender",
          "type": "address"
        },
        {
          "internalType": "address",
          "name": "recipient",
          "type": "address"
        },
        {
          "internalType": "uint256",
          "name": "amount",
          "type": "uint256"
        }
      ],
      "name": "transferFrom",
      "outputs": [
        {
          "internalType": "bool",
          "name": "",
          "type": "bool"
        }
      ],
      "stateMutability": "nonpayable",
      "type": "function"
    }
  ],
  "bytecode": "0x608060405234801561000f575f80fd5b50610a7c8061001d5f395ff3fe6080604052600436106100c3575f3560e01c8063d449a83211610071578063eac6f3fe1161004c578063eac6f3fe14610226578063f4b79da514610239578063f7888aec14610258575f80fd5b8063d449a832146101b7578063e1f21c67146101e8578063e4dc2aa414610207575f80fd5b8063927da105116100a1578063927da1051461014c578063a86e357614610179578063beabacc814610198575f80fd5b806301984892146100c757806315dacbea146100fc578063734194a71461012b575b5f80fd5b3480156100d2575f80fd5b506100e66100e13660046107ba565b610277565b6040516100f391906107f5565b60405180910390f35b348015610107575f80fd5b5061011b610116366004610827565b6102e1565b60405190151581526020016100f3565b348015610136575f80fd5b5061014a61014536600461086f565b610365565b005b348015610157575f80fd5b5061016b6101663660046108a8565b610405565b6040519081526020016100f3565b348015610184575f80fd5b506100e66101933660046107ba565b610480565b3480156101a3575f80fd5b5061011b6101b236600461086f565b6104bd565b3480156101c2575f80fd5b506101d66101d13660046107ba565b610531565b60405160ff90911681526020016100f3565b3480156101f3575f80fd5b5061011b61020236600461086f565b610592565b348015610212575f80fd5b5061016b6102213660046107ba565b6105ca565b61014a610234366004610827565b61062b565b348015610244575f80fd5b5061014a61025336600461086f565b6106d4565b348015610263575f80fd5b5061016b6102723660046108e8565b61072d565b6060816001600160a01b03166306fdde036040518163ffffffff1660e01b81526004015f60405180830381865afa1580156102b4573d5f803e3d5ffd5b505050506040513d5f823e601f3d908101601f191682016040526102db919081019061092d565b92915050565b6040516323b872dd60e01b81526001600160a01b0384811660048301528381166024830152604482018390525f91908616906323b872dd906064016020604051808303815f875af1158015610338573d5f803e3d5ffd5b505050506040513d601f19601f8201168201806040525081019061035c91906109d5565b95945050505050565b6040516001600160a01b038381166024830152604482018390525f91829186169060640160408051601f198184030181529181526020820180516001600160e01b031663095ea7b360e01b179052516103be91906109f4565b5f60405180830381855af49150503d805f81146103f6576040519150601f19603f3d011682016040523d82523d5f602084013e6103fb565b606091505b5050505050505050565b604051636eb1769f60e11b81526001600160a01b03838116600483015282811660248301525f919085169063dd62ed3e90604401602060405180830381865afa158015610454573d5f803e3d5ffd5b505050506040513d601f19601f820116820180604052508101906104789190610a0f565b949350505050565b6060816001600160a01b03166395d89b416040518163ffffffff1660e01b81526004015f60405180830381865afa1580156102b4573d5f803e3d5ffd5b60405163a9059cbb60e01b81526001600160a01b038381166004830152602482018390525f919085169063a9059cbb906044015b6020604051808303815f875af115801561050d573d5f803e3d5ffd5b505050506040513d601f19601f8201168201806040525081019061047891906109d5565b5f816001600160a01b031663313ce5676040518163ffffffff1660e01b8152600401602060405180830381865afa15801561056e573d5f803e3d5ffd5b505050506040513d601f19601f820116820180604052508101906102db9190610a26565b60405163095ea7b360e01b81526001600160a01b038381166004830152602482018390525f919085169063095ea7b3906044016104f1565b5f816001600160a01b03166318160ddd6040518163ffffffff1660e01b8152600401602060405180830381865afa158015610607573d5f803e3d5ffd5b505050506040513d601f19601f820116820180604052508101906102db9190610a0f565b6040516001600160a01b0384811660248301528381166044830152606482018390525f91829187169060840160408051601f198184030181529181526020820180516001600160e01b03166323b872dd60e01b1790525161068c91906109f4565b5f60405180830381855af49150503d805f81146106c4576040519150601f19603f3d011682016040523d82523d5f602084013e6106c9565b606091505b505050505050505050565b6040516001600160a01b038381166024830152604482018390525f91829186169060640160408051601f198184030181529181526020820180516001600160e01b031663a9059cbb60e01b179052516103be91906109f4565b6040516370a0823160e01b81526001600160a01b0382811660048301525f91908416906370a0823190602401602060405180830381865afa158015610774573d5f803e3d5ffd5b505050506040513d601f19601f820116820180604052508101906107989190610a0f565b9392505050565b80356001600160a01b03811681146107b5575f80fd5b919050565b5f602082840312156107ca575f80fd5b6107988261079f565b5f5b838110156107ed5781810151838201526020016107d5565b50505f910152565b602081525f82518060208401526108138160408501602087016107d3565b601f01601f19169190910160400192915050565b5f805f806080858703121561083a575f80fd5b6108438561079f565b93506108516020860161079f565b925061085f6040860161079f565b9396929550929360600135925050565b5f805f60608486031215610881575f80fd5b61088a8461079f565b92506108986020850161079f565b9150604084013590509250925092565b5f805f606084860312156108ba575f80fd5b6108c38461079f565b92506108d16020850161079f565b91506108df6040850161079f565b90509250925092565b5f80604083850312156108f9575f80fd5b6109028361079f565b91506109106020840161079f565b90509250929050565b634e487b7160e01b5f52604160045260245ffd5b5f6020828403121561093d575f80fd5b815167ffffffffffffffff80821115610954575f80fd5b818401915084601f830112610967575f80fd5b81518181111561097957610979610919565b604051601f8201601f19908116603f011681019083821181831017156109a1576109a1610919565b816040528281528760208487010111156109b9575f80fd5b6109ca8360208301602088016107d3565b979650505050505050565b5f602082840312156109e5575f80fd5b81518015158114610798575f80fd5b5f8251610a058184602087016107d3565b9190910192915050565b5f60208284031215610a1f575f80fd5b5051919050565b5f60208284031215610a36575f80fd5b815160ff81168114610798575f80fdfea26469706673582212207eb780f1da7b8915961428ce937afda2f71ef019231912fcbf696aa695e228c164736f6c63430008140033",
  "linkReferences": {},
  "deployedLinkReferences": {}
}