{
  "_format": "hh-sol-artifact-1",
  "contractName": "ERC20Contract",
  "sourceName": "contracts/hts-precompile/examples/erc-20/ERC20Contract.sol",
  "abi": [
    {
      "inputs": [
        {
          "internalType": "address",
          "name": "token",
          "type": "address"
        },
        {
          "internalType": "address",
          "name": "owner",
          "type": "address"
        },
        {
          "internalType": "address",
          "name": "spender",
          "type": "address"
        }
      ],
      "name": "allowance",
      "outputs": [
        {
          "internalType": "uint256",
          "name": "",
          "type": "uint256"
        }
      ],
      "stateMutability": "view",
      "type": "function"
    },
    {
      "inputs": [
        {
          "internalType": "address",
          "name": "token",
          "type": "address"
        },
        {
          "internalType": "address",
          "name": "spender",
          "type": "address"
        },
        {
          "internalType": "uint256",
          "name": "amount",
          "type": "uint256"
        }
      ],
      "name": "approve",
      "outputs": [
        {
          "internalType": "bool",
          "name": "",
          "type": "bool"
        }
      ],
      "stateMutability": "nonpayable",
      "type": "function"
    },
    {
      "inputs": [
        {
          "internalType": "address",
          "name": "token",
          "type": "address"
        },
        {
          "internalType": "address",
          "name": "account",
          "type": "address"
        }
      ],
      "name": "balanceOf",
      "outputs": [
        {
          "internalType": "uint256",
          "name": "",
          "type": "uint256"
        }
      ],
      "stateMutability": "view",
      "type": "function"
    },
    {
      "inputs": [
        {
          "internalType": "address",
          "name": "token",
          "type": "address"
        }
      ],
      "name": "decimals",
      "outputs": [
        {
          "internalType": "uint8",
          "name": "",
          "type": "uint8"
        }
      ],
      "stateMutability": "view",
      "type": "function"
    },
    {
      "inputs": [
        {
          "internalType": "address",
          "name": "token",
          "type": "address"
        },
        {
          "internalType": "address",
          "name": "recipient",
          "type": "address"
        },
        {
          "internalType": "uint256",
          "name": "amount",
          "type": "uint256"
        }
      ],
      "name": "delegateApprove",
      "outputs": [],
      "stateMutability": "nonpayable",
      "type": "function"
    },
    {
      "inputs": [
        {
          "internalType": "address",
          "name": "token",
          "type": "address"
        },
        {
          "internalType": "address",
          "name": "recipient",
          "type": "address"
        },
        {
          "internalType": "uint256",
          "name": "amount",
          "type": "uint256"
        }
      ],
      "name": "delegateTransfer",
      "outputs": [],
      "stateMutability": "nonpayable",
      "type": "function"
    },
    {
      "inputs": [
        {
          "internalType": "address",
          "name": "token",
          "type": "address"
        },
        {
          "internalType": "address",
          "name": "from",
          "type": "address"
        },
        {
          "internalType": "address",
          "name": "to",
          "type": "address"
        },
        {
          "internalType": "uint256",
          "name": "amount",
          "type": "uint256"
        }
      ],
      "name": "delegateTransferFrom",
      "outputs": [],
      "stateMutability": "payable",
      "type": "function"
    },
    {
      "inputs": [],
      "name": "getChainId",
      "outputs": [
        {
          "internalType": "uint256",
          "name": "",
          "type": "uint256"
        }
      ],
      "stateMutability": "view",
      "type": "function"
    },
    {
      "inputs": [],
      "name": "getContractAddress",
      "outputs": [
        {
          "internalType": "address",
          "name": "",
          "type": "address"
        }
      ],
      "stateMutability": "view",
      "type": "function"
    },
    {
      "inputs": [
        {
          "internalType": "address",
          "name": "token",
          "type": "address"
        }
      ],
      "name": "name",
      "outputs": [
        {
          "internalType": "string",
          "name": "",
          "type": "string"
        }
      ],
      "stateMutability": "view",
      "type": "function"
    },
    {
      "inputs": [
        {
          "internalType": "address",
          "name": "token",
          "type": "address"
        }
      ],
      "name": "symbol",
      "outputs": [
        {
          "internalType": "string",
          "name": "",
          "type": "string"
        }
      ],
      "stateMutability": "view",
      "type": "function"
    },
    {
      "inputs": [
        {
          "internalType": "address",
          "name": "token",
          "type": "address"
        }
      ],
      "name": "totalSupply",
      "outputs": [
        {
          "internalType": "uint256",
          "name": "",
          "type": "uint256"
        }
      ],
      "stateMutability": "view",
      "type": "function"
    },
    {
      "inputs": [
        {
          "internalType": "address",
          "name": "token",
          "type": "address"
        },
        {
          "internalType": "address",
          "name": "recipient",
          "type": "address"
        },
        {
          "internalType": "uint256",
          "name": "amount",
          "type": "uint256"
        }
      ],
      "name": "transfer",
      "outputs": [
        {
          "internalType": "bool",
          "name": "",
          "type": "bool"
        }
      ],
      "stateMutability": "nonpayable",
      "type": "function"
    },
    {
      "inputs": [
        {
          "internalType": "address",
          "name": "token",
          "type": "address"
        },
        {
          "internalType": "address",
          "name": "sender",
          "type": "address"
        },
        {
          "internalType": "address",
          "name": "recipient",
          "type": "address"
        },
        {
          "internalType": "uint256",
          "name": "amount",
          "type": "uint256"
        }
      ],
      "name": "transferFrom",
      "outputs": [
        {
          "internalType": "bool",
          "name": "",
          "type": "bool"
        }
      ],
      "stateMutability": "nonpayable",
      "type": "function"
    }
  ],
  "bytecode": "0x608060405234801561001057600080fd5b50610b82806100206000396000f3fe6080604052600436106100dd5760003560e01c8063beabacc81161007f578063e4dc2aa411610059578063e4dc2aa414610254578063eac6f3fe14610274578063f4b79da514610287578063f7888aec146102a757600080fd5b8063beabacc8146101e2578063d449a83214610202578063e1f21c671461023457600080fd5b80633408e470116100bb5780633408e47014610163578063734194a714610180578063927da105146101a2578063a86e3576146101c257600080fd5b806301984892146100e257806315dacbea1461011857806332a2c5d014610148575b600080fd5b3480156100ee57600080fd5b506101026100fd366004610894565b6102c7565b60405161010f91906108df565b60405180910390f35b34801561012457600080fd5b50610138610133366004610912565b610344565b604051901515815260200161010f565b34801561015457600080fd5b5060405130815260200161010f565b34801561016f57600080fd5b50465b60405190815260200161010f565b34801561018c57600080fd5b506101a061019b36600461095d565b6103db565b005b3480156101ae57600080fd5b506101726101bd366004610999565b61047f565b3480156101ce57600080fd5b506101026101dd366004610894565b61050c565b3480156101ee57600080fd5b506101386101fd36600461095d565b610547565b34801561020e57600080fd5b5061022261021d366004610894565b6105ce565b60405160ff909116815260200161010f565b34801561024057600080fd5b5061013861024f36600461095d565b610641565b34801561026057600080fd5b5061017261026f366004610894565b61067a565b6101a0610282366004610912565b6106ed565b34801561029357600080fd5b506101a06102a236600461095d565b61079a565b3480156102b357600080fd5b506101726102c23660046109dc565b6107f4565b6060816001600160a01b03166306fdde036040518163ffffffff1660e01b815260040160006040518083038186803b15801561030257600080fd5b505afa158015610316573d6000803e3d6000fd5b505050506040513d6000823e601f3d908101601f1916820160405261033e9190810190610a25565b92915050565b6040516323b872dd60e01b81526001600160a01b038481166004830152838116602483015260448201839052600091908616906323b872dd90606401602060405180830381600087803b15801561039a57600080fd5b505af11580156103ae573d6000803e3d6000fd5b505050506040513d601f19601f820116820180604052508101906103d29190610ad2565b95945050505050565b6040516001600160a01b03838116602483015260448201839052600091829186169060640160408051601f198184030181529181526020820180516001600160e01b031663095ea7b360e01b179052516104359190610af4565b600060405180830381855af49150503d8060008114610470576040519150601f19603f3d011682016040523d82523d6000602084013e610475565b606091505b5050505050505050565b604051636eb1769f60e11b81526001600160a01b03838116600483015282811660248301526000919085169063dd62ed3e9060440160206040518083038186803b1580156104cc57600080fd5b505afa1580156104e0573d6000803e3d6000fd5b505050506040513d601f19601f820116820180604052508101906105049190610b10565b949350505050565b6060816001600160a01b03166395d89b416040518163ffffffff1660e01b815260040160006040518083038186803b15801561030257600080fd5b60405163a9059cbb60e01b81526001600160a01b038381166004830152602482018390526000919085169063a9059cbb906044015b602060405180830381600087803b15801561059657600080fd5b505af11580156105aa573d6000803e3d6000fd5b505050506040513d601f19601f820116820180604052508101906105049190610ad2565b6000816001600160a01b031663313ce5676040518163ffffffff1660e01b815260040160206040518083038186803b15801561060957600080fd5b505afa15801561061d573d6000803e3d6000fd5b505050506040513d601f19601f8201168201806040525081019061033e9190610b29565b60405163095ea7b360e01b81526001600160a01b038381166004830152602482018390526000919085169063095ea7b39060440161057c565b6000816001600160a01b03166318160ddd6040518163ffffffff1660e01b815260040160206040518083038186803b1580156106b557600080fd5b505afa1580156106c9573d6000803e3d6000fd5b505050506040513d601f19601f8201168201806040525081019061033e9190610b10565b6040516001600160a01b038481166024830152838116604483015260648201839052600091829187169060840160408051601f198184030181529181526020820180516001600160e01b03166323b872dd60e01b1790525161074f9190610af4565b600060405180830381855af49150503d806000811461078a576040519150601f19603f3d011682016040523d82523d6000602084013e61078f565b606091505b505050505050505050565b6040516001600160a01b03838116602483015260448201839052600091829186169060640160408051601f198184030181529181526020820180516001600160e01b031663a9059cbb60e01b179052516104359190610af4565b6040516370a0823160e01b81526001600160a01b038281166004830152600091908416906370a082319060240160206040518083038186803b15801561083957600080fd5b505afa15801561084d573d6000803e3d6000fd5b505050506040513d601f19601f820116820180604052508101906108719190610b10565b9392505050565b80356001600160a01b038116811461088f57600080fd5b919050565b6000602082840312156108a657600080fd5b61087182610878565b60005b838110156108ca5781810151838201526020016108b2565b838111156108d9576000848401525b50505050565b60208152600082518060208401526108fe8160408501602087016108af565b601f01601f19169190910160400192915050565b6000806000806080858703121561092857600080fd5b61093185610878565b935061093f60208601610878565b925061094d60408601610878565b9396929550929360600135925050565b60008060006060848603121561097257600080fd5b61097b84610878565b925061098960208501610878565b9150604084013590509250925092565b6000806000606084860312156109ae57600080fd5b6109b784610878565b92506109c560208501610878565b91506109d360408501610878565b90509250925092565b600080604083850312156109ef57600080fd5b6109f883610878565b9150610a0660208401610878565b90509250929050565b634e487b7160e01b600052604160045260246000fd5b600060208284031215610a3757600080fd5b815167ffffffffffffffff80821115610a4f57600080fd5b818401915084601f830112610a6357600080fd5b815181811115610a7557610a75610a0f565b604051601f8201601f19908116603f01168101908382118183101715610a9d57610a9d610a0f565b81604052828152876020848701011115610ab657600080fd5b610ac78360208301602088016108af565b979650505050505050565b600060208284031215610ae457600080fd5b8151801515811461087157600080fd5b60008251610b068184602087016108af565b9190910192915050565b600060208284031215610b2257600080fd5b5051919050565b600060208284031215610b3b57600080fd5b815160ff8116811461087157600080fdfea26469706673582212206eb7069feb94f902353bec0e36c042b51a34d739a9d6d4238edc4acf1994644b64736f6c63430008090033",
  "linkReferences": {},
  "deployedLinkReferences": {}
}