{
  "_format": "hh-sol-artifact-1",
  "contractName": "ERC20Contract",
  "sourceName": "contracts/hts-precompile/examples/erc-20/ERC20Contract.sol",
  "abi": [
    {
      "inputs": [
        {
          "internalType": "address",
          "name": "token",
          "type": "address"
        },
        {
          "internalType": "address",
          "name": "owner",
          "type": "address"
        },
        {
          "internalType": "address",
          "name": "spender",
          "type": "address"
        }
      ],
      "name": "allowance",
      "outputs": [
        {
          "internalType": "uint256",
          "name": "",
          "type": "uint256"
        }
      ],
      "stateMutability": "view",
      "type": "function"
    },
    {
      "inputs": [
        {
          "internalType": "address",
          "name": "token",
          "type": "address"
        },
        {
          "internalType": "address",
          "name": "spender",
          "type": "address"
        },
        {
          "internalType": "uint256",
          "name": "amount",
          "type": "uint256"
        }
      ],
      "name": "approve",
      "outputs": [
        {
          "internalType": "bool",
          "name": "",
          "type": "bool"
        }
      ],
      "stateMutability": "nonpayable",
      "type": "function"
    },
    {
      "inputs": [
        {
          "internalType": "address",
          "name": "token",
          "type": "address"
        },
        {
          "internalType": "address",
          "name": "account",
          "type": "address"
        }
      ],
      "name": "balanceOf",
      "outputs": [
        {
          "internalType": "uint256",
          "name": "",
          "type": "uint256"
        }
      ],
      "stateMutability": "view",
      "type": "function"
    },
    {
      "inputs": [
        {
          "internalType": "address",
          "name": "token",
          "type": "address"
        }
      ],
      "name": "decimals",
      "outputs": [
        {
          "internalType": "uint8",
          "name": "",
          "type": "uint8"
        }
      ],
      "stateMutability": "view",
      "type": "function"
    },
    {
      "inputs": [
        {
          "internalType": "address",
          "name": "token",
          "type": "address"
        },
        {
          "internalType": "address",
          "name": "recipient",
          "type": "address"
        },
        {
          "internalType": "uint256",
          "name": "amount",
          "type": "uint256"
        }
      ],
      "name": "delegateTransfer",
      "outputs": [],
      "stateMutability": "nonpayable",
      "type": "function"
    },
    {
      "inputs": [
        {
          "internalType": "address",
          "name": "token",
          "type": "address"
        }
      ],
      "name": "name",
      "outputs": [
        {
          "internalType": "string",
          "name": "",
          "type": "string"
        }
      ],
      "stateMutability": "view",
      "type": "function"
    },
    {
      "inputs": [
        {
          "internalType": "address",
          "name": "token",
          "type": "address"
        }
      ],
      "name": "symbol",
      "outputs": [
        {
          "internalType": "string",
          "name": "",
          "type": "string"
        }
      ],
      "stateMutability": "view",
      "type": "function"
    },
    {
      "inputs": [
        {
          "internalType": "address",
          "name": "token",
          "type": "address"
        }
      ],
      "name": "totalSupply",
      "outputs": [
        {
          "internalType": "uint256",
          "name": "",
          "type": "uint256"
        }
      ],
      "stateMutability": "view",
      "type": "function"
    },
    {
      "inputs": [
        {
          "internalType": "address",
          "name": "token",
          "type": "address"
        },
        {
          "internalType": "address",
          "name": "recipient",
          "type": "address"
        },
        {
          "internalType": "uint256",
          "name": "amount",
          "type": "uint256"
        }
      ],
      "name": "transfer",
      "outputs": [
        {
          "internalType": "bool",
          "name": "",
          "type": "bool"
        }
      ],
      "stateMutability": "nonpayable",
      "type": "function"
    },
    {
      "inputs": [
        {
          "internalType": "address",
          "name": "token",
          "type": "address"
        },
        {
          "internalType": "address",
          "name": "sender",
          "type": "address"
        },
        {
          "internalType": "address",
          "name": "recipient",
          "type": "address"
        },
        {
          "internalType": "uint256",
          "name": "amount",
          "type": "uint256"
        }
      ],
      "name": "transferFrom",
      "outputs": [
        {
          "internalType": "bool",
          "name": "",
          "type": "bool"
        }
      ],
      "stateMutability": "nonpayable",
      "type": "function"
    }
  ],
  "bytecode": "0x608060405234801561001057600080fd5b50610972806100206000396000f3fe608060405234801561001057600080fd5b506004361061009e5760003560e01c8063d449a83211610066578063d449a83214610136578063e1f21c671461015b578063e4dc2aa41461016e578063f4b79da514610181578063f7888aec1461019657600080fd5b806301984892146100a357806315dacbea146100cc578063927da105146100ef578063a86e357614610110578063beabacc814610123575b600080fd5b6100b66100b1366004610684565b6101a9565b6040516100c391906106cf565b60405180910390f35b6100df6100da366004610702565b610226565b60405190151581526020016100c3565b6101026100fd36600461074d565b6102bd565b6040519081526020016100c3565b6100b661011e366004610684565b61034a565b6100df610131366004610790565b610385565b610149610144366004610684565b61040c565b60405160ff90911681526020016100c3565b6100df610169366004610790565b61047f565b61010261017c366004610684565b6104b8565b61019461018f366004610790565b61052b565b005b6101026101a43660046107cc565b6105e4565b6060816001600160a01b03166306fdde036040518163ffffffff1660e01b815260040160006040518083038186803b1580156101e457600080fd5b505afa1580156101f8573d6000803e3d6000fd5b505050506040513d6000823e601f3d908101601f191682016040526102209190810190610815565b92915050565b6040516323b872dd60e01b81526001600160a01b038481166004830152838116602483015260448201839052600091908616906323b872dd90606401602060405180830381600087803b15801561027c57600080fd5b505af1158015610290573d6000803e3d6000fd5b505050506040513d601f19601f820116820180604052508101906102b491906108c2565b95945050505050565b604051636eb1769f60e11b81526001600160a01b03838116600483015282811660248301526000919085169063dd62ed3e9060440160206040518083038186803b15801561030a57600080fd5b505afa15801561031e573d6000803e3d6000fd5b505050506040513d601f19601f8201168201806040525081019061034291906108e4565b949350505050565b6060816001600160a01b03166395d89b416040518163ffffffff1660e01b815260040160006040518083038186803b1580156101e457600080fd5b60405163a9059cbb60e01b81526001600160a01b038381166004830152602482018390526000919085169063a9059cbb906044015b602060405180830381600087803b1580156103d457600080fd5b505af11580156103e8573d6000803e3d6000fd5b505050506040513d601f19601f8201168201806040525081019061034291906108c2565b6000816001600160a01b031663313ce5676040518163ffffffff1660e01b815260040160206040518083038186803b15801561044757600080fd5b505afa15801561045b573d6000803e3d6000fd5b505050506040513d601f19601f8201168201806040525081019061022091906108fd565b60405163095ea7b360e01b81526001600160a01b038381166004830152602482018390526000919085169063095ea7b3906044016103ba565b6000816001600160a01b03166318160ddd6040518163ffffffff1660e01b815260040160206040518083038186803b1580156104f357600080fd5b505afa158015610507573d6000803e3d6000fd5b505050506040513d601f19601f8201168201806040525081019061022091906108e4565b6040516001600160a01b03838116602483015260448201839052600091829186169060640160408051601f198184030181529181526020820180517bffffffffffffffffffffffffffffffffffffffffffffffffffffffff1663a9059cbb60e01b1790525161059a9190610920565b600060405180830381855af49150503d80600081146105d5576040519150601f19603f3d011682016040523d82523d6000602084013e6105da565b606091505b5050505050505050565b6040516370a0823160e01b81526001600160a01b038281166004830152600091908416906370a082319060240160206040518083038186803b15801561062957600080fd5b505afa15801561063d573d6000803e3d6000fd5b505050506040513d601f19601f8201168201806040525081019061066191906108e4565b9392505050565b80356001600160a01b038116811461067f57600080fd5b919050565b60006020828403121561069657600080fd5b61066182610668565b60005b838110156106ba5781810151838201526020016106a2565b838111156106c9576000848401525b50505050565b60208152600082518060208401526106ee81604085016020870161069f565b601f01601f19169190910160400192915050565b6000806000806080858703121561071857600080fd5b61072185610668565b935061072f60208601610668565b925061073d60408601610668565b9396929550929360600135925050565b60008060006060848603121561076257600080fd5b61076b84610668565b925061077960208501610668565b915061078760408501610668565b90509250925092565b6000806000606084860312156107a557600080fd5b6107ae84610668565b92506107bc60208501610668565b9150604084013590509250925092565b600080604083850312156107df57600080fd5b6107e883610668565b91506107f660208401610668565b90509250929050565b634e487b7160e01b600052604160045260246000fd5b60006020828403121561082757600080fd5b815167ffffffffffffffff8082111561083f57600080fd5b818401915084601f83011261085357600080fd5b815181811115610865576108656107ff565b604051601f8201601f19908116603f0116810190838211818310171561088d5761088d6107ff565b816040528281528760208487010111156108a657600080fd5b6108b783602083016020880161069f565b979650505050505050565b6000602082840312156108d457600080fd5b8151801515811461066157600080fd5b6000602082840312156108f657600080fd5b5051919050565b60006020828403121561090f57600080fd5b815160ff8116811461066157600080fd5b6000825161093281846020870161069f565b919091019291505056fea2646970667358221220bd9a3968ad657baf91d67844e92280c40f3c01b007586afd09a42cf32f87ad6b64736f6c63430008090033",
  "linkReferences": {},
  "deployedLinkReferences": {}
}