{
  "_format": "hh-sol-artifact-1",
  "contractName": "SafeCastTest",
  "sourceName": "contracts/solidity/oz/safeCast/SafeCast.sol",
  "abi": [
    {
      "inputs": [
        {
          "internalType": "uint8",
          "name": "bits",
          "type": "uint8"
        },
        {
          "internalType": "int256",
          "name": "value",
          "type": "int256"
        }
      ],
      "name": "SafeCastOverflowedIntDowncast",
      "type": "error"
    },
    {
      "inputs": [
        {
          "internalType": "int256",
          "name": "value",
          "type": "int256"
        }
      ],
      "name": "SafeCastOverflowedIntToUint",
      "type": "error"
    },
    {
      "inputs": [
        {
          "internalType": "uint8",
          "name": "bits",
          "type": "uint8"
        },
        {
          "internalType": "uint256",
          "name": "value",
          "type": "uint256"
        }
      ],
      "name": "SafeCastOverflowedUintDowncast",
      "type": "error"
    },
    {
      "inputs": [
        {
          "internalType": "uint256",
          "name": "value",
          "type": "uint256"
        }
      ],
      "name": "SafeCastOverflowedUintToInt",
      "type": "error"
    },
    {
      "inputs": [
        {
          "internalType": "int256",
          "name": "number",
          "type": "int256"
        }
      ],
      "name": "testToInt104",
      "outputs": [
        {
          "internalType": "int104",
          "name": "",
          "type": "int104"
        }
      ],
      "stateMutability": "view",
      "type": "function"
    },
    {
      "inputs": [
        {
          "internalType": "int256",
          "name": "number",
          "type": "int256"
        }
      ],
      "name": "testToInt112",
      "outputs": [
        {
          "internalType": "int112",
          "name": "",
          "type": "int112"
        }
      ],
      "stateMutability": "view",
      "type": "function"
    },
    {
      "inputs": [
        {
          "internalType": "int256",
          "name": "number",
          "type": "int256"
        }
      ],
      "name": "testToInt120",
      "outputs": [
        {
          "internalType": "int120",
          "name": "",
          "type": "int120"
        }
      ],
      "stateMutability": "view",
      "type": "function"
    },
    {
      "inputs": [
        {
          "internalType": "int256",
          "name": "number",
          "type": "int256"
        }
      ],
      "name": "testToInt128",
      "outputs": [
        {
          "internalType": "int128",
          "name": "",
          "type": "int128"
        }
      ],
      "stateMutability": "view",
      "type": "function"
    },
    {
      "inputs": [
        {
          "internalType": "int256",
          "name": "number",
          "type": "int256"
        }
      ],
      "name": "testToInt136",
      "outputs": [
        {
          "internalType": "int136",
          "name": "",
          "type": "int136"
        }
      ],
      "stateMutability": "view",
      "type": "function"
    },
    {
      "inputs": [
        {
          "internalType": "int256",
          "name": "number",
          "type": "int256"
        }
      ],
      "name": "testToInt144",
      "outputs": [
        {
          "internalType": "int144",
          "name": "",
          "type": "int144"
        }
      ],
      "stateMutability": "view",
      "type": "function"
    },
    {
      "inputs": [
        {
          "internalType": "int256",
          "name": "number",
          "type": "int256"
        }
      ],
      "name": "testToInt152",
      "outputs": [
        {
          "internalType": "int152",
          "name": "",
          "type": "int152"
        }
      ],
      "stateMutability": "view",
      "type": "function"
    },
    {
      "inputs": [
        {
          "internalType": "int256",
          "name": "number",
          "type": "int256"
        }
      ],
      "name": "testToInt16",
      "outputs": [
        {
          "internalType": "int16",
          "name": "",
          "type": "int16"
        }
      ],
      "stateMutability": "view",
      "type": "function"
    },
    {
      "inputs": [
        {
          "internalType": "int256",
          "name": "number",
          "type": "int256"
        }
      ],
      "name": "testToInt160",
      "outputs": [
        {
          "internalType": "int160",
          "name": "",
          "type": "int160"
        }
      ],
      "stateMutability": "view",
      "type": "function"
    },
    {
      "inputs": [
        {
          "internalType": "int256",
          "name": "number",
          "type": "int256"
        }
      ],
      "name": "testToInt168",
      "outputs": [
        {
          "internalType": "int168",
          "name": "",
          "type": "int168"
        }
      ],
      "stateMutability": "view",
      "type": "function"
    },
    {
      "inputs": [
        {
          "internalType": "int256",
          "name": "number",
          "type": "int256"
        }
      ],
      "name": "testToInt176",
      "outputs": [
        {
          "internalType": "int176",
          "name": "",
          "type": "int176"
        }
      ],
      "stateMutability": "view",
      "type": "function"
    },
    {
      "inputs": [
        {
          "internalType": "int256",
          "name": "number",
          "type": "int256"
        }
      ],
      "name": "testToInt184",
      "outputs": [
        {
          "internalType": "int184",
          "name": "",
          "type": "int184"
        }
      ],
      "stateMutability": "view",
      "type": "function"
    },
    {
      "inputs": [
        {
          "internalType": "int256",
          "name": "number",
          "type": "int256"
        }
      ],
      "name": "testToInt192",
      "outputs": [
        {
          "internalType": "int192",
          "name": "",
          "type": "int192"
        }
      ],
      "stateMutability": "view",
      "type": "function"
    },
    {
      "inputs": [
        {
          "internalType": "int256",
          "name": "number",
          "type": "int256"
        }
      ],
      "name": "testToInt200",
      "outputs": [
        {
          "internalType": "int200",
          "name": "",
          "type": "int200"
        }
      ],
      "stateMutability": "view",
      "type": "function"
    },
    {
      "inputs": [
        {
          "internalType": "int256",
          "name": "number",
          "type": "int256"
        }
      ],
      "name": "testToInt208",
      "outputs": [
        {
          "internalType": "int208",
          "name": "",
          "type": "int208"
        }
      ],
      "stateMutability": "view",
      "type": "function"
    },
    {
      "inputs": [
        {
          "internalType": "int256",
          "name": "number",
          "type": "int256"
        }
      ],
      "name": "testToInt216",
      "outputs": [
        {
          "internalType": "int216",
          "name": "",
          "type": "int216"
        }
      ],
      "stateMutability": "view",
      "type": "function"
    },
    {
      "inputs": [
        {
          "internalType": "int256",
          "name": "number",
          "type": "int256"
        }
      ],
      "name": "testToInt224",
      "outputs": [
        {
          "internalType": "int224",
          "name": "",
          "type": "int224"
        }
      ],
      "stateMutability": "view",
      "type": "function"
    },
    {
      "inputs": [
        {
          "internalType": "int256",
          "name": "number",
          "type": "int256"
        }
      ],
      "name": "testToInt232",
      "outputs": [
        {
          "internalType": "int232",
          "name": "",
          "type": "int232"
        }
      ],
      "stateMutability": "view",
      "type": "function"
    },
    {
      "inputs": [
        {
          "internalType": "int256",
          "name": "number",
          "type": "int256"
        }
      ],
      "name": "testToInt24",
      "outputs": [
        {
          "internalType": "int24",
          "name": "",
          "type": "int24"
        }
      ],
      "stateMutability": "view",
      "type": "function"
    },
    {
      "inputs": [
        {
          "internalType": "int256",
          "name": "number",
          "type": "int256"
        }
      ],
      "name": "testToInt240",
      "outputs": [
        {
          "internalType": "int240",
          "name": "",
          "type": "int240"
        }
      ],
      "stateMutability": "view",
      "type": "function"
    },
    {
      "inputs": [
        {
          "internalType": "int256",
          "name": "number",
          "type": "int256"
        }
      ],
      "name": "testToInt248",
      "outputs": [
        {
          "internalType": "int248",
          "name": "",
          "type": "int248"
        }
      ],
      "stateMutability": "view",
      "type": "function"
    },
    {
      "inputs": [
        {
          "internalType": "uint256",
          "name": "number",
          "type": "uint256"
        }
      ],
      "name": "testToInt256",
      "outputs": [
        {
          "internalType": "int256",
          "name": "",
          "type": "int256"
        }
      ],
      "stateMutability": "view",
      "type": "function"
    },
    {
      "inputs": [
        {
          "internalType": "int256",
          "name": "number",
          "type": "int256"
        }
      ],
      "name": "testToInt32",
      "outputs": [
        {
          "internalType": "int32",
          "name": "",
          "type": "int32"
        }
      ],
      "stateMutability": "view",
      "type": "function"
    },
    {
      "inputs": [
        {
          "internalType": "int256",
          "name": "number",
          "type": "int256"
        }
      ],
      "name": "testToInt40",
      "outputs": [
        {
          "internalType": "int40",
          "name": "",
          "type": "int40"
        }
      ],
      "stateMutability": "view",
      "type": "function"
    },
    {
      "inputs": [
        {
          "internalType": "int256",
          "name": "number",
          "type": "int256"
        }
      ],
      "name": "testToInt48",
      "outputs": [
        {
          "internalType": "int48",
          "name": "",
          "type": "int48"
        }
      ],
      "stateMutability": "view",
      "type": "function"
    },
    {
      "inputs": [
        {
          "internalType": "int256",
          "name": "number",
          "type": "int256"
        }
      ],
      "name": "testToInt56",
      "outputs": [
        {
          "internalType": "int56",
          "name": "",
          "type": "int56"
        }
      ],
      "stateMutability": "view",
      "type": "function"
    },
    {
      "inputs": [
        {
          "internalType": "int256",
          "name": "number",
          "type": "int256"
        }
      ],
      "name": "testToInt64",
      "outputs": [
        {
          "internalType": "int64",
          "name": "",
          "type": "int64"
        }
      ],
      "stateMutability": "view",
      "type": "function"
    },
    {
      "inputs": [
        {
          "internalType": "int256",
          "name": "number",
          "type": "int256"
        }
      ],
      "name": "testToInt72",
      "outputs": [
        {
          "internalType": "int72",
          "name": "",
          "type": "int72"
        }
      ],
      "stateMutability": "view",
      "type": "function"
    },
    {
      "inputs": [
        {
          "internalType": "int256",
          "name": "number",
          "type": "int256"
        }
      ],
      "name": "testToInt8",
      "outputs": [
        {
          "internalType": "int8",
          "name": "",
          "type": "int8"
        }
      ],
      "stateMutability": "view",
      "type": "function"
    },
    {
      "inputs": [
        {
          "internalType": "int256",
          "name": "number",
          "type": "int256"
        }
      ],
      "name": "testToInt80",
      "outputs": [
        {
          "internalType": "int80",
          "name": "",
          "type": "int80"
        }
      ],
      "stateMutability": "view",
      "type": "function"
    },
    {
      "inputs": [
        {
          "internalType": "int256",
          "name": "number",
          "type": "int256"
        }
      ],
      "name": "testToInt88",
      "outputs": [
        {
          "internalType": "int88",
          "name": "",
          "type": "int88"
        }
      ],
      "stateMutability": "view",
      "type": "function"
    },
    {
      "inputs": [
        {
          "internalType": "int256",
          "name": "number",
          "type": "int256"
        }
      ],
      "name": "testToInt96",
      "outputs": [
        {
          "internalType": "int96",
          "name": "",
          "type": "int96"
        }
      ],
      "stateMutability": "view",
      "type": "function"
    },
    {
      "inputs": [
        {
          "internalType": "uint256",
          "name": "number",
          "type": "uint256"
        }
      ],
      "name": "testToUint104",
      "outputs": [
        {
          "internalType": "uint104",
          "name": "",
          "type": "uint104"
        }
      ],
      "stateMutability": "view",
      "type": "function"
    },
    {
      "inputs": [
        {
          "internalType": "uint256",
          "name": "number",
          "type": "uint256"
        }
      ],
      "name": "testToUint112",
      "outputs": [
        {
          "internalType": "uint112",
          "name": "",
          "type": "uint112"
        }
      ],
      "stateMutability": "view",
      "type": "function"
    },
    {
      "inputs": [
        {
          "internalType": "uint256",
          "name": "number",
          "type": "uint256"
        }
      ],
      "name": "testToUint120",
      "outputs": [
        {
          "internalType": "uint120",
          "name": "",
          "type": "uint120"
        }
      ],
      "stateMutability": "view",
      "type": "function"
    },
    {
      "inputs": [
        {
          "internalType": "uint256",
          "name": "number",
          "type": "uint256"
        }
      ],
      "name": "testToUint128",
      "outputs": [
        {
          "internalType": "uint128",
          "name": "",
          "type": "uint128"
        }
      ],
      "stateMutability": "view",
      "type": "function"
    },
    {
      "inputs": [
        {
          "internalType": "uint256",
          "name": "number",
          "type": "uint256"
        }
      ],
      "name": "testToUint136",
      "outputs": [
        {
          "internalType": "uint136",
          "name": "",
          "type": "uint136"
        }
      ],
      "stateMutability": "view",
      "type": "function"
    },
    {
      "inputs": [
        {
          "internalType": "uint256",
          "name": "number",
          "type": "uint256"
        }
      ],
      "name": "testToUint144",
      "outputs": [
        {
          "internalType": "uint144",
          "name": "",
          "type": "uint144"
        }
      ],
      "stateMutability": "view",
      "type": "function"
    },
    {
      "inputs": [
        {
          "internalType": "uint256",
          "name": "number",
          "type": "uint256"
        }
      ],
      "name": "testToUint152",
      "outputs": [
        {
          "internalType": "uint152",
          "name": "",
          "type": "uint152"
        }
      ],
      "stateMutability": "view",
      "type": "function"
    },
    {
      "inputs": [
        {
          "internalType": "uint256",
          "name": "number",
          "type": "uint256"
        }
      ],
      "name": "testToUint16",
      "outputs": [
        {
          "internalType": "uint16",
          "name": "",
          "type": "uint16"
        }
      ],
      "stateMutability": "view",
      "type": "function"
    },
    {
      "inputs": [
        {
          "internalType": "uint256",
          "name": "number",
          "type": "uint256"
        }
      ],
      "name": "testToUint160",
      "outputs": [
        {
          "internalType": "uint160",
          "name": "",
          "type": "uint160"
        }
      ],
      "stateMutability": "view",
      "type": "function"
    },
    {
      "inputs": [
        {
          "internalType": "uint256",
          "name": "number",
          "type": "uint256"
        }
      ],
      "name": "testToUint168",
      "outputs": [
        {
          "internalType": "uint168",
          "name": "",
          "type": "uint168"
        }
      ],
      "stateMutability": "view",
      "type": "function"
    },
    {
      "inputs": [
        {
          "internalType": "uint256",
          "name": "number",
          "type": "uint256"
        }
      ],
      "name": "testToUint176",
      "outputs": [
        {
          "internalType": "uint176",
          "name": "",
          "type": "uint176"
        }
      ],
      "stateMutability": "view",
      "type": "function"
    },
    {
      "inputs": [
        {
          "internalType": "uint256",
          "name": "number",
          "type": "uint256"
        }
      ],
      "name": "testToUint184",
      "outputs": [
        {
          "internalType": "uint184",
          "name": "",
          "type": "uint184"
        }
      ],
      "stateMutability": "view",
      "type": "function"
    },
    {
      "inputs": [
        {
          "internalType": "uint256",
          "name": "number",
          "type": "uint256"
        }
      ],
      "name": "testToUint192",
      "outputs": [
        {
          "internalType": "uint192",
          "name": "",
          "type": "uint192"
        }
      ],
      "stateMutability": "view",
      "type": "function"
    },
    {
      "inputs": [
        {
          "internalType": "uint256",
          "name": "number",
          "type": "uint256"
        }
      ],
      "name": "testToUint200",
      "outputs": [
        {
          "internalType": "uint200",
          "name": "",
          "type": "uint200"
        }
      ],
      "stateMutability": "view",
      "type": "function"
    },
    {
      "inputs": [
        {
          "internalType": "uint256",
          "name": "number",
          "type": "uint256"
        }
      ],
      "name": "testToUint208",
      "outputs": [
        {
          "internalType": "uint208",
          "name": "",
          "type": "uint208"
        }
      ],
      "stateMutability": "view",
      "type": "function"
    },
    {
      "inputs": [
        {
          "internalType": "uint256",
          "name": "number",
          "type": "uint256"
        }
      ],
      "name": "testToUint216",
      "outputs": [
        {
          "internalType": "uint216",
          "name": "",
          "type": "uint216"
        }
      ],
      "stateMutability": "view",
      "type": "function"
    },
    {
      "inputs": [
        {
          "internalType": "uint256",
          "name": "number",
          "type": "uint256"
        }
      ],
      "name": "testToUint224",
      "outputs": [
        {
          "internalType": "uint224",
          "name": "",
          "type": "uint224"
        }
      ],
      "stateMutability": "view",
      "type": "function"
    },
    {
      "inputs": [
        {
          "internalType": "uint256",
          "name": "number",
          "type": "uint256"
        }
      ],
      "name": "testToUint232",
      "outputs": [
        {
          "internalType": "uint232",
          "name": "",
          "type": "uint232"
        }
      ],
      "stateMutability": "view",
      "type": "function"
    },
    {
      "inputs": [
        {
          "internalType": "uint256",
          "name": "number",
          "type": "uint256"
        }
      ],
      "name": "testToUint24",
      "outputs": [
        {
          "internalType": "uint24",
          "name": "",
          "type": "uint24"
        }
      ],
      "stateMutability": "view",
      "type": "function"
    },
    {
      "inputs": [
        {
          "internalType": "uint256",
          "name": "number",
          "type": "uint256"
        }
      ],
      "name": "testToUint240",
      "outputs": [
        {
          "internalType": "uint240",
          "name": "",
          "type": "uint240"
        }
      ],
      "stateMutability": "view",
      "type": "function"
    },
    {
      "inputs": [
        {
          "internalType": "uint256",
          "name": "number",
          "type": "uint256"
        }
      ],
      "name": "testToUint248",
      "outputs": [
        {
          "internalType": "uint248",
          "name": "",
          "type": "uint248"
        }
      ],
      "stateMutability": "view",
      "type": "function"
    },
    {
      "inputs": [
        {
          "internalType": "int256",
          "name": "number",
          "type": "int256"
        }
      ],
      "name": "testToUint256",
      "outputs": [
        {
          "internalType": "uint256",
          "name": "",
          "type": "uint256"
        }
      ],
      "stateMutability": "pure",
      "type": "function"
    },
    {
      "inputs": [
        {
          "internalType": "uint256",
          "name": "number",
          "type": "uint256"
        }
      ],
      "name": "testToUint32",
      "outputs": [
        {
          "internalType": "uint32",
          "name": "",
          "type": "uint32"
        }
      ],
      "stateMutability": "view",
      "type": "function"
    },
    {
      "inputs": [
        {
          "internalType": "uint256",
          "name": "number",
          "type": "uint256"
        }
      ],
      "name": "testToUint40",
      "outputs": [
        {
          "internalType": "uint40",
          "name": "",
          "type": "uint40"
        }
      ],
      "stateMutability": "view",
      "type": "function"
    },
    {
      "inputs": [
        {
          "internalType": "uint256",
          "name": "number",
          "type": "uint256"
        }
      ],
      "name": "testToUint48",
      "outputs": [
        {
          "internalType": "uint48",
          "name": "",
          "type": "uint48"
        }
      ],
      "stateMutability": "view",
      "type": "function"
    },
    {
      "inputs": [
        {
          "internalType": "uint256",
          "name": "number",
          "type": "uint256"
        }
      ],
      "name": "testToUint56",
      "outputs": [
        {
          "internalType": "uint56",
          "name": "",
          "type": "uint56"
        }
      ],
      "stateMutability": "view",
      "type": "function"
    },
    {
      "inputs": [
        {
          "internalType": "uint256",
          "name": "number",
          "type": "uint256"
        }
      ],
      "name": "testToUint64",
      "outputs": [
        {
          "internalType": "uint64",
          "name": "",
          "type": "uint64"
        }
      ],
      "stateMutability": "view",
      "type": "function"
    },
    {
      "inputs": [
        {
          "internalType": "uint256",
          "name": "number",
          "type": "uint256"
        }
      ],
      "name": "testToUint72",
      "outputs": [
        {
          "internalType": "uint72",
          "name": "",
          "type": "uint72"
        }
      ],
      "stateMutability": "view",
      "type": "function"
    },
    {
      "inputs": [
        {
          "internalType": "uint256",
          "name": "number",
          "type": "uint256"
        }
      ],
      "name": "testToUint8",
      "outputs": [
        {
          "internalType": "uint8",
          "name": "",
          "type": "uint8"
        }
      ],
      "stateMutability": "view",
      "type": "function"
    },
    {
      "inputs": [
        {
          "internalType": "uint256",
          "name": "number",
          "type": "uint256"
        }
      ],
      "name": "testToUint80",
      "outputs": [
        {
          "internalType": "uint80",
          "name": "",
          "type": "uint80"
        }
      ],
      "stateMutability": "view",
      "type": "function"
    },
    {
      "inputs": [
        {
          "internalType": "uint256",
          "name": "number",
          "type": "uint256"
        }
      ],
      "name": "testToUint88",
      "outputs": [
        {
          "internalType": "uint88",
          "name": "",
          "type": "uint88"
        }
      ],
      "stateMutability": "view",
      "type": "function"
    },
    {
      "inputs": [
        {
          "internalType": "uint256",
          "name": "number",
          "type": "uint256"
        }
      ],
      "name": "testToUint96",
      "outputs": [
        {
          "internalType": "uint96",
          "name": "",
          "type": "uint96"
        }
      ],
      "stateMutability": "view",
      "type": "function"
    }
  ],
  "bytecode": "0x60806040526000196000556001600160f81b03600160006101000a8154816001600160f81b0302191690836001600160f81b031602179055506001600160f01b03600260006101000a8154816001600160f01b0302191690836001600160f01b031602179055506001600160e81b03600360006101000a8154816001600160e81b0302191690836001600160e81b031602179055506001600160e01b03600460006101000a8154816001600160e01b0302191690836001600160e01b031602179055506001600160d81b03600560006101000a8154816001600160d81b0302191690836001600160d81b031602179055506001600160d01b03600660006101000a8154816001600160d01b0302191690836001600160d01b031602179055506001600160c81b03600760006101000a8154816001600160c81b0302191690836001600160c81b031602179055506001600160c01b03600860006101000a8154816001600160c01b0302191690836001600160c01b031602179055506001600160b81b03600960006101000a8154816001600160b81b0302191690836001600160b81b031602179055506001600160b01b03600a60006101000a8154816001600160b01b0302191690836001600160b01b031602179055506001600160a81b03600b60006101000a8154816001600160a81b0302191690836001600160a81b031602179055506001600160a01b03600c60006101000a8154816001600160a01b0302191690836001600160a01b031602179055506001600160981b03600d60006101000a8154816001600160981b0302191690836001600160981b031602179055506001600160901b03600e60006101000a8154816001600160901b0302191690836001600160901b031602179055506001600160881b03600f60006101000a8154816001600160881b0302191690836001600160881b031602179055506001600160801b03601060006101000a8154816001600160801b0302191690836001600160801b031602179055506001600160781b036010806101000a8154816001600160781b0302191690836001600160781b031602179055506001600160701b03601160006101000a8154816001600160701b0302191690836001600160701b031602179055506001600160681b036011600e6101000a8154816001600160681b0302191690836001600160681b031602179055506001600160601b03601260006101000a8154816001600160601b0302191690836001600160601b031602179055506001600160581b036012600c6101000a8154816001600160581b0302191690836001600160581b031602179055506001600160501b03601360006101000a8154816001600160501b0302191690836001600160501b031602179055506001600160481b036013600a6101000a8154816001600160481b0302191690836001600160481b031602179055506001600160401b036013806101000a8154816001600160401b0302191690836001600160401b0316021790555066ffffffffffffff601460006101000a81548166ffffffffffffff021916908366ffffffffffffff16021790555065ffffffffffff601460076101000a81548165ffffffffffff021916908365ffffffffffff16021790555064ffffffffff6014600d6101000a81548164ffffffffff021916908364ffffffffff16021790555063ffffffff601460126101000a81548163ffffffff021916908363ffffffff16021790555062ffffff601460166101000a81548162ffffff021916908362ffffff16021790555061ffff601460196101000a81548161ffff021916908361ffff16021790555060ff6014601b6101000a81548160ff021916908360ff1602179055506001600160ff1b036015556001600160f71b03601660006101000a8154816001600160f81b030219169083601e0b6001600160f81b031602179055506001600160ef1b03601760006101000a8154816001600160f01b030219169083601d0b6001600160f01b031602179055506001600160e71b03601860006101000a8154816001600160e81b030219169083601c0b6001600160e81b031602179055506001600160df1b03601960006101000a8154816001600160e01b030219169083601b0b6001600160e01b031602179055506001600160d71b03601a60006101000a8154816001600160d81b030219169083601a0b6001600160d81b031602179055506001600160cf1b03601b60006101000a8154816001600160d01b03021916908360190b6001600160d01b031602179055506001600160c71b03601c60006101000a8154816001600160c81b03021916908360180b6001600160c81b031602179055506001600160bf1b03601d60006101000a8154816001600160c01b03021916908360170b6001600160c01b031602179055506001600160b71b03601e60006101000a8154816001600160b81b03021916908360160b6001600160b81b031602179055506001600160af1b03601f60006101000a8154816001600160b01b03021916908360150b6001600160b01b031602179055506001600160a71b03602060006101000a8154816001600160a81b03021916908360140b6001600160a81b0316021790555060016001609f1b03602160006101000a8154816001600160a01b03021916908360130b6001600160a01b031602179055506001600160971b03602260006101000a8154816001600160981b03021916908360120b6001600160981b0316021790555060016001608f1b03602360006101000a8154816001600160901b03021916908360110b6001600160901b031602179055506001600160871b03602460006101000a8154816001600160881b03021916908360100b6001600160881b0316021790555060016001607f1b03602560006101000a8154816001600160801b030219169083600f0b6001600160801b031602179055506001600160771b03602560106101000a8154816001600160781b030219169083600e0b6001600160781b0316021790555060016001606f1b03602660006101000a8154816001600160701b030219169083600d0b6001600160701b031602179055506001600160671b036026600e6101000a8154816001600160681b030219169083600c0b6001600160681b0316021790555060016001605f1b03602760006101000a8154816001600160601b030219169083600b0b6001600160601b031602179055506001600160571b036027600c6101000a8154816001600160581b030219169083600a0b6001600160581b0316021790555060016001604f1b03602860006101000a8154816001600160501b03021916908360090b6001600160501b031602179055506001600160471b036028600a6101000a8154816001600160481b03021916908360080b6001600160481b0316021790555060016001603f1b03602860136101000a8154816001600160401b03021916908360070b6001600160401b03160217905550667fffffffffffff602960006101000a81548166ffffffffffffff021916908360060b66ffffffffffffff160217905550657fffffffffff602960076101000a81548165ffffffffffff021916908360050b65ffffffffffff160217905550647fffffffff6029600d6101000a81548164ffffffffff021916908360040b64ffffffffff160217905550637fffffff602960126101000a81548163ffffffff021916908360030b63ffffffff160217905550627fffff602960166101000a81548162ffffff021916908360020b62ffffff160217905550617fff602960196101000a81548161ffff021916908360010b61ffff160217905550607f6029601b6101000a81548160ff021916908360000b60ff160217905550348015610b2257600080fd5b506123f680610b326000396000f3fe608060405234801561001057600080fd5b50600436106103d05760003560e01c806384ea7bbe116101ff578063bd418f9e1161011a578063e741ac68116100ad578063f26a96081161007c578063f26a960814610d62578063f739f4ec14610d8d578063fc4c3bc214610db3578063fe17b74014610dd957600080fd5b8063e741ac6814610cdd578063e849822014610d03578063ebf4e4b814610d29578063edb7f5ff14610d4f57600080fd5b8063ce6378e9116100e9578063ce6378e914610c3e578063dce17c8814610c5f578063ddcdff9714610c85578063e19089d114610cab57600080fd5b8063bd418f9e14610b97578063c390836e14610bc7578063c50b2b6b14610bf2578063cd3e2d8514610c1857600080fd5b80639bdd146811610192578063a615065011610161578063a615065014610af6578063a863423014610b21578063b36c27ab14610b47578063bcabc7ee14610b7157600080fd5b80639bdd146814610a435780639bff009a14610a765780639daa27ef14610a9c5780639f75111614610ac257600080fd5b806397641fcd116101ce57806397641fcd146109ac5780639a22d54c146109d25780639a4cc77d146109f85780639b976d9514610a1d57600080fd5b806384ea7bbe1461090e5780638cbf40e1146109395780638e7f4f2f14610960578063968d3e7e1461098657600080fd5b8063507bc286116102ef5780637034d7011161028257806376d9e7331161025157806376d9e7331461086957806382523713146108945780638312696f146108c2578063837c55c7146108e857600080fd5b80637034d701146107c1578063719ecc09146107e7578063742171971461080d5780637432afb61461083857600080fd5b8063564817a1116102be578063564817a114610714578063592e3e221461074157806361f7d7b41461076757806365f6185e1461079657600080fd5b8063507bc28614610672578063534d7316146106985780635368ad84146106c35780635523d807146106ee57600080fd5b80632ff4b10e116103675780633e3af8c8116103365780633e3af8c8146105da5780634751fe5c146106005780634b35628e146106265780634fdaa0721461064c57600080fd5b80632ff4b10e14610529578063327950321461055157806334defa5114610586578063354dbd93146105af57600080fd5b806320661992116103a357806320661992146104875780632930ada2146104b25780632ccae6db146104d85780632d1075be1461050357600080fd5b8063093da75a146103d557806315799c221461040557806316f2417d146104305780631c58457e1461045b575b600080fd5b6103e86103e3366004612356565b610dff565b6040516001600160b81b0390911681526020015b60405180910390f35b610418610413366004612356565b610e28565b6040516001600160c01b0390911681526020016103fc565b61044361043e366004612356565b610e4b565b6040516001600160a01b0390911681526020016103fc565b61046e610469366004612356565b610e6e565b60405167ffffffffffffffff90911681526020016103fc565b61049a610495366004612356565b610e99565b6040516001600160e81b0390911681526020016103fc565b6104c56104c0366004612356565b610ebc565b604051601d9190910b81526020016103fc565b6104eb6104e6366004612356565b610ed9565b6040516001600160a81b0390911681526020016103fc565b610516610511366004612356565b610efc565b60405160169190910b81526020016103fc565b61053c610537366004612356565b610f19565b60405163ffffffff90911681526020016103fc565b61056461055f366004612356565b610f40565b60405170ffffffffffffffffffffffffffffffffff90911681526020016103fc565b610599610594366004612356565b610f6d565b60405164ffffffffff90911681526020016103fc565b6105c26105bd366004612356565b610f95565b6040516001600160f81b0390911681526020016103fc565b6105ed6105e8366004612356565b610fb8565b604051600d9190910b81526020016103fc565b61061361060e366004612356565b610fd5565b60405160109190910b81526020016103fc565b610639610634366004612356565b610ff2565b60405160059190910b81526020016103fc565b61065f61065a366004612356565b61101a565b604051601a9190910b81526020016103fc565b610685610680366004612356565b611037565b60405160159190910b81526020016103fc565b6106ab6106a6366004612356565b611054565b6040516001600160c81b0390911681526020016103fc565b6106d66106d1366004612356565b611077565b6040516001600160901b0390911681526020016103fc565b6107016106fc366004612356565b61109a565b60405160179190910b81526020016103fc565b610727610722366004612356565b6110b7565b60405168ffffffffffffffffff90911681526020016103fc565b61075461074f366004612356565b6110ea565b60405160029190910b81526020016103fc565b61077a610775366004612356565b61110e565b6040516affffffffffffffffffffff90911681526020016103fc565b6107a96107a4366004612356565b61113c565b6040516001600160d81b0390911681526020016103fc565b6107d46107cf366004612356565b61115f565b60405160009190910b81526020016103fc565b6107fa6107f5366004612356565b611182565b604051600f9190910b81526020016103fc565b61082061081b366004612356565b61119f565b6040516001600160f01b0390911681526020016103fc565b61084b610846366004612356565b6111c2565b6040516cffffffffffffffffffffffffff90911681526020016103fc565b61087c610877366004612356565b6111f2565b60405166ffffffffffffff90911681526020016103fc565b6108a76108a2366004612356565b611215565b60405169ffffffffffffffffffff90911681526020016103fc565b6108d56108d0366004612356565b61123b565b604051600c9190910b81526020016103fc565b6108fb6108f6366004612356565b61125f565b60405160019190910b81526020016103fc565b61092161091c366004612356565b611283565b6040516001600160b01b0390911681526020016103fc565b61094c610947366004612356565b6112a6565b60405162ffffff90911681526020016103fc565b61097361096e366004612356565b6112cc565b604051601e9190910b81526020016103fc565b610999610994366004612356565b6112e9565b604051600e9190910b81526020016103fc565b6109bf6109ba366004612356565b61130d565b60405160119190910b81526020016103fc565b6109e56109e0366004612356565b61132a565b604051600a9190910b81526020016103fc565b610a0b610a06366004612356565b61134e565b60405160ff90911681526020016103fc565b610a30610a2b366004612356565b611372565b60405160099190910b81526020016103fc565b610a56610a51366004612356565b61138f565b6040516effffffffffffffffffffffffffffff90911681526020016103fc565b610a89610a84366004612356565b6113c1565b60405160189190910b81526020016103fc565b610aaf610aaa366004612356565b6113de565b60405160079190910b81526020016103fc565b610ad5610ad0366004612356565b611402565b6040516fffffffffffffffffffffffffffffffff90911681526020016103fc565b610b09610b04366004612356565b61142e565b6040516001600160e01b0390911681526020016103fc565b610b34610b2f366004612356565b611451565b604051600b9190910b81526020016103fc565b610b5a610b55366004612356565b61146e565b60405165ffffffffffff90911681526020016103fc565b610b84610b7f366004612356565b61149b565b60405160199190910b81526020016103fc565b610baa610ba5366004612356565b6114b8565b6040516bffffffffffffffffffffffff90911681526020016103fc565b610bda610bd5366004612356565b6114e0565b6040516001600160d01b0390911681526020016103fc565b610c05610c00366004612356565b611503565b604051601b9190910b81526020016103fc565b610c2b610c26366004612356565b611520565b60405160129190910b81526020016103fc565b610c51610c4c366004612356565b61153d565b6040519081526020016103fc565b610c72610c6d366004612356565b611548565b60405160149190910b81526020016103fc565b610c98610c93366004612356565b611565565b60405160039190910b81526020016103fc565b610cbe610cb9366004612356565b611589565b6040516dffffffffffffffffffffffffffff90911681526020016103fc565b610cf0610ceb366004612356565b6115b3565b60405160089190910b81526020016103fc565b610d16610d11366004612356565b6115de565b60405160069190910b81526020016103fc565b610d3c610d37366004612356565b6115fb565b60405160049190910b81526020016103fc565b610c51610d5d366004612356565b61161f565b610d75610d70366004612356565b611637565b6040516001600160981b0390911681526020016103fc565b610da0610d9b366004612356565b61165a565b604051601c9190910b81526020016103fc565b610dc6610dc1366004612356565b611677565b60405161ffff90911681526020016103fc565b610dec610de7366004612356565b61169c565b60405160139190910b81526020016103fc565b600954600090610e2290610e1d9084906001600160b81b0316612385565b6116b9565b92915050565b600854600090610e2290610e469084906001600160c01b0316612385565b6116f6565b600c54600090610e2290610e699084906001600160a01b0316612385565b61172a565b601354600090610e2290610e94908490600160981b900467ffffffffffffffff16612385565b61175e565b600354600090610e2290610eb79084906001600160e81b0316612385565b611795565b601754600090610e2290610ed4908490601d0b612398565b6117c9565b600b54600090610e2290610ef79084906001600160a81b0316612385565b6117fd565b601e54600090610e2290610f1490849060160b612398565b611831565b601454600090610e2290610f3b908490600160901b900463ffffffff16612385565b611860565b600f54600090610e2290610f6890849070ffffffffffffffffffffffffffffffffff16612385565b611891565b601454600090610e2290610f90908490600160681b900464ffffffffff16612385565b6118cf565b600154600090610e2290610fb39084906001600160f81b0316612385565b611901565b602654600090610e2290610fd0908490600d0b612398565b611935565b602454600090610e2290610fed90849060100b612398565b611964565b602954600090610e2290611015908490670100000000000000900460050b612398565b611993565b601a8054600091610e2291611032918591900b612398565b6119c2565b601f54600090610e229061104f90849060150b612398565b6119f1565b600754600090610e22906110729084906001600160c81b0316612385565b611a20565b600e54600090610e22906110959084906001600160901b0316612385565b611a54565b601d54600090610e22906110b290849060170b612398565b611a88565b601354600090610e22906110e59084906a0100000000000000000000900468ffffffffffffffffff16612385565b611ab7565b602954600090610e2290611109908490600160b01b900460020b612398565b611aed565b601254600090610e2290611137908490600160601b90046affffffffffffffffffffff16612385565b611b1c565b600554600090610e229061115a9084906001600160d81b0316612385565b611b54565b602954600090610e229061117d908490600160d81b9004840b612398565b611b88565b602554600090610e229061119a908490600f0b612398565b611bb7565b600254600090610e22906111bd9084906001600160f01b0316612385565b611be6565b601154600090610e22906111ed908490600160701b90046cffffffffffffffffffffffffff16612385565b611c1a565b601454600090610e229061121090849066ffffffffffffff16612385565b611c54565b601354600090610e229061123690849069ffffffffffffffffffff16612385565b611c88565b602654600090610e229061125a908490600160701b9004600c0b612398565b611cbf565b602954600090610e229061127e908490600160c81b900460010b612398565b611cee565b600a54600090610e22906112a19084906001600160b01b0316612385565b611d1d565b601454600090610e22906112c7908490600160b01b900462ffffff16612385565b611d51565b601654600090610e22906112e4908490601e0b612398565b611d81565b602554600090610e2290611308908490600160801b9004600e0b612398565b611db0565b602354600090610e229061132590849060110b612398565b611ddf565b602754600090610e2290611349908490600160601b9004600a0b612398565b611e0e565b601454600090610e229061136d908490600160d81b900460ff16612385565b611e3d565b602854600090610e229061138a90849060090b612398565b611e6b565b601054600090610e22906113bc908490600160801b90046effffffffffffffffffffffffffffff16612385565b611e9a565b601c54600090610e22906113d990849060180b612398565b611ed6565b602854600090610e22906113fd908490600160981b900460070b612398565b611f05565b601054600090610e22906114299084906fffffffffffffffffffffffffffffffff16612385565b611f36565b600454600090610e229061144c9084906001600160e01b0316612385565b611f73565b602754600090610e2290611469908490600b0b612398565b611fa7565b601454600090610e2290611496908490670100000000000000900465ffffffffffff16612385565b611fd6565b601b54600090610e22906114b390849060190b612398565b612009565b601254600090610e22906114db9084906bffffffffffffffffffffffff16612385565b612038565b600654600090610e22906114fe9084906001600160d01b0316612385565b612071565b601954600090610e229061151b908490601b0b612398565b6120a5565b602254600090610e229061153890849060120b612398565b6120d4565b6000610e2282612103565b602054600090610e229061156090849060140b612398565b612129565b602954600090610e2290611584908490600160901b900460030b612398565b612158565b601154600090610e22906115ae9084906dffffffffffffffffffffffffffff16612385565b612187565b602854600090610e22906115d99084906a0100000000000000000000900460080b612398565b6121c2565b602954600090610e22906115f690849060060b612398565b6121f1565b602954600090610e229061161a908490600160681b900460040b612398565b612220565b6000610e22826015546116329190612385565b61224f565b600d54600090610e22906116559084906001600160981b0316612385565b612295565b601854600090610e2290611672908490601c0b612398565b6122c9565b601454600090610e2290611697908490600160c81b900461ffff16612385565b6122f8565b602154600090610e22906116b490849060130b612398565b612327565b60006001600160b81b038211156116f2576040516306dfcc6560e41b815260b86004820152602481018390526044015b60405180910390fd5b5090565b60006001600160c01b038211156116f2576040516306dfcc6560e41b815260c06004820152602481018390526044016116e9565b60006001600160a01b038211156116f2576040516306dfcc6560e41b815260a06004820152602481018390526044016116e9565b600067ffffffffffffffff8211156116f257604080516306dfcc6560e41b81526004810191909152602481018390526044016116e9565b60006001600160e81b038211156116f2576040516306dfcc6560e41b815260e86004820152602481018390526044016116e9565b80601d81900b81146117f85760405163327269a760e01b815260f06004820152602481018390526044016116e9565b919050565b60006001600160a81b038211156116f2576040516306dfcc6560e41b815260a86004820152602481018390526044016116e9565b80601681900b81146117f85760405163327269a760e01b815260b86004820152602481018390526044016116e9565b600063ffffffff8211156116f2576040516306dfcc6560e41b815260206004820152602481018390526044016116e9565b600070ffffffffffffffffffffffffffffffffff8211156116f2576040516306dfcc6560e41b815260886004820152602481018390526044016116e9565b600064ffffffffff8211156116f2576040516306dfcc6560e41b815260286004820152602481018390526044016116e9565b60006001600160f81b038211156116f2576040516306dfcc6560e41b815260f86004820152602481018390526044016116e9565b80600d81900b81146117f85760405163327269a760e01b815260706004820152602481018390526044016116e9565b80601081900b81146117f85760405163327269a760e01b815260886004820152602481018390526044016116e9565b80600581900b81146117f85760405163327269a760e01b815260306004820152602481018390526044016116e9565b80601a81900b81146117f85760405163327269a760e01b815260d86004820152602481018390526044016116e9565b80601581900b81146117f85760405163327269a760e01b815260b06004820152602481018390526044016116e9565b60006001600160c81b038211156116f2576040516306dfcc6560e41b815260c86004820152602481018390526044016116e9565b60006001600160901b038211156116f2576040516306dfcc6560e41b815260906004820152602481018390526044016116e9565b80601781900b81146117f85760405163327269a760e01b815260c06004820152602481018390526044016116e9565b600068ffffffffffffffffff8211156116f2576040516306dfcc6560e41b815260486004820152602481018390526044016116e9565b80600281900b81146117f85760405163327269a760e01b815260186004820152602481018390526044016116e9565b60006affffffffffffffffffffff8211156116f2576040516306dfcc6560e41b815260586004820152602481018390526044016116e9565b60006001600160d81b038211156116f2576040516306dfcc6560e41b815260d86004820152602481018390526044016116e9565b80600081900b81146117f85760405163327269a760e01b815260086004820152602481018390526044016116e9565b80600f81900b81146117f85760405163327269a760e01b815260806004820152602481018390526044016116e9565b60006001600160f01b038211156116f2576040516306dfcc6560e41b815260f06004820152602481018390526044016116e9565b60006cffffffffffffffffffffffffff8211156116f2576040516306dfcc6560e41b815260686004820152602481018390526044016116e9565b600066ffffffffffffff8211156116f2576040516306dfcc6560e41b815260386004820152602481018390526044016116e9565b600069ffffffffffffffffffff8211156116f2576040516306dfcc6560e41b815260506004820152602481018390526044016116e9565b80600c81900b81146117f85760405163327269a760e01b815260686004820152602481018390526044016116e9565b80600181900b81146117f85760405163327269a760e01b815260106004820152602481018390526044016116e9565b60006001600160b01b038211156116f2576040516306dfcc6560e41b815260b06004820152602481018390526044016116e9565b600062ffffff8211156116f2576040516306dfcc6560e41b815260186004820152602481018390526044016116e9565b80601e81900b81146117f85760405163327269a760e01b815260f86004820152602481018390526044016116e9565b80600e81900b81146117f85760405163327269a760e01b815260786004820152602481018390526044016116e9565b80601181900b81146117f85760405163327269a760e01b815260906004820152602481018390526044016116e9565b80600a81900b81146117f85760405163327269a760e01b815260586004820152602481018390526044016116e9565b600060ff8211156116f2576040516306dfcc6560e41b815260086004820152602481018390526044016116e9565b80600981900b81146117f85760405163327269a760e01b815260506004820152602481018390526044016116e9565b60006effffffffffffffffffffffffffffff8211156116f2576040516306dfcc6560e41b815260786004820152602481018390526044016116e9565b80601881900b81146117f85760405163327269a760e01b815260c86004820152602481018390526044016116e9565b80600781900b81146117f8576040805163327269a760e01b81526004810191909152602481018390526044016116e9565b60006fffffffffffffffffffffffffffffffff8211156116f2576040516306dfcc6560e41b815260806004820152602481018390526044016116e9565b60006001600160e01b038211156116f2576040516306dfcc6560e41b815260e06004820152602481018390526044016116e9565b80600b81900b81146117f85760405163327269a760e01b815260606004820152602481018390526044016116e9565b600065ffffffffffff8211156116f2576040516306dfcc6560e41b815260306004820152602481018390526044016116e9565b80601981900b81146117f85760405163327269a760e01b815260d06004820152602481018390526044016116e9565b60006bffffffffffffffffffffffff8211156116f2576040516306dfcc6560e41b815260606004820152602481018390526044016116e9565b60006001600160d01b038211156116f2576040516306dfcc6560e41b815260d06004820152602481018390526044016116e9565b80601b81900b81146117f85760405163327269a760e01b815260e06004820152602481018390526044016116e9565b80601281900b81146117f85760405163327269a760e01b815260986004820152602481018390526044016116e9565b6000808212156116f257604051635467221960e11b8152600481018390526024016116e9565b80601481900b81146117f85760405163327269a760e01b815260a86004820152602481018390526044016116e9565b80600381900b81146117f85760405163327269a760e01b815260206004820152602481018390526044016116e9565b60006dffffffffffffffffffffffffffff8211156116f2576040516306dfcc6560e41b815260706004820152602481018390526044016116e9565b80600881900b81146117f85760405163327269a760e01b815260486004820152602481018390526044016116e9565b80600681900b81146117f85760405163327269a760e01b815260386004820152602481018390526044016116e9565b80600481900b81146117f85760405163327269a760e01b815260286004820152602481018390526044016116e9565b60007f7fffffffffffffffffffffffffffffffffffffffffffffffffffffffffffffff8211156116f25760405163123baf0360e11b8152600481018390526024016116e9565b60006001600160981b038211156116f2576040516306dfcc6560e41b815260986004820152602481018390526044016116e9565b80601c81900b81146117f85760405163327269a760e01b815260e86004820152602481018390526044016116e9565b600061ffff8211156116f2576040516306dfcc6560e41b815260106004820152602481018390526044016116e9565b80601381900b81146117f85760405163327269a760e01b815260a06004820152602481018390526044016116e9565b60006020828403121561236857600080fd5b5035919050565b634e487b7160e01b600052601160045260246000fd5b80820180821115610e2257610e2261236f565b80820182811260008312801582168215821617156123b8576123b861236f565b50509291505056fea2646970667358221220306e048390644922cc81d71a6879bdd3dd59b4dc60894700e0b0e4627182352864736f6c63430008140033",
  "linkReferences": {},
  "deployedLinkReferences": {}
}