{
  "_format": "hh-sol-artifact-1",
  "contractName": "HtsPrecompileMock",
  "sourceName": "contracts/mocks/hts-precompile/HtsPrecompileMock.sol",
  "abi": [
    {
      "inputs": [],
      "stateMutability": "nonpayable",
      "type": "constructor"
    },
    {
      "inputs": [
        {
          "internalType": "int64",
          "name": "responseCode",
          "type": "int64"
        }
      ],
      "name": "HtsPrecompileError",
      "type": "error"
    },
    {
      "inputs": [
        {
          "internalType": "address",
          "name": "token",
          "type": "address"
        },
        {
          "internalType": "address",
          "name": "owner",
          "type": "address"
        },
        {
          "internalType": "address",
          "name": "spender",
          "type": "address"
        }
      ],
      "name": "allowance",
      "outputs": [
        {
          "internalType": "int64",
          "name": "responseCode",
          "type": "int64"
        },
        {
          "internalType": "uint256",
          "name": "allowance",
          "type": "uint256"
        }
      ],
      "stateMutability": "view",
      "type": "function"
    },
    {
      "inputs": [
        {
          "internalType": "address",
          "name": "token",
          "type": "address"
        },
        {
          "internalType": "address",
          "name": "spender",
          "type": "address"
        },
        {
          "internalType": "uint256",
          "name": "amount",
          "type": "uint256"
        }
      ],
      "name": "approve",
      "outputs": [
        {
          "internalType": "int64",
          "name": "responseCode",
          "type": "int64"
        }
      ],
      "stateMutability": "nonpayable",
      "type": "function"
    },
    {
      "inputs": [
        {
          "internalType": "address",
          "name": "token",
          "type": "address"
        },
        {
          "internalType": "address",
          "name": "approved",
          "type": "address"
        },
        {
          "internalType": "uint256",
          "name": "serialNumber",
          "type": "uint256"
        }
      ],
      "name": "approveNFT",
      "outputs": [
        {
          "internalType": "int64",
          "name": "responseCode",
          "type": "int64"
        }
      ],
      "stateMutability": "nonpayable",
      "type": "function"
    },
    {
      "inputs": [
        {
          "internalType": "address",
          "name": "account",
          "type": "address"
        },
        {
          "internalType": "address",
          "name": "token",
          "type": "address"
        }
      ],
      "name": "associateToken",
      "outputs": [
        {
          "internalType": "int64",
          "name": "responseCode",
          "type": "int64"
        }
      ],
      "stateMutability": "nonpayable",
      "type": "function"
    },
    {
      "inputs": [
        {
          "internalType": "address",
          "name": "account",
          "type": "address"
        },
        {
          "internalType": "address[]",
          "name": "tokens",
          "type": "address[]"
        }
      ],
      "name": "associateTokens",
      "outputs": [
        {
          "internalType": "int64",
          "name": "responseCode",
          "type": "int64"
        }
      ],
      "stateMutability": "nonpayable",
      "type": "function"
    },
    {
      "inputs": [
        {
          "internalType": "address",
          "name": "token",
          "type": "address"
        },
        {
          "internalType": "int64",
          "name": "amount",
          "type": "int64"
        },
        {
          "internalType": "int64[]",
          "name": "serialNumbers",
          "type": "int64[]"
        }
      ],
      "name": "burnToken",
      "outputs": [
        {
          "internalType": "int64",
          "name": "responseCode",
          "type": "int64"
        },
        {
          "internalType": "int64",
          "name": "newTotalSupply",
          "type": "int64"
        }
      ],
      "stateMutability": "nonpayable",
      "type": "function"
    },
    {
      "inputs": [
        {
          "components": [
            {
              "internalType": "string",
              "name": "name",
              "type": "string"
            },
            {
              "internalType": "string",
              "name": "symbol",
              "type": "string"
            },
            {
              "internalType": "address",
              "name": "treasury",
              "type": "address"
            },
            {
              "internalType": "string",
              "name": "memo",
              "type": "string"
            },
            {
              "internalType": "bool",
              "name": "tokenSupplyType",
              "type": "bool"
            },
            {
              "internalType": "int64",
              "name": "maxSupply",
              "type": "int64"
            },
            {
              "internalType": "bool",
              "name": "freezeDefault",
              "type": "bool"
            },
            {
              "components": [
                {
                  "internalType": "uint256",
                  "name": "keyType",
                  "type": "uint256"
                },
                {
                  "components": [
                    {
                      "internalType": "bool",
                      "name": "inheritAccountKey",
                      "type": "bool"
                    },
                    {
                      "internalType": "address",
                      "name": "contractId",
                      "type": "address"
                    },
                    {
                      "internalType": "bytes",
                      "name": "ed25519",
                      "type": "bytes"
                    },
                    {
                      "internalType": "bytes",
                      "name": "ECDSA_secp256k1",
                      "type": "bytes"
                    },
                    {
                      "internalType": "address",
                      "name": "delegatableContractId",
                      "type": "address"
                    }
                  ],
                  "internalType": "struct IHederaTokenService.KeyValue",
                  "name": "key",
                  "type": "tuple"
                }
              ],
              "internalType": "struct IHederaTokenService.TokenKey[]",
              "name": "tokenKeys",
              "type": "tuple[]"
            },
            {
              "components": [
                {
                  "internalType": "int64",
                  "name": "second",
                  "type": "int64"
                },
                {
                  "internalType": "address",
                  "name": "autoRenewAccount",
                  "type": "address"
                },
                {
                  "internalType": "int64",
                  "name": "autoRenewPeriod",
                  "type": "int64"
                }
              ],
              "internalType": "struct IHederaTokenService.Expiry",
              "name": "expiry",
              "type": "tuple"
            }
          ],
          "internalType": "struct IHederaTokenService.HederaToken",
          "name": "token",
          "type": "tuple"
        },
        {
          "internalType": "int64",
          "name": "initialTotalSupply",
          "type": "int64"
        },
        {
          "internalType": "int32",
          "name": "decimals",
          "type": "int32"
        }
      ],
      "name": "createFungibleToken",
      "outputs": [
        {
          "internalType": "int64",
          "name": "responseCode",
          "type": "int64"
        },
        {
          "internalType": "address",
          "name": "tokenAddress",
          "type": "address"
        }
      ],
      "stateMutability": "payable",
      "type": "function"
    },
    {
      "inputs": [
        {
          "components": [
            {
              "internalType": "string",
              "name": "name",
              "type": "string"
            },
            {
              "internalType": "string",
              "name": "symbol",
              "type": "string"
            },
            {
              "internalType": "address",
              "name": "treasury",
              "type": "address"
            },
            {
              "internalType": "string",
              "name": "memo",
              "type": "string"
            },
            {
              "internalType": "bool",
              "name": "tokenSupplyType",
              "type": "bool"
            },
            {
              "internalType": "int64",
              "name": "maxSupply",
              "type": "int64"
            },
            {
              "internalType": "bool",
              "name": "freezeDefault",
              "type": "bool"
            },
            {
              "components": [
                {
                  "internalType": "uint256",
                  "name": "keyType",
                  "type": "uint256"
                },
                {
                  "components": [
                    {
                      "internalType": "bool",
                      "name": "inheritAccountKey",
                      "type": "bool"
                    },
                    {
                      "internalType": "address",
                      "name": "contractId",
                      "type": "address"
                    },
                    {
                      "internalType": "bytes",
                      "name": "ed25519",
                      "type": "bytes"
                    },
                    {
                      "internalType": "bytes",
                      "name": "ECDSA_secp256k1",
                      "type": "bytes"
                    },
                    {
                      "internalType": "address",
                      "name": "delegatableContractId",
                      "type": "address"
                    }
                  ],
                  "internalType": "struct IHederaTokenService.KeyValue",
                  "name": "key",
                  "type": "tuple"
                }
              ],
              "internalType": "struct IHederaTokenService.TokenKey[]",
              "name": "tokenKeys",
              "type": "tuple[]"
            },
            {
              "components": [
                {
                  "internalType": "int64",
                  "name": "second",
                  "type": "int64"
                },
                {
                  "internalType": "address",
                  "name": "autoRenewAccount",
                  "type": "address"
                },
                {
                  "internalType": "int64",
                  "name": "autoRenewPeriod",
                  "type": "int64"
                }
              ],
              "internalType": "struct IHederaTokenService.Expiry",
              "name": "expiry",
              "type": "tuple"
            }
          ],
          "internalType": "struct IHederaTokenService.HederaToken",
          "name": "token",
          "type": "tuple"
        },
        {
          "internalType": "int64",
          "name": "initialTotalSupply",
          "type": "int64"
        },
        {
          "internalType": "int32",
          "name": "decimals",
          "type": "int32"
        },
        {
          "components": [
            {
              "internalType": "int64",
              "name": "amount",
              "type": "int64"
            },
            {
              "internalType": "address",
              "name": "tokenId",
              "type": "address"
            },
            {
              "internalType": "bool",
              "name": "useHbarsForPayment",
              "type": "bool"
            },
            {
              "internalType": "bool",
              "name": "useCurrentTokenForPayment",
              "type": "bool"
            },
            {
              "internalType": "address",
              "name": "feeCollector",
              "type": "address"
            }
          ],
          "internalType": "struct IHederaTokenService.FixedFee[]",
          "name": "fixedFees",
          "type": "tuple[]"
        },
        {
          "components": [
            {
              "internalType": "int64",
              "name": "numerator",
              "type": "int64"
            },
            {
              "internalType": "int64",
              "name": "denominator",
              "type": "int64"
            },
            {
              "internalType": "int64",
              "name": "minimumAmount",
              "type": "int64"
            },
            {
              "internalType": "int64",
              "name": "maximumAmount",
              "type": "int64"
            },
            {
              "internalType": "bool",
              "name": "netOfTransfers",
              "type": "bool"
            },
            {
              "internalType": "address",
              "name": "feeCollector",
              "type": "address"
            }
          ],
          "internalType": "struct IHederaTokenService.FractionalFee[]",
          "name": "fractionalFees",
          "type": "tuple[]"
        }
      ],
      "name": "createFungibleTokenWithCustomFees",
      "outputs": [
        {
          "internalType": "int64",
          "name": "responseCode",
          "type": "int64"
        },
        {
          "internalType": "address",
          "name": "tokenAddress",
          "type": "address"
        }
      ],
      "stateMutability": "payable",
      "type": "function"
    },
    {
      "inputs": [
        {
          "components": [
            {
              "internalType": "string",
              "name": "name",
              "type": "string"
            },
            {
              "internalType": "string",
              "name": "symbol",
              "type": "string"
            },
            {
              "internalType": "address",
              "name": "treasury",
              "type": "address"
            },
            {
              "internalType": "string",
              "name": "memo",
              "type": "string"
            },
            {
              "internalType": "bool",
              "name": "tokenSupplyType",
              "type": "bool"
            },
            {
              "internalType": "int64",
              "name": "maxSupply",
              "type": "int64"
            },
            {
              "internalType": "bool",
              "name": "freezeDefault",
              "type": "bool"
            },
            {
              "components": [
                {
                  "internalType": "uint256",
                  "name": "keyType",
                  "type": "uint256"
                },
                {
                  "components": [
                    {
                      "internalType": "bool",
                      "name": "inheritAccountKey",
                      "type": "bool"
                    },
                    {
                      "internalType": "address",
                      "name": "contractId",
                      "type": "address"
                    },
                    {
                      "internalType": "bytes",
                      "name": "ed25519",
                      "type": "bytes"
                    },
                    {
                      "internalType": "bytes",
                      "name": "ECDSA_secp256k1",
                      "type": "bytes"
                    },
                    {
                      "internalType": "address",
                      "name": "delegatableContractId",
                      "type": "address"
                    }
                  ],
                  "internalType": "struct IHederaTokenService.KeyValue",
                  "name": "key",
                  "type": "tuple"
                }
              ],
              "internalType": "struct IHederaTokenService.TokenKey[]",
              "name": "tokenKeys",
              "type": "tuple[]"
            },
            {
              "components": [
                {
                  "internalType": "int64",
                  "name": "second",
                  "type": "int64"
                },
                {
                  "internalType": "address",
                  "name": "autoRenewAccount",
                  "type": "address"
                },
                {
                  "internalType": "int64",
                  "name": "autoRenewPeriod",
                  "type": "int64"
                }
              ],
              "internalType": "struct IHederaTokenService.Expiry",
              "name": "expiry",
              "type": "tuple"
            }
          ],
          "internalType": "struct IHederaTokenService.HederaToken",
          "name": "token",
          "type": "tuple"
        }
      ],
      "name": "createNonFungibleToken",
      "outputs": [
        {
          "internalType": "int64",
          "name": "responseCode",
          "type": "int64"
        },
        {
          "internalType": "address",
          "name": "tokenAddress",
          "type": "address"
        }
      ],
      "stateMutability": "payable",
      "type": "function"
    },
    {
      "inputs": [
        {
          "components": [
            {
              "internalType": "string",
              "name": "name",
              "type": "string"
            },
            {
              "internalType": "string",
              "name": "symbol",
              "type": "string"
            },
            {
              "internalType": "address",
              "name": "treasury",
              "type": "address"
            },
            {
              "internalType": "string",
              "name": "memo",
              "type": "string"
            },
            {
              "internalType": "bool",
              "name": "tokenSupplyType",
              "type": "bool"
            },
            {
              "internalType": "int64",
              "name": "maxSupply",
              "type": "int64"
            },
            {
              "internalType": "bool",
              "name": "freezeDefault",
              "type": "bool"
            },
            {
              "components": [
                {
                  "internalType": "uint256",
                  "name": "keyType",
                  "type": "uint256"
                },
                {
                  "components": [
                    {
                      "internalType": "bool",
                      "name": "inheritAccountKey",
                      "type": "bool"
                    },
                    {
                      "internalType": "address",
                      "name": "contractId",
                      "type": "address"
                    },
                    {
                      "internalType": "bytes",
                      "name": "ed25519",
                      "type": "bytes"
                    },
                    {
                      "internalType": "bytes",
                      "name": "ECDSA_secp256k1",
                      "type": "bytes"
                    },
                    {
                      "internalType": "address",
                      "name": "delegatableContractId",
                      "type": "address"
                    }
                  ],
                  "internalType": "struct IHederaTokenService.KeyValue",
                  "name": "key",
                  "type": "tuple"
                }
              ],
              "internalType": "struct IHederaTokenService.TokenKey[]",
              "name": "tokenKeys",
              "type": "tuple[]"
            },
            {
              "components": [
                {
                  "internalType": "int64",
                  "name": "second",
                  "type": "int64"
                },
                {
                  "internalType": "address",
                  "name": "autoRenewAccount",
                  "type": "address"
                },
                {
                  "internalType": "int64",
                  "name": "autoRenewPeriod",
                  "type": "int64"
                }
              ],
              "internalType": "struct IHederaTokenService.Expiry",
              "name": "expiry",
              "type": "tuple"
            }
          ],
          "internalType": "struct IHederaTokenService.HederaToken",
          "name": "token",
          "type": "tuple"
        },
        {
          "components": [
            {
              "internalType": "int64",
              "name": "amount",
              "type": "int64"
            },
            {
              "internalType": "address",
              "name": "tokenId",
              "type": "address"
            },
            {
              "internalType": "bool",
              "name": "useHbarsForPayment",
              "type": "bool"
            },
            {
              "internalType": "bool",
              "name": "useCurrentTokenForPayment",
              "type": "bool"
            },
            {
              "internalType": "address",
              "name": "feeCollector",
              "type": "address"
            }
          ],
          "internalType": "struct IHederaTokenService.FixedFee[]",
          "name": "fixedFees",
          "type": "tuple[]"
        },
        {
          "components": [
            {
              "internalType": "int64",
              "name": "numerator",
              "type": "int64"
            },
            {
              "internalType": "int64",
              "name": "denominator",
              "type": "int64"
            },
            {
              "internalType": "int64",
              "name": "amount",
              "type": "int64"
            },
            {
              "internalType": "address",
              "name": "tokenId",
              "type": "address"
            },
            {
              "internalType": "bool",
              "name": "useHbarsForPayment",
              "type": "bool"
            },
            {
              "internalType": "address",
              "name": "feeCollector",
              "type": "address"
            }
          ],
          "internalType": "struct IHederaTokenService.RoyaltyFee[]",
          "name": "royaltyFees",
          "type": "tuple[]"
        }
      ],
      "name": "createNonFungibleTokenWithCustomFees",
      "outputs": [
        {
          "internalType": "int64",
          "name": "responseCode",
          "type": "int64"
        },
        {
          "internalType": "address",
          "name": "tokenAddress",
          "type": "address"
        }
      ],
      "stateMutability": "payable",
      "type": "function"
    },
    {
      "inputs": [
        {
          "components": [
            {
              "components": [
                {
                  "internalType": "address",
                  "name": "accountID",
                  "type": "address"
                },
                {
                  "internalType": "int64",
                  "name": "amount",
                  "type": "int64"
                },
                {
                  "internalType": "bool",
                  "name": "isApproval",
                  "type": "bool"
                }
              ],
              "internalType": "struct IHederaTokenService.AccountAmount[]",
              "name": "transfers",
              "type": "tuple[]"
            }
          ],
          "internalType": "struct IHederaTokenService.TransferList",
          "name": "transferList",
          "type": "tuple"
        },
        {
          "components": [
            {
              "internalType": "address",
              "name": "token",
              "type": "address"
            },
            {
              "components": [
                {
                  "internalType": "address",
                  "name": "accountID",
                  "type": "address"
                },
                {
                  "internalType": "int64",
                  "name": "amount",
                  "type": "int64"
                },
                {
                  "internalType": "bool",
                  "name": "isApproval",
                  "type": "bool"
                }
              ],
              "internalType": "struct IHederaTokenService.AccountAmount[]",
              "name": "transfers",
              "type": "tuple[]"
            },
            {
              "components": [
                {
                  "internalType": "address",
                  "name": "senderAccountID",
                  "type": "address"
                },
                {
                  "internalType": "address",
                  "name": "receiverAccountID",
                  "type": "address"
                },
                {
                  "internalType": "int64",
                  "name": "serialNumber",
                  "type": "int64"
                },
                {
                  "internalType": "bool",
                  "name": "isApproval",
                  "type": "bool"
                }
              ],
              "internalType": "struct IHederaTokenService.NftTransfer[]",
              "name": "nftTransfers",
              "type": "tuple[]"
            }
          ],
          "internalType": "struct IHederaTokenService.TokenTransferList[]",
          "name": "tokenTransfers",
          "type": "tuple[]"
        }
      ],
      "name": "cryptoTransfer",
      "outputs": [
        {
          "internalType": "int64",
          "name": "responseCode",
          "type": "int64"
        }
      ],
      "stateMutability": "nonpayable",
      "type": "function"
    },
    {
      "inputs": [
        {
          "internalType": "address",
          "name": "token",
          "type": "address"
        }
      ],
      "name": "deleteToken",
      "outputs": [
        {
          "internalType": "int64",
          "name": "responseCode",
          "type": "int64"
        }
      ],
      "stateMutability": "nonpayable",
      "type": "function"
    },
    {
      "inputs": [
        {
          "internalType": "address",
          "name": "account",
          "type": "address"
        },
        {
          "internalType": "address",
          "name": "token",
          "type": "address"
        }
      ],
      "name": "dissociateToken",
      "outputs": [
        {
          "internalType": "int64",
          "name": "responseCode",
          "type": "int64"
        }
      ],
      "stateMutability": "nonpayable",
      "type": "function"
    },
    {
      "inputs": [
        {
          "internalType": "address",
          "name": "account",
          "type": "address"
        },
        {
          "internalType": "address[]",
          "name": "tokens",
          "type": "address[]"
        }
      ],
      "name": "dissociateTokens",
      "outputs": [
        {
          "internalType": "int64",
          "name": "responseCode",
          "type": "int64"
        }
      ],
      "stateMutability": "nonpayable",
      "type": "function"
    },
    {
      "inputs": [
        {
          "internalType": "address",
          "name": "token",
          "type": "address"
        },
        {
          "internalType": "address",
          "name": "account",
          "type": "address"
        }
      ],
      "name": "freezeToken",
      "outputs": [
        {
          "internalType": "int64",
          "name": "responseCode",
          "type": "int64"
        }
      ],
      "stateMutability": "nonpayable",
      "type": "function"
    },
    {
      "inputs": [
        {
          "internalType": "address",
          "name": "token",
          "type": "address"
        },
        {
          "internalType": "uint256",
          "name": "serialNumber",
          "type": "uint256"
        }
      ],
      "name": "getApproved",
      "outputs": [
        {
          "internalType": "int64",
          "name": "responseCode",
          "type": "int64"
        },
        {
          "internalType": "address",
          "name": "approved",
          "type": "address"
        }
      ],
      "stateMutability": "view",
      "type": "function"
    },
    {
      "inputs": [
        {
          "internalType": "address",
          "name": "token",
          "type": "address"
        }
      ],
      "name": "getFungibleTokenInfo",
      "outputs": [
        {
          "internalType": "int64",
          "name": "responseCode",
          "type": "int64"
        },
        {
          "components": [
            {
              "components": [
                {
                  "components": [
                    {
                      "internalType": "string",
                      "name": "name",
                      "type": "string"
                    },
                    {
                      "internalType": "string",
                      "name": "symbol",
                      "type": "string"
                    },
                    {
                      "internalType": "address",
                      "name": "treasury",
                      "type": "address"
                    },
                    {
                      "internalType": "string",
                      "name": "memo",
                      "type": "string"
                    },
                    {
                      "internalType": "bool",
                      "name": "tokenSupplyType",
                      "type": "bool"
                    },
                    {
                      "internalType": "int64",
                      "name": "maxSupply",
                      "type": "int64"
                    },
                    {
                      "internalType": "bool",
                      "name": "freezeDefault",
                      "type": "bool"
                    },
                    {
                      "components": [
                        {
                          "internalType": "uint256",
                          "name": "keyType",
                          "type": "uint256"
                        },
                        {
                          "components": [
                            {
                              "internalType": "bool",
                              "name": "inheritAccountKey",
                              "type": "bool"
                            },
                            {
                              "internalType": "address",
                              "name": "contractId",
                              "type": "address"
                            },
                            {
                              "internalType": "bytes",
                              "name": "ed25519",
                              "type": "bytes"
                            },
                            {
                              "internalType": "bytes",
                              "name": "ECDSA_secp256k1",
                              "type": "bytes"
                            },
                            {
                              "internalType": "address",
                              "name": "delegatableContractId",
                              "type": "address"
                            }
                          ],
                          "internalType": "struct IHederaTokenService.KeyValue",
                          "name": "key",
                          "type": "tuple"
                        }
                      ],
                      "internalType": "struct IHederaTokenService.TokenKey[]",
                      "name": "tokenKeys",
                      "type": "tuple[]"
                    },
                    {
                      "components": [
                        {
                          "internalType": "int64",
                          "name": "second",
                          "type": "int64"
                        },
                        {
                          "internalType": "address",
                          "name": "autoRenewAccount",
                          "type": "address"
                        },
                        {
                          "internalType": "int64",
                          "name": "autoRenewPeriod",
                          "type": "int64"
                        }
                      ],
                      "internalType": "struct IHederaTokenService.Expiry",
                      "name": "expiry",
                      "type": "tuple"
                    }
                  ],
                  "internalType": "struct IHederaTokenService.HederaToken",
                  "name": "token",
                  "type": "tuple"
                },
                {
                  "internalType": "int64",
                  "name": "totalSupply",
                  "type": "int64"
                },
                {
                  "internalType": "bool",
                  "name": "deleted",
                  "type": "bool"
                },
                {
                  "internalType": "bool",
                  "name": "defaultKycStatus",
                  "type": "bool"
                },
                {
                  "internalType": "bool",
                  "name": "pauseStatus",
                  "type": "bool"
                },
                {
                  "components": [
                    {
                      "internalType": "int64",
                      "name": "amount",
                      "type": "int64"
                    },
                    {
                      "internalType": "address",
                      "name": "tokenId",
                      "type": "address"
                    },
                    {
                      "internalType": "bool",
                      "name": "useHbarsForPayment",
                      "type": "bool"
                    },
                    {
                      "internalType": "bool",
                      "name": "useCurrentTokenForPayment",
                      "type": "bool"
                    },
                    {
                      "internalType": "address",
                      "name": "feeCollector",
                      "type": "address"
                    }
                  ],
                  "internalType": "struct IHederaTokenService.FixedFee[]",
                  "name": "fixedFees",
                  "type": "tuple[]"
                },
                {
                  "components": [
                    {
                      "internalType": "int64",
                      "name": "numerator",
                      "type": "int64"
                    },
                    {
                      "internalType": "int64",
                      "name": "denominator",
                      "type": "int64"
                    },
                    {
                      "internalType": "int64",
                      "name": "minimumAmount",
                      "type": "int64"
                    },
                    {
                      "internalType": "int64",
                      "name": "maximumAmount",
                      "type": "int64"
                    },
                    {
                      "internalType": "bool",
                      "name": "netOfTransfers",
                      "type": "bool"
                    },
                    {
                      "internalType": "address",
                      "name": "feeCollector",
                      "type": "address"
                    }
                  ],
                  "internalType": "struct IHederaTokenService.FractionalFee[]",
                  "name": "fractionalFees",
                  "type": "tuple[]"
                },
                {
                  "components": [
                    {
                      "internalType": "int64",
                      "name": "numerator",
                      "type": "int64"
                    },
                    {
                      "internalType": "int64",
                      "name": "denominator",
                      "type": "int64"
                    },
                    {
                      "internalType": "int64",
                      "name": "amount",
                      "type": "int64"
                    },
                    {
                      "internalType": "address",
                      "name": "tokenId",
                      "type": "address"
                    },
                    {
                      "internalType": "bool",
                      "name": "useHbarsForPayment",
                      "type": "bool"
                    },
                    {
                      "internalType": "address",
                      "name": "feeCollector",
                      "type": "address"
                    }
                  ],
                  "internalType": "struct IHederaTokenService.RoyaltyFee[]",
                  "name": "royaltyFees",
                  "type": "tuple[]"
                },
                {
                  "internalType": "string",
                  "name": "ledgerId",
                  "type": "string"
                }
              ],
              "internalType": "struct IHederaTokenService.TokenInfo",
              "name": "tokenInfo",
              "type": "tuple"
            },
            {
              "internalType": "int32",
              "name": "decimals",
              "type": "int32"
            }
          ],
          "internalType": "struct IHederaTokenService.FungibleTokenInfo",
          "name": "fungibleTokenInfo",
          "type": "tuple"
        }
      ],
      "stateMutability": "view",
      "type": "function"
    },
    {
      "inputs": [
        {
          "internalType": "address",
          "name": "token",
          "type": "address"
        },
        {
          "internalType": "int64",
          "name": "serialNumber",
          "type": "int64"
        }
      ],
      "name": "getNonFungibleTokenInfo",
      "outputs": [
        {
          "internalType": "int64",
          "name": "responseCode",
          "type": "int64"
        },
        {
          "components": [
            {
              "components": [
                {
                  "components": [
                    {
                      "internalType": "string",
                      "name": "name",
                      "type": "string"
                    },
                    {
                      "internalType": "string",
                      "name": "symbol",
                      "type": "string"
                    },
                    {
                      "internalType": "address",
                      "name": "treasury",
                      "type": "address"
                    },
                    {
                      "internalType": "string",
                      "name": "memo",
                      "type": "string"
                    },
                    {
                      "internalType": "bool",
                      "name": "tokenSupplyType",
                      "type": "bool"
                    },
                    {
                      "internalType": "int64",
                      "name": "maxSupply",
                      "type": "int64"
                    },
                    {
                      "internalType": "bool",
                      "name": "freezeDefault",
                      "type": "bool"
                    },
                    {
                      "components": [
                        {
                          "internalType": "uint256",
                          "name": "keyType",
                          "type": "uint256"
                        },
                        {
                          "components": [
                            {
                              "internalType": "bool",
                              "name": "inheritAccountKey",
                              "type": "bool"
                            },
                            {
                              "internalType": "address",
                              "name": "contractId",
                              "type": "address"
                            },
                            {
                              "internalType": "bytes",
                              "name": "ed25519",
                              "type": "bytes"
                            },
                            {
                              "internalType": "bytes",
                              "name": "ECDSA_secp256k1",
                              "type": "bytes"
                            },
                            {
                              "internalType": "address",
                              "name": "delegatableContractId",
                              "type": "address"
                            }
                          ],
                          "internalType": "struct IHederaTokenService.KeyValue",
                          "name": "key",
                          "type": "tuple"
                        }
                      ],
                      "internalType": "struct IHederaTokenService.TokenKey[]",
                      "name": "tokenKeys",
                      "type": "tuple[]"
                    },
                    {
                      "components": [
                        {
                          "internalType": "int64",
                          "name": "second",
                          "type": "int64"
                        },
                        {
                          "internalType": "address",
                          "name": "autoRenewAccount",
                          "type": "address"
                        },
                        {
                          "internalType": "int64",
                          "name": "autoRenewPeriod",
                          "type": "int64"
                        }
                      ],
                      "internalType": "struct IHederaTokenService.Expiry",
                      "name": "expiry",
                      "type": "tuple"
                    }
                  ],
                  "internalType": "struct IHederaTokenService.HederaToken",
                  "name": "token",
                  "type": "tuple"
                },
                {
                  "internalType": "int64",
                  "name": "totalSupply",
                  "type": "int64"
                },
                {
                  "internalType": "bool",
                  "name": "deleted",
                  "type": "bool"
                },
                {
                  "internalType": "bool",
                  "name": "defaultKycStatus",
                  "type": "bool"
                },
                {
                  "internalType": "bool",
                  "name": "pauseStatus",
                  "type": "bool"
                },
                {
                  "components": [
                    {
                      "internalType": "int64",
                      "name": "amount",
                      "type": "int64"
                    },
                    {
                      "internalType": "address",
                      "name": "tokenId",
                      "type": "address"
                    },
                    {
                      "internalType": "bool",
                      "name": "useHbarsForPayment",
                      "type": "bool"
                    },
                    {
                      "internalType": "bool",
                      "name": "useCurrentTokenForPayment",
                      "type": "bool"
                    },
                    {
                      "internalType": "address",
                      "name": "feeCollector",
                      "type": "address"
                    }
                  ],
                  "internalType": "struct IHederaTokenService.FixedFee[]",
                  "name": "fixedFees",
                  "type": "tuple[]"
                },
                {
                  "components": [
                    {
                      "internalType": "int64",
                      "name": "numerator",
                      "type": "int64"
                    },
                    {
                      "internalType": "int64",
                      "name": "denominator",
                      "type": "int64"
                    },
                    {
                      "internalType": "int64",
                      "name": "minimumAmount",
                      "type": "int64"
                    },
                    {
                      "internalType": "int64",
                      "name": "maximumAmount",
                      "type": "int64"
                    },
                    {
                      "internalType": "bool",
                      "name": "netOfTransfers",
                      "type": "bool"
                    },
                    {
                      "internalType": "address",
                      "name": "feeCollector",
                      "type": "address"
                    }
                  ],
                  "internalType": "struct IHederaTokenService.FractionalFee[]",
                  "name": "fractionalFees",
                  "type": "tuple[]"
                },
                {
                  "components": [
                    {
                      "internalType": "int64",
                      "name": "numerator",
                      "type": "int64"
                    },
                    {
                      "internalType": "int64",
                      "name": "denominator",
                      "type": "int64"
                    },
                    {
                      "internalType": "int64",
                      "name": "amount",
                      "type": "int64"
                    },
                    {
                      "internalType": "address",
                      "name": "tokenId",
                      "type": "address"
                    },
                    {
                      "internalType": "bool",
                      "name": "useHbarsForPayment",
                      "type": "bool"
                    },
                    {
                      "internalType": "address",
                      "name": "feeCollector",
                      "type": "address"
                    }
                  ],
                  "internalType": "struct IHederaTokenService.RoyaltyFee[]",
                  "name": "royaltyFees",
                  "type": "tuple[]"
                },
                {
                  "internalType": "string",
                  "name": "ledgerId",
                  "type": "string"
                }
              ],
              "internalType": "struct IHederaTokenService.TokenInfo",
              "name": "tokenInfo",
              "type": "tuple"
            },
            {
              "internalType": "int64",
              "name": "serialNumber",
              "type": "int64"
            },
            {
              "internalType": "address",
              "name": "ownerId",
              "type": "address"
            },
            {
              "internalType": "int64",
              "name": "creationTime",
              "type": "int64"
            },
            {
              "internalType": "bytes",
              "name": "metadata",
              "type": "bytes"
            },
            {
              "internalType": "address",
              "name": "spenderId",
              "type": "address"
            }
          ],
          "internalType": "struct IHederaTokenService.NonFungibleTokenInfo",
          "name": "nonFungibleTokenInfo",
          "type": "tuple"
        }
      ],
      "stateMutability": "view",
      "type": "function"
    },
    {
      "inputs": [
        {
          "internalType": "address",
          "name": "token",
          "type": "address"
        }
      ],
      "name": "getTokenCustomFees",
      "outputs": [
        {
          "internalType": "int64",
          "name": "responseCode",
          "type": "int64"
        },
        {
          "components": [
            {
              "internalType": "int64",
              "name": "amount",
              "type": "int64"
            },
            {
              "internalType": "address",
              "name": "tokenId",
              "type": "address"
            },
            {
              "internalType": "bool",
              "name": "useHbarsForPayment",
              "type": "bool"
            },
            {
              "internalType": "bool",
              "name": "useCurrentTokenForPayment",
              "type": "bool"
            },
            {
              "internalType": "address",
              "name": "feeCollector",
              "type": "address"
            }
          ],
          "internalType": "struct IHederaTokenService.FixedFee[]",
          "name": "fixedFees",
          "type": "tuple[]"
        },
        {
          "components": [
            {
              "internalType": "int64",
              "name": "numerator",
              "type": "int64"
            },
            {
              "internalType": "int64",
              "name": "denominator",
              "type": "int64"
            },
            {
              "internalType": "int64",
              "name": "minimumAmount",
              "type": "int64"
            },
            {
              "internalType": "int64",
              "name": "maximumAmount",
              "type": "int64"
            },
            {
              "internalType": "bool",
              "name": "netOfTransfers",
              "type": "bool"
            },
            {
              "internalType": "address",
              "name": "feeCollector",
              "type": "address"
            }
          ],
          "internalType": "struct IHederaTokenService.FractionalFee[]",
          "name": "fractionalFees",
          "type": "tuple[]"
        },
        {
          "components": [
            {
              "internalType": "int64",
              "name": "numerator",
              "type": "int64"
            },
            {
              "internalType": "int64",
              "name": "denominator",
              "type": "int64"
            },
            {
              "internalType": "int64",
              "name": "amount",
              "type": "int64"
            },
            {
              "internalType": "address",
              "name": "tokenId",
              "type": "address"
            },
            {
              "internalType": "bool",
              "name": "useHbarsForPayment",
              "type": "bool"
            },
            {
              "internalType": "address",
              "name": "feeCollector",
              "type": "address"
            }
          ],
          "internalType": "struct IHederaTokenService.RoyaltyFee[]",
          "name": "royaltyFees",
          "type": "tuple[]"
        }
      ],
      "stateMutability": "view",
      "type": "function"
    },
    {
      "inputs": [
        {
          "internalType": "address",
          "name": "token",
          "type": "address"
        }
      ],
      "name": "getTokenDefaultFreezeStatus",
      "outputs": [
        {
          "internalType": "int64",
          "name": "responseCode",
          "type": "int64"
        },
        {
          "internalType": "bool",
          "name": "defaultFreezeStatus",
          "type": "bool"
        }
      ],
      "stateMutability": "view",
      "type": "function"
    },
    {
      "inputs": [
        {
          "internalType": "address",
          "name": "token",
          "type": "address"
        }
      ],
      "name": "getTokenDefaultKycStatus",
      "outputs": [
        {
          "internalType": "int64",
          "name": "responseCode",
          "type": "int64"
        },
        {
          "internalType": "bool",
          "name": "defaultKycStatus",
          "type": "bool"
        }
      ],
      "stateMutability": "view",
      "type": "function"
    },
    {
      "inputs": [
        {
          "internalType": "address",
          "name": "token",
          "type": "address"
        }
      ],
      "name": "getTokenExpiryInfo",
      "outputs": [
        {
          "internalType": "int64",
          "name": "responseCode",
          "type": "int64"
        },
        {
          "components": [
            {
              "internalType": "int64",
              "name": "second",
              "type": "int64"
            },
            {
              "internalType": "address",
              "name": "autoRenewAccount",
              "type": "address"
            },
            {
              "internalType": "int64",
              "name": "autoRenewPeriod",
              "type": "int64"
            }
          ],
          "internalType": "struct IHederaTokenService.Expiry",
          "name": "expiry",
          "type": "tuple"
        }
      ],
      "stateMutability": "view",
      "type": "function"
    },
    {
      "inputs": [
        {
          "internalType": "address",
          "name": "token",
          "type": "address"
        }
      ],
      "name": "getTokenInfo",
      "outputs": [
        {
          "internalType": "int64",
          "name": "responseCode",
          "type": "int64"
        },
        {
          "components": [
            {
              "components": [
                {
                  "internalType": "string",
                  "name": "name",
                  "type": "string"
                },
                {
                  "internalType": "string",
                  "name": "symbol",
                  "type": "string"
                },
                {
                  "internalType": "address",
                  "name": "treasury",
                  "type": "address"
                },
                {
                  "internalType": "string",
                  "name": "memo",
                  "type": "string"
                },
                {
                  "internalType": "bool",
                  "name": "tokenSupplyType",
                  "type": "bool"
                },
                {
                  "internalType": "int64",
                  "name": "maxSupply",
                  "type": "int64"
                },
                {
                  "internalType": "bool",
                  "name": "freezeDefault",
                  "type": "bool"
                },
                {
                  "components": [
                    {
                      "internalType": "uint256",
                      "name": "keyType",
                      "type": "uint256"
                    },
                    {
                      "components": [
                        {
                          "internalType": "bool",
                          "name": "inheritAccountKey",
                          "type": "bool"
                        },
                        {
                          "internalType": "address",
                          "name": "contractId",
                          "type": "address"
                        },
                        {
                          "internalType": "bytes",
                          "name": "ed25519",
                          "type": "bytes"
                        },
                        {
                          "internalType": "bytes",
                          "name": "ECDSA_secp256k1",
                          "type": "bytes"
                        },
                        {
                          "internalType": "address",
                          "name": "delegatableContractId",
                          "type": "address"
                        }
                      ],
                      "internalType": "struct IHederaTokenService.KeyValue",
                      "name": "key",
                      "type": "tuple"
                    }
                  ],
                  "internalType": "struct IHederaTokenService.TokenKey[]",
                  "name": "tokenKeys",
                  "type": "tuple[]"
                },
                {
                  "components": [
                    {
                      "internalType": "int64",
                      "name": "second",
                      "type": "int64"
                    },
                    {
                      "internalType": "address",
                      "name": "autoRenewAccount",
                      "type": "address"
                    },
                    {
                      "internalType": "int64",
                      "name": "autoRenewPeriod",
                      "type": "int64"
                    }
                  ],
                  "internalType": "struct IHederaTokenService.Expiry",
                  "name": "expiry",
                  "type": "tuple"
                }
              ],
              "internalType": "struct IHederaTokenService.HederaToken",
              "name": "token",
              "type": "tuple"
            },
            {
              "internalType": "int64",
              "name": "totalSupply",
              "type": "int64"
            },
            {
              "internalType": "bool",
              "name": "deleted",
              "type": "bool"
            },
            {
              "internalType": "bool",
              "name": "defaultKycStatus",
              "type": "bool"
            },
            {
              "internalType": "bool",
              "name": "pauseStatus",
              "type": "bool"
            },
            {
              "components": [
                {
                  "internalType": "int64",
                  "name": "amount",
                  "type": "int64"
                },
                {
                  "internalType": "address",
                  "name": "tokenId",
                  "type": "address"
                },
                {
                  "internalType": "bool",
                  "name": "useHbarsForPayment",
                  "type": "bool"
                },
                {
                  "internalType": "bool",
                  "name": "useCurrentTokenForPayment",
                  "type": "bool"
                },
                {
                  "internalType": "address",
                  "name": "feeCollector",
                  "type": "address"
                }
              ],
              "internalType": "struct IHederaTokenService.FixedFee[]",
              "name": "fixedFees",
              "type": "tuple[]"
            },
            {
              "components": [
                {
                  "internalType": "int64",
                  "name": "numerator",
                  "type": "int64"
                },
                {
                  "internalType": "int64",
                  "name": "denominator",
                  "type": "int64"
                },
                {
                  "internalType": "int64",
                  "name": "minimumAmount",
                  "type": "int64"
                },
                {
                  "internalType": "int64",
                  "name": "maximumAmount",
                  "type": "int64"
                },
                {
                  "internalType": "bool",
                  "name": "netOfTransfers",
                  "type": "bool"
                },
                {
                  "internalType": "address",
                  "name": "feeCollector",
                  "type": "address"
                }
              ],
              "internalType": "struct IHederaTokenService.FractionalFee[]",
              "name": "fractionalFees",
              "type": "tuple[]"
            },
            {
              "components": [
                {
                  "internalType": "int64",
                  "name": "numerator",
                  "type": "int64"
                },
                {
                  "internalType": "int64",
                  "name": "denominator",
                  "type": "int64"
                },
                {
                  "internalType": "int64",
                  "name": "amount",
                  "type": "int64"
                },
                {
                  "internalType": "address",
                  "name": "tokenId",
                  "type": "address"
                },
                {
                  "internalType": "bool",
                  "name": "useHbarsForPayment",
                  "type": "bool"
                },
                {
                  "internalType": "address",
                  "name": "feeCollector",
                  "type": "address"
                }
              ],
              "internalType": "struct IHederaTokenService.RoyaltyFee[]",
              "name": "royaltyFees",
              "type": "tuple[]"
            },
            {
              "internalType": "string",
              "name": "ledgerId",
              "type": "string"
            }
          ],
          "internalType": "struct IHederaTokenService.TokenInfo",
          "name": "tokenInfo",
          "type": "tuple"
        }
      ],
      "stateMutability": "view",
      "type": "function"
    },
    {
      "inputs": [
        {
          "internalType": "address",
          "name": "token",
          "type": "address"
        },
        {
          "internalType": "uint256",
          "name": "keyType",
          "type": "uint256"
        }
      ],
      "name": "getTokenKey",
      "outputs": [
        {
          "internalType": "int64",
          "name": "responseCode",
          "type": "int64"
        },
        {
          "components": [
            {
              "internalType": "bool",
              "name": "inheritAccountKey",
              "type": "bool"
            },
            {
              "internalType": "address",
              "name": "contractId",
              "type": "address"
            },
            {
              "internalType": "bytes",
              "name": "ed25519",
              "type": "bytes"
            },
            {
              "internalType": "bytes",
              "name": "ECDSA_secp256k1",
              "type": "bytes"
            },
            {
              "internalType": "address",
              "name": "delegatableContractId",
              "type": "address"
            }
          ],
          "internalType": "struct IHederaTokenService.KeyValue",
          "name": "key",
          "type": "tuple"
        }
      ],
      "stateMutability": "view",
      "type": "function"
    },
    {
      "inputs": [
        {
          "internalType": "address",
          "name": "token",
          "type": "address"
        }
      ],
      "name": "getTokenType",
      "outputs": [
        {
          "internalType": "int64",
          "name": "responseCode",
          "type": "int64"
        },
        {
          "internalType": "int32",
          "name": "tokenType",
          "type": "int32"
        }
      ],
      "stateMutability": "view",
      "type": "function"
    },
    {
      "inputs": [
        {
          "internalType": "address",
          "name": "token",
          "type": "address"
        }
      ],
      "name": "getTreasuryAccount",
      "outputs": [
        {
          "internalType": "address",
          "name": "treasury",
          "type": "address"
        }
      ],
      "stateMutability": "view",
      "type": "function"
    },
    {
      "inputs": [
        {
          "internalType": "address",
          "name": "token",
          "type": "address"
        },
        {
          "internalType": "address",
          "name": "account",
          "type": "address"
        }
      ],
      "name": "grantTokenKyc",
      "outputs": [
        {
          "internalType": "int64",
          "name": "responseCode",
          "type": "int64"
        }
      ],
      "stateMutability": "nonpayable",
      "type": "function"
    },
    {
      "inputs": [
        {
          "internalType": "address",
          "name": "token",
          "type": "address"
        },
        {
          "internalType": "address",
          "name": "owner",
          "type": "address"
        },
        {
          "internalType": "address",
          "name": "operator",
          "type": "address"
        }
      ],
      "name": "isApprovedForAll",
      "outputs": [
        {
          "internalType": "int64",
          "name": "responseCode",
          "type": "int64"
        },
        {
          "internalType": "bool",
          "name": "approved",
          "type": "bool"
        }
      ],
      "stateMutability": "view",
      "type": "function"
    },
    {
      "inputs": [
        {
          "internalType": "address",
          "name": "account",
          "type": "address"
        },
        {
          "internalType": "address",
          "name": "token",
          "type": "address"
        }
      ],
      "name": "isAssociated",
      "outputs": [
        {
          "internalType": "bool",
          "name": "associated",
          "type": "bool"
        }
      ],
      "stateMutability": "view",
      "type": "function"
    },
    {
      "inputs": [
        {
          "internalType": "address",
          "name": "token",
          "type": "address"
        },
        {
          "internalType": "address",
          "name": "account",
          "type": "address"
        }
      ],
      "name": "isFrozen",
      "outputs": [
        {
          "internalType": "int64",
          "name": "responseCode",
          "type": "int64"
        },
        {
          "internalType": "bool",
          "name": "frozen",
          "type": "bool"
        }
      ],
      "stateMutability": "view",
      "type": "function"
    },
    {
      "inputs": [
        {
          "internalType": "address",
          "name": "token",
          "type": "address"
        },
        {
          "internalType": "address",
          "name": "account",
          "type": "address"
        }
      ],
      "name": "isKyc",
      "outputs": [
        {
          "internalType": "int64",
          "name": "responseCode",
          "type": "int64"
        },
        {
          "internalType": "bool",
          "name": "kycGranted",
          "type": "bool"
        }
      ],
      "stateMutability": "view",
      "type": "function"
    },
    {
      "inputs": [
        {
          "internalType": "address",
          "name": "token",
          "type": "address"
        }
      ],
      "name": "isToken",
      "outputs": [
        {
          "internalType": "int64",
          "name": "responseCode",
          "type": "int64"
        },
        {
          "internalType": "bool",
          "name": "isToken",
          "type": "bool"
        }
      ],
      "stateMutability": "view",
      "type": "function"
    },
    {
      "inputs": [
        {
          "internalType": "address",
          "name": "token",
          "type": "address"
        },
        {
          "internalType": "int64",
          "name": "amount",
          "type": "int64"
        },
        {
          "internalType": "bytes[]",
          "name": "metadata",
          "type": "bytes[]"
        }
      ],
      "name": "mintToken",
      "outputs": [
        {
          "internalType": "int64",
          "name": "responseCode",
          "type": "int64"
        },
        {
          "internalType": "int64",
          "name": "newTotalSupply",
          "type": "int64"
        },
        {
          "internalType": "int64[]",
          "name": "serialNumbers",
          "type": "int64[]"
        }
      ],
      "stateMutability": "nonpayable",
      "type": "function"
    },
    {
      "inputs": [
        {
          "internalType": "address",
          "name": "token",
          "type": "address"
        }
      ],
      "name": "pauseToken",
      "outputs": [
        {
          "internalType": "int64",
          "name": "responseCode",
          "type": "int64"
        }
      ],
      "stateMutability": "nonpayable",
      "type": "function"
    },
    {
      "inputs": [
        {
          "internalType": "address",
          "name": "sender",
          "type": "address"
        },
        {
          "internalType": "address",
          "name": "spender",
          "type": "address"
        },
        {
          "internalType": "uint256",
          "name": "amountOrSerialNumber",
          "type": "uint256"
        }
      ],
      "name": "preApprove",
      "outputs": [
        {
          "internalType": "int64",
          "name": "responseCode",
          "type": "int64"
        }
      ],
      "stateMutability": "nonpayable",
      "type": "function"
    },
    {
      "inputs": [
        {
          "internalType": "int64",
          "name": "amount",
          "type": "int64"
        },
        {
          "internalType": "int64[]",
          "name": "serialNumbers",
          "type": "int64[]"
        }
      ],
      "name": "preBurn",
      "outputs": [
        {
          "internalType": "int64",
          "name": "responseCode",
          "type": "int64"
        }
      ],
      "stateMutability": "nonpayable",
      "type": "function"
    },
    {
      "inputs": [
        {
          "internalType": "address",
          "name": "token",
          "type": "address"
        },
        {
          "internalType": "int64",
          "name": "amount",
          "type": "int64"
        },
        {
          "internalType": "bytes[]",
          "name": "metadata",
          "type": "bytes[]"
        }
      ],
      "name": "preMint",
      "outputs": [
        {
          "internalType": "int64",
          "name": "responseCode",
          "type": "int64"
        }
      ],
      "stateMutability": "nonpayable",
      "type": "function"
    },
    {
      "inputs": [
        {
          "internalType": "address",
          "name": "sender",
          "type": "address"
        },
        {
          "internalType": "address",
          "name": "operator",
          "type": "address"
        },
        {
          "internalType": "bool",
          "name": "approved",
          "type": "bool"
        }
      ],
      "name": "preSetApprovalForAll",
      "outputs": [
        {
          "internalType": "int64",
          "name": "responseCode",
          "type": "int64"
        }
      ],
      "stateMutability": "nonpayable",
      "type": "function"
    },
    {
      "inputs": [
        {
          "internalType": "address",
          "name": "spender",
          "type": "address"
        },
        {
          "internalType": "address",
          "name": "from",
          "type": "address"
        },
        {
          "internalType": "address",
          "name": "to",
          "type": "address"
        },
        {
          "internalType": "uint256",
          "name": "amountOrSerialNumber",
          "type": "uint256"
        }
      ],
      "name": "preTransfer",
      "outputs": [
        {
          "internalType": "int64",
          "name": "responseCode",
          "type": "int64"
        }
      ],
      "stateMutability": "nonpayable",
      "type": "function"
    },
    {
      "inputs": [
        {
          "internalType": "address",
          "name": "token",
          "type": "address"
        },
        {
          "internalType": "bytes",
          "name": "encodedFunctionSelector",
          "type": "bytes"
        }
      ],
      "name": "redirectForToken",
      "outputs": [],
      "stateMutability": "nonpayable",
      "type": "function"
    },
    {
      "inputs": [
        {
          "internalType": "address",
          "name": "caller",
          "type": "address"
        },
        {
          "components": [
            {
              "components": [
                {
                  "components": [
                    {
                      "internalType": "string",
                      "name": "name",
                      "type": "string"
                    },
                    {
                      "internalType": "string",
                      "name": "symbol",
                      "type": "string"
                    },
                    {
                      "internalType": "address",
                      "name": "treasury",
                      "type": "address"
                    },
                    {
                      "internalType": "string",
                      "name": "memo",
                      "type": "string"
                    },
                    {
                      "internalType": "bool",
                      "name": "tokenSupplyType",
                      "type": "bool"
                    },
                    {
                      "internalType": "int64",
                      "name": "maxSupply",
                      "type": "int64"
                    },
                    {
                      "internalType": "bool",
                      "name": "freezeDefault",
                      "type": "bool"
                    },
                    {
                      "components": [
                        {
                          "internalType": "uint256",
                          "name": "keyType",
                          "type": "uint256"
                        },
                        {
                          "components": [
                            {
                              "internalType": "bool",
                              "name": "inheritAccountKey",
                              "type": "bool"
                            },
                            {
                              "internalType": "address",
                              "name": "contractId",
                              "type": "address"
                            },
                            {
                              "internalType": "bytes",
                              "name": "ed25519",
                              "type": "bytes"
                            },
                            {
                              "internalType": "bytes",
                              "name": "ECDSA_secp256k1",
                              "type": "bytes"
                            },
                            {
                              "internalType": "address",
                              "name": "delegatableContractId",
                              "type": "address"
                            }
                          ],
                          "internalType": "struct IHederaTokenService.KeyValue",
                          "name": "key",
                          "type": "tuple"
                        }
                      ],
                      "internalType": "struct IHederaTokenService.TokenKey[]",
                      "name": "tokenKeys",
                      "type": "tuple[]"
                    },
                    {
                      "components": [
                        {
                          "internalType": "int64",
                          "name": "second",
                          "type": "int64"
                        },
                        {
                          "internalType": "address",
                          "name": "autoRenewAccount",
                          "type": "address"
                        },
                        {
                          "internalType": "int64",
                          "name": "autoRenewPeriod",
                          "type": "int64"
                        }
                      ],
                      "internalType": "struct IHederaTokenService.Expiry",
                      "name": "expiry",
                      "type": "tuple"
                    }
                  ],
                  "internalType": "struct IHederaTokenService.HederaToken",
                  "name": "token",
                  "type": "tuple"
                },
                {
                  "internalType": "int64",
                  "name": "totalSupply",
                  "type": "int64"
                },
                {
                  "internalType": "bool",
                  "name": "deleted",
                  "type": "bool"
                },
                {
                  "internalType": "bool",
                  "name": "defaultKycStatus",
                  "type": "bool"
                },
                {
                  "internalType": "bool",
                  "name": "pauseStatus",
                  "type": "bool"
                },
                {
                  "components": [
                    {
                      "internalType": "int64",
                      "name": "amount",
                      "type": "int64"
                    },
                    {
                      "internalType": "address",
                      "name": "tokenId",
                      "type": "address"
                    },
                    {
                      "internalType": "bool",
                      "name": "useHbarsForPayment",
                      "type": "bool"
                    },
                    {
                      "internalType": "bool",
                      "name": "useCurrentTokenForPayment",
                      "type": "bool"
                    },
                    {
                      "internalType": "address",
                      "name": "feeCollector",
                      "type": "address"
                    }
                  ],
                  "internalType": "struct IHederaTokenService.FixedFee[]",
                  "name": "fixedFees",
                  "type": "tuple[]"
                },
                {
                  "components": [
                    {
                      "internalType": "int64",
                      "name": "numerator",
                      "type": "int64"
                    },
                    {
                      "internalType": "int64",
                      "name": "denominator",
                      "type": "int64"
                    },
                    {
                      "internalType": "int64",
                      "name": "minimumAmount",
                      "type": "int64"
                    },
                    {
                      "internalType": "int64",
                      "name": "maximumAmount",
                      "type": "int64"
                    },
                    {
                      "internalType": "bool",
                      "name": "netOfTransfers",
                      "type": "bool"
                    },
                    {
                      "internalType": "address",
                      "name": "feeCollector",
                      "type": "address"
                    }
                  ],
                  "internalType": "struct IHederaTokenService.FractionalFee[]",
                  "name": "fractionalFees",
                  "type": "tuple[]"
                },
                {
                  "components": [
                    {
                      "internalType": "int64",
                      "name": "numerator",
                      "type": "int64"
                    },
                    {
                      "internalType": "int64",
                      "name": "denominator",
                      "type": "int64"
                    },
                    {
                      "internalType": "int64",
                      "name": "amount",
                      "type": "int64"
                    },
                    {
                      "internalType": "address",
                      "name": "tokenId",
                      "type": "address"
                    },
                    {
                      "internalType": "bool",
                      "name": "useHbarsForPayment",
                      "type": "bool"
                    },
                    {
                      "internalType": "address",
                      "name": "feeCollector",
                      "type": "address"
                    }
                  ],
                  "internalType": "struct IHederaTokenService.RoyaltyFee[]",
                  "name": "royaltyFees",
                  "type": "tuple[]"
                },
                {
                  "internalType": "string",
                  "name": "ledgerId",
                  "type": "string"
                }
              ],
              "internalType": "struct IHederaTokenService.TokenInfo",
              "name": "tokenInfo",
              "type": "tuple"
            },
            {
              "internalType": "int32",
              "name": "decimals",
              "type": "int32"
            }
          ],
          "internalType": "struct IHederaTokenService.FungibleTokenInfo",
          "name": "fungibleTokenInfo",
          "type": "tuple"
        }
      ],
      "name": "registerHederaFungibleToken",
      "outputs": [],
      "stateMutability": "nonpayable",
      "type": "function"
    },
    {
      "inputs": [
        {
          "internalType": "address",
          "name": "caller",
          "type": "address"
        },
        {
          "components": [
            {
              "components": [
                {
                  "internalType": "string",
                  "name": "name",
                  "type": "string"
                },
                {
                  "internalType": "string",
                  "name": "symbol",
                  "type": "string"
                },
                {
                  "internalType": "address",
                  "name": "treasury",
                  "type": "address"
                },
                {
                  "internalType": "string",
                  "name": "memo",
                  "type": "string"
                },
                {
                  "internalType": "bool",
                  "name": "tokenSupplyType",
                  "type": "bool"
                },
                {
                  "internalType": "int64",
                  "name": "maxSupply",
                  "type": "int64"
                },
                {
                  "internalType": "bool",
                  "name": "freezeDefault",
                  "type": "bool"
                },
                {
                  "components": [
                    {
                      "internalType": "uint256",
                      "name": "keyType",
                      "type": "uint256"
                    },
                    {
                      "components": [
                        {
                          "internalType": "bool",
                          "name": "inheritAccountKey",
                          "type": "bool"
                        },
                        {
                          "internalType": "address",
                          "name": "contractId",
                          "type": "address"
                        },
                        {
                          "internalType": "bytes",
                          "name": "ed25519",
                          "type": "bytes"
                        },
                        {
                          "internalType": "bytes",
                          "name": "ECDSA_secp256k1",
                          "type": "bytes"
                        },
                        {
                          "internalType": "address",
                          "name": "delegatableContractId",
                          "type": "address"
                        }
                      ],
                      "internalType": "struct IHederaTokenService.KeyValue",
                      "name": "key",
                      "type": "tuple"
                    }
                  ],
                  "internalType": "struct IHederaTokenService.TokenKey[]",
                  "name": "tokenKeys",
                  "type": "tuple[]"
                },
                {
                  "components": [
                    {
                      "internalType": "int64",
                      "name": "second",
                      "type": "int64"
                    },
                    {
                      "internalType": "address",
                      "name": "autoRenewAccount",
                      "type": "address"
                    },
                    {
                      "internalType": "int64",
                      "name": "autoRenewPeriod",
                      "type": "int64"
                    }
                  ],
                  "internalType": "struct IHederaTokenService.Expiry",
                  "name": "expiry",
                  "type": "tuple"
                }
              ],
              "internalType": "struct IHederaTokenService.HederaToken",
              "name": "token",
              "type": "tuple"
            },
            {
              "internalType": "int64",
              "name": "totalSupply",
              "type": "int64"
            },
            {
              "internalType": "bool",
              "name": "deleted",
              "type": "bool"
            },
            {
              "internalType": "bool",
              "name": "defaultKycStatus",
              "type": "bool"
            },
            {
              "internalType": "bool",
              "name": "pauseStatus",
              "type": "bool"
            },
            {
              "components": [
                {
                  "internalType": "int64",
                  "name": "amount",
                  "type": "int64"
                },
                {
                  "internalType": "address",
                  "name": "tokenId",
                  "type": "address"
                },
                {
                  "internalType": "bool",
                  "name": "useHbarsForPayment",
                  "type": "bool"
                },
                {
                  "internalType": "bool",
                  "name": "useCurrentTokenForPayment",
                  "type": "bool"
                },
                {
                  "internalType": "address",
                  "name": "feeCollector",
                  "type": "address"
                }
              ],
              "internalType": "struct IHederaTokenService.FixedFee[]",
              "name": "fixedFees",
              "type": "tuple[]"
            },
            {
              "components": [
                {
                  "internalType": "int64",
                  "name": "numerator",
                  "type": "int64"
                },
                {
                  "internalType": "int64",
                  "name": "denominator",
                  "type": "int64"
                },
                {
                  "internalType": "int64",
                  "name": "minimumAmount",
                  "type": "int64"
                },
                {
                  "internalType": "int64",
                  "name": "maximumAmount",
                  "type": "int64"
                },
                {
                  "internalType": "bool",
                  "name": "netOfTransfers",
                  "type": "bool"
                },
                {
                  "internalType": "address",
                  "name": "feeCollector",
                  "type": "address"
                }
              ],
              "internalType": "struct IHederaTokenService.FractionalFee[]",
              "name": "fractionalFees",
              "type": "tuple[]"
            },
            {
              "components": [
                {
                  "internalType": "int64",
                  "name": "numerator",
                  "type": "int64"
                },
                {
                  "internalType": "int64",
                  "name": "denominator",
                  "type": "int64"
                },
                {
                  "internalType": "int64",
                  "name": "amount",
                  "type": "int64"
                },
                {
                  "internalType": "address",
                  "name": "tokenId",
                  "type": "address"
                },
                {
                  "internalType": "bool",
                  "name": "useHbarsForPayment",
                  "type": "bool"
                },
                {
                  "internalType": "address",
                  "name": "feeCollector",
                  "type": "address"
                }
              ],
              "internalType": "struct IHederaTokenService.RoyaltyFee[]",
              "name": "royaltyFees",
              "type": "tuple[]"
            },
            {
              "internalType": "string",
              "name": "ledgerId",
              "type": "string"
            }
          ],
          "internalType": "struct IHederaTokenService.TokenInfo",
          "name": "nftTokenInfo",
          "type": "tuple"
        }
      ],
      "name": "registerHederaNonFungibleToken",
      "outputs": [],
      "stateMutability": "nonpayable",
      "type": "function"
    },
    {
      "inputs": [
        {
          "internalType": "address",
          "name": "token",
          "type": "address"
        },
        {
          "internalType": "address",
          "name": "account",
          "type": "address"
        }
      ],
      "name": "revokeTokenKyc",
      "outputs": [
        {
          "internalType": "int64",
          "name": "responseCode",
          "type": "int64"
        }
      ],
      "stateMutability": "nonpayable",
      "type": "function"
    },
    {
      "inputs": [
        {
          "internalType": "address",
          "name": "token",
          "type": "address"
        },
        {
          "internalType": "address",
          "name": "operator",
          "type": "address"
        },
        {
          "internalType": "bool",
          "name": "approved",
          "type": "bool"
        }
      ],
      "name": "setApprovalForAll",
      "outputs": [
        {
          "internalType": "int64",
          "name": "responseCode",
          "type": "int64"
        }
      ],
      "stateMutability": "nonpayable",
      "type": "function"
    },
    {
      "inputs": [
        {
          "internalType": "address",
          "name": "token",
          "type": "address"
        },
        {
          "internalType": "address",
          "name": "from",
          "type": "address"
        },
        {
          "internalType": "address",
          "name": "to",
          "type": "address"
        },
        {
          "internalType": "uint256",
          "name": "amount",
          "type": "uint256"
        }
      ],
      "name": "transferFrom",
      "outputs": [
        {
          "internalType": "int64",
          "name": "responseCode",
          "type": "int64"
        }
      ],
      "stateMutability": "nonpayable",
      "type": "function"
    },
    {
      "inputs": [
        {
          "internalType": "address",
          "name": "token",
          "type": "address"
        },
        {
          "internalType": "address",
          "name": "from",
          "type": "address"
        },
        {
          "internalType": "address",
          "name": "to",
          "type": "address"
        },
        {
          "internalType": "uint256",
          "name": "serialNumber",
          "type": "uint256"
        }
      ],
      "name": "transferFromNFT",
      "outputs": [
        {
          "internalType": "int64",
          "name": "responseCode",
          "type": "int64"
        }
      ],
      "stateMutability": "nonpayable",
      "type": "function"
    },
    {
      "inputs": [
        {
          "internalType": "address",
          "name": "token",
          "type": "address"
        },
        {
          "internalType": "address",
          "name": "sender",
          "type": "address"
        },
        {
          "internalType": "address",
          "name": "recipient",
          "type": "address"
        },
        {
          "internalType": "int64",
          "name": "serialNumber",
          "type": "int64"
        }
      ],
      "name": "transferNFT",
      "outputs": [
        {
          "internalType": "int64",
          "name": "responseCode",
          "type": "int64"
        }
      ],
      "stateMutability": "nonpayable",
      "type": "function"
    },
    {
      "inputs": [
        {
          "internalType": "address",
          "name": "token",
          "type": "address"
        },
        {
          "internalType": "address[]",
          "name": "sender",
          "type": "address[]"
        },
        {
          "internalType": "address[]",
          "name": "receiver",
          "type": "address[]"
        },
        {
          "internalType": "int64[]",
          "name": "serialNumber",
          "type": "int64[]"
        }
      ],
      "name": "transferNFTs",
      "outputs": [
        {
          "internalType": "int64",
          "name": "responseCode",
          "type": "int64"
        }
      ],
      "stateMutability": "nonpayable",
      "type": "function"
    },
    {
      "inputs": [
        {
          "internalType": "address",
          "name": "token",
          "type": "address"
        },
        {
          "internalType": "address",
          "name": "sender",
          "type": "address"
        },
        {
          "internalType": "address",
          "name": "recipient",
          "type": "address"
        },
        {
          "internalType": "int64",
          "name": "amount",
          "type": "int64"
        }
      ],
      "name": "transferToken",
      "outputs": [
        {
          "internalType": "int64",
          "name": "responseCode",
          "type": "int64"
        }
      ],
      "stateMutability": "nonpayable",
      "type": "function"
    },
    {
      "inputs": [
        {
          "internalType": "address",
          "name": "token",
          "type": "address"
        },
        {
          "internalType": "address[]",
          "name": "accountId",
          "type": "address[]"
        },
        {
          "internalType": "int64[]",
          "name": "amount",
          "type": "int64[]"
        }
      ],
      "name": "transferTokens",
      "outputs": [
        {
          "internalType": "int64",
          "name": "responseCode",
          "type": "int64"
        }
      ],
      "stateMutability": "nonpayable",
      "type": "function"
    },
    {
      "inputs": [
        {
          "internalType": "address",
          "name": "token",
          "type": "address"
        },
        {
          "internalType": "address",
          "name": "account",
          "type": "address"
        }
      ],
      "name": "unfreezeToken",
      "outputs": [
        {
          "internalType": "int64",
          "name": "responseCode",
          "type": "int64"
        }
      ],
      "stateMutability": "nonpayable",
      "type": "function"
    },
    {
      "inputs": [
        {
          "internalType": "address",
          "name": "token",
          "type": "address"
        }
      ],
      "name": "unpauseToken",
      "outputs": [
        {
          "internalType": "int64",
          "name": "responseCode",
          "type": "int64"
        }
      ],
      "stateMutability": "nonpayable",
      "type": "function"
    },
    {
      "inputs": [
        {
          "internalType": "address",
          "name": "token",
          "type": "address"
        },
        {
          "components": [
            {
              "internalType": "int64",
              "name": "second",
              "type": "int64"
            },
            {
              "internalType": "address",
              "name": "autoRenewAccount",
              "type": "address"
            },
            {
              "internalType": "int64",
              "name": "autoRenewPeriod",
              "type": "int64"
            }
          ],
          "internalType": "struct IHederaTokenService.Expiry",
          "name": "expiryInfo",
          "type": "tuple"
        }
      ],
      "name": "updateTokenExpiryInfo",
      "outputs": [
        {
          "internalType": "int64",
          "name": "responseCode",
          "type": "int64"
        }
      ],
      "stateMutability": "nonpayable",
      "type": "function"
    },
    {
      "inputs": [
        {
          "internalType": "address",
          "name": "token",
          "type": "address"
        },
        {
          "components": [
            {
              "internalType": "string",
              "name": "name",
              "type": "string"
            },
            {
              "internalType": "string",
              "name": "symbol",
              "type": "string"
            },
            {
              "internalType": "address",
              "name": "treasury",
              "type": "address"
            },
            {
              "internalType": "string",
              "name": "memo",
              "type": "string"
            },
            {
              "internalType": "bool",
              "name": "tokenSupplyType",
              "type": "bool"
            },
            {
              "internalType": "int64",
              "name": "maxSupply",
              "type": "int64"
            },
            {
              "internalType": "bool",
              "name": "freezeDefault",
              "type": "bool"
            },
            {
              "components": [
                {
                  "internalType": "uint256",
                  "name": "keyType",
                  "type": "uint256"
                },
                {
                  "components": [
                    {
                      "internalType": "bool",
                      "name": "inheritAccountKey",
                      "type": "bool"
                    },
                    {
                      "internalType": "address",
                      "name": "contractId",
                      "type": "address"
                    },
                    {
                      "internalType": "bytes",
                      "name": "ed25519",
                      "type": "bytes"
                    },
                    {
                      "internalType": "bytes",
                      "name": "ECDSA_secp256k1",
                      "type": "bytes"
                    },
                    {
                      "internalType": "address",
                      "name": "delegatableContractId",
                      "type": "address"
                    }
                  ],
                  "internalType": "struct IHederaTokenService.KeyValue",
                  "name": "key",
                  "type": "tuple"
                }
              ],
              "internalType": "struct IHederaTokenService.TokenKey[]",
              "name": "tokenKeys",
              "type": "tuple[]"
            },
            {
              "components": [
                {
                  "internalType": "int64",
                  "name": "second",
                  "type": "int64"
                },
                {
                  "internalType": "address",
                  "name": "autoRenewAccount",
                  "type": "address"
                },
                {
                  "internalType": "int64",
                  "name": "autoRenewPeriod",
                  "type": "int64"
                }
              ],
              "internalType": "struct IHederaTokenService.Expiry",
              "name": "expiry",
              "type": "tuple"
            }
          ],
          "internalType": "struct IHederaTokenService.HederaToken",
          "name": "tokenInfo",
          "type": "tuple"
        }
      ],
      "name": "updateTokenInfo",
      "outputs": [
        {
          "internalType": "int64",
          "name": "responseCode",
          "type": "int64"
        }
      ],
      "stateMutability": "nonpayable",
      "type": "function"
    },
    {
      "inputs": [
        {
          "internalType": "address",
          "name": "token",
          "type": "address"
        },
        {
          "components": [
            {
              "internalType": "uint256",
              "name": "keyType",
              "type": "uint256"
            },
            {
              "components": [
                {
                  "internalType": "bool",
                  "name": "inheritAccountKey",
                  "type": "bool"
                },
                {
                  "internalType": "address",
                  "name": "contractId",
                  "type": "address"
                },
                {
                  "internalType": "bytes",
                  "name": "ed25519",
                  "type": "bytes"
                },
                {
                  "internalType": "bytes",
                  "name": "ECDSA_secp256k1",
                  "type": "bytes"
                },
                {
                  "internalType": "address",
                  "name": "delegatableContractId",
                  "type": "address"
                }
              ],
              "internalType": "struct IHederaTokenService.KeyValue",
              "name": "key",
              "type": "tuple"
            }
          ],
          "internalType": "struct IHederaTokenService.TokenKey[]",
          "name": "keys",
          "type": "tuple[]"
        }
      ],
      "name": "updateTokenKeys",
      "outputs": [
        {
          "internalType": "int64",
          "name": "responseCode",
          "type": "int64"
        }
      ],
      "stateMutability": "nonpayable",
      "type": "function"
    },
    {
      "inputs": [
        {
          "internalType": "address",
          "name": "token",
          "type": "address"
        },
        {
          "internalType": "address",
          "name": "account",
          "type": "address"
        },
        {
          "internalType": "int64",
          "name": "amount",
          "type": "int64"
        }
      ],
      "name": "wipeTokenAccount",
      "outputs": [
        {
          "internalType": "int64",
          "name": "responseCode",
          "type": "int64"
        }
      ],
      "stateMutability": "nonpayable",
      "type": "function"
    },
    {
      "inputs": [
        {
          "internalType": "address",
          "name": "token",
          "type": "address"
        },
        {
          "internalType": "address",
          "name": "account",
          "type": "address"
        },
        {
          "internalType": "int64[]",
          "name": "serialNumbers",
          "type": "int64[]"
        }
      ],
      "name": "wipeTokenAccountNFT",
      "outputs": [
        {
          "internalType": "int64",
          "name": "responseCode",
          "type": "int64"
        }
      ],
      "stateMutability": "nonpayable",
      "type": "function"
    }
  ],
  "bytecode": "0x60a06040523480156200001157600080fd5b50610167608052600160208181527fa6eef7e35abe7026729641147f7915573c7e97b47efa546f5f6e3230263bcb499190915560027fcc69885fda6bcc1a4ace058b4a62bf5e179ea78fd58a1ccd71c22cc9b688792f5560047fd9d16d34ffb15ba3a3d852f0d403e2ce1d691fb54de27ac87cd2f993f3ec330f5560087f7dfe757ecd65cbd7922a9c0161e935dd7fdbcc0e999689c7d31633896b1fc60b5560107fedc95719e9a3b28dd8e80877cb5880a9be7de1a13fc8b05e7999683b6b567643557fe2689cd4a84e23ad2f564004f1c9013e9589d260bde6380aba3ca7e09e4df40c55600660005260407f8f331abe73332f95a25873e8b430885974c0409691f89d643119a11623a7924a55608051620110ff6200013d6000396000616e120152620110ff6000f3fe608060405260043610620003bf5760003560e01c80637336aaf011620001f7578063af99c6331162000117578063e459524911620000ad578063f069f7121162000078578063f069f7121462000cf3578063f2c31ff41462000d18578063f49f40db1462000d3d578063f7f38e261462000d6757600080fd5b8063e45952491462000c6d578063ea83f2931462000c92578063eca369171462000ca9578063efef57f91462000cce57600080fd5b8063d6910d0611620000ee578063d6910d061462000bad578063da23fff91462000bed578063e0f4059a1462000c12578063e1f21c671462000c4857600080fd5b8063af99c6331462000b2e578063d27be6cd1462000b53578063d614cdb81462000b7857600080fd5b806393272baf116200018d578063a73aab681162000164578063a73aab681462000a70578063a7daa18d1462000a95578063abb54eb51462000ae0578063ae7611a01462000af757600080fd5b806393272baf14620009e35780639b23d3d91462000a26578063a0ecee331462000a4b57600080fd5b80637d305cfa11620001ce5780637d305cfa146200093457806382bba49314620009595780638f8d7f99146200097e578063927da10514620009a357600080fd5b80637336aaf014620008c557806378b6391814620008ea5780637c41ad2c146200090f57600080fd5b8063367605ca11620002e357806352f9138711620002795780635cfc901111620002505780635cfc901114620007f7578063618dc65e146200081c5780636cf9924814620008415780636fc3cbaf14620008a057600080fd5b806352f913871462000788578063535575b214620007ad5780635b8f858414620007d257600080fd5b80633f28a19b11620002ba5780633f28a19b14620006e457806346de0fb1146200071957806349146bde146200073e578063524c3311146200076357600080fd5b8063367605ca14620006655780633b3bff0f146200068a5780633c4dd32e14620006af57600080fd5b806319f3736111620003595780632af0c59a11620003305780632af0c59a14620005b95780632c4ba19114620005d05780632e63879b14620005f5578063335e04c1146200061a57600080fd5b806319f37361146200050f5780631f69565f146200054f578063287e1da8146200058457600080fd5b80630e71804f116200039a5780630e71804f14620004875780630fb65bf314620004ac578063154a97a014620004c357806315dacbea14620004ea57600080fd5b80630863684b14620003c4578063098f23661462000406578063099794e8146200044e575b600080fd5b348015620003d157600080fd5b50620003e9620003e336600462008d33565b62000d86565b6040516001600160a01b0390911681526020015b60405180910390f35b3480156200041357600080fd5b506200042b6200042536600462008d53565b62000d99565b6040805160079390930b83526001600160a01b03909116602083015201620003fd565b3480156200045b57600080fd5b50620004736200046d36600462008d82565b62000e24565b60405160079190910b8152602001620003fd565b3480156200049457600080fd5b5062000473620004a636600462009037565b62000eef565b6200042b620004bd3660046200962d565b62000efb565b348015620004d057600080fd5b50620004e8620004e236600462009a90565b62000fae565b005b348015620004f757600080fd5b50620004736200050936600462009b45565b62001071565b3480156200051c57600080fd5b50620005346200052e36600462008d33565b62001154565b6040805160079390930b8352901515602083015201620003fd565b3480156200055c57600080fd5b50620005746200056e36600462008d33565b6200117f565b604051620003fd9291906200a024565b3480156200059157600080fd5b50620005a9620005a33660046200a042565b620020c0565b604051620003fd9291906200a075565b6200042b620005ca3660046200a108565b6200298b565b348015620005dd57600080fd5b5062000473620005ef3660046200a29e565b62002a4e565b3480156200060257600080fd5b5062000473620006143660046200a344565b62002b7b565b3480156200062757600080fd5b50620005346200063936600462008d33565b6001600160a01b0316600090815260026020526040902060080154601691600160481b90910460ff1690565b3480156200067257600080fd5b5062000473620006843660046200a399565b62002bf1565b3480156200069757600080fd5b5062000473620006a936600462008d33565b62002c9d565b348015620006bc57600080fd5b50620006d4620006ce36600462008d53565b62002cf3565b604051620003fd9291906200a3eb565b348015620006f157600080fd5b50620007096200070336600462008d33565b62002d71565b604051620003fd9291906200a437565b3480156200072657600080fd5b50620005346200073836600462008d82565b62003513565b3480156200074b57600080fd5b50620004736200075d36600462008d82565b62004537565b3480156200077057600080fd5b5062000473620007823660046200a455565b62004606565b3480156200079557600080fd5b5062000473620007a736600462008d82565b62004662565b348015620007ba57600080fd5b5062000473620007cc3660046200a399565b620046c9565b348015620007df57600080fd5b5062000473620007f136600462008d82565b6200472f565b3480156200080457600080fd5b5062000473620008163660046200a4a0565b62004795565b3480156200082957600080fd5b50620004e86200083b3660046200a505565b620048cc565b3480156200084e57600080fd5b506200088f6200086036600462008d82565b6001600160a01b0390811660009081526007602090815260408083209490931682529290925290205460ff1690565b6040519015158152602001620003fd565b348015620008ad57600080fd5b5062000473620008bf3660046200a550565b620048da565b348015620008d257600080fd5b5062000473620008e43660046200a59b565b62004964565b348015620008f757600080fd5b5062000473620009093660046200a344565b62004a49565b3480156200091c57600080fd5b50620004736200092e36600462008d33565b62004abb565b3480156200094157600080fd5b5062000473620009533660046200a5e1565b62004b11565b3480156200096657600080fd5b5062000473620009783660046200a62c565b62004b9b565b3480156200098b57600080fd5b50620004736200099d36600462008d82565b62004c99565b348015620009b057600080fd5b50620009c8620009c23660046200a6aa565b62004ce3565b6040805160079390930b8352602083019190915201620003fd565b348015620009f057600080fd5b5062000a0862000a0236600462008d33565b62004da5565b6040805160079390930b835260039190910b602083015201620003fd565b34801562000a3357600080fd5b506200047362000a4536600462009b45565b62004e0e565b34801562000a5857600080fd5b506200047362000a6a36600462009b45565b62004f37565b34801562000a7d57600080fd5b506200047362000a8f3660046200a6f1565b62004fa0565b34801562000aa257600080fd5b506200053462000ab436600462008d33565b6001600160a01b0316600090815260026020526040902060040154601691600160481b90910460ff1690565b6200042b62000af13660046200a7d8565b62004ffc565b34801562000b0457600080fd5b5062000b1c62000b1636600462008d33565b62005097565b604051620003fd94939291906200a85f565b34801562000b3b57600080fd5b506200047362000b4d36600462008d82565b62005305565b34801562000b6057600080fd5b506200047362000b723660046200a8b2565b62005358565b34801562000b8557600080fd5b5062000b9d62000b9736600462008d33565b620053e2565b604051620003fd9291906200a8e4565b34801562000bba57600080fd5b5062000bd262000bcc3660046200a923565b620054e2565b60408051600793840b81529190920b602082015201620003fd565b34801562000bfa57600080fd5b50620004e862000c0c3660046200a982565b62005731565b34801562000c1f57600080fd5b5062000c3762000c313660046200a6f1565b620057d0565b604051620003fd939291906200aa02565b34801562000c5557600080fd5b506200047362000c673660046200a59b565b62005ae6565b34801562000c7a57600080fd5b506200047362000c8c3660046200a59b565b62005b55565b6200042b62000ca33660046200aa29565b62005bb2565b34801562000cb657600080fd5b506200047362000cc83660046200a4a0565b62005c3c565b34801562000cdb57600080fd5b506200047362000ced3660046200aa61565b62005d24565b34801562000d0057600080fd5b506200047362000d1236600462008d33565b62005d30565b34801562000d2557600080fd5b506200053462000d3736600462008d82565b62005d84565b34801562000d4a57600080fd5b506200053462000d5c3660046200a6aa565b600080935093915050565b34801562000d7457600080fd5b506200047362000ced3660046200aaa8565b600062000d938262006da0565b92915050565b60405163020604bf60e21b8152600481018290526016906000906001600160a01b0385169063081812fc9060240160206040518083038186803b15801562000de057600080fd5b505afa15801562000df5573d6000803e3d6000fd5b505050506040513d601f19601f8201168201806040525081019062000e1b91906200aadd565b90509250929050565b600062000e3062006e07565b6001600160a01b03821660009081526003602052604090205460ff1615801562000e7357506001600160a01b03821660009081526006602052604090205460ff16155b1562000e82575060a762000d93565b6001600160a01b0380831660009081526007602090815260408083209387168352929052205460ff1662000eb9575060b862000d93565b506001600160a01b038082166000908152600760209081526040808320938616835292905220805460ff19169055601692915050565b600062000d9362006e07565b60008062000f0862006e07565b62000f163386868662006e83565b9150600782900b60161462000f2e5750600062000fa6565b62000f3862008b35565b62000f4262008b57565b868152600786900b602080830191909152600386900b90830152808252604051600090839062000f729062008c0e565b62000f7e91906200aafd565b604051809103906000f08015801562000f9b573d6000803e3d6000fd5b506016955093505050505b935093915050565b6001600160a01b03821630141560008162000fcb57601662000fe7565b825180516020918201519185015162000fe79287929162006e83565b9050600781900b601614620010355760405162461bcd60e51b815260206004820152600f60248201526e14149150d21150d2d7d19052531151608a1b60448201526064015b60405180910390fd5b336000818152600360205260408120805460ff191660011790556200105a856200712b565b905062001068818362004537565b50505050505050565b60006200107d62006e07565b3360006200108f8783888888620071bb565b9093509050600783900b601614620010a95750506200114c565b60405163b59fc61960e01b815281151560048201526001600160a01b038381166024830152878116604483015286811660648301526084820186905288169063b59fc6199060a401602060405180830381600087803b1580156200110c57600080fd5b505af115801562001121573d6000803e3d6000fd5b505050506040513d601f19601f820116820180604052508101906200114791906200ab12565b925050505b949350505050565b60008062001162836200753c565b905080620011725760a762001175565b60165b60030b9150915091565b60006200118b62008b57565b62001196836200753c565b620011a55760a7939092509050565b6001600160a01b03831660009081526003602052604090205460ff161562001941576001600160a01b03831660009081526002602052604090819020815161024081019092528054829061012082019083908290829062001206906200ab32565b80601f016020809104026020016040519081016040528092919081815260200182805462001234906200ab32565b8015620012855780601f10620012595761010080835404028352916020019162001285565b820191906000526020600020905b8154815290600101906020018083116200126757829003601f168201915b50505050508152602001600182018054620012a0906200ab32565b80601f0160208091040260200160405190810160405280929190818152602001828054620012ce906200ab32565b80156200131f5780601f10620012f3576101008083540402835291602001916200131f565b820191906000526020600020905b8154815290600101906020018083116200130157829003601f168201915b505050918352505060028201546001600160a01b0316602082015260038201805460409092019162001351906200ab32565b80601f01602080910402602001604051908101604052809291908181526020018280546200137f906200ab32565b8015620013d05780601f10620013a457610100808354040283529160200191620013d0565b820191906000526020600020905b815481529060010190602001808311620013b257829003601f168201915b5050509183525050600482015460ff8082161515602080850191909152610100830460070b604080860191909152600160481b90930490911615156060840152600584018054835181840281018401909452808452608090940193909160009084015b82821015620015ee5760008481526020908190206040805180820182526005860290920180548352815160a08101835260018201805460ff81161515835261010090046001600160a01b031682870152600283018054959693959387019492939192840191620014a3906200ab32565b80601f0160208091040260200160405190810160405280929190818152602001828054620014d1906200ab32565b8015620015225780601f10620014f65761010080835404028352916020019162001522565b820191906000526020600020905b8154815290600101906020018083116200150457829003601f168201915b505050505081526020016002820180546200153d906200ab32565b80601f01602080910402602001604051908101604052809291908181526020018280546200156b906200ab32565b8015620015bc5780601f106200159057610100808354040283529160200191620015bc565b820191906000526020600020905b8154815290600101906020018083116200159e57829003601f168201915b5050509183525050600391909101546001600160a01b0316602091820152915291835250600192909201910162001433565b5050509082525060408051606080820183526006850154600781810b84526001600160a01b03600160401b928390041660208581019190915296810154810b848601529486019290925294865260088701549283900b8685015260ff9083048116151586830152600160481b83048116151594860194909452600160501b9091049092161515608084015260098401805483518184028101840190945280845260a090940193909160009084015b82821015620017215760008481526020908190206040805160a081018252600286029092018054600781900b84526001600160a01b03600160401b820481168587015260ff600160e01b83048116151594860194909452600160e81b90910490921615156060840152600190810154909116608083015290835290920191016200169c565b505050508152602001600a8201805480602002602001604051908101604052809291908181526020016000905b82821015620017da5760008481526020908190206040805160c081018252600286029092018054600781810b8552600160401b8204810b85870152600160801b8204810b93850193909352600160c01b900490910b606083015260019081015460ff81161515608084015261010090046001600160a01b031660a083015290835290920191016200174e565b505050508152602001600b8201805480602002602001604051908101604052809291908181526020016000905b82821015620018975760008481526020908190206040805160c081018252600386029092018054600781810b8552600160401b8204810b85870152600160801b909104900b918301919091526001808201546001600160a01b038082166060860152600160a01b90910460ff161515608085015260029092015490911660a0830152908352909201910162001807565b505050508152602001600c82018054620018b1906200ab32565b80601f0160208091040260200160405190810160405280929190818152602001828054620018df906200ab32565b8015620019305780601f10620019045761010080835404028352916020019162001930565b820191906000526020600020905b8154815290600101906020018083116200191257829003601f168201915b5050505050815250509050620020b6565b6001600160a01b03831660009081526004602052604090819020815161024081019092528054829061012082019083908290829062001980906200ab32565b80601f0160208091040260200160405190810160405280929190818152602001828054620019ae906200ab32565b8015620019ff5780601f10620019d357610100808354040283529160200191620019ff565b820191906000526020600020905b815481529060010190602001808311620019e157829003601f168201915b5050505050815260200160018201805462001a1a906200ab32565b80601f016020809104026020016040519081016040528092919081815260200182805462001a48906200ab32565b801562001a995780601f1062001a6d5761010080835404028352916020019162001a99565b820191906000526020600020905b81548152906001019060200180831162001a7b57829003601f168201915b505050918352505060028201546001600160a01b0316602082015260038201805460409092019162001acb906200ab32565b80601f016020809104026020016040519081016040528092919081815260200182805462001af9906200ab32565b801562001b4a5780601f1062001b1e5761010080835404028352916020019162001b4a565b820191906000526020600020905b81548152906001019060200180831162001b2c57829003601f168201915b5050509183525050600482015460ff8082161515602080850191909152610100830460070b604080860191909152600160481b90930490911615156060840152600584018054835181840281018401909452808452608090940193909160009084015b8282101562001d685760008481526020908190206040805180820182526005860290920180548352815160a08101835260018201805460ff81161515835261010090046001600160a01b03168287015260028301805495969395938701949293919284019162001c1d906200ab32565b80601f016020809104026020016040519081016040528092919081815260200182805462001c4b906200ab32565b801562001c9c5780601f1062001c705761010080835404028352916020019162001c9c565b820191906000526020600020905b81548152906001019060200180831162001c7e57829003601f168201915b5050505050815260200160028201805462001cb7906200ab32565b80601f016020809104026020016040519081016040528092919081815260200182805462001ce5906200ab32565b801562001d365780601f1062001d0a5761010080835404028352916020019162001d36565b820191906000526020600020905b81548152906001019060200180831162001d1857829003601f168201915b5050509183525050600391909101546001600160a01b0316602091820152915291835250600192909201910162001bad565b5050509082525060408051606080820183526006850154600781810b84526001600160a01b03600160401b928390041660208581019190915296810154810b848601529486019290925294865260088701549283900b8685015260ff9083048116151586830152600160481b83048116151594860194909452600160501b9091049092161515608084015260098401805483518184028101840190945280845260a090940193909160009084015b8282101562001e9b5760008481526020908190206040805160a081018252600286029092018054600781900b84526001600160a01b03600160401b820481168587015260ff600160e01b83048116151594860194909452600160e81b909104909216151560608401526001908101549091166080830152908352909201910162001e16565b505050508152602001600a8201805480602002602001604051908101604052809291908181526020016000905b8282101562001f545760008481526020908190206040805160c081018252600286029092018054600781810b8552600160401b8204810b85870152600160801b8204810b93850193909352600160c01b900490910b606083015260019081015460ff81161515608084015261010090046001600160a01b031660a0830152908352909201910162001ec8565b505050508152602001600b8201805480602002602001604051908101604052809291908181526020016000905b82821015620020115760008481526020908190206040805160c081018252600386029092018054600781810b8552600160401b8204810b85870152600160801b909104900b918301919091526001808201546001600160a01b038082166060860152600160a01b90910460ff161515608085015260029092015490911660a0830152908352909201910162001f81565b505050508152602001600c820180546200202b906200ab32565b80601f016020809104026020016040519081016040528092919081815260200182805462002059906200ab32565b8015620020aa5780601f106200207e57610100808354040283529160200191620020aa565b820191906000526020600020905b8154815290600101906020018083116200208c57829003601f168201915b50505050508152505090505b6016939092509050565b6000620020cc62008c1c565b6001600160a01b03841660009081526004602052604080822081516102408101909252805482906101208201908390829082906200210a906200ab32565b80601f016020809104026020016040519081016040528092919081815260200182805462002138906200ab32565b8015620021895780601f106200215d5761010080835404028352916020019162002189565b820191906000526020600020905b8154815290600101906020018083116200216b57829003601f168201915b50505050508152602001600182018054620021a4906200ab32565b80601f0160208091040260200160405190810160405280929190818152602001828054620021d2906200ab32565b8015620022235780601f10620021f75761010080835404028352916020019162002223565b820191906000526020600020905b8154815290600101906020018083116200220557829003601f168201915b505050918352505060028201546001600160a01b0316602082015260038201805460409092019162002255906200ab32565b80601f016020809104026020016040519081016040528092919081815260200182805462002283906200ab32565b8015620022d45780601f10620022a857610100808354040283529160200191620022d4565b820191906000526020600020905b815481529060010190602001808311620022b657829003601f168201915b5050509183525050600482015460ff8082161515602080850191909152610100830460070b604080860191909152600160481b90930490911615156060840152600584018054835181840281018401909452808452608090940193909160009084015b82821015620024f25760008481526020908190206040805180820182526005860290920180548352815160a08101835260018201805460ff81161515835261010090046001600160a01b031682870152600283018054959693959387019492939192840191620023a7906200ab32565b80601f0160208091040260200160405190810160405280929190818152602001828054620023d5906200ab32565b8015620024265780601f10620023fa5761010080835404028352916020019162002426565b820191906000526020600020905b8154815290600101906020018083116200240857829003601f168201915b5050505050815260200160028201805462002441906200ab32565b80601f01602080910402602001604051908101604052809291908181526020018280546200246f906200ab32565b8015620024c05780601f106200249457610100808354040283529160200191620024c0565b820191906000526020600020905b815481529060010190602001808311620024a257829003601f168201915b5050509183525050600391909101546001600160a01b0316602091820152915291835250600192909201910162002337565b5050509082525060408051606080820183526006850154600781810b84526001600160a01b03600160401b928390041660208581019190915296810154810b848601529486019290925294865260088701549283900b8685015260ff9083048116151586830152600160481b83048116151594860194909452600160501b9091049092161515608084015260098401805483518184028101840190945280845260a090940193909160009084015b82821015620026255760008481526020908190206040805160a081018252600286029092018054600781900b84526001600160a01b03600160401b820481168587015260ff600160e01b83048116151594860194909452600160e81b9091049092161515606084015260019081015490911660808301529083529092019101620025a0565b505050508152602001600a8201805480602002602001604051908101604052809291908181526020016000905b82821015620026de5760008481526020908190206040805160c081018252600286029092018054600781810b8552600160401b8204810b85870152600160801b8204810b93850193909352600160c01b900490910b606083015260019081015460ff81161515608084015261010090046001600160a01b031660a0830152908352909201910162002652565b505050508152602001600b8201805480602002602001604051908101604052809291908181526020016000905b828210156200279b5760008481526020908190206040805160c081018252600386029092018054600781810b8552600160401b8204810b85870152600160801b909104900b918301919091526001808201546001600160a01b038082166060860152600160a01b90910460ff161515608085015260029092015490911660a083015290835290920191016200270b565b505050508152602001600c82018054620027b5906200ab32565b80601f0160208091040260200160405190810160405280929190818152602001828054620027e3906200ab32565b8015620028345780601f10620028085761010080835404028352916020019162002834565b820191906000526020600020905b8154815290600101906020018083116200281657829003601f168201915b505050919092525050506001600160a01b03808716600090815260056020908152604080832060078a810b8552908352818420825160808101845281549687168152600160a01b90960490910b928501929092526001820180549596509294919290840191620028a4906200ab32565b80601f0160208091040260200160405190810160405280929190818152602001828054620028d2906200ab32565b8015620029235780601f10620028f75761010080835404028352916020019162002923565b820191906000526020600020905b8154815290600101906020018083116200290557829003601f168201915b5050509183525050600291909101546001600160a01b03908116602092830152938552600796870b85820152815184166040808701919091529082015190960b60608086019190915295810151608085015294909401511660a0820152601694909350915050565b6000806200299862006e07565b620029a63388888862006e83565b9150600782900b601614620029be5750600062002a44565b620029c862008b35565b620029d262008b57565b888152600788900b60208083019190915260a0820187905260c08201869052600388900b90830152808252604051600090839062002a109062008c0e565b62002a1c91906200aafd565b604051809103906000f08015801562002a39573d6000803e3d6000fd5b506016955093505050505b9550959350505050565b600062002a5a62006e07565b835183518351818314801562002a6f57508083145b62002aae5760405162461bcd60e51b815260206004820152600e60248201526d554e455155414c5f41525241595360901b60448201526064016200102c565b60008080805b8681101562002b6c578a818151811062002ad25762002ad26200ab69565b6020026020010151935089818151811062002af15762002af16200ab69565b6020026020010151925088818151811062002b105762002b106200ab69565b6020026020010151915062002b288c85858562004795565b9750600788900b60161462002b575760405163fbe0be3960e01b8152600789900b60048201526024016200102c565b8062002b63816200ab95565b91505062002ab4565b50505050505050949350505050565b600062002b8762006e07565b60005b825181101562002be75762002bbc8484838151811062002bae5762002bae6200ab69565b602002602001015162004537565b9150600782900b60161462002bd2575062000d93565b8062002bde816200ab95565b91505062002b8a565b5060169392505050565b600062002bfd62006e07565b3362002c0c858286866200757e565b9150600782900b60161462002c22575062002c96565b6040516301fe292760e31b81526001600160a01b03828116600483015285811660248301528415156044830152861690630ff14938906064015b600060405180830381600087803b15801562002c7757600080fd5b505af115801562002c8c573d6000803e3d6000fd5b5060169450505050505b9392505050565b600062002ca962006e07565b62002cb533836200766b565b9050600781900b60161462002cc957919050565b6001600160a01b0382166000908152600c60205260409020805461ffff191660011790555b919050565b6040805160a0810182526000808252602082018190526060928201839052828201929092526080810182905262002d2a846200753c565b62002d395760a7915062002d6a565b6001600160a01b038085166000908152600a6020908152604080832087845282529091205490911690820152601691505b9250929050565b600062002d7d62008b35565b6001600160a01b03831660009081526002602052604090819020815161028081018352815490928391908201908390829061016085019083908290829062002dc5906200ab32565b80601f016020809104026020016040519081016040528092919081815260200182805462002df3906200ab32565b801562002e445780601f1062002e185761010080835404028352916020019162002e44565b820191906000526020600020905b81548152906001019060200180831162002e2657829003601f168201915b5050505050815260200160018201805462002e5f906200ab32565b80601f016020809104026020016040519081016040528092919081815260200182805462002e8d906200ab32565b801562002ede5780601f1062002eb25761010080835404028352916020019162002ede565b820191906000526020600020905b81548152906001019060200180831162002ec057829003601f168201915b505050918352505060028201546001600160a01b0316602082015260038201805460409092019162002f10906200ab32565b80601f016020809104026020016040519081016040528092919081815260200182805462002f3e906200ab32565b801562002f8f5780601f1062002f635761010080835404028352916020019162002f8f565b820191906000526020600020905b81548152906001019060200180831162002f7157829003601f168201915b5050509183525050600482015460ff8082161515602080850191909152610100830460070b604080860191909152600160481b90930490911615156060840152600584018054835181840281018401909452808452608090940193909160009084015b82821015620031ad5760008481526020908190206040805180820182526005860290920180548352815160a08101835260018201805460ff81161515835261010090046001600160a01b03168287015260028301805495969395938701949293919284019162003062906200ab32565b80601f016020809104026020016040519081016040528092919081815260200182805462003090906200ab32565b8015620030e15780601f10620030b557610100808354040283529160200191620030e1565b820191906000526020600020905b815481529060010190602001808311620030c357829003601f168201915b50505050508152602001600282018054620030fc906200ab32565b80601f01602080910402602001604051908101604052809291908181526020018280546200312a906200ab32565b80156200317b5780601f106200314f576101008083540402835291602001916200317b565b820191906000526020600020905b8154815290600101906020018083116200315d57829003601f168201915b5050509183525050600391909101546001600160a01b0316602091820152915291835250600192909201910162002ff2565b5050509082525060408051606080820183526006850154600781810b84526001600160a01b03600160401b928390041660208581019190915296810154810b848601529486019290925294865260088701549283900b8685015260ff9083048116151586830152600160481b83048116151594860194909452600160501b9091049092161515608084015260098401805483518184028101840190945280845260a090940193909160009084015b82821015620032e05760008481526020908190206040805160a081018252600286029092018054600781900b84526001600160a01b03600160401b820481168587015260ff600160e01b83048116151594860194909452600160e81b90910490921615156060840152600190810154909116608083015290835290920191016200325b565b505050508152602001600a8201805480602002602001604051908101604052809291908181526020016000905b82821015620033995760008481526020908190206040805160c081018252600286029092018054600781810b8552600160401b8204810b85870152600160801b8204810b93850193909352600160c01b900490910b606083015260019081015460ff81161515608084015261010090046001600160a01b031660a083015290835290920191016200330d565b505050508152602001600b8201805480602002602001604051908101604052809291908181526020016000905b82821015620034565760008481526020908190206040805160c081018252600386029092018054600781810b8552600160401b8204810b85870152600160801b909104900b918301919091526001808201546001600160a01b038082166060860152600160a01b90910460ff161515608085015260029092015490911660a08301529083529092019101620033c6565b505050508152602001600c8201805462003470906200ab32565b80601f01602080910402602001604051908101604052809291908181526020018280546200349e906200ab32565b8015620034ef5780601f10620034c357610100808354040283529160200191620034ef565b820191906000526020600020905b815481529060010190602001808311620034d157829003601f168201915b505050919092525050508152600d919091015460030b602090910152919391925050565b6001600160a01b0382166000908152600360209081526040808320546006909252822054829160ff9081169116811580156200354d575080155b1562003564575060a792506000915062002d6a9050565b6000620035738760026200770a565b6001600160a01b0316141562003594575060ac92506000915062002d6a9050565b6000821562003d3a576001600160a01b0387166000908152600260205260408082208151610280810183528154909283919082019083908290610160850190839082908290620035e4906200ab32565b80601f016020809104026020016040519081016040528092919081815260200182805462003612906200ab32565b8015620036635780601f10620036375761010080835404028352916020019162003663565b820191906000526020600020905b8154815290600101906020018083116200364557829003601f168201915b505050505081526020016001820180546200367e906200ab32565b80601f0160208091040260200160405190810160405280929190818152602001828054620036ac906200ab32565b8015620036fd5780601f10620036d157610100808354040283529160200191620036fd565b820191906000526020600020905b815481529060010190602001808311620036df57829003601f168201915b505050918352505060028201546001600160a01b031660208201526003820180546040909201916200372f906200ab32565b80601f01602080910402602001604051908101604052809291908181526020018280546200375d906200ab32565b8015620037ae5780601f106200378257610100808354040283529160200191620037ae565b820191906000526020600020905b8154815290600101906020018083116200379057829003601f168201915b5050509183525050600482015460ff8082161515602080850191909152610100830460070b604080860191909152600160481b90930490911615156060840152600584018054835181840281018401909452808452608090940193909160009084015b82821015620039cc5760008481526020908190206040805180820182526005860290920180548352815160a08101835260018201805460ff81161515835261010090046001600160a01b03168287015260028301805495969395938701949293919284019162003881906200ab32565b80601f0160208091040260200160405190810160405280929190818152602001828054620038af906200ab32565b8015620039005780601f10620038d45761010080835404028352916020019162003900565b820191906000526020600020905b815481529060010190602001808311620038e257829003601f168201915b505050505081526020016002820180546200391b906200ab32565b80601f016020809104026020016040519081016040528092919081815260200182805462003949906200ab32565b80156200399a5780601f106200396e576101008083540402835291602001916200399a565b820191906000526020600020905b8154815290600101906020018083116200397c57829003601f168201915b5050509183525050600391909101546001600160a01b0316602091820152915291835250600192909201910162003811565b5050509082525060408051606080820183526006850154600781810b84526001600160a01b03600160401b928390041660208581019190915296810154810b848601529486019290925294865260088701549283900b8685015260ff9083048116151586830152600160481b83048116151594860194909452600160501b9091049092161515608084015260098401805483518184028101840190945280845260a090940193909160009084015b8282101562003aff5760008481526020908190206040805160a081018252600286029092018054600781900b84526001600160a01b03600160401b820481168587015260ff600160e01b83048116151594860194909452600160e81b909104909216151560608401526001908101549091166080830152908352909201910162003a7a565b505050508152602001600a8201805480602002602001604051908101604052809291908181526020016000905b8282101562003bb85760008481526020908190206040805160c081018252600286029092018054600781810b8552600160401b8204810b85870152600160801b8204810b93850193909352600160c01b900490910b606083015260019081015460ff81161515608084015261010090046001600160a01b031660a0830152908352909201910162003b2c565b505050508152602001600b8201805480602002602001604051908101604052809291908181526020016000905b8282101562003c755760008481526020908190206040805160c081018252600386029092018054600781810b8552600160401b8204810b85870152600160801b909104900b918301919091526001808201546001600160a01b038082166060860152600160a01b90910460ff161515608085015260029092015490911660a0830152908352909201910162003be5565b505050508152602001600c8201805462003c8f906200ab32565b80601f016020809104026020016040519081016040528092919081815260200182805462003cbd906200ab32565b801562003d0e5780601f1062003ce25761010080835404028352916020019162003d0e565b820191906000526020600020905b81548152906001019060200180831162003cf057829003601f168201915b505050919092525050508152600d919091015460030b602090910152515160c001519150620044b69050565b6001600160a01b038716600090815260046020526040808220815161024081019092528054829061012082019083908290829062003d78906200ab32565b80601f016020809104026020016040519081016040528092919081815260200182805462003da6906200ab32565b801562003df75780601f1062003dcb5761010080835404028352916020019162003df7565b820191906000526020600020905b81548152906001019060200180831162003dd957829003601f168201915b5050505050815260200160018201805462003e12906200ab32565b80601f016020809104026020016040519081016040528092919081815260200182805462003e40906200ab32565b801562003e915780601f1062003e655761010080835404028352916020019162003e91565b820191906000526020600020905b81548152906001019060200180831162003e7357829003601f168201915b505050918352505060028201546001600160a01b0316602082015260038201805460409092019162003ec3906200ab32565b80601f016020809104026020016040519081016040528092919081815260200182805462003ef1906200ab32565b801562003f425780601f1062003f165761010080835404028352916020019162003f42565b820191906000526020600020905b81548152906001019060200180831162003f2457829003601f168201915b5050509183525050600482015460ff8082161515602080850191909152610100830460070b604080860191909152600160481b90930490911615156060840152600584018054835181840281018401909452808452608090940193909160009084015b82821015620041605760008481526020908190206040805180820182526005860290920180548352815160a08101835260018201805460ff81161515835261010090046001600160a01b03168287015260028301805495969395938701949293919284019162004015906200ab32565b80601f016020809104026020016040519081016040528092919081815260200182805462004043906200ab32565b8015620040945780601f10620040685761010080835404028352916020019162004094565b820191906000526020600020905b8154815290600101906020018083116200407657829003601f168201915b50505050508152602001600282018054620040af906200ab32565b80601f0160208091040260200160405190810160405280929190818152602001828054620040dd906200ab32565b80156200412e5780601f1062004102576101008083540402835291602001916200412e565b820191906000526020600020905b8154815290600101906020018083116200411057829003601f168201915b5050509183525050600391909101546001600160a01b0316602091820152915291835250600192909201910162003fa5565b5050509082525060408051606080820183526006850154600781810b84526001600160a01b03600160401b928390041660208581019190915296810154810b848601529486019290925294865260088701549283900b8685015260ff9083048116151586830152600160481b83048116151594860194909452600160501b9091049092161515608084015260098401805483518184028101840190945280845260a090940193909160009084015b82821015620042935760008481526020908190206040805160a081018252600286029092018054600781900b84526001600160a01b03600160401b820481168587015260ff600160e01b83048116151594860194909452600160e81b90910490921615156060840152600190810154909116608083015290835290920191016200420e565b505050508152602001600a8201805480602002602001604051908101604052809291908181526020016000905b828210156200434c5760008481526020908190206040805160c081018252600286029092018054600781810b8552600160401b8204810b85870152600160801b8204810b93850193909352600160c01b900490910b606083015260019081015460ff81161515608084015261010090046001600160a01b031660a08301529083529092019101620042c0565b505050508152602001600b8201805480602002602001604051908101604052809291908181526020016000905b82821015620044095760008481526020908190206040805160c081018252600386029092018054600781810b8552600160401b8204810b85870152600160801b909104900b918301919091526001808201546001600160a01b038082166060860152600160a01b90910460ff161515608085015260029092015490911660a0830152908352909201910162004379565b505050508152602001600c8201805462004423906200ab32565b80601f016020809104026020016040519081016040528092919081815260200182805462004451906200ab32565b8015620044a25780601f106200447657610100808354040283529160200191620044a2565b820191906000526020600020905b8154815290600101906020018083116200448457829003601f168201915b505050919092525050905160c00151925050505b6001600160a01b038088166000908152600960209081526040808320938a1683529281529082902082518084019093525460ff8082161515808552610100909204161515918301919091526200452057816200451457600062004527565b80602001511562004527565b8060200151155b6016999098509650505050505050565b60006200454362006e07565b6001600160a01b03821660009081526003602052604090205460ff161580156200458657506001600160a01b03821660009081526006602052604090205460ff16155b1562004595575060a762000d93565b6001600160a01b0380831660009081526007602090815260408083209387168352929052205460ff1615620045cd575060c262000d93565b506001600160a01b038082166000908152600760209081526040808320938616835292905220805460ff19166001179055601692915050565b600062004613336200753c565b620046545760405162461bcd60e51b815260206004820152601060248201526f2727aa2fa422a222a920afaa27a5a2a760811b60448201526064016200102c565b336200114c81858562007746565b60006200466e62006e07565b6200467b33848462007981565b9050600781900b601614620046905762000d93565b6001600160a01b03928316600090815260096020908152604080832094909516825292909252919020805461ffff191661010117905590565b6000620046d6336200753c565b620047175760405162461bcd60e51b815260206004820152601060248201526f2727aa2fa422a222a920afaa27a5a2a760811b60448201526064016200102c565b3362004726818686866200757e565b95945050505050565b60006200473b62006e07565b6200474833848462007981565b9050600781900b6016146200475d5762000d93565b6001600160a01b03928316600090815260096020908152604080832094909516825292909252919020805461ffff1916600117905590565b6000620047a162006e07565b336001600160401b0383166000620047bd8884898986620071bb565b9094509050600784900b601614620047d8575050506200114c565b60405163b59fc61960e01b815281151560048201526001600160a01b038481166024830152888116604483015287811660648301526084820184905289169063b59fc6199060a401602060405180830381600087803b1580156200483b57600080fd5b505af115801562004850573d6000803e3d6000fd5b505050506040513d601f19601f820116820180604052508101906200487691906200ab12565b6001600160a01b03988916600090815260056020908152604080832060079990990b8352979052959095208054969098166001600160a01b03199687161788555050506002909401805490921690915592915050565b620048d662006e07565b5050565b6000620048e662006e07565b620048f333848462007a2b565b9050600781900b601614620049085762000d93565b6001600160a01b03831660009081526003602052604090205460ff1615620049365762004936838362007ad2565b6001600160a01b03831660009081526006602052604090205460ff161562000d935762000d93838362007c51565b60006200497062006e07565b338383620049818784848462007dcc565b9350600784900b601614620049995750505062002c96565b6040516306e483a560e01b81526001600160a01b038381166004830152600783900b60248301528816906306e483a590604401600060405180830381600087803b158015620049e757600080fd5b505af1158015620049fc573d6000803e3d6000fd5b505050506001600160a01b03968716600090815260056020908152604080832060079490940b83529290522060020180546001600160a01b03191691909616179094555060169392505050565b600062004a5562006e07565b60005b825181101562002be757600062004a8c8585848151811062004a7e5762004a7e6200ab69565b602002602001015162000e24565b9050600781900b60161462004aa557915062000d939050565b508062004ab2816200ab95565b91505062004a58565b600062004ac762006e07565b62004ad333836200766b565b9050600781900b60161462004ae757919050565b6001600160a01b03919091166000908152600c60205260409020805461ffff191661010117905590565b600062004b1d62006e07565b62004b2a33848462007a2b565b9050600781900b60161462004b3f5762000d93565b6001600160a01b03831660009081526003602052604090205460ff161562004b6d5762004b6d838362007f89565b6001600160a01b03831660009081526006602052604090205460ff161562000d935762000d938383620080cd565b600062004ba762006e07565b8251825180821462004bed5760405162461bcd60e51b815260206004820152600e60248201526d554e455155414c5f41525241595360901b60448201526064016200102c565b33600080805b8581101562004c8c5788818151811062004c115762004c116200ab69565b6020026020010151925087818151811062004c305762004c306200ab69565b6020026020010151915062004c488a85858562005c3c565b9650600787900b60161462004c775760405163fbe0be3960e01b8152600788900b60048201526024016200102c565b8062004c83816200ab95565b91505062004bf3565b5050505050509392505050565b600062004ca833848462008212565b50506001600160a01b0391821660009081526008602090815260408083209390941682529190915220805461ffff1916610101179055601690565b6001600160a01b038316600090815260036020526040812054819060ff1662004d13575060a79050600062000fa6565b604051636eb1769f60e11b81526001600160a01b038581166004830152848116602483015286169063dd62ed3e9060440160206040518083038186803b15801562004d5d57600080fd5b505afa15801562004d72573d6000803e3d6000fd5b505050506040513d601f19601f8201168201806040525081019062004d9891906200abb3565b6016969095509350505050565b6001600160a01b0381166000908152600360209081526040808320546006909252822054829160ff90811691168115801562004ddf575080155b1562004df2575060a79491935090915050565b8162004e0057600162004d98565b506016946000945092505050565b600062004e1a62006e07565b33600062004e2c8783888888620071bb565b9093509050600783900b60161462004e465750506200114c565b60405163b59fc61960e01b815281151560048201526001600160a01b038381166024830152878116604483015286811660648301526084820186905288169063b59fc6199060a401602060405180830381600087803b15801562004ea957600080fd5b505af115801562004ebe573d6000803e3d6000fd5b505050506040513d601f19601f8201168201806040525081019062004ee491906200ab12565b5050506001600160a01b03948516600090815260056020908152604080832060079590950b8352939052919091208054929094166001600160a01b03199283161784556002909301805490911690555090565b600062004f44336200753c565b62004f855760405162461bcd60e51b815260206004820152601060248201526f2727aa2fa422a222a920afaa27a5a2a760811b60448201526064016200102c565b3362004f958187878787620071bb565b509695505050505050565b600062004fad336200753c565b62004fee5760405162461bcd60e51b815260206004820152601060248201526f2727aa2fa422a222a920afaa27a5a2a760811b60448201526064016200102c565b3362004726818585620082e3565b6000806200500962006e07565b62005018338660008062006e83565b9150600782900b601614620050305750600062000fa6565b6200503a62008b57565b85815260a0810185905260e0810184905260405160009082906200505e9062008c59565b6200506a91906200abcd565b604051809103906000f08015801562005087573d6000803e3d6000fd5b5060169890975095505050505050565b6001600160a01b038116600090815260026020908152604080832060090180548251818502810185019093528083526016946060948594859490939092909184015b828210156200515e5760008481526020908190206040805160a081018252600286029092018054600781900b84526001600160a01b03600160401b820481168587015260ff600160e01b83048116151594860194909452600160e81b9091049092161515606084015260019081015490911660808301529083529092019101620050d9565b5050506001600160a01b0387166000908152600260209081526040808320600a0180548251818502810185019093528083529598509094909350919084015b82821015620052295760008481526020908190206040805160c081018252600286029092018054600781810b8552600160401b8204810b85870152600160801b8204810b93850193909352600160c01b900490910b606083015260019081015460ff81161515608084015261010090046001600160a01b031660a083015290835290920191016200519d565b5050506001600160a01b0387166000908152600260209081526040808320600b0180548251818502810185019093528083529597509094909350919084015b82821015620052f85760008481526020908190206040805160c081018252600386029092018054600781810b8552600160401b8204810b85870152600160801b909104900b918301919091526001808201546001600160a01b038082166060860152600160a01b90910460ff161515608085015260029092015490911660a0830152908352909201910162005268565b5050505090509193509193565b60006200531162006e07565b6200531e33848462008212565b50506001600160a01b0391821660009081526008602090815260408083209390941682529190915220805461ffff19166001179055601690565b60006200536462006e07565b6200537133848462007a2b565b9050600781900b601614620053865762000d93565b6001600160a01b03831660009081526003602052604090205460ff1615620053b457620053b483836200836b565b6001600160a01b03831660009081526006602052604090205460ff161562000d935762000d938383620083e1565b6040805160608101825260008082526020820181905291810182905262005409836200753c565b620054185760a7939092509050565b6001600160a01b03831660009081526003602052604090205460ff16156200548e57506001600160a01b0380831660009081526002602090815260409182902082516060810184526006820154600781810b8352600160401b9091049095169281019290925283015490920b90820152620020b6565b50506001600160a01b0390811660009081526004602090815260409182902082516060810184526006820154600781810b8352600160401b9091049095169281019290925283015490920b90820152601691565b600080620054ef62006e07565b620054fc85858562007746565b9150600782900b601614620055145750600062000fa6565b6001600160a01b03851660009081526003602052604090205460ff16156200561557604051630cc3b83560e21b8152600785900b600482015285906001600160a01b0382169063330ee0d490602401600060405180830381600087803b1580156200557e57600080fd5b505af115801562005593573d6000803e3d6000fd5b50505050806001600160a01b03166318160ddd6040518163ffffffff1660e01b815260040160206040518083038186803b158015620055d157600080fd5b505afa158015620055e6573d6000803e3d6000fd5b505050506040513d601f19601f820116820180604052508101906200560c91906200abb3565b91505062000fa6565b6040516310e10ee560e31b81526001600160a01b03861690638708772890620056439086906004016200abe2565b602060405180830381600087803b1580156200565e57600080fd5b505af115801562005673573d6000803e3d6000fd5b505050506040513d601f19601f820116820180604052508101906200569991906200ab12565b8351909150600090815b818110156200572657858181518110620056c157620056c16200ab69565b6020908102919091018101516001600160a01b038a166000908152600583526040808220600784900b83529093529190912080546001600160a01b031990811682556002909101805490911690559250806200571d816200ab95565b915050620056a3565b505050935093915050565b6001600160a01b0382163014156000816200574e57601662005761565b6200576184846000015160008062006e83565b9050600781900b601614620057ab5760405162461bcd60e51b815260206004820152600f60248201526e14149150d21150d2d7d19052531151608a1b60448201526064016200102c565b336000818152600660205260408120805460ff191660011790556200105a8562008457565b6000806060620057df62006e07565b620057ec868686620082e3565b9250600783900b601614620058135750506040805160008082526020820190925262005add565b6001600160a01b03861660009081526003602052604090205460ff161562005927576040516303f5483b60e01b8152600786900b600482015286906001600160a01b038216906303f5483b90602401600060405180830381600087803b1580156200587d57600080fd5b505af115801562005892573d6000803e3d6000fd5b50505050806001600160a01b03166318160ddd6040518163ffffffff1660e01b815260040160206040518083038186803b158015620058d057600080fd5b505afa158015620058e5573d6000803e3d6000fd5b505050506040513d601f19601f820116820180604052508101906200590b91906200abb3565b604080516000815260208101909152909350915062005add9050565b60408051600180825281830190925290602080830190803683375050604051633d08925d60e01b81529192506000916001600160a01b0389169150633d08925d90620059789088906004016200abf7565b6040805180830381600087803b1580156200599257600080fd5b505af1158015620059a7573d6000803e3d6000fd5b505050506040513d601f19601f82011682018060405250810190620059cd91906200ac5d565b80925081945050508082600081518110620059ec57620059ec6200ab69565b602002602001019060070b908160070b81525050604051806080016040528062005a168962006da0565b6001600160a01b031681526020014260070b815260200162005a3887620084a9565b8152600060209182018190526001600160a01b038a81168252600583526040808320600787900b845284529182902084518154868601516001600160401b0316600160a01b026001600160e01b03199091169190931617919091178155908301518051919262005ab19260018501929091019062008c67565b5060609190910151600290910180546001600160a01b0319166001600160a01b03909216919091179055505b93509350939050565b600062005af262006e07565b3362005b018582868662007dcc565b9150600782900b60161462005b17575062002c96565b60405163b6ef1b5960e01b81526001600160a01b03828116600483015285811660248301526044820185905286169063b6ef1b599060640162002c5c565b600062005b62336200753c565b62005ba35760405162461bcd60e51b815260206004820152601060248201526f2727aa2fa422a222a920afaa27a5a2a760811b60448201526064016200102c565b33620047268186868662007dcc565b60008062005bbf62006e07565b62005bce338460008062006e83565b9150600782900b60161462005be557506000915091565b62005bef62008b57565b838152604051600090829062005c059062008c59565b62005c1191906200abcd565b604051809103906000f08015801562005c2e573d6000803e3d6000fd5b506016945092505050915091565b600062005c4862006e07565b336000600784900b62005c5f8884898985620071bb565b9094509150600784900b60161462005c7a575050506200114c565b60405163b59fc61960e01b815282151560048201526001600160a01b038481166024830152888116604483015287811660648301526084820183905289169063b59fc6199060a401602060405180830381600087803b15801562005cdd57600080fd5b505af115801562005cf2573d6000803e3d6000fd5b505050506040513d601f19601f8201168201806040525081019062005d1891906200ab12565b98975050505050505050565b600062002c9662006e07565b600062005d3c62006e07565b62005d48338362008643565b9050600781900b60161462005d5c57919050565b6001600160a01b0382166000908152600b60205260409020805460ff19166001179055919050565b6001600160a01b0382166000908152600360209081526040808320546006909252822054829160ff90811691168115801562005dbe575080155b1562005dd5575060a792506000915062002d6a9050565b600062005de48760016200770a565b6001600160a01b0316141562005e05575060b192506000915062002d6a9050565b60008215620065aa576001600160a01b038716600090815260026020526040808220815161028081018352815490928391908201908390829061016085019083908290829062005e55906200ab32565b80601f016020809104026020016040519081016040528092919081815260200182805462005e83906200ab32565b801562005ed45780601f1062005ea85761010080835404028352916020019162005ed4565b820191906000526020600020905b81548152906001019060200180831162005eb657829003601f168201915b5050505050815260200160018201805462005eef906200ab32565b80601f016020809104026020016040519081016040528092919081815260200182805462005f1d906200ab32565b801562005f6e5780601f1062005f425761010080835404028352916020019162005f6e565b820191906000526020600020905b81548152906001019060200180831162005f5057829003601f168201915b505050918352505060028201546001600160a01b0316602082015260038201805460409092019162005fa0906200ab32565b80601f016020809104026020016040519081016040528092919081815260200182805462005fce906200ab32565b80156200601f5780601f1062005ff3576101008083540402835291602001916200601f565b820191906000526020600020905b8154815290600101906020018083116200600157829003601f168201915b5050509183525050600482015460ff8082161515602080850191909152610100830460070b604080860191909152600160481b90930490911615156060840152600584018054835181840281018401909452808452608090940193909160009084015b828210156200623d5760008481526020908190206040805180820182526005860290920180548352815160a08101835260018201805460ff81161515835261010090046001600160a01b031682870152600283018054959693959387019492939192840191620060f2906200ab32565b80601f016020809104026020016040519081016040528092919081815260200182805462006120906200ab32565b8015620061715780601f10620061455761010080835404028352916020019162006171565b820191906000526020600020905b8154815290600101906020018083116200615357829003601f168201915b505050505081526020016002820180546200618c906200ab32565b80601f0160208091040260200160405190810160405280929190818152602001828054620061ba906200ab32565b80156200620b5780601f10620061df576101008083540402835291602001916200620b565b820191906000526020600020905b815481529060010190602001808311620061ed57829003601f168201915b5050509183525050600391909101546001600160a01b0316602091820152915291835250600192909201910162006082565b5050509082525060408051606080820183526006850154600781810b84526001600160a01b03600160401b928390041660208581019190915296810154810b848601529486019290925294865260088701549283900b8685015260ff9083048116151586830152600160481b83048116151594860194909452600160501b9091049092161515608084015260098401805483518184028101840190945280845260a090940193909160009084015b82821015620063705760008481526020908190206040805160a081018252600286029092018054600781900b84526001600160a01b03600160401b820481168587015260ff600160e01b83048116151594860194909452600160e81b9091049092161515606084015260019081015490911660808301529083529092019101620062eb565b505050508152602001600a8201805480602002602001604051908101604052809291908181526020016000905b82821015620064295760008481526020908190206040805160c081018252600286029092018054600781810b8552600160401b8204810b85870152600160801b8204810b93850193909352600160c01b900490910b606083015260019081015460ff81161515608084015261010090046001600160a01b031660a083015290835290920191016200639d565b505050508152602001600b8201805480602002602001604051908101604052809291908181526020016000905b82821015620064e65760008481526020908190206040805160c081018252600386029092018054600781810b8552600160401b8204810b85870152600160801b909104900b918301919091526001808201546001600160a01b038082166060860152600160a01b90910460ff161515608085015260029092015490911660a0830152908352909201910162006456565b505050508152602001600c8201805462006500906200ab32565b80601f01602080910402602001604051908101604052809291908181526020018280546200652e906200ab32565b80156200657f5780601f1062006553576101008083540402835291602001916200657f565b820191906000526020600020905b8154815290600101906020018083116200656157829003601f168201915b505050919092525050508152600d919091015460030b6020909101525160600151915062006d249050565b6001600160a01b0387166000908152600460205260408082208151610240810190925280548290610120820190839082908290620065e8906200ab32565b80601f016020809104026020016040519081016040528092919081815260200182805462006616906200ab32565b8015620066675780601f106200663b5761010080835404028352916020019162006667565b820191906000526020600020905b8154815290600101906020018083116200664957829003601f168201915b5050505050815260200160018201805462006682906200ab32565b80601f0160208091040260200160405190810160405280929190818152602001828054620066b0906200ab32565b8015620067015780601f10620066d55761010080835404028352916020019162006701565b820191906000526020600020905b815481529060010190602001808311620066e357829003601f168201915b505050918352505060028201546001600160a01b0316602082015260038201805460409092019162006733906200ab32565b80601f016020809104026020016040519081016040528092919081815260200182805462006761906200ab32565b8015620067b25780601f106200678657610100808354040283529160200191620067b2565b820191906000526020600020905b8154815290600101906020018083116200679457829003601f168201915b5050509183525050600482015460ff8082161515602080850191909152610100830460070b604080860191909152600160481b90930490911615156060840152600584018054835181840281018401909452808452608090940193909160009084015b82821015620069d05760008481526020908190206040805180820182526005860290920180548352815160a08101835260018201805460ff81161515835261010090046001600160a01b03168287015260028301805495969395938701949293919284019162006885906200ab32565b80601f0160208091040260200160405190810160405280929190818152602001828054620068b3906200ab32565b8015620069045780601f10620068d85761010080835404028352916020019162006904565b820191906000526020600020905b815481529060010190602001808311620068e657829003601f168201915b505050505081526020016002820180546200691f906200ab32565b80601f01602080910402602001604051908101604052809291908181526020018280546200694d906200ab32565b80156200699e5780601f1062006972576101008083540402835291602001916200699e565b820191906000526020600020905b8154815290600101906020018083116200698057829003601f168201915b5050509183525050600391909101546001600160a01b0316602091820152915291835250600192909201910162006815565b5050509082525060408051606080820183526006850154600781810b84526001600160a01b03600160401b928390041660208581019190915296810154810b848601529486019290925294865260088701549283900b8685015260ff9083048116151586830152600160481b83048116151594860194909452600160501b9091049092161515608084015260098401805483518184028101840190945280845260a090940193909160009084015b8282101562006b035760008481526020908190206040805160a081018252600286029092018054600781900b84526001600160a01b03600160401b820481168587015260ff600160e01b83048116151594860194909452600160e81b909104909216151560608401526001908101549091166080830152908352909201910162006a7e565b505050508152602001600a8201805480602002602001604051908101604052809291908181526020016000905b8282101562006bbc5760008481526020908190206040805160c081018252600286029092018054600781810b8552600160401b8204810b85870152600160801b8204810b93850193909352600160c01b900490910b606083015260019081015460ff81161515608084015261010090046001600160a01b031660a0830152908352909201910162006b30565b505050508152602001600b8201805480602002602001604051908101604052809291908181526020016000905b8282101562006c795760008481526020908190206040805160c081018252600386029092018054600781810b8552600160401b8204810b85870152600160801b909104900b918301919091526001808201546001600160a01b038082166060860152600160a01b90910460ff161515608085015260029092015490911660a0830152908352909201910162006be9565b505050508152602001600c8201805462006c93906200ab32565b80601f016020809104026020016040519081016040528092919081815260200182805462006cc1906200ab32565b801562006d125780601f1062006ce65761010080835404028352916020019162006d12565b820191906000526020600020905b81548152906001019060200180831162006cf457829003601f168201915b50505091909252505050606001519150505b6001600160a01b038088166000908152600860209081526040808320938a1683529281529082902082518084019093525460ff80821615158085526101009092041615159183019190915262006d8d578162006d8257600162004527565b806020015162004527565b6020015160169890975095505050505050565b6001600160a01b03811660009081526003602052604081205460ff161562006de557506001600160a01b03908116600090815260026020819052604090912001541690565b506001600160a01b039081166000908152600460205260409020600201541690565b306001600160a01b037f0000000000000000000000000000000000000000000000000000000000000000161462006e815760405162461bcd60e51b815260206004820152600f60248201527f4e4f5f44454c454741544543414c4c000000000000000000000000000000000060448201526064016200102c565b565b60008084604001516001600160a01b0316866001600160a01b0316149050600062006ebe8660e0015162006eb86000620086e0565b62008704565b60208101519091506001600160a01b03161562006f005780602001516001600160a01b0316876001600160a01b03161462006f005750609b91506200114c9050565b60005b8660e0015151811015620070555760008760e00151828151811062006f2c5762006f2c6200ab69565b6020026020010151905060006001600160a01b03168160200151602001516001600160a01b0316146200703f57600062006f778260200151602001516001600160a01b031631151590565b9050806200703d5781516001141562006f9a5750609b94506200114c9350505050565b81516002141562006fb5575060ba94506200114c9350505050565b81516004141562006fd0575060bc94506200114c9350505050565b81516008141562006feb575060bb94506200114c9350505050565b81516010141562007006575060bd94506200114c9350505050565b81516020141562007021575060f794506200114c9350505050565b8151604014156200703d575061010b94506200114c9350505050565b505b50806200704c816200ab95565b91505062006f03565b5081620070695750606591506200114c9050565b60008460030b12806200707f575060128460030b135b1562007092575060a891506200114c9050565b60008560070b1215620070ac575060a991506200114c9050565b8551516000620070be88602001515190565b905081620070d5575060be93506200114c92505050565b6064821115620070ee575060bf93506200114c92505050565b8062007103575060ae93506200114c92505050565b60648111156200711c575060af93506200114c92505050565b50601698975050505050505050565b80515160408101519033906200714390829062007f89565b8251516101000151620071589082906200836b565b82515160e001516200716c90829062007ad2565b6200717c818460000151620087b1565b6020928301516001600160a01b0391909116600090815260029093526040909220600d01805463ffffffff191663ffffffff9093169290921790915590565b6000806000620071ce888888886200886c565b6001600160a01b03808a166000908152600760209081526040808320938b168352929052205490915060ff1615806200722d57506001600160a01b0380891660009081526007602090815260408083209389168352929052205460ff16155b1562007242575060b891506000905062002a44565b8060c0015115806200725657508060e00151155b156200726b575060a591506000905062002a44565b806060015115806200727f57508060800151155b1562007294575060b091506000905062002a44565b6001600160a01b03871615620072b2876001600160a01b0316331490565b80620072bb5750805b82519093508990819060009062007362576040516331a9108f60e11b8152600481018990526001600160a01b03831690636352211e9060240160206040518083038186803b1580156200730d57600080fd5b505afa15801562007322573d6000803e3d6000fd5b505050506040513d601f19601f820116820180604052508101906200734891906200aadd565b6001600160a01b03168a6001600160a01b031614620073e5565b6040516370a0823160e01b81526001600160a01b038b811660048301528991908516906370a082319060240160206040518083038186803b158015620073a757600080fd5b505afa158015620073bc573d6000803e3d6000fd5b505050506040513d601f19601f82011682018060405250810190620073e291906200abb3565b10155b905080620074205784511562007405575060b2955062002a449350505050565b84602001511562007420575060ed955062002a449350505050565b85156200743b5750601695506001945062002a449350505050565b84518b90156200747e576000620074548e8d8462004ce3565b9150508981101562007477575061012597506000965062002a4495505050505050565b5062007526565b60405163430c208160e01b81526001600160a01b038281166004830152602482018b9052600091908f169063430c20819060440160206040518083038186803b158015620074cb57600080fd5b505afa158015620074e0573d6000803e3d6000fd5b505050506040513d601f19601f820116820180604052508101906200750691906200ac91565b905080620075245750601c97506000965062002a4495505050505050565b505b5060169c60009c509a5050505050505050505050565b6001600160a01b03811660009081526003602052604081205460ff168062000d935750506001600160a01b031660009081526006602052604090205460ff1690565b6000806200759086858760006200886c565b6001600160a01b038088166000908152600760209081526040808320938a168352929052205490915060ff161580620075ef57506001600160a01b0380871660009081526007602090815260408083209388168352929052205460ff16155b1562007600575060b890506200114c565b8060a0015115806200761457508060c00151155b1562007625575060a590506200114c565b806040015115806200763957508060600151155b156200764a575060b090506200114c565b80602001516200765f575060a790506200114c565b50601695945050505050565b6001600160a01b0381166000908152600b602052604081205460ff161562007696575060b362000d93565b6000620076a783858660006200886c565b8051909150158015620076bc57508060200151155b15620076cd575060a7905062000d93565b600080620076db85620089c5565b915091508015620076f5575061010a925062000d93915050565b816200765f575061010b925062000d93915050565b6000806200771883620086e0565b6001600160a01b039485166000908152600a6020908152604080832093835292905220549093169392505050565b6001600160a01b038316600090815260036020908152604080832054600690925282205460ff9182169116811580156200777e575080155b1562007791575060a7915062002c969050565b6000806200779f88620089f2565b915091506000620077b08962006da0565b905088806000876200788357816001600160a01b0316636352211e8b600081518110620077e157620077e16200ab69565b60200260200101516040518263ffffffff1660e01b81526004016200781591906001600160401b0391909116815260200190565b60206040518083038186803b1580156200782e57600080fd5b505afa15801562007843573d6000803e3d6000fd5b505050506040513d601f19601f820116820180604052508101906200786991906200aadd565b6001600160a01b0316846001600160a01b0316146200790f565b6040516370a0823160e01b81526001600160a01b0385811660048301526001600160401b038d1691908516906370a082319060240160206040518083038186803b158015620078d157600080fd5b505afa158015620078e6573d6000803e3d6000fd5b505050506040513d601f19601f820116820180604052508101906200790c91906200abb3565b10155b905084806200791c575085155b156200793557506065975062002c969650505050505050565b806200796f57871562007955575060b2975062002c969650505050505050565b86156200796f575060ed975062002c969650505050505050565b5060169b9a5050505050505050505050565b6001600160a01b0382166000908152600b602052604081205460ff1615620079ac575060b362002c96565b6000620079bd84868760006200886c565b8051909150158015620079d257508060200151155b15620079e3575060a7905062002c96565b600080620079f18662008a02565b91509150801562007a0a575060ac925062002c96915050565b8162007a1e575060bc925062002c96915050565b5060169695505050505050565b6001600160a01b0382166000908152600b602052604081205460ff161562007a56575060b362002c96565b600062007a6784868760006200886c565b805190915015801562007a7c57508060200151155b1562007a8d575060a7905062002c96565b60008062007a9b8662008a14565b91509150801562007ab4575060c1925062002c96915050565b8162007ac85750609b925062002c96915050565b5050509392505050565b805160005b8181101562007c4b57600083828151811062007af75762007af76200ab69565b6020908102919091018101516001600160a01b038088166000908152600280855260408083206005908101805460018181018355918652948890208751959092029091019384558587015180519185018054828a01519097166101000274ffffffffffffffffffffffffffffffffffffffff00199315159390931674ffffffffffffffffffffffffffffffffffffffffff19909716969096179190911785559081015180519597508796939591949362007bb79387019291019062008c67565b506060820151805162007bd591600284019160209091019062008c67565b5060809190910151600390910180546001600160a01b039283166001600160a01b0319918216179091556020808601518101518a84166000908152600a8352604080822098518252979092529590208054959092169416939093179092555081905062007c42816200ab95565b91505062007ad7565b50505050565b805160005b8181101562007c4b57600083828151811062007c765762007c766200ab69565b6020908102919091018101516001600160a01b0380881660009081526004845260408082206005908101805460018181018355918552938790208651949092029091019283558486015180519184018054828901519096166101000274ffffffffffffffffffffffffffffffffffffffff00199315159390931674ffffffffffffffffffffffffffffffffffffffffff19909616959095179190911784559081015180519496508695929491939262007d389260028701929091019062008c67565b506060820151805162007d5691600284019160209091019062008c67565b5060809190910151600390910180546001600160a01b039283166001600160a01b0319918216179091556020808601518101518a84166000908152600a8352604080822098518252979092529590208054959092169416939093179092555081905062007dc3816200ab95565b91505062007c56565b60008062007dde86868760006200886c565b90508060a00151158062007df457508060c00151155b1562007e05575060a590506200114c565b8060400151158062007e1957508060600151155b1562007e2a575060b090506200114c565b805115801562007e3c57508060200151155b1562007e4d575060a790506200114c565b8060200151156200765f576001600160a01b038087166000908152600560209081526040808320600788810b8552908352818420825160808101845281549687168152600160a01b90960490910b92850192909252600182018054889593928401919062007ebb906200ab32565b80601f016020809104026020016040519081016040528092919081815260200182805462007ee9906200ab32565b801562007f3a5780601f1062007f0e5761010080835404028352916020019162007f3a565b820191906000526020600020905b81548152906001019060200180831162007f1c57829003601f168201915b5050509183525050600291909101546001600160a01b03908116602090920191909152815191925088811691161462007f7b575060ed92506200114c915050565b506016979650505050505050565b80516001600160a01b0383166000908152600260209081526040909120825162007fb99391929091019062008c67565b506020808201516001600160a01b03841660009081526002835260409020815162007fee936001909201929091019062008c67565b506040818101516001600160a01b038481166000908152600260208181529490912090810180546001600160a01b0319169290931691909117909155606083015180516200804793600390930192919091019062008c67565b5060808101516001600160a01b039092166000908152600260205260409020600401805460a083015160c0909301511515600160481b0269ff000000000000000000196001600160401b039094166101000268ffffffffffffffff00199515159590951668ffffffffffffffffff19909216919091179390931791909116919091179055565b80516001600160a01b03831660009081526004602090815260409091208251620080fd9391929091019062008c67565b506020808201516001600160a01b03841660009081526004835260409020815162008132936001909201929091019062008c67565b506040818101516001600160a01b038481166000908152600460209081529390206002810180546001600160a01b0319169290931691909117909155606083015180516200818b93600390930192919091019062008c67565b5060808101516001600160a01b03909216600090815260046020819052604090912001805460a083015160c0909301511515600160481b0269ff000000000000000000196001600160401b039094166101000268ffffffffffffffff00199515159590951668ffffffffffffffffff19909216919091179390931791909116919091179055565b6001600160a01b03821660009081526003602052604081205460ff161580156200825557506001600160a01b03831660009081526006602052604090205460ff16155b1562008264575060a762002c96565b6001600160a01b03838116600090815260086020908152604080832093861683529290522054610100900460ff1615620082a15750601662002c96565b600080620082af8562008a26565b915091508015620082c7575060b1915062002c969050565b81620082da575060ba915062002c969050565b50509392505050565b6001600160a01b038316600090815260036020908152604080832054600690925282205460ff9182169116811580156200831b575080155b156200832e575060a7915062002c969050565b6000806200833c8862008a38565b91509150801562008356575060b4935062002c9692505050565b8162007f7b575060bd935062002c9692505050565b80516001600160a01b0392831660009081526002602090815260409182902060068101805492860151909616600160401b026001600160e01b03199092166001600160401b03948516179190911790945590910151600790920180549290911667ffffffffffffffff1992909216919091179055565b80516001600160a01b0392831660009081526004602090815260409182902060068101805492860151909616600160401b026001600160e01b03199092166001600160401b03948516179190911790945590910151600790920180549290911667ffffffffffffffff1992909216919091179055565b805160408101519033906200846e908290620080cd565b6200848281846000015160e0015162007c51565b620084978184600001516101000151620083e1565b620084a3818462008a4a565b50919050565b60606000805b8351811015620084fb57838181518110620084ce57620084ce6200ab69565b60200260200101515182620084e491906200acb1565b915080620084f2816200ab95565b915050620084af565b506000816001600160401b0381111562008519576200851962008dc0565b6040519080825280601f01601f19166020018201604052801562008544576020820181803683370190505b5090506000805b8551811015620086395760005b8682815181106200856d576200856d6200ab69565b60200260200101515181101562008623578682815181106200859357620085936200ab69565b60200260200101518181518110620085af57620085af6200ab69565b602001015160f81c60f81b848481518110620085cf57620085cf6200ab69565b60200101907effffffffffffffffffffffffffffffffffffffffffffffffffffffffffffff1916908160001a905350826200860a816200ab95565b93505080806200861a906200ab95565b91505062008558565b508062008630816200ab95565b9150506200854b565b5090949350505050565b6001600160a01b0381166000908152600b602052604081205460ff16156200866e575060b362000d93565b60006200867f83858660006200886c565b80519091501580156200869457508060200151155b15620086a5575060a7905062000d93565b600080620086b38562008a14565b915091508015620086cc575060c1925062000d93915050565b816200765f5750609b925062000d93915050565b6000816006811115620086f757620086f76200accc565b62000d939060026200addf565b6200874b6040518060a0016040528060001515815260200160006001600160a01b03168152602001606081526020016060815260200160006001600160a01b031681525090565b825160005b81811015620087a95760008582815181106200877057620087706200ab69565b6020026020010151905084816000015114156200879357602001519250620087a9565b5080620087a0816200ab95565b91505062008750565b505092915050565b6020808201516001600160a01b03841660009081526002835260409081902060088101805492860151606087015160808801511515600160501b026aff0000000000000000000019911515600160481b02919091166affff00000000000000000019921515600160401b0268ffffffffffffffffff199096166001600160401b03909716969096179490941716939093179190911790915561010083015180516200886793600c90930192919091019062008c67565b505050565b604080516101008101825260008082526020808301828152838501839052606084018390526080840183905260a0840183905260c0840183905260e084018390526001600160a01b038916808452600383528584205460ff908116151586529084526006909252938220541615159092529080620088eb878762005d84565b91509150620088fb828262008b00565b151560408401526200890e878662005d84565b90925090506200891f828262008b00565b1515606084015262008932878562005d84565b909250905062008943828262008b00565b1515608084015260008062008959898962003513565b9150915062008969828262008b17565b151560a08601526200897c898862003513565b90925090506200898d828262008b17565b151560c0860152620089a0898762003513565b9092509050620089b1828262008b17565b151560e08601525092979650505050505050565b6000806000620089d78460066200770a565b6001600160a01b038116801593509091503314925050915091565b6000806000620089d78462006da0565b6000806000620089d78460026200770a565b6000806000620089d78460006200770a565b6000806000620089d78460016200770a565b6000806000620089d78460046200770a565b6020808201516001600160a01b03841660009081526004835260409081902060088101805492860151606087015160808801511515600160501b026aff0000000000000000000019911515600160481b02919091166affff00000000000000000019921515600160401b0268ffffffffffffffffff199096166001600160401b03909716969096179490941716939093179190911790915561010083015180516200886793600c90930192919091019062008c67565b6000600783900b601614620084a357600162002c96565b6000600783900b60161462008b2e57600162002c96565b5015919050565b604051806040016040528062008b4a62008b57565b8152600060209091015290565b60408051610240810182526060610120820181815261014083018290526000610160840181905261018084018390526101a084018190526101c084018190526101e0840181905261020084018390528451928301855280835260208301819052938201939093526102208201529081908152602001600060070b8152602001600015158152602001600015158152602001600015158152602001606081526020016060815260200160608152602001606081525090565b612ac3806200adee83390190565b6040518060c0016040528062008c3162008b57565b8152600060208201819052604082018190526060808301829052608083015260a09091015290565b613819806200d8b183390190565b82805462008c75906200ab32565b90600052602060002090601f01602090048101928262008c99576000855562008ce4565b82601f1062008cb457805160ff191683800117855562008ce4565b8280016001018555821562008ce4579182015b8281111562008ce457825182559160200191906001019062008cc7565b5062008cf292915062008cf6565b5090565b5b8082111562008cf2576000815560010162008cf7565b6001600160a01b038116811462008d2357600080fd5b50565b803562002cee8162008d0d565b60006020828403121562008d4657600080fd5b813562002c968162008d0d565b6000806040838503121562008d6757600080fd5b823562008d748162008d0d565b946020939093013593505050565b6000806040838503121562008d9657600080fd5b823562008da38162008d0d565b9150602083013562008db58162008d0d565b809150509250929050565b634e487b7160e01b600052604160045260246000fd5b604051606081016001600160401b038111828210171562008dfb5762008dfb62008dc0565b60405290565b604051602081016001600160401b038111828210171562008dfb5762008dfb62008dc0565b604051608081016001600160401b038111828210171562008dfb5762008dfb62008dc0565b604080519081016001600160401b038111828210171562008dfb5762008dfb62008dc0565b60405160a081016001600160401b038111828210171562008dfb5762008dfb62008dc0565b60405161012081016001600160401b038111828210171562008dfb5762008dfb62008dc0565b60405160c081016001600160401b038111828210171562008dfb5762008dfb62008dc0565b604051601f8201601f191681016001600160401b038111828210171562008f0b5762008f0b62008dc0565b604052919050565b60006001600160401b0382111562008f2f5762008f2f62008dc0565b5060051b60200190565b8060070b811462008d2357600080fd5b803562002cee8162008f39565b801515811462008d2357600080fd5b803562002cee8162008f56565b600082601f83011262008f8457600080fd5b8135602062008f9d62008f978362008f13565b62008ee0565b8281526060928302850182019282820191908785111562008fbd57600080fd5b8387015b858110156200902a5781818a03121562008fdb5760008081fd5b62008fe562008dd6565b813562008ff28162008d0d565b815281860135620090038162008f39565b81870152604082810135620090188162008f56565b90820152845292840192810162008fc1565b5090979650505050505050565b600080604083850312156200904b57600080fd5b6001600160401b0380843511156200906257600080fd5b602084358501860312156200907657600080fd5b6200908062008e01565b81853586013511156200909257600080fd5b620090a4868635870180350162008f72565b815292506020840135811015620090ba57600080fd5b6020840135840185601f820112620090d157600080fd5b620090e162008f97823562008f13565b81358082526020808301929160051b8401018810156200910057600080fd5b602083015b6020843560051b8501018110156200929e5784813511156200912657600080fd5b803584016060818b03601f190112156200913f57600080fd5b6200914962008dd6565b62009158602083013562008d0d565b6020820135815286604083013511156200917157600080fd5b620091868b6020604085013585010162008f72565b602082015286606083013511156200919d57600080fd5b6060820135820191508a603f830112620091b657600080fd5b620091c962008f97602084013562008f13565b602083810135808352908201919060071b84016040018d811115620091ed57600080fd5b6040850194505b8085101562009287576080858f0312156200920e57600080fd5b6200921862008e26565b62009224863562008d0d565b8535815262009237602087013562008d0d565b6020860135602082015262009250604087013562008f39565b6040860135604082015262009269606087013562008f56565b606086810135908201528352608090940193602090920191620091f4565b506040830152508452506020928301920162009105565b50809450505050509250929050565b600082601f830112620092bf57600080fd5b81356001600160401b03811115620092db57620092db62008dc0565b620092f0601f8201601f191660200162008ee0565b8181528460208386010111156200930657600080fd5b816020850160208301376000918101602001919091529392505050565b600082601f8301126200933557600080fd5b813560206200934862008f978362008f13565b82815260059290921b840181019181810190868411156200936857600080fd5b8286015b8481101562004f955780356001600160401b03808211156200938d57600080fd5b908801906040601f19838c038101821315620093a857600080fd5b620093b262008e4b565b8885013581528285013584811115620093ca57600080fd5b949094019360a0858e0383011215620093e35760008081fd5b620093ed62008e70565b915088850135620093fe8162008f56565b8252848301356200940f8162008d0d565b828a015260608581013585811115620094285760008081fd5b620094388f8c838a0101620092ad565b8585015250608093508386013585811115620094545760008081fd5b620094648f8c838a0101620092ad565b8285015250506200947860a0860162008d26565b9282019290925281880152855250509183019183016200936c565b600060608284031215620094a657600080fd5b620094b062008dd6565b90508135620094bf8162008f39565b81526020820135620094d18162008d0d565b60208201526040820135620094e68162008f39565b604082015292915050565b600061016082840312156200950557600080fd5b6200950f62008e95565b905081356001600160401b03808211156200952957600080fd5b6200953785838601620092ad565b835260208401359150808211156200954e57600080fd5b6200955c85838601620092ad565b60208401526200956f6040850162008d26565b604084015260608401359150808211156200958957600080fd5b6200959785838601620092ad565b6060840152620095aa6080850162008f65565b6080840152620095bd60a0850162008f49565b60a0840152620095d060c0850162008f65565b60c084015260e0840135915080821115620095ea57600080fd5b50620095f98482850162009323565b60e083015250610100620096108482850162009493565b9082015292915050565b8035600381900b811462002cee57600080fd5b6000806000606084860312156200964357600080fd5b83356001600160401b038111156200965a57600080fd5b6200966886828701620094f1565b93505060208401356200967b8162008f39565b91506200968b604085016200961a565b90509250925092565b600082601f830112620096a657600080fd5b81356020620096b962008f978362008f13565b82815260a09283028501820192828201919087851115620096d957600080fd5b8387015b858110156200902a5781818a031215620096f75760008081fd5b6200970162008e70565b81356200970e8162008f39565b8152818601356200971f8162008d0d565b81870152604082810135620097348162008f56565b90820152606082810135620097498162008f56565b908201526080828101356200975e8162008d0d565b908201528452928401928101620096dd565b600082601f8301126200978257600080fd5b813560206200979562008f978362008f13565b82815260c09283028501820192828201919087851115620097b557600080fd5b8387015b858110156200902a5781818a031215620097d35760008081fd5b620097dd62008ebb565b8135620097ea8162008f39565b815281860135620097fb8162008f39565b81870152604082810135620098108162008f39565b90820152606082810135620098258162008f39565b908201526080828101356200983a8162008f56565b9082015260a0828101356200984f8162008d0d565b908201528452928401928101620097b9565b600082601f8301126200987357600080fd5b813560206200988662008f978362008f13565b82815260c09283028501820192828201919087851115620098a657600080fd5b8387015b858110156200902a5781818a031215620098c45760008081fd5b620098ce62008ebb565b8135620098db8162008f39565b815281860135620098ec8162008f39565b81870152604082810135620099018162008f39565b90820152606082810135620099168162008d0d565b908201526080828101356200992b8162008f56565b9082015260a082810135620099408162008d0d565b908201528452928401928101620098aa565b600061012082840312156200996657600080fd5b6200997062008e95565b905081356001600160401b03808211156200998a57600080fd5b6200999885838601620094f1565b8352620099a86020850162008f49565b6020840152620099bb6040850162008f65565b6040840152620099ce6060850162008f65565b6060840152620099e16080850162008f65565b608084015260a0840135915080821115620099fb57600080fd5b62009a098583860162009694565b60a084015260c084013591508082111562009a2357600080fd5b62009a318583860162009770565b60c084015260e084013591508082111562009a4b57600080fd5b62009a598583860162009861565b60e08401526101009150818401358181111562009a7557600080fd5b62009a8386828701620092ad565b8385015250505092915050565b6000806040838503121562009aa457600080fd5b823562009ab18162008d0d565b915060208301356001600160401b038082111562009ace57600080fd5b908401906040828703121562009ae357600080fd5b60405160408101818110838211171562009b015762009b0162008dc0565b60405282358281111562009b1457600080fd5b62009b228882860162009952565b82525062009b33602084016200961a565b60208201528093505050509250929050565b6000806000806080858703121562009b5c57600080fd5b843562009b698162008d0d565b9350602085013562009b7b8162008d0d565b9250604085013562009b8d8162008d0d565b9396929550929360600135925050565b6000815180845260005b8181101562009bc55760208185018101518683018201520162009ba7565b8181111562009bd8576000602083870101525b50601f01601f19169290920160200192915050565b805115158252600060208201516001600160a01b0380821660208601526040840151915060a0604086015262009c2760a086018362009b9d565b91506060840151858303606087015262009c42838262009b9d565b925050806080850151166080860152508091505092915050565b600082825180855260208086019550808260051b84010181860160005b848110156200902a57858303601f19018952815180518452840151604085850181905262009caa8186018362009bed565b9a86019a945050509083019060010162009c79565b6000610160825181855262009cd78286018262009b9d565b9150506020830151848203602086015262009cf3828262009b9d565b915050604083015162009d1160408601826001600160a01b03169052565b506060830151848203606086015262009d2b828262009b9d565b915050608083015162009d42608086018215159052565b5060a083015162009d5860a086018260070b9052565b5060c083015162009d6d60c086018215159052565b5060e083015184820360e086015262009d87828262009c5c565b915050610100808401516200863982870182805160070b82526001600160a01b036020820151166020830152604081015160070b60408301525050565b600081518084526020808501945080840160005b8381101562009e33578151805160070b8852838101516001600160a01b03908116858a01526040808301511515908a01526060808301511515908a0152608091820151169088015260a0909601959082019060010162009dd8565b509495945050505050565b600081518084526020808501945080840160005b8381101562009e335781518051600790810b895284820151810b858a0152604080830151820b908a015260608083015190910b9089015260808082015115159089015260a0908101516001600160a01b03169088015260c0909601959082019060010162009e52565b600081518084526020808501945080840160005b8381101562009e335781518051600790810b895284820151810b858a015260408083015190910b908901526060808201516001600160a01b03908116918a01919091526080808301511515908a015260a091820151169088015260c0909601959082019060010162009ecf565b6000610120825181855262009f548286018262009cbf565b915050602083015162009f6c602086018260070b9052565b50604083015162009f81604086018215159052565b50606083015162009f96606086018215159052565b50608083015162009fab608086018215159052565b5060a083015184820360a086015262009fc5828262009dc4565b91505060c083015184820360c086015262009fe1828262009e3e565b91505060e083015184820360e086015262009ffd828262009ebb565b91505061010080840151858303828701526200a01a838262009b9d565b9695505050505050565b8260070b81526040602082015260006200114c604083018462009f3c565b600080604083850312156200a05657600080fd5b82356200a0638162008d0d565b9150602083013562008db58162008f39565b8260070b8152604060208201526000825160c060408401526200a09d61010084018262009f3c565b9050602084015160070b606084015260408401516001600160a01b038082166080860152606086015160070b60a086015260808601519150603f198584030160c08601526200a0ed838362009b9d565b92508060a08701511660e08601525050809150509392505050565b600080600080600060a086880312156200a12157600080fd5b85356001600160401b03808211156200a13957600080fd5b6200a14789838a01620094f1565b9650602088013591506200a15b8262008f39565b8195506200a16c604089016200961a565b945060608801359150808211156200a18357600080fd5b6200a19189838a0162009694565b935060808801359150808211156200a1a857600080fd5b506200a1b78882890162009770565b9150509295509295909350565b600082601f8301126200a1d657600080fd5b813560206200a1e962008f978362008f13565b82815260059290921b840181019181810190868411156200a20957600080fd5b8286015b8481101562004f955780356200a2238162008d0d565b83529183019183016200a20d565b600082601f8301126200a24357600080fd5b813560206200a25662008f978362008f13565b82815260059290921b840181019181810190868411156200a27657600080fd5b8286015b8481101562004f955780356200a2908162008f39565b83529183019183016200a27a565b600080600080608085870312156200a2b557600080fd5b84356200a2c28162008d0d565b935060208501356001600160401b03808211156200a2df57600080fd5b6200a2ed888389016200a1c4565b945060408701359150808211156200a30457600080fd5b6200a312888389016200a1c4565b935060608701359150808211156200a32957600080fd5b506200a338878288016200a231565b91505092959194509250565b600080604083850312156200a35857600080fd5b82356200a3658162008d0d565b915060208301356001600160401b038111156200a38157600080fd5b6200a38f858286016200a1c4565b9150509250929050565b6000806000606084860312156200a3af57600080fd5b83356200a3bc8162008d0d565b925060208401356200a3ce8162008d0d565b915060408401356200a3e08162008f56565b809150509250925092565b8260070b81526040602082015260006200114c604083018462009bed565b60008151604084526200a420604085018262009f3c565b60209384015160030b949093019390935250919050565b8260070b81526040602082015260006200114c60408301846200a409565b600080604083850312156200a46957600080fd5b82356200a4768162008f39565b915060208301356001600160401b038111156200a49257600080fd5b6200a38f858286016200a231565b600080600080608085870312156200a4b757600080fd5b84356200a4c48162008d0d565b935060208501356200a4d68162008d0d565b925060408501356200a4e88162008d0d565b915060608501356200a4fa8162008f39565b939692955090935050565b600080604083850312156200a51957600080fd5b82356200a5268162008d0d565b915060208301356001600160401b038111156200a54257600080fd5b6200a38f85828601620092ad565b600080604083850312156200a56457600080fd5b82356200a5718162008d0d565b915060208301356001600160401b038111156200a58d57600080fd5b6200a38f8582860162009323565b6000806000606084860312156200a5b157600080fd5b83356200a5be8162008d0d565b925060208401356200a5d08162008d0d565b929592945050506040919091013590565b600080604083850312156200a5f557600080fd5b82356200a6028162008d0d565b915060208301356001600160401b038111156200a61e57600080fd5b6200a38f85828601620094f1565b6000806000606084860312156200a64257600080fd5b83356200a64f8162008d0d565b925060208401356001600160401b03808211156200a66c57600080fd5b6200a67a878388016200a1c4565b935060408601359150808211156200a69157600080fd5b506200a6a0868287016200a231565b9150509250925092565b6000806000606084860312156200a6c057600080fd5b83356200a6cd8162008d0d565b925060208401356200a6df8162008d0d565b915060408401356200a3e08162008d0d565b6000806000606084860312156200a70757600080fd5b83356200a7148162008d0d565b92506020848101356200a7278162008f39565b925060408501356001600160401b03808211156200a74457600080fd5b818701915087601f8301126200a75957600080fd5b81356200a76a62008f978262008f13565b81815260059190911b8301840190848101908a8311156200a78a57600080fd5b8585015b838110156200a7c7578035858111156200a7a85760008081fd5b6200a7b88d89838a0101620092ad565b8452509186019186016200a78e565b508096505050505050509250925092565b6000806000606084860312156200a7ee57600080fd5b83356001600160401b03808211156200a80657600080fd5b6200a81487838801620094f1565b945060208601359150808211156200a82b57600080fd5b6200a8398783880162009694565b935060408601359150808211156200a85057600080fd5b506200a6a08682870162009861565b8460070b81526080602082015260006200a87d608083018662009dc4565b82810360408401526200a891818662009e3e565b905082810360608401526200a8a7818562009ebb565b979650505050505050565b600080608083850312156200a8c657600080fd5b82356200a8d38162008d0d565b915062000e1b846020850162009493565b600783900b81526080810162002c966020830184805160070b82526001600160a01b036020820151166020830152604081015160070b60408301525050565b6000806000606084860312156200a93957600080fd5b83356200a9468162008d0d565b925060208401356200a9588162008f39565b915060408401356001600160401b038111156200a97457600080fd5b6200a6a0868287016200a231565b600080604083850312156200a99657600080fd5b82356200a9a38162008d0d565b915060208301356001600160401b038111156200a9bf57600080fd5b6200a38f8582860162009952565b600081518084526020808501945080840160005b8381101562009e3357815160070b875295820195908201906001016200a9e1565b8360070b81528260070b60208201526060604082015260006200472660608301846200a9cd565b6000602082840312156200aa3c57600080fd5b81356001600160401b038111156200aa5357600080fd5b6200114c84828501620094f1565b6000806000606084860312156200aa7757600080fd5b83356200aa848162008d0d565b925060208401356200aa968162008d0d565b915060408401356200a3e08162008f39565b6000806000606084860312156200aabe57600080fd5b83356200aacb8162008d0d565b925060208401356200a9588162008d0d565b6000602082840312156200aaf057600080fd5b815162002c968162008d0d565b60208152600062002c9660208301846200a409565b6000602082840312156200ab2557600080fd5b815162002c968162008f39565b600181811c908216806200ab4757607f821691505b60208210811415620084a357634e487b7160e01b600052602260045260246000fd5b634e487b7160e01b600052603260045260246000fd5b634e487b7160e01b600052601160045260246000fd5b60006000198214156200abac576200abac6200ab7f565b5060010190565b6000602082840312156200abc657600080fd5b5051919050565b60208152600062002c96602083018462009f3c565b60208152600062002c9660208301846200a9cd565b6000602080830181845280855180835260408601915060408160051b870101925083870160005b828110156200ac5057603f198886030184526200ac3d85835162009b9d565b945092850192908501906001016200ac1e565b5092979650505050505050565b600080604083850312156200ac7157600080fd5b82516200ac7e8162008f39565b602084015190925062008db58162008f39565b6000602082840312156200aca457600080fd5b815162002c968162008f56565b600082198211156200acc7576200acc76200ab7f565b500190565b634e487b7160e01b600052602160045260246000fd5b600181815b808511156200ad235781600019048211156200ad07576200ad076200ab7f565b808516156200ad1557918102915b93841c93908002906200ace7565b509250929050565b6000826200ad3c5750600162000d93565b816200ad4b5750600062000d93565b81600181146200ad6457600281146200ad6f576200ad8f565b600191505062000d93565b60ff8411156200ad83576200ad836200ab7f565b50506001821b62000d93565b5060208310610133831016604e8410600b84101617156200adb4575081810a62000d93565b6200adc083836200ace2565b80600019048211156200add7576200add76200ab7f565b029392505050565b600062002c9683836200ad2b56fe60a06040523480156200001157600080fd5b5060405162002ac338038062002ac3833981016040819052620000349162000a3a565b8051518051602091820151815191929091620000579160039190850190620001c7565b5080516200006d906004906020840190620001c7565b505060405162aa54bd60e51b8152610167915063154a97a09062000098903390859060040162000f47565b600060405180830381600087803b158015620000b357600080fd5b505af1158015620000c8573d6000803e3d6000fd5b5050505060208181015160ff166080528151805160400151910151620000f99082906001600160401b031662000101565b5050620010c7565b6001600160a01b0382166200015c5760405162461bcd60e51b815260206004820152601f60248201527f45524332303a206d696e7420746f20746865207a65726f206164647265737300604482015260640160405180910390fd5b806002600082825462000170919062001063565b90915550506001600160a01b038216600081815260208181526040808320805486019055518481527fddf252ad1be2c89b69c2b068fc378daa952ba7f163c4a11628f55a4df523b3ef910160405180910390a35050565b828054620001d5906200108a565b90600052602060002090601f016020900481019282620001f9576000855562000244565b82601f106200021457805160ff191683800117855562000244565b8280016001018555821562000244579182015b828111156200024457825182559160200191906001019062000227565b506200025292915062000256565b5090565b5b8082111562000252576000815560010162000257565b634e487b7160e01b600052604160045260246000fd5b604080519081016001600160401b0381118282101715620002a857620002a86200026d565b60405290565b60405160a081016001600160401b0381118282101715620002a857620002a86200026d565b60405161012081016001600160401b0381118282101715620002a857620002a86200026d565b60405160c081016001600160401b0381118282101715620002a857620002a86200026d565b604051601f8201601f191681016001600160401b03811182821017156200034957620003496200026d565b604052919050565b60005b838110156200036e57818101518382015260200162000354565b838111156200037e576000848401525b50505050565b600082601f8301126200039657600080fd5b81516001600160401b03811115620003b257620003b26200026d565b620003c7601f8201601f19166020016200031e565b818152846020838601011115620003dd57600080fd5b620003f082602083016020870162000351565b949350505050565b80516001600160a01b03811681146200041057600080fd5b919050565b805180151581146200041057600080fd5b8051600781900b81146200041057600080fd5b60006001600160401b038211156200045557620004556200026d565b5060051b60200190565b600082601f8301126200047157600080fd5b815160206200048a620004848362000439565b6200031e565b82815260059290921b84018101918181019086841115620004aa57600080fd5b8286015b84811015620005d15780516001600160401b0380821115620004cf57600080fd5b908801906040601f19838c038101821315620004ea57600080fd5b620004f462000283565b88850151815282850151848111156200050c57600080fd5b949094019360a0858e0383011215620005255760008081fd5b6200052f620002ae565b91506200053e89860162000415565b82526200054d838601620003f8565b8983015260608086015185811115620005665760008081fd5b620005768f8c838a010162000384565b8585015250608093508386015185811115620005925760008081fd5b620005a28f8c838a010162000384565b828501525050620005b660a08601620003f8565b928201929092528188015285525050918301918301620004ae565b509695505050505050565b600060608284031215620005ef57600080fd5b604051606081016001600160401b03811182821017156200061457620006146200026d565b604052905080620006258362000426565b81526200063560208401620003f8565b6020820152620006486040840162000426565b60408201525092915050565b600061016082840312156200066857600080fd5b62000672620002d3565b82519091506001600160401b03808211156200068d57600080fd5b6200069b8583860162000384565b83526020840151915080821115620006b257600080fd5b620006c08583860162000384565b6020840152620006d360408501620003f8565b60408401526060840151915080821115620006ed57600080fd5b620006fb8583860162000384565b60608401526200070e6080850162000415565b60808401526200072160a0850162000426565b60a08401526200073460c0850162000415565b60c084015260e08401519150808211156200074e57600080fd5b506200075d848285016200045f565b60e0830152506101006200077484828501620005dc565b9082015292915050565b600082601f8301126200079057600080fd5b81516020620007a3620004848362000439565b82815260a09283028501820192828201919087851115620007c357600080fd5b8387015b85811015620008505781818a031215620007e15760008081fd5b620007eb620002ae565b620007f68262000426565b815262000805868301620003f8565b8682015260406200081881840162000415565b9082015260606200082b83820162000415565b9082015260806200083e838201620003f8565b908201528452928401928101620007c7565b5090979650505050505050565b600082601f8301126200086f57600080fd5b8151602062000882620004848362000439565b82815260c09283028501820192828201919087851115620008a257600080fd5b8387015b85811015620008505781818a031215620008c05760008081fd5b620008ca620002f9565b620008d58262000426565b8152620008e486830162000426565b868201526040620008f781840162000426565b9082015260606200090a83820162000426565b9082015260806200091d83820162000415565b9082015260a062000930838201620003f8565b908201528452928401928101620008a6565b600082601f8301126200095457600080fd5b8151602062000967620004848362000439565b82815260c092830285018201928282019190878511156200098757600080fd5b8387015b85811015620008505781818a031215620009a55760008081fd5b620009af620002f9565b620009ba8262000426565b8152620009c986830162000426565b868201526040620009dc81840162000426565b908201526060620009ef838201620003f8565b90820152608062000a0283820162000415565b9082015260a062000a15838201620003f8565b9082015284529284019281016200098b565b8051600381900b81146200041057600080fd5b60006020828403121562000a4d57600080fd5b81516001600160401b038082111562000a6557600080fd5b908301906040828603121562000a7a57600080fd5b62000a8462000283565b82518281111562000a9457600080fd5b8301610120818803121562000aa857600080fd5b62000ab2620002d3565b81518481111562000ac257600080fd5b62000ad08982850162000654565b82525062000ae16020830162000426565b602082015262000af46040830162000415565b604082015262000b076060830162000415565b606082015262000b1a6080830162000415565b608082015260a08201518481111562000b3257600080fd5b62000b40898285016200077e565b60a08301525060c08201518481111562000b5957600080fd5b62000b67898285016200085d565b60c08301525060e08201518481111562000b8057600080fd5b62000b8e8982850162000942565b60e083015250610100808301518581111562000ba957600080fd5b62000bb78a82860162000384565b828401525050808352505062000bd06020840162000a27565b602082015295945050505050565b6000815180845262000bf881602086016020860162000351565b601f01601f19169290920160200192915050565b6000815180845260208085019450848260051b860182860160005b858110156200085057838303895281516040815185528682015191508087860152815115158186015286820151606060018060a01b038083168289015283850151935060a09250608083818a015262000c8460e08a018662000bde565b92860151898403603f1901858b015292945062000ca2858462000bde565b9501511660c0979097019690965250509885019892509084019060010162000c27565b6000610160825181855262000cdd8286018262000bde565b9150506020830151848203602086015262000cf9828262000bde565b915050604083015162000d1760408601826001600160a01b03169052565b506060830151848203606086015262000d31828262000bde565b915050608083015162000d48608086018215159052565b5060a083015162000d5e60a086018260070b9052565b5060c083015162000d7360c086018215159052565b5060e083015184820360e086015262000d8d828262000c0c565b610100858101518051600790810b8984015260208201516001600160a01b03166101208a01526040820151900b61014089015291935091505090949350505050565b600081518084526020808501945080840160005b8381101562000e3e578151805160070b8852838101516001600160a01b03908116858a01526040808301511515908a01526060808301511515908a0152608091820151169088015260a0909601959082019060010162000de3565b509495945050505050565b600081518084526020808501945080840160005b8381101562000e3e5781518051600790810b895284820151810b858a0152604080830151820b908a015260608083015190910b9089015260808082015115159089015260a0908101516001600160a01b03169088015260c0909601959082019060010162000e5d565b600081518084526020808501945080840160005b8381101562000e3e5781518051600790810b895284820151810b858a015260408083015190910b908901526060808201516001600160a01b03908116918a01919091526080808301511515908a015260a091820151169088015260c0909601959082019060010162000eda565b60018060a01b03831681526040602082015260008251604080840152805161012080608086015262000f7e6101a086018362000cc5565b9150602083015162000f9560a087018260070b9052565b506040830151151560c08601526060830151151560e086015260808301518015156101008088019190915260a08501519150607f1980888603018489015262000fdf858462000dcf565b945060c08601519350808886030161014089015262000fff858562000e49565b945060e0860151935080888603016101608901526200101f858562000ec6565b945081860151955080888603016101808901525050505062001042818362000bde565b91505060208401516200105a606085018260030b9052565b50949350505050565b600082198211156200108557634e487b7160e01b600052601160045260246000fd5b500190565b600181811c908216806200109f57607f821691505b60208210811415620010c157634e487b7160e01b600052602260045260246000fd5b50919050565b6080516119e0620010e3600039600061018701526119e06000f3fe608060405234801561001057600080fd5b50600436106101005760003560e01c806370a0823111610097578063b59fc61911610066578063b59fc6191461022e578063b6ef1b5914610254578063cc98587814610267578063dd62ed3e1461026f57600080fd5b806370a08231146101d757806395d89b4114610200578063a457c2d714610208578063a9059cbb1461021b57600080fd5b806323b872dd116100d357806323b872dd1461016d578063313ce56714610180578063330ee0d4146101b157806339509351146101c457600080fd5b806303f5483b1461010557806306fdde031461011a578063095ea7b31461013857806318160ddd1461015b575b600080fd5b610118610113366004610eb2565b6102a8565b005b61012261038f565b60405161012f9190610f02565b60405180910390f35b61014b610146366004610f4a565b610421565b604051901515815260200161012f565b6002545b60405190815260200161012f565b61014b61017b366004610f76565b6104ed565b60405160ff7f000000000000000000000000000000000000000000000000000000000000000016815260200161012f565b6101186101bf366004610eb2565b6105c3565b61014b6101d2366004610f4a565b6106a0565b61015f6101e5366004610fb7565b6001600160a01b031660009081526020819052604090205490565b6101226106e9565b61014b610216366004610f4a565b6106f8565b61014b610229366004610f4a565b610795565b61024161023c366004610fe2565b610860565b60405160079190910b815260200161012f565b610118610262366004610f76565b6108cf565b61014b600181565b61015f61027d366004611046565b6001600160a01b03918216600090815260016020908152604080832093909416825291909152205490565b33610167146102f35760405162461bcd60e51b81526020600482015260126024820152714e4f545f4854535f505245434f4d50494c4560701b60448201526064015b60405180910390fd5b604051633f28a19b60e01b815230600482015260009061016790633f28a19b9060240160006040518083038186803b15801561032e57600080fd5b505afa158015610342573d6000803e3d6000fd5b505050506040513d6000823e601f3d908101601f1916820160405261036a9190810190611793565b80515160400151909250905061038a8167ffffffffffffffff8516610920565b505050565b60606003805461039e9061192c565b80601f01602080910402602001604051908101604052809291908181526020018280546103ca9061192c565b80156104175780601f106103ec57610100808354040283529160200191610417565b820191906000526020600020905b8154815290600101906020018083116103fa57829003601f168201915b5050505050905090565b60405163e459524960e01b81523360048201526001600160a01b03831660248201526044810182905260009081906101679063e459524990606401602060405180830381600087803b15801561047657600080fd5b505af115801561048a573d6000803e3d6000fd5b505050506040513d601f19601f820116820180604052508101906104ae9190611967565b9050600781900b6016146104db5760405163fbe0be3960e01b8152600782900b60048201526024016102ea565b6104e584846109df565b949350505050565b60405163a0ecee3360e01b81523360048201526001600160a01b038085166024830152831660448201526064810182905260009081906101679063a0ecee3390608401602060405180830381600087803b15801561054a57600080fd5b505af115801561055e573d6000803e3d6000fd5b505050506040513d601f19601f820116820180604052508101906105829190611967565b9050600781900b6016146105af5760405163fbe0be3960e01b8152600782900b60048201526024016102ea565b6105ba8585856109ed565b95945050505050565b33610167146106095760405162461bcd60e51b81526020600482015260126024820152714e4f545f4854535f505245434f4d50494c4560701b60448201526064016102ea565b604051633f28a19b60e01b815230600482015260009061016790633f28a19b9060240160006040518083038186803b15801561064457600080fd5b505afa158015610658573d6000803e3d6000fd5b505050506040513d6000823e601f3d908101601f191682016040526106809190810190611793565b80515160400151909250905061038a8167ffffffffffffffff8516610a06565b3360008181526001602090815260408083206001600160a01b03871684529091528120549091906106df90829086906106da908790611984565b610b38565b5060019392505050565b60606004805461039e9061192c565b3360008181526001602090815260408083206001600160a01b03871684529091528120549091908381101561077d5760405162461bcd60e51b815260206004820152602560248201527f45524332303a2064656372656173656420616c6c6f77616e63652062656c6f77604482015264207a65726f60d81b60648201526084016102ea565b61078a8286868403610b38565b506001949350505050565b60405163a0ecee3360e01b81526000600482018190523360248301526001600160a01b0384166044830152606482018390529081906101679063a0ecee3390608401602060405180830381600087803b1580156107f157600080fd5b505af1158015610805573d6000803e3d6000fd5b505050506040513d601f19601f820116820180604052508101906108299190611967565b9050600781900b6016146108565760405163fbe0be3960e01b8152600782900b60048201526024016102ea565b6104e58484610c5c565b600033610167146108a85760405162461bcd60e51b81526020600482015260126024820152714e4f545f4854535f505245434f4d50494c4560701b60448201526064016102ea565b856108b8576108b8848684610c6a565b6108c3848484610cfc565b50601695945050505050565b33610167146109155760405162461bcd60e51b81526020600482015260126024820152714e4f545f4854535f505245434f4d50494c4560701b60448201526064016102ea565b61038a838383610b38565b6001600160a01b0382166109765760405162461bcd60e51b815260206004820152601f60248201527f45524332303a206d696e7420746f20746865207a65726f20616464726573730060448201526064016102ea565b80600260008282546109889190611984565b90915550506001600160a01b038216600081815260208181526040808320805486019055518481527fddf252ad1be2c89b69c2b068fc378daa952ba7f163c4a11628f55a4df523b3ef910160405180910390a35050565b6000336106df818585610b38565b6000336109fb858285610c6a565b61078a858585610cfc565b6001600160a01b038216610a665760405162461bcd60e51b815260206004820152602160248201527f45524332303a206275726e2066726f6d20746865207a65726f206164647265736044820152607360f81b60648201526084016102ea565b6001600160a01b03821660009081526020819052604090205481811015610ada5760405162461bcd60e51b815260206004820152602260248201527f45524332303a206275726e20616d6f756e7420657863656564732062616c616e604482015261636560f01b60648201526084016102ea565b6001600160a01b0383166000818152602081815260408083208686039055600280548790039055518581529192917fddf252ad1be2c89b69c2b068fc378daa952ba7f163c4a11628f55a4df523b3ef910160405180910390a3505050565b6001600160a01b038316610b9a5760405162461bcd60e51b8152602060048201526024808201527f45524332303a20617070726f76652066726f6d20746865207a65726f206164646044820152637265737360e01b60648201526084016102ea565b6001600160a01b038216610bfb5760405162461bcd60e51b815260206004820152602260248201527f45524332303a20617070726f766520746f20746865207a65726f206164647265604482015261737360f01b60648201526084016102ea565b6001600160a01b0383811660008181526001602090815260408083209487168084529482529182902085905590518481527f8c5be1e5ebec7d5bd14f71427d1e84f3dd0314c0f7b2291e5b200ac8c7c3b925910160405180910390a3505050565b6000336106df818585610cfc565b6001600160a01b038381166000908152600160209081526040808320938616835292905220546000198114610cf65781811015610ce95760405162461bcd60e51b815260206004820152601d60248201527f45524332303a20696e73756666696369656e7420616c6c6f77616e636500000060448201526064016102ea565b610cf68484848403610b38565b50505050565b6001600160a01b038316610d605760405162461bcd60e51b815260206004820152602560248201527f45524332303a207472616e736665722066726f6d20746865207a65726f206164604482015264647265737360d81b60648201526084016102ea565b6001600160a01b038216610dc25760405162461bcd60e51b815260206004820152602360248201527f45524332303a207472616e7366657220746f20746865207a65726f206164647260448201526265737360e81b60648201526084016102ea565b6001600160a01b03831660009081526020819052604090205481811015610e3a5760405162461bcd60e51b815260206004820152602660248201527f45524332303a207472616e7366657220616d6f756e7420657863656564732062604482015265616c616e636560d01b60648201526084016102ea565b6001600160a01b03848116600081815260208181526040808320878703905593871680835291849020805487019055925185815290927fddf252ad1be2c89b69c2b068fc378daa952ba7f163c4a11628f55a4df523b3ef910160405180910390a3610cf6565b8060070b8114610eaf57600080fd5b50565b600060208284031215610ec457600080fd5b8135610ecf81610ea0565b9392505050565b60005b83811015610ef1578181015183820152602001610ed9565b83811115610cf65750506000910152565b6020815260008251806020840152610f21816040850160208701610ed6565b601f01601f19169190910160400192915050565b6001600160a01b0381168114610eaf57600080fd5b60008060408385031215610f5d57600080fd5b8235610f6881610f35565b946020939093013593505050565b600080600060608486031215610f8b57600080fd5b8335610f9681610f35565b92506020840135610fa681610f35565b929592945050506040919091013590565b600060208284031215610fc957600080fd5b8135610ecf81610f35565b8015158114610eaf57600080fd5b600080600080600060a08688031215610ffa57600080fd5b853561100581610fd4565b9450602086013561101581610f35565b9350604086013561102581610f35565b9250606086013561103581610f35565b949793965091946080013592915050565b6000806040838503121561105957600080fd5b823561106481610f35565b9150602083013561107481610f35565b809150509250929050565b805161108a81610ea0565b919050565b634e487b7160e01b600052604160045260246000fd5b6040805190810167ffffffffffffffff811182821017156110c8576110c861108f565b60405290565b60405160a0810167ffffffffffffffff811182821017156110c8576110c861108f565b604051610120810167ffffffffffffffff811182821017156110c8576110c861108f565b60405160c0810167ffffffffffffffff811182821017156110c8576110c861108f565b604051601f8201601f1916810167ffffffffffffffff811182821017156111615761116161108f565b604052919050565b600082601f83011261117a57600080fd5b815167ffffffffffffffff8111156111945761119461108f565b6111a7601f8201601f1916602001611138565b8181528460208386010111156111bc57600080fd5b6104e5826020830160208701610ed6565b805161108a81610f35565b805161108a81610fd4565b600067ffffffffffffffff8211156111fd576111fd61108f565b5060051b60200190565b600082601f83011261121857600080fd5b8151602061122d611228836111e3565b611138565b82815260059290921b8401810191818101908684111561124c57600080fd5b8286015b8481101561136257805167ffffffffffffffff8082111561127057600080fd5b908801906040601f19838c03810182131561128a57600080fd5b6112926110a5565b88850151815282850151848111156112a957600080fd5b949094019360a0858e03830112156112c15760008081fd5b6112c96110ce565b9150888501516112d881610fd4565b8252848301516112e781610f35565b828a0152606085810151858111156112ff5760008081fd5b61130d8f8c838a0101611169565b85850152506080935083860151858111156113285760008081fd5b6113368f8c838a0101611169565b82850152505061134860a086016111cd565b928201929092528188015285525050918301918301611250565b509695505050505050565b60006060828403121561137f57600080fd5b6040516060810181811067ffffffffffffffff821117156113a2576113a261108f565b806040525080915082516113b581610ea0565b815260208301516113c581610f35565b602082015260408301516113d881610ea0565b6040919091015292915050565b600061016082840312156113f857600080fd5b6114006110f1565b9050815167ffffffffffffffff8082111561141a57600080fd5b61142685838601611169565b8352602084015191508082111561143c57600080fd5b61144885838601611169565b6020840152611459604085016111cd565b6040840152606084015191508082111561147257600080fd5b61147e85838601611169565b606084015261148f608085016111d8565b60808401526114a060a0850161107f565b60a08401526114b160c085016111d8565b60c084015260e08401519150808211156114ca57600080fd5b506114d784828501611207565b60e0830152506101006114ec8482850161136d565b9082015292915050565b600082601f83011261150757600080fd5b81516020611517611228836111e3565b82815260a0928302850182019282820191908785111561153657600080fd5b8387015b858110156115be5781818a0312156115525760008081fd5b61155a6110ce565b815161156581610ea0565b81528186015161157481610f35565b8187015260408281015161158781610fd4565b9082015260608281015161159a81610fd4565b908201526080828101516115ad81610f35565b90820152845292840192810161153a565b5090979650505050505050565b600082601f8301126115dc57600080fd5b815160206115ec611228836111e3565b82815260c0928302850182019282820191908785111561160b57600080fd5b8387015b858110156115be5781818a0312156116275760008081fd5b61162f611115565b815161163a81610ea0565b81528186015161164981610ea0565b8187015260408281015161165c81610ea0565b9082015260608281015161166f81610ea0565b9082015260808281015161168281610fd4565b9082015260a08281015161169581610f35565b90820152845292840192810161160f565b600082601f8301126116b757600080fd5b815160206116c7611228836111e3565b82815260c092830285018201928282019190878511156116e657600080fd5b8387015b858110156115be5781818a0312156117025760008081fd5b61170a611115565b815161171581610ea0565b81528186015161172481610ea0565b8187015260408281015161173781610ea0565b9082015260608281015161174a81610f35565b9082015260808281015161175d81610fd4565b9082015260a08281015161177081610f35565b9082015284529284019281016116ea565b8051600381900b811461108a57600080fd5b600080604083850312156117a657600080fd5b82516117b181610ea0565b602084015190925067ffffffffffffffff808211156117cf57600080fd5b90840190604082870312156117e357600080fd5b6117eb6110a5565b8251828111156117fa57600080fd5b8301610120818903121561180d57600080fd5b6118156110f1565b81518481111561182457600080fd5b6118308a8285016113e5565b82525061183f6020830161107f565b6020820152611850604083016111d8565b6040820152611861606083016111d8565b6060820152611872608083016111d8565b608082015260a08201518481111561188957600080fd5b6118958a8285016114f6565b60a08301525060c0820151848111156118ad57600080fd5b6118b98a8285016115cb565b60c08301525060e0820151848111156118d157600080fd5b6118dd8a8285016116a6565b60e08301525061010080830151858111156118f757600080fd5b6119038b828601611169565b828401525050808352505061191a60208401611781565b60208201528093505050509250929050565b600181811c9082168061194057607f821691505b6020821081141561196157634e487b7160e01b600052602260045260246000fd5b50919050565b60006020828403121561197957600080fd5b8151610ecf81610ea0565b600082198211156119a557634e487b7160e01b600052601160045260246000fd5b50019056fea2646970667358221220f758b053786a6c894695b32d387175ced21e8decdbc9e6226ab47e5ea0c35aa064736f6c6343000809003360806040523480156200001157600080fd5b506040516200381938038062003819833981016040819052620000349162000936565b80518051602091820151815191929091620000569160009190850190620000d6565b5080516200006c906001906020840190620000d6565b505060405163da23fff960e01b81523391506101679063da23fff9906200009a908490869060040162000e10565b600060405180830381600087803b158015620000b557600080fd5b505af1158015620000ca573d6000803e3d6000fd5b50505050505062000f47565b828054620000e49062000f0a565b90600052602060002090601f01602090048101928262000108576000855562000153565b82601f106200012357805160ff191683800117855562000153565b8280016001018555821562000153579182015b828111156200015357825182559160200191906001019062000136565b506200016192915062000165565b5090565b5b8082111562000161576000815560010162000166565b634e487b7160e01b600052604160045260246000fd5b604080519081016001600160401b0381118282101715620001b757620001b76200017c565b60405290565b60405160a081016001600160401b0381118282101715620001b757620001b76200017c565b60405161012081016001600160401b0381118282101715620001b757620001b76200017c565b60405160c081016001600160401b0381118282101715620001b757620001b76200017c565b604051601f8201601f191681016001600160401b03811182821017156200025857620002586200017c565b604052919050565b60005b838110156200027d57818101518382015260200162000263565b838111156200028d576000848401525b50505050565b600082601f830112620002a557600080fd5b81516001600160401b03811115620002c157620002c16200017c565b620002d6601f8201601f19166020016200022d565b818152846020838601011115620002ec57600080fd5b620002ff82602083016020870162000260565b949350505050565b80516001600160a01b03811681146200031f57600080fd5b919050565b805180151581146200031f57600080fd5b8051600781900b81146200031f57600080fd5b60006001600160401b038211156200036457620003646200017c565b5060051b60200190565b600082601f8301126200038057600080fd5b8151602062000399620003938362000348565b6200022d565b82815260059290921b84018101918181019086841115620003b957600080fd5b8286015b84811015620004e05780516001600160401b0380821115620003de57600080fd5b908801906040601f19838c038101821315620003f957600080fd5b6200040362000192565b88850151815282850151848111156200041b57600080fd5b949094019360a0858e0383011215620004345760008081fd5b6200043e620001bd565b91506200044d89860162000324565b82526200045c83860162000307565b8983015260608086015185811115620004755760008081fd5b620004858f8c838a010162000293565b8585015250608093508386015185811115620004a15760008081fd5b620004b18f8c838a010162000293565b828501525050620004c560a0860162000307565b928201929092528188015285525050918301918301620003bd565b509695505050505050565b600060608284031215620004fe57600080fd5b604051606081016001600160401b03811182821017156200052357620005236200017c565b604052905080620005348362000335565b8152620005446020840162000307565b6020820152620005576040840162000335565b60408201525092915050565b600061016082840312156200057757600080fd5b62000581620001e2565b82519091506001600160401b03808211156200059c57600080fd5b620005aa8583860162000293565b83526020840151915080821115620005c157600080fd5b620005cf8583860162000293565b6020840152620005e26040850162000307565b60408401526060840151915080821115620005fc57600080fd5b6200060a8583860162000293565b60608401526200061d6080850162000324565b60808401526200063060a0850162000335565b60a08401526200064360c0850162000324565b60c084015260e08401519150808211156200065d57600080fd5b506200066c848285016200036e565b60e0830152506101006200068384828501620004eb565b9082015292915050565b600082601f8301126200069f57600080fd5b81516020620006b2620003938362000348565b82815260a09283028501820192828201919087851115620006d257600080fd5b8387015b858110156200075f5781818a031215620006f05760008081fd5b620006fa620001bd565b620007058262000335565b81526200071486830162000307565b8682015260406200072781840162000324565b9082015260606200073a83820162000324565b9082015260806200074d83820162000307565b908201528452928401928101620006d6565b5090979650505050505050565b600082601f8301126200077e57600080fd5b8151602062000791620003938362000348565b82815260c09283028501820192828201919087851115620007b157600080fd5b8387015b858110156200075f5781818a031215620007cf5760008081fd5b620007d962000208565b620007e48262000335565b8152620007f386830162000335565b8682015260406200080681840162000335565b9082015260606200081983820162000335565b9082015260806200082c83820162000324565b9082015260a06200083f83820162000307565b908201528452928401928101620007b5565b600082601f8301126200086357600080fd5b8151602062000876620003938362000348565b82815260c092830285018201928282019190878511156200089657600080fd5b8387015b858110156200075f5781818a031215620008b45760008081fd5b620008be62000208565b620008c98262000335565b8152620008d886830162000335565b868201526040620008eb81840162000335565b908201526060620008fe83820162000307565b9082015260806200091183820162000324565b9082015260a06200092483820162000307565b9082015284529284019281016200089a565b6000602082840312156200094957600080fd5b81516001600160401b03808211156200096157600080fd5b9083019061012082860312156200097757600080fd5b62000981620001e2565b8251828111156200099157600080fd5b6200099f8782860162000563565b825250620009b06020840162000335565b6020820152620009c36040840162000324565b6040820152620009d66060840162000324565b6060820152620009e96080840162000324565b608082015260a08301518281111562000a0157600080fd5b62000a0f878286016200068d565b60a08301525060c08301518281111562000a2857600080fd5b62000a36878286016200076c565b60c08301525060e08301518281111562000a4f57600080fd5b62000a5d8782860162000851565b60e083015250610100808401518381111562000a7857600080fd5b62000a868882870162000293565b918301919091525095945050505050565b6000815180845262000ab181602086016020860162000260565b601f01601f19169290920160200192915050565b600081518084526020808501808196508360051b8101915082860160005b8581101562000b8157828403895281516040815186528682015191508087870152815115158187015286820151606060018060a01b03808316828a015283850151935060a09250608083818b015262000b4060e08b018662000a97565b928601518a8403603f1901858c015292945062000b5e858462000a97565b9501511660c0989098019790975250509885019893509084019060010162000ae3565b5091979650505050505050565b6000610160825181855262000ba68286018262000a97565b9150506020830151848203602086015262000bc2828262000a97565b915050604083015162000be060408601826001600160a01b03169052565b506060830151848203606086015262000bfa828262000a97565b915050608083015162000c11608086018215159052565b5060a083015162000c2760a086018260070b9052565b5060c083015162000c3c60c086018215159052565b5060e083015184820360e086015262000c56828262000ac5565b610100858101518051600790810b8984015260208201516001600160a01b03166101208a01526040820151900b61014089015291935091505090949350505050565b600081518084526020808501945080840160005b8381101562000d07578151805160070b8852838101516001600160a01b03908116858a01526040808301511515908a01526060808301511515908a0152608091820151169088015260a0909601959082019060010162000cac565b509495945050505050565b600081518084526020808501945080840160005b8381101562000d075781518051600790810b895284820151810b858a0152604080830151820b908a015260608083015190910b9089015260808082015115159089015260a0908101516001600160a01b03169088015260c0909601959082019060010162000d26565b600081518084526020808501945080840160005b8381101562000d075781518051600790810b895284820151810b858a015260408083015190910b908901526060808201516001600160a01b03908116918a01919091526080808301511515908a015260a091820151169088015260c0909601959082019060010162000da3565b60018060a01b0383168152604060208201526000825161012080604085015262000e3f61016085018362000b8e565b9150602085015162000e56606086018260070b9052565b506040850151801515608086015250606085015180151560a086015250608085015180151560c08601525060a0850151603f19808685030160e087015262000e9f848362000c98565b935060c0870151915061010081878603018188015262000ec0858462000d12565b945060e0880151925081878603018488015262000ede858462000d8f565b9450808801519350508086850301610140870152505062000f00828262000a97565b9695505050505050565b600181811c9082168062000f1f57607f821691505b6020821081141562000f4157634e487b7160e01b600052602260045260246000fd5b50919050565b6128c28062000f576000396000f3fe608060405234801561001057600080fd5b506004361061017d5760003560e01c8063524773ce116100e3578063a22cb4651161008c578063c87b56dd11610066578063c87b56dd14610347578063cc9858781461035a578063e985e9c51461036257600080fd5b8063a22cb4651461030e578063b59fc61914610321578063b88d4fde1461033457600080fd5b806387087728116100bd57806387087728146102e857806395d89b41146102fb5780639659867e1461030357600080fd5b8063524773ce146102a15780636352211e146102c257806370a08231146102d557600080fd5b80630ff14938116101455780633d08925d1161011f5780633d08925d1461024e57806342842e0e1461027b578063430c20811461028e57600080fd5b80630ff149381461021257806318160ddd1461022557806323b872dd1461023b57600080fd5b806301ffc9a71461018257806306e483a5146101aa57806306fdde03146101bf578063081812fc146101d4578063095ea7b3146101ff575b600080fd5b610195610190366004611995565b61039e565b60405190151581526020015b60405180910390f35b6101bd6101b83660046119d6565b6103f0565b005b6101c7610453565b6040516101a19190611a67565b6101e76101e2366004611a7a565b6104e5565b6040516001600160a01b0390911681526020016101a1565b6101bd61020d366004611a93565b61050c565b6101bd610220366004611acd565b6105da565b61022d610630565b6040519081526020016101a1565b6101bd610249366004611b18565b61065d565b61026161025c366004611cd5565b61072b565b60408051600793840b81529190920b6020820152016101a1565b6101bd610289366004611b18565b61085a565b61019561029c366004611a93565b610928565b600654600160401b900460070b5b60405160079190910b81526020016101a1565b6101e76102d0366004611a7a565b61093b565b61022d6102e3366004611d86565b6109a0565b6102af6102f6366004611da3565b610a26565b6101c7610b31565b60065460070b6102af565b6101bd61031c366004611e18565b610b40565b6102af61032f366004611e46565b610c0c565b6101bd610342366004611eaa565b610c8b565b6101c7610355366004611a7a565b610d62565b610195600081565b610195610370366004611f16565b6001600160a01b03918216600090815260056020908152604080832093909416825291909152205460ff1690565b60006001600160e01b031982166380ac58cd60e01b14806103cf57506001600160e01b03198216635b5e139f60e01b145b806103ea57506301ffc9a760e01b6001600160e01b03198316145b92915050565b336101671461043b5760405162461bcd60e51b81526020600482015260126024820152714e4f545f4854535f505245434f4d50494c4560701b60448201526064015b60405180910390fd5b61044f828267ffffffffffffffff16610dd5565b5050565b60606000805461046290611f44565b80601f016020809104026020016040519081016040528092919081815260200182805461048e90611f44565b80156104db5780601f106104b0576101008083540402835291602001916104db565b820191906000526020600020905b8154815290600101906020018083116104be57829003601f168201915b5050505050905090565b60006104f082610e43565b506000908152600460205260409020546001600160a01b031690565b60405163e459524960e01b815233600482018190526001600160a01b0384166024830152604482018390529083906000906101679063e459524990606401602060405180830381600087803b15801561056457600080fd5b505af1158015610578573d6000803e3d6000fd5b505050506040513d601f19601f8201168201806040525081019061059c9190611f8f565b9050600781900b6016146105c95760405163fbe0be3960e01b8152600782900b6004820152602401610432565b6105d38585610eaa565b5050505050565b33610167146106205760405162461bcd60e51b81526020600482015260126024820152714e4f545f4854535f505245434f4d50494c4560701b6044820152606401610432565b61062b838383610fbb565b505050565b60065460009061064e90600160401b8104600790810b91900b611fc2565b67ffffffffffffffff16905090565b60405163a0ecee3360e01b815233600482018190526001600160a01b0380861660248401528416604483015260648201839052906000906101679063a0ecee3390608401602060405180830381600087803b1580156106bb57600080fd5b505af11580156106cf573d6000803e3d6000fd5b505050506040513d601f19601f820116820180604052508101906106f39190611f8f565b9050600781900b6016146107205760405163fbe0be3960e01b8152600782900b6004820152602401610432565b6105d385858561108a565b60008033610167146107745760405162461bcd60e51b81526020600482015260126024820152714e4f545f4854535f505245434f4d50494c4560701b6044820152606401610432565b604051631f69565f60e01b815230600482015260009061016790631f69565f9060240160006040518083038186803b1580156107af57600080fd5b505afa1580156107c3573d6000803e3d6000fd5b505050506040513d6000823e601f3d908101601f191682016040526107eb91908101906125e4565b805160400151600680549294509092509060009061080b9060070b61273e565b91906101000a81548167ffffffffffffffff021916908360070b67ffffffffffffffff16021790559250610849818467ffffffffffffffff16611101565b610851610630565b93505050915091565b60405163a0ecee3360e01b815233600482018190526001600160a01b0380861660248401528416604483015260648201839052906000906101679063a0ecee3390608401602060405180830381600087803b1580156108b857600080fd5b505af11580156108cc573d6000803e3d6000fd5b505050506040513d601f19601f820116820180604052508101906108f09190611f8f565b9050600781900b60161461091d5760405163fbe0be3960e01b8152600782900b6004820152602401610432565b6105d385858561128c565b600061093483836112a7565b9392505050565b6000818152600260205260408120546001600160a01b0316806103ea5760405162461bcd60e51b815260206004820152601860248201527f4552433732313a20696e76616c696420746f6b656e20494400000000000000006044820152606401610432565b60006001600160a01b038216610a0a5760405162461bcd60e51b815260206004820152602960248201527f4552433732313a2061646472657373207a65726f206973206e6f7420612076616044820152683634b21037bbb732b960b91b6064820152608401610432565b506001600160a01b031660009081526003602052604090205490565b60003361016714610a6e5760405162461bcd60e51b81526020600482015260126024820152714e4f545f4854535f505245434f4d50494c4560701b6044820152606401610432565b6006548290610a88908290600160401b900460070b612765565b6006805467ffffffffffffffff92909216600160401b026fffffffffffffffff00000000000000001990921691909117905560005b8167ffffffffffffffff16811015610b20576000858583818110610ae357610ae36127b6565b9050602002016020810190610af891906127cc565b67ffffffffffffffff169050610b0d81611325565b5080610b18816127e9565b915050610abd565b50610b29610630565b949350505050565b60606001805461046290611f44565b6040516329aabad960e11b815233600482018190526001600160a01b03841660248301528215156044830152906000906101679063535575b290606401602060405180830381600087803b158015610b9757600080fd5b505af1158015610bab573d6000803e3d6000fd5b505050506040513d601f19601f82011682018060405250810190610bcf9190611f8f565b9050600781900b601614610bfc5760405163fbe0be3960e01b8152600782900b6004820152602401610432565b610c0684846113ba565b50505050565b60003361016714610c545760405162461bcd60e51b81526020600482015260126024820152714e4f545f4854535f505245434f4d50494c4560701b6044820152606401610432565b6000610c6086846112a7565b905080610c71575060b29050610c82565b610c7c8585856113c5565b50601690505b95945050505050565b60405163a0ecee3360e01b815233600482018190526001600160a01b0380871660248401528516604483015260648201849052906000906101679063a0ecee3390608401602060405180830381600087803b158015610ce957600080fd5b505af1158015610cfd573d6000803e3d6000fd5b505050506040513d601f19601f82011682018060405250810190610d219190611f8f565b9050600781900b601614610d4e5760405163fbe0be3960e01b8152600782900b6004820152602401610432565b610d5a868686866115a5565b505050505050565b6060610d6d82610e43565b6000610d8460408051602081019091526000815290565b90506000815111610da45760405180602001604052806000815250610934565b80610dae8461161d565b604051602001610dbf929190612804565b6040516020818303038152906040529392505050565b600081815260046020526040902080546001600160a01b0319166001600160a01b0384169081179091558190610e0a8261093b565b6001600160a01b03167f8c5be1e5ebec7d5bd14f71427d1e84f3dd0314c0f7b2291e5b200ac8c7c3b92560405160405180910390a45050565b6000818152600260205260409020546001600160a01b0316610ea75760405162461bcd60e51b815260206004820152601860248201527f4552433732313a20696e76616c696420746f6b656e20494400000000000000006044820152606401610432565b50565b6000610eb58261093b565b9050806001600160a01b0316836001600160a01b03161415610f235760405162461bcd60e51b815260206004820152602160248201527f4552433732313a20617070726f76616c20746f2063757272656e74206f776e656044820152603960f91b6064820152608401610432565b336001600160a01b0382161480610f3f5750610f3f8133610370565b610fb15760405162461bcd60e51b815260206004820152603d60248201527f4552433732313a20617070726f76652063616c6c6572206973206e6f7420746f60448201527f6b656e206f776e6572206f7220617070726f76656420666f7220616c6c0000006064820152608401610432565b61062b8383610dd5565b816001600160a01b0316836001600160a01b0316141561101d5760405162461bcd60e51b815260206004820152601960248201527f4552433732313a20617070726f766520746f2063616c6c6572000000000000006044820152606401610432565b6001600160a01b03838116600081815260056020908152604080832094871680845294825291829020805460ff191686151590811790915591519182527f17307eab39ab6107e8899845ad3d59bd9653f200f220920489ca2b5937696c31910160405180910390a3505050565b61109433826112a7565b6110f65760405162461bcd60e51b815260206004820152602d60248201527f4552433732313a2063616c6c6572206973206e6f7420746f6b656e206f776e6560448201526c1c881bdc88185c1c1c9bdd9959609a1b6064820152608401610432565b61062b8383836113c5565b6001600160a01b0382166111575760405162461bcd60e51b815260206004820181905260248201527f4552433732313a206d696e7420746f20746865207a65726f20616464726573736044820152606401610432565b6000818152600260205260409020546001600160a01b0316156111bc5760405162461bcd60e51b815260206004820152601c60248201527f4552433732313a20746f6b656e20616c7265616479206d696e746564000000006044820152606401610432565b6000818152600260205260409020546001600160a01b0316156112215760405162461bcd60e51b815260206004820152601c60248201527f4552433732313a20746f6b656e20616c7265616479206d696e746564000000006044820152606401610432565b6001600160a01b038216600081815260036020908152604080832080546001019055848352600290915280822080546001600160a01b0319168417905551839291907fddf252ad1be2c89b69c2b068fc378daa952ba7f163c4a11628f55a4df523b3ef908290a45050565b61062b83838360405180602001604052806000815250610c8b565b6000806112b38361093b565b9050806001600160a01b0316846001600160a01b031614806112fa57506001600160a01b0380821660009081526005602090815260408083209388168352929052205460ff165b80610b295750836001600160a01b0316611313846104e5565b6001600160a01b031614949350505050565b60006113308261093b565b905061133b8261093b565b600083815260046020908152604080832080546001600160a01b03199081169091556001600160a01b0385168085526003845282852080546000190190558785526002909352818420805490911690555192935084927fddf252ad1be2c89b69c2b068fc378daa952ba7f163c4a11628f55a4df523b3ef908390a45050565b61044f338383610fbb565b826001600160a01b03166113d88261093b565b6001600160a01b03161461143c5760405162461bcd60e51b815260206004820152602560248201527f4552433732313a207472616e736665722066726f6d20696e636f72726563742060448201526437bbb732b960d91b6064820152608401610432565b6001600160a01b03821661149e5760405162461bcd60e51b8152602060048201526024808201527f4552433732313a207472616e7366657220746f20746865207a65726f206164646044820152637265737360e01b6064820152608401610432565b826001600160a01b03166114b18261093b565b6001600160a01b0316146115155760405162461bcd60e51b815260206004820152602560248201527f4552433732313a207472616e736665722066726f6d20696e636f72726563742060448201526437bbb732b960d91b6064820152608401610432565b600081815260046020908152604080832080546001600160a01b03199081169091556001600160a01b0387811680865260038552838620805460001901905590871680865283862080546001019055868652600290945282852080549092168417909155905184937fddf252ad1be2c89b69c2b068fc378daa952ba7f163c4a11628f55a4df523b3ef91a4505050565b6115af33836112a7565b6116115760405162461bcd60e51b815260206004820152602d60248201527f4552433732313a2063616c6c6572206973206e6f7420746f6b656e206f776e6560448201526c1c881bdc88185c1c1c9bdd9959609a1b6064820152608401610432565b610c06848484846116c7565b6060600061162a83611745565b600101905060008167ffffffffffffffff81111561164a5761164a611b59565b6040519080825280601f01601f191660200182016040528015611674576020820181803683370190505b5090508181016020015b600019017f3031323334353637383961626364656600000000000000000000000000000000600a86061a8153600a85049450846116ba576116bf565b61167e565b509392505050565b6116d28484846113c5565b6116de84848484611827565b610c065760405162461bcd60e51b815260206004820152603260248201527f4552433732313a207472616e7366657220746f206e6f6e20455243373231526560448201527131b2b4bb32b91034b6b83632b6b2b73a32b960711b6064820152608401610432565b6000807a184f03e93ff9f4daa797ed6e38ed64bf6a1f010000000000000000831061178e577a184f03e93ff9f4daa797ed6e38ed64bf6a1f010000000000000000830492506040015b6d04ee2d6d415b85acef810000000083106117ba576d04ee2d6d415b85acef8100000000830492506020015b662386f26fc1000083106117d857662386f26fc10000830492506010015b6305f5e10083106117f0576305f5e100830492506008015b612710831061180457612710830492506004015b60648310611816576064830492506002015b600a83106103ea5760010192915050565b60006001600160a01b0384163b1561197457604051630a85bd0160e11b81526001600160a01b0385169063150b7a029061186b903390899088908890600401612833565b602060405180830381600087803b15801561188557600080fd5b505af19250505080156118b5575060408051601f3d908101601f191682019092526118b29181019061286f565b60015b61195a573d8080156118e3576040519150601f19603f3d011682016040523d82523d6000602084013e6118e8565b606091505b5080516119525760405162461bcd60e51b815260206004820152603260248201527f4552433732313a207472616e7366657220746f206e6f6e20455243373231526560448201527131b2b4bb32b91034b6b83632b6b2b73a32b960711b6064820152608401610432565b805181602001fd5b6001600160e01b031916630a85bd0160e11b149050610b29565b506001949350505050565b6001600160e01b031981168114610ea757600080fd5b6000602082840312156119a757600080fd5b81356109348161197f565b6001600160a01b0381168114610ea757600080fd5b8060070b8114610ea757600080fd5b600080604083850312156119e957600080fd5b82356119f4816119b2565b91506020830135611a04816119c7565b809150509250929050565b60005b83811015611a2a578181015183820152602001611a12565b83811115610c065750506000910152565b60008151808452611a53816020860160208601611a0f565b601f01601f19169290920160200192915050565b6020815260006109346020830184611a3b565b600060208284031215611a8c57600080fd5b5035919050565b60008060408385031215611aa657600080fd5b8235611ab1816119b2565b946020939093013593505050565b8015158114610ea757600080fd5b600080600060608486031215611ae257600080fd5b8335611aed816119b2565b92506020840135611afd816119b2565b91506040840135611b0d81611abf565b809150509250925092565b600080600060608486031215611b2d57600080fd5b8335611b38816119b2565b92506020840135611b48816119b2565b929592945050506040919091013590565b634e487b7160e01b600052604160045260246000fd5b6040805190810167ffffffffffffffff81118282101715611b9257611b92611b59565b60405290565b60405160a0810167ffffffffffffffff81118282101715611b9257611b92611b59565b604051610120810167ffffffffffffffff81118282101715611b9257611b92611b59565b60405160c0810167ffffffffffffffff81118282101715611b9257611b92611b59565b604051601f8201601f1916810167ffffffffffffffff81118282101715611c2b57611c2b611b59565b604052919050565b600067ffffffffffffffff821115611c4d57611c4d611b59565b5060051b60200190565b600067ffffffffffffffff821115611c7157611c71611b59565b50601f01601f191660200190565b600082601f830112611c9057600080fd5b8135611ca3611c9e82611c57565b611c02565b818152846020838601011115611cb857600080fd5b816020850160208301376000918101602001919091529392505050565b60006020808385031215611ce857600080fd5b823567ffffffffffffffff80821115611d0057600080fd5b818501915085601f830112611d1457600080fd5b8135611d22611c9e82611c33565b81815260059190911b83018401908481019088831115611d4157600080fd5b8585015b83811015611d7957803585811115611d5d5760008081fd5b611d6b8b89838a0101611c7f565b845250918601918601611d45565b5098975050505050505050565b600060208284031215611d9857600080fd5b8135610934816119b2565b60008060208385031215611db657600080fd5b823567ffffffffffffffff80821115611dce57600080fd5b818501915085601f830112611de257600080fd5b813581811115611df157600080fd5b8660208260051b8501011115611e0657600080fd5b60209290920196919550909350505050565b60008060408385031215611e2b57600080fd5b8235611e36816119b2565b91506020830135611a0481611abf565b600080600080600060a08688031215611e5e57600080fd5b8535611e6981611abf565b94506020860135611e79816119b2565b93506040860135611e89816119b2565b92506060860135611e99816119b2565b949793965091946080013592915050565b60008060008060808587031215611ec057600080fd5b8435611ecb816119b2565b93506020850135611edb816119b2565b925060408501359150606085013567ffffffffffffffff811115611efe57600080fd5b611f0a87828801611c7f565b91505092959194509250565b60008060408385031215611f2957600080fd5b8235611f34816119b2565b91506020830135611a04816119b2565b600181811c90821680611f5857607f821691505b60208210811415611f7957634e487b7160e01b600052602260045260246000fd5b50919050565b8051611f8a816119c7565b919050565b600060208284031215611fa157600080fd5b8151610934816119c7565b634e487b7160e01b600052601160045260246000fd5b60008160070b8360070b6000811281677fffffffffffffff1901831281151615611fee57611fee611fac565b81677fffffffffffffff01831381161561200a5761200a611fac565b5090039392505050565b600082601f83011261202557600080fd5b8151612033611c9e82611c57565b81815284602083860101111561204857600080fd5b610b29826020830160208701611a0f565b8051611f8a816119b2565b8051611f8a81611abf565b600082601f83011261208057600080fd5b81516020612090611c9e83611c33565b82815260059290921b840181019181810190868411156120af57600080fd5b8286015b848110156121c557805167ffffffffffffffff808211156120d357600080fd5b908801906040601f19838c0381018213156120ed57600080fd5b6120f5611b6f565b888501518152828501518481111561210c57600080fd5b949094019360a0858e03830112156121245760008081fd5b61212c611b98565b91508885015161213b81611abf565b82528483015161214a816119b2565b828a0152606085810151858111156121625760008081fd5b6121708f8c838a0101612014565b858501525060809350838601518581111561218b5760008081fd5b6121998f8c838a0101612014565b8285015250506121ab60a08601612059565b9282019290925281880152855250509183019183016120b3565b509695505050505050565b6000606082840312156121e257600080fd5b6040516060810181811067ffffffffffffffff8211171561220557612205611b59565b80604052508091508251612218816119c7565b81526020830151612228816119b2565b6020820152604083015161223b816119c7565b6040919091015292915050565b6000610160828403121561225b57600080fd5b612263611bbb565b9050815167ffffffffffffffff8082111561227d57600080fd5b61228985838601612014565b8352602084015191508082111561229f57600080fd5b6122ab85838601612014565b60208401526122bc60408501612059565b604084015260608401519150808211156122d557600080fd5b6122e185838601612014565b60608401526122f260808501612064565b608084015261230360a08501611f7f565b60a084015261231460c08501612064565b60c084015260e084015191508082111561232d57600080fd5b5061233a8482850161206f565b60e08301525061010061234f848285016121d0565b9082015292915050565b600082601f83011261236a57600080fd5b8151602061237a611c9e83611c33565b82815260a0928302850182019282820191908785111561239957600080fd5b8387015b858110156124215781818a0312156123b55760008081fd5b6123bd611b98565b81516123c8816119c7565b8152818601516123d7816119b2565b818701526040828101516123ea81611abf565b908201526060828101516123fd81611abf565b90820152608082810151612410816119b2565b90820152845292840192810161239d565b5090979650505050505050565b600082601f83011261243f57600080fd5b8151602061244f611c9e83611c33565b82815260c0928302850182019282820191908785111561246e57600080fd5b8387015b858110156124215781818a03121561248a5760008081fd5b612492611bdf565b815161249d816119c7565b8152818601516124ac816119c7565b818701526040828101516124bf816119c7565b908201526060828101516124d2816119c7565b908201526080828101516124e581611abf565b9082015260a0828101516124f8816119b2565b908201528452928401928101612472565b600082601f83011261251a57600080fd5b8151602061252a611c9e83611c33565b82815260c0928302850182019282820191908785111561254957600080fd5b8387015b858110156124215781818a0312156125655760008081fd5b61256d611bdf565b8151612578816119c7565b815281860151612587816119c7565b8187015260408281015161259a816119c7565b908201526060828101516125ad816119b2565b908201526080828101516125c081611abf565b9082015260a0828101516125d3816119b2565b90820152845292840192810161254d565b600080604083850312156125f757600080fd5b8251612602816119c7565b602084015190925067ffffffffffffffff8082111561262057600080fd5b90840190610120828703121561263557600080fd5b61263d611bbb565b82518281111561264c57600080fd5b61265888828601612248565b82525061266760208401611f7f565b602082015261267860408401612064565b604082015261268960608401612064565b606082015261269a60808401612064565b608082015260a0830151828111156126b157600080fd5b6126bd88828601612359565b60a08301525060c0830151828111156126d557600080fd5b6126e18882860161242e565b60c08301525060e0830151828111156126f957600080fd5b61270588828601612509565b60e083015250610100808401518381111561271f57600080fd5b61272b89828701612014565b8284015250508093505050509250929050565b60008160070b677fffffffffffffff81141561275c5761275c611fac565b60010192915050565b60008160070b8360070b6000821282677fffffffffffffff0382138115161561279057612790611fac565b82677fffffffffffffff190382128116156127ad576127ad611fac565b50019392505050565b634e487b7160e01b600052603260045260246000fd5b6000602082840312156127de57600080fd5b8135610934816119c7565b60006000198214156127fd576127fd611fac565b5060010190565b60008351612816818460208801611a0f565b83519083019061282a818360208801611a0f565b01949350505050565b60006001600160a01b038087168352808616602084015250836040830152608060608301526128656080830184611a3b565b9695505050505050565b60006020828403121561288157600080fd5b81516109348161197f56fea264697066735822122063b5906f785bfefd2fec4cc24d132c22f963ed21e62b20765547adccad705d4864736f6c63430008090033a26469706673582212208cd06c28968cd3606e360f643b47df56df471811b827e2f5a5c221e7965b2ac764736f6c63430008090033",
  "linkReferences": {},
  "deployedLinkReferences": {}
}