{
  "_format": "hh-sol-artifact-1",
  "contractName": "HtsPrecompileMock",
  "sourceName": "contracts/mocks/hts-precompile/HtsPrecompileMock.sol",
  "abi": [
    {
      "inputs": [],
      "stateMutability": "nonpayable",
      "type": "constructor"
    },
    {
      "inputs": [
        {
          "internalType": "int64",
          "name": "responseCode",
          "type": "int64"
        }
      ],
      "name": "HtsPrecompileError",
      "type": "error"
    },
    {
      "inputs": [
        {
          "internalType": "address",
          "name": "token",
          "type": "address"
        },
        {
          "internalType": "address",
          "name": "owner",
          "type": "address"
        },
        {
          "internalType": "address",
          "name": "spender",
          "type": "address"
        }
      ],
      "name": "allowance",
      "outputs": [
        {
          "internalType": "int64",
          "name": "responseCode",
          "type": "int64"
        },
        {
          "internalType": "uint256",
          "name": "allowance",
          "type": "uint256"
        }
      ],
      "stateMutability": "view",
      "type": "function"
    },
    {
      "inputs": [
        {
          "internalType": "address",
          "name": "token",
          "type": "address"
        },
        {
          "internalType": "address",
          "name": "spender",
          "type": "address"
        },
        {
          "internalType": "uint256",
          "name": "amount",
          "type": "uint256"
        }
      ],
      "name": "approve",
      "outputs": [
        {
          "internalType": "int64",
          "name": "responseCode",
          "type": "int64"
        }
      ],
      "stateMutability": "nonpayable",
      "type": "function"
    },
    {
      "inputs": [
        {
          "internalType": "address",
          "name": "token",
          "type": "address"
        },
        {
          "internalType": "address",
          "name": "approved",
          "type": "address"
        },
        {
          "internalType": "uint256",
          "name": "serialNumber",
          "type": "uint256"
        }
      ],
      "name": "approveNFT",
      "outputs": [
        {
          "internalType": "int64",
          "name": "responseCode",
          "type": "int64"
        }
      ],
      "stateMutability": "nonpayable",
      "type": "function"
    },
    {
      "inputs": [
        {
          "internalType": "address",
          "name": "account",
          "type": "address"
        },
        {
          "internalType": "address",
          "name": "token",
          "type": "address"
        }
      ],
      "name": "associateToken",
      "outputs": [
        {
          "internalType": "int64",
          "name": "responseCode",
          "type": "int64"
        }
      ],
      "stateMutability": "nonpayable",
      "type": "function"
    },
    {
      "inputs": [
        {
          "internalType": "address",
          "name": "account",
          "type": "address"
        },
        {
          "internalType": "address[]",
          "name": "tokens",
          "type": "address[]"
        }
      ],
      "name": "associateTokens",
      "outputs": [
        {
          "internalType": "int64",
          "name": "responseCode",
          "type": "int64"
        }
      ],
      "stateMutability": "nonpayable",
      "type": "function"
    },
    {
      "inputs": [
        {
          "internalType": "address",
          "name": "token",
          "type": "address"
        },
        {
          "internalType": "int64",
          "name": "amount",
          "type": "int64"
        },
        {
          "internalType": "int64[]",
          "name": "serialNumbers",
          "type": "int64[]"
        }
      ],
      "name": "burnToken",
      "outputs": [
        {
          "internalType": "int64",
          "name": "responseCode",
          "type": "int64"
        },
        {
          "internalType": "int64",
          "name": "newTotalSupply",
          "type": "int64"
        }
      ],
      "stateMutability": "nonpayable",
      "type": "function"
    },
    {
      "inputs": [
        {
          "components": [
            {
              "internalType": "string",
              "name": "name",
              "type": "string"
            },
            {
              "internalType": "string",
              "name": "symbol",
              "type": "string"
            },
            {
              "internalType": "address",
              "name": "treasury",
              "type": "address"
            },
            {
              "internalType": "string",
              "name": "memo",
              "type": "string"
            },
            {
              "internalType": "bool",
              "name": "tokenSupplyType",
              "type": "bool"
            },
            {
              "internalType": "int64",
              "name": "maxSupply",
              "type": "int64"
            },
            {
              "internalType": "bool",
              "name": "freezeDefault",
              "type": "bool"
            },
            {
              "components": [
                {
                  "internalType": "uint256",
                  "name": "keyType",
                  "type": "uint256"
                },
                {
                  "components": [
                    {
                      "internalType": "bool",
                      "name": "inheritAccountKey",
                      "type": "bool"
                    },
                    {
                      "internalType": "address",
                      "name": "contractId",
                      "type": "address"
                    },
                    {
                      "internalType": "bytes",
                      "name": "ed25519",
                      "type": "bytes"
                    },
                    {
                      "internalType": "bytes",
                      "name": "ECDSA_secp256k1",
                      "type": "bytes"
                    },
                    {
                      "internalType": "address",
                      "name": "delegatableContractId",
                      "type": "address"
                    }
                  ],
                  "internalType": "struct IHederaTokenService.KeyValue",
                  "name": "key",
                  "type": "tuple"
                }
              ],
              "internalType": "struct IHederaTokenService.TokenKey[]",
              "name": "tokenKeys",
              "type": "tuple[]"
            },
            {
              "components": [
                {
                  "internalType": "int64",
                  "name": "second",
                  "type": "int64"
                },
                {
                  "internalType": "address",
                  "name": "autoRenewAccount",
                  "type": "address"
                },
                {
                  "internalType": "int64",
                  "name": "autoRenewPeriod",
                  "type": "int64"
                }
              ],
              "internalType": "struct IHederaTokenService.Expiry",
              "name": "expiry",
              "type": "tuple"
            }
          ],
          "internalType": "struct IHederaTokenService.HederaToken",
          "name": "token",
          "type": "tuple"
        },
        {
          "internalType": "int64",
          "name": "initialTotalSupply",
          "type": "int64"
        },
        {
          "internalType": "int32",
          "name": "decimals",
          "type": "int32"
        }
      ],
      "name": "createFungibleToken",
      "outputs": [
        {
          "internalType": "int64",
          "name": "responseCode",
          "type": "int64"
        },
        {
          "internalType": "address",
          "name": "tokenAddress",
          "type": "address"
        }
      ],
      "stateMutability": "payable",
      "type": "function"
    },
    {
      "inputs": [
        {
          "components": [
            {
              "internalType": "string",
              "name": "name",
              "type": "string"
            },
            {
              "internalType": "string",
              "name": "symbol",
              "type": "string"
            },
            {
              "internalType": "address",
              "name": "treasury",
              "type": "address"
            },
            {
              "internalType": "string",
              "name": "memo",
              "type": "string"
            },
            {
              "internalType": "bool",
              "name": "tokenSupplyType",
              "type": "bool"
            },
            {
              "internalType": "int64",
              "name": "maxSupply",
              "type": "int64"
            },
            {
              "internalType": "bool",
              "name": "freezeDefault",
              "type": "bool"
            },
            {
              "components": [
                {
                  "internalType": "uint256",
                  "name": "keyType",
                  "type": "uint256"
                },
                {
                  "components": [
                    {
                      "internalType": "bool",
                      "name": "inheritAccountKey",
                      "type": "bool"
                    },
                    {
                      "internalType": "address",
                      "name": "contractId",
                      "type": "address"
                    },
                    {
                      "internalType": "bytes",
                      "name": "ed25519",
                      "type": "bytes"
                    },
                    {
                      "internalType": "bytes",
                      "name": "ECDSA_secp256k1",
                      "type": "bytes"
                    },
                    {
                      "internalType": "address",
                      "name": "delegatableContractId",
                      "type": "address"
                    }
                  ],
                  "internalType": "struct IHederaTokenService.KeyValue",
                  "name": "key",
                  "type": "tuple"
                }
              ],
              "internalType": "struct IHederaTokenService.TokenKey[]",
              "name": "tokenKeys",
              "type": "tuple[]"
            },
            {
              "components": [
                {
                  "internalType": "int64",
                  "name": "second",
                  "type": "int64"
                },
                {
                  "internalType": "address",
                  "name": "autoRenewAccount",
                  "type": "address"
                },
                {
                  "internalType": "int64",
                  "name": "autoRenewPeriod",
                  "type": "int64"
                }
              ],
              "internalType": "struct IHederaTokenService.Expiry",
              "name": "expiry",
              "type": "tuple"
            }
          ],
          "internalType": "struct IHederaTokenService.HederaToken",
          "name": "token",
          "type": "tuple"
        },
        {
          "internalType": "int64",
          "name": "initialTotalSupply",
          "type": "int64"
        },
        {
          "internalType": "int32",
          "name": "decimals",
          "type": "int32"
        },
        {
          "components": [
            {
              "internalType": "int64",
              "name": "amount",
              "type": "int64"
            },
            {
              "internalType": "address",
              "name": "tokenId",
              "type": "address"
            },
            {
              "internalType": "bool",
              "name": "useHbarsForPayment",
              "type": "bool"
            },
            {
              "internalType": "bool",
              "name": "useCurrentTokenForPayment",
              "type": "bool"
            },
            {
              "internalType": "address",
              "name": "feeCollector",
              "type": "address"
            }
          ],
          "internalType": "struct IHederaTokenService.FixedFee[]",
          "name": "fixedFees",
          "type": "tuple[]"
        },
        {
          "components": [
            {
              "internalType": "int64",
              "name": "numerator",
              "type": "int64"
            },
            {
              "internalType": "int64",
              "name": "denominator",
              "type": "int64"
            },
            {
              "internalType": "int64",
              "name": "minimumAmount",
              "type": "int64"
            },
            {
              "internalType": "int64",
              "name": "maximumAmount",
              "type": "int64"
            },
            {
              "internalType": "bool",
              "name": "netOfTransfers",
              "type": "bool"
            },
            {
              "internalType": "address",
              "name": "feeCollector",
              "type": "address"
            }
          ],
          "internalType": "struct IHederaTokenService.FractionalFee[]",
          "name": "fractionalFees",
          "type": "tuple[]"
        }
      ],
      "name": "createFungibleTokenWithCustomFees",
      "outputs": [
        {
          "internalType": "int64",
          "name": "responseCode",
          "type": "int64"
        },
        {
          "internalType": "address",
          "name": "tokenAddress",
          "type": "address"
        }
      ],
      "stateMutability": "payable",
      "type": "function"
    },
    {
      "inputs": [
        {
          "components": [
            {
              "internalType": "string",
              "name": "name",
              "type": "string"
            },
            {
              "internalType": "string",
              "name": "symbol",
              "type": "string"
            },
            {
              "internalType": "address",
              "name": "treasury",
              "type": "address"
            },
            {
              "internalType": "string",
              "name": "memo",
              "type": "string"
            },
            {
              "internalType": "bool",
              "name": "tokenSupplyType",
              "type": "bool"
            },
            {
              "internalType": "int64",
              "name": "maxSupply",
              "type": "int64"
            },
            {
              "internalType": "bool",
              "name": "freezeDefault",
              "type": "bool"
            },
            {
              "components": [
                {
                  "internalType": "uint256",
                  "name": "keyType",
                  "type": "uint256"
                },
                {
                  "components": [
                    {
                      "internalType": "bool",
                      "name": "inheritAccountKey",
                      "type": "bool"
                    },
                    {
                      "internalType": "address",
                      "name": "contractId",
                      "type": "address"
                    },
                    {
                      "internalType": "bytes",
                      "name": "ed25519",
                      "type": "bytes"
                    },
                    {
                      "internalType": "bytes",
                      "name": "ECDSA_secp256k1",
                      "type": "bytes"
                    },
                    {
                      "internalType": "address",
                      "name": "delegatableContractId",
                      "type": "address"
                    }
                  ],
                  "internalType": "struct IHederaTokenService.KeyValue",
                  "name": "key",
                  "type": "tuple"
                }
              ],
              "internalType": "struct IHederaTokenService.TokenKey[]",
              "name": "tokenKeys",
              "type": "tuple[]"
            },
            {
              "components": [
                {
                  "internalType": "int64",
                  "name": "second",
                  "type": "int64"
                },
                {
                  "internalType": "address",
                  "name": "autoRenewAccount",
                  "type": "address"
                },
                {
                  "internalType": "int64",
                  "name": "autoRenewPeriod",
                  "type": "int64"
                }
              ],
              "internalType": "struct IHederaTokenService.Expiry",
              "name": "expiry",
              "type": "tuple"
            }
          ],
          "internalType": "struct IHederaTokenService.HederaToken",
          "name": "token",
          "type": "tuple"
        }
      ],
      "name": "createNonFungibleToken",
      "outputs": [
        {
          "internalType": "int64",
          "name": "responseCode",
          "type": "int64"
        },
        {
          "internalType": "address",
          "name": "tokenAddress",
          "type": "address"
        }
      ],
      "stateMutability": "payable",
      "type": "function"
    },
    {
      "inputs": [
        {
          "components": [
            {
              "internalType": "string",
              "name": "name",
              "type": "string"
            },
            {
              "internalType": "string",
              "name": "symbol",
              "type": "string"
            },
            {
              "internalType": "address",
              "name": "treasury",
              "type": "address"
            },
            {
              "internalType": "string",
              "name": "memo",
              "type": "string"
            },
            {
              "internalType": "bool",
              "name": "tokenSupplyType",
              "type": "bool"
            },
            {
              "internalType": "int64",
              "name": "maxSupply",
              "type": "int64"
            },
            {
              "internalType": "bool",
              "name": "freezeDefault",
              "type": "bool"
            },
            {
              "components": [
                {
                  "internalType": "uint256",
                  "name": "keyType",
                  "type": "uint256"
                },
                {
                  "components": [
                    {
                      "internalType": "bool",
                      "name": "inheritAccountKey",
                      "type": "bool"
                    },
                    {
                      "internalType": "address",
                      "name": "contractId",
                      "type": "address"
                    },
                    {
                      "internalType": "bytes",
                      "name": "ed25519",
                      "type": "bytes"
                    },
                    {
                      "internalType": "bytes",
                      "name": "ECDSA_secp256k1",
                      "type": "bytes"
                    },
                    {
                      "internalType": "address",
                      "name": "delegatableContractId",
                      "type": "address"
                    }
                  ],
                  "internalType": "struct IHederaTokenService.KeyValue",
                  "name": "key",
                  "type": "tuple"
                }
              ],
              "internalType": "struct IHederaTokenService.TokenKey[]",
              "name": "tokenKeys",
              "type": "tuple[]"
            },
            {
              "components": [
                {
                  "internalType": "int64",
                  "name": "second",
                  "type": "int64"
                },
                {
                  "internalType": "address",
                  "name": "autoRenewAccount",
                  "type": "address"
                },
                {
                  "internalType": "int64",
                  "name": "autoRenewPeriod",
                  "type": "int64"
                }
              ],
              "internalType": "struct IHederaTokenService.Expiry",
              "name": "expiry",
              "type": "tuple"
            }
          ],
          "internalType": "struct IHederaTokenService.HederaToken",
          "name": "token",
          "type": "tuple"
        },
        {
          "components": [
            {
              "internalType": "int64",
              "name": "amount",
              "type": "int64"
            },
            {
              "internalType": "address",
              "name": "tokenId",
              "type": "address"
            },
            {
              "internalType": "bool",
              "name": "useHbarsForPayment",
              "type": "bool"
            },
            {
              "internalType": "bool",
              "name": "useCurrentTokenForPayment",
              "type": "bool"
            },
            {
              "internalType": "address",
              "name": "feeCollector",
              "type": "address"
            }
          ],
          "internalType": "struct IHederaTokenService.FixedFee[]",
          "name": "fixedFees",
          "type": "tuple[]"
        },
        {
          "components": [
            {
              "internalType": "int64",
              "name": "numerator",
              "type": "int64"
            },
            {
              "internalType": "int64",
              "name": "denominator",
              "type": "int64"
            },
            {
              "internalType": "int64",
              "name": "amount",
              "type": "int64"
            },
            {
              "internalType": "address",
              "name": "tokenId",
              "type": "address"
            },
            {
              "internalType": "bool",
              "name": "useHbarsForPayment",
              "type": "bool"
            },
            {
              "internalType": "address",
              "name": "feeCollector",
              "type": "address"
            }
          ],
          "internalType": "struct IHederaTokenService.RoyaltyFee[]",
          "name": "royaltyFees",
          "type": "tuple[]"
        }
      ],
      "name": "createNonFungibleTokenWithCustomFees",
      "outputs": [
        {
          "internalType": "int64",
          "name": "responseCode",
          "type": "int64"
        },
        {
          "internalType": "address",
          "name": "tokenAddress",
          "type": "address"
        }
      ],
      "stateMutability": "payable",
      "type": "function"
    },
    {
      "inputs": [
        {
          "components": [
            {
              "components": [
                {
                  "internalType": "address",
                  "name": "accountID",
                  "type": "address"
                },
                {
                  "internalType": "int64",
                  "name": "amount",
                  "type": "int64"
                },
                {
                  "internalType": "bool",
                  "name": "isApproval",
                  "type": "bool"
                }
              ],
              "internalType": "struct IHederaTokenService.AccountAmount[]",
              "name": "transfers",
              "type": "tuple[]"
            }
          ],
          "internalType": "struct IHederaTokenService.TransferList",
          "name": "transferList",
          "type": "tuple"
        },
        {
          "components": [
            {
              "internalType": "address",
              "name": "token",
              "type": "address"
            },
            {
              "components": [
                {
                  "internalType": "address",
                  "name": "accountID",
                  "type": "address"
                },
                {
                  "internalType": "int64",
                  "name": "amount",
                  "type": "int64"
                },
                {
                  "internalType": "bool",
                  "name": "isApproval",
                  "type": "bool"
                }
              ],
              "internalType": "struct IHederaTokenService.AccountAmount[]",
              "name": "transfers",
              "type": "tuple[]"
            },
            {
              "components": [
                {
                  "internalType": "address",
                  "name": "senderAccountID",
                  "type": "address"
                },
                {
                  "internalType": "address",
                  "name": "receiverAccountID",
                  "type": "address"
                },
                {
                  "internalType": "int64",
                  "name": "serialNumber",
                  "type": "int64"
                },
                {
                  "internalType": "bool",
                  "name": "isApproval",
                  "type": "bool"
                }
              ],
              "internalType": "struct IHederaTokenService.NftTransfer[]",
              "name": "nftTransfers",
              "type": "tuple[]"
            }
          ],
          "internalType": "struct IHederaTokenService.TokenTransferList[]",
          "name": "tokenTransfers",
          "type": "tuple[]"
        }
      ],
      "name": "cryptoTransfer",
      "outputs": [
        {
          "internalType": "int64",
          "name": "responseCode",
          "type": "int64"
        }
      ],
      "stateMutability": "nonpayable",
      "type": "function"
    },
    {
      "inputs": [
        {
          "internalType": "address",
          "name": "token",
          "type": "address"
        }
      ],
      "name": "deleteToken",
      "outputs": [
        {
          "internalType": "int64",
          "name": "responseCode",
          "type": "int64"
        }
      ],
      "stateMutability": "nonpayable",
      "type": "function"
    },
    {
      "inputs": [
        {
          "internalType": "address",
          "name": "account",
          "type": "address"
        },
        {
          "internalType": "address",
          "name": "token",
          "type": "address"
        }
      ],
      "name": "dissociateToken",
      "outputs": [
        {
          "internalType": "int64",
          "name": "responseCode",
          "type": "int64"
        }
      ],
      "stateMutability": "nonpayable",
      "type": "function"
    },
    {
      "inputs": [
        {
          "internalType": "address",
          "name": "account",
          "type": "address"
        },
        {
          "internalType": "address[]",
          "name": "tokens",
          "type": "address[]"
        }
      ],
      "name": "dissociateTokens",
      "outputs": [
        {
          "internalType": "int64",
          "name": "responseCode",
          "type": "int64"
        }
      ],
      "stateMutability": "nonpayable",
      "type": "function"
    },
    {
      "inputs": [
        {
          "internalType": "address",
          "name": "token",
          "type": "address"
        },
        {
          "internalType": "address",
          "name": "account",
          "type": "address"
        }
      ],
      "name": "freezeToken",
      "outputs": [
        {
          "internalType": "int64",
          "name": "responseCode",
          "type": "int64"
        }
      ],
      "stateMutability": "nonpayable",
      "type": "function"
    },
    {
      "inputs": [
        {
          "internalType": "address",
          "name": "token",
          "type": "address"
        },
        {
          "internalType": "uint256",
          "name": "serialNumber",
          "type": "uint256"
        }
      ],
      "name": "getApproved",
      "outputs": [
        {
          "internalType": "int64",
          "name": "responseCode",
          "type": "int64"
        },
        {
          "internalType": "address",
          "name": "approved",
          "type": "address"
        }
      ],
      "stateMutability": "view",
      "type": "function"
    },
    {
      "inputs": [
        {
          "internalType": "address",
          "name": "token",
          "type": "address"
        }
      ],
      "name": "getFungibleTokenInfo",
      "outputs": [
        {
          "internalType": "int64",
          "name": "responseCode",
          "type": "int64"
        },
        {
          "components": [
            {
              "components": [
                {
                  "components": [
                    {
                      "internalType": "string",
                      "name": "name",
                      "type": "string"
                    },
                    {
                      "internalType": "string",
                      "name": "symbol",
                      "type": "string"
                    },
                    {
                      "internalType": "address",
                      "name": "treasury",
                      "type": "address"
                    },
                    {
                      "internalType": "string",
                      "name": "memo",
                      "type": "string"
                    },
                    {
                      "internalType": "bool",
                      "name": "tokenSupplyType",
                      "type": "bool"
                    },
                    {
                      "internalType": "int64",
                      "name": "maxSupply",
                      "type": "int64"
                    },
                    {
                      "internalType": "bool",
                      "name": "freezeDefault",
                      "type": "bool"
                    },
                    {
                      "components": [
                        {
                          "internalType": "uint256",
                          "name": "keyType",
                          "type": "uint256"
                        },
                        {
                          "components": [
                            {
                              "internalType": "bool",
                              "name": "inheritAccountKey",
                              "type": "bool"
                            },
                            {
                              "internalType": "address",
                              "name": "contractId",
                              "type": "address"
                            },
                            {
                              "internalType": "bytes",
                              "name": "ed25519",
                              "type": "bytes"
                            },
                            {
                              "internalType": "bytes",
                              "name": "ECDSA_secp256k1",
                              "type": "bytes"
                            },
                            {
                              "internalType": "address",
                              "name": "delegatableContractId",
                              "type": "address"
                            }
                          ],
                          "internalType": "struct IHederaTokenService.KeyValue",
                          "name": "key",
                          "type": "tuple"
                        }
                      ],
                      "internalType": "struct IHederaTokenService.TokenKey[]",
                      "name": "tokenKeys",
                      "type": "tuple[]"
                    },
                    {
                      "components": [
                        {
                          "internalType": "int64",
                          "name": "second",
                          "type": "int64"
                        },
                        {
                          "internalType": "address",
                          "name": "autoRenewAccount",
                          "type": "address"
                        },
                        {
                          "internalType": "int64",
                          "name": "autoRenewPeriod",
                          "type": "int64"
                        }
                      ],
                      "internalType": "struct IHederaTokenService.Expiry",
                      "name": "expiry",
                      "type": "tuple"
                    }
                  ],
                  "internalType": "struct IHederaTokenService.HederaToken",
                  "name": "token",
                  "type": "tuple"
                },
                {
                  "internalType": "int64",
                  "name": "totalSupply",
                  "type": "int64"
                },
                {
                  "internalType": "bool",
                  "name": "deleted",
                  "type": "bool"
                },
                {
                  "internalType": "bool",
                  "name": "defaultKycStatus",
                  "type": "bool"
                },
                {
                  "internalType": "bool",
                  "name": "pauseStatus",
                  "type": "bool"
                },
                {
                  "components": [
                    {
                      "internalType": "int64",
                      "name": "amount",
                      "type": "int64"
                    },
                    {
                      "internalType": "address",
                      "name": "tokenId",
                      "type": "address"
                    },
                    {
                      "internalType": "bool",
                      "name": "useHbarsForPayment",
                      "type": "bool"
                    },
                    {
                      "internalType": "bool",
                      "name": "useCurrentTokenForPayment",
                      "type": "bool"
                    },
                    {
                      "internalType": "address",
                      "name": "feeCollector",
                      "type": "address"
                    }
                  ],
                  "internalType": "struct IHederaTokenService.FixedFee[]",
                  "name": "fixedFees",
                  "type": "tuple[]"
                },
                {
                  "components": [
                    {
                      "internalType": "int64",
                      "name": "numerator",
                      "type": "int64"
                    },
                    {
                      "internalType": "int64",
                      "name": "denominator",
                      "type": "int64"
                    },
                    {
                      "internalType": "int64",
                      "name": "minimumAmount",
                      "type": "int64"
                    },
                    {
                      "internalType": "int64",
                      "name": "maximumAmount",
                      "type": "int64"
                    },
                    {
                      "internalType": "bool",
                      "name": "netOfTransfers",
                      "type": "bool"
                    },
                    {
                      "internalType": "address",
                      "name": "feeCollector",
                      "type": "address"
                    }
                  ],
                  "internalType": "struct IHederaTokenService.FractionalFee[]",
                  "name": "fractionalFees",
                  "type": "tuple[]"
                },
                {
                  "components": [
                    {
                      "internalType": "int64",
                      "name": "numerator",
                      "type": "int64"
                    },
                    {
                      "internalType": "int64",
                      "name": "denominator",
                      "type": "int64"
                    },
                    {
                      "internalType": "int64",
                      "name": "amount",
                      "type": "int64"
                    },
                    {
                      "internalType": "address",
                      "name": "tokenId",
                      "type": "address"
                    },
                    {
                      "internalType": "bool",
                      "name": "useHbarsForPayment",
                      "type": "bool"
                    },
                    {
                      "internalType": "address",
                      "name": "feeCollector",
                      "type": "address"
                    }
                  ],
                  "internalType": "struct IHederaTokenService.RoyaltyFee[]",
                  "name": "royaltyFees",
                  "type": "tuple[]"
                },
                {
                  "internalType": "string",
                  "name": "ledgerId",
                  "type": "string"
                }
              ],
              "internalType": "struct IHederaTokenService.TokenInfo",
              "name": "tokenInfo",
              "type": "tuple"
            },
            {
              "internalType": "int32",
              "name": "decimals",
              "type": "int32"
            }
          ],
          "internalType": "struct IHederaTokenService.FungibleTokenInfo",
          "name": "fungibleTokenInfo",
          "type": "tuple"
        }
      ],
      "stateMutability": "view",
      "type": "function"
    },
    {
      "inputs": [
        {
          "internalType": "address",
          "name": "token",
          "type": "address"
        },
        {
          "internalType": "enum KeyHelper.KeyType",
          "name": "keyType",
          "type": "uint8"
        }
      ],
      "name": "getKey",
      "outputs": [
        {
          "internalType": "address",
          "name": "keyOwner",
          "type": "address"
        }
      ],
      "stateMutability": "view",
      "type": "function"
    },
    {
      "inputs": [
        {
          "internalType": "address",
          "name": "token",
          "type": "address"
        },
        {
          "internalType": "int64",
          "name": "serialNumber",
          "type": "int64"
        }
      ],
      "name": "getNonFungibleTokenInfo",
      "outputs": [
        {
          "internalType": "int64",
          "name": "responseCode",
          "type": "int64"
        },
        {
          "components": [
            {
              "components": [
                {
                  "components": [
                    {
                      "internalType": "string",
                      "name": "name",
                      "type": "string"
                    },
                    {
                      "internalType": "string",
                      "name": "symbol",
                      "type": "string"
                    },
                    {
                      "internalType": "address",
                      "name": "treasury",
                      "type": "address"
                    },
                    {
                      "internalType": "string",
                      "name": "memo",
                      "type": "string"
                    },
                    {
                      "internalType": "bool",
                      "name": "tokenSupplyType",
                      "type": "bool"
                    },
                    {
                      "internalType": "int64",
                      "name": "maxSupply",
                      "type": "int64"
                    },
                    {
                      "internalType": "bool",
                      "name": "freezeDefault",
                      "type": "bool"
                    },
                    {
                      "components": [
                        {
                          "internalType": "uint256",
                          "name": "keyType",
                          "type": "uint256"
                        },
                        {
                          "components": [
                            {
                              "internalType": "bool",
                              "name": "inheritAccountKey",
                              "type": "bool"
                            },
                            {
                              "internalType": "address",
                              "name": "contractId",
                              "type": "address"
                            },
                            {
                              "internalType": "bytes",
                              "name": "ed25519",
                              "type": "bytes"
                            },
                            {
                              "internalType": "bytes",
                              "name": "ECDSA_secp256k1",
                              "type": "bytes"
                            },
                            {
                              "internalType": "address",
                              "name": "delegatableContractId",
                              "type": "address"
                            }
                          ],
                          "internalType": "struct IHederaTokenService.KeyValue",
                          "name": "key",
                          "type": "tuple"
                        }
                      ],
                      "internalType": "struct IHederaTokenService.TokenKey[]",
                      "name": "tokenKeys",
                      "type": "tuple[]"
                    },
                    {
                      "components": [
                        {
                          "internalType": "int64",
                          "name": "second",
                          "type": "int64"
                        },
                        {
                          "internalType": "address",
                          "name": "autoRenewAccount",
                          "type": "address"
                        },
                        {
                          "internalType": "int64",
                          "name": "autoRenewPeriod",
                          "type": "int64"
                        }
                      ],
                      "internalType": "struct IHederaTokenService.Expiry",
                      "name": "expiry",
                      "type": "tuple"
                    }
                  ],
                  "internalType": "struct IHederaTokenService.HederaToken",
                  "name": "token",
                  "type": "tuple"
                },
                {
                  "internalType": "int64",
                  "name": "totalSupply",
                  "type": "int64"
                },
                {
                  "internalType": "bool",
                  "name": "deleted",
                  "type": "bool"
                },
                {
                  "internalType": "bool",
                  "name": "defaultKycStatus",
                  "type": "bool"
                },
                {
                  "internalType": "bool",
                  "name": "pauseStatus",
                  "type": "bool"
                },
                {
                  "components": [
                    {
                      "internalType": "int64",
                      "name": "amount",
                      "type": "int64"
                    },
                    {
                      "internalType": "address",
                      "name": "tokenId",
                      "type": "address"
                    },
                    {
                      "internalType": "bool",
                      "name": "useHbarsForPayment",
                      "type": "bool"
                    },
                    {
                      "internalType": "bool",
                      "name": "useCurrentTokenForPayment",
                      "type": "bool"
                    },
                    {
                      "internalType": "address",
                      "name": "feeCollector",
                      "type": "address"
                    }
                  ],
                  "internalType": "struct IHederaTokenService.FixedFee[]",
                  "name": "fixedFees",
                  "type": "tuple[]"
                },
                {
                  "components": [
                    {
                      "internalType": "int64",
                      "name": "numerator",
                      "type": "int64"
                    },
                    {
                      "internalType": "int64",
                      "name": "denominator",
                      "type": "int64"
                    },
                    {
                      "internalType": "int64",
                      "name": "minimumAmount",
                      "type": "int64"
                    },
                    {
                      "internalType": "int64",
                      "name": "maximumAmount",
                      "type": "int64"
                    },
                    {
                      "internalType": "bool",
                      "name": "netOfTransfers",
                      "type": "bool"
                    },
                    {
                      "internalType": "address",
                      "name": "feeCollector",
                      "type": "address"
                    }
                  ],
                  "internalType": "struct IHederaTokenService.FractionalFee[]",
                  "name": "fractionalFees",
                  "type": "tuple[]"
                },
                {
                  "components": [
                    {
                      "internalType": "int64",
                      "name": "numerator",
                      "type": "int64"
                    },
                    {
                      "internalType": "int64",
                      "name": "denominator",
                      "type": "int64"
                    },
                    {
                      "internalType": "int64",
                      "name": "amount",
                      "type": "int64"
                    },
                    {
                      "internalType": "address",
                      "name": "tokenId",
                      "type": "address"
                    },
                    {
                      "internalType": "bool",
                      "name": "useHbarsForPayment",
                      "type": "bool"
                    },
                    {
                      "internalType": "address",
                      "name": "feeCollector",
                      "type": "address"
                    }
                  ],
                  "internalType": "struct IHederaTokenService.RoyaltyFee[]",
                  "name": "royaltyFees",
                  "type": "tuple[]"
                },
                {
                  "internalType": "string",
                  "name": "ledgerId",
                  "type": "string"
                }
              ],
              "internalType": "struct IHederaTokenService.TokenInfo",
              "name": "tokenInfo",
              "type": "tuple"
            },
            {
              "internalType": "int64",
              "name": "serialNumber",
              "type": "int64"
            },
            {
              "internalType": "address",
              "name": "ownerId",
              "type": "address"
            },
            {
              "internalType": "int64",
              "name": "creationTime",
              "type": "int64"
            },
            {
              "internalType": "bytes",
              "name": "metadata",
              "type": "bytes"
            },
            {
              "internalType": "address",
              "name": "spenderId",
              "type": "address"
            }
          ],
          "internalType": "struct IHederaTokenService.NonFungibleTokenInfo",
          "name": "nonFungibleTokenInfo",
          "type": "tuple"
        }
      ],
      "stateMutability": "view",
      "type": "function"
    },
    {
      "inputs": [
        {
          "internalType": "address",
          "name": "token",
          "type": "address"
        }
      ],
      "name": "getTokenCustomFees",
      "outputs": [
        {
          "internalType": "int64",
          "name": "responseCode",
          "type": "int64"
        },
        {
          "components": [
            {
              "internalType": "int64",
              "name": "amount",
              "type": "int64"
            },
            {
              "internalType": "address",
              "name": "tokenId",
              "type": "address"
            },
            {
              "internalType": "bool",
              "name": "useHbarsForPayment",
              "type": "bool"
            },
            {
              "internalType": "bool",
              "name": "useCurrentTokenForPayment",
              "type": "bool"
            },
            {
              "internalType": "address",
              "name": "feeCollector",
              "type": "address"
            }
          ],
          "internalType": "struct IHederaTokenService.FixedFee[]",
          "name": "fixedFees",
          "type": "tuple[]"
        },
        {
          "components": [
            {
              "internalType": "int64",
              "name": "numerator",
              "type": "int64"
            },
            {
              "internalType": "int64",
              "name": "denominator",
              "type": "int64"
            },
            {
              "internalType": "int64",
              "name": "minimumAmount",
              "type": "int64"
            },
            {
              "internalType": "int64",
              "name": "maximumAmount",
              "type": "int64"
            },
            {
              "internalType": "bool",
              "name": "netOfTransfers",
              "type": "bool"
            },
            {
              "internalType": "address",
              "name": "feeCollector",
              "type": "address"
            }
          ],
          "internalType": "struct IHederaTokenService.FractionalFee[]",
          "name": "fractionalFees",
          "type": "tuple[]"
        },
        {
          "components": [
            {
              "internalType": "int64",
              "name": "numerator",
              "type": "int64"
            },
            {
              "internalType": "int64",
              "name": "denominator",
              "type": "int64"
            },
            {
              "internalType": "int64",
              "name": "amount",
              "type": "int64"
            },
            {
              "internalType": "address",
              "name": "tokenId",
              "type": "address"
            },
            {
              "internalType": "bool",
              "name": "useHbarsForPayment",
              "type": "bool"
            },
            {
              "internalType": "address",
              "name": "feeCollector",
              "type": "address"
            }
          ],
          "internalType": "struct IHederaTokenService.RoyaltyFee[]",
          "name": "royaltyFees",
          "type": "tuple[]"
        }
      ],
      "stateMutability": "view",
      "type": "function"
    },
    {
      "inputs": [
        {
          "internalType": "address",
          "name": "token",
          "type": "address"
        }
      ],
      "name": "getTokenDefaultFreezeStatus",
      "outputs": [
        {
          "internalType": "int64",
          "name": "responseCode",
          "type": "int64"
        },
        {
          "internalType": "bool",
          "name": "defaultFreezeStatus",
          "type": "bool"
        }
      ],
      "stateMutability": "view",
      "type": "function"
    },
    {
      "inputs": [
        {
          "internalType": "address",
          "name": "token",
          "type": "address"
        }
      ],
      "name": "getTokenDefaultKycStatus",
      "outputs": [
        {
          "internalType": "int64",
          "name": "responseCode",
          "type": "int64"
        },
        {
          "internalType": "bool",
          "name": "defaultKycStatus",
          "type": "bool"
        }
      ],
      "stateMutability": "view",
      "type": "function"
    },
    {
      "inputs": [
        {
          "internalType": "address",
          "name": "token",
          "type": "address"
        }
      ],
      "name": "getTokenExpiryInfo",
      "outputs": [
        {
          "internalType": "int64",
          "name": "responseCode",
          "type": "int64"
        },
        {
          "components": [
            {
              "internalType": "int64",
              "name": "second",
              "type": "int64"
            },
            {
              "internalType": "address",
              "name": "autoRenewAccount",
              "type": "address"
            },
            {
              "internalType": "int64",
              "name": "autoRenewPeriod",
              "type": "int64"
            }
          ],
          "internalType": "struct IHederaTokenService.Expiry",
          "name": "expiry",
          "type": "tuple"
        }
      ],
      "stateMutability": "view",
      "type": "function"
    },
    {
      "inputs": [
        {
          "internalType": "address",
          "name": "token",
          "type": "address"
        }
      ],
      "name": "getTokenInfo",
      "outputs": [
        {
          "internalType": "int64",
          "name": "responseCode",
          "type": "int64"
        },
        {
          "components": [
            {
              "components": [
                {
                  "internalType": "string",
                  "name": "name",
                  "type": "string"
                },
                {
                  "internalType": "string",
                  "name": "symbol",
                  "type": "string"
                },
                {
                  "internalType": "address",
                  "name": "treasury",
                  "type": "address"
                },
                {
                  "internalType": "string",
                  "name": "memo",
                  "type": "string"
                },
                {
                  "internalType": "bool",
                  "name": "tokenSupplyType",
                  "type": "bool"
                },
                {
                  "internalType": "int64",
                  "name": "maxSupply",
                  "type": "int64"
                },
                {
                  "internalType": "bool",
                  "name": "freezeDefault",
                  "type": "bool"
                },
                {
                  "components": [
                    {
                      "internalType": "uint256",
                      "name": "keyType",
                      "type": "uint256"
                    },
                    {
                      "components": [
                        {
                          "internalType": "bool",
                          "name": "inheritAccountKey",
                          "type": "bool"
                        },
                        {
                          "internalType": "address",
                          "name": "contractId",
                          "type": "address"
                        },
                        {
                          "internalType": "bytes",
                          "name": "ed25519",
                          "type": "bytes"
                        },
                        {
                          "internalType": "bytes",
                          "name": "ECDSA_secp256k1",
                          "type": "bytes"
                        },
                        {
                          "internalType": "address",
                          "name": "delegatableContractId",
                          "type": "address"
                        }
                      ],
                      "internalType": "struct IHederaTokenService.KeyValue",
                      "name": "key",
                      "type": "tuple"
                    }
                  ],
                  "internalType": "struct IHederaTokenService.TokenKey[]",
                  "name": "tokenKeys",
                  "type": "tuple[]"
                },
                {
                  "components": [
                    {
                      "internalType": "int64",
                      "name": "second",
                      "type": "int64"
                    },
                    {
                      "internalType": "address",
                      "name": "autoRenewAccount",
                      "type": "address"
                    },
                    {
                      "internalType": "int64",
                      "name": "autoRenewPeriod",
                      "type": "int64"
                    }
                  ],
                  "internalType": "struct IHederaTokenService.Expiry",
                  "name": "expiry",
                  "type": "tuple"
                }
              ],
              "internalType": "struct IHederaTokenService.HederaToken",
              "name": "token",
              "type": "tuple"
            },
            {
              "internalType": "int64",
              "name": "totalSupply",
              "type": "int64"
            },
            {
              "internalType": "bool",
              "name": "deleted",
              "type": "bool"
            },
            {
              "internalType": "bool",
              "name": "defaultKycStatus",
              "type": "bool"
            },
            {
              "internalType": "bool",
              "name": "pauseStatus",
              "type": "bool"
            },
            {
              "components": [
                {
                  "internalType": "int64",
                  "name": "amount",
                  "type": "int64"
                },
                {
                  "internalType": "address",
                  "name": "tokenId",
                  "type": "address"
                },
                {
                  "internalType": "bool",
                  "name": "useHbarsForPayment",
                  "type": "bool"
                },
                {
                  "internalType": "bool",
                  "name": "useCurrentTokenForPayment",
                  "type": "bool"
                },
                {
                  "internalType": "address",
                  "name": "feeCollector",
                  "type": "address"
                }
              ],
              "internalType": "struct IHederaTokenService.FixedFee[]",
              "name": "fixedFees",
              "type": "tuple[]"
            },
            {
              "components": [
                {
                  "internalType": "int64",
                  "name": "numerator",
                  "type": "int64"
                },
                {
                  "internalType": "int64",
                  "name": "denominator",
                  "type": "int64"
                },
                {
                  "internalType": "int64",
                  "name": "minimumAmount",
                  "type": "int64"
                },
                {
                  "internalType": "int64",
                  "name": "maximumAmount",
                  "type": "int64"
                },
                {
                  "internalType": "bool",
                  "name": "netOfTransfers",
                  "type": "bool"
                },
                {
                  "internalType": "address",
                  "name": "feeCollector",
                  "type": "address"
                }
              ],
              "internalType": "struct IHederaTokenService.FractionalFee[]",
              "name": "fractionalFees",
              "type": "tuple[]"
            },
            {
              "components": [
                {
                  "internalType": "int64",
                  "name": "numerator",
                  "type": "int64"
                },
                {
                  "internalType": "int64",
                  "name": "denominator",
                  "type": "int64"
                },
                {
                  "internalType": "int64",
                  "name": "amount",
                  "type": "int64"
                },
                {
                  "internalType": "address",
                  "name": "tokenId",
                  "type": "address"
                },
                {
                  "internalType": "bool",
                  "name": "useHbarsForPayment",
                  "type": "bool"
                },
                {
                  "internalType": "address",
                  "name": "feeCollector",
                  "type": "address"
                }
              ],
              "internalType": "struct IHederaTokenService.RoyaltyFee[]",
              "name": "royaltyFees",
              "type": "tuple[]"
            },
            {
              "internalType": "string",
              "name": "ledgerId",
              "type": "string"
            }
          ],
          "internalType": "struct IHederaTokenService.TokenInfo",
          "name": "tokenInfo",
          "type": "tuple"
        }
      ],
      "stateMutability": "view",
      "type": "function"
    },
    {
      "inputs": [
        {
          "internalType": "address",
          "name": "token",
          "type": "address"
        },
        {
          "internalType": "uint256",
          "name": "keyType",
          "type": "uint256"
        }
      ],
      "name": "getTokenKey",
      "outputs": [
        {
          "internalType": "int64",
          "name": "responseCode",
          "type": "int64"
        },
        {
          "components": [
            {
              "internalType": "bool",
              "name": "inheritAccountKey",
              "type": "bool"
            },
            {
              "internalType": "address",
              "name": "contractId",
              "type": "address"
            },
            {
              "internalType": "bytes",
              "name": "ed25519",
              "type": "bytes"
            },
            {
              "internalType": "bytes",
              "name": "ECDSA_secp256k1",
              "type": "bytes"
            },
            {
              "internalType": "address",
              "name": "delegatableContractId",
              "type": "address"
            }
          ],
          "internalType": "struct IHederaTokenService.KeyValue",
          "name": "key",
          "type": "tuple"
        }
      ],
      "stateMutability": "view",
      "type": "function"
    },
    {
      "inputs": [
        {
          "internalType": "address",
          "name": "token",
          "type": "address"
        }
      ],
      "name": "getTokenType",
      "outputs": [
        {
          "internalType": "int64",
          "name": "responseCode",
          "type": "int64"
        },
        {
          "internalType": "int32",
          "name": "tokenType",
          "type": "int32"
        }
      ],
      "stateMutability": "view",
      "type": "function"
    },
    {
      "inputs": [
        {
          "internalType": "address",
          "name": "token",
          "type": "address"
        }
      ],
      "name": "getTreasuryAccount",
      "outputs": [
        {
          "internalType": "address",
          "name": "treasury",
          "type": "address"
        }
      ],
      "stateMutability": "view",
      "type": "function"
    },
    {
      "inputs": [
        {
          "internalType": "address",
          "name": "token",
          "type": "address"
        },
        {
          "internalType": "address",
          "name": "account",
          "type": "address"
        }
      ],
      "name": "grantTokenKyc",
      "outputs": [
        {
          "internalType": "int64",
          "name": "responseCode",
          "type": "int64"
        }
      ],
      "stateMutability": "nonpayable",
      "type": "function"
    },
    {
      "inputs": [
        {
          "internalType": "address",
          "name": "token",
          "type": "address"
        },
        {
          "internalType": "address",
          "name": "owner",
          "type": "address"
        },
        {
          "internalType": "address",
          "name": "operator",
          "type": "address"
        }
      ],
      "name": "isApprovedForAll",
      "outputs": [
        {
          "internalType": "int64",
          "name": "responseCode",
          "type": "int64"
        },
        {
          "internalType": "bool",
          "name": "approved",
          "type": "bool"
        }
      ],
      "stateMutability": "view",
      "type": "function"
    },
    {
      "inputs": [
        {
          "internalType": "address",
          "name": "account",
          "type": "address"
        },
        {
          "internalType": "address",
          "name": "token",
          "type": "address"
        }
      ],
      "name": "isAssociated",
      "outputs": [
        {
          "internalType": "bool",
          "name": "associated",
          "type": "bool"
        }
      ],
      "stateMutability": "view",
      "type": "function"
    },
    {
      "inputs": [
        {
          "internalType": "address",
          "name": "token",
          "type": "address"
        },
        {
          "internalType": "address",
          "name": "account",
          "type": "address"
        }
      ],
      "name": "isFrozen",
      "outputs": [
        {
          "internalType": "int64",
          "name": "responseCode",
          "type": "int64"
        },
        {
          "internalType": "bool",
          "name": "frozen",
          "type": "bool"
        }
      ],
      "stateMutability": "view",
      "type": "function"
    },
    {
      "inputs": [
        {
          "internalType": "address",
          "name": "token",
          "type": "address"
        },
        {
          "internalType": "address",
          "name": "account",
          "type": "address"
        }
      ],
      "name": "isKyc",
      "outputs": [
        {
          "internalType": "int64",
          "name": "responseCode",
          "type": "int64"
        },
        {
          "internalType": "bool",
          "name": "kycGranted",
          "type": "bool"
        }
      ],
      "stateMutability": "view",
      "type": "function"
    },
    {
      "inputs": [
        {
          "internalType": "address",
          "name": "token",
          "type": "address"
        }
      ],
      "name": "isToken",
      "outputs": [
        {
          "internalType": "int64",
          "name": "responseCode",
          "type": "int64"
        },
        {
          "internalType": "bool",
          "name": "isToken",
          "type": "bool"
        }
      ],
      "stateMutability": "view",
      "type": "function"
    },
    {
      "inputs": [
        {
          "internalType": "address",
          "name": "token",
          "type": "address"
        },
        {
          "internalType": "int64",
          "name": "amount",
          "type": "int64"
        },
        {
          "internalType": "bytes[]",
          "name": "metadata",
          "type": "bytes[]"
        }
      ],
      "name": "mintToken",
      "outputs": [
        {
          "internalType": "int64",
          "name": "responseCode",
          "type": "int64"
        },
        {
          "internalType": "int64",
          "name": "newTotalSupply",
          "type": "int64"
        },
        {
          "internalType": "int64[]",
          "name": "serialNumbers",
          "type": "int64[]"
        }
      ],
      "stateMutability": "nonpayable",
      "type": "function"
    },
    {
      "inputs": [
        {
          "internalType": "address",
          "name": "token",
          "type": "address"
        }
      ],
      "name": "pauseToken",
      "outputs": [
        {
          "internalType": "int64",
          "name": "responseCode",
          "type": "int64"
        }
      ],
      "stateMutability": "nonpayable",
      "type": "function"
    },
    {
      "inputs": [
        {
          "internalType": "address",
          "name": "sender",
          "type": "address"
        },
        {
          "internalType": "address",
          "name": "spender",
          "type": "address"
        },
        {
          "internalType": "uint256",
          "name": "amountOrSerialNumber",
          "type": "uint256"
        }
      ],
      "name": "preApprove",
      "outputs": [
        {
          "internalType": "int64",
          "name": "responseCode",
          "type": "int64"
        }
      ],
      "stateMutability": "nonpayable",
      "type": "function"
    },
    {
      "inputs": [
        {
          "internalType": "int64",
          "name": "amount",
          "type": "int64"
        },
        {
          "internalType": "int64[]",
          "name": "serialNumbers",
          "type": "int64[]"
        }
      ],
      "name": "preBurn",
      "outputs": [
        {
          "internalType": "int64",
          "name": "responseCode",
          "type": "int64"
        }
      ],
      "stateMutability": "nonpayable",
      "type": "function"
    },
    {
      "inputs": [
        {
          "internalType": "address",
          "name": "token",
          "type": "address"
        },
        {
          "internalType": "int64",
          "name": "amount",
          "type": "int64"
        },
        {
          "internalType": "bytes[]",
          "name": "metadata",
          "type": "bytes[]"
        }
      ],
      "name": "preMint",
      "outputs": [
        {
          "internalType": "int64",
          "name": "responseCode",
          "type": "int64"
        }
      ],
      "stateMutability": "nonpayable",
      "type": "function"
    },
    {
      "inputs": [
        {
          "internalType": "address",
          "name": "sender",
          "type": "address"
        },
        {
          "internalType": "address",
          "name": "operator",
          "type": "address"
        },
        {
          "internalType": "bool",
          "name": "approved",
          "type": "bool"
        }
      ],
      "name": "preSetApprovalForAll",
      "outputs": [
        {
          "internalType": "int64",
          "name": "responseCode",
          "type": "int64"
        }
      ],
      "stateMutability": "nonpayable",
      "type": "function"
    },
    {
      "inputs": [
        {
          "internalType": "address",
          "name": "spender",
          "type": "address"
        },
        {
          "internalType": "address",
          "name": "from",
          "type": "address"
        },
        {
          "internalType": "address",
          "name": "to",
          "type": "address"
        },
        {
          "internalType": "uint256",
          "name": "amountOrSerialNumber",
          "type": "uint256"
        }
      ],
      "name": "preTransfer",
      "outputs": [
        {
          "internalType": "int64",
          "name": "responseCode",
          "type": "int64"
        }
      ],
      "stateMutability": "nonpayable",
      "type": "function"
    },
    {
      "inputs": [
        {
          "internalType": "address",
          "name": "token",
          "type": "address"
        },
        {
          "internalType": "bytes",
          "name": "encodedFunctionSelector",
          "type": "bytes"
        }
      ],
      "name": "redirectForToken",
      "outputs": [],
      "stateMutability": "nonpayable",
      "type": "function"
    },
    {
      "inputs": [
        {
          "internalType": "address",
          "name": "caller",
          "type": "address"
        },
        {
          "components": [
            {
              "components": [
                {
                  "components": [
                    {
                      "internalType": "string",
                      "name": "name",
                      "type": "string"
                    },
                    {
                      "internalType": "string",
                      "name": "symbol",
                      "type": "string"
                    },
                    {
                      "internalType": "address",
                      "name": "treasury",
                      "type": "address"
                    },
                    {
                      "internalType": "string",
                      "name": "memo",
                      "type": "string"
                    },
                    {
                      "internalType": "bool",
                      "name": "tokenSupplyType",
                      "type": "bool"
                    },
                    {
                      "internalType": "int64",
                      "name": "maxSupply",
                      "type": "int64"
                    },
                    {
                      "internalType": "bool",
                      "name": "freezeDefault",
                      "type": "bool"
                    },
                    {
                      "components": [
                        {
                          "internalType": "uint256",
                          "name": "keyType",
                          "type": "uint256"
                        },
                        {
                          "components": [
                            {
                              "internalType": "bool",
                              "name": "inheritAccountKey",
                              "type": "bool"
                            },
                            {
                              "internalType": "address",
                              "name": "contractId",
                              "type": "address"
                            },
                            {
                              "internalType": "bytes",
                              "name": "ed25519",
                              "type": "bytes"
                            },
                            {
                              "internalType": "bytes",
                              "name": "ECDSA_secp256k1",
                              "type": "bytes"
                            },
                            {
                              "internalType": "address",
                              "name": "delegatableContractId",
                              "type": "address"
                            }
                          ],
                          "internalType": "struct IHederaTokenService.KeyValue",
                          "name": "key",
                          "type": "tuple"
                        }
                      ],
                      "internalType": "struct IHederaTokenService.TokenKey[]",
                      "name": "tokenKeys",
                      "type": "tuple[]"
                    },
                    {
                      "components": [
                        {
                          "internalType": "int64",
                          "name": "second",
                          "type": "int64"
                        },
                        {
                          "internalType": "address",
                          "name": "autoRenewAccount",
                          "type": "address"
                        },
                        {
                          "internalType": "int64",
                          "name": "autoRenewPeriod",
                          "type": "int64"
                        }
                      ],
                      "internalType": "struct IHederaTokenService.Expiry",
                      "name": "expiry",
                      "type": "tuple"
                    }
                  ],
                  "internalType": "struct IHederaTokenService.HederaToken",
                  "name": "token",
                  "type": "tuple"
                },
                {
                  "internalType": "int64",
                  "name": "totalSupply",
                  "type": "int64"
                },
                {
                  "internalType": "bool",
                  "name": "deleted",
                  "type": "bool"
                },
                {
                  "internalType": "bool",
                  "name": "defaultKycStatus",
                  "type": "bool"
                },
                {
                  "internalType": "bool",
                  "name": "pauseStatus",
                  "type": "bool"
                },
                {
                  "components": [
                    {
                      "internalType": "int64",
                      "name": "amount",
                      "type": "int64"
                    },
                    {
                      "internalType": "address",
                      "name": "tokenId",
                      "type": "address"
                    },
                    {
                      "internalType": "bool",
                      "name": "useHbarsForPayment",
                      "type": "bool"
                    },
                    {
                      "internalType": "bool",
                      "name": "useCurrentTokenForPayment",
                      "type": "bool"
                    },
                    {
                      "internalType": "address",
                      "name": "feeCollector",
                      "type": "address"
                    }
                  ],
                  "internalType": "struct IHederaTokenService.FixedFee[]",
                  "name": "fixedFees",
                  "type": "tuple[]"
                },
                {
                  "components": [
                    {
                      "internalType": "int64",
                      "name": "numerator",
                      "type": "int64"
                    },
                    {
                      "internalType": "int64",
                      "name": "denominator",
                      "type": "int64"
                    },
                    {
                      "internalType": "int64",
                      "name": "minimumAmount",
                      "type": "int64"
                    },
                    {
                      "internalType": "int64",
                      "name": "maximumAmount",
                      "type": "int64"
                    },
                    {
                      "internalType": "bool",
                      "name": "netOfTransfers",
                      "type": "bool"
                    },
                    {
                      "internalType": "address",
                      "name": "feeCollector",
                      "type": "address"
                    }
                  ],
                  "internalType": "struct IHederaTokenService.FractionalFee[]",
                  "name": "fractionalFees",
                  "type": "tuple[]"
                },
                {
                  "components": [
                    {
                      "internalType": "int64",
                      "name": "numerator",
                      "type": "int64"
                    },
                    {
                      "internalType": "int64",
                      "name": "denominator",
                      "type": "int64"
                    },
                    {
                      "internalType": "int64",
                      "name": "amount",
                      "type": "int64"
                    },
                    {
                      "internalType": "address",
                      "name": "tokenId",
                      "type": "address"
                    },
                    {
                      "internalType": "bool",
                      "name": "useHbarsForPayment",
                      "type": "bool"
                    },
                    {
                      "internalType": "address",
                      "name": "feeCollector",
                      "type": "address"
                    }
                  ],
                  "internalType": "struct IHederaTokenService.RoyaltyFee[]",
                  "name": "royaltyFees",
                  "type": "tuple[]"
                },
                {
                  "internalType": "string",
                  "name": "ledgerId",
                  "type": "string"
                }
              ],
              "internalType": "struct IHederaTokenService.TokenInfo",
              "name": "tokenInfo",
              "type": "tuple"
            },
            {
              "internalType": "int32",
              "name": "decimals",
              "type": "int32"
            }
          ],
          "internalType": "struct IHederaTokenService.FungibleTokenInfo",
          "name": "fungibleTokenInfo",
          "type": "tuple"
        }
      ],
      "name": "registerHederaFungibleToken",
      "outputs": [],
      "stateMutability": "nonpayable",
      "type": "function"
    },
    {
      "inputs": [
        {
          "internalType": "address",
          "name": "caller",
          "type": "address"
        },
        {
          "components": [
            {
              "components": [
                {
                  "internalType": "string",
                  "name": "name",
                  "type": "string"
                },
                {
                  "internalType": "string",
                  "name": "symbol",
                  "type": "string"
                },
                {
                  "internalType": "address",
                  "name": "treasury",
                  "type": "address"
                },
                {
                  "internalType": "string",
                  "name": "memo",
                  "type": "string"
                },
                {
                  "internalType": "bool",
                  "name": "tokenSupplyType",
                  "type": "bool"
                },
                {
                  "internalType": "int64",
                  "name": "maxSupply",
                  "type": "int64"
                },
                {
                  "internalType": "bool",
                  "name": "freezeDefault",
                  "type": "bool"
                },
                {
                  "components": [
                    {
                      "internalType": "uint256",
                      "name": "keyType",
                      "type": "uint256"
                    },
                    {
                      "components": [
                        {
                          "internalType": "bool",
                          "name": "inheritAccountKey",
                          "type": "bool"
                        },
                        {
                          "internalType": "address",
                          "name": "contractId",
                          "type": "address"
                        },
                        {
                          "internalType": "bytes",
                          "name": "ed25519",
                          "type": "bytes"
                        },
                        {
                          "internalType": "bytes",
                          "name": "ECDSA_secp256k1",
                          "type": "bytes"
                        },
                        {
                          "internalType": "address",
                          "name": "delegatableContractId",
                          "type": "address"
                        }
                      ],
                      "internalType": "struct IHederaTokenService.KeyValue",
                      "name": "key",
                      "type": "tuple"
                    }
                  ],
                  "internalType": "struct IHederaTokenService.TokenKey[]",
                  "name": "tokenKeys",
                  "type": "tuple[]"
                },
                {
                  "components": [
                    {
                      "internalType": "int64",
                      "name": "second",
                      "type": "int64"
                    },
                    {
                      "internalType": "address",
                      "name": "autoRenewAccount",
                      "type": "address"
                    },
                    {
                      "internalType": "int64",
                      "name": "autoRenewPeriod",
                      "type": "int64"
                    }
                  ],
                  "internalType": "struct IHederaTokenService.Expiry",
                  "name": "expiry",
                  "type": "tuple"
                }
              ],
              "internalType": "struct IHederaTokenService.HederaToken",
              "name": "token",
              "type": "tuple"
            },
            {
              "internalType": "int64",
              "name": "totalSupply",
              "type": "int64"
            },
            {
              "internalType": "bool",
              "name": "deleted",
              "type": "bool"
            },
            {
              "internalType": "bool",
              "name": "defaultKycStatus",
              "type": "bool"
            },
            {
              "internalType": "bool",
              "name": "pauseStatus",
              "type": "bool"
            },
            {
              "components": [
                {
                  "internalType": "int64",
                  "name": "amount",
                  "type": "int64"
                },
                {
                  "internalType": "address",
                  "name": "tokenId",
                  "type": "address"
                },
                {
                  "internalType": "bool",
                  "name": "useHbarsForPayment",
                  "type": "bool"
                },
                {
                  "internalType": "bool",
                  "name": "useCurrentTokenForPayment",
                  "type": "bool"
                },
                {
                  "internalType": "address",
                  "name": "feeCollector",
                  "type": "address"
                }
              ],
              "internalType": "struct IHederaTokenService.FixedFee[]",
              "name": "fixedFees",
              "type": "tuple[]"
            },
            {
              "components": [
                {
                  "internalType": "int64",
                  "name": "numerator",
                  "type": "int64"
                },
                {
                  "internalType": "int64",
                  "name": "denominator",
                  "type": "int64"
                },
                {
                  "internalType": "int64",
                  "name": "minimumAmount",
                  "type": "int64"
                },
                {
                  "internalType": "int64",
                  "name": "maximumAmount",
                  "type": "int64"
                },
                {
                  "internalType": "bool",
                  "name": "netOfTransfers",
                  "type": "bool"
                },
                {
                  "internalType": "address",
                  "name": "feeCollector",
                  "type": "address"
                }
              ],
              "internalType": "struct IHederaTokenService.FractionalFee[]",
              "name": "fractionalFees",
              "type": "tuple[]"
            },
            {
              "components": [
                {
                  "internalType": "int64",
                  "name": "numerator",
                  "type": "int64"
                },
                {
                  "internalType": "int64",
                  "name": "denominator",
                  "type": "int64"
                },
                {
                  "internalType": "int64",
                  "name": "amount",
                  "type": "int64"
                },
                {
                  "internalType": "address",
                  "name": "tokenId",
                  "type": "address"
                },
                {
                  "internalType": "bool",
                  "name": "useHbarsForPayment",
                  "type": "bool"
                },
                {
                  "internalType": "address",
                  "name": "feeCollector",
                  "type": "address"
                }
              ],
              "internalType": "struct IHederaTokenService.RoyaltyFee[]",
              "name": "royaltyFees",
              "type": "tuple[]"
            },
            {
              "internalType": "string",
              "name": "ledgerId",
              "type": "string"
            }
          ],
          "internalType": "struct IHederaTokenService.TokenInfo",
          "name": "nftTokenInfo",
          "type": "tuple"
        }
      ],
      "name": "registerHederaNonFungibleToken",
      "outputs": [],
      "stateMutability": "nonpayable",
      "type": "function"
    },
    {
      "inputs": [
        {
          "internalType": "address",
          "name": "token",
          "type": "address"
        },
        {
          "internalType": "address",
          "name": "account",
          "type": "address"
        }
      ],
      "name": "revokeTokenKyc",
      "outputs": [
        {
          "internalType": "int64",
          "name": "responseCode",
          "type": "int64"
        }
      ],
      "stateMutability": "nonpayable",
      "type": "function"
    },
    {
      "inputs": [
        {
          "internalType": "address",
          "name": "token",
          "type": "address"
        },
        {
          "internalType": "address",
          "name": "operator",
          "type": "address"
        },
        {
          "internalType": "bool",
          "name": "approved",
          "type": "bool"
        }
      ],
      "name": "setApprovalForAll",
      "outputs": [
        {
          "internalType": "int64",
          "name": "responseCode",
          "type": "int64"
        }
      ],
      "stateMutability": "nonpayable",
      "type": "function"
    },
    {
      "inputs": [
        {
          "internalType": "address",
          "name": "token",
          "type": "address"
        },
        {
          "internalType": "address",
          "name": "from",
          "type": "address"
        },
        {
          "internalType": "address",
          "name": "to",
          "type": "address"
        },
        {
          "internalType": "uint256",
          "name": "amount",
          "type": "uint256"
        }
      ],
      "name": "transferFrom",
      "outputs": [
        {
          "internalType": "int64",
          "name": "responseCode",
          "type": "int64"
        }
      ],
      "stateMutability": "nonpayable",
      "type": "function"
    },
    {
      "inputs": [
        {
          "internalType": "address",
          "name": "token",
          "type": "address"
        },
        {
          "internalType": "address",
          "name": "from",
          "type": "address"
        },
        {
          "internalType": "address",
          "name": "to",
          "type": "address"
        },
        {
          "internalType": "uint256",
          "name": "serialNumber",
          "type": "uint256"
        }
      ],
      "name": "transferFromNFT",
      "outputs": [
        {
          "internalType": "int64",
          "name": "responseCode",
          "type": "int64"
        }
      ],
      "stateMutability": "nonpayable",
      "type": "function"
    },
    {
      "inputs": [
        {
          "internalType": "address",
          "name": "token",
          "type": "address"
        },
        {
          "internalType": "address",
          "name": "sender",
          "type": "address"
        },
        {
          "internalType": "address",
          "name": "recipient",
          "type": "address"
        },
        {
          "internalType": "int64",
          "name": "serialNumber",
          "type": "int64"
        }
      ],
      "name": "transferNFT",
      "outputs": [
        {
          "internalType": "int64",
          "name": "responseCode",
          "type": "int64"
        }
      ],
      "stateMutability": "nonpayable",
      "type": "function"
    },
    {
      "inputs": [
        {
          "internalType": "address",
          "name": "token",
          "type": "address"
        },
        {
          "internalType": "address[]",
          "name": "sender",
          "type": "address[]"
        },
        {
          "internalType": "address[]",
          "name": "receiver",
          "type": "address[]"
        },
        {
          "internalType": "int64[]",
          "name": "serialNumber",
          "type": "int64[]"
        }
      ],
      "name": "transferNFTs",
      "outputs": [
        {
          "internalType": "int64",
          "name": "responseCode",
          "type": "int64"
        }
      ],
      "stateMutability": "nonpayable",
      "type": "function"
    },
    {
      "inputs": [
        {
          "internalType": "address",
          "name": "token",
          "type": "address"
        },
        {
          "internalType": "address",
          "name": "sender",
          "type": "address"
        },
        {
          "internalType": "address",
          "name": "recipient",
          "type": "address"
        },
        {
          "internalType": "int64",
          "name": "amount",
          "type": "int64"
        }
      ],
      "name": "transferToken",
      "outputs": [
        {
          "internalType": "int64",
          "name": "responseCode",
          "type": "int64"
        }
      ],
      "stateMutability": "nonpayable",
      "type": "function"
    },
    {
      "inputs": [
        {
          "internalType": "address",
          "name": "token",
          "type": "address"
        },
        {
          "internalType": "address[]",
          "name": "accountId",
          "type": "address[]"
        },
        {
          "internalType": "int64[]",
          "name": "amount",
          "type": "int64[]"
        }
      ],
      "name": "transferTokens",
      "outputs": [
        {
          "internalType": "int64",
          "name": "responseCode",
          "type": "int64"
        }
      ],
      "stateMutability": "nonpayable",
      "type": "function"
    },
    {
      "inputs": [
        {
          "internalType": "address",
          "name": "token",
          "type": "address"
        },
        {
          "internalType": "address",
          "name": "account",
          "type": "address"
        }
      ],
      "name": "unfreezeToken",
      "outputs": [
        {
          "internalType": "int64",
          "name": "responseCode",
          "type": "int64"
        }
      ],
      "stateMutability": "nonpayable",
      "type": "function"
    },
    {
      "inputs": [
        {
          "internalType": "address",
          "name": "token",
          "type": "address"
        }
      ],
      "name": "unpauseToken",
      "outputs": [
        {
          "internalType": "int64",
          "name": "responseCode",
          "type": "int64"
        }
      ],
      "stateMutability": "nonpayable",
      "type": "function"
    },
    {
      "inputs": [
        {
          "internalType": "address",
          "name": "token",
          "type": "address"
        },
        {
          "components": [
            {
              "internalType": "int64",
              "name": "second",
              "type": "int64"
            },
            {
              "internalType": "address",
              "name": "autoRenewAccount",
              "type": "address"
            },
            {
              "internalType": "int64",
              "name": "autoRenewPeriod",
              "type": "int64"
            }
          ],
          "internalType": "struct IHederaTokenService.Expiry",
          "name": "expiryInfo",
          "type": "tuple"
        }
      ],
      "name": "updateTokenExpiryInfo",
      "outputs": [
        {
          "internalType": "int64",
          "name": "responseCode",
          "type": "int64"
        }
      ],
      "stateMutability": "nonpayable",
      "type": "function"
    },
    {
      "inputs": [
        {
          "internalType": "address",
          "name": "token",
          "type": "address"
        },
        {
          "components": [
            {
              "internalType": "string",
              "name": "name",
              "type": "string"
            },
            {
              "internalType": "string",
              "name": "symbol",
              "type": "string"
            },
            {
              "internalType": "address",
              "name": "treasury",
              "type": "address"
            },
            {
              "internalType": "string",
              "name": "memo",
              "type": "string"
            },
            {
              "internalType": "bool",
              "name": "tokenSupplyType",
              "type": "bool"
            },
            {
              "internalType": "int64",
              "name": "maxSupply",
              "type": "int64"
            },
            {
              "internalType": "bool",
              "name": "freezeDefault",
              "type": "bool"
            },
            {
              "components": [
                {
                  "internalType": "uint256",
                  "name": "keyType",
                  "type": "uint256"
                },
                {
                  "components": [
                    {
                      "internalType": "bool",
                      "name": "inheritAccountKey",
                      "type": "bool"
                    },
                    {
                      "internalType": "address",
                      "name": "contractId",
                      "type": "address"
                    },
                    {
                      "internalType": "bytes",
                      "name": "ed25519",
                      "type": "bytes"
                    },
                    {
                      "internalType": "bytes",
                      "name": "ECDSA_secp256k1",
                      "type": "bytes"
                    },
                    {
                      "internalType": "address",
                      "name": "delegatableContractId",
                      "type": "address"
                    }
                  ],
                  "internalType": "struct IHederaTokenService.KeyValue",
                  "name": "key",
                  "type": "tuple"
                }
              ],
              "internalType": "struct IHederaTokenService.TokenKey[]",
              "name": "tokenKeys",
              "type": "tuple[]"
            },
            {
              "components": [
                {
                  "internalType": "int64",
                  "name": "second",
                  "type": "int64"
                },
                {
                  "internalType": "address",
                  "name": "autoRenewAccount",
                  "type": "address"
                },
                {
                  "internalType": "int64",
                  "name": "autoRenewPeriod",
                  "type": "int64"
                }
              ],
              "internalType": "struct IHederaTokenService.Expiry",
              "name": "expiry",
              "type": "tuple"
            }
          ],
          "internalType": "struct IHederaTokenService.HederaToken",
          "name": "tokenInfo",
          "type": "tuple"
        }
      ],
      "name": "updateTokenInfo",
      "outputs": [
        {
          "internalType": "int64",
          "name": "responseCode",
          "type": "int64"
        }
      ],
      "stateMutability": "nonpayable",
      "type": "function"
    },
    {
      "inputs": [
        {
          "internalType": "address",
          "name": "token",
          "type": "address"
        },
        {
          "components": [
            {
              "internalType": "uint256",
              "name": "keyType",
              "type": "uint256"
            },
            {
              "components": [
                {
                  "internalType": "bool",
                  "name": "inheritAccountKey",
                  "type": "bool"
                },
                {
                  "internalType": "address",
                  "name": "contractId",
                  "type": "address"
                },
                {
                  "internalType": "bytes",
                  "name": "ed25519",
                  "type": "bytes"
                },
                {
                  "internalType": "bytes",
                  "name": "ECDSA_secp256k1",
                  "type": "bytes"
                },
                {
                  "internalType": "address",
                  "name": "delegatableContractId",
                  "type": "address"
                }
              ],
              "internalType": "struct IHederaTokenService.KeyValue",
              "name": "key",
              "type": "tuple"
            }
          ],
          "internalType": "struct IHederaTokenService.TokenKey[]",
          "name": "keys",
          "type": "tuple[]"
        }
      ],
      "name": "updateTokenKeys",
      "outputs": [
        {
          "internalType": "int64",
          "name": "responseCode",
          "type": "int64"
        }
      ],
      "stateMutability": "nonpayable",
      "type": "function"
    },
    {
      "inputs": [
        {
          "internalType": "address",
          "name": "token",
          "type": "address"
        },
        {
          "internalType": "address",
          "name": "account",
          "type": "address"
        },
        {
          "internalType": "int64",
          "name": "amount",
          "type": "int64"
        }
      ],
      "name": "wipeTokenAccount",
      "outputs": [
        {
          "internalType": "int64",
          "name": "responseCode",
          "type": "int64"
        }
      ],
      "stateMutability": "nonpayable",
      "type": "function"
    },
    {
      "inputs": [
        {
          "internalType": "address",
          "name": "token",
          "type": "address"
        },
        {
          "internalType": "address",
          "name": "account",
          "type": "address"
        },
        {
          "internalType": "int64[]",
          "name": "serialNumbers",
          "type": "int64[]"
        }
      ],
      "name": "wipeTokenAccountNFT",
      "outputs": [
        {
          "internalType": "int64",
          "name": "responseCode",
          "type": "int64"
        }
      ],
      "stateMutability": "nonpayable",
      "type": "function"
    }
  ],
  "bytecode": "0x60a06040523480156200001157600080fd5b50610167608052600160208181527fa6eef7e35abe7026729641147f7915573c7e97b47efa546f5f6e3230263bcb499190915560027fcc69885fda6bcc1a4ace058b4a62bf5e179ea78fd58a1ccd71c22cc9b688792f5560047fd9d16d34ffb15ba3a3d852f0d403e2ce1d691fb54de27ac87cd2f993f3ec330f5560087f7dfe757ecd65cbd7922a9c0161e935dd7fdbcc0e999689c7d31633896b1fc60b5560107fedc95719e9a3b28dd8e80877cb5880a9be7de1a13fc8b05e7999683b6b567643557fe2689cd4a84e23ad2f564004f1c9013e9589d260bde6380aba3ca7e09e4df40c55600660005260407f8f331abe73332f95a25873e8b430885974c0409691f89d643119a11623a7924a556080516201090e6200013d6000396000616a6b01526201090e6000f3fe608060405260043610620003cb5760003560e01c806378b6391811620001f7578063b6e1a1e21162000117578063e459524911620000ad578063f069f7121162000078578063f069f7121462000696578063f2c31ff41462000c9d578063f49f40db1462000cc2578063f7f38e261462000cec57600080fd5b8063e45952491462000c17578063ea83f2931462000c3c578063eca369171462000c53578063efef57f91462000c7857600080fd5b8063d6910d0611620000ee578063d6910d061462000b57578063da23fff91462000b97578063e0f4059a1462000bbc578063e1f21c671462000bf257600080fd5b8063b6e1a1e21462000ade578063d27be6cd1462000b03578063d614cdb81462000b2257600080fd5b80639b23d3d9116200018d578063a7daa18d1162000164578063a7daa18d1462000a45578063abb54eb51462000a90578063ae7611a01462000aa7578063af99c633146200079457600080fd5b80639b23d3d914620009d6578063a0ecee3314620009fb578063a73aab681462000a2057600080fd5b806382bba49311620001ce57806382bba49314620009095780638f8d7f99146200092e578063927da105146200095357806393272baf146200099357600080fd5b806378b6391814620008c55780637c41ad2c14620006965780637d305cfa14620008ea57600080fd5b8063367605ca11620002ef57806352f913871162000285578063618dc65e1162000250578063618dc65e14620007fd5780636cf9924814620008225780636fc3cbaf14620008815780637336aaf014620008a057600080fd5b806352f913871462000794578063535575b214620007b35780635b8f858414620007945780635cfc901114620007d857600080fd5b80633f28a19b11620002c65780633f28a19b14620006f057806346de0fb1146200072557806349146bde146200074a578063524c3311146200076f57600080fd5b8063367605ca14620006715780633b3bff0f14620006965780633c4dd32e14620006bb57600080fd5b806319f3736111620003655780632af0c59a116200033c5780632af0c59a14620005c55780632c4ba19114620005dc5780632e63879b1462000601578063335e04c1146200062657600080fd5b806319f37361146200051b5780631f69565f146200055b578063287e1da8146200059057600080fd5b80630e71804f11620003a65780630e71804f14620004935780630fb65bf314620004b8578063154a97a014620004cf57806315dacbea14620004f657600080fd5b80630863684b14620003d0578063098f23661462000412578063099794e8146200045a575b600080fd5b348015620003dd57600080fd5b50620003f5620003ef36600462008502565b62000d0b565b6040516001600160a01b0390911681526020015b60405180910390f35b3480156200041f57600080fd5b50620004376200043136600462008522565b62000d1e565b6040805160079390930b83526001600160a01b0390911660208301520162000409565b3480156200046757600080fd5b506200047f6200047936600462008551565b62000da9565b60405160079190910b815260200162000409565b348015620004a057600080fd5b506200047f620004b236600462008806565b62000e74565b62000437620004c936600462008dfc565b62000e80565b348015620004dc57600080fd5b50620004f4620004ee3660046200925f565b62000f33565b005b3480156200050357600080fd5b506200047f6200051536600462009314565b62000ff6565b3480156200052857600080fd5b50620005406200053a36600462008502565b620010d9565b6040805160079390930b835290151560208301520162000409565b3480156200056857600080fd5b50620005806200057a36600462008502565b62001104565b60405162000409929190620097fd565b3480156200059d57600080fd5b50620005b5620005af3660046200981b565b62002045565b604051620004099291906200984e565b62000437620005d6366004620098e1565b62002910565b348015620005e957600080fd5b506200047f620005fb36600462009a77565b620029d3565b3480156200060e57600080fd5b506200047f6200062036600462009b1d565b62002b00565b3480156200063357600080fd5b50620005406200064536600462008502565b6001600160a01b0316600090815260026020526040902060080154601691600160481b90910460ff1690565b3480156200067e57600080fd5b506200047f6200069036600462009b72565b62002b76565b348015620006a357600080fd5b506200047f620006b536600462008502565b62002c22565b348015620006c857600080fd5b50620006e0620006da36600462008522565b62002c33565b6040516200040992919062009bc4565b348015620006fd57600080fd5b50620007156200070f36600462008502565b62002cb1565b6040516200040992919062009c10565b3480156200073257600080fd5b50620005406200074436600462008551565b62003453565b3480156200075757600080fd5b506200047f6200076936600462008551565b6200443e565b3480156200077c57600080fd5b506200047f6200078e36600462009c2e565b6200450d565b348015620007a157600080fd5b506200047f620004b236600462008551565b348015620007c057600080fd5b506200047f620007d236600462009b72565b62004569565b348015620007e557600080fd5b506200047f620007f736600462009c79565b620045cf565b3480156200080a57600080fd5b50620004f46200081c36600462009cde565b62004706565b3480156200082f57600080fd5b50620008706200084136600462008551565b6001600160a01b0390811660009081526007602090815260408083209490931682529290925290205460ff1690565b604051901515815260200162000409565b3480156200088e57600080fd5b506200047f620004b236600462009d29565b348015620008ad57600080fd5b506200047f620008bf36600462009d74565b62004714565b348015620008d257600080fd5b506200047f620008e436600462009b1d565b620047f9565b348015620008f757600080fd5b506200047f620004b236600462009dba565b3480156200091657600080fd5b506200047f6200092836600462009e05565b6200486b565b3480156200093b57600080fd5b506200047f6200094d36600462008551565b62004969565b3480156200096057600080fd5b50620009786200097236600462009e83565b62004a67565b6040805160079390930b835260208301919091520162000409565b348015620009a057600080fd5b50620009b8620009b236600462008502565b62004b29565b6040805160079390930b835260039190910b60208301520162000409565b348015620009e357600080fd5b506200047f620009f536600462009314565b62004b92565b34801562000a0857600080fd5b506200047f62000a1a36600462009314565b62004cbb565b34801562000a2d57600080fd5b506200047f62000a3f36600462009eca565b62004d24565b34801562000a5257600080fd5b506200054062000a6436600462008502565b6001600160a01b0316600090815260026020526040902060040154601691600160481b90910460ff1690565b6200043762000aa136600462009fb1565b62004d80565b34801562000ab457600080fd5b5062000acc62000ac636600462008502565b62004e1b565b6040516200040994939291906200a038565b34801562000aeb57600080fd5b50620003f562000afd3660046200a08b565b62005089565b34801562000b1057600080fd5b506200047f620004b23660046200a0c1565b34801562000b2f57600080fd5b5062000b4762000b4136600462008502565b620050c5565b604051620004099291906200a0f3565b34801562000b6457600080fd5b5062000b7c62000b763660046200a132565b620051c5565b60408051600793840b81529190920b60208201520162000409565b34801562000ba457600080fd5b50620004f462000bb63660046200a191565b62005414565b34801562000bc957600080fd5b5062000be162000bdb36600462009eca565b620054b3565b60405162000409939291906200a211565b34801562000bff57600080fd5b506200047f62000c1136600462009d74565b620057c9565b34801562000c2457600080fd5b506200047f62000c3636600462009d74565b62005838565b6200043762000c4d3660046200a238565b62005895565b34801562000c6057600080fd5b506200047f62000c7236600462009c79565b6200591f565b34801562000c8557600080fd5b506200047f62000c973660046200a270565b62005a07565b34801562000caa57600080fd5b506200054062000cbc36600462008551565b62005a13565b34801562000ccf57600080fd5b506200054062000ce136600462009e83565b600080935093915050565b34801562000cf957600080fd5b506200047f62000c973660046200a2b7565b600062000d1882620069f9565b92915050565b60405163020604bf60e21b8152600481018290526016906000906001600160a01b0385169063081812fc9060240160206040518083038186803b15801562000d6557600080fd5b505afa15801562000d7a573d6000803e3d6000fd5b505050506040513d601f19601f8201168201806040525081019062000da091906200a2ec565b90509250929050565b600062000db562006a60565b6001600160a01b03821660009081526003602052604090205460ff1615801562000df857506001600160a01b03821660009081526006602052604090205460ff16155b1562000e07575060a762000d18565b6001600160a01b0380831660009081526007602090815260408083209387168352929052205460ff1662000e3e575060b862000d18565b506001600160a01b038082166000908152600760209081526040808320938616835292905220805460ff19169055601692915050565b600062000d1862006a60565b60008062000e8d62006a60565b62000e9b3386868662006adc565b9150600782900b60161462000eb35750600062000f2b565b62000ebd62008304565b62000ec762008326565b868152600786900b602080830191909152600386900b90830152808252604051600090839062000ef790620083dd565b62000f0391906200a30c565b604051809103906000f08015801562000f20573d6000803e3d6000fd5b506016955093505050505b935093915050565b6001600160a01b03821630141560008162000f5057601662000f6c565b825180516020918201519185015162000f6c9287929162006adc565b9050600781900b60161462000fba5760405162461bcd60e51b815260206004820152600f60248201526e14149150d21150d2d7d19052531151608a1b60448201526064015b60405180910390fd5b336000818152600360205260408120805460ff1916600117905562000fdf8562006d84565b905062000fed81836200443e565b50505050505050565b60006200100262006a60565b336000620010148783888888620071a6565b9093509050600783900b6016146200102e575050620010d1565b60405163b59fc61960e01b815281151560048201526001600160a01b038381166024830152878116604483015286811660648301526084820186905288169063b59fc6199060a401602060405180830381600087803b1580156200109157600080fd5b505af1158015620010a6573d6000803e3d6000fd5b505050506040513d601f19601f82011682018060405250810190620010cc91906200a321565b925050505b949350505050565b600080620010e78362007527565b905080620010f75760a7620010fa565b60165b60030b9150915091565b60006200111062008326565b6200111b8362007527565b6200112a5760a7939092509050565b6001600160a01b03831660009081526003602052604090205460ff1615620018c6576001600160a01b0383166000908152600260205260409081902081516102408101909252805482906101208201908390829082906200118b906200a341565b80601f0160208091040260200160405190810160405280929190818152602001828054620011b9906200a341565b80156200120a5780601f10620011de576101008083540402835291602001916200120a565b820191906000526020600020905b815481529060010190602001808311620011ec57829003601f168201915b5050505050815260200160018201805462001225906200a341565b80601f016020809104026020016040519081016040528092919081815260200182805462001253906200a341565b8015620012a45780601f106200127857610100808354040283529160200191620012a4565b820191906000526020600020905b8154815290600101906020018083116200128657829003601f168201915b505050918352505060028201546001600160a01b03166020820152600382018054604090920191620012d6906200a341565b80601f016020809104026020016040519081016040528092919081815260200182805462001304906200a341565b8015620013555780601f10620013295761010080835404028352916020019162001355565b820191906000526020600020905b8154815290600101906020018083116200133757829003601f168201915b5050509183525050600482015460ff8082161515602080850191909152610100830460070b604080860191909152600160481b90930490911615156060840152600584018054835181840281018401909452808452608090940193909160009084015b82821015620015735760008481526020908190206040805180820182526005860290920180548352815160a08101835260018201805460ff81161515835261010090046001600160a01b03168287015260028301805495969395938701949293919284019162001428906200a341565b80601f016020809104026020016040519081016040528092919081815260200182805462001456906200a341565b8015620014a75780601f106200147b57610100808354040283529160200191620014a7565b820191906000526020600020905b8154815290600101906020018083116200148957829003601f168201915b50505050508152602001600282018054620014c2906200a341565b80601f0160208091040260200160405190810160405280929190818152602001828054620014f0906200a341565b8015620015415780601f10620015155761010080835404028352916020019162001541565b820191906000526020600020905b8154815290600101906020018083116200152357829003601f168201915b5050509183525050600391909101546001600160a01b03166020918201529152918352506001929092019101620013b8565b5050509082525060408051606080820183526006850154600781810b84526001600160a01b03600160401b928390041660208581019190915296810154810b848601529486019290925294865260088701549283900b8685015260ff9083048116151586830152600160481b83048116151594860194909452600160501b9091049092161515608084015260098401805483518184028101840190945280845260a090940193909160009084015b82821015620016a65760008481526020908190206040805160a081018252600286029092018054600781900b84526001600160a01b03600160401b820481168587015260ff600160e01b83048116151594860194909452600160e81b909104909216151560608401526001908101549091166080830152908352909201910162001621565b505050508152602001600a8201805480602002602001604051908101604052809291908181526020016000905b828210156200175f5760008481526020908190206040805160c081018252600286029092018054600781810b8552600160401b8204810b85870152600160801b8204810b93850193909352600160c01b900490910b606083015260019081015460ff81161515608084015261010090046001600160a01b031660a08301529083529092019101620016d3565b505050508152602001600b8201805480602002602001604051908101604052809291908181526020016000905b828210156200181c5760008481526020908190206040805160c081018252600386029092018054600781810b8552600160401b8204810b85870152600160801b909104900b918301919091526001808201546001600160a01b038082166060860152600160a01b90910460ff161515608085015260029092015490911660a083015290835290920191016200178c565b505050508152602001600c8201805462001836906200a341565b80601f016020809104026020016040519081016040528092919081815260200182805462001864906200a341565b8015620018b55780601f106200188957610100808354040283529160200191620018b5565b820191906000526020600020905b8154815290600101906020018083116200189757829003601f168201915b50505050508152505090506200203b565b6001600160a01b03831660009081526004602052604090819020815161024081019092528054829061012082019083908290829062001905906200a341565b80601f016020809104026020016040519081016040528092919081815260200182805462001933906200a341565b8015620019845780601f10620019585761010080835404028352916020019162001984565b820191906000526020600020905b8154815290600101906020018083116200196657829003601f168201915b505050505081526020016001820180546200199f906200a341565b80601f0160208091040260200160405190810160405280929190818152602001828054620019cd906200a341565b801562001a1e5780601f10620019f25761010080835404028352916020019162001a1e565b820191906000526020600020905b81548152906001019060200180831162001a0057829003601f168201915b505050918352505060028201546001600160a01b0316602082015260038201805460409092019162001a50906200a341565b80601f016020809104026020016040519081016040528092919081815260200182805462001a7e906200a341565b801562001acf5780601f1062001aa35761010080835404028352916020019162001acf565b820191906000526020600020905b81548152906001019060200180831162001ab157829003601f168201915b5050509183525050600482015460ff8082161515602080850191909152610100830460070b604080860191909152600160481b90930490911615156060840152600584018054835181840281018401909452808452608090940193909160009084015b8282101562001ced5760008481526020908190206040805180820182526005860290920180548352815160a08101835260018201805460ff81161515835261010090046001600160a01b03168287015260028301805495969395938701949293919284019162001ba2906200a341565b80601f016020809104026020016040519081016040528092919081815260200182805462001bd0906200a341565b801562001c215780601f1062001bf55761010080835404028352916020019162001c21565b820191906000526020600020905b81548152906001019060200180831162001c0357829003601f168201915b5050505050815260200160028201805462001c3c906200a341565b80601f016020809104026020016040519081016040528092919081815260200182805462001c6a906200a341565b801562001cbb5780601f1062001c8f5761010080835404028352916020019162001cbb565b820191906000526020600020905b81548152906001019060200180831162001c9d57829003601f168201915b5050509183525050600391909101546001600160a01b0316602091820152915291835250600192909201910162001b32565b5050509082525060408051606080820183526006850154600781810b84526001600160a01b03600160401b928390041660208581019190915296810154810b848601529486019290925294865260088701549283900b8685015260ff9083048116151586830152600160481b83048116151594860194909452600160501b9091049092161515608084015260098401805483518184028101840190945280845260a090940193909160009084015b8282101562001e205760008481526020908190206040805160a081018252600286029092018054600781900b84526001600160a01b03600160401b820481168587015260ff600160e01b83048116151594860194909452600160e81b909104909216151560608401526001908101549091166080830152908352909201910162001d9b565b505050508152602001600a8201805480602002602001604051908101604052809291908181526020016000905b8282101562001ed95760008481526020908190206040805160c081018252600286029092018054600781810b8552600160401b8204810b85870152600160801b8204810b93850193909352600160c01b900490910b606083015260019081015460ff81161515608084015261010090046001600160a01b031660a0830152908352909201910162001e4d565b505050508152602001600b8201805480602002602001604051908101604052809291908181526020016000905b8282101562001f965760008481526020908190206040805160c081018252600386029092018054600781810b8552600160401b8204810b85870152600160801b909104900b918301919091526001808201546001600160a01b038082166060860152600160a01b90910460ff161515608085015260029092015490911660a0830152908352909201910162001f06565b505050508152602001600c8201805462001fb0906200a341565b80601f016020809104026020016040519081016040528092919081815260200182805462001fde906200a341565b80156200202f5780601f1062002003576101008083540402835291602001916200202f565b820191906000526020600020905b8154815290600101906020018083116200201157829003601f168201915b50505050508152505090505b6016939092509050565b600062002051620083eb565b6001600160a01b03841660009081526004602052604080822081516102408101909252805482906101208201908390829082906200208f906200a341565b80601f0160208091040260200160405190810160405280929190818152602001828054620020bd906200a341565b80156200210e5780601f10620020e2576101008083540402835291602001916200210e565b820191906000526020600020905b815481529060010190602001808311620020f057829003601f168201915b5050505050815260200160018201805462002129906200a341565b80601f016020809104026020016040519081016040528092919081815260200182805462002157906200a341565b8015620021a85780601f106200217c57610100808354040283529160200191620021a8565b820191906000526020600020905b8154815290600101906020018083116200218a57829003601f168201915b505050918352505060028201546001600160a01b03166020820152600382018054604090920191620021da906200a341565b80601f016020809104026020016040519081016040528092919081815260200182805462002208906200a341565b8015620022595780601f106200222d5761010080835404028352916020019162002259565b820191906000526020600020905b8154815290600101906020018083116200223b57829003601f168201915b5050509183525050600482015460ff8082161515602080850191909152610100830460070b604080860191909152600160481b90930490911615156060840152600584018054835181840281018401909452808452608090940193909160009084015b82821015620024775760008481526020908190206040805180820182526005860290920180548352815160a08101835260018201805460ff81161515835261010090046001600160a01b0316828701526002830180549596939593870194929391928401916200232c906200a341565b80601f01602080910402602001604051908101604052809291908181526020018280546200235a906200a341565b8015620023ab5780601f106200237f57610100808354040283529160200191620023ab565b820191906000526020600020905b8154815290600101906020018083116200238d57829003601f168201915b50505050508152602001600282018054620023c6906200a341565b80601f0160208091040260200160405190810160405280929190818152602001828054620023f4906200a341565b8015620024455780601f10620024195761010080835404028352916020019162002445565b820191906000526020600020905b8154815290600101906020018083116200242757829003601f168201915b5050509183525050600391909101546001600160a01b03166020918201529152918352506001929092019101620022bc565b5050509082525060408051606080820183526006850154600781810b84526001600160a01b03600160401b928390041660208581019190915296810154810b848601529486019290925294865260088701549283900b8685015260ff9083048116151586830152600160481b83048116151594860194909452600160501b9091049092161515608084015260098401805483518184028101840190945280845260a090940193909160009084015b82821015620025aa5760008481526020908190206040805160a081018252600286029092018054600781900b84526001600160a01b03600160401b820481168587015260ff600160e01b83048116151594860194909452600160e81b909104909216151560608401526001908101549091166080830152908352909201910162002525565b505050508152602001600a8201805480602002602001604051908101604052809291908181526020016000905b82821015620026635760008481526020908190206040805160c081018252600286029092018054600781810b8552600160401b8204810b85870152600160801b8204810b93850193909352600160c01b900490910b606083015260019081015460ff81161515608084015261010090046001600160a01b031660a08301529083529092019101620025d7565b505050508152602001600b8201805480602002602001604051908101604052809291908181526020016000905b82821015620027205760008481526020908190206040805160c081018252600386029092018054600781810b8552600160401b8204810b85870152600160801b909104900b918301919091526001808201546001600160a01b038082166060860152600160a01b90910460ff161515608085015260029092015490911660a0830152908352909201910162002690565b505050508152602001600c820180546200273a906200a341565b80601f016020809104026020016040519081016040528092919081815260200182805462002768906200a341565b8015620027b95780601f106200278d57610100808354040283529160200191620027b9565b820191906000526020600020905b8154815290600101906020018083116200279b57829003601f168201915b505050919092525050506001600160a01b03808716600090815260056020908152604080832060078a810b8552908352818420825160808101845281549687168152600160a01b90960490910b92850192909252600182018054959650929491929084019162002829906200a341565b80601f016020809104026020016040519081016040528092919081815260200182805462002857906200a341565b8015620028a85780601f106200287c57610100808354040283529160200191620028a8565b820191906000526020600020905b8154815290600101906020018083116200288a57829003601f168201915b5050509183525050600291909101546001600160a01b03908116602092830152938552600796870b85820152815184166040808701919091529082015190960b60608086019190915295810151608085015294909401511660a0820152601694909350915050565b6000806200291d62006a60565b6200292b3388888862006adc565b9150600782900b6016146200294357506000620029c9565b6200294d62008304565b6200295762008326565b888152600788900b60208083019190915260a0820187905260c08201869052600388900b9083015280825260405160009083906200299590620083dd565b620029a191906200a30c565b604051809103906000f080158015620029be573d6000803e3d6000fd5b506016955093505050505b9550959350505050565b6000620029df62006a60565b8351835183518183148015620029f457508083145b62002a335760405162461bcd60e51b815260206004820152600e60248201526d554e455155414c5f41525241595360901b604482015260640162000fb1565b60008080805b8681101562002af1578a818151811062002a575762002a576200a378565b6020026020010151935089818151811062002a765762002a766200a378565b6020026020010151925088818151811062002a955762002a956200a378565b6020026020010151915062002aad8c858585620045cf565b9750600788900b60161462002adc5760405163fbe0be3960e01b8152600789900b600482015260240162000fb1565b8062002ae8816200a3a4565b91505062002a39565b50505050505050949350505050565b600062002b0c62006a60565b60005b825181101562002b6c5762002b418484838151811062002b335762002b336200a378565b60200260200101516200443e565b9150600782900b60161462002b57575062000d18565b8062002b63816200a3a4565b91505062002b0f565b5060169392505050565b600062002b8262006a60565b3362002b918582868662007569565b9150600782900b60161462002ba7575062002c1b565b6040516301fe292760e31b81526001600160a01b03828116600483015285811660248301528415156044830152861690630ff14938906064015b600060405180830381600087803b15801562002bfc57600080fd5b505af115801562002c11573d6000803e3d6000fd5b5060169450505050505b9392505050565b600062002c2e62006a60565b919050565b6040805160a0810182526000808252602082018190526060928201839052828201929092526080810182905262002c6a8462007527565b62002c795760a7915062002caa565b6001600160a01b038085166000908152600a6020908152604080832087845282529091205490911690820152601691505b9250929050565b600062002cbd62008304565b6001600160a01b03831660009081526002602052604090819020815161028081018352815490928391908201908390829061016085019083908290829062002d05906200a341565b80601f016020809104026020016040519081016040528092919081815260200182805462002d33906200a341565b801562002d845780601f1062002d585761010080835404028352916020019162002d84565b820191906000526020600020905b81548152906001019060200180831162002d6657829003601f168201915b5050505050815260200160018201805462002d9f906200a341565b80601f016020809104026020016040519081016040528092919081815260200182805462002dcd906200a341565b801562002e1e5780601f1062002df25761010080835404028352916020019162002e1e565b820191906000526020600020905b81548152906001019060200180831162002e0057829003601f168201915b505050918352505060028201546001600160a01b0316602082015260038201805460409092019162002e50906200a341565b80601f016020809104026020016040519081016040528092919081815260200182805462002e7e906200a341565b801562002ecf5780601f1062002ea35761010080835404028352916020019162002ecf565b820191906000526020600020905b81548152906001019060200180831162002eb157829003601f168201915b5050509183525050600482015460ff8082161515602080850191909152610100830460070b604080860191909152600160481b90930490911615156060840152600584018054835181840281018401909452808452608090940193909160009084015b82821015620030ed5760008481526020908190206040805180820182526005860290920180548352815160a08101835260018201805460ff81161515835261010090046001600160a01b03168287015260028301805495969395938701949293919284019162002fa2906200a341565b80601f016020809104026020016040519081016040528092919081815260200182805462002fd0906200a341565b8015620030215780601f1062002ff55761010080835404028352916020019162003021565b820191906000526020600020905b8154815290600101906020018083116200300357829003601f168201915b505050505081526020016002820180546200303c906200a341565b80601f01602080910402602001604051908101604052809291908181526020018280546200306a906200a341565b8015620030bb5780601f106200308f57610100808354040283529160200191620030bb565b820191906000526020600020905b8154815290600101906020018083116200309d57829003601f168201915b5050509183525050600391909101546001600160a01b0316602091820152915291835250600192909201910162002f32565b5050509082525060408051606080820183526006850154600781810b84526001600160a01b03600160401b928390041660208581019190915296810154810b848601529486019290925294865260088701549283900b8685015260ff9083048116151586830152600160481b83048116151594860194909452600160501b9091049092161515608084015260098401805483518184028101840190945280845260a090940193909160009084015b82821015620032205760008481526020908190206040805160a081018252600286029092018054600781900b84526001600160a01b03600160401b820481168587015260ff600160e01b83048116151594860194909452600160e81b90910490921615156060840152600190810154909116608083015290835290920191016200319b565b505050508152602001600a8201805480602002602001604051908101604052809291908181526020016000905b82821015620032d95760008481526020908190206040805160c081018252600286029092018054600781810b8552600160401b8204810b85870152600160801b8204810b93850193909352600160c01b900490910b606083015260019081015460ff81161515608084015261010090046001600160a01b031660a083015290835290920191016200324d565b505050508152602001600b8201805480602002602001604051908101604052809291908181526020016000905b82821015620033965760008481526020908190206040805160c081018252600386029092018054600781810b8552600160401b8204810b85870152600160801b909104900b918301919091526001808201546001600160a01b038082166060860152600160a01b90910460ff161515608085015260029092015490911660a0830152908352909201910162003306565b505050508152602001600c82018054620033b0906200a341565b80601f0160208091040260200160405190810160405280929190818152602001828054620033de906200a341565b80156200342f5780601f1062003403576101008083540402835291602001916200342f565b820191906000526020600020905b8154815290600101906020018083116200341157829003601f168201915b505050919092525050508152600d919091015460030b602090910152919391925050565b6001600160a01b0382166000908152600360209081526040808320546006909252822054829160ff9081169116811580156200348d575080155b15620034a4575060a792506000915062002caa9050565b6000620034b387600262005089565b6001600160a01b03161415620034d4575060ac92506000915062002caa9050565b6000821562003c7a576001600160a01b038716600090815260026020526040808220815161028081018352815490928391908201908390829061016085019083908290829062003524906200a341565b80601f016020809104026020016040519081016040528092919081815260200182805462003552906200a341565b8015620035a35780601f106200357757610100808354040283529160200191620035a3565b820191906000526020600020905b8154815290600101906020018083116200358557829003601f168201915b50505050508152602001600182018054620035be906200a341565b80601f0160208091040260200160405190810160405280929190818152602001828054620035ec906200a341565b80156200363d5780601f1062003611576101008083540402835291602001916200363d565b820191906000526020600020905b8154815290600101906020018083116200361f57829003601f168201915b505050918352505060028201546001600160a01b031660208201526003820180546040909201916200366f906200a341565b80601f01602080910402602001604051908101604052809291908181526020018280546200369d906200a341565b8015620036ee5780601f10620036c257610100808354040283529160200191620036ee565b820191906000526020600020905b815481529060010190602001808311620036d057829003601f168201915b5050509183525050600482015460ff8082161515602080850191909152610100830460070b604080860191909152600160481b90930490911615156060840152600584018054835181840281018401909452808452608090940193909160009084015b828210156200390c5760008481526020908190206040805180820182526005860290920180548352815160a08101835260018201805460ff81161515835261010090046001600160a01b031682870152600283018054959693959387019492939192840191620037c1906200a341565b80601f0160208091040260200160405190810160405280929190818152602001828054620037ef906200a341565b8015620038405780601f10620038145761010080835404028352916020019162003840565b820191906000526020600020905b8154815290600101906020018083116200382257829003601f168201915b505050505081526020016002820180546200385b906200a341565b80601f016020809104026020016040519081016040528092919081815260200182805462003889906200a341565b8015620038da5780601f10620038ae57610100808354040283529160200191620038da565b820191906000526020600020905b815481529060010190602001808311620038bc57829003601f168201915b5050509183525050600391909101546001600160a01b0316602091820152915291835250600192909201910162003751565b5050509082525060408051606080820183526006850154600781810b84526001600160a01b03600160401b928390041660208581019190915296810154810b848601529486019290925294865260088701549283900b8685015260ff9083048116151586830152600160481b83048116151594860194909452600160501b9091049092161515608084015260098401805483518184028101840190945280845260a090940193909160009084015b8282101562003a3f5760008481526020908190206040805160a081018252600286029092018054600781900b84526001600160a01b03600160401b820481168587015260ff600160e01b83048116151594860194909452600160e81b9091049092161515606084015260019081015490911660808301529083529092019101620039ba565b505050508152602001600a8201805480602002602001604051908101604052809291908181526020016000905b8282101562003af85760008481526020908190206040805160c081018252600286029092018054600781810b8552600160401b8204810b85870152600160801b8204810b93850193909352600160c01b900490910b606083015260019081015460ff81161515608084015261010090046001600160a01b031660a0830152908352909201910162003a6c565b505050508152602001600b8201805480602002602001604051908101604052809291908181526020016000905b8282101562003bb55760008481526020908190206040805160c081018252600386029092018054600781810b8552600160401b8204810b85870152600160801b909104900b918301919091526001808201546001600160a01b038082166060860152600160a01b90910460ff161515608085015260029092015490911660a0830152908352909201910162003b25565b505050508152602001600c8201805462003bcf906200a341565b80601f016020809104026020016040519081016040528092919081815260200182805462003bfd906200a341565b801562003c4e5780601f1062003c225761010080835404028352916020019162003c4e565b820191906000526020600020905b81548152906001019060200180831162003c3057829003601f168201915b505050919092525050508152600d919091015460030b602090910152515160c001519150620043f69050565b6001600160a01b038716600090815260046020526040808220815161024081019092528054829061012082019083908290829062003cb8906200a341565b80601f016020809104026020016040519081016040528092919081815260200182805462003ce6906200a341565b801562003d375780601f1062003d0b5761010080835404028352916020019162003d37565b820191906000526020600020905b81548152906001019060200180831162003d1957829003601f168201915b5050505050815260200160018201805462003d52906200a341565b80601f016020809104026020016040519081016040528092919081815260200182805462003d80906200a341565b801562003dd15780601f1062003da55761010080835404028352916020019162003dd1565b820191906000526020600020905b81548152906001019060200180831162003db357829003601f168201915b505050918352505060028201546001600160a01b0316602082015260038201805460409092019162003e03906200a341565b80601f016020809104026020016040519081016040528092919081815260200182805462003e31906200a341565b801562003e825780601f1062003e565761010080835404028352916020019162003e82565b820191906000526020600020905b81548152906001019060200180831162003e6457829003601f168201915b5050509183525050600482015460ff8082161515602080850191909152610100830460070b604080860191909152600160481b90930490911615156060840152600584018054835181840281018401909452808452608090940193909160009084015b82821015620040a05760008481526020908190206040805180820182526005860290920180548352815160a08101835260018201805460ff81161515835261010090046001600160a01b03168287015260028301805495969395938701949293919284019162003f55906200a341565b80601f016020809104026020016040519081016040528092919081815260200182805462003f83906200a341565b801562003fd45780601f1062003fa85761010080835404028352916020019162003fd4565b820191906000526020600020905b81548152906001019060200180831162003fb657829003601f168201915b5050505050815260200160028201805462003fef906200a341565b80601f01602080910402602001604051908101604052809291908181526020018280546200401d906200a341565b80156200406e5780601f1062004042576101008083540402835291602001916200406e565b820191906000526020600020905b8154815290600101906020018083116200405057829003601f168201915b5050509183525050600391909101546001600160a01b0316602091820152915291835250600192909201910162003ee5565b5050509082525060408051606080820183526006850154600781810b84526001600160a01b03600160401b928390041660208581019190915296810154810b848601529486019290925294865260088701549283900b8685015260ff9083048116151586830152600160481b83048116151594860194909452600160501b9091049092161515608084015260098401805483518184028101840190945280845260a090940193909160009084015b82821015620041d35760008481526020908190206040805160a081018252600286029092018054600781900b84526001600160a01b03600160401b820481168587015260ff600160e01b83048116151594860194909452600160e81b90910490921615156060840152600190810154909116608083015290835290920191016200414e565b505050508152602001600a8201805480602002602001604051908101604052809291908181526020016000905b828210156200428c5760008481526020908190206040805160c081018252600286029092018054600781810b8552600160401b8204810b85870152600160801b8204810b93850193909352600160c01b900490910b606083015260019081015460ff81161515608084015261010090046001600160a01b031660a0830152908352909201910162004200565b505050508152602001600b8201805480602002602001604051908101604052809291908181526020016000905b82821015620043495760008481526020908190206040805160c081018252600386029092018054600781810b8552600160401b8204810b85870152600160801b909104900b918301919091526001808201546001600160a01b038082166060860152600160a01b90910460ff161515608085015260029092015490911660a08301529083529092019101620042b9565b505050508152602001600c8201805462004363906200a341565b80601f016020809104026020016040519081016040528092919081815260200182805462004391906200a341565b8015620043e25780601f10620043b657610100808354040283529160200191620043e2565b820191906000526020600020905b815481529060010190602001808311620043c457829003601f168201915b505050919092525050905160c00151925050505b80620044045760006200442f565b6001600160a01b038088166000908152600960209081526040808320938a168352929052205460ff16155b60169890975095505050505050565b60006200444a62006a60565b6001600160a01b03821660009081526003602052604090205460ff161580156200448d57506001600160a01b03821660009081526006602052604090205460ff16155b156200449c575060a762000d18565b6001600160a01b0380831660009081526007602090815260408083209387168352929052205460ff1615620044d4575060c262000d18565b506001600160a01b038082166000908152600760209081526040808320938616835292905220805460ff19166001179055601692915050565b60006200451a3362007527565b6200455b5760405162461bcd60e51b815260206004820152601060248201526f2727aa2fa422a222a920afaa27a5a2a760811b604482015260640162000fb1565b33620010d181858562007656565b6000620045763362007527565b620045b75760405162461bcd60e51b815260206004820152601060248201526f2727aa2fa422a222a920afaa27a5a2a760811b604482015260640162000fb1565b33620045c68186868662007569565b95945050505050565b6000620045db62006a60565b336001600160401b0383166000620045f78884898986620071a6565b9094509050600784900b6016146200461257505050620010d1565b60405163b59fc61960e01b815281151560048201526001600160a01b038481166024830152888116604483015287811660648301526084820184905289169063b59fc6199060a401602060405180830381600087803b1580156200467557600080fd5b505af11580156200468a573d6000803e3d6000fd5b505050506040513d601f19601f82011682018060405250810190620046b091906200a321565b6001600160a01b03988916600090815260056020908152604080832060079990990b8352979052959095208054969098166001600160a01b03199687161788555050506002909401805490921690915592915050565b6200471062006a60565b5050565b60006200472062006a60565b338383620047318784848462007891565b9350600784900b601614620047495750505062002c1b565b6040516306e483a560e01b81526001600160a01b038381166004830152600783900b60248301528816906306e483a590604401600060405180830381600087803b1580156200479757600080fd5b505af1158015620047ac573d6000803e3d6000fd5b505050506001600160a01b03968716600090815260056020908152604080832060079490940b83529290522060020180546001600160a01b03191691909616179094555060169392505050565b60006200480562006a60565b60005b825181101562002b6c5760006200483c858584815181106200482e576200482e6200a378565b602002602001015162000da9565b9050600781900b6016146200485557915062000d189050565b508062004862816200a3a4565b91505062004808565b60006200487762006a60565b82518251808214620048bd5760405162461bcd60e51b815260206004820152600e60248201526d554e455155414c5f41525241595360901b604482015260640162000fb1565b33600080805b858110156200495c57888181518110620048e157620048e16200a378565b602002602001015192508781815181106200490057620049006200a378565b60200260200101519150620049188a8585856200591f565b9650600787900b601614620049475760405163fbe0be3960e01b8152600788900b600482015260240162000fb1565b8062004953816200a3a4565b915050620048c3565b5050505050509392505050565b6001600160a01b03821660009081526003602052604081205460ff16158015620049ac57506001600160a01b03831660009081526006602052604090205460ff16155b15620049bb575060a762000d18565b6001600160a01b0380841660009081526008602090815260408083209386168352929052205460ff1615620049f35750601662000d18565b60008062004a018562007a4e565b91509150801562004a19575060b1915062000d189050565b8162004a2c575060ba915062000d189050565b5050506001600160a01b038083166000908152600860209081526040808320938516835292905220805460ff19166001179055601692915050565b6001600160a01b038316600090815260036020526040812054819060ff1662004a97575060a79050600062000f2b565b604051636eb1769f60e11b81526001600160a01b038581166004830152848116602483015286169063dd62ed3e9060440160206040518083038186803b15801562004ae157600080fd5b505afa15801562004af6573d6000803e3d6000fd5b505050506040513d601f19601f8201168201806040525081019062004b1c91906200a3c2565b6016969095509350505050565b6001600160a01b0381166000908152600360209081526040808320546006909252822054829160ff90811691168115801562004b63575080155b1562004b76575060a79491935090915050565b8162004b8457600162004b1c565b506016946000945092505050565b600062004b9e62006a60565b33600062004bb08783888888620071a6565b9093509050600783900b60161462004bca575050620010d1565b60405163b59fc61960e01b815281151560048201526001600160a01b038381166024830152878116604483015286811660648301526084820186905288169063b59fc6199060a401602060405180830381600087803b15801562004c2d57600080fd5b505af115801562004c42573d6000803e3d6000fd5b505050506040513d601f19601f8201168201806040525081019062004c6891906200a321565b5050506001600160a01b03948516600090815260056020908152604080832060079590950b8352939052919091208054929094166001600160a01b03199283161784556002909301805490911690555090565b600062004cc83362007527565b62004d095760405162461bcd60e51b815260206004820152601060248201526f2727aa2fa422a222a920afaa27a5a2a760811b604482015260640162000fb1565b3362004d198187878787620071a6565b509695505050505050565b600062004d313362007527565b62004d725760405162461bcd60e51b815260206004820152601060248201526f2727aa2fa422a222a920afaa27a5a2a760811b604482015260640162000fb1565b33620045c681858562007a7b565b60008062004d8d62006a60565b62004d9c338660008062006adc565b9150600782900b60161462004db45750600062000f2b565b62004dbe62008326565b85815260a0810185905260e08101849052604051600090829062004de29062008428565b62004dee91906200a3dc565b604051809103906000f08015801562004e0b573d6000803e3d6000fd5b5060169890975095505050505050565b6001600160a01b038116600090815260026020908152604080832060090180548251818502810185019093528083526016946060948594859490939092909184015b8282101562004ee25760008481526020908190206040805160a081018252600286029092018054600781900b84526001600160a01b03600160401b820481168587015260ff600160e01b83048116151594860194909452600160e81b909104909216151560608401526001908101549091166080830152908352909201910162004e5d565b5050506001600160a01b0387166000908152600260209081526040808320600a0180548251818502810185019093528083529598509094909350919084015b8282101562004fad5760008481526020908190206040805160c081018252600286029092018054600781810b8552600160401b8204810b85870152600160801b8204810b93850193909352600160c01b900490910b606083015260019081015460ff81161515608084015261010090046001600160a01b031660a0830152908352909201910162004f21565b5050506001600160a01b0387166000908152600260209081526040808320600b0180548251818502810185019093528083529597509094909350919084015b828210156200507c5760008481526020908190206040805160c081018252600386029092018054600781810b8552600160401b8204810b85870152600160801b909104900b918301919091526001808201546001600160a01b038082166060860152600160a01b90910460ff161515608085015260029092015490911660a0830152908352909201910162004fec565b5050505090509193509193565b600080620050978362007b03565b6001600160a01b039485166000908152600a6020908152604080832093835292905220549093169392505050565b60408051606081018252600080825260208201819052918101829052620050ec8362007527565b620050fb5760a7939092509050565b6001600160a01b03831660009081526003602052604090205460ff16156200517157506001600160a01b0380831660009081526002602090815260409182902082516060810184526006820154600781810b8352600160401b9091049095169281019290925283015490920b908201526200203b565b50506001600160a01b0390811660009081526004602090815260409182902082516060810184526006820154600781810b8352600160401b9091049095169281019290925283015490920b90820152601691565b600080620051d262006a60565b620051df85858562007656565b9150600782900b601614620051f75750600062000f2b565b6001600160a01b03851660009081526003602052604090205460ff1615620052f857604051630cc3b83560e21b8152600785900b600482015285906001600160a01b0382169063330ee0d490602401600060405180830381600087803b1580156200526157600080fd5b505af115801562005276573d6000803e3d6000fd5b50505050806001600160a01b03166318160ddd6040518163ffffffff1660e01b815260040160206040518083038186803b158015620052b457600080fd5b505afa158015620052c9573d6000803e3d6000fd5b505050506040513d601f19601f82011682018060405250810190620052ef91906200a3c2565b91505062000f2b565b6040516310e10ee560e31b81526001600160a01b03861690638708772890620053269086906004016200a3f1565b602060405180830381600087803b1580156200534157600080fd5b505af115801562005356573d6000803e3d6000fd5b505050506040513d601f19601f820116820180604052508101906200537c91906200a321565b8351909150600090815b818110156200540957858181518110620053a457620053a46200a378565b6020908102919091018101516001600160a01b038a166000908152600583526040808220600784900b83529093529190912080546001600160a01b0319908116825560029091018054909116905592508062005400816200a3a4565b91505062005386565b505050935093915050565b6001600160a01b0382163014156000816200543157601662005444565b6200544484846000015160008062006adc565b9050600781900b6016146200548e5760405162461bcd60e51b815260206004820152600f60248201526e14149150d21150d2d7d19052531151608a1b604482015260640162000fb1565b336000818152600660205260408120805460ff1916600117905562000fdf8562007b27565b6000806060620054c262006a60565b620054cf86868662007a7b565b9250600783900b601614620054f657505060408051600080825260208201909252620057c0565b6001600160a01b03861660009081526003602052604090205460ff16156200560a576040516303f5483b60e01b8152600786900b600482015286906001600160a01b038216906303f5483b90602401600060405180830381600087803b1580156200556057600080fd5b505af115801562005575573d6000803e3d6000fd5b50505050806001600160a01b03166318160ddd6040518163ffffffff1660e01b815260040160206040518083038186803b158015620055b357600080fd5b505afa158015620055c8573d6000803e3d6000fd5b505050506040513d601f19601f82011682018060405250810190620055ee91906200a3c2565b6040805160008152602081019091529093509150620057c09050565b60408051600180825281830190925290602080830190803683375050604051633d08925d60e01b81529192506000916001600160a01b0389169150633d08925d906200565b9088906004016200a406565b6040805180830381600087803b1580156200567557600080fd5b505af11580156200568a573d6000803e3d6000fd5b505050506040513d601f19601f82011682018060405250810190620056b091906200a46c565b80925081945050508082600081518110620056cf57620056cf6200a378565b602002602001019060070b908160070b815250506040518060800160405280620056f989620069f9565b6001600160a01b031681526020014260070b81526020016200571b8762007f07565b8152600060209182018190526001600160a01b038a81168252600583526040808320600787900b845284529182902084518154868601516001600160401b0316600160a01b026001600160e01b031990911691909316179190911781559083015180519192620057949260018501929091019062008436565b5060609190910151600290910180546001600160a01b0319166001600160a01b03909216919091179055505b93509350939050565b6000620057d562006a60565b33620057e48582868662007891565b9150600782900b601614620057fa575062002c1b565b60405163b6ef1b5960e01b81526001600160a01b03828116600483015285811660248301526044820185905286169063b6ef1b599060640162002be1565b6000620058453362007527565b620058865760405162461bcd60e51b815260206004820152601060248201526f2727aa2fa422a222a920afaa27a5a2a760811b604482015260640162000fb1565b33620045c68186868662007891565b600080620058a262006a60565b620058b1338460008062006adc565b9150600782900b601614620058c857506000915091565b620058d262008326565b8381526040516000908290620058e89062008428565b620058f491906200a3dc565b604051809103906000f08015801562005911573d6000803e3d6000fd5b506016945092505050915091565b60006200592b62006a60565b336000600784900b620059428884898985620071a6565b9094509150600784900b6016146200595d57505050620010d1565b60405163b59fc61960e01b815282151560048201526001600160a01b038481166024830152888116604483015287811660648301526084820183905289169063b59fc6199060a401602060405180830381600087803b158015620059c057600080fd5b505af1158015620059d5573d6000803e3d6000fd5b505050506040513d601f19601f82011682018060405250810190620059fb91906200a321565b98975050505050505050565b600062002c1b62006a60565b6001600160a01b0382166000908152600360209081526040808320546006909252822054829160ff90811691168115801562005a4d575080155b1562005a64575060a792506000915062002caa9050565b600062005a7387600162005089565b6001600160a01b0316141562005a94575060b192506000915062002caa9050565b6000821562006239576001600160a01b038716600090815260026020526040808220815161028081018352815490928391908201908390829061016085019083908290829062005ae4906200a341565b80601f016020809104026020016040519081016040528092919081815260200182805462005b12906200a341565b801562005b635780601f1062005b375761010080835404028352916020019162005b63565b820191906000526020600020905b81548152906001019060200180831162005b4557829003601f168201915b5050505050815260200160018201805462005b7e906200a341565b80601f016020809104026020016040519081016040528092919081815260200182805462005bac906200a341565b801562005bfd5780601f1062005bd15761010080835404028352916020019162005bfd565b820191906000526020600020905b81548152906001019060200180831162005bdf57829003601f168201915b505050918352505060028201546001600160a01b0316602082015260038201805460409092019162005c2f906200a341565b80601f016020809104026020016040519081016040528092919081815260200182805462005c5d906200a341565b801562005cae5780601f1062005c825761010080835404028352916020019162005cae565b820191906000526020600020905b81548152906001019060200180831162005c9057829003601f168201915b5050509183525050600482015460ff8082161515602080850191909152610100830460070b604080860191909152600160481b90930490911615156060840152600584018054835181840281018401909452808452608090940193909160009084015b8282101562005ecc5760008481526020908190206040805180820182526005860290920180548352815160a08101835260018201805460ff81161515835261010090046001600160a01b03168287015260028301805495969395938701949293919284019162005d81906200a341565b80601f016020809104026020016040519081016040528092919081815260200182805462005daf906200a341565b801562005e005780601f1062005dd45761010080835404028352916020019162005e00565b820191906000526020600020905b81548152906001019060200180831162005de257829003601f168201915b5050505050815260200160028201805462005e1b906200a341565b80601f016020809104026020016040519081016040528092919081815260200182805462005e49906200a341565b801562005e9a5780601f1062005e6e5761010080835404028352916020019162005e9a565b820191906000526020600020905b81548152906001019060200180831162005e7c57829003601f168201915b5050509183525050600391909101546001600160a01b0316602091820152915291835250600192909201910162005d11565b5050509082525060408051606080820183526006850154600781810b84526001600160a01b03600160401b928390041660208581019190915296810154810b848601529486019290925294865260088701549283900b8685015260ff9083048116151586830152600160481b83048116151594860194909452600160501b9091049092161515608084015260098401805483518184028101840190945280845260a090940193909160009084015b8282101562005fff5760008481526020908190206040805160a081018252600286029092018054600781900b84526001600160a01b03600160401b820481168587015260ff600160e01b83048116151594860194909452600160e81b909104909216151560608401526001908101549091166080830152908352909201910162005f7a565b505050508152602001600a8201805480602002602001604051908101604052809291908181526020016000905b82821015620060b85760008481526020908190206040805160c081018252600286029092018054600781810b8552600160401b8204810b85870152600160801b8204810b93850193909352600160c01b900490910b606083015260019081015460ff81161515608084015261010090046001600160a01b031660a083015290835290920191016200602c565b505050508152602001600b8201805480602002602001604051908101604052809291908181526020016000905b82821015620061755760008481526020908190206040805160c081018252600386029092018054600781810b8552600160401b8204810b85870152600160801b909104900b918301919091526001808201546001600160a01b038082166060860152600160a01b90910460ff161515608085015260029092015490911660a08301529083529092019101620060e5565b505050508152602001600c820180546200618f906200a341565b80601f0160208091040260200160405190810160405280929190818152602001828054620061bd906200a341565b80156200620e5780601f10620061e2576101008083540402835291602001916200620e565b820191906000526020600020905b815481529060010190602001808311620061f057829003601f168201915b505050919092525050508152600d919091015460030b60209091015251606001519150620069b39050565b6001600160a01b038716600090815260046020526040808220815161024081019092528054829061012082019083908290829062006277906200a341565b80601f0160208091040260200160405190810160405280929190818152602001828054620062a5906200a341565b8015620062f65780601f10620062ca57610100808354040283529160200191620062f6565b820191906000526020600020905b815481529060010190602001808311620062d857829003601f168201915b5050505050815260200160018201805462006311906200a341565b80601f01602080910402602001604051908101604052809291908181526020018280546200633f906200a341565b8015620063905780601f10620063645761010080835404028352916020019162006390565b820191906000526020600020905b8154815290600101906020018083116200637257829003601f168201915b505050918352505060028201546001600160a01b03166020820152600382018054604090920191620063c2906200a341565b80601f0160208091040260200160405190810160405280929190818152602001828054620063f0906200a341565b8015620064415780601f10620064155761010080835404028352916020019162006441565b820191906000526020600020905b8154815290600101906020018083116200642357829003601f168201915b5050509183525050600482015460ff8082161515602080850191909152610100830460070b604080860191909152600160481b90930490911615156060840152600584018054835181840281018401909452808452608090940193909160009084015b828210156200665f5760008481526020908190206040805180820182526005860290920180548352815160a08101835260018201805460ff81161515835261010090046001600160a01b03168287015260028301805495969395938701949293919284019162006514906200a341565b80601f016020809104026020016040519081016040528092919081815260200182805462006542906200a341565b8015620065935780601f10620065675761010080835404028352916020019162006593565b820191906000526020600020905b8154815290600101906020018083116200657557829003601f168201915b50505050508152602001600282018054620065ae906200a341565b80601f0160208091040260200160405190810160405280929190818152602001828054620065dc906200a341565b80156200662d5780601f1062006601576101008083540402835291602001916200662d565b820191906000526020600020905b8154815290600101906020018083116200660f57829003601f168201915b5050509183525050600391909101546001600160a01b03166020918201529152918352506001929092019101620064a4565b5050509082525060408051606080820183526006850154600781810b84526001600160a01b03600160401b928390041660208581019190915296810154810b848601529486019290925294865260088701549283900b8685015260ff9083048116151586830152600160481b83048116151594860194909452600160501b9091049092161515608084015260098401805483518184028101840190945280845260a090940193909160009084015b82821015620067925760008481526020908190206040805160a081018252600286029092018054600781900b84526001600160a01b03600160401b820481168587015260ff600160e01b83048116151594860194909452600160e81b90910490921615156060840152600190810154909116608083015290835290920191016200670d565b505050508152602001600a8201805480602002602001604051908101604052809291908181526020016000905b828210156200684b5760008481526020908190206040805160c081018252600286029092018054600781810b8552600160401b8204810b85870152600160801b8204810b93850193909352600160c01b900490910b606083015260019081015460ff81161515608084015261010090046001600160a01b031660a08301529083529092019101620067bf565b505050508152602001600b8201805480602002602001604051908101604052809291908181526020016000905b82821015620069085760008481526020908190206040805160c081018252600386029092018054600781810b8552600160401b8204810b85870152600160801b909104900b918301919091526001808201546001600160a01b038082166060860152600160a01b90910460ff161515608085015260029092015490911660a0830152908352909201910162006878565b505050508152602001600c8201805462006922906200a341565b80601f016020809104026020016040519081016040528092919081815260200182805462006950906200a341565b8015620069a15780601f106200697557610100808354040283529160200191620069a1565b820191906000526020600020905b8154815290600101906020018083116200698357829003601f168201915b50505091909252505050606001519150505b80620069c15760016200442f565b505050506001600160a01b0392831660009081526008602090815260408083209490951682529290925250205460169160ff90911690565b6001600160a01b03811660009081526003602052604081205460ff161562006a3e57506001600160a01b03908116600090815260026020819052604090912001541690565b506001600160a01b039081166000908152600460205260409020600201541690565b306001600160a01b037f0000000000000000000000000000000000000000000000000000000000000000161462006ada5760405162461bcd60e51b815260206004820152600f60248201527f4e4f5f44454c454741544543414c4c0000000000000000000000000000000000604482015260640162000fb1565b565b60008084604001516001600160a01b0316866001600160a01b0316149050600062006b178660e0015162006b11600062007b03565b620080a1565b60208101519091506001600160a01b03161562006b595780602001516001600160a01b0316876001600160a01b03161462006b595750609b9150620010d19050565b60005b8660e001515181101562006cae5760008760e00151828151811062006b855762006b856200a378565b6020026020010151905060006001600160a01b03168160200151602001516001600160a01b03161462006c9857600062006bd08260200151602001516001600160a01b031631151590565b90508062006c965781516001141562006bf35750609b9450620010d19350505050565b81516002141562006c0e575060ba9450620010d19350505050565b81516004141562006c29575060bc9450620010d19350505050565b81516008141562006c44575060bb9450620010d19350505050565b81516010141562006c5f575060bd9450620010d19350505050565b81516020141562006c7a575060f79450620010d19350505050565b81516040141562006c96575061010b9450620010d19350505050565b505b508062006ca5816200a3a4565b91505062006b5c565b508162006cc2575060659150620010d19050565b60008460030b128062006cd8575060128460030b135b1562006ceb575060a89150620010d19050565b60008560070b121562006d05575060a99150620010d19050565b855151600062006d1788602001515190565b90508162006d2e575060be9350620010d192505050565b606482111562006d47575060bf9350620010d192505050565b8062006d5c575060ae9350620010d192505050565b606481111562006d75575060af9350620010d192505050565b50601698975050505050505050565b8051515133600081815260026020908152604082208451929462006dac939192019062008436565b508251516020908101516001600160a01b03831660009081526002835260409020815162006de4936001909201929091019062008436565b508251516040908101516001600160a01b038381166000908152600260208181529185902090810180546001600160a01b031916939094169290921790925585515192830151606090930151805193955062006e4893600390920192019062008436565b50825151608001516001600160a01b0382166000908152600260205260408120600401805486515160a081015160c08201511515600160481b0269ff000000000000000000196001600160401b039092166101000268ffffffffffffffff00199715159790971668ffffffffffffffffff1990941693909317959095179490941617905560e09091015151905b81811015620070525784515160e001518051600091908390811062006efe5762006efe6200a378565b6020908102919091018101516001600160a01b038087166000908152600280855260408083206005908101805460018181018355918652948890208751959092029091019384558587015180519185018054828a01519097166101000274ffffffffffffffffffffffffffffffffffffffff00199315159390931674ffffffffffffffffffffffffffffffffffffffffff19909716969096179190911785559081015180519597508796939591949362006fbe9387019291019062008436565b506060820151805162006fdc91600284019160209091019062008436565b5060809190910151600390910180546001600160a01b039283166001600160a01b0319918216179091556020808601518101518984166000908152600a8352604080822098518252979092529590208054959092169416939093179092555081905062007049816200a3a4565b91505062006ed5565b5083515161010090810151516001600160a01b038085166000908152600260209081526040918290206006810180548b51805189015180860151909716600160401b9081026001600160e01b03199093166001600160401b03998a1617929092179092559484015160078301805491881667ffffffffffffffff19929092169190911790558083015160088301805495830151606084015160808501511515600160501b026aff0000000000000000000019911515600160481b02919091166affff0000000000000000001992151590990268ffffffffffffffffff1990981693909916929092179590951716949094179490941790915592015180516200716593600c90930192919091019062008436565b50506020928301516001600160a01b0391909116600090815260029093526040909220600d01805463ffffffff191663ffffffff9093169290921790915590565b6000806000620071b9888888886200814e565b6001600160a01b03808a166000908152600760209081526040808320938b168352929052205490915060ff1615806200721857506001600160a01b0380891660009081526007602090815260408083209389168352929052205460ff16155b156200722d575060b8915060009050620029c9565b8060c0015115806200724157508060e00151155b1562007256575060a5915060009050620029c9565b806060015115806200726a57508060800151155b156200727f575060b0915060009050620029c9565b6001600160a01b038716156200729d876001600160a01b0316331490565b80620072a65750805b8251909350899081906000906200734d576040516331a9108f60e11b8152600481018990526001600160a01b03831690636352211e9060240160206040518083038186803b158015620072f857600080fd5b505afa1580156200730d573d6000803e3d6000fd5b505050506040513d601f19601f820116820180604052508101906200733391906200a2ec565b6001600160a01b03168a6001600160a01b031614620073d0565b6040516370a0823160e01b81526001600160a01b038b811660048301528991908516906370a082319060240160206040518083038186803b1580156200739257600080fd5b505afa158015620073a7573d6000803e3d6000fd5b505050506040513d601f19601f82011682018060405250810190620073cd91906200a3c2565b10155b9050806200740b57845115620073f0575060b29550620029c99350505050565b8460200151156200740b575060ed9550620029c99350505050565b85156200742657506016955060019450620029c99350505050565b84518b9015620074695760006200743f8e8d8462004a67565b91505089811015620074625750610125975060009650620029c995505050505050565b5062007511565b60405163430c208160e01b81526001600160a01b038281166004830152602482018b9052600091908f169063430c20819060440160206040518083038186803b158015620074b657600080fd5b505afa158015620074cb573d6000803e3d6000fd5b505050506040513d601f19601f82011682018060405250810190620074f191906200a4a0565b9050806200750f5750601c975060009650620029c995505050505050565b505b5060169c60009c509a5050505050505050505050565b6001600160a01b03811660009081526003602052604081205460ff168062000d185750506001600160a01b031660009081526006602052604090205460ff1690565b6000806200757b86858760006200814e565b6001600160a01b038088166000908152600760209081526040808320938a168352929052205490915060ff161580620075da57506001600160a01b0380871660009081526007602090815260408083209388168352929052205460ff16155b15620075eb575060b89050620010d1565b8060a001511580620075ff57508060c00151155b1562007610575060a59050620010d1565b806040015115806200762457508060600151155b1562007635575060b09050620010d1565b80602001516200764a575060a79050620010d1565b50601695945050505050565b6001600160a01b038316600090815260036020908152604080832054600690925282205460ff9182169116811580156200768e575080155b15620076a1575060a7915062002c1b9050565b600080620076af88620082a7565b915091506000620076c089620069f9565b905088806000876200779357816001600160a01b0316636352211e8b600081518110620076f157620076f16200a378565b60200260200101516040518263ffffffff1660e01b81526004016200772591906001600160401b0391909116815260200190565b60206040518083038186803b1580156200773e57600080fd5b505afa15801562007753573d6000803e3d6000fd5b505050506040513d601f19601f820116820180604052508101906200777991906200a2ec565b6001600160a01b0316846001600160a01b0316146200781f565b6040516370a0823160e01b81526001600160a01b0385811660048301526001600160401b038d1691908516906370a082319060240160206040518083038186803b158015620077e157600080fd5b505afa158015620077f6573d6000803e3d6000fd5b505050506040513d601f19601f820116820180604052508101906200781c91906200a3c2565b10155b905084806200782c575085155b156200784557506065975062002c1b9650505050505050565b806200787f57871562007865575060b2975062002c1b9650505050505050565b86156200787f575060ed975062002c1b9650505050505050565b5060169b9a5050505050505050505050565b600080620078a386868760006200814e565b90508060a001511580620078b957508060c00151155b15620078ca575060a59050620010d1565b80604001511580620078de57508060600151155b15620078ef575060b09050620010d1565b80511580156200790157508060200151155b1562007912575060a79050620010d1565b8060200151156200764a576001600160a01b038087166000908152600560209081526040808320600788810b8552908352818420825160808101845281549687168152600160a01b90960490910b92850192909252600182018054889593928401919062007980906200a341565b80601f0160208091040260200160405190810160405280929190818152602001828054620079ae906200a341565b8015620079ff5780601f10620079d357610100808354040283529160200191620079ff565b820191906000526020600020905b815481529060010190602001808311620079e157829003601f168201915b5050509183525050600291909101546001600160a01b03908116602090920191909152815191925088811691161462007a40575060ed9250620010d1915050565b506016979650505050505050565b600080600062007a6084600162005089565b6001600160a01b038116801593509091503314925050915091565b6001600160a01b038316600090815260036020908152604080832054600690925282205460ff91821691168115801562007ab3575080155b1562007ac6575060a7915062002c1b9050565b60008062007ad488620082b7565b91509150801562007aee575060b4935062002c1b92505050565b8162007a40575060bd935062002c1b92505050565b600081600681111562007b1a5762007b1a6200a4c0565b62000d189060026200a5d3565b80515133600081815260046020908152604082208451929462007b4e939192019062008436565b5082516020908101516001600160a01b03831660009081526004835260409020815162007b85936001909201929091019062008436565b5082516040908101516001600160a01b03838116600090815260046020908152908490206002810180546001600160a01b0319169390941692909217909255855192830151606090930151805193955062007be893600390920192019062008436565b508251608001516001600160a01b03821660009081526004602081905260408220018054865160a081015160c08201511515600160481b0269ff000000000000000000196001600160401b039092166101000268ffffffffffffffff00199715159790971668ffffffffffffffffff1990941693909317959095179490941617905560e09091015151905b8181101562007df1576000856000015160e00151828151811062007c9b5762007c9b6200a378565b6020908102919091018101516001600160a01b0380871660009081526004845260408082206005908101805460018181018355918552938790208651949092029091019283558486015180519184018054828901519096166101000274ffffffffffffffffffffffffffffffffffffffff00199315159390931674ffffffffffffffffffffffffffffffffffffffffff19909616959095179190911784559081015180519496508695929491939262007d5d9260028701929091019062008436565b506060820151805162007d7b91600284019160209091019062008436565b5060809190910151600390910180546001600160a01b039283166001600160a01b0319918216179091556020808601518101518984166000908152600a8352604080822098518252979092529590208054959092169416939093179092555081905062007de8816200a3a4565b91505062007c73565b50835161010090810151516001600160a01b038085166000908152600460209081526040918290206006810180548b5188015180850151909616600160401b9081026001600160e01b03199092166001600160401b0398891617919091179091559383015160078201805491871667ffffffffffffffff1992909216919091179055818a0151600882018054948c015160608d015160808e01511515600160501b026aff0000000000000000000019911515600160481b02919091166affff0000000000000000001992151590980268ffffffffffffffffff19909716939098169290921794909417169390931793909317905591860151805162007eff93600c0192919091019062008436565b505050919050565b60606000805b835181101562007f595783818151811062007f2c5762007f2c6200a378565b6020026020010151518262007f4291906200a5e1565b91508062007f50816200a3a4565b91505062007f0d565b506000816001600160401b0381111562007f775762007f776200858f565b6040519080825280601f01601f19166020018201604052801562007fa2576020820181803683370190505b5090506000805b8551811015620080975760005b86828151811062007fcb5762007fcb6200a378565b602002602001015151811015620080815786828151811062007ff15762007ff16200a378565b602002602001015181815181106200800d576200800d6200a378565b602001015160f81c60f81b8484815181106200802d576200802d6200a378565b60200101907effffffffffffffffffffffffffffffffffffffffffffffffffffffffffffff1916908160001a9053508262008068816200a3a4565b935050808062008078906200a3a4565b91505062007fb6565b50806200808e816200a3a4565b91505062007fa9565b5090949350505050565b620080e86040518060a0016040528060001515815260200160006001600160a01b03168152602001606081526020016060815260200160006001600160a01b031681525090565b825160005b81811015620081465760008582815181106200810d576200810d6200a378565b602002602001015190508481600001511415620081305760200151925062008146565b50806200813d816200a3a4565b915050620080ed565b505092915050565b604080516101008101825260008082526020808301828152838501839052606084018390526080840183905260a0840183905260c0840183905260e084018390526001600160a01b038916808452600383528584205460ff908116151586529084526006909252938220541615159092529080620081cd878762005a13565b91509150620081dd8282620082c9565b15156040840152620081f0878662005a13565b9092509050620082018282620082c9565b1515606084015262008214878562005a13565b9092509050620082258282620082c9565b151560808401526000806200823b898962003453565b915091506200824b8282620082e6565b151560a08601526200825e898862003453565b90925090506200826f8282620082e6565b151560c086015262008282898762003453565b9092509050620082938282620082e6565b151560e08601525092979650505050505050565b600080600062007a6084620069f9565b600080600062007a6084600462005089565b6000600783900b601614620082e057600162002c1b565b50919050565b6000600783900b601614620082fd57600162002c1b565b5015919050565b60405180604001604052806200831962008326565b8152600060209091015290565b60408051610240810182526060610120820181815261014083018290526000610160840181905261018084018390526101a084018190526101c084018190526101e0840181905261020084018390528451928301855280835260208301819052938201939093526102208201529081908152602001600060070b8152602001600015158152602001600015158152602001600015158152602001606081526020016060815260200160608152602001606081525090565b612ac3806200a5fd83390190565b6040518060c001604052806200840062008326565b8152600060208201819052604082018190526060808301829052608083015260a09091015290565b613819806200d0c083390190565b82805462008444906200a341565b90600052602060002090601f016020900481019282620084685760008555620084b3565b82601f106200848357805160ff1916838001178555620084b3565b82800160010185558215620084b3579182015b82811115620084b357825182559160200191906001019062008496565b50620084c1929150620084c5565b5090565b5b80821115620084c15760008155600101620084c6565b6001600160a01b0381168114620084f257600080fd5b50565b803562002c2e81620084dc565b6000602082840312156200851557600080fd5b813562002c1b81620084dc565b600080604083850312156200853657600080fd5b82356200854381620084dc565b946020939093013593505050565b600080604083850312156200856557600080fd5b82356200857281620084dc565b915060208301356200858481620084dc565b809150509250929050565b634e487b7160e01b600052604160045260246000fd5b604051606081016001600160401b0381118282101715620085ca57620085ca6200858f565b60405290565b604051602081016001600160401b0381118282101715620085ca57620085ca6200858f565b604051608081016001600160401b0381118282101715620085ca57620085ca6200858f565b604080519081016001600160401b0381118282101715620085ca57620085ca6200858f565b60405160a081016001600160401b0381118282101715620085ca57620085ca6200858f565b60405161012081016001600160401b0381118282101715620085ca57620085ca6200858f565b60405160c081016001600160401b0381118282101715620085ca57620085ca6200858f565b604051601f8201601f191681016001600160401b0381118282101715620086da57620086da6200858f565b604052919050565b60006001600160401b03821115620086fe57620086fe6200858f565b5060051b60200190565b8060070b8114620084f257600080fd5b803562002c2e8162008708565b8015158114620084f257600080fd5b803562002c2e8162008725565b600082601f8301126200875357600080fd5b813560206200876c6200876683620086e2565b620086af565b828152606092830285018201928282019190878511156200878c57600080fd5b8387015b85811015620087f95781818a031215620087aa5760008081fd5b620087b4620085a5565b8135620087c181620084dc565b815281860135620087d28162008708565b81870152604082810135620087e78162008725565b90820152845292840192810162008790565b5090979650505050505050565b600080604083850312156200881a57600080fd5b6001600160401b0380843511156200883157600080fd5b602084358501860312156200884557600080fd5b6200884f620085d0565b81853586013511156200886157600080fd5b62008873868635870180350162008741565b8152925060208401358110156200888957600080fd5b6020840135840185601f820112620088a057600080fd5b620088b0620087668235620086e2565b81358082526020808301929160051b840101881015620088cf57600080fd5b602083015b6020843560051b85010181101562008a6d578481351115620088f557600080fd5b803584016060818b03601f190112156200890e57600080fd5b62008918620085a5565b620089276020830135620084dc565b6020820135815286604083013511156200894057600080fd5b620089558b6020604085013585010162008741565b602082015286606083013511156200896c57600080fd5b6060820135820191508a603f8301126200898557600080fd5b62008998620087666020840135620086e2565b602083810135808352908201919060071b84016040018d811115620089bc57600080fd5b6040850194505b8085101562008a56576080858f031215620089dd57600080fd5b620089e7620085f5565b620089f38635620084dc565b8535815262008a066020870135620084dc565b6020860135602082015262008a1f604087013562008708565b6040860135604082015262008a38606087013562008725565b606086810135908201528352608090940193602090920191620089c3565b5060408301525084525060209283019201620088d4565b50809450505050509250929050565b600082601f83011262008a8e57600080fd5b81356001600160401b0381111562008aaa5762008aaa6200858f565b62008abf601f8201601f1916602001620086af565b81815284602083860101111562008ad557600080fd5b816020850160208301376000918101602001919091529392505050565b600082601f83011262008b0457600080fd5b8135602062008b176200876683620086e2565b82815260059290921b8401810191818101908684111562008b3757600080fd5b8286015b8481101562004d195780356001600160401b038082111562008b5c57600080fd5b908801906040601f19838c03810182131562008b7757600080fd5b62008b816200861a565b888501358152828501358481111562008b9957600080fd5b949094019360a0858e038301121562008bb25760008081fd5b62008bbc6200863f565b91508885013562008bcd8162008725565b82528483013562008bde81620084dc565b828a01526060858101358581111562008bf75760008081fd5b62008c078f8c838a010162008a7c565b858501525060809350838601358581111562008c235760008081fd5b62008c338f8c838a010162008a7c565b82850152505062008c4760a08601620084f5565b92820192909252818801528552505091830191830162008b3b565b60006060828403121562008c7557600080fd5b62008c7f620085a5565b9050813562008c8e8162008708565b8152602082013562008ca081620084dc565b6020820152604082013562008cb58162008708565b604082015292915050565b6000610160828403121562008cd457600080fd5b62008cde62008664565b905081356001600160401b038082111562008cf857600080fd5b62008d068583860162008a7c565b8352602084013591508082111562008d1d57600080fd5b62008d2b8583860162008a7c565b602084015262008d3e60408501620084f5565b6040840152606084013591508082111562008d5857600080fd5b62008d668583860162008a7c565b606084015262008d796080850162008734565b608084015262008d8c60a0850162008718565b60a084015262008d9f60c0850162008734565b60c084015260e084013591508082111562008db957600080fd5b5062008dc88482850162008af2565b60e08301525061010062008ddf8482850162008c62565b9082015292915050565b8035600381900b811462002c2e57600080fd5b60008060006060848603121562008e1257600080fd5b83356001600160401b0381111562008e2957600080fd5b62008e378682870162008cc0565b935050602084013562008e4a8162008708565b915062008e5a6040850162008de9565b90509250925092565b600082601f83011262008e7557600080fd5b8135602062008e886200876683620086e2565b82815260a0928302850182019282820191908785111562008ea857600080fd5b8387015b85811015620087f95781818a03121562008ec65760008081fd5b62008ed06200863f565b813562008edd8162008708565b81528186013562008eee81620084dc565b8187015260408281013562008f038162008725565b9082015260608281013562008f188162008725565b9082015260808281013562008f2d81620084dc565b90820152845292840192810162008eac565b600082601f83011262008f5157600080fd5b8135602062008f646200876683620086e2565b82815260c0928302850182019282820191908785111562008f8457600080fd5b8387015b85811015620087f95781818a03121562008fa25760008081fd5b62008fac6200868a565b813562008fb98162008708565b81528186013562008fca8162008708565b8187015260408281013562008fdf8162008708565b9082015260608281013562008ff48162008708565b90820152608082810135620090098162008725565b9082015260a0828101356200901e81620084dc565b90820152845292840192810162008f88565b600082601f8301126200904257600080fd5b81356020620090556200876683620086e2565b82815260c092830285018201928282019190878511156200907557600080fd5b8387015b85811015620087f95781818a031215620090935760008081fd5b6200909d6200868a565b8135620090aa8162008708565b815281860135620090bb8162008708565b81870152604082810135620090d08162008708565b90820152606082810135620090e581620084dc565b90820152608082810135620090fa8162008725565b9082015260a0828101356200910f81620084dc565b90820152845292840192810162009079565b600061012082840312156200913557600080fd5b6200913f62008664565b905081356001600160401b03808211156200915957600080fd5b620091678583860162008cc0565b8352620091776020850162008718565b60208401526200918a6040850162008734565b60408401526200919d6060850162008734565b6060840152620091b06080850162008734565b608084015260a0840135915080821115620091ca57600080fd5b620091d88583860162008e63565b60a084015260c0840135915080821115620091f257600080fd5b620092008583860162008f3f565b60c084015260e08401359150808211156200921a57600080fd5b620092288583860162009030565b60e0840152610100915081840135818111156200924457600080fd5b620092528682870162008a7c565b8385015250505092915050565b600080604083850312156200927357600080fd5b82356200928081620084dc565b915060208301356001600160401b03808211156200929d57600080fd5b9084019060408287031215620092b257600080fd5b604051604081018181108382111715620092d057620092d06200858f565b604052823582811115620092e357600080fd5b620092f18882860162009121565b825250620093026020840162008de9565b60208201528093505050509250929050565b600080600080608085870312156200932b57600080fd5b84356200933881620084dc565b935060208501356200934a81620084dc565b925060408501356200935c81620084dc565b9396929550929360600135925050565b6000815180845260005b81811015620093945760208185018101518683018201520162009376565b81811115620093a7576000602083870101525b50601f01601f19169290920160200192915050565b805115158252600060208201516001600160a01b0380821660208601526040840151915060a06040860152620093f660a08601836200936c565b9150606084015185830360608701526200941183826200936c565b925050806080850151166080860152508091505092915050565b600081518084526020808501808196508360051b8101915082860160005b858110156200948b57828403895281518051855285015160408686018190526200947681870183620093bc565b9a87019a955050509084019060010162009449565b5091979650505050505050565b60006101608251818552620094b0828601826200936c565b91505060208301518482036020860152620094cc82826200936c565b9150506040830151620094ea60408601826001600160a01b03169052565b50606083015184820360608601526200950482826200936c565b91505060808301516200951b608086018215159052565b5060a08301516200953160a086018260070b9052565b5060c08301516200954660c086018215159052565b5060e083015184820360e08601526200956082826200942b565b915050610100808401516200809782870182805160070b82526001600160a01b036020820151166020830152604081015160070b60408301525050565b600081518084526020808501945080840160005b838110156200960c578151805160070b8852838101516001600160a01b03908116858a01526040808301511515908a01526060808301511515908a0152608091820151169088015260a09096019590820190600101620095b1565b509495945050505050565b600081518084526020808501945080840160005b838110156200960c5781518051600790810b895284820151810b858a0152604080830151820b908a015260608083015190910b9089015260808082015115159089015260a0908101516001600160a01b03169088015260c090960195908201906001016200962b565b600081518084526020808501945080840160005b838110156200960c5781518051600790810b895284820151810b858a015260408083015190910b908901526060808201516001600160a01b03908116918a01919091526080808301511515908a015260a091820151169088015260c09096019590820190600101620096a8565b600061012082518185526200972d8286018262009498565b915050602083015162009745602086018260070b9052565b5060408301516200975a604086018215159052565b5060608301516200976f606086018215159052565b50608083015162009784608086018215159052565b5060a083015184820360a08601526200979e82826200959d565b91505060c083015184820360c0860152620097ba828262009617565b91505060e083015184820360e0860152620097d6828262009694565b9150506101008084015185830382870152620097f383826200936c565b9695505050505050565b8260070b8152604060208201526000620010d1604083018462009715565b600080604083850312156200982f57600080fd5b82356200983c81620084dc565b91506020830135620085848162008708565b8260070b8152604060208201526000825160c060408401526200987661010084018262009715565b9050602084015160070b606084015260408401516001600160a01b038082166080860152606086015160070b60a086015260808601519150603f198584030160c0860152620098c683836200936c565b92508060a08701511660e08601525050809150509392505050565b600080600080600060a08688031215620098fa57600080fd5b85356001600160401b03808211156200991257600080fd5b6200992089838a0162008cc0565b965060208801359150620099348262008708565b819550620099456040890162008de9565b945060608801359150808211156200995c57600080fd5b6200996a89838a0162008e63565b935060808801359150808211156200998157600080fd5b50620099908882890162008f3f565b9150509295509295909350565b600082601f830112620099af57600080fd5b81356020620099c26200876683620086e2565b82815260059290921b84018101918181019086841115620099e257600080fd5b8286015b8481101562004d19578035620099fc81620084dc565b8352918301918301620099e6565b600082601f83011262009a1c57600080fd5b8135602062009a2f6200876683620086e2565b82815260059290921b8401810191818101908684111562009a4f57600080fd5b8286015b8481101562004d1957803562009a698162008708565b835291830191830162009a53565b6000806000806080858703121562009a8e57600080fd5b843562009a9b81620084dc565b935060208501356001600160401b038082111562009ab857600080fd5b62009ac6888389016200999d565b9450604087013591508082111562009add57600080fd5b62009aeb888389016200999d565b9350606087013591508082111562009b0257600080fd5b5062009b118782880162009a0a565b91505092959194509250565b6000806040838503121562009b3157600080fd5b823562009b3e81620084dc565b915060208301356001600160401b0381111562009b5a57600080fd5b62009b68858286016200999d565b9150509250929050565b60008060006060848603121562009b8857600080fd5b833562009b9581620084dc565b9250602084013562009ba781620084dc565b9150604084013562009bb98162008725565b809150509250925092565b8260070b8152604060208201526000620010d16040830184620093bc565b600081516040845262009bf9604085018262009715565b60209384015160030b949093019390935250919050565b8260070b8152604060208201526000620010d1604083018462009be2565b6000806040838503121562009c4257600080fd5b823562009c4f8162008708565b915060208301356001600160401b0381111562009c6b57600080fd5b62009b688582860162009a0a565b6000806000806080858703121562009c9057600080fd5b843562009c9d81620084dc565b9350602085013562009caf81620084dc565b9250604085013562009cc181620084dc565b9150606085013562009cd38162008708565b939692955090935050565b6000806040838503121562009cf257600080fd5b823562009cff81620084dc565b915060208301356001600160401b0381111562009d1b57600080fd5b62009b688582860162008a7c565b6000806040838503121562009d3d57600080fd5b823562009d4a81620084dc565b915060208301356001600160401b0381111562009d6657600080fd5b62009b688582860162008af2565b60008060006060848603121562009d8a57600080fd5b833562009d9781620084dc565b9250602084013562009da981620084dc565b929592945050506040919091013590565b6000806040838503121562009dce57600080fd5b823562009ddb81620084dc565b915060208301356001600160401b0381111562009df757600080fd5b62009b688582860162008cc0565b60008060006060848603121562009e1b57600080fd5b833562009e2881620084dc565b925060208401356001600160401b038082111562009e4557600080fd5b62009e53878388016200999d565b9350604086013591508082111562009e6a57600080fd5b5062009e798682870162009a0a565b9150509250925092565b60008060006060848603121562009e9957600080fd5b833562009ea681620084dc565b9250602084013562009eb881620084dc565b9150604084013562009bb981620084dc565b60008060006060848603121562009ee057600080fd5b833562009eed81620084dc565b925060208481013562009f008162008708565b925060408501356001600160401b038082111562009f1d57600080fd5b818701915087601f83011262009f3257600080fd5b813562009f436200876682620086e2565b81815260059190911b8301840190848101908a83111562009f6357600080fd5b8585015b8381101562009fa05780358581111562009f815760008081fd5b62009f918d89838a010162008a7c565b84525091860191860162009f67565b508096505050505050509250925092565b60008060006060848603121562009fc757600080fd5b83356001600160401b038082111562009fdf57600080fd5b62009fed8783880162008cc0565b945060208601359150808211156200a00457600080fd5b6200a0128783880162008e63565b935060408601359150808211156200a02957600080fd5b5062009e798682870162009030565b8460070b81526080602082015260006200a05660808301866200959d565b82810360408401526200a06a818662009617565b905082810360608401526200a080818562009694565b979650505050505050565b600080604083850312156200a09f57600080fd5b82356200a0ac81620084dc565b91506020830135600781106200858457600080fd5b600080608083850312156200a0d557600080fd5b82356200a0e281620084dc565b915062000da0846020850162008c62565b600783900b81526080810162002c1b6020830184805160070b82526001600160a01b036020820151166020830152604081015160070b60408301525050565b6000806000606084860312156200a14857600080fd5b83356200a15581620084dc565b925060208401356200a1678162008708565b915060408401356001600160401b038111156200a18357600080fd5b62009e798682870162009a0a565b600080604083850312156200a1a557600080fd5b82356200a1b281620084dc565b915060208301356001600160401b038111156200a1ce57600080fd5b62009b688582860162009121565b600081518084526020808501945080840160005b838110156200960c57815160070b875295820195908201906001016200a1f0565b8360070b81528260070b6020820152606060408201526000620045c660608301846200a1dc565b6000602082840312156200a24b57600080fd5b81356001600160401b038111156200a26257600080fd5b620010d18482850162008cc0565b6000806000606084860312156200a28657600080fd5b83356200a29381620084dc565b925060208401356200a2a581620084dc565b9150604084013562009bb98162008708565b6000806000606084860312156200a2cd57600080fd5b83356200a2da81620084dc565b925060208401356200a16781620084dc565b6000602082840312156200a2ff57600080fd5b815162002c1b81620084dc565b60208152600062002c1b602083018462009be2565b6000602082840312156200a33457600080fd5b815162002c1b8162008708565b600181811c908216806200a35657607f821691505b60208210811415620082e057634e487b7160e01b600052602260045260246000fd5b634e487b7160e01b600052603260045260246000fd5b634e487b7160e01b600052601160045260246000fd5b60006000198214156200a3bb576200a3bb6200a38e565b5060010190565b6000602082840312156200a3d557600080fd5b5051919050565b60208152600062002c1b602083018462009715565b60208152600062002c1b60208301846200a1dc565b6000602080830181845280855180835260408601915060408160051b870101925083870160005b828110156200a45f57603f198886030184526200a44c8583516200936c565b945092850192908501906001016200a42d565b5092979650505050505050565b600080604083850312156200a48057600080fd5b82516200a48d8162008708565b6020840151909250620085848162008708565b6000602082840312156200a4b357600080fd5b815162002c1b8162008725565b634e487b7160e01b600052602160045260246000fd5b600181815b808511156200a5175781600019048211156200a4fb576200a4fb6200a38e565b808516156200a50957918102915b93841c93908002906200a4db565b509250929050565b6000826200a5305750600162000d18565b816200a53f5750600062000d18565b81600181146200a55857600281146200a563576200a583565b600191505062000d18565b60ff8411156200a577576200a5776200a38e565b50506001821b62000d18565b5060208310610133831016604e8410600b84101617156200a5a8575081810a62000d18565b6200a5b483836200a4d6565b80600019048211156200a5cb576200a5cb6200a38e565b029392505050565b600062002c1b83836200a51f565b600082198211156200a5f7576200a5f76200a38e565b50019056fe60a06040523480156200001157600080fd5b5060405162002ac338038062002ac3833981016040819052620000349162000a3a565b8051518051602091820151815191929091620000579160039190850190620001c7565b5080516200006d906004906020840190620001c7565b505060405162aa54bd60e51b8152610167915063154a97a09062000098903390859060040162000f47565b600060405180830381600087803b158015620000b357600080fd5b505af1158015620000c8573d6000803e3d6000fd5b5050505060208181015160ff166080528151805160400151910151620000f99082906001600160401b031662000101565b5050620010c7565b6001600160a01b0382166200015c5760405162461bcd60e51b815260206004820152601f60248201527f45524332303a206d696e7420746f20746865207a65726f206164647265737300604482015260640160405180910390fd5b806002600082825462000170919062001063565b90915550506001600160a01b038216600081815260208181526040808320805486019055518481527fddf252ad1be2c89b69c2b068fc378daa952ba7f163c4a11628f55a4df523b3ef910160405180910390a35050565b828054620001d5906200108a565b90600052602060002090601f016020900481019282620001f9576000855562000244565b82601f106200021457805160ff191683800117855562000244565b8280016001018555821562000244579182015b828111156200024457825182559160200191906001019062000227565b506200025292915062000256565b5090565b5b8082111562000252576000815560010162000257565b634e487b7160e01b600052604160045260246000fd5b604080519081016001600160401b0381118282101715620002a857620002a86200026d565b60405290565b60405160a081016001600160401b0381118282101715620002a857620002a86200026d565b60405161012081016001600160401b0381118282101715620002a857620002a86200026d565b60405160c081016001600160401b0381118282101715620002a857620002a86200026d565b604051601f8201601f191681016001600160401b03811182821017156200034957620003496200026d565b604052919050565b60005b838110156200036e57818101518382015260200162000354565b838111156200037e576000848401525b50505050565b600082601f8301126200039657600080fd5b81516001600160401b03811115620003b257620003b26200026d565b620003c7601f8201601f19166020016200031e565b818152846020838601011115620003dd57600080fd5b620003f082602083016020870162000351565b949350505050565b80516001600160a01b03811681146200041057600080fd5b919050565b805180151581146200041057600080fd5b8051600781900b81146200041057600080fd5b60006001600160401b038211156200045557620004556200026d565b5060051b60200190565b600082601f8301126200047157600080fd5b815160206200048a620004848362000439565b6200031e565b82815260059290921b84018101918181019086841115620004aa57600080fd5b8286015b84811015620005d15780516001600160401b0380821115620004cf57600080fd5b908801906040601f19838c038101821315620004ea57600080fd5b620004f462000283565b88850151815282850151848111156200050c57600080fd5b949094019360a0858e0383011215620005255760008081fd5b6200052f620002ae565b91506200053e89860162000415565b82526200054d838601620003f8565b8983015260608086015185811115620005665760008081fd5b620005768f8c838a010162000384565b8585015250608093508386015185811115620005925760008081fd5b620005a28f8c838a010162000384565b828501525050620005b660a08601620003f8565b928201929092528188015285525050918301918301620004ae565b509695505050505050565b600060608284031215620005ef57600080fd5b604051606081016001600160401b03811182821017156200061457620006146200026d565b604052905080620006258362000426565b81526200063560208401620003f8565b6020820152620006486040840162000426565b60408201525092915050565b600061016082840312156200066857600080fd5b62000672620002d3565b82519091506001600160401b03808211156200068d57600080fd5b6200069b8583860162000384565b83526020840151915080821115620006b257600080fd5b620006c08583860162000384565b6020840152620006d360408501620003f8565b60408401526060840151915080821115620006ed57600080fd5b620006fb8583860162000384565b60608401526200070e6080850162000415565b60808401526200072160a0850162000426565b60a08401526200073460c0850162000415565b60c084015260e08401519150808211156200074e57600080fd5b506200075d848285016200045f565b60e0830152506101006200077484828501620005dc565b9082015292915050565b600082601f8301126200079057600080fd5b81516020620007a3620004848362000439565b82815260a09283028501820192828201919087851115620007c357600080fd5b8387015b85811015620008505781818a031215620007e15760008081fd5b620007eb620002ae565b620007f68262000426565b815262000805868301620003f8565b8682015260406200081881840162000415565b9082015260606200082b83820162000415565b9082015260806200083e838201620003f8565b908201528452928401928101620007c7565b5090979650505050505050565b600082601f8301126200086f57600080fd5b8151602062000882620004848362000439565b82815260c09283028501820192828201919087851115620008a257600080fd5b8387015b85811015620008505781818a031215620008c05760008081fd5b620008ca620002f9565b620008d58262000426565b8152620008e486830162000426565b868201526040620008f781840162000426565b9082015260606200090a83820162000426565b9082015260806200091d83820162000415565b9082015260a062000930838201620003f8565b908201528452928401928101620008a6565b600082601f8301126200095457600080fd5b8151602062000967620004848362000439565b82815260c092830285018201928282019190878511156200098757600080fd5b8387015b85811015620008505781818a031215620009a55760008081fd5b620009af620002f9565b620009ba8262000426565b8152620009c986830162000426565b868201526040620009dc81840162000426565b908201526060620009ef838201620003f8565b90820152608062000a0283820162000415565b9082015260a062000a15838201620003f8565b9082015284529284019281016200098b565b8051600381900b81146200041057600080fd5b60006020828403121562000a4d57600080fd5b81516001600160401b038082111562000a6557600080fd5b908301906040828603121562000a7a57600080fd5b62000a8462000283565b82518281111562000a9457600080fd5b8301610120818803121562000aa857600080fd5b62000ab2620002d3565b81518481111562000ac257600080fd5b62000ad08982850162000654565b82525062000ae16020830162000426565b602082015262000af46040830162000415565b604082015262000b076060830162000415565b606082015262000b1a6080830162000415565b608082015260a08201518481111562000b3257600080fd5b62000b40898285016200077e565b60a08301525060c08201518481111562000b5957600080fd5b62000b67898285016200085d565b60c08301525060e08201518481111562000b8057600080fd5b62000b8e8982850162000942565b60e083015250610100808301518581111562000ba957600080fd5b62000bb78a82860162000384565b828401525050808352505062000bd06020840162000a27565b602082015295945050505050565b6000815180845262000bf881602086016020860162000351565b601f01601f19169290920160200192915050565b6000815180845260208085019450848260051b860182860160005b858110156200085057838303895281516040815185528682015191508087860152815115158186015286820151606060018060a01b038083168289015283850151935060a09250608083818a015262000c8460e08a018662000bde565b92860151898403603f1901858b015292945062000ca2858462000bde565b9501511660c0979097019690965250509885019892509084019060010162000c27565b6000610160825181855262000cdd8286018262000bde565b9150506020830151848203602086015262000cf9828262000bde565b915050604083015162000d1760408601826001600160a01b03169052565b506060830151848203606086015262000d31828262000bde565b915050608083015162000d48608086018215159052565b5060a083015162000d5e60a086018260070b9052565b5060c083015162000d7360c086018215159052565b5060e083015184820360e086015262000d8d828262000c0c565b610100858101518051600790810b8984015260208201516001600160a01b03166101208a01526040820151900b61014089015291935091505090949350505050565b600081518084526020808501945080840160005b8381101562000e3e578151805160070b8852838101516001600160a01b03908116858a01526040808301511515908a01526060808301511515908a0152608091820151169088015260a0909601959082019060010162000de3565b509495945050505050565b600081518084526020808501945080840160005b8381101562000e3e5781518051600790810b895284820151810b858a0152604080830151820b908a015260608083015190910b9089015260808082015115159089015260a0908101516001600160a01b03169088015260c0909601959082019060010162000e5d565b600081518084526020808501945080840160005b8381101562000e3e5781518051600790810b895284820151810b858a015260408083015190910b908901526060808201516001600160a01b03908116918a01919091526080808301511515908a015260a091820151169088015260c0909601959082019060010162000eda565b60018060a01b03831681526040602082015260008251604080840152805161012080608086015262000f7e6101a086018362000cc5565b9150602083015162000f9560a087018260070b9052565b506040830151151560c08601526060830151151560e086015260808301518015156101008088019190915260a08501519150607f1980888603018489015262000fdf858462000dcf565b945060c08601519350808886030161014089015262000fff858562000e49565b945060e0860151935080888603016101608901526200101f858562000ec6565b945081860151955080888603016101808901525050505062001042818362000bde565b91505060208401516200105a606085018260030b9052565b50949350505050565b600082198211156200108557634e487b7160e01b600052601160045260246000fd5b500190565b600181811c908216806200109f57607f821691505b60208210811415620010c157634e487b7160e01b600052602260045260246000fd5b50919050565b6080516119e0620010e3600039600061018701526119e06000f3fe608060405234801561001057600080fd5b50600436106101005760003560e01c806370a0823111610097578063b59fc61911610066578063b59fc6191461022e578063b6ef1b5914610254578063cc98587814610267578063dd62ed3e1461026f57600080fd5b806370a08231146101d757806395d89b4114610200578063a457c2d714610208578063a9059cbb1461021b57600080fd5b806323b872dd116100d357806323b872dd1461016d578063313ce56714610180578063330ee0d4146101b157806339509351146101c457600080fd5b806303f5483b1461010557806306fdde031461011a578063095ea7b31461013857806318160ddd1461015b575b600080fd5b610118610113366004610eb2565b6102a8565b005b61012261038f565b60405161012f9190610f02565b60405180910390f35b61014b610146366004610f4a565b610421565b604051901515815260200161012f565b6002545b60405190815260200161012f565b61014b61017b366004610f76565b6104ed565b60405160ff7f000000000000000000000000000000000000000000000000000000000000000016815260200161012f565b6101186101bf366004610eb2565b6105c3565b61014b6101d2366004610f4a565b6106a0565b61015f6101e5366004610fb7565b6001600160a01b031660009081526020819052604090205490565b6101226106e9565b61014b610216366004610f4a565b6106f8565b61014b610229366004610f4a565b610795565b61024161023c366004610fe2565b610860565b60405160079190910b815260200161012f565b610118610262366004610f76565b6108cf565b61014b600181565b61015f61027d366004611046565b6001600160a01b03918216600090815260016020908152604080832093909416825291909152205490565b33610167146102f35760405162461bcd60e51b81526020600482015260126024820152714e4f545f4854535f505245434f4d50494c4560701b60448201526064015b60405180910390fd5b604051633f28a19b60e01b815230600482015260009061016790633f28a19b9060240160006040518083038186803b15801561032e57600080fd5b505afa158015610342573d6000803e3d6000fd5b505050506040513d6000823e601f3d908101601f1916820160405261036a9190810190611793565b80515160400151909250905061038a8167ffffffffffffffff8516610920565b505050565b60606003805461039e9061192c565b80601f01602080910402602001604051908101604052809291908181526020018280546103ca9061192c565b80156104175780601f106103ec57610100808354040283529160200191610417565b820191906000526020600020905b8154815290600101906020018083116103fa57829003601f168201915b5050505050905090565b60405163e459524960e01b81523360048201526001600160a01b03831660248201526044810182905260009081906101679063e459524990606401602060405180830381600087803b15801561047657600080fd5b505af115801561048a573d6000803e3d6000fd5b505050506040513d601f19601f820116820180604052508101906104ae9190611967565b9050600781900b6016146104db5760405163fbe0be3960e01b8152600782900b60048201526024016102ea565b6104e584846109df565b949350505050565b60405163a0ecee3360e01b81523360048201526001600160a01b038085166024830152831660448201526064810182905260009081906101679063a0ecee3390608401602060405180830381600087803b15801561054a57600080fd5b505af115801561055e573d6000803e3d6000fd5b505050506040513d601f19601f820116820180604052508101906105829190611967565b9050600781900b6016146105af5760405163fbe0be3960e01b8152600782900b60048201526024016102ea565b6105ba8585856109ed565b95945050505050565b33610167146106095760405162461bcd60e51b81526020600482015260126024820152714e4f545f4854535f505245434f4d50494c4560701b60448201526064016102ea565b604051633f28a19b60e01b815230600482015260009061016790633f28a19b9060240160006040518083038186803b15801561064457600080fd5b505afa158015610658573d6000803e3d6000fd5b505050506040513d6000823e601f3d908101601f191682016040526106809190810190611793565b80515160400151909250905061038a8167ffffffffffffffff8516610a06565b3360008181526001602090815260408083206001600160a01b03871684529091528120549091906106df90829086906106da908790611984565b610b38565b5060019392505050565b60606004805461039e9061192c565b3360008181526001602090815260408083206001600160a01b03871684529091528120549091908381101561077d5760405162461bcd60e51b815260206004820152602560248201527f45524332303a2064656372656173656420616c6c6f77616e63652062656c6f77604482015264207a65726f60d81b60648201526084016102ea565b61078a8286868403610b38565b506001949350505050565b60405163a0ecee3360e01b81526000600482018190523360248301526001600160a01b0384166044830152606482018390529081906101679063a0ecee3390608401602060405180830381600087803b1580156107f157600080fd5b505af1158015610805573d6000803e3d6000fd5b505050506040513d601f19601f820116820180604052508101906108299190611967565b9050600781900b6016146108565760405163fbe0be3960e01b8152600782900b60048201526024016102ea565b6104e58484610c5c565b600033610167146108a85760405162461bcd60e51b81526020600482015260126024820152714e4f545f4854535f505245434f4d50494c4560701b60448201526064016102ea565b856108b8576108b8848684610c6a565b6108c3848484610cfc565b50601695945050505050565b33610167146109155760405162461bcd60e51b81526020600482015260126024820152714e4f545f4854535f505245434f4d50494c4560701b60448201526064016102ea565b61038a838383610b38565b6001600160a01b0382166109765760405162461bcd60e51b815260206004820152601f60248201527f45524332303a206d696e7420746f20746865207a65726f20616464726573730060448201526064016102ea565b80600260008282546109889190611984565b90915550506001600160a01b038216600081815260208181526040808320805486019055518481527fddf252ad1be2c89b69c2b068fc378daa952ba7f163c4a11628f55a4df523b3ef910160405180910390a35050565b6000336106df818585610b38565b6000336109fb858285610c6a565b61078a858585610cfc565b6001600160a01b038216610a665760405162461bcd60e51b815260206004820152602160248201527f45524332303a206275726e2066726f6d20746865207a65726f206164647265736044820152607360f81b60648201526084016102ea565b6001600160a01b03821660009081526020819052604090205481811015610ada5760405162461bcd60e51b815260206004820152602260248201527f45524332303a206275726e20616d6f756e7420657863656564732062616c616e604482015261636560f01b60648201526084016102ea565b6001600160a01b0383166000818152602081815260408083208686039055600280548790039055518581529192917fddf252ad1be2c89b69c2b068fc378daa952ba7f163c4a11628f55a4df523b3ef910160405180910390a3505050565b6001600160a01b038316610b9a5760405162461bcd60e51b8152602060048201526024808201527f45524332303a20617070726f76652066726f6d20746865207a65726f206164646044820152637265737360e01b60648201526084016102ea565b6001600160a01b038216610bfb5760405162461bcd60e51b815260206004820152602260248201527f45524332303a20617070726f766520746f20746865207a65726f206164647265604482015261737360f01b60648201526084016102ea565b6001600160a01b0383811660008181526001602090815260408083209487168084529482529182902085905590518481527f8c5be1e5ebec7d5bd14f71427d1e84f3dd0314c0f7b2291e5b200ac8c7c3b925910160405180910390a3505050565b6000336106df818585610cfc565b6001600160a01b038381166000908152600160209081526040808320938616835292905220546000198114610cf65781811015610ce95760405162461bcd60e51b815260206004820152601d60248201527f45524332303a20696e73756666696369656e7420616c6c6f77616e636500000060448201526064016102ea565b610cf68484848403610b38565b50505050565b6001600160a01b038316610d605760405162461bcd60e51b815260206004820152602560248201527f45524332303a207472616e736665722066726f6d20746865207a65726f206164604482015264647265737360d81b60648201526084016102ea565b6001600160a01b038216610dc25760405162461bcd60e51b815260206004820152602360248201527f45524332303a207472616e7366657220746f20746865207a65726f206164647260448201526265737360e81b60648201526084016102ea565b6001600160a01b03831660009081526020819052604090205481811015610e3a5760405162461bcd60e51b815260206004820152602660248201527f45524332303a207472616e7366657220616d6f756e7420657863656564732062604482015265616c616e636560d01b60648201526084016102ea565b6001600160a01b03848116600081815260208181526040808320878703905593871680835291849020805487019055925185815290927fddf252ad1be2c89b69c2b068fc378daa952ba7f163c4a11628f55a4df523b3ef910160405180910390a3610cf6565b8060070b8114610eaf57600080fd5b50565b600060208284031215610ec457600080fd5b8135610ecf81610ea0565b9392505050565b60005b83811015610ef1578181015183820152602001610ed9565b83811115610cf65750506000910152565b6020815260008251806020840152610f21816040850160208701610ed6565b601f01601f19169190910160400192915050565b6001600160a01b0381168114610eaf57600080fd5b60008060408385031215610f5d57600080fd5b8235610f6881610f35565b946020939093013593505050565b600080600060608486031215610f8b57600080fd5b8335610f9681610f35565b92506020840135610fa681610f35565b929592945050506040919091013590565b600060208284031215610fc957600080fd5b8135610ecf81610f35565b8015158114610eaf57600080fd5b600080600080600060a08688031215610ffa57600080fd5b853561100581610fd4565b9450602086013561101581610f35565b9350604086013561102581610f35565b9250606086013561103581610f35565b949793965091946080013592915050565b6000806040838503121561105957600080fd5b823561106481610f35565b9150602083013561107481610f35565b809150509250929050565b805161108a81610ea0565b919050565b634e487b7160e01b600052604160045260246000fd5b6040805190810167ffffffffffffffff811182821017156110c8576110c861108f565b60405290565b60405160a0810167ffffffffffffffff811182821017156110c8576110c861108f565b604051610120810167ffffffffffffffff811182821017156110c8576110c861108f565b60405160c0810167ffffffffffffffff811182821017156110c8576110c861108f565b604051601f8201601f1916810167ffffffffffffffff811182821017156111615761116161108f565b604052919050565b600082601f83011261117a57600080fd5b815167ffffffffffffffff8111156111945761119461108f565b6111a7601f8201601f1916602001611138565b8181528460208386010111156111bc57600080fd5b6104e5826020830160208701610ed6565b805161108a81610f35565b805161108a81610fd4565b600067ffffffffffffffff8211156111fd576111fd61108f565b5060051b60200190565b600082601f83011261121857600080fd5b8151602061122d611228836111e3565b611138565b82815260059290921b8401810191818101908684111561124c57600080fd5b8286015b8481101561136257805167ffffffffffffffff8082111561127057600080fd5b908801906040601f19838c03810182131561128a57600080fd5b6112926110a5565b88850151815282850151848111156112a957600080fd5b949094019360a0858e03830112156112c15760008081fd5b6112c96110ce565b9150888501516112d881610fd4565b8252848301516112e781610f35565b828a0152606085810151858111156112ff5760008081fd5b61130d8f8c838a0101611169565b85850152506080935083860151858111156113285760008081fd5b6113368f8c838a0101611169565b82850152505061134860a086016111cd565b928201929092528188015285525050918301918301611250565b509695505050505050565b60006060828403121561137f57600080fd5b6040516060810181811067ffffffffffffffff821117156113a2576113a261108f565b806040525080915082516113b581610ea0565b815260208301516113c581610f35565b602082015260408301516113d881610ea0565b6040919091015292915050565b600061016082840312156113f857600080fd5b6114006110f1565b9050815167ffffffffffffffff8082111561141a57600080fd5b61142685838601611169565b8352602084015191508082111561143c57600080fd5b61144885838601611169565b6020840152611459604085016111cd565b6040840152606084015191508082111561147257600080fd5b61147e85838601611169565b606084015261148f608085016111d8565b60808401526114a060a0850161107f565b60a08401526114b160c085016111d8565b60c084015260e08401519150808211156114ca57600080fd5b506114d784828501611207565b60e0830152506101006114ec8482850161136d565b9082015292915050565b600082601f83011261150757600080fd5b81516020611517611228836111e3565b82815260a0928302850182019282820191908785111561153657600080fd5b8387015b858110156115be5781818a0312156115525760008081fd5b61155a6110ce565b815161156581610ea0565b81528186015161157481610f35565b8187015260408281015161158781610fd4565b9082015260608281015161159a81610fd4565b908201526080828101516115ad81610f35565b90820152845292840192810161153a565b5090979650505050505050565b600082601f8301126115dc57600080fd5b815160206115ec611228836111e3565b82815260c0928302850182019282820191908785111561160b57600080fd5b8387015b858110156115be5781818a0312156116275760008081fd5b61162f611115565b815161163a81610ea0565b81528186015161164981610ea0565b8187015260408281015161165c81610ea0565b9082015260608281015161166f81610ea0565b9082015260808281015161168281610fd4565b9082015260a08281015161169581610f35565b90820152845292840192810161160f565b600082601f8301126116b757600080fd5b815160206116c7611228836111e3565b82815260c092830285018201928282019190878511156116e657600080fd5b8387015b858110156115be5781818a0312156117025760008081fd5b61170a611115565b815161171581610ea0565b81528186015161172481610ea0565b8187015260408281015161173781610ea0565b9082015260608281015161174a81610f35565b9082015260808281015161175d81610fd4565b9082015260a08281015161177081610f35565b9082015284529284019281016116ea565b8051600381900b811461108a57600080fd5b600080604083850312156117a657600080fd5b82516117b181610ea0565b602084015190925067ffffffffffffffff808211156117cf57600080fd5b90840190604082870312156117e357600080fd5b6117eb6110a5565b8251828111156117fa57600080fd5b8301610120818903121561180d57600080fd5b6118156110f1565b81518481111561182457600080fd5b6118308a8285016113e5565b82525061183f6020830161107f565b6020820152611850604083016111d8565b6040820152611861606083016111d8565b6060820152611872608083016111d8565b608082015260a08201518481111561188957600080fd5b6118958a8285016114f6565b60a08301525060c0820151848111156118ad57600080fd5b6118b98a8285016115cb565b60c08301525060e0820151848111156118d157600080fd5b6118dd8a8285016116a6565b60e08301525061010080830151858111156118f757600080fd5b6119038b828601611169565b828401525050808352505061191a60208401611781565b60208201528093505050509250929050565b600181811c9082168061194057607f821691505b6020821081141561196157634e487b7160e01b600052602260045260246000fd5b50919050565b60006020828403121561197957600080fd5b8151610ecf81610ea0565b600082198211156119a557634e487b7160e01b600052601160045260246000fd5b50019056fea2646970667358221220a52695fb3ad49d300b2715fd48812f589b5b0a212fcebe399a091064a99f84f564736f6c6343000809003360806040523480156200001157600080fd5b506040516200381938038062003819833981016040819052620000349162000936565b80518051602091820151815191929091620000569160009190850190620000d6565b5080516200006c906001906020840190620000d6565b505060405163da23fff960e01b81523391506101679063da23fff9906200009a908490869060040162000e10565b600060405180830381600087803b158015620000b557600080fd5b505af1158015620000ca573d6000803e3d6000fd5b50505050505062000f47565b828054620000e49062000f0a565b90600052602060002090601f01602090048101928262000108576000855562000153565b82601f106200012357805160ff191683800117855562000153565b8280016001018555821562000153579182015b828111156200015357825182559160200191906001019062000136565b506200016192915062000165565b5090565b5b8082111562000161576000815560010162000166565b634e487b7160e01b600052604160045260246000fd5b604080519081016001600160401b0381118282101715620001b757620001b76200017c565b60405290565b60405160a081016001600160401b0381118282101715620001b757620001b76200017c565b60405161012081016001600160401b0381118282101715620001b757620001b76200017c565b60405160c081016001600160401b0381118282101715620001b757620001b76200017c565b604051601f8201601f191681016001600160401b03811182821017156200025857620002586200017c565b604052919050565b60005b838110156200027d57818101518382015260200162000263565b838111156200028d576000848401525b50505050565b600082601f830112620002a557600080fd5b81516001600160401b03811115620002c157620002c16200017c565b620002d6601f8201601f19166020016200022d565b818152846020838601011115620002ec57600080fd5b620002ff82602083016020870162000260565b949350505050565b80516001600160a01b03811681146200031f57600080fd5b919050565b805180151581146200031f57600080fd5b8051600781900b81146200031f57600080fd5b60006001600160401b038211156200036457620003646200017c565b5060051b60200190565b600082601f8301126200038057600080fd5b8151602062000399620003938362000348565b6200022d565b82815260059290921b84018101918181019086841115620003b957600080fd5b8286015b84811015620004e05780516001600160401b0380821115620003de57600080fd5b908801906040601f19838c038101821315620003f957600080fd5b6200040362000192565b88850151815282850151848111156200041b57600080fd5b949094019360a0858e0383011215620004345760008081fd5b6200043e620001bd565b91506200044d89860162000324565b82526200045c83860162000307565b8983015260608086015185811115620004755760008081fd5b620004858f8c838a010162000293565b8585015250608093508386015185811115620004a15760008081fd5b620004b18f8c838a010162000293565b828501525050620004c560a0860162000307565b928201929092528188015285525050918301918301620003bd565b509695505050505050565b600060608284031215620004fe57600080fd5b604051606081016001600160401b03811182821017156200052357620005236200017c565b604052905080620005348362000335565b8152620005446020840162000307565b6020820152620005576040840162000335565b60408201525092915050565b600061016082840312156200057757600080fd5b62000581620001e2565b82519091506001600160401b03808211156200059c57600080fd5b620005aa8583860162000293565b83526020840151915080821115620005c157600080fd5b620005cf8583860162000293565b6020840152620005e26040850162000307565b60408401526060840151915080821115620005fc57600080fd5b6200060a8583860162000293565b60608401526200061d6080850162000324565b60808401526200063060a0850162000335565b60a08401526200064360c0850162000324565b60c084015260e08401519150808211156200065d57600080fd5b506200066c848285016200036e565b60e0830152506101006200068384828501620004eb565b9082015292915050565b600082601f8301126200069f57600080fd5b81516020620006b2620003938362000348565b82815260a09283028501820192828201919087851115620006d257600080fd5b8387015b858110156200075f5781818a031215620006f05760008081fd5b620006fa620001bd565b620007058262000335565b81526200071486830162000307565b8682015260406200072781840162000324565b9082015260606200073a83820162000324565b9082015260806200074d83820162000307565b908201528452928401928101620006d6565b5090979650505050505050565b600082601f8301126200077e57600080fd5b8151602062000791620003938362000348565b82815260c09283028501820192828201919087851115620007b157600080fd5b8387015b858110156200075f5781818a031215620007cf5760008081fd5b620007d962000208565b620007e48262000335565b8152620007f386830162000335565b8682015260406200080681840162000335565b9082015260606200081983820162000335565b9082015260806200082c83820162000324565b9082015260a06200083f83820162000307565b908201528452928401928101620007b5565b600082601f8301126200086357600080fd5b8151602062000876620003938362000348565b82815260c092830285018201928282019190878511156200089657600080fd5b8387015b858110156200075f5781818a031215620008b45760008081fd5b620008be62000208565b620008c98262000335565b8152620008d886830162000335565b868201526040620008eb81840162000335565b908201526060620008fe83820162000307565b9082015260806200091183820162000324565b9082015260a06200092483820162000307565b9082015284529284019281016200089a565b6000602082840312156200094957600080fd5b81516001600160401b03808211156200096157600080fd5b9083019061012082860312156200097757600080fd5b62000981620001e2565b8251828111156200099157600080fd5b6200099f8782860162000563565b825250620009b06020840162000335565b6020820152620009c36040840162000324565b6040820152620009d66060840162000324565b6060820152620009e96080840162000324565b608082015260a08301518281111562000a0157600080fd5b62000a0f878286016200068d565b60a08301525060c08301518281111562000a2857600080fd5b62000a36878286016200076c565b60c08301525060e08301518281111562000a4f57600080fd5b62000a5d8782860162000851565b60e083015250610100808401518381111562000a7857600080fd5b62000a868882870162000293565b918301919091525095945050505050565b6000815180845262000ab181602086016020860162000260565b601f01601f19169290920160200192915050565b600081518084526020808501808196508360051b8101915082860160005b8581101562000b8157828403895281516040815186528682015191508087870152815115158187015286820151606060018060a01b03808316828a015283850151935060a09250608083818b015262000b4060e08b018662000a97565b928601518a8403603f1901858c015292945062000b5e858462000a97565b9501511660c0989098019790975250509885019893509084019060010162000ae3565b5091979650505050505050565b6000610160825181855262000ba68286018262000a97565b9150506020830151848203602086015262000bc2828262000a97565b915050604083015162000be060408601826001600160a01b03169052565b506060830151848203606086015262000bfa828262000a97565b915050608083015162000c11608086018215159052565b5060a083015162000c2760a086018260070b9052565b5060c083015162000c3c60c086018215159052565b5060e083015184820360e086015262000c56828262000ac5565b610100858101518051600790810b8984015260208201516001600160a01b03166101208a01526040820151900b61014089015291935091505090949350505050565b600081518084526020808501945080840160005b8381101562000d07578151805160070b8852838101516001600160a01b03908116858a01526040808301511515908a01526060808301511515908a0152608091820151169088015260a0909601959082019060010162000cac565b509495945050505050565b600081518084526020808501945080840160005b8381101562000d075781518051600790810b895284820151810b858a0152604080830151820b908a015260608083015190910b9089015260808082015115159089015260a0908101516001600160a01b03169088015260c0909601959082019060010162000d26565b600081518084526020808501945080840160005b8381101562000d075781518051600790810b895284820151810b858a015260408083015190910b908901526060808201516001600160a01b03908116918a01919091526080808301511515908a015260a091820151169088015260c0909601959082019060010162000da3565b60018060a01b0383168152604060208201526000825161012080604085015262000e3f61016085018362000b8e565b9150602085015162000e56606086018260070b9052565b506040850151801515608086015250606085015180151560a086015250608085015180151560c08601525060a0850151603f19808685030160e087015262000e9f848362000c98565b935060c0870151915061010081878603018188015262000ec0858462000d12565b945060e0880151925081878603018488015262000ede858462000d8f565b9450808801519350508086850301610140870152505062000f00828262000a97565b9695505050505050565b600181811c9082168062000f1f57607f821691505b6020821081141562000f4157634e487b7160e01b600052602260045260246000fd5b50919050565b6128c28062000f576000396000f3fe608060405234801561001057600080fd5b506004361061017d5760003560e01c8063524773ce116100e3578063a22cb4651161008c578063c87b56dd11610066578063c87b56dd14610347578063cc9858781461035a578063e985e9c51461036257600080fd5b8063a22cb4651461030e578063b59fc61914610321578063b88d4fde1461033457600080fd5b806387087728116100bd57806387087728146102e857806395d89b41146102fb5780639659867e1461030357600080fd5b8063524773ce146102a15780636352211e146102c257806370a08231146102d557600080fd5b80630ff14938116101455780633d08925d1161011f5780633d08925d1461024e57806342842e0e1461027b578063430c20811461028e57600080fd5b80630ff149381461021257806318160ddd1461022557806323b872dd1461023b57600080fd5b806301ffc9a71461018257806306e483a5146101aa57806306fdde03146101bf578063081812fc146101d4578063095ea7b3146101ff575b600080fd5b610195610190366004611995565b61039e565b60405190151581526020015b60405180910390f35b6101bd6101b83660046119d6565b6103f0565b005b6101c7610453565b6040516101a19190611a67565b6101e76101e2366004611a7a565b6104e5565b6040516001600160a01b0390911681526020016101a1565b6101bd61020d366004611a93565b61050c565b6101bd610220366004611acd565b6105da565b61022d610630565b6040519081526020016101a1565b6101bd610249366004611b18565b61065d565b61026161025c366004611cd5565b61072b565b60408051600793840b81529190920b6020820152016101a1565b6101bd610289366004611b18565b61085a565b61019561029c366004611a93565b610928565b600654600160401b900460070b5b60405160079190910b81526020016101a1565b6101e76102d0366004611a7a565b61093b565b61022d6102e3366004611d86565b6109a0565b6102af6102f6366004611da3565b610a26565b6101c7610b31565b60065460070b6102af565b6101bd61031c366004611e18565b610b40565b6102af61032f366004611e46565b610c0c565b6101bd610342366004611eaa565b610c8b565b6101c7610355366004611a7a565b610d62565b610195600081565b610195610370366004611f16565b6001600160a01b03918216600090815260056020908152604080832093909416825291909152205460ff1690565b60006001600160e01b031982166380ac58cd60e01b14806103cf57506001600160e01b03198216635b5e139f60e01b145b806103ea57506301ffc9a760e01b6001600160e01b03198316145b92915050565b336101671461043b5760405162461bcd60e51b81526020600482015260126024820152714e4f545f4854535f505245434f4d50494c4560701b60448201526064015b60405180910390fd5b61044f828267ffffffffffffffff16610dd5565b5050565b60606000805461046290611f44565b80601f016020809104026020016040519081016040528092919081815260200182805461048e90611f44565b80156104db5780601f106104b0576101008083540402835291602001916104db565b820191906000526020600020905b8154815290600101906020018083116104be57829003601f168201915b5050505050905090565b60006104f082610e43565b506000908152600460205260409020546001600160a01b031690565b60405163e459524960e01b815233600482018190526001600160a01b0384166024830152604482018390529083906000906101679063e459524990606401602060405180830381600087803b15801561056457600080fd5b505af1158015610578573d6000803e3d6000fd5b505050506040513d601f19601f8201168201806040525081019061059c9190611f8f565b9050600781900b6016146105c95760405163fbe0be3960e01b8152600782900b6004820152602401610432565b6105d38585610eaa565b5050505050565b33610167146106205760405162461bcd60e51b81526020600482015260126024820152714e4f545f4854535f505245434f4d50494c4560701b6044820152606401610432565b61062b838383610fbb565b505050565b60065460009061064e90600160401b8104600790810b91900b611fc2565b67ffffffffffffffff16905090565b60405163a0ecee3360e01b815233600482018190526001600160a01b0380861660248401528416604483015260648201839052906000906101679063a0ecee3390608401602060405180830381600087803b1580156106bb57600080fd5b505af11580156106cf573d6000803e3d6000fd5b505050506040513d601f19601f820116820180604052508101906106f39190611f8f565b9050600781900b6016146107205760405163fbe0be3960e01b8152600782900b6004820152602401610432565b6105d385858561108a565b60008033610167146107745760405162461bcd60e51b81526020600482015260126024820152714e4f545f4854535f505245434f4d50494c4560701b6044820152606401610432565b604051631f69565f60e01b815230600482015260009061016790631f69565f9060240160006040518083038186803b1580156107af57600080fd5b505afa1580156107c3573d6000803e3d6000fd5b505050506040513d6000823e601f3d908101601f191682016040526107eb91908101906125e4565b805160400151600680549294509092509060009061080b9060070b61273e565b91906101000a81548167ffffffffffffffff021916908360070b67ffffffffffffffff16021790559250610849818467ffffffffffffffff16611101565b610851610630565b93505050915091565b60405163a0ecee3360e01b815233600482018190526001600160a01b0380861660248401528416604483015260648201839052906000906101679063a0ecee3390608401602060405180830381600087803b1580156108b857600080fd5b505af11580156108cc573d6000803e3d6000fd5b505050506040513d601f19601f820116820180604052508101906108f09190611f8f565b9050600781900b60161461091d5760405163fbe0be3960e01b8152600782900b6004820152602401610432565b6105d385858561128c565b600061093483836112a7565b9392505050565b6000818152600260205260408120546001600160a01b0316806103ea5760405162461bcd60e51b815260206004820152601860248201527f4552433732313a20696e76616c696420746f6b656e20494400000000000000006044820152606401610432565b60006001600160a01b038216610a0a5760405162461bcd60e51b815260206004820152602960248201527f4552433732313a2061646472657373207a65726f206973206e6f7420612076616044820152683634b21037bbb732b960b91b6064820152608401610432565b506001600160a01b031660009081526003602052604090205490565b60003361016714610a6e5760405162461bcd60e51b81526020600482015260126024820152714e4f545f4854535f505245434f4d50494c4560701b6044820152606401610432565b6006548290610a88908290600160401b900460070b612765565b6006805467ffffffffffffffff92909216600160401b026fffffffffffffffff00000000000000001990921691909117905560005b8167ffffffffffffffff16811015610b20576000858583818110610ae357610ae36127b6565b9050602002016020810190610af891906127cc565b67ffffffffffffffff169050610b0d81611325565b5080610b18816127e9565b915050610abd565b50610b29610630565b949350505050565b60606001805461046290611f44565b6040516329aabad960e11b815233600482018190526001600160a01b03841660248301528215156044830152906000906101679063535575b290606401602060405180830381600087803b158015610b9757600080fd5b505af1158015610bab573d6000803e3d6000fd5b505050506040513d601f19601f82011682018060405250810190610bcf9190611f8f565b9050600781900b601614610bfc5760405163fbe0be3960e01b8152600782900b6004820152602401610432565b610c0684846113ba565b50505050565b60003361016714610c545760405162461bcd60e51b81526020600482015260126024820152714e4f545f4854535f505245434f4d50494c4560701b6044820152606401610432565b6000610c6086846112a7565b905080610c71575060b29050610c82565b610c7c8585856113c5565b50601690505b95945050505050565b60405163a0ecee3360e01b815233600482018190526001600160a01b0380871660248401528516604483015260648201849052906000906101679063a0ecee3390608401602060405180830381600087803b158015610ce957600080fd5b505af1158015610cfd573d6000803e3d6000fd5b505050506040513d601f19601f82011682018060405250810190610d219190611f8f565b9050600781900b601614610d4e5760405163fbe0be3960e01b8152600782900b6004820152602401610432565b610d5a868686866115a5565b505050505050565b6060610d6d82610e43565b6000610d8460408051602081019091526000815290565b90506000815111610da45760405180602001604052806000815250610934565b80610dae8461161d565b604051602001610dbf929190612804565b6040516020818303038152906040529392505050565b600081815260046020526040902080546001600160a01b0319166001600160a01b0384169081179091558190610e0a8261093b565b6001600160a01b03167f8c5be1e5ebec7d5bd14f71427d1e84f3dd0314c0f7b2291e5b200ac8c7c3b92560405160405180910390a45050565b6000818152600260205260409020546001600160a01b0316610ea75760405162461bcd60e51b815260206004820152601860248201527f4552433732313a20696e76616c696420746f6b656e20494400000000000000006044820152606401610432565b50565b6000610eb58261093b565b9050806001600160a01b0316836001600160a01b03161415610f235760405162461bcd60e51b815260206004820152602160248201527f4552433732313a20617070726f76616c20746f2063757272656e74206f776e656044820152603960f91b6064820152608401610432565b336001600160a01b0382161480610f3f5750610f3f8133610370565b610fb15760405162461bcd60e51b815260206004820152603d60248201527f4552433732313a20617070726f76652063616c6c6572206973206e6f7420746f60448201527f6b656e206f776e6572206f7220617070726f76656420666f7220616c6c0000006064820152608401610432565b61062b8383610dd5565b816001600160a01b0316836001600160a01b0316141561101d5760405162461bcd60e51b815260206004820152601960248201527f4552433732313a20617070726f766520746f2063616c6c6572000000000000006044820152606401610432565b6001600160a01b03838116600081815260056020908152604080832094871680845294825291829020805460ff191686151590811790915591519182527f17307eab39ab6107e8899845ad3d59bd9653f200f220920489ca2b5937696c31910160405180910390a3505050565b61109433826112a7565b6110f65760405162461bcd60e51b815260206004820152602d60248201527f4552433732313a2063616c6c6572206973206e6f7420746f6b656e206f776e6560448201526c1c881bdc88185c1c1c9bdd9959609a1b6064820152608401610432565b61062b8383836113c5565b6001600160a01b0382166111575760405162461bcd60e51b815260206004820181905260248201527f4552433732313a206d696e7420746f20746865207a65726f20616464726573736044820152606401610432565b6000818152600260205260409020546001600160a01b0316156111bc5760405162461bcd60e51b815260206004820152601c60248201527f4552433732313a20746f6b656e20616c7265616479206d696e746564000000006044820152606401610432565b6000818152600260205260409020546001600160a01b0316156112215760405162461bcd60e51b815260206004820152601c60248201527f4552433732313a20746f6b656e20616c7265616479206d696e746564000000006044820152606401610432565b6001600160a01b038216600081815260036020908152604080832080546001019055848352600290915280822080546001600160a01b0319168417905551839291907fddf252ad1be2c89b69c2b068fc378daa952ba7f163c4a11628f55a4df523b3ef908290a45050565b61062b83838360405180602001604052806000815250610c8b565b6000806112b38361093b565b9050806001600160a01b0316846001600160a01b031614806112fa57506001600160a01b0380821660009081526005602090815260408083209388168352929052205460ff165b80610b295750836001600160a01b0316611313846104e5565b6001600160a01b031614949350505050565b60006113308261093b565b905061133b8261093b565b600083815260046020908152604080832080546001600160a01b03199081169091556001600160a01b0385168085526003845282852080546000190190558785526002909352818420805490911690555192935084927fddf252ad1be2c89b69c2b068fc378daa952ba7f163c4a11628f55a4df523b3ef908390a45050565b61044f338383610fbb565b826001600160a01b03166113d88261093b565b6001600160a01b03161461143c5760405162461bcd60e51b815260206004820152602560248201527f4552433732313a207472616e736665722066726f6d20696e636f72726563742060448201526437bbb732b960d91b6064820152608401610432565b6001600160a01b03821661149e5760405162461bcd60e51b8152602060048201526024808201527f4552433732313a207472616e7366657220746f20746865207a65726f206164646044820152637265737360e01b6064820152608401610432565b826001600160a01b03166114b18261093b565b6001600160a01b0316146115155760405162461bcd60e51b815260206004820152602560248201527f4552433732313a207472616e736665722066726f6d20696e636f72726563742060448201526437bbb732b960d91b6064820152608401610432565b600081815260046020908152604080832080546001600160a01b03199081169091556001600160a01b0387811680865260038552838620805460001901905590871680865283862080546001019055868652600290945282852080549092168417909155905184937fddf252ad1be2c89b69c2b068fc378daa952ba7f163c4a11628f55a4df523b3ef91a4505050565b6115af33836112a7565b6116115760405162461bcd60e51b815260206004820152602d60248201527f4552433732313a2063616c6c6572206973206e6f7420746f6b656e206f776e6560448201526c1c881bdc88185c1c1c9bdd9959609a1b6064820152608401610432565b610c06848484846116c7565b6060600061162a83611745565b600101905060008167ffffffffffffffff81111561164a5761164a611b59565b6040519080825280601f01601f191660200182016040528015611674576020820181803683370190505b5090508181016020015b600019017f3031323334353637383961626364656600000000000000000000000000000000600a86061a8153600a85049450846116ba576116bf565b61167e565b509392505050565b6116d28484846113c5565b6116de84848484611827565b610c065760405162461bcd60e51b815260206004820152603260248201527f4552433732313a207472616e7366657220746f206e6f6e20455243373231526560448201527131b2b4bb32b91034b6b83632b6b2b73a32b960711b6064820152608401610432565b6000807a184f03e93ff9f4daa797ed6e38ed64bf6a1f010000000000000000831061178e577a184f03e93ff9f4daa797ed6e38ed64bf6a1f010000000000000000830492506040015b6d04ee2d6d415b85acef810000000083106117ba576d04ee2d6d415b85acef8100000000830492506020015b662386f26fc1000083106117d857662386f26fc10000830492506010015b6305f5e10083106117f0576305f5e100830492506008015b612710831061180457612710830492506004015b60648310611816576064830492506002015b600a83106103ea5760010192915050565b60006001600160a01b0384163b1561197457604051630a85bd0160e11b81526001600160a01b0385169063150b7a029061186b903390899088908890600401612833565b602060405180830381600087803b15801561188557600080fd5b505af19250505080156118b5575060408051601f3d908101601f191682019092526118b29181019061286f565b60015b61195a573d8080156118e3576040519150601f19603f3d011682016040523d82523d6000602084013e6118e8565b606091505b5080516119525760405162461bcd60e51b815260206004820152603260248201527f4552433732313a207472616e7366657220746f206e6f6e20455243373231526560448201527131b2b4bb32b91034b6b83632b6b2b73a32b960711b6064820152608401610432565b805181602001fd5b6001600160e01b031916630a85bd0160e11b149050610b29565b506001949350505050565b6001600160e01b031981168114610ea757600080fd5b6000602082840312156119a757600080fd5b81356109348161197f565b6001600160a01b0381168114610ea757600080fd5b8060070b8114610ea757600080fd5b600080604083850312156119e957600080fd5b82356119f4816119b2565b91506020830135611a04816119c7565b809150509250929050565b60005b83811015611a2a578181015183820152602001611a12565b83811115610c065750506000910152565b60008151808452611a53816020860160208601611a0f565b601f01601f19169290920160200192915050565b6020815260006109346020830184611a3b565b600060208284031215611a8c57600080fd5b5035919050565b60008060408385031215611aa657600080fd5b8235611ab1816119b2565b946020939093013593505050565b8015158114610ea757600080fd5b600080600060608486031215611ae257600080fd5b8335611aed816119b2565b92506020840135611afd816119b2565b91506040840135611b0d81611abf565b809150509250925092565b600080600060608486031215611b2d57600080fd5b8335611b38816119b2565b92506020840135611b48816119b2565b929592945050506040919091013590565b634e487b7160e01b600052604160045260246000fd5b6040805190810167ffffffffffffffff81118282101715611b9257611b92611b59565b60405290565b60405160a0810167ffffffffffffffff81118282101715611b9257611b92611b59565b604051610120810167ffffffffffffffff81118282101715611b9257611b92611b59565b60405160c0810167ffffffffffffffff81118282101715611b9257611b92611b59565b604051601f8201601f1916810167ffffffffffffffff81118282101715611c2b57611c2b611b59565b604052919050565b600067ffffffffffffffff821115611c4d57611c4d611b59565b5060051b60200190565b600067ffffffffffffffff821115611c7157611c71611b59565b50601f01601f191660200190565b600082601f830112611c9057600080fd5b8135611ca3611c9e82611c57565b611c02565b818152846020838601011115611cb857600080fd5b816020850160208301376000918101602001919091529392505050565b60006020808385031215611ce857600080fd5b823567ffffffffffffffff80821115611d0057600080fd5b818501915085601f830112611d1457600080fd5b8135611d22611c9e82611c33565b81815260059190911b83018401908481019088831115611d4157600080fd5b8585015b83811015611d7957803585811115611d5d5760008081fd5b611d6b8b89838a0101611c7f565b845250918601918601611d45565b5098975050505050505050565b600060208284031215611d9857600080fd5b8135610934816119b2565b60008060208385031215611db657600080fd5b823567ffffffffffffffff80821115611dce57600080fd5b818501915085601f830112611de257600080fd5b813581811115611df157600080fd5b8660208260051b8501011115611e0657600080fd5b60209290920196919550909350505050565b60008060408385031215611e2b57600080fd5b8235611e36816119b2565b91506020830135611a0481611abf565b600080600080600060a08688031215611e5e57600080fd5b8535611e6981611abf565b94506020860135611e79816119b2565b93506040860135611e89816119b2565b92506060860135611e99816119b2565b949793965091946080013592915050565b60008060008060808587031215611ec057600080fd5b8435611ecb816119b2565b93506020850135611edb816119b2565b925060408501359150606085013567ffffffffffffffff811115611efe57600080fd5b611f0a87828801611c7f565b91505092959194509250565b60008060408385031215611f2957600080fd5b8235611f34816119b2565b91506020830135611a04816119b2565b600181811c90821680611f5857607f821691505b60208210811415611f7957634e487b7160e01b600052602260045260246000fd5b50919050565b8051611f8a816119c7565b919050565b600060208284031215611fa157600080fd5b8151610934816119c7565b634e487b7160e01b600052601160045260246000fd5b60008160070b8360070b6000811281677fffffffffffffff1901831281151615611fee57611fee611fac565b81677fffffffffffffff01831381161561200a5761200a611fac565b5090039392505050565b600082601f83011261202557600080fd5b8151612033611c9e82611c57565b81815284602083860101111561204857600080fd5b610b29826020830160208701611a0f565b8051611f8a816119b2565b8051611f8a81611abf565b600082601f83011261208057600080fd5b81516020612090611c9e83611c33565b82815260059290921b840181019181810190868411156120af57600080fd5b8286015b848110156121c557805167ffffffffffffffff808211156120d357600080fd5b908801906040601f19838c0381018213156120ed57600080fd5b6120f5611b6f565b888501518152828501518481111561210c57600080fd5b949094019360a0858e03830112156121245760008081fd5b61212c611b98565b91508885015161213b81611abf565b82528483015161214a816119b2565b828a0152606085810151858111156121625760008081fd5b6121708f8c838a0101612014565b858501525060809350838601518581111561218b5760008081fd5b6121998f8c838a0101612014565b8285015250506121ab60a08601612059565b9282019290925281880152855250509183019183016120b3565b509695505050505050565b6000606082840312156121e257600080fd5b6040516060810181811067ffffffffffffffff8211171561220557612205611b59565b80604052508091508251612218816119c7565b81526020830151612228816119b2565b6020820152604083015161223b816119c7565b6040919091015292915050565b6000610160828403121561225b57600080fd5b612263611bbb565b9050815167ffffffffffffffff8082111561227d57600080fd5b61228985838601612014565b8352602084015191508082111561229f57600080fd5b6122ab85838601612014565b60208401526122bc60408501612059565b604084015260608401519150808211156122d557600080fd5b6122e185838601612014565b60608401526122f260808501612064565b608084015261230360a08501611f7f565b60a084015261231460c08501612064565b60c084015260e084015191508082111561232d57600080fd5b5061233a8482850161206f565b60e08301525061010061234f848285016121d0565b9082015292915050565b600082601f83011261236a57600080fd5b8151602061237a611c9e83611c33565b82815260a0928302850182019282820191908785111561239957600080fd5b8387015b858110156124215781818a0312156123b55760008081fd5b6123bd611b98565b81516123c8816119c7565b8152818601516123d7816119b2565b818701526040828101516123ea81611abf565b908201526060828101516123fd81611abf565b90820152608082810151612410816119b2565b90820152845292840192810161239d565b5090979650505050505050565b600082601f83011261243f57600080fd5b8151602061244f611c9e83611c33565b82815260c0928302850182019282820191908785111561246e57600080fd5b8387015b858110156124215781818a03121561248a5760008081fd5b612492611bdf565b815161249d816119c7565b8152818601516124ac816119c7565b818701526040828101516124bf816119c7565b908201526060828101516124d2816119c7565b908201526080828101516124e581611abf565b9082015260a0828101516124f8816119b2565b908201528452928401928101612472565b600082601f83011261251a57600080fd5b8151602061252a611c9e83611c33565b82815260c0928302850182019282820191908785111561254957600080fd5b8387015b858110156124215781818a0312156125655760008081fd5b61256d611bdf565b8151612578816119c7565b815281860151612587816119c7565b8187015260408281015161259a816119c7565b908201526060828101516125ad816119b2565b908201526080828101516125c081611abf565b9082015260a0828101516125d3816119b2565b90820152845292840192810161254d565b600080604083850312156125f757600080fd5b8251612602816119c7565b602084015190925067ffffffffffffffff8082111561262057600080fd5b90840190610120828703121561263557600080fd5b61263d611bbb565b82518281111561264c57600080fd5b61265888828601612248565b82525061266760208401611f7f565b602082015261267860408401612064565b604082015261268960608401612064565b606082015261269a60808401612064565b608082015260a0830151828111156126b157600080fd5b6126bd88828601612359565b60a08301525060c0830151828111156126d557600080fd5b6126e18882860161242e565b60c08301525060e0830151828111156126f957600080fd5b61270588828601612509565b60e083015250610100808401518381111561271f57600080fd5b61272b89828701612014565b8284015250508093505050509250929050565b60008160070b677fffffffffffffff81141561275c5761275c611fac565b60010192915050565b60008160070b8360070b6000821282677fffffffffffffff0382138115161561279057612790611fac565b82677fffffffffffffff190382128116156127ad576127ad611fac565b50019392505050565b634e487b7160e01b600052603260045260246000fd5b6000602082840312156127de57600080fd5b8135610934816119c7565b60006000198214156127fd576127fd611fac565b5060010190565b60008351612816818460208801611a0f565b83519083019061282a818360208801611a0f565b01949350505050565b60006001600160a01b038087168352808616602084015250836040830152608060608301526128656080830184611a3b565b9695505050505050565b60006020828403121561288157600080fd5b81516109348161197f56fea26469706673582212207babbf556d0de1771dcf114fe429864a7baef48cf2dbee4c25a17d8f0c7a0bcb64736f6c63430008090033a2646970667358221220ca98b2ef20939aa58e1c4588e547d99670f56fbc93f55314e25e279442c9a99164736f6c63430008090033",
  "linkReferences": {},
  "deployedLinkReferences": {}
}