{
  "_format": "hh-sol-artifact-1",
  "contractName": "HtsPrecompileMock",
  "sourceName": "contracts/mocks/hts-precompile/HtsPrecompileMock.sol",
  "abi": [
    {
      "inputs": [],
      "stateMutability": "nonpayable",
      "type": "constructor"
    },
    {
      "inputs": [
        {
          "internalType": "int64",
          "name": "responseCode",
          "type": "int64"
        }
      ],
      "name": "HtsPrecompileError",
      "type": "error"
    },
    {
      "inputs": [
        {
          "internalType": "address",
          "name": "token",
          "type": "address"
        },
        {
          "internalType": "address",
          "name": "owner",
          "type": "address"
        },
        {
          "internalType": "address",
          "name": "spender",
          "type": "address"
        }
      ],
      "name": "allowance",
      "outputs": [
        {
          "internalType": "int64",
          "name": "responseCode",
          "type": "int64"
        },
        {
          "internalType": "uint256",
          "name": "allowance",
          "type": "uint256"
        }
      ],
      "stateMutability": "view",
      "type": "function"
    },
    {
      "inputs": [
        {
          "internalType": "address",
          "name": "token",
          "type": "address"
        },
        {
          "internalType": "address",
          "name": "spender",
          "type": "address"
        },
        {
          "internalType": "uint256",
          "name": "amount",
          "type": "uint256"
        }
      ],
      "name": "approve",
      "outputs": [
        {
          "internalType": "int64",
          "name": "responseCode",
          "type": "int64"
        }
      ],
      "stateMutability": "nonpayable",
      "type": "function"
    },
    {
      "inputs": [
        {
          "internalType": "address",
          "name": "token",
          "type": "address"
        },
        {
          "internalType": "address",
          "name": "approved",
          "type": "address"
        },
        {
          "internalType": "uint256",
          "name": "serialNumber",
          "type": "uint256"
        }
      ],
      "name": "approveNFT",
      "outputs": [
        {
          "internalType": "int64",
          "name": "responseCode",
          "type": "int64"
        }
      ],
      "stateMutability": "nonpayable",
      "type": "function"
    },
    {
      "inputs": [
        {
          "internalType": "address",
          "name": "account",
          "type": "address"
        },
        {
          "internalType": "address",
          "name": "token",
          "type": "address"
        }
      ],
      "name": "associateToken",
      "outputs": [
        {
          "internalType": "int64",
          "name": "responseCode",
          "type": "int64"
        }
      ],
      "stateMutability": "nonpayable",
      "type": "function"
    },
    {
      "inputs": [
        {
          "internalType": "address",
          "name": "account",
          "type": "address"
        },
        {
          "internalType": "address[]",
          "name": "tokens",
          "type": "address[]"
        }
      ],
      "name": "associateTokens",
      "outputs": [
        {
          "internalType": "int64",
          "name": "responseCode",
          "type": "int64"
        }
      ],
      "stateMutability": "nonpayable",
      "type": "function"
    },
    {
      "inputs": [
        {
          "internalType": "address",
          "name": "token",
          "type": "address"
        },
        {
          "internalType": "int64",
          "name": "amount",
          "type": "int64"
        },
        {
          "internalType": "int64[]",
          "name": "serialNumbers",
          "type": "int64[]"
        }
      ],
      "name": "burnToken",
      "outputs": [
        {
          "internalType": "int64",
          "name": "responseCode",
          "type": "int64"
        },
        {
          "internalType": "int64",
          "name": "newTotalSupply",
          "type": "int64"
        }
      ],
      "stateMutability": "nonpayable",
      "type": "function"
    },
    {
      "inputs": [
        {
          "components": [
            {
              "internalType": "string",
              "name": "name",
              "type": "string"
            },
            {
              "internalType": "string",
              "name": "symbol",
              "type": "string"
            },
            {
              "internalType": "address",
              "name": "treasury",
              "type": "address"
            },
            {
              "internalType": "string",
              "name": "memo",
              "type": "string"
            },
            {
              "internalType": "bool",
              "name": "tokenSupplyType",
              "type": "bool"
            },
            {
              "internalType": "int64",
              "name": "maxSupply",
              "type": "int64"
            },
            {
              "internalType": "bool",
              "name": "freezeDefault",
              "type": "bool"
            },
            {
              "components": [
                {
                  "internalType": "uint256",
                  "name": "keyType",
                  "type": "uint256"
                },
                {
                  "components": [
                    {
                      "internalType": "bool",
                      "name": "inheritAccountKey",
                      "type": "bool"
                    },
                    {
                      "internalType": "address",
                      "name": "contractId",
                      "type": "address"
                    },
                    {
                      "internalType": "bytes",
                      "name": "ed25519",
                      "type": "bytes"
                    },
                    {
                      "internalType": "bytes",
                      "name": "ECDSA_secp256k1",
                      "type": "bytes"
                    },
                    {
                      "internalType": "address",
                      "name": "delegatableContractId",
                      "type": "address"
                    }
                  ],
                  "internalType": "struct IHederaTokenService.KeyValue",
                  "name": "key",
                  "type": "tuple"
                }
              ],
              "internalType": "struct IHederaTokenService.TokenKey[]",
              "name": "tokenKeys",
              "type": "tuple[]"
            },
            {
              "components": [
                {
                  "internalType": "int64",
                  "name": "second",
                  "type": "int64"
                },
                {
                  "internalType": "address",
                  "name": "autoRenewAccount",
                  "type": "address"
                },
                {
                  "internalType": "int64",
                  "name": "autoRenewPeriod",
                  "type": "int64"
                }
              ],
              "internalType": "struct IHederaTokenService.Expiry",
              "name": "expiry",
              "type": "tuple"
            }
          ],
          "internalType": "struct IHederaTokenService.HederaToken",
          "name": "token",
          "type": "tuple"
        },
        {
          "internalType": "int64",
          "name": "initialTotalSupply",
          "type": "int64"
        },
        {
          "internalType": "int32",
          "name": "decimals",
          "type": "int32"
        }
      ],
      "name": "createFungibleToken",
      "outputs": [
        {
          "internalType": "int64",
          "name": "responseCode",
          "type": "int64"
        },
        {
          "internalType": "address",
          "name": "tokenAddress",
          "type": "address"
        }
      ],
      "stateMutability": "payable",
      "type": "function"
    },
    {
      "inputs": [
        {
          "components": [
            {
              "internalType": "string",
              "name": "name",
              "type": "string"
            },
            {
              "internalType": "string",
              "name": "symbol",
              "type": "string"
            },
            {
              "internalType": "address",
              "name": "treasury",
              "type": "address"
            },
            {
              "internalType": "string",
              "name": "memo",
              "type": "string"
            },
            {
              "internalType": "bool",
              "name": "tokenSupplyType",
              "type": "bool"
            },
            {
              "internalType": "int64",
              "name": "maxSupply",
              "type": "int64"
            },
            {
              "internalType": "bool",
              "name": "freezeDefault",
              "type": "bool"
            },
            {
              "components": [
                {
                  "internalType": "uint256",
                  "name": "keyType",
                  "type": "uint256"
                },
                {
                  "components": [
                    {
                      "internalType": "bool",
                      "name": "inheritAccountKey",
                      "type": "bool"
                    },
                    {
                      "internalType": "address",
                      "name": "contractId",
                      "type": "address"
                    },
                    {
                      "internalType": "bytes",
                      "name": "ed25519",
                      "type": "bytes"
                    },
                    {
                      "internalType": "bytes",
                      "name": "ECDSA_secp256k1",
                      "type": "bytes"
                    },
                    {
                      "internalType": "address",
                      "name": "delegatableContractId",
                      "type": "address"
                    }
                  ],
                  "internalType": "struct IHederaTokenService.KeyValue",
                  "name": "key",
                  "type": "tuple"
                }
              ],
              "internalType": "struct IHederaTokenService.TokenKey[]",
              "name": "tokenKeys",
              "type": "tuple[]"
            },
            {
              "components": [
                {
                  "internalType": "int64",
                  "name": "second",
                  "type": "int64"
                },
                {
                  "internalType": "address",
                  "name": "autoRenewAccount",
                  "type": "address"
                },
                {
                  "internalType": "int64",
                  "name": "autoRenewPeriod",
                  "type": "int64"
                }
              ],
              "internalType": "struct IHederaTokenService.Expiry",
              "name": "expiry",
              "type": "tuple"
            }
          ],
          "internalType": "struct IHederaTokenService.HederaToken",
          "name": "token",
          "type": "tuple"
        },
        {
          "internalType": "int64",
          "name": "initialTotalSupply",
          "type": "int64"
        },
        {
          "internalType": "int32",
          "name": "decimals",
          "type": "int32"
        },
        {
          "components": [
            {
              "internalType": "int64",
              "name": "amount",
              "type": "int64"
            },
            {
              "internalType": "address",
              "name": "tokenId",
              "type": "address"
            },
            {
              "internalType": "bool",
              "name": "useHbarsForPayment",
              "type": "bool"
            },
            {
              "internalType": "bool",
              "name": "useCurrentTokenForPayment",
              "type": "bool"
            },
            {
              "internalType": "address",
              "name": "feeCollector",
              "type": "address"
            }
          ],
          "internalType": "struct IHederaTokenService.FixedFee[]",
          "name": "fixedFees",
          "type": "tuple[]"
        },
        {
          "components": [
            {
              "internalType": "int64",
              "name": "numerator",
              "type": "int64"
            },
            {
              "internalType": "int64",
              "name": "denominator",
              "type": "int64"
            },
            {
              "internalType": "int64",
              "name": "minimumAmount",
              "type": "int64"
            },
            {
              "internalType": "int64",
              "name": "maximumAmount",
              "type": "int64"
            },
            {
              "internalType": "bool",
              "name": "netOfTransfers",
              "type": "bool"
            },
            {
              "internalType": "address",
              "name": "feeCollector",
              "type": "address"
            }
          ],
          "internalType": "struct IHederaTokenService.FractionalFee[]",
          "name": "fractionalFees",
          "type": "tuple[]"
        }
      ],
      "name": "createFungibleTokenWithCustomFees",
      "outputs": [
        {
          "internalType": "int64",
          "name": "responseCode",
          "type": "int64"
        },
        {
          "internalType": "address",
          "name": "tokenAddress",
          "type": "address"
        }
      ],
      "stateMutability": "payable",
      "type": "function"
    },
    {
      "inputs": [
        {
          "components": [
            {
              "internalType": "string",
              "name": "name",
              "type": "string"
            },
            {
              "internalType": "string",
              "name": "symbol",
              "type": "string"
            },
            {
              "internalType": "address",
              "name": "treasury",
              "type": "address"
            },
            {
              "internalType": "string",
              "name": "memo",
              "type": "string"
            },
            {
              "internalType": "bool",
              "name": "tokenSupplyType",
              "type": "bool"
            },
            {
              "internalType": "int64",
              "name": "maxSupply",
              "type": "int64"
            },
            {
              "internalType": "bool",
              "name": "freezeDefault",
              "type": "bool"
            },
            {
              "components": [
                {
                  "internalType": "uint256",
                  "name": "keyType",
                  "type": "uint256"
                },
                {
                  "components": [
                    {
                      "internalType": "bool",
                      "name": "inheritAccountKey",
                      "type": "bool"
                    },
                    {
                      "internalType": "address",
                      "name": "contractId",
                      "type": "address"
                    },
                    {
                      "internalType": "bytes",
                      "name": "ed25519",
                      "type": "bytes"
                    },
                    {
                      "internalType": "bytes",
                      "name": "ECDSA_secp256k1",
                      "type": "bytes"
                    },
                    {
                      "internalType": "address",
                      "name": "delegatableContractId",
                      "type": "address"
                    }
                  ],
                  "internalType": "struct IHederaTokenService.KeyValue",
                  "name": "key",
                  "type": "tuple"
                }
              ],
              "internalType": "struct IHederaTokenService.TokenKey[]",
              "name": "tokenKeys",
              "type": "tuple[]"
            },
            {
              "components": [
                {
                  "internalType": "int64",
                  "name": "second",
                  "type": "int64"
                },
                {
                  "internalType": "address",
                  "name": "autoRenewAccount",
                  "type": "address"
                },
                {
                  "internalType": "int64",
                  "name": "autoRenewPeriod",
                  "type": "int64"
                }
              ],
              "internalType": "struct IHederaTokenService.Expiry",
              "name": "expiry",
              "type": "tuple"
            }
          ],
          "internalType": "struct IHederaTokenService.HederaToken",
          "name": "token",
          "type": "tuple"
        }
      ],
      "name": "createNonFungibleToken",
      "outputs": [
        {
          "internalType": "int64",
          "name": "responseCode",
          "type": "int64"
        },
        {
          "internalType": "address",
          "name": "tokenAddress",
          "type": "address"
        }
      ],
      "stateMutability": "payable",
      "type": "function"
    },
    {
      "inputs": [
        {
          "components": [
            {
              "internalType": "string",
              "name": "name",
              "type": "string"
            },
            {
              "internalType": "string",
              "name": "symbol",
              "type": "string"
            },
            {
              "internalType": "address",
              "name": "treasury",
              "type": "address"
            },
            {
              "internalType": "string",
              "name": "memo",
              "type": "string"
            },
            {
              "internalType": "bool",
              "name": "tokenSupplyType",
              "type": "bool"
            },
            {
              "internalType": "int64",
              "name": "maxSupply",
              "type": "int64"
            },
            {
              "internalType": "bool",
              "name": "freezeDefault",
              "type": "bool"
            },
            {
              "components": [
                {
                  "internalType": "uint256",
                  "name": "keyType",
                  "type": "uint256"
                },
                {
                  "components": [
                    {
                      "internalType": "bool",
                      "name": "inheritAccountKey",
                      "type": "bool"
                    },
                    {
                      "internalType": "address",
                      "name": "contractId",
                      "type": "address"
                    },
                    {
                      "internalType": "bytes",
                      "name": "ed25519",
                      "type": "bytes"
                    },
                    {
                      "internalType": "bytes",
                      "name": "ECDSA_secp256k1",
                      "type": "bytes"
                    },
                    {
                      "internalType": "address",
                      "name": "delegatableContractId",
                      "type": "address"
                    }
                  ],
                  "internalType": "struct IHederaTokenService.KeyValue",
                  "name": "key",
                  "type": "tuple"
                }
              ],
              "internalType": "struct IHederaTokenService.TokenKey[]",
              "name": "tokenKeys",
              "type": "tuple[]"
            },
            {
              "components": [
                {
                  "internalType": "int64",
                  "name": "second",
                  "type": "int64"
                },
                {
                  "internalType": "address",
                  "name": "autoRenewAccount",
                  "type": "address"
                },
                {
                  "internalType": "int64",
                  "name": "autoRenewPeriod",
                  "type": "int64"
                }
              ],
              "internalType": "struct IHederaTokenService.Expiry",
              "name": "expiry",
              "type": "tuple"
            }
          ],
          "internalType": "struct IHederaTokenService.HederaToken",
          "name": "token",
          "type": "tuple"
        },
        {
          "components": [
            {
              "internalType": "int64",
              "name": "amount",
              "type": "int64"
            },
            {
              "internalType": "address",
              "name": "tokenId",
              "type": "address"
            },
            {
              "internalType": "bool",
              "name": "useHbarsForPayment",
              "type": "bool"
            },
            {
              "internalType": "bool",
              "name": "useCurrentTokenForPayment",
              "type": "bool"
            },
            {
              "internalType": "address",
              "name": "feeCollector",
              "type": "address"
            }
          ],
          "internalType": "struct IHederaTokenService.FixedFee[]",
          "name": "fixedFees",
          "type": "tuple[]"
        },
        {
          "components": [
            {
              "internalType": "int64",
              "name": "numerator",
              "type": "int64"
            },
            {
              "internalType": "int64",
              "name": "denominator",
              "type": "int64"
            },
            {
              "internalType": "int64",
              "name": "amount",
              "type": "int64"
            },
            {
              "internalType": "address",
              "name": "tokenId",
              "type": "address"
            },
            {
              "internalType": "bool",
              "name": "useHbarsForPayment",
              "type": "bool"
            },
            {
              "internalType": "address",
              "name": "feeCollector",
              "type": "address"
            }
          ],
          "internalType": "struct IHederaTokenService.RoyaltyFee[]",
          "name": "royaltyFees",
          "type": "tuple[]"
        }
      ],
      "name": "createNonFungibleTokenWithCustomFees",
      "outputs": [
        {
          "internalType": "int64",
          "name": "responseCode",
          "type": "int64"
        },
        {
          "internalType": "address",
          "name": "tokenAddress",
          "type": "address"
        }
      ],
      "stateMutability": "payable",
      "type": "function"
    },
    {
      "inputs": [
        {
          "components": [
            {
              "components": [
                {
                  "internalType": "address",
                  "name": "accountID",
                  "type": "address"
                },
                {
                  "internalType": "int64",
                  "name": "amount",
                  "type": "int64"
                },
                {
                  "internalType": "bool",
                  "name": "isApproval",
                  "type": "bool"
                }
              ],
              "internalType": "struct IHederaTokenService.AccountAmount[]",
              "name": "transfers",
              "type": "tuple[]"
            }
          ],
          "internalType": "struct IHederaTokenService.TransferList",
          "name": "transferList",
          "type": "tuple"
        },
        {
          "components": [
            {
              "internalType": "address",
              "name": "token",
              "type": "address"
            },
            {
              "components": [
                {
                  "internalType": "address",
                  "name": "accountID",
                  "type": "address"
                },
                {
                  "internalType": "int64",
                  "name": "amount",
                  "type": "int64"
                },
                {
                  "internalType": "bool",
                  "name": "isApproval",
                  "type": "bool"
                }
              ],
              "internalType": "struct IHederaTokenService.AccountAmount[]",
              "name": "transfers",
              "type": "tuple[]"
            },
            {
              "components": [
                {
                  "internalType": "address",
                  "name": "senderAccountID",
                  "type": "address"
                },
                {
                  "internalType": "address",
                  "name": "receiverAccountID",
                  "type": "address"
                },
                {
                  "internalType": "int64",
                  "name": "serialNumber",
                  "type": "int64"
                },
                {
                  "internalType": "bool",
                  "name": "isApproval",
                  "type": "bool"
                }
              ],
              "internalType": "struct IHederaTokenService.NftTransfer[]",
              "name": "nftTransfers",
              "type": "tuple[]"
            }
          ],
          "internalType": "struct IHederaTokenService.TokenTransferList[]",
          "name": "tokenTransfers",
          "type": "tuple[]"
        }
      ],
      "name": "cryptoTransfer",
      "outputs": [
        {
          "internalType": "int64",
          "name": "responseCode",
          "type": "int64"
        }
      ],
      "stateMutability": "nonpayable",
      "type": "function"
    },
    {
      "inputs": [
        {
          "internalType": "address",
          "name": "token",
          "type": "address"
        }
      ],
      "name": "deleteToken",
      "outputs": [
        {
          "internalType": "int64",
          "name": "responseCode",
          "type": "int64"
        }
      ],
      "stateMutability": "nonpayable",
      "type": "function"
    },
    {
      "inputs": [
        {
          "internalType": "address",
          "name": "account",
          "type": "address"
        },
        {
          "internalType": "address",
          "name": "token",
          "type": "address"
        }
      ],
      "name": "dissociateToken",
      "outputs": [
        {
          "internalType": "int64",
          "name": "responseCode",
          "type": "int64"
        }
      ],
      "stateMutability": "nonpayable",
      "type": "function"
    },
    {
      "inputs": [
        {
          "internalType": "address",
          "name": "account",
          "type": "address"
        },
        {
          "internalType": "address[]",
          "name": "tokens",
          "type": "address[]"
        }
      ],
      "name": "dissociateTokens",
      "outputs": [
        {
          "internalType": "int64",
          "name": "responseCode",
          "type": "int64"
        }
      ],
      "stateMutability": "nonpayable",
      "type": "function"
    },
    {
      "inputs": [
        {
          "internalType": "address",
          "name": "token",
          "type": "address"
        },
        {
          "internalType": "address",
          "name": "account",
          "type": "address"
        }
      ],
      "name": "freezeToken",
      "outputs": [
        {
          "internalType": "int64",
          "name": "responseCode",
          "type": "int64"
        }
      ],
      "stateMutability": "nonpayable",
      "type": "function"
    },
    {
      "inputs": [
        {
          "internalType": "address",
          "name": "token",
          "type": "address"
        },
        {
          "internalType": "uint256",
          "name": "serialNumber",
          "type": "uint256"
        }
      ],
      "name": "getApproved",
      "outputs": [
        {
          "internalType": "int64",
          "name": "responseCode",
          "type": "int64"
        },
        {
          "internalType": "address",
          "name": "approved",
          "type": "address"
        }
      ],
      "stateMutability": "view",
      "type": "function"
    },
    {
      "inputs": [
        {
          "internalType": "address",
          "name": "token",
          "type": "address"
        }
      ],
      "name": "getFungibleTokenInfo",
      "outputs": [
        {
          "internalType": "int64",
          "name": "responseCode",
          "type": "int64"
        },
        {
          "components": [
            {
              "components": [
                {
                  "components": [
                    {
                      "internalType": "string",
                      "name": "name",
                      "type": "string"
                    },
                    {
                      "internalType": "string",
                      "name": "symbol",
                      "type": "string"
                    },
                    {
                      "internalType": "address",
                      "name": "treasury",
                      "type": "address"
                    },
                    {
                      "internalType": "string",
                      "name": "memo",
                      "type": "string"
                    },
                    {
                      "internalType": "bool",
                      "name": "tokenSupplyType",
                      "type": "bool"
                    },
                    {
                      "internalType": "int64",
                      "name": "maxSupply",
                      "type": "int64"
                    },
                    {
                      "internalType": "bool",
                      "name": "freezeDefault",
                      "type": "bool"
                    },
                    {
                      "components": [
                        {
                          "internalType": "uint256",
                          "name": "keyType",
                          "type": "uint256"
                        },
                        {
                          "components": [
                            {
                              "internalType": "bool",
                              "name": "inheritAccountKey",
                              "type": "bool"
                            },
                            {
                              "internalType": "address",
                              "name": "contractId",
                              "type": "address"
                            },
                            {
                              "internalType": "bytes",
                              "name": "ed25519",
                              "type": "bytes"
                            },
                            {
                              "internalType": "bytes",
                              "name": "ECDSA_secp256k1",
                              "type": "bytes"
                            },
                            {
                              "internalType": "address",
                              "name": "delegatableContractId",
                              "type": "address"
                            }
                          ],
                          "internalType": "struct IHederaTokenService.KeyValue",
                          "name": "key",
                          "type": "tuple"
                        }
                      ],
                      "internalType": "struct IHederaTokenService.TokenKey[]",
                      "name": "tokenKeys",
                      "type": "tuple[]"
                    },
                    {
                      "components": [
                        {
                          "internalType": "int64",
                          "name": "second",
                          "type": "int64"
                        },
                        {
                          "internalType": "address",
                          "name": "autoRenewAccount",
                          "type": "address"
                        },
                        {
                          "internalType": "int64",
                          "name": "autoRenewPeriod",
                          "type": "int64"
                        }
                      ],
                      "internalType": "struct IHederaTokenService.Expiry",
                      "name": "expiry",
                      "type": "tuple"
                    }
                  ],
                  "internalType": "struct IHederaTokenService.HederaToken",
                  "name": "token",
                  "type": "tuple"
                },
                {
                  "internalType": "int64",
                  "name": "totalSupply",
                  "type": "int64"
                },
                {
                  "internalType": "bool",
                  "name": "deleted",
                  "type": "bool"
                },
                {
                  "internalType": "bool",
                  "name": "defaultKycStatus",
                  "type": "bool"
                },
                {
                  "internalType": "bool",
                  "name": "pauseStatus",
                  "type": "bool"
                },
                {
                  "components": [
                    {
                      "internalType": "int64",
                      "name": "amount",
                      "type": "int64"
                    },
                    {
                      "internalType": "address",
                      "name": "tokenId",
                      "type": "address"
                    },
                    {
                      "internalType": "bool",
                      "name": "useHbarsForPayment",
                      "type": "bool"
                    },
                    {
                      "internalType": "bool",
                      "name": "useCurrentTokenForPayment",
                      "type": "bool"
                    },
                    {
                      "internalType": "address",
                      "name": "feeCollector",
                      "type": "address"
                    }
                  ],
                  "internalType": "struct IHederaTokenService.FixedFee[]",
                  "name": "fixedFees",
                  "type": "tuple[]"
                },
                {
                  "components": [
                    {
                      "internalType": "int64",
                      "name": "numerator",
                      "type": "int64"
                    },
                    {
                      "internalType": "int64",
                      "name": "denominator",
                      "type": "int64"
                    },
                    {
                      "internalType": "int64",
                      "name": "minimumAmount",
                      "type": "int64"
                    },
                    {
                      "internalType": "int64",
                      "name": "maximumAmount",
                      "type": "int64"
                    },
                    {
                      "internalType": "bool",
                      "name": "netOfTransfers",
                      "type": "bool"
                    },
                    {
                      "internalType": "address",
                      "name": "feeCollector",
                      "type": "address"
                    }
                  ],
                  "internalType": "struct IHederaTokenService.FractionalFee[]",
                  "name": "fractionalFees",
                  "type": "tuple[]"
                },
                {
                  "components": [
                    {
                      "internalType": "int64",
                      "name": "numerator",
                      "type": "int64"
                    },
                    {
                      "internalType": "int64",
                      "name": "denominator",
                      "type": "int64"
                    },
                    {
                      "internalType": "int64",
                      "name": "amount",
                      "type": "int64"
                    },
                    {
                      "internalType": "address",
                      "name": "tokenId",
                      "type": "address"
                    },
                    {
                      "internalType": "bool",
                      "name": "useHbarsForPayment",
                      "type": "bool"
                    },
                    {
                      "internalType": "address",
                      "name": "feeCollector",
                      "type": "address"
                    }
                  ],
                  "internalType": "struct IHederaTokenService.RoyaltyFee[]",
                  "name": "royaltyFees",
                  "type": "tuple[]"
                },
                {
                  "internalType": "string",
                  "name": "ledgerId",
                  "type": "string"
                }
              ],
              "internalType": "struct IHederaTokenService.TokenInfo",
              "name": "tokenInfo",
              "type": "tuple"
            },
            {
              "internalType": "int32",
              "name": "decimals",
              "type": "int32"
            }
          ],
          "internalType": "struct IHederaTokenService.FungibleTokenInfo",
          "name": "fungibleTokenInfo",
          "type": "tuple"
        }
      ],
      "stateMutability": "view",
      "type": "function"
    },
    {
      "inputs": [
        {
          "internalType": "address",
          "name": "token",
          "type": "address"
        },
        {
          "internalType": "int64",
          "name": "serialNumber",
          "type": "int64"
        }
      ],
      "name": "getNonFungibleTokenInfo",
      "outputs": [
        {
          "internalType": "int64",
          "name": "responseCode",
          "type": "int64"
        },
        {
          "components": [
            {
              "components": [
                {
                  "components": [
                    {
                      "internalType": "string",
                      "name": "name",
                      "type": "string"
                    },
                    {
                      "internalType": "string",
                      "name": "symbol",
                      "type": "string"
                    },
                    {
                      "internalType": "address",
                      "name": "treasury",
                      "type": "address"
                    },
                    {
                      "internalType": "string",
                      "name": "memo",
                      "type": "string"
                    },
                    {
                      "internalType": "bool",
                      "name": "tokenSupplyType",
                      "type": "bool"
                    },
                    {
                      "internalType": "int64",
                      "name": "maxSupply",
                      "type": "int64"
                    },
                    {
                      "internalType": "bool",
                      "name": "freezeDefault",
                      "type": "bool"
                    },
                    {
                      "components": [
                        {
                          "internalType": "uint256",
                          "name": "keyType",
                          "type": "uint256"
                        },
                        {
                          "components": [
                            {
                              "internalType": "bool",
                              "name": "inheritAccountKey",
                              "type": "bool"
                            },
                            {
                              "internalType": "address",
                              "name": "contractId",
                              "type": "address"
                            },
                            {
                              "internalType": "bytes",
                              "name": "ed25519",
                              "type": "bytes"
                            },
                            {
                              "internalType": "bytes",
                              "name": "ECDSA_secp256k1",
                              "type": "bytes"
                            },
                            {
                              "internalType": "address",
                              "name": "delegatableContractId",
                              "type": "address"
                            }
                          ],
                          "internalType": "struct IHederaTokenService.KeyValue",
                          "name": "key",
                          "type": "tuple"
                        }
                      ],
                      "internalType": "struct IHederaTokenService.TokenKey[]",
                      "name": "tokenKeys",
                      "type": "tuple[]"
                    },
                    {
                      "components": [
                        {
                          "internalType": "int64",
                          "name": "second",
                          "type": "int64"
                        },
                        {
                          "internalType": "address",
                          "name": "autoRenewAccount",
                          "type": "address"
                        },
                        {
                          "internalType": "int64",
                          "name": "autoRenewPeriod",
                          "type": "int64"
                        }
                      ],
                      "internalType": "struct IHederaTokenService.Expiry",
                      "name": "expiry",
                      "type": "tuple"
                    }
                  ],
                  "internalType": "struct IHederaTokenService.HederaToken",
                  "name": "token",
                  "type": "tuple"
                },
                {
                  "internalType": "int64",
                  "name": "totalSupply",
                  "type": "int64"
                },
                {
                  "internalType": "bool",
                  "name": "deleted",
                  "type": "bool"
                },
                {
                  "internalType": "bool",
                  "name": "defaultKycStatus",
                  "type": "bool"
                },
                {
                  "internalType": "bool",
                  "name": "pauseStatus",
                  "type": "bool"
                },
                {
                  "components": [
                    {
                      "internalType": "int64",
                      "name": "amount",
                      "type": "int64"
                    },
                    {
                      "internalType": "address",
                      "name": "tokenId",
                      "type": "address"
                    },
                    {
                      "internalType": "bool",
                      "name": "useHbarsForPayment",
                      "type": "bool"
                    },
                    {
                      "internalType": "bool",
                      "name": "useCurrentTokenForPayment",
                      "type": "bool"
                    },
                    {
                      "internalType": "address",
                      "name": "feeCollector",
                      "type": "address"
                    }
                  ],
                  "internalType": "struct IHederaTokenService.FixedFee[]",
                  "name": "fixedFees",
                  "type": "tuple[]"
                },
                {
                  "components": [
                    {
                      "internalType": "int64",
                      "name": "numerator",
                      "type": "int64"
                    },
                    {
                      "internalType": "int64",
                      "name": "denominator",
                      "type": "int64"
                    },
                    {
                      "internalType": "int64",
                      "name": "minimumAmount",
                      "type": "int64"
                    },
                    {
                      "internalType": "int64",
                      "name": "maximumAmount",
                      "type": "int64"
                    },
                    {
                      "internalType": "bool",
                      "name": "netOfTransfers",
                      "type": "bool"
                    },
                    {
                      "internalType": "address",
                      "name": "feeCollector",
                      "type": "address"
                    }
                  ],
                  "internalType": "struct IHederaTokenService.FractionalFee[]",
                  "name": "fractionalFees",
                  "type": "tuple[]"
                },
                {
                  "components": [
                    {
                      "internalType": "int64",
                      "name": "numerator",
                      "type": "int64"
                    },
                    {
                      "internalType": "int64",
                      "name": "denominator",
                      "type": "int64"
                    },
                    {
                      "internalType": "int64",
                      "name": "amount",
                      "type": "int64"
                    },
                    {
                      "internalType": "address",
                      "name": "tokenId",
                      "type": "address"
                    },
                    {
                      "internalType": "bool",
                      "name": "useHbarsForPayment",
                      "type": "bool"
                    },
                    {
                      "internalType": "address",
                      "name": "feeCollector",
                      "type": "address"
                    }
                  ],
                  "internalType": "struct IHederaTokenService.RoyaltyFee[]",
                  "name": "royaltyFees",
                  "type": "tuple[]"
                },
                {
                  "internalType": "string",
                  "name": "ledgerId",
                  "type": "string"
                }
              ],
              "internalType": "struct IHederaTokenService.TokenInfo",
              "name": "tokenInfo",
              "type": "tuple"
            },
            {
              "internalType": "int64",
              "name": "serialNumber",
              "type": "int64"
            },
            {
              "internalType": "address",
              "name": "ownerId",
              "type": "address"
            },
            {
              "internalType": "int64",
              "name": "creationTime",
              "type": "int64"
            },
            {
              "internalType": "bytes",
              "name": "metadata",
              "type": "bytes"
            },
            {
              "internalType": "address",
              "name": "spenderId",
              "type": "address"
            }
          ],
          "internalType": "struct IHederaTokenService.NonFungibleTokenInfo",
          "name": "nonFungibleTokenInfo",
          "type": "tuple"
        }
      ],
      "stateMutability": "view",
      "type": "function"
    },
    {
      "inputs": [
        {
          "internalType": "address",
          "name": "token",
          "type": "address"
        }
      ],
      "name": "getTokenCustomFees",
      "outputs": [
        {
          "internalType": "int64",
          "name": "responseCode",
          "type": "int64"
        },
        {
          "components": [
            {
              "internalType": "int64",
              "name": "amount",
              "type": "int64"
            },
            {
              "internalType": "address",
              "name": "tokenId",
              "type": "address"
            },
            {
              "internalType": "bool",
              "name": "useHbarsForPayment",
              "type": "bool"
            },
            {
              "internalType": "bool",
              "name": "useCurrentTokenForPayment",
              "type": "bool"
            },
            {
              "internalType": "address",
              "name": "feeCollector",
              "type": "address"
            }
          ],
          "internalType": "struct IHederaTokenService.FixedFee[]",
          "name": "fixedFees",
          "type": "tuple[]"
        },
        {
          "components": [
            {
              "internalType": "int64",
              "name": "numerator",
              "type": "int64"
            },
            {
              "internalType": "int64",
              "name": "denominator",
              "type": "int64"
            },
            {
              "internalType": "int64",
              "name": "minimumAmount",
              "type": "int64"
            },
            {
              "internalType": "int64",
              "name": "maximumAmount",
              "type": "int64"
            },
            {
              "internalType": "bool",
              "name": "netOfTransfers",
              "type": "bool"
            },
            {
              "internalType": "address",
              "name": "feeCollector",
              "type": "address"
            }
          ],
          "internalType": "struct IHederaTokenService.FractionalFee[]",
          "name": "fractionalFees",
          "type": "tuple[]"
        },
        {
          "components": [
            {
              "internalType": "int64",
              "name": "numerator",
              "type": "int64"
            },
            {
              "internalType": "int64",
              "name": "denominator",
              "type": "int64"
            },
            {
              "internalType": "int64",
              "name": "amount",
              "type": "int64"
            },
            {
              "internalType": "address",
              "name": "tokenId",
              "type": "address"
            },
            {
              "internalType": "bool",
              "name": "useHbarsForPayment",
              "type": "bool"
            },
            {
              "internalType": "address",
              "name": "feeCollector",
              "type": "address"
            }
          ],
          "internalType": "struct IHederaTokenService.RoyaltyFee[]",
          "name": "royaltyFees",
          "type": "tuple[]"
        }
      ],
      "stateMutability": "view",
      "type": "function"
    },
    {
      "inputs": [
        {
          "internalType": "address",
          "name": "token",
          "type": "address"
        }
      ],
      "name": "getTokenDefaultFreezeStatus",
      "outputs": [
        {
          "internalType": "int64",
          "name": "responseCode",
          "type": "int64"
        },
        {
          "internalType": "bool",
          "name": "defaultFreezeStatus",
          "type": "bool"
        }
      ],
      "stateMutability": "view",
      "type": "function"
    },
    {
      "inputs": [
        {
          "internalType": "address",
          "name": "token",
          "type": "address"
        }
      ],
      "name": "getTokenDefaultKycStatus",
      "outputs": [
        {
          "internalType": "int64",
          "name": "responseCode",
          "type": "int64"
        },
        {
          "internalType": "bool",
          "name": "defaultKycStatus",
          "type": "bool"
        }
      ],
      "stateMutability": "view",
      "type": "function"
    },
    {
      "inputs": [
        {
          "internalType": "address",
          "name": "token",
          "type": "address"
        }
      ],
      "name": "getTokenExpiryInfo",
      "outputs": [
        {
          "internalType": "int64",
          "name": "responseCode",
          "type": "int64"
        },
        {
          "components": [
            {
              "internalType": "int64",
              "name": "second",
              "type": "int64"
            },
            {
              "internalType": "address",
              "name": "autoRenewAccount",
              "type": "address"
            },
            {
              "internalType": "int64",
              "name": "autoRenewPeriod",
              "type": "int64"
            }
          ],
          "internalType": "struct IHederaTokenService.Expiry",
          "name": "expiry",
          "type": "tuple"
        }
      ],
      "stateMutability": "view",
      "type": "function"
    },
    {
      "inputs": [
        {
          "internalType": "address",
          "name": "token",
          "type": "address"
        }
      ],
      "name": "getTokenInfo",
      "outputs": [
        {
          "internalType": "int64",
          "name": "responseCode",
          "type": "int64"
        },
        {
          "components": [
            {
              "components": [
                {
                  "internalType": "string",
                  "name": "name",
                  "type": "string"
                },
                {
                  "internalType": "string",
                  "name": "symbol",
                  "type": "string"
                },
                {
                  "internalType": "address",
                  "name": "treasury",
                  "type": "address"
                },
                {
                  "internalType": "string",
                  "name": "memo",
                  "type": "string"
                },
                {
                  "internalType": "bool",
                  "name": "tokenSupplyType",
                  "type": "bool"
                },
                {
                  "internalType": "int64",
                  "name": "maxSupply",
                  "type": "int64"
                },
                {
                  "internalType": "bool",
                  "name": "freezeDefault",
                  "type": "bool"
                },
                {
                  "components": [
                    {
                      "internalType": "uint256",
                      "name": "keyType",
                      "type": "uint256"
                    },
                    {
                      "components": [
                        {
                          "internalType": "bool",
                          "name": "inheritAccountKey",
                          "type": "bool"
                        },
                        {
                          "internalType": "address",
                          "name": "contractId",
                          "type": "address"
                        },
                        {
                          "internalType": "bytes",
                          "name": "ed25519",
                          "type": "bytes"
                        },
                        {
                          "internalType": "bytes",
                          "name": "ECDSA_secp256k1",
                          "type": "bytes"
                        },
                        {
                          "internalType": "address",
                          "name": "delegatableContractId",
                          "type": "address"
                        }
                      ],
                      "internalType": "struct IHederaTokenService.KeyValue",
                      "name": "key",
                      "type": "tuple"
                    }
                  ],
                  "internalType": "struct IHederaTokenService.TokenKey[]",
                  "name": "tokenKeys",
                  "type": "tuple[]"
                },
                {
                  "components": [
                    {
                      "internalType": "int64",
                      "name": "second",
                      "type": "int64"
                    },
                    {
                      "internalType": "address",
                      "name": "autoRenewAccount",
                      "type": "address"
                    },
                    {
                      "internalType": "int64",
                      "name": "autoRenewPeriod",
                      "type": "int64"
                    }
                  ],
                  "internalType": "struct IHederaTokenService.Expiry",
                  "name": "expiry",
                  "type": "tuple"
                }
              ],
              "internalType": "struct IHederaTokenService.HederaToken",
              "name": "token",
              "type": "tuple"
            },
            {
              "internalType": "int64",
              "name": "totalSupply",
              "type": "int64"
            },
            {
              "internalType": "bool",
              "name": "deleted",
              "type": "bool"
            },
            {
              "internalType": "bool",
              "name": "defaultKycStatus",
              "type": "bool"
            },
            {
              "internalType": "bool",
              "name": "pauseStatus",
              "type": "bool"
            },
            {
              "components": [
                {
                  "internalType": "int64",
                  "name": "amount",
                  "type": "int64"
                },
                {
                  "internalType": "address",
                  "name": "tokenId",
                  "type": "address"
                },
                {
                  "internalType": "bool",
                  "name": "useHbarsForPayment",
                  "type": "bool"
                },
                {
                  "internalType": "bool",
                  "name": "useCurrentTokenForPayment",
                  "type": "bool"
                },
                {
                  "internalType": "address",
                  "name": "feeCollector",
                  "type": "address"
                }
              ],
              "internalType": "struct IHederaTokenService.FixedFee[]",
              "name": "fixedFees",
              "type": "tuple[]"
            },
            {
              "components": [
                {
                  "internalType": "int64",
                  "name": "numerator",
                  "type": "int64"
                },
                {
                  "internalType": "int64",
                  "name": "denominator",
                  "type": "int64"
                },
                {
                  "internalType": "int64",
                  "name": "minimumAmount",
                  "type": "int64"
                },
                {
                  "internalType": "int64",
                  "name": "maximumAmount",
                  "type": "int64"
                },
                {
                  "internalType": "bool",
                  "name": "netOfTransfers",
                  "type": "bool"
                },
                {
                  "internalType": "address",
                  "name": "feeCollector",
                  "type": "address"
                }
              ],
              "internalType": "struct IHederaTokenService.FractionalFee[]",
              "name": "fractionalFees",
              "type": "tuple[]"
            },
            {
              "components": [
                {
                  "internalType": "int64",
                  "name": "numerator",
                  "type": "int64"
                },
                {
                  "internalType": "int64",
                  "name": "denominator",
                  "type": "int64"
                },
                {
                  "internalType": "int64",
                  "name": "amount",
                  "type": "int64"
                },
                {
                  "internalType": "address",
                  "name": "tokenId",
                  "type": "address"
                },
                {
                  "internalType": "bool",
                  "name": "useHbarsForPayment",
                  "type": "bool"
                },
                {
                  "internalType": "address",
                  "name": "feeCollector",
                  "type": "address"
                }
              ],
              "internalType": "struct IHederaTokenService.RoyaltyFee[]",
              "name": "royaltyFees",
              "type": "tuple[]"
            },
            {
              "internalType": "string",
              "name": "ledgerId",
              "type": "string"
            }
          ],
          "internalType": "struct IHederaTokenService.TokenInfo",
          "name": "tokenInfo",
          "type": "tuple"
        }
      ],
      "stateMutability": "view",
      "type": "function"
    },
    {
      "inputs": [
        {
          "internalType": "address",
          "name": "token",
          "type": "address"
        },
        {
          "internalType": "uint256",
          "name": "keyType",
          "type": "uint256"
        }
      ],
      "name": "getTokenKey",
      "outputs": [
        {
          "internalType": "int64",
          "name": "responseCode",
          "type": "int64"
        },
        {
          "components": [
            {
              "internalType": "bool",
              "name": "inheritAccountKey",
              "type": "bool"
            },
            {
              "internalType": "address",
              "name": "contractId",
              "type": "address"
            },
            {
              "internalType": "bytes",
              "name": "ed25519",
              "type": "bytes"
            },
            {
              "internalType": "bytes",
              "name": "ECDSA_secp256k1",
              "type": "bytes"
            },
            {
              "internalType": "address",
              "name": "delegatableContractId",
              "type": "address"
            }
          ],
          "internalType": "struct IHederaTokenService.KeyValue",
          "name": "key",
          "type": "tuple"
        }
      ],
      "stateMutability": "view",
      "type": "function"
    },
    {
      "inputs": [
        {
          "internalType": "address",
          "name": "token",
          "type": "address"
        }
      ],
      "name": "getTokenType",
      "outputs": [
        {
          "internalType": "int64",
          "name": "responseCode",
          "type": "int64"
        },
        {
          "internalType": "int32",
          "name": "tokenType",
          "type": "int32"
        }
      ],
      "stateMutability": "view",
      "type": "function"
    },
    {
      "inputs": [
        {
          "internalType": "address",
          "name": "token",
          "type": "address"
        }
      ],
      "name": "getTreasuryAccount",
      "outputs": [
        {
          "internalType": "address",
          "name": "treasury",
          "type": "address"
        }
      ],
      "stateMutability": "view",
      "type": "function"
    },
    {
      "inputs": [
        {
          "internalType": "address",
          "name": "token",
          "type": "address"
        },
        {
          "internalType": "address",
          "name": "account",
          "type": "address"
        }
      ],
      "name": "grantTokenKyc",
      "outputs": [
        {
          "internalType": "int64",
          "name": "responseCode",
          "type": "int64"
        }
      ],
      "stateMutability": "nonpayable",
      "type": "function"
    },
    {
      "inputs": [
        {
          "internalType": "address",
          "name": "token",
          "type": "address"
        },
        {
          "internalType": "address",
          "name": "owner",
          "type": "address"
        },
        {
          "internalType": "address",
          "name": "operator",
          "type": "address"
        }
      ],
      "name": "isApprovedForAll",
      "outputs": [
        {
          "internalType": "int64",
          "name": "responseCode",
          "type": "int64"
        },
        {
          "internalType": "bool",
          "name": "approved",
          "type": "bool"
        }
      ],
      "stateMutability": "view",
      "type": "function"
    },
    {
      "inputs": [
        {
          "internalType": "address",
          "name": "account",
          "type": "address"
        },
        {
          "internalType": "address",
          "name": "token",
          "type": "address"
        }
      ],
      "name": "isAssociated",
      "outputs": [
        {
          "internalType": "bool",
          "name": "associated",
          "type": "bool"
        }
      ],
      "stateMutability": "view",
      "type": "function"
    },
    {
      "inputs": [
        {
          "internalType": "address",
          "name": "token",
          "type": "address"
        },
        {
          "internalType": "address",
          "name": "account",
          "type": "address"
        }
      ],
      "name": "isFrozen",
      "outputs": [
        {
          "internalType": "int64",
          "name": "responseCode",
          "type": "int64"
        },
        {
          "internalType": "bool",
          "name": "frozen",
          "type": "bool"
        }
      ],
      "stateMutability": "view",
      "type": "function"
    },
    {
      "inputs": [
        {
          "internalType": "address",
          "name": "token",
          "type": "address"
        },
        {
          "internalType": "address",
          "name": "account",
          "type": "address"
        }
      ],
      "name": "isKyc",
      "outputs": [
        {
          "internalType": "int64",
          "name": "responseCode",
          "type": "int64"
        },
        {
          "internalType": "bool",
          "name": "kycGranted",
          "type": "bool"
        }
      ],
      "stateMutability": "view",
      "type": "function"
    },
    {
      "inputs": [
        {
          "internalType": "address",
          "name": "token",
          "type": "address"
        }
      ],
      "name": "isToken",
      "outputs": [
        {
          "internalType": "int64",
          "name": "responseCode",
          "type": "int64"
        },
        {
          "internalType": "bool",
          "name": "isToken",
          "type": "bool"
        }
      ],
      "stateMutability": "view",
      "type": "function"
    },
    {
      "inputs": [
        {
          "internalType": "address",
          "name": "token",
          "type": "address"
        },
        {
          "internalType": "int64",
          "name": "amount",
          "type": "int64"
        },
        {
          "internalType": "bytes[]",
          "name": "metadata",
          "type": "bytes[]"
        }
      ],
      "name": "mintToken",
      "outputs": [
        {
          "internalType": "int64",
          "name": "responseCode",
          "type": "int64"
        },
        {
          "internalType": "int64",
          "name": "newTotalSupply",
          "type": "int64"
        },
        {
          "internalType": "int64[]",
          "name": "serialNumbers",
          "type": "int64[]"
        }
      ],
      "stateMutability": "nonpayable",
      "type": "function"
    },
    {
      "inputs": [
        {
          "internalType": "address",
          "name": "token",
          "type": "address"
        }
      ],
      "name": "pauseToken",
      "outputs": [
        {
          "internalType": "int64",
          "name": "responseCode",
          "type": "int64"
        }
      ],
      "stateMutability": "nonpayable",
      "type": "function"
    },
    {
      "inputs": [
        {
          "internalType": "address",
          "name": "sender",
          "type": "address"
        },
        {
          "internalType": "address",
          "name": "spender",
          "type": "address"
        },
        {
          "internalType": "uint256",
          "name": "amountOrSerialNumber",
          "type": "uint256"
        }
      ],
      "name": "preApprove",
      "outputs": [
        {
          "internalType": "int64",
          "name": "responseCode",
          "type": "int64"
        }
      ],
      "stateMutability": "nonpayable",
      "type": "function"
    },
    {
      "inputs": [
        {
          "internalType": "int64",
          "name": "amount",
          "type": "int64"
        },
        {
          "internalType": "int64[]",
          "name": "serialNumbers",
          "type": "int64[]"
        }
      ],
      "name": "preBurn",
      "outputs": [
        {
          "internalType": "int64",
          "name": "responseCode",
          "type": "int64"
        }
      ],
      "stateMutability": "nonpayable",
      "type": "function"
    },
    {
      "inputs": [
        {
          "internalType": "address",
          "name": "token",
          "type": "address"
        },
        {
          "internalType": "int64",
          "name": "amount",
          "type": "int64"
        },
        {
          "internalType": "bytes[]",
          "name": "metadata",
          "type": "bytes[]"
        }
      ],
      "name": "preMint",
      "outputs": [
        {
          "internalType": "int64",
          "name": "responseCode",
          "type": "int64"
        }
      ],
      "stateMutability": "nonpayable",
      "type": "function"
    },
    {
      "inputs": [
        {
          "internalType": "address",
          "name": "sender",
          "type": "address"
        },
        {
          "internalType": "address",
          "name": "operator",
          "type": "address"
        },
        {
          "internalType": "bool",
          "name": "approved",
          "type": "bool"
        }
      ],
      "name": "preSetApprovalForAll",
      "outputs": [
        {
          "internalType": "int64",
          "name": "responseCode",
          "type": "int64"
        }
      ],
      "stateMutability": "nonpayable",
      "type": "function"
    },
    {
      "inputs": [
        {
          "internalType": "address",
          "name": "spender",
          "type": "address"
        },
        {
          "internalType": "address",
          "name": "from",
          "type": "address"
        },
        {
          "internalType": "address",
          "name": "to",
          "type": "address"
        },
        {
          "internalType": "uint256",
          "name": "amountOrSerialNumber",
          "type": "uint256"
        }
      ],
      "name": "preTransfer",
      "outputs": [
        {
          "internalType": "int64",
          "name": "responseCode",
          "type": "int64"
        }
      ],
      "stateMutability": "nonpayable",
      "type": "function"
    },
    {
      "inputs": [
        {
          "internalType": "address",
          "name": "token",
          "type": "address"
        },
        {
          "internalType": "bytes",
          "name": "encodedFunctionSelector",
          "type": "bytes"
        }
      ],
      "name": "redirectForToken",
      "outputs": [
        {
          "internalType": "int64",
          "name": "responseCode",
          "type": "int64"
        },
        {
          "internalType": "bytes",
          "name": "response",
          "type": "bytes"
        }
      ],
      "stateMutability": "nonpayable",
      "type": "function"
    },
    {
      "inputs": [
        {
          "internalType": "address",
          "name": "caller",
          "type": "address"
        },
        {
          "components": [
            {
              "components": [
                {
                  "components": [
                    {
                      "internalType": "string",
                      "name": "name",
                      "type": "string"
                    },
                    {
                      "internalType": "string",
                      "name": "symbol",
                      "type": "string"
                    },
                    {
                      "internalType": "address",
                      "name": "treasury",
                      "type": "address"
                    },
                    {
                      "internalType": "string",
                      "name": "memo",
                      "type": "string"
                    },
                    {
                      "internalType": "bool",
                      "name": "tokenSupplyType",
                      "type": "bool"
                    },
                    {
                      "internalType": "int64",
                      "name": "maxSupply",
                      "type": "int64"
                    },
                    {
                      "internalType": "bool",
                      "name": "freezeDefault",
                      "type": "bool"
                    },
                    {
                      "components": [
                        {
                          "internalType": "uint256",
                          "name": "keyType",
                          "type": "uint256"
                        },
                        {
                          "components": [
                            {
                              "internalType": "bool",
                              "name": "inheritAccountKey",
                              "type": "bool"
                            },
                            {
                              "internalType": "address",
                              "name": "contractId",
                              "type": "address"
                            },
                            {
                              "internalType": "bytes",
                              "name": "ed25519",
                              "type": "bytes"
                            },
                            {
                              "internalType": "bytes",
                              "name": "ECDSA_secp256k1",
                              "type": "bytes"
                            },
                            {
                              "internalType": "address",
                              "name": "delegatableContractId",
                              "type": "address"
                            }
                          ],
                          "internalType": "struct IHederaTokenService.KeyValue",
                          "name": "key",
                          "type": "tuple"
                        }
                      ],
                      "internalType": "struct IHederaTokenService.TokenKey[]",
                      "name": "tokenKeys",
                      "type": "tuple[]"
                    },
                    {
                      "components": [
                        {
                          "internalType": "int64",
                          "name": "second",
                          "type": "int64"
                        },
                        {
                          "internalType": "address",
                          "name": "autoRenewAccount",
                          "type": "address"
                        },
                        {
                          "internalType": "int64",
                          "name": "autoRenewPeriod",
                          "type": "int64"
                        }
                      ],
                      "internalType": "struct IHederaTokenService.Expiry",
                      "name": "expiry",
                      "type": "tuple"
                    }
                  ],
                  "internalType": "struct IHederaTokenService.HederaToken",
                  "name": "token",
                  "type": "tuple"
                },
                {
                  "internalType": "int64",
                  "name": "totalSupply",
                  "type": "int64"
                },
                {
                  "internalType": "bool",
                  "name": "deleted",
                  "type": "bool"
                },
                {
                  "internalType": "bool",
                  "name": "defaultKycStatus",
                  "type": "bool"
                },
                {
                  "internalType": "bool",
                  "name": "pauseStatus",
                  "type": "bool"
                },
                {
                  "components": [
                    {
                      "internalType": "int64",
                      "name": "amount",
                      "type": "int64"
                    },
                    {
                      "internalType": "address",
                      "name": "tokenId",
                      "type": "address"
                    },
                    {
                      "internalType": "bool",
                      "name": "useHbarsForPayment",
                      "type": "bool"
                    },
                    {
                      "internalType": "bool",
                      "name": "useCurrentTokenForPayment",
                      "type": "bool"
                    },
                    {
                      "internalType": "address",
                      "name": "feeCollector",
                      "type": "address"
                    }
                  ],
                  "internalType": "struct IHederaTokenService.FixedFee[]",
                  "name": "fixedFees",
                  "type": "tuple[]"
                },
                {
                  "components": [
                    {
                      "internalType": "int64",
                      "name": "numerator",
                      "type": "int64"
                    },
                    {
                      "internalType": "int64",
                      "name": "denominator",
                      "type": "int64"
                    },
                    {
                      "internalType": "int64",
                      "name": "minimumAmount",
                      "type": "int64"
                    },
                    {
                      "internalType": "int64",
                      "name": "maximumAmount",
                      "type": "int64"
                    },
                    {
                      "internalType": "bool",
                      "name": "netOfTransfers",
                      "type": "bool"
                    },
                    {
                      "internalType": "address",
                      "name": "feeCollector",
                      "type": "address"
                    }
                  ],
                  "internalType": "struct IHederaTokenService.FractionalFee[]",
                  "name": "fractionalFees",
                  "type": "tuple[]"
                },
                {
                  "components": [
                    {
                      "internalType": "int64",
                      "name": "numerator",
                      "type": "int64"
                    },
                    {
                      "internalType": "int64",
                      "name": "denominator",
                      "type": "int64"
                    },
                    {
                      "internalType": "int64",
                      "name": "amount",
                      "type": "int64"
                    },
                    {
                      "internalType": "address",
                      "name": "tokenId",
                      "type": "address"
                    },
                    {
                      "internalType": "bool",
                      "name": "useHbarsForPayment",
                      "type": "bool"
                    },
                    {
                      "internalType": "address",
                      "name": "feeCollector",
                      "type": "address"
                    }
                  ],
                  "internalType": "struct IHederaTokenService.RoyaltyFee[]",
                  "name": "royaltyFees",
                  "type": "tuple[]"
                },
                {
                  "internalType": "string",
                  "name": "ledgerId",
                  "type": "string"
                }
              ],
              "internalType": "struct IHederaTokenService.TokenInfo",
              "name": "tokenInfo",
              "type": "tuple"
            },
            {
              "internalType": "int32",
              "name": "decimals",
              "type": "int32"
            }
          ],
          "internalType": "struct IHederaTokenService.FungibleTokenInfo",
          "name": "fungibleTokenInfo",
          "type": "tuple"
        }
      ],
      "name": "registerHederaFungibleToken",
      "outputs": [],
      "stateMutability": "nonpayable",
      "type": "function"
    },
    {
      "inputs": [
        {
          "internalType": "address",
          "name": "caller",
          "type": "address"
        },
        {
          "components": [
            {
              "components": [
                {
                  "internalType": "string",
                  "name": "name",
                  "type": "string"
                },
                {
                  "internalType": "string",
                  "name": "symbol",
                  "type": "string"
                },
                {
                  "internalType": "address",
                  "name": "treasury",
                  "type": "address"
                },
                {
                  "internalType": "string",
                  "name": "memo",
                  "type": "string"
                },
                {
                  "internalType": "bool",
                  "name": "tokenSupplyType",
                  "type": "bool"
                },
                {
                  "internalType": "int64",
                  "name": "maxSupply",
                  "type": "int64"
                },
                {
                  "internalType": "bool",
                  "name": "freezeDefault",
                  "type": "bool"
                },
                {
                  "components": [
                    {
                      "internalType": "uint256",
                      "name": "keyType",
                      "type": "uint256"
                    },
                    {
                      "components": [
                        {
                          "internalType": "bool",
                          "name": "inheritAccountKey",
                          "type": "bool"
                        },
                        {
                          "internalType": "address",
                          "name": "contractId",
                          "type": "address"
                        },
                        {
                          "internalType": "bytes",
                          "name": "ed25519",
                          "type": "bytes"
                        },
                        {
                          "internalType": "bytes",
                          "name": "ECDSA_secp256k1",
                          "type": "bytes"
                        },
                        {
                          "internalType": "address",
                          "name": "delegatableContractId",
                          "type": "address"
                        }
                      ],
                      "internalType": "struct IHederaTokenService.KeyValue",
                      "name": "key",
                      "type": "tuple"
                    }
                  ],
                  "internalType": "struct IHederaTokenService.TokenKey[]",
                  "name": "tokenKeys",
                  "type": "tuple[]"
                },
                {
                  "components": [
                    {
                      "internalType": "int64",
                      "name": "second",
                      "type": "int64"
                    },
                    {
                      "internalType": "address",
                      "name": "autoRenewAccount",
                      "type": "address"
                    },
                    {
                      "internalType": "int64",
                      "name": "autoRenewPeriod",
                      "type": "int64"
                    }
                  ],
                  "internalType": "struct IHederaTokenService.Expiry",
                  "name": "expiry",
                  "type": "tuple"
                }
              ],
              "internalType": "struct IHederaTokenService.HederaToken",
              "name": "token",
              "type": "tuple"
            },
            {
              "internalType": "int64",
              "name": "totalSupply",
              "type": "int64"
            },
            {
              "internalType": "bool",
              "name": "deleted",
              "type": "bool"
            },
            {
              "internalType": "bool",
              "name": "defaultKycStatus",
              "type": "bool"
            },
            {
              "internalType": "bool",
              "name": "pauseStatus",
              "type": "bool"
            },
            {
              "components": [
                {
                  "internalType": "int64",
                  "name": "amount",
                  "type": "int64"
                },
                {
                  "internalType": "address",
                  "name": "tokenId",
                  "type": "address"
                },
                {
                  "internalType": "bool",
                  "name": "useHbarsForPayment",
                  "type": "bool"
                },
                {
                  "internalType": "bool",
                  "name": "useCurrentTokenForPayment",
                  "type": "bool"
                },
                {
                  "internalType": "address",
                  "name": "feeCollector",
                  "type": "address"
                }
              ],
              "internalType": "struct IHederaTokenService.FixedFee[]",
              "name": "fixedFees",
              "type": "tuple[]"
            },
            {
              "components": [
                {
                  "internalType": "int64",
                  "name": "numerator",
                  "type": "int64"
                },
                {
                  "internalType": "int64",
                  "name": "denominator",
                  "type": "int64"
                },
                {
                  "internalType": "int64",
                  "name": "minimumAmount",
                  "type": "int64"
                },
                {
                  "internalType": "int64",
                  "name": "maximumAmount",
                  "type": "int64"
                },
                {
                  "internalType": "bool",
                  "name": "netOfTransfers",
                  "type": "bool"
                },
                {
                  "internalType": "address",
                  "name": "feeCollector",
                  "type": "address"
                }
              ],
              "internalType": "struct IHederaTokenService.FractionalFee[]",
              "name": "fractionalFees",
              "type": "tuple[]"
            },
            {
              "components": [
                {
                  "internalType": "int64",
                  "name": "numerator",
                  "type": "int64"
                },
                {
                  "internalType": "int64",
                  "name": "denominator",
                  "type": "int64"
                },
                {
                  "internalType": "int64",
                  "name": "amount",
                  "type": "int64"
                },
                {
                  "internalType": "address",
                  "name": "tokenId",
                  "type": "address"
                },
                {
                  "internalType": "bool",
                  "name": "useHbarsForPayment",
                  "type": "bool"
                },
                {
                  "internalType": "address",
                  "name": "feeCollector",
                  "type": "address"
                }
              ],
              "internalType": "struct IHederaTokenService.RoyaltyFee[]",
              "name": "royaltyFees",
              "type": "tuple[]"
            },
            {
              "internalType": "string",
              "name": "ledgerId",
              "type": "string"
            }
          ],
          "internalType": "struct IHederaTokenService.TokenInfo",
          "name": "nftTokenInfo",
          "type": "tuple"
        }
      ],
      "name": "registerHederaNonFungibleToken",
      "outputs": [],
      "stateMutability": "nonpayable",
      "type": "function"
    },
    {
      "inputs": [
        {
          "internalType": "address",
          "name": "token",
          "type": "address"
        },
        {
          "internalType": "address",
          "name": "account",
          "type": "address"
        }
      ],
      "name": "revokeTokenKyc",
      "outputs": [
        {
          "internalType": "int64",
          "name": "responseCode",
          "type": "int64"
        }
      ],
      "stateMutability": "nonpayable",
      "type": "function"
    },
    {
      "inputs": [
        {
          "internalType": "address",
          "name": "token",
          "type": "address"
        },
        {
          "internalType": "address",
          "name": "operator",
          "type": "address"
        },
        {
          "internalType": "bool",
          "name": "approved",
          "type": "bool"
        }
      ],
      "name": "setApprovalForAll",
      "outputs": [
        {
          "internalType": "int64",
          "name": "responseCode",
          "type": "int64"
        }
      ],
      "stateMutability": "nonpayable",
      "type": "function"
    },
    {
      "inputs": [
        {
          "internalType": "address",
          "name": "token",
          "type": "address"
        },
        {
          "internalType": "address",
          "name": "from",
          "type": "address"
        },
        {
          "internalType": "address",
          "name": "to",
          "type": "address"
        },
        {
          "internalType": "uint256",
          "name": "amount",
          "type": "uint256"
        }
      ],
      "name": "transferFrom",
      "outputs": [
        {
          "internalType": "int64",
          "name": "responseCode",
          "type": "int64"
        }
      ],
      "stateMutability": "nonpayable",
      "type": "function"
    },
    {
      "inputs": [
        {
          "internalType": "address",
          "name": "token",
          "type": "address"
        },
        {
          "internalType": "address",
          "name": "from",
          "type": "address"
        },
        {
          "internalType": "address",
          "name": "to",
          "type": "address"
        },
        {
          "internalType": "uint256",
          "name": "serialNumber",
          "type": "uint256"
        }
      ],
      "name": "transferFromNFT",
      "outputs": [
        {
          "internalType": "int64",
          "name": "responseCode",
          "type": "int64"
        }
      ],
      "stateMutability": "nonpayable",
      "type": "function"
    },
    {
      "inputs": [
        {
          "internalType": "address",
          "name": "token",
          "type": "address"
        },
        {
          "internalType": "address",
          "name": "sender",
          "type": "address"
        },
        {
          "internalType": "address",
          "name": "recipient",
          "type": "address"
        },
        {
          "internalType": "int64",
          "name": "serialNumber",
          "type": "int64"
        }
      ],
      "name": "transferNFT",
      "outputs": [
        {
          "internalType": "int64",
          "name": "responseCode",
          "type": "int64"
        }
      ],
      "stateMutability": "nonpayable",
      "type": "function"
    },
    {
      "inputs": [
        {
          "internalType": "address",
          "name": "token",
          "type": "address"
        },
        {
          "internalType": "address[]",
          "name": "sender",
          "type": "address[]"
        },
        {
          "internalType": "address[]",
          "name": "receiver",
          "type": "address[]"
        },
        {
          "internalType": "int64[]",
          "name": "serialNumber",
          "type": "int64[]"
        }
      ],
      "name": "transferNFTs",
      "outputs": [
        {
          "internalType": "int64",
          "name": "responseCode",
          "type": "int64"
        }
      ],
      "stateMutability": "nonpayable",
      "type": "function"
    },
    {
      "inputs": [
        {
          "internalType": "address",
          "name": "token",
          "type": "address"
        },
        {
          "internalType": "address",
          "name": "sender",
          "type": "address"
        },
        {
          "internalType": "address",
          "name": "recipient",
          "type": "address"
        },
        {
          "internalType": "int64",
          "name": "amount",
          "type": "int64"
        }
      ],
      "name": "transferToken",
      "outputs": [
        {
          "internalType": "int64",
          "name": "responseCode",
          "type": "int64"
        }
      ],
      "stateMutability": "nonpayable",
      "type": "function"
    },
    {
      "inputs": [
        {
          "internalType": "address",
          "name": "token",
          "type": "address"
        },
        {
          "internalType": "address[]",
          "name": "accountId",
          "type": "address[]"
        },
        {
          "internalType": "int64[]",
          "name": "amount",
          "type": "int64[]"
        }
      ],
      "name": "transferTokens",
      "outputs": [
        {
          "internalType": "int64",
          "name": "responseCode",
          "type": "int64"
        }
      ],
      "stateMutability": "nonpayable",
      "type": "function"
    },
    {
      "inputs": [
        {
          "internalType": "address",
          "name": "token",
          "type": "address"
        },
        {
          "internalType": "address",
          "name": "account",
          "type": "address"
        }
      ],
      "name": "unfreezeToken",
      "outputs": [
        {
          "internalType": "int64",
          "name": "responseCode",
          "type": "int64"
        }
      ],
      "stateMutability": "nonpayable",
      "type": "function"
    },
    {
      "inputs": [
        {
          "internalType": "address",
          "name": "token",
          "type": "address"
        }
      ],
      "name": "unpauseToken",
      "outputs": [
        {
          "internalType": "int64",
          "name": "responseCode",
          "type": "int64"
        }
      ],
      "stateMutability": "nonpayable",
      "type": "function"
    },
    {
      "inputs": [
        {
          "internalType": "address",
          "name": "token",
          "type": "address"
        },
        {
          "components": [
            {
              "internalType": "int64",
              "name": "second",
              "type": "int64"
            },
            {
              "internalType": "address",
              "name": "autoRenewAccount",
              "type": "address"
            },
            {
              "internalType": "int64",
              "name": "autoRenewPeriod",
              "type": "int64"
            }
          ],
          "internalType": "struct IHederaTokenService.Expiry",
          "name": "expiryInfo",
          "type": "tuple"
        }
      ],
      "name": "updateTokenExpiryInfo",
      "outputs": [
        {
          "internalType": "int64",
          "name": "responseCode",
          "type": "int64"
        }
      ],
      "stateMutability": "nonpayable",
      "type": "function"
    },
    {
      "inputs": [
        {
          "internalType": "address",
          "name": "token",
          "type": "address"
        },
        {
          "components": [
            {
              "internalType": "string",
              "name": "name",
              "type": "string"
            },
            {
              "internalType": "string",
              "name": "symbol",
              "type": "string"
            },
            {
              "internalType": "address",
              "name": "treasury",
              "type": "address"
            },
            {
              "internalType": "string",
              "name": "memo",
              "type": "string"
            },
            {
              "internalType": "bool",
              "name": "tokenSupplyType",
              "type": "bool"
            },
            {
              "internalType": "int64",
              "name": "maxSupply",
              "type": "int64"
            },
            {
              "internalType": "bool",
              "name": "freezeDefault",
              "type": "bool"
            },
            {
              "components": [
                {
                  "internalType": "uint256",
                  "name": "keyType",
                  "type": "uint256"
                },
                {
                  "components": [
                    {
                      "internalType": "bool",
                      "name": "inheritAccountKey",
                      "type": "bool"
                    },
                    {
                      "internalType": "address",
                      "name": "contractId",
                      "type": "address"
                    },
                    {
                      "internalType": "bytes",
                      "name": "ed25519",
                      "type": "bytes"
                    },
                    {
                      "internalType": "bytes",
                      "name": "ECDSA_secp256k1",
                      "type": "bytes"
                    },
                    {
                      "internalType": "address",
                      "name": "delegatableContractId",
                      "type": "address"
                    }
                  ],
                  "internalType": "struct IHederaTokenService.KeyValue",
                  "name": "key",
                  "type": "tuple"
                }
              ],
              "internalType": "struct IHederaTokenService.TokenKey[]",
              "name": "tokenKeys",
              "type": "tuple[]"
            },
            {
              "components": [
                {
                  "internalType": "int64",
                  "name": "second",
                  "type": "int64"
                },
                {
                  "internalType": "address",
                  "name": "autoRenewAccount",
                  "type": "address"
                },
                {
                  "internalType": "int64",
                  "name": "autoRenewPeriod",
                  "type": "int64"
                }
              ],
              "internalType": "struct IHederaTokenService.Expiry",
              "name": "expiry",
              "type": "tuple"
            }
          ],
          "internalType": "struct IHederaTokenService.HederaToken",
          "name": "tokenInfo",
          "type": "tuple"
        }
      ],
      "name": "updateTokenInfo",
      "outputs": [
        {
          "internalType": "int64",
          "name": "responseCode",
          "type": "int64"
        }
      ],
      "stateMutability": "nonpayable",
      "type": "function"
    },
    {
      "inputs": [
        {
          "internalType": "address",
          "name": "token",
          "type": "address"
        },
        {
          "components": [
            {
              "internalType": "uint256",
              "name": "keyType",
              "type": "uint256"
            },
            {
              "components": [
                {
                  "internalType": "bool",
                  "name": "inheritAccountKey",
                  "type": "bool"
                },
                {
                  "internalType": "address",
                  "name": "contractId",
                  "type": "address"
                },
                {
                  "internalType": "bytes",
                  "name": "ed25519",
                  "type": "bytes"
                },
                {
                  "internalType": "bytes",
                  "name": "ECDSA_secp256k1",
                  "type": "bytes"
                },
                {
                  "internalType": "address",
                  "name": "delegatableContractId",
                  "type": "address"
                }
              ],
              "internalType": "struct IHederaTokenService.KeyValue",
              "name": "key",
              "type": "tuple"
            }
          ],
          "internalType": "struct IHederaTokenService.TokenKey[]",
          "name": "keys",
          "type": "tuple[]"
        }
      ],
      "name": "updateTokenKeys",
      "outputs": [
        {
          "internalType": "int64",
          "name": "responseCode",
          "type": "int64"
        }
      ],
      "stateMutability": "nonpayable",
      "type": "function"
    },
    {
      "inputs": [
        {
          "internalType": "address",
          "name": "token",
          "type": "address"
        },
        {
          "internalType": "address",
          "name": "account",
          "type": "address"
        },
        {
          "internalType": "int64",
          "name": "amount",
          "type": "int64"
        }
      ],
      "name": "wipeTokenAccount",
      "outputs": [
        {
          "internalType": "int64",
          "name": "responseCode",
          "type": "int64"
        }
      ],
      "stateMutability": "nonpayable",
      "type": "function"
    },
    {
      "inputs": [
        {
          "internalType": "address",
          "name": "token",
          "type": "address"
        },
        {
          "internalType": "address",
          "name": "account",
          "type": "address"
        },
        {
          "internalType": "int64[]",
          "name": "serialNumbers",
          "type": "int64[]"
        }
      ],
      "name": "wipeTokenAccountNFT",
      "outputs": [
        {
          "internalType": "int64",
          "name": "responseCode",
          "type": "int64"
        }
      ],
      "stateMutability": "nonpayable",
      "type": "function"
    }
  ],
  "bytecode": "0x60a060405234801562000010575f80fd5b50610167608052600160208181527fa6eef7e35abe7026729641147f7915573c7e97b47efa546f5f6e3230263bcb499190915560027fcc69885fda6bcc1a4ace058b4a62bf5e179ea78fd58a1ccd71c22cc9b688792f5560047fd9d16d34ffb15ba3a3d852f0d403e2ce1d691fb54de27ac87cd2f993f3ec330f5560087f7dfe757ecd65cbd7922a9c0161e935dd7fdbcc0e999689c7d31633896b1fc60b5560107fedc95719e9a3b28dd8e80877cb5880a9be7de1a13fc8b05e7999683b6b567643557fe2689cd4a84e23ad2f564004f1c9013e9589d260bde6380aba3ca7e09e4df40c5560065f5260407f8f331abe73332f95a25873e8b430885974c0409691f89d643119a11623a7924a55608051620114be620001385f395f616eed0152620114be5ff3fe608060405260043610620003af575f3560e01c80637336aaf011620001ee578063af99c6331162000112578063e459524911620000aa578063f069f7121162000076578063f069f7121462000c74578063f2c31ff41462000c98578063f49f40db1462000cbc578063f7f38e261462000ce4575f80fd5b8063e45952491462000bf1578063ea83f2931462000c15578063eca369171462000c2c578063efef57f91462000c50575f80fd5b8063d6910d0611620000ea578063d6910d061462000b35578063da23fff91462000b74578063e0f4059a1462000b98578063e1f21c671462000bcd575f80fd5b8063af99c6331462000ab9578063d27be6cd1462000add578063d614cdb81462000b01575f80fd5b806393272baf1162000186578063a73aab68116200015e578063a73aab681462000a24578063a7daa18d1462000a48578063abb54eb51462000a6c578063ae7611a01462000a83575f80fd5b806393272baf146200099a5780639b23d3d914620009dc578063a0ecee331462000a00575f80fd5b80637d305cfa11620001c65780637d305cfa14620008ef57806382bba49314620009135780638f8d7f991462000937578063927da105146200095b575f80fd5b80637336aaf0146200088357806378b6391814620008a75780637c41ad2c14620008cb575f80fd5b8063367605ca11620002d657806352f91387116200026e5780635cfc901111620002465780635cfc901114620007aa578063618dc65e14620007ce5780636cf9924814620008025780636fc3cbaf146200085f575f80fd5b806352f91387146200073e578063535575b214620007625780635b8f85841462000786575f80fd5b80633f28a19b11620002ae5780633f28a19b146200069e57806346de0fb114620006d257806349146bde14620006f6578063524c3311146200071a575f80fd5b8063367605ca14620006225780633b3bff0f14620006465780633c4dd32e146200066a575f80fd5b806319f37361116200034a5780632af0c59a11620003225780632af0c59a146200059f5780632c4ba19114620005b65780632e63879b14620005da578063335e04c114620005fe575f80fd5b806319f3736114620004f85780631f69565f1462000537578063287e1da8146200056b575f80fd5b80630e71804f116200038a5780630e71804f14620004735780630fb65bf31462000497578063154a97a014620004ae57806315dacbea14620004d4575f80fd5b80630863684b14620003b3578063098f236614620003f4578063099794e8146200043b575b5f80fd5b348015620003bf575f80fd5b50620003d7620003d13660046200918a565b62000d08565b6040516001600160a01b0390911681526020015b60405180910390f35b34801562000400575f80fd5b506200041862000412366004620091a8565b62000d1a565b6040805160079390930b83526001600160a01b03909116602083015201620003eb565b34801562000447575f80fd5b506200045f62000459366004620091d5565b62000daf565b60405160079190910b8152602001620003eb565b3480156200047f575f80fd5b506200045f620004913660046200947f565b62000e0b565b62000418620004a836600462009a5b565b62000e16565b348015620004ba575f80fd5b50620004d2620004cc36600462009ea7565b62000ec3565b005b348015620004e0575f80fd5b506200045f620004f236600462009f40565b62000f84565b34801562000504575f80fd5b506200051c620005163660046200918a565b6200105f565b6040805160079390930b8352901515602083015201620003eb565b34801562000543575f80fd5b506200055b620005553660046200918a565b62001089565b604051620003eb9291906200a406565b34801562000577575f80fd5b506200058f620005893660046200a423565b62001f9c565b604051620003eb9291906200a454565b62000418620005b03660046200a4e6565b62002867565b348015620005c2575f80fd5b506200045f620005d43660046200a66f565b62002924565b348015620005e6575f80fd5b506200045f620005f83660046200a70f565b62002a4f565b3480156200060a575f80fd5b506200051c6200061c3660046200918a565b62002ac0565b3480156200062e575f80fd5b506200045f620006403660046200a757565b62002b5a565b34801562000652575f80fd5b506200045f620006643660046200918a565b62002bfa565b34801562000676575f80fd5b506200068e62000688366004620091a8565b62002c4c565b604051620003eb9291906200a7a6565b348015620006aa575f80fd5b50620006c2620006bc3660046200918a565b62002cc7565b604051620003eb9291906200a7f0565b348015620006de575f80fd5b506200051c620006f0366004620091d5565b62003470565b34801562000702575f80fd5b506200045f62000714366004620091d5565b62004430565b34801562000726575f80fd5b506200045f620007383660046200a80d565b6200448f565b3480156200074a575f80fd5b506200045f6200075c366004620091d5565b6200450b565b3480156200076e575f80fd5b506200045f620007803660046200a757565b6200456e565b34801562000792575f80fd5b506200045f620007a4366004620091d5565b620045d6565b348015620007b6575f80fd5b506200045f620007c83660046200a855565b62004638565b348015620007da575f80fd5b50620007f2620007ec3660046200a8b7565b6200471e565b604051620003eb9291906200a8ff565b3480156200080e575f80fd5b506200084e62000820366004620091d5565b6001600160a01b039081165f9081526007602090815260408083209490931682529290925290205460ff1690565b6040519015158152602001620003eb565b3480156200086b575f80fd5b506200045f6200087d3660046200a91c565b6200472b565b3480156200088f575f80fd5b506200045f620008a13660046200a964565b620047af565b348015620008b3575f80fd5b506200045f620008c53660046200a70f565b6200485b565b348015620008d7575f80fd5b506200045f620008e93660046200918a565b620048ca565b348015620008fb575f80fd5b506200045f6200090d3660046200a9a7565b6200491c565b3480156200091f575f80fd5b506200045f620009313660046200a9ef565b620049a0565b34801562000943575f80fd5b506200045f62000955366004620091d5565b62004a8f565b34801562000967575f80fd5b506200097f620009793660046200aa68565b62004ae8565b6040805160079390930b8352602083019190915201620003eb565b348015620009a6575f80fd5b50620009be620009b83660046200918a565b62004b87565b6040805160079390930b835260039190910b602083015201620003eb565b348015620009e8575f80fd5b506200045f620009fa36600462009f40565b62004bea565b34801562000a0c575f80fd5b506200045f62000a1e36600462009f40565b62004cc3565b34801562000a30575f80fd5b506200045f62000a423660046200aaac565b62004d46565b34801562000a54575f80fd5b506200051c62000a663660046200918a565b62004e61565b6200041862000a7d3660046200ab8c565b62004efc565b34801562000a8f575f80fd5b5062000aa762000aa13660046200918a565b62004f90565b604051620003eb94939291906200ac0d565b34801562000ac5575f80fd5b506200045f62000ad7366004620091d5565b6200548e565b34801562000ae9575f80fd5b506200045f62000afb3660046200ac54565b620054f0565b34801562000b0d575f80fd5b5062000b2562000b1f3660046200918a565b62005574565b604051620003eb9291906200ac8d565b34801562000b41575f80fd5b5062000b5962000b533660046200accc565b62005671565b60408051600793840b81529190920b602082015201620003eb565b34801562000b80575f80fd5b50620004d262000b923660046200ad27565b6200582e565b34801562000ba4575f80fd5b5062000bbc62000bb63660046200aaac565b620058c9565b604051620003eb939291906200ada2565b34801562000bd9575f80fd5b506200045f62000beb3660046200a964565b62005af0565b34801562000bfd575f80fd5b506200045f62000c0f3660046200a964565b62005b69565b6200041862000c263660046200add1565b62005bdf565b34801562000c38575f80fd5b506200045f62000c4a3660046200a855565b62005c62565b34801562000c5c575f80fd5b506200045f62000c6e3660046200ae06565b62005cf8565b34801562000c80575f80fd5b506200045f62000c923660046200918a565b62005d96565b34801562000ca4575f80fd5b506200051c62000cb6366004620091d5565b62005de6565b34801562000cc8575f80fd5b506200051c62000cda3660046200aa68565b5f80935093915050565b34801562000cf0575f80fd5b506200045f62000d023660046200ae4a565b62006da0565b5f62000d148262006e5f565b92915050565b5f805f62000d29858562006ec3565b935090508062000d3a575062000da8565b60405163020604bf60e21b8152600481018590526001600160a01b0386169063081812fc90602401602060405180830381865afa15801562000d7e573d5f803e3d5ffd5b505050506040513d601f19601f8201168201806040525081019062000da491906200ae7c565b9150505b9250929050565b5f62000dba62006ee2565b5f62000dc7848462006f5e565b925090508062000dd8575062000d14565b506001600160a01b038083165f908152600760209081526040808320938716835292905220805460ff1916905592915050565b5f62000d1462006ee2565b5f8062000e2262006ee2565b62000e303386868662006f93565b9150600782900b60161462000e4757505f62000ebb565b62000e516200903a565b62000e5b6200905b565b868152600786900b602080830191909152600386900b908301528082526040515f90839062000e8a906200910d565b62000e9691906200ae9a565b604051809103905ff08015801562000eb0573d5f803e3d5ffd5b506016955093505050505b935093915050565b6001600160a01b0382163014155f8162000edf57601662000efb565b825180516020918201519185015162000efb9287929162006f93565b9050600781900b60161462000f495760405162461bcd60e51b815260206004820152600f60248201526e14149150d21150d2d7d19052531151608a1b60448201526064015b60405180910390fd5b335f818152600360205260408120805460ff1916600117905562000f6d856200722e565b905062000f7b818362004430565b50505050505050565b5f62000f8f62006ee2565b335f8062000fa18884898989620072bc565b909550925090508062000fb75750505062001057565b62000fc688848989896200746c565b60405163b59fc61960e01b815282151560048201526001600160a01b038481166024830152888116604483015287811660648301526084820187905289169063b59fc6199060a4016020604051808303815f875af11580156200102b573d5f803e3d5ffd5b505050506040513d601f19601f820116820180604052508101906200105191906200aeae565b93505050505b949350505050565b5f806200106c83620074da565b9050806200107c5760a76200107f565b60165b60030b9150915091565b5f620010946200905b565b5f620010a0846200751a565b9350905080620010b05750915091565b6001600160a01b0384165f9081526003602052604090205460ff161562001836576001600160a01b0384165f908152600260205260409081902081516102408101909252805482906101208201908390829082906200110f906200aecc565b80601f01602080910402602001604051908101604052809291908181526020018280546200113d906200aecc565b80156200118c5780601f1062001162576101008083540402835291602001916200118c565b820191905f5260205f20905b8154815290600101906020018083116200116e57829003601f168201915b50505050508152602001600182018054620011a7906200aecc565b80601f0160208091040260200160405190810160405280929190818152602001828054620011d5906200aecc565b8015620012245780601f10620011fa5761010080835404028352916020019162001224565b820191905f5260205f20905b8154815290600101906020018083116200120657829003601f168201915b505050918352505060028201546001600160a01b0316602082015260038201805460409092019162001256906200aecc565b80601f016020809104026020016040519081016040528092919081815260200182805462001284906200aecc565b8015620012d35780601f10620012a957610100808354040283529160200191620012d3565b820191905f5260205f20905b815481529060010190602001808311620012b557829003601f168201915b5050509183525050600482015460ff8082161515602080850191909152610100830460070b604080860191909152600160481b9093049091161515606084015260058401805483518184028101840190945280845260809094019390915f9084015b82821015620014eb575f8481526020908190206040805180820182526005860290920180548352815160a08101835260018201805460ff81161515835261010090046001600160a01b031682870152600283018054959693959387019492939192840191620013a4906200aecc565b80601f0160208091040260200160405190810160405280929190818152602001828054620013d2906200aecc565b8015620014215780601f10620013f75761010080835404028352916020019162001421565b820191905f5260205f20905b8154815290600101906020018083116200140357829003601f168201915b505050505081526020016002820180546200143c906200aecc565b80601f01602080910402602001604051908101604052809291908181526020018280546200146a906200aecc565b8015620014b95780601f106200148f57610100808354040283529160200191620014b9565b820191905f5260205f20905b8154815290600101906020018083116200149b57829003601f168201915b5050509183525050600391909101546001600160a01b0316602091820152915291835250600192909201910162001335565b5050509082525060408051606080820183526006850154600781810b84526001600160a01b03600160401b928390041660208581019190915296810154810b848601529486019290925294865260088701549283900b8685015260ff9083048116151586830152600160481b83048116151594860194909452600160501b9091049092161515608084015260098401805483518184028101840190945280845260a09094019390915f9084015b828210156200161c575f8481526020908190206040805160a081018252600286029092018054600781900b84526001600160a01b03600160401b820481168587015260ff600160e01b83048116151594860194909452600160e81b909104909216151560608401526001908101549091166080830152908352909201910162001598565b505050508152602001600a8201805480602002602001604051908101604052809291908181526020015f905b82821015620016d3575f8481526020908190206040805160c081018252600286029092018054600781810b8552600160401b8204810b85870152600160801b8204810b93850193909352600160c01b900490910b606083015260019081015460ff81161515608084015261010090046001600160a01b031660a0830152908352909201910162001648565b505050508152602001600b8201805480602002602001604051908101604052809291908181526020015f905b828210156200178e575f8481526020908190206040805160c081018252600386029092018054600781810b8552600160401b8204810b85870152600160801b909104900b918301919091526001808201546001600160a01b038082166060860152600160a01b90910460ff161515608085015260029092015490911660a08301529083529092019101620016ff565b505050508152602001600c82018054620017a8906200aecc565b80601f0160208091040260200160405190810160405280929190818152602001828054620017d6906200aecc565b8015620018255780601f10620017fb5761010080835404028352916020019162001825565b820191905f5260205f20905b8154815290600101906020018083116200180757829003601f168201915b505050505081525050915062001f96565b6001600160a01b0384165f9081526004602052604090819020815161024081019092528054829061012082019083908290829062001874906200aecc565b80601f0160208091040260200160405190810160405280929190818152602001828054620018a2906200aecc565b8015620018f15780601f10620018c757610100808354040283529160200191620018f1565b820191905f5260205f20905b815481529060010190602001808311620018d357829003601f168201915b505050505081526020016001820180546200190c906200aecc565b80601f01602080910402602001604051908101604052809291908181526020018280546200193a906200aecc565b8015620019895780601f106200195f5761010080835404028352916020019162001989565b820191905f5260205f20905b8154815290600101906020018083116200196b57829003601f168201915b505050918352505060028201546001600160a01b03166020820152600382018054604090920191620019bb906200aecc565b80601f0160208091040260200160405190810160405280929190818152602001828054620019e9906200aecc565b801562001a385780601f1062001a0e5761010080835404028352916020019162001a38565b820191905f5260205f20905b81548152906001019060200180831162001a1a57829003601f168201915b5050509183525050600482015460ff8082161515602080850191909152610100830460070b604080860191909152600160481b9093049091161515606084015260058401805483518184028101840190945280845260809094019390915f9084015b8282101562001c50575f8481526020908190206040805180820182526005860290920180548352815160a08101835260018201805460ff81161515835261010090046001600160a01b03168287015260028301805495969395938701949293919284019162001b09906200aecc565b80601f016020809104026020016040519081016040528092919081815260200182805462001b37906200aecc565b801562001b865780601f1062001b5c5761010080835404028352916020019162001b86565b820191905f5260205f20905b81548152906001019060200180831162001b6857829003601f168201915b5050505050815260200160028201805462001ba1906200aecc565b80601f016020809104026020016040519081016040528092919081815260200182805462001bcf906200aecc565b801562001c1e5780601f1062001bf45761010080835404028352916020019162001c1e565b820191905f5260205f20905b81548152906001019060200180831162001c0057829003601f168201915b5050509183525050600391909101546001600160a01b0316602091820152915291835250600192909201910162001a9a565b5050509082525060408051606080820183526006850154600781810b84526001600160a01b03600160401b928390041660208581019190915296810154810b848601529486019290925294865260088701549283900b8685015260ff9083048116151586830152600160481b83048116151594860194909452600160501b9091049092161515608084015260098401805483518184028101840190945280845260a09094019390915f9084015b8282101562001d81575f8481526020908190206040805160a081018252600286029092018054600781900b84526001600160a01b03600160401b820481168587015260ff600160e01b83048116151594860194909452600160e81b909104909216151560608401526001908101549091166080830152908352909201910162001cfd565b505050508152602001600a8201805480602002602001604051908101604052809291908181526020015f905b8282101562001e38575f8481526020908190206040805160c081018252600286029092018054600781810b8552600160401b8204810b85870152600160801b8204810b93850193909352600160c01b900490910b606083015260019081015460ff81161515608084015261010090046001600160a01b031660a0830152908352909201910162001dad565b505050508152602001600b8201805480602002602001604051908101604052809291908181526020015f905b8282101562001ef3575f8481526020908190206040805160c081018252600386029092018054600781810b8552600160401b8204810b85870152600160801b909104900b918301919091526001808201546001600160a01b038082166060860152600160a01b90910460ff161515608085015260029092015490911660a0830152908352909201910162001e64565b505050508152602001600c8201805462001f0d906200aecc565b80601f016020809104026020016040519081016040528092919081815260200182805462001f3b906200aecc565b801562001f8a5780601f1062001f605761010080835404028352916020019162001f8a565b820191905f5260205f20905b81548152906001019060200180831162001f6c57829003601f168201915b50505050508152505091505b50915091565b5f62001fa76200911b565b5f62001fb38562007538565b935090508062001fc4575062000da8565b6001600160a01b0385165f90815260046020526040808220815161024081019092528054829061012082019083908290829062002001906200aecc565b80601f01602080910402602001604051908101604052809291908181526020018280546200202f906200aecc565b80156200207e5780601f1062002054576101008083540402835291602001916200207e565b820191905f5260205f20905b8154815290600101906020018083116200206057829003601f168201915b5050505050815260200160018201805462002099906200aecc565b80601f0160208091040260200160405190810160405280929190818152602001828054620020c7906200aecc565b8015620021165780601f10620020ec5761010080835404028352916020019162002116565b820191905f5260205f20905b815481529060010190602001808311620020f857829003601f168201915b505050918352505060028201546001600160a01b0316602082015260038201805460409092019162002148906200aecc565b80601f016020809104026020016040519081016040528092919081815260200182805462002176906200aecc565b8015620021c55780601f106200219b57610100808354040283529160200191620021c5565b820191905f5260205f20905b815481529060010190602001808311620021a757829003601f168201915b5050509183525050600482015460ff8082161515602080850191909152610100830460070b604080860191909152600160481b9093049091161515606084015260058401805483518184028101840190945280845260809094019390915f9084015b82821015620023dd575f8481526020908190206040805180820182526005860290920180548352815160a08101835260018201805460ff81161515835261010090046001600160a01b03168287015260028301805495969395938701949293919284019162002296906200aecc565b80601f0160208091040260200160405190810160405280929190818152602001828054620022c4906200aecc565b8015620023135780601f10620022e95761010080835404028352916020019162002313565b820191905f5260205f20905b815481529060010190602001808311620022f557829003601f168201915b505050505081526020016002820180546200232e906200aecc565b80601f01602080910402602001604051908101604052809291908181526020018280546200235c906200aecc565b8015620023ab5780601f106200238157610100808354040283529160200191620023ab565b820191905f5260205f20905b8154815290600101906020018083116200238d57829003601f168201915b5050509183525050600391909101546001600160a01b0316602091820152915291835250600192909201910162002227565b5050509082525060408051606080820183526006850154600781810b84526001600160a01b03600160401b928390041660208581019190915296810154810b848601529486019290925294865260088701549283900b8685015260ff9083048116151586830152600160481b83048116151594860194909452600160501b9091049092161515608084015260098401805483518184028101840190945280845260a09094019390915f9084015b828210156200250e575f8481526020908190206040805160a081018252600286029092018054600781900b84526001600160a01b03600160401b820481168587015260ff600160e01b83048116151594860194909452600160e81b90910490921615156060840152600190810154909116608083015290835290920191016200248a565b505050508152602001600a8201805480602002602001604051908101604052809291908181526020015f905b82821015620025c5575f8481526020908190206040805160c081018252600286029092018054600781810b8552600160401b8204810b85870152600160801b8204810b93850193909352600160c01b900490910b606083015260019081015460ff81161515608084015261010090046001600160a01b031660a083015290835290920191016200253a565b505050508152602001600b8201805480602002602001604051908101604052809291908181526020015f905b8282101562002680575f8481526020908190206040805160c081018252600386029092018054600781810b8552600160401b8204810b85870152600160801b909104900b918301919091526001808201546001600160a01b038082166060860152600160a01b90910460ff161515608085015260029092015490911660a08301529083529092019101620025f1565b505050508152602001600c820180546200269a906200aecc565b80601f0160208091040260200160405190810160405280929190818152602001828054620026c8906200aecc565b8015620027175780601f10620026ed5761010080835404028352916020019162002717565b820191905f5260205f20905b815481529060010190602001808311620026f957829003601f168201915b505050919092525050506001600160a01b038088165f90815260056020908152604080832060078b810b8552908352818420825160808101845281549687168152600160a01b90960490910b92850192909252600182018054959650929491929084019162002786906200aecc565b80601f0160208091040260200160405190810160405280929190818152602001828054620027b4906200aecc565b8015620028035780601f10620027d95761010080835404028352916020019162002803565b820191905f5260205f20905b815481529060010190602001808311620027e557829003601f168201915b5050509183525050600291909101546001600160a01b03908116602092830152938652600788810b878301528251851660408089019190915291830151900b606080880191909152908201516080870152015190911660a084015250509250929050565b5f806200287362006ee2565b620028813388888862006f93565b9150600782900b6016146200289857505f6200291a565b620028a26200903a565b620028ac6200905b565b888152600788900b60208083019190915260a0820187905260c08201869052600388900b908301528082526040515f908390620028e9906200910d565b620028f591906200ae9a565b604051809103905ff0801580156200290f573d5f803e3d5ffd5b506016955093505050505b9550959350505050565b5f6200292f62006ee2565b83518351835181831480156200294457508083145b620029835760405162461bcd60e51b815260206004820152600e60248201526d554e455155414c5f41525241595360901b604482015260640162000f40565b5f8080805b8681101562002a40578a8181518110620029a657620029a66200af00565b60200260200101519350898181518110620029c557620029c56200af00565b60200260200101519250888181518110620029e457620029e46200af00565b60200260200101519150620029fc8c85858562004638565b9750600788900b60161462002a2b5760405163fbe0be3960e01b8152600789900b600482015260240162000f40565b8062002a37816200af28565b91505062002988565b50505050505050949350505050565b5f62002a5a62006ee2565b5f5b825181101562002ab95762002a8e8484838151811062002a805762002a806200af00565b602002602001015162004430565b9150600782900b60161462002aa4575062000d14565b8062002ab0816200af28565b91505062002a5c565b5092915050565b5f805f62002ace846200751a565b935090508062002ade5750915091565b6001600160a01b0384165f9081526003602052604090205460ff161562002b2c576001600160a01b0384165f90815260026020526040902060080154600160481b900460ff16915062001f96565b6001600160a01b0384165f9081526004602052604090206008015460ff600160481b90910416915050915091565b5f62002b6562006ee2565b335f62002b75868387876200756c565b935090508062002b8757505062002bf3565b6040516301fe292760e31b81526001600160a01b03838116600483015286811660248301528515156044830152871690630ff14938906064015b5f604051808303815f87803b15801562002bd9575f80fd5b505af115801562002bec573d5f803e3d5ffd5b5050505050505b9392505050565b5f62002c0562006ee2565b5f62002c1233846200766b565b925090508062002c225750919050565b506001600160a01b0382165f908152600c60205260409020805461ffff191660011790555b919050565b6040805160a0810182525f80825260208201819052606092820183905282820192909252608081018290525f62002c83856200751a565b935090508062002c94575062000da8565b506001600160a01b038085165f908152600a60209081526040808320878452825290912054909116908201529250929050565b5f62002cd26200903a565b5f62002cde84620076af565b935090508062002cee5750915091565b6001600160a01b0384165f9081526002602052604090819020815161028081018352815490928391908201908390829061016085019083908290829062002d35906200aecc565b80601f016020809104026020016040519081016040528092919081815260200182805462002d63906200aecc565b801562002db25780601f1062002d885761010080835404028352916020019162002db2565b820191905f5260205f20905b81548152906001019060200180831162002d9457829003601f168201915b5050505050815260200160018201805462002dcd906200aecc565b80601f016020809104026020016040519081016040528092919081815260200182805462002dfb906200aecc565b801562002e4a5780601f1062002e205761010080835404028352916020019162002e4a565b820191905f5260205f20905b81548152906001019060200180831162002e2c57829003601f168201915b505050918352505060028201546001600160a01b0316602082015260038201805460409092019162002e7c906200aecc565b80601f016020809104026020016040519081016040528092919081815260200182805462002eaa906200aecc565b801562002ef95780601f1062002ecf5761010080835404028352916020019162002ef9565b820191905f5260205f20905b81548152906001019060200180831162002edb57829003601f168201915b5050509183525050600482015460ff8082161515602080850191909152610100830460070b604080860191909152600160481b9093049091161515606084015260058401805483518184028101840190945280845260809094019390915f9084015b8282101562003111575f8481526020908190206040805180820182526005860290920180548352815160a08101835260018201805460ff81161515835261010090046001600160a01b03168287015260028301805495969395938701949293919284019162002fca906200aecc565b80601f016020809104026020016040519081016040528092919081815260200182805462002ff8906200aecc565b8015620030475780601f106200301d5761010080835404028352916020019162003047565b820191905f5260205f20905b8154815290600101906020018083116200302957829003601f168201915b5050505050815260200160028201805462003062906200aecc565b80601f016020809104026020016040519081016040528092919081815260200182805462003090906200aecc565b8015620030df5780601f10620030b557610100808354040283529160200191620030df565b820191905f5260205f20905b815481529060010190602001808311620030c157829003601f168201915b5050509183525050600391909101546001600160a01b0316602091820152915291835250600192909201910162002f5b565b5050509082525060408051606080820183526006850154600781810b84526001600160a01b03600160401b928390041660208581019190915296810154810b848601529486019290925294865260088701549283900b8685015260ff9083048116151586830152600160481b83048116151594860194909452600160501b9091049092161515608084015260098401805483518184028101840190945280845260a09094019390915f9084015b8282101562003242575f8481526020908190206040805160a081018252600286029092018054600781900b84526001600160a01b03600160401b820481168587015260ff600160e01b83048116151594860194909452600160e81b9091049092161515606084015260019081015490911660808301529083529092019101620031be565b505050508152602001600a8201805480602002602001604051908101604052809291908181526020015f905b82821015620032f9575f8481526020908190206040805160c081018252600286029092018054600781810b8552600160401b8204810b85870152600160801b8204810b93850193909352600160c01b900490910b606083015260019081015460ff81161515608084015261010090046001600160a01b031660a083015290835290920191016200326e565b505050508152602001600b8201805480602002602001604051908101604052809291908181526020015f905b82821015620033b4575f8481526020908190206040805160c081018252600386029092018054600781810b8552600160401b8204810b85870152600160801b909104900b918301919091526001808201546001600160a01b038082166060860152600160a01b90910460ff161515608085015260029092015490911660a0830152908352909201910162003325565b505050508152602001600c82018054620033ce906200aecc565b80601f0160208091040260200160405190810160405280929190818152602001828054620033fc906200aecc565b80156200344b5780601f1062003421576101008083540402835291602001916200344b565b820191905f5260205f20905b8154815290600101906020018083116200342d57829003601f168201915b505050919092525050508152600d919091015460030b60209091015292949293505050565b5f806001620034808585620076e3565b935090508062003491575062000da8565b6001600160a01b0385165f90815260036020908152604080832054600690925282205460ff91821692911690821562003c4c576001600160a01b0388165f9081526002602052604080822081516102808101835281549092839190820190839082906101608501908390829082906200350a906200aecc565b80601f016020809104026020016040519081016040528092919081815260200182805462003538906200aecc565b8015620035875780601f106200355d5761010080835404028352916020019162003587565b820191905f5260205f20905b8154815290600101906020018083116200356957829003601f168201915b50505050508152602001600182018054620035a2906200aecc565b80601f0160208091040260200160405190810160405280929190818152602001828054620035d0906200aecc565b80156200361f5780601f10620035f5576101008083540402835291602001916200361f565b820191905f5260205f20905b8154815290600101906020018083116200360157829003601f168201915b505050918352505060028201546001600160a01b0316602082015260038201805460409092019162003651906200aecc565b80601f01602080910402602001604051908101604052809291908181526020018280546200367f906200aecc565b8015620036ce5780601f10620036a457610100808354040283529160200191620036ce565b820191905f5260205f20905b815481529060010190602001808311620036b057829003601f168201915b5050509183525050600482015460ff8082161515602080850191909152610100830460070b604080860191909152600160481b9093049091161515606084015260058401805483518184028101840190945280845260809094019390915f9084015b82821015620038e6575f8481526020908190206040805180820182526005860290920180548352815160a08101835260018201805460ff81161515835261010090046001600160a01b0316828701526002830180549596939593870194929391928401916200379f906200aecc565b80601f0160208091040260200160405190810160405280929190818152602001828054620037cd906200aecc565b80156200381c5780601f10620037f2576101008083540402835291602001916200381c565b820191905f5260205f20905b815481529060010190602001808311620037fe57829003601f168201915b5050505050815260200160028201805462003837906200aecc565b80601f016020809104026020016040519081016040528092919081815260200182805462003865906200aecc565b8015620038b45780601f106200388a57610100808354040283529160200191620038b4565b820191905f5260205f20905b8154815290600101906020018083116200389657829003601f168201915b5050509183525050600391909101546001600160a01b0316602091820152915291835250600192909201910162003730565b5050509082525060408051606080820183526006850154600781810b84526001600160a01b03600160401b928390041660208581019190915296810154810b848601529486019290925294865260088701549283900b8685015260ff9083048116151586830152600160481b83048116151594860194909452600160501b9091049092161515608084015260098401805483518184028101840190945280845260a09094019390915f9084015b8282101562003a17575f8481526020908190206040805160a081018252600286029092018054600781900b84526001600160a01b03600160401b820481168587015260ff600160e01b83048116151594860194909452600160e81b909104909216151560608401526001908101549091166080830152908352909201910162003993565b505050508152602001600a8201805480602002602001604051908101604052809291908181526020015f905b8282101562003ace575f8481526020908190206040805160c081018252600286029092018054600781810b8552600160401b8204810b85870152600160801b8204810b93850193909352600160c01b900490910b606083015260019081015460ff81161515608084015261010090046001600160a01b031660a0830152908352909201910162003a43565b505050508152602001600b8201805480602002602001604051908101604052809291908181526020015f905b8282101562003b89575f8481526020908190206040805160c081018252600386029092018054600781810b8552600160401b8204810b85870152600160801b909104900b918301919091526001808201546001600160a01b038082166060860152600160a01b90910460ff161515608085015260029092015490911660a0830152908352909201910162003afa565b505050508152602001600c8201805462003ba3906200aecc565b80601f016020809104026020016040519081016040528092919081815260200182805462003bd1906200aecc565b801562003c205780601f1062003bf65761010080835404028352916020019162003c20565b820191905f5260205f20905b81548152906001019060200180831162003c0257829003601f168201915b505050919092525050508152600d919091015460030b602090910152515160c001519150620043b39050565b6001600160a01b0388165f90815260046020526040808220815161024081019092528054829061012082019083908290829062003c89906200aecc565b80601f016020809104026020016040519081016040528092919081815260200182805462003cb7906200aecc565b801562003d065780601f1062003cdc5761010080835404028352916020019162003d06565b820191905f5260205f20905b81548152906001019060200180831162003ce857829003601f168201915b5050505050815260200160018201805462003d21906200aecc565b80601f016020809104026020016040519081016040528092919081815260200182805462003d4f906200aecc565b801562003d9e5780601f1062003d745761010080835404028352916020019162003d9e565b820191905f5260205f20905b81548152906001019060200180831162003d8057829003601f168201915b505050918352505060028201546001600160a01b0316602082015260038201805460409092019162003dd0906200aecc565b80601f016020809104026020016040519081016040528092919081815260200182805462003dfe906200aecc565b801562003e4d5780601f1062003e235761010080835404028352916020019162003e4d565b820191905f5260205f20905b81548152906001019060200180831162003e2f57829003601f168201915b5050509183525050600482015460ff8082161515602080850191909152610100830460070b604080860191909152600160481b9093049091161515606084015260058401805483518184028101840190945280845260809094019390915f9084015b8282101562004065575f8481526020908190206040805180820182526005860290920180548352815160a08101835260018201805460ff81161515835261010090046001600160a01b03168287015260028301805495969395938701949293919284019162003f1e906200aecc565b80601f016020809104026020016040519081016040528092919081815260200182805462003f4c906200aecc565b801562003f9b5780601f1062003f715761010080835404028352916020019162003f9b565b820191905f5260205f20905b81548152906001019060200180831162003f7d57829003601f168201915b5050505050815260200160028201805462003fb6906200aecc565b80601f016020809104026020016040519081016040528092919081815260200182805462003fe4906200aecc565b8015620040335780601f10620040095761010080835404028352916020019162004033565b820191905f5260205f20905b8154815290600101906020018083116200401557829003601f168201915b5050509183525050600391909101546001600160a01b0316602091820152915291835250600192909201910162003eaf565b5050509082525060408051606080820183526006850154600781810b84526001600160a01b03600160401b928390041660208581019190915296810154810b848601529486019290925294865260088701549283900b8685015260ff9083048116151586830152600160481b83048116151594860194909452600160501b9091049092161515608084015260098401805483518184028101840190945280845260a09094019390915f9084015b8282101562004196575f8481526020908190206040805160a081018252600286029092018054600781900b84526001600160a01b03600160401b820481168587015260ff600160e01b83048116151594860194909452600160e81b909104909216151560608401526001908101549091166080830152908352909201910162004112565b505050508152602001600a8201805480602002602001604051908101604052809291908181526020015f905b828210156200424d575f8481526020908190206040805160c081018252600286029092018054600781810b8552600160401b8204810b85870152600160801b8204810b93850193909352600160c01b900490910b606083015260019081015460ff81161515608084015261010090046001600160a01b031660a08301529083529092019101620041c2565b505050508152602001600b8201805480602002602001604051908101604052809291908181526020015f905b8282101562004308575f8481526020908190206040805160c081018252600386029092018054600781810b8552600160401b8204810b85870152600160801b909104900b918301919091526001808201546001600160a01b038082166060860152600160a01b90910460ff161515608085015260029092015490911660a0830152908352909201910162004279565b505050508152602001600c8201805462004322906200aecc565b80601f016020809104026020016040519081016040528092919081815260200182805462004350906200aecc565b80156200439f5780601f1062004375576101008083540402835291602001916200439f565b820191905f5260205f20905b8154815290600101906020018083116200438157829003601f168201915b505050919092525050905160c00151925050505b6001600160a01b038089165f908152600960209081526040808320938b1683529281529082902082518084019093525460ff8082161515808552610100909204161515918301919091526200441b57816200440f575f62004422565b80602001511562004422565b8060200151155b955050505050509250929050565b5f6200443b62006ee2565b5f62004448848462007715565b925090508062004459575062000d14565b506001600160a01b038083165f908152600760209081526040808320938716835292905220805460ff1916600117905592915050565b5f6200449b33620074da565b620044dc5760405162461bcd60e51b815260206004820152601060248201526f2727aa2fa422a222a920afaa27a5a2a760811b604482015260640162000f40565b335f620044eb8286866200776f565b935090508015620045035762004503828686620077fa565b505092915050565b5f6200451662006ee2565b5f6200452433858562007895565b925090508062004535575062000d14565b506001600160a01b039283165f90815260096020908152604080832094909516825292909252919020805461ffff191661010117905590565b5f6200457a33620074da565b620045bb5760405162461bcd60e51b815260206004820152601060248201526f2727aa2fa422a222a920afaa27a5a2a760811b604482015260640162000f40565b335f620045cb828787876200756c565b979650505050505050565b5f620045e162006ee2565b5f620045ef33858562007895565b925090508062004600575062000d14565b506001600160a01b039283165f90815260096020908152604080832094909516825292909252919020805461ffff1916600117905590565b5f6200464362006ee2565b336001600160401b0383165f806200465f89858a8a87620072bc565b909650925090508062004676575050505062001057565b6200468589858a8a876200746c565b60405163b59fc61960e01b815282151560048201526001600160a01b03858116602483015289811660448301528881166064830152608482018590528a169063b59fc6199060a4015b6020604051808303815f875af1158015620046eb573d5f803e3d5ffd5b505050506040513d601f19601f820116820180604052508101906200471191906200aeae565b9998505050505050505050565b5f606062000da862006ee2565b5f6200473662006ee2565b5f62004744338585620078e7565b925090508062004755575062000d14565b6001600160a01b0384165f9081526003602052604090205460ff1615620047825762004782848462007919565b6001600160a01b0384165f9081526006602052604090205460ff161562002ab95762002ab9848462007a86565b5f620047ba62006ee2565b3383835f620047cc8885858562007bed565b9550905080620047e0575050505062002bf3565b620047ee8885858962007ca1565b6040516306e483a560e01b81526001600160a01b038481166004830152600784900b60248301528916906306e483a5906044015f604051808303815f87803b15801562004839575f80fd5b505af11580156200484c573d5f803e3d5ffd5b50505050505050509392505050565b5f6200486662006ee2565b5f5b825181101562002ab9575f6200489b858584815181106200488d576200488d6200af00565b602002602001015162000daf565b9050600781900b601614620048b457915062000d149050565b5080620048c1816200af28565b91505062004868565b5f620048d562006ee2565b5f620048e233846200766b565b9250905080620048f25750919050565b506001600160a01b03919091165f908152600c60205260409020805461ffff191661010117905590565b5f6200492762006ee2565b5f62004935338585620078e7565b925090508062004946575062000d14565b6001600160a01b0384165f9081526003602052604090205460ff1615620049735762004973848462007d03565b6001600160a01b0384165f9081526006602052604090205460ff161562002ab95762002ab9848462007e2a565b5f620049ab62006ee2565b82518251808214620049f15760405162461bcd60e51b815260206004820152600e60248201526d554e455155414c5f41525241595360901b604482015260640162000f40565b335f80805b8581101562002bec5788818151811062004a145762004a146200af00565b6020026020010151925087818151811062004a335762004a336200af00565b6020026020010151915062004a4b8a85858562005c62565b9650600787900b60161462004a7a5760405163fbe0be3960e01b8152600788900b600482015260240162000f40565b8062004a86816200af28565b915050620049f6565b5f8062004a9e33858562007f55565b925090508062004aaf575062000d14565b506001600160a01b039283165f90815260086020908152604080832094909516825292909252919020805461ffff191661010117905590565b5f805f62004af886868662007f87565b935090508062004b09575062000ebb565b604051636eb1769f60e11b81526001600160a01b038681166004830152858116602483015287169063dd62ed3e90604401602060405180830381865afa15801562004b56573d5f803e3d5ffd5b505050506040513d601f19601f8201168201806040525081019062004b7c91906200af43565b915050935093915050565b5f805f62004b95846200751a565b935090508062004ba55750915091565b6001600160a01b0384165f9081526003602090815260408083205460069092529091205460ff91821691168162004bde57600162004be0565b5f5b9350505050915091565b5f62004bf562006ee2565b335f8062004c078884898989620072bc565b909550925090508062004c1d5750505062001057565b62004c2c88848989896200746c565b60405163b59fc61960e01b815282151560048201526001600160a01b038481166024830152888116604483015287811660648301526084820187905289169063b59fc6199060a4016020604051808303815f875af115801562004c91573d5f803e3d5ffd5b505050506040513d601f19601f8201168201806040525081019062004cb791906200aeae565b50505050949350505050565b5f62004ccf33620074da565b62004d105760405162461bcd60e51b815260206004820152601060248201526f2727aa2fa422a222a920afaa27a5a2a760811b604482015260640162000f40565b335f62004d218288888888620072bc565b5093509050801562004d3c5762004d3c82888888886200746c565b5050949350505050565b5f62004d5233620074da565b62004d935760405162461bcd60e51b815260206004820152601060248201526f2727aa2fa422a222a920afaa27a5a2a760811b604482015260640162000f40565b335f62004da282868662007f9b565b93509050801562004e58576001600160a01b0382165f9081526003602052604081205460ff161562004dd657508462004e49565b826001600160a01b0316639659867e6040518163ffffffff1660e01b8152600401602060405180830381865afa15801562004e13573d5f803e3d5ffd5b505050506040513d601f19601f8201168201806040525081019062004e3991906200aeae565b62004e469060016200af5b565b90505b62004e5683828762007fcd565b505b50509392505050565b5f805f62004e6f846200751a565b935090508062004e7f5750915091565b6001600160a01b0384165f9081526003602052604090205460ff161562004ecd576001600160a01b0384165f90815260026020526040902060040154600160481b900460ff16915062001f96565b6001600160a01b0384165f908152600460208190526040909120015460ff600160481b90910416915050915091565b5f8062004f0862006ee2565b62004f1633865f8062006f93565b9150600782900b60161462004f2d57505f62000ebb565b62004f376200905b565b85815260a0810185905260e081018490526040515f90829062004f5a9062009157565b62004f6691906200af8d565b604051809103905ff08015801562004f80573d5f803e3d5ffd5b5060169890975095505050505050565b5f60608060605f62004fa2866200751a565b955090508062004fb3575062005487565b6001600160a01b0386165f9081526003602052604090205460ff16156200522f576001600160a01b0386165f90815260026020908152604080832060090180548251818502810185019093528083529193909284015b828210156200508d575f8481526020908190206040805160a081018252600286029092018054600781900b84526001600160a01b03600160401b820481168587015260ff600160e01b83048116151594860194909452600160e81b909104909216151560608401526001908101549091166080830152908352909201910162005009565b5050506001600160a01b0388165f908152600260209081526040808320600a0180548251818502810185019093528083529599509094909350919084015b8282101562005156575f8481526020908190206040805160c081018252600286029092018054600781810b8552600160401b8204810b85870152600160801b8204810b93850193909352600160c01b900490910b606083015260019081015460ff81161515608084015261010090046001600160a01b031660a08301529083529092019101620050cb565b5050506001600160a01b0388165f908152600260209081526040808320600b0180548251818502810185019093528083529598509094909350919084015b8282101562005223575f8481526020908190206040805160c081018252600386029092018054600781810b8552600160401b8204810b85870152600160801b909104900b918301919091526001808201546001600160a01b038082166060860152600160a01b90910460ff161515608085015260029092015490911660a0830152908352909201910162005194565b50505050915062005485565b6001600160a01b0386165f90815260046020908152604080832060090180548251818502810185019093528083529193909284015b82821015620052e8575f8481526020908190206040805160a081018252600286029092018054600781900b84526001600160a01b03600160401b820481168587015260ff600160e01b83048116151594860194909452600160e81b909104909216151560608401526001908101549091166080830152908352909201910162005264565b5050506001600160a01b0388165f908152600460209081526040808320600a0180548251818502810185019093528083529599509094909350919084015b82821015620053b1575f8481526020908190206040805160c081018252600286029092018054600781810b8552600160401b8204810b85870152600160801b8204810b93850193909352600160c01b900490910b606083015260019081015460ff81161515608084015261010090046001600160a01b031660a0830152908352909201910162005326565b5050506001600160a01b0388165f908152600460209081526040808320600b0180548251818502810185019093528083529598509094909350919084015b828210156200547e575f8481526020908190206040805160c081018252600386029092018054600781810b8552600160401b8204810b85870152600160801b909104900b918301919091526001808201546001600160a01b038082166060860152600160a01b90910460ff161515608085015260029092015490911660a08301529083529092019101620053ef565b5050505091505b505b9193509193565b5f6200549962006ee2565b5f620054a733858562007f55565b9250905080620054b8575062000d14565b506001600160a01b039283165f90815260086020908152604080832094909516825292909252919020805461ffff1916600117905590565b5f620054fb62006ee2565b5f62005509338585620078e7565b92509050806200551a575062000d14565b6001600160a01b0384165f9081526003602052604090205460ff16156200554757620055478484620080c6565b6001600160a01b0384165f9081526006602052604090205460ff161562002ab95762002ab984846200813b565b604080516060810182525f808252602082018190529181018290525f6200559b846200751a565b9350905080620055ab5750915091565b6001600160a01b0384165f9081526003602052604090205460ff161562005620576001600160a01b038085165f9081526002602090815260409182902082516060810184526006820154600781810b8352600160401b9091049095169281019290925283015490920b90820152915062001f96565b50506001600160a01b039182165f9081526004602090815260409182902082516060810184526006820154600781810b8352600160401b9091049096169281019290925284015490930b9083015291565b5f806200567d62006ee2565b5f6200568b8686866200776f565b93509050806200569f57505f905062000ebb565b6001600160a01b0386165f9081526003602052604090205460ff16156200578357604051630cc3b83560e21b8152600786900b600482015286906001600160a01b0382169063330ee0d4906024015f604051808303815f87803b15801562005705575f80fd5b505af115801562005718573d5f803e3d5ffd5b50505050806001600160a01b03166318160ddd6040518163ffffffff1660e01b8152600401602060405180830381865afa15801562005759573d5f803e3d5ffd5b505050506040513d601f19601f820116820180604052508101906200577f91906200af43565b9250505b6001600160a01b0386165f9081526006602052604090205460ff161562005818576040516310e10ee560e31b81526001600160a01b03871690638708772890620057d29087906004016200afa1565b6020604051808303815f875af1158015620057ef573d5f803e3d5ffd5b505050506040513d601f19601f820116820180604052508101906200581591906200aeae565b91505b62005825868686620077fa565b50935093915050565b6001600160a01b0382163014155f816200584a5760166200585b565b6200585b84845f01515f8062006f93565b9050600781900b601614620058a55760405162461bcd60e51b815260206004820152600f60248201526e14149150d21150d2d7d19052531151608a1b604482015260640162000f40565b335f818152600660205260408120805460ff1916600117905562000f6d85620081b0565b5f806060620058d762006ee2565b5f620058e587878762007f9b565b945090508062005909575050604080515f8082526020820190925290915062005ae7565b6001600160a01b0387165f9081526003602052604081205460ff1615620059f057506040516303f5483b60e01b8152600787900b6004820152869088906001600160a01b038216906303f5483b906024015f604051808303815f87803b15801562005972575f80fd5b505af115801562005985573d5f803e3d5ffd5b50505050806001600160a01b03166318160ddd6040518163ffffffff1660e01b8152600401602060405180830381865afa158015620059c6573d5f803e3d5ffd5b505050506040513d601f19601f82011682018060405250810190620059ec91906200af43565b9450505b6001600160a01b0388165f9081526006602052604090205460ff161562005ad75760408051600180825281830190925290602080830190803683375050604051633d08925d60e01b81529194505f916001600160a01b038b169150633d08925d9062005a61908a906004016200afb5565b60408051808303815f875af115801562005a7d573d5f803e3d5ffd5b505050506040513d601f19601f8201168201806040525081019062005aa391906200b019565b809250819650505080845f8151811062005ac15762005ac16200af00565b60079290920b6020928302919091019091015290505b62005ae488828862007fcd565b50505b93509350939050565b5f62005afb62006ee2565b335f62005b0b8683878762007bed565b935090508062005b1d57505062002bf3565b62005b2b8683878762007ca1565b60405163b6ef1b5960e01b81526001600160a01b03838116600483015286811660248301526044820186905287169063b6ef1b599060640162002bc1565b5f62005b7533620074da565b62005bb65760405162461bcd60e51b815260206004820152601060248201526f2727aa2fa422a222a920afaa27a5a2a760811b604482015260640162000f40565b335f62005bc68287878762007bed565b93509050801562004e585762004e588287878762007ca1565b5f8062005beb62006ee2565b62005bf933845f8062006f93565b9150600782900b60161462005c0f57505f915091565b62005c196200905b565b8381526040515f90829062005c2e9062009157565b62005c3a91906200af8d565b604051809103905ff08015801562005c54573d5f803e3d5ffd5b506016945092505050915091565b5f62005c6d62006ee2565b335f600784900b8162005c8489858a8a86620072bc565b909650935090508062005c9b575050505062001057565b62005caa89858a8a866200746c565b60405163b59fc61960e01b815283151560048201526001600160a01b03858116602483015289811660448301528881166064830152608482018490528a169063b59fc6199060a401620046ce565b5f62005d0362006ee2565b60605f62005d15338787878662008200565b935090508062005d2757505062002bf3565b6040516328cd005960e01b81526001600160a01b038681166004830152600786900b60248301528791908216906328cd0059906044015f604051808303815f87803b15801562005d75575f80fd5b505af115801562005d88573d5f803e3d5ffd5b505050505050509392505050565b5f62005da162006ee2565b5f62005dae338462008285565b925090508062005dbe5750919050565b506001600160a01b0382165f908152600b60205260409020805460ff19166001179055919050565b5f805f62005df58585620082c9565b935090508062005e06575062000da8565b6001600160a01b0385165f90815260036020908152604080832054600690925282205460ff918216929116908215620065c0576001600160a01b0388165f90815260026020526040808220815161028081018352815490928391908201908390829061016085019083908290829062005e7f906200aecc565b80601f016020809104026020016040519081016040528092919081815260200182805462005ead906200aecc565b801562005efc5780601f1062005ed25761010080835404028352916020019162005efc565b820191905f5260205f20905b81548152906001019060200180831162005ede57829003601f168201915b5050505050815260200160018201805462005f17906200aecc565b80601f016020809104026020016040519081016040528092919081815260200182805462005f45906200aecc565b801562005f945780601f1062005f6a5761010080835404028352916020019162005f94565b820191905f5260205f20905b81548152906001019060200180831162005f7657829003601f168201915b505050918352505060028201546001600160a01b0316602082015260038201805460409092019162005fc6906200aecc565b80601f016020809104026020016040519081016040528092919081815260200182805462005ff4906200aecc565b8015620060435780601f10620060195761010080835404028352916020019162006043565b820191905f5260205f20905b8154815290600101906020018083116200602557829003601f168201915b5050509183525050600482015460ff8082161515602080850191909152610100830460070b604080860191909152600160481b9093049091161515606084015260058401805483518184028101840190945280845260809094019390915f9084015b828210156200625b575f8481526020908190206040805180820182526005860290920180548352815160a08101835260018201805460ff81161515835261010090046001600160a01b03168287015260028301805495969395938701949293919284019162006114906200aecc565b80601f016020809104026020016040519081016040528092919081815260200182805462006142906200aecc565b8015620061915780601f10620061675761010080835404028352916020019162006191565b820191905f5260205f20905b8154815290600101906020018083116200617357829003601f168201915b50505050508152602001600282018054620061ac906200aecc565b80601f0160208091040260200160405190810160405280929190818152602001828054620061da906200aecc565b8015620062295780601f10620061ff5761010080835404028352916020019162006229565b820191905f5260205f20905b8154815290600101906020018083116200620b57829003601f168201915b5050509183525050600391909101546001600160a01b03166020918201529152918352506001929092019101620060a5565b5050509082525060408051606080820183526006850154600781810b84526001600160a01b03600160401b928390041660208581019190915296810154810b848601529486019290925294865260088701549283900b8685015260ff9083048116151586830152600160481b83048116151594860194909452600160501b9091049092161515608084015260098401805483518184028101840190945280845260a09094019390915f9084015b828210156200638c575f8481526020908190206040805160a081018252600286029092018054600781900b84526001600160a01b03600160401b820481168587015260ff600160e01b83048116151594860194909452600160e81b909104909216151560608401526001908101549091166080830152908352909201910162006308565b505050508152602001600a8201805480602002602001604051908101604052809291908181526020015f905b8282101562006443575f8481526020908190206040805160c081018252600286029092018054600781810b8552600160401b8204810b85870152600160801b8204810b93850193909352600160c01b900490910b606083015260019081015460ff81161515608084015261010090046001600160a01b031660a08301529083529092019101620063b8565b505050508152602001600b8201805480602002602001604051908101604052809291908181526020015f905b82821015620064fe575f8481526020908190206040805160c081018252600386029092018054600781810b8552600160401b8204810b85870152600160801b909104900b918301919091526001808201546001600160a01b038082166060860152600160a01b90910460ff161515608085015260029092015490911660a083015290835290920191016200646f565b505050508152602001600c8201805462006518906200aecc565b80601f016020809104026020016040519081016040528092919081815260200182805462006546906200aecc565b8015620065955780601f106200656b5761010080835404028352916020019162006595565b820191905f5260205f20905b8154815290600101906020018083116200657757829003601f168201915b505050919092525050508152600d919091015460030b6020909101525160600151915062006d259050565b6001600160a01b0388165f908152600460205260408082208151610240810190925280548290610120820190839082908290620065fd906200aecc565b80601f01602080910402602001604051908101604052809291908181526020018280546200662b906200aecc565b80156200667a5780601f1062006650576101008083540402835291602001916200667a565b820191905f5260205f20905b8154815290600101906020018083116200665c57829003601f168201915b5050505050815260200160018201805462006695906200aecc565b80601f0160208091040260200160405190810160405280929190818152602001828054620066c3906200aecc565b8015620067125780601f10620066e85761010080835404028352916020019162006712565b820191905f5260205f20905b815481529060010190602001808311620066f457829003601f168201915b505050918352505060028201546001600160a01b0316602082015260038201805460409092019162006744906200aecc565b80601f016020809104026020016040519081016040528092919081815260200182805462006772906200aecc565b8015620067c15780601f106200679757610100808354040283529160200191620067c1565b820191905f5260205f20905b815481529060010190602001808311620067a357829003601f168201915b5050509183525050600482015460ff8082161515602080850191909152610100830460070b604080860191909152600160481b9093049091161515606084015260058401805483518184028101840190945280845260809094019390915f9084015b82821015620069d9575f8481526020908190206040805180820182526005860290920180548352815160a08101835260018201805460ff81161515835261010090046001600160a01b03168287015260028301805495969395938701949293919284019162006892906200aecc565b80601f0160208091040260200160405190810160405280929190818152602001828054620068c0906200aecc565b80156200690f5780601f10620068e5576101008083540402835291602001916200690f565b820191905f5260205f20905b815481529060010190602001808311620068f157829003601f168201915b505050505081526020016002820180546200692a906200aecc565b80601f016020809104026020016040519081016040528092919081815260200182805462006958906200aecc565b8015620069a75780601f106200697d57610100808354040283529160200191620069a7565b820191905f5260205f20905b8154815290600101906020018083116200698957829003601f168201915b5050509183525050600391909101546001600160a01b0316602091820152915291835250600192909201910162006823565b5050509082525060408051606080820183526006850154600781810b84526001600160a01b03600160401b928390041660208581019190915296810154810b848601529486019290925294865260088701549283900b8685015260ff9083048116151586830152600160481b83048116151594860194909452600160501b9091049092161515608084015260098401805483518184028101840190945280845260a09094019390915f9084015b8282101562006b0a575f8481526020908190206040805160a081018252600286029092018054600781900b84526001600160a01b03600160401b820481168587015260ff600160e01b83048116151594860194909452600160e81b909104909216151560608401526001908101549091166080830152908352909201910162006a86565b505050508152602001600a8201805480602002602001604051908101604052809291908181526020015f905b8282101562006bc1575f8481526020908190206040805160c081018252600286029092018054600781810b8552600160401b8204810b85870152600160801b8204810b93850193909352600160c01b900490910b606083015260019081015460ff81161515608084015261010090046001600160a01b031660a0830152908352909201910162006b36565b505050508152602001600b8201805480602002602001604051908101604052809291908181526020015f905b8282101562006c7c575f8481526020908190206040805160c081018252600386029092018054600781810b8552600160401b8204810b85870152600160801b909104900b918301919091526001808201546001600160a01b038082166060860152600160a01b90910460ff161515608085015260029092015490911660a0830152908352909201910162006bed565b505050508152602001600c8201805462006c96906200aecc565b80601f016020809104026020016040519081016040528092919081815260200182805462006cc4906200aecc565b801562006d135780601f1062006ce95761010080835404028352916020019162006d13565b820191905f5260205f20905b81548152906001019060200180831162006cf557829003601f168201915b50505091909252505050606001519150505b6001600160a01b038089165f908152600860209081526040808320938b1683529281529082902082518084019093525460ff80821615158085526101009092041615159183019190915262006d8d578162006d8257600162004422565b806020015162004422565b8060200151955050505050509250929050565b5f62006dab62006ee2565b5f62006dbb3386865f8762008200565b925090508062006dcc575062002bf3565b82515f90815b8181101562006e545785818151811062006df05762006df06200af00565b6020908102919091018101516001600160a01b038a165f908152600583526040808220600784900b83529093529190912080546001600160a01b0319908116825560029091018054909116905592508062006e4b816200af28565b91505062006dd2565b505050509392505050565b6001600160a01b0381165f9081526003602052604081205460ff161562006ea257506001600160a01b039081165f90815260026020819052604090912001541690565b506001600160a01b039081165f908152600460205260409020600201541690565b60015f62006ed784600b60036006620082fb565b909590945092505050565b306001600160a01b037f0000000000000000000000000000000000000000000000000000000000000000161462006f5c5760405162461bcd60e51b815260206004820152600f60248201527f4e4f5f44454c454741544543414c4c0000000000000000000000000000000000604482015260640162000f40565b565b60015f62006f7283600b60036006620082fb565b90925090508162006f8557818162006ed7565b62006ed7838560076200838e565b5f8084604001516001600160a01b0316866001600160a01b03161490505f62006fcb8660e0015162006fc55f620083d7565b620083fa565b60208101519091506001600160a01b0316156200700d5780602001516001600160a01b0316876001600160a01b0316146200700d5750609b9150620010579050565b5f5b8660e001515181101562007157575f8760e0015182815181106200703757620070376200af00565b602002602001015190505f6001600160a01b03168160200151602001516001600160a01b03161462007141575f620070808260200151602001516001600160a01b031631151590565b9050806200713f578151600103620070a25750609b9450620010579350505050565b8151600203620070bc575060ba9450620010579350505050565b8151600403620070d6575060bc9450620010579350505050565b8151600803620070f0575060bb9450620010579350505050565b81516010036200710a575060bd9450620010579350505050565b815160200362007124575060f79450620010579350505050565b81516040036200713f575061010b9450620010579350505050565b505b50806200714e816200af28565b9150506200700f565b50816200716b575060659150620010579050565b5f8460030b128062007180575060128460030b135b1562007193575060a89150620010579050565b5f8560070b1215620071ac575060a99150620010579050565b8551515f620071bd88602001515190565b9050815f03620071d6575060be93506200105792505050565b6064821115620071ef575060bf93506200105792505050565b805f0362007206575060ae93506200105792505050565b60648111156200721f575060af93506200105792505050565b50601698975050505050505050565b80515160408101519033906200724690829062007d03565b82515161010001516200725b908290620080c6565b82515160e001516200726f90829062007919565b6200727e81845f015162008498565b6020928301516001600160a01b03919091165f90815260029093526040909220600d01805463ffffffff191663ffffffff9093169290921790915590565b60015f80620072d188600b60036006620082fb565b909350915082620072e4578282620072f2565b620072f2888760076200838e565b9093509150826200730557828262007313565b62007313888660076200838e565b9093509150826200732657828262007332565b62007332888862008547565b9093509150826200734557828262007351565b62007351888762008547565b9093509150826200736457828262007370565b62007370888662008547565b909350915082620073835782826200738f565b6200738f888862008574565b909350915082620073a2578282620073ae565b620073ae888762008574565b909350915082620073c1578282620073cd565b620073cd888662008574565b90935091506001600160a01b03871615620073f0876001600160a01b0316331490565b80620073f95750805b915083620074095783836200741d565b6200741d89888788600360066005620085af565b909450925081806200742d575083155b156200743a575062007461565b83620074485783836200745a565b6200745a898989886003600662008626565b9094509250505b955095509592505050565b6001600160a01b0385165f9081526006602052604090205460ff1615620074d3576001600160a01b038581165f908152600560209081526040808320600786900b8452909152902080549184166001600160a01b0319928316178155600201805490911690555b5050505050565b6001600160a01b0381165f9081526003602052604081205460ff168062000d145750506001600160a01b03165f9081526006602052604090205460ff1690565b60015f6200752e83600b60036006620082fb565b9094909350915050565b60015f6200754c83600b60036006620082fb565b9092509050816200755f5781816200752e565b6200752e8360066200869c565b60015f6200758086600b60036006620082fb565b90925090508162007593578181620075a1565b620075a1868660076200838e565b909250905081620075b4578181620075c2565b620075c2868560076200838e565b909250905081620075d5578181620075e1565b620075e1868662008547565b909250905081620075f457818162007600565b62007600868562008547565b909250905081620076135781816200761f565b6200761f868662008574565b909250905081620076325781816200763e565b6200763e868562008574565b909250905081620076515781816200765e565b6200765e8660066200869c565b9097909650945050505050565b60015f6200767f83600b60036006620082fb565b90925090505f806200769185620086d7565b9150915083620076a35783836200765e565b6200765e828262008702565b60015f620076c383600b60036006620082fb565b909250905081620076d65781816200752e565b6200752e8360036200869c565b60015f620076f784600b60036006620082fb565b9092509050816200770a57818162006ed7565b62006ed7846200872b565b60015f6200772983600b60036006620082fb565b9092509050811562000da8576001600160a01b038084165f9081526007602090815260408083209388168352929052205460ff161562000da857505f905060c262000da8565b60015f6200778385600b60036006620082fb565b90925090508162007796578181620077a1565b620077a1856200874a565b909250905081620077b4578181620077ee565b620077ee85620077c48762006e5f565b86865f81518110620077da57620077da6200af00565b602002602001015160036006600562008769565b90969095509350505050565b6001600160a01b0383165f9081526006602052604090205460ff1615620078905780515f908181156200788c578381815181106200783c576200783c6200af00565b6020908102919091018101516001600160a01b0388165f908152600583526040808220600784900b83529093529190912080546001600160a01b0319908116825560029091018054909116905592505b5050505b505050565b60015f620078a984600b60036006620082fb565b90925090505f80620078bb866200879c565b9150915083620078cd578383620078d9565b620078d98282620087ac565b909890975095505050505050565b60015f620078fb84600b60036006620082fb565b9092509050816200790e578181620077ee565b620077ee84620087d3565b80515f5b8181101562007a80575f8382815181106200793c576200793c6200af00565b6020908102919091018101516001600160a01b038088165f908152600280855260408083206005908101805460018181018355918652948890208751959092029091019384558587015180519185018054988201519096166101000274ffffffffffffffffffffffffffffffffffffffff00199215159290921674ffffffffffffffffffffffffffffffffffffffffff19909816979097171784558501519395508594919391929190840190620079f490826200b094565b506060820151600282019062007a0b90826200b094565b5060809190910151600390910180546001600160a01b039283166001600160a01b0319918216179091556020808601518101518a84165f908152600a8352604080822098518252979092529590208054959092169416939093179092555081905062007a77816200af28565b9150506200791d565b50505050565b80515f5b8181101562007a80575f83828151811062007aa95762007aa96200af00565b6020908102919091018101516001600160a01b038088165f9081526004845260408082206005908101805460018181018355918552938790208651949092029091019283558486015180519184018054978201519095166101000274ffffffffffffffffffffffffffffffffffffffff00199215159290921674ffffffffffffffffffffffffffffffffffffffffff199097169690961717835584015192945084939092909190600284019062007b6190826200b094565b506060820151600282019062007b7890826200b094565b5060809190910151600390910180546001600160a01b039283166001600160a01b0319918216179091556020808601518101518a84165f908152600a8352604080822098518252979092529590208054959092169416939093179092555081905062007be4816200af28565b91505062007a8a565b60015f62007bfc868662008547565b90925090508162007c0f57818162007c1b565b62007c1b868562008547565b90925090508162007c2e57818162007c3a565b62007c3a868662008574565b90925090508162007c4d57818162007c59565b62007c59868562008574565b90925090508162007c6c57818162007c7d565b62007c7d86600b60036006620082fb565b90925090508162007c905781816200765e565b6200765e86868560066005620087f2565b6001600160a01b0384165f9081526006602052604090205460ff161562007a80576001600160a01b039384165f90815260056020908152604080832060079490940b83529290522060020180546001600160a01b031916919093161790915550565b80516001600160a01b0383165f9081526002602052604090209062007d2990826200b094565b506020808201516001600160a01b0384165f908152600290925260409091206001019062007d5890826200b094565b506040818101516001600160a01b038481165f9081526002602081905293902092830180546001600160a01b03191691909216179055606082015160039091019062007da590826200b094565b5060808101516001600160a01b039092165f908152600260205260409020600401805460a083015160c0909301511515600160481b0269ff000000000000000000196001600160401b039094166101000268ffffffffffffffff00199515159590951668ffffffffffffffffff19909216919091179390931791909116919091179055565b80516001600160a01b0383165f9081526004602052604090209062007e5090826200b094565b506020808201516001600160a01b0384165f908152600490925260409091206001019062007e7f90826200b094565b506040818101516001600160a01b038481165f9081526004602052929092206002810180546001600160a01b03191693909216929092179055606082015160039091019062007ecf90826200b094565b5060808101516001600160a01b039092165f90815260046020819052604090912001805460a083015160c0909301511515600160481b0269ff000000000000000000196001600160401b039094166101000268ffffffffffffffff00199515159590951668ffffffffffffffffff19909216919091179390931791909116919091179055565b60015f62007f6984600b60036006620082fb565b90925090508162007f7c578181620077ee565b620077ee8462008948565b60015f620077ee85600b60036006620082fb565b60015f62007faf85600b60036006620082fb565b90925090508162007fc2578181620077ee565b620077ee8562008967565b6001600160a01b0383165f9081526006602052604090205460ff161562007890576040518060800160405280620080048562006e5f565b6001600160a01b031681526020014260070b8152602001620080268362008986565b81525f60209182018190526001600160a01b038681168252600583526040808320600788900b845284529182902084518154948601516001600160401b0316600160a01b026001600160e01b031990951692169190911792909217825582015160018201906200809790826200b094565b5060609190910151600290910180546001600160a01b0319166001600160a01b03909216919091179055505050565b80516001600160a01b039283165f9081526002602090815260409182902060068101805492860151909616600160401b026001600160e01b03199092166001600160401b03948516179190911790945590910151600790920180549290911667ffffffffffffffff1992909216919091179055565b80516001600160a01b039283165f9081526004602090815260409182902060068101805492860151909616600160401b026001600160e01b03199092166001600160401b03948516179190911790945590910151600790920180549290911667ffffffffffffffff1992909216919091179055565b80516040810151903390620081c790829062007e2a565b620081da81845f015160e0015162007a86565b620081ee81845f015161010001516200813b565b620081fa818462008b1b565b50919050565b60015f6200821486600b60036006620082fb565b9092509050816200822757818162008238565b620082388660036006878762008bca565b9092509050816200824b57818162008256565b620082568662008c42565b90925090508162008269578181620078d9565b620078d9868686865f81518110620077da57620077da6200af00565b60015f6200829983600b60036006620082fb565b90925090505f80620082ab8562008c61565b9150915083620082bd5783836200765e565b6200765e828262008c70565b60015f620082dd84600b60036006620082fb565b909250905081620082f057818162006ed7565b62006ed78462008948565b6001600160a01b0384165f90815260208490526040812054819060ff16156200832a57505f905060b362008385565b6001600160a01b0386165f9081526020859052604090205460ff161580156200836b57506001600160a01b0386165f9081526020849052604090205460ff16155b156200837d57505f905060a762008385565b506001905060165b94509492505050565b6001600160a01b038084165f90815260208381526040808320938616835292905290812054819060ff16620083c957505f905060b862000ebb565b506001946016945092505050565b5f816006811115620083ed57620083ed6200b15c565b62000d149060026200b269565b6200843e6040518060a001604052805f151581526020015f6001600160a01b0316815260200160608152602001606081526020015f6001600160a01b031681525090565b82515f5b8181101562004503575f8582815181106200846157620084616200af00565b6020026020010151905084815f015103620084825760200151925062004503565b50806200848f816200af28565b91505062008442565b6020808201516001600160a01b0384165f908152600290925260409182902060088101805493850151606086015160808701511515600160501b026aff0000000000000000000019911515600160481b02919091166affff00000000000000000019921515600160401b0268ffffffffffffffffff199097166001600160401b0390961695909517959095171692909217929092179055610100820151600c909101906200789090826200b094565b5f805f62008556858562005de6565b909250905062008567828262008c97565b9250620077ee8362008cad565b5f805f62008583858562003470565b909250905062008594828262008ccc565b925082620085a4578282620077ee565b620077ee8362008ce9565b6001600160a01b0387165f90815260208490526040812054819060ff1615620085ea57620085e08989898862008cfc565b915091506200861a565b6001600160a01b0389165f9081526020859052604090205460ff16156200861a57620085e08989888787620087f2565b97509795505050505050565b6001600160a01b0386165f90815260208390526040812054819060ff1615620086625762008658888888888862008dc5565b9150915062008691565b6001600160a01b0388165f9081526020849052604090205460ff16156200869157620086588888878662008e78565b965096945050505050565b6001600160a01b0382165f90815260208290526040812054819060ff16620086ca57505f905060a762000da8565b5060019360169350915050565b5f805f620086e784600662008f26565b6001600160a01b038116801593509091503314925050915091565b5f8082156200871857505f905061010a62000da8565b83620086ca57505f905061010b62000da8565b5f805f806200873a856200879c565b91509150620077ee8282620087ac565b5f805f80620087598562008f60565b91509150620077ee828262008f6e565b5f806001600160401b038088169087166200878a8b8b84848b8b8b620085af565b93509350505097509795505050505050565b5f805f620086e784600262008f26565b5f808215620087c157505f905060ac62000da8565b83620086ca57505f905060bc62000da8565b5f805f80620087e28562008c61565b91509150620077ee828262008c70565b6001600160a01b0385165f90815260208390526040812054819060ff161562008938576001600160a01b038088165f9081526020858152604080832060078a810b8552908352818420825160808101845281549687168152600160a01b90960490910b928501929092526001820180548a9593928401919062008875906200aecc565b80601f0160208091040260200160405190810160405280929190818152602001828054620088a3906200aecc565b8015620088f25780601f10620088c857610100808354040283529160200191620088f2565b820191905f5260205f20905b815481529060010190602001808311620088d457829003601f168201915b5050509183525050600291909101546001600160a01b0390811660209092019190915281519192508981169116146200893557505f925060ed91506200291a9050565b50505b5060019660169650945050505050565b5f805f80620089578562008f95565b91509150620077ee828262008fa5565b5f805f80620089768562008fcc565b91509150620077ee828262008fdc565b60605f805b8351811015620089d757838181518110620089aa57620089aa6200af00565b60200260200101515182620089c091906200b276565b915080620089ce816200af28565b9150506200898b565b505f816001600160401b03811115620089f457620089f462009211565b6040519080825280601f01601f19166020018201604052801562008a1f576020820181803683370190505b5090505f805b855181101562008b11575f5b86828151811062008a465762008a466200af00565b60200260200101515181101562008afb5786828151811062008a6c5762008a6c6200af00565b6020026020010151818151811062008a885762008a886200af00565b602001015160f81c60f81b84848151811062008aa85762008aa86200af00565b60200101907effffffffffffffffffffffffffffffffffffffffffffffffffffffffffffff191690815f1a9053508262008ae2816200af28565b935050808062008af2906200af28565b91505062008a31565b508062008b08816200af28565b91505062008a25565b5090949350505050565b6020808201516001600160a01b0384165f908152600490925260409182902060088101805493850151606086015160808701511515600160501b026aff0000000000000000000019911515600160481b02919091166affff00000000000000000019921515600160401b0268ffffffffffffffffff199097166001600160401b0390961695909517959095171692909217929092179055610100820151600c909101906200789090826200b094565b6001600160a01b0385165f90815260208590526040812054819060ff16801562008bf457505f8351115b1562008c0657505f905060a76200291a565b6001600160a01b0387165f9081526020869052604090205460ff16801562008c3057505f8460070b135b156200893857505f905060a76200291a565b5f805f8062008c518562009003565b91509150620077ee828262009013565b5f805f620086e7845f62008f26565b5f80821562008c8557505f905060c162000da8565b83620086ca57505f9050609b62000da8565b5f600783900b601614620081fa57600162002bf3565b5f808262008cc057505f9260b092509050565b50600192601692509050565b5f600783900b60161462008ce257600162002bf3565b5015919050565b5f808262008cc057505f9260a592509050565b6001600160a01b0384165f90815260208290526040812054819060ff16156200837d576040516370a0823160e01b81526001600160a01b03868116600483015287915f916001600160401b03881691908416906370a0823190602401602060405180830381865afa15801562008d74573d5f803e3d5ffd5b505050506040513d601f19601f8201168201806040525081019062008d9a91906200af43565b101590508062008db457505f925060b29150620083859050565b506001976016975095505050505050565b6001600160a01b0385165f90815260208290526040812054819060ff16156200893857604051636eb1769f60e11b81526001600160a01b03868116600483015287811660248301525f919089169063dd62ed3e90604401602060405180830381865afa15801562008e38573d5f803e3d5ffd5b505050506040513d601f19601f8201168201806040525081019062008e5e91906200af43565b90508481101562008db457505f915061012590506200291a565b6001600160a01b0384165f90815260208290526040812054819060ff16156200837d5760405163430c208160e01b81526001600160a01b038681166004830152602482018690525f919088169063430c208190604401602060405180830381865afa15801562008eea573d5f803e3d5ffd5b505050506040513d601f19601f8201168201806040525081019062008f1091906200b28c565b9050806200893857505f9150601c905062008385565b5f8062008f3383620083d7565b6001600160a01b039485165f908152600a6020908152604080832093835292905220549093169392505050565b5f805f620086e78462006e5f565b5f80821562008f8357505f9050606562000da8565b83620086ca57505f9050606562000da8565b5f805f620086e784600162008f26565b5f80821562008fba57505f905060b162000da8565b83620086ca57505f905060ba62000da8565b5f805f620086e784600462008f26565b5f80821562008ff157505f905060b462000da8565b83620086ca57505f905060bd62000da8565b5f805f620086e784600362008f26565b5f8082156200902857505f905060b562000da8565b83620086ca57505f905060bb62000da8565b60405180604001604052806200904f6200905b565b81525f60209091015290565b60408051610240810182526060610120820181815261014083018290525f610160840181905261018084018390526101a084018190526101c084018190526101e08401819052610200840183905284519283018552808352602083018190529382019390935261022082015290819081526020015f60070b81526020015f151581526020015f151581526020015f15158152602001606081526020016060815260200160608152602001606081525090565b612abf806200b2ab83390190565b6040518060c00160405280620091306200905b565b81525f60208201819052604082018190526060808301829052608083015260a09091015290565b61371f806200dd6a83390190565b6001600160a01b03811681146200917a575f80fd5b50565b803562002c478162009165565b5f602082840312156200919b575f80fd5b813562002bf38162009165565b5f8060408385031215620091ba575f80fd5b8235620091c78162009165565b946020939093013593505050565b5f8060408385031215620091e7575f80fd5b8235620091f48162009165565b91506020830135620092068162009165565b809150509250929050565b634e487b7160e01b5f52604160045260245ffd5b604051606081016001600160401b03811182821017156200924a576200924a62009211565b60405290565b604051602081016001600160401b03811182821017156200924a576200924a62009211565b604051608081016001600160401b03811182821017156200924a576200924a62009211565b604080519081016001600160401b03811182821017156200924a576200924a62009211565b60405160a081016001600160401b03811182821017156200924a576200924a62009211565b60405161012081016001600160401b03811182821017156200924a576200924a62009211565b60405160c081016001600160401b03811182821017156200924a576200924a62009211565b604051601f8201601f191681016001600160401b03811182821017156200935a576200935a62009211565b604052919050565b5f6001600160401b038211156200937d576200937d62009211565b5060051b60200190565b8060070b81146200917a575f80fd5b803562002c478162009387565b80151581146200917a575f80fd5b803562002c4781620093a3565b5f82601f830112620093ce575f80fd5b81356020620093e7620093e18362009362565b6200932f565b8281526060928302850182019282820191908785111562009406575f80fd5b8387015b85811015620094725781818a03121562009423575f8081fd5b6200942d62009225565b81356200943a8162009165565b8152818601356200944b8162009387565b818701526040828101356200946081620093a3565b9082015284529284019281016200940a565b5090979650505050505050565b5f806040838503121562009491575f80fd5b6001600160401b038084351115620094a7575f80fd5b60208435850186031215620094ba575f80fd5b620094c462009250565b8185358601351115620094d5575f80fd5b620094e78686358701803501620093be565b815292506020840135811015620094fc575f80fd5b6020840135840185601f82011262009512575f80fd5b62009522620093e1823562009362565b81358082526020808301929160051b84010188101562009540575f80fd5b602083015b6020843560051b850101811015620096d757848135111562009565575f80fd5b803584016060818b03601f190112156200957d575f80fd5b6200958762009225565b62009596602083013562009165565b602082013581528660408301351115620095ae575f80fd5b620095c38b60206040850135850101620093be565b60208201528660608301351115620095d9575f80fd5b6060820135820191508a603f830112620095f1575f80fd5b62009604620093e1602084013562009362565b602083810135808352908201919060071b84016040018d81111562009627575f80fd5b6040850194505b80851015620096c0576080858f03121562009647575f80fd5b6200965162009275565b6200965d863562009165565b8535815262009670602087013562009165565b6020860135602082015262009689604087013562009387565b60408601356040820152620096a26060870135620093a3565b6060868101359082015283526080909401936020909201916200962e565b506040830152508452506020928301920162009545565b50809450505050509250929050565b5f82601f830112620096f6575f80fd5b81356001600160401b0381111562009712576200971262009211565b62009727601f8201601f19166020016200932f565b8181528460208386010111156200973c575f80fd5b816020850160208301375f918101602001919091529392505050565b5f82601f83011262009768575f80fd5b813560206200977b620093e18362009362565b82815260059290921b840181019181810190868411156200979a575f80fd5b8286015b84811015620098bf5780356001600160401b0380821115620097be575f80fd5b908801906040601f19838c038101821315620097d8575f80fd5b620097e26200929a565b8885013581528285013584811115620097f9575f80fd5b949094019360a0858e038301121562009811575f8081fd5b6200981b620092bf565b9150888501356200982c81620093a3565b8252848301356200983d8162009165565b828a01526060858101358581111562009855575f8081fd5b620098658f8c838a0101620096e6565b858501525060809350838601358581111562009880575f8081fd5b620098908f8c838a0101620096e6565b828501525050620098a460a086016200917d565b9282019290925281880152855250509183019183016200979e565b509695505050505050565b5f60608284031215620098db575f80fd5b620098e562009225565b90508135620098f48162009387565b81526020820135620099068162009165565b602082015260408201356200991b8162009387565b604082015292915050565b5f610160828403121562009938575f80fd5b62009942620092e4565b905081356001600160401b03808211156200995b575f80fd5b6200996985838601620096e6565b835260208401359150808211156200997f575f80fd5b6200998d85838601620096e6565b6020840152620099a0604085016200917d565b60408401526060840135915080821115620099b9575f80fd5b620099c785838601620096e6565b6060840152620099da60808501620093b1565b6080840152620099ed60a0850162009396565b60a084015262009a0060c08501620093b1565b60c084015260e084013591508082111562009a19575f80fd5b5062009a288482850162009758565b60e08301525061010062009a3f84828501620098ca565b9082015292915050565b8035600381900b811462002c47575f80fd5b5f805f6060848603121562009a6e575f80fd5b83356001600160401b0381111562009a84575f80fd5b62009a928682870162009926565b935050602084013562009aa58162009387565b915062009ab56040850162009a49565b90509250925092565b5f82601f83011262009ace575f80fd5b8135602062009ae1620093e18362009362565b82815260a0928302850182019282820191908785111562009b00575f80fd5b8387015b85811015620094725781818a03121562009b1d575f8081fd5b62009b27620092bf565b813562009b348162009387565b81528186013562009b458162009165565b8187015260408281013562009b5a81620093a3565b9082015260608281013562009b6f81620093a3565b9082015260808281013562009b848162009165565b90820152845292840192810162009b04565b5f82601f83011262009ba6575f80fd5b8135602062009bb9620093e18362009362565b82815260c0928302850182019282820191908785111562009bd8575f80fd5b8387015b85811015620094725781818a03121562009bf5575f8081fd5b62009bff6200930a565b813562009c0c8162009387565b81528186013562009c1d8162009387565b8187015260408281013562009c328162009387565b9082015260608281013562009c478162009387565b9082015260808281013562009c5c81620093a3565b9082015260a08281013562009c718162009165565b90820152845292840192810162009bdc565b5f82601f83011262009c93575f80fd5b8135602062009ca6620093e18362009362565b82815260c0928302850182019282820191908785111562009cc5575f80fd5b8387015b85811015620094725781818a03121562009ce2575f8081fd5b62009cec6200930a565b813562009cf98162009387565b81528186013562009d0a8162009387565b8187015260408281013562009d1f8162009387565b9082015260608281013562009d348162009165565b9082015260808281013562009d4981620093a3565b9082015260a08281013562009d5e8162009165565b90820152845292840192810162009cc9565b5f610120828403121562009d82575f80fd5b62009d8c620092e4565b905081356001600160401b038082111562009da5575f80fd5b62009db38583860162009926565b835262009dc36020850162009396565b602084015262009dd660408501620093b1565b604084015262009de960608501620093b1565b606084015262009dfc60808501620093b1565b608084015260a084013591508082111562009e15575f80fd5b62009e238583860162009abe565b60a084015260c084013591508082111562009e3c575f80fd5b62009e4a8583860162009b96565b60c084015260e084013591508082111562009e63575f80fd5b62009e718583860162009c83565b60e08401526101009150818401358181111562009e8c575f80fd5b62009e9a86828701620096e6565b8385015250505092915050565b5f806040838503121562009eb9575f80fd5b823562009ec68162009165565b915060208301356001600160401b038082111562009ee2575f80fd5b908401906040828703121562009ef6575f80fd5b62009f006200929a565b82358281111562009f0f575f80fd5b62009f1d8882860162009d70565b82525062009f2e6020840162009a49565b60208201528093505050509250929050565b5f805f806080858703121562009f54575f80fd5b843562009f618162009165565b9350602085013562009f738162009165565b9250604085013562009f858162009165565b9396929550929360600135925050565b5f81518084525f5b8181101562009fbb5760208185018101518683018201520162009f9d565b505f602082860101526020601f19601f83011685010191505092915050565b8051151582525f60208201516001600160a01b0380821660208601526040840151915060a060408601526200a01360a086018362009f95565b9150606084015185830360608701526200a02e838262009f95565b925050806080850151166080860152508091505092915050565b5f82825180855260208086019550808260051b8401018186015f5b848110156200947257858303601f1901895281518051845284015160408585018190526200a0948186018362009fda565b9a86019a94505050908301906001016200a063565b5f61016082518185526200a0c08286018262009f95565b915050602083015184820360208601526200a0dc828262009f95565b91505060408301516200a0fa60408601826001600160a01b03169052565b50606083015184820360608601526200a114828262009f95565b91505060808301516200a12b608086018215159052565b5060a08301516200a14160a086018260070b9052565b5060c08301516200a15660c086018215159052565b5060e083015184820360e08601526200a17082826200a048565b9150506101008084015162008b1182870182805160070b82526001600160a01b036020820151166020830152604081015160070b60408301525050565b5f8151808452602080850194508084015f5b838110156200a21a578151805160070b8852838101516001600160a01b03908116858a01526040808301511515908a01526060808301511515908a0152608091820151169088015260a090960195908201906001016200a1bf565b509495945050505050565b5f8151808452602080850194508084015f5b838110156200a21a5781518051600790810b895284820151810b858a0152604080830151820b908a015260608083015190910b9089015260808082015115159089015260a0908101516001600160a01b03169088015260c090960195908201906001016200a237565b5f8151808452602080850194508084015f5b838110156200a21a5781518051600790810b895284820151810b858a015260408083015190910b908901526060808201516001600160a01b03908116918a01919091526080808301511515908a015260a091820151169088015260c090960195908201906001016200a2b2565b5f61012082518185526200a336828601826200a0a9565b91505060208301516200a34e602086018260070b9052565b5060408301516200a363604086018215159052565b5060608301516200a378606086018215159052565b5060808301516200a38d608086018215159052565b5060a083015184820360a08601526200a3a782826200a1ad565b91505060c083015184820360c08601526200a3c382826200a225565b91505060e083015184820360e08601526200a3df82826200a2a0565b91505061010080840151858303828701526200a3fc838262009f95565b9695505050505050565b8260070b8152604060208201525f6200105760408301846200a31f565b5f80604083850312156200a435575f80fd5b82356200a4428162009165565b91506020830135620092068162009387565b8260070b8152604060208201525f825160c060408401526200a47b6101008401826200a31f565b9050602084015160070b606084015260408401516001600160a01b038082166080860152606086015160070b60a086015260808601519150603f198584030160c08601526200a4cb838362009f95565b92508060a08701511660e08601525050809150509392505050565b5f805f805f60a086880312156200a4fb575f80fd5b85356001600160401b03808211156200a512575f80fd5b6200a52089838a0162009926565b9650602088013591506200a5348262009387565b8195506200a5456040890162009a49565b945060608801359150808211156200a55b575f80fd5b6200a56989838a0162009abe565b935060808801359150808211156200a57f575f80fd5b506200a58e8882890162009b96565b9150509295509295909350565b5f82601f8301126200a5ab575f80fd5b813560206200a5be620093e18362009362565b82815260059290921b840181019181810190868411156200a5dd575f80fd5b8286015b84811015620098bf5780356200a5f78162009165565b83529183019183016200a5e1565b5f82601f8301126200a615575f80fd5b813560206200a628620093e18362009362565b82815260059290921b840181019181810190868411156200a647575f80fd5b8286015b84811015620098bf5780356200a6618162009387565b83529183019183016200a64b565b5f805f80608085870312156200a683575f80fd5b84356200a6908162009165565b935060208501356001600160401b03808211156200a6ac575f80fd5b6200a6ba888389016200a59b565b945060408701359150808211156200a6d0575f80fd5b6200a6de888389016200a59b565b935060608701359150808211156200a6f4575f80fd5b506200a703878288016200a605565b91505092959194509250565b5f80604083850312156200a721575f80fd5b82356200a72e8162009165565b915060208301356001600160401b038111156200a749575f80fd5b62000da4858286016200a59b565b5f805f606084860312156200a76a575f80fd5b83356200a7778162009165565b925060208401356200a7898162009165565b915060408401356200a79b81620093a3565b809150509250925092565b8260070b8152604060208201525f62001057604083018462009fda565b5f8151604084526200a7d960408501826200a31f565b60209384015160030b949093019390935250919050565b8260070b8152604060208201525f6200105760408301846200a7c3565b5f80604083850312156200a81f575f80fd5b82356200a82c8162009387565b915060208301356001600160401b038111156200a847575f80fd5b62000da4858286016200a605565b5f805f80608085870312156200a869575f80fd5b84356200a8768162009165565b935060208501356200a8888162009165565b925060408501356200a89a8162009165565b915060608501356200a8ac8162009387565b939692955090935050565b5f80604083850312156200a8c9575f80fd5b82356200a8d68162009165565b915060208301356001600160401b038111156200a8f1575f80fd5b62000da485828601620096e6565b8260070b8152604060208201525f62001057604083018462009f95565b5f80604083850312156200a92e575f80fd5b82356200a93b8162009165565b915060208301356001600160401b038111156200a956575f80fd5b62000da48582860162009758565b5f805f606084860312156200a977575f80fd5b83356200a9848162009165565b925060208401356200a9968162009165565b929592945050506040919091013590565b5f80604083850312156200a9b9575f80fd5b82356200a9c68162009165565b915060208301356001600160401b038111156200a9e1575f80fd5b62000da48582860162009926565b5f805f606084860312156200aa02575f80fd5b83356200aa0f8162009165565b925060208401356001600160401b03808211156200aa2b575f80fd5b6200aa39878388016200a59b565b935060408601359150808211156200aa4f575f80fd5b506200aa5e868287016200a605565b9150509250925092565b5f805f606084860312156200aa7b575f80fd5b83356200aa888162009165565b925060208401356200aa9a8162009165565b915060408401356200a79b8162009165565b5f805f606084860312156200aabf575f80fd5b83356200aacc8162009165565b92506020848101356200aadf8162009387565b925060408501356001600160401b03808211156200aafb575f80fd5b818701915087601f8301126200ab0f575f80fd5b81356200ab20620093e18262009362565b81815260059190911b8301840190848101908a8311156200ab3f575f80fd5b8585015b838110156200ab7b578035858111156200ab5c575f8081fd5b6200ab6c8d89838a0101620096e6565b8452509186019186016200ab43565b508096505050505050509250925092565b5f805f606084860312156200ab9f575f80fd5b83356001600160401b03808211156200abb6575f80fd5b6200abc48783880162009926565b945060208601359150808211156200abda575f80fd5b6200abe88783880162009abe565b935060408601359150808211156200abfe575f80fd5b506200aa5e8682870162009c83565b8460070b8152608060208201525f6200ac2a60808301866200a1ad565b82810360408401526200ac3e81866200a225565b90508281036060840152620045cb81856200a2a0565b5f80608083850312156200ac66575f80fd5b82356200ac738162009165565b91506200ac848460208501620098ca565b90509250929050565b600783900b81526080810162002bf36020830184805160070b82526001600160a01b036020820151166020830152604081015160070b60408301525050565b5f805f606084860312156200acdf575f80fd5b83356200acec8162009165565b925060208401356200acfe8162009387565b915060408401356001600160401b038111156200ad19575f80fd5b6200aa5e868287016200a605565b5f80604083850312156200ad39575f80fd5b82356200ad468162009165565b915060208301356001600160401b038111156200ad61575f80fd5b62000da48582860162009d70565b5f8151808452602080850194508084015f5b838110156200a21a57815160070b875295820195908201906001016200ad81565b8360070b81528260070b6020820152606060408201525f6200adc860608301846200ad6f565b95945050505050565b5f602082840312156200ade2575f80fd5b81356001600160401b038111156200adf8575f80fd5b620010578482850162009926565b5f805f606084860312156200ae19575f80fd5b83356200ae268162009165565b925060208401356200ae388162009165565b915060408401356200a79b8162009387565b5f805f606084860312156200ae5d575f80fd5b83356200ae6a8162009165565b925060208401356200acfe8162009165565b5f602082840312156200ae8d575f80fd5b815162002bf38162009165565b602081525f62002bf360208301846200a7c3565b5f602082840312156200aebf575f80fd5b815162002bf38162009387565b600181811c908216806200aee157607f821691505b602082108103620081fa57634e487b7160e01b5f52602260045260245ffd5b634e487b7160e01b5f52603260045260245ffd5b634e487b7160e01b5f52601160045260245ffd5b5f600182016200af3c576200af3c6200af14565b5060010190565b5f602082840312156200af54575f80fd5b5051919050565b600781810b9083900b01677fffffffffffffff8113677fffffffffffffff198212171562000d145762000d146200af14565b602081525f62002bf360208301846200a31f565b602081525f62002bf360208301846200ad6f565b5f602080830181845280855180835260408601915060408160051b87010192508387015f5b828110156200b00c57603f198886030184526200aff985835162009f95565b945092850192908501906001016200afda565b5092979650505050505050565b5f80604083850312156200b02b575f80fd5b82516200b0388162009387565b6020840151909250620092068162009387565b601f82111562007890575f81815260208120601f850160051c810160208610156200b0735750805b601f850160051c820191505b818110156200788c578281556001016200b07f565b81516001600160401b038111156200b0b0576200b0b062009211565b6200b0c8816200b0c184546200aecc565b846200b04b565b602080601f8311600181146200b0fe575f84156200b0e65750858301515b5f19600386901b1c1916600185901b1785556200788c565b5f85815260208120601f198616915b828110156200b12e578886015182559484019460019091019084016200b10d565b50858210156200b14c57878501515f19600388901b60f8161c191681555b5050505050600190811b01905550565b634e487b7160e01b5f52602160045260245ffd5b600181815b808511156200b1b057815f19048211156200b194576200b1946200af14565b808516156200b1a257918102915b93841c93908002906200b175565b509250929050565b5f826200b1c85750600162000d14565b816200b1d657505f62000d14565b81600181146200b1ef57600281146200b1fa576200b21a565b600191505062000d14565b60ff8411156200b20e576200b20e6200af14565b50506001821b62000d14565b5060208310610133831016604e8410600b84101617156200b23f575081810a62000d14565b6200b24b83836200b170565b805f19048211156200b261576200b2616200af14565b029392505050565b5f62002bf383836200b1b8565b8082018082111562000d145762000d146200af14565b5f602082840312156200b29d575f80fd5b815162002bf381620093a356fe60a060405234801562000010575f80fd5b5060405162002abf38038062002abf83398101604081905262000033916200094a565b805151805160209091015160036200004c838262000b6e565b5060046200005b828262000b6e565b505060405162aa54bd60e51b8152610167915063154a97a09062000086903390859060040162000fa5565b5f604051808303815f87803b1580156200009e575f80fd5b505af1158015620000b1573d5f803e3d5ffd5b5050505060208181015160ff166080528151805160400151910151620000e29082906001600160401b0316620000ea565b5050620010e6565b6001600160a01b038216620001455760405162461bcd60e51b815260206004820152601f60248201527f45524332303a206d696e7420746f20746865207a65726f206164647265737300604482015260640160405180910390fd5b8060025f828254620001589190620010c0565b90915550506001600160a01b0382165f81815260208181526040808320805486019055518481527fddf252ad1be2c89b69c2b068fc378daa952ba7f163c4a11628f55a4df523b3ef910160405180910390a35050565b505050565b634e487b7160e01b5f52604160045260245ffd5b604080519081016001600160401b0381118282101715620001ec57620001ec620001b3565b60405290565b60405160a081016001600160401b0381118282101715620001ec57620001ec620001b3565b60405161012081016001600160401b0381118282101715620001ec57620001ec620001b3565b60405160c081016001600160401b0381118282101715620001ec57620001ec620001b3565b604051601f8201601f191681016001600160401b03811182821017156200028d576200028d620001b3565b604052919050565b5f5b83811015620002b157818101518382015260200162000297565b50505f910152565b5f82601f830112620002c9575f80fd5b81516001600160401b03811115620002e557620002e5620001b3565b620002fa601f8201601f191660200162000262565b8181528460208386010111156200030f575f80fd5b6200032282602083016020870162000295565b949350505050565b80516001600160a01b038116811462000341575f80fd5b919050565b8051801515811462000341575f80fd5b8051600781900b811462000341575f80fd5b5f6001600160401b03821115620003835762000383620001b3565b5060051b60200190565b5f82601f8301126200039d575f80fd5b81516020620003b6620003b08362000368565b62000262565b82815260059290921b84018101918181019086841115620003d5575f80fd5b8286015b84811015620004f65780516001600160401b0380821115620003f9575f80fd5b908801906040601f19838c03810182131562000413575f80fd5b6200041d620001c7565b888501518152828501518481111562000434575f80fd5b949094019360a0858e03830112156200044c575f8081fd5b62000456620001f2565b91506200046589860162000346565b8252620004748386016200032a565b89830152606080860151858111156200048c575f8081fd5b6200049c8f8c838a0101620002b9565b8585015250608093508386015185811115620004b7575f8081fd5b620004c78f8c838a0101620002b9565b828501525050620004db60a086016200032a565b928201929092528188015285525050918301918301620003d9565b509695505050505050565b5f6060828403121562000512575f80fd5b604051606081016001600160401b0381118282101715620005375762000537620001b3565b604052905080620005488362000356565b815262000558602084016200032a565b60208201526200056b6040840162000356565b60408201525092915050565b5f610160828403121562000589575f80fd5b6200059362000217565b82519091506001600160401b0380821115620005ad575f80fd5b620005bb85838601620002b9565b83526020840151915080821115620005d1575f80fd5b620005df85838601620002b9565b6020840152620005f2604085016200032a565b604084015260608401519150808211156200060b575f80fd5b6200061985838601620002b9565b60608401526200062c6080850162000346565b60808401526200063f60a0850162000356565b60a08401526200065260c0850162000346565b60c084015260e08401519150808211156200066b575f80fd5b506200067a848285016200038d565b60e083015250610100620006918482850162000501565b9082015292915050565b5f82601f830112620006ab575f80fd5b81516020620006be620003b08362000368565b82815260a09283028501820192828201919087851115620006dd575f80fd5b8387015b85811015620007695781818a031215620006fa575f8081fd5b62000704620001f2565b6200070f8262000356565b81526200071e8683016200032a565b8682015260406200073181840162000346565b9082015260606200074483820162000346565b908201526080620007578382016200032a565b908201528452928401928101620006e1565b5090979650505050505050565b5f82601f83011262000786575f80fd5b8151602062000799620003b08362000368565b82815260c09283028501820192828201919087851115620007b8575f80fd5b8387015b85811015620007695781818a031215620007d5575f8081fd5b620007df6200023d565b620007ea8262000356565b8152620007f986830162000356565b8682015260406200080c81840162000356565b9082015260606200081f83820162000356565b9082015260806200083283820162000346565b9082015260a0620008458382016200032a565b908201528452928401928101620007bc565b5f82601f83011262000867575f80fd5b815160206200087a620003b08362000368565b82815260c0928302850182019282820191908785111562000899575f80fd5b8387015b85811015620007695781818a031215620008b6575f8081fd5b620008c06200023d565b620008cb8262000356565b8152620008da86830162000356565b868201526040620008ed81840162000356565b908201526060620009008382016200032a565b9082015260806200091383820162000346565b9082015260a0620009268382016200032a565b9082015284529284019281016200089d565b8051600381900b811462000341575f80fd5b5f602082840312156200095b575f80fd5b81516001600160401b038082111562000972575f80fd5b908301906040828603121562000986575f80fd5b62000990620001c7565b8251828111156200099f575f80fd5b83016101208188031215620009b2575f80fd5b620009bc62000217565b815184811115620009cb575f80fd5b620009d98982850162000577565b825250620009ea6020830162000356565b6020820152620009fd6040830162000346565b604082015262000a106060830162000346565b606082015262000a236080830162000346565b608082015260a08201518481111562000a3a575f80fd5b62000a48898285016200069b565b60a08301525060c08201518481111562000a60575f80fd5b62000a6e8982850162000776565b60c08301525060e08201518481111562000a86575f80fd5b62000a948982850162000857565b60e083015250610100808301518581111562000aae575f80fd5b62000abc8a828601620002b9565b828401525050808352505062000ad56020840162000938565b602082015295945050505050565b600181811c9082168062000af857607f821691505b60208210810362000b1757634e487b7160e01b5f52602260045260245ffd5b50919050565b601f821115620001ae575f81815260208120601f850160051c8101602086101562000b455750805b601f850160051c820191505b8181101562000b665782815560010162000b51565b505050505050565b81516001600160401b0381111562000b8a5762000b8a620001b3565b62000ba28162000b9b845462000ae3565b8462000b1d565b602080601f83116001811462000bd8575f841562000bc05750858301515b5f19600386901b1c1916600185901b17855562000b66565b5f85815260208120601f198616915b8281101562000c085788860151825594840194600190910190840162000be7565b508582101562000c2657878501515f19600388901b60f8161c191681555b5050505050600190811b01905550565b5f815180845262000c4f81602086016020860162000295565b601f01601f19169290920160200192915050565b5f81518084526020808501808196508360051b810191508286015f5b8581101562000d1d57828403895281516040815186528682015191508087870152815115158187015286820151606060018060a01b03808316828a015283850151935060a09250608083818b015262000cdc60e08b018662000c36565b928601518a8403603f1901858c015292945062000cfa858462000c36565b9501511660c0989098019790975250509885019893509084019060010162000c7f565b5091979650505050505050565b5f610160825181855262000d418286018262000c36565b9150506020830151848203602086015262000d5d828262000c36565b915050604083015162000d7b60408601826001600160a01b03169052565b506060830151848203606086015262000d95828262000c36565b915050608083015162000dac608086018215159052565b5060a083015162000dc260a086018260070b9052565b5060c083015162000dd760c086018215159052565b5060e083015184820360e086015262000df1828262000c63565b610100858101518051600790810b8984015260208201516001600160a01b03166101208a01526040820151900b61014089015291935091505090949350505050565b5f8151808452602080850194508084015f5b8381101562000ea0578151805160070b8852838101516001600160a01b03908116858a01526040808301511515908a01526060808301511515908a0152608091820151169088015260a0909601959082019060010162000e45565b509495945050505050565b5f8151808452602080850194508084015f5b8381101562000ea05781518051600790810b895284820151810b858a0152604080830151820b908a015260608083015190910b9089015260808082015115159089015260a0908101516001600160a01b03169088015260c0909601959082019060010162000ebd565b5f8151808452602080850194508084015f5b8381101562000ea05781518051600790810b895284820151810b858a015260408083015190910b908901526060808201516001600160a01b03908116918a01919091526080808301511515908a015260a091820151169088015260c0909601959082019060010162000f38565b60018060a01b0383168152604060208201525f8251604080840152805161012080608086015262000fdb6101a086018362000d2a565b9150602083015162000ff260a087018260070b9052565b506040830151151560c08601526060830151151560e086015260808301518015156101008088019190915260a08501519150607f198088860301848901526200103c858462000e33565b945060c0860151935080888603016101408901526200105c858562000eab565b945060e0860151935080888603016101608901526200107c858562000f26565b94508186015195508088860301610180890152505050506200109f818362000c36565b9150506020840151620010b7606085018260030b9052565b50949350505050565b80820180821115620010e057634e487b7160e01b5f52601160045260245ffd5b92915050565b6080516119c0620010ff5f395f61019f01526119c05ff3fe608060405234801561000f575f80fd5b5060043610610106575f3560e01c8063395093511161009e578063a9059cbb1161006e578063a9059cbb14610232578063b59fc61914610245578063b6ef1b591461026b578063cc9858781461027e578063dd62ed3e14610286575f80fd5b806339509351146101dc57806370a08231146101ef57806395d89b4114610217578063a457c2d71461021f575f80fd5b806323b872dd116100d957806323b872dd1461017257806328cd005914610185578063313ce56714610198578063330ee0d4146101c9575f80fd5b806303f5483b1461010a57806306fdde031461011f578063095ea7b31461013d57806318160ddd14610160575b5f80fd5b61011d610118366004610eb5565b6102be565b005b610127610391565b6040516101349190610ef9565b60405180910390f35b61015061014b366004610f3f565b610421565b6040519015158152602001610134565b6002545b604051908152602001610134565b610150610180366004610f69565b6104dc565b61011d610193366004610fa7565b61059f565b60405160ff7f0000000000000000000000000000000000000000000000000000000000000000168152602001610134565b61011d6101d7366004610eb5565b6105fd565b6101506101ea366004610f3f565b6106c6565b6101646101fd366004610fde565b6001600160a01b03165f9081526020819052604090205490565b61012761070e565b61015061022d366004610f3f565b61071d565b610150610240366004610f3f565b6107b9565b610258610253366004611006565b610871565b60405160079190910b8152602001610134565b61011d610279366004610f69565b6108df565b610150600181565b610164610294366004611066565b6001600160a01b039182165f90815260016020908152604080832093909416825291909152205490565b33610167146103095760405162461bcd60e51b81526020600482015260126024820152714e4f545f4854535f505245434f4d50494c4560701b60448201526064015b60405180910390fd5b604051633f28a19b60e01b81523060048201525f9061016790633f28a19b906024015f60405180830381865afa158015610345573d5f803e3d5ffd5b505050506040513d5f823e601f3d908101601f1916820160405261036c919081019061178a565b80515160400151909250905061038c8167ffffffffffffffff8516610930565b505050565b6060600380546103a090611918565b80601f01602080910402602001604051908101604052809291908181526020018280546103cc90611918565b80156104175780601f106103ee57610100808354040283529160200191610417565b820191905f5260205f20905b8154815290600101906020018083116103fa57829003601f168201915b5050505050905090565b60405163e459524960e01b81523360048201526001600160a01b0383166024820152604481018290525f9081906101679063e4595249906064016020604051808303815f875af1158015610477573d5f803e3d5ffd5b505050506040513d601f19601f8201168201806040525081019061049b9190611950565b9050600781900b6016146104c85760405163fbe0be3960e01b8152600782900b6004820152602401610300565b6104d284846109ed565b9150505b92915050565b60405163a0ecee3360e01b81523360048201526001600160a01b03808516602483015283166044820152606481018290525f9081906101679063a0ecee33906084016020604051808303815f875af115801561053a573d5f803e3d5ffd5b505050506040513d601f19601f8201168201806040525081019061055e9190611950565b9050600781900b60161461058b5760405163fbe0be3960e01b8152600782900b6004820152602401610300565b6105968585856109fa565b95945050505050565b33610167146105e55760405162461bcd60e51b81526020600482015260126024820152714e4f545f4854535f505245434f4d50494c4560701b6044820152606401610300565b6105f9828267ffffffffffffffff16610a12565b5050565b33610167146106435760405162461bcd60e51b81526020600482015260126024820152714e4f545f4854535f505245434f4d50494c4560701b6044820152606401610300565b604051633f28a19b60e01b81523060048201525f9061016790633f28a19b906024015f60405180830381865afa15801561067f573d5f803e3d5ffd5b505050506040513d5f823e601f3d908101601f191682016040526106a6919081019061178a565b80515160400151909250905061038c8167ffffffffffffffff8516610a12565b335f8181526001602090815260408083206001600160a01b038716845290915281205490919061070490829086906106ff90879061196b565b610b42565b5060019392505050565b6060600480546103a090611918565b335f8181526001602090815260408083206001600160a01b0387168452909152812054909190838110156107a15760405162461bcd60e51b815260206004820152602560248201527f45524332303a2064656372656173656420616c6c6f77616e63652062656c6f77604482015264207a65726f60d81b6064820152608401610300565b6107ae8286868403610b42565b506001949350505050565b60405163a0ecee3360e01b81525f600482018190523360248301526001600160a01b0384166044830152606482018390529081906101679063a0ecee33906084016020604051808303815f875af1158015610816573d5f803e3d5ffd5b505050506040513d601f19601f8201168201806040525081019061083a9190611950565b9050600781900b6016146108675760405163fbe0be3960e01b8152600782900b6004820152602401610300565b6104d28484610c65565b5f33610167146108b85760405162461bcd60e51b81526020600482015260126024820152714e4f545f4854535f505245434f4d50494c4560701b6044820152606401610300565b856108c8576108c8848684610c72565b6108d3848484610d02565b50601695945050505050565b33610167146109255760405162461bcd60e51b81526020600482015260126024820152714e4f545f4854535f505245434f4d50494c4560701b6044820152606401610300565b61038c838383610b42565b6001600160a01b0382166109865760405162461bcd60e51b815260206004820152601f60248201527f45524332303a206d696e7420746f20746865207a65726f2061646472657373006044820152606401610300565b8060025f828254610997919061196b565b90915550506001600160a01b0382165f81815260208181526040808320805486019055518481527fddf252ad1be2c89b69c2b068fc378daa952ba7f163c4a11628f55a4df523b3ef910160405180910390a35050565b5f33610704818585610b42565b5f33610a07858285610c72565b6107ae858585610d02565b6001600160a01b038216610a725760405162461bcd60e51b815260206004820152602160248201527f45524332303a206275726e2066726f6d20746865207a65726f206164647265736044820152607360f81b6064820152608401610300565b6001600160a01b0382165f9081526020819052604090205481811015610ae55760405162461bcd60e51b815260206004820152602260248201527f45524332303a206275726e20616d6f756e7420657863656564732062616c616e604482015261636560f01b6064820152608401610300565b6001600160a01b0383165f818152602081815260408083208686039055600280548790039055518581529192917fddf252ad1be2c89b69c2b068fc378daa952ba7f163c4a11628f55a4df523b3ef910160405180910390a3505050565b6001600160a01b038316610ba45760405162461bcd60e51b8152602060048201526024808201527f45524332303a20617070726f76652066726f6d20746865207a65726f206164646044820152637265737360e01b6064820152608401610300565b6001600160a01b038216610c055760405162461bcd60e51b815260206004820152602260248201527f45524332303a20617070726f766520746f20746865207a65726f206164647265604482015261737360f01b6064820152608401610300565b6001600160a01b038381165f8181526001602090815260408083209487168084529482529182902085905590518481527f8c5be1e5ebec7d5bd14f71427d1e84f3dd0314c0f7b2291e5b200ac8c7c3b925910160405180910390a3505050565b5f33610704818585610d02565b6001600160a01b038381165f908152600160209081526040808320938616835292905220545f198114610cfc5781811015610cef5760405162461bcd60e51b815260206004820152601d60248201527f45524332303a20696e73756666696369656e7420616c6c6f77616e63650000006044820152606401610300565b610cfc8484848403610b42565b50505050565b6001600160a01b038316610d665760405162461bcd60e51b815260206004820152602560248201527f45524332303a207472616e736665722066726f6d20746865207a65726f206164604482015264647265737360d81b6064820152608401610300565b6001600160a01b038216610dc85760405162461bcd60e51b815260206004820152602360248201527f45524332303a207472616e7366657220746f20746865207a65726f206164647260448201526265737360e81b6064820152608401610300565b6001600160a01b0383165f9081526020819052604090205481811015610e3f5760405162461bcd60e51b815260206004820152602660248201527f45524332303a207472616e7366657220616d6f756e7420657863656564732062604482015265616c616e636560d01b6064820152608401610300565b6001600160a01b038481165f81815260208181526040808320878703905593871680835291849020805487019055925185815290927fddf252ad1be2c89b69c2b068fc378daa952ba7f163c4a11628f55a4df523b3ef910160405180910390a3610cfc565b8060070b8114610eb2575f80fd5b50565b5f60208284031215610ec5575f80fd5b8135610ed081610ea4565b9392505050565b5f5b83811015610ef1578181015183820152602001610ed9565b50505f910152565b602081525f8251806020840152610f17816040850160208701610ed7565b601f01601f19169190910160400192915050565b6001600160a01b0381168114610eb2575f80fd5b5f8060408385031215610f50575f80fd5b8235610f5b81610f2b565b946020939093013593505050565b5f805f60608486031215610f7b575f80fd5b8335610f8681610f2b565b92506020840135610f9681610f2b565b929592945050506040919091013590565b5f8060408385031215610fb8575f80fd5b8235610fc381610f2b565b91506020830135610fd381610ea4565b809150509250929050565b5f60208284031215610fee575f80fd5b8135610ed081610f2b565b8015158114610eb2575f80fd5b5f805f805f60a0868803121561101a575f80fd5b853561102581610ff9565b9450602086013561103581610f2b565b9350604086013561104581610f2b565b9250606086013561105581610f2b565b949793965091946080013592915050565b5f8060408385031215611077575f80fd5b823561108281610f2b565b91506020830135610fd381610f2b565b805161109d81610ea4565b919050565b634e487b7160e01b5f52604160045260245ffd5b6040805190810167ffffffffffffffff811182821017156110d9576110d96110a2565b60405290565b60405160a0810167ffffffffffffffff811182821017156110d9576110d96110a2565b604051610120810167ffffffffffffffff811182821017156110d9576110d96110a2565b60405160c0810167ffffffffffffffff811182821017156110d9576110d96110a2565b604051601f8201601f1916810167ffffffffffffffff81118282101715611172576111726110a2565b604052919050565b5f82601f830112611189575f80fd5b815167ffffffffffffffff8111156111a3576111a36110a2565b6111b6601f8201601f1916602001611149565b8181528460208386010111156111ca575f80fd5b6111db826020830160208701610ed7565b949350505050565b805161109d81610f2b565b805161109d81610ff9565b5f67ffffffffffffffff821115611212576112126110a2565b5060051b60200190565b5f82601f83011261122b575f80fd5b8151602061124061123b836111f9565b611149565b82815260059290921b8401810191818101908684111561125e575f80fd5b8286015b8481101561136e57805167ffffffffffffffff80821115611281575f80fd5b908801906040601f19838c03810182131561129a575f80fd5b6112a26110b6565b88850151815282850151848111156112b8575f80fd5b949094019360a0858e03830112156112cf575f8081fd5b6112d76110df565b9150888501516112e681610ff9565b8252848301516112f581610f2b565b828a01526060858101518581111561130c575f8081fd5b61131a8f8c838a010161117a565b8585015250608093508386015185811115611334575f8081fd5b6113428f8c838a010161117a565b82850152505061135460a086016111e3565b928201929092528188015285525050918301918301611262565b509695505050505050565b5f60608284031215611389575f80fd5b6040516060810181811067ffffffffffffffff821117156113ac576113ac6110a2565b806040525080915082516113bf81610ea4565b815260208301516113cf81610f2b565b602082015260408301516113e281610ea4565b6040919091015292915050565b5f6101608284031215611400575f80fd5b611408611102565b9050815167ffffffffffffffff80821115611421575f80fd5b61142d8583860161117a565b83526020840151915080821115611442575f80fd5b61144e8583860161117a565b602084015261145f604085016111e3565b60408401526060840151915080821115611477575f80fd5b6114838583860161117a565b6060840152611494608085016111ee565b60808401526114a560a08501611092565b60a08401526114b660c085016111ee565b60c084015260e08401519150808211156114ce575f80fd5b506114db8482850161121c565b60e0830152506101006114f084828501611379565b9082015292915050565b5f82601f830112611509575f80fd5b8151602061151961123b836111f9565b82815260a09283028501820192828201919087851115611537575f80fd5b8387015b858110156115be5781818a031215611552575f8081fd5b61155a6110df565b815161156581610ea4565b81528186015161157481610f2b565b8187015260408281015161158781610ff9565b9082015260608281015161159a81610ff9565b908201526080828101516115ad81610f2b565b90820152845292840192810161153b565b5090979650505050505050565b5f82601f8301126115da575f80fd5b815160206115ea61123b836111f9565b82815260c09283028501820192828201919087851115611608575f80fd5b8387015b858110156115be5781818a031215611623575f8081fd5b61162b611126565b815161163681610ea4565b81528186015161164581610ea4565b8187015260408281015161165881610ea4565b9082015260608281015161166b81610ea4565b9082015260808281015161167e81610ff9565b9082015260a08281015161169181610f2b565b90820152845292840192810161160c565b5f82601f8301126116b1575f80fd5b815160206116c161123b836111f9565b82815260c092830285018201928282019190878511156116df575f80fd5b8387015b858110156115be5781818a0312156116fa575f8081fd5b611702611126565b815161170d81610ea4565b81528186015161171c81610ea4565b8187015260408281015161172f81610ea4565b9082015260608281015161174281610f2b565b9082015260808281015161175581610ff9565b9082015260a08281015161176881610f2b565b9082015284529284019281016116e3565b8051600381900b811461109d575f80fd5b5f806040838503121561179b575f80fd5b82516117a681610ea4565b602084015190925067ffffffffffffffff808211156117c3575f80fd5b90840190604082870312156117d6575f80fd5b6117de6110b6565b8251828111156117ec575f80fd5b830161012081890312156117fe575f80fd5b611806611102565b815184811115611814575f80fd5b6118208a8285016113ef565b82525061182f60208301611092565b6020820152611840604083016111ee565b6040820152611851606083016111ee565b6060820152611862608083016111ee565b608082015260a082015184811115611878575f80fd5b6118848a8285016114fa565b60a08301525060c08201518481111561189b575f80fd5b6118a78a8285016115cb565b60c08301525060e0820151848111156118be575f80fd5b6118ca8a8285016116a2565b60e08301525061010080830151858111156118e3575f80fd5b6118ef8b82860161117a565b828401525050808352505061190660208401611779565b60208201528093505050509250929050565b600181811c9082168061192c57607f821691505b60208210810361194a57634e487b7160e01b5f52602260045260245ffd5b50919050565b5f60208284031215611960575f80fd5b8151610ed081610ea4565b808201808211156104d657634e487b7160e01b5f52601160045260245ffdfea2646970667358221220e185adbb0ec9f8418d9b79f9cec75f649641208ff33f7bb81400a20953d7322a64736f6c63430008140033608060405234801562000010575f80fd5b506040516200371f3803806200371f833981016040819052620000339162000843565b805180516020909101515f6200004a838262000a27565b50600162000059828262000a27565b505060405163da23fff960e01b81523391506101679063da23fff99062000087908490869060040162000e5e565b5f604051808303815f87803b1580156200009f575f80fd5b505af1158015620000b2573d5f803e3d5ffd5b50505050505062000f57565b634e487b7160e01b5f52604160045260245ffd5b604080519081016001600160401b0381118282101715620000f757620000f7620000be565b60405290565b60405160a081016001600160401b0381118282101715620000f757620000f7620000be565b60405161012081016001600160401b0381118282101715620000f757620000f7620000be565b60405160c081016001600160401b0381118282101715620000f757620000f7620000be565b604051601f8201601f191681016001600160401b0381118282101715620001985762000198620000be565b604052919050565b5f5b83811015620001bc578181015183820152602001620001a2565b50505f910152565b5f82601f830112620001d4575f80fd5b81516001600160401b03811115620001f057620001f0620000be565b62000205601f8201601f19166020016200016d565b8181528460208386010111156200021a575f80fd5b6200022d826020830160208701620001a0565b949350505050565b80516001600160a01b03811681146200024c575f80fd5b919050565b805180151581146200024c575f80fd5b8051600781900b81146200024c575f80fd5b5f6001600160401b038211156200028e576200028e620000be565b5060051b60200190565b5f82601f830112620002a8575f80fd5b81516020620002c1620002bb8362000273565b6200016d565b82815260059290921b84018101918181019086841115620002e0575f80fd5b8286015b84811015620004015780516001600160401b038082111562000304575f80fd5b908801906040601f19838c0381018213156200031e575f80fd5b62000328620000d2565b88850151815282850151848111156200033f575f80fd5b949094019360a0858e038301121562000357575f8081fd5b62000361620000fd565b91506200037089860162000251565b82526200037f83860162000235565b898301526060808601518581111562000397575f8081fd5b620003a78f8c838a0101620001c4565b8585015250608093508386015185811115620003c2575f8081fd5b620003d28f8c838a0101620001c4565b828501525050620003e660a0860162000235565b928201929092528188015285525050918301918301620002e4565b509695505050505050565b5f606082840312156200041d575f80fd5b604051606081016001600160401b0381118282101715620004425762000442620000be565b604052905080620004538362000261565b8152620004636020840162000235565b6020820152620004766040840162000261565b60408201525092915050565b5f610160828403121562000494575f80fd5b6200049e62000122565b82519091506001600160401b0380821115620004b8575f80fd5b620004c685838601620001c4565b83526020840151915080821115620004dc575f80fd5b620004ea85838601620001c4565b6020840152620004fd6040850162000235565b6040840152606084015191508082111562000516575f80fd5b6200052485838601620001c4565b6060840152620005376080850162000251565b60808401526200054a60a0850162000261565b60a08401526200055d60c0850162000251565b60c084015260e084015191508082111562000576575f80fd5b50620005858482850162000298565b60e0830152506101006200059c848285016200040c565b9082015292915050565b5f82601f830112620005b6575f80fd5b81516020620005c9620002bb8362000273565b82815260a09283028501820192828201919087851115620005e8575f80fd5b8387015b85811015620006745781818a03121562000605575f8081fd5b6200060f620000fd565b6200061a8262000261565b81526200062986830162000235565b8682015260406200063c81840162000251565b9082015260606200064f83820162000251565b9082015260806200066283820162000235565b908201528452928401928101620005ec565b5090979650505050505050565b5f82601f83011262000691575f80fd5b81516020620006a4620002bb8362000273565b82815260c09283028501820192828201919087851115620006c3575f80fd5b8387015b85811015620006745781818a031215620006e0575f8081fd5b620006ea62000148565b620006f58262000261565b81526200070486830162000261565b8682015260406200071781840162000261565b9082015260606200072a83820162000261565b9082015260806200073d83820162000251565b9082015260a06200075083820162000235565b908201528452928401928101620006c7565b5f82601f83011262000772575f80fd5b8151602062000785620002bb8362000273565b82815260c09283028501820192828201919087851115620007a4575f80fd5b8387015b85811015620006745781818a031215620007c1575f8081fd5b620007cb62000148565b620007d68262000261565b8152620007e586830162000261565b868201526040620007f881840162000261565b9082015260606200080b83820162000235565b9082015260806200081e83820162000251565b9082015260a06200083183820162000235565b908201528452928401928101620007a8565b5f6020828403121562000854575f80fd5b81516001600160401b03808211156200086b575f80fd5b90830190610120828603121562000880575f80fd5b6200088a62000122565b82518281111562000899575f80fd5b620008a78782860162000482565b825250620008b86020840162000261565b6020820152620008cb6040840162000251565b6040820152620008de6060840162000251565b6060820152620008f16080840162000251565b608082015260a08301518281111562000908575f80fd5b6200091687828601620005a6565b60a08301525060c0830151828111156200092e575f80fd5b6200093c8782860162000681565b60c08301525060e08301518281111562000954575f80fd5b620009628782860162000762565b60e08301525061010080840151838111156200097c575f80fd5b6200098a88828701620001c4565b918301919091525095945050505050565b600181811c90821680620009b057607f821691505b602082108103620009cf57634e487b7160e01b5f52602260045260245ffd5b50919050565b601f82111562000a22575f81815260208120601f850160051c81016020861015620009fd5750805b601f850160051c820191505b8181101562000a1e5782815560010162000a09565b5050505b505050565b81516001600160401b0381111562000a435762000a43620000be565b62000a5b8162000a5484546200099b565b84620009d5565b602080601f83116001811462000a91575f841562000a795750858301515b5f19600386901b1c1916600185901b17855562000a1e565b5f85815260208120601f198616915b8281101562000ac15788860151825594840194600190910190840162000aa0565b508582101562000adf57878501515f19600388901b60f8161c191681555b5050505050600190811b01905550565b5f815180845262000b08816020860160208601620001a0565b601f01601f19169290920160200192915050565b5f81518084526020808501808196508360051b810191508286015f5b8581101562000bd657828403895281516040815186528682015191508087870152815115158187015286820151606060018060a01b03808316828a015283850151935060a09250608083818b015262000b9560e08b018662000aef565b928601518a8403603f1901858c015292945062000bb3858462000aef565b9501511660c0989098019790975250509885019893509084019060010162000b38565b5091979650505050505050565b5f610160825181855262000bfa8286018262000aef565b9150506020830151848203602086015262000c16828262000aef565b915050604083015162000c3460408601826001600160a01b03169052565b506060830151848203606086015262000c4e828262000aef565b915050608083015162000c65608086018215159052565b5060a083015162000c7b60a086018260070b9052565b5060c083015162000c9060c086018215159052565b5060e083015184820360e086015262000caa828262000b1c565b610100858101518051600790810b8984015260208201516001600160a01b03166101208a01526040820151900b61014089015291935091505090949350505050565b5f8151808452602080850194508084015f5b8381101562000d59578151805160070b8852838101516001600160a01b03908116858a01526040808301511515908a01526060808301511515908a0152608091820151169088015260a0909601959082019060010162000cfe565b509495945050505050565b5f8151808452602080850194508084015f5b8381101562000d595781518051600790810b895284820151810b858a0152604080830151820b908a015260608083015190910b9089015260808082015115159089015260a0908101516001600160a01b03169088015260c0909601959082019060010162000d76565b5f8151808452602080850194508084015f5b8381101562000d595781518051600790810b895284820151810b858a015260408083015190910b908901526060808201516001600160a01b03908116918a01919091526080808301511515908a015260a091820151169088015260c0909601959082019060010162000df1565b60018060a01b0383168152604060208201525f825161012080604085015262000e8c61016085018362000be3565b9150602085015162000ea3606086018260070b9052565b506040850151801515608086015250606085015180151560a086015250608085015180151560c08601525060a0850151603f19808685030160e087015262000eec848362000cec565b935060c0870151915061010081878603018188015262000f0d858462000d64565b945060e0880151925081878603018488015262000f2b858462000ddf565b9450808801519350508086850301610140870152505062000f4d828262000aef565b9695505050505050565b6127ba8062000f655f395ff3fe608060405234801561000f575f80fd5b506004361061018f575f3560e01c80636352211e116100dd578063b59fc61911610088578063cc98587811610063578063cc9858781461036b578063d5efa53c14610372578063e985e9c514610385575f80fd5b8063b59fc61914610332578063b88d4fde14610345578063c87b56dd14610358575f80fd5b806395d89b41116100b857806395d89b411461030c5780639659867e14610314578063a22cb4651461031f575f80fd5b80636352211e146102d357806370a08231146102e657806387087728146102f9575f80fd5b806318160ddd1161013d57806342842e0e1161011857806342842e0e1461028c578063430c20811461029f578063524773ce146102b2575f80fd5b806318160ddd1461023657806323b872dd1461024c5780633d08925d1461025f575f80fd5b8063081812fc1161016d578063081812fc146101e5578063095ea7b3146102105780630ff1493814610223575f80fd5b806301ffc9a71461019357806306e483a5146101bb57806306fdde03146101d0575b5f80fd5b6101a66101a136600461194e565b6103c0565b60405190151581526020015b60405180910390f35b6101ce6101c936600461198b565b610411565b005b6101d8610474565b6040516101b29190611a0f565b6101f86101f3366004611a21565b610503565b6040516001600160a01b0390911681526020016101b2565b6101ce61021e366004611a38565b610528565b6101ce610231366004611a6f565b6105e3565b61023e610639565b6040519081526020016101b2565b6101ce61025a366004611ab7565b610665565b61027261026d366004611c69565b610720565b60408051600793840b81529190920b6020820152016101b2565b6101ce61029a366004611ab7565b610839565b6101a66102ad366004611a38565b6108f4565b600654600160401b900460070b5b60405160079190910b81526020016101b2565b6101f86102e1366004611a21565b610906565b61023e6102f4366004611d14565b61096a565b6102c0610307366004611d2f565b6109ee565b6101d8610af6565b60065460070b6102c0565b6101ce61032d366004611d9e565b610b05565b6102c0610340366004611dca565b610bbe565b6101ce610353366004611e2a565b610c3b565b6101d8610366366004611a21565b610cff565b6101a65f81565b6101ce610380366004611d2f565b610d6e565b6101a6610393366004611e92565b6001600160a01b039182165f90815260056020908152604080832093909416825291909152205460ff1690565b5f6001600160e01b031982166380ac58cd60e01b14806103f057506001600160e01b03198216635b5e139f60e01b145b8061040b57506301ffc9a760e01b6001600160e01b03198316145b92915050565b336101671461045c5760405162461bcd60e51b81526020600482015260126024820152714e4f545f4854535f505245434f4d50494c4560701b60448201526064015b60405180910390fd5b610470828267ffffffffffffffff16610dbe565b5050565b60605f805461048290611ebe565b80601f01602080910402602001604051908101604052809291908181526020018280546104ae90611ebe565b80156104f95780601f106104d0576101008083540402835291602001916104f9565b820191905f5260205f20905b8154815290600101906020018083116104dc57829003601f168201915b5050505050905090565b5f61050d82610e2b565b505f908152600460205260409020546001600160a01b031690565b60405163e459524960e01b815233600482018190526001600160a01b0384166024830152604482018390529083905f906101679063e4595249906064016020604051808303815f875af1158015610581573d5f803e3d5ffd5b505050506040513d601f19601f820116820180604052508101906105a59190611f06565b9050600781900b6016146105d25760405163fbe0be3960e01b8152600782900b6004820152602401610453565b6105dc8585610e91565b5050505050565b33610167146106295760405162461bcd60e51b81526020600482015260126024820152714e4f545f4854535f505245434f4d50494c4560701b6044820152606401610453565b610634838383610fa0565b505050565b6006545f9061065690600160401b8104600790810b91900b611f35565b67ffffffffffffffff16905090565b60405163a0ecee3360e01b815233600482018190526001600160a01b0380861660248401528416604483015260648201839052905f906101679063a0ecee33906084016020604051808303815f875af11580156106c4573d5f803e3d5ffd5b505050506040513d601f19601f820116820180604052508101906106e89190611f06565b9050600781900b6016146107155760405163fbe0be3960e01b8152600782900b6004820152602401610453565b6105dc85858561106d565b5f8033610167146107685760405162461bcd60e51b81526020600482015260126024820152714e4f545f4854535f505245434f4d50494c4560701b6044820152606401610453565b604051631f69565f60e01b81523060048201525f9061016790631f69565f906024015f60405180830381865afa1580156107a4573d5f803e3d5ffd5b505050506040513d5f823e601f3d908101601f191682016040526107cb9190810190612514565b80516040015160068054929450909250905f906107ea9060070b612665565b91906101000a81548167ffffffffffffffff021916908360070b67ffffffffffffffff16021790559250610828818467ffffffffffffffff166110e4565b610830610639565b93505050915091565b60405163a0ecee3360e01b815233600482018190526001600160a01b0380861660248401528416604483015260648201839052905f906101679063a0ecee33906084016020604051808303815f875af1158015610898573d5f803e3d5ffd5b505050506040513d601f19601f820116820180604052508101906108bc9190611f06565b9050600781900b6016146108e95760405163fbe0be3960e01b8152600782900b6004820152602401610453565b6105dc85858561126c565b5f6108ff8383611286565b9392505050565b5f818152600260205260408120546001600160a01b03168061040b5760405162461bcd60e51b815260206004820152601860248201527f4552433732313a20696e76616c696420746f6b656e20494400000000000000006044820152606401610453565b5f6001600160a01b0382166109d35760405162461bcd60e51b815260206004820152602960248201527f4552433732313a2061646472657373207a65726f206973206e6f7420612076616044820152683634b21037bbb732b960b91b6064820152608401610453565b506001600160a01b03165f9081526003602052604090205490565b5f3361016714610a355760405162461bcd60e51b81526020600482015260126024820152714e4f545f4854535f505245434f4d50494c4560701b6044820152606401610453565b6006548290610a4f908290600160401b900460070b61268a565b6006805467ffffffffffffffff92909216600160401b026fffffffffffffffff0000000000000000199092169190911790555f5b8167ffffffffffffffff16811015610ae5575f858583818110610aa857610aa86126b9565b9050602002016020810190610abd91906126cd565b67ffffffffffffffff169050610ad281611302565b5080610add816126e8565b915050610a83565b50610aee610639565b949350505050565b60606001805461048290611ebe565b6040516329aabad960e11b815233600482018190526001600160a01b03841660248301528215156044830152905f906101679063535575b2906064016020604051808303815f875af1158015610b5d573d5f803e3d5ffd5b505050506040513d601f19601f82011682018060405250810190610b819190611f06565b9050600781900b601614610bae5760405163fbe0be3960e01b8152600782900b6004820152602401610453565b610bb88484611394565b50505050565b5f3361016714610c055760405162461bcd60e51b81526020600482015260126024820152714e4f545f4854535f505245434f4d50494c4560701b6044820152606401610453565b5f610c108684611286565b905080610c21575060b29050610c32565b610c2c85858561139f565b50601690505b95945050505050565b60405163a0ecee3360e01b815233600482018190526001600160a01b0380871660248401528516604483015260648201849052905f906101679063a0ecee33906084016020604051808303815f875af1158015610c9a573d5f803e3d5ffd5b505050506040513d601f19601f82011682018060405250810190610cbe9190611f06565b9050600781900b601614610ceb5760405163fbe0be3960e01b8152600782900b6004820152602401610453565b610cf78686868661157d565b505050505050565b6060610d0a82610e2b565b5f610d1f60408051602081019091525f815290565b90505f815111610d3d5760405180602001604052805f8152506108ff565b80610d47846115f5565b604051602001610d58929190612700565b6040516020818303038152906040529392505050565b3361016714610db45760405162461bcd60e51b81526020600482015260126024820152714e4f545f4854535f505245434f4d50494c4560701b6044820152606401610453565b61063482826109ee565b5f81815260046020526040902080546001600160a01b0319166001600160a01b0384169081179091558190610df282610906565b6001600160a01b03167f8c5be1e5ebec7d5bd14f71427d1e84f3dd0314c0f7b2291e5b200ac8c7c3b92560405160405180910390a45050565b5f818152600260205260409020546001600160a01b0316610e8e5760405162461bcd60e51b815260206004820152601860248201527f4552433732313a20696e76616c696420746f6b656e20494400000000000000006044820152606401610453565b50565b5f610e9b82610906565b9050806001600160a01b0316836001600160a01b031603610f085760405162461bcd60e51b815260206004820152602160248201527f4552433732313a20617070726f76616c20746f2063757272656e74206f776e656044820152603960f91b6064820152608401610453565b336001600160a01b0382161480610f245750610f248133610393565b610f965760405162461bcd60e51b815260206004820152603d60248201527f4552433732313a20617070726f76652063616c6c6572206973206e6f7420746f60448201527f6b656e206f776e6572206f7220617070726f76656420666f7220616c6c0000006064820152608401610453565b6106348383610dbe565b816001600160a01b0316836001600160a01b0316036110015760405162461bcd60e51b815260206004820152601960248201527f4552433732313a20617070726f766520746f2063616c6c6572000000000000006044820152606401610453565b6001600160a01b038381165f81815260056020908152604080832094871680845294825291829020805460ff191686151590811790915591519182527f17307eab39ab6107e8899845ad3d59bd9653f200f220920489ca2b5937696c31910160405180910390a3505050565b6110773382611286565b6110d95760405162461bcd60e51b815260206004820152602d60248201527f4552433732313a2063616c6c6572206973206e6f7420746f6b656e206f776e6560448201526c1c881bdc88185c1c1c9bdd9959609a1b6064820152608401610453565b61063483838361139f565b6001600160a01b03821661113a5760405162461bcd60e51b815260206004820181905260248201527f4552433732313a206d696e7420746f20746865207a65726f20616464726573736044820152606401610453565b5f818152600260205260409020546001600160a01b03161561119e5760405162461bcd60e51b815260206004820152601c60248201527f4552433732313a20746f6b656e20616c7265616479206d696e746564000000006044820152606401610453565b5f818152600260205260409020546001600160a01b0316156112025760405162461bcd60e51b815260206004820152601c60248201527f4552433732313a20746f6b656e20616c7265616479206d696e746564000000006044820152606401610453565b6001600160a01b0382165f81815260036020908152604080832080546001019055848352600290915280822080546001600160a01b0319168417905551839291907fddf252ad1be2c89b69c2b068fc378daa952ba7f163c4a11628f55a4df523b3ef908290a45050565b61063483838360405180602001604052805f815250610c3b565b5f8061129183610906565b9050806001600160a01b0316846001600160a01b031614806112d757506001600160a01b038082165f9081526005602090815260408083209388168352929052205460ff165b80610aee5750836001600160a01b03166112f084610503565b6001600160a01b031614949350505050565b5f61130c82610906565b905061131782610906565b5f83815260046020908152604080832080546001600160a01b03199081169091556001600160a01b0385168085526003845282852080545f190190558785526002909352818420805490911690555192935084927fddf252ad1be2c89b69c2b068fc378daa952ba7f163c4a11628f55a4df523b3ef908390a45050565b610470338383610fa0565b826001600160a01b03166113b282610906565b6001600160a01b0316146114165760405162461bcd60e51b815260206004820152602560248201527f4552433732313a207472616e736665722066726f6d20696e636f72726563742060448201526437bbb732b960d91b6064820152608401610453565b6001600160a01b0382166114785760405162461bcd60e51b8152602060048201526024808201527f4552433732313a207472616e7366657220746f20746865207a65726f206164646044820152637265737360e01b6064820152608401610453565b826001600160a01b031661148b82610906565b6001600160a01b0316146114ef5760405162461bcd60e51b815260206004820152602560248201527f4552433732313a207472616e736665722066726f6d20696e636f72726563742060448201526437bbb732b960d91b6064820152608401610453565b5f81815260046020908152604080832080546001600160a01b03199081169091556001600160a01b038781168086526003855283862080545f1901905590871680865283862080546001019055868652600290945282852080549092168417909155905184937fddf252ad1be2c89b69c2b068fc378daa952ba7f163c4a11628f55a4df523b3ef91a4505050565b6115873383611286565b6115e95760405162461bcd60e51b815260206004820152602d60248201527f4552433732313a2063616c6c6572206973206e6f7420746f6b656e206f776e6560448201526c1c881bdc88185c1c1c9bdd9959609a1b6064820152608401610453565b610bb884848484611692565b60605f61160183611710565b60010190505f8167ffffffffffffffff81111561162057611620611af5565b6040519080825280601f01601f19166020018201604052801561164a576020820181803683370190505b5090508181016020015b5f19017f3031323334353637383961626364656600000000000000000000000000000000600a86061a8153600a850494508461165457509392505050565b61169d84848461139f565b6116a9848484846117f1565b610bb85760405162461bcd60e51b815260206004820152603260248201527f4552433732313a207472616e7366657220746f206e6f6e20455243373231526560448201527131b2b4bb32b91034b6b83632b6b2b73a32b960711b6064820152608401610453565b5f807a184f03e93ff9f4daa797ed6e38ed64bf6a1f0100000000000000008310611758577a184f03e93ff9f4daa797ed6e38ed64bf6a1f010000000000000000830492506040015b6d04ee2d6d415b85acef81000000008310611784576d04ee2d6d415b85acef8100000000830492506020015b662386f26fc1000083106117a257662386f26fc10000830492506010015b6305f5e10083106117ba576305f5e100830492506008015b61271083106117ce57612710830492506004015b606483106117e0576064830492506002015b600a831061040b5760010192915050565b5f6001600160a01b0384163b1561192e57604051630a85bd0160e11b81526001600160a01b0385169063150b7a029061183490339089908890889060040161272e565b6020604051808303815f875af192505050801561186e575060408051601f3d908101601f1916820190925261186b91810190612769565b60015b611914573d80801561189b576040519150601f19603f3d011682016040523d82523d5f602084013e6118a0565b606091505b5080515f0361190c5760405162461bcd60e51b815260206004820152603260248201527f4552433732313a207472616e7366657220746f206e6f6e20455243373231526560448201527131b2b4bb32b91034b6b83632b6b2b73a32b960711b6064820152608401610453565b805181602001fd5b6001600160e01b031916630a85bd0160e11b149050610aee565b506001949350505050565b6001600160e01b031981168114610e8e575f80fd5b5f6020828403121561195e575f80fd5b81356108ff81611939565b6001600160a01b0381168114610e8e575f80fd5b8060070b8114610e8e575f80fd5b5f806040838503121561199c575f80fd5b82356119a781611969565b915060208301356119b78161197d565b809150509250929050565b5f5b838110156119dc5781810151838201526020016119c4565b50505f910152565b5f81518084526119fb8160208601602086016119c2565b601f01601f19169290920160200192915050565b602081525f6108ff60208301846119e4565b5f60208284031215611a31575f80fd5b5035919050565b5f8060408385031215611a49575f80fd5b8235611a5481611969565b946020939093013593505050565b8015158114610e8e575f80fd5b5f805f60608486031215611a81575f80fd5b8335611a8c81611969565b92506020840135611a9c81611969565b91506040840135611aac81611a62565b809150509250925092565b5f805f60608486031215611ac9575f80fd5b8335611ad481611969565b92506020840135611ae481611969565b929592945050506040919091013590565b634e487b7160e01b5f52604160045260245ffd5b6040805190810167ffffffffffffffff81118282101715611b2c57611b2c611af5565b60405290565b60405160a0810167ffffffffffffffff81118282101715611b2c57611b2c611af5565b604051610120810167ffffffffffffffff81118282101715611b2c57611b2c611af5565b60405160c0810167ffffffffffffffff81118282101715611b2c57611b2c611af5565b604051601f8201601f1916810167ffffffffffffffff81118282101715611bc557611bc5611af5565b604052919050565b5f67ffffffffffffffff821115611be657611be6611af5565b5060051b60200190565b5f67ffffffffffffffff821115611c0957611c09611af5565b50601f01601f191660200190565b5f82601f830112611c26575f80fd5b8135611c39611c3482611bf0565b611b9c565b818152846020838601011115611c4d575f80fd5b816020850160208301375f918101602001919091529392505050565b5f6020808385031215611c7a575f80fd5b823567ffffffffffffffff80821115611c91575f80fd5b818501915085601f830112611ca4575f80fd5b8135611cb2611c3482611bcd565b81815260059190911b83018401908481019088831115611cd0575f80fd5b8585015b83811015611d0757803585811115611ceb575f8081fd5b611cf98b89838a0101611c17565b845250918601918601611cd4565b5098975050505050505050565b5f60208284031215611d24575f80fd5b81356108ff81611969565b5f8060208385031215611d40575f80fd5b823567ffffffffffffffff80821115611d57575f80fd5b818501915085601f830112611d6a575f80fd5b813581811115611d78575f80fd5b8660208260051b8501011115611d8c575f80fd5b60209290920196919550909350505050565b5f8060408385031215611daf575f80fd5b8235611dba81611969565b915060208301356119b781611a62565b5f805f805f60a08688031215611dde575f80fd5b8535611de981611a62565b94506020860135611df981611969565b93506040860135611e0981611969565b92506060860135611e1981611969565b949793965091946080013592915050565b5f805f8060808587031215611e3d575f80fd5b8435611e4881611969565b93506020850135611e5881611969565b925060408501359150606085013567ffffffffffffffff811115611e7a575f80fd5b611e8687828801611c17565b91505092959194509250565b5f8060408385031215611ea3575f80fd5b8235611eae81611969565b915060208301356119b781611969565b600181811c90821680611ed257607f821691505b602082108103611ef057634e487b7160e01b5f52602260045260245ffd5b50919050565b8051611f018161197d565b919050565b5f60208284031215611f16575f80fd5b81516108ff8161197d565b634e487b7160e01b5f52601160045260245ffd5b600782810b9082900b03677fffffffffffffff198112677fffffffffffffff8213171561040b5761040b611f21565b5f82601f830112611f73575f80fd5b8151611f81611c3482611bf0565b818152846020838601011115611f95575f80fd5b610aee8260208301602087016119c2565b8051611f0181611969565b8051611f0181611a62565b5f82601f830112611fcb575f80fd5b81516020611fdb611c3483611bcd565b82815260059290921b84018101918181019086841115611ff9575f80fd5b8286015b8481101561210957805167ffffffffffffffff8082111561201c575f80fd5b908801906040601f19838c038101821315612035575f80fd5b61203d611b09565b8885015181528285015184811115612053575f80fd5b949094019360a0858e038301121561206a575f8081fd5b612072611b32565b91508885015161208181611a62565b82528483015161209081611969565b828a0152606085810151858111156120a7575f8081fd5b6120b58f8c838a0101611f64565b85850152506080935083860151858111156120cf575f8081fd5b6120dd8f8c838a0101611f64565b8285015250506120ef60a08601611fa6565b928201929092528188015285525050918301918301611ffd565b509695505050505050565b5f60608284031215612124575f80fd5b6040516060810181811067ffffffffffffffff8211171561214757612147611af5565b8060405250809150825161215a8161197d565b8152602083015161216a81611969565b6020820152604083015161217d8161197d565b6040919091015292915050565b5f610160828403121561219b575f80fd5b6121a3611b55565b9050815167ffffffffffffffff808211156121bc575f80fd5b6121c885838601611f64565b835260208401519150808211156121dd575f80fd5b6121e985838601611f64565b60208401526121fa60408501611fa6565b60408401526060840151915080821115612212575f80fd5b61221e85838601611f64565b606084015261222f60808501611fb1565b608084015261224060a08501611ef6565b60a084015261225160c08501611fb1565b60c084015260e0840151915080821115612269575f80fd5b5061227684828501611fbc565b60e08301525061010061228b84828501612114565b9082015292915050565b5f82601f8301126122a4575f80fd5b815160206122b4611c3483611bcd565b82815260a092830285018201928282019190878511156122d2575f80fd5b8387015b858110156123595781818a0312156122ed575f8081fd5b6122f5611b32565b81516123008161197d565b81528186015161230f81611969565b8187015260408281015161232281611a62565b9082015260608281015161233581611a62565b9082015260808281015161234881611969565b9082015284529284019281016122d6565b5090979650505050505050565b5f82601f830112612375575f80fd5b81516020612385611c3483611bcd565b82815260c092830285018201928282019190878511156123a3575f80fd5b8387015b858110156123595781818a0312156123be575f8081fd5b6123c6611b79565b81516123d18161197d565b8152818601516123e08161197d565b818701526040828101516123f38161197d565b908201526060828101516124068161197d565b9082015260808281015161241981611a62565b9082015260a08281015161242c81611969565b9082015284529284019281016123a7565b5f82601f83011261244c575f80fd5b8151602061245c611c3483611bcd565b82815260c0928302850182019282820191908785111561247a575f80fd5b8387015b858110156123595781818a031215612495575f8081fd5b61249d611b79565b81516124a88161197d565b8152818601516124b78161197d565b818701526040828101516124ca8161197d565b908201526060828101516124dd81611969565b908201526080828101516124f081611a62565b9082015260a08281015161250381611969565b90820152845292840192810161247e565b5f8060408385031215612525575f80fd5b82516125308161197d565b602084015190925067ffffffffffffffff8082111561254d575f80fd5b908401906101208287031215612561575f80fd5b612569611b55565b825182811115612577575f80fd5b6125838882860161218a565b82525061259260208401611ef6565b60208201526125a360408401611fb1565b60408201526125b460608401611fb1565b60608201526125c560808401611fb1565b608082015260a0830151828111156125db575f80fd5b6125e788828601612295565b60a08301525060c0830151828111156125fe575f80fd5b61260a88828601612366565b60c08301525060e083015182811115612621575f80fd5b61262d8882860161243d565b60e0830152506101008084015183811115612646575f80fd5b61265289828701611f64565b8284015250508093505050509250929050565b5f8160070b677fffffffffffffff810361268157612681611f21565b60010192915050565b600781810b9083900b01677fffffffffffffff8113677fffffffffffffff198212171561040b5761040b611f21565b634e487b7160e01b5f52603260045260245ffd5b5f602082840312156126dd575f80fd5b81356108ff8161197d565b5f600182016126f9576126f9611f21565b5060010190565b5f83516127118184602088016119c2565b8351908301906127258183602088016119c2565b01949350505050565b5f6001600160a01b0380871683528086166020840152508360408301526080606083015261275f60808301846119e4565b9695505050505050565b5f60208284031215612779575f80fd5b81516108ff8161193956fea264697066735822122021337e190891ba30ea43c788fdd952ba2b937b6c15bdc2a8268b2841a17320b564736f6c63430008140033a2646970667358221220c94b948365c9094644371b7b07a4e4d2065d37b7aefbcc8cf004286a6c5586ad64736f6c63430008140033",
  "linkReferences": {},
  "deployedLinkReferences": {}
}