{
  "_format": "hh-sol-artifact-1",
  "contractName": "TokenVault",
  "sourceName": "contracts/openzeppelin/ERC-4626/TokenVault.sol",
  "abi": [
    {
      "inputs": [
        {
          "internalType": "contract IERC20",
          "name": "_asset",
          "type": "address"
        },
        {
          "internalType": "string",
          "name": "_name",
          "type": "string"
        },
        {
          "internalType": "string",
          "name": "_symbol",
          "type": "string"
        }
      ],
      "stateMutability": "nonpayable",
      "type": "constructor"
    },
    {
      "inputs": [
        {
          "internalType": "address",
          "name": "target",
          "type": "address"
        }
      ],
      "name": "AddressEmptyCode",
      "type": "error"
    },
    {
      "inputs": [
        {
          "internalType": "address",
          "name": "account",
          "type": "address"
        }
      ],
      "name": "AddressInsufficientBalance",
      "type": "error"
    },
    {
      "inputs": [
        {
          "internalType": "address",
          "name": "spender",
          "type": "address"
        },
        {
          "internalType": "uint256",
          "name": "allowance",
          "type": "uint256"
        },
        {
          "internalType": "uint256",
          "name": "needed",
          "type": "uint256"
        }
      ],
      "name": "ERC20InsufficientAllowance",
      "type": "error"
    },
    {
      "inputs": [
        {
          "internalType": "address",
          "name": "sender",
          "type": "address"
        },
        {
          "internalType": "uint256",
          "name": "balance",
          "type": "uint256"
        },
        {
          "internalType": "uint256",
          "name": "needed",
          "type": "uint256"
        }
      ],
      "name": "ERC20InsufficientBalance",
      "type": "error"
    },
    {
      "inputs": [
        {
          "internalType": "address",
          "name": "approver",
          "type": "address"
        }
      ],
      "name": "ERC20InvalidApprover",
      "type": "error"
    },
    {
      "inputs": [
        {
          "internalType": "address",
          "name": "receiver",
          "type": "address"
        }
      ],
      "name": "ERC20InvalidReceiver",
      "type": "error"
    },
    {
      "inputs": [
        {
          "internalType": "address",
          "name": "sender",
          "type": "address"
        }
      ],
      "name": "ERC20InvalidSender",
      "type": "error"
    },
    {
      "inputs": [
        {
          "internalType": "address",
          "name": "spender",
          "type": "address"
        }
      ],
      "name": "ERC20InvalidSpender",
      "type": "error"
    },
    {
      "inputs": [
        {
          "internalType": "address",
          "name": "receiver",
          "type": "address"
        },
        {
          "internalType": "uint256",
          "name": "assets",
          "type": "uint256"
        },
        {
          "internalType": "uint256",
          "name": "max",
          "type": "uint256"
        }
      ],
      "name": "ERC4626ExceededMaxDeposit",
      "type": "error"
    },
    {
      "inputs": [
        {
          "internalType": "address",
          "name": "receiver",
          "type": "address"
        },
        {
          "internalType": "uint256",
          "name": "shares",
          "type": "uint256"
        },
        {
          "internalType": "uint256",
          "name": "max",
          "type": "uint256"
        }
      ],
      "name": "ERC4626ExceededMaxMint",
      "type": "error"
    },
    {
      "inputs": [
        {
          "internalType": "address",
          "name": "owner",
          "type": "address"
        },
        {
          "internalType": "uint256",
          "name": "shares",
          "type": "uint256"
        },
        {
          "internalType": "uint256",
          "name": "max",
          "type": "uint256"
        }
      ],
      "name": "ERC4626ExceededMaxRedeem",
      "type": "error"
    },
    {
      "inputs": [
        {
          "internalType": "address",
          "name": "owner",
          "type": "address"
        },
        {
          "internalType": "uint256",
          "name": "assets",
          "type": "uint256"
        },
        {
          "internalType": "uint256",
          "name": "max",
          "type": "uint256"
        }
      ],
      "name": "ERC4626ExceededMaxWithdraw",
      "type": "error"
    },
    {
      "inputs": [],
      "name": "FailedInnerCall",
      "type": "error"
    },
    {
      "inputs": [],
      "name": "MathOverflowedMulDiv",
      "type": "error"
    },
    {
      "inputs": [
        {
          "internalType": "address",
          "name": "token",
          "type": "address"
        }
      ],
      "name": "SafeERC20FailedOperation",
      "type": "error"
    },
    {
      "anonymous": false,
      "inputs": [
        {
          "indexed": true,
          "internalType": "address",
          "name": "owner",
          "type": "address"
        },
        {
          "indexed": true,
          "internalType": "address",
          "name": "spender",
          "type": "address"
        },
        {
          "indexed": false,
          "internalType": "uint256",
          "name": "value",
          "type": "uint256"
        }
      ],
      "name": "Approval",
      "type": "event"
    },
    {
      "anonymous": false,
      "inputs": [
        {
          "indexed": true,
          "internalType": "address",
          "name": "sender",
          "type": "address"
        },
        {
          "indexed": true,
          "internalType": "address",
          "name": "owner",
          "type": "address"
        },
        {
          "indexed": false,
          "internalType": "uint256",
          "name": "assets",
          "type": "uint256"
        },
        {
          "indexed": false,
          "internalType": "uint256",
          "name": "shares",
          "type": "uint256"
        }
      ],
      "name": "Deposit",
      "type": "event"
    },
    {
      "anonymous": false,
      "inputs": [
        {
          "indexed": true,
          "internalType": "address",
          "name": "from",
          "type": "address"
        },
        {
          "indexed": true,
          "internalType": "address",
          "name": "to",
          "type": "address"
        },
        {
          "indexed": false,
          "internalType": "uint256",
          "name": "value",
          "type": "uint256"
        }
      ],
      "name": "Transfer",
      "type": "event"
    },
    {
      "anonymous": false,
      "inputs": [
        {
          "indexed": true,
          "internalType": "address",
          "name": "sender",
          "type": "address"
        },
        {
          "indexed": true,
          "internalType": "address",
          "name": "receiver",
          "type": "address"
        },
        {
          "indexed": true,
          "internalType": "address",
          "name": "owner",
          "type": "address"
        },
        {
          "indexed": false,
          "internalType": "uint256",
          "name": "assets",
          "type": "uint256"
        },
        {
          "indexed": false,
          "internalType": "uint256",
          "name": "shares",
          "type": "uint256"
        }
      ],
      "name": "Withdraw",
      "type": "event"
    },
    {
      "inputs": [
        {
          "internalType": "uint256",
          "name": "_assets",
          "type": "uint256"
        }
      ],
      "name": "_deposit",
      "outputs": [],
      "stateMutability": "nonpayable",
      "type": "function"
    },
    {
      "inputs": [
        {
          "internalType": "uint256",
          "name": "_shares",
          "type": "uint256"
        },
        {
          "internalType": "address",
          "name": "_receiver",
          "type": "address"
        }
      ],
      "name": "_withdraw",
      "outputs": [],
      "stateMutability": "nonpayable",
      "type": "function"
    },
    {
      "inputs": [
        {
          "internalType": "address",
          "name": "owner",
          "type": "address"
        },
        {
          "internalType": "address",
          "name": "spender",
          "type": "address"
        }
      ],
      "name": "allowance",
      "outputs": [
        {
          "internalType": "uint256",
          "name": "",
          "type": "uint256"
        }
      ],
      "stateMutability": "view",
      "type": "function"
    },
    {
      "inputs": [
        {
          "internalType": "address",
          "name": "spender",
          "type": "address"
        },
        {
          "internalType": "uint256",
          "name": "value",
          "type": "uint256"
        }
      ],
      "name": "approve",
      "outputs": [
        {
          "internalType": "bool",
          "name": "",
          "type": "bool"
        }
      ],
      "stateMutability": "nonpayable",
      "type": "function"
    },
    {
      "inputs": [],
      "name": "asset",
      "outputs": [
        {
          "internalType": "address",
          "name": "",
          "type": "address"
        }
      ],
      "stateMutability": "view",
      "type": "function"
    },
    {
      "inputs": [
        {
          "internalType": "address",
          "name": "account",
          "type": "address"
        }
      ],
      "name": "balanceOf",
      "outputs": [
        {
          "internalType": "uint256",
          "name": "",
          "type": "uint256"
        }
      ],
      "stateMutability": "view",
      "type": "function"
    },
    {
      "inputs": [
        {
          "internalType": "uint256",
          "name": "shares",
          "type": "uint256"
        }
      ],
      "name": "convertToAssets",
      "outputs": [
        {
          "internalType": "uint256",
          "name": "",
          "type": "uint256"
        }
      ],
      "stateMutability": "view",
      "type": "function"
    },
    {
      "inputs": [
        {
          "internalType": "uint256",
          "name": "assets",
          "type": "uint256"
        }
      ],
      "name": "convertToShares",
      "outputs": [
        {
          "internalType": "uint256",
          "name": "",
          "type": "uint256"
        }
      ],
      "stateMutability": "view",
      "type": "function"
    },
    {
      "inputs": [],
      "name": "decimals",
      "outputs": [
        {
          "internalType": "uint8",
          "name": "",
          "type": "uint8"
        }
      ],
      "stateMutability": "view",
      "type": "function"
    },
    {
      "inputs": [
        {
          "internalType": "uint256",
          "name": "assets",
          "type": "uint256"
        },
        {
          "internalType": "address",
          "name": "receiver",
          "type": "address"
        }
      ],
      "name": "deposit",
      "outputs": [
        {
          "internalType": "uint256",
          "name": "",
          "type": "uint256"
        }
      ],
      "stateMutability": "nonpayable",
      "type": "function"
    },
    {
      "inputs": [
        {
          "internalType": "address",
          "name": "",
          "type": "address"
        }
      ],
      "name": "maxDeposit",
      "outputs": [
        {
          "internalType": "uint256",
          "name": "",
          "type": "uint256"
        }
      ],
      "stateMutability": "view",
      "type": "function"
    },
    {
      "inputs": [
        {
          "internalType": "address",
          "name": "",
          "type": "address"
        }
      ],
      "name": "maxMint",
      "outputs": [
        {
          "internalType": "uint256",
          "name": "",
          "type": "uint256"
        }
      ],
      "stateMutability": "view",
      "type": "function"
    },
    {
      "inputs": [
        {
          "internalType": "address",
          "name": "owner",
          "type": "address"
        }
      ],
      "name": "maxRedeem",
      "outputs": [
        {
          "internalType": "uint256",
          "name": "",
          "type": "uint256"
        }
      ],
      "stateMutability": "view",
      "type": "function"
    },
    {
      "inputs": [
        {
          "internalType": "address",
          "name": "owner",
          "type": "address"
        }
      ],
      "name": "maxWithdraw",
      "outputs": [
        {
          "internalType": "uint256",
          "name": "",
          "type": "uint256"
        }
      ],
      "stateMutability": "view",
      "type": "function"
    },
    {
      "inputs": [
        {
          "internalType": "uint256",
          "name": "shares",
          "type": "uint256"
        },
        {
          "internalType": "address",
          "name": "receiver",
          "type": "address"
        }
      ],
      "name": "mint",
      "outputs": [
        {
          "internalType": "uint256",
          "name": "",
          "type": "uint256"
        }
      ],
      "stateMutability": "nonpayable",
      "type": "function"
    },
    {
      "inputs": [],
      "name": "name",
      "outputs": [
        {
          "internalType": "string",
          "name": "",
          "type": "string"
        }
      ],
      "stateMutability": "view",
      "type": "function"
    },
    {
      "inputs": [
        {
          "internalType": "uint256",
          "name": "assets",
          "type": "uint256"
        }
      ],
      "name": "previewDeposit",
      "outputs": [
        {
          "internalType": "uint256",
          "name": "",
          "type": "uint256"
        }
      ],
      "stateMutability": "view",
      "type": "function"
    },
    {
      "inputs": [
        {
          "internalType": "uint256",
          "name": "shares",
          "type": "uint256"
        }
      ],
      "name": "previewMint",
      "outputs": [
        {
          "internalType": "uint256",
          "name": "",
          "type": "uint256"
        }
      ],
      "stateMutability": "view",
      "type": "function"
    },
    {
      "inputs": [
        {
          "internalType": "uint256",
          "name": "shares",
          "type": "uint256"
        }
      ],
      "name": "previewRedeem",
      "outputs": [
        {
          "internalType": "uint256",
          "name": "",
          "type": "uint256"
        }
      ],
      "stateMutability": "view",
      "type": "function"
    },
    {
      "inputs": [
        {
          "internalType": "uint256",
          "name": "assets",
          "type": "uint256"
        }
      ],
      "name": "previewWithdraw",
      "outputs": [
        {
          "internalType": "uint256",
          "name": "",
          "type": "uint256"
        }
      ],
      "stateMutability": "view",
      "type": "function"
    },
    {
      "inputs": [
        {
          "internalType": "uint256",
          "name": "shares",
          "type": "uint256"
        },
        {
          "internalType": "address",
          "name": "receiver",
          "type": "address"
        },
        {
          "internalType": "address",
          "name": "owner",
          "type": "address"
        }
      ],
      "name": "redeem",
      "outputs": [
        {
          "internalType": "uint256",
          "name": "",
          "type": "uint256"
        }
      ],
      "stateMutability": "nonpayable",
      "type": "function"
    },
    {
      "inputs": [
        {
          "internalType": "address",
          "name": "",
          "type": "address"
        }
      ],
      "name": "shareHolders",
      "outputs": [
        {
          "internalType": "uint256",
          "name": "",
          "type": "uint256"
        }
      ],
      "stateMutability": "view",
      "type": "function"
    },
    {
      "inputs": [],
      "name": "symbol",
      "outputs": [
        {
          "internalType": "string",
          "name": "",
          "type": "string"
        }
      ],
      "stateMutability": "view",
      "type": "function"
    },
    {
      "inputs": [],
      "name": "totalAssets",
      "outputs": [
        {
          "internalType": "uint256",
          "name": "",
          "type": "uint256"
        }
      ],
      "stateMutability": "view",
      "type": "function"
    },
    {
      "inputs": [
        {
          "internalType": "address",
          "name": "_user",
          "type": "address"
        }
      ],
      "name": "totalAssetsOfUser",
      "outputs": [
        {
          "internalType": "uint256",
          "name": "",
          "type": "uint256"
        }
      ],
      "stateMutability": "view",
      "type": "function"
    },
    {
      "inputs": [],
      "name": "totalSupply",
      "outputs": [
        {
          "internalType": "uint256",
          "name": "",
          "type": "uint256"
        }
      ],
      "stateMutability": "view",
      "type": "function"
    },
    {
      "inputs": [
        {
          "internalType": "address",
          "name": "to",
          "type": "address"
        },
        {
          "internalType": "uint256",
          "name": "value",
          "type": "uint256"
        }
      ],
      "name": "transfer",
      "outputs": [
        {
          "internalType": "bool",
          "name": "",
          "type": "bool"
        }
      ],
      "stateMutability": "nonpayable",
      "type": "function"
    },
    {
      "inputs": [
        {
          "internalType": "address",
          "name": "from",
          "type": "address"
        },
        {
          "internalType": "address",
          "name": "to",
          "type": "address"
        },
        {
          "internalType": "uint256",
          "name": "value",
          "type": "uint256"
        }
      ],
      "name": "transferFrom",
      "outputs": [
        {
          "internalType": "bool",
          "name": "",
          "type": "bool"
        }
      ],
      "stateMutability": "nonpayable",
      "type": "function"
    },
    {
      "inputs": [
        {
          "internalType": "uint256",
          "name": "assets",
          "type": "uint256"
        },
        {
          "internalType": "address",
          "name": "receiver",
          "type": "address"
        },
        {
          "internalType": "address",
          "name": "owner",
          "type": "address"
        }
      ],
      "name": "withdraw",
      "outputs": [
        {
          "internalType": "uint256",
          "name": "",
          "type": "uint256"
        }
      ],
      "stateMutability": "nonpayable",
      "type": "function"
    }
  ],
  "bytecode": "0x60c06040523480156200001157600080fd5b5060405162001afd38038062001afd83398101604081905262000034916200024f565b82828260036200004583826200036a565b5060046200005482826200036a565b5050506000806200006b836200009d60201b60201c565b91509150816200007d5760126200007f565b805b60ff1660a05250506001600160a01b0316608052506200046e915050565b60408051600481526024810182526020810180516001600160e01b031663313ce56760e01b17905290516000918291829182916001600160a01b03871691620000e69162000436565b600060405180830381855afa9150503d806000811462000123576040519150601f19603f3d011682016040523d82523d6000602084013e62000128565b606091505b50915091508180156200013d57506020815110155b1562000175576000818060200190518101906200015b919062000454565b905060ff811162000173576001969095509350505050565b505b5060009485945092505050565b634e487b7160e01b600052604160045260246000fd5b60005b83811015620001b55781810151838201526020016200019b565b50506000910152565b600082601f830112620001d057600080fd5b81516001600160401b0380821115620001ed57620001ed62000182565b604051601f8301601f19908116603f0116810190828211818310171562000218576200021862000182565b816040528381528660208588010111156200023257600080fd5b6200024584602083016020890162000198565b9695505050505050565b6000806000606084860312156200026557600080fd5b83516001600160a01b03811681146200027d57600080fd5b60208501519093506001600160401b03808211156200029b57600080fd5b620002a987838801620001be565b93506040860151915080821115620002c057600080fd5b50620002cf86828701620001be565b9150509250925092565b600181811c90821680620002ee57607f821691505b6020821081036200030f57634e487b7160e01b600052602260045260246000fd5b50919050565b601f82111562000365576000816000526020600020601f850160051c81016020861015620003405750805b601f850160051c820191505b8181101562000361578281556001016200034c565b5050505b505050565b81516001600160401b0381111562000386576200038662000182565b6200039e81620003978454620002d9565b8462000315565b602080601f831160018114620003d65760008415620003bd5750858301515b600019600386901b1c1916600185901b17855562000361565b600085815260208120601f198616915b828110156200040757888601518255948401946001909101908401620003e6565b5085821015620004265787850151600019600388901b60f8161c191681555b5050505050600190811b01905550565b600082516200044a81846020870162000198565b9190910192915050565b6000602082840312156200046757600080fd5b5051919050565b60805160a051611654620004a9600039600061071e0152600081816102a40152818161096601528181610b370152610bf701526116546000f3fe608060405234801561001057600080fd5b50600436106101cf5760003560e01c806370a0823111610104578063b460af94116100a2578063ce96cb7711610071578063ce96cb77146103f5578063d905777e14610408578063dd62ed3e1461041b578063ef8b30f7146103e257600080fd5b8063b460af94146103bc578063ba087652146103cf578063c63d75b6146102ce578063c6e6f592146103e257600080fd5b806395d89b41116100de57806395d89b411461036e578063a8cc0aa414610376578063a9059cbb14610396578063b3d7f6b9146103a957600080fd5b806370a082311461031f5780639213b1241461034857806394bf804d1461035b57600080fd5b8063293311ab11610171578063402d267d1161014b578063402d267d146102ce57806345be27b6146102e35780634cdad506146102045780636e553f651461030c57600080fd5b8063293311ab14610268578063313ce5671461027d57806338d52e0f1461029757600080fd5b8063095ea7b3116101ad578063095ea7b3146102175780630a28a4771461023a57806318160ddd1461024d57806323b872dd1461025557600080fd5b806301e1d114146101d457806306fdde03146101ef57806307a2d13a14610204575b600080fd5b6101dc610454565b6040519081526020015b60405180910390f35b6101f7610463565b6040516101e69190611251565b6101dc610212366004611284565b6104f5565b61022a6102253660046112b9565b610508565b60405190151581526020016101e6565b6101dc610248366004611284565b610520565b6002546101dc565b61022a6102633660046112e3565b61052d565b61027b61027636600461131f565b610553565b005b610285610716565b60405160ff90911681526020016101e6565b6040516001600160a01b037f00000000000000000000000000000000000000000000000000000000000000001681526020016101e6565b6101dc6102dc36600461134b565b5060001990565b6101dc6102f136600461134b565b6001600160a01b031660009081526005602052604090205490565b6101dc61031a36600461131f565b610742565b6101dc61032d36600461134b565b6001600160a01b031660009081526020819052604090205490565b61027b610356366004611284565b610768565b6101dc61036936600461131f565b6107ea565b6101f7610808565b6101dc61038436600461134b565b60056020526000908152604090205481565b61022a6103a43660046112b9565b610817565b6101dc6103b7366004611284565b610825565b6101dc6103ca366004611366565b610832565b6101dc6103dd366004611366565b61089d565b6101dc6103f0366004611284565b6108ff565b6101dc61040336600461134b565b61090c565b6101dc61041636600461134b565b610930565b6101dc6104293660046113a2565b6001600160a01b03918216600090815260016020908152604080832093909416825291909152205490565b600061045e61094e565b905090565b606060038054610472906113cc565b80601f016020809104026020016040519081016040528092919081815260200182805461049e906113cc565b80156104eb5780601f106104c0576101008083540402835291602001916104eb565b820191906000526020600020905b8154815290600101906020018083116104ce57829003601f168201915b5050505050905090565b60006105028260006109d9565b92915050565b600033610516818585610a13565b5060019392505050565b6000610502826001610a25565b60003361053b858285610a55565b610546858585610ad3565b60019150505b9392505050565b600082116105b35760405162461bcd60e51b815260206004820152602260248201527f7769746864726177206d7573742062652067726561746572207468616e205a65604482015261726f60f01b60648201526084015b60405180910390fd5b6001600160a01b0381166105f85760405162461bcd60e51b815260206004820152600c60248201526b5a65726f204164647265737360a01b60448201526064016105aa565b336000908152600560205260409020546106545760405162461bcd60e51b815260206004820152601160248201527f4e6f742061207368617265486f6c64657200000000000000000000000000000060448201526064016105aa565b336000908152600560205260409020548211156106b35760405162461bcd60e51b815260206004820152601160248201527f4e6f7420656e6f7567682073686172657300000000000000000000000000000060448201526064016105aa565b600060646106c284600a61141c565b6106cc9190611449565b905060006106da828561145d565b336000908152600560205260408120805492935086929091906106fe908490611470565b9091555061070f905081843361089d565b5050505050565b600061045e817f0000000000000000000000000000000000000000000000000000000000000000611483565b60006000196000610752856108ff565b905061076033858784610b32565b949350505050565b600081116107b85760405162461bcd60e51b815260206004820152600f60248201527f4465706f736974206973207a65726f000000000000000000000000000000000060448201526064016105aa565b6107c28133610742565b5033600090815260056020526040812080548392906107e290849061145d565b909155505050565b600060001960006107fa85610825565b905061076033858388610b32565b606060048054610472906113cc565b600033610516818585610ad3565b60006105028260016109d9565b60008061083e8361090c565b90508085111561087a57604051633fa733bb60e21b81526001600160a01b038416600482015260248101869052604481018290526064016105aa565b600061088586610520565b90506108943386868985610bc4565b95945050505050565b6000806108a983610930565b9050808511156108e557604051632e52afbb60e21b81526001600160a01b038416600482015260248101869052604481018290526064016105aa565b60006108f0866104f5565b9050610894338686848a610bc4565b6000610502826000610a25565b6001600160a01b0381166000908152602081905260408120546105029060006109d9565b6001600160a01b038116600090815260208190526040812054610502565b6040516370a0823160e01b81523060048201526000907f00000000000000000000000000000000000000000000000000000000000000006001600160a01b0316906370a0823190602401602060405180830381865afa1580156109b5573d6000803e3d6000fd5b505050506040513d601f19601f8201168201806040525081019061045e919061149c565b600061054c6109e6610454565b6109f190600161145d565b6109fd6000600a611599565b600254610a0a919061145d565b85919085610c84565b610a208383836001610cd3565b505050565b600061054c610a3582600a611599565b600254610a42919061145d565b610a4a610454565b610a0a90600161145d565b6001600160a01b038381166000908152600160209081526040808320938616835292905220546000198114610acd5781811015610abe57604051637dc7a0d960e11b81526001600160a01b038416600482015260248101829052604481018390526064016105aa565b610acd84848484036000610cd3565b50505050565b6001600160a01b038316610afd57604051634b637e8f60e11b8152600060048201526024016105aa565b6001600160a01b038216610b275760405163ec442f0560e01b8152600060048201526024016105aa565b610a20838383610d9a565b610b5e7f0000000000000000000000000000000000000000000000000000000000000000853085610ec4565b610b688382610f40565b826001600160a01b0316846001600160a01b03167fdcbc1c05240f31ff3ad067ef1ee35ce4997762752e3a095284754544f4c709d78484604051610bb6929190918252602082015260400190565b60405180910390a350505050565b826001600160a01b0316856001600160a01b031614610be857610be8838683610a55565b610bf28382610f7a565b610c1d7f00000000000000000000000000000000000000000000000000000000000000008584610fb0565b826001600160a01b0316846001600160a01b0316866001600160a01b03167ffbde797d201c681b91056529119e0b02407c7bb96a4a2c75c01fc9667232c8db8585604051610c75929190918252602082015260400190565b60405180910390a45050505050565b600080610c92868686610fe1565b9050610c9d836110a5565b8015610cb9575060008480610cb457610cb4611433565b868809115b1561089457610cc960018261145d565b9695505050505050565b6001600160a01b038416610cfd5760405163e602df0560e01b8152600060048201526024016105aa565b6001600160a01b038316610d2757604051634a1406b160e11b8152600060048201526024016105aa565b6001600160a01b0380851660009081526001602090815260408083209387168352929052208290558015610acd57826001600160a01b0316846001600160a01b03167f8c5be1e5ebec7d5bd14f71427d1e84f3dd0314c0f7b2291e5b200ac8c7c3b92584604051610bb691815260200190565b6001600160a01b038316610dc5578060026000828254610dba919061145d565b90915550610e379050565b6001600160a01b03831660009081526020819052604090205481811015610e185760405163391434e360e21b81526001600160a01b038516600482015260248101829052604481018390526064016105aa565b6001600160a01b03841660009081526020819052604090209082900390555b6001600160a01b038216610e5357600280548290039055610e72565b6001600160a01b03821660009081526020819052604090208054820190555b816001600160a01b0316836001600160a01b03167fddf252ad1be2c89b69c2b068fc378daa952ba7f163c4a11628f55a4df523b3ef83604051610eb791815260200190565b60405180910390a3505050565b6040516001600160a01b038481166024830152838116604483015260648201839052610acd9186918216906323b872dd906084015b604051602081830303815290604052915060e01b6020820180517bffffffffffffffffffffffffffffffffffffffffffffffffffffffff83818316178352505050506110d2565b6001600160a01b038216610f6a5760405163ec442f0560e01b8152600060048201526024016105aa565b610f7660008383610d9a565b5050565b6001600160a01b038216610fa457604051634b637e8f60e11b8152600060048201526024016105aa565b610f7682600083610d9a565b6040516001600160a01b03838116602483015260448201839052610a2091859182169063a9059cbb90606401610ef9565b60008383028160001985870982811083820303915050806000036110185783828161100e5761100e611433565b049250505061054c565b8084116110385760405163227bc15360e01b815260040160405180910390fd5b6000848688096000868103871696879004966002600389028118808a02820302808a02820302808a02820302808a02820302808a02820302808a02909103029181900381900460010186841190950394909402919094039290920491909117919091029150509392505050565b600060028260038111156110bb576110bb6115a8565b6110c591906115be565b60ff166001149050919050565b60006110e76001600160a01b03841683611135565b9050805160001415801561110c57508080602001905181019061110a91906115e0565b155b15610a2057604051635274afe760e01b81526001600160a01b03841660048201526024016105aa565b606061054c8383600084600080856001600160a01b0316848660405161115b9190611602565b60006040518083038185875af1925050503d8060008114611198576040519150601f19603f3d011682016040523d82523d6000602084013e61119d565b606091505b5091509150610cc98683836060826111bd576111b882611204565b61054c565b81511580156111d457506001600160a01b0384163b155b156111fd57604051639996b31560e01b81526001600160a01b03851660048201526024016105aa565b508061054c565b8051156112145780518082602001fd5b604051630a12f52160e11b815260040160405180910390fd5b60005b83811015611248578181015183820152602001611230565b50506000910152565b602081526000825180602084015261127081604085016020870161122d565b601f01601f19169190910160400192915050565b60006020828403121561129657600080fd5b5035919050565b80356001600160a01b03811681146112b457600080fd5b919050565b600080604083850312156112cc57600080fd5b6112d58361129d565b946020939093013593505050565b6000806000606084860312156112f857600080fd5b6113018461129d565b925061130f6020850161129d565b9150604084013590509250925092565b6000806040838503121561133257600080fd5b823591506113426020840161129d565b90509250929050565b60006020828403121561135d57600080fd5b61054c8261129d565b60008060006060848603121561137b57600080fd5b8335925061138b6020850161129d565b91506113996040850161129d565b90509250925092565b600080604083850312156113b557600080fd5b6113be8361129d565b91506113426020840161129d565b600181811c908216806113e057607f821691505b60208210810361140057634e487b7160e01b600052602260045260246000fd5b50919050565b634e487b7160e01b600052601160045260246000fd5b808202811582820484141761050257610502611406565b634e487b7160e01b600052601260045260246000fd5b60008261145857611458611433565b500490565b8082018082111561050257610502611406565b8181038181111561050257610502611406565b60ff818116838216019081111561050257610502611406565b6000602082840312156114ae57600080fd5b5051919050565b600181815b808511156114f05781600019048211156114d6576114d6611406565b808516156114e357918102915b93841c93908002906114ba565b509250929050565b60008261150757506001610502565b8161151457506000610502565b816001811461152a576002811461153457611550565b6001915050610502565b60ff84111561154557611545611406565b50506001821b610502565b5060208310610133831016604e8410600b8410161715611573575081810a610502565b61157d83836114b5565b806000190482111561159157611591611406565b029392505050565b600061054c60ff8416836114f8565b634e487b7160e01b600052602160045260246000fd5b600060ff8316806115d1576115d1611433565b8060ff84160691505092915050565b6000602082840312156115f257600080fd5b8151801515811461054c57600080fd5b6000825161161481846020870161122d565b919091019291505056fea2646970667358221220a83847a3d9cf707c840c2329ba8c197bb860d6ad5545c5f16684d9e6649ec45464736f6c63430008170033",
  "linkReferences": {},
  "deployedLinkReferences": {}
}