{
  "_format": "hh-sol-artifact-1",
  "contractName": "Defaults",
  "sourceName": "contracts/solidity/defaults/Defaults.sol",
  "abi": [
    {
      "inputs": [
        {
          "internalType": "address",
          "name": "",
          "type": "address"
        }
      ],
      "name": "addrBoolMap",
      "outputs": [
        {
          "internalType": "bool",
          "name": "",
          "type": "bool"
        }
      ],
      "stateMutability": "view",
      "type": "function"
    },
    {
      "inputs": [
        {
          "internalType": "int256",
          "name": "",
          "type": "int256"
        }
      ],
      "name": "bytesBytesMap",
      "outputs": [
        {
          "internalType": "bytes",
          "name": "",
          "type": "bytes"
        }
      ],
      "stateMutability": "view",
      "type": "function"
    },
    {
      "inputs": [],
      "name": "getAddressDefaults",
      "outputs": [
        {
          "internalType": "address",
          "name": "",
          "type": "address"
        }
      ],
      "stateMutability": "pure",
      "type": "function"
    },
    {
      "inputs": [],
      "name": "getArrayDefaults",
      "outputs": [
        {
          "components": [
            {
              "internalType": "string[]",
              "name": "strArr",
              "type": "string[]"
            },
            {
              "internalType": "uint256[]",
              "name": "uintArr",
              "type": "uint256[]"
            },
            {
              "internalType": "bool[]",
              "name": "boolArr",
              "type": "bool[]"
            },
            {
              "internalType": "bytes[]",
              "name": "bytesArr",
              "type": "bytes[]"
            }
          ],
          "internalType": "struct Defaults.ArrayDefaults",
          "name": "",
          "type": "tuple"
        }
      ],
      "stateMutability": "pure",
      "type": "function"
    },
    {
      "inputs": [],
      "name": "getBytesDefaults",
      "outputs": [
        {
          "components": [
            {
              "internalType": "bytes3",
              "name": "bytesDef3",
              "type": "bytes3"
            },
            {
              "internalType": "bytes10",
              "name": "bytesDef10",
              "type": "bytes10"
            },
            {
              "internalType": "bytes15",
              "name": "bytesDef15",
              "type": "bytes15"
            },
            {
              "internalType": "bytes20",
              "name": "bytesDef20",
              "type": "bytes20"
            },
            {
              "internalType": "bytes25",
              "name": "bytesDef25",
              "type": "bytes25"
            },
            {
              "internalType": "bytes30",
              "name": "bytesDef30",
              "type": "bytes30"
            },
            {
              "internalType": "bytes32",
              "name": "bytesDef32",
              "type": "bytes32"
            }
          ],
          "internalType": "struct Defaults.BytesDefaults",
          "name": "",
          "type": "tuple"
        }
      ],
      "stateMutability": "pure",
      "type": "function"
    },
    {
      "inputs": [],
      "name": "getIntDefaults",
      "outputs": [
        {
          "components": [
            {
              "internalType": "uint256",
              "name": "uInt",
              "type": "uint256"
            },
            {
              "internalType": "uint8",
              "name": "uInt8",
              "type": "uint8"
            },
            {
              "internalType": "uint16",
              "name": "uInt16",
              "type": "uint16"
            },
            {
              "internalType": "uint32",
              "name": "uInt32",
              "type": "uint32"
            },
            {
              "internalType": "uint64",
              "name": "uInt64",
              "type": "uint64"
            },
            {
              "internalType": "uint128",
              "name": "uInt128",
              "type": "uint128"
            },
            {
              "internalType": "uint256",
              "name": "uInt256",
              "type": "uint256"
            }
          ],
          "internalType": "struct Defaults.UintDefaults",
          "name": "",
          "type": "tuple"
        }
      ],
      "stateMutability": "pure",
      "type": "function"
    },
    {
      "inputs": [],
      "name": "getStringDefaults",
      "outputs": [
        {
          "internalType": "string",
          "name": "",
          "type": "string"
        }
      ],
      "stateMutability": "pure",
      "type": "function"
    },
    {
      "inputs": [],
      "name": "getUintDefaults",
      "outputs": [
        {
          "components": [
            {
              "internalType": "uint256",
              "name": "uInt",
              "type": "uint256"
            },
            {
              "internalType": "uint8",
              "name": "uInt8",
              "type": "uint8"
            },
            {
              "internalType": "uint16",
              "name": "uInt16",
              "type": "uint16"
            },
            {
              "internalType": "uint32",
              "name": "uInt32",
              "type": "uint32"
            },
            {
              "internalType": "uint64",
              "name": "uInt64",
              "type": "uint64"
            },
            {
              "internalType": "uint128",
              "name": "uInt128",
              "type": "uint128"
            },
            {
              "internalType": "uint256",
              "name": "uInt256",
              "type": "uint256"
            }
          ],
          "internalType": "struct Defaults.UintDefaults",
          "name": "",
          "type": "tuple"
        }
      ],
      "stateMutability": "pure",
      "type": "function"
    },
    {
      "inputs": [
        {
          "internalType": "string",
          "name": "",
          "type": "string"
        }
      ],
      "name": "strUintMap",
      "outputs": [
        {
          "internalType": "uint256",
          "name": "",
          "type": "uint256"
        }
      ],
      "stateMutability": "view",
      "type": "function"
    }
  ],
  "bytecode": "0x608060405234801561001057600080fd5b506107e9806100206000396000f3fe608060405234801561001057600080fd5b50600436106100935760003560e01c80639037fb8e116100665780639037fb8e1461020e578063ac22d85714610306578063ec82fe4a1461031b578063f33510021461020e578063fa9117391461035457600080fd5b806338a53e98146100985780634a1f49b5146100c157806352403b19146100c857806379144f46146101ff575b600080fd5b6100ab6100a636600461047c565b610387565b6040516100b891906104db565b60405180910390f35b60606100ab565b6101416040805160e081018252600080825260208201819052918101829052606081018290526080810182905260a0810182905260c0810191909152506040805160e081018252600080825260208201819052918101829052606081018290526080810182905260a0810182905260c081019190915290565b6040516100b8919081517fffffff000000000000000000000000000000000000000000000000000000000016815260208083015175ffffffffffffffffffffffffffffffffffffffffffff19169082015260408083015170ffffffffffffffffffffffffffffffffff1916908201526060808301516bffffffffffffffffffffffff19169082015260808083015166ffffffffffffff19169082015260a08083015161ffff19169082015260c0918201519181019190915260e00190565b604051600081526020016100b8565b6102876040805160e081018252600080825260208201819052918101829052606081018290526080810182905260a0810182905260c0810191909152506040805160e081018252600080825260208201819052918101829052606081018290526080810182905260a0810182905260c081019190915290565b6040516100b89190600060e0820190508251825260ff602084015116602083015261ffff604084015116604083015263ffffffff606084015116606083015267ffffffffffffffff60808401511660808301526fffffffffffffffffffffffffffffffff60a08401511660a083015260c083015160c083015292915050565b61030e610426565b6040516100b891906105b7565b610346610329366004610692565b805160208183018101805160008252928201919093012091525481565b6040519081526020016100b8565b610377610362366004610743565b60016020526000908152604090205460ff1681565b60405190151581526020016100b8565b600260205260009081526040902080546103a090610779565b80601f01602080910402602001604051908101604052809291908181526020018280546103cc90610779565b80156104195780601f106103ee57610100808354040283529160200191610419565b820191906000526020600020905b8154815290600101906020018083116103fc57829003601f168201915b505050505081565b919050565b6104516040518060800160405280606081526020016060815260200160608152602001606081525090565b6104216040518060800160405280606081526020016060815260200160608152602001606081525090565b60006020828403121561048e57600080fd5b5035919050565b6000815180845260005b818110156104bb5760208185018101518683018201520161049f565b506000602082860101526020601f19601f83011685010191505092915050565b6020815260006104ee6020830184610495565b9392505050565b600081518084526020808501945080840160005b8381101561052557815187529582019590820190600101610509565b509495945050505050565b600081518084526020808501945080840160005b83811015610525578151151587529582019590820190600101610544565b600081518084526020808501808196508360051b8101915082860160005b858110156105aa578284038952610598848351610495565b98850198935090840190600101610580565b5091979650505050505050565b6000602080835260a08301845160808386015281815180845260c08701915060c08160051b8801019350848301925060005b818110156106175760bf19888603018352610605858551610495565b945092850192918501916001016105e9565b50505050818501519150601f198085830301604086015261063882846104f5565b925060408601519150808584030160608601526106558383610530565b92506060860151915080858403016080860152506106738282610562565b95945050505050565b634e487b7160e01b600052604160045260246000fd5b6000602082840312156106a457600080fd5b813567ffffffffffffffff808211156106bc57600080fd5b818401915084601f8301126106d057600080fd5b8135818111156106e2576106e261067c565b604051601f8201601f19908116603f0116810190838211818310171561070a5761070a61067c565b8160405282815287602084870101111561072357600080fd5b826020860160208301376000928101602001929092525095945050505050565b60006020828403121561075557600080fd5b813573ffffffffffffffffffffffffffffffffffffffff811681146104ee57600080fd5b600181811c9082168061078d57607f821691505b6020821081036107ad57634e487b7160e01b600052602260045260246000fd5b5091905056fea2646970667358221220f00e5e7ab10780d938ce18cb668bce21cce94b84fee595fbfadafcc388822cf364736f6c63430008140033",
  "linkReferences": {},
  "deployedLinkReferences": {}
}