{
  "_format": "hh-sol-artifact-1",
  "contractName": "Caller",
  "sourceName": "contracts/Caller.sol",
  "abi": [
    {
      "inputs": [
        {
          "internalType": "address",
          "name": "counter",
          "type": "address"
        }
      ],
      "name": "callIncrement",
      "outputs": [],
      "stateMutability": "nonpayable",
      "type": "function"
    },
    {
      "inputs": [],
      "name": "number",
      "outputs": [
        {
          "internalType": "uint256",
          "name": "",
          "type": "uint256"
        }
      ],
      "stateMutability": "view",
      "type": "function"
    }
  ],
  "bytecode": "0x608060405234801561001057600080fd5b506103ab806100206000396000f3fe608060405234801561001057600080fd5b50600436106100365760003560e01c806329e5b4171461003b5780638381f58a14610057575b600080fd5b6100556004803603810190610050919061020f565b610075565b005b61005f6101a6565b60405161006c9190610255565b60405180910390f35b60008173ffffffffffffffffffffffffffffffffffffffff166040516024016040516020818303038152906040527fd09de08a000000000000000000000000000000000000000000000000000000007bffffffffffffffffffffffffffffffffffffffffffffffffffffffff19166020820180517bffffffffffffffffffffffffffffffffffffffffffffffffffffffff838183161783525050505060405161011e91906102e1565b600060405180830381855af49150503d8060008114610159576040519150601f19603f3d011682016040523d82523d6000602084013e61015e565b606091505b50509050806101a2576040517f08c379a000000000000000000000000000000000000000000000000000000000815260040161019990610355565b60405180910390fd5b5050565b60005481565b600080fd5b600073ffffffffffffffffffffffffffffffffffffffff82169050919050565b60006101dc826101b1565b9050919050565b6101ec816101d1565b81146101f757600080fd5b50565b600081359050610209816101e3565b92915050565b600060208284031215610225576102246101ac565b5b6000610233848285016101fa565b91505092915050565b6000819050919050565b61024f8161023c565b82525050565b600060208201905061026a6000830184610246565b92915050565b600081519050919050565b600081905092915050565b60005b838110156102a4578082015181840152602081019050610289565b60008484015250505050565b60006102bb82610270565b6102c5818561027b565b93506102d5818560208601610286565b80840191505092915050565b60006102ed82846102b0565b915081905092915050565b600082825260208201905092915050565b7f44656c656761746563616c6c206661696c656400000000000000000000000000600082015250565b600061033f6013836102f8565b915061034a82610309565b602082019050919050565b6000602082019050818103600083015261036e81610332565b905091905056fea2646970667358221220a2cbd05d507ee4926b05f0cc6b9b69ee44b268f534b302a337575911edaf8e4464736f6c63430008140033",
  "linkReferences": {},
  "deployedLinkReferences": {}
}