{
  "_format": "hh-sol-artifact-1",
  "contractName": "ClaimAirdrop",
  "sourceName": "contracts/system-contracts/hedera-token-service/examples/hrc-904/ClaimAirdrop.sol",
  "abi": [
    {
      "anonymous": false,
      "inputs": [
        {
          "indexed": false,
          "internalType": "bool",
          "name": "",
          "type": "bool"
        },
        {
          "indexed": false,
          "internalType": "bytes",
          "name": "",
          "type": "bytes"
        }
      ],
      "name": "CallResponseEvent",
      "type": "event"
    },
    {
      "inputs": [
        {
          "internalType": "address",
          "name": "sender",
          "type": "address"
        },
        {
          "internalType": "address",
          "name": "receiver",
          "type": "address"
        },
        {
          "internalType": "address",
          "name": "token",
          "type": "address"
        }
      ],
      "name": "claim",
      "outputs": [
        {
          "internalType": "int64",
          "name": "responseCode",
          "type": "int64"
        }
      ],
      "stateMutability": "nonpayable",
      "type": "function"
    },
    {
      "inputs": [
        {
          "internalType": "address[]",
          "name": "senders",
          "type": "address[]"
        },
        {
          "internalType": "address[]",
          "name": "receivers",
          "type": "address[]"
        },
        {
          "internalType": "address[]",
          "name": "tokens",
          "type": "address[]"
        },
        {
          "internalType": "int64[]",
          "name": "serials",
          "type": "int64[]"
        }
      ],
      "name": "claimMultipleAirdrops",
      "outputs": [
        {
          "internalType": "int64",
          "name": "responseCode",
          "type": "int64"
        }
      ],
      "stateMutability": "nonpayable",
      "type": "function"
    },
    {
      "inputs": [
        {
          "internalType": "address",
          "name": "sender",
          "type": "address"
        },
        {
          "internalType": "address",
          "name": "receiver",
          "type": "address"
        },
        {
          "internalType": "address",
          "name": "token",
          "type": "address"
        },
        {
          "internalType": "int64",
          "name": "serial",
          "type": "int64"
        }
      ],
      "name": "claimNFTAirdrop",
      "outputs": [
        {
          "internalType": "int64",
          "name": "responseCode",
          "type": "int64"
        }
      ],
      "stateMutability": "nonpayable",
      "type": "function"
    },
    {
      "inputs": [
        {
          "internalType": "address",
          "name": "token",
          "type": "address"
        },
        {
          "internalType": "bytes",
          "name": "encodedFunctionSelector",
          "type": "bytes"
        }
      ],
      "name": "redirectForToken",
      "outputs": [
        {
          "internalType": "int256",
          "name": "responseCode",
          "type": "int256"
        },
        {
          "internalType": "bytes",
          "name": "response",
          "type": "bytes"
        }
      ],
      "stateMutability": "nonpayable",
      "type": "function"
    },
    {
      "inputs": [
        {
          "internalType": "address",
          "name": "token",
          "type": "address"
        },
        {
          "internalType": "address",
          "name": "from",
          "type": "address"
        },
        {
          "internalType": "address",
          "name": "to",
          "type": "address"
        },
        {
          "internalType": "uint256",
          "name": "amount",
          "type": "uint256"
        }
      ],
      "name": "transferFrom",
      "outputs": [
        {
          "internalType": "int64",
          "name": "responseCode",
          "type": "int64"
        }
      ],
      "stateMutability": "nonpayable",
      "type": "function"
    },
    {
      "inputs": [
        {
          "internalType": "address",
          "name": "token",
          "type": "address"
        },
        {
          "internalType": "address",
          "name": "from",
          "type": "address"
        },
        {
          "internalType": "address",
          "name": "to",
          "type": "address"
        },
        {
          "internalType": "uint256",
          "name": "serialNumber",
          "type": "uint256"
        }
      ],
      "name": "transferFromNFT",
      "outputs": [
        {
          "internalType": "int64",
          "name": "responseCode",
          "type": "int64"
        }
      ],
      "stateMutability": "nonpayable",
      "type": "function"
    }
  ],
  "bytecode": "0x608060405234801561000f575f80fd5b50610c4d8061001d5f395ff3fe608060405234801561000f575f80fd5b506004361061006f575f3560e01c8063618dc65e1161004d578063618dc65e146100c457806399bde7ea146100e55780639b23d3d9146100f8575f80fd5b806315dacbea14610073578063482bf6a41461009e5780635e1c75e1146100b1575b5f80fd5b610086610081366004610742565b61010b565b60405160079190910b81526020015b60405180910390f35b6100866100ac36600461079b565b6101fa565b6100866100bf3660046107ec565b6102be565b6100d76100d2366004610871565b61037d565b60405161009592919061095e565b6100866100f3366004610a14565b610494565b610086610106366004610742565b61060f565b6040516001600160a01b038581166024830152848116604483015283166064820152608481018290525f908190819061016790630aed65f560e11b9060a4015b60408051601f198184030181529181526020820180516001600160e01b03166001600160e01b03199094169390931790925290516101899190610b12565b5f604051808303815f865af19150503d805f81146101c2576040519150601f19603f3d011682016040523d82523d5f602084013e6101c7565b606091505b5091509150816101d85760156101ec565b808060200190518101906101ec9190610b2d565b60030b979650505050505050565b6040805160018082528183019092525f91829190816020015b604080516080810182525f8082526020808301829052928201819052606082015282525f19909201910181610213575050604080516080810182526001600160a01b0389811682528881166020830152871691810191909152600785900b6060820152815191925090819083905f9061028e5761028e610b54565b60200260200101819052506102a282610653565b9250600783900b6016146102b4575f80fd5b5050949350505050565b6040805160018082528183019092525f91829190816020015b604080516080810182525f8082526020808301829052928201819052606082015282525f199092019101816102d7575050604080516080810182525f606082018190526001600160a01b03898116835288811660208401528716928201929092528251929350918291849161034e5761034e610b54565b602002602001018190525061036282610653565b9250600783900b601614610374575f80fd5b50509392505050565b5f60605f806101676001600160a01b031663618dc65e60e01b87876040516024016103a9929190610b68565b60408051601f198184030181529181526020820180516001600160e01b03166001600160e01b03199094169390931790925290516103e79190610b12565b5f604051808303815f865af19150503d805f8114610420576040519150601f19603f3d011682016040523d82523d5f602084013e610425565b606091505b50915091507f4af4780e06fe8cb9df64b0794fa6f01399af979175bb988e35e0e57e594567bc828260405161045b929190610b89565b60405180910390a18161047e57601560405180602001604052805f815250610482565b6016815b60039190910b97909650945050505050565b83515f90818167ffffffffffffffff8111156104b2576104b261082c565b60405190808252806020026020018201604052801561050257816020015b604080516080810182525f8082526020808301829052928201819052606082015282525f199092019101816104d05790505b5090505f5b8281101561060557604080516080810182525f80825260208201819052918101829052606081019190915288828151811061054457610544610b54565b60209081029190910101516001600160a01b03168152875188908390811061056e5761056e610b54565b6020908102919091018101516001600160a01b031690820152865187908390811061059b5761059b610b54565b60209081029190910101516001600160a01b0316604082015285518690839081106105c8576105c8610b54565b602090810291909101015160070b6060820152825181908490849081106105f1576105f1610b54565b602090810291909101015250600101610507565b506102a281610653565b6040516001600160a01b038581166024830152848116604483015283166064820152608481018290525f908190819061016790639b23d3d960e01b9060a40161014b565b5f805f6101676001600160a01b0316630596164160e01b8560405160240161067b9190610ba3565b60408051601f198184030181529181526020820180516001600160e01b03166001600160e01b03199094169390931790925290516106b99190610b12565b5f604051808303815f865af19150503d805f81146106f2576040519150601f19603f3d011682016040523d82523d5f602084013e6106f7565b606091505b50915091508161070857601561071c565b8080602001905181019061071c9190610b2d565b60030b949350505050565b80356001600160a01b038116811461073d575f80fd5b919050565b5f805f8060808587031215610755575f80fd5b61075e85610727565b935061076c60208601610727565b925061077a60408601610727565b9396929550929360600135925050565b8035600781900b811461073d575f80fd5b5f805f80608085870312156107ae575f80fd5b6107b785610727565b93506107c560208601610727565b92506107d360408601610727565b91506107e16060860161078a565b905092959194509250565b5f805f606084860312156107fe575f80fd5b61080784610727565b925061081560208501610727565b915061082360408501610727565b90509250925092565b634e487b7160e01b5f52604160045260245ffd5b604051601f8201601f1916810167ffffffffffffffff811182821017156108695761086961082c565b604052919050565b5f8060408385031215610882575f80fd5b61088b83610727565b915060208084013567ffffffffffffffff808211156108a8575f80fd5b818601915086601f8301126108bb575f80fd5b8135818111156108cd576108cd61082c565b6108df601f8201601f19168501610840565b915080825287848285010111156108f4575f80fd5b80848401858401375f848284010152508093505050509250929050565b5f5b8381101561092b578181015183820152602001610913565b50505f910152565b5f815180845261094a816020860160208601610911565b601f01601f19169290920160200192915050565b828152604060208201525f6109766040830184610933565b949350505050565b5f67ffffffffffffffff8211156109975761099761082c565b5060051b60200190565b5f82601f8301126109b0575f80fd5b813560206109c56109c08361097e565b610840565b8083825260208201915060208460051b8701019350868411156109e6575f80fd5b602086015b84811015610a09576109fc81610727565b83529183019183016109eb565b509695505050505050565b5f805f8060808587031215610a27575f80fd5b843567ffffffffffffffff80821115610a3e575f80fd5b610a4a888389016109a1565b9550602091508187013581811115610a60575f80fd5b610a6c89828a016109a1565b955050604087013581811115610a80575f80fd5b610a8c89828a016109a1565b945050606087013581811115610aa0575f80fd5b87019050601f81018813610ab2575f80fd5b8035610ac06109c08261097e565b81815260059190911b8201830190838101908a831115610ade575f80fd5b928401925b82841015610b0357610af48461078a565b82529284019290840190610ae3565b979a9699509497505050505050565b5f8251610b23818460208701610911565b9190910192915050565b5f60208284031215610b3d575f80fd5b81518060030b8114610b4d575f80fd5b9392505050565b634e487b7160e01b5f52603260045260245ffd5b6001600160a01b0383168152604060208201525f6109766040830184610933565b8215158152604060208201525f6109766040830184610933565b602080825282518282018190525f919060409081850190868401855b82811015610c0a57815180516001600160a01b0390811686528782015181168887015286820151168686015260609081015160070b9085015260809093019290850190600101610bbf565b509197965050505050505056fea26469706673582212204f3aaa6d64791ab012870d869bc51d0a24d04280ad5515b9de1df61409e276fb64736f6c63430008180033",
  "linkReferences": {},
  "deployedLinkReferences": {}
}