{
  "_format": "hh-sol-artifact-1",
  "contractName": "TransactionInfo",
  "sourceName": "contracts/yul/transaction-information/TransactionInfo.sol",
  "abi": [
    {
      "inputs": [],
      "stateMutability": "payable",
      "type": "constructor"
    },
    {
      "anonymous": false,
      "inputs": [
        {
          "indexed": false,
          "internalType": "uint256",
          "name": "callBalance",
          "type": "uint256"
        }
      ],
      "name": "CallValue",
      "type": "event"
    },
    {
      "inputs": [
        {
          "internalType": "uint256",
          "name": "t",
          "type": "uint256"
        },
        {
          "internalType": "uint256",
          "name": "f",
          "type": "uint256"
        },
        {
          "internalType": "uint256",
          "name": "s",
          "type": "uint256"
        }
      ],
      "name": "callDataCopier",
      "outputs": [
        {
          "internalType": "bytes32",
          "name": "data",
          "type": "bytes32"
        }
      ],
      "stateMutability": "pure",
      "type": "function"
    },
    {
      "inputs": [
        {
          "internalType": "address",
          "name": "a",
          "type": "address"
        }
      ],
      "name": "getBalance",
      "outputs": [
        {
          "internalType": "uint256",
          "name": "bal",
          "type": "uint256"
        }
      ],
      "stateMutability": "view",
      "type": "function"
    },
    {
      "inputs": [
        {
          "internalType": "uint256",
          "name": "p",
          "type": "uint256"
        }
      ],
      "name": "getCallDataLoad",
      "outputs": [
        {
          "internalType": "bytes32",
          "name": "data",
          "type": "bytes32"
        }
      ],
      "stateMutability": "pure",
      "type": "function"
    },
    {
      "inputs": [],
      "name": "getCallDataSize",
      "outputs": [
        {
          "internalType": "uint256",
          "name": "datasize",
          "type": "uint256"
        }
      ],
      "stateMutability": "pure",
      "type": "function"
    },
    {
      "inputs": [],
      "name": "getCallValue",
      "outputs": [],
      "stateMutability": "payable",
      "type": "function"
    },
    {
      "inputs": [],
      "name": "getChainId",
      "outputs": [
        {
          "internalType": "uint256",
          "name": "chainId",
          "type": "uint256"
        }
      ],
      "stateMutability": "view",
      "type": "function"
    },
    {
      "inputs": [],
      "name": "getCoinbase",
      "outputs": [
        {
          "internalType": "address",
          "name": "beneficiary",
          "type": "address"
        }
      ],
      "stateMutability": "view",
      "type": "function"
    },
    {
      "inputs": [],
      "name": "getContractAddress",
      "outputs": [
        {
          "internalType": "address",
          "name": "addr",
          "type": "address"
        }
      ],
      "stateMutability": "view",
      "type": "function"
    },
    {
      "inputs": [],
      "name": "getCurrentBlockNumber",
      "outputs": [
        {
          "internalType": "uint256",
          "name": "blockNumber",
          "type": "uint256"
        }
      ],
      "stateMutability": "view",
      "type": "function"
    },
    {
      "inputs": [],
      "name": "getGasLeft",
      "outputs": [
        {
          "internalType": "uint256",
          "name": "result",
          "type": "uint256"
        }
      ],
      "stateMutability": "view",
      "type": "function"
    },
    {
      "inputs": [],
      "name": "getGasLimit",
      "outputs": [
        {
          "internalType": "uint256",
          "name": "gasLimit",
          "type": "uint256"
        }
      ],
      "stateMutability": "view",
      "type": "function"
    },
    {
      "inputs": [],
      "name": "getGasPrice",
      "outputs": [
        {
          "internalType": "uint256",
          "name": "gasPrice",
          "type": "uint256"
        }
      ],
      "stateMutability": "view",
      "type": "function"
    },
    {
      "inputs": [],
      "name": "getMsgCaller",
      "outputs": [
        {
          "internalType": "address",
          "name": "msgCaller",
          "type": "address"
        }
      ],
      "stateMutability": "view",
      "type": "function"
    },
    {
      "inputs": [],
      "name": "getOrigin",
      "outputs": [
        {
          "internalType": "address",
          "name": "originSender",
          "type": "address"
        }
      ],
      "stateMutability": "view",
      "type": "function"
    },
    {
      "inputs": [],
      "name": "getSelfBalance",
      "outputs": [
        {
          "internalType": "uint256",
          "name": "bal",
          "type": "uint256"
        }
      ],
      "stateMutability": "view",
      "type": "function"
    },
    {
      "inputs": [],
      "name": "getTimestamp",
      "outputs": [
        {
          "internalType": "uint256",
          "name": "currentTimestamp",
          "type": "uint256"
        }
      ],
      "stateMutability": "view",
      "type": "function"
    }
  ],
  "bytecode": "0x608060405261037d806100136000396000f3fe6080604052600436106100f35760003560e01c806351be4eaa1161008a578063c6c01dd211610059578063c6c01dd214610227578063d1a82a9d14610231578063df1f29ee14610244578063f8b2cb4f1461025757600080fd5b806351be4eaa146101c057806369a0f746146101d55780636fd902e1146101f5578063b051314f1461020857600080fd5b806331018e41116100c657806331018e411461017457806332a2c5d0146101875780633408e4701461019a578063455259cb146101ad57600080fd5b8063048a5fed146100f8578063113b81a31461011a578063188ec3561461014e5780631a93d1c314610161575b600080fd5b34801561010457600080fd5b50475b6040519081526020015b60405180910390f35b34801561012657600080fd5b50335b60405173ffffffffffffffffffffffffffffffffffffffff9091168152602001610111565b34801561015a57600080fd5b5042610107565b34801561016d57600080fd5b5045610107565b34801561018057600080fd5b5036610107565b34801561019357600080fd5b5030610129565b3480156101a657600080fd5b5046610107565b3480156101b957600080fd5b503a610107565b3480156101cc57600080fd5b50610107610276565b3480156101e157600080fd5b506101076101f03660046102c5565b61027e565b34801561020157600080fd5b5043610107565b34801561021457600080fd5b506101076102233660046102f1565b3590565b61022f61028d565b005b34801561023d57600080fd5b5041610129565b34801561025057600080fd5b5032610129565b34801561026357600080fd5b5061010761027236600461030a565b3190565b60005a905090565b60008183853750509051919050565b60405134808252907f7995d1b40b617cdcad9d43226f11e9cce4341b7ada6ab8aa0233115776bd47d09060200160405180910390a150565b6000806000606084860312156102da57600080fd5b505081359360208301359350604090920135919050565b60006020828403121561030357600080fd5b5035919050565b60006020828403121561031c57600080fd5b813573ffffffffffffffffffffffffffffffffffffffff8116811461034057600080fd5b939250505056fea26469706673582212205904145c6568811527b1619f9704cea8bb4cffbc4bacbb1abd3f33c9fc41ecbc64736f6c63430008170033",
  "linkReferences": {},
  "deployedLinkReferences": {}
}