{
  "_format": "hh-sol-artifact-1",
  "contractName": "TypeOps",
  "sourceName": "contracts/solidity/typeops/TypeOps.sol",
  "abi": [
    {
      "inputs": [],
      "name": "typeContractCreationCode",
      "outputs": [
        {
          "internalType": "bytes",
          "name": "",
          "type": "bytes"
        }
      ],
      "stateMutability": "pure",
      "type": "function"
    },
    {
      "inputs": [],
      "name": "typeContractName",
      "outputs": [
        {
          "internalType": "string",
          "name": "",
          "type": "string"
        }
      ],
      "stateMutability": "pure",
      "type": "function"
    },
    {
      "inputs": [],
      "name": "typeContractRuntimeCode",
      "outputs": [
        {
          "internalType": "bytes",
          "name": "",
          "type": "bytes"
        }
      ],
      "stateMutability": "pure",
      "type": "function"
    },
    {
      "inputs": [],
      "name": "typeIntegerMax",
      "outputs": [
        {
          "internalType": "int256",
          "name": "",
          "type": "int256"
        }
      ],
      "stateMutability": "pure",
      "type": "function"
    },
    {
      "inputs": [],
      "name": "typeIntegerMin",
      "outputs": [
        {
          "internalType": "int256",
          "name": "",
          "type": "int256"
        }
      ],
      "stateMutability": "pure",
      "type": "function"
    },
    {
      "inputs": [],
      "name": "typeInterfaceId",
      "outputs": [
        {
          "internalType": "bytes4",
          "name": "",
          "type": "bytes4"
        }
      ],
      "stateMutability": "pure",
      "type": "function"
    },
    {
      "inputs": [],
      "name": "typeUintMax",
      "outputs": [
        {
          "internalType": "uint256",
          "name": "",
          "type": "uint256"
        }
      ],
      "stateMutability": "pure",
      "type": "function"
    },
    {
      "inputs": [],
      "name": "typeUintMin",
      "outputs": [
        {
          "internalType": "uint256",
          "name": "",
          "type": "uint256"
        }
      ],
      "stateMutability": "pure",
      "type": "function"
    }
  ],
  "bytecode": "0x608060405234801561001057600080fd5b50610432806100206000396000f3fe608060405234801561001057600080fd5b50600436106100885760003560e01c8063703a27841161005b578063703a27841461010157806380266dbd1461010b578063cfa3b0c814610120578063e5d851af1461012857600080fd5b806305ab6dd21461008d5780630a6d4804146100c25780631111035b146100d4578063668a0579146100db575b600080fd5b604080518082019091526007815266547970654f707360c81b60208201525b6040516100b991906101cb565b60405180910390f35b6000195b6040519081526020016100b9565b60006100c6565b7f7fffffffffffffffffffffffffffffffffffffffffffffffffffffffffffffff6100c6565b600160ff1b6100c6565b6040516361bc051d60e11b81526020016100b9565b6100ac610130565b6100ac61015a565b6060604051806020016101429061016c565b601f1982820381018352601f90910116604052919050565b60606040518060200161014290610178565b60fc806101e683390190565b61011b806102e283390190565b6000815180845260005b818110156101ab5760208185018101518683018201520161018f565b506000602082860101526020601f19601f83011685010191505092915050565b6020815260006101de6020830184610185565b939250505056fe6080604052348015600f57600080fd5b506004361060325760003560e01c806345773e4e146037578063c3780a3a14606b575b600080fd5b604080518082018252600b81526a12195b1b1bc815dbdc9b1960aa1b60208201529051606291906079565b60405180910390f35b604051607b81526020016062565b60006020808352835180602085015260005b8181101560a557858101830151858201604001528201608b565b506000604082860101526040601f19601f830116850101925050509291505056fea26469706673582212204a430e336079bde856c4b5655a6be1f72be0df09de753e24a78dfd65962b9d9e64736f6c63430008170033608060405234801561001057600080fd5b5060fc8061001f6000396000f3fe6080604052348015600f57600080fd5b506004361060325760003560e01c806345773e4e146037578063c3780a3a14606b575b600080fd5b604080518082018252600b81526a12195b1b1bc815dbdc9b1960aa1b60208201529051606291906079565b60405180910390f35b604051607b81526020016062565b60006020808352835180602085015260005b8181101560a557858101830151858201604001528201608b565b506000604082860101526040601f19601f830116850101925050509291505056fea26469706673582212204a430e336079bde856c4b5655a6be1f72be0df09de753e24a78dfd65962b9d9e64736f6c63430008170033a264697066735822122066f766b57019eeb38c4c4e283d3ffcb6f6cd8d4334a03b9ac1ef3e7e1726bf0864736f6c63430008170033",
  "linkReferences": {},
  "deployedLinkReferences": {}
}