{
  "_format": "hh-sol-artifact-1",
  "contractName": "ERC721",
  "sourceName": "contracts/ERC721.sol",
  "abi": [
    {
      "inputs": [
        {
          "internalType": "string",
          "name": "name",
          "type": "string"
        },
        {
          "internalType": "string",
          "name": "symbol",
          "type": "string"
        }
      ],
      "stateMutability": "nonpayable",
      "type": "constructor"
    },
    {
      "inputs": [
        {
          "internalType": "address",
          "name": "sender",
          "type": "address"
        },
        {
          "internalType": "uint256",
          "name": "tokenId",
          "type": "uint256"
        },
        {
          "internalType": "address",
          "name": "owner",
          "type": "address"
        }
      ],
      "name": "ERC721IncorrectOwner",
      "type": "error"
    },
    {
      "inputs": [
        {
          "internalType": "address",
          "name": "operator",
          "type": "address"
        },
        {
          "internalType": "uint256",
          "name": "tokenId",
          "type": "uint256"
        }
      ],
      "name": "ERC721InsufficientApproval",
      "type": "error"
    },
    {
      "inputs": [
        {
          "internalType": "address",
          "name": "approver",
          "type": "address"
        }
      ],
      "name": "ERC721InvalidApprover",
      "type": "error"
    },
    {
      "inputs": [
        {
          "internalType": "address",
          "name": "operator",
          "type": "address"
        }
      ],
      "name": "ERC721InvalidOperator",
      "type": "error"
    },
    {
      "inputs": [
        {
          "internalType": "address",
          "name": "owner",
          "type": "address"
        }
      ],
      "name": "ERC721InvalidOwner",
      "type": "error"
    },
    {
      "inputs": [
        {
          "internalType": "address",
          "name": "receiver",
          "type": "address"
        }
      ],
      "name": "ERC721InvalidReceiver",
      "type": "error"
    },
    {
      "inputs": [
        {
          "internalType": "address",
          "name": "sender",
          "type": "address"
        }
      ],
      "name": "ERC721InvalidSender",
      "type": "error"
    },
    {
      "inputs": [
        {
          "internalType": "uint256",
          "name": "tokenId",
          "type": "uint256"
        }
      ],
      "name": "ERC721NonexistentToken",
      "type": "error"
    },
    {
      "anonymous": false,
      "inputs": [
        {
          "indexed": true,
          "internalType": "address",
          "name": "owner",
          "type": "address"
        },
        {
          "indexed": true,
          "internalType": "address",
          "name": "approved",
          "type": "address"
        },
        {
          "indexed": true,
          "internalType": "uint256",
          "name": "tokenId",
          "type": "uint256"
        }
      ],
      "name": "Approval",
      "type": "event"
    },
    {
      "anonymous": false,
      "inputs": [
        {
          "indexed": true,
          "internalType": "address",
          "name": "owner",
          "type": "address"
        },
        {
          "indexed": true,
          "internalType": "address",
          "name": "operator",
          "type": "address"
        },
        {
          "indexed": false,
          "internalType": "bool",
          "name": "approved",
          "type": "bool"
        }
      ],
      "name": "ApprovalForAll",
      "type": "event"
    },
    {
      "anonymous": false,
      "inputs": [
        {
          "indexed": true,
          "internalType": "address",
          "name": "from",
          "type": "address"
        },
        {
          "indexed": true,
          "internalType": "address",
          "name": "to",
          "type": "address"
        },
        {
          "indexed": true,
          "internalType": "uint256",
          "name": "tokenId",
          "type": "uint256"
        }
      ],
      "name": "Transfer",
      "type": "event"
    },
    {
      "inputs": [
        {
          "internalType": "address",
          "name": "to",
          "type": "address"
        },
        {
          "internalType": "uint256",
          "name": "tokenId",
          "type": "uint256"
        }
      ],
      "name": "approve",
      "outputs": [],
      "stateMutability": "nonpayable",
      "type": "function"
    },
    {
      "inputs": [
        {
          "internalType": "address",
          "name": "owner",
          "type": "address"
        }
      ],
      "name": "balanceOf",
      "outputs": [
        {
          "internalType": "uint256",
          "name": "",
          "type": "uint256"
        }
      ],
      "stateMutability": "view",
      "type": "function"
    },
    {
      "inputs": [
        {
          "internalType": "uint256",
          "name": "tokenId",
          "type": "uint256"
        }
      ],
      "name": "burn",
      "outputs": [],
      "stateMutability": "nonpayable",
      "type": "function"
    },
    {
      "inputs": [
        {
          "internalType": "uint256",
          "name": "tokenId",
          "type": "uint256"
        }
      ],
      "name": "getApproved",
      "outputs": [
        {
          "internalType": "address",
          "name": "",
          "type": "address"
        }
      ],
      "stateMutability": "view",
      "type": "function"
    },
    {
      "inputs": [
        {
          "internalType": "address",
          "name": "owner",
          "type": "address"
        },
        {
          "internalType": "address",
          "name": "operator",
          "type": "address"
        }
      ],
      "name": "isApprovedForAll",
      "outputs": [
        {
          "internalType": "bool",
          "name": "",
          "type": "bool"
        }
      ],
      "stateMutability": "view",
      "type": "function"
    },
    {
      "inputs": [
        {
          "internalType": "address",
          "name": "to",
          "type": "address"
        }
      ],
      "name": "mint",
      "outputs": [
        {
          "internalType": "uint256",
          "name": "",
          "type": "uint256"
        }
      ],
      "stateMutability": "nonpayable",
      "type": "function"
    },
    {
      "inputs": [],
      "name": "name",
      "outputs": [
        {
          "internalType": "string",
          "name": "",
          "type": "string"
        }
      ],
      "stateMutability": "view",
      "type": "function"
    },
    {
      "inputs": [
        {
          "internalType": "uint256",
          "name": "tokenId",
          "type": "uint256"
        }
      ],
      "name": "ownerOf",
      "outputs": [
        {
          "internalType": "address",
          "name": "",
          "type": "address"
        }
      ],
      "stateMutability": "view",
      "type": "function"
    },
    {
      "inputs": [
        {
          "internalType": "address",
          "name": "from",
          "type": "address"
        },
        {
          "internalType": "address",
          "name": "to",
          "type": "address"
        },
        {
          "internalType": "uint256",
          "name": "tokenId",
          "type": "uint256"
        }
      ],
      "name": "safeTransferFrom",
      "outputs": [],
      "stateMutability": "nonpayable",
      "type": "function"
    },
    {
      "inputs": [
        {
          "internalType": "address",
          "name": "from",
          "type": "address"
        },
        {
          "internalType": "address",
          "name": "to",
          "type": "address"
        },
        {
          "internalType": "uint256",
          "name": "tokenId",
          "type": "uint256"
        },
        {
          "internalType": "bytes",
          "name": "data",
          "type": "bytes"
        }
      ],
      "name": "safeTransferFrom",
      "outputs": [],
      "stateMutability": "nonpayable",
      "type": "function"
    },
    {
      "inputs": [
        {
          "internalType": "address",
          "name": "operator",
          "type": "address"
        },
        {
          "internalType": "bool",
          "name": "approved",
          "type": "bool"
        }
      ],
      "name": "setApprovalForAll",
      "outputs": [],
      "stateMutability": "nonpayable",
      "type": "function"
    },
    {
      "inputs": [
        {
          "internalType": "bytes4",
          "name": "interfaceId",
          "type": "bytes4"
        }
      ],
      "name": "supportsInterface",
      "outputs": [
        {
          "internalType": "bool",
          "name": "",
          "type": "bool"
        }
      ],
      "stateMutability": "view",
      "type": "function"
    },
    {
      "inputs": [],
      "name": "symbol",
      "outputs": [
        {
          "internalType": "string",
          "name": "",
          "type": "string"
        }
      ],
      "stateMutability": "view",
      "type": "function"
    },
    {
      "inputs": [
        {
          "internalType": "uint256",
          "name": "tokenId",
          "type": "uint256"
        }
      ],
      "name": "tokenURI",
      "outputs": [
        {
          "internalType": "string",
          "name": "",
          "type": "string"
        }
      ],
      "stateMutability": "view",
      "type": "function"
    },
    {
      "inputs": [
        {
          "internalType": "address",
          "name": "from",
          "type": "address"
        },
        {
          "internalType": "address",
          "name": "to",
          "type": "address"
        },
        {
          "internalType": "uint256",
          "name": "tokenId",
          "type": "uint256"
        }
      ],
      "name": "transferFrom",
      "outputs": [],
      "stateMutability": "nonpayable",
      "type": "function"
    }
  ],
  "bytecode": "0x608060405260006006553480156200001657600080fd5b50604051620025bb380380620025bb83398181016040528101906200003c9190620001ff565b818181600090816200004f9190620004cf565b508060019081620000619190620004cf565b5050505050620005b6565b6000604051905090565b600080fd5b600080fd5b600080fd5b600080fd5b6000601f19601f8301169050919050565b7f4e487b7100000000000000000000000000000000000000000000000000000000600052604160045260246000fd5b620000d5826200008a565b810181811067ffffffffffffffff82111715620000f757620000f66200009b565b5b80604052505050565b60006200010c6200006c565b90506200011a8282620000ca565b919050565b600067ffffffffffffffff8211156200013d576200013c6200009b565b5b62000148826200008a565b9050602081019050919050565b60005b838110156200017557808201518184015260208101905062000158565b60008484015250505050565b60006200019862000192846200011f565b62000100565b905082815260208101848484011115620001b757620001b662000085565b5b620001c484828562000155565b509392505050565b600082601f830112620001e457620001e362000080565b5b8151620001f684826020860162000181565b91505092915050565b6000806040838503121562000219576200021862000076565b5b600083015167ffffffffffffffff8111156200023a57620002396200007b565b5b6200024885828601620001cc565b925050602083015167ffffffffffffffff8111156200026c576200026b6200007b565b5b6200027a85828601620001cc565b9150509250929050565b600081519050919050565b7f4e487b7100000000000000000000000000000000000000000000000000000000600052602260045260246000fd5b60006002820490506001821680620002d757607f821691505b602082108103620002ed57620002ec6200028f565b5b50919050565b60008190508160005260206000209050919050565b60006020601f8301049050919050565b600082821b905092915050565b600060088302620003577fffffffffffffffffffffffffffffffffffffffffffffffffffffffffffffffff8262000318565b62000363868362000318565b95508019841693508086168417925050509392505050565b6000819050919050565b6000819050919050565b6000620003b0620003aa620003a4846200037b565b62000385565b6200037b565b9050919050565b6000819050919050565b620003cc836200038f565b620003e4620003db82620003b7565b84845462000325565b825550505050565b600090565b620003fb620003ec565b62000408818484620003c1565b505050565b5b81811015620004305762000424600082620003f1565b6001810190506200040e565b5050565b601f8211156200047f576200044981620002f3565b620004548462000308565b8101602085101562000464578190505b6200047c620004738562000308565b8301826200040d565b50505b505050565b600082821c905092915050565b6000620004a46000198460080262000484565b1980831691505092915050565b6000620004bf838362000491565b9150826002028217905092915050565b620004da8262000284565b67ffffffffffffffff811115620004f657620004f56200009b565b5b620005028254620002be565b6200050f82828562000434565b600060209050601f83116001811462000547576000841562000532578287015190505b6200053e8582620004b1565b865550620005ae565b601f1984166200055786620002f3565b60005b8281101562000581578489015182556001820191506020850194506020810190506200055a565b86831015620005a157848901516200059d601f89168262000491565b8355505b6001600288020188555050505b505050505050565b611ff580620005c66000396000f3fe608060405234801561001057600080fd5b50600436106100f55760003560e01c80636352211e11610097578063a22cb46511610066578063a22cb46514610296578063b88d4fde146102b2578063c87b56dd146102ce578063e985e9c5146102fe576100f5565b80636352211e146101e85780636a6278421461021857806370a082311461024857806395d89b4114610278576100f5565b8063095ea7b3116100d3578063095ea7b31461017857806323b872dd1461019457806342842e0e146101b057806342966c68146101cc576100f5565b806301ffc9a7146100fa57806306fdde031461012a578063081812fc14610148575b600080fd5b610114600480360381019061010f9190611770565b61032e565b60405161012191906117b8565b60405180910390f35b610132610410565b60405161013f9190611863565b60405180910390f35b610162600480360381019061015d91906118bb565b6104a2565b60405161016f9190611929565b60405180910390f35b610192600480360381019061018d9190611970565b6104be565b005b6101ae60048036038101906101a991906119b0565b6104d4565b005b6101ca60048036038101906101c591906119b0565b6105d6565b005b6101e660048036038101906101e191906118bb565b6105f6565b005b61020260048036038101906101fd91906118bb565b610678565b60405161020f9190611929565b60405180910390f35b610232600480360381019061022d9190611a03565b61068a565b60405161023f9190611a3f565b60405180910390f35b610262600480360381019061025d9190611a03565b6106bf565b60405161026f9190611a3f565b60405180910390f35b610280610779565b60405161028d9190611863565b60405180910390f35b6102b060048036038101906102ab9190611a86565b61080b565b005b6102cc60048036038101906102c79190611bfb565b610821565b005b6102e860048036038101906102e391906118bb565b610846565b6040516102f59190611863565b60405180910390f35b61031860048036038101906103139190611c7e565b6108af565b60405161032591906117b8565b60405180910390f35b60007f80ac58cd000000000000000000000000000000000000000000000000000000007bffffffffffffffffffffffffffffffffffffffffffffffffffffffff1916827bffffffffffffffffffffffffffffffffffffffffffffffffffffffff191614806103f957507f5b5e139f000000000000000000000000000000000000000000000000000000007bffffffffffffffffffffffffffffffffffffffffffffffffffffffff1916827bffffffffffffffffffffffffffffffffffffffffffffffffffffffff1916145b80610409575061040882610943565b5b9050919050565b60606000805461041f90611ced565b80601f016020809104026020016040519081016040528092919081815260200182805461044b90611ced565b80156104985780601f1061046d57610100808354040283529160200191610498565b820191906000526020600020905b81548152906001019060200180831161047b57829003601f168201915b5050505050905090565b60006104ad826109ad565b506104b782610a35565b9050919050565b6104d082826104cb610a72565b610a7a565b5050565b600073ffffffffffffffffffffffffffffffffffffffff168273ffffffffffffffffffffffffffffffffffffffff16036105465760006040517f64a0ae9200000000000000000000000000000000000000000000000000000000815260040161053d9190611929565b60405180910390fd5b600061055a8383610555610a72565b610a8c565b90508373ffffffffffffffffffffffffffffffffffffffff168173ffffffffffffffffffffffffffffffffffffffff16146105d0578382826040517f64283d7b0000000000000000000000000000000000000000000000000000000081526004016105c793929190611d1e565b60405180910390fd5b50505050565b6105f183838360405180602001604052806000815250610821565b505050565b3373ffffffffffffffffffffffffffffffffffffffff1661061682610678565b73ffffffffffffffffffffffffffffffffffffffff161461066c576040517f08c379a000000000000000000000000000000000000000000000000000000000815260040161066390611da1565b60405180910390fd5b61067581610ca6565b50565b6000610683826109ad565b9050919050565b60008060065490506001600660008282546106a59190611df0565b925050819055506106b68382610d2c565b80915050919050565b60008073ffffffffffffffffffffffffffffffffffffffff168273ffffffffffffffffffffffffffffffffffffffff16036107325760006040517f89c62b640000000000000000000000000000000000000000000000000000000081526004016107299190611929565b60405180910390fd5b600360008373ffffffffffffffffffffffffffffffffffffffff1673ffffffffffffffffffffffffffffffffffffffff168152602001908152602001600020549050919050565b60606001805461078890611ced565b80601f01602080910402602001604051908101604052809291908181526020018280546107b490611ced565b80156108015780601f106107d657610100808354040283529160200191610801565b820191906000526020600020905b8154815290600101906020018083116107e457829003601f168201915b5050505050905090565b61081d610816610a72565b8383610e25565b5050565b61082c8484846104d4565b610840610837610a72565b85858585610f94565b50505050565b6060610851826109ad565b50600061085c611145565b9050600081511161087c57604051806020016040528060008152506108a7565b806108868461115c565b604051602001610897929190611e60565b6040516020818303038152906040525b915050919050565b6000600560008473ffffffffffffffffffffffffffffffffffffffff1673ffffffffffffffffffffffffffffffffffffffff16815260200190815260200160002060008373ffffffffffffffffffffffffffffffffffffffff1673ffffffffffffffffffffffffffffffffffffffff16815260200190815260200160002060009054906101000a900460ff16905092915050565b60007f01ffc9a7000000000000000000000000000000000000000000000000000000007bffffffffffffffffffffffffffffffffffffffffffffffffffffffff1916827bffffffffffffffffffffffffffffffffffffffffffffffffffffffff1916149050919050565b6000806109b98361122a565b9050600073ffffffffffffffffffffffffffffffffffffffff168173ffffffffffffffffffffffffffffffffffffffff1603610a2c57826040517f7e273289000000000000000000000000000000000000000000000000000000008152600401610a239190611a3f565b60405180910390fd5b80915050919050565b60006004600083815260200190815260200160002060009054906101000a900473ffffffffffffffffffffffffffffffffffffffff169050919050565b600033905090565b610a878383836001611267565b505050565b600080610a988461122a565b9050600073ffffffffffffffffffffffffffffffffffffffff168373ffffffffffffffffffffffffffffffffffffffff1614610ada57610ad981848661142c565b5b600073ffffffffffffffffffffffffffffffffffffffff168173ffffffffffffffffffffffffffffffffffffffff1614610b6b57610b1c600085600080611267565b6001600360008373ffffffffffffffffffffffffffffffffffffffff1673ffffffffffffffffffffffffffffffffffffffff168152602001908152602001600020600082825403925050819055505b600073ffffffffffffffffffffffffffffffffffffffff168573ffffffffffffffffffffffffffffffffffffffff1614610bee576001600360008773ffffffffffffffffffffffffffffffffffffffff1673ffffffffffffffffffffffffffffffffffffffff168152602001908152602001600020600082825401925050819055505b846002600086815260200190815260200160002060006101000a81548173ffffffffffffffffffffffffffffffffffffffff021916908373ffffffffffffffffffffffffffffffffffffffff160217905550838573ffffffffffffffffffffffffffffffffffffffff168273ffffffffffffffffffffffffffffffffffffffff167fddf252ad1be2c89b69c2b068fc378daa952ba7f163c4a11628f55a4df523b3ef60405160405180910390a4809150509392505050565b6000610cb56000836000610a8c565b9050600073ffffffffffffffffffffffffffffffffffffffff168173ffffffffffffffffffffffffffffffffffffffff1603610d2857816040517f7e273289000000000000000000000000000000000000000000000000000000008152600401610d1f9190611a3f565b60405180910390fd5b5050565b600073ffffffffffffffffffffffffffffffffffffffff168273ffffffffffffffffffffffffffffffffffffffff1603610d9e5760006040517f64a0ae92000000000000000000000000000000000000000000000000000000008152600401610d959190611929565b60405180910390fd5b6000610dac83836000610a8c565b9050600073ffffffffffffffffffffffffffffffffffffffff168173ffffffffffffffffffffffffffffffffffffffff1614610e205760006040517f73c6ac6e000000000000000000000000000000000000000000000000000000008152600401610e179190611929565b60405180910390fd5b505050565b600073ffffffffffffffffffffffffffffffffffffffff168273ffffffffffffffffffffffffffffffffffffffff1603610e9657816040517f5b08ba18000000000000000000000000000000000000000000000000000000008152600401610e8d9190611929565b60405180910390fd5b80600560008573ffffffffffffffffffffffffffffffffffffffff1673ffffffffffffffffffffffffffffffffffffffff16815260200190815260200160002060008473ffffffffffffffffffffffffffffffffffffffff1673ffffffffffffffffffffffffffffffffffffffff16815260200190815260200160002060006101000a81548160ff0219169083151502179055508173ffffffffffffffffffffffffffffffffffffffff168373ffffffffffffffffffffffffffffffffffffffff167f17307eab39ab6107e8899845ad3d59bd9653f200f220920489ca2b5937696c3183604051610f8791906117b8565b60405180910390a3505050565b60008373ffffffffffffffffffffffffffffffffffffffff163b111561113e578273ffffffffffffffffffffffffffffffffffffffff1663150b7a02868685856040518563ffffffff1660e01b8152600401610ff39493929190611ed9565b6020604051808303816000875af192505050801561102f57506040513d601f19601f8201168201806040525081019061102c9190611f3a565b60015b6110b3573d806000811461105f576040519150601f19603f3d011682016040523d82523d6000602084013e611064565b606091505b5060008151036110ab57836040517f64a0ae920000000000000000000000000000000000000000000000000000000081526004016110a29190611929565b60405180910390fd5b805181602001fd5b63150b7a0260e01b7bffffffffffffffffffffffffffffffffffffffffffffffffffffffff1916817bffffffffffffffffffffffffffffffffffffffffffffffffffffffff19161461113c57836040517f64a0ae920000000000000000000000000000000000000000000000000000000081526004016111339190611929565b60405180910390fd5b505b5050505050565b606060405180602001604052806000815250905090565b60606000600161116b846114f0565b01905060008167ffffffffffffffff81111561118a57611189611ad0565b5b6040519080825280601f01601f1916602001820160405280156111bc5781602001600182028036833780820191505090505b509050600082602001820190505b60011561121f578080600190039150507f3031323334353637383961626364656600000000000000000000000000000000600a86061a8153600a858161121357611212611f67565b5b049450600085036111ca575b819350505050919050565b60006002600083815260200190815260200160002060009054906101000a900473ffffffffffffffffffffffffffffffffffffffff169050919050565b80806112a05750600073ffffffffffffffffffffffffffffffffffffffff168273ffffffffffffffffffffffffffffffffffffffff1614155b156113d45760006112b0846109ad565b9050600073ffffffffffffffffffffffffffffffffffffffff168373ffffffffffffffffffffffffffffffffffffffff161415801561131b57508273ffffffffffffffffffffffffffffffffffffffff168173ffffffffffffffffffffffffffffffffffffffff1614155b801561132e575061132c81846108af565b155b1561137057826040517fa9fbf51f0000000000000000000000000000000000000000000000000000000081526004016113679190611929565b60405180910390fd5b81156113d257838573ffffffffffffffffffffffffffffffffffffffff168273ffffffffffffffffffffffffffffffffffffffff167f8c5be1e5ebec7d5bd14f71427d1e84f3dd0314c0f7b2291e5b200ac8c7c3b92560405160405180910390a45b505b836004600085815260200190815260200160002060006101000a81548173ffffffffffffffffffffffffffffffffffffffff021916908373ffffffffffffffffffffffffffffffffffffffff16021790555050505050565b611437838383611643565b6114eb57600073ffffffffffffffffffffffffffffffffffffffff168373ffffffffffffffffffffffffffffffffffffffff16036114ac57806040517f7e2732890000000000000000000000000000000000000000000000000000000081526004016114a39190611a3f565b60405180910390fd5b81816040517f177e802f0000000000000000000000000000000000000000000000000000000081526004016114e2929190611f96565b60405180910390fd5b505050565b600080600090507a184f03e93ff9f4daa797ed6e38ed64bf6a1f010000000000000000831061154e577a184f03e93ff9f4daa797ed6e38ed64bf6a1f010000000000000000838161154457611543611f67565b5b0492506040810190505b6d04ee2d6d415b85acef8100000000831061158b576d04ee2d6d415b85acef8100000000838161158157611580611f67565b5b0492506020810190505b662386f26fc1000083106115ba57662386f26fc1000083816115b0576115af611f67565b5b0492506010810190505b6305f5e10083106115e3576305f5e10083816115d9576115d8611f67565b5b0492506008810190505b61271083106116085761271083816115fe576115fd611f67565b5b0492506004810190505b6064831061162b576064838161162157611620611f67565b5b0492506002810190505b600a831061163a576001810190505b80915050919050565b60008073ffffffffffffffffffffffffffffffffffffffff168373ffffffffffffffffffffffffffffffffffffffff16141580156116fb57508273ffffffffffffffffffffffffffffffffffffffff168473ffffffffffffffffffffffffffffffffffffffff1614806116bc57506116bb84846108af565b5b806116fa57508273ffffffffffffffffffffffffffffffffffffffff166116e283610a35565b73ffffffffffffffffffffffffffffffffffffffff16145b5b90509392505050565b6000604051905090565b600080fd5b600080fd5b60007fffffffff0000000000000000000000000000000000000000000000000000000082169050919050565b61174d81611718565b811461175857600080fd5b50565b60008135905061176a81611744565b92915050565b6000602082840312156117865761178561170e565b5b60006117948482850161175b565b91505092915050565b60008115159050919050565b6117b28161179d565b82525050565b60006020820190506117cd60008301846117a9565b92915050565b600081519050919050565b600082825260208201905092915050565b60005b8381101561180d5780820151818401526020810190506117f2565b60008484015250505050565b6000601f19601f8301169050919050565b6000611835826117d3565b61183f81856117de565b935061184f8185602086016117ef565b61185881611819565b840191505092915050565b6000602082019050818103600083015261187d818461182a565b905092915050565b6000819050919050565b61189881611885565b81146118a357600080fd5b50565b6000813590506118b58161188f565b92915050565b6000602082840312156118d1576118d061170e565b5b60006118df848285016118a6565b91505092915050565b600073ffffffffffffffffffffffffffffffffffffffff82169050919050565b6000611913826118e8565b9050919050565b61192381611908565b82525050565b600060208201905061193e600083018461191a565b92915050565b61194d81611908565b811461195857600080fd5b50565b60008135905061196a81611944565b92915050565b600080604083850312156119875761198661170e565b5b60006119958582860161195b565b92505060206119a6858286016118a6565b9150509250929050565b6000806000606084860312156119c9576119c861170e565b5b60006119d78682870161195b565b93505060206119e88682870161195b565b92505060406119f9868287016118a6565b9150509250925092565b600060208284031215611a1957611a1861170e565b5b6000611a278482850161195b565b91505092915050565b611a3981611885565b82525050565b6000602082019050611a546000830184611a30565b92915050565b611a638161179d565b8114611a6e57600080fd5b50565b600081359050611a8081611a5a565b92915050565b60008060408385031215611a9d57611a9c61170e565b5b6000611aab8582860161195b565b9250506020611abc85828601611a71565b9150509250929050565b600080fd5b600080fd5b7f4e487b7100000000000000000000000000000000000000000000000000000000600052604160045260246000fd5b611b0882611819565b810181811067ffffffffffffffff82111715611b2757611b26611ad0565b5b80604052505050565b6000611b3a611704565b9050611b468282611aff565b919050565b600067ffffffffffffffff821115611b6657611b65611ad0565b5b611b6f82611819565b9050602081019050919050565b82818337600083830152505050565b6000611b9e611b9984611b4b565b611b30565b905082815260208101848484011115611bba57611bb9611acb565b5b611bc5848285611b7c565b509392505050565b600082601f830112611be257611be1611ac6565b5b8135611bf2848260208601611b8b565b91505092915050565b60008060008060808587031215611c1557611c1461170e565b5b6000611c238782880161195b565b9450506020611c348782880161195b565b9350506040611c45878288016118a6565b925050606085013567ffffffffffffffff811115611c6657611c65611713565b5b611c7287828801611bcd565b91505092959194509250565b60008060408385031215611c9557611c9461170e565b5b6000611ca38582860161195b565b9250506020611cb48582860161195b565b9150509250929050565b7f4e487b7100000000000000000000000000000000000000000000000000000000600052602260045260246000fd5b60006002820490506001821680611d0557607f821691505b602082108103611d1857611d17611cbe565b5b50919050565b6000606082019050611d33600083018661191a565b611d406020830185611a30565b611d4d604083018461191a565b949350505050565b7f4f6e6c79206f776e65722063616e206275726e20746f6b656e00000000000000600082015250565b6000611d8b6019836117de565b9150611d9682611d55565b602082019050919050565b60006020820190508181036000830152611dba81611d7e565b9050919050565b7f4e487b7100000000000000000000000000000000000000000000000000000000600052601160045260246000fd5b6000611dfb82611885565b9150611e0683611885565b9250828201905080821115611e1e57611e1d611dc1565b5b92915050565b600081905092915050565b6000611e3a826117d3565b611e448185611e24565b9350611e548185602086016117ef565b80840191505092915050565b6000611e6c8285611e2f565b9150611e788284611e2f565b91508190509392505050565b600081519050919050565b600082825260208201905092915050565b6000611eab82611e84565b611eb58185611e8f565b9350611ec58185602086016117ef565b611ece81611819565b840191505092915050565b6000608082019050611eee600083018761191a565b611efb602083018661191a565b611f086040830185611a30565b8181036060830152611f1a8184611ea0565b905095945050505050565b600081519050611f3481611744565b92915050565b600060208284031215611f5057611f4f61170e565b5b6000611f5e84828501611f25565b91505092915050565b7f4e487b7100000000000000000000000000000000000000000000000000000000600052601260045260246000fd5b6000604082019050611fab600083018561191a565b611fb86020830184611a30565b939250505056fea2646970667358221220b156ca88cc3506ac29ec4737b2dccdd02357b5b13b4e024a9910a6d91c3dfe9864736f6c63430008140033",
  "linkReferences": {},
  "deployedLinkReferences": {}
}