{
  "_format": "hh-sol-artifact-1",
  "contractName": "ERC721",
  "sourceName": "contracts/ERC721.sol",
  "abi": [
    {
      "inputs": [
        {
          "internalType": "string",
          "name": "name",
          "type": "string"
        },
        {
          "internalType": "string",
          "name": "symbol",
          "type": "string"
        }
      ],
      "stateMutability": "nonpayable",
      "type": "constructor"
    },
    {
      "inputs": [
        {
          "internalType": "address",
          "name": "sender",
          "type": "address"
        },
        {
          "internalType": "uint256",
          "name": "tokenId",
          "type": "uint256"
        },
        {
          "internalType": "address",
          "name": "owner",
          "type": "address"
        }
      ],
      "name": "ERC721IncorrectOwner",
      "type": "error"
    },
    {
      "inputs": [
        {
          "internalType": "address",
          "name": "operator",
          "type": "address"
        },
        {
          "internalType": "uint256",
          "name": "tokenId",
          "type": "uint256"
        }
      ],
      "name": "ERC721InsufficientApproval",
      "type": "error"
    },
    {
      "inputs": [
        {
          "internalType": "address",
          "name": "approver",
          "type": "address"
        }
      ],
      "name": "ERC721InvalidApprover",
      "type": "error"
    },
    {
      "inputs": [
        {
          "internalType": "address",
          "name": "operator",
          "type": "address"
        }
      ],
      "name": "ERC721InvalidOperator",
      "type": "error"
    },
    {
      "inputs": [
        {
          "internalType": "address",
          "name": "owner",
          "type": "address"
        }
      ],
      "name": "ERC721InvalidOwner",
      "type": "error"
    },
    {
      "inputs": [
        {
          "internalType": "address",
          "name": "receiver",
          "type": "address"
        }
      ],
      "name": "ERC721InvalidReceiver",
      "type": "error"
    },
    {
      "inputs": [
        {
          "internalType": "address",
          "name": "sender",
          "type": "address"
        }
      ],
      "name": "ERC721InvalidSender",
      "type": "error"
    },
    {
      "inputs": [
        {
          "internalType": "uint256",
          "name": "tokenId",
          "type": "uint256"
        }
      ],
      "name": "ERC721NonexistentToken",
      "type": "error"
    },
    {
      "anonymous": false,
      "inputs": [
        {
          "indexed": true,
          "internalType": "address",
          "name": "owner",
          "type": "address"
        },
        {
          "indexed": true,
          "internalType": "address",
          "name": "approved",
          "type": "address"
        },
        {
          "indexed": true,
          "internalType": "uint256",
          "name": "tokenId",
          "type": "uint256"
        }
      ],
      "name": "Approval",
      "type": "event"
    },
    {
      "anonymous": false,
      "inputs": [
        {
          "indexed": true,
          "internalType": "address",
          "name": "owner",
          "type": "address"
        },
        {
          "indexed": true,
          "internalType": "address",
          "name": "operator",
          "type": "address"
        },
        {
          "indexed": false,
          "internalType": "bool",
          "name": "approved",
          "type": "bool"
        }
      ],
      "name": "ApprovalForAll",
      "type": "event"
    },
    {
      "anonymous": false,
      "inputs": [
        {
          "indexed": true,
          "internalType": "address",
          "name": "from",
          "type": "address"
        },
        {
          "indexed": true,
          "internalType": "address",
          "name": "to",
          "type": "address"
        },
        {
          "indexed": true,
          "internalType": "uint256",
          "name": "tokenId",
          "type": "uint256"
        }
      ],
      "name": "Transfer",
      "type": "event"
    },
    {
      "inputs": [
        {
          "internalType": "address",
          "name": "to",
          "type": "address"
        },
        {
          "internalType": "uint256",
          "name": "tokenId",
          "type": "uint256"
        }
      ],
      "name": "approve",
      "outputs": [],
      "stateMutability": "nonpayable",
      "type": "function"
    },
    {
      "inputs": [
        {
          "internalType": "address",
          "name": "owner",
          "type": "address"
        }
      ],
      "name": "balanceOf",
      "outputs": [
        {
          "internalType": "uint256",
          "name": "",
          "type": "uint256"
        }
      ],
      "stateMutability": "view",
      "type": "function"
    },
    {
      "inputs": [
        {
          "internalType": "uint256",
          "name": "tokenId",
          "type": "uint256"
        }
      ],
      "name": "burn",
      "outputs": [],
      "stateMutability": "nonpayable",
      "type": "function"
    },
    {
      "inputs": [
        {
          "internalType": "uint256",
          "name": "tokenId",
          "type": "uint256"
        }
      ],
      "name": "getApproved",
      "outputs": [
        {
          "internalType": "address",
          "name": "",
          "type": "address"
        }
      ],
      "stateMutability": "view",
      "type": "function"
    },
    {
      "inputs": [
        {
          "internalType": "address",
          "name": "owner",
          "type": "address"
        },
        {
          "internalType": "address",
          "name": "operator",
          "type": "address"
        }
      ],
      "name": "isApprovedForAll",
      "outputs": [
        {
          "internalType": "bool",
          "name": "",
          "type": "bool"
        }
      ],
      "stateMutability": "view",
      "type": "function"
    },
    {
      "inputs": [
        {
          "internalType": "address",
          "name": "to",
          "type": "address"
        }
      ],
      "name": "mint",
      "outputs": [
        {
          "internalType": "uint256",
          "name": "",
          "type": "uint256"
        }
      ],
      "stateMutability": "nonpayable",
      "type": "function"
    },
    {
      "inputs": [],
      "name": "name",
      "outputs": [
        {
          "internalType": "string",
          "name": "",
          "type": "string"
        }
      ],
      "stateMutability": "view",
      "type": "function"
    },
    {
      "inputs": [
        {
          "internalType": "uint256",
          "name": "tokenId",
          "type": "uint256"
        }
      ],
      "name": "ownerOf",
      "outputs": [
        {
          "internalType": "address",
          "name": "",
          "type": "address"
        }
      ],
      "stateMutability": "view",
      "type": "function"
    },
    {
      "inputs": [
        {
          "internalType": "address",
          "name": "from",
          "type": "address"
        },
        {
          "internalType": "address",
          "name": "to",
          "type": "address"
        },
        {
          "internalType": "uint256",
          "name": "tokenId",
          "type": "uint256"
        }
      ],
      "name": "safeTransferFrom",
      "outputs": [],
      "stateMutability": "nonpayable",
      "type": "function"
    },
    {
      "inputs": [
        {
          "internalType": "address",
          "name": "from",
          "type": "address"
        },
        {
          "internalType": "address",
          "name": "to",
          "type": "address"
        },
        {
          "internalType": "uint256",
          "name": "tokenId",
          "type": "uint256"
        },
        {
          "internalType": "bytes",
          "name": "data",
          "type": "bytes"
        }
      ],
      "name": "safeTransferFrom",
      "outputs": [],
      "stateMutability": "nonpayable",
      "type": "function"
    },
    {
      "inputs": [
        {
          "internalType": "address",
          "name": "operator",
          "type": "address"
        },
        {
          "internalType": "bool",
          "name": "approved",
          "type": "bool"
        }
      ],
      "name": "setApprovalForAll",
      "outputs": [],
      "stateMutability": "nonpayable",
      "type": "function"
    },
    {
      "inputs": [
        {
          "internalType": "bytes4",
          "name": "interfaceId",
          "type": "bytes4"
        }
      ],
      "name": "supportsInterface",
      "outputs": [
        {
          "internalType": "bool",
          "name": "",
          "type": "bool"
        }
      ],
      "stateMutability": "view",
      "type": "function"
    },
    {
      "inputs": [],
      "name": "symbol",
      "outputs": [
        {
          "internalType": "string",
          "name": "",
          "type": "string"
        }
      ],
      "stateMutability": "view",
      "type": "function"
    },
    {
      "inputs": [
        {
          "internalType": "uint256",
          "name": "tokenId",
          "type": "uint256"
        }
      ],
      "name": "tokenURI",
      "outputs": [
        {
          "internalType": "string",
          "name": "",
          "type": "string"
        }
      ],
      "stateMutability": "view",
      "type": "function"
    },
    {
      "inputs": [
        {
          "internalType": "address",
          "name": "from",
          "type": "address"
        },
        {
          "internalType": "address",
          "name": "to",
          "type": "address"
        },
        {
          "internalType": "uint256",
          "name": "tokenId",
          "type": "uint256"
        }
      ],
      "name": "transferFrom",
      "outputs": [],
      "stateMutability": "nonpayable",
      "type": "function"
    }
  ],
  "bytecode": "0x608060405260006006553480156200001657600080fd5b50604051620024583803806200245883398181016040528101906200003c9190620001ff565b818181600090816200004f9190620004cf565b508060019081620000619190620004cf565b5050505050620005b6565b6000604051905090565b600080fd5b600080fd5b600080fd5b600080fd5b6000601f19601f8301169050919050565b7f4e487b7100000000000000000000000000000000000000000000000000000000600052604160045260246000fd5b620000d5826200008a565b810181811067ffffffffffffffff82111715620000f757620000f66200009b565b5b80604052505050565b60006200010c6200006c565b90506200011a8282620000ca565b919050565b600067ffffffffffffffff8211156200013d576200013c6200009b565b5b62000148826200008a565b9050602081019050919050565b60005b838110156200017557808201518184015260208101905062000158565b60008484015250505050565b60006200019862000192846200011f565b62000100565b905082815260208101848484011115620001b757620001b662000085565b5b620001c484828562000155565b509392505050565b600082601f830112620001e457620001e362000080565b5b8151620001f684826020860162000181565b91505092915050565b6000806040838503121562000219576200021862000076565b5b600083015167ffffffffffffffff8111156200023a57620002396200007b565b5b6200024885828601620001cc565b925050602083015167ffffffffffffffff8111156200026c576200026b6200007b565b5b6200027a85828601620001cc565b9150509250929050565b600081519050919050565b7f4e487b7100000000000000000000000000000000000000000000000000000000600052602260045260246000fd5b60006002820490506001821680620002d757607f821691505b602082108103620002ed57620002ec6200028f565b5b50919050565b60008190508160005260206000209050919050565b60006020601f8301049050919050565b600082821b905092915050565b600060088302620003577fffffffffffffffffffffffffffffffffffffffffffffffffffffffffffffffff8262000318565b62000363868362000318565b95508019841693508086168417925050509392505050565b6000819050919050565b6000819050919050565b6000620003b0620003aa620003a4846200037b565b62000385565b6200037b565b9050919050565b6000819050919050565b620003cc836200038f565b620003e4620003db82620003b7565b84845462000325565b825550505050565b600090565b620003fb620003ec565b62000408818484620003c1565b505050565b5b81811015620004305762000424600082620003f1565b6001810190506200040e565b5050565b601f8211156200047f576200044981620002f3565b620004548462000308565b8101602085101562000464578190505b6200047c620004738562000308565b8301826200040d565b50505b505050565b600082821c905092915050565b6000620004a46000198460080262000484565b1980831691505092915050565b6000620004bf838362000491565b9150826002028217905092915050565b620004da8262000284565b67ffffffffffffffff811115620004f657620004f56200009b565b5b620005028254620002be565b6200050f82828562000434565b600060209050601f83116001811462000547576000841562000532578287015190505b6200053e8582620004b1565b865550620005ae565b601f1984166200055786620002f3565b60005b8281101562000581578489015182556001820191506020850194506020810190506200055a565b86831015620005a157848901516200059d601f89168262000491565b8355505b6001600288020188555050505b505050505050565b611e9280620005c66000396000f3fe608060405234801561001057600080fd5b50600436106100f55760003560e01c80636352211e11610097578063a22cb46511610066578063a22cb46514610296578063b88d4fde146102b2578063c87b56dd146102ce578063e985e9c5146102fe576100f5565b80636352211e146101e85780636a6278421461021857806370a082311461024857806395d89b4114610278576100f5565b8063095ea7b3116100d3578063095ea7b31461017857806323b872dd1461019457806342842e0e146101b057806342966c68146101cc576100f5565b806301ffc9a7146100fa57806306fdde031461012a578063081812fc14610148575b600080fd5b610114600480360381019061010f9190611679565b61032e565b60405161012191906116c1565b60405180910390f35b610132610410565b60405161013f919061176c565b60405180910390f35b610162600480360381019061015d91906117c4565b6104a2565b60405161016f9190611832565b60405180910390f35b610192600480360381019061018d9190611879565b6104be565b005b6101ae60048036038101906101a991906118b9565b6104d4565b005b6101ca60048036038101906101c591906118b9565b6105d6565b005b6101e660048036038101906101e191906117c4565b6105f6565b005b61020260048036038101906101fd91906117c4565b610607565b60405161020f9190611832565b60405180910390f35b610232600480360381019061022d919061190c565b610619565b60405161023f9190611948565b60405180910390f35b610262600480360381019061025d919061190c565b61064e565b60405161026f9190611948565b60405180910390f35b610280610708565b60405161028d919061176c565b60405180910390f35b6102b060048036038101906102ab919061198f565b61079a565b005b6102cc60048036038101906102c79190611b04565b6107b0565b005b6102e860048036038101906102e391906117c4565b6107d5565b6040516102f5919061176c565b60405180910390f35b61031860048036038101906103139190611b87565b61083e565b60405161032591906116c1565b60405180910390f35b60007f80ac58cd000000000000000000000000000000000000000000000000000000007bffffffffffffffffffffffffffffffffffffffffffffffffffffffff1916827bffffffffffffffffffffffffffffffffffffffffffffffffffffffff191614806103f957507f5b5e139f000000000000000000000000000000000000000000000000000000007bffffffffffffffffffffffffffffffffffffffffffffffffffffffff1916827bffffffffffffffffffffffffffffffffffffffffffffffffffffffff1916145b806104095750610408826108d2565b5b9050919050565b60606000805461041f90611bf6565b80601f016020809104026020016040519081016040528092919081815260200182805461044b90611bf6565b80156104985780601f1061046d57610100808354040283529160200191610498565b820191906000526020600020905b81548152906001019060200180831161047b57829003601f168201915b5050505050905090565b60006104ad8261093c565b506104b7826109c4565b9050919050565b6104d082826104cb610a01565b610a09565b5050565b600073ffffffffffffffffffffffffffffffffffffffff168273ffffffffffffffffffffffffffffffffffffffff16036105465760006040517f64a0ae9200000000000000000000000000000000000000000000000000000000815260040161053d9190611832565b60405180910390fd5b600061055a8383610555610a01565b610a1b565b90508373ffffffffffffffffffffffffffffffffffffffff168173ffffffffffffffffffffffffffffffffffffffff16146105d0578382826040517f64283d7b0000000000000000000000000000000000000000000000000000000081526004016105c793929190611c27565b60405180910390fd5b50505050565b6105f1838383604051806020016040528060008152506107b0565b505050565b6106036000826000610a1b565b5050565b60006106128261093c565b9050919050565b60008060065490506001600660008282546106349190611c8d565b925050819055506106458382610c35565b80915050919050565b60008073ffffffffffffffffffffffffffffffffffffffff168273ffffffffffffffffffffffffffffffffffffffff16036106c15760006040517f89c62b640000000000000000000000000000000000000000000000000000000081526004016106b89190611832565b60405180910390fd5b600360008373ffffffffffffffffffffffffffffffffffffffff1673ffffffffffffffffffffffffffffffffffffffff168152602001908152602001600020549050919050565b60606001805461071790611bf6565b80601f016020809104026020016040519081016040528092919081815260200182805461074390611bf6565b80156107905780601f1061076557610100808354040283529160200191610790565b820191906000526020600020905b81548152906001019060200180831161077357829003601f168201915b5050505050905090565b6107ac6107a5610a01565b8383610d2e565b5050565b6107bb8484846104d4565b6107cf6107c6610a01565b85858585610e9d565b50505050565b60606107e08261093c565b5060006107eb61104e565b9050600081511161080b5760405180602001604052806000815250610836565b8061081584611065565b604051602001610826929190611cfd565b6040516020818303038152906040525b915050919050565b6000600560008473ffffffffffffffffffffffffffffffffffffffff1673ffffffffffffffffffffffffffffffffffffffff16815260200190815260200160002060008373ffffffffffffffffffffffffffffffffffffffff1673ffffffffffffffffffffffffffffffffffffffff16815260200190815260200160002060009054906101000a900460ff16905092915050565b60007f01ffc9a7000000000000000000000000000000000000000000000000000000007bffffffffffffffffffffffffffffffffffffffffffffffffffffffff1916827bffffffffffffffffffffffffffffffffffffffffffffffffffffffff1916149050919050565b60008061094883611133565b9050600073ffffffffffffffffffffffffffffffffffffffff168173ffffffffffffffffffffffffffffffffffffffff16036109bb57826040517f7e2732890000000000000000000000000000000000000000000000000000000081526004016109b29190611948565b60405180910390fd5b80915050919050565b60006004600083815260200190815260200160002060009054906101000a900473ffffffffffffffffffffffffffffffffffffffff169050919050565b600033905090565b610a168383836001611170565b505050565b600080610a2784611133565b9050600073ffffffffffffffffffffffffffffffffffffffff168373ffffffffffffffffffffffffffffffffffffffff1614610a6957610a68818486611335565b5b600073ffffffffffffffffffffffffffffffffffffffff168173ffffffffffffffffffffffffffffffffffffffff1614610afa57610aab600085600080611170565b6001600360008373ffffffffffffffffffffffffffffffffffffffff1673ffffffffffffffffffffffffffffffffffffffff168152602001908152602001600020600082825403925050819055505b600073ffffffffffffffffffffffffffffffffffffffff168573ffffffffffffffffffffffffffffffffffffffff1614610b7d576001600360008773ffffffffffffffffffffffffffffffffffffffff1673ffffffffffffffffffffffffffffffffffffffff168152602001908152602001600020600082825401925050819055505b846002600086815260200190815260200160002060006101000a81548173ffffffffffffffffffffffffffffffffffffffff021916908373ffffffffffffffffffffffffffffffffffffffff160217905550838573ffffffffffffffffffffffffffffffffffffffff168273ffffffffffffffffffffffffffffffffffffffff167fddf252ad1be2c89b69c2b068fc378daa952ba7f163c4a11628f55a4df523b3ef60405160405180910390a4809150509392505050565b600073ffffffffffffffffffffffffffffffffffffffff168273ffffffffffffffffffffffffffffffffffffffff1603610ca75760006040517f64a0ae92000000000000000000000000000000000000000000000000000000008152600401610c9e9190611832565b60405180910390fd5b6000610cb583836000610a1b565b9050600073ffffffffffffffffffffffffffffffffffffffff168173ffffffffffffffffffffffffffffffffffffffff1614610d295760006040517f73c6ac6e000000000000000000000000000000000000000000000000000000008152600401610d209190611832565b60405180910390fd5b505050565b600073ffffffffffffffffffffffffffffffffffffffff168273ffffffffffffffffffffffffffffffffffffffff1603610d9f57816040517f5b08ba18000000000000000000000000000000000000000000000000000000008152600401610d969190611832565b60405180910390fd5b80600560008573ffffffffffffffffffffffffffffffffffffffff1673ffffffffffffffffffffffffffffffffffffffff16815260200190815260200160002060008473ffffffffffffffffffffffffffffffffffffffff1673ffffffffffffffffffffffffffffffffffffffff16815260200190815260200160002060006101000a81548160ff0219169083151502179055508173ffffffffffffffffffffffffffffffffffffffff168373ffffffffffffffffffffffffffffffffffffffff167f17307eab39ab6107e8899845ad3d59bd9653f200f220920489ca2b5937696c3183604051610e9091906116c1565b60405180910390a3505050565b60008373ffffffffffffffffffffffffffffffffffffffff163b1115611047578273ffffffffffffffffffffffffffffffffffffffff1663150b7a02868685856040518563ffffffff1660e01b8152600401610efc9493929190611d76565b6020604051808303816000875af1925050508015610f3857506040513d601f19601f82011682018060405250810190610f359190611dd7565b60015b610fbc573d8060008114610f68576040519150601f19603f3d011682016040523d82523d6000602084013e610f6d565b606091505b506000815103610fb457836040517f64a0ae92000000000000000000000000000000000000000000000000000000008152600401610fab9190611832565b60405180910390fd5b805181602001fd5b63150b7a0260e01b7bffffffffffffffffffffffffffffffffffffffffffffffffffffffff1916817bffffffffffffffffffffffffffffffffffffffffffffffffffffffff19161461104557836040517f64a0ae9200000000000000000000000000000000000000000000000000000000815260040161103c9190611832565b60405180910390fd5b505b5050505050565b606060405180602001604052806000815250905090565b606060006001611074846113f9565b01905060008167ffffffffffffffff811115611093576110926119d9565b5b6040519080825280601f01601f1916602001820160405280156110c55781602001600182028036833780820191505090505b509050600082602001820190505b600115611128578080600190039150507f3031323334353637383961626364656600000000000000000000000000000000600a86061a8153600a858161111c5761111b611e04565b5b049450600085036110d3575b819350505050919050565b60006002600083815260200190815260200160002060009054906101000a900473ffffffffffffffffffffffffffffffffffffffff169050919050565b80806111a95750600073ffffffffffffffffffffffffffffffffffffffff168273ffffffffffffffffffffffffffffffffffffffff1614155b156112dd5760006111b98461093c565b9050600073ffffffffffffffffffffffffffffffffffffffff168373ffffffffffffffffffffffffffffffffffffffff161415801561122457508273ffffffffffffffffffffffffffffffffffffffff168173ffffffffffffffffffffffffffffffffffffffff1614155b80156112375750611235818461083e565b155b1561127957826040517fa9fbf51f0000000000000000000000000000000000000000000000000000000081526004016112709190611832565b60405180910390fd5b81156112db57838573ffffffffffffffffffffffffffffffffffffffff168273ffffffffffffffffffffffffffffffffffffffff167f8c5be1e5ebec7d5bd14f71427d1e84f3dd0314c0f7b2291e5b200ac8c7c3b92560405160405180910390a45b505b836004600085815260200190815260200160002060006101000a81548173ffffffffffffffffffffffffffffffffffffffff021916908373ffffffffffffffffffffffffffffffffffffffff16021790555050505050565b61134083838361154c565b6113f457600073ffffffffffffffffffffffffffffffffffffffff168373ffffffffffffffffffffffffffffffffffffffff16036113b557806040517f7e2732890000000000000000000000000000000000000000000000000000000081526004016113ac9190611948565b60405180910390fd5b81816040517f177e802f0000000000000000000000000000000000000000000000000000000081526004016113eb929190611e33565b60405180910390fd5b505050565b600080600090507a184f03e93ff9f4daa797ed6e38ed64bf6a1f0100000000000000008310611457577a184f03e93ff9f4daa797ed6e38ed64bf6a1f010000000000000000838161144d5761144c611e04565b5b0492506040810190505b6d04ee2d6d415b85acef81000000008310611494576d04ee2d6d415b85acef8100000000838161148a57611489611e04565b5b0492506020810190505b662386f26fc1000083106114c357662386f26fc1000083816114b9576114b8611e04565b5b0492506010810190505b6305f5e10083106114ec576305f5e10083816114e2576114e1611e04565b5b0492506008810190505b612710831061151157612710838161150757611506611e04565b5b0492506004810190505b60648310611534576064838161152a57611529611e04565b5b0492506002810190505b600a8310611543576001810190505b80915050919050565b60008073ffffffffffffffffffffffffffffffffffffffff168373ffffffffffffffffffffffffffffffffffffffff161415801561160457508273ffffffffffffffffffffffffffffffffffffffff168473ffffffffffffffffffffffffffffffffffffffff1614806115c557506115c4848461083e565b5b8061160357508273ffffffffffffffffffffffffffffffffffffffff166115eb836109c4565b73ffffffffffffffffffffffffffffffffffffffff16145b5b90509392505050565b6000604051905090565b600080fd5b600080fd5b60007fffffffff0000000000000000000000000000000000000000000000000000000082169050919050565b61165681611621565b811461166157600080fd5b50565b6000813590506116738161164d565b92915050565b60006020828403121561168f5761168e611617565b5b600061169d84828501611664565b91505092915050565b60008115159050919050565b6116bb816116a6565b82525050565b60006020820190506116d660008301846116b2565b92915050565b600081519050919050565b600082825260208201905092915050565b60005b838110156117165780820151818401526020810190506116fb565b60008484015250505050565b6000601f19601f8301169050919050565b600061173e826116dc565b61174881856116e7565b93506117588185602086016116f8565b61176181611722565b840191505092915050565b600060208201905081810360008301526117868184611733565b905092915050565b6000819050919050565b6117a18161178e565b81146117ac57600080fd5b50565b6000813590506117be81611798565b92915050565b6000602082840312156117da576117d9611617565b5b60006117e8848285016117af565b91505092915050565b600073ffffffffffffffffffffffffffffffffffffffff82169050919050565b600061181c826117f1565b9050919050565b61182c81611811565b82525050565b60006020820190506118476000830184611823565b92915050565b61185681611811565b811461186157600080fd5b50565b6000813590506118738161184d565b92915050565b600080604083850312156118905761188f611617565b5b600061189e85828601611864565b92505060206118af858286016117af565b9150509250929050565b6000806000606084860312156118d2576118d1611617565b5b60006118e086828701611864565b93505060206118f186828701611864565b9250506040611902868287016117af565b9150509250925092565b60006020828403121561192257611921611617565b5b600061193084828501611864565b91505092915050565b6119428161178e565b82525050565b600060208201905061195d6000830184611939565b92915050565b61196c816116a6565b811461197757600080fd5b50565b60008135905061198981611963565b92915050565b600080604083850312156119a6576119a5611617565b5b60006119b485828601611864565b92505060206119c58582860161197a565b9150509250929050565b600080fd5b600080fd5b7f4e487b7100000000000000000000000000000000000000000000000000000000600052604160045260246000fd5b611a1182611722565b810181811067ffffffffffffffff82111715611a3057611a2f6119d9565b5b80604052505050565b6000611a4361160d565b9050611a4f8282611a08565b919050565b600067ffffffffffffffff821115611a6f57611a6e6119d9565b5b611a7882611722565b9050602081019050919050565b82818337600083830152505050565b6000611aa7611aa284611a54565b611a39565b905082815260208101848484011115611ac357611ac26119d4565b5b611ace848285611a85565b509392505050565b600082601f830112611aeb57611aea6119cf565b5b8135611afb848260208601611a94565b91505092915050565b60008060008060808587031215611b1e57611b1d611617565b5b6000611b2c87828801611864565b9450506020611b3d87828801611864565b9350506040611b4e878288016117af565b925050606085013567ffffffffffffffff811115611b6f57611b6e61161c565b5b611b7b87828801611ad6565b91505092959194509250565b60008060408385031215611b9e57611b9d611617565b5b6000611bac85828601611864565b9250506020611bbd85828601611864565b9150509250929050565b7f4e487b7100000000000000000000000000000000000000000000000000000000600052602260045260246000fd5b60006002820490506001821680611c0e57607f821691505b602082108103611c2157611c20611bc7565b5b50919050565b6000606082019050611c3c6000830186611823565b611c496020830185611939565b611c566040830184611823565b949350505050565b7f4e487b7100000000000000000000000000000000000000000000000000000000600052601160045260246000fd5b6000611c988261178e565b9150611ca38361178e565b9250828201905080821115611cbb57611cba611c5e565b5b92915050565b600081905092915050565b6000611cd7826116dc565b611ce18185611cc1565b9350611cf18185602086016116f8565b80840191505092915050565b6000611d098285611ccc565b9150611d158284611ccc565b91508190509392505050565b600081519050919050565b600082825260208201905092915050565b6000611d4882611d21565b611d528185611d2c565b9350611d628185602086016116f8565b611d6b81611722565b840191505092915050565b6000608082019050611d8b6000830187611823565b611d986020830186611823565b611da56040830185611939565b8181036060830152611db78184611d3d565b905095945050505050565b600081519050611dd18161164d565b92915050565b600060208284031215611ded57611dec611617565b5b6000611dfb84828501611dc2565b91505092915050565b7f4e487b7100000000000000000000000000000000000000000000000000000000600052601260045260246000fd5b6000604082019050611e486000830185611823565b611e556020830184611939565b939250505056fea2646970667358221220e14073f83304c62099decbad6e7ed8ad9204c3d059b1d4eca682d5881dd9cb5c64736f6c63430008140033",
  "linkReferences": {},
  "deployedLinkReferences": {}
}