{
  "_format": "hh-sol-artifact-1",
  "contractName": "ERC2771ContextTest",
  "sourceName": "contracts/openzeppelin/ERC-2771/ERC2771Context.sol",
  "abi": [
    {
      "inputs": [
        {
          "internalType": "address",
          "name": "trustedForward",
          "type": "address"
        }
      ],
      "stateMutability": "nonpayable",
      "type": "constructor"
    },
    {
      "anonymous": false,
      "inputs": [
        {
          "indexed": false,
          "internalType": "string",
          "name": "message",
          "type": "string"
        },
        {
          "indexed": false,
          "internalType": "address",
          "name": "forwarder",
          "type": "address"
        },
        {
          "indexed": false,
          "internalType": "address",
          "name": "sender",
          "type": "address"
        }
      ],
      "name": "MessageChanged",
      "type": "event"
    },
    {
      "inputs": [
        {
          "internalType": "string",
          "name": "_message",
          "type": "string"
        }
      ],
      "name": "changeMessageTestRequest",
      "outputs": [
        {
          "internalType": "bool",
          "name": "",
          "type": "bool"
        }
      ],
      "stateMutability": "payable",
      "type": "function"
    },
    {
      "inputs": [
        {
          "internalType": "address",
          "name": "forwarder",
          "type": "address"
        }
      ],
      "name": "isTrustedForwarder",
      "outputs": [
        {
          "internalType": "bool",
          "name": "",
          "type": "bool"
        }
      ],
      "stateMutability": "view",
      "type": "function"
    },
    {
      "inputs": [],
      "name": "message",
      "outputs": [
        {
          "internalType": "string",
          "name": "",
          "type": "string"
        }
      ],
      "stateMutability": "view",
      "type": "function"
    },
    {
      "inputs": [],
      "name": "msgData",
      "outputs": [
        {
          "internalType": "bytes",
          "name": "",
          "type": "bytes"
        }
      ],
      "stateMutability": "view",
      "type": "function"
    },
    {
      "inputs": [],
      "name": "msgDataTest",
      "outputs": [
        {
          "internalType": "bytes",
          "name": "",
          "type": "bytes"
        }
      ],
      "stateMutability": "nonpayable",
      "type": "function"
    },
    {
      "inputs": [],
      "name": "msgSenderTest",
      "outputs": [
        {
          "internalType": "address",
          "name": "",
          "type": "address"
        }
      ],
      "stateMutability": "nonpayable",
      "type": "function"
    },
    {
      "inputs": [],
      "name": "sender",
      "outputs": [
        {
          "internalType": "address",
          "name": "",
          "type": "address"
        }
      ],
      "stateMutability": "view",
      "type": "function"
    },
    {
      "inputs": [],
      "name": "trustedForwarder",
      "outputs": [
        {
          "internalType": "address",
          "name": "",
          "type": "address"
        }
      ],
      "stateMutability": "view",
      "type": "function"
    }
  ],
  "bytecode": "0x60a060405234801561001057600080fd5b506040516108cb3803806108cb83398101604081905261002f91610040565b6001600160a01b0316608052610070565b60006020828403121561005257600080fd5b81516001600160a01b038116811461006957600080fd5b9392505050565b60805161082c61009f6000396000818160c80152818161014f0152818161035c01526103c8015261082c6000f3fe60806040526004361061007b5760003560e01c80638afa462e1161004e5780638afa462e14610173578063bbbf20d614610188578063c4c2bfdc1461019b578063e21f37ce146101b057600080fd5b80632c8cf4fc14610080578063572b6c05146100ab57806367e404ce146101085780637da0a87714610140575b600080fd5b34801561008c57600080fd5b506100956101c5565b6040516100a2919061045c565b60405180910390f35b3480156100b757600080fd5b506100f86100c6366004610476565b7f00000000000000000000000000000000000000000000000000000000000000006001600160a01b0390811691161490565b60405190151581526020016100a2565b34801561011457600080fd5b50600154610128906001600160a01b031681565b6040516001600160a01b0390911681526020016100a2565b34801561014c57600080fd5b507f0000000000000000000000000000000000000000000000000000000000000000610128565b34801561017f57600080fd5b50610128610220565b6100f86101963660046104b5565b610264565b3480156101a757600080fd5b506100956102bc565b3480156101bc57600080fd5b5061009561034a565b60606101cf610357565b6002916101dd9190836105f1565b506101e6610357565b8080601f01602080910402602001604051908101604052809392919081815260200183838082843760009201919091525092949350505050565b600061022a6103c4565b6001805473ffffffffffffffffffffffffffffffffffffffff19166001600160a01b039290921691909117905561025f6103c4565b905090565b60008061027183826106b2565b507f5b4dd3292eb885405859ffb5d2e0a3fd78187c674fc12ca0c224956a51d52a99823361029d6103c4565b6040516102ac93929190610772565b60405180910390a1506001919050565b600280546102c990610566565b80601f01602080910402602001604051908101604052809291908181526020018280546102f590610566565b80156103425780601f1061031757610100808354040283529160200191610342565b820191906000526020600020905b81548152906001019060200180831161032557829003601f168201915b505050505081565b600080546102c990610566565b3660007f00000000000000000000000000000000000000000000000000000000000000006001600160a01b031633148015610393575060143610155b156103bc57600080366103a76014826107a5565b926103b4939291906107cc565b915091509091565b6000366103b4565b60007f00000000000000000000000000000000000000000000000000000000000000006001600160a01b0316331480156103ff575060143610155b15610411575060131936013560601c90565b503390565b6000815180845260005b8181101561043c57602081850181015186830182015201610420565b506000602082860101526020601f19601f83011685010191505092915050565b60208152600061046f6020830184610416565b9392505050565b60006020828403121561048857600080fd5b81356001600160a01b038116811461046f57600080fd5b634e487b7160e01b600052604160045260246000fd5b6000602082840312156104c757600080fd5b813567ffffffffffffffff808211156104df57600080fd5b818401915084601f8301126104f357600080fd5b8135818111156105055761050561049f565b604051601f8201601f19908116603f0116810190838211818310171561052d5761052d61049f565b8160405282815287602084870101111561054657600080fd5b826020860160208301376000928101602001929092525095945050505050565b600181811c9082168061057a57607f821691505b60208210810361059a57634e487b7160e01b600052602260045260246000fd5b50919050565b601f8211156105ec576000816000526020600020601f850160051c810160208610156105c95750805b601f850160051c820191505b818110156105e8578281556001016105d5565b5050505b505050565b67ffffffffffffffff8311156106095761060961049f565b61061d836106178354610566565b836105a0565b6000601f84116001811461065157600085156106395750838201355b600019600387901b1c1916600186901b1783556106ab565b600083815260209020601f19861690835b828110156106825786850135825560209485019460019092019101610662565b508682101561069f5760001960f88860031b161c19848701351681555b505060018560011b0183555b5050505050565b815167ffffffffffffffff8111156106cc576106cc61049f565b6106e0816106da8454610566565b846105a0565b602080601f83116001811461071557600084156106fd5750858301515b600019600386901b1c1916600185901b1785556105e8565b600085815260208120601f198616915b8281101561074457888601518255948401946001909101908401610725565b50858210156107625787850151600019600388901b60f8161c191681555b5050505050600190811b01905550565b6060815260006107856060830186610416565b6001600160a01b0394851660208401529290931660409091015292915050565b818103818111156107c657634e487b7160e01b600052601160045260246000fd5b92915050565b600080858511156107dc57600080fd5b838611156107e957600080fd5b505082019391909203915056fea26469706673582212203626bcb7d6b90c0c3e0f55efe85b9e3c2e4c482d24e3b0176880113d6db31f5b64736f6c63430008170033",
  "linkReferences": {},
  "deployedLinkReferences": {}
}