{
  "_format": "hh-sol-artifact-1",
  "contractName": "HederaFungibleToken",
  "sourceName": "contracts/mocks/hts-precompile/HederaFungibleToken.sol",
  "abi": [
    {
      "inputs": [
        {
          "components": [
            {
              "components": [
                {
                  "components": [
                    {
                      "internalType": "string",
                      "name": "name",
                      "type": "string"
                    },
                    {
                      "internalType": "string",
                      "name": "symbol",
                      "type": "string"
                    },
                    {
                      "internalType": "address",
                      "name": "treasury",
                      "type": "address"
                    },
                    {
                      "internalType": "string",
                      "name": "memo",
                      "type": "string"
                    },
                    {
                      "internalType": "bool",
                      "name": "tokenSupplyType",
                      "type": "bool"
                    },
                    {
                      "internalType": "int64",
                      "name": "maxSupply",
                      "type": "int64"
                    },
                    {
                      "internalType": "bool",
                      "name": "freezeDefault",
                      "type": "bool"
                    },
                    {
                      "components": [
                        {
                          "internalType": "uint256",
                          "name": "keyType",
                          "type": "uint256"
                        },
                        {
                          "components": [
                            {
                              "internalType": "bool",
                              "name": "inheritAccountKey",
                              "type": "bool"
                            },
                            {
                              "internalType": "address",
                              "name": "contractId",
                              "type": "address"
                            },
                            {
                              "internalType": "bytes",
                              "name": "ed25519",
                              "type": "bytes"
                            },
                            {
                              "internalType": "bytes",
                              "name": "ECDSA_secp256k1",
                              "type": "bytes"
                            },
                            {
                              "internalType": "address",
                              "name": "delegatableContractId",
                              "type": "address"
                            }
                          ],
                          "internalType": "struct IHederaTokenService.KeyValue",
                          "name": "key",
                          "type": "tuple"
                        }
                      ],
                      "internalType": "struct IHederaTokenService.TokenKey[]",
                      "name": "tokenKeys",
                      "type": "tuple[]"
                    },
                    {
                      "components": [
                        {
                          "internalType": "int64",
                          "name": "second",
                          "type": "int64"
                        },
                        {
                          "internalType": "address",
                          "name": "autoRenewAccount",
                          "type": "address"
                        },
                        {
                          "internalType": "int64",
                          "name": "autoRenewPeriod",
                          "type": "int64"
                        }
                      ],
                      "internalType": "struct IHederaTokenService.Expiry",
                      "name": "expiry",
                      "type": "tuple"
                    }
                  ],
                  "internalType": "struct IHederaTokenService.HederaToken",
                  "name": "token",
                  "type": "tuple"
                },
                {
                  "internalType": "int64",
                  "name": "totalSupply",
                  "type": "int64"
                },
                {
                  "internalType": "bool",
                  "name": "deleted",
                  "type": "bool"
                },
                {
                  "internalType": "bool",
                  "name": "defaultKycStatus",
                  "type": "bool"
                },
                {
                  "internalType": "bool",
                  "name": "pauseStatus",
                  "type": "bool"
                },
                {
                  "components": [
                    {
                      "internalType": "int64",
                      "name": "amount",
                      "type": "int64"
                    },
                    {
                      "internalType": "address",
                      "name": "tokenId",
                      "type": "address"
                    },
                    {
                      "internalType": "bool",
                      "name": "useHbarsForPayment",
                      "type": "bool"
                    },
                    {
                      "internalType": "bool",
                      "name": "useCurrentTokenForPayment",
                      "type": "bool"
                    },
                    {
                      "internalType": "address",
                      "name": "feeCollector",
                      "type": "address"
                    }
                  ],
                  "internalType": "struct IHederaTokenService.FixedFee[]",
                  "name": "fixedFees",
                  "type": "tuple[]"
                },
                {
                  "components": [
                    {
                      "internalType": "int64",
                      "name": "numerator",
                      "type": "int64"
                    },
                    {
                      "internalType": "int64",
                      "name": "denominator",
                      "type": "int64"
                    },
                    {
                      "internalType": "int64",
                      "name": "minimumAmount",
                      "type": "int64"
                    },
                    {
                      "internalType": "int64",
                      "name": "maximumAmount",
                      "type": "int64"
                    },
                    {
                      "internalType": "bool",
                      "name": "netOfTransfers",
                      "type": "bool"
                    },
                    {
                      "internalType": "address",
                      "name": "feeCollector",
                      "type": "address"
                    }
                  ],
                  "internalType": "struct IHederaTokenService.FractionalFee[]",
                  "name": "fractionalFees",
                  "type": "tuple[]"
                },
                {
                  "components": [
                    {
                      "internalType": "int64",
                      "name": "numerator",
                      "type": "int64"
                    },
                    {
                      "internalType": "int64",
                      "name": "denominator",
                      "type": "int64"
                    },
                    {
                      "internalType": "int64",
                      "name": "amount",
                      "type": "int64"
                    },
                    {
                      "internalType": "address",
                      "name": "tokenId",
                      "type": "address"
                    },
                    {
                      "internalType": "bool",
                      "name": "useHbarsForPayment",
                      "type": "bool"
                    },
                    {
                      "internalType": "address",
                      "name": "feeCollector",
                      "type": "address"
                    }
                  ],
                  "internalType": "struct IHederaTokenService.RoyaltyFee[]",
                  "name": "royaltyFees",
                  "type": "tuple[]"
                },
                {
                  "internalType": "string",
                  "name": "ledgerId",
                  "type": "string"
                }
              ],
              "internalType": "struct IHederaTokenService.TokenInfo",
              "name": "tokenInfo",
              "type": "tuple"
            },
            {
              "internalType": "int32",
              "name": "decimals",
              "type": "int32"
            }
          ],
          "internalType": "struct IHederaTokenService.FungibleTokenInfo",
          "name": "_fungibleTokenInfo",
          "type": "tuple"
        }
      ],
      "stateMutability": "nonpayable",
      "type": "constructor"
    },
    {
      "inputs": [
        {
          "internalType": "int64",
          "name": "responseCode",
          "type": "int64"
        }
      ],
      "name": "HtsPrecompileError",
      "type": "error"
    },
    {
      "anonymous": false,
      "inputs": [
        {
          "indexed": true,
          "internalType": "address",
          "name": "owner",
          "type": "address"
        },
        {
          "indexed": true,
          "internalType": "address",
          "name": "spender",
          "type": "address"
        },
        {
          "indexed": false,
          "internalType": "uint256",
          "name": "value",
          "type": "uint256"
        }
      ],
      "name": "Approval",
      "type": "event"
    },
    {
      "anonymous": false,
      "inputs": [
        {
          "indexed": true,
          "internalType": "address",
          "name": "from",
          "type": "address"
        },
        {
          "indexed": true,
          "internalType": "address",
          "name": "to",
          "type": "address"
        },
        {
          "indexed": false,
          "internalType": "uint256",
          "name": "value",
          "type": "uint256"
        }
      ],
      "name": "Transfer",
      "type": "event"
    },
    {
      "inputs": [],
      "name": "IS_FUNGIBLE",
      "outputs": [
        {
          "internalType": "bool",
          "name": "",
          "type": "bool"
        }
      ],
      "stateMutability": "view",
      "type": "function"
    },
    {
      "inputs": [
        {
          "internalType": "address",
          "name": "owner",
          "type": "address"
        },
        {
          "internalType": "address",
          "name": "spender",
          "type": "address"
        }
      ],
      "name": "allowance",
      "outputs": [
        {
          "internalType": "uint256",
          "name": "",
          "type": "uint256"
        }
      ],
      "stateMutability": "view",
      "type": "function"
    },
    {
      "inputs": [
        {
          "internalType": "address",
          "name": "spender",
          "type": "address"
        },
        {
          "internalType": "uint256",
          "name": "amount",
          "type": "uint256"
        }
      ],
      "name": "approve",
      "outputs": [
        {
          "internalType": "bool",
          "name": "",
          "type": "bool"
        }
      ],
      "stateMutability": "nonpayable",
      "type": "function"
    },
    {
      "inputs": [
        {
          "internalType": "address",
          "name": "account",
          "type": "address"
        },
        {
          "internalType": "address",
          "name": "spender",
          "type": "address"
        },
        {
          "internalType": "uint256",
          "name": "amount",
          "type": "uint256"
        }
      ],
      "name": "approveRequestFromHtsPrecompile",
      "outputs": [],
      "stateMutability": "nonpayable",
      "type": "function"
    },
    {
      "inputs": [
        {
          "internalType": "address",
          "name": "account",
          "type": "address"
        }
      ],
      "name": "balanceOf",
      "outputs": [
        {
          "internalType": "uint256",
          "name": "",
          "type": "uint256"
        }
      ],
      "stateMutability": "view",
      "type": "function"
    },
    {
      "inputs": [
        {
          "internalType": "int64",
          "name": "amount",
          "type": "int64"
        }
      ],
      "name": "burnRequestFromHtsPrecompile",
      "outputs": [],
      "stateMutability": "nonpayable",
      "type": "function"
    },
    {
      "inputs": [],
      "name": "decimals",
      "outputs": [
        {
          "internalType": "uint8",
          "name": "",
          "type": "uint8"
        }
      ],
      "stateMutability": "view",
      "type": "function"
    },
    {
      "inputs": [
        {
          "internalType": "address",
          "name": "spender",
          "type": "address"
        },
        {
          "internalType": "uint256",
          "name": "subtractedValue",
          "type": "uint256"
        }
      ],
      "name": "decreaseAllowance",
      "outputs": [
        {
          "internalType": "bool",
          "name": "",
          "type": "bool"
        }
      ],
      "stateMutability": "nonpayable",
      "type": "function"
    },
    {
      "inputs": [
        {
          "internalType": "address",
          "name": "spender",
          "type": "address"
        },
        {
          "internalType": "uint256",
          "name": "addedValue",
          "type": "uint256"
        }
      ],
      "name": "increaseAllowance",
      "outputs": [
        {
          "internalType": "bool",
          "name": "",
          "type": "bool"
        }
      ],
      "stateMutability": "nonpayable",
      "type": "function"
    },
    {
      "inputs": [
        {
          "internalType": "int64",
          "name": "amount",
          "type": "int64"
        }
      ],
      "name": "mintRequestFromHtsPrecompile",
      "outputs": [],
      "stateMutability": "nonpayable",
      "type": "function"
    },
    {
      "inputs": [],
      "name": "name",
      "outputs": [
        {
          "internalType": "string",
          "name": "",
          "type": "string"
        }
      ],
      "stateMutability": "view",
      "type": "function"
    },
    {
      "inputs": [],
      "name": "symbol",
      "outputs": [
        {
          "internalType": "string",
          "name": "",
          "type": "string"
        }
      ],
      "stateMutability": "view",
      "type": "function"
    },
    {
      "inputs": [],
      "name": "totalSupply",
      "outputs": [
        {
          "internalType": "uint256",
          "name": "",
          "type": "uint256"
        }
      ],
      "stateMutability": "view",
      "type": "function"
    },
    {
      "inputs": [
        {
          "internalType": "address",
          "name": "to",
          "type": "address"
        },
        {
          "internalType": "uint256",
          "name": "amount",
          "type": "uint256"
        }
      ],
      "name": "transfer",
      "outputs": [
        {
          "internalType": "bool",
          "name": "",
          "type": "bool"
        }
      ],
      "stateMutability": "nonpayable",
      "type": "function"
    },
    {
      "inputs": [
        {
          "internalType": "address",
          "name": "from",
          "type": "address"
        },
        {
          "internalType": "address",
          "name": "to",
          "type": "address"
        },
        {
          "internalType": "uint256",
          "name": "amount",
          "type": "uint256"
        }
      ],
      "name": "transferFrom",
      "outputs": [
        {
          "internalType": "bool",
          "name": "",
          "type": "bool"
        }
      ],
      "stateMutability": "nonpayable",
      "type": "function"
    },
    {
      "inputs": [
        {
          "internalType": "bool",
          "name": "isRequestFromOwner",
          "type": "bool"
        },
        {
          "internalType": "address",
          "name": "spender",
          "type": "address"
        },
        {
          "internalType": "address",
          "name": "from",
          "type": "address"
        },
        {
          "internalType": "address",
          "name": "to",
          "type": "address"
        },
        {
          "internalType": "uint256",
          "name": "amount",
          "type": "uint256"
        }
      ],
      "name": "transferRequestFromHtsPrecompile",
      "outputs": [
        {
          "internalType": "int64",
          "name": "responseCode",
          "type": "int64"
        }
      ],
      "stateMutability": "nonpayable",
      "type": "function"
    },
    {
      "inputs": [
        {
          "internalType": "address",
          "name": "account",
          "type": "address"
        },
        {
          "internalType": "int64",
          "name": "amount",
          "type": "int64"
        }
      ],
      "name": "wipeRequestFromHtsPrecompile",
      "outputs": [],
      "stateMutability": "nonpayable",
      "type": "function"
    }
  ],
  "bytecode": "0x60a060405234801562000010575f80fd5b5060405162002abf38038062002abf83398101604081905262000033916200094a565b805151805160209091015160036200004c838262000b6e565b5060046200005b828262000b6e565b505060405162aa54bd60e51b8152610167915063154a97a09062000086903390859060040162000fa5565b5f604051808303815f87803b1580156200009e575f80fd5b505af1158015620000b1573d5f803e3d5ffd5b5050505060208181015160ff166080528151805160400151910151620000e29082906001600160401b0316620000ea565b5050620010e6565b6001600160a01b038216620001455760405162461bcd60e51b815260206004820152601f60248201527f45524332303a206d696e7420746f20746865207a65726f206164647265737300604482015260640160405180910390fd5b8060025f828254620001589190620010c0565b90915550506001600160a01b0382165f81815260208181526040808320805486019055518481527fddf252ad1be2c89b69c2b068fc378daa952ba7f163c4a11628f55a4df523b3ef910160405180910390a35050565b505050565b634e487b7160e01b5f52604160045260245ffd5b604080519081016001600160401b0381118282101715620001ec57620001ec620001b3565b60405290565b60405160a081016001600160401b0381118282101715620001ec57620001ec620001b3565b60405161012081016001600160401b0381118282101715620001ec57620001ec620001b3565b60405160c081016001600160401b0381118282101715620001ec57620001ec620001b3565b604051601f8201601f191681016001600160401b03811182821017156200028d576200028d620001b3565b604052919050565b5f5b83811015620002b157818101518382015260200162000297565b50505f910152565b5f82601f830112620002c9575f80fd5b81516001600160401b03811115620002e557620002e5620001b3565b620002fa601f8201601f191660200162000262565b8181528460208386010111156200030f575f80fd5b6200032282602083016020870162000295565b949350505050565b80516001600160a01b038116811462000341575f80fd5b919050565b8051801515811462000341575f80fd5b8051600781900b811462000341575f80fd5b5f6001600160401b03821115620003835762000383620001b3565b5060051b60200190565b5f82601f8301126200039d575f80fd5b81516020620003b6620003b08362000368565b62000262565b82815260059290921b84018101918181019086841115620003d5575f80fd5b8286015b84811015620004f65780516001600160401b0380821115620003f9575f80fd5b908801906040601f19838c03810182131562000413575f80fd5b6200041d620001c7565b888501518152828501518481111562000434575f80fd5b949094019360a0858e03830112156200044c575f8081fd5b62000456620001f2565b91506200046589860162000346565b8252620004748386016200032a565b89830152606080860151858111156200048c575f8081fd5b6200049c8f8c838a0101620002b9565b8585015250608093508386015185811115620004b7575f8081fd5b620004c78f8c838a0101620002b9565b828501525050620004db60a086016200032a565b928201929092528188015285525050918301918301620003d9565b509695505050505050565b5f6060828403121562000512575f80fd5b604051606081016001600160401b0381118282101715620005375762000537620001b3565b604052905080620005488362000356565b815262000558602084016200032a565b60208201526200056b6040840162000356565b60408201525092915050565b5f610160828403121562000589575f80fd5b6200059362000217565b82519091506001600160401b0380821115620005ad575f80fd5b620005bb85838601620002b9565b83526020840151915080821115620005d1575f80fd5b620005df85838601620002b9565b6020840152620005f2604085016200032a565b604084015260608401519150808211156200060b575f80fd5b6200061985838601620002b9565b60608401526200062c6080850162000346565b60808401526200063f60a0850162000356565b60a08401526200065260c0850162000346565b60c084015260e08401519150808211156200066b575f80fd5b506200067a848285016200038d565b60e083015250610100620006918482850162000501565b9082015292915050565b5f82601f830112620006ab575f80fd5b81516020620006be620003b08362000368565b82815260a09283028501820192828201919087851115620006dd575f80fd5b8387015b85811015620007695781818a031215620006fa575f8081fd5b62000704620001f2565b6200070f8262000356565b81526200071e8683016200032a565b8682015260406200073181840162000346565b9082015260606200074483820162000346565b908201526080620007578382016200032a565b908201528452928401928101620006e1565b5090979650505050505050565b5f82601f83011262000786575f80fd5b8151602062000799620003b08362000368565b82815260c09283028501820192828201919087851115620007b8575f80fd5b8387015b85811015620007695781818a031215620007d5575f8081fd5b620007df6200023d565b620007ea8262000356565b8152620007f986830162000356565b8682015260406200080c81840162000356565b9082015260606200081f83820162000356565b9082015260806200083283820162000346565b9082015260a0620008458382016200032a565b908201528452928401928101620007bc565b5f82601f83011262000867575f80fd5b815160206200087a620003b08362000368565b82815260c0928302850182019282820191908785111562000899575f80fd5b8387015b85811015620007695781818a031215620008b6575f8081fd5b620008c06200023d565b620008cb8262000356565b8152620008da86830162000356565b868201526040620008ed81840162000356565b908201526060620009008382016200032a565b9082015260806200091383820162000346565b9082015260a0620009268382016200032a565b9082015284529284019281016200089d565b8051600381900b811462000341575f80fd5b5f602082840312156200095b575f80fd5b81516001600160401b038082111562000972575f80fd5b908301906040828603121562000986575f80fd5b62000990620001c7565b8251828111156200099f575f80fd5b83016101208188031215620009b2575f80fd5b620009bc62000217565b815184811115620009cb575f80fd5b620009d98982850162000577565b825250620009ea6020830162000356565b6020820152620009fd6040830162000346565b604082015262000a106060830162000346565b606082015262000a236080830162000346565b608082015260a08201518481111562000a3a575f80fd5b62000a48898285016200069b565b60a08301525060c08201518481111562000a60575f80fd5b62000a6e8982850162000776565b60c08301525060e08201518481111562000a86575f80fd5b62000a948982850162000857565b60e083015250610100808301518581111562000aae575f80fd5b62000abc8a828601620002b9565b828401525050808352505062000ad56020840162000938565b602082015295945050505050565b600181811c9082168062000af857607f821691505b60208210810362000b1757634e487b7160e01b5f52602260045260245ffd5b50919050565b601f821115620001ae575f81815260208120601f850160051c8101602086101562000b455750805b601f850160051c820191505b8181101562000b665782815560010162000b51565b505050505050565b81516001600160401b0381111562000b8a5762000b8a620001b3565b62000ba28162000b9b845462000ae3565b8462000b1d565b602080601f83116001811462000bd8575f841562000bc05750858301515b5f19600386901b1c1916600185901b17855562000b66565b5f85815260208120601f198616915b8281101562000c085788860151825594840194600190910190840162000be7565b508582101562000c2657878501515f19600388901b60f8161c191681555b5050505050600190811b01905550565b5f815180845262000c4f81602086016020860162000295565b601f01601f19169290920160200192915050565b5f81518084526020808501808196508360051b810191508286015f5b8581101562000d1d57828403895281516040815186528682015191508087870152815115158187015286820151606060018060a01b03808316828a015283850151935060a09250608083818b015262000cdc60e08b018662000c36565b928601518a8403603f1901858c015292945062000cfa858462000c36565b9501511660c0989098019790975250509885019893509084019060010162000c7f565b5091979650505050505050565b5f610160825181855262000d418286018262000c36565b9150506020830151848203602086015262000d5d828262000c36565b915050604083015162000d7b60408601826001600160a01b03169052565b506060830151848203606086015262000d95828262000c36565b915050608083015162000dac608086018215159052565b5060a083015162000dc260a086018260070b9052565b5060c083015162000dd760c086018215159052565b5060e083015184820360e086015262000df1828262000c63565b610100858101518051600790810b8984015260208201516001600160a01b03166101208a01526040820151900b61014089015291935091505090949350505050565b5f8151808452602080850194508084015f5b8381101562000ea0578151805160070b8852838101516001600160a01b03908116858a01526040808301511515908a01526060808301511515908a0152608091820151169088015260a0909601959082019060010162000e45565b509495945050505050565b5f8151808452602080850194508084015f5b8381101562000ea05781518051600790810b895284820151810b858a0152604080830151820b908a015260608083015190910b9089015260808082015115159089015260a0908101516001600160a01b03169088015260c0909601959082019060010162000ebd565b5f8151808452602080850194508084015f5b8381101562000ea05781518051600790810b895284820151810b858a015260408083015190910b908901526060808201516001600160a01b03908116918a01919091526080808301511515908a015260a091820151169088015260c0909601959082019060010162000f38565b60018060a01b0383168152604060208201525f8251604080840152805161012080608086015262000fdb6101a086018362000d2a565b9150602083015162000ff260a087018260070b9052565b506040830151151560c08601526060830151151560e086015260808301518015156101008088019190915260a08501519150607f198088860301848901526200103c858462000e33565b945060c0860151935080888603016101408901526200105c858562000eab565b945060e0860151935080888603016101608901526200107c858562000f26565b94508186015195508088860301610180890152505050506200109f818362000c36565b9150506020840151620010b7606085018260030b9052565b50949350505050565b80820180821115620010e057634e487b7160e01b5f52601160045260245ffd5b92915050565b6080516119c0620010ff5f395f61019f01526119c05ff3fe608060405234801561000f575f80fd5b5060043610610106575f3560e01c8063395093511161009e578063a9059cbb1161006e578063a9059cbb14610232578063b59fc61914610245578063b6ef1b591461026b578063cc9858781461027e578063dd62ed3e14610286575f80fd5b806339509351146101dc57806370a08231146101ef57806395d89b4114610217578063a457c2d71461021f575f80fd5b806323b872dd116100d957806323b872dd1461017257806328cd005914610185578063313ce56714610198578063330ee0d4146101c9575f80fd5b806303f5483b1461010a57806306fdde031461011f578063095ea7b31461013d57806318160ddd14610160575b5f80fd5b61011d610118366004610eb5565b6102be565b005b610127610391565b6040516101349190610ef9565b60405180910390f35b61015061014b366004610f3f565b610421565b6040519015158152602001610134565b6002545b604051908152602001610134565b610150610180366004610f69565b6104dc565b61011d610193366004610fa7565b61059f565b60405160ff7f0000000000000000000000000000000000000000000000000000000000000000168152602001610134565b61011d6101d7366004610eb5565b6105fd565b6101506101ea366004610f3f565b6106c6565b6101646101fd366004610fde565b6001600160a01b03165f9081526020819052604090205490565b61012761070e565b61015061022d366004610f3f565b61071d565b610150610240366004610f3f565b6107b9565b610258610253366004611006565b610871565b60405160079190910b8152602001610134565b61011d610279366004610f69565b6108df565b610150600181565b610164610294366004611066565b6001600160a01b039182165f90815260016020908152604080832093909416825291909152205490565b33610167146103095760405162461bcd60e51b81526020600482015260126024820152714e4f545f4854535f505245434f4d50494c4560701b60448201526064015b60405180910390fd5b604051633f28a19b60e01b81523060048201525f9061016790633f28a19b906024015f60405180830381865afa158015610345573d5f803e3d5ffd5b505050506040513d5f823e601f3d908101601f1916820160405261036c919081019061178a565b80515160400151909250905061038c8167ffffffffffffffff8516610930565b505050565b6060600380546103a090611918565b80601f01602080910402602001604051908101604052809291908181526020018280546103cc90611918565b80156104175780601f106103ee57610100808354040283529160200191610417565b820191905f5260205f20905b8154815290600101906020018083116103fa57829003601f168201915b5050505050905090565b60405163e459524960e01b81523360048201526001600160a01b0383166024820152604481018290525f9081906101679063e4595249906064016020604051808303815f875af1158015610477573d5f803e3d5ffd5b505050506040513d601f19601f8201168201806040525081019061049b9190611950565b9050600781900b6016146104c85760405163fbe0be3960e01b8152600782900b6004820152602401610300565b6104d284846109ed565b9150505b92915050565b60405163a0ecee3360e01b81523360048201526001600160a01b03808516602483015283166044820152606481018290525f9081906101679063a0ecee33906084016020604051808303815f875af115801561053a573d5f803e3d5ffd5b505050506040513d601f19601f8201168201806040525081019061055e9190611950565b9050600781900b60161461058b5760405163fbe0be3960e01b8152600782900b6004820152602401610300565b6105968585856109fa565b95945050505050565b33610167146105e55760405162461bcd60e51b81526020600482015260126024820152714e4f545f4854535f505245434f4d50494c4560701b6044820152606401610300565b6105f9828267ffffffffffffffff16610a12565b5050565b33610167146106435760405162461bcd60e51b81526020600482015260126024820152714e4f545f4854535f505245434f4d50494c4560701b6044820152606401610300565b604051633f28a19b60e01b81523060048201525f9061016790633f28a19b906024015f60405180830381865afa15801561067f573d5f803e3d5ffd5b505050506040513d5f823e601f3d908101601f191682016040526106a6919081019061178a565b80515160400151909250905061038c8167ffffffffffffffff8516610a12565b335f8181526001602090815260408083206001600160a01b038716845290915281205490919061070490829086906106ff90879061196b565b610b42565b5060019392505050565b6060600480546103a090611918565b335f8181526001602090815260408083206001600160a01b0387168452909152812054909190838110156107a15760405162461bcd60e51b815260206004820152602560248201527f45524332303a2064656372656173656420616c6c6f77616e63652062656c6f77604482015264207a65726f60d81b6064820152608401610300565b6107ae8286868403610b42565b506001949350505050565b60405163a0ecee3360e01b81525f600482018190523360248301526001600160a01b0384166044830152606482018390529081906101679063a0ecee33906084016020604051808303815f875af1158015610816573d5f803e3d5ffd5b505050506040513d601f19601f8201168201806040525081019061083a9190611950565b9050600781900b6016146108675760405163fbe0be3960e01b8152600782900b6004820152602401610300565b6104d28484610c65565b5f33610167146108b85760405162461bcd60e51b81526020600482015260126024820152714e4f545f4854535f505245434f4d50494c4560701b6044820152606401610300565b856108c8576108c8848684610c72565b6108d3848484610d02565b50601695945050505050565b33610167146109255760405162461bcd60e51b81526020600482015260126024820152714e4f545f4854535f505245434f4d50494c4560701b6044820152606401610300565b61038c838383610b42565b6001600160a01b0382166109865760405162461bcd60e51b815260206004820152601f60248201527f45524332303a206d696e7420746f20746865207a65726f2061646472657373006044820152606401610300565b8060025f828254610997919061196b565b90915550506001600160a01b0382165f81815260208181526040808320805486019055518481527fddf252ad1be2c89b69c2b068fc378daa952ba7f163c4a11628f55a4df523b3ef910160405180910390a35050565b5f33610704818585610b42565b5f33610a07858285610c72565b6107ae858585610d02565b6001600160a01b038216610a725760405162461bcd60e51b815260206004820152602160248201527f45524332303a206275726e2066726f6d20746865207a65726f206164647265736044820152607360f81b6064820152608401610300565b6001600160a01b0382165f9081526020819052604090205481811015610ae55760405162461bcd60e51b815260206004820152602260248201527f45524332303a206275726e20616d6f756e7420657863656564732062616c616e604482015261636560f01b6064820152608401610300565b6001600160a01b0383165f818152602081815260408083208686039055600280548790039055518581529192917fddf252ad1be2c89b69c2b068fc378daa952ba7f163c4a11628f55a4df523b3ef910160405180910390a3505050565b6001600160a01b038316610ba45760405162461bcd60e51b8152602060048201526024808201527f45524332303a20617070726f76652066726f6d20746865207a65726f206164646044820152637265737360e01b6064820152608401610300565b6001600160a01b038216610c055760405162461bcd60e51b815260206004820152602260248201527f45524332303a20617070726f766520746f20746865207a65726f206164647265604482015261737360f01b6064820152608401610300565b6001600160a01b038381165f8181526001602090815260408083209487168084529482529182902085905590518481527f8c5be1e5ebec7d5bd14f71427d1e84f3dd0314c0f7b2291e5b200ac8c7c3b925910160405180910390a3505050565b5f33610704818585610d02565b6001600160a01b038381165f908152600160209081526040808320938616835292905220545f198114610cfc5781811015610cef5760405162461bcd60e51b815260206004820152601d60248201527f45524332303a20696e73756666696369656e7420616c6c6f77616e63650000006044820152606401610300565b610cfc8484848403610b42565b50505050565b6001600160a01b038316610d665760405162461bcd60e51b815260206004820152602560248201527f45524332303a207472616e736665722066726f6d20746865207a65726f206164604482015264647265737360d81b6064820152608401610300565b6001600160a01b038216610dc85760405162461bcd60e51b815260206004820152602360248201527f45524332303a207472616e7366657220746f20746865207a65726f206164647260448201526265737360e81b6064820152608401610300565b6001600160a01b0383165f9081526020819052604090205481811015610e3f5760405162461bcd60e51b815260206004820152602660248201527f45524332303a207472616e7366657220616d6f756e7420657863656564732062604482015265616c616e636560d01b6064820152608401610300565b6001600160a01b038481165f81815260208181526040808320878703905593871680835291849020805487019055925185815290927fddf252ad1be2c89b69c2b068fc378daa952ba7f163c4a11628f55a4df523b3ef910160405180910390a3610cfc565b8060070b8114610eb2575f80fd5b50565b5f60208284031215610ec5575f80fd5b8135610ed081610ea4565b9392505050565b5f5b83811015610ef1578181015183820152602001610ed9565b50505f910152565b602081525f8251806020840152610f17816040850160208701610ed7565b601f01601f19169190910160400192915050565b6001600160a01b0381168114610eb2575f80fd5b5f8060408385031215610f50575f80fd5b8235610f5b81610f2b565b946020939093013593505050565b5f805f60608486031215610f7b575f80fd5b8335610f8681610f2b565b92506020840135610f9681610f2b565b929592945050506040919091013590565b5f8060408385031215610fb8575f80fd5b8235610fc381610f2b565b91506020830135610fd381610ea4565b809150509250929050565b5f60208284031215610fee575f80fd5b8135610ed081610f2b565b8015158114610eb2575f80fd5b5f805f805f60a0868803121561101a575f80fd5b853561102581610ff9565b9450602086013561103581610f2b565b9350604086013561104581610f2b565b9250606086013561105581610f2b565b949793965091946080013592915050565b5f8060408385031215611077575f80fd5b823561108281610f2b565b91506020830135610fd381610f2b565b805161109d81610ea4565b919050565b634e487b7160e01b5f52604160045260245ffd5b6040805190810167ffffffffffffffff811182821017156110d9576110d96110a2565b60405290565b60405160a0810167ffffffffffffffff811182821017156110d9576110d96110a2565b604051610120810167ffffffffffffffff811182821017156110d9576110d96110a2565b60405160c0810167ffffffffffffffff811182821017156110d9576110d96110a2565b604051601f8201601f1916810167ffffffffffffffff81118282101715611172576111726110a2565b604052919050565b5f82601f830112611189575f80fd5b815167ffffffffffffffff8111156111a3576111a36110a2565b6111b6601f8201601f1916602001611149565b8181528460208386010111156111ca575f80fd5b6111db826020830160208701610ed7565b949350505050565b805161109d81610f2b565b805161109d81610ff9565b5f67ffffffffffffffff821115611212576112126110a2565b5060051b60200190565b5f82601f83011261122b575f80fd5b8151602061124061123b836111f9565b611149565b82815260059290921b8401810191818101908684111561125e575f80fd5b8286015b8481101561136e57805167ffffffffffffffff80821115611281575f80fd5b908801906040601f19838c03810182131561129a575f80fd5b6112a26110b6565b88850151815282850151848111156112b8575f80fd5b949094019360a0858e03830112156112cf575f8081fd5b6112d76110df565b9150888501516112e681610ff9565b8252848301516112f581610f2b565b828a01526060858101518581111561130c575f8081fd5b61131a8f8c838a010161117a565b8585015250608093508386015185811115611334575f8081fd5b6113428f8c838a010161117a565b82850152505061135460a086016111e3565b928201929092528188015285525050918301918301611262565b509695505050505050565b5f60608284031215611389575f80fd5b6040516060810181811067ffffffffffffffff821117156113ac576113ac6110a2565b806040525080915082516113bf81610ea4565b815260208301516113cf81610f2b565b602082015260408301516113e281610ea4565b6040919091015292915050565b5f6101608284031215611400575f80fd5b611408611102565b9050815167ffffffffffffffff80821115611421575f80fd5b61142d8583860161117a565b83526020840151915080821115611442575f80fd5b61144e8583860161117a565b602084015261145f604085016111e3565b60408401526060840151915080821115611477575f80fd5b6114838583860161117a565b6060840152611494608085016111ee565b60808401526114a560a08501611092565b60a08401526114b660c085016111ee565b60c084015260e08401519150808211156114ce575f80fd5b506114db8482850161121c565b60e0830152506101006114f084828501611379565b9082015292915050565b5f82601f830112611509575f80fd5b8151602061151961123b836111f9565b82815260a09283028501820192828201919087851115611537575f80fd5b8387015b858110156115be5781818a031215611552575f8081fd5b61155a6110df565b815161156581610ea4565b81528186015161157481610f2b565b8187015260408281015161158781610ff9565b9082015260608281015161159a81610ff9565b908201526080828101516115ad81610f2b565b90820152845292840192810161153b565b5090979650505050505050565b5f82601f8301126115da575f80fd5b815160206115ea61123b836111f9565b82815260c09283028501820192828201919087851115611608575f80fd5b8387015b858110156115be5781818a031215611623575f8081fd5b61162b611126565b815161163681610ea4565b81528186015161164581610ea4565b8187015260408281015161165881610ea4565b9082015260608281015161166b81610ea4565b9082015260808281015161167e81610ff9565b9082015260a08281015161169181610f2b565b90820152845292840192810161160c565b5f82601f8301126116b1575f80fd5b815160206116c161123b836111f9565b82815260c092830285018201928282019190878511156116df575f80fd5b8387015b858110156115be5781818a0312156116fa575f8081fd5b611702611126565b815161170d81610ea4565b81528186015161171c81610ea4565b8187015260408281015161172f81610ea4565b9082015260608281015161174281610f2b565b9082015260808281015161175581610ff9565b9082015260a08281015161176881610f2b565b9082015284529284019281016116e3565b8051600381900b811461109d575f80fd5b5f806040838503121561179b575f80fd5b82516117a681610ea4565b602084015190925067ffffffffffffffff808211156117c3575f80fd5b90840190604082870312156117d6575f80fd5b6117de6110b6565b8251828111156117ec575f80fd5b830161012081890312156117fe575f80fd5b611806611102565b815184811115611814575f80fd5b6118208a8285016113ef565b82525061182f60208301611092565b6020820152611840604083016111ee565b6040820152611851606083016111ee565b6060820152611862608083016111ee565b608082015260a082015184811115611878575f80fd5b6118848a8285016114fa565b60a08301525060c08201518481111561189b575f80fd5b6118a78a8285016115cb565b60c08301525060e0820151848111156118be575f80fd5b6118ca8a8285016116a2565b60e08301525061010080830151858111156118e3575f80fd5b6118ef8b82860161117a565b828401525050808352505061190660208401611779565b60208201528093505050509250929050565b600181811c9082168061192c57607f821691505b60208210810361194a57634e487b7160e01b5f52602260045260245ffd5b50919050565b5f60208284031215611960575f80fd5b8151610ed081610ea4565b808201808211156104d657634e487b7160e01b5f52601160045260245ffdfea2646970667358221220e185adbb0ec9f8418d9b79f9cec75f649641208ff33f7bb81400a20953d7322a64736f6c63430008140033",
  "linkReferences": {},
  "deployedLinkReferences": {}
}