{
  "_format": "hh-sol-artifact-1",
  "contractName": "HederaFungibleToken",
  "sourceName": "contracts/mocks/hts-precompile/HederaFungibleToken.sol",
  "abi": [
    {
      "inputs": [
        {
          "components": [
            {
              "components": [
                {
                  "components": [
                    {
                      "internalType": "string",
                      "name": "name",
                      "type": "string"
                    },
                    {
                      "internalType": "string",
                      "name": "symbol",
                      "type": "string"
                    },
                    {
                      "internalType": "address",
                      "name": "treasury",
                      "type": "address"
                    },
                    {
                      "internalType": "string",
                      "name": "memo",
                      "type": "string"
                    },
                    {
                      "internalType": "bool",
                      "name": "tokenSupplyType",
                      "type": "bool"
                    },
                    {
                      "internalType": "int64",
                      "name": "maxSupply",
                      "type": "int64"
                    },
                    {
                      "internalType": "bool",
                      "name": "freezeDefault",
                      "type": "bool"
                    },
                    {
                      "components": [
                        {
                          "internalType": "uint256",
                          "name": "keyType",
                          "type": "uint256"
                        },
                        {
                          "components": [
                            {
                              "internalType": "bool",
                              "name": "inheritAccountKey",
                              "type": "bool"
                            },
                            {
                              "internalType": "address",
                              "name": "contractId",
                              "type": "address"
                            },
                            {
                              "internalType": "bytes",
                              "name": "ed25519",
                              "type": "bytes"
                            },
                            {
                              "internalType": "bytes",
                              "name": "ECDSA_secp256k1",
                              "type": "bytes"
                            },
                            {
                              "internalType": "address",
                              "name": "delegatableContractId",
                              "type": "address"
                            }
                          ],
                          "internalType": "struct IHederaTokenService.KeyValue",
                          "name": "key",
                          "type": "tuple"
                        }
                      ],
                      "internalType": "struct IHederaTokenService.TokenKey[]",
                      "name": "tokenKeys",
                      "type": "tuple[]"
                    },
                    {
                      "components": [
                        {
                          "internalType": "int64",
                          "name": "second",
                          "type": "int64"
                        },
                        {
                          "internalType": "address",
                          "name": "autoRenewAccount",
                          "type": "address"
                        },
                        {
                          "internalType": "int64",
                          "name": "autoRenewPeriod",
                          "type": "int64"
                        }
                      ],
                      "internalType": "struct IHederaTokenService.Expiry",
                      "name": "expiry",
                      "type": "tuple"
                    }
                  ],
                  "internalType": "struct IHederaTokenService.HederaToken",
                  "name": "token",
                  "type": "tuple"
                },
                {
                  "internalType": "int64",
                  "name": "totalSupply",
                  "type": "int64"
                },
                {
                  "internalType": "bool",
                  "name": "deleted",
                  "type": "bool"
                },
                {
                  "internalType": "bool",
                  "name": "defaultKycStatus",
                  "type": "bool"
                },
                {
                  "internalType": "bool",
                  "name": "pauseStatus",
                  "type": "bool"
                },
                {
                  "components": [
                    {
                      "internalType": "int64",
                      "name": "amount",
                      "type": "int64"
                    },
                    {
                      "internalType": "address",
                      "name": "tokenId",
                      "type": "address"
                    },
                    {
                      "internalType": "bool",
                      "name": "useHbarsForPayment",
                      "type": "bool"
                    },
                    {
                      "internalType": "bool",
                      "name": "useCurrentTokenForPayment",
                      "type": "bool"
                    },
                    {
                      "internalType": "address",
                      "name": "feeCollector",
                      "type": "address"
                    }
                  ],
                  "internalType": "struct IHederaTokenService.FixedFee[]",
                  "name": "fixedFees",
                  "type": "tuple[]"
                },
                {
                  "components": [
                    {
                      "internalType": "int64",
                      "name": "numerator",
                      "type": "int64"
                    },
                    {
                      "internalType": "int64",
                      "name": "denominator",
                      "type": "int64"
                    },
                    {
                      "internalType": "int64",
                      "name": "minimumAmount",
                      "type": "int64"
                    },
                    {
                      "internalType": "int64",
                      "name": "maximumAmount",
                      "type": "int64"
                    },
                    {
                      "internalType": "bool",
                      "name": "netOfTransfers",
                      "type": "bool"
                    },
                    {
                      "internalType": "address",
                      "name": "feeCollector",
                      "type": "address"
                    }
                  ],
                  "internalType": "struct IHederaTokenService.FractionalFee[]",
                  "name": "fractionalFees",
                  "type": "tuple[]"
                },
                {
                  "components": [
                    {
                      "internalType": "int64",
                      "name": "numerator",
                      "type": "int64"
                    },
                    {
                      "internalType": "int64",
                      "name": "denominator",
                      "type": "int64"
                    },
                    {
                      "internalType": "int64",
                      "name": "amount",
                      "type": "int64"
                    },
                    {
                      "internalType": "address",
                      "name": "tokenId",
                      "type": "address"
                    },
                    {
                      "internalType": "bool",
                      "name": "useHbarsForPayment",
                      "type": "bool"
                    },
                    {
                      "internalType": "address",
                      "name": "feeCollector",
                      "type": "address"
                    }
                  ],
                  "internalType": "struct IHederaTokenService.RoyaltyFee[]",
                  "name": "royaltyFees",
                  "type": "tuple[]"
                },
                {
                  "internalType": "string",
                  "name": "ledgerId",
                  "type": "string"
                }
              ],
              "internalType": "struct IHederaTokenService.TokenInfo",
              "name": "tokenInfo",
              "type": "tuple"
            },
            {
              "internalType": "int32",
              "name": "decimals",
              "type": "int32"
            }
          ],
          "internalType": "struct IHederaTokenService.FungibleTokenInfo",
          "name": "_fungibleTokenInfo",
          "type": "tuple"
        }
      ],
      "stateMutability": "nonpayable",
      "type": "constructor"
    },
    {
      "inputs": [
        {
          "internalType": "int64",
          "name": "responseCode",
          "type": "int64"
        }
      ],
      "name": "HtsPrecompileError",
      "type": "error"
    },
    {
      "anonymous": false,
      "inputs": [
        {
          "indexed": true,
          "internalType": "address",
          "name": "owner",
          "type": "address"
        },
        {
          "indexed": true,
          "internalType": "address",
          "name": "spender",
          "type": "address"
        },
        {
          "indexed": false,
          "internalType": "uint256",
          "name": "value",
          "type": "uint256"
        }
      ],
      "name": "Approval",
      "type": "event"
    },
    {
      "anonymous": false,
      "inputs": [
        {
          "indexed": true,
          "internalType": "address",
          "name": "from",
          "type": "address"
        },
        {
          "indexed": true,
          "internalType": "address",
          "name": "to",
          "type": "address"
        },
        {
          "indexed": false,
          "internalType": "uint256",
          "name": "value",
          "type": "uint256"
        }
      ],
      "name": "Transfer",
      "type": "event"
    },
    {
      "inputs": [],
      "name": "IS_FUNGIBLE",
      "outputs": [
        {
          "internalType": "bool",
          "name": "",
          "type": "bool"
        }
      ],
      "stateMutability": "view",
      "type": "function"
    },
    {
      "inputs": [
        {
          "internalType": "address",
          "name": "owner",
          "type": "address"
        },
        {
          "internalType": "address",
          "name": "spender",
          "type": "address"
        }
      ],
      "name": "allowance",
      "outputs": [
        {
          "internalType": "uint256",
          "name": "",
          "type": "uint256"
        }
      ],
      "stateMutability": "view",
      "type": "function"
    },
    {
      "inputs": [
        {
          "internalType": "address",
          "name": "spender",
          "type": "address"
        },
        {
          "internalType": "uint256",
          "name": "amount",
          "type": "uint256"
        }
      ],
      "name": "approve",
      "outputs": [
        {
          "internalType": "bool",
          "name": "",
          "type": "bool"
        }
      ],
      "stateMutability": "nonpayable",
      "type": "function"
    },
    {
      "inputs": [
        {
          "internalType": "address",
          "name": "account",
          "type": "address"
        },
        {
          "internalType": "address",
          "name": "spender",
          "type": "address"
        },
        {
          "internalType": "uint256",
          "name": "amount",
          "type": "uint256"
        }
      ],
      "name": "approveRequestFromHtsPrecompile",
      "outputs": [],
      "stateMutability": "nonpayable",
      "type": "function"
    },
    {
      "inputs": [
        {
          "internalType": "address",
          "name": "account",
          "type": "address"
        }
      ],
      "name": "balanceOf",
      "outputs": [
        {
          "internalType": "uint256",
          "name": "",
          "type": "uint256"
        }
      ],
      "stateMutability": "view",
      "type": "function"
    },
    {
      "inputs": [
        {
          "internalType": "int64",
          "name": "amount",
          "type": "int64"
        }
      ],
      "name": "burnRequestFromHtsPrecompile",
      "outputs": [],
      "stateMutability": "nonpayable",
      "type": "function"
    },
    {
      "inputs": [],
      "name": "decimals",
      "outputs": [
        {
          "internalType": "uint8",
          "name": "",
          "type": "uint8"
        }
      ],
      "stateMutability": "view",
      "type": "function"
    },
    {
      "inputs": [
        {
          "internalType": "address",
          "name": "spender",
          "type": "address"
        },
        {
          "internalType": "uint256",
          "name": "subtractedValue",
          "type": "uint256"
        }
      ],
      "name": "decreaseAllowance",
      "outputs": [
        {
          "internalType": "bool",
          "name": "",
          "type": "bool"
        }
      ],
      "stateMutability": "nonpayable",
      "type": "function"
    },
    {
      "inputs": [
        {
          "internalType": "address",
          "name": "spender",
          "type": "address"
        },
        {
          "internalType": "uint256",
          "name": "addedValue",
          "type": "uint256"
        }
      ],
      "name": "increaseAllowance",
      "outputs": [
        {
          "internalType": "bool",
          "name": "",
          "type": "bool"
        }
      ],
      "stateMutability": "nonpayable",
      "type": "function"
    },
    {
      "inputs": [
        {
          "internalType": "int64",
          "name": "amount",
          "type": "int64"
        }
      ],
      "name": "mintRequestFromHtsPrecompile",
      "outputs": [],
      "stateMutability": "nonpayable",
      "type": "function"
    },
    {
      "inputs": [],
      "name": "name",
      "outputs": [
        {
          "internalType": "string",
          "name": "",
          "type": "string"
        }
      ],
      "stateMutability": "view",
      "type": "function"
    },
    {
      "inputs": [],
      "name": "symbol",
      "outputs": [
        {
          "internalType": "string",
          "name": "",
          "type": "string"
        }
      ],
      "stateMutability": "view",
      "type": "function"
    },
    {
      "inputs": [],
      "name": "totalSupply",
      "outputs": [
        {
          "internalType": "uint256",
          "name": "",
          "type": "uint256"
        }
      ],
      "stateMutability": "view",
      "type": "function"
    },
    {
      "inputs": [
        {
          "internalType": "address",
          "name": "to",
          "type": "address"
        },
        {
          "internalType": "uint256",
          "name": "amount",
          "type": "uint256"
        }
      ],
      "name": "transfer",
      "outputs": [
        {
          "internalType": "bool",
          "name": "",
          "type": "bool"
        }
      ],
      "stateMutability": "nonpayable",
      "type": "function"
    },
    {
      "inputs": [
        {
          "internalType": "address",
          "name": "from",
          "type": "address"
        },
        {
          "internalType": "address",
          "name": "to",
          "type": "address"
        },
        {
          "internalType": "uint256",
          "name": "amount",
          "type": "uint256"
        }
      ],
      "name": "transferFrom",
      "outputs": [
        {
          "internalType": "bool",
          "name": "",
          "type": "bool"
        }
      ],
      "stateMutability": "nonpayable",
      "type": "function"
    },
    {
      "inputs": [
        {
          "internalType": "bool",
          "name": "isRequestFromOwner",
          "type": "bool"
        },
        {
          "internalType": "address",
          "name": "spender",
          "type": "address"
        },
        {
          "internalType": "address",
          "name": "from",
          "type": "address"
        },
        {
          "internalType": "address",
          "name": "to",
          "type": "address"
        },
        {
          "internalType": "uint256",
          "name": "amount",
          "type": "uint256"
        }
      ],
      "name": "transferRequestFromHtsPrecompile",
      "outputs": [
        {
          "internalType": "int64",
          "name": "responseCode",
          "type": "int64"
        }
      ],
      "stateMutability": "nonpayable",
      "type": "function"
    }
  ],
  "bytecode": "0x60a06040523480156200001157600080fd5b5060405162002ac338038062002ac3833981016040819052620000349162000a3a565b8051518051602091820151815191929091620000579160039190850190620001c7565b5080516200006d906004906020840190620001c7565b505060405162aa54bd60e51b8152610167915063154a97a09062000098903390859060040162000f47565b600060405180830381600087803b158015620000b357600080fd5b505af1158015620000c8573d6000803e3d6000fd5b5050505060208181015160ff166080528151805160400151910151620000f99082906001600160401b031662000101565b5050620010c7565b6001600160a01b0382166200015c5760405162461bcd60e51b815260206004820152601f60248201527f45524332303a206d696e7420746f20746865207a65726f206164647265737300604482015260640160405180910390fd5b806002600082825462000170919062001063565b90915550506001600160a01b038216600081815260208181526040808320805486019055518481527fddf252ad1be2c89b69c2b068fc378daa952ba7f163c4a11628f55a4df523b3ef910160405180910390a35050565b828054620001d5906200108a565b90600052602060002090601f016020900481019282620001f9576000855562000244565b82601f106200021457805160ff191683800117855562000244565b8280016001018555821562000244579182015b828111156200024457825182559160200191906001019062000227565b506200025292915062000256565b5090565b5b8082111562000252576000815560010162000257565b634e487b7160e01b600052604160045260246000fd5b604080519081016001600160401b0381118282101715620002a857620002a86200026d565b60405290565b60405160a081016001600160401b0381118282101715620002a857620002a86200026d565b60405161012081016001600160401b0381118282101715620002a857620002a86200026d565b60405160c081016001600160401b0381118282101715620002a857620002a86200026d565b604051601f8201601f191681016001600160401b03811182821017156200034957620003496200026d565b604052919050565b60005b838110156200036e57818101518382015260200162000354565b838111156200037e576000848401525b50505050565b600082601f8301126200039657600080fd5b81516001600160401b03811115620003b257620003b26200026d565b620003c7601f8201601f19166020016200031e565b818152846020838601011115620003dd57600080fd5b620003f082602083016020870162000351565b949350505050565b80516001600160a01b03811681146200041057600080fd5b919050565b805180151581146200041057600080fd5b8051600781900b81146200041057600080fd5b60006001600160401b038211156200045557620004556200026d565b5060051b60200190565b600082601f8301126200047157600080fd5b815160206200048a620004848362000439565b6200031e565b82815260059290921b84018101918181019086841115620004aa57600080fd5b8286015b84811015620005d15780516001600160401b0380821115620004cf57600080fd5b908801906040601f19838c038101821315620004ea57600080fd5b620004f462000283565b88850151815282850151848111156200050c57600080fd5b949094019360a0858e0383011215620005255760008081fd5b6200052f620002ae565b91506200053e89860162000415565b82526200054d838601620003f8565b8983015260608086015185811115620005665760008081fd5b620005768f8c838a010162000384565b8585015250608093508386015185811115620005925760008081fd5b620005a28f8c838a010162000384565b828501525050620005b660a08601620003f8565b928201929092528188015285525050918301918301620004ae565b509695505050505050565b600060608284031215620005ef57600080fd5b604051606081016001600160401b03811182821017156200061457620006146200026d565b604052905080620006258362000426565b81526200063560208401620003f8565b6020820152620006486040840162000426565b60408201525092915050565b600061016082840312156200066857600080fd5b62000672620002d3565b82519091506001600160401b03808211156200068d57600080fd5b6200069b8583860162000384565b83526020840151915080821115620006b257600080fd5b620006c08583860162000384565b6020840152620006d360408501620003f8565b60408401526060840151915080821115620006ed57600080fd5b620006fb8583860162000384565b60608401526200070e6080850162000415565b60808401526200072160a0850162000426565b60a08401526200073460c0850162000415565b60c084015260e08401519150808211156200074e57600080fd5b506200075d848285016200045f565b60e0830152506101006200077484828501620005dc565b9082015292915050565b600082601f8301126200079057600080fd5b81516020620007a3620004848362000439565b82815260a09283028501820192828201919087851115620007c357600080fd5b8387015b85811015620008505781818a031215620007e15760008081fd5b620007eb620002ae565b620007f68262000426565b815262000805868301620003f8565b8682015260406200081881840162000415565b9082015260606200082b83820162000415565b9082015260806200083e838201620003f8565b908201528452928401928101620007c7565b5090979650505050505050565b600082601f8301126200086f57600080fd5b8151602062000882620004848362000439565b82815260c09283028501820192828201919087851115620008a257600080fd5b8387015b85811015620008505781818a031215620008c05760008081fd5b620008ca620002f9565b620008d58262000426565b8152620008e486830162000426565b868201526040620008f781840162000426565b9082015260606200090a83820162000426565b9082015260806200091d83820162000415565b9082015260a062000930838201620003f8565b908201528452928401928101620008a6565b600082601f8301126200095457600080fd5b8151602062000967620004848362000439565b82815260c092830285018201928282019190878511156200098757600080fd5b8387015b85811015620008505781818a031215620009a55760008081fd5b620009af620002f9565b620009ba8262000426565b8152620009c986830162000426565b868201526040620009dc81840162000426565b908201526060620009ef838201620003f8565b90820152608062000a0283820162000415565b9082015260a062000a15838201620003f8565b9082015284529284019281016200098b565b8051600381900b81146200041057600080fd5b60006020828403121562000a4d57600080fd5b81516001600160401b038082111562000a6557600080fd5b908301906040828603121562000a7a57600080fd5b62000a8462000283565b82518281111562000a9457600080fd5b8301610120818803121562000aa857600080fd5b62000ab2620002d3565b81518481111562000ac257600080fd5b62000ad08982850162000654565b82525062000ae16020830162000426565b602082015262000af46040830162000415565b604082015262000b076060830162000415565b606082015262000b1a6080830162000415565b608082015260a08201518481111562000b3257600080fd5b62000b40898285016200077e565b60a08301525060c08201518481111562000b5957600080fd5b62000b67898285016200085d565b60c08301525060e08201518481111562000b8057600080fd5b62000b8e8982850162000942565b60e083015250610100808301518581111562000ba957600080fd5b62000bb78a82860162000384565b828401525050808352505062000bd06020840162000a27565b602082015295945050505050565b6000815180845262000bf881602086016020860162000351565b601f01601f19169290920160200192915050565b6000815180845260208085019450848260051b860182860160005b858110156200085057838303895281516040815185528682015191508087860152815115158186015286820151606060018060a01b038083168289015283850151935060a09250608083818a015262000c8460e08a018662000bde565b92860151898403603f1901858b015292945062000ca2858462000bde565b9501511660c0979097019690965250509885019892509084019060010162000c27565b6000610160825181855262000cdd8286018262000bde565b9150506020830151848203602086015262000cf9828262000bde565b915050604083015162000d1760408601826001600160a01b03169052565b506060830151848203606086015262000d31828262000bde565b915050608083015162000d48608086018215159052565b5060a083015162000d5e60a086018260070b9052565b5060c083015162000d7360c086018215159052565b5060e083015184820360e086015262000d8d828262000c0c565b610100858101518051600790810b8984015260208201516001600160a01b03166101208a01526040820151900b61014089015291935091505090949350505050565b600081518084526020808501945080840160005b8381101562000e3e578151805160070b8852838101516001600160a01b03908116858a01526040808301511515908a01526060808301511515908a0152608091820151169088015260a0909601959082019060010162000de3565b509495945050505050565b600081518084526020808501945080840160005b8381101562000e3e5781518051600790810b895284820151810b858a0152604080830151820b908a015260608083015190910b9089015260808082015115159089015260a0908101516001600160a01b03169088015260c0909601959082019060010162000e5d565b600081518084526020808501945080840160005b8381101562000e3e5781518051600790810b895284820151810b858a015260408083015190910b908901526060808201516001600160a01b03908116918a01919091526080808301511515908a015260a091820151169088015260c0909601959082019060010162000eda565b60018060a01b03831681526040602082015260008251604080840152805161012080608086015262000f7e6101a086018362000cc5565b9150602083015162000f9560a087018260070b9052565b506040830151151560c08601526060830151151560e086015260808301518015156101008088019190915260a08501519150607f1980888603018489015262000fdf858462000dcf565b945060c08601519350808886030161014089015262000fff858562000e49565b945060e0860151935080888603016101608901526200101f858562000ec6565b945081860151955080888603016101808901525050505062001042818362000bde565b91505060208401516200105a606085018260030b9052565b50949350505050565b600082198211156200108557634e487b7160e01b600052601160045260246000fd5b500190565b600181811c908216806200109f57607f821691505b60208210811415620010c157634e487b7160e01b600052602260045260246000fd5b50919050565b6080516119e0620010e3600039600061018701526119e06000f3fe608060405234801561001057600080fd5b50600436106101005760003560e01c806370a0823111610097578063b59fc61911610066578063b59fc6191461022e578063b6ef1b5914610254578063cc98587814610267578063dd62ed3e1461026f57600080fd5b806370a08231146101d757806395d89b4114610200578063a457c2d714610208578063a9059cbb1461021b57600080fd5b806323b872dd116100d357806323b872dd1461016d578063313ce56714610180578063330ee0d4146101b157806339509351146101c457600080fd5b806303f5483b1461010557806306fdde031461011a578063095ea7b31461013857806318160ddd1461015b575b600080fd5b610118610113366004610eb2565b6102a8565b005b61012261038f565b60405161012f9190610f02565b60405180910390f35b61014b610146366004610f4a565b610421565b604051901515815260200161012f565b6002545b60405190815260200161012f565b61014b61017b366004610f76565b6104ed565b60405160ff7f000000000000000000000000000000000000000000000000000000000000000016815260200161012f565b6101186101bf366004610eb2565b6105c3565b61014b6101d2366004610f4a565b6106a0565b61015f6101e5366004610fb7565b6001600160a01b031660009081526020819052604090205490565b6101226106e9565b61014b610216366004610f4a565b6106f8565b61014b610229366004610f4a565b610795565b61024161023c366004610fe2565b610860565b60405160079190910b815260200161012f565b610118610262366004610f76565b6108cf565b61014b600181565b61015f61027d366004611046565b6001600160a01b03918216600090815260016020908152604080832093909416825291909152205490565b33610167146102f35760405162461bcd60e51b81526020600482015260126024820152714e4f545f4854535f505245434f4d50494c4560701b60448201526064015b60405180910390fd5b604051633f28a19b60e01b815230600482015260009061016790633f28a19b9060240160006040518083038186803b15801561032e57600080fd5b505afa158015610342573d6000803e3d6000fd5b505050506040513d6000823e601f3d908101601f1916820160405261036a9190810190611793565b80515160400151909250905061038a8167ffffffffffffffff8516610920565b505050565b60606003805461039e9061192c565b80601f01602080910402602001604051908101604052809291908181526020018280546103ca9061192c565b80156104175780601f106103ec57610100808354040283529160200191610417565b820191906000526020600020905b8154815290600101906020018083116103fa57829003601f168201915b5050505050905090565b60405163e459524960e01b81523360048201526001600160a01b03831660248201526044810182905260009081906101679063e459524990606401602060405180830381600087803b15801561047657600080fd5b505af115801561048a573d6000803e3d6000fd5b505050506040513d601f19601f820116820180604052508101906104ae9190611967565b9050600781900b6016146104db5760405163fbe0be3960e01b8152600782900b60048201526024016102ea565b6104e584846109df565b949350505050565b60405163a0ecee3360e01b81523360048201526001600160a01b038085166024830152831660448201526064810182905260009081906101679063a0ecee3390608401602060405180830381600087803b15801561054a57600080fd5b505af115801561055e573d6000803e3d6000fd5b505050506040513d601f19601f820116820180604052508101906105829190611967565b9050600781900b6016146105af5760405163fbe0be3960e01b8152600782900b60048201526024016102ea565b6105ba8585856109ed565b95945050505050565b33610167146106095760405162461bcd60e51b81526020600482015260126024820152714e4f545f4854535f505245434f4d50494c4560701b60448201526064016102ea565b604051633f28a19b60e01b815230600482015260009061016790633f28a19b9060240160006040518083038186803b15801561064457600080fd5b505afa158015610658573d6000803e3d6000fd5b505050506040513d6000823e601f3d908101601f191682016040526106809190810190611793565b80515160400151909250905061038a8167ffffffffffffffff8516610a06565b3360008181526001602090815260408083206001600160a01b03871684529091528120549091906106df90829086906106da908790611984565b610b38565b5060019392505050565b60606004805461039e9061192c565b3360008181526001602090815260408083206001600160a01b03871684529091528120549091908381101561077d5760405162461bcd60e51b815260206004820152602560248201527f45524332303a2064656372656173656420616c6c6f77616e63652062656c6f77604482015264207a65726f60d81b60648201526084016102ea565b61078a8286868403610b38565b506001949350505050565b60405163a0ecee3360e01b81526000600482018190523360248301526001600160a01b0384166044830152606482018390529081906101679063a0ecee3390608401602060405180830381600087803b1580156107f157600080fd5b505af1158015610805573d6000803e3d6000fd5b505050506040513d601f19601f820116820180604052508101906108299190611967565b9050600781900b6016146108565760405163fbe0be3960e01b8152600782900b60048201526024016102ea565b6104e58484610c5c565b600033610167146108a85760405162461bcd60e51b81526020600482015260126024820152714e4f545f4854535f505245434f4d50494c4560701b60448201526064016102ea565b856108b8576108b8848684610c6a565b6108c3848484610cfc565b50601695945050505050565b33610167146109155760405162461bcd60e51b81526020600482015260126024820152714e4f545f4854535f505245434f4d50494c4560701b60448201526064016102ea565b61038a838383610b38565b6001600160a01b0382166109765760405162461bcd60e51b815260206004820152601f60248201527f45524332303a206d696e7420746f20746865207a65726f20616464726573730060448201526064016102ea565b80600260008282546109889190611984565b90915550506001600160a01b038216600081815260208181526040808320805486019055518481527fddf252ad1be2c89b69c2b068fc378daa952ba7f163c4a11628f55a4df523b3ef910160405180910390a35050565b6000336106df818585610b38565b6000336109fb858285610c6a565b61078a858585610cfc565b6001600160a01b038216610a665760405162461bcd60e51b815260206004820152602160248201527f45524332303a206275726e2066726f6d20746865207a65726f206164647265736044820152607360f81b60648201526084016102ea565b6001600160a01b03821660009081526020819052604090205481811015610ada5760405162461bcd60e51b815260206004820152602260248201527f45524332303a206275726e20616d6f756e7420657863656564732062616c616e604482015261636560f01b60648201526084016102ea565b6001600160a01b0383166000818152602081815260408083208686039055600280548790039055518581529192917fddf252ad1be2c89b69c2b068fc378daa952ba7f163c4a11628f55a4df523b3ef910160405180910390a3505050565b6001600160a01b038316610b9a5760405162461bcd60e51b8152602060048201526024808201527f45524332303a20617070726f76652066726f6d20746865207a65726f206164646044820152637265737360e01b60648201526084016102ea565b6001600160a01b038216610bfb5760405162461bcd60e51b815260206004820152602260248201527f45524332303a20617070726f766520746f20746865207a65726f206164647265604482015261737360f01b60648201526084016102ea565b6001600160a01b0383811660008181526001602090815260408083209487168084529482529182902085905590518481527f8c5be1e5ebec7d5bd14f71427d1e84f3dd0314c0f7b2291e5b200ac8c7c3b925910160405180910390a3505050565b6000336106df818585610cfc565b6001600160a01b038381166000908152600160209081526040808320938616835292905220546000198114610cf65781811015610ce95760405162461bcd60e51b815260206004820152601d60248201527f45524332303a20696e73756666696369656e7420616c6c6f77616e636500000060448201526064016102ea565b610cf68484848403610b38565b50505050565b6001600160a01b038316610d605760405162461bcd60e51b815260206004820152602560248201527f45524332303a207472616e736665722066726f6d20746865207a65726f206164604482015264647265737360d81b60648201526084016102ea565b6001600160a01b038216610dc25760405162461bcd60e51b815260206004820152602360248201527f45524332303a207472616e7366657220746f20746865207a65726f206164647260448201526265737360e81b60648201526084016102ea565b6001600160a01b03831660009081526020819052604090205481811015610e3a5760405162461bcd60e51b815260206004820152602660248201527f45524332303a207472616e7366657220616d6f756e7420657863656564732062604482015265616c616e636560d01b60648201526084016102ea565b6001600160a01b03848116600081815260208181526040808320878703905593871680835291849020805487019055925185815290927fddf252ad1be2c89b69c2b068fc378daa952ba7f163c4a11628f55a4df523b3ef910160405180910390a3610cf6565b8060070b8114610eaf57600080fd5b50565b600060208284031215610ec457600080fd5b8135610ecf81610ea0565b9392505050565b60005b83811015610ef1578181015183820152602001610ed9565b83811115610cf65750506000910152565b6020815260008251806020840152610f21816040850160208701610ed6565b601f01601f19169190910160400192915050565b6001600160a01b0381168114610eaf57600080fd5b60008060408385031215610f5d57600080fd5b8235610f6881610f35565b946020939093013593505050565b600080600060608486031215610f8b57600080fd5b8335610f9681610f35565b92506020840135610fa681610f35565b929592945050506040919091013590565b600060208284031215610fc957600080fd5b8135610ecf81610f35565b8015158114610eaf57600080fd5b600080600080600060a08688031215610ffa57600080fd5b853561100581610fd4565b9450602086013561101581610f35565b9350604086013561102581610f35565b9250606086013561103581610f35565b949793965091946080013592915050565b6000806040838503121561105957600080fd5b823561106481610f35565b9150602083013561107481610f35565b809150509250929050565b805161108a81610ea0565b919050565b634e487b7160e01b600052604160045260246000fd5b6040805190810167ffffffffffffffff811182821017156110c8576110c861108f565b60405290565b60405160a0810167ffffffffffffffff811182821017156110c8576110c861108f565b604051610120810167ffffffffffffffff811182821017156110c8576110c861108f565b60405160c0810167ffffffffffffffff811182821017156110c8576110c861108f565b604051601f8201601f1916810167ffffffffffffffff811182821017156111615761116161108f565b604052919050565b600082601f83011261117a57600080fd5b815167ffffffffffffffff8111156111945761119461108f565b6111a7601f8201601f1916602001611138565b8181528460208386010111156111bc57600080fd5b6104e5826020830160208701610ed6565b805161108a81610f35565b805161108a81610fd4565b600067ffffffffffffffff8211156111fd576111fd61108f565b5060051b60200190565b600082601f83011261121857600080fd5b8151602061122d611228836111e3565b611138565b82815260059290921b8401810191818101908684111561124c57600080fd5b8286015b8481101561136257805167ffffffffffffffff8082111561127057600080fd5b908801906040601f19838c03810182131561128a57600080fd5b6112926110a5565b88850151815282850151848111156112a957600080fd5b949094019360a0858e03830112156112c15760008081fd5b6112c96110ce565b9150888501516112d881610fd4565b8252848301516112e781610f35565b828a0152606085810151858111156112ff5760008081fd5b61130d8f8c838a0101611169565b85850152506080935083860151858111156113285760008081fd5b6113368f8c838a0101611169565b82850152505061134860a086016111cd565b928201929092528188015285525050918301918301611250565b509695505050505050565b60006060828403121561137f57600080fd5b6040516060810181811067ffffffffffffffff821117156113a2576113a261108f565b806040525080915082516113b581610ea0565b815260208301516113c581610f35565b602082015260408301516113d881610ea0565b6040919091015292915050565b600061016082840312156113f857600080fd5b6114006110f1565b9050815167ffffffffffffffff8082111561141a57600080fd5b61142685838601611169565b8352602084015191508082111561143c57600080fd5b61144885838601611169565b6020840152611459604085016111cd565b6040840152606084015191508082111561147257600080fd5b61147e85838601611169565b606084015261148f608085016111d8565b60808401526114a060a0850161107f565b60a08401526114b160c085016111d8565b60c084015260e08401519150808211156114ca57600080fd5b506114d784828501611207565b60e0830152506101006114ec8482850161136d565b9082015292915050565b600082601f83011261150757600080fd5b81516020611517611228836111e3565b82815260a0928302850182019282820191908785111561153657600080fd5b8387015b858110156115be5781818a0312156115525760008081fd5b61155a6110ce565b815161156581610ea0565b81528186015161157481610f35565b8187015260408281015161158781610fd4565b9082015260608281015161159a81610fd4565b908201526080828101516115ad81610f35565b90820152845292840192810161153a565b5090979650505050505050565b600082601f8301126115dc57600080fd5b815160206115ec611228836111e3565b82815260c0928302850182019282820191908785111561160b57600080fd5b8387015b858110156115be5781818a0312156116275760008081fd5b61162f611115565b815161163a81610ea0565b81528186015161164981610ea0565b8187015260408281015161165c81610ea0565b9082015260608281015161166f81610ea0565b9082015260808281015161168281610fd4565b9082015260a08281015161169581610f35565b90820152845292840192810161160f565b600082601f8301126116b757600080fd5b815160206116c7611228836111e3565b82815260c092830285018201928282019190878511156116e657600080fd5b8387015b858110156115be5781818a0312156117025760008081fd5b61170a611115565b815161171581610ea0565b81528186015161172481610ea0565b8187015260408281015161173781610ea0565b9082015260608281015161174a81610f35565b9082015260808281015161175d81610fd4565b9082015260a08281015161177081610f35565b9082015284529284019281016116ea565b8051600381900b811461108a57600080fd5b600080604083850312156117a657600080fd5b82516117b181610ea0565b602084015190925067ffffffffffffffff808211156117cf57600080fd5b90840190604082870312156117e357600080fd5b6117eb6110a5565b8251828111156117fa57600080fd5b8301610120818903121561180d57600080fd5b6118156110f1565b81518481111561182457600080fd5b6118308a8285016113e5565b82525061183f6020830161107f565b6020820152611850604083016111d8565b6040820152611861606083016111d8565b6060820152611872608083016111d8565b608082015260a08201518481111561188957600080fd5b6118958a8285016114f6565b60a08301525060c0820151848111156118ad57600080fd5b6118b98a8285016115cb565b60c08301525060e0820151848111156118d157600080fd5b6118dd8a8285016116a6565b60e08301525061010080830151858111156118f757600080fd5b6119038b828601611169565b828401525050808352505061191a60208401611781565b60208201528093505050509250929050565b600181811c9082168061194057607f821691505b6020821081141561196157634e487b7160e01b600052602260045260246000fd5b50919050565b60006020828403121561197957600080fd5b8151610ecf81610ea0565b600082198211156119a557634e487b7160e01b600052601160045260246000fd5b50019056fea2646970667358221220a52695fb3ad49d300b2715fd48812f589b5b0a212fcebe399a091064a99f84f564736f6c63430008090033",
  "linkReferences": {},
  "deployedLinkReferences": {}
}