{
  "_format": "hh-sol-artifact-1",
  "contractName": "ContractCreatorOZCreate2",
  "sourceName": "contracts/openzeppelin/create2/ContractCreatorOZCreate2.sol",
  "abi": [
    {
      "inputs": [],
      "stateMutability": "payable",
      "type": "constructor"
    },
    {
      "inputs": [],
      "name": "Create2EmptyBytecode",
      "type": "error"
    },
    {
      "inputs": [],
      "name": "Create2FailedDeployment",
      "type": "error"
    },
    {
      "inputs": [
        {
          "internalType": "uint256",
          "name": "balance",
          "type": "uint256"
        },
        {
          "internalType": "uint256",
          "name": "needed",
          "type": "uint256"
        }
      ],
      "name": "Create2InsufficientBalance",
      "type": "error"
    },
    {
      "anonymous": false,
      "inputs": [
        {
          "indexed": false,
          "internalType": "address",
          "name": "addr",
          "type": "address"
        }
      ],
      "name": "NewContractDeployedAt",
      "type": "event"
    },
    {
      "inputs": [
        {
          "internalType": "uint256",
          "name": "salt",
          "type": "uint256"
        },
        {
          "internalType": "bytes32",
          "name": "bytecodeHash",
          "type": "bytes32"
        }
      ],
      "name": "computeAddress",
      "outputs": [
        {
          "internalType": "address",
          "name": "addr",
          "type": "address"
        }
      ],
      "stateMutability": "view",
      "type": "function"
    },
    {
      "inputs": [
        {
          "internalType": "uint256",
          "name": "amount",
          "type": "uint256"
        },
        {
          "internalType": "uint256",
          "name": "salt",
          "type": "uint256"
        },
        {
          "internalType": "bytes",
          "name": "bytecode",
          "type": "bytes"
        }
      ],
      "name": "deploy",
      "outputs": [],
      "stateMutability": "nonpayable",
      "type": "function"
    }
  ],
  "bytecode": "0x60806040526102d1806100136000396000f3fe608060405234801561001057600080fd5b50600436106100365760003560e01c806366b24bdf1461003b578063b2255ea21461006a575b600080fd5b61004e61004936600461019f565b61007f565b6040516001600160a01b03909116815260200160405180910390f35b61007d6100783660046101d7565b610092565b005b600061008b83836100e4565b9392505050565b600061009f8484846100f1565b6040516001600160a01b03821681529091507f4622a5a13cef67b7d240d8e6e0599fc0b5ef7893aa06e147dc08a9da69946b769060200160405180910390a150505050565b600061008b838330610175565b6000834710156101215760405163392efb2b60e21b81524760048201526024810185905260440160405180910390fd5b815160000361014357604051631328927760e21b815260040160405180910390fd5b8282516020840186f590506001600160a01b03811661008b57604051633a0ba96160e11b815260040160405180910390fd5b6000604051836040820152846020820152828152600b8101905060ff815360559020949350505050565b600080604083850312156101b257600080fd5b50508035926020909101359150565b634e487b7160e01b600052604160045260246000fd5b6000806000606084860312156101ec57600080fd5b8335925060208401359150604084013567ffffffffffffffff8082111561021257600080fd5b818601915086601f83011261022657600080fd5b813581811115610238576102386101c1565b604051601f8201601f19908116603f01168101908382118183101715610260576102606101c1565b8160405282815289602084870101111561027957600080fd5b826020860160208301376000602084830101528095505050505050925092509256fea264697066735822122019b4c1385c1fdef80789634a10a3c2b17211854c8e40f3ca3642ff229533813964736f6c63430008170033",
  "linkReferences": {},
  "deployedLinkReferences": {}
}