{
  "_format": "hh-sol-artifact-1",
  "contractName": "Sender",
  "sourceName": "contracts/solidity/encoding/Sender.sol",
  "abi": [
    {
      "inputs": [
        {
          "internalType": "address",
          "name": "_receiver",
          "type": "address"
        }
      ],
      "stateMutability": "nonpayable",
      "type": "constructor"
    },
    {
      "inputs": [],
      "name": "receiver",
      "outputs": [
        {
          "internalType": "contract Receiver",
          "name": "",
          "type": "address"
        }
      ],
      "stateMutability": "view",
      "type": "function"
    },
    {
      "inputs": [
        {
          "internalType": "uint256",
          "name": "data",
          "type": "uint256"
        }
      ],
      "name": "sendDataEncodeCall",
      "outputs": [],
      "stateMutability": "nonpayable",
      "type": "function"
    },
    {
      "inputs": [
        {
          "internalType": "uint256",
          "name": "data",
          "type": "uint256"
        }
      ],
      "name": "sendDataEncodeWithSignature",
      "outputs": [],
      "stateMutability": "nonpayable",
      "type": "function"
    }
  ],
  "bytecode": "0x608060405234801561001057600080fd5b506040516103cb3803806103cb83398101604081905261002f91610054565b600080546001600160a01b0319166001600160a01b0392909216919091179055610084565b60006020828403121561006657600080fd5b81516001600160a01b038116811461007d57600080fd5b9392505050565b610338806100936000396000f3fe608060405234801561001057600080fd5b50600436106100415760003560e01c80631cf2bc5014610046578063ad365da41461005b578063f7260d3e1461006e575b600080fd5b6100596100543660046102ba565b61009d565b005b6100596100693660046102ba565b6101c0565b600054610081906001600160a01b031681565b6040516001600160a01b03909116815260200160405180910390f35b6000816040516024016100b291815260200190565b60408051601f198184030181529181526020820180516001600160e01b031663de947c8560e01b179052600080549151929350916001600160a01b03909116906100fd9084906102d3565b6000604051808303816000865af19150503d806000811461013a576040519150601f19603f3d011682016040523d82523d6000602084013e61013f565b606091505b50509050806101bb5760405162461bcd60e51b815260206004820152603260248201527f45787465726e616c2063616c6c207573696e67206162692e656e636f6465576960448201527f74685369676e6174757265206661696c6564000000000000000000000000000060648201526084015b60405180910390fd5b505050565b6000805460408051602480820186905282518083039091018152604490910182526020810180516001600160e01b031663de947c8560e01b17905290519092916001600160a01b0316906102159084906102d3565b6000604051808303816000865af19150503d8060008114610252576040519150601f19603f3d011682016040523d82523d6000602084013e610257565b606091505b50509050806101bb5760405162461bcd60e51b815260206004820152602960248201527f45787465726e616c2063616c6c207573696e67206162692e656e636f646543616044820152681b1b0819985a5b195960ba1b60648201526084016101b2565b6000602082840312156102cc57600080fd5b5035919050565b6000825160005b818110156102f457602081860181015185830152016102da565b50600092019182525091905056fea26469706673582212207c81608768ddf376bfad92af1fb07a2ffad778212c2582209d583fe5c164876764736f6c63430008170033",
  "linkReferences": {},
  "deployedLinkReferences": {}
}