{
  "_format": "hh-sol-artifact-1",
  "contractName": "ExampleHtsFungibleToken",
  "sourceName": "contracts/system-contracts/hedera-token-service/native-token/examples/ExampleHtsFungibleToken.sol",
  "abi": [
    {
      "inputs": [
        {
          "internalType": "string",
          "name": "name",
          "type": "string"
        },
        {
          "internalType": "string",
          "name": "symbol",
          "type": "string"
        },
        {
          "internalType": "int64",
          "name": "_initialTotalSupply",
          "type": "int64"
        },
        {
          "internalType": "uint8",
          "name": "_decimals",
          "type": "uint8"
        }
      ],
      "stateMutability": "payable",
      "type": "constructor"
    },
    {
      "anonymous": false,
      "inputs": [
        {
          "indexed": true,
          "internalType": "address",
          "name": "owner",
          "type": "address"
        },
        {
          "indexed": true,
          "internalType": "address",
          "name": "spender",
          "type": "address"
        },
        {
          "indexed": false,
          "internalType": "uint256",
          "name": "value",
          "type": "uint256"
        }
      ],
      "name": "Approval",
      "type": "event"
    },
    {
      "anonymous": false,
      "inputs": [
        {
          "indexed": false,
          "internalType": "address",
          "name": "tokenAddress",
          "type": "address"
        },
        {
          "indexed": false,
          "internalType": "address",
          "name": "creatorAddress",
          "type": "address"
        }
      ],
      "name": "TokenCreated",
      "type": "event"
    },
    {
      "anonymous": false,
      "inputs": [
        {
          "indexed": true,
          "internalType": "address",
          "name": "from",
          "type": "address"
        },
        {
          "indexed": true,
          "internalType": "address",
          "name": "to",
          "type": "address"
        },
        {
          "indexed": false,
          "internalType": "uint256",
          "name": "value",
          "type": "uint256"
        }
      ],
      "name": "Transfer",
      "type": "event"
    },
    {
      "inputs": [
        {
          "internalType": "address",
          "name": "owner",
          "type": "address"
        },
        {
          "internalType": "address",
          "name": "spender",
          "type": "address"
        }
      ],
      "name": "allowance",
      "outputs": [
        {
          "internalType": "uint256",
          "name": "",
          "type": "uint256"
        }
      ],
      "stateMutability": "view",
      "type": "function"
    },
    {
      "inputs": [
        {
          "internalType": "address",
          "name": "spender",
          "type": "address"
        },
        {
          "internalType": "uint256",
          "name": "amount",
          "type": "uint256"
        }
      ],
      "name": "approve",
      "outputs": [
        {
          "internalType": "bool",
          "name": "",
          "type": "bool"
        }
      ],
      "stateMutability": "nonpayable",
      "type": "function"
    },
    {
      "inputs": [
        {
          "internalType": "address",
          "name": "account",
          "type": "address"
        }
      ],
      "name": "balanceOf",
      "outputs": [
        {
          "internalType": "uint256",
          "name": "",
          "type": "uint256"
        }
      ],
      "stateMutability": "view",
      "type": "function"
    },
    {
      "inputs": [],
      "name": "decimals",
      "outputs": [
        {
          "internalType": "uint8",
          "name": "",
          "type": "uint8"
        }
      ],
      "stateMutability": "view",
      "type": "function"
    },
    {
      "inputs": [],
      "name": "getFungibleTokenInfo",
      "outputs": [
        {
          "internalType": "int64",
          "name": "responseCode",
          "type": "int64"
        },
        {
          "components": [
            {
              "components": [
                {
                  "components": [
                    {
                      "internalType": "string",
                      "name": "name",
                      "type": "string"
                    },
                    {
                      "internalType": "string",
                      "name": "symbol",
                      "type": "string"
                    },
                    {
                      "internalType": "address",
                      "name": "treasury",
                      "type": "address"
                    },
                    {
                      "internalType": "string",
                      "name": "memo",
                      "type": "string"
                    },
                    {
                      "internalType": "bool",
                      "name": "tokenSupplyType",
                      "type": "bool"
                    },
                    {
                      "internalType": "int64",
                      "name": "maxSupply",
                      "type": "int64"
                    },
                    {
                      "internalType": "bool",
                      "name": "freezeDefault",
                      "type": "bool"
                    },
                    {
                      "components": [
                        {
                          "internalType": "uint256",
                          "name": "keyType",
                          "type": "uint256"
                        },
                        {
                          "components": [
                            {
                              "internalType": "bool",
                              "name": "inheritAccountKey",
                              "type": "bool"
                            },
                            {
                              "internalType": "address",
                              "name": "contractId",
                              "type": "address"
                            },
                            {
                              "internalType": "bytes",
                              "name": "ed25519",
                              "type": "bytes"
                            },
                            {
                              "internalType": "bytes",
                              "name": "ECDSA_secp256k1",
                              "type": "bytes"
                            },
                            {
                              "internalType": "address",
                              "name": "delegatableContractId",
                              "type": "address"
                            }
                          ],
                          "internalType": "struct IHTSStructs.KeyValue",
                          "name": "key",
                          "type": "tuple"
                        }
                      ],
                      "internalType": "struct IHTSStructs.TokenKey[]",
                      "name": "tokenKeys",
                      "type": "tuple[]"
                    },
                    {
                      "components": [
                        {
                          "internalType": "int64",
                          "name": "second",
                          "type": "int64"
                        },
                        {
                          "internalType": "address",
                          "name": "autoRenewAccount",
                          "type": "address"
                        },
                        {
                          "internalType": "int64",
                          "name": "autoRenewPeriod",
                          "type": "int64"
                        }
                      ],
                      "internalType": "struct IHTSStructs.Expiry",
                      "name": "expiry",
                      "type": "tuple"
                    }
                  ],
                  "internalType": "struct IHTSStructs.HederaToken",
                  "name": "token",
                  "type": "tuple"
                },
                {
                  "internalType": "int64",
                  "name": "totalSupply",
                  "type": "int64"
                },
                {
                  "internalType": "bool",
                  "name": "deleted",
                  "type": "bool"
                },
                {
                  "internalType": "bool",
                  "name": "defaultKycStatus",
                  "type": "bool"
                },
                {
                  "internalType": "bool",
                  "name": "pauseStatus",
                  "type": "bool"
                },
                {
                  "components": [
                    {
                      "internalType": "int64",
                      "name": "amount",
                      "type": "int64"
                    },
                    {
                      "internalType": "address",
                      "name": "tokenId",
                      "type": "address"
                    },
                    {
                      "internalType": "bool",
                      "name": "useHbarsForPayment",
                      "type": "bool"
                    },
                    {
                      "internalType": "bool",
                      "name": "useCurrentTokenForPayment",
                      "type": "bool"
                    },
                    {
                      "internalType": "address",
                      "name": "feeCollector",
                      "type": "address"
                    }
                  ],
                  "internalType": "struct IHTSStructs.FixedFee[]",
                  "name": "fixedFees",
                  "type": "tuple[]"
                },
                {
                  "components": [
                    {
                      "internalType": "int64",
                      "name": "numerator",
                      "type": "int64"
                    },
                    {
                      "internalType": "int64",
                      "name": "denominator",
                      "type": "int64"
                    },
                    {
                      "internalType": "int64",
                      "name": "minimumAmount",
                      "type": "int64"
                    },
                    {
                      "internalType": "int64",
                      "name": "maximumAmount",
                      "type": "int64"
                    },
                    {
                      "internalType": "bool",
                      "name": "netOfTransfers",
                      "type": "bool"
                    },
                    {
                      "internalType": "address",
                      "name": "feeCollector",
                      "type": "address"
                    }
                  ],
                  "internalType": "struct IHTSStructs.FractionalFee[]",
                  "name": "fractionalFees",
                  "type": "tuple[]"
                },
                {
                  "components": [
                    {
                      "internalType": "int64",
                      "name": "numerator",
                      "type": "int64"
                    },
                    {
                      "internalType": "int64",
                      "name": "denominator",
                      "type": "int64"
                    },
                    {
                      "internalType": "int64",
                      "name": "amount",
                      "type": "int64"
                    },
                    {
                      "internalType": "address",
                      "name": "tokenId",
                      "type": "address"
                    },
                    {
                      "internalType": "bool",
                      "name": "useHbarsForPayment",
                      "type": "bool"
                    },
                    {
                      "internalType": "address",
                      "name": "feeCollector",
                      "type": "address"
                    }
                  ],
                  "internalType": "struct IHTSStructs.RoyaltyFee[]",
                  "name": "royaltyFees",
                  "type": "tuple[]"
                },
                {
                  "internalType": "string",
                  "name": "ledgerId",
                  "type": "string"
                }
              ],
              "internalType": "struct IHTSStructs.TokenInfo",
              "name": "tokenInfo",
              "type": "tuple"
            },
            {
              "internalType": "int32",
              "name": "decimals",
              "type": "int32"
            }
          ],
          "internalType": "struct IHTSStructs.FungibleTokenInfo",
          "name": "fungibleTokenInfo",
          "type": "tuple"
        }
      ],
      "stateMutability": "nonpayable",
      "type": "function"
    },
    {
      "inputs": [],
      "name": "htsTokenAddress",
      "outputs": [
        {
          "internalType": "address",
          "name": "",
          "type": "address"
        }
      ],
      "stateMutability": "view",
      "type": "function"
    },
    {
      "inputs": [],
      "name": "name",
      "outputs": [
        {
          "internalType": "string",
          "name": "",
          "type": "string"
        }
      ],
      "stateMutability": "view",
      "type": "function"
    },
    {
      "inputs": [],
      "name": "symbol",
      "outputs": [
        {
          "internalType": "string",
          "name": "",
          "type": "string"
        }
      ],
      "stateMutability": "view",
      "type": "function"
    },
    {
      "inputs": [],
      "name": "totalSupply",
      "outputs": [
        {
          "internalType": "uint256",
          "name": "",
          "type": "uint256"
        }
      ],
      "stateMutability": "view",
      "type": "function"
    },
    {
      "inputs": [
        {
          "internalType": "address",
          "name": "recipient",
          "type": "address"
        },
        {
          "internalType": "uint256",
          "name": "amount",
          "type": "uint256"
        }
      ],
      "name": "transfer",
      "outputs": [
        {
          "internalType": "bool",
          "name": "",
          "type": "bool"
        }
      ],
      "stateMutability": "nonpayable",
      "type": "function"
    },
    {
      "inputs": [
        {
          "internalType": "address",
          "name": "sender",
          "type": "address"
        },
        {
          "internalType": "address",
          "name": "recipient",
          "type": "address"
        },
        {
          "internalType": "uint256",
          "name": "amount",
          "type": "uint256"
        }
      ],
      "name": "transferFrom",
      "outputs": [
        {
          "internalType": "bool",
          "name": "",
          "type": "bool"
        }
      ],
      "stateMutability": "nonpayable",
      "type": "function"
    }
  ],
  "bytecode": "0x60806040526040516200200338038062002003833981016040819052620000269162000549565b600160208181527fa6eef7e35abe7026729641147f7915573c7e97b47efa546f5f6e3230263bcb499190915560027fcc69885fda6bcc1a4ace058b4a62bf5e179ea78fd58a1ccd71c22cc9b688792f5560047fd9d16d34ffb15ba3a3d852f0d403e2ce1d691fb54de27ac87cd2f993f3ec330f5560087f7dfe757ecd65cbd7922a9c0161e935dd7fdbcc0e999689c7d31633896b1fc60b5560107fedc95719e9a3b28dd8e80877cb5880a9be7de1a13fc8b05e7999683b6b567643557fe2689cd4a84e23ad2f564004f1c9013e9589d260bde6380aba3ca7e09e4df40c5560065f5260407f8f331abe73332f95a25873e8b430885974c0409691f89d643119a11623a7924a55838383836200013e848484846200014c565b505050505050505062000876565b5f620001598585620002f6565b90505f806101676001600160a01b031634630fb65bf360e01b8588886040516024016200018993929190620006dc565b60408051601f198184030181529181526020820180516001600160e01b03166001600160e01b0319909416939093179092529051620001c991906200080e565b5f6040518083038185875af1925050503d805f811462000205576040519150601f19603f3d011682016040523d82523d5f602084013e6200020a565b606091505b50915091505f8083620002205760155f62000236565b828060200190518101906200023691906200082b565b915060030b9150601660030b8214620002955760405162461bcd60e51b815260206004820152601a60248201527f4661696c656420746f206372656174652048545320746f6b656e000000000000604482015260640160405180910390fd5b600280546001600160a01b0319166001600160a01b038316908117909155604080519182523060208301527fd5f9bdf12adf29dab0248c349842c3822d53ae2bb4f36352f301630d018c8139910160405180910390a1505050505050505050565b6200035c6040805161012081018252606080825260208083018290525f8385018190528284018390526080840181905260a0840181905260c0840181905260e0840183905284519283018552808352908201819052928101929092529061010082015290565b604080515f808252602082019092528162000390565b6200037c6200042e565b815260200190600190039081620003725790505b5060408051606080820183525f808352306020808501829052627a1200858701528551610120810187529a8b528a810199909952898501528351808501909452601984527f48747346756e6769626c65546f6b656e206372656174696f6e00000000000000978401979097528701919091526001608087015261138860a087015260c086019490945260e0850152505061010082015290565b905290565b60405180604001604052805f8152602001620004296040518060a001604052805f151581526020015f6001600160a01b0316815260200160608152602001606081526020015f6001600160a01b031681525090565b634e487b7160e01b5f52604160045260245ffd5b5f5b83811015620004b357818101518382015260200162000499565b50505f910152565b5f82601f830112620004cb575f80fd5b81516001600160401b0380821115620004e857620004e862000483565b604051601f8301601f19908116603f0116810190828211818310171562000513576200051362000483565b816040528381528660208588010111156200052c575f80fd5b6200053f84602083016020890162000497565b9695505050505050565b5f805f80608085870312156200055d575f80fd5b84516001600160401b038082111562000574575f80fd5b6200058288838901620004bb565b9550602087015191508082111562000598575f80fd5b50620005a787828801620004bb565b93505060408501518060070b8114620005be575f80fd5b606086015190925060ff81168114620005d5575f80fd5b939692955090935050565b5f8151808452620005f981602086016020860162000497565b601f01601f19169290920160200192915050565b5f82825180855260208086019550808260051b8401018186015f5b84811015620006cf57858303601f1901895281518051845284015160408585018190528151151581860152818601516001600160a01b039081166060808801919091529183015160a060808089018290529193909290916200068e60e08a0186620005e0565b92860151898403603f1901858b0152929450620006ac8584620005e0565b9501511660c0979097019690965250509884019892509083019060010162000628565b5090979650505050505050565b606081525f8451610160806060850152620006fc6101c0850183620005e0565b91506020870151605f19808685030160808701526200071c8483620005e0565b9350604089015191506200073b60a08701836001600160a01b03169052565b60608901519150808685030160c0870152620007588483620005e0565b9350608089015191506200077060e087018315159052565b60a08901519150610100620007898188018460070b9052565b60c08a0151151561012088015260e08a015187860383016101408901529250620007b485846200060d565b9450808a015192505050620007ef828601828051600790810b83526020808301516001600160a01b031690840152604091820151900b910152565b5050600785900b6020840152905060ff83166040830152949350505050565b5f82516200082181846020870162000497565b9190910192915050565b5f80604083850312156200083d575f80fd5b82518060030b81146200084e575f80fd5b60208401519092506001600160a01b03811681146200086b575f80fd5b809150509250929050565b61177f80620008845f395ff3fe608060405234801561000f575f80fd5b50600436106100b5575f3560e01c8063537664871161007d57806395d89b411161005857806395d89b4114610191578063a9059cbb14610199578063dd62ed3e146101ac575f80fd5b8063537664871461013d57806370a08231146101535780637796c47714610166575f80fd5b806306fdde03146100b9578063095ea7b3146100d757806318160ddd146100fa57806323b872dd14610110578063313ce56714610123575b5f80fd5b6100c16101bf565b6040516100ce919061094c565b60405180910390f35b6100ea6100e5366004610975565b610232565b60405190151581526020016100ce565b610102610328565b6040519081526020016100ce565b6100ea61011e36600461099f565b610393565b61012b610497565b60405160ff90911681526020016100ce565b610145610502565b6040516100ce929190610d12565b610102610161366004610e1c565b61062f565b600254610179906001600160a01b031681565b6040516001600160a01b0390911681526020016100ce565b6100c16106a1565b6100ea6101a7366004610975565b6106e8565b6101026101ba366004610e37565b6107d2565b600254604080516306fdde0360e01b815290516060926001600160a01b0316916306fdde03916004808301925f9291908290030181865afa158015610206573d5f803e3d5ffd5b505050506040513d5f823e601f3d908101601f1916820160405261022d9190810190610fa7565b905090565b6002546040516001600160a01b038481166024830152604482018490525f92839291169060640160408051601f198184030181529181526020820180516001600160e01b031663095ea7b360e01b1790525161028e9190610fd9565b5f60405180830381855af49150503d805f81146102c6576040519150601f19603f3d011682016040523d82523d5f602084013e6102cb565b606091505b50509050806103215760405162461bcd60e51b815260206004820152601c60248201527f44656c656761746520617070726f76652063616c6c206661696c65640000000060448201526064015b60405180910390fd5b9392505050565b600254604080516318160ddd60e01b815290515f926001600160a01b0316916318160ddd9160048083019260209291908290030181865afa15801561036f573d5f803e3d5ffd5b505050506040513d601f19601f8201168201806040525081019061022d9190610ff4565b6002546040516001600160a01b0385811660248301528481166044830152606482018490525f92839291169060840160408051601f198184030181529181526020820180516001600160e01b03166323b872dd60e01b179052516103f79190610fd9565b5f60405180830381855af49150503d805f811461042f576040519150601f19603f3d011682016040523d82523d5f602084013e610434565b606091505b505090508061048f5760405162461bcd60e51b815260206004820152602160248201527f44656c6567617465207472616e7366657246726f6d2063616c6c206661696c656044820152601960fa1b6064820152608401610318565b949350505050565b6002546040805163313ce56760e01b815290515f926001600160a01b03169163313ce5679160048083019260209291908290030181865afa1580156104de573d5f803e3d5ffd5b505050506040513d601f19601f8201168201806040525081019061022d919061100b565b5f61050b610846565b600254604080516001600160a01b0390921660248084019190915281518084039091018152604490920181526020820180516001600160e01b0316633f28a19b60e01b179052515f9182916101679161056391610fd9565b5f604051808303815f865af19150503d805f811461059c576040519150601f19603f3d011682016040523d82523d5f602084013e6105a1565b606091505b50915091506105ae610846565b826105bb576015816105cf565b818060200190518101906105cf91906115be565b9095509350600785900b6016146106285760405162461bcd60e51b815260206004820181905260248201527f4854533a2067657446756e6769626c65546f6b656e496e666f206661696c65646044820152606401610318565b5050509091565b6002546040516370a0823160e01b81526001600160a01b0383811660048301525f9216906370a0823190602401602060405180830381865afa158015610677573d5f803e3d5ffd5b505050506040513d601f19601f8201168201806040525081019061069b9190610ff4565b92915050565b600254604080516395d89b4160e01b815290516060926001600160a01b0316916395d89b41916004808301925f9291908290030181865afa158015610206573d5f803e3d5ffd5b6002546040516001600160a01b038481166024830152604482018490525f92839291169060640160408051601f198184030181529181526020820180516001600160e01b031663a9059cbb60e01b179052516107449190610fd9565b5f60405180830381855af49150503d805f811461077c576040519150601f19603f3d011682016040523d82523d5f602084013e610781565b606091505b50509050806103215760405162461bcd60e51b815260206004820152601d60248201527f44656c6567617465207472616e736665722063616c6c206661696c65640000006044820152606401610318565b600254604051636eb1769f60e11b81526001600160a01b03848116600483015283811660248301525f92169063dd62ed3e90604401602060405180830381865afa158015610822573d5f803e3d5ffd5b505050506040513d601f19601f820116820180604052508101906103219190610ff4565b60408051610280810182526060610160820181815261018083018290525f6101a084018190526101c084018390526101e0840181905261020084018190526102208401819052610240840183905284518084018652818152602081018290528086018290526102608501529383019081528183018490526080830184905260a0830184905260c083019390935260e082018190526101008201819052610120820181905261014082015290819081525f60209091015290565b5f5b83811015610919578181015183820152602001610901565b50505f910152565b5f81518084526109388160208601602086016108ff565b601f01601f19169290920160200192915050565b602081525f6103216020830184610921565b6001600160a01b0381168114610972575f80fd5b50565b5f8060408385031215610986575f80fd5b82356109918161095e565b946020939093013593505050565b5f805f606084860312156109b1575f80fd5b83356109bc8161095e565b925060208401356109cc8161095e565b929592945050506040919091013590565b5f82825180855260208086019550808260051b8401018186015f5b84811015610a9557601f198684030189528151604081518552858201519150808686015281511515818601528582015160606001600160a01b038083168289015283850151935060a09250608083818a0152610a5760e08a0186610921565b92860151898403603f1901858b0152929450610a738584610921565b9501511660c097909701969096525050988401989250908301906001016109f8565b5090979650505050505050565b5f6101608251818552610ab782860182610921565b91505060208301518482036020860152610ad18282610921565b9150506040830151610aee60408601826001600160a01b03169052565b5060608301518482036060860152610b068282610921565b9150506080830151610b1c608086018215159052565b5060a0830151610b3160a086018260070b9052565b5060c0830151610b4560c086018215159052565b5060e083015184820360e0860152610b5d82826109dd565b91505061010080840151610b9982870182805160070b82526001600160a01b036020820151166020830152604081015160070b60408301525050565b5090949350505050565b5f815180845260208085019450602084015f5b83811015610c0f578151805160070b8852838101516001600160a01b03908116858a01526040808301511515908a01526060808301511515908a0152608091820151169088015260a09096019590820190600101610bb6565b509495945050505050565b5f815180845260208085019450602084015f5b83811015610c0f5781518051600790810b895284820151810b858a0152604080830151820b908a015260608083015190910b9089015260808082015115159089015260a0908101516001600160a01b03169088015260c09096019590820190600101610c2d565b5f815180845260208085019450602084015f5b83811015610c0f5781518051600790810b895284820151810b858a015260408083015190910b908901526060808201516001600160a01b03908116918a01919091526080808301511515908a015260a091820151169088015260c09096019590820190600101610ca7565b8260070b8152604060208201525f82516040808401528051610120806080860152610d416101a0860183610aa2565b91506020830151610d5760a087018260070b9052565b506040830151151560c08601526060830151151560e086015260808301518015156101008088019190915260a08501519150607f19808886030184890152610d9f8584610ba3565b945060c086015193508088860301610140890152610dbd8585610c1a565b945060e086015193508088860301610160890152610ddb8585610c94565b9450818601519550808886030161018089015250505050610dfc8183610921565b9150506020840151610e13606085018260030b9052565b50949350505050565b5f60208284031215610e2c575f80fd5b81356103218161095e565b5f8060408385031215610e48575f80fd5b8235610e538161095e565b91506020830135610e638161095e565b809150509250929050565b634e487b7160e01b5f52604160045260245ffd5b6040805190810167ffffffffffffffff81118282101715610ea557610ea5610e6e565b60405290565b60405160a0810167ffffffffffffffff81118282101715610ea557610ea5610e6e565b604051610120810167ffffffffffffffff81118282101715610ea557610ea5610e6e565b60405160c0810167ffffffffffffffff81118282101715610ea557610ea5610e6e565b604051601f8201601f1916810167ffffffffffffffff81118282101715610f3e57610f3e610e6e565b604052919050565b5f82601f830112610f55575f80fd5b815167ffffffffffffffff811115610f6f57610f6f610e6e565b610f82601f8201601f1916602001610f15565b818152846020838601011115610f96575f80fd5b61048f8260208301602087016108ff565b5f60208284031215610fb7575f80fd5b815167ffffffffffffffff811115610fcd575f80fd5b61048f84828501610f46565b5f8251610fea8184602087016108ff565b9190910192915050565b5f60208284031215611004575f80fd5b5051919050565b5f6020828403121561101b575f80fd5b815160ff81168114610321575f80fd5b8051600781900b811461103c575f80fd5b919050565b805161103c8161095e565b8051801515811461103c575f80fd5b5f67ffffffffffffffff82111561107457611074610e6e565b5060051b60200190565b5f82601f83011261108d575f80fd5b815160206110a261109d8361105b565b610f15565b82815260059290921b840181019181810190868411156110c0575f80fd5b8286015b848110156111d157805167ffffffffffffffff808211156110e3575f80fd5b908801906040601f19838c0381018213156110fc575f80fd5b611104610e82565b888501518152828501518481111561111a575f80fd5b949094019360a0858e0383011215611130575f80fd5b611138610eab565b915061114589860161104c565b8252828501516111548161095e565b828a01526060858101518581111561116a575f80fd5b6111788f8c838a0101610f46565b8585015250608093508386015185811115611191575f80fd5b61119f8f8c838a0101610f46565b82850152505060a085015194506111b58561095e565b91810193909352808701929092525083529183019183016110c4565b509695505050505050565b5f606082840312156111ec575f80fd5b6040516060810181811067ffffffffffffffff8211171561120f5761120f610e6e565b60405290508061121e8361102b565b8152602083015161122e8161095e565b602082015261123f6040840161102b565b60408201525092915050565b5f610160828403121561125c575f80fd5b611264610ece565b9050815167ffffffffffffffff8082111561127d575f80fd5b61128985838601610f46565b8352602084015191508082111561129e575f80fd5b6112aa85838601610f46565b60208401526112bb60408501611041565b604084015260608401519150808211156112d3575f80fd5b6112df85838601610f46565b60608401526112f06080850161104c565b608084015261130160a0850161102b565b60a084015261131260c0850161104c565b60c084015260e084015191508082111561132a575f80fd5b506113378482850161107e565b60e08301525061010061134c848285016111dc565b9082015292915050565b5f82601f830112611365575f80fd5b8151602061137561109d8361105b565b82815260a09283028501820192828201919087851115611393575f80fd5b8387015b85811015610a955781818a0312156113ad575f80fd5b6113b5610eab565b6113be8261102b565b8152858201516113cd8161095e565b8187015260406113de83820161104c565b9082015260606113ef83820161104c565b908201526080828101516114028161095e565b908201528452928401928101611397565b5f82601f830112611422575f80fd5b8151602061143261109d8361105b565b82815260c09283028501820192828201919087851115611450575f80fd5b8387015b85811015610a955781818a03121561146a575f80fd5b611472610ef2565b61147b8261102b565b815261148886830161102b565b86820152604061149981840161102b565b9082015260606114aa83820161102b565b9082015260806114bb83820161104c565b9082015260a0828101516114ce8161095e565b908201528452928401928101611454565b5f82601f8301126114ee575f80fd5b815160206114fe61109d8361105b565b82815260c0928302850182019282820191908785111561151c575f80fd5b8387015b85811015610a955781818a031215611536575f80fd5b61153e610ef2565b6115478261102b565b815261155486830161102b565b86820152604061156581840161102b565b908201526060828101516115788161095e565b90820152608061158983820161104c565b9082015260a08281015161159c8161095e565b908201528452928401928101611520565b8051600381900b811461103c575f80fd5b5f80604083850312156115cf575f80fd5b6115d88361102b565b9150602083015167ffffffffffffffff808211156115f4575f80fd5b9084019060408287031215611607575f80fd5b61160f610e82565b82518281111561161d575f80fd5b8301610120818903121561162f575f80fd5b611637610ece565b815184811115611645575f80fd5b6116518a82850161124b565b8252506116606020830161102b565b60208201526116716040830161104c565b60408201526116826060830161104c565b60608201526116936080830161104c565b608082015260a0820151848111156116a9575f80fd5b6116b58a828501611356565b60a08301525060c0820151848111156116cc575f80fd5b6116d88a828501611413565b60c08301525060e0820151848111156116ef575f80fd5b6116fb8a8285016114df565b60e0830152506101008083015185811115611714575f80fd5b6117208b828601610f46565b8284015250508083525050611737602084016115ad565b6020820152809350505050925092905056fea2646970667358221220e7edc0126f6f0e18fcf5ada5b8de27b59b04b818d7fe9493179362aa8b3d083b64736f6c63430008180033",
  "linkReferences": {},
  "deployedLinkReferences": {}
}