{
  "_format": "hh-sol-artifact-1",
  "contractName": "ExampleHtsFungibleToken",
  "sourceName": "contracts/system-contracts/hedera-token-service/native-token/examples/ExampleHtsFungibleToken.sol",
  "abi": [
    {
      "inputs": [
        {
          "internalType": "string",
          "name": "name",
          "type": "string"
        },
        {
          "internalType": "string",
          "name": "symbol",
          "type": "string"
        },
        {
          "internalType": "int64",
          "name": "_initialTotalSupply",
          "type": "int64"
        },
        {
          "internalType": "uint8",
          "name": "_decimals",
          "type": "uint8"
        }
      ],
      "stateMutability": "payable",
      "type": "constructor"
    },
    {
      "anonymous": false,
      "inputs": [
        {
          "indexed": true,
          "internalType": "address",
          "name": "owner",
          "type": "address"
        },
        {
          "indexed": true,
          "internalType": "address",
          "name": "spender",
          "type": "address"
        },
        {
          "indexed": false,
          "internalType": "uint256",
          "name": "value",
          "type": "uint256"
        }
      ],
      "name": "Approval",
      "type": "event"
    },
    {
      "anonymous": false,
      "inputs": [
        {
          "indexed": false,
          "internalType": "address",
          "name": "tokenAddress",
          "type": "address"
        },
        {
          "indexed": false,
          "internalType": "address",
          "name": "creatorAddress",
          "type": "address"
        }
      ],
      "name": "TokenCreated",
      "type": "event"
    },
    {
      "anonymous": false,
      "inputs": [
        {
          "indexed": true,
          "internalType": "address",
          "name": "from",
          "type": "address"
        },
        {
          "indexed": true,
          "internalType": "address",
          "name": "to",
          "type": "address"
        },
        {
          "indexed": false,
          "internalType": "uint256",
          "name": "value",
          "type": "uint256"
        }
      ],
      "name": "Transfer",
      "type": "event"
    },
    {
      "inputs": [
        {
          "internalType": "address",
          "name": "owner",
          "type": "address"
        },
        {
          "internalType": "address",
          "name": "spender",
          "type": "address"
        }
      ],
      "name": "allowance",
      "outputs": [
        {
          "internalType": "uint256",
          "name": "",
          "type": "uint256"
        }
      ],
      "stateMutability": "view",
      "type": "function"
    },
    {
      "inputs": [
        {
          "internalType": "address",
          "name": "spender",
          "type": "address"
        },
        {
          "internalType": "uint256",
          "name": "amount",
          "type": "uint256"
        }
      ],
      "name": "approve",
      "outputs": [
        {
          "internalType": "bool",
          "name": "",
          "type": "bool"
        }
      ],
      "stateMutability": "nonpayable",
      "type": "function"
    },
    {
      "inputs": [
        {
          "internalType": "address",
          "name": "account",
          "type": "address"
        }
      ],
      "name": "balanceOf",
      "outputs": [
        {
          "internalType": "uint256",
          "name": "",
          "type": "uint256"
        }
      ],
      "stateMutability": "view",
      "type": "function"
    },
    {
      "inputs": [],
      "name": "decimals",
      "outputs": [
        {
          "internalType": "uint8",
          "name": "",
          "type": "uint8"
        }
      ],
      "stateMutability": "view",
      "type": "function"
    },
    {
      "inputs": [],
      "name": "htsTokenAddress",
      "outputs": [
        {
          "internalType": "address",
          "name": "",
          "type": "address"
        }
      ],
      "stateMutability": "view",
      "type": "function"
    },
    {
      "inputs": [],
      "name": "name",
      "outputs": [
        {
          "internalType": "string",
          "name": "",
          "type": "string"
        }
      ],
      "stateMutability": "view",
      "type": "function"
    },
    {
      "inputs": [],
      "name": "symbol",
      "outputs": [
        {
          "internalType": "string",
          "name": "",
          "type": "string"
        }
      ],
      "stateMutability": "view",
      "type": "function"
    },
    {
      "inputs": [],
      "name": "totalSupply",
      "outputs": [
        {
          "internalType": "uint256",
          "name": "",
          "type": "uint256"
        }
      ],
      "stateMutability": "view",
      "type": "function"
    },
    {
      "inputs": [
        {
          "internalType": "address",
          "name": "recipient",
          "type": "address"
        },
        {
          "internalType": "uint256",
          "name": "amount",
          "type": "uint256"
        }
      ],
      "name": "transfer",
      "outputs": [
        {
          "internalType": "bool",
          "name": "",
          "type": "bool"
        }
      ],
      "stateMutability": "nonpayable",
      "type": "function"
    },
    {
      "inputs": [
        {
          "internalType": "address",
          "name": "sender",
          "type": "address"
        },
        {
          "internalType": "address",
          "name": "recipient",
          "type": "address"
        },
        {
          "internalType": "uint256",
          "name": "amount",
          "type": "uint256"
        }
      ],
      "name": "transferFrom",
      "outputs": [
        {
          "internalType": "bool",
          "name": "",
          "type": "bool"
        }
      ],
      "stateMutability": "nonpayable",
      "type": "function"
    }
  ],
  "bytecode": "0x6080604052604051620011cb380380620011cb833981016040819052620000269162000549565b600160208181527fa6eef7e35abe7026729641147f7915573c7e97b47efa546f5f6e3230263bcb499190915560027fcc69885fda6bcc1a4ace058b4a62bf5e179ea78fd58a1ccd71c22cc9b688792f5560047fd9d16d34ffb15ba3a3d852f0d403e2ce1d691fb54de27ac87cd2f993f3ec330f5560087f7dfe757ecd65cbd7922a9c0161e935dd7fdbcc0e999689c7d31633896b1fc60b5560107fedc95719e9a3b28dd8e80877cb5880a9be7de1a13fc8b05e7999683b6b567643557fe2689cd4a84e23ad2f564004f1c9013e9589d260bde6380aba3ca7e09e4df40c5560065f5260407f8f331abe73332f95a25873e8b430885974c0409691f89d643119a11623a7924a55838383836200013e848484846200014c565b505050505050505062000876565b5f620001598585620002f6565b90505f806101676001600160a01b031634630fb65bf360e01b8588886040516024016200018993929190620006dc565b60408051601f198184030181529181526020820180516001600160e01b03166001600160e01b0319909416939093179092529051620001c991906200080e565b5f6040518083038185875af1925050503d805f811462000205576040519150601f19603f3d011682016040523d82523d5f602084013e6200020a565b606091505b50915091505f8083620002205760155f62000236565b828060200190518101906200023691906200082b565b915060030b9150601660030b8214620002955760405162461bcd60e51b815260206004820152601a60248201527f4661696c656420746f206372656174652048545320746f6b656e000000000000604482015260640160405180910390fd5b600280546001600160a01b0319166001600160a01b038316908117909155604080519182523060208301527fd5f9bdf12adf29dab0248c349842c3822d53ae2bb4f36352f301630d018c8139910160405180910390a1505050505050505050565b6200035c6040805161012081018252606080825260208083018290525f8385018190528284018390526080840181905260a0840181905260c0840181905260e0840183905284519283018552808352908201819052928101929092529061010082015290565b604080515f808252602082019092528162000390565b6200037c6200042e565b815260200190600190039081620003725790505b5060408051606080820183525f808352306020808501829052627a1200858701528551610120810187529a8b528a810199909952898501528351808501909452601984527f48747346756e6769626c65546f6b656e206372656174696f6e00000000000000978401979097528701919091526001608087015261138860a087015260c086019490945260e0850152505061010082015290565b905290565b60405180604001604052805f8152602001620004296040518060a001604052805f151581526020015f6001600160a01b0316815260200160608152602001606081526020015f6001600160a01b031681525090565b634e487b7160e01b5f52604160045260245ffd5b5f5b83811015620004b357818101518382015260200162000499565b50505f910152565b5f82601f830112620004cb575f80fd5b81516001600160401b0380821115620004e857620004e862000483565b604051601f8301601f19908116603f0116810190828211818310171562000513576200051362000483565b816040528381528660208588010111156200052c575f80fd5b6200053f84602083016020890162000497565b9695505050505050565b5f805f80608085870312156200055d575f80fd5b84516001600160401b038082111562000574575f80fd5b6200058288838901620004bb565b9550602087015191508082111562000598575f80fd5b50620005a787828801620004bb565b93505060408501518060070b8114620005be575f80fd5b606086015190925060ff81168114620005d5575f80fd5b939692955090935050565b5f8151808452620005f981602086016020860162000497565b601f01601f19169290920160200192915050565b5f82825180855260208086019550808260051b8401018186015f5b84811015620006cf57858303601f1901895281518051845284015160408585018190528151151581860152818601516001600160a01b039081166060808801919091529183015160a060808089018290529193909290916200068e60e08a0186620005e0565b92860151898403603f1901858b0152929450620006ac8584620005e0565b9501511660c0979097019690965250509884019892509083019060010162000628565b5090979650505050505050565b606081525f8451610160806060850152620006fc6101c0850183620005e0565b91506020870151605f19808685030160808701526200071c8483620005e0565b9350604089015191506200073b60a08701836001600160a01b03169052565b60608901519150808685030160c0870152620007588483620005e0565b9350608089015191506200077060e087018315159052565b60a08901519150610100620007898188018460070b9052565b60c08a0151151561012088015260e08a015187860383016101408901529250620007b485846200060d565b9450808a015192505050620007ef828601828051600790810b83526020808301516001600160a01b031690840152604091820151900b910152565b5050600785900b6020840152905060ff83166040830152949350505050565b5f82516200082181846020870162000497565b9190910192915050565b5f80604083850312156200083d575f80fd5b82518060030b81146200084e575f80fd5b60208401519092506001600160a01b03811681146200086b575f80fd5b809150509250929050565b61094780620008845f395ff3fe608060405234801561000f575f80fd5b506004361061009b575f3560e01c806370a082311161006357806370a08231146101235780637796c4771461013657806395d89b4114610161578063a9059cbb14610169578063dd62ed3e1461017c575f80fd5b806306fdde031461009f578063095ea7b3146100bd57806318160ddd146100e057806323b872dd146100f6578063313ce56714610109575b5f80fd5b6100a761018f565b6040516100b4919061070b565b60405180910390f35b6100d06100cb366004610758565b610202565b60405190151581526020016100b4565b6100e86102f8565b6040519081526020016100b4565b6100d0610104366004610780565b610363565b610111610467565b60405160ff90911681526020016100b4565b6100e86101313660046107b9565b6104d2565b600254610149906001600160a01b031681565b6040516001600160a01b0390911681526020016100b4565b6100a7610544565b6100d0610177366004610758565b61058b565b6100e861018a3660046107d2565b610675565b600254604080516306fdde0360e01b815290516060926001600160a01b0316916306fdde03916004808301925f9291908290030181865afa1580156101d6573d5f803e3d5ffd5b505050506040513d5f823e601f3d908101601f191682016040526101fd9190810190610817565b905090565b6002546040516001600160a01b038481166024830152604482018490525f92839291169060640160408051601f198184030181529181526020820180516001600160e01b031663095ea7b360e01b1790525161025e91906108bf565b5f60405180830381855af49150503d805f8114610296576040519150601f19603f3d011682016040523d82523d5f602084013e61029b565b606091505b50509050806102f15760405162461bcd60e51b815260206004820152601c60248201527f44656c656761746520617070726f76652063616c6c206661696c65640000000060448201526064015b60405180910390fd5b9392505050565b600254604080516318160ddd60e01b815290515f926001600160a01b0316916318160ddd9160048083019260209291908290030181865afa15801561033f573d5f803e3d5ffd5b505050506040513d601f19601f820116820180604052508101906101fd91906108da565b6002546040516001600160a01b0385811660248301528481166044830152606482018490525f92839291169060840160408051601f198184030181529181526020820180516001600160e01b03166323b872dd60e01b179052516103c791906108bf565b5f60405180830381855af49150503d805f81146103ff576040519150601f19603f3d011682016040523d82523d5f602084013e610404565b606091505b505090508061045f5760405162461bcd60e51b815260206004820152602160248201527f44656c6567617465207472616e7366657246726f6d2063616c6c206661696c656044820152601960fa1b60648201526084016102e8565b949350505050565b6002546040805163313ce56760e01b815290515f926001600160a01b03169163313ce5679160048083019260209291908290030181865afa1580156104ae573d5f803e3d5ffd5b505050506040513d601f19601f820116820180604052508101906101fd91906108f1565b6002546040516370a0823160e01b81526001600160a01b0383811660048301525f9216906370a0823190602401602060405180830381865afa15801561051a573d5f803e3d5ffd5b505050506040513d601f19601f8201168201806040525081019061053e91906108da565b92915050565b600254604080516395d89b4160e01b815290516060926001600160a01b0316916395d89b41916004808301925f9291908290030181865afa1580156101d6573d5f803e3d5ffd5b6002546040516001600160a01b038481166024830152604482018490525f92839291169060640160408051601f198184030181529181526020820180516001600160e01b031663a9059cbb60e01b179052516105e791906108bf565b5f60405180830381855af49150503d805f811461061f576040519150601f19603f3d011682016040523d82523d5f602084013e610624565b606091505b50509050806102f15760405162461bcd60e51b815260206004820152601d60248201527f44656c6567617465207472616e736665722063616c6c206661696c656400000060448201526064016102e8565b600254604051636eb1769f60e11b81526001600160a01b03848116600483015283811660248301525f92169063dd62ed3e90604401602060405180830381865afa1580156106c5573d5f803e3d5ffd5b505050506040513d601f19601f820116820180604052508101906102f191906108da565b5f5b838110156107035781810151838201526020016106eb565b50505f910152565b602081525f82518060208401526107298160408501602087016106e9565b601f01601f19169190910160400192915050565b80356001600160a01b0381168114610753575f80fd5b919050565b5f8060408385031215610769575f80fd5b6107728361073d565b946020939093013593505050565b5f805f60608486031215610792575f80fd5b61079b8461073d565b92506107a96020850161073d565b9150604084013590509250925092565b5f602082840312156107c9575f80fd5b6102f18261073d565b5f80604083850312156107e3575f80fd5b6107ec8361073d565b91506107fa6020840161073d565b90509250929050565b634e487b7160e01b5f52604160045260245ffd5b5f60208284031215610827575f80fd5b815167ffffffffffffffff8082111561083e575f80fd5b818401915084601f830112610851575f80fd5b81518181111561086357610863610803565b604051601f8201601f19908116603f0116810190838211818310171561088b5761088b610803565b816040528281528760208487010111156108a3575f80fd5b6108b48360208301602088016106e9565b979650505050505050565b5f82516108d08184602087016106e9565b9190910192915050565b5f602082840312156108ea575f80fd5b5051919050565b5f60208284031215610901575f80fd5b815160ff811681146102f1575f80fdfea26469706673582212200adf6cb61202373b25947c56d87078831b46cf197485fe908475dfc0fd47005864736f6c63430008180033",
  "linkReferences": {},
  "deployedLinkReferences": {}
}