{
  "_format": "hh-sol-artifact-1",
  "contractName": "MulticallTest",
  "sourceName": "contracts/solidity/oz/multicall/MulticallTest.sol",
  "abi": [
    {
      "inputs": [
        {
          "internalType": "address",
          "name": "target",
          "type": "address"
        }
      ],
      "name": "AddressEmptyCode",
      "type": "error"
    },
    {
      "inputs": [],
      "name": "FailedInnerCall",
      "type": "error"
    },
    {
      "inputs": [],
      "name": "bar",
      "outputs": [
        {
          "internalType": "uint256",
          "name": "",
          "type": "uint256"
        }
      ],
      "stateMutability": "pure",
      "type": "function"
    },
    {
      "inputs": [],
      "name": "foo",
      "outputs": [
        {
          "internalType": "uint256",
          "name": "",
          "type": "uint256"
        }
      ],
      "stateMutability": "pure",
      "type": "function"
    },
    {
      "inputs": [
        {
          "internalType": "bytes[]",
          "name": "data",
          "type": "bytes[]"
        }
      ],
      "name": "multicall",
      "outputs": [
        {
          "internalType": "bytes[]",
          "name": "results",
          "type": "bytes[]"
        }
      ],
      "stateMutability": "nonpayable",
      "type": "function"
    }
  ],
  "bytecode": "0x608060405234801561001057600080fd5b50610485806100206000396000f3fe608060405234801561001057600080fd5b50600436106100415760003560e01c8063ac9650d814610046578063c29855781461006f578063febb0f7e14610080575b600080fd5b61005961005436600461027f565b610088565b6040516100669190610318565b60405180910390f35b607b5b604051908152602001610066565b6101c8610072565b60608167ffffffffffffffff8111156100a3576100a3610392565b6040519080825280602002602001820160405280156100d657816020015b60608152602001906001900390816100c15790505b50905060005b8281101561017657610146308585848181106100fa576100fa6103a8565b905060200281019061010c91906103be565b8080601f01602080910402602001604051908101604052809392919081815260200183838082843760009201919091525061017d92505050565b828281518110610158576101586103a8565b6020026020010181905250808061016e9061040c565b9150506100dc565b5092915050565b6060600080846001600160a01b03168460405161019a9190610433565b600060405180830381855af49150503d80600081146101d5576040519150601f19603f3d011682016040523d82523d6000602084013e6101da565b606091505b50915091506101ea8583836101f3565b95945050505050565b6060826102085761020382610256565b61024f565b815115801561021f57506001600160a01b0384163b155b1561024c57604051639996b31560e01b81526001600160a01b038516600482015260240160405180910390fd5b50805b9392505050565b8051156102665780518082602001fd5b604051630a12f52160e11b815260040160405180910390fd5b6000806020838503121561029257600080fd5b823567ffffffffffffffff808211156102aa57600080fd5b818501915085601f8301126102be57600080fd5b8135818111156102cd57600080fd5b8660208260051b85010111156102e257600080fd5b60209290920196919550909350505050565b60005b8381101561030f5781810151838201526020016102f7565b50506000910152565b6000602080830181845280855180835260408601915060408160051b870101925083870160005b8281101561038557878503603f1901845281518051808752610366818989018a85016102f4565b601f01601f19169590950186019450928501929085019060010161033f565b5092979650505050505050565b634e487b7160e01b600052604160045260246000fd5b634e487b7160e01b600052603260045260246000fd5b6000808335601e198436030181126103d557600080fd5b83018035915067ffffffffffffffff8211156103f057600080fd5b60200191503681900382131561040557600080fd5b9250929050565b60006001820161042c57634e487b7160e01b600052601160045260246000fd5b5060010190565b600082516104458184602087016102f4565b919091019291505056fea2646970667358221220e43f82350a4ebf3f26c0c9ee357870a284b890dd6fdca19354530678077dd09b64736f6c63430008140033",
  "linkReferences": {},
  "deployedLinkReferences": {}
}