{
  "_format": "hh-sol-artifact-1",
  "contractName": "AccountCreator",
  "sourceName": "contracts/AccountCreator.sol",
  "abi": [
    {
      "inputs": [],
      "stateMutability": "payable",
      "type": "constructor"
    },
    {
      "inputs": [
        {
          "internalType": "address",
          "name": "account",
          "type": "address"
        }
      ],
      "name": "send",
      "outputs": [],
      "stateMutability": "nonpayable",
      "type": "function"
    }
  ],
  "bytecode": "0x60806040526102c2806100136000396000f3fe608060405234801561001057600080fd5b506004361061002b5760003560e01c80633e58c58c14610030575b600080fd5b61004a60048036038101906100459190610167565b61004c565b005b6000808273ffffffffffffffffffffffffffffffffffffffff166001604051610074906101c5565b60006040518083038185875af1925050503d80600081146100b1576040519150601f19603f3d011682016040523d82523d6000602084013e6100b6565b606091505b50915091508181906100fe576040517f08c379a00000000000000000000000000000000000000000000000000000000081526004016100f5919061026a565b60405180910390fd5b50505050565b600080fd5b600073ffffffffffffffffffffffffffffffffffffffff82169050919050565b600061013482610109565b9050919050565b61014481610129565b811461014f57600080fd5b50565b6000813590506101618161013b565b92915050565b60006020828403121561017d5761017c610104565b5b600061018b84828501610152565b91505092915050565b600081905092915050565b50565b60006101af600083610194565b91506101ba8261019f565b600082019050919050565b60006101d0826101a2565b9150819050919050565b600081519050919050565b600082825260208201905092915050565b60005b838110156102145780820151818401526020810190506101f9565b60008484015250505050565b6000601f19601f8301169050919050565b600061023c826101da565b61024681856101e5565b93506102568185602086016101f6565b61025f81610220565b840191505092915050565b600060208201905081810360008301526102848184610231565b90509291505056fea26469706673582212200cf7ca834479a1d306db78039afa4971ad7c875511cec92082633fcc54517c4664736f6c63430008140033",
  "linkReferences": {},
  "deployedLinkReferences": {}
}