{
  "_format": "hh-sol-artifact-1",
  "contractName": "Recipient",
  "sourceName": "contracts/solidity/address/Recipient.sol",
  "abi": [
    {
      "anonymous": false,
      "inputs": [
        {
          "indexed": false,
          "internalType": "string",
          "name": "message",
          "type": "string"
        }
      ],
      "name": "emitMessage",
      "type": "event"
    },
    {
      "anonymous": false,
      "inputs": [
        {
          "indexed": false,
          "internalType": "uint256",
          "name": "value",
          "type": "uint256"
        }
      ],
      "name": "msgValue",
      "type": "event"
    },
    {
      "stateMutability": "payable",
      "type": "fallback"
    },
    {
      "inputs": [],
      "name": "getMessageValue",
      "outputs": [],
      "stateMutability": "payable",
      "type": "function"
    },
    {
      "inputs": [],
      "name": "getNumber",
      "outputs": [
        {
          "internalType": "uint256",
          "name": "",
          "type": "uint256"
        }
      ],
      "stateMutability": "view",
      "type": "function"
    },
    {
      "inputs": [],
      "name": "helloWorldMessage",
      "outputs": [],
      "stateMutability": "nonpayable",
      "type": "function"
    },
    {
      "inputs": [
        {
          "internalType": "uint256",
          "name": "number",
          "type": "uint256"
        }
      ],
      "name": "setNumber",
      "outputs": [
        {
          "internalType": "uint256",
          "name": "",
          "type": "uint256"
        }
      ],
      "stateMutability": "nonpayable",
      "type": "function"
    },
    {
      "stateMutability": "payable",
      "type": "receive"
    }
  ],
  "bytecode": "0x60e060405260246080818152906103c060a03960009061001f90826100d8565b50600560015534801561003157600080fd5b50610197565b634e487b7160e01b600052604160045260246000fd5b600181811c9082168061006157607f821691505b60208210810361008157634e487b7160e01b600052602260045260246000fd5b50919050565b601f8211156100d3576000816000526020600020601f850160051c810160208610156100b05750805b601f850160051c820191505b818110156100cf578281556001016100bc565b5050505b505050565b81516001600160401b038111156100f1576100f1610037565b610105816100ff845461004d565b84610087565b602080601f83116001811461013a57600084156101225750858301515b600019600386901b1c1916600185901b1785556100cf565b600085815260208120601f198616915b828110156101695788860151825594840194600190910190840161014a565b50858210156101875787850151600019600388901b60f8161c191681555b5050505050600190811b01905550565b61021a806101a66000396000f3fe6080604052600436106100405760003560e01c80630d4338c5146100495780633fb5c1cb1461005e57806347d52d8614610093578063f2c9ecd81461009b57005b3661004757005b005b34801561005557600080fd5b506100476100b0565b34801561006a57600080fd5b5061008161007936600461011a565b600181905590565b60405190815260200160405180910390f35b6100476100ea565b3480156100a757600080fd5b50600154610081565b7f2ac0df268fee898104e78f20fc0b367a6e70bb768abe66416d8abe610a4db4fa60006040516100e09190610133565b60405180910390a1565b6040513481527fd2a4a115e44d827cc90973a0da436ad43ba8327115362b19ab8667db236c1e20906020016100e0565b60006020828403121561012c57600080fd5b5035919050565b60006020808352600084548160018260011c9150600183168061015757607f831692505b60208310810361017557634e487b7160e01b85526022600452602485fd5b602088018390526040880181801561019457600181146101aa576101d5565b60ff198616825284151560051b820196506101d5565b60008b81526020902060005b868110156101cf578154848201529085019089016101b6565b83019750505b5094999850505050505050505056fea2646970667358221220439ef709682a0eadbb6622ac8dd90f1ea6ffe0976bbc0717cd83882643dd2c4764736f6c6343000817003348656c6c6f20576f726c642066726f6d20526563697069656e7420636f6e747261637421",
  "linkReferences": {},
  "deployedLinkReferences": {}
}