{
  "_format": "hh-sol-artifact-1",
  "contractName": "Recipient",
  "sourceName": "contracts/solidity/address/Recipient.sol",
  "abi": [
    {
      "anonymous": false,
      "inputs": [
        {
          "indexed": false,
          "internalType": "string",
          "name": "message",
          "type": "string"
        }
      ],
      "name": "emitMessage",
      "type": "event"
    },
    {
      "anonymous": false,
      "inputs": [
        {
          "indexed": false,
          "internalType": "uint256",
          "name": "value",
          "type": "uint256"
        }
      ],
      "name": "msgValue",
      "type": "event"
    },
    {
      "stateMutability": "payable",
      "type": "fallback"
    },
    {
      "inputs": [],
      "name": "getMessageValue",
      "outputs": [],
      "stateMutability": "payable",
      "type": "function"
    },
    {
      "inputs": [],
      "name": "getNumber",
      "outputs": [
        {
          "internalType": "uint256",
          "name": "",
          "type": "uint256"
        }
      ],
      "stateMutability": "view",
      "type": "function"
    },
    {
      "inputs": [],
      "name": "helloWorldMessage",
      "outputs": [],
      "stateMutability": "nonpayable",
      "type": "function"
    },
    {
      "inputs": [
        {
          "internalType": "uint256",
          "name": "number",
          "type": "uint256"
        }
      ],
      "name": "setNumber",
      "outputs": [
        {
          "internalType": "uint256",
          "name": "",
          "type": "uint256"
        }
      ],
      "stateMutability": "nonpayable",
      "type": "function"
    },
    {
      "stateMutability": "payable",
      "type": "receive"
    }
  ],
  "bytecode": "0x60e060405260246080818152906103b960a03960009061001f90826100d6565b50600560015534801561003157600080fd5b50610195565b634e487b7160e01b600052604160045260246000fd5b600181811c9082168061006157607f821691505b60208210810361008157634e487b7160e01b600052602260045260246000fd5b50919050565b601f8211156100d157600081815260208120601f850160051c810160208610156100ae5750805b601f850160051c820191505b818110156100cd578281556001016100ba565b5050505b505050565b81516001600160401b038111156100ef576100ef610037565b610103816100fd845461004d565b84610087565b602080601f83116001811461013857600084156101205750858301515b600019600386901b1c1916600185901b1785556100cd565b600085815260208120601f198616915b8281101561016757888601518255948401946001909101908401610148565b50858210156101855787850151600019600388901b60f8161c191681555b5050505050600190811b01905550565b610215806101a46000396000f3fe6080604052600436106100405760003560e01c80630d4338c5146100495780633fb5c1cb1461005e57806347d52d8614610093578063f2c9ecd81461009b57005b3661004757005b005b34801561005557600080fd5b506100476100b0565b34801561006a57600080fd5b5061008161007936600461011a565b600181905590565b60405190815260200160405180910390f35b6100476100ea565b3480156100a757600080fd5b50600154610081565b7f2ac0df268fee898104e78f20fc0b367a6e70bb768abe66416d8abe610a4db4fa60006040516100e09190610133565b60405180910390a1565b6040513481527fd2a4a115e44d827cc90973a0da436ad43ba8327115362b19ab8667db236c1e20906020016100e0565b60006020828403121561012c57600080fd5b5035919050565b600060208083526000845481600182811c91508083168061015557607f831692505b858310810361017257634e487b7160e01b85526022600452602485fd5b87860183815260200181801561018f57600181146101a5576101d0565b60ff198616825284151560051b820196506101d0565b60008b81526020902060005b868110156101ca578154848201529085019089016101b1565b83019750505b5094999850505050505050505056fea264697066735822122011c4b7c86ce9d6cbca4bc13cd4ef9bbc46e49c19cc0f337fc2adb94d38a28b2764736f6c6343000814003348656c6c6f20576f726c642066726f6d20526563697069656e7420636f6e747261637421",
  "linkReferences": {},
  "deployedLinkReferences": {}
}