{
  "_format": "hh-sol-artifact-1",
  "contractName": "AssignmentReferenceTypes",
  "sourceName": "contracts/solidity/assignments/AssignmentReferenceTypes.sol",
  "abi": [
    {
      "inputs": [],
      "name": "getSomeArray",
      "outputs": [
        {
          "internalType": "uint256[5]",
          "name": "",
          "type": "uint256[5]"
        }
      ],
      "stateMutability": "view",
      "type": "function"
    },
    {
      "inputs": [],
      "name": "testAssignmentOfReferenceTypes",
      "outputs": [],
      "stateMutability": "nonpayable",
      "type": "function"
    }
  ],
  "bytecode": "0x61012060405260016080908152600260a052600360c052600460e052600561010081905261002f91600091610042565b5034801561003c57600080fd5b5061009a565b8260058101928215610075579160200282015b82811115610075578251829060ff16905591602001919060010190610055565b50610081929150610085565b5090565b5b808211156100815760008155600101610086565b610165806100a96000396000f3fe608060405234801561001057600080fd5b50600436106100365760003560e01c8063364b5fdf1461003b57806375bd8cff14610059575b600080fd5b610043610063565b60405161005091906100fe565b60405180910390f35b61006161009e565b005b61006b6100e0565b6040805160a08101918290529060009060059082845b815481526020019060010190808311610081575050505050905090565b6040805160a08101918290526100d99160009060059082845b8154815260200190600101908083116100b75750505050506008604090910152565b600a600355565b6040518060a001604052806005906020820280368337509192915050565b60a08101818360005b6005811015610126578151835260209283019290910190600101610107565b5050509291505056fea264697066735822122073581941663937fc051d1cbc3b0d93bc93a5e5ba4178373455b3d4e1d13050dc64736f6c63430008170033",
  "linkReferences": {},
  "deployedLinkReferences": {}
}