{
  "_format": "hh-sol-artifact-1",
  "contractName": "Functions",
  "sourceName": "contracts/solidity/functions/Functions.sol",
  "abi": [
    {
      "anonymous": false,
      "inputs": [
        {
          "indexed": false,
          "internalType": "uint256",
          "name": "",
          "type": "uint256"
        }
      ],
      "name": "MsgValue",
      "type": "event"
    },
    {
      "inputs": [],
      "name": "checkGasleft",
      "outputs": [
        {
          "internalType": "uint256",
          "name": "",
          "type": "uint256"
        }
      ],
      "stateMutability": "view",
      "type": "function"
    },
    {
      "inputs": [],
      "name": "checkGasleftFromExternalCall",
      "outputs": [
        {
          "internalType": "uint256",
          "name": "",
          "type": "uint256"
        }
      ],
      "stateMutability": "view",
      "type": "function"
    },
    {
      "inputs": [],
      "name": "deposit",
      "outputs": [],
      "stateMutability": "payable",
      "type": "function"
    },
    {
      "inputs": [],
      "name": "getBalance",
      "outputs": [
        {
          "internalType": "uint256",
          "name": "",
          "type": "uint256"
        }
      ],
      "stateMutability": "view",
      "type": "function"
    },
    {
      "inputs": [],
      "name": "manyInputsProxyCall",
      "outputs": [
        {
          "internalType": "bool",
          "name": "",
          "type": "bool"
        }
      ],
      "stateMutability": "nonpayable",
      "type": "function"
    },
    {
      "inputs": [],
      "name": "notPayable",
      "outputs": [],
      "stateMutability": "nonpayable",
      "type": "function"
    },
    {
      "inputs": [
        {
          "internalType": "uint256",
          "name": "a",
          "type": "uint256"
        },
        {
          "internalType": "uint256",
          "name": "",
          "type": "uint256"
        }
      ],
      "name": "sumThemUp",
      "outputs": [
        {
          "internalType": "uint256",
          "name": "",
          "type": "uint256"
        }
      ],
      "stateMutability": "pure",
      "type": "function"
    }
  ],
  "bytecode": "0x608060405234801561001057600080fd5b506103e1806100206000396000f3fe6080604052600436106100705760003560e01c8063890dd9991161004e578063890dd999146100c85780638b5a76e4146100dd578063d0e30db0146100c6578063fae3cfa9146100f257600080fd5b8063078ac6f41461007557806312065fe0146100a7578063273884bd146100ba575b600080fd5b34801561008157600080fd5b5061009461009036600461020f565b5090565b6040519081526020015b60405180910390f35b3480156100b357600080fd5b5047610094565b3480156100c657600080fd5b005b3480156100d457600080fd5b50610094610117565b3480156100e957600080fd5b5061009461018d565b3480156100fe57600080fd5b50610107610195565b604051901515815260200161009e565b60003073ffffffffffffffffffffffffffffffffffffffff16638b5a76e46040518163ffffffff1660e01b8152600401602060405180830381865afa158015610164573d6000803e3d6000fd5b505050506040513d601f19601f820116820180604052508101906101889190610231565b905090565b60005a905090565b6000610188600c3060405180604001604052806006815260200165737472696e6760d01b81525060048390556002805473ffffffffffffffffffffffffffffffffffffffff191673ffffffffffffffffffffffffffffffffffffffff84161790556000600361020483826102eb565b506001949350505050565b6000806040838503121561022257600080fd5b50508035926020909101359150565b60006020828403121561024357600080fd5b5051919050565b634e487b7160e01b600052604160045260246000fd5b600181811c9082168061027457607f821691505b60208210810361029457634e487b7160e01b600052602260045260246000fd5b50919050565b601f8211156102e6576000816000526020600020601f850160051c810160208610156102c35750805b601f850160051c820191505b818110156102e2578281556001016102cf565b5050505b505050565b815167ffffffffffffffff8111156103055761030561024a565b610319816103138454610260565b8461029a565b602080601f83116001811461034e57600084156103365750858301515b600019600386901b1c1916600185901b1785556102e2565b600085815260208120601f198616915b8281101561037d5788860151825594840194600190910190840161035e565b508582101561039b5787850151600019600388901b60f8161c191681555b5050505050600190811b0190555056fea26469706673582212205b6083f4f4449b1f45cc162fc140169780ef4e31efd19dff8e0368c3502a7b9b64736f6c63430008170033",
  "linkReferences": {},
  "deployedLinkReferences": {}
}