{
  "_format": "hh-sol-artifact-1",
  "contractName": "ERC721Mock",
  "sourceName": "contracts/hip-583/ERC721Mock.sol",
  "abi": [
    {
      "inputs": [],
      "stateMutability": "nonpayable",
      "type": "constructor"
    },
    {
      "inputs": [
        {
          "internalType": "address",
          "name": "sender",
          "type": "address"
        },
        {
          "internalType": "uint256",
          "name": "tokenId",
          "type": "uint256"
        },
        {
          "internalType": "address",
          "name": "owner",
          "type": "address"
        }
      ],
      "name": "ERC721IncorrectOwner",
      "type": "error"
    },
    {
      "inputs": [
        {
          "internalType": "address",
          "name": "operator",
          "type": "address"
        },
        {
          "internalType": "uint256",
          "name": "tokenId",
          "type": "uint256"
        }
      ],
      "name": "ERC721InsufficientApproval",
      "type": "error"
    },
    {
      "inputs": [
        {
          "internalType": "address",
          "name": "approver",
          "type": "address"
        }
      ],
      "name": "ERC721InvalidApprover",
      "type": "error"
    },
    {
      "inputs": [
        {
          "internalType": "address",
          "name": "operator",
          "type": "address"
        }
      ],
      "name": "ERC721InvalidOperator",
      "type": "error"
    },
    {
      "inputs": [
        {
          "internalType": "address",
          "name": "owner",
          "type": "address"
        }
      ],
      "name": "ERC721InvalidOwner",
      "type": "error"
    },
    {
      "inputs": [
        {
          "internalType": "address",
          "name": "receiver",
          "type": "address"
        }
      ],
      "name": "ERC721InvalidReceiver",
      "type": "error"
    },
    {
      "inputs": [
        {
          "internalType": "address",
          "name": "sender",
          "type": "address"
        }
      ],
      "name": "ERC721InvalidSender",
      "type": "error"
    },
    {
      "inputs": [
        {
          "internalType": "uint256",
          "name": "tokenId",
          "type": "uint256"
        }
      ],
      "name": "ERC721NonexistentToken",
      "type": "error"
    },
    {
      "anonymous": false,
      "inputs": [
        {
          "indexed": true,
          "internalType": "address",
          "name": "owner",
          "type": "address"
        },
        {
          "indexed": true,
          "internalType": "address",
          "name": "approved",
          "type": "address"
        },
        {
          "indexed": true,
          "internalType": "uint256",
          "name": "tokenId",
          "type": "uint256"
        }
      ],
      "name": "Approval",
      "type": "event"
    },
    {
      "anonymous": false,
      "inputs": [
        {
          "indexed": true,
          "internalType": "address",
          "name": "owner",
          "type": "address"
        },
        {
          "indexed": true,
          "internalType": "address",
          "name": "operator",
          "type": "address"
        },
        {
          "indexed": false,
          "internalType": "bool",
          "name": "approved",
          "type": "bool"
        }
      ],
      "name": "ApprovalForAll",
      "type": "event"
    },
    {
      "anonymous": false,
      "inputs": [
        {
          "indexed": true,
          "internalType": "address",
          "name": "from",
          "type": "address"
        },
        {
          "indexed": true,
          "internalType": "address",
          "name": "to",
          "type": "address"
        },
        {
          "indexed": true,
          "internalType": "uint256",
          "name": "tokenId",
          "type": "uint256"
        }
      ],
      "name": "Transfer",
      "type": "event"
    },
    {
      "inputs": [
        {
          "internalType": "address",
          "name": "to",
          "type": "address"
        },
        {
          "internalType": "uint256",
          "name": "tokenId",
          "type": "uint256"
        }
      ],
      "name": "approve",
      "outputs": [],
      "stateMutability": "nonpayable",
      "type": "function"
    },
    {
      "inputs": [
        {
          "internalType": "address",
          "name": "owner",
          "type": "address"
        }
      ],
      "name": "balanceOf",
      "outputs": [
        {
          "internalType": "uint256",
          "name": "",
          "type": "uint256"
        }
      ],
      "stateMutability": "view",
      "type": "function"
    },
    {
      "inputs": [
        {
          "internalType": "uint256",
          "name": "tokenId",
          "type": "uint256"
        }
      ],
      "name": "burn",
      "outputs": [],
      "stateMutability": "nonpayable",
      "type": "function"
    },
    {
      "inputs": [
        {
          "internalType": "uint256",
          "name": "tokenId",
          "type": "uint256"
        }
      ],
      "name": "getApproved",
      "outputs": [
        {
          "internalType": "address",
          "name": "",
          "type": "address"
        }
      ],
      "stateMutability": "view",
      "type": "function"
    },
    {
      "inputs": [
        {
          "internalType": "address",
          "name": "owner",
          "type": "address"
        },
        {
          "internalType": "address",
          "name": "operator",
          "type": "address"
        }
      ],
      "name": "isApprovedForAll",
      "outputs": [
        {
          "internalType": "bool",
          "name": "",
          "type": "bool"
        }
      ],
      "stateMutability": "view",
      "type": "function"
    },
    {
      "inputs": [
        {
          "internalType": "address",
          "name": "to",
          "type": "address"
        },
        {
          "internalType": "uint256",
          "name": "tokenId",
          "type": "uint256"
        }
      ],
      "name": "mint",
      "outputs": [],
      "stateMutability": "nonpayable",
      "type": "function"
    },
    {
      "inputs": [],
      "name": "name",
      "outputs": [
        {
          "internalType": "string",
          "name": "",
          "type": "string"
        }
      ],
      "stateMutability": "view",
      "type": "function"
    },
    {
      "inputs": [
        {
          "internalType": "uint256",
          "name": "tokenId",
          "type": "uint256"
        }
      ],
      "name": "ownerOf",
      "outputs": [
        {
          "internalType": "address",
          "name": "",
          "type": "address"
        }
      ],
      "stateMutability": "view",
      "type": "function"
    },
    {
      "inputs": [
        {
          "internalType": "address",
          "name": "from",
          "type": "address"
        },
        {
          "internalType": "address",
          "name": "to",
          "type": "address"
        },
        {
          "internalType": "uint256",
          "name": "tokenId",
          "type": "uint256"
        }
      ],
      "name": "safeTransferFrom",
      "outputs": [],
      "stateMutability": "nonpayable",
      "type": "function"
    },
    {
      "inputs": [
        {
          "internalType": "address",
          "name": "from",
          "type": "address"
        },
        {
          "internalType": "address",
          "name": "to",
          "type": "address"
        },
        {
          "internalType": "uint256",
          "name": "tokenId",
          "type": "uint256"
        },
        {
          "internalType": "bytes",
          "name": "data",
          "type": "bytes"
        }
      ],
      "name": "safeTransferFrom",
      "outputs": [],
      "stateMutability": "nonpayable",
      "type": "function"
    },
    {
      "inputs": [
        {
          "internalType": "address",
          "name": "operator",
          "type": "address"
        },
        {
          "internalType": "bool",
          "name": "approved",
          "type": "bool"
        }
      ],
      "name": "setApprovalForAll",
      "outputs": [],
      "stateMutability": "nonpayable",
      "type": "function"
    },
    {
      "inputs": [
        {
          "internalType": "bytes4",
          "name": "interfaceId",
          "type": "bytes4"
        }
      ],
      "name": "supportsInterface",
      "outputs": [
        {
          "internalType": "bool",
          "name": "",
          "type": "bool"
        }
      ],
      "stateMutability": "view",
      "type": "function"
    },
    {
      "inputs": [],
      "name": "symbol",
      "outputs": [
        {
          "internalType": "string",
          "name": "",
          "type": "string"
        }
      ],
      "stateMutability": "view",
      "type": "function"
    },
    {
      "inputs": [
        {
          "internalType": "uint256",
          "name": "tokenId",
          "type": "uint256"
        }
      ],
      "name": "tokenURI",
      "outputs": [
        {
          "internalType": "string",
          "name": "",
          "type": "string"
        }
      ],
      "stateMutability": "view",
      "type": "function"
    },
    {
      "inputs": [
        {
          "internalType": "address",
          "name": "from",
          "type": "address"
        },
        {
          "internalType": "address",
          "name": "to",
          "type": "address"
        },
        {
          "internalType": "uint256",
          "name": "tokenId",
          "type": "uint256"
        }
      ],
      "name": "transferFrom",
      "outputs": [],
      "stateMutability": "nonpayable",
      "type": "function"
    }
  ],
  "bytecode": "0x60806040523480156200001157600080fd5b506040518060400160405280600a8152602001694552433732314d6f636b60b01b81525060405180604001604052806005815260200164453732314d60d81b815250816000908162000064919062000123565b50600162000073828262000123565b505050620001ef565b634e487b7160e01b600052604160045260246000fd5b600181811c90821680620000a757607f821691505b602082108103620000c857634e487b7160e01b600052602260045260246000fd5b50919050565b601f8211156200011e576000816000526020600020601f850160051c81016020861015620000f95750805b601f850160051c820191505b818110156200011a5782815560010162000105565b5050505b505050565b81516001600160401b038111156200013f576200013f6200007c565b620001578162000150845462000092565b84620000ce565b602080601f8311600181146200018f5760008415620001765750858301515b600019600386901b1c1916600185901b1785556200011a565b600085815260208120601f198616915b82811015620001c0578886015182559484019460019091019084016200019f565b5085821015620001df5787850151600019600388901b60f8161c191681555b5050505050600190811b01905550565b61104680620001ff6000396000f3fe608060405234801561001057600080fd5b50600436106100f55760003560e01c806342966c6811610097578063a22cb46511610066578063a22cb465146101ff578063b88d4fde14610212578063c87b56dd14610225578063e985e9c51461023857600080fd5b806342966c68146101b05780636352211e146101c357806370a08231146101d657806395d89b41146101f757600080fd5b8063095ea7b3116100d3578063095ea7b31461016257806323b872dd1461017757806340c10f191461018a57806342842e0e1461019d57600080fd5b806301ffc9a7146100fa57806306fdde0314610122578063081812fc14610137575b600080fd5b61010d610108366004610cb7565b610274565b60405190151581526020015b60405180910390f35b61012a6102c6565b6040516101199190610d24565b61014a610145366004610d37565b610358565b6040516001600160a01b039091168152602001610119565b610175610170366004610d6c565b610381565b005b610175610185366004610d96565b610390565b610175610198366004610d6c565b610420565b6101756101ab366004610d96565b61042a565b6101756101be366004610d37565b61044a565b61014a6101d1366004610d37565b610456565b6101e96101e4366004610dd2565b610461565b604051908152602001610119565b61012a6104a9565b61017561020d366004610ded565b6104b8565b610175610220366004610e3f565b6104c3565b61012a610233366004610d37565b6104da565b61010d610246366004610f1b565b6001600160a01b03918216600090815260056020908152604080832093909416825291909152205460ff1690565b60006001600160e01b031982166380ac58cd60e01b14806102a557506001600160e01b03198216635b5e139f60e01b145b806102c057506301ffc9a760e01b6001600160e01b03198316145b92915050565b6060600080546102d590610f4e565b80601f016020809104026020016040519081016040528092919081815260200182805461030190610f4e565b801561034e5780601f106103235761010080835404028352916020019161034e565b820191906000526020600020905b81548152906001019060200180831161033157829003601f168201915b5050505050905090565b60006103638261054f565b506000828152600460205260409020546001600160a01b03166102c0565b61038c828233610588565b5050565b6001600160a01b0382166103bf57604051633250574960e11b8152600060048201526024015b60405180910390fd5b60006103cc838333610595565b9050836001600160a01b0316816001600160a01b03161461041a576040516364283d7b60e01b81526001600160a01b03808616600483015260248201849052821660448201526064016103b6565b50505050565b61038c828261069b565b610445838383604051806020016040528060008152506104c3565b505050565b61045381610700565b50565b60006102c08261054f565b60006001600160a01b03821661048d576040516322718ad960e21b8152600060048201526024016103b6565b506001600160a01b031660009081526003602052604090205490565b6060600180546102d590610f4e565b61038c33838361073b565b6104ce848484610390565b61041a848484846107da565b60606104e58261054f565b5060006104fd60408051602081019091526000815290565b9050600081511161051d5760405180602001604052806000815250610548565b8061052784610903565b604051602001610538929190610f88565b6040516020818303038152906040525b9392505050565b6000818152600260205260408120546001600160a01b0316806102c057604051637e27328960e01b8152600481018490526024016103b6565b61044583838360016109a3565b6000828152600260205260408120546001600160a01b03908116908316156105c2576105c2818486610ad5565b6001600160a01b03811615610600576105df6000856000806109a3565b6001600160a01b038116600090815260036020526040902080546000190190555b6001600160a01b0385161561062f576001600160a01b0385166000908152600360205260409020805460010190555b600084815260026020526040808220805473ffffffffffffffffffffffffffffffffffffffff19166001600160a01b0389811691821790925591518793918516917fddf252ad1be2c89b69c2b068fc378daa952ba7f163c4a11628f55a4df523b3ef91a4949350505050565b6001600160a01b0382166106c557604051633250574960e11b8152600060048201526024016103b6565b60006106d383836000610595565b90506001600160a01b03811615610445576040516339e3563760e11b8152600060048201526024016103b6565b600061070f6000836000610595565b90506001600160a01b03811661038c57604051637e27328960e01b8152600481018390526024016103b6565b6001600160a01b03821661076d57604051630b61174360e31b81526001600160a01b03831660048201526024016103b6565b6001600160a01b03838116600081815260056020908152604080832094871680845294825291829020805460ff191686151590811790915591519182527f17307eab39ab6107e8899845ad3d59bd9653f200f220920489ca2b5937696c31910160405180910390a3505050565b6001600160a01b0383163b1561041a57604051630a85bd0160e11b81526001600160a01b0384169063150b7a029061081c903390889087908790600401610fb7565b6020604051808303816000875af1925050508015610857575060408051601f3d908101601f1916820190925261085491810190610ff3565b60015b6108c0573d808015610885576040519150601f19603f3d011682016040523d82523d6000602084013e61088a565b606091505b5080516000036108b857604051633250574960e11b81526001600160a01b03851660048201526024016103b6565b805181602001fd5b6001600160e01b03198116630a85bd0160e11b146108fc57604051633250574960e11b81526001600160a01b03851660048201526024016103b6565b5050505050565b6060600061091083610b39565b600101905060008167ffffffffffffffff81111561093057610930610e29565b6040519080825280601f01601f19166020018201604052801561095a576020820181803683370190505b5090508181016020015b600019017f3031323334353637383961626364656600000000000000000000000000000000600a86061a8153600a850494508461096457509392505050565b80806109b757506001600160a01b03821615155b15610a985760006109c78461054f565b90506001600160a01b038316158015906109f35750826001600160a01b0316816001600160a01b031614155b8015610a2557506001600160a01b0380821660009081526005602090815260408083209387168352929052205460ff16155b15610a4e5760405163a9fbf51f60e01b81526001600160a01b03841660048201526024016103b6565b8115610a965783856001600160a01b0316826001600160a01b03167f8c5be1e5ebec7d5bd14f71427d1e84f3dd0314c0f7b2291e5b200ac8c7c3b92560405160405180910390a45b505b50506000908152600460205260409020805473ffffffffffffffffffffffffffffffffffffffff19166001600160a01b0392909216919091179055565b610ae0838383610c1b565b610445576001600160a01b038316610b0e57604051637e27328960e01b8152600481018290526024016103b6565b60405163177e802f60e01b81526001600160a01b0383166004820152602481018290526044016103b6565b6000807a184f03e93ff9f4daa797ed6e38ed64bf6a1f0100000000000000008310610b82577a184f03e93ff9f4daa797ed6e38ed64bf6a1f010000000000000000830492506040015b6d04ee2d6d415b85acef81000000008310610bae576d04ee2d6d415b85acef8100000000830492506020015b662386f26fc100008310610bcc57662386f26fc10000830492506010015b6305f5e1008310610be4576305f5e100830492506008015b6127108310610bf857612710830492506004015b60648310610c0a576064830492506002015b600a83106102c05760010192915050565b60006001600160a01b03831615801590610c995750826001600160a01b0316846001600160a01b03161480610c7557506001600160a01b0380851660009081526005602090815260408083209387168352929052205460ff165b80610c9957506000828152600460205260409020546001600160a01b038481169116145b949350505050565b6001600160e01b03198116811461045357600080fd5b600060208284031215610cc957600080fd5b813561054881610ca1565b60005b83811015610cef578181015183820152602001610cd7565b50506000910152565b60008151808452610d10816020860160208601610cd4565b601f01601f19169290920160200192915050565b6020815260006105486020830184610cf8565b600060208284031215610d4957600080fd5b5035919050565b80356001600160a01b0381168114610d6757600080fd5b919050565b60008060408385031215610d7f57600080fd5b610d8883610d50565b946020939093013593505050565b600080600060608486031215610dab57600080fd5b610db484610d50565b9250610dc260208501610d50565b9150604084013590509250925092565b600060208284031215610de457600080fd5b61054882610d50565b60008060408385031215610e0057600080fd5b610e0983610d50565b915060208301358015158114610e1e57600080fd5b809150509250929050565b634e487b7160e01b600052604160045260246000fd5b60008060008060808587031215610e5557600080fd5b610e5e85610d50565b9350610e6c60208601610d50565b925060408501359150606085013567ffffffffffffffff80821115610e9057600080fd5b818701915087601f830112610ea457600080fd5b813581811115610eb657610eb6610e29565b604051601f8201601f19908116603f01168101908382118183101715610ede57610ede610e29565b816040528281528a6020848701011115610ef757600080fd5b82602086016020830137600060208483010152809550505050505092959194509250565b60008060408385031215610f2e57600080fd5b610f3783610d50565b9150610f4560208401610d50565b90509250929050565b600181811c90821680610f6257607f821691505b602082108103610f8257634e487b7160e01b600052602260045260246000fd5b50919050565b60008351610f9a818460208801610cd4565b835190830190610fae818360208801610cd4565b01949350505050565b60006001600160a01b03808716835280861660208401525083604083015260806060830152610fe96080830184610cf8565b9695505050505050565b60006020828403121561100557600080fd5b815161054881610ca156fea264697066735822122096069804f2a51d8d8260dc53f5cda70fdfe24e9ba2c8db38f02c5b384cef61cc64736f6c63430008170033",
  "linkReferences": {},
  "deployedLinkReferences": {}
}