{
  "_format": "hh-sol-artifact-1",
  "contractName": "CryptoAllowance",
  "sourceName": "contracts/hts-precompile/examples/crypto-allowance/cryptoAllowance.sol",
  "abi": [
    {
      "anonymous": false,
      "inputs": [
        {
          "indexed": false,
          "internalType": "bool",
          "name": "",
          "type": "bool"
        },
        {
          "indexed": false,
          "internalType": "bytes",
          "name": "",
          "type": "bytes"
        }
      ],
      "name": "CallResponseEvent",
      "type": "event"
    },
    {
      "anonymous": false,
      "inputs": [
        {
          "indexed": false,
          "internalType": "address",
          "name": "owner",
          "type": "address"
        },
        {
          "indexed": false,
          "internalType": "address",
          "name": "spender",
          "type": "address"
        },
        {
          "indexed": false,
          "internalType": "int256",
          "name": "amount",
          "type": "int256"
        }
      ],
      "name": "HbarAllowance",
      "type": "event"
    },
    {
      "anonymous": false,
      "inputs": [
        {
          "indexed": false,
          "internalType": "int256",
          "name": "responseCode",
          "type": "int256"
        }
      ],
      "name": "ResponseCode",
      "type": "event"
    },
    {
      "inputs": [
        {
          "components": [
            {
              "components": [
                {
                  "internalType": "address",
                  "name": "accountID",
                  "type": "address"
                },
                {
                  "internalType": "int64",
                  "name": "amount",
                  "type": "int64"
                },
                {
                  "internalType": "bool",
                  "name": "isApproval",
                  "type": "bool"
                }
              ],
              "internalType": "struct IHederaTokenService.AccountAmount[]",
              "name": "transfers",
              "type": "tuple[]"
            }
          ],
          "internalType": "struct IHederaTokenService.TransferList",
          "name": "transferList",
          "type": "tuple"
        },
        {
          "components": [
            {
              "internalType": "address",
              "name": "token",
              "type": "address"
            },
            {
              "components": [
                {
                  "internalType": "address",
                  "name": "accountID",
                  "type": "address"
                },
                {
                  "internalType": "int64",
                  "name": "amount",
                  "type": "int64"
                },
                {
                  "internalType": "bool",
                  "name": "isApproval",
                  "type": "bool"
                }
              ],
              "internalType": "struct IHederaTokenService.AccountAmount[]",
              "name": "transfers",
              "type": "tuple[]"
            },
            {
              "components": [
                {
                  "internalType": "address",
                  "name": "senderAccountID",
                  "type": "address"
                },
                {
                  "internalType": "address",
                  "name": "receiverAccountID",
                  "type": "address"
                },
                {
                  "internalType": "int64",
                  "name": "serialNumber",
                  "type": "int64"
                },
                {
                  "internalType": "bool",
                  "name": "isApproval",
                  "type": "bool"
                }
              ],
              "internalType": "struct IHederaTokenService.NftTransfer[]",
              "name": "nftTransfers",
              "type": "tuple[]"
            }
          ],
          "internalType": "struct IHederaTokenService.TokenTransferList[]",
          "name": "tokenTransferList",
          "type": "tuple[]"
        }
      ],
      "name": "cryptoTransferPublic",
      "outputs": [
        {
          "internalType": "int256",
          "name": "responseCode",
          "type": "int256"
        }
      ],
      "stateMutability": "nonpayable",
      "type": "function"
    },
    {
      "inputs": [
        {
          "internalType": "address",
          "name": "owner",
          "type": "address"
        },
        {
          "internalType": "address",
          "name": "spender",
          "type": "address"
        }
      ],
      "name": "hbarAllowancePublic",
      "outputs": [],
      "stateMutability": "nonpayable",
      "type": "function"
    },
    {
      "inputs": [
        {
          "internalType": "address",
          "name": "owner",
          "type": "address"
        },
        {
          "internalType": "address",
          "name": "spender",
          "type": "address"
        },
        {
          "internalType": "int256",
          "name": "amount",
          "type": "int256"
        }
      ],
      "name": "hbarApprovePublic",
      "outputs": [
        {
          "internalType": "int64",
          "name": "responseCode",
          "type": "int64"
        }
      ],
      "stateMutability": "nonpayable",
      "type": "function"
    },
    {
      "inputs": [
        {
          "internalType": "address",
          "name": "token",
          "type": "address"
        },
        {
          "internalType": "bytes",
          "name": "encodedFunctionSelector",
          "type": "bytes"
        }
      ],
      "name": "redirectForToken",
      "outputs": [
        {
          "internalType": "int256",
          "name": "responseCode",
          "type": "int256"
        },
        {
          "internalType": "bytes",
          "name": "response",
          "type": "bytes"
        }
      ],
      "stateMutability": "nonpayable",
      "type": "function"
    },
    {
      "inputs": [
        {
          "internalType": "address",
          "name": "token",
          "type": "address"
        },
        {
          "internalType": "address",
          "name": "from",
          "type": "address"
        },
        {
          "internalType": "address",
          "name": "to",
          "type": "address"
        },
        {
          "internalType": "uint256",
          "name": "amount",
          "type": "uint256"
        }
      ],
      "name": "transferFrom",
      "outputs": [
        {
          "internalType": "int64",
          "name": "responseCode",
          "type": "int64"
        }
      ],
      "stateMutability": "nonpayable",
      "type": "function"
    },
    {
      "inputs": [
        {
          "internalType": "address",
          "name": "token",
          "type": "address"
        },
        {
          "internalType": "address",
          "name": "from",
          "type": "address"
        },
        {
          "internalType": "address",
          "name": "to",
          "type": "address"
        },
        {
          "internalType": "uint256",
          "name": "serialNumber",
          "type": "uint256"
        }
      ],
      "name": "transferFromNFT",
      "outputs": [
        {
          "internalType": "int64",
          "name": "responseCode",
          "type": "int64"
        }
      ],
      "stateMutability": "nonpayable",
      "type": "function"
    }
  ],
  "bytecode": "0x608060405234801561001057600080fd5b50610fae806100206000396000f3fe608060405234801561001057600080fd5b50600436106100725760003560e01c8063970e23d211610050578063970e23d2146100d65780639b23d3d9146100f7578063e06da58d1461010a57600080fd5b806315dacbea1461007757806348e309e0146100a2578063618dc65e146100b5575b600080fd5b61008a610085366004610782565b61011f565b60405160079190910b81526020015b60405180910390f35b61008a6100b03660046107cd565b610213565b6100c86100c336600461089c565b610272565b604051610099929190610992565b6100e96100e43660046109b3565b610390565b604051908152602001610099565b61008a610105366004610782565b6103f5565b61011d610118366004610a55565b61043a565b005b6040516001600160a01b038581166024830152848116604483015283166064820152608481018290526000908190819061016790630aed65f560e11b9060a4015b60408051601f198184030181529181526020820180516001600160e01b03166001600160e01b031990941693909317909252905161019e9190610a88565b6000604051808303816000865af19150503d80600081146101db576040519150601f19603f3d011682016040523d82523d6000602084013e6101e0565b606091505b5091509150816101f1576015610205565b808060200190518101906102059190610ab6565b60030b979650505050505050565b60006102208484846104e5565b604051600782900b81529091507f90a5cf4cffe88b4edbb041cfc7a8a812c48a5ec30b84640fb37690875168e3aa9060200160405180910390a1600781900b60161461026b57600080fd5b9392505050565b600060606000806101676001600160a01b031663618dc65e60e01b87876040516024016102a0929190610ad1565b60408051601f198184030181529181526020820180516001600160e01b03166001600160e01b03199094169390931790925290516102de9190610a88565b6000604051808303816000865af19150503d806000811461031b576040519150601f19603f3d011682016040523d82523d6000602084013e610320565b606091505b50915091507f4af4780e06fe8cb9df64b0794fa6f01399af979175bb988e35e0e57e594567bc8282604051610356929190610af3565b60405180910390a18161037a5760156040518060200160405280600081525061037e565b6016815b60039190910b97909650945050505050565b60006103ad61039e85610c02565b6103a88486610c63565b6105be565b90507f90a5cf4cffe88b4edbb041cfc7a8a812c48a5ec30b84640fb37690875168e3aa816040516103e091815260200190565b60405180910390a16016811461026b57600080fd5b6040516001600160a01b038581166024830152848116604483015283166064820152608481018290526000908190819061016790639b23d3d960e01b9060a401610160565b600080610447848461069b565b604051600783900b815291935091507f90a5cf4cffe88b4edbb041cfc7a8a812c48a5ec30b84640fb37690875168e3aa9060200160405180910390a1600782900b60161461049457600080fd5b604080516001600160a01b038087168252851660208201529081018290527fb43ff8a636f83cf14bb647951bbcbd71fd09b36cf207b15408bebcb03151c3169060600160405180910390a150505050565b604080516001600160a01b03858116602483015284166044820152606480820184905282518083039091018152608490910182526020810180516001600160e01b0316632824611960e21b17905290516000918291829161016a9161054a9190610a88565b6000604051808303816000865af19150503d8060008114610587576040519150601f19603f3d011682016040523d82523d6000602084013e61058c565b606091505b50915091508161059d5760156105b1565b808060200190518101906105b19190610ab6565b60030b9695505050505050565b60008060006101676001600160a01b0316630e71804f60e01b86866040516024016105ea929190610e4e565b60408051601f198184030181529181526020820180516001600160e01b03166001600160e01b03199094169390931790925290516106289190610a88565b6000604051808303816000865af19150503d8060008114610665576040519150601f19603f3d011682016040523d82523d6000602084013e61066a565b606091505b50915091508161067b57601561068f565b8080602001905181019061068f9190610ab6565b60030b95945050505050565b604080516001600160a01b038481166024830152831660448083019190915282518083039091018152606490910182526020810180516001600160e01b0316637f62333360e11b179052905160009182918291829161016a916106fd91610a88565b6000604051808303816000865af19150503d806000811461073a576040519150601f19603f3d011682016040523d82523d6000602084013e61073f565b606091505b509150915081610752576015600061037e565b8080602001905181019061037e9190610f4c565b80356001600160a01b038116811461077d57600080fd5b919050565b6000806000806080858703121561079857600080fd5b6107a185610766565b93506107af60208601610766565b92506107bd60408601610766565b9396929550929360600135925050565b6000806000606084860312156107e257600080fd5b6107eb84610766565b92506107f960208501610766565b9150604084013590509250925092565b634e487b7160e01b600052604160045260246000fd5b6040516060810167ffffffffffffffff8111828210171561084257610842610809565b60405290565b6040516080810167ffffffffffffffff8111828210171561084257610842610809565b604051601f8201601f1916810167ffffffffffffffff8111828210171561089457610894610809565b604052919050565b600080604083850312156108af57600080fd5b6108b883610766565b915060208084013567ffffffffffffffff808211156108d657600080fd5b818601915086601f8301126108ea57600080fd5b8135818111156108fc576108fc610809565b61090e601f8201601f1916850161086b565b9150808252878482850101111561092457600080fd5b80848401858401376000848284010152508093505050509250929050565b60005b8381101561095d578181015183820152602001610945565b50506000910152565b6000815180845261097e816020860160208601610942565b601f01601f19169290920160200192915050565b8281526040602082015260006109ab6040830184610966565b949350505050565b6000806000604084860312156109c857600080fd5b833567ffffffffffffffff808211156109e057600080fd5b90850190602082880312156109f457600080fd5b90935060208501359080821115610a0a57600080fd5b818601915086601f830112610a1e57600080fd5b813581811115610a2d57600080fd5b8760208260051b8501011115610a4257600080fd5b6020830194508093505050509250925092565b60008060408385031215610a6857600080fd5b610a7183610766565b9150610a7f60208401610766565b90509250929050565b60008251610a9a818460208701610942565b9190910192915050565b8051600381900b811461077d57600080fd5b600060208284031215610ac857600080fd5b61026b82610aa4565b6001600160a01b03831681526040602082015260006109ab6040830184610966565b82151581526040602082015260006109ab6040830184610966565b600067ffffffffffffffff821115610b2857610b28610809565b5060051b60200190565b8035600781900b811461077d57600080fd5b8035801515811461077d57600080fd5b600082601f830112610b6557600080fd5b81356020610b7a610b7583610b0e565b61086b565b82815260609283028501820192828201919087851115610b9957600080fd5b8387015b85811015610bf55781818a031215610bb55760008081fd5b610bbd61081f565b610bc682610766565b8152610bd3868301610b32565b868201526040610be4818401610b44565b908201528452928401928101610b9d565b5090979650505050505050565b600060208236031215610c1457600080fd5b6040516020810167ffffffffffffffff8282108183111715610c3857610c38610809565b816040528435915080821115610c4d57600080fd5b50610c5a36828601610b54565b82525092915050565b6000610c71610b7584610b0e565b80848252602080830192508560051b850136811115610c8f57600080fd5b855b81811015610de257803567ffffffffffffffff80821115610cb25760008081fd5b81890191506060808336031215610cc95760008081fd5b610cd161081f565b610cda84610766565b81528684013583811115610cee5760008081fd5b610cfa36828701610b54565b888301525060408085013584811115610d135760008081fd5b949094019336601f860112610d2a57600093508384fd5b84359350610d3a610b7585610b0e565b84815260079490941b85018801938881019036861115610d5a5760008081fd5b958901955b85871015610dca5760808736031215610d785760008081fd5b610d80610848565b610d8988610766565b8152610d968b8901610766565b8b820152610da5848901610b32565b84820152610db4868901610b44565b8187015282526080969096019590890190610d5f565b91830191909152508852505050938201938201610c91565b50919695505050505050565b60008151808452602080850194506020840160005b83811015610e4357815180516001600160a01b031688528381015160070b8489015260409081015115159088015260609096019590820190600101610e03565b509495945050505050565b600060408083526060855160208084870152610e6d6060870183610dee565b9150858203818701528187518084528284019150828160051b850101838a0160005b83811015610f3b57601f1987840301855281516001600160a01b03808251168552878201518a89870152610ec58b870182610dee565b928c0151868403878e01528051808552908a0193600092508a01905b80831015610f255784518051851683528b81015185168c8401528e81015160070b8f8401528d015115158d830152938a019360019290920191608090910190610ee1565b5097890197955050509186019150600101610e8f565b50909b9a5050505050505050505050565b60008060408385031215610f5f57600080fd5b610f6883610aa4565b915060208301519050925092905056fea2646970667358221220314fe6d6c135f3b386116071717a4ec4016afc5ce6a747184cdc72e50eb1fd3064736f6c63430008170033",
  "linkReferences": {},
  "deployedLinkReferences": {}
}