{
  "_format": "hh-sol-artifact-1",
  "contractName": "CryptoAllowance",
  "sourceName": "contracts/hts-precompile/examples/crypto-allowance/cryptoAllowance.sol",
  "abi": [
    {
      "anonymous": false,
      "inputs": [
        {
          "indexed": false,
          "internalType": "bool",
          "name": "",
          "type": "bool"
        },
        {
          "indexed": false,
          "internalType": "bytes",
          "name": "",
          "type": "bytes"
        }
      ],
      "name": "CallResponseEvent",
      "type": "event"
    },
    {
      "anonymous": false,
      "inputs": [
        {
          "indexed": false,
          "internalType": "address",
          "name": "owner",
          "type": "address"
        },
        {
          "indexed": false,
          "internalType": "address",
          "name": "spender",
          "type": "address"
        },
        {
          "indexed": false,
          "internalType": "int256",
          "name": "allowance",
          "type": "int256"
        }
      ],
      "name": "HbarAllowance",
      "type": "event"
    },
    {
      "anonymous": false,
      "inputs": [
        {
          "indexed": false,
          "internalType": "int256",
          "name": "responseCode",
          "type": "int256"
        }
      ],
      "name": "ResponseCode",
      "type": "event"
    },
    {
      "inputs": [
        {
          "components": [
            {
              "components": [
                {
                  "internalType": "address",
                  "name": "accountID",
                  "type": "address"
                },
                {
                  "internalType": "int64",
                  "name": "amount",
                  "type": "int64"
                },
                {
                  "internalType": "bool",
                  "name": "isApproval",
                  "type": "bool"
                }
              ],
              "internalType": "struct IHederaTokenService.AccountAmount[]",
              "name": "transfers",
              "type": "tuple[]"
            }
          ],
          "internalType": "struct IHederaTokenService.TransferList",
          "name": "transferList",
          "type": "tuple"
        },
        {
          "components": [
            {
              "internalType": "address",
              "name": "token",
              "type": "address"
            },
            {
              "components": [
                {
                  "internalType": "address",
                  "name": "accountID",
                  "type": "address"
                },
                {
                  "internalType": "int64",
                  "name": "amount",
                  "type": "int64"
                },
                {
                  "internalType": "bool",
                  "name": "isApproval",
                  "type": "bool"
                }
              ],
              "internalType": "struct IHederaTokenService.AccountAmount[]",
              "name": "transfers",
              "type": "tuple[]"
            },
            {
              "components": [
                {
                  "internalType": "address",
                  "name": "senderAccountID",
                  "type": "address"
                },
                {
                  "internalType": "address",
                  "name": "receiverAccountID",
                  "type": "address"
                },
                {
                  "internalType": "int64",
                  "name": "serialNumber",
                  "type": "int64"
                },
                {
                  "internalType": "bool",
                  "name": "isApproval",
                  "type": "bool"
                }
              ],
              "internalType": "struct IHederaTokenService.NftTransfer[]",
              "name": "nftTransfers",
              "type": "tuple[]"
            }
          ],
          "internalType": "struct IHederaTokenService.TokenTransferList[]",
          "name": "tokenTransferList",
          "type": "tuple[]"
        }
      ],
      "name": "cryptoTransferPublic",
      "outputs": [
        {
          "internalType": "int256",
          "name": "responseCode",
          "type": "int256"
        }
      ],
      "stateMutability": "nonpayable",
      "type": "function"
    },
    {
      "inputs": [
        {
          "internalType": "address",
          "name": "owner",
          "type": "address"
        },
        {
          "internalType": "address",
          "name": "spender",
          "type": "address"
        }
      ],
      "name": "hbarAllowancePublic",
      "outputs": [
        {
          "internalType": "int64",
          "name": "responseCode",
          "type": "int64"
        },
        {
          "internalType": "int256",
          "name": "allowance",
          "type": "int256"
        }
      ],
      "stateMutability": "nonpayable",
      "type": "function"
    },
    {
      "inputs": [
        {
          "internalType": "address",
          "name": "owner",
          "type": "address"
        },
        {
          "internalType": "address",
          "name": "spender",
          "type": "address"
        },
        {
          "internalType": "int256",
          "name": "amount",
          "type": "int256"
        }
      ],
      "name": "hbarApprovePublic",
      "outputs": [
        {
          "internalType": "int64",
          "name": "responseCode",
          "type": "int64"
        }
      ],
      "stateMutability": "nonpayable",
      "type": "function"
    },
    {
      "inputs": [
        {
          "internalType": "address",
          "name": "token",
          "type": "address"
        },
        {
          "internalType": "bytes",
          "name": "encodedFunctionSelector",
          "type": "bytes"
        }
      ],
      "name": "redirectForToken",
      "outputs": [
        {
          "internalType": "int256",
          "name": "responseCode",
          "type": "int256"
        },
        {
          "internalType": "bytes",
          "name": "response",
          "type": "bytes"
        }
      ],
      "stateMutability": "nonpayable",
      "type": "function"
    },
    {
      "inputs": [
        {
          "internalType": "address",
          "name": "token",
          "type": "address"
        },
        {
          "internalType": "address",
          "name": "from",
          "type": "address"
        },
        {
          "internalType": "address",
          "name": "to",
          "type": "address"
        },
        {
          "internalType": "uint256",
          "name": "amount",
          "type": "uint256"
        }
      ],
      "name": "transferFrom",
      "outputs": [
        {
          "internalType": "int64",
          "name": "responseCode",
          "type": "int64"
        }
      ],
      "stateMutability": "nonpayable",
      "type": "function"
    },
    {
      "inputs": [
        {
          "internalType": "address",
          "name": "token",
          "type": "address"
        },
        {
          "internalType": "address",
          "name": "from",
          "type": "address"
        },
        {
          "internalType": "address",
          "name": "to",
          "type": "address"
        },
        {
          "internalType": "uint256",
          "name": "serialNumber",
          "type": "uint256"
        }
      ],
      "name": "transferFromNFT",
      "outputs": [
        {
          "internalType": "int64",
          "name": "responseCode",
          "type": "int64"
        }
      ],
      "stateMutability": "nonpayable",
      "type": "function"
    }
  ],
  "bytecode": "0x608060405234801561001057600080fd5b50610fc7806100206000396000f3fe608060405234801561001057600080fd5b50600436106100725760003560e01c8063970e23d211610050578063970e23d2146100d65780639b23d3d9146100f7578063e06da58d1461010a57600080fd5b806315dacbea1461007757806348e309e0146100a2578063618dc65e146100b5575b600080fd5b61008a61008536600461079b565b610137565b60405160079190910b81526020015b60405180910390f35b61008a6100b03660046107e6565b61022b565b6100c86100c33660046108b5565b61028a565b6040516100999291906109ab565b6100e96100e43660046109cc565b6103a8565b604051908152602001610099565b61008a61010536600461079b565b61040d565b61011d610118366004610a6e565b610452565b6040805160079390930b8352602083019190915201610099565b6040516001600160a01b038581166024830152848116604483015283166064820152608481018290526000908190819061016790630aed65f560e11b9060a4015b60408051601f198184030181529181526020820180516001600160e01b03166001600160e01b03199094169390931790925290516101b69190610aa1565b6000604051808303816000865af19150503d80600081146101f3576040519150601f19603f3d011682016040523d82523d6000602084013e6101f8565b606091505b50915091508161020957601561021d565b8080602001905181019061021d9190610acf565b60030b979650505050505050565b60006102388484846104fe565b604051600782900b81529091507f90a5cf4cffe88b4edbb041cfc7a8a812c48a5ec30b84640fb37690875168e3aa9060200160405180910390a1600781900b60161461028357600080fd5b9392505050565b600060606000806101676001600160a01b031663618dc65e60e01b87876040516024016102b8929190610aea565b60408051601f198184030181529181526020820180516001600160e01b03166001600160e01b03199094169390931790925290516102f69190610aa1565b6000604051808303816000865af19150503d8060008114610333576040519150601f19603f3d011682016040523d82523d6000602084013e610338565b606091505b50915091507f4af4780e06fe8cb9df64b0794fa6f01399af979175bb988e35e0e57e594567bc828260405161036e929190610b0c565b60405180910390a18161039257601560405180602001604052806000815250610396565b6016815b60039190910b97909650945050505050565b60006103c56103b685610c1b565b6103c08486610c7c565b6105d7565b90507f90a5cf4cffe88b4edbb041cfc7a8a812c48a5ec30b84640fb37690875168e3aa816040516103f891815260200190565b60405180910390a16016811461028357600080fd5b6040516001600160a01b038581166024830152848116604483015283166064820152608481018290526000908190819061016790639b23d3d960e01b9060a401610178565b60008061045f84846106b4565b604051600783900b815291935091507f90a5cf4cffe88b4edbb041cfc7a8a812c48a5ec30b84640fb37690875168e3aa9060200160405180910390a1600782900b6016146104ac57600080fd5b604080516001600160a01b038087168252851660208201529081018290527fb43ff8a636f83cf14bb647951bbcbd71fd09b36cf207b15408bebcb03151c3169060600160405180910390a19250929050565b604080516001600160a01b03858116602483015284166044820152606480820184905282518083039091018152608490910182526020810180516001600160e01b0316632824611960e21b17905290516000918291829161016a916105639190610aa1565b6000604051808303816000865af19150503d80600081146105a0576040519150601f19603f3d011682016040523d82523d6000602084013e6105a5565b606091505b5091509150816105b65760156105ca565b808060200190518101906105ca9190610acf565b60030b9695505050505050565b60008060006101676001600160a01b0316630e71804f60e01b8686604051602401610603929190610e67565b60408051601f198184030181529181526020820180516001600160e01b03166001600160e01b03199094169390931790925290516106419190610aa1565b6000604051808303816000865af19150503d806000811461067e576040519150601f19603f3d011682016040523d82523d6000602084013e610683565b606091505b5091509150816106945760156106a8565b808060200190518101906106a89190610acf565b60030b95945050505050565b604080516001600160a01b038481166024830152831660448083019190915282518083039091018152606490910182526020810180516001600160e01b0316637f62333360e11b179052905160009182918291829161016a9161071691610aa1565b6000604051808303816000865af19150503d8060008114610753576040519150601f19603f3d011682016040523d82523d6000602084013e610758565b606091505b50915091508161076b5760156000610396565b808060200190518101906103969190610f65565b80356001600160a01b038116811461079657600080fd5b919050565b600080600080608085870312156107b157600080fd5b6107ba8561077f565b93506107c86020860161077f565b92506107d66040860161077f565b9396929550929360600135925050565b6000806000606084860312156107fb57600080fd5b6108048461077f565b92506108126020850161077f565b9150604084013590509250925092565b634e487b7160e01b600052604160045260246000fd5b6040516060810167ffffffffffffffff8111828210171561085b5761085b610822565b60405290565b6040516080810167ffffffffffffffff8111828210171561085b5761085b610822565b604051601f8201601f1916810167ffffffffffffffff811182821017156108ad576108ad610822565b604052919050565b600080604083850312156108c857600080fd5b6108d18361077f565b915060208084013567ffffffffffffffff808211156108ef57600080fd5b818601915086601f83011261090357600080fd5b81358181111561091557610915610822565b610927601f8201601f19168501610884565b9150808252878482850101111561093d57600080fd5b80848401858401376000848284010152508093505050509250929050565b60005b8381101561097657818101518382015260200161095e565b50506000910152565b6000815180845261099781602086016020860161095b565b601f01601f19169290920160200192915050565b8281526040602082015260006109c4604083018461097f565b949350505050565b6000806000604084860312156109e157600080fd5b833567ffffffffffffffff808211156109f957600080fd5b9085019060208288031215610a0d57600080fd5b90935060208501359080821115610a2357600080fd5b818601915086601f830112610a3757600080fd5b813581811115610a4657600080fd5b8760208260051b8501011115610a5b57600080fd5b6020830194508093505050509250925092565b60008060408385031215610a8157600080fd5b610a8a8361077f565b9150610a986020840161077f565b90509250929050565b60008251610ab381846020870161095b565b9190910192915050565b8051600381900b811461079657600080fd5b600060208284031215610ae157600080fd5b61028382610abd565b6001600160a01b03831681526040602082015260006109c4604083018461097f565b82151581526040602082015260006109c4604083018461097f565b600067ffffffffffffffff821115610b4157610b41610822565b5060051b60200190565b8035600781900b811461079657600080fd5b8035801515811461079657600080fd5b600082601f830112610b7e57600080fd5b81356020610b93610b8e83610b27565b610884565b82815260609283028501820192828201919087851115610bb257600080fd5b8387015b85811015610c0e5781818a031215610bce5760008081fd5b610bd6610838565b610bdf8261077f565b8152610bec868301610b4b565b868201526040610bfd818401610b5d565b908201528452928401928101610bb6565b5090979650505050505050565b600060208236031215610c2d57600080fd5b6040516020810167ffffffffffffffff8282108183111715610c5157610c51610822565b816040528435915080821115610c6657600080fd5b50610c7336828601610b6d565b82525092915050565b6000610c8a610b8e84610b27565b80848252602080830192508560051b850136811115610ca857600080fd5b855b81811015610dfb57803567ffffffffffffffff80821115610ccb5760008081fd5b81890191506060808336031215610ce25760008081fd5b610cea610838565b610cf38461077f565b81528684013583811115610d075760008081fd5b610d1336828701610b6d565b888301525060408085013584811115610d2c5760008081fd5b949094019336601f860112610d4357600093508384fd5b84359350610d53610b8e85610b27565b84815260079490941b85018801938881019036861115610d735760008081fd5b958901955b85871015610de35760808736031215610d915760008081fd5b610d99610861565b610da28861077f565b8152610daf8b890161077f565b8b820152610dbe848901610b4b565b84820152610dcd868901610b5d565b8187015282526080969096019590890190610d78565b91830191909152508852505050938201938201610caa565b50919695505050505050565b60008151808452602080850194506020840160005b83811015610e5c57815180516001600160a01b031688528381015160070b8489015260409081015115159088015260609096019590820190600101610e1c565b509495945050505050565b600060408083526060855160208084870152610e866060870183610e07565b9150858203818701528187518084528284019150828160051b850101838a0160005b83811015610f5457601f1987840301855281516001600160a01b03808251168552878201518a89870152610ede8b870182610e07565b928c0151868403878e01528051808552908a0193600092508a01905b80831015610f3e5784518051851683528b81015185168c8401528e81015160070b8f8401528d015115158d830152938a019360019290920191608090910190610efa565b5097890197955050509186019150600101610ea8565b50909b9a5050505050505050505050565b60008060408385031215610f7857600080fd5b610f8183610abd565b915060208301519050925092905056fea264697066735822122080a0c4b13ba00d5fd17bd89dd8973749ed9e2e8ffc0e4c10b49b368b54110a8a64736f6c63430008170033",
  "linkReferences": {},
  "deployedLinkReferences": {}
}