{
  "_format": "hh-sol-artifact-1",
  "contractName": "CryptoAllowance",
  "sourceName": "contracts/hts-precompile/examples/crypto-allowance/cryptoAllowance.sol",
  "abi": [
    {
      "anonymous": false,
      "inputs": [
        {
          "indexed": false,
          "internalType": "address",
          "name": "owner",
          "type": "address"
        },
        {
          "indexed": false,
          "internalType": "address",
          "name": "spender",
          "type": "address"
        },
        {
          "indexed": false,
          "internalType": "int256",
          "name": "amount",
          "type": "int256"
        }
      ],
      "name": "HbarAllowance",
      "type": "event"
    },
    {
      "anonymous": false,
      "inputs": [
        {
          "indexed": false,
          "internalType": "int256",
          "name": "responseCode",
          "type": "int256"
        }
      ],
      "name": "ResponseCode",
      "type": "event"
    },
    {
      "inputs": [
        {
          "internalType": "address",
          "name": "owner",
          "type": "address"
        },
        {
          "internalType": "address",
          "name": "spender",
          "type": "address"
        }
      ],
      "name": "hbarAllowancePublic",
      "outputs": [],
      "stateMutability": "nonpayable",
      "type": "function"
    },
    {
      "inputs": [
        {
          "internalType": "address",
          "name": "owner",
          "type": "address"
        },
        {
          "internalType": "address",
          "name": "spender",
          "type": "address"
        },
        {
          "internalType": "int256",
          "name": "amount",
          "type": "int256"
        }
      ],
      "name": "hbarApprovePublic",
      "outputs": [
        {
          "internalType": "int64",
          "name": "responseCode",
          "type": "int64"
        }
      ],
      "stateMutability": "nonpayable",
      "type": "function"
    }
  ],
  "bytecode": "0x608060405234801561001057600080fd5b50610483806100206000396000f3fe608060405234801561001057600080fd5b50600436106100365760003560e01c806348e309e01461003b578063e06da58d14610065575b600080fd5b61004e610049366004610356565b61007a565b60405160079190910b815260200160405180910390f35b610078610073366004610392565b6100d9565b005b6000610087848484610184565b604051600782900b81529091507f90a5cf4cffe88b4edbb041cfc7a8a812c48a5ec30b84640fb37690875168e3aa9060200160405180910390a1600781900b6016146100d257600080fd5b9392505050565b6000806100e6848461025d565b604051600783900b815291935091507f90a5cf4cffe88b4edbb041cfc7a8a812c48a5ec30b84640fb37690875168e3aa9060200160405180910390a1600782900b60161461013357600080fd5b604080516001600160a01b038087168252851660208201529081018290527fb43ff8a636f83cf14bb647951bbcbd71fd09b36cf207b15408bebcb03151c3169060600160405180910390a150505050565b604080516001600160a01b03858116602483015284166044820152606480820184905282518083039091018152608490910182526020810180516001600160e01b0316632824611960e21b17905290516000918291829161016a916101e991906103c5565b6000604051808303816000865af19150503d8060008114610226576040519150601f19603f3d011682016040523d82523d6000602084013e61022b565b606091505b50915091508161023c576015610250565b808060200190518101906102509190610406565b60030b9695505050505050565b604080516001600160a01b038481166024830152831660448083019190915282518083039091018152606490910182526020810180516001600160e01b0316637f62333360e11b179052905160009182918291829161016a916102bf916103c5565b6000604051808303816000865af19150503d80600081146102fc576040519150601f19603f3d011682016040523d82523d6000602084013e610301565b606091505b5091509150816103145760156000610328565b808060200190518101906103289190610421565b60039190910b97909650945050505050565b80356001600160a01b038116811461035157600080fd5b919050565b60008060006060848603121561036b57600080fd5b6103748461033a565b92506103826020850161033a565b9150604084013590509250925092565b600080604083850312156103a557600080fd5b6103ae8361033a565b91506103bc6020840161033a565b90509250929050565b6000825160005b818110156103e657602081860181015185830152016103cc565b506000920191825250919050565b8051600381900b811461035157600080fd5b60006020828403121561041857600080fd5b6100d2826103f4565b6000806040838503121561043457600080fd5b61043d836103f4565b915060208301519050925092905056fea2646970667358221220e6a90acb5a35ecaab08d6b0d72d05079700d110644ce5bfe0d0fa193e29c635b64736f6c63430008170033",
  "linkReferences": {},
  "deployedLinkReferences": {}
}