{
  "_format": "hh-sol-artifact-1",
  "contractName": "SafeViewOperations",
  "sourceName": "contracts/safe-hts-precompile/SafeViewOperations.sol",
  "abi": [
    {
      "inputs": [],
      "name": "AllowanceFailed",
      "type": "error"
    },
    {
      "inputs": [],
      "name": "GetApprovedFailed",
      "type": "error"
    },
    {
      "inputs": [],
      "name": "GetFungibleTokenInfoFailed",
      "type": "error"
    },
    {
      "inputs": [],
      "name": "GetNonFungibleTokenInfoFailed",
      "type": "error"
    },
    {
      "inputs": [],
      "name": "GetTokenCustomFeesFailed",
      "type": "error"
    },
    {
      "inputs": [],
      "name": "GetTokenDefaultFreezeStatusFailed",
      "type": "error"
    },
    {
      "inputs": [],
      "name": "GetTokenDefaultKYCStatusFailed",
      "type": "error"
    },
    {
      "inputs": [],
      "name": "GetTokenExpiryInfoFailed",
      "type": "error"
    },
    {
      "inputs": [],
      "name": "GetTokenInfoFailed",
      "type": "error"
    },
    {
      "inputs": [],
      "name": "GetTokenKeyFailed",
      "type": "error"
    },
    {
      "inputs": [],
      "name": "GetTokenTypeFailed",
      "type": "error"
    },
    {
      "inputs": [],
      "name": "IsApprovedForAllFailed",
      "type": "error"
    },
    {
      "inputs": [],
      "name": "IsFrozenFailed",
      "type": "error"
    },
    {
      "inputs": [],
      "name": "IsKYCGrantedFailed",
      "type": "error"
    },
    {
      "inputs": [],
      "name": "IsTokenFailed",
      "type": "error"
    },
    {
      "anonymous": false,
      "inputs": [
        {
          "indexed": false,
          "internalType": "uint256",
          "name": "",
          "type": "uint256"
        }
      ],
      "name": "Allowance",
      "type": "event"
    },
    {
      "anonymous": false,
      "inputs": [
        {
          "indexed": false,
          "internalType": "address",
          "name": "",
          "type": "address"
        }
      ],
      "name": "GetApproved",
      "type": "event"
    },
    {
      "anonymous": false,
      "inputs": [
        {
          "components": [
            {
              "components": [
                {
                  "components": [
                    {
                      "internalType": "string",
                      "name": "name",
                      "type": "string"
                    },
                    {
                      "internalType": "string",
                      "name": "symbol",
                      "type": "string"
                    },
                    {
                      "internalType": "address",
                      "name": "treasury",
                      "type": "address"
                    },
                    {
                      "internalType": "string",
                      "name": "memo",
                      "type": "string"
                    },
                    {
                      "internalType": "bool",
                      "name": "tokenSupplyType",
                      "type": "bool"
                    },
                    {
                      "internalType": "int64",
                      "name": "maxSupply",
                      "type": "int64"
                    },
                    {
                      "internalType": "bool",
                      "name": "freezeDefault",
                      "type": "bool"
                    },
                    {
                      "components": [
                        {
                          "internalType": "uint256",
                          "name": "keyType",
                          "type": "uint256"
                        },
                        {
                          "components": [
                            {
                              "internalType": "bool",
                              "name": "inheritAccountKey",
                              "type": "bool"
                            },
                            {
                              "internalType": "address",
                              "name": "contractId",
                              "type": "address"
                            },
                            {
                              "internalType": "bytes",
                              "name": "ed25519",
                              "type": "bytes"
                            },
                            {
                              "internalType": "bytes",
                              "name": "ECDSA_secp256k1",
                              "type": "bytes"
                            },
                            {
                              "internalType": "address",
                              "name": "delegatableContractId",
                              "type": "address"
                            }
                          ],
                          "internalType": "struct IHederaTokenService.KeyValue",
                          "name": "key",
                          "type": "tuple"
                        }
                      ],
                      "internalType": "struct IHederaTokenService.TokenKey[]",
                      "name": "tokenKeys",
                      "type": "tuple[]"
                    },
                    {
                      "components": [
                        {
                          "internalType": "int64",
                          "name": "second",
                          "type": "int64"
                        },
                        {
                          "internalType": "address",
                          "name": "autoRenewAccount",
                          "type": "address"
                        },
                        {
                          "internalType": "int64",
                          "name": "autoRenewPeriod",
                          "type": "int64"
                        }
                      ],
                      "internalType": "struct IHederaTokenService.Expiry",
                      "name": "expiry",
                      "type": "tuple"
                    }
                  ],
                  "internalType": "struct IHederaTokenService.HederaToken",
                  "name": "token",
                  "type": "tuple"
                },
                {
                  "internalType": "int64",
                  "name": "totalSupply",
                  "type": "int64"
                },
                {
                  "internalType": "bool",
                  "name": "deleted",
                  "type": "bool"
                },
                {
                  "internalType": "bool",
                  "name": "defaultKycStatus",
                  "type": "bool"
                },
                {
                  "internalType": "bool",
                  "name": "pauseStatus",
                  "type": "bool"
                },
                {
                  "components": [
                    {
                      "internalType": "int64",
                      "name": "amount",
                      "type": "int64"
                    },
                    {
                      "internalType": "address",
                      "name": "tokenId",
                      "type": "address"
                    },
                    {
                      "internalType": "bool",
                      "name": "useHbarsForPayment",
                      "type": "bool"
                    },
                    {
                      "internalType": "bool",
                      "name": "useCurrentTokenForPayment",
                      "type": "bool"
                    },
                    {
                      "internalType": "address",
                      "name": "feeCollector",
                      "type": "address"
                    }
                  ],
                  "internalType": "struct IHederaTokenService.FixedFee[]",
                  "name": "fixedFees",
                  "type": "tuple[]"
                },
                {
                  "components": [
                    {
                      "internalType": "int64",
                      "name": "numerator",
                      "type": "int64"
                    },
                    {
                      "internalType": "int64",
                      "name": "denominator",
                      "type": "int64"
                    },
                    {
                      "internalType": "int64",
                      "name": "minimumAmount",
                      "type": "int64"
                    },
                    {
                      "internalType": "int64",
                      "name": "maximumAmount",
                      "type": "int64"
                    },
                    {
                      "internalType": "bool",
                      "name": "netOfTransfers",
                      "type": "bool"
                    },
                    {
                      "internalType": "address",
                      "name": "feeCollector",
                      "type": "address"
                    }
                  ],
                  "internalType": "struct IHederaTokenService.FractionalFee[]",
                  "name": "fractionalFees",
                  "type": "tuple[]"
                },
                {
                  "components": [
                    {
                      "internalType": "int64",
                      "name": "numerator",
                      "type": "int64"
                    },
                    {
                      "internalType": "int64",
                      "name": "denominator",
                      "type": "int64"
                    },
                    {
                      "internalType": "int64",
                      "name": "amount",
                      "type": "int64"
                    },
                    {
                      "internalType": "address",
                      "name": "tokenId",
                      "type": "address"
                    },
                    {
                      "internalType": "bool",
                      "name": "useHbarsForPayment",
                      "type": "bool"
                    },
                    {
                      "internalType": "address",
                      "name": "feeCollector",
                      "type": "address"
                    }
                  ],
                  "internalType": "struct IHederaTokenService.RoyaltyFee[]",
                  "name": "royaltyFees",
                  "type": "tuple[]"
                },
                {
                  "internalType": "string",
                  "name": "ledgerId",
                  "type": "string"
                }
              ],
              "internalType": "struct IHederaTokenService.TokenInfo",
              "name": "tokenInfo",
              "type": "tuple"
            },
            {
              "internalType": "int32",
              "name": "decimals",
              "type": "int32"
            }
          ],
          "indexed": false,
          "internalType": "struct IHederaTokenService.FungibleTokenInfo",
          "name": "",
          "type": "tuple"
        }
      ],
      "name": "GetFungibleTokenInfo",
      "type": "event"
    },
    {
      "anonymous": false,
      "inputs": [
        {
          "components": [
            {
              "components": [
                {
                  "components": [
                    {
                      "internalType": "string",
                      "name": "name",
                      "type": "string"
                    },
                    {
                      "internalType": "string",
                      "name": "symbol",
                      "type": "string"
                    },
                    {
                      "internalType": "address",
                      "name": "treasury",
                      "type": "address"
                    },
                    {
                      "internalType": "string",
                      "name": "memo",
                      "type": "string"
                    },
                    {
                      "internalType": "bool",
                      "name": "tokenSupplyType",
                      "type": "bool"
                    },
                    {
                      "internalType": "int64",
                      "name": "maxSupply",
                      "type": "int64"
                    },
                    {
                      "internalType": "bool",
                      "name": "freezeDefault",
                      "type": "bool"
                    },
                    {
                      "components": [
                        {
                          "internalType": "uint256",
                          "name": "keyType",
                          "type": "uint256"
                        },
                        {
                          "components": [
                            {
                              "internalType": "bool",
                              "name": "inheritAccountKey",
                              "type": "bool"
                            },
                            {
                              "internalType": "address",
                              "name": "contractId",
                              "type": "address"
                            },
                            {
                              "internalType": "bytes",
                              "name": "ed25519",
                              "type": "bytes"
                            },
                            {
                              "internalType": "bytes",
                              "name": "ECDSA_secp256k1",
                              "type": "bytes"
                            },
                            {
                              "internalType": "address",
                              "name": "delegatableContractId",
                              "type": "address"
                            }
                          ],
                          "internalType": "struct IHederaTokenService.KeyValue",
                          "name": "key",
                          "type": "tuple"
                        }
                      ],
                      "internalType": "struct IHederaTokenService.TokenKey[]",
                      "name": "tokenKeys",
                      "type": "tuple[]"
                    },
                    {
                      "components": [
                        {
                          "internalType": "int64",
                          "name": "second",
                          "type": "int64"
                        },
                        {
                          "internalType": "address",
                          "name": "autoRenewAccount",
                          "type": "address"
                        },
                        {
                          "internalType": "int64",
                          "name": "autoRenewPeriod",
                          "type": "int64"
                        }
                      ],
                      "internalType": "struct IHederaTokenService.Expiry",
                      "name": "expiry",
                      "type": "tuple"
                    }
                  ],
                  "internalType": "struct IHederaTokenService.HederaToken",
                  "name": "token",
                  "type": "tuple"
                },
                {
                  "internalType": "int64",
                  "name": "totalSupply",
                  "type": "int64"
                },
                {
                  "internalType": "bool",
                  "name": "deleted",
                  "type": "bool"
                },
                {
                  "internalType": "bool",
                  "name": "defaultKycStatus",
                  "type": "bool"
                },
                {
                  "internalType": "bool",
                  "name": "pauseStatus",
                  "type": "bool"
                },
                {
                  "components": [
                    {
                      "internalType": "int64",
                      "name": "amount",
                      "type": "int64"
                    },
                    {
                      "internalType": "address",
                      "name": "tokenId",
                      "type": "address"
                    },
                    {
                      "internalType": "bool",
                      "name": "useHbarsForPayment",
                      "type": "bool"
                    },
                    {
                      "internalType": "bool",
                      "name": "useCurrentTokenForPayment",
                      "type": "bool"
                    },
                    {
                      "internalType": "address",
                      "name": "feeCollector",
                      "type": "address"
                    }
                  ],
                  "internalType": "struct IHederaTokenService.FixedFee[]",
                  "name": "fixedFees",
                  "type": "tuple[]"
                },
                {
                  "components": [
                    {
                      "internalType": "int64",
                      "name": "numerator",
                      "type": "int64"
                    },
                    {
                      "internalType": "int64",
                      "name": "denominator",
                      "type": "int64"
                    },
                    {
                      "internalType": "int64",
                      "name": "minimumAmount",
                      "type": "int64"
                    },
                    {
                      "internalType": "int64",
                      "name": "maximumAmount",
                      "type": "int64"
                    },
                    {
                      "internalType": "bool",
                      "name": "netOfTransfers",
                      "type": "bool"
                    },
                    {
                      "internalType": "address",
                      "name": "feeCollector",
                      "type": "address"
                    }
                  ],
                  "internalType": "struct IHederaTokenService.FractionalFee[]",
                  "name": "fractionalFees",
                  "type": "tuple[]"
                },
                {
                  "components": [
                    {
                      "internalType": "int64",
                      "name": "numerator",
                      "type": "int64"
                    },
                    {
                      "internalType": "int64",
                      "name": "denominator",
                      "type": "int64"
                    },
                    {
                      "internalType": "int64",
                      "name": "amount",
                      "type": "int64"
                    },
                    {
                      "internalType": "address",
                      "name": "tokenId",
                      "type": "address"
                    },
                    {
                      "internalType": "bool",
                      "name": "useHbarsForPayment",
                      "type": "bool"
                    },
                    {
                      "internalType": "address",
                      "name": "feeCollector",
                      "type": "address"
                    }
                  ],
                  "internalType": "struct IHederaTokenService.RoyaltyFee[]",
                  "name": "royaltyFees",
                  "type": "tuple[]"
                },
                {
                  "internalType": "string",
                  "name": "ledgerId",
                  "type": "string"
                }
              ],
              "internalType": "struct IHederaTokenService.TokenInfo",
              "name": "tokenInfo",
              "type": "tuple"
            },
            {
              "internalType": "int64",
              "name": "serialNumber",
              "type": "int64"
            },
            {
              "internalType": "address",
              "name": "ownerId",
              "type": "address"
            },
            {
              "internalType": "int64",
              "name": "creationTime",
              "type": "int64"
            },
            {
              "internalType": "bytes",
              "name": "metadata",
              "type": "bytes"
            },
            {
              "internalType": "address",
              "name": "spenderId",
              "type": "address"
            }
          ],
          "indexed": false,
          "internalType": "struct IHederaTokenService.NonFungibleTokenInfo",
          "name": "",
          "type": "tuple"
        }
      ],
      "name": "GetNonFungibleTokenInfo",
      "type": "event"
    },
    {
      "anonymous": false,
      "inputs": [
        {
          "components": [
            {
              "internalType": "int64",
              "name": "amount",
              "type": "int64"
            },
            {
              "internalType": "address",
              "name": "tokenId",
              "type": "address"
            },
            {
              "internalType": "bool",
              "name": "useHbarsForPayment",
              "type": "bool"
            },
            {
              "internalType": "bool",
              "name": "useCurrentTokenForPayment",
              "type": "bool"
            },
            {
              "internalType": "address",
              "name": "feeCollector",
              "type": "address"
            }
          ],
          "indexed": false,
          "internalType": "struct IHederaTokenService.FixedFee[]",
          "name": "",
          "type": "tuple[]"
        },
        {
          "components": [
            {
              "internalType": "int64",
              "name": "numerator",
              "type": "int64"
            },
            {
              "internalType": "int64",
              "name": "denominator",
              "type": "int64"
            },
            {
              "internalType": "int64",
              "name": "minimumAmount",
              "type": "int64"
            },
            {
              "internalType": "int64",
              "name": "maximumAmount",
              "type": "int64"
            },
            {
              "internalType": "bool",
              "name": "netOfTransfers",
              "type": "bool"
            },
            {
              "internalType": "address",
              "name": "feeCollector",
              "type": "address"
            }
          ],
          "indexed": false,
          "internalType": "struct IHederaTokenService.FractionalFee[]",
          "name": "",
          "type": "tuple[]"
        },
        {
          "components": [
            {
              "internalType": "int64",
              "name": "numerator",
              "type": "int64"
            },
            {
              "internalType": "int64",
              "name": "denominator",
              "type": "int64"
            },
            {
              "internalType": "int64",
              "name": "amount",
              "type": "int64"
            },
            {
              "internalType": "address",
              "name": "tokenId",
              "type": "address"
            },
            {
              "internalType": "bool",
              "name": "useHbarsForPayment",
              "type": "bool"
            },
            {
              "internalType": "address",
              "name": "feeCollector",
              "type": "address"
            }
          ],
          "indexed": false,
          "internalType": "struct IHederaTokenService.RoyaltyFee[]",
          "name": "",
          "type": "tuple[]"
        }
      ],
      "name": "GetTokenCustomFees",
      "type": "event"
    },
    {
      "anonymous": false,
      "inputs": [
        {
          "indexed": false,
          "internalType": "bool",
          "name": "",
          "type": "bool"
        }
      ],
      "name": "GetTokenDefaultFreezeStatus",
      "type": "event"
    },
    {
      "anonymous": false,
      "inputs": [
        {
          "indexed": false,
          "internalType": "bool",
          "name": "",
          "type": "bool"
        }
      ],
      "name": "GetTokenDefaultKycStatus",
      "type": "event"
    },
    {
      "anonymous": false,
      "inputs": [
        {
          "components": [
            {
              "internalType": "int64",
              "name": "second",
              "type": "int64"
            },
            {
              "internalType": "address",
              "name": "autoRenewAccount",
              "type": "address"
            },
            {
              "internalType": "int64",
              "name": "autoRenewPeriod",
              "type": "int64"
            }
          ],
          "indexed": false,
          "internalType": "struct IHederaTokenService.Expiry",
          "name": "",
          "type": "tuple"
        }
      ],
      "name": "GetTokenExpiryInfo",
      "type": "event"
    },
    {
      "anonymous": false,
      "inputs": [
        {
          "components": [
            {
              "components": [
                {
                  "internalType": "string",
                  "name": "name",
                  "type": "string"
                },
                {
                  "internalType": "string",
                  "name": "symbol",
                  "type": "string"
                },
                {
                  "internalType": "address",
                  "name": "treasury",
                  "type": "address"
                },
                {
                  "internalType": "string",
                  "name": "memo",
                  "type": "string"
                },
                {
                  "internalType": "bool",
                  "name": "tokenSupplyType",
                  "type": "bool"
                },
                {
                  "internalType": "int64",
                  "name": "maxSupply",
                  "type": "int64"
                },
                {
                  "internalType": "bool",
                  "name": "freezeDefault",
                  "type": "bool"
                },
                {
                  "components": [
                    {
                      "internalType": "uint256",
                      "name": "keyType",
                      "type": "uint256"
                    },
                    {
                      "components": [
                        {
                          "internalType": "bool",
                          "name": "inheritAccountKey",
                          "type": "bool"
                        },
                        {
                          "internalType": "address",
                          "name": "contractId",
                          "type": "address"
                        },
                        {
                          "internalType": "bytes",
                          "name": "ed25519",
                          "type": "bytes"
                        },
                        {
                          "internalType": "bytes",
                          "name": "ECDSA_secp256k1",
                          "type": "bytes"
                        },
                        {
                          "internalType": "address",
                          "name": "delegatableContractId",
                          "type": "address"
                        }
                      ],
                      "internalType": "struct IHederaTokenService.KeyValue",
                      "name": "key",
                      "type": "tuple"
                    }
                  ],
                  "internalType": "struct IHederaTokenService.TokenKey[]",
                  "name": "tokenKeys",
                  "type": "tuple[]"
                },
                {
                  "components": [
                    {
                      "internalType": "int64",
                      "name": "second",
                      "type": "int64"
                    },
                    {
                      "internalType": "address",
                      "name": "autoRenewAccount",
                      "type": "address"
                    },
                    {
                      "internalType": "int64",
                      "name": "autoRenewPeriod",
                      "type": "int64"
                    }
                  ],
                  "internalType": "struct IHederaTokenService.Expiry",
                  "name": "expiry",
                  "type": "tuple"
                }
              ],
              "internalType": "struct IHederaTokenService.HederaToken",
              "name": "token",
              "type": "tuple"
            },
            {
              "internalType": "int64",
              "name": "totalSupply",
              "type": "int64"
            },
            {
              "internalType": "bool",
              "name": "deleted",
              "type": "bool"
            },
            {
              "internalType": "bool",
              "name": "defaultKycStatus",
              "type": "bool"
            },
            {
              "internalType": "bool",
              "name": "pauseStatus",
              "type": "bool"
            },
            {
              "components": [
                {
                  "internalType": "int64",
                  "name": "amount",
                  "type": "int64"
                },
                {
                  "internalType": "address",
                  "name": "tokenId",
                  "type": "address"
                },
                {
                  "internalType": "bool",
                  "name": "useHbarsForPayment",
                  "type": "bool"
                },
                {
                  "internalType": "bool",
                  "name": "useCurrentTokenForPayment",
                  "type": "bool"
                },
                {
                  "internalType": "address",
                  "name": "feeCollector",
                  "type": "address"
                }
              ],
              "internalType": "struct IHederaTokenService.FixedFee[]",
              "name": "fixedFees",
              "type": "tuple[]"
            },
            {
              "components": [
                {
                  "internalType": "int64",
                  "name": "numerator",
                  "type": "int64"
                },
                {
                  "internalType": "int64",
                  "name": "denominator",
                  "type": "int64"
                },
                {
                  "internalType": "int64",
                  "name": "minimumAmount",
                  "type": "int64"
                },
                {
                  "internalType": "int64",
                  "name": "maximumAmount",
                  "type": "int64"
                },
                {
                  "internalType": "bool",
                  "name": "netOfTransfers",
                  "type": "bool"
                },
                {
                  "internalType": "address",
                  "name": "feeCollector",
                  "type": "address"
                }
              ],
              "internalType": "struct IHederaTokenService.FractionalFee[]",
              "name": "fractionalFees",
              "type": "tuple[]"
            },
            {
              "components": [
                {
                  "internalType": "int64",
                  "name": "numerator",
                  "type": "int64"
                },
                {
                  "internalType": "int64",
                  "name": "denominator",
                  "type": "int64"
                },
                {
                  "internalType": "int64",
                  "name": "amount",
                  "type": "int64"
                },
                {
                  "internalType": "address",
                  "name": "tokenId",
                  "type": "address"
                },
                {
                  "internalType": "bool",
                  "name": "useHbarsForPayment",
                  "type": "bool"
                },
                {
                  "internalType": "address",
                  "name": "feeCollector",
                  "type": "address"
                }
              ],
              "internalType": "struct IHederaTokenService.RoyaltyFee[]",
              "name": "royaltyFees",
              "type": "tuple[]"
            },
            {
              "internalType": "string",
              "name": "ledgerId",
              "type": "string"
            }
          ],
          "indexed": false,
          "internalType": "struct IHederaTokenService.TokenInfo",
          "name": "",
          "type": "tuple"
        }
      ],
      "name": "GetTokenInfo",
      "type": "event"
    },
    {
      "anonymous": false,
      "inputs": [
        {
          "components": [
            {
              "internalType": "bool",
              "name": "inheritAccountKey",
              "type": "bool"
            },
            {
              "internalType": "address",
              "name": "contractId",
              "type": "address"
            },
            {
              "internalType": "bytes",
              "name": "ed25519",
              "type": "bytes"
            },
            {
              "internalType": "bytes",
              "name": "ECDSA_secp256k1",
              "type": "bytes"
            },
            {
              "internalType": "address",
              "name": "delegatableContractId",
              "type": "address"
            }
          ],
          "indexed": false,
          "internalType": "struct IHederaTokenService.KeyValue",
          "name": "",
          "type": "tuple"
        }
      ],
      "name": "GetTokenKey",
      "type": "event"
    },
    {
      "anonymous": false,
      "inputs": [
        {
          "indexed": false,
          "internalType": "int32",
          "name": "",
          "type": "int32"
        }
      ],
      "name": "GetTokenType",
      "type": "event"
    },
    {
      "anonymous": false,
      "inputs": [
        {
          "indexed": false,
          "internalType": "bool",
          "name": "",
          "type": "bool"
        }
      ],
      "name": "IsApprovedForAll",
      "type": "event"
    },
    {
      "anonymous": false,
      "inputs": [
        {
          "indexed": false,
          "internalType": "bool",
          "name": "",
          "type": "bool"
        }
      ],
      "name": "IsFrozen",
      "type": "event"
    },
    {
      "anonymous": false,
      "inputs": [
        {
          "indexed": false,
          "internalType": "bool",
          "name": "",
          "type": "bool"
        }
      ],
      "name": "IsKyc",
      "type": "event"
    },
    {
      "anonymous": false,
      "inputs": [
        {
          "indexed": false,
          "internalType": "bool",
          "name": "",
          "type": "bool"
        }
      ],
      "name": "IsToken",
      "type": "event"
    },
    {
      "inputs": [
        {
          "internalType": "address",
          "name": "token",
          "type": "address"
        },
        {
          "internalType": "address",
          "name": "owner",
          "type": "address"
        },
        {
          "internalType": "address",
          "name": "spender",
          "type": "address"
        }
      ],
      "name": "safeAllowancePublic",
      "outputs": [
        {
          "internalType": "uint256",
          "name": "allowance",
          "type": "uint256"
        }
      ],
      "stateMutability": "nonpayable",
      "type": "function"
    },
    {
      "inputs": [
        {
          "internalType": "address",
          "name": "token",
          "type": "address"
        },
        {
          "internalType": "int64",
          "name": "serialNumber",
          "type": "int64"
        }
      ],
      "name": "safeGetApprovedPublic",
      "outputs": [
        {
          "internalType": "address",
          "name": "approved",
          "type": "address"
        }
      ],
      "stateMutability": "nonpayable",
      "type": "function"
    },
    {
      "inputs": [
        {
          "internalType": "address",
          "name": "token",
          "type": "address"
        }
      ],
      "name": "safeGetFungibleTokenInfoPublic",
      "outputs": [
        {
          "components": [
            {
              "components": [
                {
                  "components": [
                    {
                      "internalType": "string",
                      "name": "name",
                      "type": "string"
                    },
                    {
                      "internalType": "string",
                      "name": "symbol",
                      "type": "string"
                    },
                    {
                      "internalType": "address",
                      "name": "treasury",
                      "type": "address"
                    },
                    {
                      "internalType": "string",
                      "name": "memo",
                      "type": "string"
                    },
                    {
                      "internalType": "bool",
                      "name": "tokenSupplyType",
                      "type": "bool"
                    },
                    {
                      "internalType": "int64",
                      "name": "maxSupply",
                      "type": "int64"
                    },
                    {
                      "internalType": "bool",
                      "name": "freezeDefault",
                      "type": "bool"
                    },
                    {
                      "components": [
                        {
                          "internalType": "uint256",
                          "name": "keyType",
                          "type": "uint256"
                        },
                        {
                          "components": [
                            {
                              "internalType": "bool",
                              "name": "inheritAccountKey",
                              "type": "bool"
                            },
                            {
                              "internalType": "address",
                              "name": "contractId",
                              "type": "address"
                            },
                            {
                              "internalType": "bytes",
                              "name": "ed25519",
                              "type": "bytes"
                            },
                            {
                              "internalType": "bytes",
                              "name": "ECDSA_secp256k1",
                              "type": "bytes"
                            },
                            {
                              "internalType": "address",
                              "name": "delegatableContractId",
                              "type": "address"
                            }
                          ],
                          "internalType": "struct IHederaTokenService.KeyValue",
                          "name": "key",
                          "type": "tuple"
                        }
                      ],
                      "internalType": "struct IHederaTokenService.TokenKey[]",
                      "name": "tokenKeys",
                      "type": "tuple[]"
                    },
                    {
                      "components": [
                        {
                          "internalType": "int64",
                          "name": "second",
                          "type": "int64"
                        },
                        {
                          "internalType": "address",
                          "name": "autoRenewAccount",
                          "type": "address"
                        },
                        {
                          "internalType": "int64",
                          "name": "autoRenewPeriod",
                          "type": "int64"
                        }
                      ],
                      "internalType": "struct IHederaTokenService.Expiry",
                      "name": "expiry",
                      "type": "tuple"
                    }
                  ],
                  "internalType": "struct IHederaTokenService.HederaToken",
                  "name": "token",
                  "type": "tuple"
                },
                {
                  "internalType": "int64",
                  "name": "totalSupply",
                  "type": "int64"
                },
                {
                  "internalType": "bool",
                  "name": "deleted",
                  "type": "bool"
                },
                {
                  "internalType": "bool",
                  "name": "defaultKycStatus",
                  "type": "bool"
                },
                {
                  "internalType": "bool",
                  "name": "pauseStatus",
                  "type": "bool"
                },
                {
                  "components": [
                    {
                      "internalType": "int64",
                      "name": "amount",
                      "type": "int64"
                    },
                    {
                      "internalType": "address",
                      "name": "tokenId",
                      "type": "address"
                    },
                    {
                      "internalType": "bool",
                      "name": "useHbarsForPayment",
                      "type": "bool"
                    },
                    {
                      "internalType": "bool",
                      "name": "useCurrentTokenForPayment",
                      "type": "bool"
                    },
                    {
                      "internalType": "address",
                      "name": "feeCollector",
                      "type": "address"
                    }
                  ],
                  "internalType": "struct IHederaTokenService.FixedFee[]",
                  "name": "fixedFees",
                  "type": "tuple[]"
                },
                {
                  "components": [
                    {
                      "internalType": "int64",
                      "name": "numerator",
                      "type": "int64"
                    },
                    {
                      "internalType": "int64",
                      "name": "denominator",
                      "type": "int64"
                    },
                    {
                      "internalType": "int64",
                      "name": "minimumAmount",
                      "type": "int64"
                    },
                    {
                      "internalType": "int64",
                      "name": "maximumAmount",
                      "type": "int64"
                    },
                    {
                      "internalType": "bool",
                      "name": "netOfTransfers",
                      "type": "bool"
                    },
                    {
                      "internalType": "address",
                      "name": "feeCollector",
                      "type": "address"
                    }
                  ],
                  "internalType": "struct IHederaTokenService.FractionalFee[]",
                  "name": "fractionalFees",
                  "type": "tuple[]"
                },
                {
                  "components": [
                    {
                      "internalType": "int64",
                      "name": "numerator",
                      "type": "int64"
                    },
                    {
                      "internalType": "int64",
                      "name": "denominator",
                      "type": "int64"
                    },
                    {
                      "internalType": "int64",
                      "name": "amount",
                      "type": "int64"
                    },
                    {
                      "internalType": "address",
                      "name": "tokenId",
                      "type": "address"
                    },
                    {
                      "internalType": "bool",
                      "name": "useHbarsForPayment",
                      "type": "bool"
                    },
                    {
                      "internalType": "address",
                      "name": "feeCollector",
                      "type": "address"
                    }
                  ],
                  "internalType": "struct IHederaTokenService.RoyaltyFee[]",
                  "name": "royaltyFees",
                  "type": "tuple[]"
                },
                {
                  "internalType": "string",
                  "name": "ledgerId",
                  "type": "string"
                }
              ],
              "internalType": "struct IHederaTokenService.TokenInfo",
              "name": "tokenInfo",
              "type": "tuple"
            },
            {
              "internalType": "int32",
              "name": "decimals",
              "type": "int32"
            }
          ],
          "internalType": "struct IHederaTokenService.FungibleTokenInfo",
          "name": "fungibleTokenInfo",
          "type": "tuple"
        }
      ],
      "stateMutability": "nonpayable",
      "type": "function"
    },
    {
      "inputs": [
        {
          "internalType": "address",
          "name": "token",
          "type": "address"
        },
        {
          "internalType": "int64",
          "name": "serialNumber",
          "type": "int64"
        }
      ],
      "name": "safeGetNonFungibleTokenInfoPublic",
      "outputs": [
        {
          "components": [
            {
              "components": [
                {
                  "components": [
                    {
                      "internalType": "string",
                      "name": "name",
                      "type": "string"
                    },
                    {
                      "internalType": "string",
                      "name": "symbol",
                      "type": "string"
                    },
                    {
                      "internalType": "address",
                      "name": "treasury",
                      "type": "address"
                    },
                    {
                      "internalType": "string",
                      "name": "memo",
                      "type": "string"
                    },
                    {
                      "internalType": "bool",
                      "name": "tokenSupplyType",
                      "type": "bool"
                    },
                    {
                      "internalType": "int64",
                      "name": "maxSupply",
                      "type": "int64"
                    },
                    {
                      "internalType": "bool",
                      "name": "freezeDefault",
                      "type": "bool"
                    },
                    {
                      "components": [
                        {
                          "internalType": "uint256",
                          "name": "keyType",
                          "type": "uint256"
                        },
                        {
                          "components": [
                            {
                              "internalType": "bool",
                              "name": "inheritAccountKey",
                              "type": "bool"
                            },
                            {
                              "internalType": "address",
                              "name": "contractId",
                              "type": "address"
                            },
                            {
                              "internalType": "bytes",
                              "name": "ed25519",
                              "type": "bytes"
                            },
                            {
                              "internalType": "bytes",
                              "name": "ECDSA_secp256k1",
                              "type": "bytes"
                            },
                            {
                              "internalType": "address",
                              "name": "delegatableContractId",
                              "type": "address"
                            }
                          ],
                          "internalType": "struct IHederaTokenService.KeyValue",
                          "name": "key",
                          "type": "tuple"
                        }
                      ],
                      "internalType": "struct IHederaTokenService.TokenKey[]",
                      "name": "tokenKeys",
                      "type": "tuple[]"
                    },
                    {
                      "components": [
                        {
                          "internalType": "int64",
                          "name": "second",
                          "type": "int64"
                        },
                        {
                          "internalType": "address",
                          "name": "autoRenewAccount",
                          "type": "address"
                        },
                        {
                          "internalType": "int64",
                          "name": "autoRenewPeriod",
                          "type": "int64"
                        }
                      ],
                      "internalType": "struct IHederaTokenService.Expiry",
                      "name": "expiry",
                      "type": "tuple"
                    }
                  ],
                  "internalType": "struct IHederaTokenService.HederaToken",
                  "name": "token",
                  "type": "tuple"
                },
                {
                  "internalType": "int64",
                  "name": "totalSupply",
                  "type": "int64"
                },
                {
                  "internalType": "bool",
                  "name": "deleted",
                  "type": "bool"
                },
                {
                  "internalType": "bool",
                  "name": "defaultKycStatus",
                  "type": "bool"
                },
                {
                  "internalType": "bool",
                  "name": "pauseStatus",
                  "type": "bool"
                },
                {
                  "components": [
                    {
                      "internalType": "int64",
                      "name": "amount",
                      "type": "int64"
                    },
                    {
                      "internalType": "address",
                      "name": "tokenId",
                      "type": "address"
                    },
                    {
                      "internalType": "bool",
                      "name": "useHbarsForPayment",
                      "type": "bool"
                    },
                    {
                      "internalType": "bool",
                      "name": "useCurrentTokenForPayment",
                      "type": "bool"
                    },
                    {
                      "internalType": "address",
                      "name": "feeCollector",
                      "type": "address"
                    }
                  ],
                  "internalType": "struct IHederaTokenService.FixedFee[]",
                  "name": "fixedFees",
                  "type": "tuple[]"
                },
                {
                  "components": [
                    {
                      "internalType": "int64",
                      "name": "numerator",
                      "type": "int64"
                    },
                    {
                      "internalType": "int64",
                      "name": "denominator",
                      "type": "int64"
                    },
                    {
                      "internalType": "int64",
                      "name": "minimumAmount",
                      "type": "int64"
                    },
                    {
                      "internalType": "int64",
                      "name": "maximumAmount",
                      "type": "int64"
                    },
                    {
                      "internalType": "bool",
                      "name": "netOfTransfers",
                      "type": "bool"
                    },
                    {
                      "internalType": "address",
                      "name": "feeCollector",
                      "type": "address"
                    }
                  ],
                  "internalType": "struct IHederaTokenService.FractionalFee[]",
                  "name": "fractionalFees",
                  "type": "tuple[]"
                },
                {
                  "components": [
                    {
                      "internalType": "int64",
                      "name": "numerator",
                      "type": "int64"
                    },
                    {
                      "internalType": "int64",
                      "name": "denominator",
                      "type": "int64"
                    },
                    {
                      "internalType": "int64",
                      "name": "amount",
                      "type": "int64"
                    },
                    {
                      "internalType": "address",
                      "name": "tokenId",
                      "type": "address"
                    },
                    {
                      "internalType": "bool",
                      "name": "useHbarsForPayment",
                      "type": "bool"
                    },
                    {
                      "internalType": "address",
                      "name": "feeCollector",
                      "type": "address"
                    }
                  ],
                  "internalType": "struct IHederaTokenService.RoyaltyFee[]",
                  "name": "royaltyFees",
                  "type": "tuple[]"
                },
                {
                  "internalType": "string",
                  "name": "ledgerId",
                  "type": "string"
                }
              ],
              "internalType": "struct IHederaTokenService.TokenInfo",
              "name": "tokenInfo",
              "type": "tuple"
            },
            {
              "internalType": "int64",
              "name": "serialNumber",
              "type": "int64"
            },
            {
              "internalType": "address",
              "name": "ownerId",
              "type": "address"
            },
            {
              "internalType": "int64",
              "name": "creationTime",
              "type": "int64"
            },
            {
              "internalType": "bytes",
              "name": "metadata",
              "type": "bytes"
            },
            {
              "internalType": "address",
              "name": "spenderId",
              "type": "address"
            }
          ],
          "internalType": "struct IHederaTokenService.NonFungibleTokenInfo",
          "name": "nonFungibleTokenInfo",
          "type": "tuple"
        }
      ],
      "stateMutability": "nonpayable",
      "type": "function"
    },
    {
      "inputs": [
        {
          "internalType": "address",
          "name": "token",
          "type": "address"
        }
      ],
      "name": "safeGetTokenCustomFeesPublic",
      "outputs": [
        {
          "components": [
            {
              "internalType": "int64",
              "name": "amount",
              "type": "int64"
            },
            {
              "internalType": "address",
              "name": "tokenId",
              "type": "address"
            },
            {
              "internalType": "bool",
              "name": "useHbarsForPayment",
              "type": "bool"
            },
            {
              "internalType": "bool",
              "name": "useCurrentTokenForPayment",
              "type": "bool"
            },
            {
              "internalType": "address",
              "name": "feeCollector",
              "type": "address"
            }
          ],
          "internalType": "struct IHederaTokenService.FixedFee[]",
          "name": "fixedFees",
          "type": "tuple[]"
        },
        {
          "components": [
            {
              "internalType": "int64",
              "name": "numerator",
              "type": "int64"
            },
            {
              "internalType": "int64",
              "name": "denominator",
              "type": "int64"
            },
            {
              "internalType": "int64",
              "name": "minimumAmount",
              "type": "int64"
            },
            {
              "internalType": "int64",
              "name": "maximumAmount",
              "type": "int64"
            },
            {
              "internalType": "bool",
              "name": "netOfTransfers",
              "type": "bool"
            },
            {
              "internalType": "address",
              "name": "feeCollector",
              "type": "address"
            }
          ],
          "internalType": "struct IHederaTokenService.FractionalFee[]",
          "name": "fractionalFees",
          "type": "tuple[]"
        },
        {
          "components": [
            {
              "internalType": "int64",
              "name": "numerator",
              "type": "int64"
            },
            {
              "internalType": "int64",
              "name": "denominator",
              "type": "int64"
            },
            {
              "internalType": "int64",
              "name": "amount",
              "type": "int64"
            },
            {
              "internalType": "address",
              "name": "tokenId",
              "type": "address"
            },
            {
              "internalType": "bool",
              "name": "useHbarsForPayment",
              "type": "bool"
            },
            {
              "internalType": "address",
              "name": "feeCollector",
              "type": "address"
            }
          ],
          "internalType": "struct IHederaTokenService.RoyaltyFee[]",
          "name": "royaltyFees",
          "type": "tuple[]"
        }
      ],
      "stateMutability": "nonpayable",
      "type": "function"
    },
    {
      "inputs": [
        {
          "internalType": "address",
          "name": "token",
          "type": "address"
        }
      ],
      "name": "safeGetTokenDefaultFreezeStatusPublic",
      "outputs": [
        {
          "internalType": "bool",
          "name": "defaultFreezeStatus",
          "type": "bool"
        }
      ],
      "stateMutability": "nonpayable",
      "type": "function"
    },
    {
      "inputs": [
        {
          "internalType": "address",
          "name": "token",
          "type": "address"
        }
      ],
      "name": "safeGetTokenDefaultKycStatusPublic",
      "outputs": [
        {
          "internalType": "bool",
          "name": "defaultKycStatus",
          "type": "bool"
        }
      ],
      "stateMutability": "nonpayable",
      "type": "function"
    },
    {
      "inputs": [
        {
          "internalType": "address",
          "name": "token",
          "type": "address"
        }
      ],
      "name": "safeGetTokenExpiryInfoPublic",
      "outputs": [
        {
          "components": [
            {
              "internalType": "int64",
              "name": "second",
              "type": "int64"
            },
            {
              "internalType": "address",
              "name": "autoRenewAccount",
              "type": "address"
            },
            {
              "internalType": "int64",
              "name": "autoRenewPeriod",
              "type": "int64"
            }
          ],
          "internalType": "struct IHederaTokenService.Expiry",
          "name": "expiry",
          "type": "tuple"
        }
      ],
      "stateMutability": "nonpayable",
      "type": "function"
    },
    {
      "inputs": [
        {
          "internalType": "address",
          "name": "token",
          "type": "address"
        }
      ],
      "name": "safeGetTokenInfoPublic",
      "outputs": [
        {
          "components": [
            {
              "components": [
                {
                  "internalType": "string",
                  "name": "name",
                  "type": "string"
                },
                {
                  "internalType": "string",
                  "name": "symbol",
                  "type": "string"
                },
                {
                  "internalType": "address",
                  "name": "treasury",
                  "type": "address"
                },
                {
                  "internalType": "string",
                  "name": "memo",
                  "type": "string"
                },
                {
                  "internalType": "bool",
                  "name": "tokenSupplyType",
                  "type": "bool"
                },
                {
                  "internalType": "int64",
                  "name": "maxSupply",
                  "type": "int64"
                },
                {
                  "internalType": "bool",
                  "name": "freezeDefault",
                  "type": "bool"
                },
                {
                  "components": [
                    {
                      "internalType": "uint256",
                      "name": "keyType",
                      "type": "uint256"
                    },
                    {
                      "components": [
                        {
                          "internalType": "bool",
                          "name": "inheritAccountKey",
                          "type": "bool"
                        },
                        {
                          "internalType": "address",
                          "name": "contractId",
                          "type": "address"
                        },
                        {
                          "internalType": "bytes",
                          "name": "ed25519",
                          "type": "bytes"
                        },
                        {
                          "internalType": "bytes",
                          "name": "ECDSA_secp256k1",
                          "type": "bytes"
                        },
                        {
                          "internalType": "address",
                          "name": "delegatableContractId",
                          "type": "address"
                        }
                      ],
                      "internalType": "struct IHederaTokenService.KeyValue",
                      "name": "key",
                      "type": "tuple"
                    }
                  ],
                  "internalType": "struct IHederaTokenService.TokenKey[]",
                  "name": "tokenKeys",
                  "type": "tuple[]"
                },
                {
                  "components": [
                    {
                      "internalType": "int64",
                      "name": "second",
                      "type": "int64"
                    },
                    {
                      "internalType": "address",
                      "name": "autoRenewAccount",
                      "type": "address"
                    },
                    {
                      "internalType": "int64",
                      "name": "autoRenewPeriod",
                      "type": "int64"
                    }
                  ],
                  "internalType": "struct IHederaTokenService.Expiry",
                  "name": "expiry",
                  "type": "tuple"
                }
              ],
              "internalType": "struct IHederaTokenService.HederaToken",
              "name": "token",
              "type": "tuple"
            },
            {
              "internalType": "int64",
              "name": "totalSupply",
              "type": "int64"
            },
            {
              "internalType": "bool",
              "name": "deleted",
              "type": "bool"
            },
            {
              "internalType": "bool",
              "name": "defaultKycStatus",
              "type": "bool"
            },
            {
              "internalType": "bool",
              "name": "pauseStatus",
              "type": "bool"
            },
            {
              "components": [
                {
                  "internalType": "int64",
                  "name": "amount",
                  "type": "int64"
                },
                {
                  "internalType": "address",
                  "name": "tokenId",
                  "type": "address"
                },
                {
                  "internalType": "bool",
                  "name": "useHbarsForPayment",
                  "type": "bool"
                },
                {
                  "internalType": "bool",
                  "name": "useCurrentTokenForPayment",
                  "type": "bool"
                },
                {
                  "internalType": "address",
                  "name": "feeCollector",
                  "type": "address"
                }
              ],
              "internalType": "struct IHederaTokenService.FixedFee[]",
              "name": "fixedFees",
              "type": "tuple[]"
            },
            {
              "components": [
                {
                  "internalType": "int64",
                  "name": "numerator",
                  "type": "int64"
                },
                {
                  "internalType": "int64",
                  "name": "denominator",
                  "type": "int64"
                },
                {
                  "internalType": "int64",
                  "name": "minimumAmount",
                  "type": "int64"
                },
                {
                  "internalType": "int64",
                  "name": "maximumAmount",
                  "type": "int64"
                },
                {
                  "internalType": "bool",
                  "name": "netOfTransfers",
                  "type": "bool"
                },
                {
                  "internalType": "address",
                  "name": "feeCollector",
                  "type": "address"
                }
              ],
              "internalType": "struct IHederaTokenService.FractionalFee[]",
              "name": "fractionalFees",
              "type": "tuple[]"
            },
            {
              "components": [
                {
                  "internalType": "int64",
                  "name": "numerator",
                  "type": "int64"
                },
                {
                  "internalType": "int64",
                  "name": "denominator",
                  "type": "int64"
                },
                {
                  "internalType": "int64",
                  "name": "amount",
                  "type": "int64"
                },
                {
                  "internalType": "address",
                  "name": "tokenId",
                  "type": "address"
                },
                {
                  "internalType": "bool",
                  "name": "useHbarsForPayment",
                  "type": "bool"
                },
                {
                  "internalType": "address",
                  "name": "feeCollector",
                  "type": "address"
                }
              ],
              "internalType": "struct IHederaTokenService.RoyaltyFee[]",
              "name": "royaltyFees",
              "type": "tuple[]"
            },
            {
              "internalType": "string",
              "name": "ledgerId",
              "type": "string"
            }
          ],
          "internalType": "struct IHederaTokenService.TokenInfo",
          "name": "tokenInfo",
          "type": "tuple"
        }
      ],
      "stateMutability": "nonpayable",
      "type": "function"
    },
    {
      "inputs": [
        {
          "internalType": "address",
          "name": "token",
          "type": "address"
        },
        {
          "internalType": "uint256",
          "name": "keyType",
          "type": "uint256"
        }
      ],
      "name": "safeGetTokenKeyPublic",
      "outputs": [
        {
          "components": [
            {
              "internalType": "bool",
              "name": "inheritAccountKey",
              "type": "bool"
            },
            {
              "internalType": "address",
              "name": "contractId",
              "type": "address"
            },
            {
              "internalType": "bytes",
              "name": "ed25519",
              "type": "bytes"
            },
            {
              "internalType": "bytes",
              "name": "ECDSA_secp256k1",
              "type": "bytes"
            },
            {
              "internalType": "address",
              "name": "delegatableContractId",
              "type": "address"
            }
          ],
          "internalType": "struct IHederaTokenService.KeyValue",
          "name": "key",
          "type": "tuple"
        }
      ],
      "stateMutability": "nonpayable",
      "type": "function"
    },
    {
      "inputs": [
        {
          "internalType": "address",
          "name": "token",
          "type": "address"
        }
      ],
      "name": "safeGetTokenTypePublic",
      "outputs": [
        {
          "internalType": "int32",
          "name": "tokenType",
          "type": "int32"
        }
      ],
      "stateMutability": "nonpayable",
      "type": "function"
    },
    {
      "inputs": [
        {
          "internalType": "address",
          "name": "token",
          "type": "address"
        },
        {
          "internalType": "address",
          "name": "owner",
          "type": "address"
        },
        {
          "internalType": "address",
          "name": "operator",
          "type": "address"
        }
      ],
      "name": "safeIsApprovedForAllPublic",
      "outputs": [
        {
          "internalType": "bool",
          "name": "approved",
          "type": "bool"
        }
      ],
      "stateMutability": "nonpayable",
      "type": "function"
    },
    {
      "inputs": [
        {
          "internalType": "address",
          "name": "token",
          "type": "address"
        },
        {
          "internalType": "address",
          "name": "account",
          "type": "address"
        }
      ],
      "name": "safeIsFrozenPublic",
      "outputs": [
        {
          "internalType": "bool",
          "name": "frozen",
          "type": "bool"
        }
      ],
      "stateMutability": "nonpayable",
      "type": "function"
    },
    {
      "inputs": [
        {
          "internalType": "address",
          "name": "token",
          "type": "address"
        },
        {
          "internalType": "address",
          "name": "account",
          "type": "address"
        }
      ],
      "name": "safeIsKycPublic",
      "outputs": [
        {
          "internalType": "bool",
          "name": "kycGranted",
          "type": "bool"
        }
      ],
      "stateMutability": "nonpayable",
      "type": "function"
    },
    {
      "inputs": [
        {
          "internalType": "address",
          "name": "token",
          "type": "address"
        }
      ],
      "name": "safeIsTokenPublic",
      "outputs": [
        {
          "internalType": "bool",
          "name": "isToken",
          "type": "bool"
        }
      ],
      "stateMutability": "nonpayable",
      "type": "function"
    }
  ],
  "bytecode": "0x608060405234801561000f575f80fd5b506129158061001d5f395ff3fe608060405234801561000f575f80fd5b50600436106100f0575f3560e01c80639870ae2611610093578063e89ccba211610063578063e89ccba214610239578063f0bb73dc1461025b578063f17a37041461027c578063f31bbd4c1461029c575f80fd5b80639870ae26146101c0578063a29d0409146101d3578063bd3f267d146101f9578063de85a43714610219575f80fd5b80635e4ea29a116100ce5780635e4ea29a1461014f57806364b2164d146101625780636a0c40801461018d5780638f90d8ab146101a0575f80fd5b806315cc83c6146100f457806358d18a9b1461011c5780635e19b2161461013c575b5f80fd5b610107610102366004611692565b6102af565b60405190151581526020015b60405180910390f35b61012f61012a3660046116da565b6102ff565b6040516101139190611b63565b61010761014a3660046116da565b61034e565b61010761015d3660046116da565b61038d565b610175610170366004611b83565b6103cc565b6040516001600160a01b039091168152602001610113565b61010761019b3660046116da565b61041d565b6101b36101ae3660046116da565b61045c565b6040516101139190611bba565b6101076101ce366004611bf4565b6104b2565b6101e66101e13660046116da565b6104f2565b60405160039190910b8152602001610113565b61020c610207366004611b83565b610533565b6040516101139190611c20565b61022c610227366004611ca3565b610576565b6040516101139190611ccd565b61024c6102473660046116da565b6105f4565b60405161011393929190611cdf565b61026e610269366004611692565b61064d565b604051908152602001610113565b61028f61028a3660046116da565b61068c565b6040516101139190611d17565b6101076102aa366004611bf4565b6106ce565b5f6102bb84848461070e565b90507f20036055d1f68e359fb691e93d64cd8de5ed7b15a6193107e97583a6f9afc121816040516102f0911515815260200190565b60405180910390a19392505050565b610307611570565b6103108261080e565b90507f67179d96dbb10d5e87f0d919e87917fc6b1f13ea2fb4060c9e607e796d8d2946816040516103419190611b63565b60405180910390a1919050565b5f61035882610903565b90507f5d3abc148c71e7f8642162046e53bdbc00c7fa8b7ac3bcde38153a222ecc5b5181604051610341911515815260200190565b5f610397826109e8565b90507f6ab5945f293e879dd97c678ef2ea7222108b42b253b599bb3ca20fed76cc7bf381604051610341911515815260200190565b5f6103d78383610ace565b6040516001600160a01b03821681529091507fc94f645408f5f9debf737eb96c340091e399ce9871592da6231f91d329675338906020015b60405180910390a192915050565b5f61042782610bc7565b90507f5080c42cc33acbcea410fa6eaa925bd878674825501981184fdd53749f8478a881604051610341911515815260200190565b604080516060810182525f808252602082018190529181019190915261048182610cad565b90507f367d3a502c2227b77b2d98ac6516f7e9c04bdc0791611a06d70591538ebecee6816040516103419190611bba565b5f6104bd8383610dac565b90507fa2fb81d2c4828e139799e8be1ffa81cd8f4229459b2946e9d3916fddb366fa2e8160405161040f911515815260200190565b5f6104fc82610e9a565b604051600382900b81529091507f83bea5ce1210e5f38206474e1ccea3e947bb2f4b183858e4b33a2c2280e265f790602001610341565b61053b611622565b6105458383610f80565b90507fdab074acf5f707b9aee79865ae646df76d8bfa02971d97e18a0dd87bccee9bbd8160405161040f9190611c20565b6105b96040518060a001604052805f151581526020015f6001600160a01b0316815260200160608152602001606081526020015f6001600160a01b031681525090565b6105c38383611077565b90507f3f6422bb82ff7a8689b2c076298d1b2a8720d9f557fcd612a81154dc88082d838160405161040f9190611ccd565b6060806060610602846111a3565b60405192955090935091507f0d5ce52294a8f97837267fbbb3f0d83cb5edb26c147e6740cfb5e2bfeaf2aad69061063e90859085908590611cdf565b60405180910390a19193909250565b5f61065984848461129f565b90507fb960ebf065966969da9ffeb07fa131d57456535bffdec2ed2844e0bd987e2c42816040516102f091815260200190565b61069461165c565b61069d82611395565b90507fd0715cecbd3526856211e73e140b8691510b2d0384ea5af48967e15791202b9e816040516103419190611d17565b5f6106d98383611482565b90507f4201dfb4e0dfb05a2559eac13eafcdc97ea04887a8c558fab4c144d0a479899b8160405161040f911515815260200190565b604080516001600160a01b0385811660248301528481166044830152831660648083019190915282518083039091018152608490910182526020810180516001600160e01b031663f49f40db60e01b17905290515f918291829182916101679161077791611d4b565b5f604051808303815f865af19150503d805f81146107b0576040519150601f19603f3d011682016040523d82523d5f602084013e6107b5565b606091505b5091509150816107c75760155f6107db565b808060200190518101906107db9190611d8b565b94509250600383900b6016146108045760405163c30cd94160e01b815260040160405180910390fd5b5050509392505050565b610816611570565b604080516001600160a01b03841660248083019190915282518083039091018152604490910182526020810180516001600160e01b0316631f69565f60e01b17905290515f91829182916101679161086e9190611d4b565b5f604051808303815f865af19150503d805f81146108a7576040519150601f19603f3d011682016040523d82523d5f602084013e6108ac565b606091505b5091509150816108be576015846108d2565b808060200190518101906108d291906125ad565b94509250600383900b6016146108fb57604051632a5292c160e11b815260040160405180910390fd5b505050919050565b604080516001600160a01b03831660248083019190915282518083039091018152604490910182526020810180516001600160e01b031663335e04c160e01b17905290515f918291829182916101679161095c91611d4b565b5f604051808303815f865af19150503d805f8114610995576040519150601f19603f3d011682016040523d82523d5f602084013e61099a565b606091505b5091509150816109ac5760155f6109c0565b808060200190518101906109c09190611d8b565b94509250600383900b6016146108fb5760405162629e9d60e81b815260040160405180910390fd5b604080516001600160a01b03831660248083019190915282518083039091018152604490910182526020810180516001600160e01b031663a7daa18d60e01b17905290515f9182918291829161016791610a4191611d4b565b5f604051808303815f865af19150503d805f8114610a7a576040519150601f19603f3d011682016040523d82523d5f602084013e610a7f565b606091505b509150915081610a915760155f610aa5565b80806020019051810190610aa59190611d8b565b94509250600383900b6016146108fb5760405163f6e464e960e01b815260040160405180910390fd5b604080516001600160a01b0384166024820152600783900b60448083019190915282518083039091018152606490910182526020810180516001600160e01b03166304c791b360e11b17905290515f9182918291829161016791610b3191611d4b565b5f604051808303815f865af19150503d805f8114610b6a576040519150601f19603f3d011682016040523d82523d5f602084013e610b6f565b606091505b509150915081610b815760155f610b95565b80806020019051810190610b9591906125f8565b94509250600383900b601614610bbe5760405163e460426160e01b815260040160405180910390fd5b50505092915050565b604080516001600160a01b03831660248083019190915282518083039091018152604490910182526020810180516001600160e01b03166319f3736160e01b17905290515f9182918291829161016791610c2091611d4b565b5f604051808303815f865af19150503d805f8114610c59576040519150601f19603f3d011682016040523d82523d5f602084013e610c5e565b606091505b509150915081610c705760155f610c84565b80806020019051810190610c849190611d8b565b94509250600383900b6016146108fb57604051634050963360e01b815260040160405180910390fd5b604080516060810182525f808252602080830182905282840182905283516001600160a01b038616602480830191909152855180830390910181526044909101855290810180516001600160e01b0316631ac299b760e31b1790529251919290918291829161016791610d1f91611d4b565b5f604051808303815f865af19150503d805f8114610d58576040519150601f19603f3d011682016040523d82523d5f602084013e610d5d565b606091505b509150915081610d6f57601584610d83565b80806020019051810190610d839190612622565b94509250600383900b6016146108fb5760405163303d457360e21b815260040160405180910390fd5b604080516001600160a01b038481166024830152831660448083019190915282518083039091018152606490910182526020810180516001600160e01b0316633cb0c7fd60e21b17905290515f9182918291829161016791610e0d91611d4b565b5f604051808303815f865af19150503d805f8114610e46576040519150601f19603f3d011682016040523d82523d5f602084013e610e4b565b606091505b509150915081610e5d5760155f610e71565b80806020019051810190610e719190611d8b565b94509250600383900b601614610bbe5760405163711425f760e11b815260040160405180910390fd5b604080516001600160a01b03831660248083019190915282518083039091018152604490910182526020810180516001600160e01b03166393272baf60e01b17905290515f9182918291829161016791610ef391611d4b565b5f604051808303815f865af19150503d805f8114610f2c576040519150601f19603f3d011682016040523d82523d5f602084013e610f31565b606091505b509150915081610f435760155f610f57565b80806020019051810190610f57919061264b565b94509250600383900b6016146108fb57604051635d4b19cf60e11b815260040160405180910390fd5b610f88611622565b604080516001600160a01b0385166024820152600784900b60448083019190915282518083039091018152606490910182526020810180516001600160e01b031663050fc3b560e31b17905290515f918291829161016791610fea9190611d4b565b5f604051808303815f865af19150503d805f8114611023576040519150601f19603f3d011682016040523d82523d5f602084013e611028565b606091505b50915091508161103a5760158461104e565b8080602001905181019061104e9190612673565b94509250600383900b601614610bbe5760405163b12473af60e01b815260040160405180910390fd5b6110ba6040518060a001604052805f151581526020015f6001600160a01b0316815260200160608152602001606081526020015f6001600160a01b031681525090565b604080516001600160a01b0385166024820152604480820185905282518083039091018152606490910182526020810180516001600160e01b0316631e26e99760e11b17905290515f9182918291610167916111169190611d4b565b5f604051808303815f865af19150503d805f811461114f576040519150601f19603f3d011682016040523d82523d5f602084013e611154565b606091505b5091509150816111665760158461117a565b8080602001905181019061117a9190612755565b94509250600383900b601614610bbe5760405163664cb42360e01b815260040160405180910390fd5b604080516001600160a01b03831660248083019190915282518083039091018152604490910182526020810180516001600160e01b0316630573b08d60e51b1790529051606091829182915f91829182916101679161120191611d4b565b5f604051808303815f865af19150503d805f811461123a576040519150601f19603f3d011682016040523d82523d5f602084013e61123f565b606091505b509150915081611253576015868686611267565b808060200190518101906112679190612796565b919850965094509250600383900b60161461129557604051634c85126960e01b815260040160405180910390fd5b5050509193909250565b604080516001600160a01b0385811660248301528481166044830152831660648083019190915282518083039091018152608490910182526020810180516001600160e01b031663927da10560e01b17905290515f918291829182916101679161130891611d4b565b5f604051808303815f865af19150503d805f8114611341576040519150601f19603f3d011682016040523d82523d5f602084013e611346565b606091505b5091509150816113585760155f61136c565b8080602001905181019061136c9190612829565b94509250600383900b6016146108045760405163b9382f0760e01b815260040160405180910390fd5b61139d61165c565b604080516001600160a01b03841660248083019190915282518083039091018152604490910182526020810180516001600160e01b0316633f28a19b60e01b17905290515f9182918291610167916113f59190611d4b565b5f604051808303815f865af19150503d805f811461142e576040519150601f19603f3d011682016040523d82523d5f602084013e611433565b606091505b50915091508161144557601584611459565b808060200190518101906114599190612853565b94509250600383900b6016146108fb57604051631fbc7c8f60e01b815260040160405180910390fd5b604080516001600160a01b038481166024830152831660448083019190915282518083039091018152606490910182526020810180516001600160e01b03166346de0fb160e01b17905290515f91829182918291610167916114e391611d4b565b5f604051808303815f865af19150503d805f811461151c576040519150601f19603f3d011682016040523d82523d5f602084013e611521565b606091505b5091509150816115335760155f611547565b808060200190518101906115479190611d8b565b94509250600383900b601614610bbe576040516374004e7960e11b815260040160405180910390fd5b60408051610240810182526060610120820181815261014083018290525f610160840181905261018084018390526101a084018190526101c084018190526101e08401819052610200840183905284519283018552808352602083018190529382019390935261022082015290819081526020015f60070b81526020015f151581526020015f151581526020015f15158152602001606081526020016060815260200160608152602001606081525090565b6040518060c00160405280611635611570565b81525f60208201819052604082018190526060808301829052608083015260a09091015290565b604051806040016040528061166f611570565b81525f60209091015290565b6001600160a01b038116811461168f575f80fd5b50565b5f805f606084860312156116a4575f80fd5b83356116af8161167b565b925060208401356116bf8161167b565b915060408401356116cf8161167b565b809150509250925092565b5f602082840312156116ea575f80fd5b81356116f58161167b565b9392505050565b5f5b838110156117165781810151838201526020016116fe565b50505f910152565b5f81518084526117358160208601602086016116fc565b601f01601f19169290920160200192915050565b8051151582525f60208201516001600160a01b0380821660208601526040840151915060a0604086015261178060a086018361171e565b915060608401518583036060870152611799838261171e565b925050806080850151166080860152508091505092915050565b5f82825180855260208086019550808260051b8401018186015f5b8481101561181057858303601f1901895281518051845284015160408585018190526117fc81860183611749565b9a86019a94505050908301906001016117ce565b5090979650505050505050565b5f61016082518185526118328286018261171e565b9150506020830151848203602086015261184c828261171e565b915050604083015161186960408601826001600160a01b03169052565b5060608301518482036060860152611881828261171e565b9150506080830151611897608086018215159052565b5060a08301516118ac60a086018260070b9052565b5060c08301516118c060c086018215159052565b5060e083015184820360e08601526118d882826117b3565b9150506101008084015161191482870182805160070b82526001600160a01b036020820151166020830152604081015160070b60408301525050565b5090949350505050565b5f8151808452602080850194508084015f5b83811015611989578151805160070b8852838101516001600160a01b03908116858a01526040808301511515908a01526060808301511515908a0152608091820151169088015260a09096019590820190600101611930565b509495945050505050565b5f8151808452602080850194508084015f5b838110156119895781518051600790810b895284820151810b858a0152604080830151820b908a015260608083015190910b9089015260808082015115159089015260a0908101516001600160a01b03169088015260c090960195908201906001016119a6565b5f8151808452602080850194508084015f5b838110156119895781518051600790810b895284820151810b858a015260408083015190910b908901526060808201516001600160a01b03908116918a01919091526080808301511515908a015260a091820151169088015260c09096019590820190600101611a1f565b5f6101208251818552611a9f8286018261181d565b9150506020830151611ab6602086018260070b9052565b506040830151611aca604086018215159052565b506060830151611ade606086018215159052565b506080830151611af2608086018215159052565b5060a083015184820360a0860152611b0a828261191e565b91505060c083015184820360c0860152611b248282611994565b91505060e083015184820360e0860152611b3e8282611a0d565b9150506101008084015185830382870152611b59838261171e565b9695505050505050565b602081525f6116f56020830184611a8a565b8060070b811461168f575f80fd5b5f8060408385031215611b94575f80fd5b8235611b9f8161167b565b91506020830135611baf81611b75565b809150509250929050565b60608101611bee8284805160070b82526001600160a01b036020820151166020830152604081015160070b60408301525050565b92915050565b5f8060408385031215611c05575f80fd5b8235611c108161167b565b91506020830135611baf8161167b565b602081525f825160c06020840152611c3b60e0840182611a8a565b9050602084015160070b604084015260408401516001600160a01b038082166060860152606086015160070b608086015260808601519150601f198584030160a0860152611c89838361171e565b92508060a08701511660c086015250508091505092915050565b5f8060408385031215611cb4575f80fd5b8235611cbf8161167b565b946020939093013593505050565b602081525f6116f56020830184611749565b606081525f611cf1606083018661191e565b8281036020840152611d038186611994565b90508281036040840152611b598185611a0d565b602081525f825160406020840152611d326060840182611a8a565b9050602084015160030b60408401528091505092915050565b5f8251611d5c8184602087016116fc565b9190910192915050565b8051600381900b8114611d77575f80fd5b919050565b80518015158114611d77575f80fd5b5f8060408385031215611d9c575f80fd5b611da583611d66565b9150611db360208401611d7c565b90509250929050565b634e487b7160e01b5f52604160045260245ffd5b60405160a0810167ffffffffffffffff81118282101715611df357611df3611dbc565b60405290565b6040805190810167ffffffffffffffff81118282101715611df357611df3611dbc565b604051610120810167ffffffffffffffff81118282101715611df357611df3611dbc565b60405160c0810167ffffffffffffffff81118282101715611df357611df3611dbc565b604051601f8201601f1916810167ffffffffffffffff81118282101715611e8c57611e8c611dbc565b604052919050565b5f82601f830112611ea3575f80fd5b815167ffffffffffffffff811115611ebd57611ebd611dbc565b611ed0601f8201601f1916602001611e63565b818152846020838601011115611ee4575f80fd5b611ef58260208301602087016116fc565b949350505050565b8051611d778161167b565b8051611d7781611b75565b5f67ffffffffffffffff821115611f2c57611f2c611dbc565b5060051b60200190565b5f60a08284031215611f46575f80fd5b611f4e611dd0565b9050611f5982611d7c565b81526020820151611f698161167b565b6020820152604082015167ffffffffffffffff80821115611f88575f80fd5b611f9485838601611e94565b60408401526060840151915080821115611fac575f80fd5b50611fb984828501611e94565b6060830152506080820151611fcd8161167b565b608082015292915050565b5f82601f830112611fe7575f80fd5b81516020611ffc611ff783611f13565b611e63565b82815260059290921b8401810191818101908684111561201a575f80fd5b8286015b8481101561209957805167ffffffffffffffff8082111561203e575f8081fd5b908801906040828b03601f1901811315612057575f8081fd5b61205f611df9565b838801518152908301519082821115612077575f8081fd5b6120858c8984870101611f36565b81890152865250505091830191830161201e565b509695505050505050565b5f606082840312156120b4575f80fd5b6040516060810181811067ffffffffffffffff821117156120d7576120d7611dbc565b806040525080915082516120ea81611b75565b815260208301516120fa8161167b565b6020820152604083015161210d81611b75565b6040919091015292915050565b5f610160828403121561212b575f80fd5b612133611e1c565b9050815167ffffffffffffffff8082111561214c575f80fd5b61215885838601611e94565b8352602084015191508082111561216d575f80fd5b61217985838601611e94565b602084015261218a60408501611efd565b604084015260608401519150808211156121a2575f80fd5b6121ae85838601611e94565b60608401526121bf60808501611d7c565b60808401526121d060a08501611f08565b60a08401526121e160c08501611d7c565b60c084015260e08401519150808211156121f9575f80fd5b5061220684828501611fd8565b60e08301525061010061221b848285016120a4565b9082015292915050565b5f82601f830112612234575f80fd5b81516020612244611ff783611f13565b82815260a09283028501820192828201919087851115612262575f80fd5b8387015b858110156118105781818a03121561227d575f8081fd5b612285611dd0565b815161229081611b75565b81528186015161229f8161167b565b8187015260406122b0838201611d7c565b9082015260606122c1838201611d7c565b908201526080828101516122d48161167b565b908201528452928401928101612266565b5f82601f8301126122f4575f80fd5b81516020612304611ff783611f13565b82815260c09283028501820192828201919087851115612322575f80fd5b8387015b858110156118105781818a03121561233d575f8081fd5b612345611e40565b815161235081611b75565b81528186015161235f81611b75565b8187015260408281015161237281611b75565b9082015260608281015161238581611b75565b908201526080612396838201611d7c565b9082015260a0828101516123a98161167b565b908201528452928401928101612326565b5f82601f8301126123c9575f80fd5b815160206123d9611ff783611f13565b82815260c092830285018201928282019190878511156123f7575f80fd5b8387015b858110156118105781818a031215612412575f8081fd5b61241a611e40565b815161242581611b75565b81528186015161243481611b75565b8187015260408281015161244781611b75565b9082015260608281015161245a8161167b565b90820152608061246b838201611d7c565b9082015260a08281015161247e8161167b565b9082015284529284019281016123fb565b5f61012082840312156124a0575f80fd5b6124a8611e1c565b9050815167ffffffffffffffff808211156124c1575f80fd5b6124cd8583860161211a565b83526124db60208501611f08565b60208401526124ec60408501611d7c565b60408401526124fd60608501611d7c565b606084015261250e60808501611d7c565b608084015260a0840151915080821115612526575f80fd5b61253285838601612225565b60a084015260c084015191508082111561254a575f80fd5b612556858386016122e5565b60c084015260e084015191508082111561256e575f80fd5b61257a858386016123ba565b60e084015261010091508184015181811115612594575f80fd5b6125a086828701611e94565b8385015250505092915050565b5f80604083850312156125be575f80fd5b6125c783611d66565b9150602083015167ffffffffffffffff8111156125e2575f80fd5b6125ee8582860161248f565b9150509250929050565b5f8060408385031215612609575f80fd5b61261283611d66565b91506020830151611baf8161167b565b5f8060808385031215612633575f80fd5b61263c83611d66565b9150611db384602085016120a4565b5f806040838503121561265c575f80fd5b61266583611d66565b9150611db360208401611d66565b5f8060408385031215612684575f80fd5b61268d83611d66565b9150602083015167ffffffffffffffff808211156126a9575f80fd5b9084019060c082870312156126bc575f80fd5b6126c4611e40565b8251828111156126d2575f80fd5b6126de8882860161248f565b8252506126ed60208401611f08565b60208201526126fe60408401611efd565b604082015261270f60608401611f08565b6060820152608083015182811115612725575f80fd5b61273188828601611e94565b60808301525061274360a08401611efd565b60a08201528093505050509250929050565b5f8060408385031215612766575f80fd5b61276f83611d66565b9150602083015167ffffffffffffffff81111561278a575f80fd5b6125ee85828601611f36565b5f805f80608085870312156127a9575f80fd5b6127b285611d66565b9350602085015167ffffffffffffffff808211156127ce575f80fd5b6127da88838901612225565b945060408701519150808211156127ef575f80fd5b6127fb888389016122e5565b93506060870151915080821115612810575f80fd5b5061281d878288016123ba565b91505092959194509250565b5f806040838503121561283a575f80fd5b61284383611d66565b9150602083015190509250929050565b5f8060408385031215612864575f80fd5b61286d83611d66565b9150602083015167ffffffffffffffff80821115612889575f80fd5b908401906040828703121561289c575f80fd5b6128a4611df9565b8251828111156128b2575f80fd5b6128be8882860161248f565b8252506128cd60208401611d66565b6020820152809350505050925092905056fea26469706673582212207957e8cd87102de150ce810c18236bbdc45adde3c8f9e9a24ce3c85aebca158964736f6c63430008140033",
  "linkReferences": {},
  "deployedLinkReferences": {}
}