{
  "_format": "hh-sol-artifact-1",
  "contractName": "SafeViewOperations",
  "sourceName": "contracts/safe-hts-precompile/SafeViewOperations.sol",
  "abi": [
    {
      "inputs": [],
      "name": "AllowanceFailed",
      "type": "error"
    },
    {
      "inputs": [],
      "name": "GetApprovedFailed",
      "type": "error"
    },
    {
      "inputs": [],
      "name": "GetFungibleTokenInfoFailed",
      "type": "error"
    },
    {
      "inputs": [],
      "name": "GetNonFungibleTokenInfoFailed",
      "type": "error"
    },
    {
      "inputs": [],
      "name": "GetTokenCustomFeesFailed",
      "type": "error"
    },
    {
      "inputs": [],
      "name": "GetTokenDefaultFreezeStatusFailed",
      "type": "error"
    },
    {
      "inputs": [],
      "name": "GetTokenDefaultKYCStatusFailed",
      "type": "error"
    },
    {
      "inputs": [],
      "name": "GetTokenExpiryInfoFailed",
      "type": "error"
    },
    {
      "inputs": [],
      "name": "GetTokenInfoFailed",
      "type": "error"
    },
    {
      "inputs": [],
      "name": "GetTokenKeyFailed",
      "type": "error"
    },
    {
      "inputs": [],
      "name": "GetTokenTypeFailed",
      "type": "error"
    },
    {
      "inputs": [],
      "name": "IsApprovedForAllFailed",
      "type": "error"
    },
    {
      "inputs": [],
      "name": "IsFrozenFailed",
      "type": "error"
    },
    {
      "inputs": [],
      "name": "IsKYCGrantedFailed",
      "type": "error"
    },
    {
      "inputs": [],
      "name": "IsTokenFailed",
      "type": "error"
    },
    {
      "anonymous": false,
      "inputs": [
        {
          "indexed": false,
          "internalType": "uint256",
          "name": "",
          "type": "uint256"
        }
      ],
      "name": "Allowance",
      "type": "event"
    },
    {
      "anonymous": false,
      "inputs": [
        {
          "indexed": false,
          "internalType": "address",
          "name": "",
          "type": "address"
        }
      ],
      "name": "GetApproved",
      "type": "event"
    },
    {
      "anonymous": false,
      "inputs": [
        {
          "components": [
            {
              "components": [
                {
                  "components": [
                    {
                      "internalType": "string",
                      "name": "name",
                      "type": "string"
                    },
                    {
                      "internalType": "string",
                      "name": "symbol",
                      "type": "string"
                    },
                    {
                      "internalType": "address",
                      "name": "treasury",
                      "type": "address"
                    },
                    {
                      "internalType": "string",
                      "name": "memo",
                      "type": "string"
                    },
                    {
                      "internalType": "bool",
                      "name": "tokenSupplyType",
                      "type": "bool"
                    },
                    {
                      "internalType": "int64",
                      "name": "maxSupply",
                      "type": "int64"
                    },
                    {
                      "internalType": "bool",
                      "name": "freezeDefault",
                      "type": "bool"
                    },
                    {
                      "components": [
                        {
                          "internalType": "uint256",
                          "name": "keyType",
                          "type": "uint256"
                        },
                        {
                          "components": [
                            {
                              "internalType": "bool",
                              "name": "inheritAccountKey",
                              "type": "bool"
                            },
                            {
                              "internalType": "address",
                              "name": "contractId",
                              "type": "address"
                            },
                            {
                              "internalType": "bytes",
                              "name": "ed25519",
                              "type": "bytes"
                            },
                            {
                              "internalType": "bytes",
                              "name": "ECDSA_secp256k1",
                              "type": "bytes"
                            },
                            {
                              "internalType": "address",
                              "name": "delegatableContractId",
                              "type": "address"
                            }
                          ],
                          "internalType": "struct IHederaTokenService.KeyValue",
                          "name": "key",
                          "type": "tuple"
                        }
                      ],
                      "internalType": "struct IHederaTokenService.TokenKey[]",
                      "name": "tokenKeys",
                      "type": "tuple[]"
                    },
                    {
                      "components": [
                        {
                          "internalType": "int64",
                          "name": "second",
                          "type": "int64"
                        },
                        {
                          "internalType": "address",
                          "name": "autoRenewAccount",
                          "type": "address"
                        },
                        {
                          "internalType": "int64",
                          "name": "autoRenewPeriod",
                          "type": "int64"
                        }
                      ],
                      "internalType": "struct IHederaTokenService.Expiry",
                      "name": "expiry",
                      "type": "tuple"
                    }
                  ],
                  "internalType": "struct IHederaTokenService.HederaToken",
                  "name": "token",
                  "type": "tuple"
                },
                {
                  "internalType": "int64",
                  "name": "totalSupply",
                  "type": "int64"
                },
                {
                  "internalType": "bool",
                  "name": "deleted",
                  "type": "bool"
                },
                {
                  "internalType": "bool",
                  "name": "defaultKycStatus",
                  "type": "bool"
                },
                {
                  "internalType": "bool",
                  "name": "pauseStatus",
                  "type": "bool"
                },
                {
                  "components": [
                    {
                      "internalType": "int64",
                      "name": "amount",
                      "type": "int64"
                    },
                    {
                      "internalType": "address",
                      "name": "tokenId",
                      "type": "address"
                    },
                    {
                      "internalType": "bool",
                      "name": "useHbarsForPayment",
                      "type": "bool"
                    },
                    {
                      "internalType": "bool",
                      "name": "useCurrentTokenForPayment",
                      "type": "bool"
                    },
                    {
                      "internalType": "address",
                      "name": "feeCollector",
                      "type": "address"
                    }
                  ],
                  "internalType": "struct IHederaTokenService.FixedFee[]",
                  "name": "fixedFees",
                  "type": "tuple[]"
                },
                {
                  "components": [
                    {
                      "internalType": "int64",
                      "name": "numerator",
                      "type": "int64"
                    },
                    {
                      "internalType": "int64",
                      "name": "denominator",
                      "type": "int64"
                    },
                    {
                      "internalType": "int64",
                      "name": "minimumAmount",
                      "type": "int64"
                    },
                    {
                      "internalType": "int64",
                      "name": "maximumAmount",
                      "type": "int64"
                    },
                    {
                      "internalType": "bool",
                      "name": "netOfTransfers",
                      "type": "bool"
                    },
                    {
                      "internalType": "address",
                      "name": "feeCollector",
                      "type": "address"
                    }
                  ],
                  "internalType": "struct IHederaTokenService.FractionalFee[]",
                  "name": "fractionalFees",
                  "type": "tuple[]"
                },
                {
                  "components": [
                    {
                      "internalType": "int64",
                      "name": "numerator",
                      "type": "int64"
                    },
                    {
                      "internalType": "int64",
                      "name": "denominator",
                      "type": "int64"
                    },
                    {
                      "internalType": "int64",
                      "name": "amount",
                      "type": "int64"
                    },
                    {
                      "internalType": "address",
                      "name": "tokenId",
                      "type": "address"
                    },
                    {
                      "internalType": "bool",
                      "name": "useHbarsForPayment",
                      "type": "bool"
                    },
                    {
                      "internalType": "address",
                      "name": "feeCollector",
                      "type": "address"
                    }
                  ],
                  "internalType": "struct IHederaTokenService.RoyaltyFee[]",
                  "name": "royaltyFees",
                  "type": "tuple[]"
                },
                {
                  "internalType": "string",
                  "name": "ledgerId",
                  "type": "string"
                }
              ],
              "internalType": "struct IHederaTokenService.TokenInfo",
              "name": "tokenInfo",
              "type": "tuple"
            },
            {
              "internalType": "int32",
              "name": "decimals",
              "type": "int32"
            }
          ],
          "indexed": false,
          "internalType": "struct IHederaTokenService.FungibleTokenInfo",
          "name": "",
          "type": "tuple"
        }
      ],
      "name": "GetFungibleTokenInfo",
      "type": "event"
    },
    {
      "anonymous": false,
      "inputs": [
        {
          "components": [
            {
              "components": [
                {
                  "components": [
                    {
                      "internalType": "string",
                      "name": "name",
                      "type": "string"
                    },
                    {
                      "internalType": "string",
                      "name": "symbol",
                      "type": "string"
                    },
                    {
                      "internalType": "address",
                      "name": "treasury",
                      "type": "address"
                    },
                    {
                      "internalType": "string",
                      "name": "memo",
                      "type": "string"
                    },
                    {
                      "internalType": "bool",
                      "name": "tokenSupplyType",
                      "type": "bool"
                    },
                    {
                      "internalType": "int64",
                      "name": "maxSupply",
                      "type": "int64"
                    },
                    {
                      "internalType": "bool",
                      "name": "freezeDefault",
                      "type": "bool"
                    },
                    {
                      "components": [
                        {
                          "internalType": "uint256",
                          "name": "keyType",
                          "type": "uint256"
                        },
                        {
                          "components": [
                            {
                              "internalType": "bool",
                              "name": "inheritAccountKey",
                              "type": "bool"
                            },
                            {
                              "internalType": "address",
                              "name": "contractId",
                              "type": "address"
                            },
                            {
                              "internalType": "bytes",
                              "name": "ed25519",
                              "type": "bytes"
                            },
                            {
                              "internalType": "bytes",
                              "name": "ECDSA_secp256k1",
                              "type": "bytes"
                            },
                            {
                              "internalType": "address",
                              "name": "delegatableContractId",
                              "type": "address"
                            }
                          ],
                          "internalType": "struct IHederaTokenService.KeyValue",
                          "name": "key",
                          "type": "tuple"
                        }
                      ],
                      "internalType": "struct IHederaTokenService.TokenKey[]",
                      "name": "tokenKeys",
                      "type": "tuple[]"
                    },
                    {
                      "components": [
                        {
                          "internalType": "int64",
                          "name": "second",
                          "type": "int64"
                        },
                        {
                          "internalType": "address",
                          "name": "autoRenewAccount",
                          "type": "address"
                        },
                        {
                          "internalType": "int64",
                          "name": "autoRenewPeriod",
                          "type": "int64"
                        }
                      ],
                      "internalType": "struct IHederaTokenService.Expiry",
                      "name": "expiry",
                      "type": "tuple"
                    }
                  ],
                  "internalType": "struct IHederaTokenService.HederaToken",
                  "name": "token",
                  "type": "tuple"
                },
                {
                  "internalType": "int64",
                  "name": "totalSupply",
                  "type": "int64"
                },
                {
                  "internalType": "bool",
                  "name": "deleted",
                  "type": "bool"
                },
                {
                  "internalType": "bool",
                  "name": "defaultKycStatus",
                  "type": "bool"
                },
                {
                  "internalType": "bool",
                  "name": "pauseStatus",
                  "type": "bool"
                },
                {
                  "components": [
                    {
                      "internalType": "int64",
                      "name": "amount",
                      "type": "int64"
                    },
                    {
                      "internalType": "address",
                      "name": "tokenId",
                      "type": "address"
                    },
                    {
                      "internalType": "bool",
                      "name": "useHbarsForPayment",
                      "type": "bool"
                    },
                    {
                      "internalType": "bool",
                      "name": "useCurrentTokenForPayment",
                      "type": "bool"
                    },
                    {
                      "internalType": "address",
                      "name": "feeCollector",
                      "type": "address"
                    }
                  ],
                  "internalType": "struct IHederaTokenService.FixedFee[]",
                  "name": "fixedFees",
                  "type": "tuple[]"
                },
                {
                  "components": [
                    {
                      "internalType": "int64",
                      "name": "numerator",
                      "type": "int64"
                    },
                    {
                      "internalType": "int64",
                      "name": "denominator",
                      "type": "int64"
                    },
                    {
                      "internalType": "int64",
                      "name": "minimumAmount",
                      "type": "int64"
                    },
                    {
                      "internalType": "int64",
                      "name": "maximumAmount",
                      "type": "int64"
                    },
                    {
                      "internalType": "bool",
                      "name": "netOfTransfers",
                      "type": "bool"
                    },
                    {
                      "internalType": "address",
                      "name": "feeCollector",
                      "type": "address"
                    }
                  ],
                  "internalType": "struct IHederaTokenService.FractionalFee[]",
                  "name": "fractionalFees",
                  "type": "tuple[]"
                },
                {
                  "components": [
                    {
                      "internalType": "int64",
                      "name": "numerator",
                      "type": "int64"
                    },
                    {
                      "internalType": "int64",
                      "name": "denominator",
                      "type": "int64"
                    },
                    {
                      "internalType": "int64",
                      "name": "amount",
                      "type": "int64"
                    },
                    {
                      "internalType": "address",
                      "name": "tokenId",
                      "type": "address"
                    },
                    {
                      "internalType": "bool",
                      "name": "useHbarsForPayment",
                      "type": "bool"
                    },
                    {
                      "internalType": "address",
                      "name": "feeCollector",
                      "type": "address"
                    }
                  ],
                  "internalType": "struct IHederaTokenService.RoyaltyFee[]",
                  "name": "royaltyFees",
                  "type": "tuple[]"
                },
                {
                  "internalType": "string",
                  "name": "ledgerId",
                  "type": "string"
                }
              ],
              "internalType": "struct IHederaTokenService.TokenInfo",
              "name": "tokenInfo",
              "type": "tuple"
            },
            {
              "internalType": "int64",
              "name": "serialNumber",
              "type": "int64"
            },
            {
              "internalType": "address",
              "name": "ownerId",
              "type": "address"
            },
            {
              "internalType": "int64",
              "name": "creationTime",
              "type": "int64"
            },
            {
              "internalType": "bytes",
              "name": "metadata",
              "type": "bytes"
            },
            {
              "internalType": "address",
              "name": "spenderId",
              "type": "address"
            }
          ],
          "indexed": false,
          "internalType": "struct IHederaTokenService.NonFungibleTokenInfo",
          "name": "",
          "type": "tuple"
        }
      ],
      "name": "GetNonFungibleTokenInfo",
      "type": "event"
    },
    {
      "anonymous": false,
      "inputs": [
        {
          "components": [
            {
              "internalType": "int64",
              "name": "amount",
              "type": "int64"
            },
            {
              "internalType": "address",
              "name": "tokenId",
              "type": "address"
            },
            {
              "internalType": "bool",
              "name": "useHbarsForPayment",
              "type": "bool"
            },
            {
              "internalType": "bool",
              "name": "useCurrentTokenForPayment",
              "type": "bool"
            },
            {
              "internalType": "address",
              "name": "feeCollector",
              "type": "address"
            }
          ],
          "indexed": false,
          "internalType": "struct IHederaTokenService.FixedFee[]",
          "name": "",
          "type": "tuple[]"
        },
        {
          "components": [
            {
              "internalType": "int64",
              "name": "numerator",
              "type": "int64"
            },
            {
              "internalType": "int64",
              "name": "denominator",
              "type": "int64"
            },
            {
              "internalType": "int64",
              "name": "minimumAmount",
              "type": "int64"
            },
            {
              "internalType": "int64",
              "name": "maximumAmount",
              "type": "int64"
            },
            {
              "internalType": "bool",
              "name": "netOfTransfers",
              "type": "bool"
            },
            {
              "internalType": "address",
              "name": "feeCollector",
              "type": "address"
            }
          ],
          "indexed": false,
          "internalType": "struct IHederaTokenService.FractionalFee[]",
          "name": "",
          "type": "tuple[]"
        },
        {
          "components": [
            {
              "internalType": "int64",
              "name": "numerator",
              "type": "int64"
            },
            {
              "internalType": "int64",
              "name": "denominator",
              "type": "int64"
            },
            {
              "internalType": "int64",
              "name": "amount",
              "type": "int64"
            },
            {
              "internalType": "address",
              "name": "tokenId",
              "type": "address"
            },
            {
              "internalType": "bool",
              "name": "useHbarsForPayment",
              "type": "bool"
            },
            {
              "internalType": "address",
              "name": "feeCollector",
              "type": "address"
            }
          ],
          "indexed": false,
          "internalType": "struct IHederaTokenService.RoyaltyFee[]",
          "name": "",
          "type": "tuple[]"
        }
      ],
      "name": "GetTokenCustomFees",
      "type": "event"
    },
    {
      "anonymous": false,
      "inputs": [
        {
          "indexed": false,
          "internalType": "bool",
          "name": "",
          "type": "bool"
        }
      ],
      "name": "GetTokenDefaultFreezeStatus",
      "type": "event"
    },
    {
      "anonymous": false,
      "inputs": [
        {
          "indexed": false,
          "internalType": "bool",
          "name": "",
          "type": "bool"
        }
      ],
      "name": "GetTokenDefaultKycStatus",
      "type": "event"
    },
    {
      "anonymous": false,
      "inputs": [
        {
          "components": [
            {
              "internalType": "int64",
              "name": "second",
              "type": "int64"
            },
            {
              "internalType": "address",
              "name": "autoRenewAccount",
              "type": "address"
            },
            {
              "internalType": "int64",
              "name": "autoRenewPeriod",
              "type": "int64"
            }
          ],
          "indexed": false,
          "internalType": "struct IHederaTokenService.Expiry",
          "name": "",
          "type": "tuple"
        }
      ],
      "name": "GetTokenExpiryInfo",
      "type": "event"
    },
    {
      "anonymous": false,
      "inputs": [
        {
          "components": [
            {
              "components": [
                {
                  "internalType": "string",
                  "name": "name",
                  "type": "string"
                },
                {
                  "internalType": "string",
                  "name": "symbol",
                  "type": "string"
                },
                {
                  "internalType": "address",
                  "name": "treasury",
                  "type": "address"
                },
                {
                  "internalType": "string",
                  "name": "memo",
                  "type": "string"
                },
                {
                  "internalType": "bool",
                  "name": "tokenSupplyType",
                  "type": "bool"
                },
                {
                  "internalType": "int64",
                  "name": "maxSupply",
                  "type": "int64"
                },
                {
                  "internalType": "bool",
                  "name": "freezeDefault",
                  "type": "bool"
                },
                {
                  "components": [
                    {
                      "internalType": "uint256",
                      "name": "keyType",
                      "type": "uint256"
                    },
                    {
                      "components": [
                        {
                          "internalType": "bool",
                          "name": "inheritAccountKey",
                          "type": "bool"
                        },
                        {
                          "internalType": "address",
                          "name": "contractId",
                          "type": "address"
                        },
                        {
                          "internalType": "bytes",
                          "name": "ed25519",
                          "type": "bytes"
                        },
                        {
                          "internalType": "bytes",
                          "name": "ECDSA_secp256k1",
                          "type": "bytes"
                        },
                        {
                          "internalType": "address",
                          "name": "delegatableContractId",
                          "type": "address"
                        }
                      ],
                      "internalType": "struct IHederaTokenService.KeyValue",
                      "name": "key",
                      "type": "tuple"
                    }
                  ],
                  "internalType": "struct IHederaTokenService.TokenKey[]",
                  "name": "tokenKeys",
                  "type": "tuple[]"
                },
                {
                  "components": [
                    {
                      "internalType": "int64",
                      "name": "second",
                      "type": "int64"
                    },
                    {
                      "internalType": "address",
                      "name": "autoRenewAccount",
                      "type": "address"
                    },
                    {
                      "internalType": "int64",
                      "name": "autoRenewPeriod",
                      "type": "int64"
                    }
                  ],
                  "internalType": "struct IHederaTokenService.Expiry",
                  "name": "expiry",
                  "type": "tuple"
                }
              ],
              "internalType": "struct IHederaTokenService.HederaToken",
              "name": "token",
              "type": "tuple"
            },
            {
              "internalType": "int64",
              "name": "totalSupply",
              "type": "int64"
            },
            {
              "internalType": "bool",
              "name": "deleted",
              "type": "bool"
            },
            {
              "internalType": "bool",
              "name": "defaultKycStatus",
              "type": "bool"
            },
            {
              "internalType": "bool",
              "name": "pauseStatus",
              "type": "bool"
            },
            {
              "components": [
                {
                  "internalType": "int64",
                  "name": "amount",
                  "type": "int64"
                },
                {
                  "internalType": "address",
                  "name": "tokenId",
                  "type": "address"
                },
                {
                  "internalType": "bool",
                  "name": "useHbarsForPayment",
                  "type": "bool"
                },
                {
                  "internalType": "bool",
                  "name": "useCurrentTokenForPayment",
                  "type": "bool"
                },
                {
                  "internalType": "address",
                  "name": "feeCollector",
                  "type": "address"
                }
              ],
              "internalType": "struct IHederaTokenService.FixedFee[]",
              "name": "fixedFees",
              "type": "tuple[]"
            },
            {
              "components": [
                {
                  "internalType": "int64",
                  "name": "numerator",
                  "type": "int64"
                },
                {
                  "internalType": "int64",
                  "name": "denominator",
                  "type": "int64"
                },
                {
                  "internalType": "int64",
                  "name": "minimumAmount",
                  "type": "int64"
                },
                {
                  "internalType": "int64",
                  "name": "maximumAmount",
                  "type": "int64"
                },
                {
                  "internalType": "bool",
                  "name": "netOfTransfers",
                  "type": "bool"
                },
                {
                  "internalType": "address",
                  "name": "feeCollector",
                  "type": "address"
                }
              ],
              "internalType": "struct IHederaTokenService.FractionalFee[]",
              "name": "fractionalFees",
              "type": "tuple[]"
            },
            {
              "components": [
                {
                  "internalType": "int64",
                  "name": "numerator",
                  "type": "int64"
                },
                {
                  "internalType": "int64",
                  "name": "denominator",
                  "type": "int64"
                },
                {
                  "internalType": "int64",
                  "name": "amount",
                  "type": "int64"
                },
                {
                  "internalType": "address",
                  "name": "tokenId",
                  "type": "address"
                },
                {
                  "internalType": "bool",
                  "name": "useHbarsForPayment",
                  "type": "bool"
                },
                {
                  "internalType": "address",
                  "name": "feeCollector",
                  "type": "address"
                }
              ],
              "internalType": "struct IHederaTokenService.RoyaltyFee[]",
              "name": "royaltyFees",
              "type": "tuple[]"
            },
            {
              "internalType": "string",
              "name": "ledgerId",
              "type": "string"
            }
          ],
          "indexed": false,
          "internalType": "struct IHederaTokenService.TokenInfo",
          "name": "",
          "type": "tuple"
        }
      ],
      "name": "GetTokenInfo",
      "type": "event"
    },
    {
      "anonymous": false,
      "inputs": [
        {
          "components": [
            {
              "internalType": "bool",
              "name": "inheritAccountKey",
              "type": "bool"
            },
            {
              "internalType": "address",
              "name": "contractId",
              "type": "address"
            },
            {
              "internalType": "bytes",
              "name": "ed25519",
              "type": "bytes"
            },
            {
              "internalType": "bytes",
              "name": "ECDSA_secp256k1",
              "type": "bytes"
            },
            {
              "internalType": "address",
              "name": "delegatableContractId",
              "type": "address"
            }
          ],
          "indexed": false,
          "internalType": "struct IHederaTokenService.KeyValue",
          "name": "",
          "type": "tuple"
        }
      ],
      "name": "GetTokenKey",
      "type": "event"
    },
    {
      "anonymous": false,
      "inputs": [
        {
          "indexed": false,
          "internalType": "int32",
          "name": "",
          "type": "int32"
        }
      ],
      "name": "GetTokenType",
      "type": "event"
    },
    {
      "anonymous": false,
      "inputs": [
        {
          "indexed": false,
          "internalType": "bool",
          "name": "",
          "type": "bool"
        }
      ],
      "name": "IsApprovedForAll",
      "type": "event"
    },
    {
      "anonymous": false,
      "inputs": [
        {
          "indexed": false,
          "internalType": "bool",
          "name": "",
          "type": "bool"
        }
      ],
      "name": "IsFrozen",
      "type": "event"
    },
    {
      "anonymous": false,
      "inputs": [
        {
          "indexed": false,
          "internalType": "bool",
          "name": "",
          "type": "bool"
        }
      ],
      "name": "IsKyc",
      "type": "event"
    },
    {
      "anonymous": false,
      "inputs": [
        {
          "indexed": false,
          "internalType": "bool",
          "name": "",
          "type": "bool"
        }
      ],
      "name": "IsToken",
      "type": "event"
    },
    {
      "inputs": [
        {
          "internalType": "address",
          "name": "token",
          "type": "address"
        },
        {
          "internalType": "address",
          "name": "owner",
          "type": "address"
        },
        {
          "internalType": "address",
          "name": "spender",
          "type": "address"
        }
      ],
      "name": "safeAllowancePublic",
      "outputs": [
        {
          "internalType": "uint256",
          "name": "allowance",
          "type": "uint256"
        }
      ],
      "stateMutability": "nonpayable",
      "type": "function"
    },
    {
      "inputs": [
        {
          "internalType": "address",
          "name": "token",
          "type": "address"
        },
        {
          "internalType": "int64",
          "name": "serialNumber",
          "type": "int64"
        }
      ],
      "name": "safeGetApprovedPublic",
      "outputs": [
        {
          "internalType": "address",
          "name": "approved",
          "type": "address"
        }
      ],
      "stateMutability": "nonpayable",
      "type": "function"
    },
    {
      "inputs": [
        {
          "internalType": "address",
          "name": "token",
          "type": "address"
        }
      ],
      "name": "safeGetFungibleTokenInfoPublic",
      "outputs": [
        {
          "components": [
            {
              "components": [
                {
                  "components": [
                    {
                      "internalType": "string",
                      "name": "name",
                      "type": "string"
                    },
                    {
                      "internalType": "string",
                      "name": "symbol",
                      "type": "string"
                    },
                    {
                      "internalType": "address",
                      "name": "treasury",
                      "type": "address"
                    },
                    {
                      "internalType": "string",
                      "name": "memo",
                      "type": "string"
                    },
                    {
                      "internalType": "bool",
                      "name": "tokenSupplyType",
                      "type": "bool"
                    },
                    {
                      "internalType": "int64",
                      "name": "maxSupply",
                      "type": "int64"
                    },
                    {
                      "internalType": "bool",
                      "name": "freezeDefault",
                      "type": "bool"
                    },
                    {
                      "components": [
                        {
                          "internalType": "uint256",
                          "name": "keyType",
                          "type": "uint256"
                        },
                        {
                          "components": [
                            {
                              "internalType": "bool",
                              "name": "inheritAccountKey",
                              "type": "bool"
                            },
                            {
                              "internalType": "address",
                              "name": "contractId",
                              "type": "address"
                            },
                            {
                              "internalType": "bytes",
                              "name": "ed25519",
                              "type": "bytes"
                            },
                            {
                              "internalType": "bytes",
                              "name": "ECDSA_secp256k1",
                              "type": "bytes"
                            },
                            {
                              "internalType": "address",
                              "name": "delegatableContractId",
                              "type": "address"
                            }
                          ],
                          "internalType": "struct IHederaTokenService.KeyValue",
                          "name": "key",
                          "type": "tuple"
                        }
                      ],
                      "internalType": "struct IHederaTokenService.TokenKey[]",
                      "name": "tokenKeys",
                      "type": "tuple[]"
                    },
                    {
                      "components": [
                        {
                          "internalType": "int64",
                          "name": "second",
                          "type": "int64"
                        },
                        {
                          "internalType": "address",
                          "name": "autoRenewAccount",
                          "type": "address"
                        },
                        {
                          "internalType": "int64",
                          "name": "autoRenewPeriod",
                          "type": "int64"
                        }
                      ],
                      "internalType": "struct IHederaTokenService.Expiry",
                      "name": "expiry",
                      "type": "tuple"
                    }
                  ],
                  "internalType": "struct IHederaTokenService.HederaToken",
                  "name": "token",
                  "type": "tuple"
                },
                {
                  "internalType": "int64",
                  "name": "totalSupply",
                  "type": "int64"
                },
                {
                  "internalType": "bool",
                  "name": "deleted",
                  "type": "bool"
                },
                {
                  "internalType": "bool",
                  "name": "defaultKycStatus",
                  "type": "bool"
                },
                {
                  "internalType": "bool",
                  "name": "pauseStatus",
                  "type": "bool"
                },
                {
                  "components": [
                    {
                      "internalType": "int64",
                      "name": "amount",
                      "type": "int64"
                    },
                    {
                      "internalType": "address",
                      "name": "tokenId",
                      "type": "address"
                    },
                    {
                      "internalType": "bool",
                      "name": "useHbarsForPayment",
                      "type": "bool"
                    },
                    {
                      "internalType": "bool",
                      "name": "useCurrentTokenForPayment",
                      "type": "bool"
                    },
                    {
                      "internalType": "address",
                      "name": "feeCollector",
                      "type": "address"
                    }
                  ],
                  "internalType": "struct IHederaTokenService.FixedFee[]",
                  "name": "fixedFees",
                  "type": "tuple[]"
                },
                {
                  "components": [
                    {
                      "internalType": "int64",
                      "name": "numerator",
                      "type": "int64"
                    },
                    {
                      "internalType": "int64",
                      "name": "denominator",
                      "type": "int64"
                    },
                    {
                      "internalType": "int64",
                      "name": "minimumAmount",
                      "type": "int64"
                    },
                    {
                      "internalType": "int64",
                      "name": "maximumAmount",
                      "type": "int64"
                    },
                    {
                      "internalType": "bool",
                      "name": "netOfTransfers",
                      "type": "bool"
                    },
                    {
                      "internalType": "address",
                      "name": "feeCollector",
                      "type": "address"
                    }
                  ],
                  "internalType": "struct IHederaTokenService.FractionalFee[]",
                  "name": "fractionalFees",
                  "type": "tuple[]"
                },
                {
                  "components": [
                    {
                      "internalType": "int64",
                      "name": "numerator",
                      "type": "int64"
                    },
                    {
                      "internalType": "int64",
                      "name": "denominator",
                      "type": "int64"
                    },
                    {
                      "internalType": "int64",
                      "name": "amount",
                      "type": "int64"
                    },
                    {
                      "internalType": "address",
                      "name": "tokenId",
                      "type": "address"
                    },
                    {
                      "internalType": "bool",
                      "name": "useHbarsForPayment",
                      "type": "bool"
                    },
                    {
                      "internalType": "address",
                      "name": "feeCollector",
                      "type": "address"
                    }
                  ],
                  "internalType": "struct IHederaTokenService.RoyaltyFee[]",
                  "name": "royaltyFees",
                  "type": "tuple[]"
                },
                {
                  "internalType": "string",
                  "name": "ledgerId",
                  "type": "string"
                }
              ],
              "internalType": "struct IHederaTokenService.TokenInfo",
              "name": "tokenInfo",
              "type": "tuple"
            },
            {
              "internalType": "int32",
              "name": "decimals",
              "type": "int32"
            }
          ],
          "internalType": "struct IHederaTokenService.FungibleTokenInfo",
          "name": "fungibleTokenInfo",
          "type": "tuple"
        }
      ],
      "stateMutability": "nonpayable",
      "type": "function"
    },
    {
      "inputs": [
        {
          "internalType": "address",
          "name": "token",
          "type": "address"
        },
        {
          "internalType": "int64",
          "name": "serialNumber",
          "type": "int64"
        }
      ],
      "name": "safeGetNonFungibleTokenInfoPublic",
      "outputs": [
        {
          "components": [
            {
              "components": [
                {
                  "components": [
                    {
                      "internalType": "string",
                      "name": "name",
                      "type": "string"
                    },
                    {
                      "internalType": "string",
                      "name": "symbol",
                      "type": "string"
                    },
                    {
                      "internalType": "address",
                      "name": "treasury",
                      "type": "address"
                    },
                    {
                      "internalType": "string",
                      "name": "memo",
                      "type": "string"
                    },
                    {
                      "internalType": "bool",
                      "name": "tokenSupplyType",
                      "type": "bool"
                    },
                    {
                      "internalType": "int64",
                      "name": "maxSupply",
                      "type": "int64"
                    },
                    {
                      "internalType": "bool",
                      "name": "freezeDefault",
                      "type": "bool"
                    },
                    {
                      "components": [
                        {
                          "internalType": "uint256",
                          "name": "keyType",
                          "type": "uint256"
                        },
                        {
                          "components": [
                            {
                              "internalType": "bool",
                              "name": "inheritAccountKey",
                              "type": "bool"
                            },
                            {
                              "internalType": "address",
                              "name": "contractId",
                              "type": "address"
                            },
                            {
                              "internalType": "bytes",
                              "name": "ed25519",
                              "type": "bytes"
                            },
                            {
                              "internalType": "bytes",
                              "name": "ECDSA_secp256k1",
                              "type": "bytes"
                            },
                            {
                              "internalType": "address",
                              "name": "delegatableContractId",
                              "type": "address"
                            }
                          ],
                          "internalType": "struct IHederaTokenService.KeyValue",
                          "name": "key",
                          "type": "tuple"
                        }
                      ],
                      "internalType": "struct IHederaTokenService.TokenKey[]",
                      "name": "tokenKeys",
                      "type": "tuple[]"
                    },
                    {
                      "components": [
                        {
                          "internalType": "int64",
                          "name": "second",
                          "type": "int64"
                        },
                        {
                          "internalType": "address",
                          "name": "autoRenewAccount",
                          "type": "address"
                        },
                        {
                          "internalType": "int64",
                          "name": "autoRenewPeriod",
                          "type": "int64"
                        }
                      ],
                      "internalType": "struct IHederaTokenService.Expiry",
                      "name": "expiry",
                      "type": "tuple"
                    }
                  ],
                  "internalType": "struct IHederaTokenService.HederaToken",
                  "name": "token",
                  "type": "tuple"
                },
                {
                  "internalType": "int64",
                  "name": "totalSupply",
                  "type": "int64"
                },
                {
                  "internalType": "bool",
                  "name": "deleted",
                  "type": "bool"
                },
                {
                  "internalType": "bool",
                  "name": "defaultKycStatus",
                  "type": "bool"
                },
                {
                  "internalType": "bool",
                  "name": "pauseStatus",
                  "type": "bool"
                },
                {
                  "components": [
                    {
                      "internalType": "int64",
                      "name": "amount",
                      "type": "int64"
                    },
                    {
                      "internalType": "address",
                      "name": "tokenId",
                      "type": "address"
                    },
                    {
                      "internalType": "bool",
                      "name": "useHbarsForPayment",
                      "type": "bool"
                    },
                    {
                      "internalType": "bool",
                      "name": "useCurrentTokenForPayment",
                      "type": "bool"
                    },
                    {
                      "internalType": "address",
                      "name": "feeCollector",
                      "type": "address"
                    }
                  ],
                  "internalType": "struct IHederaTokenService.FixedFee[]",
                  "name": "fixedFees",
                  "type": "tuple[]"
                },
                {
                  "components": [
                    {
                      "internalType": "int64",
                      "name": "numerator",
                      "type": "int64"
                    },
                    {
                      "internalType": "int64",
                      "name": "denominator",
                      "type": "int64"
                    },
                    {
                      "internalType": "int64",
                      "name": "minimumAmount",
                      "type": "int64"
                    },
                    {
                      "internalType": "int64",
                      "name": "maximumAmount",
                      "type": "int64"
                    },
                    {
                      "internalType": "bool",
                      "name": "netOfTransfers",
                      "type": "bool"
                    },
                    {
                      "internalType": "address",
                      "name": "feeCollector",
                      "type": "address"
                    }
                  ],
                  "internalType": "struct IHederaTokenService.FractionalFee[]",
                  "name": "fractionalFees",
                  "type": "tuple[]"
                },
                {
                  "components": [
                    {
                      "internalType": "int64",
                      "name": "numerator",
                      "type": "int64"
                    },
                    {
                      "internalType": "int64",
                      "name": "denominator",
                      "type": "int64"
                    },
                    {
                      "internalType": "int64",
                      "name": "amount",
                      "type": "int64"
                    },
                    {
                      "internalType": "address",
                      "name": "tokenId",
                      "type": "address"
                    },
                    {
                      "internalType": "bool",
                      "name": "useHbarsForPayment",
                      "type": "bool"
                    },
                    {
                      "internalType": "address",
                      "name": "feeCollector",
                      "type": "address"
                    }
                  ],
                  "internalType": "struct IHederaTokenService.RoyaltyFee[]",
                  "name": "royaltyFees",
                  "type": "tuple[]"
                },
                {
                  "internalType": "string",
                  "name": "ledgerId",
                  "type": "string"
                }
              ],
              "internalType": "struct IHederaTokenService.TokenInfo",
              "name": "tokenInfo",
              "type": "tuple"
            },
            {
              "internalType": "int64",
              "name": "serialNumber",
              "type": "int64"
            },
            {
              "internalType": "address",
              "name": "ownerId",
              "type": "address"
            },
            {
              "internalType": "int64",
              "name": "creationTime",
              "type": "int64"
            },
            {
              "internalType": "bytes",
              "name": "metadata",
              "type": "bytes"
            },
            {
              "internalType": "address",
              "name": "spenderId",
              "type": "address"
            }
          ],
          "internalType": "struct IHederaTokenService.NonFungibleTokenInfo",
          "name": "nonFungibleTokenInfo",
          "type": "tuple"
        }
      ],
      "stateMutability": "nonpayable",
      "type": "function"
    },
    {
      "inputs": [
        {
          "internalType": "address",
          "name": "token",
          "type": "address"
        }
      ],
      "name": "safeGetTokenCustomFeesPublic",
      "outputs": [
        {
          "components": [
            {
              "internalType": "int64",
              "name": "amount",
              "type": "int64"
            },
            {
              "internalType": "address",
              "name": "tokenId",
              "type": "address"
            },
            {
              "internalType": "bool",
              "name": "useHbarsForPayment",
              "type": "bool"
            },
            {
              "internalType": "bool",
              "name": "useCurrentTokenForPayment",
              "type": "bool"
            },
            {
              "internalType": "address",
              "name": "feeCollector",
              "type": "address"
            }
          ],
          "internalType": "struct IHederaTokenService.FixedFee[]",
          "name": "fixedFees",
          "type": "tuple[]"
        },
        {
          "components": [
            {
              "internalType": "int64",
              "name": "numerator",
              "type": "int64"
            },
            {
              "internalType": "int64",
              "name": "denominator",
              "type": "int64"
            },
            {
              "internalType": "int64",
              "name": "minimumAmount",
              "type": "int64"
            },
            {
              "internalType": "int64",
              "name": "maximumAmount",
              "type": "int64"
            },
            {
              "internalType": "bool",
              "name": "netOfTransfers",
              "type": "bool"
            },
            {
              "internalType": "address",
              "name": "feeCollector",
              "type": "address"
            }
          ],
          "internalType": "struct IHederaTokenService.FractionalFee[]",
          "name": "fractionalFees",
          "type": "tuple[]"
        },
        {
          "components": [
            {
              "internalType": "int64",
              "name": "numerator",
              "type": "int64"
            },
            {
              "internalType": "int64",
              "name": "denominator",
              "type": "int64"
            },
            {
              "internalType": "int64",
              "name": "amount",
              "type": "int64"
            },
            {
              "internalType": "address",
              "name": "tokenId",
              "type": "address"
            },
            {
              "internalType": "bool",
              "name": "useHbarsForPayment",
              "type": "bool"
            },
            {
              "internalType": "address",
              "name": "feeCollector",
              "type": "address"
            }
          ],
          "internalType": "struct IHederaTokenService.RoyaltyFee[]",
          "name": "royaltyFees",
          "type": "tuple[]"
        }
      ],
      "stateMutability": "nonpayable",
      "type": "function"
    },
    {
      "inputs": [
        {
          "internalType": "address",
          "name": "token",
          "type": "address"
        }
      ],
      "name": "safeGetTokenDefaultFreezeStatusPublic",
      "outputs": [
        {
          "internalType": "bool",
          "name": "defaultFreezeStatus",
          "type": "bool"
        }
      ],
      "stateMutability": "nonpayable",
      "type": "function"
    },
    {
      "inputs": [
        {
          "internalType": "address",
          "name": "token",
          "type": "address"
        }
      ],
      "name": "safeGetTokenDefaultKycStatusPublic",
      "outputs": [
        {
          "internalType": "bool",
          "name": "defaultKycStatus",
          "type": "bool"
        }
      ],
      "stateMutability": "nonpayable",
      "type": "function"
    },
    {
      "inputs": [
        {
          "internalType": "address",
          "name": "token",
          "type": "address"
        }
      ],
      "name": "safeGetTokenExpiryInfoPublic",
      "outputs": [
        {
          "components": [
            {
              "internalType": "int64",
              "name": "second",
              "type": "int64"
            },
            {
              "internalType": "address",
              "name": "autoRenewAccount",
              "type": "address"
            },
            {
              "internalType": "int64",
              "name": "autoRenewPeriod",
              "type": "int64"
            }
          ],
          "internalType": "struct IHederaTokenService.Expiry",
          "name": "expiry",
          "type": "tuple"
        }
      ],
      "stateMutability": "nonpayable",
      "type": "function"
    },
    {
      "inputs": [
        {
          "internalType": "address",
          "name": "token",
          "type": "address"
        }
      ],
      "name": "safeGetTokenInfoPublic",
      "outputs": [
        {
          "components": [
            {
              "components": [
                {
                  "internalType": "string",
                  "name": "name",
                  "type": "string"
                },
                {
                  "internalType": "string",
                  "name": "symbol",
                  "type": "string"
                },
                {
                  "internalType": "address",
                  "name": "treasury",
                  "type": "address"
                },
                {
                  "internalType": "string",
                  "name": "memo",
                  "type": "string"
                },
                {
                  "internalType": "bool",
                  "name": "tokenSupplyType",
                  "type": "bool"
                },
                {
                  "internalType": "int64",
                  "name": "maxSupply",
                  "type": "int64"
                },
                {
                  "internalType": "bool",
                  "name": "freezeDefault",
                  "type": "bool"
                },
                {
                  "components": [
                    {
                      "internalType": "uint256",
                      "name": "keyType",
                      "type": "uint256"
                    },
                    {
                      "components": [
                        {
                          "internalType": "bool",
                          "name": "inheritAccountKey",
                          "type": "bool"
                        },
                        {
                          "internalType": "address",
                          "name": "contractId",
                          "type": "address"
                        },
                        {
                          "internalType": "bytes",
                          "name": "ed25519",
                          "type": "bytes"
                        },
                        {
                          "internalType": "bytes",
                          "name": "ECDSA_secp256k1",
                          "type": "bytes"
                        },
                        {
                          "internalType": "address",
                          "name": "delegatableContractId",
                          "type": "address"
                        }
                      ],
                      "internalType": "struct IHederaTokenService.KeyValue",
                      "name": "key",
                      "type": "tuple"
                    }
                  ],
                  "internalType": "struct IHederaTokenService.TokenKey[]",
                  "name": "tokenKeys",
                  "type": "tuple[]"
                },
                {
                  "components": [
                    {
                      "internalType": "int64",
                      "name": "second",
                      "type": "int64"
                    },
                    {
                      "internalType": "address",
                      "name": "autoRenewAccount",
                      "type": "address"
                    },
                    {
                      "internalType": "int64",
                      "name": "autoRenewPeriod",
                      "type": "int64"
                    }
                  ],
                  "internalType": "struct IHederaTokenService.Expiry",
                  "name": "expiry",
                  "type": "tuple"
                }
              ],
              "internalType": "struct IHederaTokenService.HederaToken",
              "name": "token",
              "type": "tuple"
            },
            {
              "internalType": "int64",
              "name": "totalSupply",
              "type": "int64"
            },
            {
              "internalType": "bool",
              "name": "deleted",
              "type": "bool"
            },
            {
              "internalType": "bool",
              "name": "defaultKycStatus",
              "type": "bool"
            },
            {
              "internalType": "bool",
              "name": "pauseStatus",
              "type": "bool"
            },
            {
              "components": [
                {
                  "internalType": "int64",
                  "name": "amount",
                  "type": "int64"
                },
                {
                  "internalType": "address",
                  "name": "tokenId",
                  "type": "address"
                },
                {
                  "internalType": "bool",
                  "name": "useHbarsForPayment",
                  "type": "bool"
                },
                {
                  "internalType": "bool",
                  "name": "useCurrentTokenForPayment",
                  "type": "bool"
                },
                {
                  "internalType": "address",
                  "name": "feeCollector",
                  "type": "address"
                }
              ],
              "internalType": "struct IHederaTokenService.FixedFee[]",
              "name": "fixedFees",
              "type": "tuple[]"
            },
            {
              "components": [
                {
                  "internalType": "int64",
                  "name": "numerator",
                  "type": "int64"
                },
                {
                  "internalType": "int64",
                  "name": "denominator",
                  "type": "int64"
                },
                {
                  "internalType": "int64",
                  "name": "minimumAmount",
                  "type": "int64"
                },
                {
                  "internalType": "int64",
                  "name": "maximumAmount",
                  "type": "int64"
                },
                {
                  "internalType": "bool",
                  "name": "netOfTransfers",
                  "type": "bool"
                },
                {
                  "internalType": "address",
                  "name": "feeCollector",
                  "type": "address"
                }
              ],
              "internalType": "struct IHederaTokenService.FractionalFee[]",
              "name": "fractionalFees",
              "type": "tuple[]"
            },
            {
              "components": [
                {
                  "internalType": "int64",
                  "name": "numerator",
                  "type": "int64"
                },
                {
                  "internalType": "int64",
                  "name": "denominator",
                  "type": "int64"
                },
                {
                  "internalType": "int64",
                  "name": "amount",
                  "type": "int64"
                },
                {
                  "internalType": "address",
                  "name": "tokenId",
                  "type": "address"
                },
                {
                  "internalType": "bool",
                  "name": "useHbarsForPayment",
                  "type": "bool"
                },
                {
                  "internalType": "address",
                  "name": "feeCollector",
                  "type": "address"
                }
              ],
              "internalType": "struct IHederaTokenService.RoyaltyFee[]",
              "name": "royaltyFees",
              "type": "tuple[]"
            },
            {
              "internalType": "string",
              "name": "ledgerId",
              "type": "string"
            }
          ],
          "internalType": "struct IHederaTokenService.TokenInfo",
          "name": "tokenInfo",
          "type": "tuple"
        }
      ],
      "stateMutability": "nonpayable",
      "type": "function"
    },
    {
      "inputs": [
        {
          "internalType": "address",
          "name": "token",
          "type": "address"
        },
        {
          "internalType": "uint256",
          "name": "keyType",
          "type": "uint256"
        }
      ],
      "name": "safeGetTokenKeyPublic",
      "outputs": [
        {
          "components": [
            {
              "internalType": "bool",
              "name": "inheritAccountKey",
              "type": "bool"
            },
            {
              "internalType": "address",
              "name": "contractId",
              "type": "address"
            },
            {
              "internalType": "bytes",
              "name": "ed25519",
              "type": "bytes"
            },
            {
              "internalType": "bytes",
              "name": "ECDSA_secp256k1",
              "type": "bytes"
            },
            {
              "internalType": "address",
              "name": "delegatableContractId",
              "type": "address"
            }
          ],
          "internalType": "struct IHederaTokenService.KeyValue",
          "name": "key",
          "type": "tuple"
        }
      ],
      "stateMutability": "nonpayable",
      "type": "function"
    },
    {
      "inputs": [
        {
          "internalType": "address",
          "name": "token",
          "type": "address"
        }
      ],
      "name": "safeGetTokenTypePublic",
      "outputs": [
        {
          "internalType": "int32",
          "name": "tokenType",
          "type": "int32"
        }
      ],
      "stateMutability": "nonpayable",
      "type": "function"
    },
    {
      "inputs": [
        {
          "internalType": "address",
          "name": "token",
          "type": "address"
        },
        {
          "internalType": "address",
          "name": "owner",
          "type": "address"
        },
        {
          "internalType": "address",
          "name": "operator",
          "type": "address"
        }
      ],
      "name": "safeIsApprovedForAllPublic",
      "outputs": [
        {
          "internalType": "bool",
          "name": "approved",
          "type": "bool"
        }
      ],
      "stateMutability": "nonpayable",
      "type": "function"
    },
    {
      "inputs": [
        {
          "internalType": "address",
          "name": "token",
          "type": "address"
        },
        {
          "internalType": "address",
          "name": "account",
          "type": "address"
        }
      ],
      "name": "safeIsFrozenPublic",
      "outputs": [
        {
          "internalType": "bool",
          "name": "frozen",
          "type": "bool"
        }
      ],
      "stateMutability": "nonpayable",
      "type": "function"
    },
    {
      "inputs": [
        {
          "internalType": "address",
          "name": "token",
          "type": "address"
        },
        {
          "internalType": "address",
          "name": "account",
          "type": "address"
        }
      ],
      "name": "safeIsKycPublic",
      "outputs": [
        {
          "internalType": "bool",
          "name": "kycGranted",
          "type": "bool"
        }
      ],
      "stateMutability": "nonpayable",
      "type": "function"
    },
    {
      "inputs": [
        {
          "internalType": "address",
          "name": "token",
          "type": "address"
        }
      ],
      "name": "safeIsTokenPublic",
      "outputs": [
        {
          "internalType": "bool",
          "name": "isToken",
          "type": "bool"
        }
      ],
      "stateMutability": "nonpayable",
      "type": "function"
    }
  ],
  "bytecode": "0x608060405234801561001057600080fd5b506129f5806100206000396000f3fe608060405234801561001057600080fd5b50600436106100f55760003560e01c80639870ae2611610097578063e89ccba211610066578063e89ccba21461023f578063f0bb73dc14610261578063f17a370414610282578063f31bbd4c146102a257600080fd5b80639870ae26146101c6578063a29d0409146101d9578063bd3f267d146101ff578063de85a4371461021f57600080fd5b80635e4ea29a116100d35780635e4ea29a1461015557806364b2164d146101685780636a0c4080146101935780638f90d8ab146101a657600080fd5b806315cc83c6146100fa57806358d18a9b146101225780635e19b21614610142575b600080fd5b61010d610108366004611704565b6102b5565b60405190151581526020015b60405180910390f35b61013561013036600461174f565b610306565b6040516101199190611be8565b61010d61015036600461174f565b610355565b61010d61016336600461174f565b610395565b61017b610176366004611c0a565b6103d5565b6040516001600160a01b039091168152602001610119565b61010d6101a136600461174f565b610427565b6101b96101b436600461174f565b610467565b6040516101199190611c43565b61010d6101d4366004611c7d565b6104be565b6101ec6101e736600461174f565b6104ff565b60405160039190910b8152602001610119565b61021261020d366004611c0a565b610541565b6040516101199190611cab565b61023261022d366004611d2f565b610584565b6040516101199190611d5b565b61025261024d36600461174f565b610605565b60405161011993929190611d6e565b61027461026f366004611704565b61065e565b604051908152602001610119565b61029561029036600461174f565b61069e565b6040516101199190611da7565b61010d6102b0366004611c7d565b6106e0565b60006102c2848484610721565b90507f20036055d1f68e359fb691e93d64cd8de5ed7b15a6193107e97583a6f9afc121816040516102f7911515815260200190565b60405180910390a19392505050565b61030e6115da565b61031782610827565b90507f67179d96dbb10d5e87f0d919e87917fc6b1f13ea2fb4060c9e607e796d8d2946816040516103489190611be8565b60405180910390a1919050565b600061036082610921565b90507f5d3abc148c71e7f8642162046e53bdbc00c7fa8b7ac3bcde38153a222ecc5b5181604051610348911515815260200190565b60006103a082610a0c565b90507f6ab5945f293e879dd97c678ef2ea7222108b42b253b599bb3ca20fed76cc7bf381604051610348911515815260200190565b60006103e18383610af8565b6040516001600160a01b03821681529091507fc94f645408f5f9debf737eb96c340091e399ce9871592da6231f91d329675338906020015b60405180910390a192915050565b600061043282610bf7565b90507f5080c42cc33acbcea410fa6eaa925bd878674825501981184fdd53749f8478a881604051610348911515815260200190565b604080516060810182526000808252602082018190529181019190915261048d82610ce3565b90507f367d3a502c2227b77b2d98ac6516f7e9c04bdc0791611a06d70591538ebecee6816040516103489190611c43565b60006104ca8383610de7565b90507fa2fb81d2c4828e139799e8be1ffa81cd8f4229459b2946e9d3916fddb366fa2e81604051610419911515815260200190565b600061050a82610edb565b604051600382900b81529091507f83bea5ce1210e5f38206474e1ccea3e947bb2f4b183858e4b33a2c2280e265f790602001610348565b610549611691565b6105538383610fc7565b90507fdab074acf5f707b9aee79865ae646df76d8bfa02971d97e18a0dd87bccee9bbd816040516104199190611cab565b6105ca6040518060a0016040528060001515815260200160006001600160a01b03168152602001606081526020016060815260200160006001600160a01b031681525090565b6105d483836110c3565b90507f3f6422bb82ff7a8689b2c076298d1b2a8720d9f557fcd612a81154dc88082d83816040516104199190611d5b565b6060806060610613846111f7565b60405192955090935091507f0d5ce52294a8f97837267fbbb3f0d83cb5edb26c147e6740cfb5e2bfeaf2aad69061064f90859085908590611d6e565b60405180910390a19193909250565b600061066b8484846112f8565b90507fb960ebf065966969da9ffeb07fa131d57456535bffdec2ed2844e0bd987e2c42816040516102f791815260200190565b6106a66116cc565b6106af826113f4565b90507fd0715cecbd3526856211e73e140b8691510b2d0384ea5af48967e15791202b9e816040516103489190611da7565b60006106ec83836114e6565b90507f4201dfb4e0dfb05a2559eac13eafcdc97ea04887a8c558fab4c144d0a479899b81604051610419911515815260200190565b604080516001600160a01b0385811660248301528481166044830152831660648083019190915282518083039091018152608490910182526020810180516001600160e01b031663f49f40db60e01b17905290516000918291829182916101679161078b91611ddc565b6000604051808303816000865af19150503d80600081146107c8576040519150601f19603f3d011682016040523d82523d6000602084013e6107cd565b606091505b5091509150816107e057601560006107f4565b808060200190518101906107f49190611e1f565b94509250600383900b60161461081d5760405163c30cd94160e01b815260040160405180910390fd5b5050509392505050565b61082f6115da565b604080516001600160a01b03841660248083019190915282518083039091018152604490910182526020810180516001600160e01b0316631f69565f60e01b179052905160009182918291610167916108889190611ddc565b6000604051808303816000865af19150503d80600081146108c5576040519150601f19603f3d011682016040523d82523d6000602084013e6108ca565b606091505b5091509150816108dc576015846108f0565b808060200190518101906108f0919061266e565b94509250600383900b60161461091957604051632a5292c160e11b815260040160405180910390fd5b505050919050565b604080516001600160a01b03831660248083019190915282518083039091018152604490910182526020810180516001600160e01b031663335e04c160e01b17905290516000918291829182916101679161097b91611ddc565b6000604051808303816000865af19150503d80600081146109b8576040519150601f19603f3d011682016040523d82523d6000602084013e6109bd565b606091505b5091509150816109d057601560006109e4565b808060200190518101906109e49190611e1f565b94509250600383900b6016146109195760405162629e9d60e81b815260040160405180910390fd5b604080516001600160a01b03831660248083019190915282518083039091018152604490910182526020810180516001600160e01b031663a7daa18d60e01b179052905160009182918291829161016791610a6691611ddc565b6000604051808303816000865af19150503d8060008114610aa3576040519150601f19603f3d011682016040523d82523d6000602084013e610aa8565b606091505b509150915081610abb5760156000610acf565b80806020019051810190610acf9190611e1f565b94509250600383900b6016146109195760405163f6e464e960e01b815260040160405180910390fd5b604080516001600160a01b0384166024820152600783900b60448083019190915282518083039091018152606490910182526020810180516001600160e01b03166304c791b360e11b179052905160009182918291829161016791610b5c91611ddc565b6000604051808303816000865af19150503d8060008114610b99576040519150601f19603f3d011682016040523d82523d6000602084013e610b9e565b606091505b509150915081610bb15760156000610bc5565b80806020019051810190610bc591906126bc565b94509250600383900b601614610bee5760405163e460426160e01b815260040160405180910390fd5b50505092915050565b604080516001600160a01b03831660248083019190915282518083039091018152604490910182526020810180516001600160e01b03166319f3736160e01b179052905160009182918291829161016791610c5191611ddc565b6000604051808303816000865af19150503d8060008114610c8e576040519150601f19603f3d011682016040523d82523d6000602084013e610c93565b606091505b509150915081610ca65760156000610cba565b80806020019051810190610cba9190611e1f565b94509250600383900b60161461091957604051634050963360e01b815260040160405180910390fd5b604080516060810182526000808252602080830182905282840182905283516001600160a01b038616602480830191909152855180830390910181526044909101855290810180516001600160e01b0316631ac299b760e31b1790529251919290918291829161016791610d5691611ddc565b6000604051808303816000865af19150503d8060008114610d93576040519150601f19603f3d011682016040523d82523d6000602084013e610d98565b606091505b509150915081610daa57601584610dbe565b80806020019051810190610dbe91906126e8565b94509250600383900b6016146109195760405163303d457360e21b815260040160405180910390fd5b604080516001600160a01b038481166024830152831660448083019190915282518083039091018152606490910182526020810180516001600160e01b0316633cb0c7fd60e21b179052905160009182918291829161016791610e4991611ddc565b6000604051808303816000865af19150503d8060008114610e86576040519150601f19603f3d011682016040523d82523d6000602084013e610e8b565b606091505b509150915081610e9e5760156000610eb2565b80806020019051810190610eb29190611e1f565b94509250600383900b601614610bee5760405163711425f760e11b815260040160405180910390fd5b604080516001600160a01b03831660248083019190915282518083039091018152604490910182526020810180516001600160e01b03166393272baf60e01b179052905160009182918291829161016791610f3591611ddc565b6000604051808303816000865af19150503d8060008114610f72576040519150601f19603f3d011682016040523d82523d6000602084013e610f77565b606091505b509150915081610f8a5760156000610f9e565b80806020019051810190610f9e9190612713565b94509250600383900b60161461091957604051635d4b19cf60e11b815260040160405180910390fd5b610fcf611691565b604080516001600160a01b0385166024820152600784900b60448083019190915282518083039091018152606490910182526020810180516001600160e01b031663050fc3b560e31b179052905160009182918291610167916110329190611ddc565b6000604051808303816000865af19150503d806000811461106f576040519150601f19603f3d011682016040523d82523d6000602084013e611074565b606091505b5091509150816110865760158461109a565b8080602001905181019061109a919061273d565b94509250600383900b601614610bee5760405163b12473af60e01b815260040160405180910390fd5b6111096040518060a0016040528060001515815260200160006001600160a01b03168152602001606081526020016060815260200160006001600160a01b031681525090565b604080516001600160a01b0385166024820152604480820185905282518083039091018152606490910182526020810180516001600160e01b0316631e26e99760e11b179052905160009182918291610167916111669190611ddc565b6000604051808303816000865af19150503d80600081146111a3576040519150601f19603f3d011682016040523d82523d6000602084013e6111a8565b606091505b5091509150816111ba576015846111ce565b808060200190518101906111ce9190612825565b94509250600383900b601614610bee5760405163664cb42360e01b815260040160405180910390fd5b604080516001600160a01b03831660248083019190915282518083039091018152604490910182526020810180516001600160e01b0316630573b08d60e51b179052905160609182918291600091829182916101679161125691611ddc565b6000604051808303816000865af19150503d8060008114611293576040519150601f19603f3d011682016040523d82523d6000602084013e611298565b606091505b5091509150816112ac5760158686866112c0565b808060200190518101906112c09190612869565b919850965094509250600383900b6016146112ee57604051634c85126960e01b815260040160405180910390fd5b5050509193909250565b604080516001600160a01b0385811660248301528481166044830152831660648083019190915282518083039091018152608490910182526020810180516001600160e01b031663927da10560e01b17905290516000918291829182916101679161136291611ddc565b6000604051808303816000865af19150503d806000811461139f576040519150601f19603f3d011682016040523d82523d6000602084013e6113a4565b606091505b5091509150816113b757601560006113cb565b808060200190518101906113cb9190612902565b94509250600383900b60161461081d5760405163b9382f0760e01b815260040160405180910390fd5b6113fc6116cc565b604080516001600160a01b03841660248083019190915282518083039091018152604490910182526020810180516001600160e01b0316633f28a19b60e01b179052905160009182918291610167916114559190611ddc565b6000604051808303816000865af19150503d8060008114611492576040519150601f19603f3d011682016040523d82523d6000602084013e611497565b606091505b5091509150816114a9576015846114bd565b808060200190518101906114bd919061292e565b94509250600383900b60161461091957604051631fbc7c8f60e01b815260040160405180910390fd5b604080516001600160a01b038481166024830152831660448083019190915282518083039091018152606490910182526020810180516001600160e01b03166346de0fb160e01b17905290516000918291829182916101679161154891611ddc565b6000604051808303816000865af19150503d8060008114611585576040519150601f19603f3d011682016040523d82523d6000602084013e61158a565b606091505b50915091508161159d57601560006115b1565b808060200190518101906115b19190611e1f565b94509250600383900b601614610bee576040516374004e7960e11b815260040160405180910390fd5b60408051610240810182526060610120820181815261014083018290526000610160840181905261018084018390526101a084018190526101c084018190526101e0840181905261020084018390528451928301855280835260208301819052938201939093526102208201529081908152602001600060070b8152602001600015158152602001600015158152602001600015158152602001606081526020016060815260200160608152602001606081525090565b6040518060c001604052806116a46115da565b8152600060208201819052604082018190526060808301829052608083015260a09091015290565b60405180604001604052806116df6115da565b8152600060209091015290565b6001600160a01b038116811461170157600080fd5b50565b60008060006060848603121561171957600080fd5b8335611724816116ec565b92506020840135611734816116ec565b91506040840135611744816116ec565b809150509250925092565b60006020828403121561176157600080fd5b813561176c816116ec565b9392505050565b60005b8381101561178e578181015183820152602001611776565b50506000910152565b600081518084526117af816020860160208601611773565b601f01601f19169290920160200192915050565b805115158252600060208201516001600160a01b0380821660208601526040840151915060a060408601526117fb60a0860183611797565b9150606084015185830360608701526118148382611797565b925050806080850151166080860152508091505092915050565b600082825180855260208086019550808260051b84010181860160005b8481101561188d57858303601f190189528151805184528401516040858501819052611879818601836117c3565b9a86019a945050509083019060010161184b565b5090979650505050505050565b600061016082518185526118b082860182611797565b915050602083015184820360208601526118ca8282611797565b91505060408301516118e760408601826001600160a01b03169052565b50606083015184820360608601526118ff8282611797565b9150506080830151611915608086018215159052565b5060a083015161192a60a086018260070b9052565b5060c083015161193e60c086018215159052565b5060e083015184820360e0860152611956828261182e565b9150506101008084015161199282870182805160070b82526001600160a01b036020820151166020830152604081015160070b60408301525050565b5090949350505050565b600081518084526020808501945080840160005b83811015611a09578151805160070b8852838101516001600160a01b03908116858a01526040808301511515908a01526060808301511515908a0152608091820151169088015260a090960195908201906001016119b0565b509495945050505050565b600081518084526020808501945080840160005b83811015611a095781518051600790810b895284820151810b858a0152604080830151820b908a015260608083015190910b9089015260808082015115159089015260a0908101516001600160a01b03169088015260c09096019590820190600101611a28565b600081518084526020808501945080840160005b83811015611a095781518051600790810b895284820151810b858a015260408083015190910b908901526060808201516001600160a01b03908116918a01919091526080808301511515908a015260a091820151169088015260c09096019590820190600101611aa3565b60006101208251818552611b248286018261189a565b9150506020830151611b3b602086018260070b9052565b506040830151611b4f604086018215159052565b506060830151611b63606086018215159052565b506080830151611b77608086018215159052565b5060a083015184820360a0860152611b8f828261199c565b91505060c083015184820360c0860152611ba98282611a14565b91505060e083015184820360e0860152611bc38282611a8f565b9150506101008084015185830382870152611bde8382611797565b9695505050505050565b60208152600061176c6020830184611b0e565b8060070b811461170157600080fd5b60008060408385031215611c1d57600080fd5b8235611c28816116ec565b91506020830135611c3881611bfb565b809150509250929050565b60608101611c778284805160070b82526001600160a01b036020820151166020830152604081015160070b60408301525050565b92915050565b60008060408385031215611c9057600080fd5b8235611c9b816116ec565b91506020830135611c38816116ec565b602081526000825160c06020840152611cc760e0840182611b0e565b9050602084015160070b604084015260408401516001600160a01b038082166060860152606086015160070b608086015260808601519150601f198584030160a0860152611d158383611797565b92508060a08701511660c086015250508091505092915050565b60008060408385031215611d4257600080fd5b8235611d4d816116ec565b946020939093013593505050565b60208152600061176c60208301846117c3565b606081526000611d81606083018661199c565b8281036020840152611d938186611a14565b90508281036040840152611bde8185611a8f565b602081526000825160406020840152611dc36060840182611b0e565b9050602084015160030b60408401528091505092915050565b60008251611dee818460208701611773565b9190910192915050565b8051600381900b8114611e0a57600080fd5b919050565b80518015158114611e0a57600080fd5b60008060408385031215611e3257600080fd5b611e3b83611df8565b9150611e4960208401611e0f565b90509250929050565b634e487b7160e01b600052604160045260246000fd5b60405160a0810167ffffffffffffffff81118282101715611e8b57611e8b611e52565b60405290565b6040805190810167ffffffffffffffff81118282101715611e8b57611e8b611e52565b604051610120810167ffffffffffffffff81118282101715611e8b57611e8b611e52565b60405160c0810167ffffffffffffffff81118282101715611e8b57611e8b611e52565b604051601f8201601f1916810167ffffffffffffffff81118282101715611f2457611f24611e52565b604052919050565b600082601f830112611f3d57600080fd5b815167ffffffffffffffff811115611f5757611f57611e52565b611f6a601f8201601f1916602001611efb565b818152846020838601011115611f7f57600080fd5b611f90826020830160208701611773565b949350505050565b8051611e0a816116ec565b8051611e0a81611bfb565b600067ffffffffffffffff821115611fc857611fc8611e52565b5060051b60200190565b600060a08284031215611fe457600080fd5b611fec611e68565b9050611ff782611e0f565b81526020820151612007816116ec565b6020820152604082015167ffffffffffffffff8082111561202757600080fd5b61203385838601611f2c565b6040840152606084015191508082111561204c57600080fd5b5061205984828501611f2c565b606083015250608082015161206d816116ec565b608082015292915050565b600082601f83011261208957600080fd5b8151602061209e61209983611fae565b611efb565b82815260059290921b840181019181810190868411156120bd57600080fd5b8286015b8481101561213f57805167ffffffffffffffff808211156120e25760008081fd5b908801906040828b03601f19018113156120fc5760008081fd5b612104611e91565b83880151815290830151908282111561211d5760008081fd5b61212b8c8984870101611fd2565b8189015286525050509183019183016120c1565b509695505050505050565b60006060828403121561215c57600080fd5b6040516060810181811067ffffffffffffffff8211171561217f5761217f611e52565b8060405250809150825161219281611bfb565b815260208301516121a2816116ec565b602082015260408301516121b581611bfb565b6040919091015292915050565b600061016082840312156121d557600080fd5b6121dd611eb4565b9050815167ffffffffffffffff808211156121f757600080fd5b61220385838601611f2c565b8352602084015191508082111561221957600080fd5b61222585838601611f2c565b602084015261223660408501611f98565b6040840152606084015191508082111561224f57600080fd5b61225b85838601611f2c565b606084015261226c60808501611e0f565b608084015261227d60a08501611fa3565b60a084015261228e60c08501611e0f565b60c084015260e08401519150808211156122a757600080fd5b506122b484828501612078565b60e0830152506101006122c98482850161214a565b9082015292915050565b600082601f8301126122e457600080fd5b815160206122f461209983611fae565b82815260a0928302850182019282820191908785111561231357600080fd5b8387015b8581101561188d5781818a03121561232f5760008081fd5b612337611e68565b815161234281611bfb565b815281860151612351816116ec565b818701526040612362838201611e0f565b908201526060612373838201611e0f565b90820152608082810151612386816116ec565b908201528452928401928101612317565b600082601f8301126123a857600080fd5b815160206123b861209983611fae565b82815260c092830285018201928282019190878511156123d757600080fd5b8387015b8581101561188d5781818a0312156123f35760008081fd5b6123fb611ed8565b815161240681611bfb565b81528186015161241581611bfb565b8187015260408281015161242881611bfb565b9082015260608281015161243b81611bfb565b90820152608061244c838201611e0f565b9082015260a08281015161245f816116ec565b9082015284529284019281016123db565b600082601f83011261248157600080fd5b8151602061249161209983611fae565b82815260c092830285018201928282019190878511156124b057600080fd5b8387015b8581101561188d5781818a0312156124cc5760008081fd5b6124d4611ed8565b81516124df81611bfb565b8152818601516124ee81611bfb565b8187015260408281015161250181611bfb565b90820152606082810151612514816116ec565b908201526080612525838201611e0f565b9082015260a082810151612538816116ec565b9082015284529284019281016124b4565b6000610120828403121561255c57600080fd5b612564611eb4565b9050815167ffffffffffffffff8082111561257e57600080fd5b61258a858386016121c2565b835261259860208501611fa3565b60208401526125a960408501611e0f565b60408401526125ba60608501611e0f565b60608401526125cb60808501611e0f565b608084015260a08401519150808211156125e457600080fd5b6125f0858386016122d3565b60a084015260c084015191508082111561260957600080fd5b61261585838601612397565b60c084015260e084015191508082111561262e57600080fd5b61263a85838601612470565b60e08401526101009150818401518181111561265557600080fd5b61266186828701611f2c565b8385015250505092915050565b6000806040838503121561268157600080fd5b61268a83611df8565b9150602083015167ffffffffffffffff8111156126a657600080fd5b6126b285828601612549565b9150509250929050565b600080604083850312156126cf57600080fd5b6126d883611df8565b91506020830151611c38816116ec565b600080608083850312156126fb57600080fd5b61270483611df8565b9150611e49846020850161214a565b6000806040838503121561272657600080fd5b61272f83611df8565b9150611e4960208401611df8565b6000806040838503121561275057600080fd5b61275983611df8565b9150602083015167ffffffffffffffff8082111561277657600080fd5b9084019060c0828703121561278a57600080fd5b612792611ed8565b8251828111156127a157600080fd5b6127ad88828601612549565b8252506127bc60208401611fa3565b60208201526127cd60408401611f98565b60408201526127de60608401611fa3565b60608201526080830151828111156127f557600080fd5b61280188828601611f2c565b60808301525061281360a08401611f98565b60a08201528093505050509250929050565b6000806040838503121561283857600080fd5b61284183611df8565b9150602083015167ffffffffffffffff81111561285d57600080fd5b6126b285828601611fd2565b6000806000806080858703121561287f57600080fd5b61288885611df8565b9350602085015167ffffffffffffffff808211156128a557600080fd5b6128b1888389016122d3565b945060408701519150808211156128c757600080fd5b6128d388838901612397565b935060608701519150808211156128e957600080fd5b506128f687828801612470565b91505092959194509250565b6000806040838503121561291557600080fd5b61291e83611df8565b9150602083015190509250929050565b6000806040838503121561294157600080fd5b61294a83611df8565b9150602083015167ffffffffffffffff8082111561296757600080fd5b908401906040828703121561297b57600080fd5b612983611e91565b82518281111561299257600080fd5b61299e88828601612549565b8252506129ad60208401611df8565b6020820152809350505050925092905056fea264697066735822122094796135df26e91df52108ee9fc7b5ec8620ca21f3e52473b6a263e10cc37f8c64736f6c63430008140033",
  "linkReferences": {},
  "deployedLinkReferences": {}
}