{
  "_format": "hh-sol-artifact-1",
  "contractName": "VoteV1",
  "sourceName": "contracts/openzeppelin/ERC-1967-Upgrade/VoteV1.sol",
  "abi": [
    {
      "inputs": [],
      "stateMutability": "nonpayable",
      "type": "constructor"
    },
    {
      "inputs": [],
      "name": "InvalidInitialization",
      "type": "error"
    },
    {
      "inputs": [],
      "name": "NotInitializing",
      "type": "error"
    },
    {
      "inputs": [],
      "name": "Voter_Has_Already_Voted",
      "type": "error"
    },
    {
      "anonymous": false,
      "inputs": [
        {
          "indexed": false,
          "internalType": "uint64",
          "name": "version",
          "type": "uint64"
        }
      ],
      "name": "Initialized",
      "type": "event"
    },
    {
      "inputs": [],
      "name": "initialize",
      "outputs": [],
      "stateMutability": "nonpayable",
      "type": "function"
    },
    {
      "inputs": [],
      "name": "version",
      "outputs": [
        {
          "internalType": "uint256",
          "name": "",
          "type": "uint256"
        }
      ],
      "stateMutability": "view",
      "type": "function"
    },
    {
      "inputs": [],
      "name": "vote",
      "outputs": [],
      "stateMutability": "nonpayable",
      "type": "function"
    },
    {
      "inputs": [
        {
          "internalType": "address",
          "name": "voter",
          "type": "address"
        }
      ],
      "name": "voted",
      "outputs": [
        {
          "internalType": "bool",
          "name": "",
          "type": "bool"
        }
      ],
      "stateMutability": "view",
      "type": "function"
    },
    {
      "inputs": [],
      "name": "voters",
      "outputs": [
        {
          "internalType": "address[]",
          "name": "",
          "type": "address[]"
        }
      ],
      "stateMutability": "view",
      "type": "function"
    }
  ],
  "bytecode": "0x608060405234801561001057600080fd5b5060016000556103a5806100256000396000f3fe608060405234801561001057600080fd5b50600436106100575760003560e01c8063350580ea1461005c57806354fd4d501461007a578063632a9a521461008b5780638129fc1c14610095578063aec2ccae1461009d575b600080fd5b6100646100d9565b60405161007191906102f2565b60405180910390f35b600054604051908152602001610071565b61009361013b565b005b6100936101d3565b6100c96100ab36600461033f565b6001600160a01b031660009081526002602052604090205460ff1690565b6040519015158152602001610071565b6060600180548060200260200160405190810160405280929190818152602001828054801561013157602002820191906000526020600020905b81546001600160a01b03168152600190910190602001808311610113575b5050505050905090565b3360008181526002602052604090205460ff161561016c57604051633b1dbd5760e11b815260040160405180910390fd5b506001805480820182557fb10e2d527612073b26eecdfd717e6a320cf44b4afac2b0732d9fcbe2b7fa0cf601805473ffffffffffffffffffffffffffffffffffffffff1916339081179091556000908152600260205260409020805460ff19169091179055565b7ff0c57e16840df040f15088dc2f81fe391c3923bec73e23a9662efc9c229c6a00805468010000000000000000810460ff16159067ffffffffffffffff1660008115801561021e5750825b905060008267ffffffffffffffff16600114801561023b5750303b155b905081158015610249575080155b156102675760405163f92ee8a960e01b815260040160405180910390fd5b845467ffffffffffffffff19166001178555831561029b57845468ff00000000000000001916680100000000000000001785555b600160005583156102eb57845468ff000000000000000019168555604051600181527fc7f505b2f371ae2175ee4913f4499e1f2633a7b5936321eed1cdaeb6115181d29060200160405180910390a15b5050505050565b6020808252825182820181905260009190848201906040850190845b818110156103335783516001600160a01b03168352928401929184019160010161030e565b50909695505050505050565b60006020828403121561035157600080fd5b81356001600160a01b038116811461036857600080fd5b939250505056fea2646970667358221220a522f37fa616221411b00130114a0ee6acdd14fdfdaf736440c70d3ecb76a0fa64736f6c63430008170033",
  "linkReferences": {},
  "deployedLinkReferences": {}
}