{
  "_format": "hh-sol-artifact-1",
  "contractName": "A",
  "sourceName": "contracts/solidity/modifiers/A.sol",
  "abi": [
    {
      "inputs": [],
      "name": "show",
      "outputs": [
        {
          "internalType": "string",
          "name": "",
          "type": "string"
        }
      ],
      "stateMutability": "pure",
      "type": "function"
    }
  ],
  "bytecode": "0x608060405234801561001057600080fd5b5060f68061001f6000396000f3fe6080604052348015600f57600080fd5b506004361060285760003560e01c8063cc80f6f314602d575b600080fd5b604080518082018252601281527f5468697320697320636f6e74726163742041000000000000000000000000000060208201529051606a91906073565b60405180910390f35b60006020808352835180602085015260005b81811015609f578581018301518582016040015282016085565b506000604082860101526040601f19601f830116850101925050509291505056fea2646970667358221220ef2cacda357e28eecdebd6ed362d67e8e5cd83a7d1bb09d3bc32c95856624a9a64736f6c63430008170033",
  "linkReferences": {},
  "deployedLinkReferences": {}
}