{
  "_format": "hh-sol-artifact-1",
  "contractName": "ExampleGovernor",
  "sourceName": "contracts/openzeppelin/governor/ExampleGovernor.sol",
  "abi": [
    {
      "inputs": [
        {
          "internalType": "contract IVotes",
          "name": "_token",
          "type": "address"
        }
      ],
      "stateMutability": "nonpayable",
      "type": "constructor"
    },
    {
      "inputs": [],
      "name": "CheckpointUnorderedInsertion",
      "type": "error"
    },
    {
      "inputs": [],
      "name": "FailedInnerCall",
      "type": "error"
    },
    {
      "inputs": [
        {
          "internalType": "address",
          "name": "voter",
          "type": "address"
        }
      ],
      "name": "GovernorAlreadyCastVote",
      "type": "error"
    },
    {
      "inputs": [
        {
          "internalType": "uint256",
          "name": "proposalId",
          "type": "uint256"
        }
      ],
      "name": "GovernorAlreadyQueuedProposal",
      "type": "error"
    },
    {
      "inputs": [],
      "name": "GovernorDisabledDeposit",
      "type": "error"
    },
    {
      "inputs": [
        {
          "internalType": "address",
          "name": "proposer",
          "type": "address"
        },
        {
          "internalType": "uint256",
          "name": "votes",
          "type": "uint256"
        },
        {
          "internalType": "uint256",
          "name": "threshold",
          "type": "uint256"
        }
      ],
      "name": "GovernorInsufficientProposerVotes",
      "type": "error"
    },
    {
      "inputs": [
        {
          "internalType": "uint256",
          "name": "targets",
          "type": "uint256"
        },
        {
          "internalType": "uint256",
          "name": "calldatas",
          "type": "uint256"
        },
        {
          "internalType": "uint256",
          "name": "values",
          "type": "uint256"
        }
      ],
      "name": "GovernorInvalidProposalLength",
      "type": "error"
    },
    {
      "inputs": [
        {
          "internalType": "uint256",
          "name": "quorumNumerator",
          "type": "uint256"
        },
        {
          "internalType": "uint256",
          "name": "quorumDenominator",
          "type": "uint256"
        }
      ],
      "name": "GovernorInvalidQuorumFraction",
      "type": "error"
    },
    {
      "inputs": [
        {
          "internalType": "address",
          "name": "voter",
          "type": "address"
        }
      ],
      "name": "GovernorInvalidSignature",
      "type": "error"
    },
    {
      "inputs": [],
      "name": "GovernorInvalidVoteType",
      "type": "error"
    },
    {
      "inputs": [
        {
          "internalType": "uint256",
          "name": "votingPeriod",
          "type": "uint256"
        }
      ],
      "name": "GovernorInvalidVotingPeriod",
      "type": "error"
    },
    {
      "inputs": [
        {
          "internalType": "uint256",
          "name": "proposalId",
          "type": "uint256"
        }
      ],
      "name": "GovernorNonexistentProposal",
      "type": "error"
    },
    {
      "inputs": [
        {
          "internalType": "uint256",
          "name": "proposalId",
          "type": "uint256"
        }
      ],
      "name": "GovernorNotQueuedProposal",
      "type": "error"
    },
    {
      "inputs": [
        {
          "internalType": "address",
          "name": "account",
          "type": "address"
        }
      ],
      "name": "GovernorOnlyExecutor",
      "type": "error"
    },
    {
      "inputs": [
        {
          "internalType": "address",
          "name": "account",
          "type": "address"
        }
      ],
      "name": "GovernorOnlyProposer",
      "type": "error"
    },
    {
      "inputs": [],
      "name": "GovernorQueueNotImplemented",
      "type": "error"
    },
    {
      "inputs": [
        {
          "internalType": "address",
          "name": "proposer",
          "type": "address"
        }
      ],
      "name": "GovernorRestrictedProposer",
      "type": "error"
    },
    {
      "inputs": [
        {
          "internalType": "uint256",
          "name": "proposalId",
          "type": "uint256"
        },
        {
          "internalType": "enum IGovernor.ProposalState",
          "name": "current",
          "type": "uint8"
        },
        {
          "internalType": "bytes32",
          "name": "expectedStates",
          "type": "bytes32"
        }
      ],
      "name": "GovernorUnexpectedProposalState",
      "type": "error"
    },
    {
      "inputs": [
        {
          "internalType": "address",
          "name": "account",
          "type": "address"
        },
        {
          "internalType": "uint256",
          "name": "currentNonce",
          "type": "uint256"
        }
      ],
      "name": "InvalidAccountNonce",
      "type": "error"
    },
    {
      "inputs": [],
      "name": "InvalidShortString",
      "type": "error"
    },
    {
      "inputs": [],
      "name": "QueueEmpty",
      "type": "error"
    },
    {
      "inputs": [],
      "name": "QueueFull",
      "type": "error"
    },
    {
      "inputs": [
        {
          "internalType": "uint8",
          "name": "bits",
          "type": "uint8"
        },
        {
          "internalType": "uint256",
          "name": "value",
          "type": "uint256"
        }
      ],
      "name": "SafeCastOverflowedUintDowncast",
      "type": "error"
    },
    {
      "inputs": [
        {
          "internalType": "string",
          "name": "str",
          "type": "string"
        }
      ],
      "name": "StringTooLong",
      "type": "error"
    },
    {
      "anonymous": false,
      "inputs": [],
      "name": "EIP712DomainChanged",
      "type": "event"
    },
    {
      "anonymous": false,
      "inputs": [
        {
          "indexed": false,
          "internalType": "uint256",
          "name": "proposalId",
          "type": "uint256"
        }
      ],
      "name": "ProposalCanceled",
      "type": "event"
    },
    {
      "anonymous": false,
      "inputs": [
        {
          "indexed": false,
          "internalType": "uint256",
          "name": "proposalId",
          "type": "uint256"
        },
        {
          "indexed": false,
          "internalType": "address",
          "name": "proposer",
          "type": "address"
        },
        {
          "indexed": false,
          "internalType": "address[]",
          "name": "targets",
          "type": "address[]"
        },
        {
          "indexed": false,
          "internalType": "uint256[]",
          "name": "values",
          "type": "uint256[]"
        },
        {
          "indexed": false,
          "internalType": "string[]",
          "name": "signatures",
          "type": "string[]"
        },
        {
          "indexed": false,
          "internalType": "bytes[]",
          "name": "calldatas",
          "type": "bytes[]"
        },
        {
          "indexed": false,
          "internalType": "uint256",
          "name": "voteStart",
          "type": "uint256"
        },
        {
          "indexed": false,
          "internalType": "uint256",
          "name": "voteEnd",
          "type": "uint256"
        },
        {
          "indexed": false,
          "internalType": "string",
          "name": "description",
          "type": "string"
        }
      ],
      "name": "ProposalCreated",
      "type": "event"
    },
    {
      "anonymous": false,
      "inputs": [
        {
          "indexed": false,
          "internalType": "uint256",
          "name": "proposalId",
          "type": "uint256"
        }
      ],
      "name": "ProposalExecuted",
      "type": "event"
    },
    {
      "anonymous": false,
      "inputs": [
        {
          "indexed": false,
          "internalType": "uint256",
          "name": "proposalId",
          "type": "uint256"
        },
        {
          "indexed": false,
          "internalType": "uint256",
          "name": "etaSeconds",
          "type": "uint256"
        }
      ],
      "name": "ProposalQueued",
      "type": "event"
    },
    {
      "anonymous": false,
      "inputs": [
        {
          "indexed": false,
          "internalType": "uint256",
          "name": "oldProposalThreshold",
          "type": "uint256"
        },
        {
          "indexed": false,
          "internalType": "uint256",
          "name": "newProposalThreshold",
          "type": "uint256"
        }
      ],
      "name": "ProposalThresholdSet",
      "type": "event"
    },
    {
      "anonymous": false,
      "inputs": [
        {
          "indexed": false,
          "internalType": "uint256",
          "name": "oldQuorumNumerator",
          "type": "uint256"
        },
        {
          "indexed": false,
          "internalType": "uint256",
          "name": "newQuorumNumerator",
          "type": "uint256"
        }
      ],
      "name": "QuorumNumeratorUpdated",
      "type": "event"
    },
    {
      "anonymous": false,
      "inputs": [
        {
          "indexed": true,
          "internalType": "address",
          "name": "voter",
          "type": "address"
        },
        {
          "indexed": false,
          "internalType": "uint256",
          "name": "proposalId",
          "type": "uint256"
        },
        {
          "indexed": false,
          "internalType": "uint8",
          "name": "support",
          "type": "uint8"
        },
        {
          "indexed": false,
          "internalType": "uint256",
          "name": "weight",
          "type": "uint256"
        },
        {
          "indexed": false,
          "internalType": "string",
          "name": "reason",
          "type": "string"
        }
      ],
      "name": "VoteCast",
      "type": "event"
    },
    {
      "anonymous": false,
      "inputs": [
        {
          "indexed": true,
          "internalType": "address",
          "name": "voter",
          "type": "address"
        },
        {
          "indexed": false,
          "internalType": "uint256",
          "name": "proposalId",
          "type": "uint256"
        },
        {
          "indexed": false,
          "internalType": "uint8",
          "name": "support",
          "type": "uint8"
        },
        {
          "indexed": false,
          "internalType": "uint256",
          "name": "weight",
          "type": "uint256"
        },
        {
          "indexed": false,
          "internalType": "string",
          "name": "reason",
          "type": "string"
        },
        {
          "indexed": false,
          "internalType": "bytes",
          "name": "params",
          "type": "bytes"
        }
      ],
      "name": "VoteCastWithParams",
      "type": "event"
    },
    {
      "anonymous": false,
      "inputs": [
        {
          "indexed": false,
          "internalType": "uint256",
          "name": "oldVotingDelay",
          "type": "uint256"
        },
        {
          "indexed": false,
          "internalType": "uint256",
          "name": "newVotingDelay",
          "type": "uint256"
        }
      ],
      "name": "VotingDelaySet",
      "type": "event"
    },
    {
      "anonymous": false,
      "inputs": [
        {
          "indexed": false,
          "internalType": "uint256",
          "name": "oldVotingPeriod",
          "type": "uint256"
        },
        {
          "indexed": false,
          "internalType": "uint256",
          "name": "newVotingPeriod",
          "type": "uint256"
        }
      ],
      "name": "VotingPeriodSet",
      "type": "event"
    },
    {
      "inputs": [],
      "name": "BALLOT_TYPEHASH",
      "outputs": [
        {
          "internalType": "bytes32",
          "name": "",
          "type": "bytes32"
        }
      ],
      "stateMutability": "view",
      "type": "function"
    },
    {
      "inputs": [],
      "name": "CLOCK_MODE",
      "outputs": [
        {
          "internalType": "string",
          "name": "",
          "type": "string"
        }
      ],
      "stateMutability": "view",
      "type": "function"
    },
    {
      "inputs": [],
      "name": "COUNTING_MODE",
      "outputs": [
        {
          "internalType": "string",
          "name": "",
          "type": "string"
        }
      ],
      "stateMutability": "pure",
      "type": "function"
    },
    {
      "inputs": [],
      "name": "EXTENDED_BALLOT_TYPEHASH",
      "outputs": [
        {
          "internalType": "bytes32",
          "name": "",
          "type": "bytes32"
        }
      ],
      "stateMutability": "view",
      "type": "function"
    },
    {
      "inputs": [
        {
          "internalType": "address[]",
          "name": "targets",
          "type": "address[]"
        },
        {
          "internalType": "uint256[]",
          "name": "values",
          "type": "uint256[]"
        },
        {
          "internalType": "bytes[]",
          "name": "calldatas",
          "type": "bytes[]"
        },
        {
          "internalType": "bytes32",
          "name": "descriptionHash",
          "type": "bytes32"
        }
      ],
      "name": "cancel",
      "outputs": [
        {
          "internalType": "uint256",
          "name": "",
          "type": "uint256"
        }
      ],
      "stateMutability": "nonpayable",
      "type": "function"
    },
    {
      "inputs": [
        {
          "internalType": "uint256",
          "name": "proposalId",
          "type": "uint256"
        },
        {
          "internalType": "uint8",
          "name": "support",
          "type": "uint8"
        }
      ],
      "name": "castVote",
      "outputs": [
        {
          "internalType": "uint256",
          "name": "",
          "type": "uint256"
        }
      ],
      "stateMutability": "nonpayable",
      "type": "function"
    },
    {
      "inputs": [
        {
          "internalType": "uint256",
          "name": "proposalId",
          "type": "uint256"
        },
        {
          "internalType": "uint8",
          "name": "support",
          "type": "uint8"
        },
        {
          "internalType": "address",
          "name": "voter",
          "type": "address"
        },
        {
          "internalType": "bytes",
          "name": "signature",
          "type": "bytes"
        }
      ],
      "name": "castVoteBySig",
      "outputs": [
        {
          "internalType": "uint256",
          "name": "",
          "type": "uint256"
        }
      ],
      "stateMutability": "nonpayable",
      "type": "function"
    },
    {
      "inputs": [
        {
          "internalType": "uint256",
          "name": "proposalId",
          "type": "uint256"
        },
        {
          "internalType": "uint8",
          "name": "support",
          "type": "uint8"
        },
        {
          "internalType": "string",
          "name": "reason",
          "type": "string"
        }
      ],
      "name": "castVoteWithReason",
      "outputs": [
        {
          "internalType": "uint256",
          "name": "",
          "type": "uint256"
        }
      ],
      "stateMutability": "nonpayable",
      "type": "function"
    },
    {
      "inputs": [
        {
          "internalType": "uint256",
          "name": "proposalId",
          "type": "uint256"
        },
        {
          "internalType": "uint8",
          "name": "support",
          "type": "uint8"
        },
        {
          "internalType": "string",
          "name": "reason",
          "type": "string"
        },
        {
          "internalType": "bytes",
          "name": "params",
          "type": "bytes"
        }
      ],
      "name": "castVoteWithReasonAndParams",
      "outputs": [
        {
          "internalType": "uint256",
          "name": "",
          "type": "uint256"
        }
      ],
      "stateMutability": "nonpayable",
      "type": "function"
    },
    {
      "inputs": [
        {
          "internalType": "uint256",
          "name": "proposalId",
          "type": "uint256"
        },
        {
          "internalType": "uint8",
          "name": "support",
          "type": "uint8"
        },
        {
          "internalType": "address",
          "name": "voter",
          "type": "address"
        },
        {
          "internalType": "string",
          "name": "reason",
          "type": "string"
        },
        {
          "internalType": "bytes",
          "name": "params",
          "type": "bytes"
        },
        {
          "internalType": "bytes",
          "name": "signature",
          "type": "bytes"
        }
      ],
      "name": "castVoteWithReasonAndParamsBySig",
      "outputs": [
        {
          "internalType": "uint256",
          "name": "",
          "type": "uint256"
        }
      ],
      "stateMutability": "nonpayable",
      "type": "function"
    },
    {
      "inputs": [],
      "name": "clock",
      "outputs": [
        {
          "internalType": "uint48",
          "name": "",
          "type": "uint48"
        }
      ],
      "stateMutability": "view",
      "type": "function"
    },
    {
      "inputs": [],
      "name": "eip712Domain",
      "outputs": [
        {
          "internalType": "bytes1",
          "name": "fields",
          "type": "bytes1"
        },
        {
          "internalType": "string",
          "name": "name",
          "type": "string"
        },
        {
          "internalType": "string",
          "name": "version",
          "type": "string"
        },
        {
          "internalType": "uint256",
          "name": "chainId",
          "type": "uint256"
        },
        {
          "internalType": "address",
          "name": "verifyingContract",
          "type": "address"
        },
        {
          "internalType": "bytes32",
          "name": "salt",
          "type": "bytes32"
        },
        {
          "internalType": "uint256[]",
          "name": "extensions",
          "type": "uint256[]"
        }
      ],
      "stateMutability": "view",
      "type": "function"
    },
    {
      "inputs": [
        {
          "internalType": "address[]",
          "name": "targets",
          "type": "address[]"
        },
        {
          "internalType": "uint256[]",
          "name": "values",
          "type": "uint256[]"
        },
        {
          "internalType": "bytes[]",
          "name": "calldatas",
          "type": "bytes[]"
        },
        {
          "internalType": "bytes32",
          "name": "descriptionHash",
          "type": "bytes32"
        }
      ],
      "name": "execute",
      "outputs": [
        {
          "internalType": "uint256",
          "name": "",
          "type": "uint256"
        }
      ],
      "stateMutability": "payable",
      "type": "function"
    },
    {
      "inputs": [
        {
          "internalType": "address",
          "name": "account",
          "type": "address"
        },
        {
          "internalType": "uint256",
          "name": "timepoint",
          "type": "uint256"
        }
      ],
      "name": "getVotes",
      "outputs": [
        {
          "internalType": "uint256",
          "name": "",
          "type": "uint256"
        }
      ],
      "stateMutability": "view",
      "type": "function"
    },
    {
      "inputs": [
        {
          "internalType": "address",
          "name": "account",
          "type": "address"
        },
        {
          "internalType": "uint256",
          "name": "timepoint",
          "type": "uint256"
        },
        {
          "internalType": "bytes",
          "name": "params",
          "type": "bytes"
        }
      ],
      "name": "getVotesWithParams",
      "outputs": [
        {
          "internalType": "uint256",
          "name": "",
          "type": "uint256"
        }
      ],
      "stateMutability": "view",
      "type": "function"
    },
    {
      "inputs": [
        {
          "internalType": "uint256",
          "name": "proposalId",
          "type": "uint256"
        },
        {
          "internalType": "address",
          "name": "account",
          "type": "address"
        }
      ],
      "name": "hasVoted",
      "outputs": [
        {
          "internalType": "bool",
          "name": "",
          "type": "bool"
        }
      ],
      "stateMutability": "view",
      "type": "function"
    },
    {
      "inputs": [
        {
          "internalType": "address[]",
          "name": "targets",
          "type": "address[]"
        },
        {
          "internalType": "uint256[]",
          "name": "values",
          "type": "uint256[]"
        },
        {
          "internalType": "bytes[]",
          "name": "calldatas",
          "type": "bytes[]"
        },
        {
          "internalType": "bytes32",
          "name": "descriptionHash",
          "type": "bytes32"
        }
      ],
      "name": "hashProposal",
      "outputs": [
        {
          "internalType": "uint256",
          "name": "",
          "type": "uint256"
        }
      ],
      "stateMutability": "pure",
      "type": "function"
    },
    {
      "inputs": [],
      "name": "name",
      "outputs": [
        {
          "internalType": "string",
          "name": "",
          "type": "string"
        }
      ],
      "stateMutability": "view",
      "type": "function"
    },
    {
      "inputs": [
        {
          "internalType": "address",
          "name": "owner",
          "type": "address"
        }
      ],
      "name": "nonces",
      "outputs": [
        {
          "internalType": "uint256",
          "name": "",
          "type": "uint256"
        }
      ],
      "stateMutability": "view",
      "type": "function"
    },
    {
      "inputs": [
        {
          "internalType": "address",
          "name": "",
          "type": "address"
        },
        {
          "internalType": "address",
          "name": "",
          "type": "address"
        },
        {
          "internalType": "uint256[]",
          "name": "",
          "type": "uint256[]"
        },
        {
          "internalType": "uint256[]",
          "name": "",
          "type": "uint256[]"
        },
        {
          "internalType": "bytes",
          "name": "",
          "type": "bytes"
        }
      ],
      "name": "onERC1155BatchReceived",
      "outputs": [
        {
          "internalType": "bytes4",
          "name": "",
          "type": "bytes4"
        }
      ],
      "stateMutability": "nonpayable",
      "type": "function"
    },
    {
      "inputs": [
        {
          "internalType": "address",
          "name": "",
          "type": "address"
        },
        {
          "internalType": "address",
          "name": "",
          "type": "address"
        },
        {
          "internalType": "uint256",
          "name": "",
          "type": "uint256"
        },
        {
          "internalType": "uint256",
          "name": "",
          "type": "uint256"
        },
        {
          "internalType": "bytes",
          "name": "",
          "type": "bytes"
        }
      ],
      "name": "onERC1155Received",
      "outputs": [
        {
          "internalType": "bytes4",
          "name": "",
          "type": "bytes4"
        }
      ],
      "stateMutability": "nonpayable",
      "type": "function"
    },
    {
      "inputs": [
        {
          "internalType": "address",
          "name": "",
          "type": "address"
        },
        {
          "internalType": "address",
          "name": "",
          "type": "address"
        },
        {
          "internalType": "uint256",
          "name": "",
          "type": "uint256"
        },
        {
          "internalType": "bytes",
          "name": "",
          "type": "bytes"
        }
      ],
      "name": "onERC721Received",
      "outputs": [
        {
          "internalType": "bytes4",
          "name": "",
          "type": "bytes4"
        }
      ],
      "stateMutability": "nonpayable",
      "type": "function"
    },
    {
      "inputs": [
        {
          "internalType": "uint256",
          "name": "proposalId",
          "type": "uint256"
        }
      ],
      "name": "proposalDeadline",
      "outputs": [
        {
          "internalType": "uint256",
          "name": "",
          "type": "uint256"
        }
      ],
      "stateMutability": "view",
      "type": "function"
    },
    {
      "inputs": [
        {
          "internalType": "uint256",
          "name": "proposalId",
          "type": "uint256"
        }
      ],
      "name": "proposalEta",
      "outputs": [
        {
          "internalType": "uint256",
          "name": "",
          "type": "uint256"
        }
      ],
      "stateMutability": "view",
      "type": "function"
    },
    {
      "inputs": [
        {
          "internalType": "uint256",
          "name": "",
          "type": "uint256"
        }
      ],
      "name": "proposalNeedsQueuing",
      "outputs": [
        {
          "internalType": "bool",
          "name": "",
          "type": "bool"
        }
      ],
      "stateMutability": "view",
      "type": "function"
    },
    {
      "inputs": [
        {
          "internalType": "uint256",
          "name": "proposalId",
          "type": "uint256"
        }
      ],
      "name": "proposalProposer",
      "outputs": [
        {
          "internalType": "address",
          "name": "",
          "type": "address"
        }
      ],
      "stateMutability": "view",
      "type": "function"
    },
    {
      "inputs": [
        {
          "internalType": "uint256",
          "name": "proposalId",
          "type": "uint256"
        }
      ],
      "name": "proposalSnapshot",
      "outputs": [
        {
          "internalType": "uint256",
          "name": "",
          "type": "uint256"
        }
      ],
      "stateMutability": "view",
      "type": "function"
    },
    {
      "inputs": [],
      "name": "proposalThreshold",
      "outputs": [
        {
          "internalType": "uint256",
          "name": "",
          "type": "uint256"
        }
      ],
      "stateMutability": "view",
      "type": "function"
    },
    {
      "inputs": [
        {
          "internalType": "uint256",
          "name": "proposalId",
          "type": "uint256"
        }
      ],
      "name": "proposalVotes",
      "outputs": [
        {
          "internalType": "uint256",
          "name": "againstVotes",
          "type": "uint256"
        },
        {
          "internalType": "uint256",
          "name": "forVotes",
          "type": "uint256"
        },
        {
          "internalType": "uint256",
          "name": "abstainVotes",
          "type": "uint256"
        }
      ],
      "stateMutability": "view",
      "type": "function"
    },
    {
      "inputs": [
        {
          "internalType": "address[]",
          "name": "targets",
          "type": "address[]"
        },
        {
          "internalType": "uint256[]",
          "name": "values",
          "type": "uint256[]"
        },
        {
          "internalType": "bytes[]",
          "name": "calldatas",
          "type": "bytes[]"
        },
        {
          "internalType": "string",
          "name": "description",
          "type": "string"
        }
      ],
      "name": "propose",
      "outputs": [
        {
          "internalType": "uint256",
          "name": "",
          "type": "uint256"
        }
      ],
      "stateMutability": "nonpayable",
      "type": "function"
    },
    {
      "inputs": [
        {
          "internalType": "address[]",
          "name": "targets",
          "type": "address[]"
        },
        {
          "internalType": "uint256[]",
          "name": "values",
          "type": "uint256[]"
        },
        {
          "internalType": "bytes[]",
          "name": "calldatas",
          "type": "bytes[]"
        },
        {
          "internalType": "bytes32",
          "name": "descriptionHash",
          "type": "bytes32"
        }
      ],
      "name": "queue",
      "outputs": [
        {
          "internalType": "uint256",
          "name": "",
          "type": "uint256"
        }
      ],
      "stateMutability": "nonpayable",
      "type": "function"
    },
    {
      "inputs": [
        {
          "internalType": "uint256",
          "name": "blockNumber",
          "type": "uint256"
        }
      ],
      "name": "quorum",
      "outputs": [
        {
          "internalType": "uint256",
          "name": "",
          "type": "uint256"
        }
      ],
      "stateMutability": "view",
      "type": "function"
    },
    {
      "inputs": [],
      "name": "quorumDenominator",
      "outputs": [
        {
          "internalType": "uint256",
          "name": "",
          "type": "uint256"
        }
      ],
      "stateMutability": "view",
      "type": "function"
    },
    {
      "inputs": [
        {
          "internalType": "uint256",
          "name": "timepoint",
          "type": "uint256"
        }
      ],
      "name": "quorumNumerator",
      "outputs": [
        {
          "internalType": "uint256",
          "name": "",
          "type": "uint256"
        }
      ],
      "stateMutability": "view",
      "type": "function"
    },
    {
      "inputs": [],
      "name": "quorumNumerator",
      "outputs": [
        {
          "internalType": "uint256",
          "name": "",
          "type": "uint256"
        }
      ],
      "stateMutability": "view",
      "type": "function"
    },
    {
      "inputs": [
        {
          "internalType": "address",
          "name": "target",
          "type": "address"
        },
        {
          "internalType": "uint256",
          "name": "value",
          "type": "uint256"
        },
        {
          "internalType": "bytes",
          "name": "data",
          "type": "bytes"
        }
      ],
      "name": "relay",
      "outputs": [],
      "stateMutability": "payable",
      "type": "function"
    },
    {
      "inputs": [
        {
          "internalType": "uint256",
          "name": "newProposalThreshold",
          "type": "uint256"
        }
      ],
      "name": "setProposalThreshold",
      "outputs": [],
      "stateMutability": "nonpayable",
      "type": "function"
    },
    {
      "inputs": [
        {
          "internalType": "uint48",
          "name": "newVotingDelay",
          "type": "uint48"
        }
      ],
      "name": "setVotingDelay",
      "outputs": [],
      "stateMutability": "nonpayable",
      "type": "function"
    },
    {
      "inputs": [
        {
          "internalType": "uint32",
          "name": "newVotingPeriod",
          "type": "uint32"
        }
      ],
      "name": "setVotingPeriod",
      "outputs": [],
      "stateMutability": "nonpayable",
      "type": "function"
    },
    {
      "inputs": [
        {
          "internalType": "uint256",
          "name": "proposalId",
          "type": "uint256"
        }
      ],
      "name": "state",
      "outputs": [
        {
          "internalType": "enum IGovernor.ProposalState",
          "name": "",
          "type": "uint8"
        }
      ],
      "stateMutability": "view",
      "type": "function"
    },
    {
      "inputs": [
        {
          "internalType": "bytes4",
          "name": "interfaceId",
          "type": "bytes4"
        }
      ],
      "name": "supportsInterface",
      "outputs": [
        {
          "internalType": "bool",
          "name": "",
          "type": "bool"
        }
      ],
      "stateMutability": "view",
      "type": "function"
    },
    {
      "inputs": [],
      "name": "token",
      "outputs": [
        {
          "internalType": "contract IERC5805",
          "name": "",
          "type": "address"
        }
      ],
      "stateMutability": "view",
      "type": "function"
    },
    {
      "inputs": [
        {
          "internalType": "uint256",
          "name": "newQuorumNumerator",
          "type": "uint256"
        }
      ],
      "name": "updateQuorumNumerator",
      "outputs": [],
      "stateMutability": "nonpayable",
      "type": "function"
    },
    {
      "inputs": [],
      "name": "version",
      "outputs": [
        {
          "internalType": "string",
          "name": "",
          "type": "string"
        }
      ],
      "stateMutability": "view",
      "type": "function"
    },
    {
      "inputs": [],
      "name": "votingDelay",
      "outputs": [
        {
          "internalType": "uint256",
          "name": "",
          "type": "uint256"
        }
      ],
      "stateMutability": "view",
      "type": "function"
    },
    {
      "inputs": [],
      "name": "votingPeriod",
      "outputs": [
        {
          "internalType": "uint256",
          "name": "",
          "type": "uint256"
        }
      ],
      "stateMutability": "view",
      "type": "function"
    },
    {
      "stateMutability": "payable",
      "type": "receive"
    }
  ],
  "bytecode": "0x6101806040523480156200001257600080fd5b50604051620046f5380380620046f583398101604081905262000035916200071f565b6001816000600260006040518060400160405280600f81526020016e22bc30b6b83632a3b7bb32b93737b960891b81525080620000776200018160201b60201c565b620000848260006200019c565b61012052620000958160016200019c565b61014052815160208084019190912060e052815190820120610100524660a0526200012360e05161010051604080517f8b73c3c69bb8fe3d512ecc4cf759cc79239f7b179b0ffacaa9a75d522b39400f60208201529081019290925260608201524660808201523060a082015260009060c00160405160208183030381529060405280519060200120905090565b60805250503060c05260036200013a8282620007ef565b5062000148905083620001d5565b62000153826200023b565b6200015e81620002e2565b5050506001600160a01b031661016052620001798162000323565b50506200097c565b6040805180820190915260018152603160f81b602082015290565b6000602083511015620001bc57620001b483620003c3565b9050620001cf565b81620001c98482620007ef565b5060ff90505b92915050565b6008546040805165ffffffffffff928316815291831660208301527fc565b045403dc03c2eea82b81a0465edad9e2e7fc4d97e11421c209da93d7a93910160405180910390a16008805465ffffffffffff191665ffffffffffff92909216919091179055565b8063ffffffff166000036200026b5760405163f1cfbf0560e01b8152600060048201526024015b60405180910390fd5b6008546040805163ffffffff66010000000000009093048316815291831660208301527f7e3f7f0708a84de9203036abaa450dccc85ad5ff52f78c170f3edb55cf5e8828910160405180910390a16008805463ffffffff90921666010000000000000263ffffffff60301b19909216919091179055565b60075460408051918252602082018390527fccb45da8d5717e6c4544694297c4ba5cf151d455c9bb0ed4fc7a38411bc05461910160405180910390a1600755565b606480821115620003525760405163243e544560e01b8152600481018390526024810182905260440162000262565b60006200035e62000406565b9050620003836200036e62000422565b6200037985620004a4565b600a9190620004de565b505060408051828152602081018590527f0553476bf02ef2726e8ce5ced78d63e26e602e4a2257b1f559418e24b4633997910160405180910390a1505050565b600080829050601f81511115620003f1578260405163305a27a960e01b8152600401620002629190620008bb565b8051620003fe826200090b565b179392505050565b600062000414600a620004fb565b6001600160d01b0316905090565b60006200042f6101605190565b6001600160a01b03166391ddadf46040518163ffffffff1660e01b8152600401602060405180830381865afa9250505080156200048b575060408051601f3d908101601f19168201909252620004889181019062000930565b60015b6200049f576200049a6200054b565b905090565b919050565b60006001600160d01b03821115620004da576040516306dfcc6560e41b815260d060048201526024810183905260440162000262565b5090565b600080620004ee85858562000558565b915091505b935093915050565b8054600090801562000541576200052783620005196001846200095a565b600091825260209091200190565b54660100000000000090046001600160d01b031662000544565b60005b9392505050565b60006200049a43620006ea565b8254600090819080156200068b5760006200057a87620005196001856200095a565b60408051808201909152905465ffffffffffff80821680845266010000000000009092046001600160d01b031660208401529192509087161015620005d257604051632520601d60e01b815260040160405180910390fd5b805165ffffffffffff808816911603620006265784620005f988620005196001866200095a565b80546001600160d01b039290921666010000000000000265ffffffffffff9092169190911790556200067a565b6040805180820190915265ffffffffffff80881682526001600160d01b0380881660208085019182528b54600181018d5560008d815291909120945191519092166601000000000000029216919091179101555b602001519250839150620004f39050565b50506040805180820190915265ffffffffffff80851682526001600160d01b0380851660208085019182528854600181018a5560008a8152918220955192519093166601000000000000029190931617920191909155905081620004f3565b600065ffffffffffff821115620004da576040516306dfcc6560e41b8152603060048201526024810183905260440162000262565b6000602082840312156200073257600080fd5b81516001600160a01b03811681146200054457600080fd5b634e487b7160e01b600052604160045260246000fd5b600181811c908216806200077557607f821691505b6020821081036200079657634e487b7160e01b600052602260045260246000fd5b50919050565b601f821115620007ea57600081815260208120601f850160051c81016020861015620007c55750805b601f850160051c820191505b81811015620007e657828155600101620007d1565b5050505b505050565b81516001600160401b038111156200080b576200080b6200074a565b62000823816200081c845462000760565b846200079c565b602080601f8311600181146200085b5760008415620008425750858301515b600019600386901b1c1916600185901b178555620007e6565b600085815260208120601f198616915b828110156200088c578886015182559484019460019091019084016200086b565b5085821015620008ab5787850151600019600388901b60f8161c191681555b5050505050600190811b01905550565b600060208083528351808285015260005b81811015620008ea57858101830151858201604001528201620008cc565b506000604082860101526040601f19601f8301168501019250505092915050565b80516020808301519190811015620007965760001960209190910360031b1b16919050565b6000602082840312156200094357600080fd5b815165ffffffffffff811681146200054457600080fd5b81810381811115620001cf57634e487b7160e01b600052601160045260246000fd5b60805160a05160c05160e05161010051610120516101405161016051613cf7620009fe600039600081816109fc01528181610e68015281816113c30152818161201e015261220f01526000611fe901526000611fbc015260006124350152600061240d0152600061236801526000612392015260006123bc0152613cf76000f3fe6080604052600436106102e15760003560e01c80637d5e81e21161017f578063bc197c81116100e1578063e540d01d1161008a578063f23a6e6111610064578063f23a6e61146109a1578063f8ce560a146109cd578063fc0c546a146109ed57600080fd5b8063e540d01d14610941578063eb9019d414610961578063ece40cc11461098157600080fd5b8063c59057e4116100bb578063c59057e4146108a7578063dd4e2ba5146108c7578063deaaa7cc1461090d57600080fd5b8063bc197c8114610848578063c01f9e3714610874578063c28bc2fa1461089457600080fd5b806397c3d33411610143578063a9a952941161011d578063a9a95294146107da578063ab58fb8e146107fb578063b58131b01461083357600080fd5b806397c3d334146107915780639a802a6d146107a5578063a7713a70146107c557600080fd5b80637d5e81e2146106c75780637ecebe00146106e757806384b0196e1461071d5780638ff262e31461074557806391ddadf41461076557600080fd5b80633e4f49e61161024357806356781388116101ec57806360c4247f116101c657806360c4247f1461066757806379051887146106875780637b3c71d3146106a757600080fd5b806356781388146106075780635b8d0e0d146106275780635f398a141461064757600080fd5b80634bf5d7e91161021d5780634bf5d7e914610573578063544ffc9c1461058857806354fd4d50146105dd57600080fd5b80633e4f49e6146104dc5780634385963214610509578063452115d61461055357600080fd5b8063150b7a02116102a55780632d63f6931161027f5780632d63f693146104575780632fe3e261146104935780633932abb1146104c757600080fd5b8063150b7a02146103e0578063160cbed7146104245780632656227d1461044457600080fd5b806301ffc9a7146102ef57806302a251a31461032457806306f3f9e61461035057806306fdde0314610370578063143489d01461039257600080fd5b366102ea57005b005b600080fd5b3480156102fb57600080fd5b5061030f61030a366004612d12565b610a20565b60405190151581526020015b60405180910390f35b34801561033057600080fd5b50600854600160301b900463ffffffff165b60405190815260200161031b565b34801561035c57600080fd5b506102e861036b366004612d3c565b610a77565b34801561037c57600080fd5b50610385610a8b565b60405161031b9190612da5565b34801561039e57600080fd5b506103c86103ad366004612d3c565b6000908152600460205260409020546001600160a01b031690565b6040516001600160a01b03909116815260200161031b565b3480156103ec57600080fd5b5061040b6103fb366004612e9c565b630a85bd0160e11b949350505050565b6040516001600160e01b0319909116815260200161031b565b34801561043057600080fd5b5061034261043f366004613070565b610b1d565b610342610452366004613070565b610b5d565b34801561046357600080fd5b50610342610472366004612d3c565b600090815260046020526040902054600160a01b900465ffffffffffff1690565b34801561049f57600080fd5b506103427f3e83946653575f9a39005e1545185629e92736b7528ab20ca3816f315424a81181565b3480156104d357600080fd5b50610342610c90565b3480156104e857600080fd5b506104fc6104f7366004612d3c565b610ca3565b60405161031b9190613138565b34801561051557600080fd5b5061030f610524366004613146565b60008281526009602090815260408083206001600160a01b038516845260030190915290205460ff1692915050565b34801561055f57600080fd5b5061034261056e366004613070565b610df5565b34801561057f57600080fd5b50610385610e64565b34801561059457600080fd5b506105c26105a3366004612d3c565b6000908152600960205260409020805460018201546002909201549092565b6040805193845260208401929092529082015260600161031b565b3480156105e957600080fd5b506040805180820190915260018152603160f81b6020820152610385565b34801561061357600080fd5b50610342610622366004613183565b610f26565b34801561063357600080fd5b506103426106423660046131ef565b610f4f565b34801561065357600080fd5b506103426106623660046132a8565b6110ae565b34801561067357600080fd5b50610342610682366004612d3c565b611103565b34801561069357600080fd5b506102e86106a2366004613340565b611191565b3480156106b357600080fd5b506103426106c236600461335d565b6111a2565b3480156106d357600080fd5b506103426106e23660046133b7565b6111ea565b3480156106f357600080fd5b5061034261070236600461346c565b6001600160a01b031660009081526002602052604090205490565b34801561072957600080fd5b506107326112a7565b60405161031b97969594939291906134c2565b34801561075157600080fd5b50610342610760366004613530565b6112ed565b34801561077157600080fd5b5061077a6113bf565b60405165ffffffffffff909116815260200161031b565b34801561079d57600080fd5b506064610342565b3480156107b157600080fd5b506103426107c0366004613580565b611447565b3480156107d157600080fd5b50610342611454565b3480156107e657600080fd5b5061030f6107f5366004612d3c565b50600090565b34801561080757600080fd5b50610342610816366004612d3c565b60009081526004602052604090206001015465ffffffffffff1690565b34801561083f57600080fd5b5061034261146e565b34801561085457600080fd5b5061040b6108633660046135d7565b63bc197c8160e01b95945050505050565b34801561088057600080fd5b5061034261088f366004612d3c565b611479565b6102e86108a2366004613667565b6114bc565b3480156108b357600080fd5b506103426108c2366004613070565b61153c565b3480156108d357600080fd5b506040805180820190915260208082527f737570706f72743d627261766f2671756f72756d3d666f722c6162737461696e90820152610385565b34801561091957600080fd5b506103427ff2aad550cf55f045cb27e9c559f9889fdfb6e6cdaa032301d6ea397784ae51d781565b34801561094d57600080fd5b506102e861095c3660046136a9565b611576565b34801561096d57600080fd5b5061034261097c3660046136cf565b611587565b34801561098d57600080fd5b506102e861099c366004612d3c565b6115af565b3480156109ad57600080fd5b5061040b6109bc3660046136f9565b63f23a6e6160e01b95945050505050565b3480156109d957600080fd5b506103426109e8366004612d3c565b6115c0565b3480156109f957600080fd5b507f00000000000000000000000000000000000000000000000000000000000000006103c8565b60006001600160e01b031982166332a2ad4360e11b1480610a5157506001600160e01b03198216630271189760e51b145b80610a6c57506301ffc9a760e01b6001600160e01b03198316145b92915050565b905090565b610a7f6115cb565b610a8881611602565b50565b606060038054610a9a9061375e565b80601f0160208091040260200160405190810160405280929190818152602001828054610ac69061375e565b8015610b135780601f10610ae857610100808354040283529160200191610b13565b820191906000526020600020905b815481529060010190602001808311610af657829003601f168201915b5050505050905090565b600080610b2c8686868661153c565b9050610b4181610b3c6004611698565b6116bb565b506000604051634844252360e11b815260040160405180910390fd5b600080610b6c8686868661153c565b9050610b8c81610b7c6005611698565b610b866004611698565b176116bb565b506000818152600460205260409020805460ff60f01b1916600160f01b17905530610bb43090565b6001600160a01b031614610c465760005b8651811015610c4457306001600160a01b0316878281518110610bea57610bea613798565b60200260200101516001600160a01b031603610c3457610c34858281518110610c1557610c15613798565b60200260200101518051906020012060056116fa90919063ffffffff16565b610c3d816137c4565b9050610bc5565b505b610c53818787878761176b565b6040518181527f712ae1383f79ac853f8d882153778e0260ef8f03b504e2866e0593e04d2b291f906020015b60405180910390a195945050505050565b6000610a7260085465ffffffffffff1690565b6000818152600460205260408120805460ff600160f01b8204811691600160f81b9004168115610cd857506007949350505050565b8015610ce957506002949350505050565b600085815260046020526040812054600160a01b900465ffffffffffff16905080600003610d3257604051636ad0607560e01b8152600481018790526024015b60405180910390fd5b6000610d3c6113bf565b65ffffffffffff169050808210610d5a575060009695505050505050565b6000610d6588611479565b9050818110610d7c57506001979650505050505050565b610d858861184b565b1580610da557506000888152600960205260409020805460019091015411155b15610db857506003979650505050505050565b60008881526004602052604090206001015465ffffffffffff16600003610de757506004979650505050505050565b506005979650505050505050565b600080610e048686868661153c565b9050610e1481610b3c6000611698565b506000818152600460205260409020546001600160a01b03163314610e4e5760405163233d98e360e01b8152336004820152602401610d29565b610e5a8686868661189d565b9695505050505050565b60607f00000000000000000000000000000000000000000000000000000000000000006001600160a01b0316634bf5d7e96040518163ffffffff1660e01b8152600401600060405180830381865afa925050508015610ee557506040513d6000823e601f3d908101601f19168201604052610ee291908101906137dd565b60015b610f21575060408051808201909152601d81527f6d6f64653d626c6f636b6e756d6265722666726f6d3d64656661756c74000000602082015290565b919050565b600080339050610f4784828560405180602001604052806000815250611966565b949350505050565b6000806110328761102c7f3e83946653575f9a39005e1545185629e92736b7528ab20ca3816f315424a8118c8c8c610fa48e6001600160a01b0316600090815260026020526040902080546001810190915590565b8d8d604051610fb492919061384b565b60405180910390208c805190602001206040516020016110119796959493929190968752602087019590955260ff9390931660408601526001600160a01b03919091166060850152608084015260a083015260c082015260e00190565b60405160208183030381529060405280519060200120611992565b856119bf565b90508061105d576040516394ab6c0760e01b81526001600160a01b0388166004820152602401610d29565b6110a189888a89898080601f0160208091040260200160405190810160405280939291908181526020018383808284376000920191909152508b9250611a17915050565b9998505050505050505050565b6000803390506110f887828888888080601f0160208091040260200160405190810160405280939291908181526020018383808284376000920191909152508a9250611a17915050565b979650505050505050565b600a8054600091829061111760018461385b565b8154811061112757611127613798565b6000918252602090912001805490915065ffffffffffff811690600160301b90046001600160d01b031685821161116a576001600160d01b031695945050505050565b61117e61117687611b09565b600a90611b40565b6001600160d01b03169695505050505050565b6111996115cb565b610a8881611bf5565b600080339050610e5a86828787878080601f01602080910402602001604051908101604052809392919081815260200183838082843760009201919091525061196692505050565b6000336111f78184611c5b565b61121f5760405163d9b3955760e01b81526001600160a01b0382166004820152602401610d29565b600061124682600161122f6113bf565b611239919061386e565b65ffffffffffff16611587565b9050600061125261146e565b90508082101561128e57604051636121770b60e11b81526001600160a01b03841660048201526024810183905260448101829052606401610d29565b61129b8888888887611d71565b98975050505050505050565b6000606080600080600060606112bb611fb5565b6112c3611fe2565b60408051600080825260208201909252600f60f81b9b939a50919850469750309650945092509050565b6000806113798461102c7ff2aad550cf55f045cb27e9c559f9889fdfb6e6cdaa032301d6ea397784ae51d78989896113428b6001600160a01b0316600090815260026020526040902080546001810190915590565b60408051602081019690965285019390935260ff90911660608401526001600160a01b0316608083015260a082015260c001611011565b9050806113a4576040516394ab6c0760e01b81526001600160a01b0385166004820152602401610d29565b610e5a86858760405180602001604052806000815250611966565b60007f00000000000000000000000000000000000000000000000000000000000000006001600160a01b03166391ddadf46040518163ffffffff1660e01b8152600401602060405180830381865afa92505050801561143b575060408051601f3d908101601f1916820190925261143891810190613894565b60015b610f2157610a7261200f565b6000610f4784848461201a565b6000611460600a6120b0565b6001600160d01b0316905090565b6000610a7260075490565b6000818152600460205260408120546114ae90600160d01b810463ffffffff1690600160a01b900465ffffffffffff166138b1565b65ffffffffffff1692915050565b6114c46115cb565b600080856001600160a01b03168585856040516114e292919061384b565b60006040518083038185875af1925050503d806000811461151f576040519150601f19603f3d011682016040523d82523d6000602084013e611524565b606091505b509150915061153382826120e9565b50505050505050565b600084848484604051602001611555949392919061395e565b60408051601f19818403018152919052805160209091012095945050505050565b61157e6115cb565b610a8881612105565b60006115a883836115a360408051602081019091526000815290565b61201a565b9392505050565b6115b76115cb565b610a88816121a3565b6000610a6c826121e4565b3033146115ed576040516347096e4760e01b8152336004820152602401610d29565b565b806115fa600561228e565b036115ef5750565b60648082111561162f5760405163243e544560e01b81526004810183905260248101829052604401610d29565b6000611639611454565b90506116586116466113bf565b61164f8561230c565b600a9190612340565b505060408051828152602081018590527f0553476bf02ef2726e8ce5ced78d63e26e602e4a2257b1f559418e24b4633997910160405180910390a1505050565b60008160078111156116ac576116ac613100565b600160ff919091161b92915050565b6000806116c784610ca3565b90506000836116d583611698565b16036115a8578381846040516331b75e4d60e01b8152600401610d29939291906139a9565b81546001600160801b03600160801b82048116918116600183019091160361173557604051638acb5f2760e01b815260040160405180910390fd5b6001600160801b03808216600090815260018086016020526040909120939093558354919092018216600160801b029116179055565b60005b84518110156118435760008086838151811061178c5761178c613798565b60200260200101516001600160a01b03168684815181106117af576117af613798565b60200260200101518685815181106117c9576117c9613798565b60200260200101516040516117de91906139cb565b60006040518083038185875af1925050503d806000811461181b576040519150601f19603f3d011682016040523d82523d6000602084013e611820565b606091505b509150915061182f82826120e9565b5050508061183c906137c4565b905061176e565b505050505050565b60008181526009602052604081206002810154600182015461186d91906139e7565b60008481526004602052604090205461189490600160a01b900465ffffffffffff166115c0565b11159392505050565b6000806118ac8686868661153c565b90506118fa816118bc6007611698565b6118c66006611698565b6118d06002611698565b60016118dd6007826139fa565b6118e8906002613af7565b6118f2919061385b565b1818186116bb565b506000818152600460205260409081902080547effffffffffffffffffffffffffffffffffffffffffffffffffffffffffffff16600160f81b179055517f789cf55be980739dad1d0699b93b58e806b51c9d96619bfa8fe0a28abaa7b30c90610c7f9083815260200190565b60006119898585858561198460408051602081019091526000815290565b611a17565b95945050505050565b6000610a6c61199f61235b565b8360405161190160f01b8152600281019290925260228201526042902090565b60008060006119ce8585612486565b50909250905060008160038111156119e8576119e8613100565b148015611a065750856001600160a01b0316826001600160a01b0316145b80610e5a5750610e5a8686866124d3565b6000611a2786610b3c6001611698565b50600086815260046020526040812054611a52908790600160a01b900465ffffffffffff168561201a565b9050611a6187878784876125c3565b8251600003611ab657856001600160a01b03167fb8e138887d0aa13bab447e82de9d5c1777041ecd21ca36ba824ff1e6c07ddda488878488604051611aa99493929190613b06565b60405180910390a2610e5a565b856001600160a01b03167fe2babfbac5889a709b63bb7f598b324e08bc5a4fb9ec647fb3cbc9ec07eb87128887848888604051611af7959493929190613b2e565b60405180910390a29695505050505050565b600065ffffffffffff821115611b3c576040516306dfcc6560e41b81526030600482015260248101839052604401610d29565b5090565b815460009081816005811115611b9f576000611b5b846126bc565b611b65908561385b565b60008881526020902090915081015465ffffffffffff9081169087161015611b8f57809150611b9d565b611b9a8160016139e7565b92505b505b6000611bad878785856127a4565b90508015611be857611bd287611bc460018461385b565b600091825260209091200190565b54600160301b90046001600160d01b03166110f8565b6000979650505050505050565b6008546040805165ffffffffffff928316815291831660208301527fc565b045403dc03c2eea82b81a0465edad9e2e7fc4d97e11421c209da93d7a93910160405180910390a16008805465ffffffffffff191665ffffffffffff92909216919091179055565b80516000906034811015611c73576001915050610a6c565b828101601319015173ffffffffffffffffffffffffffffffffffffffff1981166b046e0e4dee0dee6cae47a60f60a31b14611cb357600192505050610a6c565b600080611cc160288561385b565b90505b83811015611d5057600080611d10888481518110611ce457611ce4613798565b01602001517fff0000000000000000000000000000000000000000000000000000000000000016612806565b9150915081611d285760019650505050505050610a6c565b8060ff166004856001600160a01b0316901b179350505080611d49906137c4565b9050611cc4565b50856001600160a01b0316816001600160a01b031614935050505092915050565b6000611d86868686868051906020012061153c565b905084518651141580611d9b57508351865114155b80611da557508551155b15611dda57855184518651604051630447b05d60e41b8152600481019390935260248301919091526044820152606401610d29565b600081815260046020526040902054600160a01b900465ffffffffffff1615611e255780611e0782610ca3565b6040516331b75e4d60e01b8152610d299291906000906004016139a9565b6000611e2f610c90565b611e376113bf565b65ffffffffffff16611e4991906139e7565b90506000611e6460085463ffffffff600160301b9091041690565b6000848152600460205260409020805473ffffffffffffffffffffffffffffffffffffffff19166001600160a01b038716178155909150611ea483611b09565b815465ffffffffffff91909116600160a01b027fffffffffffff000000000000ffffffffffffffffffffffffffffffffffffffff909116178155611ee782612898565b815463ffffffff91909116600160d01b0263ffffffff60d01b1990911617815588517f7d84a6263ae0d98d3329bd7b46bb4e8d6f98cd35a7adb45c274c8b7fd5ebd5e090859087908c908c9067ffffffffffffffff811115611f4b57611f4b612dcf565b604051908082528060200260200182016040528015611f7e57816020015b6060815260200190600190039081611f695790505b508c89611f8b8a826139e7565b8e604051611fa199989796959493929190613b68565b60405180910390a150505095945050505050565b6060610a727f000000000000000000000000000000000000000000000000000000000000000060006128c9565b6060610a727f000000000000000000000000000000000000000000000000000000000000000060016128c9565b6000610a7243611b09565b60007f0000000000000000000000000000000000000000000000000000000000000000604051630748d63560e31b81526001600160a01b038681166004830152602482018690529190911690633a46b1a890604401602060405180830381865afa15801561208c573d6000803e3d6000fd5b505050506040513d601f19601f82011682018060405250810190610f479190613c40565b805460009080156120e0576120ca83611bc460018461385b565b54600160301b90046001600160d01b03166115a8565b60009392505050565b6060826120fe576120f982612974565b610a6c565b5080610a6c565b8063ffffffff1660000361212f5760405163f1cfbf0560e01b815260006004820152602401610d29565b6008546040805163ffffffff600160301b9093048316815291831660208301527f7e3f7f0708a84de9203036abaa450dccc85ad5ff52f78c170f3edb55cf5e8828910160405180910390a16008805463ffffffff909216600160301b0269ffffffff00000000000019909216919091179055565b60075460408051918252602082018390527fccb45da8d5717e6c4544694297c4ba5cf151d455c9bb0ed4fc7a38411bc05461910160405180910390a1600755565b600060646121f183611103565b604051632394e7a360e21b8152600481018590526001600160a01b037f00000000000000000000000000000000000000000000000000000000000000001690638e539e8c90602401602060405180830381865afa158015612256573d6000803e3d6000fd5b505050506040513d601f19601f8201168201806040525081019061227a9190613c40565b6122849190613c59565b610a6c9190613c86565b80546000906001600160801b0380821691600160801b90041681036122c6576040516375e52f4f60e01b815260040160405180910390fd5b6001600160801b038181166000908152600185810160205260408220805492905585546fffffffffffffffffffffffffffffffff19169301909116919091179092555090565b60006001600160d01b03821115611b3c576040516306dfcc6560e41b815260d0600482015260248101839052604401610d29565b60008061234e85858561299d565b915091505b935093915050565b6000306001600160a01b037f0000000000000000000000000000000000000000000000000000000000000000161480156123b457507f000000000000000000000000000000000000000000000000000000000000000046145b156123de57507f000000000000000000000000000000000000000000000000000000000000000090565b610a72604080517f8b73c3c69bb8fe3d512ecc4cf759cc79239f7b179b0ffacaa9a75d522b39400f60208201527f0000000000000000000000000000000000000000000000000000000000000000918101919091527f000000000000000000000000000000000000000000000000000000000000000060608201524660808201523060a082015260009060c00160405160208183030381529060405280519060200120905090565b600080600083516041036124c05760208401516040850151606086015160001a6124b288828585612b17565b9550955095505050506124cc565b50508151600091506002905b9250925092565b6000806000856001600160a01b031685856040516024016124f5929190613ca8565b60408051601f198184030181529181526020820180517bffffffffffffffffffffffffffffffffffffffffffffffffffffffff16630b135d3f60e11b1790525161253f91906139cb565b600060405180830381855afa9150503d806000811461257a576040519150601f19603f3d011682016040523d82523d6000602084013e61257f565b606091505b509150915081801561259357506020815110155b8015610e5a57508051630b135d3f60e11b906125b89083016020908101908401613c40565b149695505050505050565b60008581526009602090815260408083206001600160a01b0388168452600381019092529091205460ff1615612617576040516371c6af4960e01b81526001600160a01b0386166004820152602401610d29565b6001600160a01b03851660009081526003820160205260409020805460ff1916600117905560ff8416612663578281600001600082825461265891906139e7565b909155506118439050565b60001960ff851601612683578281600101600082825461265891906139e7565b60011960ff8516016126a3578281600201600082825461265891906139e7565b6040516303599be160e11b815260040160405180910390fd5b6000816000036126ce57506000919050565b600060016126db84612be6565b901c6001901b905060018184816126f4576126f4613c70565b048201901c9050600181848161270c5761270c613c70565b048201901c9050600181848161272457612724613c70565b048201901c9050600181848161273c5761273c613c70565b048201901c9050600181848161275457612754613c70565b048201901c9050600181848161276c5761276c613c70565b048201901c9050600181848161278457612784613c70565b048201901c90506115a88182858161279e5761279e613c70565b04612c7a565b60005b818310156127fe5760006127bb8484612c90565b60008781526020902090915065ffffffffffff86169082015465ffffffffffff1611156127ea578092506127f8565b6127f58160016139e7565b93505b506127a7565b509392505050565b60008060f883901c602f811180156128215750603a8160ff16105b1561283657600194602f199091019350915050565b8060ff16604010801561284c575060478160ff16105b15612861576001946036199091019350915050565b8060ff166060108015612877575060678160ff16105b1561288c576001946056199091019350915050565b50600093849350915050565b600063ffffffff821115611b3c576040516306dfcc6560e41b81526020600482015260248101839052604401610d29565b606060ff83146128e3576128dc83612cab565b9050610a6c565b8180546128ef9061375e565b80601f016020809104026020016040519081016040528092919081815260200182805461291b9061375e565b80156129685780601f1061293d57610100808354040283529160200191612968565b820191906000526020600020905b81548152906001019060200180831161294b57829003601f168201915b50505050509050610a6c565b8051156129845780518082602001fd5b604051630a12f52160e11b815260040160405180910390fd5b825460009081908015612abc5760006129bb87611bc460018561385b565b60408051808201909152905465ffffffffffff808216808452600160301b9092046001600160d01b031660208401529192509087161015612a0f57604051632520601d60e01b815260040160405180910390fd5b805165ffffffffffff808816911603612a5b5784612a3288611bc460018661385b565b80546001600160d01b0392909216600160301b0265ffffffffffff909216919091179055612aac565b6040805180820190915265ffffffffffff80881682526001600160d01b0380881660208085019182528b54600181018d5560008d81529190912094519151909216600160301b029216919091179101555b6020015192508391506123539050565b50506040805180820190915265ffffffffffff80851682526001600160d01b0380851660208085019182528854600181018a5560008a815291822095519251909316600160301b029190931617920191909155905081612353565b600080807f7fffffffffffffffffffffffffffffff5d576e7357a4501ddfe92f46681b20a0841115612b525750600091506003905082612bdc565b604080516000808252602082018084528a905260ff891692820192909252606081018790526080810186905260019060a0016020604051602081039080840390855afa158015612ba6573d6000803e3d6000fd5b5050604051601f1901519150506001600160a01b038116612bd257506000925060019150829050612bdc565b9250600091508190505b9450945094915050565b600080608083901c15612bfb57608092831c92015b604083901c15612c0d57604092831c92015b602083901c15612c1f57602092831c92015b601083901c15612c3157601092831c92015b600883901c15612c4357600892831c92015b600483901c15612c5557600492831c92015b600283901c15612c6757600292831c92015b600183901c15610a6c5760010192915050565b6000818310612c8957816115a8565b5090919050565b6000612c9f6002848418613c86565b6115a8908484166139e7565b60606000612cb883612cea565b604080516020808252818301909252919250600091906020820181803683375050509182525060208101929092525090565b600060ff8216601f811115610a6c57604051632cd44ac360e21b815260040160405180910390fd5b600060208284031215612d2457600080fd5b81356001600160e01b0319811681146115a857600080fd5b600060208284031215612d4e57600080fd5b5035919050565b60005b83811015612d70578181015183820152602001612d58565b50506000910152565b60008151808452612d91816020860160208601612d55565b601f01601f19169290920160200192915050565b6020815260006115a86020830184612d79565b80356001600160a01b0381168114610f2157600080fd5b634e487b7160e01b600052604160045260246000fd5b604051601f8201601f1916810167ffffffffffffffff81118282101715612e0e57612e0e612dcf565b604052919050565b600067ffffffffffffffff821115612e3057612e30612dcf565b50601f01601f191660200190565b6000612e51612e4c84612e16565b612de5565b9050828152838383011115612e6557600080fd5b828260208301376000602084830101529392505050565b600082601f830112612e8d57600080fd5b6115a883833560208501612e3e565b60008060008060808587031215612eb257600080fd5b612ebb85612db8565b9350612ec960208601612db8565b925060408501359150606085013567ffffffffffffffff811115612eec57600080fd5b612ef887828801612e7c565b91505092959194509250565b600067ffffffffffffffff821115612f1e57612f1e612dcf565b5060051b60200190565b600082601f830112612f3957600080fd5b81356020612f49612e4c83612f04565b82815260059290921b84018101918181019086841115612f6857600080fd5b8286015b84811015612f8a57612f7d81612db8565b8352918301918301612f6c565b509695505050505050565b600082601f830112612fa657600080fd5b81356020612fb6612e4c83612f04565b82815260059290921b84018101918181019086841115612fd557600080fd5b8286015b84811015612f8a5780358352918301918301612fd9565b600082601f83011261300157600080fd5b81356020613011612e4c83612f04565b82815260059290921b8401810191818101908684111561303057600080fd5b8286015b84811015612f8a57803567ffffffffffffffff8111156130545760008081fd5b6130628986838b0101612e7c565b845250918301918301613034565b6000806000806080858703121561308657600080fd5b843567ffffffffffffffff8082111561309e57600080fd5b6130aa88838901612f28565b955060208701359150808211156130c057600080fd5b6130cc88838901612f95565b945060408701359150808211156130e257600080fd5b506130ef87828801612ff0565b949793965093946060013593505050565b634e487b7160e01b600052602160045260246000fd5b6008811061313457634e487b7160e01b600052602160045260246000fd5b9052565b60208101610a6c8284613116565b6000806040838503121561315957600080fd5b8235915061316960208401612db8565b90509250929050565b803560ff81168114610f2157600080fd5b6000806040838503121561319657600080fd5b8235915061316960208401613172565b60008083601f8401126131b857600080fd5b50813567ffffffffffffffff8111156131d057600080fd5b6020830191508360208285010111156131e857600080fd5b9250929050565b600080600080600080600060c0888a03121561320a57600080fd5b8735965061321a60208901613172565b955061322860408901612db8565b9450606088013567ffffffffffffffff8082111561324557600080fd5b6132518b838c016131a6565b909650945060808a013591508082111561326a57600080fd5b6132768b838c01612e7c565b935060a08a013591508082111561328c57600080fd5b506132998a828b01612e7c565b91505092959891949750929550565b6000806000806000608086880312156132c057600080fd5b853594506132d060208701613172565b9350604086013567ffffffffffffffff808211156132ed57600080fd5b6132f989838a016131a6565b9095509350606088013591508082111561331257600080fd5b5061331f88828901612e7c565b9150509295509295909350565b65ffffffffffff81168114610a8857600080fd5b60006020828403121561335257600080fd5b81356115a88161332c565b6000806000806060858703121561337357600080fd5b8435935061338360208601613172565b9250604085013567ffffffffffffffff81111561339f57600080fd5b6133ab878288016131a6565b95989497509550505050565b600080600080608085870312156133cd57600080fd5b843567ffffffffffffffff808211156133e557600080fd5b6133f188838901612f28565b9550602087013591508082111561340757600080fd5b61341388838901612f95565b9450604087013591508082111561342957600080fd5b61343588838901612ff0565b9350606087013591508082111561344b57600080fd5b508501601f8101871361345d57600080fd5b612ef887823560208401612e3e565b60006020828403121561347e57600080fd5b6115a882612db8565b600081518084526020808501945080840160005b838110156134b75781518752958201959082019060010161349b565b509495945050505050565b60ff60f81b8816815260e0602082015260006134e160e0830189612d79565b82810360408401526134f38189612d79565b90508660608401526001600160a01b03861660808401528460a084015282810360c08401526135228185613487565b9a9950505050505050505050565b6000806000806080858703121561354657600080fd5b8435935061355660208601613172565b925061356460408601612db8565b9150606085013567ffffffffffffffff811115612eec57600080fd5b60008060006060848603121561359557600080fd5b61359e84612db8565b925060208401359150604084013567ffffffffffffffff8111156135c157600080fd5b6135cd86828701612e7c565b9150509250925092565b600080600080600060a086880312156135ef57600080fd5b6135f886612db8565b945061360660208701612db8565b9350604086013567ffffffffffffffff8082111561362357600080fd5b61362f89838a01612f95565b9450606088013591508082111561364557600080fd5b61365189838a01612f95565b9350608088013591508082111561331257600080fd5b6000806000806060858703121561367d57600080fd5b61368685612db8565b935060208501359250604085013567ffffffffffffffff81111561339f57600080fd5b6000602082840312156136bb57600080fd5b813563ffffffff811681146115a857600080fd5b600080604083850312156136e257600080fd5b6136eb83612db8565b946020939093013593505050565b600080600080600060a0868803121561371157600080fd5b61371a86612db8565b945061372860208701612db8565b93506040860135925060608601359150608086013567ffffffffffffffff81111561375257600080fd5b61331f88828901612e7c565b600181811c9082168061377257607f821691505b60208210810361379257634e487b7160e01b600052602260045260246000fd5b50919050565b634e487b7160e01b600052603260045260246000fd5b634e487b7160e01b600052601160045260246000fd5b6000600182016137d6576137d66137ae565b5060010190565b6000602082840312156137ef57600080fd5b815167ffffffffffffffff81111561380657600080fd5b8201601f8101841361381757600080fd5b8051613825612e4c82612e16565b81815285602083850101111561383a57600080fd5b611989826020830160208601612d55565b8183823760009101908152919050565b81810381811115610a6c57610a6c6137ae565b65ffffffffffff82811682821603908082111561388d5761388d6137ae565b5092915050565b6000602082840312156138a657600080fd5b81516115a88161332c565b65ffffffffffff81811683821601908082111561388d5761388d6137ae565b600081518084526020808501945080840160005b838110156134b75781516001600160a01b0316875295820195908201906001016138e4565b600081518084526020808501808196508360051b8101915082860160005b8581101561395157828403895261393f848351612d79565b98850198935090840190600101613927565b5091979650505050505050565b60808152600061397160808301876138d0565b82810360208401526139838187613487565b905082810360408401526139978186613909565b91505082606083015295945050505050565b838152606081016139bd6020830185613116565b826040830152949350505050565b600082516139dd818460208701612d55565b9190910192915050565b80820180821115610a6c57610a6c6137ae565b60ff8181168382160190811115610a6c57610a6c6137ae565b600181815b80851115613a4e578160001904821115613a3457613a346137ae565b80851615613a4157918102915b93841c9390800290613a18565b509250929050565b600082613a6557506001610a6c565b81613a7257506000610a6c565b8160018114613a885760028114613a9257613aae565b6001915050610a6c565b60ff841115613aa357613aa36137ae565b50506001821b610a6c565b5060208310610133831016604e8410600b8410161715613ad1575081810a610a6c565b613adb8383613a13565b8060001904821115613aef57613aef6137ae565b029392505050565b60006115a860ff841683613a56565b84815260ff84166020820152826040820152608060608201526000610e5a6080830184612d79565b85815260ff8516602082015283604082015260a060608201526000613b5660a0830185612d79565b828103608084015261129b8185612d79565b60006101208b835260206001600160a01b038c1681850152816040850152613b928285018c6138d0565b91508382036060850152613ba6828b613487565b915083820360808501528189518084528284019150828160051b850101838c0160005b83811015613bf757601f19878403018552613be5838351612d79565b94860194925090850190600101613bc9565b505086810360a0880152613c0b818c613909565b9450505050508560c08401528460e0840152828103610100840152613c308185612d79565b9c9b505050505050505050505050565b600060208284031215613c5257600080fd5b5051919050565b8082028115828204841417610a6c57610a6c6137ae565b634e487b7160e01b600052601260045260246000fd5b600082613ca357634e487b7160e01b600052601260045260246000fd5b500490565b828152604060208201526000610f476040830184612d7956fea26469706673582212206de6304465aa71ed696df9960f64b4461eb5fa7c65234b0d2358b25c5bbabcae64736f6c63430008140033",
  "linkReferences": {},
  "deployedLinkReferences": {}
}