{
  "_format": "hh-sol-artifact-1",
  "contractName": "ERC1155Mock",
  "sourceName": "contracts/erc-1155/ERC1155Mock.sol",
  "abi": [
    {
      "inputs": [
        {
          "internalType": "string",
          "name": "uri",
          "type": "string"
        }
      ],
      "stateMutability": "nonpayable",
      "type": "constructor"
    },
    {
      "anonymous": false,
      "inputs": [
        {
          "indexed": true,
          "internalType": "address",
          "name": "account",
          "type": "address"
        },
        {
          "indexed": true,
          "internalType": "address",
          "name": "operator",
          "type": "address"
        },
        {
          "indexed": false,
          "internalType": "bool",
          "name": "approved",
          "type": "bool"
        }
      ],
      "name": "ApprovalForAll",
      "type": "event"
    },
    {
      "anonymous": false,
      "inputs": [
        {
          "indexed": true,
          "internalType": "address",
          "name": "operator",
          "type": "address"
        },
        {
          "indexed": true,
          "internalType": "address",
          "name": "from",
          "type": "address"
        },
        {
          "indexed": true,
          "internalType": "address",
          "name": "to",
          "type": "address"
        },
        {
          "indexed": false,
          "internalType": "uint256[]",
          "name": "ids",
          "type": "uint256[]"
        },
        {
          "indexed": false,
          "internalType": "uint256[]",
          "name": "values",
          "type": "uint256[]"
        }
      ],
      "name": "TransferBatch",
      "type": "event"
    },
    {
      "anonymous": false,
      "inputs": [
        {
          "indexed": true,
          "internalType": "address",
          "name": "operator",
          "type": "address"
        },
        {
          "indexed": true,
          "internalType": "address",
          "name": "from",
          "type": "address"
        },
        {
          "indexed": true,
          "internalType": "address",
          "name": "to",
          "type": "address"
        },
        {
          "indexed": false,
          "internalType": "uint256",
          "name": "id",
          "type": "uint256"
        },
        {
          "indexed": false,
          "internalType": "uint256",
          "name": "value",
          "type": "uint256"
        }
      ],
      "name": "TransferSingle",
      "type": "event"
    },
    {
      "anonymous": false,
      "inputs": [
        {
          "indexed": false,
          "internalType": "string",
          "name": "value",
          "type": "string"
        },
        {
          "indexed": true,
          "internalType": "uint256",
          "name": "id",
          "type": "uint256"
        }
      ],
      "name": "URI",
      "type": "event"
    },
    {
      "inputs": [
        {
          "internalType": "address",
          "name": "account",
          "type": "address"
        },
        {
          "internalType": "uint256",
          "name": "id",
          "type": "uint256"
        }
      ],
      "name": "balanceOf",
      "outputs": [
        {
          "internalType": "uint256",
          "name": "",
          "type": "uint256"
        }
      ],
      "stateMutability": "view",
      "type": "function"
    },
    {
      "inputs": [
        {
          "internalType": "address[]",
          "name": "accounts",
          "type": "address[]"
        },
        {
          "internalType": "uint256[]",
          "name": "ids",
          "type": "uint256[]"
        }
      ],
      "name": "balanceOfBatch",
      "outputs": [
        {
          "internalType": "uint256[]",
          "name": "",
          "type": "uint256[]"
        }
      ],
      "stateMutability": "view",
      "type": "function"
    },
    {
      "inputs": [
        {
          "internalType": "address",
          "name": "account",
          "type": "address"
        },
        {
          "internalType": "address",
          "name": "operator",
          "type": "address"
        }
      ],
      "name": "isApprovedForAll",
      "outputs": [
        {
          "internalType": "bool",
          "name": "",
          "type": "bool"
        }
      ],
      "stateMutability": "view",
      "type": "function"
    },
    {
      "inputs": [
        {
          "internalType": "address",
          "name": "to",
          "type": "address"
        },
        {
          "internalType": "uint256",
          "name": "id",
          "type": "uint256"
        },
        {
          "internalType": "uint256",
          "name": "amount",
          "type": "uint256"
        },
        {
          "internalType": "bytes",
          "name": "data",
          "type": "bytes"
        }
      ],
      "name": "mint",
      "outputs": [],
      "stateMutability": "nonpayable",
      "type": "function"
    },
    {
      "inputs": [
        {
          "internalType": "address",
          "name": "to",
          "type": "address"
        },
        {
          "internalType": "uint256[]",
          "name": "id",
          "type": "uint256[]"
        },
        {
          "internalType": "uint256[]",
          "name": "amount",
          "type": "uint256[]"
        },
        {
          "internalType": "bytes",
          "name": "data",
          "type": "bytes"
        }
      ],
      "name": "mintBatch",
      "outputs": [],
      "stateMutability": "nonpayable",
      "type": "function"
    },
    {
      "inputs": [
        {
          "internalType": "address",
          "name": "from",
          "type": "address"
        },
        {
          "internalType": "address",
          "name": "to",
          "type": "address"
        },
        {
          "internalType": "uint256[]",
          "name": "ids",
          "type": "uint256[]"
        },
        {
          "internalType": "uint256[]",
          "name": "amounts",
          "type": "uint256[]"
        },
        {
          "internalType": "bytes",
          "name": "data",
          "type": "bytes"
        }
      ],
      "name": "safeBatchTransferFrom",
      "outputs": [],
      "stateMutability": "nonpayable",
      "type": "function"
    },
    {
      "inputs": [
        {
          "internalType": "address",
          "name": "from",
          "type": "address"
        },
        {
          "internalType": "address",
          "name": "to",
          "type": "address"
        },
        {
          "internalType": "uint256",
          "name": "id",
          "type": "uint256"
        },
        {
          "internalType": "uint256",
          "name": "amount",
          "type": "uint256"
        },
        {
          "internalType": "bytes",
          "name": "data",
          "type": "bytes"
        }
      ],
      "name": "safeTransferFrom",
      "outputs": [],
      "stateMutability": "nonpayable",
      "type": "function"
    },
    {
      "inputs": [
        {
          "internalType": "address",
          "name": "operator",
          "type": "address"
        },
        {
          "internalType": "bool",
          "name": "approved",
          "type": "bool"
        }
      ],
      "name": "setApprovalForAll",
      "outputs": [],
      "stateMutability": "nonpayable",
      "type": "function"
    },
    {
      "inputs": [
        {
          "internalType": "bytes4",
          "name": "interfaceId",
          "type": "bytes4"
        }
      ],
      "name": "supportsInterface",
      "outputs": [
        {
          "internalType": "bool",
          "name": "",
          "type": "bool"
        }
      ],
      "stateMutability": "view",
      "type": "function"
    },
    {
      "inputs": [
        {
          "internalType": "uint256",
          "name": "",
          "type": "uint256"
        }
      ],
      "name": "uri",
      "outputs": [
        {
          "internalType": "string",
          "name": "",
          "type": "string"
        }
      ],
      "stateMutability": "view",
      "type": "function"
    }
  ],
  "bytecode": "0x608060405234801562000010575f80fd5b5060405162001ab638038062001ab683398101604081905262000033916200006d565b806200003f8162000047565b50506200028f565b6002620000558282620001c7565b5050565b634e487b7160e01b5f52604160045260245ffd5b5f60208083850312156200007f575f80fd5b82516001600160401b038082111562000096575f80fd5b818501915085601f830112620000aa575f80fd5b815181811115620000bf57620000bf62000059565b604051601f8201601f19908116603f01168101908382118183101715620000ea57620000ea62000059565b81604052828152888684870101111562000102575f80fd5b5f93505b8284101562000125578484018601518185018701529285019262000106565b5f86848301015280965050505050505092915050565b600181811c908216806200015057607f821691505b6020821081036200016f57634e487b7160e01b5f52602260045260245ffd5b50919050565b601f821115620001c2575f81815260208120601f850160051c810160208610156200019d5750805b601f850160051c820191505b81811015620001be57828155600101620001a9565b5050505b505050565b81516001600160401b03811115620001e357620001e362000059565b620001fb81620001f484546200013b565b8462000175565b602080601f83116001811462000231575f8415620002195750858301515b5f19600386901b1c1916600185901b178555620001be565b5f85815260208120601f198616915b82811015620002615788860151825594840194600190910190840162000240565b50858210156200027f57878501515f19600388901b60f8161c191681555b5050505050600190811b01905550565b611819806200029d5f395ff3fe608060405234801561000f575f80fd5b506004361061009a575f3560e01c80634e1273f4116100635780634e1273f41461012f578063731133e91461014f578063a22cb46514610162578063e985e9c514610175578063f242432a146101b0575f80fd5b8062fdd58e1461009e57806301ffc9a7146100c45780630e89341c146100e75780631f7fdffa146101075780632eb2c2d61461011c575b5f80fd5b6100b16100ac36600461105e565b6101c3565b6040519081526020015b60405180910390f35b6100d76100d236600461109e565b61025a565b60405190151581526020016100bb565b6100fa6100f53660046110c0565b6102a9565b6040516100bb919061111a565b61011a61011536600461126e565b61033b565b005b61011a61012a366004611301565b61034d565b61014261013d3660046113a4565b6103e0565b6040516100bb91906114a2565b61011a61015d3660046114b4565b610508565b61011a610170366004611505565b610514565b6100d761018336600461153e565b6001600160a01b039182165f90815260016020908152604080832093909416825291909152205460ff1690565b61011a6101be36600461156f565b610523565b5f6001600160a01b0383166102325760405162461bcd60e51b815260206004820152602a60248201527f455243313135353a2061646472657373207a65726f206973206e6f742061207660448201526930b634b21037bbb732b960b11b60648201526084015b60405180910390fd5b505f818152602081815260408083206001600160a01b03861684529091529020545b92915050565b5f6001600160e01b03198216636cdb3d1360e11b148061028a57506001600160e01b031982166303a24d0760e21b145b8061025457506301ffc9a760e01b6001600160e01b0319831614610254565b6060600280546102b8906115cf565b80601f01602080910402602001604051908101604052809291908181526020018280546102e4906115cf565b801561032f5780601f106103065761010080835404028352916020019161032f565b820191905f5260205f20905b81548152906001019060200180831161031257829003601f168201915b50505050509050919050565b610347848484846105af565b50505050565b6001600160a01b03851633148061036957506103698533610183565b6103cc5760405162461bcd60e51b815260206004820152602e60248201527f455243313135353a2063616c6c6572206973206e6f7420746f6b656e206f776e60448201526d195c881bdc88185c1c1c9bdd995960921b6064820152608401610229565b6103d9858585858561076d565b5050505050565b606081518351146104455760405162461bcd60e51b815260206004820152602960248201527f455243313135353a206163636f756e747320616e6420696473206c656e677468604482015268040dad2e6dac2e8c6d60bb1b6064820152608401610229565b5f835167ffffffffffffffff8111156104605761046061112c565b604051908082528060200260200182016040528015610489578160200160208202803683370190505b5090505f5b8451811015610500576104d38582815181106104ac576104ac611607565b60200260200101518583815181106104c6576104c6611607565b60200260200101516101c3565b8282815181106104e5576104e5611607565b60209081029190910101526104f98161162f565b905061048e565b509392505050565b610347848484846109c6565b61051f338383610ad5565b5050565b6001600160a01b03851633148061053f575061053f8533610183565b6105a25760405162461bcd60e51b815260206004820152602e60248201527f455243313135353a2063616c6c6572206973206e6f7420746f6b656e206f776e60448201526d195c881bdc88185c1c1c9bdd995960921b6064820152608401610229565b6103d98585858585610bb4565b6001600160a01b03841661060f5760405162461bcd60e51b815260206004820152602160248201527f455243313135353a206d696e7420746f20746865207a65726f206164647265736044820152607360f81b6064820152608401610229565b81518351146106715760405162461bcd60e51b815260206004820152602860248201527f455243313135353a2069647320616e6420616d6f756e7473206c656e677468206044820152670dad2e6dac2e8c6d60c31b6064820152608401610229565b335f5b84518110156107075783818151811061068f5761068f611607565b60200260200101515f808784815181106106ab576106ab611607565b602002602001015181526020019081526020015f205f886001600160a01b03166001600160a01b031681526020019081526020015f205f8282546106ef9190611647565b909155508190506106ff8161162f565b915050610674565b50846001600160a01b03165f6001600160a01b0316826001600160a01b03167f4a39dc06d4c0dbc64b70af90fd698a233a518aa5d07e595d983b8c0526c8f7fb878760405161075792919061165a565b60405180910390a46103d9815f87878787610d5b565b81518351146107cf5760405162461bcd60e51b815260206004820152602860248201527f455243313135353a2069647320616e6420616d6f756e7473206c656e677468206044820152670dad2e6dac2e8c6d60c31b6064820152608401610229565b6001600160a01b0384166108335760405162461bcd60e51b815260206004820152602560248201527f455243313135353a207472616e7366657220746f20746865207a65726f206164604482015264647265737360d81b6064820152608401610229565b335f5b8451811015610958575f85828151811061085257610852611607565b602002602001015190505f85838151811061086f5761086f611607565b6020908102919091018101515f84815280835260408082206001600160a01b038e1683529093529190912054909150818110156109015760405162461bcd60e51b815260206004820152602a60248201527f455243313135353a20696e73756666696369656e742062616c616e636520666f60448201526939103a3930b739b332b960b11b6064820152608401610229565b5f838152602081815260408083206001600160a01b038e8116855292528083208585039055908b1682528120805484929061093d908490611647565b92505081905550505050806109519061162f565b9050610836565b50846001600160a01b0316866001600160a01b0316826001600160a01b03167f4a39dc06d4c0dbc64b70af90fd698a233a518aa5d07e595d983b8c0526c8f7fb87876040516109a892919061165a565b60405180910390a46109be818787878787610d5b565b505050505050565b6001600160a01b038416610a265760405162461bcd60e51b815260206004820152602160248201527f455243313135353a206d696e7420746f20746865207a65726f206164647265736044820152607360f81b6064820152608401610229565b335f610a3185610eff565b90505f610a3d85610eff565b90505f868152602081815260408083206001600160a01b038b16845290915281208054879290610a6e908490611647565b909155505060408051878152602081018790526001600160a01b03808a16925f92918716917fc3d58168c5ae7397731d063d5bbf3d657854427343f4c083240f7aacaa2d0f62910160405180910390a4610acc835f89898989610f48565b50505050505050565b816001600160a01b0316836001600160a01b031603610b485760405162461bcd60e51b815260206004820152602960248201527f455243313135353a2073657474696e6720617070726f76616c20737461747573604482015268103337b91039b2b63360b91b6064820152608401610229565b6001600160a01b038381165f81815260016020908152604080832094871680845294825291829020805460ff191686151590811790915591519182527f17307eab39ab6107e8899845ad3d59bd9653f200f220920489ca2b5937696c31910160405180910390a3505050565b6001600160a01b038416610c185760405162461bcd60e51b815260206004820152602560248201527f455243313135353a207472616e7366657220746f20746865207a65726f206164604482015264647265737360d81b6064820152608401610229565b335f610c2385610eff565b90505f610c2f85610eff565b90505f868152602081815260408083206001600160a01b038c16845290915290205485811015610cb45760405162461bcd60e51b815260206004820152602a60248201527f455243313135353a20696e73756666696369656e742062616c616e636520666f60448201526939103a3930b739b332b960b11b6064820152608401610229565b5f878152602081815260408083206001600160a01b038d8116855292528083208985039055908a16825281208054889290610cf0908490611647565b909155505060408051888152602081018890526001600160a01b03808b16928c821692918816917fc3d58168c5ae7397731d063d5bbf3d657854427343f4c083240f7aacaa2d0f62910160405180910390a4610d50848a8a8a8a8a610f48565b505050505050505050565b6001600160a01b0384163b156109be5760405163bc197c8160e01b81526001600160a01b0385169063bc197c8190610d9f9089908990889088908890600401611687565b6020604051808303815f875af1925050508015610dd9575060408051601f3d908101601f19168201909252610dd6918101906116e4565b60015b610e8e57610de56116ff565b806308c379a003610e1e5750610df9611718565b80610e045750610e20565b8060405162461bcd60e51b8152600401610229919061111a565b505b60405162461bcd60e51b815260206004820152603460248201527f455243313135353a207472616e7366657220746f206e6f6e2d4552433131353560448201527f526563656976657220696d706c656d656e7465720000000000000000000000006064820152608401610229565b6001600160e01b0319811663bc197c8160e01b14610acc5760405162461bcd60e51b815260206004820152602860248201527f455243313135353a204552433131353552656365697665722072656a656374656044820152676420746f6b656e7360c01b6064820152608401610229565b6040805160018082528183019092526060915f91906020808301908036833701905050905082815f81518110610f3757610f37611607565b602090810291909101015292915050565b6001600160a01b0384163b156109be5760405163f23a6e6160e01b81526001600160a01b0385169063f23a6e6190610f8c90899089908890889088906004016117a1565b6020604051808303815f875af1925050508015610fc6575060408051601f3d908101601f19168201909252610fc3918101906116e4565b60015b610fd257610de56116ff565b6001600160e01b0319811663f23a6e6160e01b14610acc5760405162461bcd60e51b815260206004820152602860248201527f455243313135353a204552433131353552656365697665722072656a656374656044820152676420746f6b656e7360c01b6064820152608401610229565b80356001600160a01b0381168114611059575f80fd5b919050565b5f806040838503121561106f575f80fd5b61107883611043565b946020939093013593505050565b6001600160e01b03198116811461109b575f80fd5b50565b5f602082840312156110ae575f80fd5b81356110b981611086565b9392505050565b5f602082840312156110d0575f80fd5b5035919050565b5f81518084525f5b818110156110fb576020818501810151868301820152016110df565b505f602082860101526020601f19601f83011685010191505092915050565b602081525f6110b960208301846110d7565b634e487b7160e01b5f52604160045260245ffd5b601f8201601f1916810167ffffffffffffffff811182821017156111665761116661112c565b6040525050565b5f67ffffffffffffffff8211156111865761118661112c565b5060051b60200190565b5f82601f83011261119f575f80fd5b813560206111ac8261116d565b6040516111b98282611140565b83815260059390931b85018201928281019150868411156111d8575f80fd5b8286015b848110156111f357803583529183019183016111dc565b509695505050505050565b5f82601f83011261120d575f80fd5b813567ffffffffffffffff8111156112275761122761112c565b60405161123e601f8301601f191660200182611140565b818152846020838601011115611252575f80fd5b816020850160208301375f918101602001919091529392505050565b5f805f8060808587031215611281575f80fd5b61128a85611043565b9350602085013567ffffffffffffffff808211156112a6575f80fd5b6112b288838901611190565b945060408701359150808211156112c7575f80fd5b6112d388838901611190565b935060608701359150808211156112e8575f80fd5b506112f5878288016111fe565b91505092959194509250565b5f805f805f60a08688031215611315575f80fd5b61131e86611043565b945061132c60208701611043565b9350604086013567ffffffffffffffff80821115611348575f80fd5b61135489838a01611190565b94506060880135915080821115611369575f80fd5b61137589838a01611190565b9350608088013591508082111561138a575f80fd5b50611397888289016111fe565b9150509295509295909350565b5f80604083850312156113b5575f80fd5b823567ffffffffffffffff808211156113cc575f80fd5b818501915085601f8301126113df575f80fd5b813560206113ec8261116d565b6040516113f98282611140565b83815260059390931b8501820192828101915089841115611418575f80fd5b948201945b8386101561143d5761142e86611043565b8252948201949082019061141d565b96505086013592505080821115611452575f80fd5b5061145f85828601611190565b9150509250929050565b5f8151808452602080850194508084015f5b838110156114975781518752958201959082019060010161147b565b509495945050505050565b602081525f6110b96020830184611469565b5f805f80608085870312156114c7575f80fd5b6114d085611043565b93506020850135925060408501359150606085013567ffffffffffffffff8111156114f9575f80fd5b6112f5878288016111fe565b5f8060408385031215611516575f80fd5b61151f83611043565b915060208301358015158114611533575f80fd5b809150509250929050565b5f806040838503121561154f575f80fd5b61155883611043565b915061156660208401611043565b90509250929050565b5f805f805f60a08688031215611583575f80fd5b61158c86611043565b945061159a60208701611043565b93506040860135925060608601359150608086013567ffffffffffffffff8111156115c3575f80fd5b611397888289016111fe565b600181811c908216806115e357607f821691505b60208210810361160157634e487b7160e01b5f52602260045260245ffd5b50919050565b634e487b7160e01b5f52603260045260245ffd5b634e487b7160e01b5f52601160045260245ffd5b5f600182016116405761164061161b565b5060010190565b808201808211156102545761025461161b565b604081525f61166c6040830185611469565b828103602084015261167e8185611469565b95945050505050565b5f6001600160a01b03808816835280871660208401525060a060408301526116b260a0830186611469565b82810360608401526116c48186611469565b905082810360808401526116d881856110d7565b98975050505050505050565b5f602082840312156116f4575f80fd5b81516110b981611086565b5f60033d11156117155760045f803e505f5160e01c5b90565b5f60443d10156117255790565b6040516003193d81016004833e81513d67ffffffffffffffff816024840111818411171561175557505050505090565b828501915081518181111561176d5750505050505090565b843d87010160208285010111156117875750505050505090565b61179660208286010187611140565b509095945050505050565b5f6001600160a01b03808816835280871660208401525084604083015283606083015260a060808301526117d860a08301846110d7565b97965050505050505056fea264697066735822122064bb8858fd6b5b48275d2138418fb8f7c784dc961c655f2dea1c08228a4f582164736f6c63430008140033",
  "linkReferences": {},
  "deployedLinkReferences": {}
}