{
  "_format": "hh-sol-artifact-1",
  "contractName": "LogicContractV2",
  "sourceName": "contracts/openzeppelin/beacon-proxy/LogicContractV2.sol",
  "abi": [
    {
      "inputs": [
        {
          "internalType": "uint256",
          "name": "_value",
          "type": "uint256"
        }
      ],
      "stateMutability": "nonpayable",
      "type": "constructor"
    },
    {
      "anonymous": false,
      "inputs": [
        {
          "indexed": false,
          "internalType": "uint256",
          "name": "squaredValue",
          "type": "uint256"
        }
      ],
      "name": "Squared",
      "type": "event"
    },
    {
      "anonymous": false,
      "inputs": [
        {
          "indexed": false,
          "internalType": "uint256",
          "name": "value",
          "type": "uint256"
        }
      ],
      "name": "Value",
      "type": "event"
    },
    {
      "anonymous": false,
      "inputs": [
        {
          "indexed": false,
          "internalType": "uint256",
          "name": "newValue",
          "type": "uint256"
        }
      ],
      "name": "ValueChanged",
      "type": "event"
    },
    {
      "inputs": [],
      "name": "retrieve",
      "outputs": [
        {
          "internalType": "uint256",
          "name": "",
          "type": "uint256"
        }
      ],
      "stateMutability": "nonpayable",
      "type": "function"
    },
    {
      "inputs": [
        {
          "internalType": "uint256",
          "name": "_input",
          "type": "uint256"
        }
      ],
      "name": "square",
      "outputs": [
        {
          "internalType": "uint256",
          "name": "",
          "type": "uint256"
        }
      ],
      "stateMutability": "nonpayable",
      "type": "function"
    },
    {
      "inputs": [
        {
          "internalType": "uint256",
          "name": "_newValue",
          "type": "uint256"
        }
      ],
      "name": "store",
      "outputs": [],
      "stateMutability": "nonpayable",
      "type": "function"
    }
  ],
  "bytecode": "0x608060405234801561001057600080fd5b5060405161022838038061022883398101604081905261002f91610037565b600055610050565b60006020828403121561004957600080fd5b5051919050565b6101c98061005f6000396000f3fe608060405234801561001057600080fd5b50600436106100415760003560e01c80632e64cec1146100465780636057361d146100605780637b29290914610075575b600080fd5b61004e610088565b60405190815260200160405180910390f35b61007361006e366004610155565b6100cc565b005b61004e610083366004610155565b610107565b60007f2a27502c345a4cd966daa061d5537f54cd60d2d20b73680b3bf195c91e806a4b6000546040516100bd91815260200190565b60405180910390a15060005490565b60008190556040518181527f93fe6d397c74fdf1402a8b72e47b68512f0510d7b98a4bc4cbdf6ac7108b3c599060200160405180910390a150565b60007fea14d4893872191a028c318d4e480b9683b2e5a8626d2e0f87d8f39cf0b5a9ca610134838061016e565b60405190815260200160405180910390a161014f828061016e565b92915050565b60006020828403121561016757600080fd5b5035919050565b808202811582820484141761014f57634e487b7160e01b600052601160045260246000fdfea26469706673582212206ab3fb652b98e7feed8fcdfc5eacb450fbdf6229d4574b510933259bf3a1495e64736f6c63430008170033",
  "linkReferences": {},
  "deployedLinkReferences": {}
}