{
  "_format": "hh-sol-artifact-1",
  "contractName": "Modifiers",
  "sourceName": "contracts/solidity/modifiers/Modifiers.sol",
  "abi": [
    {
      "inputs": [
        {
          "internalType": "uint256",
          "name": "_initialData",
          "type": "uint256"
        }
      ],
      "stateMutability": "nonpayable",
      "type": "constructor"
    },
    {
      "anonymous": true,
      "inputs": [
        {
          "indexed": true,
          "internalType": "address",
          "name": "sender",
          "type": "address"
        },
        {
          "indexed": false,
          "internalType": "uint256",
          "name": "value",
          "type": "uint256"
        }
      ],
      "name": "AnonymousEvent",
      "type": "event"
    },
    {
      "anonymous": false,
      "inputs": [
        {
          "indexed": true,
          "internalType": "address",
          "name": "from",
          "type": "address"
        },
        {
          "indexed": true,
          "internalType": "address",
          "name": "to",
          "type": "address"
        },
        {
          "indexed": false,
          "internalType": "uint256",
          "name": "value",
          "type": "uint256"
        },
        {
          "indexed": false,
          "internalType": "string",
          "name": "message",
          "type": "string"
        }
      ],
      "name": "RegularEvent",
      "type": "event"
    },
    {
      "inputs": [],
      "name": "MAX_SUPPLY",
      "outputs": [
        {
          "internalType": "uint256",
          "name": "",
          "type": "uint256"
        }
      ],
      "stateMutability": "view",
      "type": "function"
    },
    {
      "inputs": [
        {
          "internalType": "uint256",
          "name": "a",
          "type": "uint256"
        },
        {
          "internalType": "uint256",
          "name": "b",
          "type": "uint256"
        }
      ],
      "name": "addPure",
      "outputs": [
        {
          "internalType": "uint256",
          "name": "",
          "type": "uint256"
        }
      ],
      "stateMutability": "pure",
      "type": "function"
    },
    {
      "inputs": [],
      "name": "data",
      "outputs": [
        {
          "internalType": "uint256",
          "name": "",
          "type": "uint256"
        }
      ],
      "stateMutability": "view",
      "type": "function"
    },
    {
      "inputs": [],
      "name": "deploymentTimestamp",
      "outputs": [
        {
          "internalType": "uint256",
          "name": "",
          "type": "uint256"
        }
      ],
      "stateMutability": "view",
      "type": "function"
    },
    {
      "inputs": [],
      "name": "getBalance",
      "outputs": [
        {
          "internalType": "uint256",
          "name": "",
          "type": "uint256"
        }
      ],
      "stateMutability": "view",
      "type": "function"
    },
    {
      "inputs": [],
      "name": "getData",
      "outputs": [
        {
          "internalType": "uint256",
          "name": "",
          "type": "uint256"
        }
      ],
      "stateMutability": "view",
      "type": "function"
    },
    {
      "inputs": [],
      "name": "makePayment",
      "outputs": [],
      "stateMutability": "payable",
      "type": "function"
    },
    {
      "inputs": [],
      "name": "owner",
      "outputs": [
        {
          "internalType": "address",
          "name": "",
          "type": "address"
        }
      ],
      "stateMutability": "view",
      "type": "function"
    },
    {
      "inputs": [],
      "name": "show",
      "outputs": [
        {
          "internalType": "string",
          "name": "",
          "type": "string"
        }
      ],
      "stateMutability": "nonpayable",
      "type": "function"
    },
    {
      "inputs": [
        {
          "internalType": "uint256",
          "name": "_value",
          "type": "uint256"
        }
      ],
      "name": "triggerAnonymousEvent",
      "outputs": [],
      "stateMutability": "nonpayable",
      "type": "function"
    },
    {
      "inputs": [
        {
          "internalType": "address",
          "name": "_to",
          "type": "address"
        },
        {
          "internalType": "uint256",
          "name": "_value",
          "type": "uint256"
        },
        {
          "internalType": "string",
          "name": "_message",
          "type": "string"
        }
      ],
      "name": "triggerRegularEvent",
      "outputs": [],
      "stateMutability": "nonpayable",
      "type": "function"
    }
  ],
  "bytecode": "0x60a060405234801561001057600080fd5b506040516105af3803806105af83398101604081905261002f9161004d565b600055600180546001600160a01b0319163317905542608052610066565b60006020828403121561005f57600080fd5b5051919050565b60805161052e61008160003960006101c1015261052e6000f3fe6080604052600436106100ac5760003560e01c806373d4a13a11610074578063bfc12c051161004e578063bfc12c05146101af578063cc80f6f3146101e3578063d8d797001461020557600080fd5b806373d4a13a146101415780638da5cb5b14610157578063bc69a5311461018f57600080fd5b806312065fe0146100b157806332cb6b0c146100d3578063368cc017146100ea5780633bc5de301461010c578063459dc56c14610121575b600080fd5b3480156100bd57600080fd5b50475b6040519081526020015b60405180910390f35b3480156100df57600080fd5b506100c0620f424081565b3480156100f657600080fd5b5061010a610105366004610326565b61020d565b005b34801561011857600080fd5b506000546100c0565b34801561012d57600080fd5b506100c061013c3660046103ff565b61025f565b34801561014d57600080fd5b506100c060005481565b34801561016357600080fd5b50600154610177906001600160a01b031681565b6040516001600160a01b0390911681526020016100ca565b34801561019b57600080fd5b5061010a6101aa366004610421565b610274565b3480156101bb57600080fd5b506100c07f000000000000000000000000000000000000000000000000000000000000000081565b3480156101ef57600080fd5b506101f861028a565b6040516100ca9190610480565b61010a6102aa565b826001600160a01b0316336001600160a01b03167f8c60167d897b78b9b14f6c3d117a0084825fb576f33802e8bf4c7dc632c0b7428484604051610252929190610493565b60405180910390a3505050565b600061026b82846104b4565b90505b92915050565b604051818152339060200160405180910390a150565b60606040518060600160405280602381526020016104d660239139905090565b6000341161030e5760405162461bcd60e51b815260206004820152602760248201527f5061796d656e7420616d6f756e742073686f756c6420626520677265617465726044820152660207468616e20360cc1b606482015260840160405180910390fd5b565b634e487b7160e01b600052604160045260246000fd5b60008060006060848603121561033b57600080fd5b83356001600160a01b038116811461035257600080fd5b925060208401359150604084013567ffffffffffffffff8082111561037657600080fd5b818601915086601f83011261038a57600080fd5b81358181111561039c5761039c610310565b604051601f8201601f19908116603f011681019083821181831017156103c4576103c4610310565b816040528281528960208487010111156103dd57600080fd5b8260208601602083013760006020848301015280955050505050509250925092565b6000806040838503121561041257600080fd5b50508035926020909101359150565b60006020828403121561043357600080fd5b5035919050565b6000815180845260005b8181101561046057602081850181015186830182015201610444565b506000602082860101526020601f19601f83011685010191505092915050565b60208152600061026b602083018461043a565b8281526040602082015260006104ac604083018461043a565b949350505050565b8082018082111561026e57634e487b7160e01b600052601160045260246000fdfe54686973206973207468652062617365204d6f6469666965727320636f6e7472616374a2646970667358221220cf915b04a6edca3524f60bdc486cbdbcec5d8b87be4b7993cb91fabed4a7102e64736f6c63430008170033",
  "linkReferences": {},
  "deployedLinkReferences": {}
}