{
  "_format": "hh-sol-artifact-1",
  "contractName": "ERC1155Token",
  "sourceName": "contracts/openzeppelin/ERC-1155/ERC1155Token.sol",
  "abi": [
    {
      "inputs": [
        {
          "internalType": "string",
          "name": "_tokenUri",
          "type": "string"
        }
      ],
      "stateMutability": "nonpayable",
      "type": "constructor"
    },
    {
      "inputs": [
        {
          "internalType": "address",
          "name": "sender",
          "type": "address"
        },
        {
          "internalType": "uint256",
          "name": "balance",
          "type": "uint256"
        },
        {
          "internalType": "uint256",
          "name": "needed",
          "type": "uint256"
        },
        {
          "internalType": "uint256",
          "name": "tokenId",
          "type": "uint256"
        }
      ],
      "name": "ERC1155InsufficientBalance",
      "type": "error"
    },
    {
      "inputs": [
        {
          "internalType": "address",
          "name": "approver",
          "type": "address"
        }
      ],
      "name": "ERC1155InvalidApprover",
      "type": "error"
    },
    {
      "inputs": [
        {
          "internalType": "uint256",
          "name": "idsLength",
          "type": "uint256"
        },
        {
          "internalType": "uint256",
          "name": "valuesLength",
          "type": "uint256"
        }
      ],
      "name": "ERC1155InvalidArrayLength",
      "type": "error"
    },
    {
      "inputs": [
        {
          "internalType": "address",
          "name": "operator",
          "type": "address"
        }
      ],
      "name": "ERC1155InvalidOperator",
      "type": "error"
    },
    {
      "inputs": [
        {
          "internalType": "address",
          "name": "receiver",
          "type": "address"
        }
      ],
      "name": "ERC1155InvalidReceiver",
      "type": "error"
    },
    {
      "inputs": [
        {
          "internalType": "address",
          "name": "sender",
          "type": "address"
        }
      ],
      "name": "ERC1155InvalidSender",
      "type": "error"
    },
    {
      "inputs": [
        {
          "internalType": "address",
          "name": "operator",
          "type": "address"
        },
        {
          "internalType": "address",
          "name": "owner",
          "type": "address"
        }
      ],
      "name": "ERC1155MissingApprovalForAll",
      "type": "error"
    },
    {
      "inputs": [
        {
          "internalType": "address",
          "name": "owner",
          "type": "address"
        }
      ],
      "name": "OwnableInvalidOwner",
      "type": "error"
    },
    {
      "inputs": [
        {
          "internalType": "address",
          "name": "account",
          "type": "address"
        }
      ],
      "name": "OwnableUnauthorizedAccount",
      "type": "error"
    },
    {
      "anonymous": false,
      "inputs": [
        {
          "indexed": true,
          "internalType": "address",
          "name": "account",
          "type": "address"
        },
        {
          "indexed": true,
          "internalType": "address",
          "name": "operator",
          "type": "address"
        },
        {
          "indexed": false,
          "internalType": "bool",
          "name": "approved",
          "type": "bool"
        }
      ],
      "name": "ApprovalForAll",
      "type": "event"
    },
    {
      "anonymous": false,
      "inputs": [
        {
          "indexed": false,
          "internalType": "address",
          "name": "account",
          "type": "address"
        },
        {
          "indexed": false,
          "internalType": "uint256",
          "name": "id",
          "type": "uint256"
        },
        {
          "indexed": false,
          "internalType": "uint256",
          "name": "amount",
          "type": "uint256"
        },
        {
          "indexed": false,
          "internalType": "bytes",
          "name": "data",
          "type": "bytes"
        }
      ],
      "name": "Minted",
      "type": "event"
    },
    {
      "anonymous": false,
      "inputs": [
        {
          "indexed": false,
          "internalType": "address",
          "name": "to",
          "type": "address"
        },
        {
          "indexed": false,
          "internalType": "uint256[]",
          "name": "ids",
          "type": "uint256[]"
        },
        {
          "indexed": false,
          "internalType": "uint256[]",
          "name": "amounts",
          "type": "uint256[]"
        },
        {
          "indexed": false,
          "internalType": "bytes",
          "name": "data",
          "type": "bytes"
        }
      ],
      "name": "MintedBatch",
      "type": "event"
    },
    {
      "anonymous": false,
      "inputs": [
        {
          "indexed": true,
          "internalType": "address",
          "name": "previousOwner",
          "type": "address"
        },
        {
          "indexed": true,
          "internalType": "address",
          "name": "newOwner",
          "type": "address"
        }
      ],
      "name": "OwnershipTransferred",
      "type": "event"
    },
    {
      "anonymous": false,
      "inputs": [
        {
          "indexed": true,
          "internalType": "address",
          "name": "operator",
          "type": "address"
        },
        {
          "indexed": true,
          "internalType": "address",
          "name": "from",
          "type": "address"
        },
        {
          "indexed": true,
          "internalType": "address",
          "name": "to",
          "type": "address"
        },
        {
          "indexed": false,
          "internalType": "uint256[]",
          "name": "ids",
          "type": "uint256[]"
        },
        {
          "indexed": false,
          "internalType": "uint256[]",
          "name": "values",
          "type": "uint256[]"
        }
      ],
      "name": "TransferBatch",
      "type": "event"
    },
    {
      "anonymous": false,
      "inputs": [
        {
          "indexed": true,
          "internalType": "address",
          "name": "operator",
          "type": "address"
        },
        {
          "indexed": true,
          "internalType": "address",
          "name": "from",
          "type": "address"
        },
        {
          "indexed": true,
          "internalType": "address",
          "name": "to",
          "type": "address"
        },
        {
          "indexed": false,
          "internalType": "uint256",
          "name": "id",
          "type": "uint256"
        },
        {
          "indexed": false,
          "internalType": "uint256",
          "name": "value",
          "type": "uint256"
        }
      ],
      "name": "TransferSingle",
      "type": "event"
    },
    {
      "anonymous": false,
      "inputs": [
        {
          "indexed": false,
          "internalType": "string",
          "name": "value",
          "type": "string"
        },
        {
          "indexed": true,
          "internalType": "uint256",
          "name": "id",
          "type": "uint256"
        }
      ],
      "name": "URI",
      "type": "event"
    },
    {
      "inputs": [
        {
          "internalType": "address",
          "name": "account",
          "type": "address"
        },
        {
          "internalType": "uint256",
          "name": "id",
          "type": "uint256"
        }
      ],
      "name": "balanceOf",
      "outputs": [
        {
          "internalType": "uint256",
          "name": "",
          "type": "uint256"
        }
      ],
      "stateMutability": "view",
      "type": "function"
    },
    {
      "inputs": [
        {
          "internalType": "address[]",
          "name": "accounts",
          "type": "address[]"
        },
        {
          "internalType": "uint256[]",
          "name": "ids",
          "type": "uint256[]"
        }
      ],
      "name": "balanceOfBatch",
      "outputs": [
        {
          "internalType": "uint256[]",
          "name": "",
          "type": "uint256[]"
        }
      ],
      "stateMutability": "view",
      "type": "function"
    },
    {
      "inputs": [
        {
          "internalType": "address",
          "name": "account",
          "type": "address"
        },
        {
          "internalType": "uint256",
          "name": "id",
          "type": "uint256"
        },
        {
          "internalType": "uint256",
          "name": "value",
          "type": "uint256"
        }
      ],
      "name": "burn",
      "outputs": [],
      "stateMutability": "nonpayable",
      "type": "function"
    },
    {
      "inputs": [
        {
          "internalType": "address",
          "name": "account",
          "type": "address"
        },
        {
          "internalType": "uint256[]",
          "name": "ids",
          "type": "uint256[]"
        },
        {
          "internalType": "uint256[]",
          "name": "values",
          "type": "uint256[]"
        }
      ],
      "name": "burnBatch",
      "outputs": [],
      "stateMutability": "nonpayable",
      "type": "function"
    },
    {
      "inputs": [
        {
          "internalType": "uint256",
          "name": "id",
          "type": "uint256"
        }
      ],
      "name": "exists",
      "outputs": [
        {
          "internalType": "bool",
          "name": "",
          "type": "bool"
        }
      ],
      "stateMutability": "view",
      "type": "function"
    },
    {
      "inputs": [
        {
          "internalType": "address",
          "name": "account",
          "type": "address"
        },
        {
          "internalType": "address",
          "name": "operator",
          "type": "address"
        }
      ],
      "name": "isApprovedForAll",
      "outputs": [
        {
          "internalType": "bool",
          "name": "",
          "type": "bool"
        }
      ],
      "stateMutability": "view",
      "type": "function"
    },
    {
      "inputs": [
        {
          "internalType": "address",
          "name": "account",
          "type": "address"
        },
        {
          "internalType": "uint256",
          "name": "id",
          "type": "uint256"
        },
        {
          "internalType": "uint256",
          "name": "amount",
          "type": "uint256"
        },
        {
          "internalType": "bytes",
          "name": "data",
          "type": "bytes"
        }
      ],
      "name": "mint",
      "outputs": [],
      "stateMutability": "nonpayable",
      "type": "function"
    },
    {
      "inputs": [
        {
          "internalType": "address",
          "name": "to",
          "type": "address"
        },
        {
          "internalType": "uint256[]",
          "name": "ids",
          "type": "uint256[]"
        },
        {
          "internalType": "uint256[]",
          "name": "amounts",
          "type": "uint256[]"
        },
        {
          "internalType": "bytes",
          "name": "data",
          "type": "bytes"
        }
      ],
      "name": "mintBatch",
      "outputs": [],
      "stateMutability": "nonpayable",
      "type": "function"
    },
    {
      "inputs": [],
      "name": "owner",
      "outputs": [
        {
          "internalType": "address",
          "name": "",
          "type": "address"
        }
      ],
      "stateMutability": "view",
      "type": "function"
    },
    {
      "inputs": [],
      "name": "renounceOwnership",
      "outputs": [],
      "stateMutability": "nonpayable",
      "type": "function"
    },
    {
      "inputs": [
        {
          "internalType": "address",
          "name": "from",
          "type": "address"
        },
        {
          "internalType": "address",
          "name": "to",
          "type": "address"
        },
        {
          "internalType": "uint256[]",
          "name": "ids",
          "type": "uint256[]"
        },
        {
          "internalType": "uint256[]",
          "name": "values",
          "type": "uint256[]"
        },
        {
          "internalType": "bytes",
          "name": "data",
          "type": "bytes"
        }
      ],
      "name": "safeBatchTransferFrom",
      "outputs": [],
      "stateMutability": "nonpayable",
      "type": "function"
    },
    {
      "inputs": [
        {
          "internalType": "address",
          "name": "from",
          "type": "address"
        },
        {
          "internalType": "address",
          "name": "to",
          "type": "address"
        },
        {
          "internalType": "uint256",
          "name": "id",
          "type": "uint256"
        },
        {
          "internalType": "uint256",
          "name": "value",
          "type": "uint256"
        },
        {
          "internalType": "bytes",
          "name": "data",
          "type": "bytes"
        }
      ],
      "name": "safeTransferFrom",
      "outputs": [],
      "stateMutability": "nonpayable",
      "type": "function"
    },
    {
      "inputs": [
        {
          "internalType": "address",
          "name": "operator",
          "type": "address"
        },
        {
          "internalType": "bool",
          "name": "approved",
          "type": "bool"
        }
      ],
      "name": "setApprovalForAll",
      "outputs": [],
      "stateMutability": "nonpayable",
      "type": "function"
    },
    {
      "inputs": [
        {
          "internalType": "string",
          "name": "newuri",
          "type": "string"
        }
      ],
      "name": "setURI",
      "outputs": [],
      "stateMutability": "nonpayable",
      "type": "function"
    },
    {
      "inputs": [
        {
          "internalType": "bytes4",
          "name": "interfaceId",
          "type": "bytes4"
        }
      ],
      "name": "supportsInterface",
      "outputs": [
        {
          "internalType": "bool",
          "name": "",
          "type": "bool"
        }
      ],
      "stateMutability": "view",
      "type": "function"
    },
    {
      "inputs": [],
      "name": "totalSupply",
      "outputs": [
        {
          "internalType": "uint256",
          "name": "",
          "type": "uint256"
        }
      ],
      "stateMutability": "view",
      "type": "function"
    },
    {
      "inputs": [
        {
          "internalType": "uint256",
          "name": "id",
          "type": "uint256"
        }
      ],
      "name": "totalSupply",
      "outputs": [
        {
          "internalType": "uint256",
          "name": "",
          "type": "uint256"
        }
      ],
      "stateMutability": "view",
      "type": "function"
    },
    {
      "inputs": [
        {
          "internalType": "address",
          "name": "newOwner",
          "type": "address"
        }
      ],
      "name": "transferOwnership",
      "outputs": [],
      "stateMutability": "nonpayable",
      "type": "function"
    },
    {
      "inputs": [
        {
          "internalType": "uint256",
          "name": "",
          "type": "uint256"
        }
      ],
      "name": "uri",
      "outputs": [
        {
          "internalType": "string",
          "name": "",
          "type": "string"
        }
      ],
      "stateMutability": "view",
      "type": "function"
    }
  ],
  "bytecode": "0x60806040523480156200001157600080fd5b5060405162001e2a38038062001e2a8339810160408190526200003491620000fe565b3381620000418162000084565b506001600160a01b0381166200007157604051631e4fbdf760e01b81526000600482015260240160405180910390fd5b6200007c8162000096565b50506200032e565b600262000092828262000262565b5050565b600380546001600160a01b038381166001600160a01b0319831681179093556040519116919082907f8be0079c531659141344cd1fd0a4f28419497f9722a3daafe3b4186f6b6457e090600090a35050565b634e487b7160e01b600052604160045260246000fd5b600060208083850312156200011257600080fd5b82516001600160401b03808211156200012a57600080fd5b818501915085601f8301126200013f57600080fd5b815181811115620001545762000154620000e8565b604051601f8201601f19908116603f011681019083821181831017156200017f576200017f620000e8565b8160405282815288868487010111156200019857600080fd5b600093505b82841015620001bc57848401860151818501870152928501926200019d565b600086848301015280965050505050505092915050565b600181811c90821680620001e857607f821691505b6020821081036200020957634e487b7160e01b600052602260045260246000fd5b50919050565b601f8211156200025d57600081815260208120601f850160051c81016020861015620002385750805b601f850160051c820191505b81811015620002595782815560010162000244565b5050505b505050565b81516001600160401b038111156200027e576200027e620000e8565b62000296816200028f8454620001d3565b846200020f565b602080601f831160018114620002ce5760008415620002b55750858301515b600019600386901b1c1916600185901b17855562000259565b600085815260208120601f198616915b82811015620002ff57888601518255948401946001909101908401620002de565b50858210156200031e5787850151600019600388901b60f8161c191681555b5050505050600190811b01905550565b611aec806200033e6000396000f3fe608060405234801561001057600080fd5b50600436106101205760003560e01c80636b20c454116100ad578063bd85b03911610071578063bd85b0391461026f578063e985e9c51461028f578063f242432a146102cb578063f2fde38b146102de578063f5298aca146102f157600080fd5b80636b20c45414610213578063715018a614610226578063731133e91461022e5780638da5cb5b14610241578063a22cb4651461025c57600080fd5b806318160ddd116100f457806318160ddd146101a35780631f7fdffa146101ab5780632eb2c2d6146101be5780634e1273f4146101d15780634f558e79146101f157600080fd5b8062fdd58e1461012557806301ffc9a71461014b57806302fe53051461016e5780630e89341c14610183575b600080fd5b610138610133366004611101565b610304565b6040519081526020015b60405180910390f35b61015e610159366004611141565b61032c565b6040519015158152602001610142565b61018161017c366004611204565b61037c565b005b610196610191366004611255565b610390565b60405161014291906112b4565b600554610138565b6101816101b9366004611376565b610424565b6101816101cc36600461140f565b61047b565b6101e46101df3660046114b9565b610506565b60405161014291906115b4565b61015e6101ff366004611255565b600090815260046020526040902054151590565b6101816102213660046115c7565b6105db565b61018161063f565b61018161023c36600461163b565b610653565b6003546040516001600160a01b039091168152602001610142565b61018161026a366004611690565b61069c565b61013861027d366004611255565b60009081526004602052604090205490565b61015e61029d3660046116cc565b6001600160a01b03918216600090815260016020908152604080832093909416825291909152205460ff1690565b6101816102d93660046116ff565b6106ab565b6101816102ec366004611764565b610729565b6101816102ff36600461177f565b610764565b6000818152602081815260408083206001600160a01b03861684529091529020545b92915050565b60006001600160e01b03198216636cdb3d1360e11b148061035d57506001600160e01b031982166303a24d0760e21b145b8061032657506301ffc9a760e01b6001600160e01b0319831614610326565b61038461079a565b61038d816107c7565b50565b60606002805461039f906117b2565b80601f01602080910402602001604051908101604052809291908181526020018280546103cb906117b2565b80156104185780601f106103ed57610100808354040283529160200191610418565b820191906000526020600020905b8154815290600101906020018083116103fb57829003601f168201915b50505050509050919050565b61042c61079a565b610438848484846107d3565b7fc4bffbe62baea258f8f0bcd0c5e5051948e1fbb87c01185e85f57ed7fe5633cc8484848460405161046d94939291906117ec565b60405180910390a150505050565b336001600160a01b03861681148015906104bb57506001600160a01b0380871660009081526001602090815260408083209385168352929052205460ff16155b156104f15760405163711bec9160e11b81526001600160a01b038083166004830152871660248201526044015b60405180910390fd5b6104fe8686868686610811565b505050505050565b606081518351146105375781518351604051635b05999160e01b8152600481019290925260248201526044016104e8565b6000835167ffffffffffffffff81111561055357610553611165565b60405190808252806020026020018201604052801561057c578160200160208202803683370190505b50905060005b84518110156105d3576020808202860101516105a690602080840287010151610304565b8282815181106105b8576105b861183f565b60209081029190910101526105cc8161186b565b9050610582565b509392505050565b6001600160a01b03831633148015906105fb57506105f9833361029d565b155b1561062f57335b60405163711bec9160e11b81526001600160a01b03918216600482015290841660248201526044016104e8565b61063a838383610878565b505050565b61064761079a565b61065160006108be565b565b61065b61079a565b6106678484848461091d565b7f3415a4398115f911eb5f94d5d45050a5586f16a7d86ec8c9f749053d3f48d6618484848460405161046d9493929190611884565b6106a733838361097a565b5050565b336001600160a01b03861681148015906106eb57506001600160a01b0380871660009081526001602090815260408083209385168352929052205460ff16155b1561071c5760405163711bec9160e11b81526001600160a01b038083166004830152871660248201526044016104e8565b6104fe8686868686610a10565b61073161079a565b6001600160a01b03811661075b57604051631e4fbdf760e01b8152600060048201526024016104e8565b61038d816108be565b6001600160a01b03831633148015906107845750610782833361029d565b155b1561078f5733610602565b61063a838383610a9e565b6003546001600160a01b031633146106515760405163118cdaa760e01b81523360048201526024016104e8565b60026106a78282611902565b6001600160a01b0384166107fd57604051632bfa23e760e11b8152600060048201526024016104e8565b61080b600085858585610b02565b50505050565b6001600160a01b03841661083b57604051632bfa23e760e11b8152600060048201526024016104e8565b6001600160a01b03851661086457604051626a0d4560e21b8152600060048201526024016104e8565b6108718585858585610b02565b5050505050565b6001600160a01b0383166108a157604051626a0d4560e21b8152600060048201526024016104e8565b61063a836000848460405180602001604052806000815250610b02565b600380546001600160a01b0383811673ffffffffffffffffffffffffffffffffffffffff19831681179093556040519116919082907f8be0079c531659141344cd1fd0a4f28419497f9722a3daafe3b4186f6b6457e090600090a35050565b6001600160a01b03841661094757604051632bfa23e760e11b8152600060048201526024016104e8565b604080516001808252602082018690528183019081526060820185905260808201909252906104fe600087848487610b02565b6001600160a01b0382166109a35760405162ced3e160e81b8152600060048201526024016104e8565b6001600160a01b03838116600081815260016020908152604080832094871680845294825291829020805460ff191686151590811790915591519182527f17307eab39ab6107e8899845ad3d59bd9653f200f220920489ca2b5937696c31910160405180910390a3505050565b6001600160a01b038416610a3a57604051632bfa23e760e11b8152600060048201526024016104e8565b6001600160a01b038516610a6357604051626a0d4560e21b8152600060048201526024016104e8565b60408051600180825260208201869052818301908152606082018590526080820190925290610a958787848487610b02565b50505050505050565b6001600160a01b038316610ac757604051626a0d4560e21b8152600060048201526024016104e8565b604080516001808252602082018590528183019081526060820184905260a08201909252600060808201818152919291610871918791859085905b610b0e85858585610b55565b6001600160a01b038416156108715782513390600103610b475760208481015190840151610b40838989858589610b61565b50506104fe565b6104fe818787878787610c85565b61080b84848484610d6e565b6001600160a01b0384163b156104fe5760405163f23a6e6160e01b81526001600160a01b0385169063f23a6e6190610ba590899089908890889088906004016119c2565b6020604051808303816000875af1925050508015610be0575060408051601f3d908101601f19168201909252610bdd918101906119fa565b60015b610c49573d808015610c0e576040519150601f19603f3d011682016040523d82523d6000602084013e610c13565b606091505b508051600003610c4157604051632bfa23e760e11b81526001600160a01b03861660048201526024016104e8565b805181602001fd5b6001600160e01b0319811663f23a6e6160e01b14610a9557604051632bfa23e760e11b81526001600160a01b03861660048201526024016104e8565b6001600160a01b0384163b156104fe5760405163bc197c8160e01b81526001600160a01b0385169063bc197c8190610cc99089908990889088908890600401611a17565b6020604051808303816000875af1925050508015610d04575060408051601f3d908101601f19168201909252610d01918101906119fa565b60015b610d32573d808015610c0e576040519150601f19603f3d011682016040523d82523d6000602084013e610c13565b6001600160e01b0319811663bc197c8160e01b14610a9557604051632bfa23e760e11b81526001600160a01b03861660048201526024016104e8565b610d7a84848484610ec8565b6001600160a01b038416610e2d576000805b8351811015610e13576000838281518110610da957610da961183f565b602002602001015190508060046000878581518110610dca57610dca61183f565b602002602001015181526020019081526020016000206000828254610def9190611a75565b90915550610dff90508184611a75565b92505080610e0c9061186b565b9050610d8c565b508060056000828254610e269190611a75565b9091555050505b6001600160a01b03831661080b576000805b8351811015610eb7576000838281518110610e5c57610e5c61183f565b602002602001015190508060046000878581518110610e7d57610e7d61183f565b602002602001015181526020019081526020016000206000828254039250508190555080830192505080610eb09061186b565b9050610e3f565b506005805491909103905550505050565b8051825114610ef75781518151604051635b05999160e01b8152600481019290925260248201526044016104e8565b3360005b8351811015611006576020818102858101820151908501909101516001600160a01b03881615610fae576000828152602081815260408083206001600160a01b038c16845290915290205481811015610f87576040516303dee4c560e01b81526001600160a01b038a1660048201526024810182905260448101839052606481018490526084016104e8565b6000838152602081815260408083206001600160a01b038d16845290915290209082900390555b6001600160a01b03871615610ff3576000828152602081815260408083206001600160a01b038b16845290915281208054839290610fed908490611a75565b90915550505b505080610fff9061186b565b9050610efb565b5082516001036110875760208301516000906020840151909150856001600160a01b0316876001600160a01b0316846001600160a01b03167fc3d58168c5ae7397731d063d5bbf3d657854427343f4c083240f7aacaa2d0f628585604051611078929190918252602082015260400190565b60405180910390a45050610871565b836001600160a01b0316856001600160a01b0316826001600160a01b03167f4a39dc06d4c0dbc64b70af90fd698a233a518aa5d07e595d983b8c0526c8f7fb86866040516110d6929190611a88565b60405180910390a45050505050565b80356001600160a01b03811681146110fc57600080fd5b919050565b6000806040838503121561111457600080fd5b61111d836110e5565b946020939093013593505050565b6001600160e01b03198116811461038d57600080fd5b60006020828403121561115357600080fd5b813561115e8161112b565b9392505050565b634e487b7160e01b600052604160045260246000fd5b604051601f8201601f1916810167ffffffffffffffff811182821017156111a4576111a4611165565b604052919050565b600067ffffffffffffffff8311156111c6576111c6611165565b6111d9601f8401601f191660200161117b565b90508281528383830111156111ed57600080fd5b828260208301376000602084830101529392505050565b60006020828403121561121657600080fd5b813567ffffffffffffffff81111561122d57600080fd5b8201601f8101841361123e57600080fd5b61124d848235602084016111ac565b949350505050565b60006020828403121561126757600080fd5b5035919050565b6000815180845260005b8181101561129457602081850181015186830182015201611278565b506000602082860101526020601f19601f83011685010191505092915050565b60208152600061115e602083018461126e565b600067ffffffffffffffff8211156112e1576112e1611165565b5060051b60200190565b600082601f8301126112fc57600080fd5b8135602061131161130c836112c7565b61117b565b82815260059290921b8401810191818101908684111561133057600080fd5b8286015b8481101561134b5780358352918301918301611334565b509695505050505050565b600082601f83011261136757600080fd5b61115e838335602085016111ac565b6000806000806080858703121561138c57600080fd5b611395856110e5565b9350602085013567ffffffffffffffff808211156113b257600080fd5b6113be888389016112eb565b945060408701359150808211156113d457600080fd5b6113e0888389016112eb565b935060608701359150808211156113f657600080fd5b5061140387828801611356565b91505092959194509250565b600080600080600060a0868803121561142757600080fd5b611430866110e5565b945061143e602087016110e5565b9350604086013567ffffffffffffffff8082111561145b57600080fd5b61146789838a016112eb565b9450606088013591508082111561147d57600080fd5b61148989838a016112eb565b9350608088013591508082111561149f57600080fd5b506114ac88828901611356565b9150509295509295909350565b600080604083850312156114cc57600080fd5b823567ffffffffffffffff808211156114e457600080fd5b818501915085601f8301126114f857600080fd5b8135602061150861130c836112c7565b82815260059290921b8401810191818101908984111561152757600080fd5b948201945b8386101561154c5761153d866110e5565b8252948201949082019061152c565b9650508601359250508082111561156257600080fd5b5061156f858286016112eb565b9150509250929050565b600081518084526020808501945080840160005b838110156115a95781518752958201959082019060010161158d565b509495945050505050565b60208152600061115e6020830184611579565b6000806000606084860312156115dc57600080fd5b6115e5846110e5565b9250602084013567ffffffffffffffff8082111561160257600080fd5b61160e878388016112eb565b9350604086013591508082111561162457600080fd5b50611631868287016112eb565b9150509250925092565b6000806000806080858703121561165157600080fd5b61165a856110e5565b93506020850135925060408501359150606085013567ffffffffffffffff81111561168457600080fd5b61140387828801611356565b600080604083850312156116a357600080fd5b6116ac836110e5565b9150602083013580151581146116c157600080fd5b809150509250929050565b600080604083850312156116df57600080fd5b6116e8836110e5565b91506116f6602084016110e5565b90509250929050565b600080600080600060a0868803121561171757600080fd5b611720866110e5565b945061172e602087016110e5565b93506040860135925060608601359150608086013567ffffffffffffffff81111561175857600080fd5b6114ac88828901611356565b60006020828403121561177657600080fd5b61115e826110e5565b60008060006060848603121561179457600080fd5b61179d846110e5565b95602085013595506040909401359392505050565b600181811c908216806117c657607f821691505b6020821081036117e657634e487b7160e01b600052602260045260246000fd5b50919050565b6001600160a01b038516815260806020820152600061180e6080830186611579565b82810360408401526118208186611579565b90508281036060840152611834818561126e565b979650505050505050565b634e487b7160e01b600052603260045260246000fd5b634e487b7160e01b600052601160045260246000fd5b60006001820161187d5761187d611855565b5060010190565b6001600160a01b03851681528360208201528260408201526080606082015260006118b2608083018461126e565b9695505050505050565b601f82111561063a57600081815260208120601f850160051c810160208610156118e35750805b601f850160051c820191505b818110156104fe578281556001016118ef565b815167ffffffffffffffff81111561191c5761191c611165565b6119308161192a84546117b2565b846118bc565b602080601f831160018114611965576000841561194d5750858301515b600019600386901b1c1916600185901b1785556104fe565b600085815260208120601f198616915b8281101561199457888601518255948401946001909101908401611975565b50858210156119b25787850151600019600388901b60f8161c191681555b5050505050600190811b01905550565b60006001600160a01b03808816835280871660208401525084604083015283606083015260a0608083015261183460a083018461126e565b600060208284031215611a0c57600080fd5b815161115e8161112b565b60006001600160a01b03808816835280871660208401525060a06040830152611a4360a0830186611579565b8281036060840152611a558186611579565b90508281036080840152611a69818561126e565b98975050505050505050565b8082018082111561032657610326611855565b604081526000611a9b6040830185611579565b8281036020840152611aad8185611579565b9594505050505056fea26469706673582212203efc72613f0d13c2402f8ddb7621e6747c00dfa38377d71790b847a2b26618fb64736f6c63430008140033",
  "linkReferences": {},
  "deployedLinkReferences": {}
}