{
  "_format": "hh-sol-artifact-1",
  "contractName": "ERC1155Token",
  "sourceName": "contracts/openzeppelin/ERC-1155/ERC1155Token.sol",
  "abi": [
    {
      "inputs": [
        {
          "internalType": "string",
          "name": "_tokenUri",
          "type": "string"
        }
      ],
      "stateMutability": "nonpayable",
      "type": "constructor"
    },
    {
      "inputs": [
        {
          "internalType": "address",
          "name": "sender",
          "type": "address"
        },
        {
          "internalType": "uint256",
          "name": "balance",
          "type": "uint256"
        },
        {
          "internalType": "uint256",
          "name": "needed",
          "type": "uint256"
        },
        {
          "internalType": "uint256",
          "name": "tokenId",
          "type": "uint256"
        }
      ],
      "name": "ERC1155InsufficientBalance",
      "type": "error"
    },
    {
      "inputs": [
        {
          "internalType": "address",
          "name": "approver",
          "type": "address"
        }
      ],
      "name": "ERC1155InvalidApprover",
      "type": "error"
    },
    {
      "inputs": [
        {
          "internalType": "uint256",
          "name": "idsLength",
          "type": "uint256"
        },
        {
          "internalType": "uint256",
          "name": "valuesLength",
          "type": "uint256"
        }
      ],
      "name": "ERC1155InvalidArrayLength",
      "type": "error"
    },
    {
      "inputs": [
        {
          "internalType": "address",
          "name": "operator",
          "type": "address"
        }
      ],
      "name": "ERC1155InvalidOperator",
      "type": "error"
    },
    {
      "inputs": [
        {
          "internalType": "address",
          "name": "receiver",
          "type": "address"
        }
      ],
      "name": "ERC1155InvalidReceiver",
      "type": "error"
    },
    {
      "inputs": [
        {
          "internalType": "address",
          "name": "sender",
          "type": "address"
        }
      ],
      "name": "ERC1155InvalidSender",
      "type": "error"
    },
    {
      "inputs": [
        {
          "internalType": "address",
          "name": "operator",
          "type": "address"
        },
        {
          "internalType": "address",
          "name": "owner",
          "type": "address"
        }
      ],
      "name": "ERC1155MissingApprovalForAll",
      "type": "error"
    },
    {
      "inputs": [
        {
          "internalType": "address",
          "name": "owner",
          "type": "address"
        }
      ],
      "name": "OwnableInvalidOwner",
      "type": "error"
    },
    {
      "inputs": [
        {
          "internalType": "address",
          "name": "account",
          "type": "address"
        }
      ],
      "name": "OwnableUnauthorizedAccount",
      "type": "error"
    },
    {
      "anonymous": false,
      "inputs": [
        {
          "indexed": true,
          "internalType": "address",
          "name": "account",
          "type": "address"
        },
        {
          "indexed": true,
          "internalType": "address",
          "name": "operator",
          "type": "address"
        },
        {
          "indexed": false,
          "internalType": "bool",
          "name": "approved",
          "type": "bool"
        }
      ],
      "name": "ApprovalForAll",
      "type": "event"
    },
    {
      "anonymous": false,
      "inputs": [
        {
          "indexed": false,
          "internalType": "address",
          "name": "account",
          "type": "address"
        },
        {
          "indexed": false,
          "internalType": "uint256",
          "name": "id",
          "type": "uint256"
        },
        {
          "indexed": false,
          "internalType": "uint256",
          "name": "amount",
          "type": "uint256"
        },
        {
          "indexed": false,
          "internalType": "bytes",
          "name": "data",
          "type": "bytes"
        }
      ],
      "name": "Minted",
      "type": "event"
    },
    {
      "anonymous": false,
      "inputs": [
        {
          "indexed": false,
          "internalType": "address",
          "name": "to",
          "type": "address"
        },
        {
          "indexed": false,
          "internalType": "uint256[]",
          "name": "ids",
          "type": "uint256[]"
        },
        {
          "indexed": false,
          "internalType": "uint256[]",
          "name": "amounts",
          "type": "uint256[]"
        },
        {
          "indexed": false,
          "internalType": "bytes",
          "name": "data",
          "type": "bytes"
        }
      ],
      "name": "MintedBatch",
      "type": "event"
    },
    {
      "anonymous": false,
      "inputs": [
        {
          "indexed": true,
          "internalType": "address",
          "name": "previousOwner",
          "type": "address"
        },
        {
          "indexed": true,
          "internalType": "address",
          "name": "newOwner",
          "type": "address"
        }
      ],
      "name": "OwnershipTransferred",
      "type": "event"
    },
    {
      "anonymous": false,
      "inputs": [
        {
          "indexed": true,
          "internalType": "address",
          "name": "operator",
          "type": "address"
        },
        {
          "indexed": true,
          "internalType": "address",
          "name": "from",
          "type": "address"
        },
        {
          "indexed": true,
          "internalType": "address",
          "name": "to",
          "type": "address"
        },
        {
          "indexed": false,
          "internalType": "uint256[]",
          "name": "ids",
          "type": "uint256[]"
        },
        {
          "indexed": false,
          "internalType": "uint256[]",
          "name": "values",
          "type": "uint256[]"
        }
      ],
      "name": "TransferBatch",
      "type": "event"
    },
    {
      "anonymous": false,
      "inputs": [
        {
          "indexed": true,
          "internalType": "address",
          "name": "operator",
          "type": "address"
        },
        {
          "indexed": true,
          "internalType": "address",
          "name": "from",
          "type": "address"
        },
        {
          "indexed": true,
          "internalType": "address",
          "name": "to",
          "type": "address"
        },
        {
          "indexed": false,
          "internalType": "uint256",
          "name": "id",
          "type": "uint256"
        },
        {
          "indexed": false,
          "internalType": "uint256",
          "name": "value",
          "type": "uint256"
        }
      ],
      "name": "TransferSingle",
      "type": "event"
    },
    {
      "anonymous": false,
      "inputs": [
        {
          "indexed": false,
          "internalType": "string",
          "name": "value",
          "type": "string"
        },
        {
          "indexed": true,
          "internalType": "uint256",
          "name": "id",
          "type": "uint256"
        }
      ],
      "name": "URI",
      "type": "event"
    },
    {
      "inputs": [
        {
          "internalType": "address",
          "name": "account",
          "type": "address"
        },
        {
          "internalType": "uint256",
          "name": "id",
          "type": "uint256"
        }
      ],
      "name": "balanceOf",
      "outputs": [
        {
          "internalType": "uint256",
          "name": "",
          "type": "uint256"
        }
      ],
      "stateMutability": "view",
      "type": "function"
    },
    {
      "inputs": [
        {
          "internalType": "address[]",
          "name": "accounts",
          "type": "address[]"
        },
        {
          "internalType": "uint256[]",
          "name": "ids",
          "type": "uint256[]"
        }
      ],
      "name": "balanceOfBatch",
      "outputs": [
        {
          "internalType": "uint256[]",
          "name": "",
          "type": "uint256[]"
        }
      ],
      "stateMutability": "view",
      "type": "function"
    },
    {
      "inputs": [
        {
          "internalType": "address",
          "name": "account",
          "type": "address"
        },
        {
          "internalType": "uint256",
          "name": "id",
          "type": "uint256"
        },
        {
          "internalType": "uint256",
          "name": "value",
          "type": "uint256"
        }
      ],
      "name": "burn",
      "outputs": [],
      "stateMutability": "nonpayable",
      "type": "function"
    },
    {
      "inputs": [
        {
          "internalType": "address",
          "name": "account",
          "type": "address"
        },
        {
          "internalType": "uint256[]",
          "name": "ids",
          "type": "uint256[]"
        },
        {
          "internalType": "uint256[]",
          "name": "values",
          "type": "uint256[]"
        }
      ],
      "name": "burnBatch",
      "outputs": [],
      "stateMutability": "nonpayable",
      "type": "function"
    },
    {
      "inputs": [
        {
          "internalType": "uint256",
          "name": "id",
          "type": "uint256"
        }
      ],
      "name": "exists",
      "outputs": [
        {
          "internalType": "bool",
          "name": "",
          "type": "bool"
        }
      ],
      "stateMutability": "view",
      "type": "function"
    },
    {
      "inputs": [
        {
          "internalType": "address",
          "name": "account",
          "type": "address"
        },
        {
          "internalType": "address",
          "name": "operator",
          "type": "address"
        }
      ],
      "name": "isApprovedForAll",
      "outputs": [
        {
          "internalType": "bool",
          "name": "",
          "type": "bool"
        }
      ],
      "stateMutability": "view",
      "type": "function"
    },
    {
      "inputs": [
        {
          "internalType": "address",
          "name": "account",
          "type": "address"
        },
        {
          "internalType": "uint256",
          "name": "id",
          "type": "uint256"
        },
        {
          "internalType": "uint256",
          "name": "amount",
          "type": "uint256"
        },
        {
          "internalType": "bytes",
          "name": "data",
          "type": "bytes"
        }
      ],
      "name": "mint",
      "outputs": [],
      "stateMutability": "nonpayable",
      "type": "function"
    },
    {
      "inputs": [
        {
          "internalType": "address",
          "name": "to",
          "type": "address"
        },
        {
          "internalType": "uint256[]",
          "name": "ids",
          "type": "uint256[]"
        },
        {
          "internalType": "uint256[]",
          "name": "amounts",
          "type": "uint256[]"
        },
        {
          "internalType": "bytes",
          "name": "data",
          "type": "bytes"
        }
      ],
      "name": "mintBatch",
      "outputs": [],
      "stateMutability": "nonpayable",
      "type": "function"
    },
    {
      "inputs": [],
      "name": "owner",
      "outputs": [
        {
          "internalType": "address",
          "name": "",
          "type": "address"
        }
      ],
      "stateMutability": "view",
      "type": "function"
    },
    {
      "inputs": [],
      "name": "renounceOwnership",
      "outputs": [],
      "stateMutability": "nonpayable",
      "type": "function"
    },
    {
      "inputs": [
        {
          "internalType": "address",
          "name": "from",
          "type": "address"
        },
        {
          "internalType": "address",
          "name": "to",
          "type": "address"
        },
        {
          "internalType": "uint256[]",
          "name": "ids",
          "type": "uint256[]"
        },
        {
          "internalType": "uint256[]",
          "name": "values",
          "type": "uint256[]"
        },
        {
          "internalType": "bytes",
          "name": "data",
          "type": "bytes"
        }
      ],
      "name": "safeBatchTransferFrom",
      "outputs": [],
      "stateMutability": "nonpayable",
      "type": "function"
    },
    {
      "inputs": [
        {
          "internalType": "address",
          "name": "from",
          "type": "address"
        },
        {
          "internalType": "address",
          "name": "to",
          "type": "address"
        },
        {
          "internalType": "uint256",
          "name": "id",
          "type": "uint256"
        },
        {
          "internalType": "uint256",
          "name": "value",
          "type": "uint256"
        },
        {
          "internalType": "bytes",
          "name": "data",
          "type": "bytes"
        }
      ],
      "name": "safeTransferFrom",
      "outputs": [],
      "stateMutability": "nonpayable",
      "type": "function"
    },
    {
      "inputs": [
        {
          "internalType": "address",
          "name": "operator",
          "type": "address"
        },
        {
          "internalType": "bool",
          "name": "approved",
          "type": "bool"
        }
      ],
      "name": "setApprovalForAll",
      "outputs": [],
      "stateMutability": "nonpayable",
      "type": "function"
    },
    {
      "inputs": [
        {
          "internalType": "string",
          "name": "newuri",
          "type": "string"
        }
      ],
      "name": "setURI",
      "outputs": [],
      "stateMutability": "nonpayable",
      "type": "function"
    },
    {
      "inputs": [
        {
          "internalType": "bytes4",
          "name": "interfaceId",
          "type": "bytes4"
        }
      ],
      "name": "supportsInterface",
      "outputs": [
        {
          "internalType": "bool",
          "name": "",
          "type": "bool"
        }
      ],
      "stateMutability": "view",
      "type": "function"
    },
    {
      "inputs": [],
      "name": "totalSupply",
      "outputs": [
        {
          "internalType": "uint256",
          "name": "",
          "type": "uint256"
        }
      ],
      "stateMutability": "view",
      "type": "function"
    },
    {
      "inputs": [
        {
          "internalType": "uint256",
          "name": "id",
          "type": "uint256"
        }
      ],
      "name": "totalSupply",
      "outputs": [
        {
          "internalType": "uint256",
          "name": "",
          "type": "uint256"
        }
      ],
      "stateMutability": "view",
      "type": "function"
    },
    {
      "inputs": [
        {
          "internalType": "address",
          "name": "newOwner",
          "type": "address"
        }
      ],
      "name": "transferOwnership",
      "outputs": [],
      "stateMutability": "nonpayable",
      "type": "function"
    },
    {
      "inputs": [
        {
          "internalType": "uint256",
          "name": "",
          "type": "uint256"
        }
      ],
      "name": "uri",
      "outputs": [
        {
          "internalType": "string",
          "name": "",
          "type": "string"
        }
      ],
      "stateMutability": "view",
      "type": "function"
    }
  ],
  "bytecode": "0x60806040523480156200001157600080fd5b5060405162001ded38038062001ded8339810160408190526200003491620000fe565b3381620000418162000084565b506001600160a01b0381166200007157604051631e4fbdf760e01b81526000600482015260240160405180910390fd5b6200007c8162000096565b505062000330565b600262000092828262000264565b5050565b600380546001600160a01b038381166001600160a01b0319831681179093556040519116919082907f8be0079c531659141344cd1fd0a4f28419497f9722a3daafe3b4186f6b6457e090600090a35050565b634e487b7160e01b600052604160045260246000fd5b600060208083850312156200011257600080fd5b82516001600160401b03808211156200012a57600080fd5b818501915085601f8301126200013f57600080fd5b815181811115620001545762000154620000e8565b604051601f8201601f19908116603f011681019083821181831017156200017f576200017f620000e8565b8160405282815288868487010111156200019857600080fd5b600093505b82841015620001bc57848401860151818501870152928501926200019d565b600086848301015280965050505050505092915050565b600181811c90821680620001e857607f821691505b6020821081036200020957634e487b7160e01b600052602260045260246000fd5b50919050565b601f8211156200025f576000816000526020600020601f850160051c810160208610156200023a5750805b601f850160051c820191505b818110156200025b5782815560010162000246565b5050505b505050565b81516001600160401b03811115620002805762000280620000e8565b6200029881620002918454620001d3565b846200020f565b602080601f831160018114620002d05760008415620002b75750858301515b600019600386901b1c1916600185901b1785556200025b565b600085815260208120601f198616915b828110156200030157888601518255948401946001909101908401620002e0565b5085821015620003205787850151600019600388901b60f8161c191681555b5050505050600190811b01905550565b611aad80620003406000396000f3fe608060405234801561001057600080fd5b50600436106101205760003560e01c80636b20c454116100ad578063bd85b03911610071578063bd85b0391461026f578063e985e9c51461028f578063f242432a146102cb578063f2fde38b146102de578063f5298aca146102f157600080fd5b80636b20c45414610213578063715018a614610226578063731133e91461022e5780638da5cb5b14610241578063a22cb4651461025c57600080fd5b806318160ddd116100f457806318160ddd146101a35780631f7fdffa146101ab5780632eb2c2d6146101be5780634e1273f4146101d15780634f558e79146101f157600080fd5b8062fdd58e1461012557806301ffc9a71461014b57806302fe53051461016e5780630e89341c14610183575b600080fd5b6101386101333660046110dc565b610304565b6040519081526020015b60405180910390f35b61015e61015936600461111c565b61032c565b6040519015158152602001610142565b61018161017c3660046111df565b61037c565b005b610196610191366004611230565b610390565b604051610142919061128f565b600554610138565b6101816101b9366004611355565b610424565b6101816101cc3660046113ee565b61047b565b6101e46101df366004611498565b610506565b6040516101429190611594565b61015e6101ff366004611230565b600090815260046020526040902054151590565b6101816102213660046115a7565b6105d3565b610181610637565b61018161023c36600461161b565b61064b565b6003546040516001600160a01b039091168152602001610142565b61018161026a366004611670565b610694565b61013861027d366004611230565b60009081526004602052604090205490565b61015e61029d3660046116ac565b6001600160a01b03918216600090815260016020908152604080832093909416825291909152205460ff1690565b6101816102d93660046116df565b6106a3565b6101816102ec366004611744565b610721565b6101816102ff36600461175f565b61075c565b6000818152602081815260408083206001600160a01b03861684529091529020545b92915050565b60006001600160e01b03198216636cdb3d1360e11b148061035d57506001600160e01b031982166303a24d0760e21b145b8061032657506301ffc9a760e01b6001600160e01b0319831614610326565b610384610792565b61038d816107bf565b50565b60606002805461039f90611792565b80601f01602080910402602001604051908101604052809291908181526020018280546103cb90611792565b80156104185780601f106103ed57610100808354040283529160200191610418565b820191906000526020600020905b8154815290600101906020018083116103fb57829003601f168201915b50505050509050919050565b61042c610792565b610438848484846107cb565b7fc4bffbe62baea258f8f0bcd0c5e5051948e1fbb87c01185e85f57ed7fe5633cc8484848460405161046d94939291906117cc565b60405180910390a150505050565b336001600160a01b03861681148015906104bb57506001600160a01b0380871660009081526001602090815260408083209385168352929052205460ff16155b156104f15760405163711bec9160e11b81526001600160a01b038083166004830152871660248201526044015b60405180910390fd5b6104fe8686868686610809565b505050505050565b606081518351146105375781518351604051635b05999160e01b8152600481019290925260248201526044016104e8565b6000835167ffffffffffffffff81111561055357610553611140565b60405190808252806020026020018201604052801561057c578160200160208202803683370190505b50905060005b84518110156105cb576020808202860101516105a690602080840287010151610304565b8282815181106105b8576105b861181f565b6020908102919091010152600101610582565b509392505050565b6001600160a01b03831633148015906105f357506105f1833361029d565b155b1561062757335b60405163711bec9160e11b81526001600160a01b03918216600482015290841660248201526044016104e8565b610632838383610870565b505050565b61063f610792565b61064960006108b6565b565b610653610792565b61065f84848484610915565b7f3415a4398115f911eb5f94d5d45050a5586f16a7d86ec8c9f749053d3f48d6618484848460405161046d9493929190611835565b61069f338383610972565b5050565b336001600160a01b03861681148015906106e357506001600160a01b0380871660009081526001602090815260408083209385168352929052205460ff16155b156107145760405163711bec9160e11b81526001600160a01b038083166004830152871660248201526044016104e8565b6104fe8686868686610a08565b610729610792565b6001600160a01b03811661075357604051631e4fbdf760e01b8152600060048201526024016104e8565b61038d816108b6565b6001600160a01b038316331480159061077c575061077a833361029d565b155b1561078757336105fa565b610632838383610a96565b6003546001600160a01b031633146106495760405163118cdaa760e01b81523360048201526024016104e8565b600261069f82826118b5565b6001600160a01b0384166107f557604051632bfa23e760e11b8152600060048201526024016104e8565b610803600085858585610afa565b50505050565b6001600160a01b03841661083357604051632bfa23e760e11b8152600060048201526024016104e8565b6001600160a01b03851661085c57604051626a0d4560e21b8152600060048201526024016104e8565b6108698585858585610afa565b5050505050565b6001600160a01b03831661089957604051626a0d4560e21b8152600060048201526024016104e8565b610632836000848460405180602001604052806000815250610afa565b600380546001600160a01b0383811673ffffffffffffffffffffffffffffffffffffffff19831681179093556040519116919082907f8be0079c531659141344cd1fd0a4f28419497f9722a3daafe3b4186f6b6457e090600090a35050565b6001600160a01b03841661093f57604051632bfa23e760e11b8152600060048201526024016104e8565b604080516001808252602082018690528183019081526060820185905260808201909252906104fe600087848487610afa565b6001600160a01b03821661099b5760405162ced3e160e81b8152600060048201526024016104e8565b6001600160a01b03838116600081815260016020908152604080832094871680845294825291829020805460ff191686151590811790915591519182527f17307eab39ab6107e8899845ad3d59bd9653f200f220920489ca2b5937696c31910160405180910390a3505050565b6001600160a01b038416610a3257604051632bfa23e760e11b8152600060048201526024016104e8565b6001600160a01b038516610a5b57604051626a0d4560e21b8152600060048201526024016104e8565b60408051600180825260208201869052818301908152606082018590526080820190925290610a8d8787848487610afa565b50505050505050565b6001600160a01b038316610abf57604051626a0d4560e21b8152600060048201526024016104e8565b604080516001808252602082018590528183019081526060820184905260a08201909252600060808201818152919291610869918791859085905b610b0685858585610b4d565b6001600160a01b038416156108695782513390600103610b3f5760208481015190840151610b38838989858589610b59565b50506104fe565b6104fe818787878787610c7d565b61080384848484610d66565b6001600160a01b0384163b156104fe5760405163f23a6e6160e01b81526001600160a01b0385169063f23a6e6190610b9d9089908990889088908890600401611975565b6020604051808303816000875af1925050508015610bd8575060408051601f3d908101601f19168201909252610bd5918101906119ad565b60015b610c41573d808015610c06576040519150601f19603f3d011682016040523d82523d6000602084013e610c0b565b606091505b508051600003610c3957604051632bfa23e760e11b81526001600160a01b03861660048201526024016104e8565b805181602001fd5b6001600160e01b0319811663f23a6e6160e01b14610a8d57604051632bfa23e760e11b81526001600160a01b03861660048201526024016104e8565b6001600160a01b0384163b156104fe5760405163bc197c8160e01b81526001600160a01b0385169063bc197c8190610cc190899089908890889088906004016119ca565b6020604051808303816000875af1925050508015610cfc575060408051601f3d908101601f19168201909252610cf9918101906119ad565b60015b610d2a573d808015610c06576040519150601f19603f3d011682016040523d82523d6000602084013e610c0b565b6001600160e01b0319811663bc197c8160e01b14610a8d57604051632bfa23e760e11b81526001600160a01b03861660048201526024016104e8565b610d7284848484610eac565b6001600160a01b038416610e1c576000805b8351811015610e02576000838281518110610da157610da161181f565b602002602001015190508060046000878581518110610dc257610dc261181f565b602002602001015181526020019081526020016000206000828254610de79190611a28565b90915550610df790508184611a28565b925050600101610d84565b508060056000828254610e159190611a28565b9091555050505b6001600160a01b038316610803576000805b8351811015610e9b576000838281518110610e4b57610e4b61181f565b602002602001015190508060046000878581518110610e6c57610e6c61181f565b602090810291909101810151825281019190915260400160002080549190910390559190910190600101610e2e565b506005805491909103905550505050565b8051825114610edb5781518151604051635b05999160e01b8152600481019290925260248201526044016104e8565b3360005b8351811015610fe1576020818102858101820151908501909101516001600160a01b03881615610f92576000828152602081815260408083206001600160a01b038c16845290915290205481811015610f6b576040516303dee4c560e01b81526001600160a01b038a1660048201526024810182905260448101839052606481018490526084016104e8565b6000838152602081815260408083206001600160a01b038d16845290915290209082900390555b6001600160a01b03871615610fd7576000828152602081815260408083206001600160a01b038b16845290915281208054839290610fd1908490611a28565b90915550505b5050600101610edf565b5082516001036110625760208301516000906020840151909150856001600160a01b0316876001600160a01b0316846001600160a01b03167fc3d58168c5ae7397731d063d5bbf3d657854427343f4c083240f7aacaa2d0f628585604051611053929190918252602082015260400190565b60405180910390a45050610869565b836001600160a01b0316856001600160a01b0316826001600160a01b03167f4a39dc06d4c0dbc64b70af90fd698a233a518aa5d07e595d983b8c0526c8f7fb86866040516110b1929190611a49565b60405180910390a45050505050565b80356001600160a01b03811681146110d757600080fd5b919050565b600080604083850312156110ef57600080fd5b6110f8836110c0565b946020939093013593505050565b6001600160e01b03198116811461038d57600080fd5b60006020828403121561112e57600080fd5b813561113981611106565b9392505050565b634e487b7160e01b600052604160045260246000fd5b604051601f8201601f1916810167ffffffffffffffff8111828210171561117f5761117f611140565b604052919050565b600067ffffffffffffffff8311156111a1576111a1611140565b6111b4601f8401601f1916602001611156565b90508281528383830111156111c857600080fd5b828260208301376000602084830101529392505050565b6000602082840312156111f157600080fd5b813567ffffffffffffffff81111561120857600080fd5b8201601f8101841361121957600080fd5b61122884823560208401611187565b949350505050565b60006020828403121561124257600080fd5b5035919050565b6000815180845260005b8181101561126f57602081850181015186830182015201611253565b506000602082860101526020601f19601f83011685010191505092915050565b6020815260006111396020830184611249565b600067ffffffffffffffff8211156112bc576112bc611140565b5060051b60200190565b600082601f8301126112d757600080fd5b813560206112ec6112e7836112a2565b611156565b8083825260208201915060208460051b87010193508684111561130e57600080fd5b602086015b8481101561132a5780358352918301918301611313565b509695505050505050565b600082601f83011261134657600080fd5b61113983833560208501611187565b6000806000806080858703121561136b57600080fd5b611374856110c0565b9350602085013567ffffffffffffffff8082111561139157600080fd5b61139d888389016112c6565b945060408701359150808211156113b357600080fd5b6113bf888389016112c6565b935060608701359150808211156113d557600080fd5b506113e287828801611335565b91505092959194509250565b600080600080600060a0868803121561140657600080fd5b61140f866110c0565b945061141d602087016110c0565b9350604086013567ffffffffffffffff8082111561143a57600080fd5b61144689838a016112c6565b9450606088013591508082111561145c57600080fd5b61146889838a016112c6565b9350608088013591508082111561147e57600080fd5b5061148b88828901611335565b9150509295509295909350565b600080604083850312156114ab57600080fd5b823567ffffffffffffffff808211156114c357600080fd5b818501915085601f8301126114d757600080fd5b813560206114e76112e7836112a2565b82815260059290921b8401810191818101908984111561150657600080fd5b948201945b8386101561152b5761151c866110c0565b8252948201949082019061150b565b9650508601359250508082111561154157600080fd5b5061154e858286016112c6565b9150509250929050565b60008151808452602080850194506020840160005b838110156115895781518752958201959082019060010161156d565b509495945050505050565b6020815260006111396020830184611558565b6000806000606084860312156115bc57600080fd5b6115c5846110c0565b9250602084013567ffffffffffffffff808211156115e257600080fd5b6115ee878388016112c6565b9350604086013591508082111561160457600080fd5b50611611868287016112c6565b9150509250925092565b6000806000806080858703121561163157600080fd5b61163a856110c0565b93506020850135925060408501359150606085013567ffffffffffffffff81111561166457600080fd5b6113e287828801611335565b6000806040838503121561168357600080fd5b61168c836110c0565b9150602083013580151581146116a157600080fd5b809150509250929050565b600080604083850312156116bf57600080fd5b6116c8836110c0565b91506116d6602084016110c0565b90509250929050565b600080600080600060a086880312156116f757600080fd5b611700866110c0565b945061170e602087016110c0565b93506040860135925060608601359150608086013567ffffffffffffffff81111561173857600080fd5b61148b88828901611335565b60006020828403121561175657600080fd5b611139826110c0565b60008060006060848603121561177457600080fd5b61177d846110c0565b95602085013595506040909401359392505050565b600181811c908216806117a657607f821691505b6020821081036117c657634e487b7160e01b600052602260045260246000fd5b50919050565b6001600160a01b03851681526080602082015260006117ee6080830186611558565b82810360408401526118008186611558565b905082810360608401526118148185611249565b979650505050505050565b634e487b7160e01b600052603260045260246000fd5b6001600160a01b03851681528360208201528260408201526080606082015260006118636080830184611249565b9695505050505050565b601f821115610632576000816000526020600020601f850160051c810160208610156118965750805b601f850160051c820191505b818110156104fe578281556001016118a2565b815167ffffffffffffffff8111156118cf576118cf611140565b6118e3816118dd8454611792565b8461186d565b602080601f83116001811461191857600084156119005750858301515b600019600386901b1c1916600185901b1785556104fe565b600085815260208120601f198616915b8281101561194757888601518255948401946001909101908401611928565b50858210156119655787850151600019600388901b60f8161c191681555b5050505050600190811b01905550565b60006001600160a01b03808816835280871660208401525084604083015283606083015260a0608083015261181460a0830184611249565b6000602082840312156119bf57600080fd5b815161113981611106565b60006001600160a01b03808816835280871660208401525060a060408301526119f660a0830186611558565b8281036060840152611a088186611558565b90508281036080840152611a1c8185611249565b98975050505050505050565b8082018082111561032657634e487b7160e01b600052601160045260246000fd5b604081526000611a5c6040830185611558565b8281036020840152611a6e8185611558565b9594505050505056fea26469706673582212206925b7a7689163e534584650453ebdfe1c28be0c4547ef3e31cf9b81302c3d0e64736f6c63430008170033",
  "linkReferences": {},
  "deployedLinkReferences": {}
}