{
  "_format": "hh-sol-artifact-1",
  "contractName": "ExchangeV2",
  "sourceName": "contracts/proxy-upgrade/exchange/ExchangeV2.sol",
  "abi": [
    {
      "inputs": [
        {
          "internalType": "address",
          "name": "target",
          "type": "address"
        }
      ],
      "name": "AddressEmptyCode",
      "type": "error"
    },
    {
      "inputs": [
        {
          "internalType": "address",
          "name": "implementation",
          "type": "address"
        }
      ],
      "name": "ERC1967InvalidImplementation",
      "type": "error"
    },
    {
      "inputs": [],
      "name": "ERC1967NonPayable",
      "type": "error"
    },
    {
      "inputs": [],
      "name": "FailedInnerCall",
      "type": "error"
    },
    {
      "inputs": [],
      "name": "InvalidInitialization",
      "type": "error"
    },
    {
      "inputs": [],
      "name": "NotInitializing",
      "type": "error"
    },
    {
      "inputs": [
        {
          "internalType": "address",
          "name": "owner",
          "type": "address"
        }
      ],
      "name": "OwnableInvalidOwner",
      "type": "error"
    },
    {
      "inputs": [
        {
          "internalType": "address",
          "name": "account",
          "type": "address"
        }
      ],
      "name": "OwnableUnauthorizedAccount",
      "type": "error"
    },
    {
      "inputs": [],
      "name": "UUPSUnauthorizedCallContext",
      "type": "error"
    },
    {
      "inputs": [
        {
          "internalType": "bytes32",
          "name": "slot",
          "type": "bytes32"
        }
      ],
      "name": "UUPSUnsupportedProxiableUUID",
      "type": "error"
    },
    {
      "anonymous": false,
      "inputs": [
        {
          "indexed": false,
          "internalType": "uint64",
          "name": "version",
          "type": "uint64"
        }
      ],
      "name": "Initialized",
      "type": "event"
    },
    {
      "anonymous": false,
      "inputs": [
        {
          "indexed": true,
          "internalType": "address",
          "name": "previousOwner",
          "type": "address"
        },
        {
          "indexed": true,
          "internalType": "address",
          "name": "newOwner",
          "type": "address"
        }
      ],
      "name": "OwnershipTransferred",
      "type": "event"
    },
    {
      "anonymous": false,
      "inputs": [
        {
          "indexed": true,
          "internalType": "address",
          "name": "implementation",
          "type": "address"
        }
      ],
      "name": "Upgraded",
      "type": "event"
    },
    {
      "inputs": [],
      "name": "UPGRADE_INTERFACE_VERSION",
      "outputs": [
        {
          "internalType": "string",
          "name": "",
          "type": "string"
        }
      ],
      "stateMutability": "view",
      "type": "function"
    },
    {
      "inputs": [],
      "name": "associateToken",
      "outputs": [
        {
          "internalType": "int256",
          "name": "responseCode",
          "type": "int256"
        }
      ],
      "stateMutability": "nonpayable",
      "type": "function"
    },
    {
      "inputs": [],
      "name": "buy",
      "outputs": [],
      "stateMutability": "payable",
      "type": "function"
    },
    {
      "inputs": [],
      "name": "deposit",
      "outputs": [],
      "stateMutability": "payable",
      "type": "function"
    },
    {
      "inputs": [
        {
          "internalType": "int64",
          "name": "amount",
          "type": "int64"
        }
      ],
      "name": "depositTokens",
      "outputs": [
        {
          "internalType": "int256",
          "name": "responseCode",
          "type": "int256"
        }
      ],
      "stateMutability": "nonpayable",
      "type": "function"
    },
    {
      "inputs": [],
      "name": "getImplementationAddress",
      "outputs": [
        {
          "internalType": "address",
          "name": "",
          "type": "address"
        }
      ],
      "stateMutability": "view",
      "type": "function"
    },
    {
      "inputs": [],
      "name": "getNativeBalance",
      "outputs": [
        {
          "internalType": "uint256",
          "name": "",
          "type": "uint256"
        }
      ],
      "stateMutability": "view",
      "type": "function"
    },
    {
      "inputs": [],
      "name": "getTokenBalance",
      "outputs": [
        {
          "internalType": "uint256",
          "name": "",
          "type": "uint256"
        }
      ],
      "stateMutability": "view",
      "type": "function"
    },
    {
      "inputs": [
        {
          "internalType": "address",
          "name": "token",
          "type": "address"
        }
      ],
      "name": "initialize",
      "outputs": [],
      "stateMutability": "nonpayable",
      "type": "function"
    },
    {
      "inputs": [],
      "name": "owner",
      "outputs": [
        {
          "internalType": "address",
          "name": "",
          "type": "address"
        }
      ],
      "stateMutability": "view",
      "type": "function"
    },
    {
      "inputs": [],
      "name": "proxiableUUID",
      "outputs": [
        {
          "internalType": "bytes32",
          "name": "",
          "type": "bytes32"
        }
      ],
      "stateMutability": "view",
      "type": "function"
    },
    {
      "inputs": [],
      "name": "renounceOwnership",
      "outputs": [],
      "stateMutability": "nonpayable",
      "type": "function"
    },
    {
      "inputs": [
        {
          "internalType": "uint256",
          "name": "amount",
          "type": "uint256"
        }
      ],
      "name": "sell",
      "outputs": [],
      "stateMutability": "nonpayable",
      "type": "function"
    },
    {
      "inputs": [],
      "name": "tokenAddress",
      "outputs": [
        {
          "internalType": "address",
          "name": "",
          "type": "address"
        }
      ],
      "stateMutability": "view",
      "type": "function"
    },
    {
      "inputs": [
        {
          "internalType": "address",
          "name": "newOwner",
          "type": "address"
        }
      ],
      "name": "transferOwnership",
      "outputs": [],
      "stateMutability": "nonpayable",
      "type": "function"
    },
    {
      "inputs": [
        {
          "internalType": "address",
          "name": "newImplementation",
          "type": "address"
        },
        {
          "internalType": "bytes",
          "name": "data",
          "type": "bytes"
        }
      ],
      "name": "upgradeToAndCall",
      "outputs": [],
      "stateMutability": "payable",
      "type": "function"
    },
    {
      "inputs": [],
      "name": "version",
      "outputs": [
        {
          "internalType": "string",
          "name": "",
          "type": "string"
        }
      ],
      "stateMutability": "pure",
      "type": "function"
    }
  ],
  "bytecode": "0x60a06040523060805234801561001457600080fd5b5060805161130561003e60003960008181610bca01528181610bf30152610d5801526113056000f3fe6080604052600436106101095760003560e01c80638f3ea01711610095578063c4d66de811610064578063c4d66de8146102bf578063d0e30db0146102df578063e4849b32146102e7578063ec904f1914610307578063f2fde38b1461031c57600080fd5b80638f3ea017146102465780639d76ea5814610266578063a6f2ae3a14610286578063ad3cb1cc1461028e57600080fd5b806354fd4d50116100dc57806354fd4d5014610198578063715018a6146101cc57806382b2e257146101e157806388a9d554146101f65780638da5cb5b1461020957600080fd5b80630cbcae701461010e5780633659cfe6146101405780634f1ef2861461016257806352d1902d14610175575b600080fd5b34801561011a57600080fd5b5061012361033c565b6040516001600160a01b0390911681526020015b60405180910390f35b34801561014c57600080fd5b5061016061015b3660046110cf565b610374565b005b610160610170366004611100565b6103a2565b34801561018157600080fd5b5061018a6103c1565b604051908152602001610137565b3480156101a457600080fd5b506040805180820190915260028152612b1960f11b60208201525b60405161013791906111e6565b3480156101d857600080fd5b506101606103f0565b3480156101ed57600080fd5b5061018a610404565b34801561020257600080fd5b504761018a565b34801561021557600080fd5b507f9016d09d72d40fdae2fd8ceac6b6234c7706214fd39c1cd1e609a0528c199300546001600160a01b0316610123565b34801561025257600080fd5b5061018a610261366004611219565b610471565b34801561027257600080fd5b50600054610123906001600160a01b031681565b6101606105b8565b34801561029a57600080fd5b506101bf604051806040016040528060058152602001640352e302e360dc1b81525081565b3480156102cb57600080fd5b506101606102da3660046110cf565b61074c565b61016061088b565b3480156102f357600080fd5b5061016061030236600461123c565b6108db565b34801561031357600080fd5b5061018a610aa7565b34801561032857600080fd5b506101606103373660046110cf565b610b84565b600061036f7f360894a13ba1a3210667c828492db98dca3e2076cc3735a920a3ca505d382bbc546001600160a01b031690565b905090565b61037c610bbf565b61038581610c76565b60408051600081526020810190915261039f908290610c7e565b50565b6103aa610bbf565b6103b382610c76565b6103bd8282610c7e565b5050565b60006103cb610d4d565b507f360894a13ba1a3210667c828492db98dca3e2076cc3735a920a3ca505d382bbc90565b6103f8610d96565b6104026000610df1565b565b600080546040516370a0823160e01b81523060048201526001600160a01b03909116906370a0823190602401602060405180830381865afa15801561044d573d6000803e3d6000fd5b505050506040513d601f19601f8201168201806040525081019061036f9190611255565b6000808260070b136104ca5760405162461bcd60e51b815260206004820181905260248201527f596f75206861766520746f206465706f736974206d6f7265207468616e20302e60448201526064015b60405180910390fd5b60008054604080516001600160a01b039092166024830152336044830152306064830152600785900b6084808401919091528151808403909101815260a490920181526020820180516001600160e01b031663eca3691760e01b17905251829161016791610538919061126e565b6000604051808303816000865af19150503d8060008114610575576040519150601f19603f3d011682016040523d82523d6000602084013e61057a565b606091505b50915091508161058b57601561059f565b8080602001905181019061059f919061128a565b60030b9250601683146105b157600080fd5b5050919050565b600080546040516370a0823160e01b81523060048201523492916001600160a01b0316906370a0823190602401602060405180830381865afa158015610602573d6000803e3d6000fd5b505050506040513d601f19601f820116820180604052508101906106269190611255565b9050600082116106785760405162461bcd60e51b815260206004820152601b60248201527f596f75206e65656420746f2073656e6420736f6d6520484241522e000000000060448201526064016104c1565b808211156106d25760405162461bcd60e51b815260206004820152602160248201527f4e6f7420656e6f75676820746f6b656e7320696e2074686520726573657276656044820152601760f91b60648201526084016104c1565b60005460405163a9059cbb60e01b8152336004820152602481018490526001600160a01b039091169063a9059cbb906044016020604051808303816000875af1158015610723573d6000803e3d6000fd5b505050506040513d601f19601f8201168201806040525081019061074791906112ad565b505050565b7ff0c57e16840df040f15088dc2f81fe391c3923bec73e23a9662efc9c229c6a00805468010000000000000000810460ff16159067ffffffffffffffff166000811580156107975750825b905060008267ffffffffffffffff1660011480156107b45750303b155b9050811580156107c2575080155b156107e05760405163f92ee8a960e01b815260040160405180910390fd5b845467ffffffffffffffff19166001178555831561081457845468ff00000000000000001916680100000000000000001785555b600080546001600160a01b0319166001600160a01b03881617905561083833610e62565b831561088357845468ff000000000000000019168555604051600181527fc7f505b2f371ae2175ee4913f4499e1f2633a7b5936321eed1cdaeb6115181d29060200160405180910390a15b505050505050565b600034116104025760405162461bcd60e51b815260206004820181905260248201527f596f75206861766520746f206465706f736974206d6f7265207468616e20302e60448201526064016104c1565b600081116109395760405162461bcd60e51b815260206004820152602560248201527f596f75206e65656420746f2073656c6c206174206c6561737420736f6d6520746044820152646f6b656e7360d81b60648201526084016104c1565b60008054604051636eb1769f60e11b81523360048201523060248201526001600160a01b039091169063dd62ed3e90604401602060405180830381865afa158015610988573d6000803e3d6000fd5b505050506040513d601f19601f820116820180604052508101906109ac9190611255565b9050818110156109fe5760405162461bcd60e51b815260206004820152601960248201527f436865636b2074686520746f6b656e20616c6c6f77616e63650000000000000060448201526064016104c1565b6000546040516323b872dd60e01b8152336004820152306024820152604481018490526001600160a01b03909116906323b872dd906064016020604051808303816000875af1158015610a55573d6000803e3d6000fd5b505050506040513d601f19601f82011682018060405250810190610a7991906112ad565b50604051339083156108fc029084906000818181858888f19350505050158015610747573d6000803e3d6000fd5b60008054604080513060248201526001600160a01b0390921660448084019190915281518084039091018152606490920181526020820180516001600160e01b031663248a35ef60e11b179052518291829161016791610b069161126e565b6000604051808303816000865af19150503d8060008114610b43576040519150601f19603f3d011682016040523d82523d6000602084013e610b48565b606091505b509150915081610b59576015610b6d565b80806020019051810190610b6d919061128a565b60030b925060168314610b7f57600080fd5b505090565b610b8c610d96565b6001600160a01b038116610bb657604051631e4fbdf760e01b8152600060048201526024016104c1565b61039f81610df1565b306001600160a01b037f0000000000000000000000000000000000000000000000000000000000000000161480610c5857507f00000000000000000000000000000000000000000000000000000000000000006001600160a01b0316610c4c7f360894a13ba1a3210667c828492db98dca3e2076cc3735a920a3ca505d382bbc546001600160a01b031690565b6001600160a01b031614155b156104025760405163703e46dd60e11b815260040160405180910390fd5b61039f610d96565b816001600160a01b03166352d1902d6040518163ffffffff1660e01b8152600401602060405180830381865afa925050508015610cd8575060408051601f3d908101601f19168201909252610cd591810190611255565b60015b610d0057604051634c9c8ce360e01b81526001600160a01b03831660048201526024016104c1565b7f360894a13ba1a3210667c828492db98dca3e2076cc3735a920a3ca505d382bbc8114610d4357604051632a87526960e21b8152600481018290526024016104c1565b6107478383610e73565b306001600160a01b037f000000000000000000000000000000000000000000000000000000000000000016146104025760405163703e46dd60e11b815260040160405180910390fd5b33610dc87f9016d09d72d40fdae2fd8ceac6b6234c7706214fd39c1cd1e609a0528c199300546001600160a01b031690565b6001600160a01b0316146104025760405163118cdaa760e01b81523360048201526024016104c1565b7f9016d09d72d40fdae2fd8ceac6b6234c7706214fd39c1cd1e609a0528c19930080546001600160a01b031981166001600160a01b03848116918217845560405192169182907f8be0079c531659141344cd1fd0a4f28419497f9722a3daafe3b4186f6b6457e090600090a3505050565b610e6a610ec9565b61039f81610f17565b610e7c82610f1f565b6040516001600160a01b038316907fbc7cd75a20ee27fd9adebab32041f755214dbc6bffa90cc0225b39da2e5c2d3b90600090a2805115610ec1576107478282610f96565b6103bd61100c565b7ff0c57e16840df040f15088dc2f81fe391c3923bec73e23a9662efc9c229c6a005468010000000000000000900460ff1661040257604051631afcd79f60e31b815260040160405180910390fd5b610b8c610ec9565b806001600160a01b03163b600003610f5557604051634c9c8ce360e01b81526001600160a01b03821660048201526024016104c1565b7f360894a13ba1a3210667c828492db98dca3e2076cc3735a920a3ca505d382bbc80546001600160a01b0319166001600160a01b0392909216919091179055565b6060600080846001600160a01b031684604051610fb3919061126e565b600060405180830381855af49150503d8060008114610fee576040519150601f19603f3d011682016040523d82523d6000602084013e610ff3565b606091505b509150915061100385838361102b565b95945050505050565b34156104025760405163b398979f60e01b815260040160405180910390fd5b6060826110405761103b8261108a565b611083565b815115801561105757506001600160a01b0384163b155b1561108057604051639996b31560e01b81526001600160a01b03851660048201526024016104c1565b50805b9392505050565b80511561109a5780518082602001fd5b604051630a12f52160e11b815260040160405180910390fd5b80356001600160a01b03811681146110ca57600080fd5b919050565b6000602082840312156110e157600080fd5b611083826110b3565b634e487b7160e01b600052604160045260246000fd5b6000806040838503121561111357600080fd5b61111c836110b3565b9150602083013567ffffffffffffffff8082111561113957600080fd5b818501915085601f83011261114d57600080fd5b81358181111561115f5761115f6110ea565b604051601f8201601f19908116603f01168101908382118183101715611187576111876110ea565b816040528281528860208487010111156111a057600080fd5b8260208601602083013760006020848301015280955050505050509250929050565b60005b838110156111dd5781810151838201526020016111c5565b50506000910152565b60208152600082518060208401526112058160408501602087016111c2565b601f01601f19169190910160400192915050565b60006020828403121561122b57600080fd5b81358060070b811461108357600080fd5b60006020828403121561124e57600080fd5b5035919050565b60006020828403121561126757600080fd5b5051919050565b600082516112808184602087016111c2565b9190910192915050565b60006020828403121561129c57600080fd5b81518060030b811461108357600080fd5b6000602082840312156112bf57600080fd5b8151801515811461108357600080fdfea2646970667358221220431ecb0c6db3d6d61495a73ef61cd4a3a3a8a89dbeae4d6f728b1b536215cb2164736f6c63430008140033",
  "linkReferences": {},
  "deployedLinkReferences": {}
}