{
  "_format": "hh-sol-artifact-1",
  "contractName": "ExchangeV2",
  "sourceName": "contracts/proxy-upgrade/exchange/ExchangeV2.sol",
  "abi": [
    {
      "inputs": [
        {
          "internalType": "address",
          "name": "target",
          "type": "address"
        }
      ],
      "name": "AddressEmptyCode",
      "type": "error"
    },
    {
      "inputs": [
        {
          "internalType": "address",
          "name": "implementation",
          "type": "address"
        }
      ],
      "name": "ERC1967InvalidImplementation",
      "type": "error"
    },
    {
      "inputs": [],
      "name": "ERC1967NonPayable",
      "type": "error"
    },
    {
      "inputs": [],
      "name": "FailedInnerCall",
      "type": "error"
    },
    {
      "inputs": [],
      "name": "InvalidInitialization",
      "type": "error"
    },
    {
      "inputs": [],
      "name": "NotInitializing",
      "type": "error"
    },
    {
      "inputs": [
        {
          "internalType": "address",
          "name": "owner",
          "type": "address"
        }
      ],
      "name": "OwnableInvalidOwner",
      "type": "error"
    },
    {
      "inputs": [
        {
          "internalType": "address",
          "name": "account",
          "type": "address"
        }
      ],
      "name": "OwnableUnauthorizedAccount",
      "type": "error"
    },
    {
      "inputs": [],
      "name": "UUPSUnauthorizedCallContext",
      "type": "error"
    },
    {
      "inputs": [
        {
          "internalType": "bytes32",
          "name": "slot",
          "type": "bytes32"
        }
      ],
      "name": "UUPSUnsupportedProxiableUUID",
      "type": "error"
    },
    {
      "anonymous": false,
      "inputs": [
        {
          "indexed": false,
          "internalType": "uint64",
          "name": "version",
          "type": "uint64"
        }
      ],
      "name": "Initialized",
      "type": "event"
    },
    {
      "anonymous": false,
      "inputs": [
        {
          "indexed": true,
          "internalType": "address",
          "name": "previousOwner",
          "type": "address"
        },
        {
          "indexed": true,
          "internalType": "address",
          "name": "newOwner",
          "type": "address"
        }
      ],
      "name": "OwnershipTransferred",
      "type": "event"
    },
    {
      "anonymous": false,
      "inputs": [
        {
          "indexed": true,
          "internalType": "address",
          "name": "implementation",
          "type": "address"
        }
      ],
      "name": "Upgraded",
      "type": "event"
    },
    {
      "inputs": [],
      "name": "UPGRADE_INTERFACE_VERSION",
      "outputs": [
        {
          "internalType": "string",
          "name": "",
          "type": "string"
        }
      ],
      "stateMutability": "view",
      "type": "function"
    },
    {
      "inputs": [],
      "name": "associateToken",
      "outputs": [
        {
          "internalType": "int256",
          "name": "responseCode",
          "type": "int256"
        }
      ],
      "stateMutability": "nonpayable",
      "type": "function"
    },
    {
      "inputs": [],
      "name": "buy",
      "outputs": [],
      "stateMutability": "payable",
      "type": "function"
    },
    {
      "inputs": [],
      "name": "deposit",
      "outputs": [],
      "stateMutability": "payable",
      "type": "function"
    },
    {
      "inputs": [
        {
          "internalType": "int64",
          "name": "amount",
          "type": "int64"
        }
      ],
      "name": "depositTokens",
      "outputs": [
        {
          "internalType": "int256",
          "name": "responseCode",
          "type": "int256"
        }
      ],
      "stateMutability": "nonpayable",
      "type": "function"
    },
    {
      "inputs": [],
      "name": "getImplementationAddress",
      "outputs": [
        {
          "internalType": "address",
          "name": "",
          "type": "address"
        }
      ],
      "stateMutability": "view",
      "type": "function"
    },
    {
      "inputs": [],
      "name": "getNativeBalance",
      "outputs": [
        {
          "internalType": "uint256",
          "name": "",
          "type": "uint256"
        }
      ],
      "stateMutability": "view",
      "type": "function"
    },
    {
      "inputs": [],
      "name": "getTokenBalance",
      "outputs": [
        {
          "internalType": "uint256",
          "name": "",
          "type": "uint256"
        }
      ],
      "stateMutability": "view",
      "type": "function"
    },
    {
      "inputs": [
        {
          "internalType": "address",
          "name": "token",
          "type": "address"
        }
      ],
      "name": "initialize",
      "outputs": [],
      "stateMutability": "nonpayable",
      "type": "function"
    },
    {
      "inputs": [],
      "name": "owner",
      "outputs": [
        {
          "internalType": "address",
          "name": "",
          "type": "address"
        }
      ],
      "stateMutability": "view",
      "type": "function"
    },
    {
      "inputs": [],
      "name": "proxiableUUID",
      "outputs": [
        {
          "internalType": "bytes32",
          "name": "",
          "type": "bytes32"
        }
      ],
      "stateMutability": "view",
      "type": "function"
    },
    {
      "inputs": [],
      "name": "renounceOwnership",
      "outputs": [],
      "stateMutability": "nonpayable",
      "type": "function"
    },
    {
      "inputs": [
        {
          "internalType": "uint256",
          "name": "amount",
          "type": "uint256"
        }
      ],
      "name": "sell",
      "outputs": [],
      "stateMutability": "nonpayable",
      "type": "function"
    },
    {
      "inputs": [],
      "name": "tokenAddress",
      "outputs": [
        {
          "internalType": "address",
          "name": "",
          "type": "address"
        }
      ],
      "stateMutability": "view",
      "type": "function"
    },
    {
      "inputs": [
        {
          "internalType": "address",
          "name": "newOwner",
          "type": "address"
        }
      ],
      "name": "transferOwnership",
      "outputs": [],
      "stateMutability": "nonpayable",
      "type": "function"
    },
    {
      "inputs": [
        {
          "internalType": "address",
          "name": "newImplementation",
          "type": "address"
        },
        {
          "internalType": "bytes",
          "name": "data",
          "type": "bytes"
        }
      ],
      "name": "upgradeToAndCall",
      "outputs": [],
      "stateMutability": "payable",
      "type": "function"
    },
    {
      "inputs": [],
      "name": "version",
      "outputs": [
        {
          "internalType": "string",
          "name": "",
          "type": "string"
        }
      ],
      "stateMutability": "pure",
      "type": "function"
    }
  ],
  "bytecode": "0x60a06040523060805234801561001457600080fd5b506080516112af61003e60003960008181610b7401528181610b9d0152610d0201526112af6000f3fe6080604052600436106100fe5760003560e01c80638f3ea01711610095578063c4d66de811610064578063c4d66de814610294578063d0e30db0146102b4578063e4849b32146102bc578063ec904f19146102dc578063f2fde38b146102f157600080fd5b80638f3ea0171461021b5780639d76ea581461023b578063a6f2ae3a1461025b578063ad3cb1cc1461026357600080fd5b8063715018a6116100d1578063715018a6146101a157806382b2e257146101b657806388a9d554146101cb5780638da5cb5b146101de57600080fd5b80630cbcae70146101035780634f1ef2861461013557806352d1902d1461014a57806354fd4d501461016d575b600080fd5b34801561010f57600080fd5b50610118610311565b6040516001600160a01b0390911681526020015b60405180910390f35b61014861014336600461108f565b610349565b005b34801561015657600080fd5b5061015f610368565b60405190815260200161012c565b34801561017957600080fd5b506040805180820190915260028152612b1960f11b60208201525b60405161012c9190611175565b3480156101ad57600080fd5b50610148610397565b3480156101c257600080fd5b5061015f6103ab565b3480156101d757600080fd5b504761015f565b3480156101ea57600080fd5b507f9016d09d72d40fdae2fd8ceac6b6234c7706214fd39c1cd1e609a0528c199300546001600160a01b0316610118565b34801561022757600080fd5b5061015f6102363660046111a8565b610418565b34801561024757600080fd5b50600054610118906001600160a01b031681565b61014861055f565b34801561026f57600080fd5b50610194604051806040016040528060058152602001640352e302e360dc1b81525081565b3480156102a057600080fd5b506101486102af3660046111cb565b6106f3565b610148610832565b3480156102c857600080fd5b506101486102d73660046111e6565b610882565b3480156102e857600080fd5b5061015f610a4e565b3480156102fd57600080fd5b5061014861030c3660046111cb565b610b2b565b60006103447f360894a13ba1a3210667c828492db98dca3e2076cc3735a920a3ca505d382bbc546001600160a01b031690565b905090565b610351610b69565b61035a82610c20565b6103648282610c28565b5050565b6000610372610cf7565b507f360894a13ba1a3210667c828492db98dca3e2076cc3735a920a3ca505d382bbc90565b61039f610d40565b6103a96000610d9b565b565b600080546040516370a0823160e01b81523060048201526001600160a01b03909116906370a0823190602401602060405180830381865afa1580156103f4573d6000803e3d6000fd5b505050506040513d601f19601f8201168201806040525081019061034491906111ff565b6000808260070b136104715760405162461bcd60e51b815260206004820181905260248201527f596f75206861766520746f206465706f736974206d6f7265207468616e20302e60448201526064015b60405180910390fd5b60008054604080516001600160a01b039092166024830152336044830152306064830152600785900b6084808401919091528151808403909101815260a490920181526020820180516001600160e01b031663eca3691760e01b179052518291610167916104df9190611218565b6000604051808303816000865af19150503d806000811461051c576040519150601f19603f3d011682016040523d82523d6000602084013e610521565b606091505b509150915081610532576015610546565b808060200190518101906105469190611234565b60030b92506016831461055857600080fd5b5050919050565b600080546040516370a0823160e01b81523060048201523492916001600160a01b0316906370a0823190602401602060405180830381865afa1580156105a9573d6000803e3d6000fd5b505050506040513d601f19601f820116820180604052508101906105cd91906111ff565b90506000821161061f5760405162461bcd60e51b815260206004820152601b60248201527f596f75206e65656420746f2073656e6420736f6d6520484241522e00000000006044820152606401610468565b808211156106795760405162461bcd60e51b815260206004820152602160248201527f4e6f7420656e6f75676820746f6b656e7320696e2074686520726573657276656044820152601760f91b6064820152608401610468565b60005460405163a9059cbb60e01b8152336004820152602481018490526001600160a01b039091169063a9059cbb906044016020604051808303816000875af11580156106ca573d6000803e3d6000fd5b505050506040513d601f19601f820116820180604052508101906106ee9190611257565b505050565b7ff0c57e16840df040f15088dc2f81fe391c3923bec73e23a9662efc9c229c6a00805468010000000000000000810460ff16159067ffffffffffffffff1660008115801561073e5750825b905060008267ffffffffffffffff16600114801561075b5750303b155b905081158015610769575080155b156107875760405163f92ee8a960e01b815260040160405180910390fd5b845467ffffffffffffffff1916600117855583156107bb57845468ff00000000000000001916680100000000000000001785555b600080546001600160a01b0319166001600160a01b0388161790556107df33610e0c565b831561082a57845468ff000000000000000019168555604051600181527fc7f505b2f371ae2175ee4913f4499e1f2633a7b5936321eed1cdaeb6115181d29060200160405180910390a15b505050505050565b600034116103a95760405162461bcd60e51b815260206004820181905260248201527f596f75206861766520746f206465706f736974206d6f7265207468616e20302e6044820152606401610468565b600081116108e05760405162461bcd60e51b815260206004820152602560248201527f596f75206e65656420746f2073656c6c206174206c6561737420736f6d6520746044820152646f6b656e7360d81b6064820152608401610468565b60008054604051636eb1769f60e11b81523360048201523060248201526001600160a01b039091169063dd62ed3e90604401602060405180830381865afa15801561092f573d6000803e3d6000fd5b505050506040513d601f19601f8201168201806040525081019061095391906111ff565b9050818110156109a55760405162461bcd60e51b815260206004820152601960248201527f436865636b2074686520746f6b656e20616c6c6f77616e6365000000000000006044820152606401610468565b6000546040516323b872dd60e01b8152336004820152306024820152604481018490526001600160a01b03909116906323b872dd906064016020604051808303816000875af11580156109fc573d6000803e3d6000fd5b505050506040513d601f19601f82011682018060405250810190610a209190611257565b50604051339083156108fc029084906000818181858888f193505050501580156106ee573d6000803e3d6000fd5b60008054604080513060248201526001600160a01b0390921660448084019190915281518084039091018152606490920181526020820180516001600160e01b031663248a35ef60e11b179052518291829161016791610aad91611218565b6000604051808303816000865af19150503d8060008114610aea576040519150601f19603f3d011682016040523d82523d6000602084013e610aef565b606091505b509150915081610b00576015610b14565b80806020019051810190610b149190611234565b60030b925060168314610b2657600080fd5b505090565b610b33610d40565b6001600160a01b038116610b5d57604051631e4fbdf760e01b815260006004820152602401610468565b610b6681610d9b565b50565b306001600160a01b037f0000000000000000000000000000000000000000000000000000000000000000161480610c0257507f00000000000000000000000000000000000000000000000000000000000000006001600160a01b0316610bf67f360894a13ba1a3210667c828492db98dca3e2076cc3735a920a3ca505d382bbc546001600160a01b031690565b6001600160a01b031614155b156103a95760405163703e46dd60e11b815260040160405180910390fd5b610b66610d40565b816001600160a01b03166352d1902d6040518163ffffffff1660e01b8152600401602060405180830381865afa925050508015610c82575060408051601f3d908101601f19168201909252610c7f918101906111ff565b60015b610caa57604051634c9c8ce360e01b81526001600160a01b0383166004820152602401610468565b7f360894a13ba1a3210667c828492db98dca3e2076cc3735a920a3ca505d382bbc8114610ced57604051632a87526960e21b815260048101829052602401610468565b6106ee8383610e1d565b306001600160a01b037f000000000000000000000000000000000000000000000000000000000000000016146103a95760405163703e46dd60e11b815260040160405180910390fd5b33610d727f9016d09d72d40fdae2fd8ceac6b6234c7706214fd39c1cd1e609a0528c199300546001600160a01b031690565b6001600160a01b0316146103a95760405163118cdaa760e01b8152336004820152602401610468565b7f9016d09d72d40fdae2fd8ceac6b6234c7706214fd39c1cd1e609a0528c19930080546001600160a01b031981166001600160a01b03848116918217845560405192169182907f8be0079c531659141344cd1fd0a4f28419497f9722a3daafe3b4186f6b6457e090600090a3505050565b610e14610e73565b610b6681610ec1565b610e2682610ec9565b6040516001600160a01b038316907fbc7cd75a20ee27fd9adebab32041f755214dbc6bffa90cc0225b39da2e5c2d3b90600090a2805115610e6b576106ee8282610f40565b610364610fb6565b7ff0c57e16840df040f15088dc2f81fe391c3923bec73e23a9662efc9c229c6a005468010000000000000000900460ff166103a957604051631afcd79f60e31b815260040160405180910390fd5b610b33610e73565b806001600160a01b03163b600003610eff57604051634c9c8ce360e01b81526001600160a01b0382166004820152602401610468565b7f360894a13ba1a3210667c828492db98dca3e2076cc3735a920a3ca505d382bbc80546001600160a01b0319166001600160a01b0392909216919091179055565b6060600080846001600160a01b031684604051610f5d9190611218565b600060405180830381855af49150503d8060008114610f98576040519150601f19603f3d011682016040523d82523d6000602084013e610f9d565b606091505b5091509150610fad858383610fd5565b95945050505050565b34156103a95760405163b398979f60e01b815260040160405180910390fd5b606082610fea57610fe582611034565b61102d565b815115801561100157506001600160a01b0384163b155b1561102a57604051639996b31560e01b81526001600160a01b0385166004820152602401610468565b50805b9392505050565b8051156110445780518082602001fd5b604051630a12f52160e11b815260040160405180910390fd5b80356001600160a01b038116811461107457600080fd5b919050565b634e487b7160e01b600052604160045260246000fd5b600080604083850312156110a257600080fd5b6110ab8361105d565b9150602083013567ffffffffffffffff808211156110c857600080fd5b818501915085601f8301126110dc57600080fd5b8135818111156110ee576110ee611079565b604051601f8201601f19908116603f0116810190838211818310171561111657611116611079565b8160405282815288602084870101111561112f57600080fd5b8260208601602083013760006020848301015280955050505050509250929050565b60005b8381101561116c578181015183820152602001611154565b50506000910152565b6020815260008251806020840152611194816040850160208701611151565b601f01601f19169190910160400192915050565b6000602082840312156111ba57600080fd5b81358060070b811461102d57600080fd5b6000602082840312156111dd57600080fd5b61102d8261105d565b6000602082840312156111f857600080fd5b5035919050565b60006020828403121561121157600080fd5b5051919050565b6000825161122a818460208701611151565b9190910192915050565b60006020828403121561124657600080fd5b81518060030b811461102d57600080fd5b60006020828403121561126957600080fd5b8151801515811461102d57600080fdfea26469706673582212202ba418653c72318f916f5b7b82b4a4c2a029ef53e4e56242cd6f6af652869b2764736f6c63430008170033",
  "linkReferences": {},
  "deployedLinkReferences": {}
}