{
  "_format": "hh-sol-artifact-1",
  "contractName": "ExchangeV2",
  "sourceName": "contracts/proxy-upgrade/exchange/ExchangeV2.sol",
  "abi": [
    {
      "anonymous": false,
      "inputs": [
        {
          "indexed": false,
          "internalType": "address",
          "name": "previousAdmin",
          "type": "address"
        },
        {
          "indexed": false,
          "internalType": "address",
          "name": "newAdmin",
          "type": "address"
        }
      ],
      "name": "AdminChanged",
      "type": "event"
    },
    {
      "anonymous": false,
      "inputs": [
        {
          "indexed": true,
          "internalType": "address",
          "name": "beacon",
          "type": "address"
        }
      ],
      "name": "BeaconUpgraded",
      "type": "event"
    },
    {
      "anonymous": false,
      "inputs": [
        {
          "indexed": false,
          "internalType": "uint8",
          "name": "version",
          "type": "uint8"
        }
      ],
      "name": "Initialized",
      "type": "event"
    },
    {
      "anonymous": false,
      "inputs": [
        {
          "indexed": true,
          "internalType": "address",
          "name": "previousOwner",
          "type": "address"
        },
        {
          "indexed": true,
          "internalType": "address",
          "name": "newOwner",
          "type": "address"
        }
      ],
      "name": "OwnershipTransferred",
      "type": "event"
    },
    {
      "anonymous": false,
      "inputs": [
        {
          "indexed": true,
          "internalType": "address",
          "name": "implementation",
          "type": "address"
        }
      ],
      "name": "Upgraded",
      "type": "event"
    },
    {
      "inputs": [],
      "name": "associateToken",
      "outputs": [
        {
          "internalType": "int256",
          "name": "responseCode",
          "type": "int256"
        }
      ],
      "stateMutability": "nonpayable",
      "type": "function"
    },
    {
      "inputs": [],
      "name": "buy",
      "outputs": [],
      "stateMutability": "payable",
      "type": "function"
    },
    {
      "inputs": [],
      "name": "deposit",
      "outputs": [],
      "stateMutability": "payable",
      "type": "function"
    },
    {
      "inputs": [
        {
          "internalType": "int64",
          "name": "amount",
          "type": "int64"
        }
      ],
      "name": "depositTokens",
      "outputs": [
        {
          "internalType": "int256",
          "name": "responseCode",
          "type": "int256"
        }
      ],
      "stateMutability": "nonpayable",
      "type": "function"
    },
    {
      "inputs": [],
      "name": "getImplementationAddress",
      "outputs": [
        {
          "internalType": "address",
          "name": "",
          "type": "address"
        }
      ],
      "stateMutability": "view",
      "type": "function"
    },
    {
      "inputs": [],
      "name": "getNativeBalance",
      "outputs": [
        {
          "internalType": "uint256",
          "name": "",
          "type": "uint256"
        }
      ],
      "stateMutability": "view",
      "type": "function"
    },
    {
      "inputs": [],
      "name": "getTokenBalance",
      "outputs": [
        {
          "internalType": "uint256",
          "name": "",
          "type": "uint256"
        }
      ],
      "stateMutability": "view",
      "type": "function"
    },
    {
      "inputs": [
        {
          "internalType": "address",
          "name": "token",
          "type": "address"
        }
      ],
      "name": "initialize",
      "outputs": [],
      "stateMutability": "nonpayable",
      "type": "function"
    },
    {
      "inputs": [],
      "name": "owner",
      "outputs": [
        {
          "internalType": "address",
          "name": "",
          "type": "address"
        }
      ],
      "stateMutability": "view",
      "type": "function"
    },
    {
      "inputs": [],
      "name": "proxiableUUID",
      "outputs": [
        {
          "internalType": "bytes32",
          "name": "",
          "type": "bytes32"
        }
      ],
      "stateMutability": "view",
      "type": "function"
    },
    {
      "inputs": [],
      "name": "renounceOwnership",
      "outputs": [],
      "stateMutability": "nonpayable",
      "type": "function"
    },
    {
      "inputs": [
        {
          "internalType": "uint256",
          "name": "amount",
          "type": "uint256"
        }
      ],
      "name": "sell",
      "outputs": [],
      "stateMutability": "nonpayable",
      "type": "function"
    },
    {
      "inputs": [],
      "name": "tokenAddress",
      "outputs": [
        {
          "internalType": "address",
          "name": "",
          "type": "address"
        }
      ],
      "stateMutability": "view",
      "type": "function"
    },
    {
      "inputs": [
        {
          "internalType": "address",
          "name": "newOwner",
          "type": "address"
        }
      ],
      "name": "transferOwnership",
      "outputs": [],
      "stateMutability": "nonpayable",
      "type": "function"
    },
    {
      "inputs": [
        {
          "internalType": "address",
          "name": "newImplementation",
          "type": "address"
        }
      ],
      "name": "upgradeTo",
      "outputs": [],
      "stateMutability": "nonpayable",
      "type": "function"
    },
    {
      "inputs": [
        {
          "internalType": "address",
          "name": "newImplementation",
          "type": "address"
        },
        {
          "internalType": "bytes",
          "name": "data",
          "type": "bytes"
        }
      ],
      "name": "upgradeToAndCall",
      "outputs": [],
      "stateMutability": "payable",
      "type": "function"
    },
    {
      "inputs": [],
      "name": "version",
      "outputs": [
        {
          "internalType": "string",
          "name": "",
          "type": "string"
        }
      ],
      "stateMutability": "pure",
      "type": "function"
    }
  ],
  "bytecode": "0x60a060405230608052348015610013575f80fd5b506080516116726100485f395f818161030c015281816103960152818161048b0152818161051001526105f901526116725ff3fe6080604052600436106100fa575f3560e01c80638da5cb5b11610092578063c4d66de811610062578063c4d66de814610252578063d0e30db014610271578063e4849b3214610279578063ec904f1914610298578063f2fde38b146102ac575f80fd5b80638da5cb5b146101ef5780638f3ea0171461020c5780639d76ea581461022b578063a6f2ae3a1461024a575f80fd5b806354fd4d50116100cd57806354fd4d5014610185578063715018a6146101b557806382b2e257146101c957806388a9d554146101dd575f80fd5b80630cbcae70146100fe5780633659cfe61461012f5780634f1ef2861461015057806352d1902d14610163575b5f80fd5b348015610109575f80fd5b506101126102cb565b6040516001600160a01b0390911681526020015b60405180910390f35b34801561013a575f80fd5b5061014e610149366004611430565b610302565b005b61014e61015e36600461145d565b610481565b34801561016e575f80fd5b506101776105ed565b604051908152602001610126565b348015610190575f80fd5b5060408051808201825260028152612b1960f11b60208201529051610126919061153b565b3480156101c0575f80fd5b5061014e6106b1565b3480156101d4575f80fd5b506101776106c4565b3480156101e8575f80fd5b5047610177565b3480156101fa575f80fd5b506033546001600160a01b0316610112565b348015610217575f80fd5b5061017761022636600461156d565b61072e565b348015610236575f80fd5b5060c954610112906001600160a01b031681565b61014e61086a565b34801561025d575f80fd5b5061014e61026c366004611430565b6109fa565b61014e610b2f565b348015610284575f80fd5b5061014e61029336600461158d565b610b7e565b3480156102a3575f80fd5b50610177610d40565b3480156102b7575f80fd5b5061014e6102c6366004611430565b610e1a565b5f6102fd7f360894a13ba1a3210667c828492db98dca3e2076cc3735a920a3ca505d382bbc546001600160a01b031690565b905090565b6001600160a01b037f00000000000000000000000000000000000000000000000000000000000000001630036103945760405162461bcd60e51b815260206004820152602c60248201527f46756e6374696f6e206d7573742062652063616c6c6564207468726f7567682060448201526b19195b1959d85d1958d85b1b60a21b60648201526084015b60405180910390fd5b7f00000000000000000000000000000000000000000000000000000000000000006001600160a01b03166103ef7f360894a13ba1a3210667c828492db98dca3e2076cc3735a920a3ca505d382bbc546001600160a01b031690565b6001600160a01b03161461045a5760405162461bcd60e51b815260206004820152602c60248201527f46756e6374696f6e206d7573742062652063616c6c6564207468726f7567682060448201526b6163746976652070726f787960a01b606482015260840161038b565b61046381610e90565b604080515f8082526020820190925261047e91839190610e98565b50565b6001600160a01b037f000000000000000000000000000000000000000000000000000000000000000016300361050e5760405162461bcd60e51b815260206004820152602c60248201527f46756e6374696f6e206d7573742062652063616c6c6564207468726f7567682060448201526b19195b1959d85d1958d85b1b60a21b606482015260840161038b565b7f00000000000000000000000000000000000000000000000000000000000000006001600160a01b03166105697f360894a13ba1a3210667c828492db98dca3e2076cc3735a920a3ca505d382bbc546001600160a01b031690565b6001600160a01b0316146105d45760405162461bcd60e51b815260206004820152602c60248201527f46756e6374696f6e206d7573742062652063616c6c6564207468726f7567682060448201526b6163746976652070726f787960a01b606482015260840161038b565b6105dd82610e90565b6105e982826001610e98565b5050565b5f306001600160a01b037f0000000000000000000000000000000000000000000000000000000000000000161461068c5760405162461bcd60e51b815260206004820152603860248201527f555550535570677261646561626c653a206d757374206e6f742062652063616c60448201527f6c6564207468726f7567682064656c656761746563616c6c0000000000000000606482015260840161038b565b507f360894a13ba1a3210667c828492db98dca3e2076cc3735a920a3ca505d382bbc90565b6106b9611024565b6106c25f61107e565b565b60c9546040516370a0823160e01b81523060048201525f916001600160a01b0316906370a0823190602401602060405180830381865afa15801561070a573d5f803e3d5ffd5b505050506040513d601f19601f820116820180604052508101906102fd91906115a4565b5f808260070b136107815760405162461bcd60e51b815260206004820181905260248201527f596f75206861766520746f206465706f736974206d6f7265207468616e20302e604482015260640161038b565b60c954604080516001600160a01b039092166024830152336044830152306064830152600784900b6084808401919091528151808403909101815260a490920181526020820180516001600160e01b031663eca3691760e01b179052515f918291610167916107ef916115bb565b5f604051808303815f865af19150503d805f8114610828576040519150601f19603f3d011682016040523d82523d5f602084013e61082d565b606091505b50915091508161083e576015610852565b8080602001905181019061085291906115d6565b60030b925060168314610863575f80fd5b5050919050565b60c9546040516370a0823160e01b815230600482015234915f916001600160a01b03909116906370a0823190602401602060405180830381865afa1580156108b4573d5f803e3d5ffd5b505050506040513d601f19601f820116820180604052508101906108d891906115a4565b90505f82116109295760405162461bcd60e51b815260206004820152601b60248201527f596f75206e65656420746f2073656e6420736f6d6520484241522e0000000000604482015260640161038b565b808211156109835760405162461bcd60e51b815260206004820152602160248201527f4e6f7420656e6f75676820746f6b656e7320696e2074686520726573657276656044820152601760f91b606482015260840161038b565b60c95460405163a9059cbb60e01b8152336004820152602481018490526001600160a01b039091169063a9059cbb906044016020604051808303815f875af11580156109d1573d5f803e3d5ffd5b505050506040513d601f19601f820116820180604052508101906109f591906115f6565b505050565b5f54610100900460ff1615808015610a1857505f54600160ff909116105b80610a315750303b158015610a3157505f5460ff166001145b610aa35760405162461bcd60e51b815260206004820152602e60248201527f496e697469616c697a61626c653a20636f6e747261637420697320616c72656160448201527f647920696e697469616c697a6564000000000000000000000000000000000000606482015260840161038b565b5f805460ff191660011790558015610ac4575f805461ff0019166101001790555b60c980546001600160a01b0319166001600160a01b038416179055610ae76110cf565b80156105e9575f805461ff0019169055604051600181527f7f26b83ff96e1f2b6a682f133852f6798a09c465da95921460cefb38474024989060200160405180910390a15050565b5f34116106c25760405162461bcd60e51b815260206004820181905260248201527f596f75206861766520746f206465706f736974206d6f7265207468616e20302e604482015260640161038b565b5f8111610bdb5760405162461bcd60e51b815260206004820152602560248201527f596f75206e65656420746f2073656c6c206174206c6561737420736f6d6520746044820152646f6b656e7360d81b606482015260840161038b565b60c954604051636eb1769f60e11b81523360048201523060248201525f916001600160a01b03169063dd62ed3e90604401602060405180830381865afa158015610c27573d5f803e3d5ffd5b505050506040513d601f19601f82011682018060405250810190610c4b91906115a4565b905081811015610c9d5760405162461bcd60e51b815260206004820152601960248201527f436865636b2074686520746f6b656e20616c6c6f77616e636500000000000000604482015260640161038b565b60c9546040516323b872dd60e01b8152336004820152306024820152604481018490526001600160a01b03909116906323b872dd906064016020604051808303815f875af1158015610cf1573d5f803e3d5ffd5b505050506040513d601f19601f82011682018060405250810190610d1591906115f6565b50604051339083156108fc029084905f818181858888f193505050501580156109f5573d5f803e3d5ffd5b60c954604080513060248201526001600160a01b0390921660448084019190915281518084039091018152606490920181526020820180516001600160e01b031663248a35ef60e11b179052515f918291829161016791610da191906115bb565b5f604051808303815f865af19150503d805f8114610dda576040519150601f19603f3d011682016040523d82523d5f602084013e610ddf565b606091505b509150915081610df0576015610e04565b80806020019051810190610e0491906115d6565b60030b925060168314610e15575f80fd5b505090565b610e22611024565b6001600160a01b038116610e875760405162461bcd60e51b815260206004820152602660248201527f4f776e61626c653a206e6577206f776e657220697320746865207a65726f206160448201526564647265737360d01b606482015260840161038b565b61047e8161107e565b61047e611024565b7f4910fdfa16fed3260ed0e7147f7cc6da11a60208b5b9406d12a635614ffd91435460ff1615610ecb576109f583611141565b826001600160a01b03166352d1902d6040518163ffffffff1660e01b8152600401602060405180830381865afa925050508015610f25575060408051601f3d908101601f19168201909252610f22918101906115a4565b60015b610f975760405162461bcd60e51b815260206004820152602e60248201527f45524331393637557067726164653a206e657720696d706c656d656e7461746960448201527f6f6e206973206e6f742055555053000000000000000000000000000000000000606482015260840161038b565b7f360894a13ba1a3210667c828492db98dca3e2076cc3735a920a3ca505d382bbc81146110185760405162461bcd60e51b815260206004820152602960248201527f45524331393637557067726164653a20756e737570706f727465642070726f786044820152681a58589b195555525160ba1b606482015260840161038b565b506109f58383836111ef565b6033546001600160a01b031633146106c25760405162461bcd60e51b815260206004820181905260248201527f4f776e61626c653a2063616c6c6572206973206e6f7420746865206f776e6572604482015260640161038b565b603380546001600160a01b038381166001600160a01b0319831681179093556040519116919082907f8be0079c531659141344cd1fd0a4f28419497f9722a3daafe3b4186f6b6457e0905f90a35050565b5f54610100900460ff166111395760405162461bcd60e51b815260206004820152602b60248201527f496e697469616c697a61626c653a20636f6e7472616374206973206e6f74206960448201526a6e697469616c697a696e6760a81b606482015260840161038b565b6106c2611219565b6001600160a01b0381163b6111ae5760405162461bcd60e51b815260206004820152602d60248201527f455243313936373a206e657720696d706c656d656e746174696f6e206973206e60448201526c1bdd08184818dbdb9d1c9858dd609a1b606482015260840161038b565b7f360894a13ba1a3210667c828492db98dca3e2076cc3735a920a3ca505d382bbc80546001600160a01b0319166001600160a01b0392909216919091179055565b6111f88361128c565b5f825111806112045750805b156109f55761121383836112cb565b50505050565b5f54610100900460ff166112835760405162461bcd60e51b815260206004820152602b60248201527f496e697469616c697a61626c653a20636f6e7472616374206973206e6f74206960448201526a6e697469616c697a696e6760a81b606482015260840161038b565b6106c23361107e565b61129581611141565b6040516001600160a01b038216907fbc7cd75a20ee27fd9adebab32041f755214dbc6bffa90cc0225b39da2e5c2d3b905f90a250565b60606112f08383604051806060016040528060278152602001611616602791396112f7565b9392505050565b60605f80856001600160a01b03168560405161131391906115bb565b5f60405180830381855af49150503d805f811461134b576040519150601f19603f3d011682016040523d82523d5f602084013e611350565b606091505b50915091506113618683838761136b565b9695505050505050565b606083156113d95782515f036113d2576001600160a01b0385163b6113d25760405162461bcd60e51b815260206004820152601d60248201527f416464726573733a2063616c6c20746f206e6f6e2d636f6e7472616374000000604482015260640161038b565b50816113e3565b6113e383836113eb565b949350505050565b8151156113fb5781518083602001fd5b8060405162461bcd60e51b815260040161038b919061153b565b80356001600160a01b038116811461142b575f80fd5b919050565b5f60208284031215611440575f80fd5b6112f082611415565b634e487b7160e01b5f52604160045260245ffd5b5f806040838503121561146e575f80fd5b61147783611415565b9150602083013567ffffffffffffffff80821115611493575f80fd5b818501915085601f8301126114a6575f80fd5b8135818111156114b8576114b8611449565b604051601f8201601f19908116603f011681019083821181831017156114e0576114e0611449565b816040528281528860208487010111156114f8575f80fd5b826020860160208301375f6020848301015280955050505050509250929050565b5f5b8381101561153357818101518382015260200161151b565b50505f910152565b602081525f8251806020840152611559816040850160208701611519565b601f01601f19169190910160400192915050565b5f6020828403121561157d575f80fd5b81358060070b81146112f0575f80fd5b5f6020828403121561159d575f80fd5b5035919050565b5f602082840312156115b4575f80fd5b5051919050565b5f82516115cc818460208701611519565b9190910192915050565b5f602082840312156115e6575f80fd5b81518060030b81146112f0575f80fd5b5f60208284031215611606575f80fd5b815180151581146112f0575f80fdfe416464726573733a206c6f772d6c6576656c2064656c65676174652063616c6c206661696c6564a2646970667358221220b712f7e5db8867f2a697d81af5d1fd5f424e5d2ca94a329a02b215969fe8722e64736f6c63430008140033",
  "linkReferences": {},
  "deployedLinkReferences": {}
}