{
  "_format": "hh-sol-artifact-1",
  "contractName": "TokenTransferContract",
  "sourceName": "contracts/system-contracts/hedera-token-service/examples/token-transfer/TokenTransferContract.sol",
  "abi": [
    {
      "anonymous": false,
      "inputs": [
        {
          "indexed": false,
          "internalType": "bool",
          "name": "",
          "type": "bool"
        },
        {
          "indexed": false,
          "internalType": "bytes",
          "name": "",
          "type": "bytes"
        }
      ],
      "name": "CallResponseEvent",
      "type": "event"
    },
    {
      "anonymous": false,
      "inputs": [
        {
          "indexed": false,
          "internalType": "int256",
          "name": "responseCode",
          "type": "int256"
        }
      ],
      "name": "ResponseCode",
      "type": "event"
    },
    {
      "inputs": [
        {
          "internalType": "address",
          "name": "token",
          "type": "address"
        },
        {
          "internalType": "address",
          "name": "approved",
          "type": "address"
        },
        {
          "internalType": "uint256",
          "name": "serialNumber",
          "type": "uint256"
        }
      ],
      "name": "approveNFTPublic",
      "outputs": [
        {
          "internalType": "int256",
          "name": "responseCode",
          "type": "int256"
        }
      ],
      "stateMutability": "nonpayable",
      "type": "function"
    },
    {
      "inputs": [
        {
          "internalType": "address",
          "name": "token",
          "type": "address"
        },
        {
          "internalType": "address",
          "name": "spender",
          "type": "address"
        },
        {
          "internalType": "uint256",
          "name": "amount",
          "type": "uint256"
        }
      ],
      "name": "approvePublic",
      "outputs": [
        {
          "internalType": "int256",
          "name": "responseCode",
          "type": "int256"
        }
      ],
      "stateMutability": "nonpayable",
      "type": "function"
    },
    {
      "inputs": [
        {
          "internalType": "address",
          "name": "account",
          "type": "address"
        },
        {
          "internalType": "address",
          "name": "token",
          "type": "address"
        }
      ],
      "name": "associateTokenPublic",
      "outputs": [
        {
          "internalType": "int256",
          "name": "responseCode",
          "type": "int256"
        }
      ],
      "stateMutability": "nonpayable",
      "type": "function"
    },
    {
      "inputs": [
        {
          "components": [
            {
              "components": [
                {
                  "internalType": "address",
                  "name": "accountID",
                  "type": "address"
                },
                {
                  "internalType": "int64",
                  "name": "amount",
                  "type": "int64"
                },
                {
                  "internalType": "bool",
                  "name": "isApproval",
                  "type": "bool"
                }
              ],
              "internalType": "struct IHederaTokenService.AccountAmount[]",
              "name": "transfers",
              "type": "tuple[]"
            }
          ],
          "internalType": "struct IHederaTokenService.TransferList",
          "name": "transferList",
          "type": "tuple"
        },
        {
          "components": [
            {
              "internalType": "address",
              "name": "token",
              "type": "address"
            },
            {
              "components": [
                {
                  "internalType": "address",
                  "name": "accountID",
                  "type": "address"
                },
                {
                  "internalType": "int64",
                  "name": "amount",
                  "type": "int64"
                },
                {
                  "internalType": "bool",
                  "name": "isApproval",
                  "type": "bool"
                }
              ],
              "internalType": "struct IHederaTokenService.AccountAmount[]",
              "name": "transfers",
              "type": "tuple[]"
            },
            {
              "components": [
                {
                  "internalType": "address",
                  "name": "senderAccountID",
                  "type": "address"
                },
                {
                  "internalType": "address",
                  "name": "receiverAccountID",
                  "type": "address"
                },
                {
                  "internalType": "int64",
                  "name": "serialNumber",
                  "type": "int64"
                },
                {
                  "internalType": "bool",
                  "name": "isApproval",
                  "type": "bool"
                }
              ],
              "internalType": "struct IHederaTokenService.NftTransfer[]",
              "name": "nftTransfers",
              "type": "tuple[]"
            }
          ],
          "internalType": "struct IHederaTokenService.TokenTransferList[]",
          "name": "tokenTransferList",
          "type": "tuple[]"
        }
      ],
      "name": "cryptoTransferPublic",
      "outputs": [
        {
          "internalType": "int256",
          "name": "responseCode",
          "type": "int256"
        }
      ],
      "stateMutability": "nonpayable",
      "type": "function"
    },
    {
      "inputs": [
        {
          "internalType": "address",
          "name": "token",
          "type": "address"
        },
        {
          "internalType": "address",
          "name": "account",
          "type": "address"
        }
      ],
      "name": "grantTokenKycPublic",
      "outputs": [
        {
          "internalType": "int64",
          "name": "responseCode",
          "type": "int64"
        }
      ],
      "stateMutability": "nonpayable",
      "type": "function"
    },
    {
      "inputs": [
        {
          "internalType": "address",
          "name": "token",
          "type": "address"
        },
        {
          "internalType": "bytes",
          "name": "encodedFunctionSelector",
          "type": "bytes"
        }
      ],
      "name": "redirectForToken",
      "outputs": [
        {
          "internalType": "int256",
          "name": "responseCode",
          "type": "int256"
        },
        {
          "internalType": "bytes",
          "name": "response",
          "type": "bytes"
        }
      ],
      "stateMutability": "nonpayable",
      "type": "function"
    },
    {
      "inputs": [
        {
          "internalType": "address",
          "name": "token",
          "type": "address"
        },
        {
          "internalType": "address",
          "name": "operator",
          "type": "address"
        },
        {
          "internalType": "bool",
          "name": "approved",
          "type": "bool"
        }
      ],
      "name": "setApprovalForAllPublic",
      "outputs": [
        {
          "internalType": "int256",
          "name": "responseCode",
          "type": "int256"
        }
      ],
      "stateMutability": "nonpayable",
      "type": "function"
    },
    {
      "inputs": [
        {
          "internalType": "address",
          "name": "token",
          "type": "address"
        },
        {
          "internalType": "address",
          "name": "from",
          "type": "address"
        },
        {
          "internalType": "address",
          "name": "to",
          "type": "address"
        },
        {
          "internalType": "uint256",
          "name": "amount",
          "type": "uint256"
        }
      ],
      "name": "transferFrom",
      "outputs": [
        {
          "internalType": "int64",
          "name": "responseCode",
          "type": "int64"
        }
      ],
      "stateMutability": "nonpayable",
      "type": "function"
    },
    {
      "inputs": [
        {
          "internalType": "address",
          "name": "token",
          "type": "address"
        },
        {
          "internalType": "address",
          "name": "from",
          "type": "address"
        },
        {
          "internalType": "address",
          "name": "to",
          "type": "address"
        },
        {
          "internalType": "uint256",
          "name": "serialNumber",
          "type": "uint256"
        }
      ],
      "name": "transferFromNFT",
      "outputs": [
        {
          "internalType": "int64",
          "name": "responseCode",
          "type": "int64"
        }
      ],
      "stateMutability": "nonpayable",
      "type": "function"
    },
    {
      "inputs": [
        {
          "internalType": "address",
          "name": "token",
          "type": "address"
        },
        {
          "internalType": "address",
          "name": "from",
          "type": "address"
        },
        {
          "internalType": "address",
          "name": "to",
          "type": "address"
        },
        {
          "internalType": "uint256",
          "name": "serialNumber",
          "type": "uint256"
        }
      ],
      "name": "transferFromNFTPublic",
      "outputs": [
        {
          "internalType": "int64",
          "name": "responseCode",
          "type": "int64"
        }
      ],
      "stateMutability": "nonpayable",
      "type": "function"
    },
    {
      "inputs": [
        {
          "internalType": "address",
          "name": "token",
          "type": "address"
        },
        {
          "internalType": "address",
          "name": "from",
          "type": "address"
        },
        {
          "internalType": "address",
          "name": "to",
          "type": "address"
        },
        {
          "internalType": "uint256",
          "name": "amount",
          "type": "uint256"
        }
      ],
      "name": "transferFromPublic",
      "outputs": [
        {
          "internalType": "int64",
          "name": "responseCode",
          "type": "int64"
        }
      ],
      "stateMutability": "nonpayable",
      "type": "function"
    },
    {
      "inputs": [
        {
          "internalType": "address",
          "name": "token",
          "type": "address"
        },
        {
          "internalType": "address",
          "name": "sender",
          "type": "address"
        },
        {
          "internalType": "address",
          "name": "receiver",
          "type": "address"
        },
        {
          "internalType": "int64",
          "name": "serialNumber",
          "type": "int64"
        }
      ],
      "name": "transferNFTPublic",
      "outputs": [
        {
          "internalType": "int256",
          "name": "responseCode",
          "type": "int256"
        }
      ],
      "stateMutability": "nonpayable",
      "type": "function"
    },
    {
      "inputs": [
        {
          "internalType": "address",
          "name": "token",
          "type": "address"
        },
        {
          "internalType": "address[]",
          "name": "sender",
          "type": "address[]"
        },
        {
          "internalType": "address[]",
          "name": "receiver",
          "type": "address[]"
        },
        {
          "internalType": "int64[]",
          "name": "serialNumber",
          "type": "int64[]"
        }
      ],
      "name": "transferNFTsPublic",
      "outputs": [
        {
          "internalType": "int256",
          "name": "responseCode",
          "type": "int256"
        }
      ],
      "stateMutability": "nonpayable",
      "type": "function"
    },
    {
      "inputs": [
        {
          "internalType": "address",
          "name": "token",
          "type": "address"
        },
        {
          "internalType": "address",
          "name": "sender",
          "type": "address"
        },
        {
          "internalType": "address",
          "name": "receiver",
          "type": "address"
        },
        {
          "internalType": "int64",
          "name": "amount",
          "type": "int64"
        }
      ],
      "name": "transferTokenPublic",
      "outputs": [
        {
          "internalType": "int256",
          "name": "responseCode",
          "type": "int256"
        }
      ],
      "stateMutability": "nonpayable",
      "type": "function"
    },
    {
      "inputs": [
        {
          "internalType": "address",
          "name": "token",
          "type": "address"
        },
        {
          "internalType": "address[]",
          "name": "accountId",
          "type": "address[]"
        },
        {
          "internalType": "int64[]",
          "name": "amount",
          "type": "int64[]"
        }
      ],
      "name": "transferTokensPublic",
      "outputs": [
        {
          "internalType": "int256",
          "name": "responseCode",
          "type": "int256"
        }
      ],
      "stateMutability": "nonpayable",
      "type": "function"
    }
  ],
  "bytecode": "0x608060405234801561000f575f80fd5b50600160208181527fa6eef7e35abe7026729641147f7915573c7e97b47efa546f5f6e3230263bcb499190915560027fcc69885fda6bcc1a4ace058b4a62bf5e179ea78fd58a1ccd71c22cc9b688792f5560047fd9d16d34ffb15ba3a3d852f0d403e2ce1d691fb54de27ac87cd2f993f3ec330f5560087f7dfe757ecd65cbd7922a9c0161e935dd7fdbcc0e999689c7d31633896b1fc60b5560107fedc95719e9a3b28dd8e80877cb5880a9be7de1a13fc8b05e7999683b6b567643557fe2689cd4a84e23ad2f564004f1c9013e9589d260bde6380aba3ca7e09e4df40c5560065f5260407f8f331abe73332f95a25873e8b430885974c0409691f89d643119a11623a7924a55611628806101235f395ff3fe608060405234801561000f575f80fd5b50600436106100f0575f3560e01c8063842b71db11610093578063df6c06f511610063578063df6c06f5146101f9578063f25b12001461020c578063f4a01e5b1461021f578063f848fec414610232575f80fd5b8063842b71db146101ad578063970e23d2146101c05780639b23d3d9146101d3578063cc2528f0146101e6575f80fd5b806358131551116100ce5780635813155114610153578063618dc65e146101665780636c40a777146101875780636da6b1f01461019a575f80fd5b80630fd2601e146100f457806315dacbea1461011f5780634ba6703514610132575b5f80fd5b610107610102366004610aff565b610245565b60405160079190910b81526020015b60405180910390f35b61010761012d366004610b30565b6102a0565b610145610140366004610b89565b61038f565b604051908152602001610116565b610145610161366004610d68565b6103eb565b610179610174366004610dd7565b610445565b604051610116929190610ec4565b610107610195366004610b30565b61055c565b6101456101a8366004610b89565b610627565b6101076101bb366004610b30565b610634565b6101456101ce366004610edc565b610679565b6101076101e1366004610b30565b610695565b6101456101f4366004610f75565b6106d9565b610145610207366004611008565b6106e6565b61014561021a366004611050565b6106f2565b61014561022d366004610aff565b6106fe565b610145610240366004611008565b610750565b5f610250838361075c565b604051600782900b81529091507f90a5cf4cffe88b4edbb041cfc7a8a812c48a5ec30b84640fb37690875168e3aa9060200160405180910390a1600781900b60161461029a575f80fd5b92915050565b6040516001600160a01b038581166024830152848116604483015283166064820152608481018290525f908190819061016790630aed65f560e11b9060a4015b60408051601f198184030181529181526020820180516001600160e01b03166001600160e01b031990941693909317909252905161031e9190611090565b5f604051808303815f865af19150503d805f8114610357576040519150601f19603f3d011682016040523d82523d5f602084013e61035c565b606091505b50915091508161036d576015610381565b8080602001905181019061038191906110ab565b60030b979650505050505050565b5f61039c8585858561083a565b90507f90a5cf4cffe88b4edbb041cfc7a8a812c48a5ec30b84640fb37690875168e3aa816040516103cf91815260200190565b60405180910390a1601681146103e3575f80fd5b949350505050565b5f6103f7848484610881565b90507f90a5cf4cffe88b4edbb041cfc7a8a812c48a5ec30b84640fb37690875168e3aa8160405161042a91815260200190565b60405180910390a16016811461043e575f80fd5b9392505050565b5f60605f806101676001600160a01b031663618dc65e60e01b87876040516024016104719291906110cb565b60408051601f198184030181529181526020820180516001600160e01b03166001600160e01b03199094169390931790925290516104af9190611090565b5f604051808303815f865af19150503d805f81146104e8576040519150601f19603f3d011682016040523d82523d5f602084013e6104ed565b606091505b50915091507f4af4780e06fe8cb9df64b0794fa6f01399af979175bb988e35e0e57e594567bc82826040516105239291906110ec565b60405180910390a18161054657601560405180602001604052805f81525061054a565b6016815b60039190910b97909650945050505050565b604051639b23d3d960e01b81526001600160a01b038086166004830152808516602483015283166044820152606481018290525f903090639b23d3d9906084015b6020604051808303815f875af11580156105b9573d5f803e3d5ffd5b505050506040513d601f19601f820116820180604052508101906105dd9190611106565b604051600782900b81529091507f90a5cf4cffe88b4edbb041cfc7a8a812c48a5ec30b84640fb37690875168e3aa9060200160405180910390a1600781900b6016146103e3575f80fd5b5f61039c8585858561095b565b604051630aed65f560e11b81526001600160a01b038086166004830152808516602483015283166044820152606481018290525f9030906315dacbea9060840161059d565b5f6103f7610686856111c7565b6106908486611225565b6109a2565b6040516001600160a01b038581166024830152848116604483015283166064820152608481018290525f908190819061016790639b23d3d960e01b9060a4016102e0565b5f61039c858585856109cc565b5f6103f78484846109fa565b5f6103f7848484610a36565b5f6107098383610a73565b90507f90a5cf4cffe88b4edbb041cfc7a8a812c48a5ec30b84640fb37690875168e3aa8160405161073c91815260200190565b60405180910390a16016811461029a575f80fd5b5f6103f7848484610aa8565b6040516001600160a01b038381166024830152821660448201525f908190819061016790638f8d7f9960e01b906064015b60408051601f198184030181529181526020820180516001600160e01b03166001600160e01b03199094169390931790925290516107cb9190611090565b5f604051808303815f865af19150503d805f8114610804576040519150601f19603f3d011682016040523d82523d5f602084013e610809565b606091505b50915091508161081a57601561082e565b8080602001905181019061082e91906110ab565b60030b95945050505050565b6040516001600160a01b038581166024830152848116604483015283166064820152600782900b60848201525f90819081906101679063eca3691760e01b9060a4016102e0565b5f805f6101676001600160a01b03166382bba49360e01b8787876040516024016108ad93929190611415565b60408051601f198184030181529181526020820180516001600160e01b03166001600160e01b03199094169390931790925290516108eb9190611090565b5f604051808303815f865af19150503d805f8114610924576040519150601f19603f3d011682016040523d82523d5f602084013e610929565b606091505b50915091508161093a57601561094e565b8080602001905181019061094e91906110ab565b60030b9695505050505050565b6040516001600160a01b038581166024830152848116604483015283166064820152600782900b60848201525f908190819061016790635cfc901160e01b9060a4016102e0565b5f805f6101676001600160a01b0316630e71804f60e01b868660405160240161078d9291906114a5565b5f805f6101676001600160a01b0316632c4ba19160e01b888888886040516024016102e094939291906115a0565b6040516001600160a01b03848116602483015283166044820152606481018290525f9081908190610167906307336aaf60e41b906084016108ad565b6040516001600160a01b0384811660248301528316604482015281151560648201525f908190819061016790631b3b02e560e11b906084016108ad565b6040516001600160a01b038381166024830152821660448201525f90819081906101679063248a35ef60e11b9060640161078d565b6040516001600160a01b03848116602483015283166044820152606481018290525f90819081906101679063e1f21c6760e01b906084016108ad565b80356001600160a01b0381168114610afa575f80fd5b919050565b5f8060408385031215610b10575f80fd5b610b1983610ae4565b9150610b2760208401610ae4565b90509250929050565b5f805f8060808587031215610b43575f80fd5b610b4c85610ae4565b9350610b5a60208601610ae4565b9250610b6860408601610ae4565b9396929550929360600135925050565b8060070b8114610b86575f80fd5b50565b5f805f8060808587031215610b9c575f80fd5b610ba585610ae4565b9350610bb360208601610ae4565b9250610bc160408601610ae4565b91506060850135610bd181610b78565b939692955090935050565b634e487b7160e01b5f52604160045260245ffd5b6040516060810167ffffffffffffffff81118282101715610c1357610c13610bdc565b60405290565b6040516080810167ffffffffffffffff81118282101715610c1357610c13610bdc565b604051601f8201601f1916810167ffffffffffffffff81118282101715610c6557610c65610bdc565b604052919050565b5f67ffffffffffffffff821115610c8657610c86610bdc565b5060051b60200190565b5f82601f830112610c9f575f80fd5b81356020610cb4610caf83610c6d565b610c3c565b8083825260208201915060208460051b870101935086841115610cd5575f80fd5b602086015b84811015610cf857610ceb81610ae4565b8352918301918301610cda565b509695505050505050565b5f82601f830112610d12575f80fd5b81356020610d22610caf83610c6d565b8083825260208201915060208460051b870101935086841115610d43575f80fd5b602086015b84811015610cf8578035610d5b81610b78565b8352918301918301610d48565b5f805f60608486031215610d7a575f80fd5b610d8384610ae4565b9250602084013567ffffffffffffffff80821115610d9f575f80fd5b610dab87838801610c90565b93506040860135915080821115610dc0575f80fd5b50610dcd86828701610d03565b9150509250925092565b5f8060408385031215610de8575f80fd5b610df183610ae4565b915060208084013567ffffffffffffffff80821115610e0e575f80fd5b818601915086601f830112610e21575f80fd5b813581811115610e3357610e33610bdc565b610e45601f8201601f19168501610c3c565b91508082528784828501011115610e5a575f80fd5b80848401858401375f848284010152508093505050509250929050565b5f5b83811015610e91578181015183820152602001610e79565b50505f910152565b5f8151808452610eb0816020860160208601610e77565b601f01601f19169290920160200192915050565b828152604060208201525f6103e36040830184610e99565b5f805f60408486031215610eee575f80fd5b833567ffffffffffffffff80821115610f05575f80fd5b9085019060208288031215610f18575f80fd5b90935060208501359080821115610f2d575f80fd5b818601915086601f830112610f40575f80fd5b813581811115610f4e575f80fd5b8760208260051b8501011115610f62575f80fd5b6020830194508093505050509250925092565b5f805f8060808587031215610f88575f80fd5b610f9185610ae4565b9350602085013567ffffffffffffffff80821115610fad575f80fd5b610fb988838901610c90565b94506040870135915080821115610fce575f80fd5b610fda88838901610c90565b93506060870135915080821115610fef575f80fd5b50610ffc87828801610d03565b91505092959194509250565b5f805f6060848603121561101a575f80fd5b61102384610ae4565b925061103160208501610ae4565b9150604084013590509250925092565b80358015158114610afa575f80fd5b5f805f60608486031215611062575f80fd5b61106b84610ae4565b925061107960208501610ae4565b915061108760408501611041565b90509250925092565b5f82516110a1818460208701610e77565b9190910192915050565b5f602082840312156110bb575f80fd5b81518060030b811461043e575f80fd5b6001600160a01b0383168152604060208201525f6103e36040830184610e99565b8215158152604060208201525f6103e36040830184610e99565b5f60208284031215611116575f80fd5b815161043e81610b78565b5f82601f830112611130575f80fd5b81356020611140610caf83610c6d565b8281526060928302850182019282820191908785111561115e575f80fd5b8387015b858110156111ba5781818a031215611178575f80fd5b611180610bf0565b61118982610ae4565b81528582013561119881610b78565b8187015260406111a9838201611041565b908201528452928401928101611162565b5090979650505050505050565b5f602082360312156111d7575f80fd5b6040516020810167ffffffffffffffff82821081831117156111fb576111fb610bdc565b81604052843591508082111561120f575f80fd5b5061121c36828601611121565b82525092915050565b5f611232610caf84610c6d565b80848252602080830192508560051b85013681111561124f575f80fd5b855b8181101561139457803567ffffffffffffffff80821115611270575f80fd5b81890191506060808336031215611285575f80fd5b61128d610bf0565b61129684610ae4565b815286840135838111156112a8575f80fd5b6112b436828701611121565b8883015250604080850135848111156112cb575f80fd5b949094019336601f8601126112de575f80fd5b843593506112ee610caf85610c6d565b84815260079490941b8501880193888101903686111561130c575f80fd5b958901955b8587101561137c5760808736031215611328575f80fd5b611330610c19565b61133988610ae4565b81526113468b8901610ae4565b8b8201528388013561135781610b78565b81850152611366888701611041565b8187015282526080969096019590890190611311565b91830191909152508852505050938201938201611251565b50919695505050505050565b5f815180845260208085019450602084015f5b838110156113d85781516001600160a01b0316875295820195908201906001016113b3565b509495945050505050565b5f815180845260208085019450602084015f5b838110156113d857815160070b875295820195908201906001016113f6565b6001600160a01b0384168152606060208201525f61143660608301856113a0565b828103604084015261144881856113e3565b9695505050505050565b5f815180845260208085019450602084015f5b838110156113d857815180516001600160a01b031688528381015160070b8489015260409081015115159088015260609096019590820190600101611465565b5f604080835260608551602080848701526114c36060870183611452565b9150858203818701528187518084528284019150828160051b850101838a015f5b8381101561158f57601f1987840301855281516001600160a01b03808251168552878201518a8987015261151a8b870182611452565b928c0151868403878e01528051808552908a01935f92508a01905b808310156115795784518051851683528b81015185168c8401528e81015160070b8f8401528d015115158d830152938a019360019290920191608090910190611535565b50978901979550505091860191506001016114e4565b50909b9a5050505050505050505050565b6001600160a01b0385168152608060208201525f6115c160808301866113a0565b82810360408401526115d381866113a0565b905082810360608401526115e781856113e3565b97965050505050505056fea26469706673582212201232ca81e6bf1332a0680489aeaeb6306585daf34429953dda911d350fcd192464736f6c63430008180033",
  "linkReferences": {},
  "deployedLinkReferences": {}
}