{
  "_format": "hh-sol-artifact-1",
  "contractName": "MessageFrameAddresses",
  "sourceName": "contracts/solidity/transaction/MessageFrameAddresses.sol",
  "abi": [
    {
      "inputs": [],
      "name": "getMsgSender",
      "outputs": [
        {
          "internalType": "address",
          "name": "",
          "type": "address"
        }
      ],
      "stateMutability": "view",
      "type": "function"
    },
    {
      "inputs": [],
      "name": "getTxOrigin",
      "outputs": [
        {
          "internalType": "address",
          "name": "",
          "type": "address"
        }
      ],
      "stateMutability": "view",
      "type": "function"
    }
  ],
  "bytecode": "0x6080604052348015600f57600080fd5b50609d8061001e6000396000f3fe6080604052348015600f57600080fd5b506004361060325760003560e01c80637a6ce2e1146037578063b8077e28146062575b600080fd5b335b60405173ffffffffffffffffffffffffffffffffffffffff909116815260200160405180910390f35b32603956fea2646970667358221220b57571be7157f801042d233b611bc11d2d202e3ea927ba14ecbba8b44680cf6f64736f6c63430008170033",
  "linkReferences": {},
  "deployedLinkReferences": {}
}