{
  "_format": "hh-sol-artifact-1",
  "contractName": "MessageFrameAddresses",
  "sourceName": "contracts/solidity/transaction/MessageFrameAddresses.sol",
  "abi": [
    {
      "inputs": [],
      "name": "getMsgSender",
      "outputs": [
        {
          "internalType": "address",
          "name": "",
          "type": "address"
        }
      ],
      "stateMutability": "view",
      "type": "function"
    },
    {
      "inputs": [],
      "name": "getTxOrigin",
      "outputs": [
        {
          "internalType": "address",
          "name": "",
          "type": "address"
        }
      ],
      "stateMutability": "view",
      "type": "function"
    }
  ],
  "bytecode": "0x6080604052348015600f57600080fd5b50609d8061001e6000396000f3fe6080604052348015600f57600080fd5b506004361060325760003560e01c80637a6ce2e1146037578063b8077e28146062575b600080fd5b335b60405173ffffffffffffffffffffffffffffffffffffffff909116815260200160405180910390f35b32603956fea26469706673582212206994aad452e69fef13a205486135b8c58fd244ead124b2ba0a5469ac612d31a964736f6c63430008180033",
  "linkReferences": {},
  "deployedLinkReferences": {}
}