{
  "_format": "hh-sol-artifact-1",
  "contractName": "ERC20PausableMock",
  "sourceName": "contracts/openzeppelin/ERC-20-extensions/ERC20Extensions.sol",
  "abi": [
    {
      "inputs": [
        {
          "internalType": "string",
          "name": "name",
          "type": "string"
        },
        {
          "internalType": "string",
          "name": "symbol",
          "type": "string"
        }
      ],
      "stateMutability": "nonpayable",
      "type": "constructor"
    },
    {
      "inputs": [
        {
          "internalType": "address",
          "name": "spender",
          "type": "address"
        },
        {
          "internalType": "uint256",
          "name": "allowance",
          "type": "uint256"
        },
        {
          "internalType": "uint256",
          "name": "needed",
          "type": "uint256"
        }
      ],
      "name": "ERC20InsufficientAllowance",
      "type": "error"
    },
    {
      "inputs": [
        {
          "internalType": "address",
          "name": "sender",
          "type": "address"
        },
        {
          "internalType": "uint256",
          "name": "balance",
          "type": "uint256"
        },
        {
          "internalType": "uint256",
          "name": "needed",
          "type": "uint256"
        }
      ],
      "name": "ERC20InsufficientBalance",
      "type": "error"
    },
    {
      "inputs": [
        {
          "internalType": "address",
          "name": "approver",
          "type": "address"
        }
      ],
      "name": "ERC20InvalidApprover",
      "type": "error"
    },
    {
      "inputs": [
        {
          "internalType": "address",
          "name": "receiver",
          "type": "address"
        }
      ],
      "name": "ERC20InvalidReceiver",
      "type": "error"
    },
    {
      "inputs": [
        {
          "internalType": "address",
          "name": "sender",
          "type": "address"
        }
      ],
      "name": "ERC20InvalidSender",
      "type": "error"
    },
    {
      "inputs": [
        {
          "internalType": "address",
          "name": "spender",
          "type": "address"
        }
      ],
      "name": "ERC20InvalidSpender",
      "type": "error"
    },
    {
      "inputs": [],
      "name": "EnforcedPause",
      "type": "error"
    },
    {
      "inputs": [],
      "name": "ExpectedPause",
      "type": "error"
    },
    {
      "inputs": [
        {
          "internalType": "address",
          "name": "owner",
          "type": "address"
        }
      ],
      "name": "OwnableInvalidOwner",
      "type": "error"
    },
    {
      "inputs": [
        {
          "internalType": "address",
          "name": "account",
          "type": "address"
        }
      ],
      "name": "OwnableUnauthorizedAccount",
      "type": "error"
    },
    {
      "anonymous": false,
      "inputs": [
        {
          "indexed": true,
          "internalType": "address",
          "name": "owner",
          "type": "address"
        },
        {
          "indexed": true,
          "internalType": "address",
          "name": "spender",
          "type": "address"
        },
        {
          "indexed": false,
          "internalType": "uint256",
          "name": "value",
          "type": "uint256"
        }
      ],
      "name": "Approval",
      "type": "event"
    },
    {
      "anonymous": false,
      "inputs": [
        {
          "indexed": true,
          "internalType": "address",
          "name": "previousOwner",
          "type": "address"
        },
        {
          "indexed": true,
          "internalType": "address",
          "name": "newOwner",
          "type": "address"
        }
      ],
      "name": "OwnershipTransferred",
      "type": "event"
    },
    {
      "anonymous": false,
      "inputs": [
        {
          "indexed": false,
          "internalType": "address",
          "name": "account",
          "type": "address"
        }
      ],
      "name": "Paused",
      "type": "event"
    },
    {
      "anonymous": false,
      "inputs": [
        {
          "indexed": true,
          "internalType": "address",
          "name": "from",
          "type": "address"
        },
        {
          "indexed": true,
          "internalType": "address",
          "name": "to",
          "type": "address"
        },
        {
          "indexed": false,
          "internalType": "uint256",
          "name": "value",
          "type": "uint256"
        }
      ],
      "name": "Transfer",
      "type": "event"
    },
    {
      "anonymous": false,
      "inputs": [
        {
          "indexed": false,
          "internalType": "address",
          "name": "account",
          "type": "address"
        }
      ],
      "name": "Unpaused",
      "type": "event"
    },
    {
      "inputs": [
        {
          "internalType": "address",
          "name": "owner",
          "type": "address"
        },
        {
          "internalType": "address",
          "name": "spender",
          "type": "address"
        }
      ],
      "name": "allowance",
      "outputs": [
        {
          "internalType": "uint256",
          "name": "",
          "type": "uint256"
        }
      ],
      "stateMutability": "view",
      "type": "function"
    },
    {
      "inputs": [
        {
          "internalType": "address",
          "name": "spender",
          "type": "address"
        },
        {
          "internalType": "uint256",
          "name": "value",
          "type": "uint256"
        }
      ],
      "name": "approve",
      "outputs": [
        {
          "internalType": "bool",
          "name": "",
          "type": "bool"
        }
      ],
      "stateMutability": "nonpayable",
      "type": "function"
    },
    {
      "inputs": [
        {
          "internalType": "address",
          "name": "account",
          "type": "address"
        }
      ],
      "name": "balanceOf",
      "outputs": [
        {
          "internalType": "uint256",
          "name": "",
          "type": "uint256"
        }
      ],
      "stateMutability": "view",
      "type": "function"
    },
    {
      "inputs": [],
      "name": "decimals",
      "outputs": [
        {
          "internalType": "uint8",
          "name": "",
          "type": "uint8"
        }
      ],
      "stateMutability": "view",
      "type": "function"
    },
    {
      "inputs": [
        {
          "internalType": "address",
          "name": "to",
          "type": "address"
        },
        {
          "internalType": "uint256",
          "name": "amount",
          "type": "uint256"
        }
      ],
      "name": "mint",
      "outputs": [],
      "stateMutability": "nonpayable",
      "type": "function"
    },
    {
      "inputs": [],
      "name": "name",
      "outputs": [
        {
          "internalType": "string",
          "name": "",
          "type": "string"
        }
      ],
      "stateMutability": "view",
      "type": "function"
    },
    {
      "inputs": [],
      "name": "owner",
      "outputs": [
        {
          "internalType": "address",
          "name": "",
          "type": "address"
        }
      ],
      "stateMutability": "view",
      "type": "function"
    },
    {
      "inputs": [],
      "name": "pause",
      "outputs": [],
      "stateMutability": "nonpayable",
      "type": "function"
    },
    {
      "inputs": [],
      "name": "paused",
      "outputs": [
        {
          "internalType": "bool",
          "name": "",
          "type": "bool"
        }
      ],
      "stateMutability": "view",
      "type": "function"
    },
    {
      "inputs": [],
      "name": "renounceOwnership",
      "outputs": [],
      "stateMutability": "nonpayable",
      "type": "function"
    },
    {
      "inputs": [],
      "name": "symbol",
      "outputs": [
        {
          "internalType": "string",
          "name": "",
          "type": "string"
        }
      ],
      "stateMutability": "view",
      "type": "function"
    },
    {
      "inputs": [],
      "name": "totalSupply",
      "outputs": [
        {
          "internalType": "uint256",
          "name": "",
          "type": "uint256"
        }
      ],
      "stateMutability": "view",
      "type": "function"
    },
    {
      "inputs": [
        {
          "internalType": "address",
          "name": "to",
          "type": "address"
        },
        {
          "internalType": "uint256",
          "name": "value",
          "type": "uint256"
        }
      ],
      "name": "transfer",
      "outputs": [
        {
          "internalType": "bool",
          "name": "",
          "type": "bool"
        }
      ],
      "stateMutability": "nonpayable",
      "type": "function"
    },
    {
      "inputs": [
        {
          "internalType": "address",
          "name": "from",
          "type": "address"
        },
        {
          "internalType": "address",
          "name": "to",
          "type": "address"
        },
        {
          "internalType": "uint256",
          "name": "value",
          "type": "uint256"
        }
      ],
      "name": "transferFrom",
      "outputs": [
        {
          "internalType": "bool",
          "name": "",
          "type": "bool"
        }
      ],
      "stateMutability": "nonpayable",
      "type": "function"
    },
    {
      "inputs": [
        {
          "internalType": "address",
          "name": "newOwner",
          "type": "address"
        }
      ],
      "name": "transferOwnership",
      "outputs": [],
      "stateMutability": "nonpayable",
      "type": "function"
    },
    {
      "inputs": [],
      "name": "unpause",
      "outputs": [],
      "stateMutability": "nonpayable",
      "type": "function"
    }
  ],
  "bytecode": "0x60806040523480156200001157600080fd5b5060405162000de538038062000de58339810160408190526200003491620001c6565b3382826003620000458382620002c1565b506004620000548282620002c1565b50506005805460ff19169055506001600160a01b0381166200009057604051631e4fbdf760e01b81526000600482015260240160405180910390fd5b6200009b81620000a4565b5050506200038d565b600580546001600160a01b03838116610100818102610100600160a81b031985161790945560405193909204169182907f8be0079c531659141344cd1fd0a4f28419497f9722a3daafe3b4186f6b6457e090600090a35050565b634e487b7160e01b600052604160045260246000fd5b600082601f8301126200012657600080fd5b81516001600160401b0380821115620001435762000143620000fe565b604051601f8301601f19908116603f011681019082821181831017156200016e576200016e620000fe565b81604052838152602092508660208588010111156200018c57600080fd5b600091505b83821015620001b0578582018301518183018401529082019062000191565b6000602085830101528094505050505092915050565b60008060408385031215620001da57600080fd5b82516001600160401b0380821115620001f257600080fd5b620002008683870162000114565b935060208501519150808211156200021757600080fd5b50620002268582860162000114565b9150509250929050565b600181811c908216806200024557607f821691505b6020821081036200026657634e487b7160e01b600052602260045260246000fd5b50919050565b601f821115620002bc576000816000526020600020601f850160051c81016020861015620002975750805b601f850160051c820191505b81811015620002b857828155600101620002a3565b5050505b505050565b81516001600160401b03811115620002dd57620002dd620000fe565b620002f581620002ee845462000230565b846200026c565b602080601f8311600181146200032d5760008415620003145750858301515b600019600386901b1c1916600185901b178555620002b8565b600085815260208120601f198616915b828110156200035e578886015182559484019460019091019084016200033d565b50858210156200037d5787850151600019600388901b60f8161c191681555b5050505050600190811b01905550565b610a48806200039d6000396000f3fe608060405234801561001057600080fd5b50600436106101005760003560e01c806370a082311161009757806395d89b411161006657806395d89b4114610204578063a9059cbb1461020c578063dd62ed3e1461021f578063f2fde38b1461025857600080fd5b806370a08231146101a2578063715018a6146101cb5780638456cb59146101d35780638da5cb5b146101db57600080fd5b8063313ce567116100d3578063313ce5671461016b5780633f4ba83a1461017a57806340c10f19146101845780635c975abb1461019757600080fd5b806306fdde0314610105578063095ea7b31461012357806318160ddd1461014657806323b872dd14610158575b600080fd5b61010d61026b565b60405161011a9190610891565b60405180910390f35b6101366101313660046108fc565b6102fd565b604051901515815260200161011a565b6002545b60405190815260200161011a565b610136610166366004610926565b610317565b6040516012815260200161011a565b61018261033b565b005b6101826101923660046108fc565b61034d565b60055460ff16610136565b61014a6101b0366004610962565b6001600160a01b031660009081526020819052604090205490565b610182610368565b61018261037a565b60055461010090046001600160a01b03166040516001600160a01b03909116815260200161011a565b61010d61038a565b61013661021a3660046108fc565b610399565b61014a61022d366004610984565b6001600160a01b03918216600090815260016020908152604080832093909416825291909152205490565b610182610266366004610962565b6103a7565b60606003805461027a906109b7565b80601f01602080910402602001604051908101604052809291908181526020018280546102a6906109b7565b80156102f35780601f106102c8576101008083540402835291602001916102f3565b820191906000526020600020905b8154815290600101906020018083116102d657829003601f168201915b5050505050905090565b60003361030b8185856103ea565b60019150505b92915050565b6000336103258582856103fc565b61033085858561047a565b506001949350505050565b6103436104d9565b61034b61050c565b565b6000811161035a57600080fd5b610364828261055e565b5050565b6103706104d9565b61034b6000610594565b6103826104d9565b61034b6105fb565b60606004805461027a906109b7565b60003361030b81858561047a565b6103af6104d9565b6001600160a01b0381166103de57604051631e4fbdf760e01b8152600060048201526024015b60405180910390fd5b6103e781610594565b50565b6103f78383836001610638565b505050565b6001600160a01b038381166000908152600160209081526040808320938616835292905220546000198114610474578181101561046557604051637dc7a0d960e11b81526001600160a01b038416600482015260248101829052604481018390526064016103d5565b61047484848484036000610638565b50505050565b6001600160a01b0383166104a457604051634b637e8f60e11b8152600060048201526024016103d5565b6001600160a01b0382166104ce5760405163ec442f0560e01b8152600060048201526024016103d5565b6103f783838361070d565b6005546001600160a01b0361010090910416331461034b5760405163118cdaa760e01b81523360048201526024016103d5565b610514610720565b6005805460ff191690557f5db9ee0a495bf2e6ff9c91a7834c1ba4fdd244a5e8aa4e537bd38aeae4b073aa335b6040516001600160a01b03909116815260200160405180910390a1565b6001600160a01b0382166105885760405163ec442f0560e01b8152600060048201526024016103d5565b6103646000838361070d565b600580546001600160a01b0383811661010081810274ffffffffffffffffffffffffffffffffffffffff001985161790945560405193909204169182907f8be0079c531659141344cd1fd0a4f28419497f9722a3daafe3b4186f6b6457e090600090a35050565b610603610743565b6005805460ff191660011790557f62e78cea01bee320cd4e420270b5ea74000d11b0c9f74754ebdbfc544b05a2586105413390565b6001600160a01b0384166106625760405163e602df0560e01b8152600060048201526024016103d5565b6001600160a01b03831661068c57604051634a1406b160e11b8152600060048201526024016103d5565b6001600160a01b038085166000908152600160209081526040808320938716835292905220829055801561047457826001600160a01b0316846001600160a01b03167f8c5be1e5ebec7d5bd14f71427d1e84f3dd0314c0f7b2291e5b200ac8c7c3b925846040516106ff91815260200190565b60405180910390a350505050565b610715610743565b6103f7838383610767565b60055460ff1661034b57604051638dfc202b60e01b815260040160405180910390fd5b60055460ff161561034b5760405163d93c066560e01b815260040160405180910390fd5b6001600160a01b03831661079257806002600082825461078791906109f1565b909155506108049050565b6001600160a01b038316600090815260208190526040902054818110156107e55760405163391434e360e21b81526001600160a01b038516600482015260248101829052604481018390526064016103d5565b6001600160a01b03841660009081526020819052604090209082900390555b6001600160a01b0382166108205760028054829003905561083f565b6001600160a01b03821660009081526020819052604090208054820190555b816001600160a01b0316836001600160a01b03167fddf252ad1be2c89b69c2b068fc378daa952ba7f163c4a11628f55a4df523b3ef8360405161088491815260200190565b60405180910390a3505050565b60006020808352835180602085015260005b818110156108bf578581018301518582016040015282016108a3565b506000604082860101526040601f19601f8301168501019250505092915050565b80356001600160a01b03811681146108f757600080fd5b919050565b6000806040838503121561090f57600080fd5b610918836108e0565b946020939093013593505050565b60008060006060848603121561093b57600080fd5b610944846108e0565b9250610952602085016108e0565b9150604084013590509250925092565b60006020828403121561097457600080fd5b61097d826108e0565b9392505050565b6000806040838503121561099757600080fd5b6109a0836108e0565b91506109ae602084016108e0565b90509250929050565b600181811c908216806109cb57607f821691505b6020821081036109eb57634e487b7160e01b600052602260045260246000fd5b50919050565b8082018082111561031157634e487b7160e01b600052601160045260246000fdfea2646970667358221220b5c0224d11ef41cdeebd88096d1be971ec5db175fe1ef4ee9fcfa70a00bb1d2764736f6c63430008170033",
  "linkReferences": {},
  "deployedLinkReferences": {}
}