{
  "_format": "hh-sol-artifact-1",
  "contractName": "ERC20CappedMock",
  "sourceName": "contracts/openzeppelin/ERC-20-extensions/ERC20Extensions.sol",
  "abi": [
    {
      "inputs": [
        {
          "internalType": "string",
          "name": "name",
          "type": "string"
        },
        {
          "internalType": "string",
          "name": "symbol",
          "type": "string"
        },
        {
          "internalType": "uint256",
          "name": "cap",
          "type": "uint256"
        }
      ],
      "stateMutability": "nonpayable",
      "type": "constructor"
    },
    {
      "inputs": [
        {
          "internalType": "uint256",
          "name": "increasedSupply",
          "type": "uint256"
        },
        {
          "internalType": "uint256",
          "name": "cap",
          "type": "uint256"
        }
      ],
      "name": "ERC20ExceededCap",
      "type": "error"
    },
    {
      "inputs": [
        {
          "internalType": "address",
          "name": "spender",
          "type": "address"
        },
        {
          "internalType": "uint256",
          "name": "allowance",
          "type": "uint256"
        },
        {
          "internalType": "uint256",
          "name": "needed",
          "type": "uint256"
        }
      ],
      "name": "ERC20InsufficientAllowance",
      "type": "error"
    },
    {
      "inputs": [
        {
          "internalType": "address",
          "name": "sender",
          "type": "address"
        },
        {
          "internalType": "uint256",
          "name": "balance",
          "type": "uint256"
        },
        {
          "internalType": "uint256",
          "name": "needed",
          "type": "uint256"
        }
      ],
      "name": "ERC20InsufficientBalance",
      "type": "error"
    },
    {
      "inputs": [
        {
          "internalType": "address",
          "name": "approver",
          "type": "address"
        }
      ],
      "name": "ERC20InvalidApprover",
      "type": "error"
    },
    {
      "inputs": [
        {
          "internalType": "uint256",
          "name": "cap",
          "type": "uint256"
        }
      ],
      "name": "ERC20InvalidCap",
      "type": "error"
    },
    {
      "inputs": [
        {
          "internalType": "address",
          "name": "receiver",
          "type": "address"
        }
      ],
      "name": "ERC20InvalidReceiver",
      "type": "error"
    },
    {
      "inputs": [
        {
          "internalType": "address",
          "name": "sender",
          "type": "address"
        }
      ],
      "name": "ERC20InvalidSender",
      "type": "error"
    },
    {
      "inputs": [
        {
          "internalType": "address",
          "name": "spender",
          "type": "address"
        }
      ],
      "name": "ERC20InvalidSpender",
      "type": "error"
    },
    {
      "anonymous": false,
      "inputs": [
        {
          "indexed": true,
          "internalType": "address",
          "name": "owner",
          "type": "address"
        },
        {
          "indexed": true,
          "internalType": "address",
          "name": "spender",
          "type": "address"
        },
        {
          "indexed": false,
          "internalType": "uint256",
          "name": "value",
          "type": "uint256"
        }
      ],
      "name": "Approval",
      "type": "event"
    },
    {
      "anonymous": false,
      "inputs": [
        {
          "indexed": true,
          "internalType": "address",
          "name": "from",
          "type": "address"
        },
        {
          "indexed": true,
          "internalType": "address",
          "name": "to",
          "type": "address"
        },
        {
          "indexed": false,
          "internalType": "uint256",
          "name": "value",
          "type": "uint256"
        }
      ],
      "name": "Transfer",
      "type": "event"
    },
    {
      "inputs": [
        {
          "internalType": "address",
          "name": "owner",
          "type": "address"
        },
        {
          "internalType": "address",
          "name": "spender",
          "type": "address"
        }
      ],
      "name": "allowance",
      "outputs": [
        {
          "internalType": "uint256",
          "name": "",
          "type": "uint256"
        }
      ],
      "stateMutability": "view",
      "type": "function"
    },
    {
      "inputs": [
        {
          "internalType": "address",
          "name": "spender",
          "type": "address"
        },
        {
          "internalType": "uint256",
          "name": "value",
          "type": "uint256"
        }
      ],
      "name": "approve",
      "outputs": [
        {
          "internalType": "bool",
          "name": "",
          "type": "bool"
        }
      ],
      "stateMutability": "nonpayable",
      "type": "function"
    },
    {
      "inputs": [
        {
          "internalType": "address",
          "name": "account",
          "type": "address"
        }
      ],
      "name": "balanceOf",
      "outputs": [
        {
          "internalType": "uint256",
          "name": "",
          "type": "uint256"
        }
      ],
      "stateMutability": "view",
      "type": "function"
    },
    {
      "inputs": [],
      "name": "cap",
      "outputs": [
        {
          "internalType": "uint256",
          "name": "",
          "type": "uint256"
        }
      ],
      "stateMutability": "view",
      "type": "function"
    },
    {
      "inputs": [],
      "name": "decimals",
      "outputs": [
        {
          "internalType": "uint8",
          "name": "",
          "type": "uint8"
        }
      ],
      "stateMutability": "view",
      "type": "function"
    },
    {
      "inputs": [
        {
          "internalType": "address",
          "name": "to",
          "type": "address"
        },
        {
          "internalType": "uint256",
          "name": "amount",
          "type": "uint256"
        }
      ],
      "name": "mint",
      "outputs": [],
      "stateMutability": "nonpayable",
      "type": "function"
    },
    {
      "inputs": [],
      "name": "name",
      "outputs": [
        {
          "internalType": "string",
          "name": "",
          "type": "string"
        }
      ],
      "stateMutability": "view",
      "type": "function"
    },
    {
      "inputs": [],
      "name": "symbol",
      "outputs": [
        {
          "internalType": "string",
          "name": "",
          "type": "string"
        }
      ],
      "stateMutability": "view",
      "type": "function"
    },
    {
      "inputs": [],
      "name": "totalSupply",
      "outputs": [
        {
          "internalType": "uint256",
          "name": "",
          "type": "uint256"
        }
      ],
      "stateMutability": "view",
      "type": "function"
    },
    {
      "inputs": [
        {
          "internalType": "address",
          "name": "to",
          "type": "address"
        },
        {
          "internalType": "uint256",
          "name": "value",
          "type": "uint256"
        }
      ],
      "name": "transfer",
      "outputs": [
        {
          "internalType": "bool",
          "name": "",
          "type": "bool"
        }
      ],
      "stateMutability": "nonpayable",
      "type": "function"
    },
    {
      "inputs": [
        {
          "internalType": "address",
          "name": "from",
          "type": "address"
        },
        {
          "internalType": "address",
          "name": "to",
          "type": "address"
        },
        {
          "internalType": "uint256",
          "name": "value",
          "type": "uint256"
        }
      ],
      "name": "transferFrom",
      "outputs": [
        {
          "internalType": "bool",
          "name": "",
          "type": "bool"
        }
      ],
      "stateMutability": "nonpayable",
      "type": "function"
    }
  ],
  "bytecode": "0x60a06040523480156200001157600080fd5b5060405162000b8b38038062000b8b833981016040819052620000349162000155565b808383600362000045838262000259565b50600462000054828262000259565b50505080600003620000805760405163392e1e2760e01b81526000600482015260240160405180910390fd5b6080525062000325915050565b634e487b7160e01b600052604160045260246000fd5b600082601f830112620000b557600080fd5b81516001600160401b0380821115620000d257620000d26200008d565b604051601f8301601f19908116603f01168101908282118183101715620000fd57620000fd6200008d565b81604052838152602092508660208588010111156200011b57600080fd5b600091505b838210156200013f578582018301518183018401529082019062000120565b6000602085830101528094505050505092915050565b6000806000606084860312156200016b57600080fd5b83516001600160401b03808211156200018357600080fd5b6200019187838801620000a3565b94506020860151915080821115620001a857600080fd5b50620001b786828701620000a3565b925050604084015190509250925092565b600181811c90821680620001dd57607f821691505b602082108103620001fe57634e487b7160e01b600052602260045260246000fd5b50919050565b601f82111562000254576000816000526020600020601f850160051c810160208610156200022f5750805b601f850160051c820191505b8181101562000250578281556001016200023b565b5050505b505050565b81516001600160401b038111156200027557620002756200008d565b6200028d81620002868454620001c8565b8462000204565b602080601f831160018114620002c55760008415620002ac5750858301515b600019600386901b1c1916600185901b17855562000250565b600085815260208120601f198616915b82811015620002f657888601518255948401946001909101908401620002d5565b5085821015620003155787850151600019600388901b60f8161c191681555b5050505050600190811b01905550565b6080516108436200034860003960008181610135015261051001526108436000f3fe608060405234801561001057600080fd5b50600436106100b95760003560e01c8063355274ea1161008157806395d89b411161005b57806395d89b4114610197578063a9059cbb1461019f578063dd62ed3e146101b257600080fd5b8063355274ea1461013357806340c10f191461015957806370a082311461016e57600080fd5b806306fdde03146100be578063095ea7b3146100dc57806318160ddd146100ff57806323b872dd14610111578063313ce56714610124575b600080fd5b6100c66101eb565b6040516100d3919061068c565b60405180910390f35b6100ef6100ea3660046106f7565b61027d565b60405190151581526020016100d3565b6002545b6040519081526020016100d3565b6100ef61011f366004610721565b610297565b604051601281526020016100d3565b7f0000000000000000000000000000000000000000000000000000000000000000610103565b61016c6101673660046106f7565b6102bb565b005b61010361017c36600461075d565b6001600160a01b031660009081526020819052604090205490565b6100c66102d6565b6100ef6101ad3660046106f7565b6102e5565b6101036101c036600461077f565b6001600160a01b03918216600090815260016020908152604080832093909416825291909152205490565b6060600380546101fa906107b2565b80601f0160208091040260200160405190810160405280929190818152602001828054610226906107b2565b80156102735780601f1061024857610100808354040283529160200191610273565b820191906000526020600020905b81548152906001019060200180831161025657829003601f168201915b5050505050905090565b60003361028b8185856102f3565b60019150505b92915050565b6000336102a5858285610305565b6102b0858585610388565b506001949350505050565b600081116102c857600080fd5b6102d282826103e7565b5050565b6060600480546101fa906107b2565b60003361028b818585610388565b610300838383600161041d565b505050565b6001600160a01b038381166000908152600160209081526040808320938616835292905220546000198114610382578181101561037357604051637dc7a0d960e11b81526001600160a01b038416600482015260248101829052604481018390526064015b60405180910390fd5b6103828484848403600061041d565b50505050565b6001600160a01b0383166103b257604051634b637e8f60e11b81526000600482015260240161036a565b6001600160a01b0382166103dc5760405163ec442f0560e01b81526000600482015260240161036a565b6103008383836104f2565b6001600160a01b0382166104115760405163ec442f0560e01b81526000600482015260240161036a565b6102d2600083836104f2565b6001600160a01b0384166104475760405163e602df0560e01b81526000600482015260240161036a565b6001600160a01b03831661047157604051634a1406b160e11b81526000600482015260240161036a565b6001600160a01b038085166000908152600160209081526040808320938716835292905220829055801561038257826001600160a01b0316846001600160a01b03167f8c5be1e5ebec7d5bd14f71427d1e84f3dd0314c0f7b2291e5b200ac8c7c3b925846040516104e491815260200190565b60405180910390a350505050565b6104fd838383610562565b6001600160a01b038316610300576002547f0000000000000000000000000000000000000000000000000000000000000000908181111561055b5760405163279e7e1560e21b8152600481018290526024810183905260440161036a565b5050505050565b6001600160a01b03831661058d57806002600082825461058291906107ec565b909155506105ff9050565b6001600160a01b038316600090815260208190526040902054818110156105e05760405163391434e360e21b81526001600160a01b0385166004820152602481018290526044810183905260640161036a565b6001600160a01b03841660009081526020819052604090209082900390555b6001600160a01b03821661061b5760028054829003905561063a565b6001600160a01b03821660009081526020819052604090208054820190555b816001600160a01b0316836001600160a01b03167fddf252ad1be2c89b69c2b068fc378daa952ba7f163c4a11628f55a4df523b3ef8360405161067f91815260200190565b60405180910390a3505050565b60006020808352835180602085015260005b818110156106ba5785810183015185820160400152820161069e565b506000604082860101526040601f19601f8301168501019250505092915050565b80356001600160a01b03811681146106f257600080fd5b919050565b6000806040838503121561070a57600080fd5b610713836106db565b946020939093013593505050565b60008060006060848603121561073657600080fd5b61073f846106db565b925061074d602085016106db565b9150604084013590509250925092565b60006020828403121561076f57600080fd5b610778826106db565b9392505050565b6000806040838503121561079257600080fd5b61079b836106db565b91506107a9602084016106db565b90509250929050565b600181811c908216806107c657607f821691505b6020821081036107e657634e487b7160e01b600052602260045260246000fd5b50919050565b8082018082111561029157634e487b7160e01b600052601160045260246000fdfea264697066735822122060fb2d0bf952e843b6604541c9799315393b486bccc0660eb475bb8feedb297d64736f6c63430008170033",
  "linkReferences": {},
  "deployedLinkReferences": {}
}