{
  "_format": "hh-sol-artifact-1",
  "contractName": "ERC1155Mock",
  "sourceName": "contracts/openzeppelin/ERC-1155/ERC1155Mock.sol",
  "abi": [
    {
      "inputs": [
        {
          "internalType": "string",
          "name": "uri",
          "type": "string"
        }
      ],
      "stateMutability": "nonpayable",
      "type": "constructor"
    },
    {
      "inputs": [
        {
          "internalType": "address",
          "name": "sender",
          "type": "address"
        },
        {
          "internalType": "uint256",
          "name": "balance",
          "type": "uint256"
        },
        {
          "internalType": "uint256",
          "name": "needed",
          "type": "uint256"
        },
        {
          "internalType": "uint256",
          "name": "tokenId",
          "type": "uint256"
        }
      ],
      "name": "ERC1155InsufficientBalance",
      "type": "error"
    },
    {
      "inputs": [
        {
          "internalType": "address",
          "name": "approver",
          "type": "address"
        }
      ],
      "name": "ERC1155InvalidApprover",
      "type": "error"
    },
    {
      "inputs": [
        {
          "internalType": "uint256",
          "name": "idsLength",
          "type": "uint256"
        },
        {
          "internalType": "uint256",
          "name": "valuesLength",
          "type": "uint256"
        }
      ],
      "name": "ERC1155InvalidArrayLength",
      "type": "error"
    },
    {
      "inputs": [
        {
          "internalType": "address",
          "name": "operator",
          "type": "address"
        }
      ],
      "name": "ERC1155InvalidOperator",
      "type": "error"
    },
    {
      "inputs": [
        {
          "internalType": "address",
          "name": "receiver",
          "type": "address"
        }
      ],
      "name": "ERC1155InvalidReceiver",
      "type": "error"
    },
    {
      "inputs": [
        {
          "internalType": "address",
          "name": "sender",
          "type": "address"
        }
      ],
      "name": "ERC1155InvalidSender",
      "type": "error"
    },
    {
      "inputs": [
        {
          "internalType": "address",
          "name": "operator",
          "type": "address"
        },
        {
          "internalType": "address",
          "name": "owner",
          "type": "address"
        }
      ],
      "name": "ERC1155MissingApprovalForAll",
      "type": "error"
    },
    {
      "anonymous": false,
      "inputs": [
        {
          "indexed": true,
          "internalType": "address",
          "name": "account",
          "type": "address"
        },
        {
          "indexed": true,
          "internalType": "address",
          "name": "operator",
          "type": "address"
        },
        {
          "indexed": false,
          "internalType": "bool",
          "name": "approved",
          "type": "bool"
        }
      ],
      "name": "ApprovalForAll",
      "type": "event"
    },
    {
      "anonymous": false,
      "inputs": [
        {
          "indexed": true,
          "internalType": "address",
          "name": "operator",
          "type": "address"
        },
        {
          "indexed": true,
          "internalType": "address",
          "name": "from",
          "type": "address"
        },
        {
          "indexed": true,
          "internalType": "address",
          "name": "to",
          "type": "address"
        },
        {
          "indexed": false,
          "internalType": "uint256[]",
          "name": "ids",
          "type": "uint256[]"
        },
        {
          "indexed": false,
          "internalType": "uint256[]",
          "name": "values",
          "type": "uint256[]"
        }
      ],
      "name": "TransferBatch",
      "type": "event"
    },
    {
      "anonymous": false,
      "inputs": [
        {
          "indexed": true,
          "internalType": "address",
          "name": "operator",
          "type": "address"
        },
        {
          "indexed": true,
          "internalType": "address",
          "name": "from",
          "type": "address"
        },
        {
          "indexed": true,
          "internalType": "address",
          "name": "to",
          "type": "address"
        },
        {
          "indexed": false,
          "internalType": "uint256",
          "name": "id",
          "type": "uint256"
        },
        {
          "indexed": false,
          "internalType": "uint256",
          "name": "value",
          "type": "uint256"
        }
      ],
      "name": "TransferSingle",
      "type": "event"
    },
    {
      "anonymous": false,
      "inputs": [
        {
          "indexed": false,
          "internalType": "string",
          "name": "value",
          "type": "string"
        },
        {
          "indexed": true,
          "internalType": "uint256",
          "name": "id",
          "type": "uint256"
        }
      ],
      "name": "URI",
      "type": "event"
    },
    {
      "inputs": [
        {
          "internalType": "address",
          "name": "account",
          "type": "address"
        },
        {
          "internalType": "uint256",
          "name": "id",
          "type": "uint256"
        }
      ],
      "name": "balanceOf",
      "outputs": [
        {
          "internalType": "uint256",
          "name": "",
          "type": "uint256"
        }
      ],
      "stateMutability": "view",
      "type": "function"
    },
    {
      "inputs": [
        {
          "internalType": "address[]",
          "name": "accounts",
          "type": "address[]"
        },
        {
          "internalType": "uint256[]",
          "name": "ids",
          "type": "uint256[]"
        }
      ],
      "name": "balanceOfBatch",
      "outputs": [
        {
          "internalType": "uint256[]",
          "name": "",
          "type": "uint256[]"
        }
      ],
      "stateMutability": "view",
      "type": "function"
    },
    {
      "inputs": [
        {
          "internalType": "address",
          "name": "account",
          "type": "address"
        },
        {
          "internalType": "address",
          "name": "operator",
          "type": "address"
        }
      ],
      "name": "isApprovedForAll",
      "outputs": [
        {
          "internalType": "bool",
          "name": "",
          "type": "bool"
        }
      ],
      "stateMutability": "view",
      "type": "function"
    },
    {
      "inputs": [
        {
          "internalType": "address",
          "name": "to",
          "type": "address"
        },
        {
          "internalType": "uint256",
          "name": "id",
          "type": "uint256"
        },
        {
          "internalType": "uint256",
          "name": "amount",
          "type": "uint256"
        },
        {
          "internalType": "bytes",
          "name": "data",
          "type": "bytes"
        }
      ],
      "name": "mint",
      "outputs": [],
      "stateMutability": "nonpayable",
      "type": "function"
    },
    {
      "inputs": [
        {
          "internalType": "address",
          "name": "to",
          "type": "address"
        },
        {
          "internalType": "uint256[]",
          "name": "id",
          "type": "uint256[]"
        },
        {
          "internalType": "uint256[]",
          "name": "amount",
          "type": "uint256[]"
        },
        {
          "internalType": "bytes",
          "name": "data",
          "type": "bytes"
        }
      ],
      "name": "mintBatch",
      "outputs": [],
      "stateMutability": "nonpayable",
      "type": "function"
    },
    {
      "inputs": [
        {
          "internalType": "address",
          "name": "from",
          "type": "address"
        },
        {
          "internalType": "address",
          "name": "to",
          "type": "address"
        },
        {
          "internalType": "uint256[]",
          "name": "ids",
          "type": "uint256[]"
        },
        {
          "internalType": "uint256[]",
          "name": "values",
          "type": "uint256[]"
        },
        {
          "internalType": "bytes",
          "name": "data",
          "type": "bytes"
        }
      ],
      "name": "safeBatchTransferFrom",
      "outputs": [],
      "stateMutability": "nonpayable",
      "type": "function"
    },
    {
      "inputs": [
        {
          "internalType": "address",
          "name": "from",
          "type": "address"
        },
        {
          "internalType": "address",
          "name": "to",
          "type": "address"
        },
        {
          "internalType": "uint256",
          "name": "id",
          "type": "uint256"
        },
        {
          "internalType": "uint256",
          "name": "value",
          "type": "uint256"
        },
        {
          "internalType": "bytes",
          "name": "data",
          "type": "bytes"
        }
      ],
      "name": "safeTransferFrom",
      "outputs": [],
      "stateMutability": "nonpayable",
      "type": "function"
    },
    {
      "inputs": [
        {
          "internalType": "address",
          "name": "operator",
          "type": "address"
        },
        {
          "internalType": "bool",
          "name": "approved",
          "type": "bool"
        }
      ],
      "name": "setApprovalForAll",
      "outputs": [],
      "stateMutability": "nonpayable",
      "type": "function"
    },
    {
      "inputs": [
        {
          "internalType": "bytes4",
          "name": "interfaceId",
          "type": "bytes4"
        }
      ],
      "name": "supportsInterface",
      "outputs": [
        {
          "internalType": "bool",
          "name": "",
          "type": "bool"
        }
      ],
      "stateMutability": "view",
      "type": "function"
    },
    {
      "inputs": [
        {
          "internalType": "uint256",
          "name": "",
          "type": "uint256"
        }
      ],
      "name": "uri",
      "outputs": [
        {
          "internalType": "string",
          "name": "",
          "type": "string"
        }
      ],
      "stateMutability": "view",
      "type": "function"
    }
  ],
  "bytecode": "0x60806040523480156200001157600080fd5b506040516200159538038062001595833981016040819052620000349162000070565b80620000408162000048565b5050620002a0565b6002620000568282620001d4565b5050565b634e487b7160e01b600052604160045260246000fd5b600060208083850312156200008457600080fd5b82516001600160401b03808211156200009c57600080fd5b818501915085601f830112620000b157600080fd5b815181811115620000c657620000c66200005a565b604051601f8201601f19908116603f01168101908382118183101715620000f157620000f16200005a565b8160405282815288868487010111156200010a57600080fd5b600093505b828410156200012e57848401860151818501870152928501926200010f565b600086848301015280965050505050505092915050565b600181811c908216806200015a57607f821691505b6020821081036200017b57634e487b7160e01b600052602260045260246000fd5b50919050565b601f821115620001cf57600081815260208120601f850160051c81016020861015620001aa5750805b601f850160051c820191505b81811015620001cb57828155600101620001b6565b5050505b505050565b81516001600160401b03811115620001f057620001f06200005a565b620002088162000201845462000145565b8462000181565b602080601f831160018114620002405760008415620002275750858301515b600019600386901b1c1916600185901b178555620001cb565b600085815260208120601f198616915b82811015620002715788860151825594840194600190910190840162000250565b5085821015620002905787850151600019600388901b60f8161c191681555b5050505050600190811b01905550565b6112e580620002b06000396000f3fe608060405234801561001057600080fd5b506004361061009d5760003560e01c80634e1273f4116100665780634e1273f414610133578063731133e914610153578063a22cb46514610166578063e985e9c514610179578063f242432a146101b557600080fd5b8062fdd58e146100a257806301ffc9a7146100c85780630e89341c146100eb5780631f7fdffa1461010b5780632eb2c2d614610120575b600080fd5b6100b56100b0366004610b98565b6101c8565b6040519081526020015b60405180910390f35b6100db6100d6366004610bdb565b6101f0565b60405190151581526020016100bf565b6100fe6100f9366004610bff565b610240565b6040516100bf9190610c5e565b61011e610119366004610db7565b6102d4565b005b61011e61012e366004610e50565b6102e6565b610146610141366004610efa565b610371565b6040516100bf9190610ff5565b61011e610161366004611008565b610446565b61011e61017436600461105d565b610452565b6100db610187366004611099565b6001600160a01b03918216600090815260016020908152604080832093909416825291909152205460ff1690565b61011e6101c33660046110cc565b610461565b6000818152602081815260408083206001600160a01b03861684529091529020545b92915050565b60006001600160e01b03198216636cdb3d1360e11b148061022157506001600160e01b031982166303a24d0760e21b145b806101ea57506301ffc9a760e01b6001600160e01b03198316146101ea565b60606002805461024f90611131565b80601f016020809104026020016040519081016040528092919081815260200182805461027b90611131565b80156102c85780601f1061029d576101008083540402835291602001916102c8565b820191906000526020600020905b8154815290600101906020018083116102ab57829003601f168201915b50505050509050919050565b6102e0848484846104df565b50505050565b336001600160a01b038616811480159061032657506001600160a01b0380871660009081526001602090815260408083209385168352929052205460ff16155b1561035c5760405163711bec9160e11b81526001600160a01b038083166004830152871660248201526044015b60405180910390fd5b6103698686868686610517565b505050505050565b606081518351146103a25781518351604051635b05999160e01b815260048101929092526024820152604401610353565b6000835167ffffffffffffffff8111156103be576103be610c71565b6040519080825280602002602001820160405280156103e7578160200160208202803683370190505b50905060005b845181101561043e57602080820286010151610411906020808402870101516101c8565b8282815181106104235761042361116b565b602090810291909101015261043781611197565b90506103ed565b509392505050565b6102e08484848461057e565b61045d3383836105db565b5050565b336001600160a01b03861681148015906104a157506001600160a01b0380871660009081526001602090815260408083209385168352929052205460ff16155b156104d25760405163711bec9160e11b81526001600160a01b03808316600483015287166024820152604401610353565b6103698686868686610671565b6001600160a01b03841661050957604051632bfa23e760e11b815260006004820152602401610353565b6102e06000858585856106ff565b6001600160a01b03841661054157604051632bfa23e760e11b815260006004820152602401610353565b6001600160a01b03851661056a57604051626a0d4560e21b815260006004820152602401610353565b61057785858585856106ff565b5050505050565b6001600160a01b0384166105a857604051632bfa23e760e11b815260006004820152602401610353565b604080516001808252602082018690528183019081526060820185905260808201909252906103696000878484876106ff565b6001600160a01b0382166106045760405162ced3e160e81b815260006004820152602401610353565b6001600160a01b03838116600081815260016020908152604080832094871680845294825291829020805460ff191686151590811790915591519182527f17307eab39ab6107e8899845ad3d59bd9653f200f220920489ca2b5937696c31910160405180910390a3505050565b6001600160a01b03841661069b57604051632bfa23e760e11b815260006004820152602401610353565b6001600160a01b0385166106c457604051626a0d4560e21b815260006004820152602401610353565b604080516001808252602082018690528183019081526060820185905260808201909252906106f687878484876106ff565b50505050505050565b61070b85858585610752565b6001600160a01b038416156105775782513390600103610744576020848101519084015161073d83898985858961096f565b5050610369565b610369818787878787610a93565b80518251146107815781518151604051635b05999160e01b815260048101929092526024820152604401610353565b3360005b8351811015610890576020818102858101820151908501909101516001600160a01b03881615610838576000828152602081815260408083206001600160a01b038c16845290915290205481811015610811576040516303dee4c560e01b81526001600160a01b038a166004820152602481018290526044810183905260648101849052608401610353565b6000838152602081815260408083206001600160a01b038d16845290915290209082900390555b6001600160a01b0387161561087d576000828152602081815260408083206001600160a01b038b168452909152812080548392906108779084906111b0565b90915550505b50508061088990611197565b9050610785565b5082516001036109115760208301516000906020840151909150856001600160a01b0316876001600160a01b0316846001600160a01b03167fc3d58168c5ae7397731d063d5bbf3d657854427343f4c083240f7aacaa2d0f628585604051610902929190918252602082015260400190565b60405180910390a45050610577565b836001600160a01b0316856001600160a01b0316826001600160a01b03167f4a39dc06d4c0dbc64b70af90fd698a233a518aa5d07e595d983b8c0526c8f7fb86866040516109609291906111c3565b60405180910390a45050505050565b6001600160a01b0384163b156103695760405163f23a6e6160e01b81526001600160a01b0385169063f23a6e61906109b390899089908890889088906004016111f1565b6020604051808303816000875af19250505080156109ee575060408051601f3d908101601f191682019092526109eb91810190611234565b60015b610a57573d808015610a1c576040519150601f19603f3d011682016040523d82523d6000602084013e610a21565b606091505b508051600003610a4f57604051632bfa23e760e11b81526001600160a01b0386166004820152602401610353565b805181602001fd5b6001600160e01b0319811663f23a6e6160e01b146106f657604051632bfa23e760e11b81526001600160a01b0386166004820152602401610353565b6001600160a01b0384163b156103695760405163bc197c8160e01b81526001600160a01b0385169063bc197c8190610ad79089908990889088908890600401611251565b6020604051808303816000875af1925050508015610b12575060408051601f3d908101601f19168201909252610b0f91810190611234565b60015b610b40573d808015610a1c576040519150601f19603f3d011682016040523d82523d6000602084013e610a21565b6001600160e01b0319811663bc197c8160e01b146106f657604051632bfa23e760e11b81526001600160a01b0386166004820152602401610353565b80356001600160a01b0381168114610b9357600080fd5b919050565b60008060408385031215610bab57600080fd5b610bb483610b7c565b946020939093013593505050565b6001600160e01b031981168114610bd857600080fd5b50565b600060208284031215610bed57600080fd5b8135610bf881610bc2565b9392505050565b600060208284031215610c1157600080fd5b5035919050565b6000815180845260005b81811015610c3e57602081850181015186830182015201610c22565b506000602082860101526020601f19601f83011685010191505092915050565b602081526000610bf86020830184610c18565b634e487b7160e01b600052604160045260246000fd5b604051601f8201601f1916810167ffffffffffffffff81118282101715610cb057610cb0610c71565b604052919050565b600067ffffffffffffffff821115610cd257610cd2610c71565b5060051b60200190565b600082601f830112610ced57600080fd5b81356020610d02610cfd83610cb8565b610c87565b82815260059290921b84018101918181019086841115610d2157600080fd5b8286015b84811015610d3c5780358352918301918301610d25565b509695505050505050565b600082601f830112610d5857600080fd5b813567ffffffffffffffff811115610d7257610d72610c71565b610d85601f8201601f1916602001610c87565b818152846020838601011115610d9a57600080fd5b816020850160208301376000918101602001919091529392505050565b60008060008060808587031215610dcd57600080fd5b610dd685610b7c565b9350602085013567ffffffffffffffff80821115610df357600080fd5b610dff88838901610cdc565b94506040870135915080821115610e1557600080fd5b610e2188838901610cdc565b93506060870135915080821115610e3757600080fd5b50610e4487828801610d47565b91505092959194509250565b600080600080600060a08688031215610e6857600080fd5b610e7186610b7c565b9450610e7f60208701610b7c565b9350604086013567ffffffffffffffff80821115610e9c57600080fd5b610ea889838a01610cdc565b94506060880135915080821115610ebe57600080fd5b610eca89838a01610cdc565b93506080880135915080821115610ee057600080fd5b50610eed88828901610d47565b9150509295509295909350565b60008060408385031215610f0d57600080fd5b823567ffffffffffffffff80821115610f2557600080fd5b818501915085601f830112610f3957600080fd5b81356020610f49610cfd83610cb8565b82815260059290921b84018101918181019089841115610f6857600080fd5b948201945b83861015610f8d57610f7e86610b7c565b82529482019490820190610f6d565b96505086013592505080821115610fa357600080fd5b50610fb085828601610cdc565b9150509250929050565b600081518084526020808501945080840160005b83811015610fea57815187529582019590820190600101610fce565b509495945050505050565b602081526000610bf86020830184610fba565b6000806000806080858703121561101e57600080fd5b61102785610b7c565b93506020850135925060408501359150606085013567ffffffffffffffff81111561105157600080fd5b610e4487828801610d47565b6000806040838503121561107057600080fd5b61107983610b7c565b91506020830135801515811461108e57600080fd5b809150509250929050565b600080604083850312156110ac57600080fd5b6110b583610b7c565b91506110c360208401610b7c565b90509250929050565b600080600080600060a086880312156110e457600080fd5b6110ed86610b7c565b94506110fb60208701610b7c565b93506040860135925060608601359150608086013567ffffffffffffffff81111561112557600080fd5b610eed88828901610d47565b600181811c9082168061114557607f821691505b60208210810361116557634e487b7160e01b600052602260045260246000fd5b50919050565b634e487b7160e01b600052603260045260246000fd5b634e487b7160e01b600052601160045260246000fd5b6000600182016111a9576111a9611181565b5060010190565b808201808211156101ea576101ea611181565b6040815260006111d66040830185610fba565b82810360208401526111e88185610fba565b95945050505050565b60006001600160a01b03808816835280871660208401525084604083015283606083015260a0608083015261122960a0830184610c18565b979650505050505050565b60006020828403121561124657600080fd5b8151610bf881610bc2565b60006001600160a01b03808816835280871660208401525060a0604083015261127d60a0830186610fba565b828103606084015261128f8186610fba565b905082810360808401526112a38185610c18565b9897505050505050505056fea2646970667358221220ae522e663b239dff3ffc37d3df5c67b66e61a46438e7c45e816383d3b849b03264736f6c63430008140033",
  "linkReferences": {},
  "deployedLinkReferences": {}
}