{
  "_format": "hh-sol-artifact-1",
  "contractName": "EcrecoverCaller",
  "sourceName": "contracts/native-precompiles/EcrecoverCaller.sol",
  "abi": [
    {
      "anonymous": false,
      "inputs": [
        {
          "indexed": false,
          "internalType": "bytes",
          "name": "result",
          "type": "bytes"
        }
      ],
      "name": "EcrecoverResult",
      "type": "event"
    },
    {
      "inputs": [
        {
          "internalType": "bytes",
          "name": "callData",
          "type": "bytes"
        }
      ],
      "name": "call0x1",
      "outputs": [
        {
          "internalType": "bool",
          "name": "",
          "type": "bool"
        }
      ],
      "stateMutability": "payable",
      "type": "function"
    },
    {
      "inputs": [
        {
          "internalType": "bytes32",
          "name": "messageHash",
          "type": "bytes32"
        },
        {
          "internalType": "uint8",
          "name": "v",
          "type": "uint8"
        },
        {
          "internalType": "bytes32",
          "name": "r",
          "type": "bytes32"
        },
        {
          "internalType": "bytes32",
          "name": "s",
          "type": "bytes32"
        }
      ],
      "name": "callEcrecover",
      "outputs": [
        {
          "internalType": "address",
          "name": "",
          "type": "address"
        }
      ],
      "stateMutability": "view",
      "type": "function"
    },
    {
      "inputs": [],
      "name": "send0x1",
      "outputs": [],
      "stateMutability": "payable",
      "type": "function"
    },
    {
      "inputs": [],
      "name": "transfer0x1",
      "outputs": [],
      "stateMutability": "payable",
      "type": "function"
    }
  ],
  "bytecode": "0x60806040525f80546001600160a01b0319166001179055348015610021575f80fd5b506103768061002f5f395ff3fe60806040526004361061003e575f3560e01c806301f56b781461004257806328f2bd321461007e57806342bbbffd14610088578063e80e2cfe146100ab575b5f80fd5b34801561004d575f80fd5b5061006161005c36600461023b565b6100b3565b6040516001600160a01b0390911681526020015b60405180910390f35b61008661011b565b005b61009b61009636600461027a565b610149565b6040519015158152602001610075565b6100866101fd565b604080515f8082526020820180845287905260ff8616928201929092526060810184905260808101839052819060019060a0016020604051602081039080840390855afa158015610106573d5f803e3d5ffd5b5050604051601f190151979650505050505050565b5f80546040516001600160a01b039091169182913480156108fc0292909190818181858888f1505050505050565b5f80546040516001600160a01b0390911690829081908390349061017090899089906102e6565b5f6040518083038185875af1925050503d805f81146101aa576040519150601f19603f3d011682016040523d82523d5f602084013e6101af565b606091505b5091509150816101bd575f80fd5b7f2817b13fac611ba4ed2a2994fc447fcdc41a9580b5e3d3256a221360680366ab816040516101ec91906102f5565b60405180910390a150949350505050565b5f80546040516001600160a01b039091169182913480156108fc0292909190818181858888f19350505050158015610237573d5f803e3d5ffd5b5050565b5f805f806080858703121561024e575f80fd5b84359350602085013560ff81168114610265575f80fd5b93969395505050506040820135916060013590565b5f806020838503121561028b575f80fd5b823567ffffffffffffffff808211156102a2575f80fd5b818501915085601f8301126102b5575f80fd5b8135818111156102c3575f80fd5b8660208285010111156102d4575f80fd5b60209290920196919550909350505050565b818382375f9101908152919050565b5f6020808352835180828501525f5b8181101561032057858101830151858201604001528201610304565b505f604082860101526040601f19601f830116850101925050509291505056fea2646970667358221220546cd374939d18d1e99fbbf3ce0718ff04257acec05c80b1c820ff051fc0f26264736f6c63430008140033",
  "linkReferences": {},
  "deployedLinkReferences": {}
}