{
  "_format": "hh-sol-artifact-1",
  "contractName": "EcrecoverCaller",
  "sourceName": "contracts/native-precompiles/EcrecoverCaller.sol",
  "abi": [
    {
      "anonymous": false,
      "inputs": [
        {
          "indexed": false,
          "internalType": "bytes",
          "name": "result",
          "type": "bytes"
        }
      ],
      "name": "EcrecoverResult",
      "type": "event"
    },
    {
      "inputs": [
        {
          "internalType": "bytes32",
          "name": "messageHash",
          "type": "bytes32"
        },
        {
          "internalType": "uint8",
          "name": "v",
          "type": "uint8"
        },
        {
          "internalType": "bytes32",
          "name": "r",
          "type": "bytes32"
        },
        {
          "internalType": "bytes32",
          "name": "s",
          "type": "bytes32"
        }
      ],
      "name": "function1",
      "outputs": [
        {
          "internalType": "address",
          "name": "",
          "type": "address"
        }
      ],
      "stateMutability": "view",
      "type": "function"
    },
    {
      "inputs": [
        {
          "internalType": "bytes",
          "name": "callData",
          "type": "bytes"
        }
      ],
      "name": "function2",
      "outputs": [
        {
          "internalType": "bool",
          "name": "",
          "type": "bool"
        }
      ],
      "stateMutability": "payable",
      "type": "function"
    },
    {
      "inputs": [],
      "name": "function3",
      "outputs": [],
      "stateMutability": "payable",
      "type": "function"
    },
    {
      "inputs": [],
      "name": "function4",
      "outputs": [],
      "stateMutability": "payable",
      "type": "function"
    }
  ],
  "bytecode": "0x608060405234801561001057600080fd5b50610395806100206000396000f3fe60806040526004361061003f5760003560e01c80632a64052b146100445780632ccd7cab1461004e5780633a24555a1461009857806347bdf8f6146100a0575b600080fd5b61004c6100c3565b005b34801561005a57600080fd5b5061006e610069366004610245565b6100e4565b60405173ffffffffffffffffffffffffffffffffffffffff90911681526020015b60405180910390f35b61004c61014f565b6100b36100ae366004610288565b610182565b604051901515815260200161008f565b60405160019081903480156108fc02916000818181858888f1505050505050565b6040805160008082526020820180845287905260ff8616928201929092526060810184905260808101839052819060019060a0016020604051602081039080840390855afa15801561013a573d6000803e3d6000fd5b5050604051601f190151979650505050505050565b60405160019081903480156108fc02916000818181858888f1935050505015801561017e573d6000803e3d6000fd5b5050565b600080600190506000808273ffffffffffffffffffffffffffffffffffffffff163487876040516101b49291906102fa565b60006040518083038185875af1925050503d80600081146101f1576040519150601f19603f3d011682016040523d82523d6000602084013e6101f6565b606091505b50915091508161020557600080fd5b7f2817b13fac611ba4ed2a2994fc447fcdc41a9580b5e3d3256a221360680366ab81604051610234919061030a565b60405180910390a150949350505050565b6000806000806080858703121561025b57600080fd5b84359350602085013560ff8116811461027357600080fd5b93969395505050506040820135916060013590565b6000806020838503121561029b57600080fd5b823567ffffffffffffffff808211156102b357600080fd5b818501915085601f8301126102c757600080fd5b8135818111156102d657600080fd5b8660208285010111156102e857600080fd5b60209290920196919550909350505050565b8183823760009101908152919050565b600060208083528351808285015260005b818110156103375785810183015185820160400152820161031b565b81811115610349576000604083870101525b50601f01601f191692909201604001939250505056fea26469706673582212202e2c475c7f6241d8f939bdcf8ae9540cdb758994bb047e51c60cc3c08f97a2b564736f6c63430008090033",
  "linkReferences": {},
  "deployedLinkReferences": {}
}