{
  "_format": "hh-sol-artifact-1",
  "contractName": "EcrecoverCaller",
  "sourceName": "contracts/native-precompiles/EcrecoverCaller.sol",
  "abi": [
    {
      "anonymous": false,
      "inputs": [
        {
          "indexed": false,
          "internalType": "bytes",
          "name": "result",
          "type": "bytes"
        }
      ],
      "name": "EcrecoverResult",
      "type": "event"
    },
    {
      "inputs": [
        {
          "internalType": "bytes",
          "name": "callData",
          "type": "bytes"
        }
      ],
      "name": "call0x1",
      "outputs": [
        {
          "internalType": "bool",
          "name": "",
          "type": "bool"
        }
      ],
      "stateMutability": "payable",
      "type": "function"
    },
    {
      "inputs": [
        {
          "internalType": "bytes32",
          "name": "messageHash",
          "type": "bytes32"
        },
        {
          "internalType": "uint8",
          "name": "v",
          "type": "uint8"
        },
        {
          "internalType": "bytes32",
          "name": "r",
          "type": "bytes32"
        },
        {
          "internalType": "bytes32",
          "name": "s",
          "type": "bytes32"
        }
      ],
      "name": "callEcrecover",
      "outputs": [
        {
          "internalType": "address",
          "name": "",
          "type": "address"
        }
      ],
      "stateMutability": "view",
      "type": "function"
    },
    {
      "inputs": [],
      "name": "send0x1",
      "outputs": [],
      "stateMutability": "payable",
      "type": "function"
    },
    {
      "inputs": [],
      "name": "transfer0x1",
      "outputs": [],
      "stateMutability": "payable",
      "type": "function"
    }
  ],
  "bytecode": "0x6080604052600080546001600160a01b031916600117905534801561002357600080fd5b5061039a806100336000396000f3fe60806040526004361061003f5760003560e01c806301f56b781461004457806328f2bd321461008157806342bbbffd1461008b578063e80e2cfe146100ae575b600080fd5b34801561005057600080fd5b5061006461005f36600461024a565b6100b6565b6040516001600160a01b0390911681526020015b60405180910390f35b610089610121565b005b61009e61009936600461028d565b610150565b6040519015158152602001610078565b610089610209565b6040805160008082526020820180845287905260ff8616928201929092526060810184905260808101839052819060019060a0016020604051602081039080840390855afa15801561010c573d6000803e3d6000fd5b5050604051601f190151979650505050505050565b600080546040516001600160a01b039091169182913480156108fc0292909190818181858888f1505050505050565b600080546040516001600160a01b0390911690829081908390349061017890899089906102ff565b60006040518083038185875af1925050503d80600081146101b5576040519150601f19603f3d011682016040523d82523d6000602084013e6101ba565b606091505b5091509150816101c957600080fd5b7f2817b13fac611ba4ed2a2994fc447fcdc41a9580b5e3d3256a221360680366ab816040516101f8919061030f565b60405180910390a150949350505050565b600080546040516001600160a01b039091169182913480156108fc0292909190818181858888f19350505050158015610246573d6000803e3d6000fd5b5050565b6000806000806080858703121561026057600080fd5b84359350602085013560ff8116811461027857600080fd5b93969395505050506040820135916060013590565b600080602083850312156102a057600080fd5b823567ffffffffffffffff808211156102b857600080fd5b818501915085601f8301126102cc57600080fd5b8135818111156102db57600080fd5b8660208285010111156102ed57600080fd5b60209290920196919550909350505050565b8183823760009101908152919050565b600060208083528351808285015260005b8181101561033c57858101830151858201604001528201610320565b8181111561034e576000604083870101525b50601f01601f191692909201604001939250505056fea26469706673582212207c12298ed173a9904ff088ffc750d57f5c7d9c6fb4096d846fe06c005c2a6ba364736f6c63430008090033",
  "linkReferences": {},
  "deployedLinkReferences": {}
}