{
  "_format": "hh-sol-artifact-1",
  "contractName": "ERC20CappedMock",
  "sourceName": "contracts/erc-20-extensions/ERC20Extensions.sol",
  "abi": [
    {
      "inputs": [
        {
          "internalType": "string",
          "name": "name",
          "type": "string"
        },
        {
          "internalType": "string",
          "name": "symbol",
          "type": "string"
        },
        {
          "internalType": "uint256",
          "name": "cap",
          "type": "uint256"
        }
      ],
      "stateMutability": "nonpayable",
      "type": "constructor"
    },
    {
      "anonymous": false,
      "inputs": [
        {
          "indexed": true,
          "internalType": "address",
          "name": "owner",
          "type": "address"
        },
        {
          "indexed": true,
          "internalType": "address",
          "name": "spender",
          "type": "address"
        },
        {
          "indexed": false,
          "internalType": "uint256",
          "name": "value",
          "type": "uint256"
        }
      ],
      "name": "Approval",
      "type": "event"
    },
    {
      "anonymous": false,
      "inputs": [
        {
          "indexed": true,
          "internalType": "address",
          "name": "from",
          "type": "address"
        },
        {
          "indexed": true,
          "internalType": "address",
          "name": "to",
          "type": "address"
        },
        {
          "indexed": false,
          "internalType": "uint256",
          "name": "value",
          "type": "uint256"
        }
      ],
      "name": "Transfer",
      "type": "event"
    },
    {
      "inputs": [
        {
          "internalType": "address",
          "name": "owner",
          "type": "address"
        },
        {
          "internalType": "address",
          "name": "spender",
          "type": "address"
        }
      ],
      "name": "allowance",
      "outputs": [
        {
          "internalType": "uint256",
          "name": "",
          "type": "uint256"
        }
      ],
      "stateMutability": "view",
      "type": "function"
    },
    {
      "inputs": [
        {
          "internalType": "address",
          "name": "spender",
          "type": "address"
        },
        {
          "internalType": "uint256",
          "name": "amount",
          "type": "uint256"
        }
      ],
      "name": "approve",
      "outputs": [
        {
          "internalType": "bool",
          "name": "",
          "type": "bool"
        }
      ],
      "stateMutability": "nonpayable",
      "type": "function"
    },
    {
      "inputs": [
        {
          "internalType": "address",
          "name": "account",
          "type": "address"
        }
      ],
      "name": "balanceOf",
      "outputs": [
        {
          "internalType": "uint256",
          "name": "",
          "type": "uint256"
        }
      ],
      "stateMutability": "view",
      "type": "function"
    },
    {
      "inputs": [],
      "name": "cap",
      "outputs": [
        {
          "internalType": "uint256",
          "name": "",
          "type": "uint256"
        }
      ],
      "stateMutability": "view",
      "type": "function"
    },
    {
      "inputs": [],
      "name": "decimals",
      "outputs": [
        {
          "internalType": "uint8",
          "name": "",
          "type": "uint8"
        }
      ],
      "stateMutability": "view",
      "type": "function"
    },
    {
      "inputs": [
        {
          "internalType": "address",
          "name": "spender",
          "type": "address"
        },
        {
          "internalType": "uint256",
          "name": "subtractedValue",
          "type": "uint256"
        }
      ],
      "name": "decreaseAllowance",
      "outputs": [
        {
          "internalType": "bool",
          "name": "",
          "type": "bool"
        }
      ],
      "stateMutability": "nonpayable",
      "type": "function"
    },
    {
      "inputs": [
        {
          "internalType": "address",
          "name": "spender",
          "type": "address"
        },
        {
          "internalType": "uint256",
          "name": "addedValue",
          "type": "uint256"
        }
      ],
      "name": "increaseAllowance",
      "outputs": [
        {
          "internalType": "bool",
          "name": "",
          "type": "bool"
        }
      ],
      "stateMutability": "nonpayable",
      "type": "function"
    },
    {
      "inputs": [
        {
          "internalType": "address",
          "name": "to",
          "type": "address"
        },
        {
          "internalType": "uint256",
          "name": "amount",
          "type": "uint256"
        }
      ],
      "name": "mint",
      "outputs": [],
      "stateMutability": "nonpayable",
      "type": "function"
    },
    {
      "inputs": [],
      "name": "name",
      "outputs": [
        {
          "internalType": "string",
          "name": "",
          "type": "string"
        }
      ],
      "stateMutability": "view",
      "type": "function"
    },
    {
      "inputs": [],
      "name": "symbol",
      "outputs": [
        {
          "internalType": "string",
          "name": "",
          "type": "string"
        }
      ],
      "stateMutability": "view",
      "type": "function"
    },
    {
      "inputs": [],
      "name": "totalSupply",
      "outputs": [
        {
          "internalType": "uint256",
          "name": "",
          "type": "uint256"
        }
      ],
      "stateMutability": "view",
      "type": "function"
    },
    {
      "inputs": [
        {
          "internalType": "address",
          "name": "to",
          "type": "address"
        },
        {
          "internalType": "uint256",
          "name": "amount",
          "type": "uint256"
        }
      ],
      "name": "transfer",
      "outputs": [
        {
          "internalType": "bool",
          "name": "",
          "type": "bool"
        }
      ],
      "stateMutability": "nonpayable",
      "type": "function"
    },
    {
      "inputs": [
        {
          "internalType": "address",
          "name": "from",
          "type": "address"
        },
        {
          "internalType": "address",
          "name": "to",
          "type": "address"
        },
        {
          "internalType": "uint256",
          "name": "amount",
          "type": "uint256"
        }
      ],
      "name": "transferFrom",
      "outputs": [
        {
          "internalType": "bool",
          "name": "",
          "type": "bool"
        }
      ],
      "stateMutability": "nonpayable",
      "type": "function"
    }
  ],
  "bytecode": "0x60a060405234801562000010575f80fd5b5060405162000d9a38038062000d9a833981016040819052620000339162000175565b80838360036200004483826200026f565b5060046200005382826200026f565b5050505f8111620000aa5760405162461bcd60e51b815260206004820152601560248201527f45524332304361707065643a2063617020697320300000000000000000000000604482015260640160405180910390fd5b6080525062000337915050565b634e487b7160e01b5f52604160045260245ffd5b5f82601f830112620000db575f80fd5b81516001600160401b0380821115620000f857620000f8620000b7565b604051601f8301601f19908116603f01168101908282118183101715620001235762000123620000b7565b816040528381526020925086838588010111156200013f575f80fd5b5f91505b8382101562000162578582018301518183018401529082019062000143565b5f93810190920192909252949350505050565b5f805f6060848603121562000188575f80fd5b83516001600160401b03808211156200019f575f80fd5b620001ad87838801620000cb565b94506020860151915080821115620001c3575f80fd5b50620001d286828701620000cb565b925050604084015190509250925092565b600181811c90821680620001f857607f821691505b6020821081036200021757634e487b7160e01b5f52602260045260245ffd5b50919050565b601f8211156200026a575f81815260208120601f850160051c81016020861015620002455750805b601f850160051c820191505b81811015620002665782815560010162000251565b5050505b505050565b81516001600160401b038111156200028b576200028b620000b7565b620002a3816200029c8454620001e3565b846200021d565b602080601f831160018114620002d9575f8415620002c15750858301515b5f19600386901b1c1916600185901b17855562000266565b5f85815260208120601f198616915b828110156200030957888601518255948401946001909101908401620002e8565b50858210156200032757878501515f19600388901b60f8161c191681555b5050505050600190811b01905550565b608051610a43620003575f395f8181610155015261075b0152610a435ff3fe608060405234801561000f575f80fd5b50600436106100da575f3560e01c8063395093511161008857806395d89b411161006357806395d89b41146101c9578063a457c2d7146101d1578063a9059cbb146101e4578063dd62ed3e146101f7575f80fd5b8063395093511461017957806340c10f191461018c57806370a08231146101a1575f80fd5b806323b872dd116100b857806323b872dd14610131578063313ce56714610144578063355274ea14610153575f80fd5b806306fdde03146100de578063095ea7b3146100fc57806318160ddd1461011f575b5f80fd5b6100e661022f565b6040516100f3919061089e565b60405180910390f35b61010f61010a366004610904565b6102bf565b60405190151581526020016100f3565b6002545b6040519081526020016100f3565b61010f61013f36600461092c565b6102d8565b604051601281526020016100f3565b7f0000000000000000000000000000000000000000000000000000000000000000610123565b61010f610187366004610904565b6102fb565b61019f61019a366004610904565b610339565b005b6101236101af366004610965565b6001600160a01b03165f9081526020819052604090205490565b6100e6610352565b61010f6101df366004610904565b610361565b61010f6101f2366004610904565b6103f7565b610123610205366004610985565b6001600160a01b039182165f90815260016020908152604080832093909416825291909152205490565b60606003805461023e906109b6565b80601f016020809104026020016040519081016040528092919081815260200182805461026a906109b6565b80156102b55780601f1061028c576101008083540402835291602001916102b5565b820191905f5260205f20905b81548152906001019060200180831161029857829003601f168201915b5050505050905090565b5f336102cc818585610404565b60019150505b92915050565b5f336102e5858285610527565b6102f08585856105b7565b506001949350505050565b335f8181526001602090815260408083206001600160a01b03871684529091528120549091906102cc90829086906103349087906109ee565b610404565b5f8111610344575f80fd5b61034e8282610759565b5050565b60606004805461023e906109b6565b335f8181526001602090815260408083206001600160a01b0387168452909152812054909190838110156103ea5760405162461bcd60e51b815260206004820152602560248201527f45524332303a2064656372656173656420616c6c6f77616e63652062656c6f77604482015264207a65726f60d81b60648201526084015b60405180910390fd5b6102f08286868403610404565b5f336102cc8185856105b7565b6001600160a01b0383166104665760405162461bcd60e51b8152602060048201526024808201527f45524332303a20617070726f76652066726f6d20746865207a65726f206164646044820152637265737360e01b60648201526084016103e1565b6001600160a01b0382166104c75760405162461bcd60e51b815260206004820152602260248201527f45524332303a20617070726f766520746f20746865207a65726f206164647265604482015261737360f01b60648201526084016103e1565b6001600160a01b038381165f8181526001602090815260408083209487168084529482529182902085905590518481527f8c5be1e5ebec7d5bd14f71427d1e84f3dd0314c0f7b2291e5b200ac8c7c3b925910160405180910390a3505050565b6001600160a01b038381165f908152600160209081526040808320938616835292905220545f1981146105b157818110156105a45760405162461bcd60e51b815260206004820152601d60248201527f45524332303a20696e73756666696369656e7420616c6c6f77616e636500000060448201526064016103e1565b6105b18484848403610404565b50505050565b6001600160a01b03831661061b5760405162461bcd60e51b815260206004820152602560248201527f45524332303a207472616e736665722066726f6d20746865207a65726f206164604482015264647265737360d81b60648201526084016103e1565b6001600160a01b03821661067d5760405162461bcd60e51b815260206004820152602360248201527f45524332303a207472616e7366657220746f20746865207a65726f206164647260448201526265737360e81b60648201526084016103e1565b6001600160a01b0383165f90815260208190526040902054818110156106f45760405162461bcd60e51b815260206004820152602660248201527f45524332303a207472616e7366657220616d6f756e7420657863656564732062604482015265616c616e636560d01b60648201526084016103e1565b6001600160a01b038481165f81815260208181526040808320878703905593871680835291849020805487019055925185815290927fddf252ad1be2c89b69c2b068fc378daa952ba7f163c4a11628f55a4df523b3ef910160405180910390a36105b1565b7f00000000000000000000000000000000000000000000000000000000000000008161078460025490565b61078e91906109ee565b11156107dc5760405162461bcd60e51b815260206004820152601960248201527f45524332304361707065643a206361702065786365656465640000000000000060448201526064016103e1565b61034e82826001600160a01b0382166108375760405162461bcd60e51b815260206004820152601f60248201527f45524332303a206d696e7420746f20746865207a65726f20616464726573730060448201526064016103e1565b8060025f82825461084891906109ee565b90915550506001600160a01b0382165f81815260208181526040808320805486019055518481527fddf252ad1be2c89b69c2b068fc378daa952ba7f163c4a11628f55a4df523b3ef910160405180910390a35050565b5f6020808352835180828501525f5b818110156108c9578581018301518582016040015282016108ad565b505f604082860101526040601f19601f8301168501019250505092915050565b80356001600160a01b03811681146108ff575f80fd5b919050565b5f8060408385031215610915575f80fd5b61091e836108e9565b946020939093013593505050565b5f805f6060848603121561093e575f80fd5b610947846108e9565b9250610955602085016108e9565b9150604084013590509250925092565b5f60208284031215610975575f80fd5b61097e826108e9565b9392505050565b5f8060408385031215610996575f80fd5b61099f836108e9565b91506109ad602084016108e9565b90509250929050565b600181811c908216806109ca57607f821691505b6020821081036109e857634e487b7160e01b5f52602260045260245ffd5b50919050565b808201808211156102d257634e487b7160e01b5f52601160045260245ffdfea2646970667358221220e77bac4b7bfeb525bf2dc2118ab84051ad1e877a5be5c81226bb8086084bc48b64736f6c63430008140033",
  "linkReferences": {},
  "deployedLinkReferences": {}
}