{
  "_format": "hh-sol-artifact-1",
  "contractName": "ERC20BurnableMock",
  "sourceName": "contracts/erc-20-extensions/ERC20Extensions.sol",
  "abi": [
    {
      "inputs": [
        {
          "internalType": "string",
          "name": "name",
          "type": "string"
        },
        {
          "internalType": "string",
          "name": "symbol",
          "type": "string"
        }
      ],
      "stateMutability": "nonpayable",
      "type": "constructor"
    },
    {
      "inputs": [
        {
          "internalType": "address",
          "name": "spender",
          "type": "address"
        },
        {
          "internalType": "uint256",
          "name": "allowance",
          "type": "uint256"
        },
        {
          "internalType": "uint256",
          "name": "needed",
          "type": "uint256"
        }
      ],
      "name": "ERC20InsufficientAllowance",
      "type": "error"
    },
    {
      "inputs": [
        {
          "internalType": "address",
          "name": "sender",
          "type": "address"
        },
        {
          "internalType": "uint256",
          "name": "balance",
          "type": "uint256"
        },
        {
          "internalType": "uint256",
          "name": "needed",
          "type": "uint256"
        }
      ],
      "name": "ERC20InsufficientBalance",
      "type": "error"
    },
    {
      "inputs": [
        {
          "internalType": "address",
          "name": "approver",
          "type": "address"
        }
      ],
      "name": "ERC20InvalidApprover",
      "type": "error"
    },
    {
      "inputs": [
        {
          "internalType": "address",
          "name": "receiver",
          "type": "address"
        }
      ],
      "name": "ERC20InvalidReceiver",
      "type": "error"
    },
    {
      "inputs": [
        {
          "internalType": "address",
          "name": "sender",
          "type": "address"
        }
      ],
      "name": "ERC20InvalidSender",
      "type": "error"
    },
    {
      "inputs": [
        {
          "internalType": "address",
          "name": "spender",
          "type": "address"
        }
      ],
      "name": "ERC20InvalidSpender",
      "type": "error"
    },
    {
      "anonymous": false,
      "inputs": [
        {
          "indexed": true,
          "internalType": "address",
          "name": "owner",
          "type": "address"
        },
        {
          "indexed": true,
          "internalType": "address",
          "name": "spender",
          "type": "address"
        },
        {
          "indexed": false,
          "internalType": "uint256",
          "name": "value",
          "type": "uint256"
        }
      ],
      "name": "Approval",
      "type": "event"
    },
    {
      "anonymous": false,
      "inputs": [
        {
          "indexed": true,
          "internalType": "address",
          "name": "from",
          "type": "address"
        },
        {
          "indexed": true,
          "internalType": "address",
          "name": "to",
          "type": "address"
        },
        {
          "indexed": false,
          "internalType": "uint256",
          "name": "value",
          "type": "uint256"
        }
      ],
      "name": "Transfer",
      "type": "event"
    },
    {
      "inputs": [
        {
          "internalType": "address",
          "name": "owner",
          "type": "address"
        },
        {
          "internalType": "address",
          "name": "spender",
          "type": "address"
        }
      ],
      "name": "allowance",
      "outputs": [
        {
          "internalType": "uint256",
          "name": "",
          "type": "uint256"
        }
      ],
      "stateMutability": "view",
      "type": "function"
    },
    {
      "inputs": [
        {
          "internalType": "address",
          "name": "spender",
          "type": "address"
        },
        {
          "internalType": "uint256",
          "name": "value",
          "type": "uint256"
        }
      ],
      "name": "approve",
      "outputs": [
        {
          "internalType": "bool",
          "name": "",
          "type": "bool"
        }
      ],
      "stateMutability": "nonpayable",
      "type": "function"
    },
    {
      "inputs": [
        {
          "internalType": "address",
          "name": "account",
          "type": "address"
        }
      ],
      "name": "balanceOf",
      "outputs": [
        {
          "internalType": "uint256",
          "name": "",
          "type": "uint256"
        }
      ],
      "stateMutability": "view",
      "type": "function"
    },
    {
      "inputs": [
        {
          "internalType": "uint256",
          "name": "value",
          "type": "uint256"
        }
      ],
      "name": "burn",
      "outputs": [],
      "stateMutability": "nonpayable",
      "type": "function"
    },
    {
      "inputs": [
        {
          "internalType": "address",
          "name": "account",
          "type": "address"
        },
        {
          "internalType": "uint256",
          "name": "value",
          "type": "uint256"
        }
      ],
      "name": "burnFrom",
      "outputs": [],
      "stateMutability": "nonpayable",
      "type": "function"
    },
    {
      "inputs": [],
      "name": "decimals",
      "outputs": [
        {
          "internalType": "uint8",
          "name": "",
          "type": "uint8"
        }
      ],
      "stateMutability": "view",
      "type": "function"
    },
    {
      "inputs": [
        {
          "internalType": "address",
          "name": "to",
          "type": "address"
        },
        {
          "internalType": "uint256",
          "name": "amount",
          "type": "uint256"
        }
      ],
      "name": "mint",
      "outputs": [],
      "stateMutability": "nonpayable",
      "type": "function"
    },
    {
      "inputs": [],
      "name": "name",
      "outputs": [
        {
          "internalType": "string",
          "name": "",
          "type": "string"
        }
      ],
      "stateMutability": "view",
      "type": "function"
    },
    {
      "inputs": [],
      "name": "symbol",
      "outputs": [
        {
          "internalType": "string",
          "name": "",
          "type": "string"
        }
      ],
      "stateMutability": "view",
      "type": "function"
    },
    {
      "inputs": [],
      "name": "totalSupply",
      "outputs": [
        {
          "internalType": "uint256",
          "name": "",
          "type": "uint256"
        }
      ],
      "stateMutability": "view",
      "type": "function"
    },
    {
      "inputs": [
        {
          "internalType": "address",
          "name": "to",
          "type": "address"
        },
        {
          "internalType": "uint256",
          "name": "value",
          "type": "uint256"
        }
      ],
      "name": "transfer",
      "outputs": [
        {
          "internalType": "bool",
          "name": "",
          "type": "bool"
        }
      ],
      "stateMutability": "nonpayable",
      "type": "function"
    },
    {
      "inputs": [
        {
          "internalType": "address",
          "name": "from",
          "type": "address"
        },
        {
          "internalType": "address",
          "name": "to",
          "type": "address"
        },
        {
          "internalType": "uint256",
          "name": "value",
          "type": "uint256"
        }
      ],
      "name": "transferFrom",
      "outputs": [
        {
          "internalType": "bool",
          "name": "",
          "type": "bool"
        }
      ],
      "stateMutability": "nonpayable",
      "type": "function"
    }
  ],
  "bytecode": "0x60806040523480156200001157600080fd5b5060405162000b5638038062000b56833981016040819052620000349162000123565b818160036200004483826200021c565b5060046200005382826200021c565b5050505050620002e8565b634e487b7160e01b600052604160045260246000fd5b600082601f8301126200008657600080fd5b81516001600160401b0380821115620000a357620000a36200005e565b604051601f8301601f19908116603f01168101908282118183101715620000ce57620000ce6200005e565b81604052838152602092508683858801011115620000eb57600080fd5b600091505b838210156200010f5785820183015181830184015290820190620000f0565b600093810190920192909252949350505050565b600080604083850312156200013757600080fd5b82516001600160401b03808211156200014f57600080fd5b6200015d8683870162000074565b935060208501519150808211156200017457600080fd5b50620001838582860162000074565b9150509250929050565b600181811c90821680620001a257607f821691505b602082108103620001c357634e487b7160e01b600052602260045260246000fd5b50919050565b601f8211156200021757600081815260208120601f850160051c81016020861015620001f25750805b601f850160051c820191505b818110156200021357828155600101620001fe565b5050505b505050565b81516001600160401b038111156200023857620002386200005e565b62000250816200024984546200018d565b84620001c9565b602080601f8311600181146200028857600084156200026f5750858301515b600019600386901b1c1916600185901b17855562000213565b600085815260208120601f198616915b82811015620002b95788860151825594840194600190910190840162000298565b5085821015620002d85787850151600019600388901b60f8161c191681555b5050505050600190811b01905550565b61085e80620002f86000396000f3fe608060405234801561001057600080fd5b50600436106100d45760003560e01c806342966c681161008157806395d89b411161005b57806395d89b41146101b2578063a9059cbb146101ba578063dd62ed3e146101cd57600080fd5b806342966c681461016357806370a082311461017657806379cc67901461019f57600080fd5b806323b872dd116100b257806323b872dd1461012c578063313ce5671461013f57806340c10f191461014e57600080fd5b806306fdde03146100d9578063095ea7b3146100f757806318160ddd1461011a575b600080fd5b6100e1610206565b6040516100ee919061068f565b60405180910390f35b61010a6101053660046106f9565b610298565b60405190151581526020016100ee565b6002545b6040519081526020016100ee565b61010a61013a366004610723565b6102b2565b604051601281526020016100ee565b61016161015c3660046106f9565b6102d6565b005b61016161017136600461075f565b6102f1565b61011e610184366004610778565b6001600160a01b031660009081526020819052604090205490565b6101616101ad3660046106f9565b6102fe565b6100e1610313565b61010a6101c83660046106f9565b610322565b61011e6101db36600461079a565b6001600160a01b03918216600090815260016020908152604080832093909416825291909152205490565b606060038054610215906107cd565b80601f0160208091040260200160405190810160405280929190818152602001828054610241906107cd565b801561028e5780601f106102635761010080835404028352916020019161028e565b820191906000526020600020905b81548152906001019060200180831161027157829003601f168201915b5050505050905090565b6000336102a6818585610330565b60019150505b92915050565b6000336102c0858285610342565b6102cb8585856103c5565b506001949350505050565b600081116102e357600080fd5b6102ed8282610424565b5050565b6102fb338261045a565b50565b610309823383610342565b6102ed828261045a565b606060048054610215906107cd565b6000336102a68185856103c5565b61033d8383836001610490565b505050565b6001600160a01b0383811660009081526001602090815260408083209386168352929052205460001981146103bf57818110156103b057604051637dc7a0d960e11b81526001600160a01b038416600482015260248101829052604481018390526064015b60405180910390fd5b6103bf84848484036000610490565b50505050565b6001600160a01b0383166103ef57604051634b637e8f60e11b8152600060048201526024016103a7565b6001600160a01b0382166104195760405163ec442f0560e01b8152600060048201526024016103a7565b61033d838383610565565b6001600160a01b03821661044e5760405163ec442f0560e01b8152600060048201526024016103a7565b6102ed60008383610565565b6001600160a01b03821661048457604051634b637e8f60e11b8152600060048201526024016103a7565b6102ed82600083610565565b6001600160a01b0384166104ba5760405163e602df0560e01b8152600060048201526024016103a7565b6001600160a01b0383166104e457604051634a1406b160e11b8152600060048201526024016103a7565b6001600160a01b03808516600090815260016020908152604080832093871683529290522082905580156103bf57826001600160a01b0316846001600160a01b03167f8c5be1e5ebec7d5bd14f71427d1e84f3dd0314c0f7b2291e5b200ac8c7c3b9258460405161055791815260200190565b60405180910390a350505050565b6001600160a01b0383166105905780600260008282546105859190610807565b909155506106029050565b6001600160a01b038316600090815260208190526040902054818110156105e35760405163391434e360e21b81526001600160a01b038516600482015260248101829052604481018390526064016103a7565b6001600160a01b03841660009081526020819052604090209082900390555b6001600160a01b03821661061e5760028054829003905561063d565b6001600160a01b03821660009081526020819052604090208054820190555b816001600160a01b0316836001600160a01b03167fddf252ad1be2c89b69c2b068fc378daa952ba7f163c4a11628f55a4df523b3ef8360405161068291815260200190565b60405180910390a3505050565b600060208083528351808285015260005b818110156106bc578581018301518582016040015282016106a0565b506000604082860101526040601f19601f8301168501019250505092915050565b80356001600160a01b03811681146106f457600080fd5b919050565b6000806040838503121561070c57600080fd5b610715836106dd565b946020939093013593505050565b60008060006060848603121561073857600080fd5b610741846106dd565b925061074f602085016106dd565b9150604084013590509250925092565b60006020828403121561077157600080fd5b5035919050565b60006020828403121561078a57600080fd5b610793826106dd565b9392505050565b600080604083850312156107ad57600080fd5b6107b6836106dd565b91506107c4602084016106dd565b90509250929050565b600181811c908216806107e157607f821691505b60208210810361080157634e487b7160e01b600052602260045260246000fd5b50919050565b808201808211156102ac57634e487b7160e01b600052601160045260246000fdfea2646970667358221220b95db6dff9470875661e486a0154906dda415d1a7aeb95cecab3b5bc3060a4a064736f6c63430008140033",
  "linkReferences": {},
  "deployedLinkReferences": {}
}