{
  "_format": "hh-sol-artifact-1",
  "contractName": "ERC20SnapshotMock",
  "sourceName": "contracts/erc-20-extensions/ERC20Extensions.sol",
  "abi": [
    {
      "inputs": [
        {
          "internalType": "string",
          "name": "name",
          "type": "string"
        },
        {
          "internalType": "string",
          "name": "symbol",
          "type": "string"
        }
      ],
      "stateMutability": "nonpayable",
      "type": "constructor"
    },
    {
      "anonymous": false,
      "inputs": [
        {
          "indexed": true,
          "internalType": "address",
          "name": "owner",
          "type": "address"
        },
        {
          "indexed": true,
          "internalType": "address",
          "name": "spender",
          "type": "address"
        },
        {
          "indexed": false,
          "internalType": "uint256",
          "name": "value",
          "type": "uint256"
        }
      ],
      "name": "Approval",
      "type": "event"
    },
    {
      "anonymous": false,
      "inputs": [
        {
          "indexed": false,
          "internalType": "uint256",
          "name": "id",
          "type": "uint256"
        }
      ],
      "name": "Snapshot",
      "type": "event"
    },
    {
      "anonymous": false,
      "inputs": [
        {
          "indexed": true,
          "internalType": "address",
          "name": "from",
          "type": "address"
        },
        {
          "indexed": true,
          "internalType": "address",
          "name": "to",
          "type": "address"
        },
        {
          "indexed": false,
          "internalType": "uint256",
          "name": "value",
          "type": "uint256"
        }
      ],
      "name": "Transfer",
      "type": "event"
    },
    {
      "inputs": [
        {
          "internalType": "address",
          "name": "owner",
          "type": "address"
        },
        {
          "internalType": "address",
          "name": "spender",
          "type": "address"
        }
      ],
      "name": "allowance",
      "outputs": [
        {
          "internalType": "uint256",
          "name": "",
          "type": "uint256"
        }
      ],
      "stateMutability": "view",
      "type": "function"
    },
    {
      "inputs": [
        {
          "internalType": "address",
          "name": "spender",
          "type": "address"
        },
        {
          "internalType": "uint256",
          "name": "amount",
          "type": "uint256"
        }
      ],
      "name": "approve",
      "outputs": [
        {
          "internalType": "bool",
          "name": "",
          "type": "bool"
        }
      ],
      "stateMutability": "nonpayable",
      "type": "function"
    },
    {
      "inputs": [
        {
          "internalType": "address",
          "name": "account",
          "type": "address"
        }
      ],
      "name": "balanceOf",
      "outputs": [
        {
          "internalType": "uint256",
          "name": "",
          "type": "uint256"
        }
      ],
      "stateMutability": "view",
      "type": "function"
    },
    {
      "inputs": [
        {
          "internalType": "address",
          "name": "account",
          "type": "address"
        },
        {
          "internalType": "uint256",
          "name": "snapshotId",
          "type": "uint256"
        }
      ],
      "name": "balanceOfAt",
      "outputs": [
        {
          "internalType": "uint256",
          "name": "",
          "type": "uint256"
        }
      ],
      "stateMutability": "view",
      "type": "function"
    },
    {
      "inputs": [],
      "name": "decimals",
      "outputs": [
        {
          "internalType": "uint8",
          "name": "",
          "type": "uint8"
        }
      ],
      "stateMutability": "view",
      "type": "function"
    },
    {
      "inputs": [
        {
          "internalType": "address",
          "name": "spender",
          "type": "address"
        },
        {
          "internalType": "uint256",
          "name": "subtractedValue",
          "type": "uint256"
        }
      ],
      "name": "decreaseAllowance",
      "outputs": [
        {
          "internalType": "bool",
          "name": "",
          "type": "bool"
        }
      ],
      "stateMutability": "nonpayable",
      "type": "function"
    },
    {
      "inputs": [
        {
          "internalType": "address",
          "name": "spender",
          "type": "address"
        },
        {
          "internalType": "uint256",
          "name": "addedValue",
          "type": "uint256"
        }
      ],
      "name": "increaseAllowance",
      "outputs": [
        {
          "internalType": "bool",
          "name": "",
          "type": "bool"
        }
      ],
      "stateMutability": "nonpayable",
      "type": "function"
    },
    {
      "inputs": [
        {
          "internalType": "address",
          "name": "to",
          "type": "address"
        },
        {
          "internalType": "uint256",
          "name": "amount",
          "type": "uint256"
        }
      ],
      "name": "mint",
      "outputs": [],
      "stateMutability": "nonpayable",
      "type": "function"
    },
    {
      "inputs": [],
      "name": "name",
      "outputs": [
        {
          "internalType": "string",
          "name": "",
          "type": "string"
        }
      ],
      "stateMutability": "view",
      "type": "function"
    },
    {
      "inputs": [],
      "name": "snapshot",
      "outputs": [],
      "stateMutability": "nonpayable",
      "type": "function"
    },
    {
      "inputs": [],
      "name": "symbol",
      "outputs": [
        {
          "internalType": "string",
          "name": "",
          "type": "string"
        }
      ],
      "stateMutability": "view",
      "type": "function"
    },
    {
      "inputs": [],
      "name": "totalSupply",
      "outputs": [
        {
          "internalType": "uint256",
          "name": "",
          "type": "uint256"
        }
      ],
      "stateMutability": "view",
      "type": "function"
    },
    {
      "inputs": [
        {
          "internalType": "uint256",
          "name": "snapshotId",
          "type": "uint256"
        }
      ],
      "name": "totalSupplyAt",
      "outputs": [
        {
          "internalType": "uint256",
          "name": "",
          "type": "uint256"
        }
      ],
      "stateMutability": "view",
      "type": "function"
    },
    {
      "inputs": [
        {
          "internalType": "address",
          "name": "to",
          "type": "address"
        },
        {
          "internalType": "uint256",
          "name": "amount",
          "type": "uint256"
        }
      ],
      "name": "transfer",
      "outputs": [
        {
          "internalType": "bool",
          "name": "",
          "type": "bool"
        }
      ],
      "stateMutability": "nonpayable",
      "type": "function"
    },
    {
      "inputs": [
        {
          "internalType": "address",
          "name": "from",
          "type": "address"
        },
        {
          "internalType": "address",
          "name": "to",
          "type": "address"
        },
        {
          "internalType": "uint256",
          "name": "amount",
          "type": "uint256"
        }
      ],
      "name": "transferFrom",
      "outputs": [
        {
          "internalType": "bool",
          "name": "",
          "type": "bool"
        }
      ],
      "stateMutability": "nonpayable",
      "type": "function"
    }
  ],
  "bytecode": "0x608060405234801562000010575f80fd5b50604051620010f7380380620010f783398101604081905262000033916200011b565b818160036200004383826200020d565b5060046200005282826200020d565b5050505050620002d5565b634e487b7160e01b5f52604160045260245ffd5b5f82601f83011262000081575f80fd5b81516001600160401b03808211156200009e576200009e6200005d565b604051601f8301601f19908116603f01168101908282118183101715620000c957620000c96200005d565b81604052838152602092508683858801011115620000e5575f80fd5b5f91505b83821015620001085785820183015181830184015290820190620000e9565b5f93810190920192909252949350505050565b5f80604083850312156200012d575f80fd5b82516001600160401b038082111562000144575f80fd5b620001528683870162000071565b9350602085015191508082111562000168575f80fd5b50620001778582860162000071565b9150509250929050565b600181811c908216806200019657607f821691505b602082108103620001b557634e487b7160e01b5f52602260045260245ffd5b50919050565b601f82111562000208575f81815260208120601f850160051c81016020861015620001e35750805b601f850160051c820191505b818110156200020457828155600101620001ef565b5050505b505050565b81516001600160401b038111156200022957620002296200005d565b62000241816200023a845462000181565b84620001bb565b602080601f83116001811462000277575f84156200025f5750858301515b5f19600386901b1c1916600185901b17855562000204565b5f85815260208120601f198616915b82811015620002a75788860151825594840194600190910190840162000286565b5085821015620002c557878501515f19600388901b60f8161c191681555b5050505050600190811b01905550565b610e1480620002e35f395ff3fe608060405234801561000f575f80fd5b50600436106100f0575f3560e01c80634ee2cd7e11610093578063981b24d011610063578063981b24d0146101dc578063a457c2d7146101ef578063a9059cbb14610202578063dd62ed3e14610215575f80fd5b80634ee2cd7e1461019157806370a08231146101a457806395d89b41146101cc5780639711715a146101d4575f80fd5b806323b872dd116100ce57806323b872dd14610147578063313ce5671461015a578063395093511461016957806340c10f191461017c575f80fd5b806306fdde03146100f4578063095ea7b31461011257806318160ddd14610135575b5f80fd5b6100fc61024d565b6040516101099190610c16565b60405180910390f35b610125610120366004610c77565b6102dd565b6040519015158152602001610109565b6002545b604051908152602001610109565b610125610155366004610c9f565b6102f6565b60405160128152602001610109565b610125610177366004610c77565b610319565b61018f61018a366004610c77565b610357565b005b61013961019f366004610c77565b610370565b6101396101b2366004610cd8565b6001600160a01b03165f9081526020819052604090205490565b6100fc6103c7565b61018f6103d6565b6101396101ea366004610cf1565b6103e1565b6101256101fd366004610c77565b61040a565b610125610210366004610c77565b6104a0565b610139610223366004610d08565b6001600160a01b039182165f90815260016020908152604080832093909416825291909152205490565b60606003805461025c90610d39565b80601f016020809104026020016040519081016040528092919081815260200182805461028890610d39565b80156102d35780601f106102aa576101008083540402835291602001916102d3565b820191905f5260205f20905b8154815290600101906020018083116102b657829003601f168201915b5050505050905090565b5f336102ea8185856104ad565b60019150505b92915050565b5f336103038582856105d0565b61030e858585610660565b506001949350505050565b335f8181526001602090815260408083206001600160a01b03871684529091528120549091906102ea9082908690610352908790610d85565b6104ad565b5f8111610362575f80fd5b61036c828261080d565b5050565b6001600160a01b0382165f908152600560205260408120819081906103969085906108d5565b91509150816103bc576001600160a01b0385165f908152602081905260409020546103be565b805b95945050505050565b60606004805461025c90610d39565b6103de6109cc565b50565b5f805f6103ef8460066108d5565b915091508161040057600254610402565b805b949350505050565b335f8181526001602090815260408083206001600160a01b0387168452909152812054909190838110156104935760405162461bcd60e51b815260206004820152602560248201527f45524332303a2064656372656173656420616c6c6f77616e63652062656c6f77604482015264207a65726f60d81b60648201526084015b60405180910390fd5b61030e82868684036104ad565b5f336102ea818585610660565b6001600160a01b03831661050f5760405162461bcd60e51b8152602060048201526024808201527f45524332303a20617070726f76652066726f6d20746865207a65726f206164646044820152637265737360e01b606482015260840161048a565b6001600160a01b0382166105705760405162461bcd60e51b815260206004820152602260248201527f45524332303a20617070726f766520746f20746865207a65726f206164647265604482015261737360f01b606482015260840161048a565b6001600160a01b038381165f8181526001602090815260408083209487168084529482529182902085905590518481527f8c5be1e5ebec7d5bd14f71427d1e84f3dd0314c0f7b2291e5b200ac8c7c3b925910160405180910390a3505050565b6001600160a01b038381165f908152600160209081526040808320938616835292905220545f19811461065a578181101561064d5760405162461bcd60e51b815260206004820152601d60248201527f45524332303a20696e73756666696369656e7420616c6c6f77616e6365000000604482015260640161048a565b61065a84848484036104ad565b50505050565b6001600160a01b0383166106c45760405162461bcd60e51b815260206004820152602560248201527f45524332303a207472616e736665722066726f6d20746865207a65726f206164604482015264647265737360d81b606482015260840161048a565b6001600160a01b0382166107265760405162461bcd60e51b815260206004820152602360248201527f45524332303a207472616e7366657220746f20746865207a65726f206164647260448201526265737360e81b606482015260840161048a565b610731838383610a24565b6001600160a01b0383165f90815260208190526040902054818110156107a85760405162461bcd60e51b815260206004820152602660248201527f45524332303a207472616e7366657220616d6f756e7420657863656564732062604482015265616c616e636560d01b606482015260840161048a565b6001600160a01b038481165f81815260208181526040808320878703905593871680835291849020805487019055925185815290927fddf252ad1be2c89b69c2b068fc378daa952ba7f163c4a11628f55a4df523b3ef910160405180910390a361065a565b6001600160a01b0382166108635760405162461bcd60e51b815260206004820152601f60248201527f45524332303a206d696e7420746f20746865207a65726f206164647265737300604482015260640161048a565b61086e5f8383610a24565b8060025f82825461087f9190610d85565b90915550506001600160a01b0382165f81815260208181526040808320805486019055518481527fddf252ad1be2c89b69c2b068fc378daa952ba7f163c4a11628f55a4df523b3ef910160405180910390a35050565b5f805f84116109265760405162461bcd60e51b815260206004820152601660248201527f4552433230536e617073686f743a206964206973203000000000000000000000604482015260640161048a565b61092e610a71565b84111561097d5760405162461bcd60e51b815260206004820152601d60248201527f4552433230536e617073686f743a206e6f6e6578697374656e74206964000000604482015260640161048a565b5f6109888486610a80565b8454909150810361099f575f8092509250506109c5565b60018460010182815481106109b6576109b6610d98565b905f5260205f20015492509250505b9250929050565b5f6109db600880546001019055565b5f6109e4610a71565b90507f8030e83b04d87bef53480e26263266d6ca66863aa8506aca6f2559d18aa1cb6781604051610a1791815260200190565b60405180910390a1919050565b6001600160a01b038316610a4857610a3b82610b26565b610a43610b57565b505050565b6001600160a01b038216610a5f57610a3b83610b26565b610a6883610b26565b610a4382610b26565b5f610a7b60085490565b905090565b81545f908103610a9157505f6102f0565b82545f905b80821015610adb575f610aa98383610b67565b5f8781526020902090915085908201541115610ac757809150610ad5565b610ad2816001610d85565b92505b50610a96565b5f82118015610b05575083610b0286610af5600186610dac565b5f91825260209091200190565b54145b15610b1e57610b15600183610dac565b925050506102f0565b5090506102f0565b6001600160a01b0381165f90815260056020908152604080832091839052909120546103de9190610b88565b610b88565b610b656006610b5260025490565b565b5f610b756002848418610dbf565b610b8190848416610d85565b9392505050565b5f610b91610a71565b905080610b9d84610bd0565b1015610a43578254600180820185555f858152602080822090930193909355938401805494850181558252902090910155565b80545f908103610be157505f919050565b81548290610bf190600190610dac565b81548110610c0157610c01610d98565b905f5260205f2001549050919050565b919050565b5f6020808352835180828501525f5b81811015610c4157858101830151858201604001528201610c25565b505f604082860101526040601f19601f8301168501019250505092915050565b80356001600160a01b0381168114610c11575f80fd5b5f8060408385031215610c88575f80fd5b610c9183610c61565b946020939093013593505050565b5f805f60608486031215610cb1575f80fd5b610cba84610c61565b9250610cc860208501610c61565b9150604084013590509250925092565b5f60208284031215610ce8575f80fd5b610b8182610c61565b5f60208284031215610d01575f80fd5b5035919050565b5f8060408385031215610d19575f80fd5b610d2283610c61565b9150610d3060208401610c61565b90509250929050565b600181811c90821680610d4d57607f821691505b602082108103610d6b57634e487b7160e01b5f52602260045260245ffd5b50919050565b634e487b7160e01b5f52601160045260245ffd5b808201808211156102f0576102f0610d71565b634e487b7160e01b5f52603260045260245ffd5b818103818111156102f0576102f0610d71565b5f82610dd957634e487b7160e01b5f52601260045260245ffd5b50049056fea26469706673582212207d8db7eca8a568f0981635d854fb485382e1c364dcec4598c85f72492abd8efa64736f6c63430008140033",
  "linkReferences": {},
  "deployedLinkReferences": {}
}