{
  "_format": "hh-sol-artifact-1",
  "contractName": "ERC20PausableMock",
  "sourceName": "contracts/erc-20-extensions/ERC20Extensions.sol",
  "abi": [
    {
      "inputs": [
        {
          "internalType": "string",
          "name": "name",
          "type": "string"
        },
        {
          "internalType": "string",
          "name": "symbol",
          "type": "string"
        }
      ],
      "stateMutability": "nonpayable",
      "type": "constructor"
    },
    {
      "anonymous": false,
      "inputs": [
        {
          "indexed": true,
          "internalType": "address",
          "name": "owner",
          "type": "address"
        },
        {
          "indexed": true,
          "internalType": "address",
          "name": "spender",
          "type": "address"
        },
        {
          "indexed": false,
          "internalType": "uint256",
          "name": "value",
          "type": "uint256"
        }
      ],
      "name": "Approval",
      "type": "event"
    },
    {
      "anonymous": false,
      "inputs": [
        {
          "indexed": true,
          "internalType": "address",
          "name": "previousOwner",
          "type": "address"
        },
        {
          "indexed": true,
          "internalType": "address",
          "name": "newOwner",
          "type": "address"
        }
      ],
      "name": "OwnershipTransferred",
      "type": "event"
    },
    {
      "anonymous": false,
      "inputs": [
        {
          "indexed": false,
          "internalType": "address",
          "name": "account",
          "type": "address"
        }
      ],
      "name": "Paused",
      "type": "event"
    },
    {
      "anonymous": false,
      "inputs": [
        {
          "indexed": true,
          "internalType": "address",
          "name": "from",
          "type": "address"
        },
        {
          "indexed": true,
          "internalType": "address",
          "name": "to",
          "type": "address"
        },
        {
          "indexed": false,
          "internalType": "uint256",
          "name": "value",
          "type": "uint256"
        }
      ],
      "name": "Transfer",
      "type": "event"
    },
    {
      "anonymous": false,
      "inputs": [
        {
          "indexed": false,
          "internalType": "address",
          "name": "account",
          "type": "address"
        }
      ],
      "name": "Unpaused",
      "type": "event"
    },
    {
      "inputs": [
        {
          "internalType": "address",
          "name": "owner",
          "type": "address"
        },
        {
          "internalType": "address",
          "name": "spender",
          "type": "address"
        }
      ],
      "name": "allowance",
      "outputs": [
        {
          "internalType": "uint256",
          "name": "",
          "type": "uint256"
        }
      ],
      "stateMutability": "view",
      "type": "function"
    },
    {
      "inputs": [
        {
          "internalType": "address",
          "name": "spender",
          "type": "address"
        },
        {
          "internalType": "uint256",
          "name": "amount",
          "type": "uint256"
        }
      ],
      "name": "approve",
      "outputs": [
        {
          "internalType": "bool",
          "name": "",
          "type": "bool"
        }
      ],
      "stateMutability": "nonpayable",
      "type": "function"
    },
    {
      "inputs": [
        {
          "internalType": "address",
          "name": "account",
          "type": "address"
        }
      ],
      "name": "balanceOf",
      "outputs": [
        {
          "internalType": "uint256",
          "name": "",
          "type": "uint256"
        }
      ],
      "stateMutability": "view",
      "type": "function"
    },
    {
      "inputs": [],
      "name": "decimals",
      "outputs": [
        {
          "internalType": "uint8",
          "name": "",
          "type": "uint8"
        }
      ],
      "stateMutability": "view",
      "type": "function"
    },
    {
      "inputs": [
        {
          "internalType": "address",
          "name": "spender",
          "type": "address"
        },
        {
          "internalType": "uint256",
          "name": "subtractedValue",
          "type": "uint256"
        }
      ],
      "name": "decreaseAllowance",
      "outputs": [
        {
          "internalType": "bool",
          "name": "",
          "type": "bool"
        }
      ],
      "stateMutability": "nonpayable",
      "type": "function"
    },
    {
      "inputs": [
        {
          "internalType": "address",
          "name": "spender",
          "type": "address"
        },
        {
          "internalType": "uint256",
          "name": "addedValue",
          "type": "uint256"
        }
      ],
      "name": "increaseAllowance",
      "outputs": [
        {
          "internalType": "bool",
          "name": "",
          "type": "bool"
        }
      ],
      "stateMutability": "nonpayable",
      "type": "function"
    },
    {
      "inputs": [
        {
          "internalType": "address",
          "name": "to",
          "type": "address"
        },
        {
          "internalType": "uint256",
          "name": "amount",
          "type": "uint256"
        }
      ],
      "name": "mint",
      "outputs": [],
      "stateMutability": "nonpayable",
      "type": "function"
    },
    {
      "inputs": [],
      "name": "name",
      "outputs": [
        {
          "internalType": "string",
          "name": "",
          "type": "string"
        }
      ],
      "stateMutability": "view",
      "type": "function"
    },
    {
      "inputs": [],
      "name": "owner",
      "outputs": [
        {
          "internalType": "address",
          "name": "",
          "type": "address"
        }
      ],
      "stateMutability": "view",
      "type": "function"
    },
    {
      "inputs": [],
      "name": "pause",
      "outputs": [],
      "stateMutability": "nonpayable",
      "type": "function"
    },
    {
      "inputs": [],
      "name": "paused",
      "outputs": [
        {
          "internalType": "bool",
          "name": "",
          "type": "bool"
        }
      ],
      "stateMutability": "view",
      "type": "function"
    },
    {
      "inputs": [],
      "name": "renounceOwnership",
      "outputs": [],
      "stateMutability": "nonpayable",
      "type": "function"
    },
    {
      "inputs": [],
      "name": "symbol",
      "outputs": [
        {
          "internalType": "string",
          "name": "",
          "type": "string"
        }
      ],
      "stateMutability": "view",
      "type": "function"
    },
    {
      "inputs": [],
      "name": "totalSupply",
      "outputs": [
        {
          "internalType": "uint256",
          "name": "",
          "type": "uint256"
        }
      ],
      "stateMutability": "view",
      "type": "function"
    },
    {
      "inputs": [
        {
          "internalType": "address",
          "name": "to",
          "type": "address"
        },
        {
          "internalType": "uint256",
          "name": "amount",
          "type": "uint256"
        }
      ],
      "name": "transfer",
      "outputs": [
        {
          "internalType": "bool",
          "name": "",
          "type": "bool"
        }
      ],
      "stateMutability": "nonpayable",
      "type": "function"
    },
    {
      "inputs": [
        {
          "internalType": "address",
          "name": "from",
          "type": "address"
        },
        {
          "internalType": "address",
          "name": "to",
          "type": "address"
        },
        {
          "internalType": "uint256",
          "name": "amount",
          "type": "uint256"
        }
      ],
      "name": "transferFrom",
      "outputs": [
        {
          "internalType": "bool",
          "name": "",
          "type": "bool"
        }
      ],
      "stateMutability": "nonpayable",
      "type": "function"
    },
    {
      "inputs": [
        {
          "internalType": "address",
          "name": "newOwner",
          "type": "address"
        }
      ],
      "name": "transferOwnership",
      "outputs": [],
      "stateMutability": "nonpayable",
      "type": "function"
    },
    {
      "inputs": [],
      "name": "unpause",
      "outputs": [],
      "stateMutability": "nonpayable",
      "type": "function"
    }
  ],
  "bytecode": "0x608060405234801562000010575f80fd5b50604051620010a3380380620010a3833981016040819052620000339162000189565b818160036200004383826200027b565b5060046200005282826200027b565b50506005805460ff19169055506200006a3362000072565b505062000343565b600580546001600160a01b03838116610100818102610100600160a81b031985161790945560405193909204169182907f8be0079c531659141344cd1fd0a4f28419497f9722a3daafe3b4186f6b6457e0905f90a35050565b634e487b7160e01b5f52604160045260245ffd5b5f82601f830112620000ef575f80fd5b81516001600160401b03808211156200010c576200010c620000cb565b604051601f8301601f19908116603f01168101908282118183101715620001375762000137620000cb565b8160405283815260209250868385880101111562000153575f80fd5b5f91505b8382101562000176578582018301518183018401529082019062000157565b5f93810190920192909252949350505050565b5f80604083850312156200019b575f80fd5b82516001600160401b0380821115620001b2575f80fd5b620001c086838701620000df565b93506020850151915080821115620001d6575f80fd5b50620001e585828601620000df565b9150509250929050565b600181811c908216806200020457607f821691505b6020821081036200022357634e487b7160e01b5f52602260045260245ffd5b50919050565b601f82111562000276575f81815260208120601f850160051c81016020861015620002515750805b601f850160051c820191505b8181101562000272578281556001016200025d565b5050505b505050565b81516001600160401b03811115620002975762000297620000cb565b620002af81620002a88454620001ef565b8462000229565b602080601f831160018114620002e5575f8415620002cd5750858301515b5f19600386901b1c1916600185901b17855562000272565b5f85815260208120601f198616915b828110156200031557888601518255948401946001909101908401620002f4565b50858210156200033357878501515f19600388901b60f8161c191681555b5050505050600190811b01905550565b610d5280620003515f395ff3fe608060405234801561000f575f80fd5b5060043610610111575f3560e01c806370a082311161009e57806395d89b411161006e57806395d89b4114610226578063a457c2d71461022e578063a9059cbb14610241578063dd62ed3e14610254578063f2fde38b1461028c575f80fd5b806370a08231146101c5578063715018a6146101ed5780638456cb59146101f55780638da5cb5b146101fd575f80fd5b8063313ce567116100e4578063313ce5671461017b578063395093511461018a5780633f4ba83a1461019d57806340c10f19146101a75780635c975abb146101ba575f80fd5b806306fdde0314610115578063095ea7b31461013357806318160ddd1461015657806323b872dd14610168575b5f80fd5b61011d61029f565b60405161012a9190610bad565b60405180910390f35b610146610141366004610c13565b61032f565b604051901515815260200161012a565b6002545b60405190815260200161012a565b610146610176366004610c3b565b610348565b6040516012815260200161012a565b610146610198366004610c13565b61036b565b6101a56103a9565b005b6101a56101b5366004610c13565b6103bb565b60055460ff16610146565b61015a6101d3366004610c74565b6001600160a01b03165f9081526020819052604090205490565b6101a56103d4565b6101a56103e5565b60055461010090046001600160a01b03166040516001600160a01b03909116815260200161012a565b61011d6103f5565b61014661023c366004610c13565b610404565b61014661024f366004610c13565b61049a565b61015a610262366004610c94565b6001600160a01b039182165f90815260016020908152604080832093909416825291909152205490565b6101a561029a366004610c74565b6104a7565b6060600380546102ae90610cc5565b80601f01602080910402602001604051908101604052809291908181526020018280546102da90610cc5565b80156103255780601f106102fc57610100808354040283529160200191610325565b820191905f5260205f20905b81548152906001019060200180831161030857829003601f168201915b5050505050905090565b5f3361033c818585610520565b60019150505b92915050565b5f33610355858285610643565b6103608585856106d3565b506001949350505050565b335f8181526001602090815260408083206001600160a01b038716845290915281205490919061033c90829086906103a4908790610cfd565b610520565b6103b1610880565b6103b96108e0565b565b5f81116103c6575f80fd5b6103d08282610932565b5050565b6103dc610880565b6103b95f6109fa565b6103ed610880565b6103b9610a60565b6060600480546102ae90610cc5565b335f8181526001602090815260408083206001600160a01b03871684529091528120549091908381101561048d5760405162461bcd60e51b815260206004820152602560248201527f45524332303a2064656372656173656420616c6c6f77616e63652062656c6f77604482015264207a65726f60d81b60648201526084015b60405180910390fd5b6103608286868403610520565b5f3361033c8185856106d3565b6104af610880565b6001600160a01b0381166105145760405162461bcd60e51b815260206004820152602660248201527f4f776e61626c653a206e6577206f776e657220697320746865207a65726f206160448201526564647265737360d01b6064820152608401610484565b61051d816109fa565b50565b6001600160a01b0383166105825760405162461bcd60e51b8152602060048201526024808201527f45524332303a20617070726f76652066726f6d20746865207a65726f206164646044820152637265737360e01b6064820152608401610484565b6001600160a01b0382166105e35760405162461bcd60e51b815260206004820152602260248201527f45524332303a20617070726f766520746f20746865207a65726f206164647265604482015261737360f01b6064820152608401610484565b6001600160a01b038381165f8181526001602090815260408083209487168084529482529182902085905590518481527f8c5be1e5ebec7d5bd14f71427d1e84f3dd0314c0f7b2291e5b200ac8c7c3b925910160405180910390a3505050565b6001600160a01b038381165f908152600160209081526040808320938616835292905220545f1981146106cd57818110156106c05760405162461bcd60e51b815260206004820152601d60248201527f45524332303a20696e73756666696369656e7420616c6c6f77616e63650000006044820152606401610484565b6106cd8484848403610520565b50505050565b6001600160a01b0383166107375760405162461bcd60e51b815260206004820152602560248201527f45524332303a207472616e736665722066726f6d20746865207a65726f206164604482015264647265737360d81b6064820152608401610484565b6001600160a01b0382166107995760405162461bcd60e51b815260206004820152602360248201527f45524332303a207472616e7366657220746f20746865207a65726f206164647260448201526265737360e81b6064820152608401610484565b6107a4838383610a9d565b6001600160a01b0383165f908152602081905260409020548181101561081b5760405162461bcd60e51b815260206004820152602660248201527f45524332303a207472616e7366657220616d6f756e7420657863656564732062604482015265616c616e636560d01b6064820152608401610484565b6001600160a01b038481165f81815260208181526040808320878703905593871680835291849020805487019055925185815290927fddf252ad1be2c89b69c2b068fc378daa952ba7f163c4a11628f55a4df523b3ef910160405180910390a36106cd565b6005546001600160a01b036101009091041633146103b95760405162461bcd60e51b815260206004820181905260248201527f4f776e61626c653a2063616c6c6572206973206e6f7420746865206f776e65726044820152606401610484565b6108e8610b08565b6005805460ff191690557f5db9ee0a495bf2e6ff9c91a7834c1ba4fdd244a5e8aa4e537bd38aeae4b073aa335b6040516001600160a01b03909116815260200160405180910390a1565b6001600160a01b0382166109885760405162461bcd60e51b815260206004820152601f60248201527f45524332303a206d696e7420746f20746865207a65726f2061646472657373006044820152606401610484565b6109935f8383610a9d565b8060025f8282546109a49190610cfd565b90915550506001600160a01b0382165f81815260208181526040808320805486019055518481527fddf252ad1be2c89b69c2b068fc378daa952ba7f163c4a11628f55a4df523b3ef910160405180910390a35050565b600580546001600160a01b0383811661010081810274ffffffffffffffffffffffffffffffffffffffff001985161790945560405193909204169182907f8be0079c531659141344cd1fd0a4f28419497f9722a3daafe3b4186f6b6457e0905f90a35050565b610a68610b5a565b6005805460ff191660011790557f62e78cea01bee320cd4e420270b5ea74000d11b0c9f74754ebdbfc544b05a2586109153390565b60055460ff1615610b035760405162461bcd60e51b815260206004820152602a60248201527f45524332305061757361626c653a20746f6b656e207472616e736665722077686044820152691a5b19481c185d5cd95960b21b6064820152608401610484565b505050565b60055460ff166103b95760405162461bcd60e51b815260206004820152601460248201527f5061757361626c653a206e6f74207061757365640000000000000000000000006044820152606401610484565b60055460ff16156103b95760405162461bcd60e51b815260206004820152601060248201527f5061757361626c653a20706175736564000000000000000000000000000000006044820152606401610484565b5f6020808352835180828501525f5b81811015610bd857858101830151858201604001528201610bbc565b505f604082860101526040601f19601f8301168501019250505092915050565b80356001600160a01b0381168114610c0e575f80fd5b919050565b5f8060408385031215610c24575f80fd5b610c2d83610bf8565b946020939093013593505050565b5f805f60608486031215610c4d575f80fd5b610c5684610bf8565b9250610c6460208501610bf8565b9150604084013590509250925092565b5f60208284031215610c84575f80fd5b610c8d82610bf8565b9392505050565b5f8060408385031215610ca5575f80fd5b610cae83610bf8565b9150610cbc60208401610bf8565b90509250929050565b600181811c90821680610cd957607f821691505b602082108103610cf757634e487b7160e01b5f52602260045260245ffd5b50919050565b8082018082111561034257634e487b7160e01b5f52601160045260245ffdfea26469706673582212205b32deaf1785c4915790ed67cbbafd7a107d4f7c4bd6c688c07d512792ed42b364736f6c63430008140033",
  "linkReferences": {},
  "deployedLinkReferences": {}
}