{
  "_format": "hh-sol-artifact-1",
  "contractName": "ERC20CappedMock",
  "sourceName": "contracts/erc-20-extensions/ERC20Extensions.sol",
  "abi": [
    {
      "inputs": [
        {
          "internalType": "string",
          "name": "name",
          "type": "string"
        },
        {
          "internalType": "string",
          "name": "symbol",
          "type": "string"
        },
        {
          "internalType": "uint256",
          "name": "cap",
          "type": "uint256"
        }
      ],
      "stateMutability": "nonpayable",
      "type": "constructor"
    },
    {
      "inputs": [
        {
          "internalType": "uint256",
          "name": "increasedSupply",
          "type": "uint256"
        },
        {
          "internalType": "uint256",
          "name": "cap",
          "type": "uint256"
        }
      ],
      "name": "ERC20ExceededCap",
      "type": "error"
    },
    {
      "inputs": [
        {
          "internalType": "address",
          "name": "spender",
          "type": "address"
        },
        {
          "internalType": "uint256",
          "name": "allowance",
          "type": "uint256"
        },
        {
          "internalType": "uint256",
          "name": "needed",
          "type": "uint256"
        }
      ],
      "name": "ERC20InsufficientAllowance",
      "type": "error"
    },
    {
      "inputs": [
        {
          "internalType": "address",
          "name": "sender",
          "type": "address"
        },
        {
          "internalType": "uint256",
          "name": "balance",
          "type": "uint256"
        },
        {
          "internalType": "uint256",
          "name": "needed",
          "type": "uint256"
        }
      ],
      "name": "ERC20InsufficientBalance",
      "type": "error"
    },
    {
      "inputs": [
        {
          "internalType": "address",
          "name": "approver",
          "type": "address"
        }
      ],
      "name": "ERC20InvalidApprover",
      "type": "error"
    },
    {
      "inputs": [
        {
          "internalType": "uint256",
          "name": "cap",
          "type": "uint256"
        }
      ],
      "name": "ERC20InvalidCap",
      "type": "error"
    },
    {
      "inputs": [
        {
          "internalType": "address",
          "name": "receiver",
          "type": "address"
        }
      ],
      "name": "ERC20InvalidReceiver",
      "type": "error"
    },
    {
      "inputs": [
        {
          "internalType": "address",
          "name": "sender",
          "type": "address"
        }
      ],
      "name": "ERC20InvalidSender",
      "type": "error"
    },
    {
      "inputs": [
        {
          "internalType": "address",
          "name": "spender",
          "type": "address"
        }
      ],
      "name": "ERC20InvalidSpender",
      "type": "error"
    },
    {
      "anonymous": false,
      "inputs": [
        {
          "indexed": true,
          "internalType": "address",
          "name": "owner",
          "type": "address"
        },
        {
          "indexed": true,
          "internalType": "address",
          "name": "spender",
          "type": "address"
        },
        {
          "indexed": false,
          "internalType": "uint256",
          "name": "value",
          "type": "uint256"
        }
      ],
      "name": "Approval",
      "type": "event"
    },
    {
      "anonymous": false,
      "inputs": [
        {
          "indexed": true,
          "internalType": "address",
          "name": "from",
          "type": "address"
        },
        {
          "indexed": true,
          "internalType": "address",
          "name": "to",
          "type": "address"
        },
        {
          "indexed": false,
          "internalType": "uint256",
          "name": "value",
          "type": "uint256"
        }
      ],
      "name": "Transfer",
      "type": "event"
    },
    {
      "inputs": [
        {
          "internalType": "address",
          "name": "owner",
          "type": "address"
        },
        {
          "internalType": "address",
          "name": "spender",
          "type": "address"
        }
      ],
      "name": "allowance",
      "outputs": [
        {
          "internalType": "uint256",
          "name": "",
          "type": "uint256"
        }
      ],
      "stateMutability": "view",
      "type": "function"
    },
    {
      "inputs": [
        {
          "internalType": "address",
          "name": "spender",
          "type": "address"
        },
        {
          "internalType": "uint256",
          "name": "value",
          "type": "uint256"
        }
      ],
      "name": "approve",
      "outputs": [
        {
          "internalType": "bool",
          "name": "",
          "type": "bool"
        }
      ],
      "stateMutability": "nonpayable",
      "type": "function"
    },
    {
      "inputs": [
        {
          "internalType": "address",
          "name": "account",
          "type": "address"
        }
      ],
      "name": "balanceOf",
      "outputs": [
        {
          "internalType": "uint256",
          "name": "",
          "type": "uint256"
        }
      ],
      "stateMutability": "view",
      "type": "function"
    },
    {
      "inputs": [],
      "name": "cap",
      "outputs": [
        {
          "internalType": "uint256",
          "name": "",
          "type": "uint256"
        }
      ],
      "stateMutability": "view",
      "type": "function"
    },
    {
      "inputs": [],
      "name": "decimals",
      "outputs": [
        {
          "internalType": "uint8",
          "name": "",
          "type": "uint8"
        }
      ],
      "stateMutability": "view",
      "type": "function"
    },
    {
      "inputs": [
        {
          "internalType": "address",
          "name": "to",
          "type": "address"
        },
        {
          "internalType": "uint256",
          "name": "amount",
          "type": "uint256"
        }
      ],
      "name": "mint",
      "outputs": [],
      "stateMutability": "nonpayable",
      "type": "function"
    },
    {
      "inputs": [],
      "name": "name",
      "outputs": [
        {
          "internalType": "string",
          "name": "",
          "type": "string"
        }
      ],
      "stateMutability": "view",
      "type": "function"
    },
    {
      "inputs": [],
      "name": "symbol",
      "outputs": [
        {
          "internalType": "string",
          "name": "",
          "type": "string"
        }
      ],
      "stateMutability": "view",
      "type": "function"
    },
    {
      "inputs": [],
      "name": "totalSupply",
      "outputs": [
        {
          "internalType": "uint256",
          "name": "",
          "type": "uint256"
        }
      ],
      "stateMutability": "view",
      "type": "function"
    },
    {
      "inputs": [
        {
          "internalType": "address",
          "name": "to",
          "type": "address"
        },
        {
          "internalType": "uint256",
          "name": "value",
          "type": "uint256"
        }
      ],
      "name": "transfer",
      "outputs": [
        {
          "internalType": "bool",
          "name": "",
          "type": "bool"
        }
      ],
      "stateMutability": "nonpayable",
      "type": "function"
    },
    {
      "inputs": [
        {
          "internalType": "address",
          "name": "from",
          "type": "address"
        },
        {
          "internalType": "address",
          "name": "to",
          "type": "address"
        },
        {
          "internalType": "uint256",
          "name": "value",
          "type": "uint256"
        }
      ],
      "name": "transferFrom",
      "outputs": [
        {
          "internalType": "bool",
          "name": "",
          "type": "bool"
        }
      ],
      "stateMutability": "nonpayable",
      "type": "function"
    }
  ],
  "bytecode": "0x60a06040523480156200001157600080fd5b5060405162000b8538038062000b85833981016040819052620000349162000152565b808383600362000045838262000254565b50600462000054828262000254565b50505080600003620000805760405163392e1e2760e01b81526000600482015260240160405180910390fd5b6080525062000320915050565b634e487b7160e01b600052604160045260246000fd5b600082601f830112620000b557600080fd5b81516001600160401b0380821115620000d257620000d26200008d565b604051601f8301601f19908116603f01168101908282118183101715620000fd57620000fd6200008d565b816040528381526020925086838588010111156200011a57600080fd5b600091505b838210156200013e57858201830151818301840152908201906200011f565b600093810190920192909252949350505050565b6000806000606084860312156200016857600080fd5b83516001600160401b03808211156200018057600080fd5b6200018e87838801620000a3565b94506020860151915080821115620001a557600080fd5b50620001b486828701620000a3565b925050604084015190509250925092565b600181811c90821680620001da57607f821691505b602082108103620001fb57634e487b7160e01b600052602260045260246000fd5b50919050565b601f8211156200024f57600081815260208120601f850160051c810160208610156200022a5750805b601f850160051c820191505b818110156200024b5782815560010162000236565b5050505b505050565b81516001600160401b038111156200027057620002706200008d565b6200028881620002818454620001c5565b8462000201565b602080601f831160018114620002c05760008415620002a75750858301515b600019600386901b1c1916600185901b1785556200024b565b600085815260208120601f198616915b82811015620002f157888601518255948401946001909101908401620002d0565b5085821015620003105787850151600019600388901b60f8161c191681555b5050505050600190811b01905550565b6080516108426200034360003960008181610135015261051001526108426000f3fe608060405234801561001057600080fd5b50600436106100b95760003560e01c8063355274ea1161008157806395d89b411161005b57806395d89b4114610197578063a9059cbb1461019f578063dd62ed3e146101b257600080fd5b8063355274ea1461013357806340c10f191461015957806370a082311461016e57600080fd5b806306fdde03146100be578063095ea7b3146100dc57806318160ddd146100ff57806323b872dd14610111578063313ce56714610124575b600080fd5b6100c66101eb565b6040516100d3919061068c565b60405180910390f35b6100ef6100ea3660046106f6565b61027d565b60405190151581526020016100d3565b6002545b6040519081526020016100d3565b6100ef61011f366004610720565b610297565b604051601281526020016100d3565b7f0000000000000000000000000000000000000000000000000000000000000000610103565b61016c6101673660046106f6565b6102bb565b005b61010361017c36600461075c565b6001600160a01b031660009081526020819052604090205490565b6100c66102d6565b6100ef6101ad3660046106f6565b6102e5565b6101036101c036600461077e565b6001600160a01b03918216600090815260016020908152604080832093909416825291909152205490565b6060600380546101fa906107b1565b80601f0160208091040260200160405190810160405280929190818152602001828054610226906107b1565b80156102735780601f1061024857610100808354040283529160200191610273565b820191906000526020600020905b81548152906001019060200180831161025657829003601f168201915b5050505050905090565b60003361028b8185856102f3565b60019150505b92915050565b6000336102a5858285610305565b6102b0858585610388565b506001949350505050565b600081116102c857600080fd5b6102d282826103e7565b5050565b6060600480546101fa906107b1565b60003361028b818585610388565b610300838383600161041d565b505050565b6001600160a01b038381166000908152600160209081526040808320938616835292905220546000198114610382578181101561037357604051637dc7a0d960e11b81526001600160a01b038416600482015260248101829052604481018390526064015b60405180910390fd5b6103828484848403600061041d565b50505050565b6001600160a01b0383166103b257604051634b637e8f60e11b81526000600482015260240161036a565b6001600160a01b0382166103dc5760405163ec442f0560e01b81526000600482015260240161036a565b6103008383836104f2565b6001600160a01b0382166104115760405163ec442f0560e01b81526000600482015260240161036a565b6102d2600083836104f2565b6001600160a01b0384166104475760405163e602df0560e01b81526000600482015260240161036a565b6001600160a01b03831661047157604051634a1406b160e11b81526000600482015260240161036a565b6001600160a01b038085166000908152600160209081526040808320938716835292905220829055801561038257826001600160a01b0316846001600160a01b03167f8c5be1e5ebec7d5bd14f71427d1e84f3dd0314c0f7b2291e5b200ac8c7c3b925846040516104e491815260200190565b60405180910390a350505050565b6104fd838383610562565b6001600160a01b038316610300576002547f0000000000000000000000000000000000000000000000000000000000000000908181111561055b5760405163279e7e1560e21b8152600481018290526024810183905260440161036a565b5050505050565b6001600160a01b03831661058d57806002600082825461058291906107eb565b909155506105ff9050565b6001600160a01b038316600090815260208190526040902054818110156105e05760405163391434e360e21b81526001600160a01b0385166004820152602481018290526044810183905260640161036a565b6001600160a01b03841660009081526020819052604090209082900390555b6001600160a01b03821661061b5760028054829003905561063a565b6001600160a01b03821660009081526020819052604090208054820190555b816001600160a01b0316836001600160a01b03167fddf252ad1be2c89b69c2b068fc378daa952ba7f163c4a11628f55a4df523b3ef8360405161067f91815260200190565b60405180910390a3505050565b600060208083528351808285015260005b818110156106b95785810183015185820160400152820161069d565b506000604082860101526040601f19601f8301168501019250505092915050565b80356001600160a01b03811681146106f157600080fd5b919050565b6000806040838503121561070957600080fd5b610712836106da565b946020939093013593505050565b60008060006060848603121561073557600080fd5b61073e846106da565b925061074c602085016106da565b9150604084013590509250925092565b60006020828403121561076e57600080fd5b610777826106da565b9392505050565b6000806040838503121561079157600080fd5b61079a836106da565b91506107a8602084016106da565b90509250929050565b600181811c908216806107c557607f821691505b6020821081036107e557634e487b7160e01b600052602260045260246000fd5b50919050565b8082018082111561029157634e487b7160e01b600052601160045260246000fdfea2646970667358221220c3558a358d8304d22c84cea9e55aa5aef2494f3c0f3789b6c9cca4de332370f464736f6c63430008140033",
  "linkReferences": {},
  "deployedLinkReferences": {}
}