{
  "_format": "hh-sol-artifact-1",
  "contractName": "ExchangeRatePrecompile",
  "sourceName": "contracts/exchange-rate-precompile/ExchangeRatePrecompile.sol",
  "abi": [
    {
      "inputs": [
        {
          "internalType": "uint256",
          "name": "_toll",
          "type": "uint256"
        }
      ],
      "stateMutability": "nonpayable",
      "type": "constructor"
    },
    {
      "inputs": [],
      "name": "approxUsdValue",
      "outputs": [
        {
          "internalType": "uint256",
          "name": "tinycents",
          "type": "uint256"
        }
      ],
      "stateMutability": "payable",
      "type": "function"
    },
    {
      "inputs": [],
      "name": "gatedAccess",
      "outputs": [],
      "stateMutability": "payable",
      "type": "function"
    },
    {
      "inputs": [],
      "name": "invalidCall",
      "outputs": [],
      "stateMutability": "payable",
      "type": "function"
    }
  ],
  "bytecode": "0x608060405234801561001057600080fd5b5060405161038538038061038583398101604081905261002f91610037565b600055610050565b60006020828403121561004957600080fd5b5051919050565b6103268061005f6000396000f3fe6080604052600436106100345760003560e01c806303b636e61461003957806389dea1d014610043578063bff4f54f1461004b575b600080fd5b610041610065565b005b6100416100f6565b61005361012a565b60405190815260200160405180910390f35b60408051600481526024810182526020810180516001600160e01b031663bff4f54f60e01b17905290516000918291610168916100a19161026f565b6000604051808303816000865af19150503d80600081146100de576040519150601f19603f3d011682016040523d82523d6000602084013e6100e3565b606091505b5091509150816100f257600080fd5b5050565b60008054906101096305f5e100836102aa565b905060006101168261013a565b90508034101561012557600080fd5b505050565b600061013534610236565b905090565b600080600061016873ffffffffffffffffffffffffffffffffffffffff16632e3cff6a60e01b8560405160240161017391815260200190565b60408051601f198184030181529181526020820180516001600160e01b03167fffffffff000000000000000000000000000000000000000000000000000000009094169390931790925290516101c9919061026f565b6000604051808303816000865af19150503d8060008114610206576040519150601f19603f3d011682016040523d82523d6000602084013e61020b565b606091505b50915091508161021a57600080fd5b8080602001905181019061022e91906102d7565b949350505050565b600080600061016873ffffffffffffffffffffffffffffffffffffffff166343a8822960e01b8560405160240161017391815260200190565b6000825160005b818110156102905760208186018101518583015201610276565b8181111561029f576000828501525b509190910192915050565b60008160001904831182151516156102d257634e487b7160e01b600052601160045260246000fd5b500290565b6000602082840312156102e957600080fd5b505191905056fea26469706673582212205a83d03c5aaee815fcdbccbff208a780a687d9697ea201b7ae6a05d8d4cab81b64736f6c63430008090033",
  "linkReferences": {},
  "deployedLinkReferences": {}
}