{
  "_format": "hh-sol-artifact-1",
  "contractName": "ExchangeRatePrecompile",
  "sourceName": "contracts/exchange-rate-precompile/ExchangeRatePrecompile.sol",
  "abi": [
    {
      "inputs": [
        {
          "internalType": "uint256",
          "name": "_toll",
          "type": "uint256"
        }
      ],
      "stateMutability": "nonpayable",
      "type": "constructor"
    },
    {
      "inputs": [],
      "name": "approxUsdValue",
      "outputs": [
        {
          "internalType": "uint256",
          "name": "tinycents",
          "type": "uint256"
        }
      ],
      "stateMutability": "payable",
      "type": "function"
    },
    {
      "inputs": [],
      "name": "gatedAccess",
      "outputs": [],
      "stateMutability": "payable",
      "type": "function"
    },
    {
      "inputs": [],
      "name": "invalidCall",
      "outputs": [],
      "stateMutability": "payable",
      "type": "function"
    }
  ],
  "bytecode": "0x608060405234801561001057600080fd5b5060405161037438038061037483398101604081905261002f91610037565b600055610050565b60006020828403121561004957600080fd5b5051919050565b6103158061005f6000396000f3fe6080604052600436106100345760003560e01c806303b636e61461003957806389dea1d014610043578063bff4f54f1461004b575b600080fd5b610041610065565b005b6100416100f3565b610053610127565b60405190815260200160405180910390f35b60408051600481526024810182526020810180516001600160e01b031663bff4f54f60e01b1790529051600091610168916100a0919061026c565b6000604051808303816000865af19150503d80600081146100dd576040519150601f19603f3d011682016040523d82523d6000602084013e6100e2565b606091505b50509050806100f057600080fd5b50565b60008054906101066305f5e1008361029b565b9050600061011382610137565b90508034101561012257600080fd5b505050565b600061013234610233565b905090565b600080600061016873ffffffffffffffffffffffffffffffffffffffff16632e3cff6a60e01b8560405160240161017091815260200190565b60408051601f198184030181529181526020820180516001600160e01b03167fffffffff000000000000000000000000000000000000000000000000000000009094169390931790925290516101c6919061026c565b6000604051808303816000865af19150503d8060008114610203576040519150601f19603f3d011682016040523d82523d6000602084013e610208565b606091505b50915091508161021757600080fd5b8080602001905181019061022b91906102c6565b949350505050565b600080600061016873ffffffffffffffffffffffffffffffffffffffff166343a8822960e01b8560405160240161017091815260200190565b6000825160005b8181101561028d5760208186018101518583015201610273565b506000920191825250919050565b80820281158282048414176102c057634e487b7160e01b600052601160045260246000fd5b92915050565b6000602082840312156102d857600080fd5b505191905056fea264697066735822122043a148bfcda6bd8e1f810e74554e72f3f23366e8784d8dbb55b81876f25831d564736f6c63430008170033",
  "linkReferences": {},
  "deployedLinkReferences": {}
}