{
  "_format": "hh-sol-artifact-1",
  "contractName": "MyProxy",
  "sourceName": "contracts/openzeppelin/beacon-proxy/MyProxy.sol",
  "abi": [
    {
      "inputs": [
        {
          "internalType": "address",
          "name": "_beacon",
          "type": "address"
        }
      ],
      "stateMutability": "payable",
      "type": "constructor"
    },
    {
      "inputs": [
        {
          "internalType": "address",
          "name": "target",
          "type": "address"
        }
      ],
      "name": "AddressEmptyCode",
      "type": "error"
    },
    {
      "inputs": [
        {
          "internalType": "address",
          "name": "beacon",
          "type": "address"
        }
      ],
      "name": "ERC1967InvalidBeacon",
      "type": "error"
    },
    {
      "inputs": [
        {
          "internalType": "address",
          "name": "implementation",
          "type": "address"
        }
      ],
      "name": "ERC1967InvalidImplementation",
      "type": "error"
    },
    {
      "inputs": [],
      "name": "ERC1967NonPayable",
      "type": "error"
    },
    {
      "inputs": [],
      "name": "FailedInnerCall",
      "type": "error"
    },
    {
      "anonymous": false,
      "inputs": [
        {
          "indexed": true,
          "internalType": "address",
          "name": "beacon",
          "type": "address"
        }
      ],
      "name": "BeaconUpgraded",
      "type": "event"
    },
    {
      "stateMutability": "payable",
      "type": "fallback"
    },
    {
      "inputs": [],
      "name": "beacon",
      "outputs": [
        {
          "internalType": "address",
          "name": "",
          "type": "address"
        }
      ],
      "stateMutability": "view",
      "type": "function"
    },
    {
      "inputs": [],
      "name": "implementation",
      "outputs": [
        {
          "internalType": "address",
          "name": "",
          "type": "address"
        }
      ],
      "stateMutability": "view",
      "type": "function"
    }
  ],
  "bytecode": "0x60a060405260405161057938038061057983398101604081905261002291610343565b604080516020810190915260008152819061003d8282610050565b506001600160a01b03166080525061039b565b61005982610110565b6040516001600160a01b038316907f1cf3b03a6cf19fa2baba4df148e9dcabedea7f8a5c07840e207e5c089be95d3e90600090a2805115610104576100ff826001600160a01b0316635c60da1b6040518163ffffffff1660e01b8152600401602060405180830381865afa1580156100d5573d6000803e3d6000fd5b505050506040513d601f19601f820116820180604052508101906100f99190610343565b82610223565b505050565b61010c61029a565b5050565b806001600160a01b03163b60000361014b57604051631933b43b60e21b81526001600160a01b03821660048201526024015b60405180910390fd5b807fa3f0ad74e5423aebfd80d3ef4346578335a9a72aeaee59ff6cb3582b35133d5080546001600160a01b0319166001600160a01b0392831617905560408051635c60da1b60e01b81529051600092841691635c60da1b9160048083019260209291908290030181865afa1580156101c7573d6000803e3d6000fd5b505050506040513d601f19601f820116820180604052508101906101eb9190610343565b9050806001600160a01b03163b60000361010c57604051634c9c8ce360e01b81526001600160a01b0382166004820152602401610142565b6060600080846001600160a01b031684604051610240919061036c565b600060405180830381855af49150503d806000811461027b576040519150601f19603f3d011682016040523d82523d6000602084013e610280565b606091505b5090925090506102918583836102bb565b95945050505050565b34156102b95760405163b398979f60e01b815260040160405180910390fd5b565b6060826102d0576102cb8261031a565b610313565b81511580156102e757506001600160a01b0384163b155b1561031057604051639996b31560e01b81526001600160a01b0385166004820152602401610142565b50805b9392505050565b80511561032a5780518082602001fd5b604051630a12f52160e11b815260040160405180910390fd5b60006020828403121561035557600080fd5b81516001600160a01b038116811461031357600080fd5b6000825160005b8181101561038d5760208186018101518583015201610373565b506000920191825250919050565b6080516101be6103bb600039600081816042015260b401526101be6000f3fe6080604052600436106100295760003560e01c806359659e90146100335780635c60da1b1461007e575b610031610093565b005b34801561003f57600080fd5b507f00000000000000000000000000000000000000000000000000000000000000005b6040516001600160a01b03909116815260200160405180910390f35b34801561008a57600080fd5b506100626100aa565b6100a361009e6100b0565b610134565b565b905090565b60006100a55b60007f00000000000000000000000000000000000000000000000000000000000000006001600160a01b0316635c60da1b6040518163ffffffff1660e01b8152600401602060405180830381865afa158015610110573d6000803e3d6000fd5b505050506040513d601f19601f820116820180604052508101906100a59190610158565b3660008037600080366000845af43d6000803e808015610153573d6000f35b3d6000fd5b60006020828403121561016a57600080fd5b81516001600160a01b038116811461018157600080fd5b939250505056fea2646970667358221220a1aba87c22ebf97c18f618ea7b55626c0b20f53a794fe793a95ab5f25999643f64736f6c63430008170033",
  "linkReferences": {},
  "deployedLinkReferences": {}
}