{
  "_format": "hh-sol-artifact-1",
  "contractName": "VoteV1",
  "sourceName": "contracts/solidity/oz/ERC1967Upgrade/VoteV1.sol",
  "abi": [
    {
      "inputs": [],
      "stateMutability": "nonpayable",
      "type": "constructor"
    },
    {
      "inputs": [],
      "name": "Voter_Has_Already_Voted",
      "type": "error"
    },
    {
      "inputs": [],
      "name": "version",
      "outputs": [
        {
          "internalType": "uint256",
          "name": "",
          "type": "uint256"
        }
      ],
      "stateMutability": "view",
      "type": "function"
    },
    {
      "inputs": [],
      "name": "vote",
      "outputs": [],
      "stateMutability": "nonpayable",
      "type": "function"
    },
    {
      "inputs": [
        {
          "internalType": "address",
          "name": "voter",
          "type": "address"
        }
      ],
      "name": "voted",
      "outputs": [
        {
          "internalType": "bool",
          "name": "",
          "type": "bool"
        }
      ],
      "stateMutability": "view",
      "type": "function"
    },
    {
      "inputs": [],
      "name": "voters",
      "outputs": [
        {
          "internalType": "address[]",
          "name": "",
          "type": "address[]"
        }
      ],
      "stateMutability": "view",
      "type": "function"
    }
  ],
  "bytecode": "0x608060405234801561001057600080fd5b506001600055610273806100256000396000f3fe608060405234801561001057600080fd5b506004361061004c5760003560e01c8063350580ea1461005157806354fd4d501461006f578063632a9a5214610080578063aec2ccae1461008a575b600080fd5b6100596100c6565b60405161006691906101c0565b60405180910390f35b600054604051908152602001610066565b610088610128565b005b6100b661009836600461020d565b6001600160a01b031660009081526002602052604090205460ff1690565b6040519015158152602001610066565b6060600180548060200260200160405190810160405280929190818152602001828054801561011e57602002820191906000526020600020905b81546001600160a01b03168152600190910190602001808311610100575b5050505050905090565b3360008181526002602052604090205460ff161561015957604051633b1dbd5760e11b815260040160405180910390fd5b506001805480820182557fb10e2d527612073b26eecdfd717e6a320cf44b4afac2b0732d9fcbe2b7fa0cf601805473ffffffffffffffffffffffffffffffffffffffff1916339081179091556000908152600260205260409020805460ff19169091179055565b6020808252825182820181905260009190848201906040850190845b818110156102015783516001600160a01b0316835292840192918401916001016101dc565b50909695505050505050565b60006020828403121561021f57600080fd5b81356001600160a01b038116811461023657600080fd5b939250505056fea2646970667358221220f6556c6dad22db499a7dba3e6368615ec9614b8fe420a0af27407d67738a632c64736f6c63430008140033",
  "linkReferences": {},
  "deployedLinkReferences": {}
}