{
  "_format": "hh-sol-artifact-1",
  "contractName": "ERC1820Registry",
  "sourceName": "contracts/openzeppelin/ERC-777/introspection/ERC1820Registry.sol",
  "abi": [
    {
      "anonymous": false,
      "inputs": [
        {
          "indexed": true,
          "internalType": "address",
          "name": "addr",
          "type": "address"
        },
        {
          "indexed": true,
          "internalType": "bytes32",
          "name": "interfaceHash",
          "type": "bytes32"
        },
        {
          "indexed": true,
          "internalType": "address",
          "name": "implementer",
          "type": "address"
        }
      ],
      "name": "InterfaceImplementerSet",
      "type": "event"
    },
    {
      "anonymous": false,
      "inputs": [
        {
          "indexed": true,
          "internalType": "address",
          "name": "addr",
          "type": "address"
        },
        {
          "indexed": true,
          "internalType": "address",
          "name": "newManager",
          "type": "address"
        }
      ],
      "name": "ManagerChanged",
      "type": "event"
    },
    {
      "inputs": [
        {
          "internalType": "address",
          "name": "_addr",
          "type": "address"
        },
        {
          "internalType": "bytes32",
          "name": "_interfaceHash",
          "type": "bytes32"
        }
      ],
      "name": "getInterfaceImplementer",
      "outputs": [
        {
          "internalType": "address",
          "name": "",
          "type": "address"
        }
      ],
      "stateMutability": "view",
      "type": "function"
    },
    {
      "inputs": [
        {
          "internalType": "address",
          "name": "_addr",
          "type": "address"
        }
      ],
      "name": "getManager",
      "outputs": [
        {
          "internalType": "address",
          "name": "",
          "type": "address"
        }
      ],
      "stateMutability": "view",
      "type": "function"
    },
    {
      "inputs": [
        {
          "internalType": "address",
          "name": "_contract",
          "type": "address"
        },
        {
          "internalType": "bytes4",
          "name": "_interfaceId",
          "type": "bytes4"
        }
      ],
      "name": "implementsERC165Interface",
      "outputs": [
        {
          "internalType": "bool",
          "name": "",
          "type": "bool"
        }
      ],
      "stateMutability": "view",
      "type": "function"
    },
    {
      "inputs": [
        {
          "internalType": "address",
          "name": "_contract",
          "type": "address"
        },
        {
          "internalType": "bytes4",
          "name": "_interfaceId",
          "type": "bytes4"
        }
      ],
      "name": "implementsERC165InterfaceNoCache",
      "outputs": [
        {
          "internalType": "bool",
          "name": "",
          "type": "bool"
        }
      ],
      "stateMutability": "view",
      "type": "function"
    },
    {
      "inputs": [
        {
          "internalType": "string",
          "name": "_interfaceName",
          "type": "string"
        }
      ],
      "name": "interfaceHash",
      "outputs": [
        {
          "internalType": "bytes32",
          "name": "",
          "type": "bytes32"
        }
      ],
      "stateMutability": "pure",
      "type": "function"
    },
    {
      "inputs": [
        {
          "internalType": "address",
          "name": "_addr",
          "type": "address"
        },
        {
          "internalType": "bytes32",
          "name": "_interfaceHash",
          "type": "bytes32"
        },
        {
          "internalType": "address",
          "name": "_implementer",
          "type": "address"
        }
      ],
      "name": "setInterfaceImplementer",
      "outputs": [],
      "stateMutability": "nonpayable",
      "type": "function"
    },
    {
      "inputs": [
        {
          "internalType": "address",
          "name": "_addr",
          "type": "address"
        },
        {
          "internalType": "address",
          "name": "_newManager",
          "type": "address"
        }
      ],
      "name": "setManager",
      "outputs": [],
      "stateMutability": "nonpayable",
      "type": "function"
    },
    {
      "inputs": [
        {
          "internalType": "address",
          "name": "_contract",
          "type": "address"
        },
        {
          "internalType": "bytes4",
          "name": "_interfaceId",
          "type": "bytes4"
        }
      ],
      "name": "updateERC165Cache",
      "outputs": [],
      "stateMutability": "nonpayable",
      "type": "function"
    }
  ],
  "bytecode": "0x608060405234801561001057600080fd5b50610937806100206000396000f3fe608060405234801561001057600080fd5b50600436106100885760003560e01c8063a41e7d511161005b578063a41e7d5114610106578063aabbb8ca14610119578063b70567651461012c578063f712f3e81461014f57600080fd5b806329965a1d1461008d5780633d584063146100a25780635df8122f146100d257806365ba36c1146100e5575b600080fd5b6100a061009b366004610767565b610162565b005b6100b56100b03660046107a3565b6103b7565b6040516001600160a01b0390911681526020015b60405180910390f35b6100a06100e03660046107c5565b610400565b6100f86100f33660046107f8565b6104d4565b6040519081526020016100c9565b6100a061011436600461086a565b610508565b6100b56101273660046108ae565b610585565b61013f61013a36600461086a565b6105fc565b60405190151581526020016100c9565b61013f61015d36600461086a565b61069e565b60006001600160a01b03841615610179578361017b565b335b905033610187826103b7565b6001600160a01b0316146101d45760405162461bcd60e51b815260206004820152600f60248201526e2737ba103a34329036b0b730b3b2b960891b60448201526064015b60405180910390fd5b6001600160e01b03831661022a5760405162461bcd60e51b815260206004820152601a60248201527f4d757374206e6f7420626520616e20455243313635206861736800000000000060448201526064016101cb565b6001600160a01b0382161580159061024b57506001600160a01b0382163314155b15610353576040517f455243313832305f4143434550545f4d41474943000000000000000000000000602082015260340160408051601f1981840301815290829052805160209091012063124e59fd60e11b8252600482018590526001600160a01b03838116602484015290919084169063249cb3fa90604401602060405180830381865afa1580156102e2573d6000803e3d6000fd5b505050506040513d601f19601f8201168201806040525081019061030691906108d8565b146103535760405162461bcd60e51b815260206004820181905260248201527f446f6573206e6f7420696d706c656d656e742074686520696e7465726661636560448201526064016101cb565b6001600160a01b0381811660008181526020818152604080832088845290915280822080546001600160a01b0319169487169485179055518692917f93baa6efbd2244243bfee6ce4cfdd1d04fc4c0e9a786abd3a41313bd352db15391a450505050565b6001600160a01b038181166000908152600160205260408120549091166103dc575090565b506001600160a01b039081166000908152600160205260409020541690565b919050565b3361040a836103b7565b6001600160a01b0316146104525760405162461bcd60e51b815260206004820152600f60248201526e2737ba103a34329036b0b730b3b2b960891b60448201526064016101cb565b816001600160a01b0316816001600160a01b0316146104715780610474565b60005b6001600160a01b0383811660008181526001602052604080822080546001600160a01b0319169585169590951790945592519184169290917f605c2dbf762e5f7d60a546d42e7205dcb1b011ebc62a61736a57c9089d3a43509190a35050565b600082826040516020016104e99291906108f1565b6040516020818303038152906040528051906020012090505b92915050565b61051282826105fc565b61051d57600061051f565b815b6001600160a01b039283166000818152602081815260408083206001600160e01b03199690961680845295825280832080546001600160a01b0319169590971694909417909555908152600284528181209281529190925220805460ff19166001179055565b6000806001600160a01b0384161561059d578361059f565b335b90506001600160e01b0383166105d057826105ba828261069e565b6105c55760006105c7565b815b92505050610502565b6001600160a01b0390811660009081526020818152604080832086845290915290205416905092915050565b60008080610611856301ffc9a760e01b61071c565b9092509050811580610621575080155b1561063157600092505050610502565b610643856001600160e01b031961071c565b909250905081158061065457508015155b1561066457600092505050610502565b61066e858561071c565b90925090506001821480156106835750806001145b1561069357600192505050610502565b506000949350505050565b6001600160a01b03821660009081526002602090815260408083206001600160e01b03198516845290915281205460ff166106e4576106dd83836105fc565b9050610502565b506001600160a01b038083166000818152602081815260408083206001600160e01b0319871684529091529020549091161492915050565b6040516301ffc9a760e01b8082526004820183905260009182919060208160248189617530fa905190969095509350505050565b80356001600160a01b03811681146103fb57600080fd5b60008060006060848603121561077c57600080fd5b61078584610750565b92506020840135915061079a60408501610750565b90509250925092565b6000602082840312156107b557600080fd5b6107be82610750565b9392505050565b600080604083850312156107d857600080fd5b6107e183610750565b91506107ef60208401610750565b90509250929050565b6000806020838503121561080b57600080fd5b823567ffffffffffffffff8082111561082357600080fd5b818501915085601f83011261083757600080fd5b81358181111561084657600080fd5b86602082850101111561085857600080fd5b60209290920196919550909350505050565b6000806040838503121561087d57600080fd5b61088683610750565b915060208301356001600160e01b0319811681146108a357600080fd5b809150509250929050565b600080604083850312156108c157600080fd5b6108ca83610750565b946020939093013593505050565b6000602082840312156108ea57600080fd5b5051919050565b818382376000910190815291905056fea2646970667358221220282874f01fe3454392833869f38d01916c3eb2ac8279cbbfdcb1c6d18350865b64736f6c63430008170033",
  "linkReferences": {},
  "deployedLinkReferences": {}
}