{
  "_format": "hh-sol-artifact-1",
  "contractName": "FunctionsChild",
  "sourceName": "contracts/solidity/functions/FunctionsChild.sol",
  "abi": [
    {
      "inputs": [],
      "stateMutability": "nonpayable",
      "type": "constructor"
    },
    {
      "anonymous": false,
      "inputs": [
        {
          "indexed": false,
          "internalType": "uint256",
          "name": "",
          "type": "uint256"
        }
      ],
      "name": "MsgValue",
      "type": "event"
    },
    {
      "inputs": [],
      "name": "checkGasleft",
      "outputs": [
        {
          "internalType": "uint256",
          "name": "",
          "type": "uint256"
        }
      ],
      "stateMutability": "view",
      "type": "function"
    },
    {
      "inputs": [],
      "name": "checkGasleftFromExternalCall",
      "outputs": [
        {
          "internalType": "uint256",
          "name": "",
          "type": "uint256"
        }
      ],
      "stateMutability": "view",
      "type": "function"
    },
    {
      "inputs": [],
      "name": "deposit",
      "outputs": [],
      "stateMutability": "payable",
      "type": "function"
    },
    {
      "inputs": [],
      "name": "getBalance",
      "outputs": [
        {
          "internalType": "uint256",
          "name": "",
          "type": "uint256"
        }
      ],
      "stateMutability": "view",
      "type": "function"
    },
    {
      "inputs": [],
      "name": "getMessageString",
      "outputs": [
        {
          "internalType": "string",
          "name": "",
          "type": "string"
        }
      ],
      "stateMutability": "view",
      "type": "function"
    },
    {
      "inputs": [],
      "name": "manyInputsProxyCall",
      "outputs": [
        {
          "internalType": "bool",
          "name": "",
          "type": "bool"
        }
      ],
      "stateMutability": "nonpayable",
      "type": "function"
    },
    {
      "inputs": [],
      "name": "message",
      "outputs": [
        {
          "internalType": "string",
          "name": "",
          "type": "string"
        }
      ],
      "stateMutability": "view",
      "type": "function"
    },
    {
      "inputs": [],
      "name": "notPayable",
      "outputs": [],
      "stateMutability": "nonpayable",
      "type": "function"
    },
    {
      "inputs": [
        {
          "internalType": "uint256",
          "name": "a",
          "type": "uint256"
        },
        {
          "internalType": "uint256",
          "name": "",
          "type": "uint256"
        }
      ],
      "name": "sumThemUp",
      "outputs": [
        {
          "internalType": "uint256",
          "name": "",
          "type": "uint256"
        }
      ],
      "stateMutability": "pure",
      "type": "function"
    }
  ],
  "bytecode": "0x608060405234801561001057600080fd5b5060408051808201909152600b81526a12195b1b1bc815dbdc9b1960aa1b602082015260059061004090826100e7565b506101a6565b634e487b7160e01b600052604160045260246000fd5b600181811c9082168061007057607f821691505b60208210810361009057634e487b7160e01b600052602260045260246000fd5b50919050565b601f8211156100e2576000816000526020600020601f850160051c810160208610156100bf5750805b601f850160051c820191505b818110156100de578281556001016100cb565b5050505b505050565b81516001600160401b0381111561010057610100610046565b6101148161010e845461005c565b84610096565b602080601f83116001811461014957600084156101315750858301515b600019600386901b1c1916600185901b1785556100de565b600085815260208120601f198616915b8281101561017857888601518255948401946001909101908401610159565b50858210156101965787850151600019600388901b60f8161c191681555b5050505050600190811b01905550565b61059d806101b56000396000f3fe6080604052600436106100865760003560e01c8063890dd99911610059578063890dd999146101005780638b5a76e414610115578063d0e30db0146100dc578063e21f37ce1461012a578063fae3cfa91461013f57600080fd5b8063078ac6f41461008b57806312065fe0146100bd578063273884bd146100d05780635146c096146100de575b600080fd5b34801561009757600080fd5b506100aa6100a636600461037c565b5090565b6040519081526020015b60405180910390f35b3480156100c957600080fd5b50476100aa565b3480156100dc57600080fd5b005b3480156100ea57600080fd5b506100f3610164565b6040516100b4919061039e565b34801561010c57600080fd5b506100aa6101f6565b34801561012157600080fd5b506100aa61026c565b34801561013657600080fd5b506100f3610274565b34801561014b57600080fd5b50610154610302565b60405190151581526020016100b4565b606060058054610173906103ed565b80601f016020809104026020016040519081016040528092919081815260200182805461019f906103ed565b80156101ec5780601f106101c1576101008083540402835291602001916101ec565b820191906000526020600020905b8154815290600101906020018083116101cf57829003601f168201915b5050505050905090565b60003073ffffffffffffffffffffffffffffffffffffffff16638b5a76e46040518163ffffffff1660e01b8152600401602060405180830381865afa158015610243573d6000803e3d6000fd5b505050506040513d601f19601f820116820180604052508101906102679190610427565b905090565b60005a905090565b60058054610281906103ed565b80601f01602080910402602001604051908101604052809291908181526020018280546102ad906103ed565b80156102fa5780601f106102cf576101008083540402835291602001916102fa565b820191906000526020600020905b8154815290600101906020018083116102dd57829003601f168201915b505050505081565b6000610267600c3060405180604001604052806006815260200165737472696e6760d01b81525060048390556002805473ffffffffffffffffffffffffffffffffffffffff191673ffffffffffffffffffffffffffffffffffffffff84161790556000600361037183826104a7565b506001949350505050565b6000806040838503121561038f57600080fd5b50508035926020909101359150565b60006020808352835180602085015260005b818110156103cc578581018301518582016040015282016103b0565b506000604082860101526040601f19601f8301168501019250505092915050565b600181811c9082168061040157607f821691505b60208210810361042157634e487b7160e01b600052602260045260246000fd5b50919050565b60006020828403121561043957600080fd5b5051919050565b634e487b7160e01b600052604160045260246000fd5b601f8211156104a2576000816000526020600020601f850160051c8101602086101561047f5750805b601f850160051c820191505b8181101561049e5782815560010161048b565b5050505b505050565b815167ffffffffffffffff8111156104c1576104c1610440565b6104d5816104cf84546103ed565b84610456565b602080601f83116001811461050a57600084156104f25750858301515b600019600386901b1c1916600185901b17855561049e565b600085815260208120601f198616915b828110156105395788860151825594840194600190910190840161051a565b50858210156105575787850151600019600388901b60f8161c191681555b5050505050600190811b0190555056fea26469706673582212203daf9744572e43cacb6109c9b9f073b00544384b83dacd479d1f793db105ce6164736f6c63430008170033",
  "linkReferences": {},
  "deployedLinkReferences": {}
}