{
  "_format": "hh-sol-artifact-1",
  "contractName": "Test1Facet",
  "sourceName": "contracts/diamond-pattern/facets/Test1Facet.sol",
  "abi": [
    {
      "anonymous": false,
      "inputs": [
        {
          "indexed": false,
          "internalType": "address",
          "name": "data",
          "type": "address"
        }
      ],
      "name": "TestEvent",
      "type": "event"
    },
    {
      "inputs": [
        {
          "internalType": "bytes4",
          "name": "_interfaceID",
          "type": "bytes4"
        }
      ],
      "name": "supportsInterface",
      "outputs": [
        {
          "internalType": "bool",
          "name": "",
          "type": "bool"
        }
      ],
      "stateMutability": "view",
      "type": "function"
    },
    {
      "inputs": [],
      "name": "test1Func10",
      "outputs": [],
      "stateMutability": "nonpayable",
      "type": "function"
    },
    {
      "inputs": [],
      "name": "test1Func11",
      "outputs": [],
      "stateMutability": "nonpayable",
      "type": "function"
    },
    {
      "inputs": [],
      "name": "test1Func12",
      "outputs": [],
      "stateMutability": "nonpayable",
      "type": "function"
    },
    {
      "inputs": [],
      "name": "test1Func2",
      "outputs": [],
      "stateMutability": "nonpayable",
      "type": "function"
    }
  ],
  "bytecode": "0x608060405234801561000f575f80fd5b5060f28061001c5f395ff3fe6080604052348015600e575f80fd5b5060043610604e575f3560e01c806301ffc9a71460525780630716c2ae14607657806350eb3f4314607657806381b5207d14607657806387952d22146076575b5f80fd5b6062605d3660046078565b505f90565b604051901515815260200160405180910390f35b005b5f602082840312156087575f80fd5b81357fffffffff000000000000000000000000000000000000000000000000000000008116811460b5575f80fd5b939250505056fea26469706673582212207b114aa8b6538d7c86045f37b6cc6ca4268fc8482d8280d166f2e5d059b6034864736f6c63430008140033",
  "linkReferences": {},
  "deployedLinkReferences": {}
}