{
  "_format": "hh-sol-artifact-1",
  "contractName": "Test1Facet",
  "sourceName": "contracts/diamond-pattern/facets/Test1Facet.sol",
  "abi": [
    {
      "anonymous": false,
      "inputs": [
        {
          "indexed": false,
          "internalType": "address",
          "name": "data",
          "type": "address"
        }
      ],
      "name": "TestEvent",
      "type": "event"
    },
    {
      "inputs": [
        {
          "internalType": "bytes4",
          "name": "_interfaceID",
          "type": "bytes4"
        }
      ],
      "name": "supportsInterface",
      "outputs": [
        {
          "internalType": "bool",
          "name": "",
          "type": "bool"
        }
      ],
      "stateMutability": "view",
      "type": "function"
    },
    {
      "inputs": [],
      "name": "test1Func10",
      "outputs": [],
      "stateMutability": "nonpayable",
      "type": "function"
    },
    {
      "inputs": [],
      "name": "test1Func11",
      "outputs": [],
      "stateMutability": "nonpayable",
      "type": "function"
    },
    {
      "inputs": [],
      "name": "test1Func12",
      "outputs": [],
      "stateMutability": "nonpayable",
      "type": "function"
    },
    {
      "inputs": [],
      "name": "test1Func2",
      "outputs": [],
      "stateMutability": "nonpayable",
      "type": "function"
    }
  ],
  "bytecode": "0x608060405234801561001057600080fd5b5060f98061001f6000396000f3fe6080604052348015600f57600080fd5b506004361060505760003560e01c806301ffc9a71460555780630716c2ae14607a57806350eb3f4314607a57806381b5207d14607a57806387952d2214607a575b600080fd5b60666060366004607c565b50600090565b604051901515815260200160405180910390f35b005b600060208284031215608d57600080fd5b81357fffffffff000000000000000000000000000000000000000000000000000000008116811460bc57600080fd5b939250505056fea264697066735822122058d245d9949c7e74fecf6d23d9984ed42f5f3a1ba84947ba9ba08655a2d1c1dc64736f6c63430008140033",
  "linkReferences": {},
  "deployedLinkReferences": {}
}