{
  "_format": "hh-sol-artifact-1",
  "contractName": "Reverter",
  "sourceName": "contracts/multicaller/Reverter.sol",
  "abi": [
    {
      "inputs": [
        {
          "components": [
            {
              "internalType": "uint256",
              "name": "a",
              "type": "uint256"
            },
            {
              "internalType": "uint256",
              "name": "b",
              "type": "uint256"
            },
            {
              "internalType": "uint256",
              "name": "c",
              "type": "uint256"
            },
            {
              "internalType": "uint256",
              "name": "d",
              "type": "uint256"
            }
          ],
          "internalType": "struct Reverter.SomeData",
          "name": "longInput",
          "type": "tuple"
        }
      ],
      "name": "processLongInput",
      "outputs": [
        {
          "internalType": "uint256",
          "name": "sum",
          "type": "uint256"
        }
      ],
      "stateMutability": "pure",
      "type": "function"
    },
    {
      "inputs": [
        {
          "internalType": "uint24",
          "name": "count",
          "type": "uint24"
        }
      ],
      "name": "processLongOutput",
      "outputs": [
        {
          "components": [
            {
              "internalType": "uint256",
              "name": "a",
              "type": "uint256"
            },
            {
              "internalType": "uint256",
              "name": "b",
              "type": "uint256"
            },
            {
              "internalType": "uint256",
              "name": "c",
              "type": "uint256"
            },
            {
              "internalType": "uint256",
              "name": "d",
              "type": "uint256"
            }
          ],
          "internalType": "struct Reverter.SomeData[]",
          "name": "",
          "type": "tuple[]"
        }
      ],
      "stateMutability": "pure",
      "type": "function"
    }
  ],
  "bytecode": "0x608060405234801561000f575f80fd5b506102348061001d5f395ff3fe608060405234801561000f575f80fd5b5060043610610034575f3560e01c806307ce9e5a146100385780637dffb45814610061575b5f80fd5b61004b610046366004610102565b610082565b604051610058919061012b565b60405180910390f35b61007461006f36600461018e565b6100c5565b604051908152602001610058565b60405162461bcd60e51b815260206004820152601060248201526f29b7b6b2a932bb32b93a2932b0b9b7b760811b60448201526060906064015b60405180910390fd5b60405162461bcd60e51b815260206004820152601060248201526f29b7b6b2a932bb32b93a2932b0b9b7b760811b60448201525f906064016100bc565b5f60208284031215610112575f80fd5b813562ffffff81168114610124575f80fd5b9392505050565b602080825282518282018190525f919060409081850190868401855b8281101561018157815180518552868101518786015285810151868601526060908101519085015260809093019290850190600101610147565b5091979650505050505050565b5f6080828403121561019e575f80fd5b6040516080810181811067ffffffffffffffff821117156101cd57634e487b7160e01b5f52604160045260245ffd5b806040525082358152602083013560208201526040830135604082015260608301356060820152809150509291505056fea26469706673582212204ae7187d1cef05b8b070e865f0d196b86646fc232a4271884fd32741e0fcc4f664736f6c63430008140033",
  "linkReferences": {},
  "deployedLinkReferences": {}
}