{
  "_format": "hh-sol-artifact-1",
  "contractName": "Reverter",
  "sourceName": "contracts/multicaller/Reverter.sol",
  "abi": [
    {
      "inputs": [
        {
          "components": [
            {
              "internalType": "uint256",
              "name": "a",
              "type": "uint256"
            },
            {
              "internalType": "uint256",
              "name": "b",
              "type": "uint256"
            },
            {
              "internalType": "uint256",
              "name": "c",
              "type": "uint256"
            },
            {
              "internalType": "uint256",
              "name": "d",
              "type": "uint256"
            }
          ],
          "internalType": "struct Reverter.SomeData",
          "name": "longInput",
          "type": "tuple"
        }
      ],
      "name": "processLongInput",
      "outputs": [
        {
          "internalType": "uint256",
          "name": "sum",
          "type": "uint256"
        }
      ],
      "stateMutability": "pure",
      "type": "function"
    },
    {
      "inputs": [
        {
          "internalType": "uint24",
          "name": "count",
          "type": "uint24"
        }
      ],
      "name": "processLongOutput",
      "outputs": [
        {
          "components": [
            {
              "internalType": "uint256",
              "name": "a",
              "type": "uint256"
            },
            {
              "internalType": "uint256",
              "name": "b",
              "type": "uint256"
            },
            {
              "internalType": "uint256",
              "name": "c",
              "type": "uint256"
            },
            {
              "internalType": "uint256",
              "name": "d",
              "type": "uint256"
            }
          ],
          "internalType": "struct Reverter.SomeData[]",
          "name": "",
          "type": "tuple[]"
        }
      ],
      "stateMutability": "pure",
      "type": "function"
    }
  ],
  "bytecode": "0x608060405234801561001057600080fd5b50610240806100206000396000f3fe608060405234801561001057600080fd5b50600436106100365760003560e01c806307ce9e5a1461003b5780637dffb45814610064575b600080fd5b61004e610049366004610106565b610085565b60405161005b9190610132565b60405180910390f35b610077610072366004610196565b6100c8565b60405190815260200161005b565b60405162461bcd60e51b815260206004820152601060248201526f29b7b6b2a932bb32b93a2932b0b9b7b760811b60448201526060906064015b60405180910390fd5b60405162461bcd60e51b815260206004820152601060248201526f29b7b6b2a932bb32b93a2932b0b9b7b760811b60448201526000906064016100bf565b60006020828403121561011857600080fd5b813562ffffff8116811461012b57600080fd5b9392505050565b602080825282518282018190526000919060409081850190868401855b828110156101895781518051855286810151878601528581015186860152606090810151908501526080909301929085019060010161014f565b5091979650505050505050565b6000608082840312156101a857600080fd5b6040516080810181811067ffffffffffffffff821117156101d957634e487b7160e01b600052604160045260246000fd5b806040525082358152602083013560208201526040830135604082015260608301356060820152809150509291505056fea26469706673582212208c3ede08d126efcba690d94858964674531c5625b76fb70e2cb377bfcc7e9ec764736f6c63430008170033",
  "linkReferences": {},
  "deployedLinkReferences": {}
}