{
  "_format": "hh-sol-artifact-1",
  "contractName": "ChainedContracts",
  "sourceName": "contracts/discrepancies/nonce/ChainedContracts.sol",
  "abi": [
    {
      "inputs": [],
      "stateMutability": "nonpayable",
      "type": "constructor"
    },
    {
      "anonymous": false,
      "inputs": [
        {
          "indexed": false,
          "internalType": "address",
          "name": "",
          "type": "address"
        }
      ],
      "name": "DeployedContract2Address",
      "type": "event"
    },
    {
      "inputs": [],
      "name": "childContract",
      "outputs": [
        {
          "internalType": "contract Deploys1Contract",
          "name": "",
          "type": "address"
        }
      ],
      "stateMutability": "view",
      "type": "function"
    },
    {
      "inputs": [],
      "name": "owner",
      "outputs": [
        {
          "internalType": "address",
          "name": "",
          "type": "address"
        }
      ],
      "stateMutability": "view",
      "type": "function"
    }
  ],
  "bytecode": "0x608060405234801561001057600080fd5b50600080546001600160a01b0319163317905560405161002f906100a4565b604051809103906000f08015801561004b573d6000803e3d6000fd5b50600180546001600160a01b0319166001600160a01b03929092169190911790556040513081527f4c7e6c30855cecc78c59c5d5000ada13e03c0ae4149c9855ac07f3c40aef8ac89060200160405180910390a16100b1565b6102678061016c83390190565b60ad806100bf6000396000f3fe6080604052348015600f57600080fd5b506004361060325760003560e01c80638da5cb5b146037578063e626223a146065575b600080fd5b6000546049906001600160a01b031681565b6040516001600160a01b03909116815260200160405180910390f35b6001546049906001600160a01b03168156fea2646970667358221220b3f628ab7815acfaab1491937260ed0ced21715877d191dc2a0fdfdad895139664736f6c63430008140033608060405234801561001057600080fd5b50600080546001600160a01b0319163317905560405161002f906100a4565b604051809103906000f08015801561004b573d6000803e3d6000fd5b50600180546001600160a01b0319166001600160a01b03929092169190911790556040513081527ff430eff672344f7f9138982ac94eed1bf772be59937976e8b99dc487228ee5e49060200160405180910390a16100b0565b60fc8061016b83390190565b60ad806100be6000396000f3fe6080604052348015600f57600080fd5b506004361060325760003560e01c80638da5cb5b146037578063e626223a146065575b600080fd5b6000546049906001600160a01b031681565b6040516001600160a01b03909116815260200160405180910390f35b6001546049906001600160a01b03168156fea264697066735822122000fd035255a3b46e0feb429f06f3517e261b4a31e00ec555ea2e39f39140c3ea64736f6c634300081400336080604052348015600f57600080fd5b506040513081527fa1ef4f4713541f13c4b891a4cb3630b8d1a279770a294c2ec1774d414a57bf039060200160405180910390a160ab806100516000396000f3fe6080604052348015600f57600080fd5b506004361060285760003560e01c80638da5cb5b14602d575b600080fd5b600054604c9073ffffffffffffffffffffffffffffffffffffffff1681565b60405173ffffffffffffffffffffffffffffffffffffffff909116815260200160405180910390f3fea264697066735822122044229adcda9ef3ffd694010a25de643654aad991d60265ad70834ad990d8861f64736f6c63430008140033",
  "linkReferences": {},
  "deployedLinkReferences": {}
}