{
  "_format": "hh-sol-artifact-1",
  "contractName": "EmptyContract",
  "sourceName": "contracts/discrepancies/nonce/ChainedContracts.sol",
  "abi": [
    {
      "inputs": [],
      "stateMutability": "nonpayable",
      "type": "constructor"
    },
    {
      "anonymous": false,
      "inputs": [
        {
          "indexed": false,
          "internalType": "address",
          "name": "",
          "type": "address"
        }
      ],
      "name": "DeployedContract0Address",
      "type": "event"
    },
    {
      "inputs": [],
      "name": "owner",
      "outputs": [
        {
          "internalType": "address",
          "name": "",
          "type": "address"
        }
      ],
      "stateMutability": "view",
      "type": "function"
    }
  ],
  "bytecode": "0x6080604052348015600f57600080fd5b506040513081527fa1ef4f4713541f13c4b891a4cb3630b8d1a279770a294c2ec1774d414a57bf039060200160405180910390a160ab806100516000396000f3fe6080604052348015600f57600080fd5b506004361060285760003560e01c80638da5cb5b14602d575b600080fd5b600054604c9073ffffffffffffffffffffffffffffffffffffffff1681565b60405173ffffffffffffffffffffffffffffffffffffffff909116815260200160405180910390f3fea264697066735822122044229adcda9ef3ffd694010a25de643654aad991d60265ad70834ad990d8861f64736f6c63430008140033",
  "linkReferences": {},
  "deployedLinkReferences": {}
}