{
  "_format": "hh-sol-artifact-1",
  "contractName": "LogicContractV1",
  "sourceName": "contracts/openzeppelin/beacon-proxy/LogicContractV1.sol",
  "abi": [
    {
      "inputs": [
        {
          "internalType": "uint256",
          "name": "_value",
          "type": "uint256"
        }
      ],
      "stateMutability": "nonpayable",
      "type": "constructor"
    },
    {
      "anonymous": false,
      "inputs": [
        {
          "indexed": false,
          "internalType": "uint256",
          "name": "value",
          "type": "uint256"
        }
      ],
      "name": "Value",
      "type": "event"
    },
    {
      "anonymous": false,
      "inputs": [
        {
          "indexed": false,
          "internalType": "uint256",
          "name": "newValue",
          "type": "uint256"
        }
      ],
      "name": "ValueChanged",
      "type": "event"
    },
    {
      "inputs": [],
      "name": "retrieve",
      "outputs": [
        {
          "internalType": "uint256",
          "name": "",
          "type": "uint256"
        }
      ],
      "stateMutability": "nonpayable",
      "type": "function"
    },
    {
      "inputs": [
        {
          "internalType": "uint256",
          "name": "_input",
          "type": "uint256"
        }
      ],
      "name": "square",
      "outputs": [
        {
          "internalType": "uint256",
          "name": "",
          "type": "uint256"
        }
      ],
      "stateMutability": "pure",
      "type": "function"
    },
    {
      "inputs": [
        {
          "internalType": "uint256",
          "name": "_newValue",
          "type": "uint256"
        }
      ],
      "name": "store",
      "outputs": [],
      "stateMutability": "nonpayable",
      "type": "function"
    }
  ],
  "bytecode": "0x608060405234801561001057600080fd5b506040516101b33803806101b383398101604081905261002f91610037565b600055610050565b60006020828403121561004957600080fd5b5051919050565b6101548061005f6000396000f3fe608060405234801561001057600080fd5b50600436106100415760003560e01c80632e64cec1146100465780636057361d146100605780637b29290914610075575b600080fd5b61004e610086565b60405190815260200160405180910390f35b61007361006e366004610105565b6100ca565b005b61004e610083366004610105565b90565b60007f2a27502c345a4cd966daa061d5537f54cd60d2d20b73680b3bf195c91e806a4b6000546040516100bb91815260200190565b60405180910390a15060005490565b60008190556040518181527f93fe6d397c74fdf1402a8b72e47b68512f0510d7b98a4bc4cbdf6ac7108b3c599060200160405180910390a150565b60006020828403121561011757600080fd5b503591905056fea2646970667358221220b121d4e6d5af0ee04bddc24a0b08a02063439182959ff726a149344c603a376564736f6c63430008170033",
  "linkReferences": {},
  "deployedLinkReferences": {}
}