{
  "_format": "hh-sol-artifact-1",
  "contractName": "VaultV1",
  "sourceName": "contracts/openzeppelin/uups-upgradable/VaultV1.sol",
  "abi": [
    {
      "inputs": [
        {
          "internalType": "address",
          "name": "target",
          "type": "address"
        }
      ],
      "name": "AddressEmptyCode",
      "type": "error"
    },
    {
      "inputs": [
        {
          "internalType": "address",
          "name": "implementation",
          "type": "address"
        }
      ],
      "name": "ERC1967InvalidImplementation",
      "type": "error"
    },
    {
      "inputs": [],
      "name": "ERC1967NonPayable",
      "type": "error"
    },
    {
      "inputs": [],
      "name": "FailedInnerCall",
      "type": "error"
    },
    {
      "inputs": [],
      "name": "InsufficientFund",
      "type": "error"
    },
    {
      "inputs": [],
      "name": "InvalidInitialization",
      "type": "error"
    },
    {
      "inputs": [],
      "name": "NotInitializing",
      "type": "error"
    },
    {
      "inputs": [
        {
          "internalType": "address",
          "name": "owner",
          "type": "address"
        }
      ],
      "name": "OwnableInvalidOwner",
      "type": "error"
    },
    {
      "inputs": [
        {
          "internalType": "address",
          "name": "account",
          "type": "address"
        }
      ],
      "name": "OwnableUnauthorizedAccount",
      "type": "error"
    },
    {
      "inputs": [],
      "name": "UUPSUnauthorizedCallContext",
      "type": "error"
    },
    {
      "inputs": [
        {
          "internalType": "bytes32",
          "name": "slot",
          "type": "bytes32"
        }
      ],
      "name": "UUPSUnsupportedProxiableUUID",
      "type": "error"
    },
    {
      "anonymous": false,
      "inputs": [
        {
          "indexed": false,
          "internalType": "address",
          "name": "depositor",
          "type": "address"
        },
        {
          "indexed": false,
          "internalType": "uint256",
          "name": "amount",
          "type": "uint256"
        }
      ],
      "name": "Deposited",
      "type": "event"
    },
    {
      "anonymous": false,
      "inputs": [
        {
          "indexed": false,
          "internalType": "uint64",
          "name": "version",
          "type": "uint64"
        }
      ],
      "name": "Initialized",
      "type": "event"
    },
    {
      "anonymous": false,
      "inputs": [
        {
          "indexed": true,
          "internalType": "address",
          "name": "previousOwner",
          "type": "address"
        },
        {
          "indexed": true,
          "internalType": "address",
          "name": "newOwner",
          "type": "address"
        }
      ],
      "name": "OwnershipTransferred",
      "type": "event"
    },
    {
      "anonymous": false,
      "inputs": [
        {
          "indexed": true,
          "internalType": "address",
          "name": "implementation",
          "type": "address"
        }
      ],
      "name": "Upgraded",
      "type": "event"
    },
    {
      "anonymous": false,
      "inputs": [
        {
          "indexed": false,
          "internalType": "address",
          "name": "withdrawer",
          "type": "address"
        },
        {
          "indexed": false,
          "internalType": "uint256",
          "name": "amount",
          "type": "uint256"
        }
      ],
      "name": "Withdrawn",
      "type": "event"
    },
    {
      "inputs": [],
      "name": "UPGRADE_INTERFACE_VERSION",
      "outputs": [
        {
          "internalType": "string",
          "name": "",
          "type": "string"
        }
      ],
      "stateMutability": "view",
      "type": "function"
    },
    {
      "inputs": [],
      "name": "deposit",
      "outputs": [],
      "stateMutability": "payable",
      "type": "function"
    },
    {
      "inputs": [],
      "name": "initialize",
      "outputs": [],
      "stateMutability": "nonpayable",
      "type": "function"
    },
    {
      "inputs": [],
      "name": "owner",
      "outputs": [
        {
          "internalType": "address",
          "name": "",
          "type": "address"
        }
      ],
      "stateMutability": "view",
      "type": "function"
    },
    {
      "inputs": [],
      "name": "proxiableUUID",
      "outputs": [
        {
          "internalType": "bytes32",
          "name": "",
          "type": "bytes32"
        }
      ],
      "stateMutability": "view",
      "type": "function"
    },
    {
      "inputs": [],
      "name": "renounceOwnership",
      "outputs": [],
      "stateMutability": "nonpayable",
      "type": "function"
    },
    {
      "inputs": [],
      "name": "totalBalance",
      "outputs": [
        {
          "internalType": "uint256",
          "name": "total",
          "type": "uint256"
        }
      ],
      "stateMutability": "view",
      "type": "function"
    },
    {
      "inputs": [
        {
          "internalType": "address",
          "name": "newOwner",
          "type": "address"
        }
      ],
      "name": "transferOwnership",
      "outputs": [],
      "stateMutability": "nonpayable",
      "type": "function"
    },
    {
      "inputs": [
        {
          "internalType": "address",
          "name": "newImplementation",
          "type": "address"
        },
        {
          "internalType": "bytes",
          "name": "data",
          "type": "bytes"
        }
      ],
      "name": "upgradeToAndCall",
      "outputs": [],
      "stateMutability": "payable",
      "type": "function"
    },
    {
      "inputs": [],
      "name": "version",
      "outputs": [
        {
          "internalType": "uint256",
          "name": "currentVersion",
          "type": "uint256"
        }
      ],
      "stateMutability": "view",
      "type": "function"
    },
    {
      "inputs": [
        {
          "internalType": "uint256",
          "name": "_amount",
          "type": "uint256"
        }
      ],
      "name": "withdraw",
      "outputs": [],
      "stateMutability": "nonpayable",
      "type": "function"
    }
  ],
  "bytecode": "0x60a06040523060805234801561001457600080fd5b50608051610bb961003e600039600081816105220152818161054b01526106b50152610bb96000f3fe6080604052600436106100ac5760003560e01c80638129fc1c11610074578063ad7a672f1161004e578063ad7a672f146101d2578063d0e30db0146101e7578063f2fde38b146101ef57600080fd5b80638129fc1c146101385780638da5cb5b1461014d578063ad3cb1cc1461019457600080fd5b80632e1a7d4d146100b15780634f1ef286146100d357806352d1902d146100e657806354fd4d501461010e578063715018a614610123575b600080fd5b3480156100bd57600080fd5b506100d16100cc3660046109cf565b61020f565b005b6100d16100e1366004610a1a565b61029d565b3480156100f257600080fd5b506100fb6102bc565b6040519081526020015b60405180910390f35b34801561011a57600080fd5b506000546100fb565b34801561012f57600080fd5b506100d16102eb565b34801561014457600080fd5b506100d16102ff565b34801561015957600080fd5b507f9016d09d72d40fdae2fd8ceac6b6234c7706214fd39c1cd1e609a0528c199300546040516001600160a01b039091168152602001610105565b3480156101a057600080fd5b506101c5604051806040016040528060058152602001640352e302e360dc1b81525081565b6040516101059190610b00565b3480156101de57600080fd5b506001546100fb565b6100d1610427565b3480156101fb57600080fd5b506100d161020a366004610b33565b610479565b6102176104bc565b60015481111561023a57604051636a259e3160e11b815260040160405180910390fd5b806001540360015560008060008084335af18061025657600080fd5b507f7084f5476618d8e60b11ef0d7d3f06914655adb8793e28ff7f018d4c76d505d533604080516001600160a01b039092168252602082018490520160405180910390a150565b6102a5610517565b6102ae826105ce565b6102b882826105d6565b5050565b60006102c66106aa565b507f360894a13ba1a3210667c828492db98dca3e2076cc3735a920a3ca505d382bbc90565b6102f36104bc565b6102fd60006106f3565b565b7ff0c57e16840df040f15088dc2f81fe391c3923bec73e23a9662efc9c229c6a00805468010000000000000000810460ff16159067ffffffffffffffff1660008115801561034a5750825b905060008267ffffffffffffffff1660011480156103675750303b155b905081158015610375575080155b156103935760405163f92ee8a960e01b815260040160405180910390fd5b845467ffffffffffffffff1916600117855583156103c757845468ff00000000000000001916680100000000000000001785555b6103d033610771565b6001600055831561042057845468ff000000000000000019168555604051600181527fc7f505b2f371ae2175ee4913f4499e1f2633a7b5936321eed1cdaeb6115181d29060200160405180910390a15b5050505050565b34600154016001557f2da466a7b24304f47e87fa2e1e5a81b9831ce54fec19055ce277ca2f39ba42c46104573390565b604080516001600160a01b0390921682523460208301520160405180910390a1565b6104816104bc565b6001600160a01b0381166104b057604051631e4fbdf760e01b8152600060048201526024015b60405180910390fd5b6104b9816106f3565b50565b336104ee7f9016d09d72d40fdae2fd8ceac6b6234c7706214fd39c1cd1e609a0528c199300546001600160a01b031690565b6001600160a01b0316146102fd5760405163118cdaa760e01b81523360048201526024016104a7565b306001600160a01b037f00000000000000000000000000000000000000000000000000000000000000001614806105b057507f00000000000000000000000000000000000000000000000000000000000000006001600160a01b03166105a47f360894a13ba1a3210667c828492db98dca3e2076cc3735a920a3ca505d382bbc546001600160a01b031690565b6001600160a01b031614155b156102fd5760405163703e46dd60e11b815260040160405180910390fd5b6104b96104bc565b816001600160a01b03166352d1902d6040518163ffffffff1660e01b8152600401602060405180830381865afa925050508015610630575060408051601f3d908101601f1916820190925261062d91810190610b4e565b60015b61065857604051634c9c8ce360e01b81526001600160a01b03831660048201526024016104a7565b7f360894a13ba1a3210667c828492db98dca3e2076cc3735a920a3ca505d382bbc811461069b57604051632a87526960e21b8152600481018290526024016104a7565b6106a58383610782565b505050565b306001600160a01b037f000000000000000000000000000000000000000000000000000000000000000016146102fd5760405163703e46dd60e11b815260040160405180910390fd5b7f9016d09d72d40fdae2fd8ceac6b6234c7706214fd39c1cd1e609a0528c199300805473ffffffffffffffffffffffffffffffffffffffff1981166001600160a01b03848116918217845560405192169182907f8be0079c531659141344cd1fd0a4f28419497f9722a3daafe3b4186f6b6457e090600090a3505050565b6107796107d8565b6104b981610826565b61078b8261082e565b6040516001600160a01b038316907fbc7cd75a20ee27fd9adebab32041f755214dbc6bffa90cc0225b39da2e5c2d3b90600090a28051156107d0576106a582826108b2565b6102b8610928565b7ff0c57e16840df040f15088dc2f81fe391c3923bec73e23a9662efc9c229c6a005468010000000000000000900460ff166102fd57604051631afcd79f60e31b815260040160405180910390fd5b6104816107d8565b806001600160a01b03163b60000361086457604051634c9c8ce360e01b81526001600160a01b03821660048201526024016104a7565b7f360894a13ba1a3210667c828492db98dca3e2076cc3735a920a3ca505d382bbc805473ffffffffffffffffffffffffffffffffffffffff19166001600160a01b0392909216919091179055565b6060600080846001600160a01b0316846040516108cf9190610b67565b600060405180830381855af49150503d806000811461090a576040519150601f19603f3d011682016040523d82523d6000602084013e61090f565b606091505b509150915061091f858383610947565b95945050505050565b34156102fd5760405163b398979f60e01b815260040160405180910390fd5b60608261095c57610957826109a6565b61099f565b815115801561097357506001600160a01b0384163b155b1561099c57604051639996b31560e01b81526001600160a01b03851660048201526024016104a7565b50805b9392505050565b8051156109b65780518082602001fd5b604051630a12f52160e11b815260040160405180910390fd5b6000602082840312156109e157600080fd5b5035919050565b80356001600160a01b03811681146109ff57600080fd5b919050565b634e487b7160e01b600052604160045260246000fd5b60008060408385031215610a2d57600080fd5b610a36836109e8565b9150602083013567ffffffffffffffff80821115610a5357600080fd5b818501915085601f830112610a6757600080fd5b813581811115610a7957610a79610a04565b604051601f8201601f19908116603f01168101908382118183101715610aa157610aa1610a04565b81604052828152886020848701011115610aba57600080fd5b8260208601602083013760006020848301015280955050505050509250929050565b60005b83811015610af7578181015183820152602001610adf565b50506000910152565b6020815260008251806020840152610b1f816040850160208701610adc565b601f01601f19169190910160400192915050565b600060208284031215610b4557600080fd5b61099f826109e8565b600060208284031215610b6057600080fd5b5051919050565b60008251610b79818460208701610adc565b919091019291505056fea2646970667358221220ed584cce90846f208b2ad028e9d47b383df01bc2d793be4f99a365cb0a08811964736f6c63430008170033",
  "linkReferences": {},
  "deployedLinkReferences": {}
}