{
  "_format": "hh-sol-artifact-1",
  "contractName": "VaultV1",
  "sourceName": "contracts/openzeppelin/uups-upgradable/VaultV1.sol",
  "abi": [
    {
      "inputs": [
        {
          "internalType": "address",
          "name": "target",
          "type": "address"
        }
      ],
      "name": "AddressEmptyCode",
      "type": "error"
    },
    {
      "inputs": [
        {
          "internalType": "address",
          "name": "implementation",
          "type": "address"
        }
      ],
      "name": "ERC1967InvalidImplementation",
      "type": "error"
    },
    {
      "inputs": [],
      "name": "ERC1967NonPayable",
      "type": "error"
    },
    {
      "inputs": [],
      "name": "FailedInnerCall",
      "type": "error"
    },
    {
      "inputs": [],
      "name": "InsufficientFund",
      "type": "error"
    },
    {
      "inputs": [],
      "name": "InvalidInitialization",
      "type": "error"
    },
    {
      "inputs": [],
      "name": "NotInitializing",
      "type": "error"
    },
    {
      "inputs": [
        {
          "internalType": "address",
          "name": "owner",
          "type": "address"
        }
      ],
      "name": "OwnableInvalidOwner",
      "type": "error"
    },
    {
      "inputs": [
        {
          "internalType": "address",
          "name": "account",
          "type": "address"
        }
      ],
      "name": "OwnableUnauthorizedAccount",
      "type": "error"
    },
    {
      "inputs": [],
      "name": "UUPSUnauthorizedCallContext",
      "type": "error"
    },
    {
      "inputs": [
        {
          "internalType": "bytes32",
          "name": "slot",
          "type": "bytes32"
        }
      ],
      "name": "UUPSUnsupportedProxiableUUID",
      "type": "error"
    },
    {
      "anonymous": false,
      "inputs": [
        {
          "indexed": false,
          "internalType": "address",
          "name": "depositor",
          "type": "address"
        },
        {
          "indexed": false,
          "internalType": "uint256",
          "name": "amount",
          "type": "uint256"
        }
      ],
      "name": "Deposited",
      "type": "event"
    },
    {
      "anonymous": false,
      "inputs": [
        {
          "indexed": false,
          "internalType": "uint64",
          "name": "version",
          "type": "uint64"
        }
      ],
      "name": "Initialized",
      "type": "event"
    },
    {
      "anonymous": false,
      "inputs": [
        {
          "indexed": true,
          "internalType": "address",
          "name": "previousOwner",
          "type": "address"
        },
        {
          "indexed": true,
          "internalType": "address",
          "name": "newOwner",
          "type": "address"
        }
      ],
      "name": "OwnershipTransferred",
      "type": "event"
    },
    {
      "anonymous": false,
      "inputs": [
        {
          "indexed": true,
          "internalType": "address",
          "name": "implementation",
          "type": "address"
        }
      ],
      "name": "Upgraded",
      "type": "event"
    },
    {
      "anonymous": false,
      "inputs": [
        {
          "indexed": false,
          "internalType": "address",
          "name": "withdrawer",
          "type": "address"
        },
        {
          "indexed": false,
          "internalType": "uint256",
          "name": "amount",
          "type": "uint256"
        }
      ],
      "name": "Withdrawn",
      "type": "event"
    },
    {
      "inputs": [],
      "name": "UPGRADE_INTERFACE_VERSION",
      "outputs": [
        {
          "internalType": "string",
          "name": "",
          "type": "string"
        }
      ],
      "stateMutability": "view",
      "type": "function"
    },
    {
      "inputs": [],
      "name": "deposit",
      "outputs": [],
      "stateMutability": "payable",
      "type": "function"
    },
    {
      "inputs": [],
      "name": "initialize",
      "outputs": [],
      "stateMutability": "nonpayable",
      "type": "function"
    },
    {
      "inputs": [],
      "name": "owner",
      "outputs": [
        {
          "internalType": "address",
          "name": "",
          "type": "address"
        }
      ],
      "stateMutability": "view",
      "type": "function"
    },
    {
      "inputs": [],
      "name": "proxiableUUID",
      "outputs": [
        {
          "internalType": "bytes32",
          "name": "",
          "type": "bytes32"
        }
      ],
      "stateMutability": "view",
      "type": "function"
    },
    {
      "inputs": [],
      "name": "renounceOwnership",
      "outputs": [],
      "stateMutability": "nonpayable",
      "type": "function"
    },
    {
      "inputs": [],
      "name": "totalBalance",
      "outputs": [
        {
          "internalType": "uint256",
          "name": "total",
          "type": "uint256"
        }
      ],
      "stateMutability": "view",
      "type": "function"
    },
    {
      "inputs": [
        {
          "internalType": "address",
          "name": "newOwner",
          "type": "address"
        }
      ],
      "name": "transferOwnership",
      "outputs": [],
      "stateMutability": "nonpayable",
      "type": "function"
    },
    {
      "inputs": [
        {
          "internalType": "address",
          "name": "newImplementation",
          "type": "address"
        }
      ],
      "name": "upgradeTo",
      "outputs": [],
      "stateMutability": "nonpayable",
      "type": "function"
    },
    {
      "inputs": [
        {
          "internalType": "address",
          "name": "newImplementation",
          "type": "address"
        },
        {
          "internalType": "bytes",
          "name": "data",
          "type": "bytes"
        }
      ],
      "name": "upgradeToAndCall",
      "outputs": [],
      "stateMutability": "payable",
      "type": "function"
    },
    {
      "inputs": [],
      "name": "version",
      "outputs": [
        {
          "internalType": "uint256",
          "name": "currentVersion",
          "type": "uint256"
        }
      ],
      "stateMutability": "view",
      "type": "function"
    },
    {
      "inputs": [
        {
          "internalType": "uint256",
          "name": "_amount",
          "type": "uint256"
        }
      ],
      "name": "withdraw",
      "outputs": [],
      "stateMutability": "nonpayable",
      "type": "function"
    }
  ],
  "bytecode": "0x60a06040523060805234801561001457600080fd5b50608051610c1f61003e60003960008181610588015281816105b1015261071b0152610c1f6000f3fe6080604052600436106100c75760003560e01c80638129fc1c11610074578063ad7a672f1161004e578063ad7a672f1461020d578063d0e30db014610222578063f2fde38b1461022a57600080fd5b80638129fc1c146101735780638da5cb5b14610188578063ad3cb1cc146101cf57600080fd5b806352d1902d116100a557806352d1902d1461012157806354fd4d5014610149578063715018a61461015e57600080fd5b80632e1a7d4d146100cc5780633659cfe6146100ee5780634f1ef2861461010e575b600080fd5b3480156100d857600080fd5b506100ec6100e7366004610a35565b61024a565b005b3480156100fa57600080fd5b506100ec610109366004610a6a565b6102d8565b6100ec61011c366004610a9b565b610306565b34801561012d57600080fd5b50610136610325565b6040519081526020015b60405180910390f35b34801561015557600080fd5b50600054610136565b34801561016a57600080fd5b506100ec610354565b34801561017f57600080fd5b506100ec610368565b34801561019457600080fd5b507f9016d09d72d40fdae2fd8ceac6b6234c7706214fd39c1cd1e609a0528c199300546040516001600160a01b039091168152602001610140565b3480156101db57600080fd5b50610200604051806040016040528060058152602001640352e302e360dc1b81525081565b6040516101409190610b81565b34801561021957600080fd5b50600154610136565b6100ec610490565b34801561023657600080fd5b506100ec610245366004610a6a565b6104e2565b610252610522565b60015481111561027557604051636a259e3160e11b815260040160405180910390fd5b806001540360015560008060008084335af18061029157600080fd5b507f7084f5476618d8e60b11ef0d7d3f06914655adb8793e28ff7f018d4c76d505d533604080516001600160a01b039092168252602082018490520160405180910390a150565b6102e061057d565b6102e981610634565b60408051600081526020810190915261030390829061063c565b50565b61030e61057d565b61031782610634565b610321828261063c565b5050565b600061032f610710565b507f360894a13ba1a3210667c828492db98dca3e2076cc3735a920a3ca505d382bbc90565b61035c610522565b6103666000610759565b565b7ff0c57e16840df040f15088dc2f81fe391c3923bec73e23a9662efc9c229c6a00805468010000000000000000810460ff16159067ffffffffffffffff166000811580156103b35750825b905060008267ffffffffffffffff1660011480156103d05750303b155b9050811580156103de575080155b156103fc5760405163f92ee8a960e01b815260040160405180910390fd5b845467ffffffffffffffff19166001178555831561043057845468ff00000000000000001916680100000000000000001785555b610439336107d7565b6001600055831561048957845468ff000000000000000019168555604051600181527fc7f505b2f371ae2175ee4913f4499e1f2633a7b5936321eed1cdaeb6115181d29060200160405180910390a15b5050505050565b34600154016001557f2da466a7b24304f47e87fa2e1e5a81b9831ce54fec19055ce277ca2f39ba42c46104c03390565b604080516001600160a01b0390921682523460208301520160405180910390a1565b6104ea610522565b6001600160a01b03811661051957604051631e4fbdf760e01b8152600060048201526024015b60405180910390fd5b61030381610759565b336105547f9016d09d72d40fdae2fd8ceac6b6234c7706214fd39c1cd1e609a0528c199300546001600160a01b031690565b6001600160a01b0316146103665760405163118cdaa760e01b8152336004820152602401610510565b306001600160a01b037f000000000000000000000000000000000000000000000000000000000000000016148061061657507f00000000000000000000000000000000000000000000000000000000000000006001600160a01b031661060a7f360894a13ba1a3210667c828492db98dca3e2076cc3735a920a3ca505d382bbc546001600160a01b031690565b6001600160a01b031614155b156103665760405163703e46dd60e11b815260040160405180910390fd5b610303610522565b816001600160a01b03166352d1902d6040518163ffffffff1660e01b8152600401602060405180830381865afa925050508015610696575060408051601f3d908101601f1916820190925261069391810190610bb4565b60015b6106be57604051634c9c8ce360e01b81526001600160a01b0383166004820152602401610510565b7f360894a13ba1a3210667c828492db98dca3e2076cc3735a920a3ca505d382bbc811461070157604051632a87526960e21b815260048101829052602401610510565b61070b83836107e8565b505050565b306001600160a01b037f000000000000000000000000000000000000000000000000000000000000000016146103665760405163703e46dd60e11b815260040160405180910390fd5b7f9016d09d72d40fdae2fd8ceac6b6234c7706214fd39c1cd1e609a0528c199300805473ffffffffffffffffffffffffffffffffffffffff1981166001600160a01b03848116918217845560405192169182907f8be0079c531659141344cd1fd0a4f28419497f9722a3daafe3b4186f6b6457e090600090a3505050565b6107df61083e565b6103038161088c565b6107f182610894565b6040516001600160a01b038316907fbc7cd75a20ee27fd9adebab32041f755214dbc6bffa90cc0225b39da2e5c2d3b90600090a28051156108365761070b8282610918565b61032161098e565b7ff0c57e16840df040f15088dc2f81fe391c3923bec73e23a9662efc9c229c6a005468010000000000000000900460ff1661036657604051631afcd79f60e31b815260040160405180910390fd5b6104ea61083e565b806001600160a01b03163b6000036108ca57604051634c9c8ce360e01b81526001600160a01b0382166004820152602401610510565b7f360894a13ba1a3210667c828492db98dca3e2076cc3735a920a3ca505d382bbc805473ffffffffffffffffffffffffffffffffffffffff19166001600160a01b0392909216919091179055565b6060600080846001600160a01b0316846040516109359190610bcd565b600060405180830381855af49150503d8060008114610970576040519150601f19603f3d011682016040523d82523d6000602084013e610975565b606091505b50915091506109858583836109ad565b95945050505050565b34156103665760405163b398979f60e01b815260040160405180910390fd5b6060826109c2576109bd82610a0c565b610a05565b81511580156109d957506001600160a01b0384163b155b15610a0257604051639996b31560e01b81526001600160a01b0385166004820152602401610510565b50805b9392505050565b805115610a1c5780518082602001fd5b604051630a12f52160e11b815260040160405180910390fd5b600060208284031215610a4757600080fd5b5035919050565b80356001600160a01b0381168114610a6557600080fd5b919050565b600060208284031215610a7c57600080fd5b610a0582610a4e565b634e487b7160e01b600052604160045260246000fd5b60008060408385031215610aae57600080fd5b610ab783610a4e565b9150602083013567ffffffffffffffff80821115610ad457600080fd5b818501915085601f830112610ae857600080fd5b813581811115610afa57610afa610a85565b604051601f8201601f19908116603f01168101908382118183101715610b2257610b22610a85565b81604052828152886020848701011115610b3b57600080fd5b8260208601602083013760006020848301015280955050505050509250929050565b60005b83811015610b78578181015183820152602001610b60565b50506000910152565b6020815260008251806020840152610ba0816040850160208701610b5d565b601f01601f19169190910160400192915050565b600060208284031215610bc657600080fd5b5051919050565b60008251610bdf818460208701610b5d565b919091019291505056fea26469706673582212204646376324aa200e23c95e058ffd308e1e22b38c6adf94f98a99f84856bd1f1564736f6c63430008140033",
  "linkReferences": {},
  "deployedLinkReferences": {}
}