{
  "_format": "hh-sol-artifact-1",
  "contractName": "ControlStructures",
  "sourceName": "contracts/solidity/control/ControlStructures.sol",
  "abi": [
    {
      "inputs": [],
      "stateMutability": "nonpayable",
      "type": "constructor"
    },
    {
      "inputs": [
        {
          "internalType": "uint256",
          "name": "total",
          "type": "uint256"
        },
        {
          "internalType": "uint256",
          "name": "interception",
          "type": "uint256"
        }
      ],
      "name": "evaluateBreak",
      "outputs": [
        {
          "internalType": "uint256",
          "name": "",
          "type": "uint256"
        }
      ],
      "stateMutability": "pure",
      "type": "function"
    },
    {
      "inputs": [
        {
          "internalType": "uint256",
          "name": "total",
          "type": "uint256"
        },
        {
          "internalType": "uint256",
          "name": "interception",
          "type": "uint256"
        }
      ],
      "name": "evaluateContinue",
      "outputs": [
        {
          "internalType": "uint256",
          "name": "",
          "type": "uint256"
        }
      ],
      "stateMutability": "pure",
      "type": "function"
    },
    {
      "inputs": [
        {
          "internalType": "uint256",
          "name": "total",
          "type": "uint256"
        }
      ],
      "name": "evaluateDoWhile",
      "outputs": [
        {
          "internalType": "uint256",
          "name": "",
          "type": "uint256"
        }
      ],
      "stateMutability": "pure",
      "type": "function"
    },
    {
      "inputs": [
        {
          "internalType": "uint256",
          "name": "total",
          "type": "uint256"
        }
      ],
      "name": "evaluateFor",
      "outputs": [
        {
          "internalType": "uint256",
          "name": "",
          "type": "uint256"
        }
      ],
      "stateMutability": "pure",
      "type": "function"
    },
    {
      "inputs": [
        {
          "internalType": "bool",
          "name": "condition",
          "type": "bool"
        }
      ],
      "name": "evaluateIfElse",
      "outputs": [
        {
          "internalType": "bool",
          "name": "",
          "type": "bool"
        }
      ],
      "stateMutability": "pure",
      "type": "function"
    },
    {
      "inputs": [
        {
          "internalType": "uint256",
          "name": "condition",
          "type": "uint256"
        }
      ],
      "name": "evaluateTryCatch",
      "outputs": [
        {
          "internalType": "bool",
          "name": "",
          "type": "bool"
        }
      ],
      "stateMutability": "view",
      "type": "function"
    },
    {
      "inputs": [
        {
          "internalType": "uint256",
          "name": "total",
          "type": "uint256"
        }
      ],
      "name": "evaluateWhile",
      "outputs": [
        {
          "internalType": "uint256",
          "name": "",
          "type": "uint256"
        }
      ],
      "stateMutability": "pure",
      "type": "function"
    }
  ],
  "bytecode": "0x608060405234801561001057600080fd5b5060405161001d9061005f565b604051809103906000f080158015610039573d6000803e3d6000fd5b50600080546001600160a01b0319166001600160a01b039290921691909117905561006c565b6101a58061059b83390190565b6105208061007b6000396000f3fe608060405234801561001057600080fd5b506004361061007d5760003560e01c80637c833d3a1161005b5780637c833d3a146100de578063b45694dc146100f1578063c6efc9be14610104578063fdf3a4091461011757600080fd5b80634a8fbaa7146100825780635a7fc2fb146100a857806364f0ac05146100cb575b600080fd5b610095610090366004610342565b61012a565b6040519081526020015b60405180910390f35b6100bb6100b6366004610364565b61017a565b604051901515815260200161009f565b6100bb6100d9366004610386565b610192565b6100956100ec366004610386565b61021f565b6100956100ff366004610386565b610269565b610095610112366004610386565b6102a6565b610095610125366004610342565b6102e5565b6000606483106101555760405162461bcd60e51b815260040161014c9061039f565b60405180910390fd5b60005b8381610163816103e3565b9250101561017357808303610158575b9392505050565b6000811561018a57506001919050565b506000919050565b6000805460405163a9bf563360e01b81526004810184905273ffffffffffffffffffffffffffffffffffffffff9091169063a9bf563390602401600060405180830381865afa92505050801561020a57506040513d6000823e601f3d908101601f191682016040526102079190810190610420565b60015b61021657506000919050565b50600192915050565b6000606482106102415760405162461bcd60e51b815260040161014c9061039f565b6000805b83811015610262579050808061025a816103e3565b915050610245565b5092915050565b60006064821061028b5760405162461bcd60e51b815260040161014c9061039f565b60005b82610298826103e3565b9150811061028e5792915050565b6000606482106102c85760405162461bcd60e51b815260040161014c9061039f565b60005b806102d5816103e3565b9150508281106102cb5792915050565b6000606483106103075760405162461bcd60e51b815260040161014c9061039f565b6000805b8481101561033a578084106103285781610324816103e3565b9250505b80610332816103e3565b91505061030b565b509392505050565b6000806040838503121561035557600080fd5b50508035926020909101359150565b60006020828403121561037657600080fd5b8135801515811461017357600080fd5b60006020828403121561039857600080fd5b5035919050565b60208082526024908201527f43616e6e6f742068617665206d6f7265207468616e2031303020697465726174604082015263696f6e7360e01b606082015260800190565b60006001820161040357634e487b7160e01b600052601160045260246000fd5b5060010190565b634e487b7160e01b600052604160045260246000fd5b6000602080838503121561043357600080fd5b825167ffffffffffffffff8082111561044b57600080fd5b818501915085601f83011261045f57600080fd5b8151818111156104715761047161040a565b604051601f8201601f19908116603f011681019083821181831017156104995761049961040a565b8160405282815288868487010111156104b157600080fd5b600093505b828410156104d357848401860151818501870152928501926104b6565b60008684830101528096505050505050509291505056fea26469706673582212208145d6a0c48650b01e3fb31ab83a174895ee476cbbfa0b84a0f80afad3e9816f64736f6c63430008140033608060405234801561001057600080fd5b50610185806100206000396000f3fe608060405234801561001057600080fd5b506004361061002b5760003560e01c8063a9bf563314610030575b600080fd5b61004361003e3660046100e8565b610059565b6040516100509190610101565b60405180910390f35b6060816000036100af5760405162461bcd60e51b815260206004820152600e60248201527f72657175697265206661696c6564000000000000000000000000000000000000604482015260640160405180910390fd5b505060408051808201909152601281527f6d792066756e63207761732063616c6c65640000000000000000000000000000602082015290565b6000602082840312156100fa57600080fd5b5035919050565b600060208083528351808285015260005b8181101561012e57858101830151858201604001528201610112565b506000604082860101526040601f19601f830116850101925050509291505056fea26469706673582212206a18f7cc1dfc32b2195c257afe64cd040e5305f51e4d2958957a7d30053e37f264736f6c63430008140033",
  "linkReferences": {},
  "deployedLinkReferences": {}
}