{
  "_format": "hh-sol-artifact-1",
  "contractName": "TestTryCatchContract",
  "sourceName": "contracts/solidity/control/ControlStructures.sol",
  "abi": [
    {
      "inputs": [
        {
          "internalType": "uint256",
          "name": "x",
          "type": "uint256"
        }
      ],
      "name": "myFunc",
      "outputs": [
        {
          "internalType": "string",
          "name": "",
          "type": "string"
        }
      ],
      "stateMutability": "pure",
      "type": "function"
    }
  ],
  "bytecode": "0x608060405234801561001057600080fd5b50610185806100206000396000f3fe608060405234801561001057600080fd5b506004361061002b5760003560e01c8063a9bf563314610030575b600080fd5b61004361003e3660046100e8565b610059565b6040516100509190610101565b60405180910390f35b6060816000036100af5760405162461bcd60e51b815260206004820152600e60248201527f72657175697265206661696c6564000000000000000000000000000000000000604482015260640160405180910390fd5b505060408051808201909152601281527f6d792066756e63207761732063616c6c65640000000000000000000000000000602082015290565b6000602082840312156100fa57600080fd5b5035919050565b600060208083528351808285015260005b8181101561012e57858101830151858201604001528201610112565b506000604082860101526040601f19601f830116850101925050509291505056fea26469706673582212206a18f7cc1dfc32b2195c257afe64cd040e5305f51e4d2958957a7d30053e37f264736f6c63430008140033",
  "linkReferences": {},
  "deployedLinkReferences": {}
}