{
  "_format": "hh-sol-artifact-1",
  "contractName": "ErrorsExternal",
  "sourceName": "contracts/solidity/errors/ErrorsExternal.sol",
  "abi": [
    {
      "inputs": [
        {
          "internalType": "uint256",
          "name": "available",
          "type": "uint256"
        },
        {
          "internalType": "uint256",
          "name": "required",
          "type": "uint256"
        }
      ],
      "name": "InsufficientBalance",
      "type": "error"
    },
    {
      "inputs": [],
      "name": "panic",
      "outputs": [
        {
          "internalType": "uint256",
          "name": "",
          "type": "uint256"
        }
      ],
      "stateMutability": "pure",
      "type": "function"
    },
    {
      "inputs": [],
      "name": "revertSimple",
      "outputs": [
        {
          "internalType": "bool",
          "name": "",
          "type": "bool"
        }
      ],
      "stateMutability": "pure",
      "type": "function"
    },
    {
      "inputs": [],
      "name": "revertWithCustomError",
      "outputs": [
        {
          "internalType": "bool",
          "name": "",
          "type": "bool"
        }
      ],
      "stateMutability": "pure",
      "type": "function"
    },
    {
      "inputs": [
        {
          "internalType": "string",
          "name": "message",
          "type": "string"
        }
      ],
      "name": "revertWithErrorMessage",
      "outputs": [
        {
          "internalType": "bool",
          "name": "",
          "type": "bool"
        }
      ],
      "stateMutability": "pure",
      "type": "function"
    }
  ],
  "bytecode": "0x608060405234801561001057600080fd5b5061026a806100206000396000f3fe608060405234801561001057600080fd5b506004361061004c5760003560e01c80631b2fc43e1461005157806346fc4bb1146100795780634700d30514610081578063e3fdf09c14610097575b600080fd5b61006461005f366004610112565b61009f565b60405190151581526020015b60405180910390f35b6100646100c4565b6100896100ea565b604051908152602001610070565b610064600080fd5b60008160405162461bcd60e51b81526004016100bb91906101c3565b60405180910390fd5b60405163cf47918160e01b815260016004820152606460248201526000906044016100bb565b60006100f7816004610212565b905090565b634e487b7160e01b600052604160045260246000fd5b60006020828403121561012457600080fd5b813567ffffffffffffffff8082111561013c57600080fd5b818401915084601f83011261015057600080fd5b813581811115610162576101626100fc565b604051601f8201601f19908116603f0116810190838211818310171561018a5761018a6100fc565b816040528281528760208487010111156101a357600080fd5b826020860160208301376000928101602001929092525095945050505050565b60006020808352835180602085015260005b818110156101f1578581018301518582016040015282016101d5565b506000604082860101526040601f19601f8301168501019250505092915050565b60008261022f57634e487b7160e01b600052601260045260246000fd5b50049056fea2646970667358221220be8f20e94f7c7df47323a55330715d56803bbacc0e204e8ba29c13a89ad90cf364736f6c63430008170033",
  "linkReferences": {},
  "deployedLinkReferences": {}
}