{
  "_format": "hh-sol-artifact-1",
  "contractName": "AccessControlContract",
  "sourceName": "contracts/openzeppelin/access-control/AccessControlContract.sol",
  "abi": [
    {
      "inputs": [],
      "stateMutability": "nonpayable",
      "type": "constructor"
    },
    {
      "inputs": [],
      "name": "AccessControlBadConfirmation",
      "type": "error"
    },
    {
      "inputs": [
        {
          "internalType": "address",
          "name": "account",
          "type": "address"
        },
        {
          "internalType": "bytes32",
          "name": "neededRole",
          "type": "bytes32"
        }
      ],
      "name": "AccessControlUnauthorizedAccount",
      "type": "error"
    },
    {
      "anonymous": false,
      "inputs": [
        {
          "indexed": true,
          "internalType": "bytes32",
          "name": "role",
          "type": "bytes32"
        },
        {
          "indexed": true,
          "internalType": "bytes32",
          "name": "previousAdminRole",
          "type": "bytes32"
        },
        {
          "indexed": true,
          "internalType": "bytes32",
          "name": "newAdminRole",
          "type": "bytes32"
        }
      ],
      "name": "RoleAdminChanged",
      "type": "event"
    },
    {
      "anonymous": false,
      "inputs": [
        {
          "indexed": true,
          "internalType": "bytes32",
          "name": "role",
          "type": "bytes32"
        },
        {
          "indexed": true,
          "internalType": "address",
          "name": "account",
          "type": "address"
        },
        {
          "indexed": true,
          "internalType": "address",
          "name": "sender",
          "type": "address"
        }
      ],
      "name": "RoleGranted",
      "type": "event"
    },
    {
      "anonymous": false,
      "inputs": [
        {
          "indexed": true,
          "internalType": "bytes32",
          "name": "role",
          "type": "bytes32"
        },
        {
          "indexed": true,
          "internalType": "address",
          "name": "account",
          "type": "address"
        },
        {
          "indexed": true,
          "internalType": "address",
          "name": "sender",
          "type": "address"
        }
      ],
      "name": "RoleRevoked",
      "type": "event"
    },
    {
      "inputs": [],
      "name": "ADMIN_ROLE",
      "outputs": [
        {
          "internalType": "bytes32",
          "name": "",
          "type": "bytes32"
        }
      ],
      "stateMutability": "view",
      "type": "function"
    },
    {
      "inputs": [],
      "name": "DEFAULT_ADMIN_ROLE",
      "outputs": [
        {
          "internalType": "bytes32",
          "name": "",
          "type": "bytes32"
        }
      ],
      "stateMutability": "view",
      "type": "function"
    },
    {
      "inputs": [],
      "name": "MANAGER_ROLE",
      "outputs": [
        {
          "internalType": "bytes32",
          "name": "",
          "type": "bytes32"
        }
      ],
      "stateMutability": "view",
      "type": "function"
    },
    {
      "inputs": [],
      "name": "adminFunction",
      "outputs": [
        {
          "internalType": "string",
          "name": "",
          "type": "string"
        }
      ],
      "stateMutability": "view",
      "type": "function"
    },
    {
      "inputs": [
        {
          "internalType": "bytes32",
          "name": "role",
          "type": "bytes32"
        }
      ],
      "name": "getRoleAdmin",
      "outputs": [
        {
          "internalType": "bytes32",
          "name": "",
          "type": "bytes32"
        }
      ],
      "stateMutability": "view",
      "type": "function"
    },
    {
      "inputs": [
        {
          "internalType": "address",
          "name": "account",
          "type": "address"
        }
      ],
      "name": "grantManagerRole",
      "outputs": [],
      "stateMutability": "nonpayable",
      "type": "function"
    },
    {
      "inputs": [
        {
          "internalType": "bytes32",
          "name": "role",
          "type": "bytes32"
        },
        {
          "internalType": "address",
          "name": "account",
          "type": "address"
        }
      ],
      "name": "grantRole",
      "outputs": [],
      "stateMutability": "nonpayable",
      "type": "function"
    },
    {
      "inputs": [
        {
          "internalType": "bytes32",
          "name": "role",
          "type": "bytes32"
        },
        {
          "internalType": "address",
          "name": "account",
          "type": "address"
        }
      ],
      "name": "hasRole",
      "outputs": [
        {
          "internalType": "bool",
          "name": "",
          "type": "bool"
        }
      ],
      "stateMutability": "view",
      "type": "function"
    },
    {
      "inputs": [],
      "name": "managerFunction",
      "outputs": [
        {
          "internalType": "string",
          "name": "",
          "type": "string"
        }
      ],
      "stateMutability": "view",
      "type": "function"
    },
    {
      "inputs": [
        {
          "internalType": "bytes32",
          "name": "role",
          "type": "bytes32"
        },
        {
          "internalType": "address",
          "name": "callerConfirmation",
          "type": "address"
        }
      ],
      "name": "renounceRole",
      "outputs": [],
      "stateMutability": "nonpayable",
      "type": "function"
    },
    {
      "inputs": [
        {
          "internalType": "bytes32",
          "name": "role",
          "type": "bytes32"
        },
        {
          "internalType": "address",
          "name": "account",
          "type": "address"
        }
      ],
      "name": "revokeRole",
      "outputs": [],
      "stateMutability": "nonpayable",
      "type": "function"
    },
    {
      "inputs": [
        {
          "internalType": "bytes4",
          "name": "interfaceId",
          "type": "bytes4"
        }
      ],
      "name": "supportsInterface",
      "outputs": [
        {
          "internalType": "bool",
          "name": "",
          "type": "bool"
        }
      ],
      "stateMutability": "view",
      "type": "function"
    }
  ],
  "bytecode": "0x608060405234801561001057600080fd5b5061003b7fa49807205ce4d355092ef5a8a18f56e8913cf4a201fbe287825b095693c2177533610041565b506100ed565b6000828152602081815260408083206001600160a01b038516845290915281205460ff166100e3576000838152602081815260408083206001600160a01b03861684529091529020805460ff1916600117905561009b3390565b6001600160a01b0316826001600160a01b0316847f2f8788117e7eff1d82e926ec794901d17c78024a50270940304540a733656f0d60405160405180910390a45060016100e7565b5060005b92915050565b6106f8806100fc6000396000f3fe608060405234801561001057600080fd5b50600436106100d45760003560e01c806375b238fc11610081578063d547741f1161005b578063d547741f146101e8578063ec87621c146101fb578063fca401231461022257600080fd5b806375b238fc1461018257806391d14854146101a9578063a217fddf146101e057600080fd5b80632f2ff15d116100b25780632f2ff15d1461014757806336568abe1461015a57806372ed99871461016d57600080fd5b806301ffc9a7146100d9578063248a9ca31461010157806326e885e314610132575b600080fd5b6100ec6100e7366004610568565b61022a565b60405190151581526020015b60405180910390f35b61012461010f366004610599565b60009081526020819052604090206001015490565b6040519081526020016100f8565b6101456101403660046105ce565b610261565b005b6101456101553660046105e9565b6102ba565b6101456101683660046105e9565b6102e5565b610175610318565b6040516100f89190610615565b6101247fa49807205ce4d355092ef5a8a18f56e8913cf4a201fbe287825b095693c2177581565b6100ec6101b73660046105e9565b6000918252602082815260408084206001600160a01b0393909316845291905290205460ff1690565b610124600081565b6101456101f63660046105e9565b610363565b6101247f241ecf16d79d0f8dbfb92cbc07fe17840425976cf0667f022fe9877caa831b0881565b610175610388565b60006001600160e01b03198216637965db0b60e01b148061025b57506301ffc9a760e01b6001600160e01b03198316145b92915050565b7fa49807205ce4d355092ef5a8a18f56e8913cf4a201fbe287825b095693c2177561028b816103d3565b6102b57f241ecf16d79d0f8dbfb92cbc07fe17840425976cf0667f022fe9877caa831b08836103e0565b505050565b6000828152602081905260409020600101546102d5816103d3565b6102df83836103e0565b50505050565b6001600160a01b038116331461030e5760405163334bd91960e11b815260040160405180910390fd5b6102b5828261048a565b60607fa49807205ce4d355092ef5a8a18f56e8913cf4a201fbe287825b095693c21775610344816103d3565b6040518060600160405280603281526020016106656032913991505090565b60008281526020819052604090206001015461037e816103d3565b6102df838361048a565b60607f241ecf16d79d0f8dbfb92cbc07fe17840425976cf0667f022fe9877caa831b086103b4816103d3565b6040518060600160405280602c8152602001610697602c913991505090565b6103dd813361050d565b50565b6000828152602081815260408083206001600160a01b038516845290915281205460ff16610482576000838152602081815260408083206001600160a01b03861684529091529020805460ff1916600117905561043a3390565b6001600160a01b0316826001600160a01b0316847f2f8788117e7eff1d82e926ec794901d17c78024a50270940304540a733656f0d60405160405180910390a450600161025b565b50600061025b565b6000828152602081815260408083206001600160a01b038516845290915281205460ff1615610482576000838152602081815260408083206001600160a01b0386168085529252808320805460ff1916905551339286917ff6391f5c32d9c69d2a47ea670b442974b53935d1edc7fd64eb21e047a839171b9190a450600161025b565b6000828152602081815260408083206001600160a01b038516845290915290205460ff166105645760405163e2517d3f60e01b81526001600160a01b03821660048201526024810183905260440160405180910390fd5b5050565b60006020828403121561057a57600080fd5b81356001600160e01b03198116811461059257600080fd5b9392505050565b6000602082840312156105ab57600080fd5b5035919050565b80356001600160a01b03811681146105c957600080fd5b919050565b6000602082840312156105e057600080fd5b610592826105b2565b600080604083850312156105fc57600080fd5b8235915061060c602084016105b2565b90509250929050565b60006020808352835180602085015260005b8181101561064357858101830151858201604001528201610627565b506000604082860101526040601f19601f830116850101925050509291505056fe546869732066756e6374696f6e2063616e206f6e6c792062652063616c6c65642062792061646d696e6973747261746f7273546869732066756e6374696f6e2063616e206f6e6c792062652063616c6c6564206279206d616e6167657273a2646970667358221220acc221eeafdc52c8098f38f70113eefbebcaa07899db0966f281b9a97900069964736f6c63430008170033",
  "linkReferences": {},
  "deployedLinkReferences": {}
}