{
  "_format": "hh-sol-artifact-1",
  "contractName": "CryptoOwner",
  "sourceName": "contracts/hts-precompile/examples/crypto-allowance/cryptoOwner.sol",
  "abi": [
    {
      "anonymous": false,
      "inputs": [
        {
          "indexed": false,
          "internalType": "int256",
          "name": "responseCode",
          "type": "int256"
        }
      ],
      "name": "ResponseCode",
      "type": "event"
    },
    {
      "inputs": [
        {
          "internalType": "address",
          "name": "_cryptoAllowance",
          "type": "address"
        },
        {
          "internalType": "int64",
          "name": "amount",
          "type": "int64"
        },
        {
          "internalType": "address",
          "name": "receiver",
          "type": "address"
        }
      ],
      "name": "cryptoTransfer",
      "outputs": [
        {
          "internalType": "int64",
          "name": "responseCode",
          "type": "int64"
        }
      ],
      "stateMutability": "nonpayable",
      "type": "function"
    },
    {
      "stateMutability": "payable",
      "type": "receive"
    }
  ],
  "bytecode": "0x608060405234801561001057600080fd5b5061070e806100206000396000f3fe6080604052600436106100225760003560e01c80632a4500161461002e57600080fd5b3661002957005b600080fd5b34801561003a57600080fd5b5061004e610049366004610474565b610065565b60405160079190910b815260200160405180910390f35b60004767ffffffffffffffff84168110156100c65760405162461bcd60e51b815260206004820152601160248201527f496e73756666696369656e742046756e64000000000000000000000000000000604482015260640160405180910390fd5b60006100d630878760070b61036d565b9050600781900b6016146100e957600080fd5b60408051600280825260608201909252600091816020015b604080516060810182526000808252602080830182905292820152825260001990920191018161010157505060408051606081019091523081529091506020810161014e886000196104b9565b60070b81526020016000151581525081600081518110610170576101706104ee565b60200260200101819052506040518060600160405280866001600160a01b031681526020018760070b815260200160001515815250816001815181106101b8576101b86104ee565b60209081029190910181019190915260408051808301825283815281516000808252938101909252919081610228565b610215604051806060016040528060006001600160a01b0316815260200160608152602001606081525090565b8152602001906001900390816101e85790505b5090506000808a6001600160a01b031663970e23d260e01b8585604051602401610253929190610564565b60408051601f198184030181529181526020820180516001600160e01b03167fffffffff000000000000000000000000000000000000000000000000000000009094169390931790925290516102a99190610662565b6000604051808303816000865af19150503d80600081146102e6576040519150601f19603f3d011682016040523d82523d6000602084013e6102eb565b606091505b50909250905060018215151461030057600080fd5b808060200190518101906103149190610691565b604051600782900b81529098507f90a5cf4cffe88b4edbb041cfc7a8a812c48a5ec30b84640fb37690875168e3aa9060200160405180910390a1600788900b60161461035f57600080fd5b505050505050509392505050565b604080516001600160a01b03858116602483015284166044820152606480820184905282518083039091018152608490910182526020810180516001600160e01b0316632824611960e21b17905290516000918291829161016a916103d29190610662565b6000604051808303816000865af19150503d806000811461040f576040519150601f19603f3d011682016040523d82523d6000602084013e610414565b606091505b509150915081610425576015610439565b8080602001905181019061043991906106b5565b60030b9695505050505050565b80356001600160a01b038116811461045d57600080fd5b919050565b8060070b811461047157600080fd5b50565b60008060006060848603121561048957600080fd5b61049284610446565b925060208401356104a281610462565b91506104b060408501610446565b90509250925092565b60008260070b8260070b028060070b91508082146104e757634e487b7160e01b600052601160045260246000fd5b5092915050565b634e487b7160e01b600052603260045260246000fd5b60008151808452602080850194506020840160005b8381101561055957815180516001600160a01b031688528381015160070b8489015260409081015115159088015260609096019590820190600101610519565b509495945050505050565b6000604080835260608551602080848701526105836060870183610504565b9150858203818701528187518084528284019150828160051b850101838a0160005b8381101561065157601f1987840301855281516001600160a01b03808251168552878201518a898701526105db8b870182610504565b928c0151868403878e01528051808552908a0193600092508a01905b8083101561063b5784518051851683528b81015185168c8401528e81015160070b8f8401528d015115158d830152938a0193600192909201916080909101906105f7565b50978901979550505091860191506001016105a5565b50909b9a5050505050505050505050565b6000825160005b818110156106835760208186018101518583015201610669565b506000920191825250919050565b6000602082840312156106a357600080fd5b81516106ae81610462565b9392505050565b6000602082840312156106c757600080fd5b81518060030b81146106ae57600080fdfea2646970667358221220460c07d27b63054f7d2651bb5908f351de8984326186299dfed772532532e41264736f6c63430008170033",
  "linkReferences": {},
  "deployedLinkReferences": {}
}