{
  "_format": "hh-sol-artifact-1",
  "contractName": "Counter",
  "sourceName": "contracts/proxy-upgrade/counter/Counter.sol",
  "abi": [
    {
      "anonymous": false,
      "inputs": [
        {
          "indexed": false,
          "internalType": "address",
          "name": "previousAdmin",
          "type": "address"
        },
        {
          "indexed": false,
          "internalType": "address",
          "name": "newAdmin",
          "type": "address"
        }
      ],
      "name": "AdminChanged",
      "type": "event"
    },
    {
      "anonymous": false,
      "inputs": [
        {
          "indexed": true,
          "internalType": "address",
          "name": "beacon",
          "type": "address"
        }
      ],
      "name": "BeaconUpgraded",
      "type": "event"
    },
    {
      "anonymous": false,
      "inputs": [
        {
          "indexed": false,
          "internalType": "uint8",
          "name": "version",
          "type": "uint8"
        }
      ],
      "name": "Initialized",
      "type": "event"
    },
    {
      "anonymous": false,
      "inputs": [
        {
          "indexed": true,
          "internalType": "address",
          "name": "previousOwner",
          "type": "address"
        },
        {
          "indexed": true,
          "internalType": "address",
          "name": "newOwner",
          "type": "address"
        }
      ],
      "name": "OwnershipTransferred",
      "type": "event"
    },
    {
      "anonymous": false,
      "inputs": [
        {
          "indexed": true,
          "internalType": "address",
          "name": "implementation",
          "type": "address"
        }
      ],
      "name": "Upgraded",
      "type": "event"
    },
    {
      "inputs": [],
      "name": "count",
      "outputs": [
        {
          "internalType": "int256",
          "name": "",
          "type": "int256"
        }
      ],
      "stateMutability": "view",
      "type": "function"
    },
    {
      "inputs": [],
      "name": "decrement",
      "outputs": [
        {
          "internalType": "int256",
          "name": "",
          "type": "int256"
        }
      ],
      "stateMutability": "nonpayable",
      "type": "function"
    },
    {
      "inputs": [],
      "name": "increment",
      "outputs": [
        {
          "internalType": "int256",
          "name": "",
          "type": "int256"
        }
      ],
      "stateMutability": "nonpayable",
      "type": "function"
    },
    {
      "inputs": [
        {
          "internalType": "string",
          "name": "_name",
          "type": "string"
        }
      ],
      "name": "initialize",
      "outputs": [],
      "stateMutability": "nonpayable",
      "type": "function"
    },
    {
      "inputs": [],
      "name": "name",
      "outputs": [
        {
          "internalType": "string",
          "name": "",
          "type": "string"
        }
      ],
      "stateMutability": "view",
      "type": "function"
    },
    {
      "inputs": [],
      "name": "owner",
      "outputs": [
        {
          "internalType": "address",
          "name": "",
          "type": "address"
        }
      ],
      "stateMutability": "view",
      "type": "function"
    },
    {
      "inputs": [],
      "name": "proxiableUUID",
      "outputs": [
        {
          "internalType": "bytes32",
          "name": "",
          "type": "bytes32"
        }
      ],
      "stateMutability": "view",
      "type": "function"
    },
    {
      "inputs": [],
      "name": "renounceOwnership",
      "outputs": [],
      "stateMutability": "nonpayable",
      "type": "function"
    },
    {
      "inputs": [
        {
          "internalType": "address",
          "name": "newOwner",
          "type": "address"
        }
      ],
      "name": "transferOwnership",
      "outputs": [],
      "stateMutability": "nonpayable",
      "type": "function"
    },
    {
      "inputs": [
        {
          "internalType": "address",
          "name": "newImplementation",
          "type": "address"
        }
      ],
      "name": "upgradeTo",
      "outputs": [],
      "stateMutability": "nonpayable",
      "type": "function"
    },
    {
      "inputs": [
        {
          "internalType": "address",
          "name": "newImplementation",
          "type": "address"
        },
        {
          "internalType": "bytes",
          "name": "data",
          "type": "bytes"
        }
      ],
      "name": "upgradeToAndCall",
      "outputs": [],
      "stateMutability": "payable",
      "type": "function"
    }
  ],
  "bytecode": "0x60a060405230608052348015610013575f80fd5b506080516111836100485f395f81816102920152818161031c0152818161041101528181610496015261057f01526111835ff3fe6080604052600436106100a9575f3560e01c806352d1902d11610071578063d09de08a1161004c578063d09de08a1461018d578063f2fde38b146101a1578063f62d1888146101c0575f80fd5b806352d1902d1461013e578063715018a6146101525780638da5cb5b14610166575f80fd5b806306661abd146100ad57806306fdde03146100d55780632baeceb7146100f65780633659cfe61461010a5780634f1ef2861461012b575b5f80fd5b3480156100b8575f80fd5b506100c260ca5481565b6040519081526020015b60405180910390f35b3480156100e0575f80fd5b506100e96101df565b6040516100cc9190610dbd565b348015610101575f80fd5b506100c261026b565b348015610115575f80fd5b50610129610124366004610e0a565b610288565b005b610129610139366004610eaa565b610407565b348015610149575f80fd5b506100c2610573565b34801561015d575f80fd5b50610129610637565b348015610171575f80fd5b506033546040516001600160a01b0390911681526020016100cc565b348015610198575f80fd5b506100c261064a565b3480156101ac575f80fd5b506101296101bb366004610e0a565b61065a565b3480156101cb575f80fd5b506101296101da366004610f08565b6106d0565b60c980546101ec90610f4d565b80601f016020809104026020016040519081016040528092919081815260200182805461021890610f4d565b80156102635780601f1061023a57610100808354040283529160200191610263565b820191905f5260205f20905b81548152906001019060200180831161024657829003601f168201915b505050505081565b60ca80545f918261027b83610f99565b919050555060ca54905090565b6001600160a01b037f000000000000000000000000000000000000000000000000000000000000000016300361031a5760405162461bcd60e51b815260206004820152602c60248201527f46756e6374696f6e206d7573742062652063616c6c6564207468726f7567682060448201526b19195b1959d85d1958d85b1b60a21b60648201526084015b60405180910390fd5b7f00000000000000000000000000000000000000000000000000000000000000006001600160a01b03166103757f360894a13ba1a3210667c828492db98dca3e2076cc3735a920a3ca505d382bbc546001600160a01b031690565b6001600160a01b0316146103e05760405162461bcd60e51b815260206004820152602c60248201527f46756e6374696f6e206d7573742062652063616c6c6564207468726f7567682060448201526b6163746976652070726f787960a01b6064820152608401610311565b6103e9816107f7565b604080515f80825260208201909252610404918391906107ff565b50565b6001600160a01b037f00000000000000000000000000000000000000000000000000000000000000001630036104945760405162461bcd60e51b815260206004820152602c60248201527f46756e6374696f6e206d7573742062652063616c6c6564207468726f7567682060448201526b19195b1959d85d1958d85b1b60a21b6064820152608401610311565b7f00000000000000000000000000000000000000000000000000000000000000006001600160a01b03166104ef7f360894a13ba1a3210667c828492db98dca3e2076cc3735a920a3ca505d382bbc546001600160a01b031690565b6001600160a01b03161461055a5760405162461bcd60e51b815260206004820152602c60248201527f46756e6374696f6e206d7573742062652063616c6c6564207468726f7567682060448201526b6163746976652070726f787960a01b6064820152608401610311565b610563826107f7565b61056f828260016107ff565b5050565b5f306001600160a01b037f000000000000000000000000000000000000000000000000000000000000000016146106125760405162461bcd60e51b815260206004820152603860248201527f555550535570677261646561626c653a206d757374206e6f742062652063616c60448201527f6c6564207468726f7567682064656c656761746563616c6c00000000000000006064820152608401610311565b507f360894a13ba1a3210667c828492db98dca3e2076cc3735a920a3ca505d382bbc90565b61063f610990565b6106485f6109ea565b565b60ca80545f918261027b83610fb4565b610662610990565b6001600160a01b0381166106c75760405162461bcd60e51b815260206004820152602660248201527f4f776e61626c653a206e6577206f776e657220697320746865207a65726f206160448201526564647265737360d01b6064820152608401610311565b610404816109ea565b5f54610100900460ff16158080156106ee57505f54600160ff909116105b806107075750303b15801561070757505f5460ff166001145b6107795760405162461bcd60e51b815260206004820152602e60248201527f496e697469616c697a61626c653a20636f6e747261637420697320616c72656160448201527f647920696e697469616c697a65640000000000000000000000000000000000006064820152608401610311565b5f805460ff19166001179055801561079a575f805461ff0019166101001790555b60c96107a68382611038565b506107af610a48565b801561056f575f805461ff0019169055604051600181527f7f26b83ff96e1f2b6a682f133852f6798a09c465da95921460cefb38474024989060200160405180910390a15050565b610404610990565b7f4910fdfa16fed3260ed0e7147f7cc6da11a60208b5b9406d12a635614ffd91435460ff16156108375761083283610aba565b505050565b826001600160a01b03166352d1902d6040518163ffffffff1660e01b8152600401602060405180830381865afa925050508015610891575060408051601f3d908101601f1916820190925261088e918101906110f4565b60015b6109035760405162461bcd60e51b815260206004820152602e60248201527f45524331393637557067726164653a206e657720696d706c656d656e7461746960448201527f6f6e206973206e6f7420555550530000000000000000000000000000000000006064820152608401610311565b7f360894a13ba1a3210667c828492db98dca3e2076cc3735a920a3ca505d382bbc81146109845760405162461bcd60e51b815260206004820152602960248201527f45524331393637557067726164653a20756e737570706f727465642070726f786044820152681a58589b195555525160ba1b6064820152608401610311565b50610832838383610b75565b6033546001600160a01b031633146106485760405162461bcd60e51b815260206004820181905260248201527f4f776e61626c653a2063616c6c6572206973206e6f7420746865206f776e65726044820152606401610311565b603380546001600160a01b0383811673ffffffffffffffffffffffffffffffffffffffff19831681179093556040519116919082907f8be0079c531659141344cd1fd0a4f28419497f9722a3daafe3b4186f6b6457e0905f90a35050565b5f54610100900460ff16610ab25760405162461bcd60e51b815260206004820152602b60248201527f496e697469616c697a61626c653a20636f6e7472616374206973206e6f74206960448201526a6e697469616c697a696e6760a81b6064820152608401610311565b610648610b9f565b6001600160a01b0381163b610b275760405162461bcd60e51b815260206004820152602d60248201527f455243313936373a206e657720696d706c656d656e746174696f6e206973206e60448201526c1bdd08184818dbdb9d1c9858dd609a1b6064820152608401610311565b7f360894a13ba1a3210667c828492db98dca3e2076cc3735a920a3ca505d382bbc805473ffffffffffffffffffffffffffffffffffffffff19166001600160a01b0392909216919091179055565b610b7e83610c12565b5f82511180610b8a5750805b1561083257610b998383610c51565b50505050565b5f54610100900460ff16610c095760405162461bcd60e51b815260206004820152602b60248201527f496e697469616c697a61626c653a20636f6e7472616374206973206e6f74206960448201526a6e697469616c697a696e6760a81b6064820152608401610311565b610648336109ea565b610c1b81610aba565b6040516001600160a01b038216907fbc7cd75a20ee27fd9adebab32041f755214dbc6bffa90cc0225b39da2e5c2d3b905f90a250565b6060610c76838360405180606001604052806027815260200161112760279139610c7d565b9392505050565b60605f80856001600160a01b031685604051610c99919061110b565b5f60405180830381855af49150503d805f8114610cd1576040519150601f19603f3d011682016040523d82523d5f602084013e610cd6565b606091505b5091509150610ce786838387610cf1565b9695505050505050565b60608315610d5f5782515f03610d58576001600160a01b0385163b610d585760405162461bcd60e51b815260206004820152601d60248201527f416464726573733a2063616c6c20746f206e6f6e2d636f6e74726163740000006044820152606401610311565b5081610d69565b610d698383610d71565b949350505050565b815115610d815781518083602001fd5b8060405162461bcd60e51b81526004016103119190610dbd565b5f5b83811015610db5578181015183820152602001610d9d565b50505f910152565b602081525f8251806020840152610ddb816040850160208701610d9b565b601f01601f19169190910160400192915050565b80356001600160a01b0381168114610e05575f80fd5b919050565b5f60208284031215610e1a575f80fd5b610c7682610def565b634e487b7160e01b5f52604160045260245ffd5b5f67ffffffffffffffff80841115610e5157610e51610e23565b604051601f8501601f19908116603f01168101908282118183101715610e7957610e79610e23565b81604052809350858152868686011115610e91575f80fd5b858560208301375f602087830101525050509392505050565b5f8060408385031215610ebb575f80fd5b610ec483610def565b9150602083013567ffffffffffffffff811115610edf575f80fd5b8301601f81018513610eef575f80fd5b610efe85823560208401610e37565b9150509250929050565b5f60208284031215610f18575f80fd5b813567ffffffffffffffff811115610f2e575f80fd5b8201601f81018413610f3e575f80fd5b610d6984823560208401610e37565b600181811c90821680610f6157607f821691505b602082108103610f7f57634e487b7160e01b5f52602260045260245ffd5b50919050565b634e487b7160e01b5f52601160045260245ffd5b5f600160ff1b8201610fad57610fad610f85565b505f190190565b5f7f7fffffffffffffffffffffffffffffffffffffffffffffffffffffffffffffff8203610fe457610fe4610f85565b5060010190565b601f821115610832575f81815260208120601f850160051c810160208610156110115750805b601f850160051c820191505b818110156110305782815560010161101d565b505050505050565b815167ffffffffffffffff81111561105257611052610e23565b611066816110608454610f4d565b84610feb565b602080601f831160018114611099575f84156110825750858301515b5f19600386901b1c1916600185901b178555611030565b5f85815260208120601f198616915b828110156110c7578886015182559484019460019091019084016110a8565b50858210156110e457878501515f19600388901b60f8161c191681555b5050505050600190811b01905550565b5f60208284031215611104575f80fd5b5051919050565b5f825161111c818460208701610d9b565b919091019291505056fe416464726573733a206c6f772d6c6576656c2064656c65676174652063616c6c206661696c6564a264697066735822122050fc8c94249258ab559e19a89889ca64294e297d4351ba0087e56c391f34ec9664736f6c63430008140033",
  "linkReferences": {},
  "deployedLinkReferences": {}
}