{
  "_format": "hh-sol-artifact-1",
  "contractName": "Counter",
  "sourceName": "contracts/proxy-upgrade/counter/Counter.sol",
  "abi": [
    {
      "anonymous": false,
      "inputs": [
        {
          "indexed": false,
          "internalType": "address",
          "name": "previousAdmin",
          "type": "address"
        },
        {
          "indexed": false,
          "internalType": "address",
          "name": "newAdmin",
          "type": "address"
        }
      ],
      "name": "AdminChanged",
      "type": "event"
    },
    {
      "anonymous": false,
      "inputs": [
        {
          "indexed": true,
          "internalType": "address",
          "name": "beacon",
          "type": "address"
        }
      ],
      "name": "BeaconUpgraded",
      "type": "event"
    },
    {
      "anonymous": false,
      "inputs": [
        {
          "indexed": false,
          "internalType": "uint8",
          "name": "version",
          "type": "uint8"
        }
      ],
      "name": "Initialized",
      "type": "event"
    },
    {
      "anonymous": false,
      "inputs": [
        {
          "indexed": true,
          "internalType": "address",
          "name": "previousOwner",
          "type": "address"
        },
        {
          "indexed": true,
          "internalType": "address",
          "name": "newOwner",
          "type": "address"
        }
      ],
      "name": "OwnershipTransferred",
      "type": "event"
    },
    {
      "anonymous": false,
      "inputs": [
        {
          "indexed": true,
          "internalType": "address",
          "name": "implementation",
          "type": "address"
        }
      ],
      "name": "Upgraded",
      "type": "event"
    },
    {
      "inputs": [],
      "name": "dec",
      "outputs": [
        {
          "internalType": "uint256",
          "name": "",
          "type": "uint256"
        }
      ],
      "stateMutability": "view",
      "type": "function"
    },
    {
      "inputs": [
        {
          "internalType": "uint256",
          "name": "x",
          "type": "uint256"
        }
      ],
      "name": "decrement",
      "outputs": [
        {
          "internalType": "uint256",
          "name": "",
          "type": "uint256"
        }
      ],
      "stateMutability": "nonpayable",
      "type": "function"
    },
    {
      "inputs": [],
      "name": "inc",
      "outputs": [
        {
          "internalType": "uint256",
          "name": "",
          "type": "uint256"
        }
      ],
      "stateMutability": "view",
      "type": "function"
    },
    {
      "inputs": [
        {
          "internalType": "uint256",
          "name": "x",
          "type": "uint256"
        }
      ],
      "name": "increment",
      "outputs": [
        {
          "internalType": "uint256",
          "name": "",
          "type": "uint256"
        }
      ],
      "stateMutability": "nonpayable",
      "type": "function"
    },
    {
      "inputs": [
        {
          "internalType": "string",
          "name": "_name",
          "type": "string"
        }
      ],
      "name": "initialize",
      "outputs": [],
      "stateMutability": "nonpayable",
      "type": "function"
    },
    {
      "inputs": [],
      "name": "name",
      "outputs": [
        {
          "internalType": "string",
          "name": "",
          "type": "string"
        }
      ],
      "stateMutability": "view",
      "type": "function"
    },
    {
      "inputs": [],
      "name": "owner",
      "outputs": [
        {
          "internalType": "address",
          "name": "",
          "type": "address"
        }
      ],
      "stateMutability": "view",
      "type": "function"
    },
    {
      "inputs": [],
      "name": "proxiableUUID",
      "outputs": [
        {
          "internalType": "bytes32",
          "name": "",
          "type": "bytes32"
        }
      ],
      "stateMutability": "view",
      "type": "function"
    },
    {
      "inputs": [],
      "name": "renounceOwnership",
      "outputs": [],
      "stateMutability": "nonpayable",
      "type": "function"
    },
    {
      "inputs": [
        {
          "internalType": "address",
          "name": "newOwner",
          "type": "address"
        }
      ],
      "name": "transferOwnership",
      "outputs": [],
      "stateMutability": "nonpayable",
      "type": "function"
    },
    {
      "inputs": [
        {
          "internalType": "address",
          "name": "newImplementation",
          "type": "address"
        }
      ],
      "name": "upgradeTo",
      "outputs": [],
      "stateMutability": "nonpayable",
      "type": "function"
    },
    {
      "inputs": [
        {
          "internalType": "address",
          "name": "newImplementation",
          "type": "address"
        },
        {
          "internalType": "bytes",
          "name": "data",
          "type": "bytes"
        }
      ],
      "name": "upgradeToAndCall",
      "outputs": [],
      "stateMutability": "payable",
      "type": "function"
    }
  ],
  "bytecode": "0x60a06040523060805234801561001457600080fd5b506080516111b461004c600039600081816102d10152818161035b0152818161046a015281816104ef01526105d901526111b46000f3fe6080604052600436106100c75760003560e01c8063715018a611610074578063b3bcfa821161004e578063b3bcfa82146101e2578063f2fde38b146101f8578063f62d18881461021857600080fd5b8063715018a6146101855780637cf5dab01461019a5780638da5cb5b146101ba57600080fd5b80633a9ebefd116100a55780633a9ebefd1461013d5780634f1ef2861461015d57806352d1902d1461017057600080fd5b806306fdde03146100cc5780633659cfe6146100f7578063371303c014610119575b600080fd5b3480156100d857600080fd5b506100e1610238565b6040516100ee9190610ee0565b60405180910390f35b34801561010357600080fd5b50610117610112366004610f2f565b6102c6565b005b34801561012557600080fd5b5061012f60cb5481565b6040519081526020016100ee565b34801561014957600080fd5b5061012f610158366004610f4a565b610447565b61011761016b366004610fef565b61045f565b34801561017c57600080fd5b5061012f6105cc565b34801561019157600080fd5b50610117610691565b3480156101a657600080fd5b5061012f6101b5366004610f4a565b6106a5565b3480156101c657600080fd5b506033546040516001600160a01b0390911681526020016100ee565b3480156101ee57600080fd5b5061012f60ca5481565b34801561020457600080fd5b50610117610213366004610f2f565b6106b2565b34801561022457600080fd5b50610117610233366004611051565b610728565b60c98054610245906110a2565b80601f0160208091040260200160405190810160405280929190818152602001828054610271906110a2565b80156102be5780601f10610293576101008083540402835291602001916102be565b820191906000526020600020905b8154815290600101906020018083116102a157829003601f168201915b505050505081565b306001600160a01b037f00000000000000000000000000000000000000000000000000000000000000001614156103595760405162461bcd60e51b815260206004820152602c60248201527f46756e6374696f6e206d7573742062652063616c6c6564207468726f7567682060448201526b19195b1959d85d1958d85b1b60a21b60648201526084015b60405180910390fd5b7f00000000000000000000000000000000000000000000000000000000000000006001600160a01b03166103b47f360894a13ba1a3210667c828492db98dca3e2076cc3735a920a3ca505d382bbc546001600160a01b031690565b6001600160a01b03161461041f5760405162461bcd60e51b815260206004820152602c60248201527f46756e6374696f6e206d7573742062652063616c6c6564207468726f7567682060448201526b6163746976652070726f787960a01b6064820152608401610350565b6104288161085c565b6040805160008082526020820190925261044491839190610864565b50565b6000610454826001610a04565b60ca81905592915050565b306001600160a01b037f00000000000000000000000000000000000000000000000000000000000000001614156104ed5760405162461bcd60e51b815260206004820152602c60248201527f46756e6374696f6e206d7573742062652063616c6c6564207468726f7567682060448201526b19195b1959d85d1958d85b1b60a21b6064820152608401610350565b7f00000000000000000000000000000000000000000000000000000000000000006001600160a01b03166105487f360894a13ba1a3210667c828492db98dca3e2076cc3735a920a3ca505d382bbc546001600160a01b031690565b6001600160a01b0316146105b35760405162461bcd60e51b815260206004820152602c60248201527f46756e6374696f6e206d7573742062652063616c6c6564207468726f7567682060448201526b6163746976652070726f787960a01b6064820152608401610350565b6105bc8261085c565b6105c882826001610864565b5050565b6000306001600160a01b037f0000000000000000000000000000000000000000000000000000000000000000161461066c5760405162461bcd60e51b815260206004820152603860248201527f555550535570677261646561626c653a206d757374206e6f742062652063616c60448201527f6c6564207468726f7567682064656c656761746563616c6c00000000000000006064820152608401610350565b507f360894a13ba1a3210667c828492db98dca3e2076cc3735a920a3ca505d382bbc90565b610699610a17565b6106a36000610a71565b565b6000610454826001610ad0565b6106ba610a17565b6001600160a01b03811661071f5760405162461bcd60e51b815260206004820152602660248201527f4f776e61626c653a206e6577206f776e657220697320746865207a65726f206160448201526564647265737360d01b6064820152608401610350565b61044481610a71565b600054610100900460ff16158080156107485750600054600160ff909116105b806107625750303b158015610762575060005460ff166001145b6107d45760405162461bcd60e51b815260206004820152602e60248201527f496e697469616c697a61626c653a20636f6e747261637420697320616c72656160448201527f647920696e697469616c697a65640000000000000000000000000000000000006064820152608401610350565b6000805460ff1916600117905580156107f7576000805461ff0019166101001790555b815161080a9060c9906020850190610e1b565b50610813610adc565b80156105c8576000805461ff0019169055604051600181527f7f26b83ff96e1f2b6a682f133852f6798a09c465da95921460cefb38474024989060200160405180910390a15050565b610444610a17565b7f4910fdfa16fed3260ed0e7147f7cc6da11a60208b5b9406d12a635614ffd91435460ff161561089c5761089783610b4f565b505050565b826001600160a01b03166352d1902d6040518163ffffffff1660e01b815260040160206040518083038186803b1580156108d557600080fd5b505afa925050508015610905575060408051601f3d908101601f19168201909252610902918101906110dd565b60015b6109775760405162461bcd60e51b815260206004820152602e60248201527f45524331393637557067726164653a206e657720696d706c656d656e7461746960448201527f6f6e206973206e6f7420555550530000000000000000000000000000000000006064820152608401610350565b7f360894a13ba1a3210667c828492db98dca3e2076cc3735a920a3ca505d382bbc81146109f85760405162461bcd60e51b815260206004820152602960248201527f45524331393637557067726164653a20756e737570706f727465642070726f786044820152681a58589b195555525160ba1b6064820152608401610350565b50610897838383610c0a565b6000610a10828461110c565b9392505050565b6033546001600160a01b031633146106a35760405162461bcd60e51b815260206004820181905260248201527f4f776e61626c653a2063616c6c6572206973206e6f7420746865206f776e65726044820152606401610350565b603380546001600160a01b0383811673ffffffffffffffffffffffffffffffffffffffff19831681179093556040519116919082907f8be0079c531659141344cd1fd0a4f28419497f9722a3daafe3b4186f6b6457e090600090a35050565b6000610a108284611123565b600054610100900460ff16610b475760405162461bcd60e51b815260206004820152602b60248201527f496e697469616c697a61626c653a20636f6e7472616374206973206e6f74206960448201526a6e697469616c697a696e6760a81b6064820152608401610350565b6106a3610c35565b6001600160a01b0381163b610bbc5760405162461bcd60e51b815260206004820152602d60248201527f455243313936373a206e657720696d706c656d656e746174696f6e206973206e60448201526c1bdd08184818dbdb9d1c9858dd609a1b6064820152608401610350565b7f360894a13ba1a3210667c828492db98dca3e2076cc3735a920a3ca505d382bbc805473ffffffffffffffffffffffffffffffffffffffff19166001600160a01b0392909216919091179055565b610c1383610ca9565b600082511180610c205750805b1561089757610c2f8383610ce9565b50505050565b600054610100900460ff16610ca05760405162461bcd60e51b815260206004820152602b60248201527f496e697469616c697a61626c653a20636f6e7472616374206973206e6f74206960448201526a6e697469616c697a696e6760a81b6064820152608401610350565b6106a333610a71565b610cb281610b4f565b6040516001600160a01b038216907fbc7cd75a20ee27fd9adebab32041f755214dbc6bffa90cc0225b39da2e5c2d3b90600090a250565b60606001600160a01b0383163b610d515760405162461bcd60e51b815260206004820152602660248201527f416464726573733a2064656c65676174652063616c6c20746f206e6f6e2d636f6044820152651b9d1c9858dd60d21b6064820152608401610350565b600080846001600160a01b031684604051610d6c919061113b565b600060405180830381855af49150503d8060008114610da7576040519150601f19603f3d011682016040523d82523d6000602084013e610dac565b606091505b5091509150610dd4828260405180606001604052806027815260200161115860279139610ddd565b95945050505050565b60608315610dec575081610a10565b610a108383815115610e015781518083602001fd5b8060405162461bcd60e51b81526004016103509190610ee0565b828054610e27906110a2565b90600052602060002090601f016020900481019282610e495760008555610e8f565b82601f10610e6257805160ff1916838001178555610e8f565b82800160010185558215610e8f579182015b82811115610e8f578251825591602001919060010190610e74565b50610e9b929150610e9f565b5090565b5b80821115610e9b5760008155600101610ea0565b60005b83811015610ecf578181015183820152602001610eb7565b83811115610c2f5750506000910152565b6020815260008251806020840152610eff816040850160208701610eb4565b601f01601f19169190910160400192915050565b80356001600160a01b0381168114610f2a57600080fd5b919050565b600060208284031215610f4157600080fd5b610a1082610f13565b600060208284031215610f5c57600080fd5b5035919050565b634e487b7160e01b600052604160045260246000fd5b600067ffffffffffffffff80841115610f9457610f94610f63565b604051601f8501601f19908116603f01168101908282118183101715610fbc57610fbc610f63565b81604052809350858152868686011115610fd557600080fd5b858560208301376000602087830101525050509392505050565b6000806040838503121561100257600080fd5b61100b83610f13565b9150602083013567ffffffffffffffff81111561102757600080fd5b8301601f8101851361103857600080fd5b61104785823560208401610f79565b9150509250929050565b60006020828403121561106357600080fd5b813567ffffffffffffffff81111561107a57600080fd5b8201601f8101841361108b57600080fd5b61109a84823560208401610f79565b949350505050565b600181811c908216806110b657607f821691505b602082108114156110d757634e487b7160e01b600052602260045260246000fd5b50919050565b6000602082840312156110ef57600080fd5b5051919050565b634e487b7160e01b600052601160045260246000fd5b60008282101561111e5761111e6110f6565b500390565b60008219821115611136576111366110f6565b500190565b6000825161114d818460208701610eb4565b919091019291505056fe416464726573733a206c6f772d6c6576656c2064656c65676174652063616c6c206661696c6564a2646970667358221220b49fd2ebd9e08be9e1b90ed7d615a968b141a509f0673817c3a7f9a66bee0e7164736f6c63430008090033",
  "linkReferences": {},
  "deployedLinkReferences": {}
}