{
  "_format": "hh-sol-artifact-1",
  "contractName": "Counter",
  "sourceName": "contracts/proxy-upgrade/counter/Counter.sol",
  "abi": [
    {
      "anonymous": false,
      "inputs": [
        {
          "indexed": false,
          "internalType": "address",
          "name": "previousAdmin",
          "type": "address"
        },
        {
          "indexed": false,
          "internalType": "address",
          "name": "newAdmin",
          "type": "address"
        }
      ],
      "name": "AdminChanged",
      "type": "event"
    },
    {
      "anonymous": false,
      "inputs": [
        {
          "indexed": true,
          "internalType": "address",
          "name": "beacon",
          "type": "address"
        }
      ],
      "name": "BeaconUpgraded",
      "type": "event"
    },
    {
      "anonymous": false,
      "inputs": [
        {
          "indexed": false,
          "internalType": "uint8",
          "name": "version",
          "type": "uint8"
        }
      ],
      "name": "Initialized",
      "type": "event"
    },
    {
      "anonymous": false,
      "inputs": [
        {
          "indexed": true,
          "internalType": "address",
          "name": "previousOwner",
          "type": "address"
        },
        {
          "indexed": true,
          "internalType": "address",
          "name": "newOwner",
          "type": "address"
        }
      ],
      "name": "OwnershipTransferred",
      "type": "event"
    },
    {
      "anonymous": false,
      "inputs": [
        {
          "indexed": true,
          "internalType": "address",
          "name": "implementation",
          "type": "address"
        }
      ],
      "name": "Upgraded",
      "type": "event"
    },
    {
      "inputs": [],
      "name": "count",
      "outputs": [
        {
          "internalType": "int256",
          "name": "",
          "type": "int256"
        }
      ],
      "stateMutability": "view",
      "type": "function"
    },
    {
      "inputs": [],
      "name": "decrement",
      "outputs": [
        {
          "internalType": "int256",
          "name": "",
          "type": "int256"
        }
      ],
      "stateMutability": "nonpayable",
      "type": "function"
    },
    {
      "inputs": [],
      "name": "increment",
      "outputs": [
        {
          "internalType": "int256",
          "name": "",
          "type": "int256"
        }
      ],
      "stateMutability": "nonpayable",
      "type": "function"
    },
    {
      "inputs": [
        {
          "internalType": "string",
          "name": "_name",
          "type": "string"
        }
      ],
      "name": "initialize",
      "outputs": [],
      "stateMutability": "nonpayable",
      "type": "function"
    },
    {
      "inputs": [],
      "name": "name",
      "outputs": [
        {
          "internalType": "string",
          "name": "",
          "type": "string"
        }
      ],
      "stateMutability": "view",
      "type": "function"
    },
    {
      "inputs": [],
      "name": "owner",
      "outputs": [
        {
          "internalType": "address",
          "name": "",
          "type": "address"
        }
      ],
      "stateMutability": "view",
      "type": "function"
    },
    {
      "inputs": [],
      "name": "proxiableUUID",
      "outputs": [
        {
          "internalType": "bytes32",
          "name": "",
          "type": "bytes32"
        }
      ],
      "stateMutability": "view",
      "type": "function"
    },
    {
      "inputs": [],
      "name": "renounceOwnership",
      "outputs": [],
      "stateMutability": "nonpayable",
      "type": "function"
    },
    {
      "inputs": [
        {
          "internalType": "address",
          "name": "newOwner",
          "type": "address"
        }
      ],
      "name": "transferOwnership",
      "outputs": [],
      "stateMutability": "nonpayable",
      "type": "function"
    },
    {
      "inputs": [
        {
          "internalType": "address",
          "name": "newImplementation",
          "type": "address"
        }
      ],
      "name": "upgradeTo",
      "outputs": [],
      "stateMutability": "nonpayable",
      "type": "function"
    },
    {
      "inputs": [
        {
          "internalType": "address",
          "name": "newImplementation",
          "type": "address"
        },
        {
          "internalType": "bytes",
          "name": "data",
          "type": "bytes"
        }
      ],
      "name": "upgradeToAndCall",
      "outputs": [],
      "stateMutability": "payable",
      "type": "function"
    }
  ],
  "bytecode": "0x60a06040523060805234801561001457600080fd5b5060805161116f61004c600039600081816102a40152818161032e01528181610425015281816104aa0152610594015261116f6000f3fe6080604052600436106100ac5760003560e01c806352d1902d11610074578063d09de08a1161004e578063d09de08a14610198578063f2fde38b146101ad578063f62d1888146101cd57600080fd5b806352d1902d14610146578063715018a61461015b5780638da5cb5b1461017057600080fd5b806306661abd146100b157806306fdde03146100da5780632baeceb7146100fc5780633659cfe6146101115780634f1ef28614610133575b600080fd5b3480156100bd57600080fd5b506100c760ca5481565b6040519081526020015b60405180910390f35b3480156100e657600080fd5b506100ef6101ed565b6040516100d19190610e8c565b34801561010857600080fd5b506100c761027b565b34801561011d57600080fd5b5061013161012c366004610edb565b610299565b005b610131610141366004610f82565b61041a565b34801561015257600080fd5b506100c7610587565b34801561016757600080fd5b5061013161064c565b34801561017c57600080fd5b506033546040516001600160a01b0390911681526020016100d1565b3480156101a457600080fd5b506100c7610660565b3480156101b957600080fd5b506101316101c8366004610edb565b610671565b3480156101d957600080fd5b506101316101e8366004610fe4565b6106e7565b60c980546101fa90611035565b80601f016020809104026020016040519081016040528092919081815260200182805461022690611035565b80156102735780601f1061024857610100808354040283529160200191610273565b820191906000526020600020905b81548152906001019060200180831161025657829003601f168201915b505050505081565b60ca80546000918261028c83611086565b919050555060ca54905090565b306001600160a01b037f000000000000000000000000000000000000000000000000000000000000000016141561032c5760405162461bcd60e51b815260206004820152602c60248201527f46756e6374696f6e206d7573742062652063616c6c6564207468726f7567682060448201526b19195b1959d85d1958d85b1b60a21b60648201526084015b60405180910390fd5b7f00000000000000000000000000000000000000000000000000000000000000006001600160a01b03166103877f360894a13ba1a3210667c828492db98dca3e2076cc3735a920a3ca505d382bbc546001600160a01b031690565b6001600160a01b0316146103f25760405162461bcd60e51b815260206004820152602c60248201527f46756e6374696f6e206d7573742062652063616c6c6564207468726f7567682060448201526b6163746976652070726f787960a01b6064820152608401610323565b6103fb8161081b565b6040805160008082526020820190925261041791839190610823565b50565b306001600160a01b037f00000000000000000000000000000000000000000000000000000000000000001614156104a85760405162461bcd60e51b815260206004820152602c60248201527f46756e6374696f6e206d7573742062652063616c6c6564207468726f7567682060448201526b19195b1959d85d1958d85b1b60a21b6064820152608401610323565b7f00000000000000000000000000000000000000000000000000000000000000006001600160a01b03166105037f360894a13ba1a3210667c828492db98dca3e2076cc3735a920a3ca505d382bbc546001600160a01b031690565b6001600160a01b03161461056e5760405162461bcd60e51b815260206004820152602c60248201527f46756e6374696f6e206d7573742062652063616c6c6564207468726f7567682060448201526b6163746976652070726f787960a01b6064820152608401610323565b6105778261081b565b61058382826001610823565b5050565b6000306001600160a01b037f000000000000000000000000000000000000000000000000000000000000000016146106275760405162461bcd60e51b815260206004820152603860248201527f555550535570677261646561626c653a206d757374206e6f742062652063616c60448201527f6c6564207468726f7567682064656c656761746563616c6c00000000000000006064820152608401610323565b507f360894a13ba1a3210667c828492db98dca3e2076cc3735a920a3ca505d382bbc90565b6106546109c3565b61065e6000610a1d565b565b60ca80546000918261028c836110a4565b6106796109c3565b6001600160a01b0381166106de5760405162461bcd60e51b815260206004820152602660248201527f4f776e61626c653a206e6577206f776e657220697320746865207a65726f206160448201526564647265737360d01b6064820152608401610323565b61041781610a1d565b600054610100900460ff16158080156107075750600054600160ff909116105b806107215750303b158015610721575060005460ff166001145b6107935760405162461bcd60e51b815260206004820152602e60248201527f496e697469616c697a61626c653a20636f6e747261637420697320616c72656160448201527f647920696e697469616c697a65640000000000000000000000000000000000006064820152608401610323565b6000805460ff1916600117905580156107b6576000805461ff0019166101001790555b81516107c99060c9906020850190610dc7565b506107d2610a7c565b8015610583576000805461ff0019169055604051600181527f7f26b83ff96e1f2b6a682f133852f6798a09c465da95921460cefb38474024989060200160405180910390a15050565b6104176109c3565b7f4910fdfa16fed3260ed0e7147f7cc6da11a60208b5b9406d12a635614ffd91435460ff161561085b5761085683610aef565b505050565b826001600160a01b03166352d1902d6040518163ffffffff1660e01b815260040160206040518083038186803b15801561089457600080fd5b505afa9250505080156108c4575060408051601f3d908101601f191682019092526108c1918101906110dd565b60015b6109365760405162461bcd60e51b815260206004820152602e60248201527f45524331393637557067726164653a206e657720696d706c656d656e7461746960448201527f6f6e206973206e6f7420555550530000000000000000000000000000000000006064820152608401610323565b7f360894a13ba1a3210667c828492db98dca3e2076cc3735a920a3ca505d382bbc81146109b75760405162461bcd60e51b815260206004820152602960248201527f45524331393637557067726164653a20756e737570706f727465642070726f786044820152681a58589b195555525160ba1b6064820152608401610323565b50610856838383610baa565b6033546001600160a01b0316331461065e5760405162461bcd60e51b815260206004820181905260248201527f4f776e61626c653a2063616c6c6572206973206e6f7420746865206f776e65726044820152606401610323565b603380546001600160a01b0383811673ffffffffffffffffffffffffffffffffffffffff19831681179093556040519116919082907f8be0079c531659141344cd1fd0a4f28419497f9722a3daafe3b4186f6b6457e090600090a35050565b600054610100900460ff16610ae75760405162461bcd60e51b815260206004820152602b60248201527f496e697469616c697a61626c653a20636f6e7472616374206973206e6f74206960448201526a6e697469616c697a696e6760a81b6064820152608401610323565b61065e610bd5565b6001600160a01b0381163b610b5c5760405162461bcd60e51b815260206004820152602d60248201527f455243313936373a206e657720696d706c656d656e746174696f6e206973206e60448201526c1bdd08184818dbdb9d1c9858dd609a1b6064820152608401610323565b7f360894a13ba1a3210667c828492db98dca3e2076cc3735a920a3ca505d382bbc805473ffffffffffffffffffffffffffffffffffffffff19166001600160a01b0392909216919091179055565b610bb383610c49565b600082511180610bc05750805b1561085657610bcf8383610c89565b50505050565b600054610100900460ff16610c405760405162461bcd60e51b815260206004820152602b60248201527f496e697469616c697a61626c653a20636f6e7472616374206973206e6f74206960448201526a6e697469616c697a696e6760a81b6064820152608401610323565b61065e33610a1d565b610c5281610aef565b6040516001600160a01b038216907fbc7cd75a20ee27fd9adebab32041f755214dbc6bffa90cc0225b39da2e5c2d3b90600090a250565b60606001600160a01b0383163b610cf15760405162461bcd60e51b815260206004820152602660248201527f416464726573733a2064656c65676174652063616c6c20746f206e6f6e2d636f6044820152651b9d1c9858dd60d21b6064820152608401610323565b600080846001600160a01b031684604051610d0c91906110f6565b600060405180830381855af49150503d8060008114610d47576040519150601f19603f3d011682016040523d82523d6000602084013e610d4c565b606091505b5091509150610d74828260405180606001604052806027815260200161111360279139610d7d565b95945050505050565b60608315610d8c575081610d96565b610d968383610d9d565b9392505050565b815115610dad5781518083602001fd5b8060405162461bcd60e51b81526004016103239190610e8c565b828054610dd390611035565b90600052602060002090601f016020900481019282610df55760008555610e3b565b82601f10610e0e57805160ff1916838001178555610e3b565b82800160010185558215610e3b579182015b82811115610e3b578251825591602001919060010190610e20565b50610e47929150610e4b565b5090565b5b80821115610e475760008155600101610e4c565b60005b83811015610e7b578181015183820152602001610e63565b83811115610bcf5750506000910152565b6020815260008251806020840152610eab816040850160208701610e60565b601f01601f19169190910160400192915050565b80356001600160a01b0381168114610ed657600080fd5b919050565b600060208284031215610eed57600080fd5b610d9682610ebf565b634e487b7160e01b600052604160045260246000fd5b600067ffffffffffffffff80841115610f2757610f27610ef6565b604051601f8501601f19908116603f01168101908282118183101715610f4f57610f4f610ef6565b81604052809350858152868686011115610f6857600080fd5b858560208301376000602087830101525050509392505050565b60008060408385031215610f9557600080fd5b610f9e83610ebf565b9150602083013567ffffffffffffffff811115610fba57600080fd5b8301601f81018513610fcb57600080fd5b610fda85823560208401610f0c565b9150509250929050565b600060208284031215610ff657600080fd5b813567ffffffffffffffff81111561100d57600080fd5b8201601f8101841361101e57600080fd5b61102d84823560208401610f0c565b949350505050565b600181811c9082168061104957607f821691505b6020821081141561106a57634e487b7160e01b600052602260045260246000fd5b50919050565b634e487b7160e01b600052601160045260246000fd5b6000600160ff1b82141561109c5761109c611070565b506000190190565b60007f7fffffffffffffffffffffffffffffffffffffffffffffffffffffffffffffff8214156110d6576110d6611070565b5060010190565b6000602082840312156110ef57600080fd5b5051919050565b60008251611108818460208701610e60565b919091019291505056fe416464726573733a206c6f772d6c6576656c2064656c65676174652063616c6c206661696c6564a2646970667358221220e72296f1c686eb9cbc3e1a36ccceb3cce96e57f9366706843560e4b8900e84b564736f6c63430008090033",
  "linkReferences": {},
  "deployedLinkReferences": {}
}