{
  "_format": "hh-sol-artifact-1",
  "contractName": "Counter",
  "sourceName": "contracts/proxy-upgrade/counter/Counter.sol",
  "abi": [
    {
      "inputs": [
        {
          "internalType": "address",
          "name": "target",
          "type": "address"
        }
      ],
      "name": "AddressEmptyCode",
      "type": "error"
    },
    {
      "inputs": [
        {
          "internalType": "address",
          "name": "implementation",
          "type": "address"
        }
      ],
      "name": "ERC1967InvalidImplementation",
      "type": "error"
    },
    {
      "inputs": [],
      "name": "ERC1967NonPayable",
      "type": "error"
    },
    {
      "inputs": [],
      "name": "FailedInnerCall",
      "type": "error"
    },
    {
      "inputs": [],
      "name": "InvalidInitialization",
      "type": "error"
    },
    {
      "inputs": [],
      "name": "NotInitializing",
      "type": "error"
    },
    {
      "inputs": [
        {
          "internalType": "address",
          "name": "owner",
          "type": "address"
        }
      ],
      "name": "OwnableInvalidOwner",
      "type": "error"
    },
    {
      "inputs": [
        {
          "internalType": "address",
          "name": "account",
          "type": "address"
        }
      ],
      "name": "OwnableUnauthorizedAccount",
      "type": "error"
    },
    {
      "inputs": [],
      "name": "UUPSUnauthorizedCallContext",
      "type": "error"
    },
    {
      "inputs": [
        {
          "internalType": "bytes32",
          "name": "slot",
          "type": "bytes32"
        }
      ],
      "name": "UUPSUnsupportedProxiableUUID",
      "type": "error"
    },
    {
      "anonymous": false,
      "inputs": [
        {
          "indexed": false,
          "internalType": "uint64",
          "name": "version",
          "type": "uint64"
        }
      ],
      "name": "Initialized",
      "type": "event"
    },
    {
      "anonymous": false,
      "inputs": [
        {
          "indexed": true,
          "internalType": "address",
          "name": "previousOwner",
          "type": "address"
        },
        {
          "indexed": true,
          "internalType": "address",
          "name": "newOwner",
          "type": "address"
        }
      ],
      "name": "OwnershipTransferred",
      "type": "event"
    },
    {
      "anonymous": false,
      "inputs": [
        {
          "indexed": true,
          "internalType": "address",
          "name": "implementation",
          "type": "address"
        }
      ],
      "name": "Upgraded",
      "type": "event"
    },
    {
      "inputs": [],
      "name": "UPGRADE_INTERFACE_VERSION",
      "outputs": [
        {
          "internalType": "string",
          "name": "",
          "type": "string"
        }
      ],
      "stateMutability": "view",
      "type": "function"
    },
    {
      "inputs": [],
      "name": "count",
      "outputs": [
        {
          "internalType": "int256",
          "name": "",
          "type": "int256"
        }
      ],
      "stateMutability": "view",
      "type": "function"
    },
    {
      "inputs": [],
      "name": "decrement",
      "outputs": [
        {
          "internalType": "int256",
          "name": "",
          "type": "int256"
        }
      ],
      "stateMutability": "nonpayable",
      "type": "function"
    },
    {
      "inputs": [],
      "name": "increment",
      "outputs": [
        {
          "internalType": "int256",
          "name": "",
          "type": "int256"
        }
      ],
      "stateMutability": "nonpayable",
      "type": "function"
    },
    {
      "inputs": [
        {
          "internalType": "string",
          "name": "_name",
          "type": "string"
        }
      ],
      "name": "initialize",
      "outputs": [],
      "stateMutability": "nonpayable",
      "type": "function"
    },
    {
      "inputs": [],
      "name": "name",
      "outputs": [
        {
          "internalType": "string",
          "name": "",
          "type": "string"
        }
      ],
      "stateMutability": "view",
      "type": "function"
    },
    {
      "inputs": [],
      "name": "owner",
      "outputs": [
        {
          "internalType": "address",
          "name": "",
          "type": "address"
        }
      ],
      "stateMutability": "view",
      "type": "function"
    },
    {
      "inputs": [],
      "name": "proxiableUUID",
      "outputs": [
        {
          "internalType": "bytes32",
          "name": "",
          "type": "bytes32"
        }
      ],
      "stateMutability": "view",
      "type": "function"
    },
    {
      "inputs": [],
      "name": "renounceOwnership",
      "outputs": [],
      "stateMutability": "nonpayable",
      "type": "function"
    },
    {
      "inputs": [
        {
          "internalType": "address",
          "name": "newOwner",
          "type": "address"
        }
      ],
      "name": "transferOwnership",
      "outputs": [],
      "stateMutability": "nonpayable",
      "type": "function"
    },
    {
      "inputs": [
        {
          "internalType": "address",
          "name": "newImplementation",
          "type": "address"
        },
        {
          "internalType": "bytes",
          "name": "data",
          "type": "bytes"
        }
      ],
      "name": "upgradeToAndCall",
      "outputs": [],
      "stateMutability": "payable",
      "type": "function"
    }
  ],
  "bytecode": "0x60a06040523060805234801561001457600080fd5b50608051610da861003e600039600081816104bb015281816104e4015261064e0152610da86000f3fe6080604052600436106100ac5760003560e01c8063715018a611610074578063d09de08a1161004e578063d09de08a146101c8578063f2fde38b146101dd578063f62d1888146101fd57600080fd5b8063715018a61461013b5780638da5cb5b14610150578063ad3cb1cc1461019757600080fd5b806306661abd146100b157806306fdde03146100da5780632baeceb7146100fc5780634f1ef2861461011157806352d1902d14610126575b600080fd5b3480156100bd57600080fd5b506100c760015481565b6040519081526020015b60405180910390f35b3480156100e657600080fd5b506100ef61021d565b6040516100d191906109e7565b34801561010857600080fd5b506100c76102ab565b61012461011f366004610ac2565b6102c9565b005b34801561013257600080fd5b506100c76102e8565b34801561014757600080fd5b50610124610317565b34801561015c57600080fd5b507f9016d09d72d40fdae2fd8ceac6b6234c7706214fd39c1cd1e609a0528c199300546040516001600160a01b0390911681526020016100d1565b3480156101a357600080fd5b506100ef604051806040016040528060058152602001640352e302e360dc1b81525081565b3480156101d457600080fd5b506100c761032b565b3480156101e957600080fd5b506101246101f8366004610b24565b61033c565b34801561020957600080fd5b50610124610218366004610b3f565b61037f565b6000805461022a90610b90565b80601f016020809104026020016040519081016040528092919081815260200182805461025690610b90565b80156102a35780601f10610278576101008083540402835291602001916102a3565b820191906000526020600020905b81548152906001019060200180831161028657829003601f168201915b505050505081565b60018054600091826102bc83610be0565b9190505550600154905090565b6102d16104b0565b6102da82610567565b6102e4828261056f565b5050565b60006102f2610643565b507f360894a13ba1a3210667c828492db98dca3e2076cc3735a920a3ca505d382bbc90565b61031f61068c565b61032960006106e7565b565b60018054600091826102bc83610bfd565b61034461068c565b6001600160a01b03811661037357604051631e4fbdf760e01b8152600060048201526024015b60405180910390fd5b61037c816106e7565b50565b7ff0c57e16840df040f15088dc2f81fe391c3923bec73e23a9662efc9c229c6a00805468010000000000000000810460ff16159067ffffffffffffffff166000811580156103ca5750825b905060008267ffffffffffffffff1660011480156103e75750303b155b9050811580156103f5575080155b156104135760405163f92ee8a960e01b815260040160405180910390fd5b845467ffffffffffffffff19166001178555831561044757845468ff00000000000000001916680100000000000000001785555b60006104538782610c7d565b5061045d33610765565b83156104a857845468ff000000000000000019168555604051600181527fc7f505b2f371ae2175ee4913f4499e1f2633a7b5936321eed1cdaeb6115181d29060200160405180910390a15b505050505050565b306001600160a01b037f000000000000000000000000000000000000000000000000000000000000000016148061054957507f00000000000000000000000000000000000000000000000000000000000000006001600160a01b031661053d7f360894a13ba1a3210667c828492db98dca3e2076cc3735a920a3ca505d382bbc546001600160a01b031690565b6001600160a01b031614155b156103295760405163703e46dd60e11b815260040160405180910390fd5b61037c61068c565b816001600160a01b03166352d1902d6040518163ffffffff1660e01b8152600401602060405180830381865afa9250505080156105c9575060408051601f3d908101601f191682019092526105c691810190610d3d565b60015b6105f157604051634c9c8ce360e01b81526001600160a01b038316600482015260240161036a565b7f360894a13ba1a3210667c828492db98dca3e2076cc3735a920a3ca505d382bbc811461063457604051632a87526960e21b81526004810182905260240161036a565b61063e8383610776565b505050565b306001600160a01b037f000000000000000000000000000000000000000000000000000000000000000016146103295760405163703e46dd60e11b815260040160405180910390fd5b336106be7f9016d09d72d40fdae2fd8ceac6b6234c7706214fd39c1cd1e609a0528c199300546001600160a01b031690565b6001600160a01b0316146103295760405163118cdaa760e01b815233600482015260240161036a565b7f9016d09d72d40fdae2fd8ceac6b6234c7706214fd39c1cd1e609a0528c199300805473ffffffffffffffffffffffffffffffffffffffff1981166001600160a01b03848116918217845560405192169182907f8be0079c531659141344cd1fd0a4f28419497f9722a3daafe3b4186f6b6457e090600090a3505050565b61076d6107cc565b61037c8161081a565b61077f82610822565b6040516001600160a01b038316907fbc7cd75a20ee27fd9adebab32041f755214dbc6bffa90cc0225b39da2e5c2d3b90600090a28051156107c45761063e82826108a6565b6102e461091c565b7ff0c57e16840df040f15088dc2f81fe391c3923bec73e23a9662efc9c229c6a005468010000000000000000900460ff1661032957604051631afcd79f60e31b815260040160405180910390fd5b6103446107cc565b806001600160a01b03163b60000361085857604051634c9c8ce360e01b81526001600160a01b038216600482015260240161036a565b7f360894a13ba1a3210667c828492db98dca3e2076cc3735a920a3ca505d382bbc805473ffffffffffffffffffffffffffffffffffffffff19166001600160a01b0392909216919091179055565b6060600080846001600160a01b0316846040516108c39190610d56565b600060405180830381855af49150503d80600081146108fe576040519150601f19603f3d011682016040523d82523d6000602084013e610903565b606091505b509150915061091385838361093b565b95945050505050565b34156103295760405163b398979f60e01b815260040160405180910390fd5b6060826109505761094b8261099a565b610993565b815115801561096757506001600160a01b0384163b155b1561099057604051639996b31560e01b81526001600160a01b038516600482015260240161036a565b50805b9392505050565b8051156109aa5780518082602001fd5b604051630a12f52160e11b815260040160405180910390fd5b60005b838110156109de5781810151838201526020016109c6565b50506000910152565b6020815260008251806020840152610a068160408501602087016109c3565b601f01601f19169190910160400192915050565b80356001600160a01b0381168114610a3157600080fd5b919050565b634e487b7160e01b600052604160045260246000fd5b600067ffffffffffffffff80841115610a6757610a67610a36565b604051601f8501601f19908116603f01168101908282118183101715610a8f57610a8f610a36565b81604052809350858152868686011115610aa857600080fd5b858560208301376000602087830101525050509392505050565b60008060408385031215610ad557600080fd5b610ade83610a1a565b9150602083013567ffffffffffffffff811115610afa57600080fd5b8301601f81018513610b0b57600080fd5b610b1a85823560208401610a4c565b9150509250929050565b600060208284031215610b3657600080fd5b61099382610a1a565b600060208284031215610b5157600080fd5b813567ffffffffffffffff811115610b6857600080fd5b8201601f81018413610b7957600080fd5b610b8884823560208401610a4c565b949350505050565b600181811c90821680610ba457607f821691505b602082108103610bc457634e487b7160e01b600052602260045260246000fd5b50919050565b634e487b7160e01b600052601160045260246000fd5b6000600160ff1b8201610bf557610bf5610bca565b506000190190565b60007f7fffffffffffffffffffffffffffffffffffffffffffffffffffffffffffffff8203610c2e57610c2e610bca565b5060010190565b601f82111561063e576000816000526020600020601f850160051c81016020861015610c5e5750805b601f850160051c820191505b818110156104a857828155600101610c6a565b815167ffffffffffffffff811115610c9757610c97610a36565b610cab81610ca58454610b90565b84610c35565b602080601f831160018114610ce05760008415610cc85750858301515b600019600386901b1c1916600185901b1785556104a8565b600085815260208120601f198616915b82811015610d0f57888601518255948401946001909101908401610cf0565b5085821015610d2d5787850151600019600388901b60f8161c191681555b5050505050600190811b01905550565b600060208284031215610d4f57600080fd5b5051919050565b60008251610d688184602087016109c3565b919091019291505056fea2646970667358221220324c4e40828343264588ddcfd72d9413b5506d80730c83ad8b535c41e1ed8b2864736f6c63430008170033",
  "linkReferences": {},
  "deployedLinkReferences": {}
}