{
  "_format": "hh-sol-artifact-1",
  "contractName": "Counter",
  "sourceName": "contracts/proxy-upgrade/counter/Counter.sol",
  "abi": [
    {
      "inputs": [
        {
          "internalType": "address",
          "name": "target",
          "type": "address"
        }
      ],
      "name": "AddressEmptyCode",
      "type": "error"
    },
    {
      "inputs": [
        {
          "internalType": "address",
          "name": "implementation",
          "type": "address"
        }
      ],
      "name": "ERC1967InvalidImplementation",
      "type": "error"
    },
    {
      "inputs": [],
      "name": "ERC1967NonPayable",
      "type": "error"
    },
    {
      "inputs": [],
      "name": "FailedInnerCall",
      "type": "error"
    },
    {
      "inputs": [],
      "name": "InvalidInitialization",
      "type": "error"
    },
    {
      "inputs": [],
      "name": "NotInitializing",
      "type": "error"
    },
    {
      "inputs": [
        {
          "internalType": "address",
          "name": "owner",
          "type": "address"
        }
      ],
      "name": "OwnableInvalidOwner",
      "type": "error"
    },
    {
      "inputs": [
        {
          "internalType": "address",
          "name": "account",
          "type": "address"
        }
      ],
      "name": "OwnableUnauthorizedAccount",
      "type": "error"
    },
    {
      "inputs": [],
      "name": "UUPSUnauthorizedCallContext",
      "type": "error"
    },
    {
      "inputs": [
        {
          "internalType": "bytes32",
          "name": "slot",
          "type": "bytes32"
        }
      ],
      "name": "UUPSUnsupportedProxiableUUID",
      "type": "error"
    },
    {
      "anonymous": false,
      "inputs": [
        {
          "indexed": false,
          "internalType": "uint64",
          "name": "version",
          "type": "uint64"
        }
      ],
      "name": "Initialized",
      "type": "event"
    },
    {
      "anonymous": false,
      "inputs": [
        {
          "indexed": true,
          "internalType": "address",
          "name": "previousOwner",
          "type": "address"
        },
        {
          "indexed": true,
          "internalType": "address",
          "name": "newOwner",
          "type": "address"
        }
      ],
      "name": "OwnershipTransferred",
      "type": "event"
    },
    {
      "anonymous": false,
      "inputs": [
        {
          "indexed": true,
          "internalType": "address",
          "name": "implementation",
          "type": "address"
        }
      ],
      "name": "Upgraded",
      "type": "event"
    },
    {
      "inputs": [],
      "name": "UPGRADE_INTERFACE_VERSION",
      "outputs": [
        {
          "internalType": "string",
          "name": "",
          "type": "string"
        }
      ],
      "stateMutability": "view",
      "type": "function"
    },
    {
      "inputs": [],
      "name": "count",
      "outputs": [
        {
          "internalType": "int256",
          "name": "",
          "type": "int256"
        }
      ],
      "stateMutability": "view",
      "type": "function"
    },
    {
      "inputs": [],
      "name": "decrement",
      "outputs": [
        {
          "internalType": "int256",
          "name": "",
          "type": "int256"
        }
      ],
      "stateMutability": "nonpayable",
      "type": "function"
    },
    {
      "inputs": [],
      "name": "increment",
      "outputs": [
        {
          "internalType": "int256",
          "name": "",
          "type": "int256"
        }
      ],
      "stateMutability": "nonpayable",
      "type": "function"
    },
    {
      "inputs": [
        {
          "internalType": "string",
          "name": "_name",
          "type": "string"
        }
      ],
      "name": "initialize",
      "outputs": [],
      "stateMutability": "nonpayable",
      "type": "function"
    },
    {
      "inputs": [],
      "name": "name",
      "outputs": [
        {
          "internalType": "string",
          "name": "",
          "type": "string"
        }
      ],
      "stateMutability": "view",
      "type": "function"
    },
    {
      "inputs": [],
      "name": "owner",
      "outputs": [
        {
          "internalType": "address",
          "name": "",
          "type": "address"
        }
      ],
      "stateMutability": "view",
      "type": "function"
    },
    {
      "inputs": [],
      "name": "proxiableUUID",
      "outputs": [
        {
          "internalType": "bytes32",
          "name": "",
          "type": "bytes32"
        }
      ],
      "stateMutability": "view",
      "type": "function"
    },
    {
      "inputs": [],
      "name": "renounceOwnership",
      "outputs": [],
      "stateMutability": "nonpayable",
      "type": "function"
    },
    {
      "inputs": [
        {
          "internalType": "address",
          "name": "newOwner",
          "type": "address"
        }
      ],
      "name": "transferOwnership",
      "outputs": [],
      "stateMutability": "nonpayable",
      "type": "function"
    },
    {
      "inputs": [
        {
          "internalType": "address",
          "name": "newImplementation",
          "type": "address"
        }
      ],
      "name": "upgradeTo",
      "outputs": [],
      "stateMutability": "nonpayable",
      "type": "function"
    },
    {
      "inputs": [
        {
          "internalType": "address",
          "name": "newImplementation",
          "type": "address"
        },
        {
          "internalType": "bytes",
          "name": "data",
          "type": "bytes"
        }
      ],
      "name": "upgradeToAndCall",
      "outputs": [],
      "stateMutability": "payable",
      "type": "function"
    }
  ],
  "bytecode": "0x60a06040523060805234801561001457600080fd5b50608051610e0c61003e600039600081816105210152818161054a01526106b40152610e0c6000f3fe6080604052600436106100c75760003560e01c8063715018a611610074578063d09de08a1161004e578063d09de08a14610203578063f2fde38b14610218578063f62d18881461023857600080fd5b8063715018a6146101765780638da5cb5b1461018b578063ad3cb1cc146101d257600080fd5b80633659cfe6116100a55780633659cfe61461012c5780634f1ef2861461014e57806352d1902d1461016157600080fd5b806306661abd146100cc57806306fdde03146100f55780632baeceb714610117575b600080fd5b3480156100d857600080fd5b506100e260015481565b6040519081526020015b60405180910390f35b34801561010157600080fd5b5061010a610258565b6040516100ec9190610a4d565b34801561012357600080fd5b506100e26102e6565b34801561013857600080fd5b5061014c610147366004610a9c565b610304565b005b61014c61015c366004610b43565b610332565b34801561016d57600080fd5b506100e2610351565b34801561018257600080fd5b5061014c610380565b34801561019757600080fd5b507f9016d09d72d40fdae2fd8ceac6b6234c7706214fd39c1cd1e609a0528c199300546040516001600160a01b0390911681526020016100ec565b3480156101de57600080fd5b5061010a604051806040016040528060058152602001640352e302e360dc1b81525081565b34801561020f57600080fd5b506100e2610394565b34801561022457600080fd5b5061014c610233366004610a9c565b6103a5565b34801561024457600080fd5b5061014c610253366004610ba5565b6103e5565b6000805461026590610bf6565b80601f016020809104026020016040519081016040528092919081815260200182805461029190610bf6565b80156102de5780601f106102b3576101008083540402835291602001916102de565b820191906000526020600020905b8154815290600101906020018083116102c157829003601f168201915b505050505081565b60018054600091826102f783610c46565b9190505550600154905090565b61030c610516565b610315816105cd565b60408051600081526020810190915261032f9082906105d5565b50565b61033a610516565b610343826105cd565b61034d82826105d5565b5050565b600061035b6106a9565b507f360894a13ba1a3210667c828492db98dca3e2076cc3735a920a3ca505d382bbc90565b6103886106f2565b610392600061074d565b565b60018054600091826102f783610c63565b6103ad6106f2565b6001600160a01b0381166103dc57604051631e4fbdf760e01b8152600060048201526024015b60405180910390fd5b61032f8161074d565b7ff0c57e16840df040f15088dc2f81fe391c3923bec73e23a9662efc9c229c6a00805468010000000000000000810460ff16159067ffffffffffffffff166000811580156104305750825b905060008267ffffffffffffffff16600114801561044d5750303b155b90508115801561045b575080155b156104795760405163f92ee8a960e01b815260040160405180910390fd5b845467ffffffffffffffff1916600117855583156104ad57845468ff00000000000000001916680100000000000000001785555b60006104b98782610ce1565b506104c3336107cb565b831561050e57845468ff000000000000000019168555604051600181527fc7f505b2f371ae2175ee4913f4499e1f2633a7b5936321eed1cdaeb6115181d29060200160405180910390a15b505050505050565b306001600160a01b037f00000000000000000000000000000000000000000000000000000000000000001614806105af57507f00000000000000000000000000000000000000000000000000000000000000006001600160a01b03166105a37f360894a13ba1a3210667c828492db98dca3e2076cc3735a920a3ca505d382bbc546001600160a01b031690565b6001600160a01b031614155b156103925760405163703e46dd60e11b815260040160405180910390fd5b61032f6106f2565b816001600160a01b03166352d1902d6040518163ffffffff1660e01b8152600401602060405180830381865afa92505050801561062f575060408051601f3d908101601f1916820190925261062c91810190610da1565b60015b61065757604051634c9c8ce360e01b81526001600160a01b03831660048201526024016103d3565b7f360894a13ba1a3210667c828492db98dca3e2076cc3735a920a3ca505d382bbc811461069a57604051632a87526960e21b8152600481018290526024016103d3565b6106a483836107dc565b505050565b306001600160a01b037f000000000000000000000000000000000000000000000000000000000000000016146103925760405163703e46dd60e11b815260040160405180910390fd5b336107247f9016d09d72d40fdae2fd8ceac6b6234c7706214fd39c1cd1e609a0528c199300546001600160a01b031690565b6001600160a01b0316146103925760405163118cdaa760e01b81523360048201526024016103d3565b7f9016d09d72d40fdae2fd8ceac6b6234c7706214fd39c1cd1e609a0528c199300805473ffffffffffffffffffffffffffffffffffffffff1981166001600160a01b03848116918217845560405192169182907f8be0079c531659141344cd1fd0a4f28419497f9722a3daafe3b4186f6b6457e090600090a3505050565b6107d3610832565b61032f81610880565b6107e582610888565b6040516001600160a01b038316907fbc7cd75a20ee27fd9adebab32041f755214dbc6bffa90cc0225b39da2e5c2d3b90600090a280511561082a576106a4828261090c565b61034d610982565b7ff0c57e16840df040f15088dc2f81fe391c3923bec73e23a9662efc9c229c6a005468010000000000000000900460ff1661039257604051631afcd79f60e31b815260040160405180910390fd5b6103ad610832565b806001600160a01b03163b6000036108be57604051634c9c8ce360e01b81526001600160a01b03821660048201526024016103d3565b7f360894a13ba1a3210667c828492db98dca3e2076cc3735a920a3ca505d382bbc805473ffffffffffffffffffffffffffffffffffffffff19166001600160a01b0392909216919091179055565b6060600080846001600160a01b0316846040516109299190610dba565b600060405180830381855af49150503d8060008114610964576040519150601f19603f3d011682016040523d82523d6000602084013e610969565b606091505b50915091506109798583836109a1565b95945050505050565b34156103925760405163b398979f60e01b815260040160405180910390fd5b6060826109b6576109b182610a00565b6109f9565b81511580156109cd57506001600160a01b0384163b155b156109f657604051639996b31560e01b81526001600160a01b03851660048201526024016103d3565b50805b9392505050565b805115610a105780518082602001fd5b604051630a12f52160e11b815260040160405180910390fd5b60005b83811015610a44578181015183820152602001610a2c565b50506000910152565b6020815260008251806020840152610a6c816040850160208701610a29565b601f01601f19169190910160400192915050565b80356001600160a01b0381168114610a9757600080fd5b919050565b600060208284031215610aae57600080fd5b6109f982610a80565b634e487b7160e01b600052604160045260246000fd5b600067ffffffffffffffff80841115610ae857610ae8610ab7565b604051601f8501601f19908116603f01168101908282118183101715610b1057610b10610ab7565b81604052809350858152868686011115610b2957600080fd5b858560208301376000602087830101525050509392505050565b60008060408385031215610b5657600080fd5b610b5f83610a80565b9150602083013567ffffffffffffffff811115610b7b57600080fd5b8301601f81018513610b8c57600080fd5b610b9b85823560208401610acd565b9150509250929050565b600060208284031215610bb757600080fd5b813567ffffffffffffffff811115610bce57600080fd5b8201601f81018413610bdf57600080fd5b610bee84823560208401610acd565b949350505050565b600181811c90821680610c0a57607f821691505b602082108103610c2a57634e487b7160e01b600052602260045260246000fd5b50919050565b634e487b7160e01b600052601160045260246000fd5b6000600160ff1b8201610c5b57610c5b610c30565b506000190190565b60007f7fffffffffffffffffffffffffffffffffffffffffffffffffffffffffffffff8203610c9457610c94610c30565b5060010190565b601f8211156106a457600081815260208120601f850160051c81016020861015610cc25750805b601f850160051c820191505b8181101561050e57828155600101610cce565b815167ffffffffffffffff811115610cfb57610cfb610ab7565b610d0f81610d098454610bf6565b84610c9b565b602080601f831160018114610d445760008415610d2c5750858301515b600019600386901b1c1916600185901b17855561050e565b600085815260208120601f198616915b82811015610d7357888601518255948401946001909101908401610d54565b5085821015610d915787850151600019600388901b60f8161c191681555b5050505050600190811b01905550565b600060208284031215610db357600080fd5b5051919050565b60008251610dcc818460208701610a29565b919091019291505056fea2646970667358221220882b0ed83432823ad9d0c8576124e4aa700de26d6876ba822260feb74b7da0e864736f6c63430008140033",
  "linkReferences": {},
  "deployedLinkReferences": {}
}