{
  "_format": "hh-sol-artifact-1",
  "contractName": "ERC777ContractAccount",
  "sourceName": "contracts/openzeppelin/ERC-777/ERC777ContractAccount.sol",
  "abi": [
    {
      "inputs": [
        {
          "internalType": "address",
          "name": "_erc1820Addr",
          "type": "address"
        }
      ],
      "stateMutability": "nonpayable",
      "type": "constructor"
    },
    {
      "inputs": [],
      "name": "CallReverted",
      "type": "error"
    },
    {
      "inputs": [
        {
          "internalType": "address",
          "name": "_erc777RecipientHookImpl",
          "type": "address"
        }
      ],
      "name": "registerERC777TokensRecipient",
      "outputs": [],
      "stateMutability": "nonpayable",
      "type": "function"
    },
    {
      "inputs": [
        {
          "internalType": "address",
          "name": "_erc777SenderHookImpl",
          "type": "address"
        }
      ],
      "name": "registerERC777TokensSender",
      "outputs": [],
      "stateMutability": "nonpayable",
      "type": "function"
    },
    {
      "inputs": [
        {
          "internalType": "address",
          "name": "_erc777tokenAddr",
          "type": "address"
        },
        {
          "internalType": "address",
          "name": "_recipient",
          "type": "address"
        },
        {
          "internalType": "uint256",
          "name": "_amount",
          "type": "uint256"
        },
        {
          "internalType": "bytes",
          "name": "_data",
          "type": "bytes"
        }
      ],
      "name": "send",
      "outputs": [],
      "stateMutability": "nonpayable",
      "type": "function"
    }
  ],
  "bytecode": "0x60a060405234801561001057600080fd5b506040516104f73803806104f783398101604081905261002f91610040565b6001600160a01b0316608052610070565b60006020828403121561005257600080fd5b81516001600160a01b038116811461006957600080fd5b9392505050565b608051610465610092600039600081816101a2015261024601526104656000f3fe608060405234801561001057600080fd5b50600436106100415760003560e01c80633836ef891461004657806342b0d4341461005b578063753dc38f1461006e575b600080fd5b6100596100543660046102a7565b610081565b005b610059610069366004610383565b610157565b61005961007c366004610383565b6101fb565b6000846001600160a01b03168484846040516024016100a2939291906103c9565b60408051601f198184030181529181526020820180517bffffffffffffffffffffffffffffffffffffffffffffffffffffffff16634decdde360e11b179052516100ec9190610413565b6000604051808303816000865af19150503d8060008114610129576040519150601f19603f3d011682016040523d82523d6000602084013e61012e565b606091505b50509050806101505760405163bbdf0a7760e01b815260040160405180910390fd5b5050505050565b6040516329965a1d60e01b81523060048201527f29ddb589b1fb5fc7cf394961c1adf5f8c6454761adf795e67fe149f658abe89560248201526001600160a01b0382811660448301527f000000000000000000000000000000000000000000000000000000000000000016906329965a1d906064015b600060405180830381600087803b1580156101e757600080fd5b505af1158015610150573d6000803e3d6000fd5b6040516329965a1d60e01b81523060048201527fb281fc8c12954d22544db45de3159a39272895b169a852b314f9cc762e44c53b60248201526001600160a01b0382811660448301527f000000000000000000000000000000000000000000000000000000000000000016906329965a1d906064016101cd565b80356001600160a01b038116811461028c57600080fd5b919050565b634e487b7160e01b600052604160045260246000fd5b600080600080608085870312156102bd57600080fd5b6102c685610275565b93506102d460208601610275565b925060408501359150606085013567ffffffffffffffff808211156102f857600080fd5b818701915087601f83011261030c57600080fd5b81358181111561031e5761031e610291565b604051601f8201601f19908116603f0116810190838211818310171561034657610346610291565b816040528281528a602084870101111561035f57600080fd5b82602086016020830137600060208483010152809550505050505092959194509250565b60006020828403121561039557600080fd5b61039e82610275565b9392505050565b60005b838110156103c05781810151838201526020016103a8565b50506000910152565b6001600160a01b038416815282602082015260606040820152600082518060608401526103fd8160808501602087016103a5565b601f01601f191691909101608001949350505050565b600082516104258184602087016103a5565b919091019291505056fea2646970667358221220b7be5aa8aa311131c24ac13534c23daa2353bca73ac15c4a7498b5542254062464736f6c63430008170033",
  "linkReferences": {},
  "deployedLinkReferences": {}
}