{
  "_format": "hh-sol-artifact-1",
  "contractName": "Encoding",
  "sourceName": "contracts/solidity/encoding/Encoding.sol",
  "abi": [
    {
      "anonymous": false,
      "inputs": [
        {
          "indexed": false,
          "internalType": "uint256",
          "name": "result",
          "type": "uint256"
        }
      ],
      "name": "Added",
      "type": "event"
    },
    {
      "inputs": [
        {
          "internalType": "uint256",
          "name": "a",
          "type": "uint256"
        },
        {
          "internalType": "uint256",
          "name": "b",
          "type": "uint256"
        }
      ],
      "name": "add",
      "outputs": [
        {
          "internalType": "uint256",
          "name": "",
          "type": "uint256"
        }
      ],
      "stateMutability": "pure",
      "type": "function"
    },
    {
      "inputs": [
        {
          "internalType": "bytes",
          "name": "encodedData",
          "type": "bytes"
        }
      ],
      "name": "decodeData",
      "outputs": [
        {
          "internalType": "address",
          "name": "",
          "type": "address"
        },
        {
          "internalType": "uint256",
          "name": "",
          "type": "uint256"
        }
      ],
      "stateMutability": "pure",
      "type": "function"
    },
    {
      "inputs": [
        {
          "internalType": "uint256",
          "name": "a",
          "type": "uint256"
        },
        {
          "internalType": "uint256",
          "name": "b",
          "type": "uint256"
        }
      ],
      "name": "encodeAddFunction",
      "outputs": [
        {
          "internalType": "bytes",
          "name": "",
          "type": "bytes"
        }
      ],
      "stateMutability": "pure",
      "type": "function"
    },
    {
      "inputs": [
        {
          "internalType": "address",
          "name": "_address",
          "type": "address"
        },
        {
          "internalType": "uint256",
          "name": "_uint",
          "type": "uint256"
        }
      ],
      "name": "encodeData",
      "outputs": [
        {
          "internalType": "bytes",
          "name": "",
          "type": "bytes"
        }
      ],
      "stateMutability": "pure",
      "type": "function"
    },
    {
      "inputs": [
        {
          "internalType": "uint256",
          "name": "a",
          "type": "uint256"
        },
        {
          "internalType": "uint256",
          "name": "b",
          "type": "uint256"
        }
      ],
      "name": "executeAddFunction",
      "outputs": [],
      "stateMutability": "nonpayable",
      "type": "function"
    },
    {
      "inputs": [
        {
          "internalType": "address",
          "name": "_addr",
          "type": "address"
        },
        {
          "internalType": "uint256",
          "name": "_amount",
          "type": "uint256"
        },
        {
          "internalType": "string",
          "name": "_data",
          "type": "string"
        }
      ],
      "name": "getPackedData",
      "outputs": [
        {
          "internalType": "bytes",
          "name": "",
          "type": "bytes"
        }
      ],
      "stateMutability": "pure",
      "type": "function"
    }
  ],
  "bytecode": "0x608060405234801561001057600080fd5b506105e4806100206000396000f3fe608060405234801561001057600080fd5b50600436106100725760003560e01c8063771602f711610050578063771602f7146100f157806390a5b0fb14610112578063a4adeeb21461014f57600080fd5b806301f4f69d14610077578063091fb9a9146100a0578063447a06f5146100b5575b600080fd5b61008a6100853660046103ba565b6101a1565b6040516100979190610449565b60405180910390f35b6100b36100ae36600461047c565b6101d0565b005b6100d26100c336600461049e565b60208101516040909101519091565b604080516001600160a01b039093168352602083019190915201610097565b6101046100ff36600461047c565b6102fd565b604051908152602001610097565b61008a6101203660046104ef565b604080516001600160a01b03939093166020840152828101919091528051808303820181526060909201905290565b61008a61015d36600461047c565b6040805160248101939093526044808401929092528051808403909201825260649092019091526020810180516001600160e01b031663771602f760e01b17905290565b60608383836040516020016101b893929190610519565b60405160208183030381529060405290509392505050565b604080516024810184905260448082018490528251808303909101815260649091019091526020810180516001600160e01b031663771602f760e01b179052600080306001600160a01b03168360405161022a9190610558565b6000604051808303816000865af19150503d8060008114610267576040519150601f19603f3d011682016040523d82523d6000602084013e61026c565b606091505b5091509150816102b05760405162461bcd60e51b815260206004820152600b60248201526a10d85b1b0819985a5b195960aa1b604482015260640160405180910390fd5b7f64a55044d1f2eddebe1b90e8e2853e8e96931cefadbfa0b2ceb34bee36061941818060200190518101906102e59190610574565b60405190815260200160405180910390a15050505050565b6000610309828461058d565b90505b92915050565b80356001600160a01b038116811461032957600080fd5b919050565b634e487b7160e01b600052604160045260246000fd5b600067ffffffffffffffff8084111561035f5761035f61032e565b604051601f8501601f19908116603f011681019082821181831017156103875761038761032e565b816040528093508581528686860111156103a057600080fd5b858560208301376000602087830101525050509392505050565b6000806000606084860312156103cf57600080fd5b6103d884610312565b925060208401359150604084013567ffffffffffffffff8111156103fb57600080fd5b8401601f8101861361040c57600080fd5b61041b86823560208401610344565b9150509250925092565b60005b83811015610440578181015183820152602001610428565b50506000910152565b6020815260008251806020840152610468816040850160208701610425565b601f01601f19169190910160400192915050565b6000806040838503121561048f57600080fd5b50508035926020909101359150565b6000602082840312156104b057600080fd5b813567ffffffffffffffff8111156104c757600080fd5b8201601f810184136104d857600080fd5b6104e784823560208401610344565b949350505050565b6000806040838503121561050257600080fd5b61050b83610312565b946020939093013593505050565b6bffffffffffffffffffffffff198460601b16815282601482015260008251610549816034850160208701610425565b91909101603401949350505050565b6000825161056a818460208701610425565b9190910192915050565b60006020828403121561058657600080fd5b5051919050565b8082018082111561030c57634e487b7160e01b600052601160045260246000fdfea2646970667358221220ba74aa656ae2a9113a7402fc28127489137ddcc0ffdebc468ada0cf64a2fc27b64736f6c63430008170033",
  "linkReferences": {},
  "deployedLinkReferences": {}
}