{
  "_format": "hh-sol-artifact-1",
  "contractName": "ERC20",
  "sourceName": "contracts/ERC20.sol",
  "abi": [
    {
      "inputs": [
        {
          "internalType": "string",
          "name": "name",
          "type": "string"
        },
        {
          "internalType": "string",
          "name": "symbol",
          "type": "string"
        },
        {
          "internalType": "uint256",
          "name": "initialSupply",
          "type": "uint256"
        }
      ],
      "stateMutability": "nonpayable",
      "type": "constructor"
    },
    {
      "inputs": [
        {
          "internalType": "address",
          "name": "spender",
          "type": "address"
        },
        {
          "internalType": "uint256",
          "name": "allowance",
          "type": "uint256"
        },
        {
          "internalType": "uint256",
          "name": "needed",
          "type": "uint256"
        }
      ],
      "name": "ERC20InsufficientAllowance",
      "type": "error"
    },
    {
      "inputs": [
        {
          "internalType": "address",
          "name": "sender",
          "type": "address"
        },
        {
          "internalType": "uint256",
          "name": "balance",
          "type": "uint256"
        },
        {
          "internalType": "uint256",
          "name": "needed",
          "type": "uint256"
        }
      ],
      "name": "ERC20InsufficientBalance",
      "type": "error"
    },
    {
      "inputs": [
        {
          "internalType": "address",
          "name": "approver",
          "type": "address"
        }
      ],
      "name": "ERC20InvalidApprover",
      "type": "error"
    },
    {
      "inputs": [
        {
          "internalType": "address",
          "name": "receiver",
          "type": "address"
        }
      ],
      "name": "ERC20InvalidReceiver",
      "type": "error"
    },
    {
      "inputs": [
        {
          "internalType": "address",
          "name": "sender",
          "type": "address"
        }
      ],
      "name": "ERC20InvalidSender",
      "type": "error"
    },
    {
      "inputs": [
        {
          "internalType": "address",
          "name": "spender",
          "type": "address"
        }
      ],
      "name": "ERC20InvalidSpender",
      "type": "error"
    },
    {
      "anonymous": false,
      "inputs": [
        {
          "indexed": true,
          "internalType": "address",
          "name": "owner",
          "type": "address"
        },
        {
          "indexed": true,
          "internalType": "address",
          "name": "spender",
          "type": "address"
        },
        {
          "indexed": false,
          "internalType": "uint256",
          "name": "value",
          "type": "uint256"
        }
      ],
      "name": "Approval",
      "type": "event"
    },
    {
      "anonymous": false,
      "inputs": [
        {
          "indexed": true,
          "internalType": "address",
          "name": "from",
          "type": "address"
        },
        {
          "indexed": true,
          "internalType": "address",
          "name": "to",
          "type": "address"
        },
        {
          "indexed": false,
          "internalType": "uint256",
          "name": "value",
          "type": "uint256"
        }
      ],
      "name": "Transfer",
      "type": "event"
    },
    {
      "inputs": [
        {
          "internalType": "address",
          "name": "account",
          "type": "address"
        }
      ],
      "name": "_balances",
      "outputs": [
        {
          "internalType": "uint256",
          "name": "",
          "type": "uint256"
        }
      ],
      "stateMutability": "view",
      "type": "function"
    },
    {
      "inputs": [],
      "name": "_totalSupply",
      "outputs": [
        {
          "internalType": "uint256",
          "name": "",
          "type": "uint256"
        }
      ],
      "stateMutability": "view",
      "type": "function"
    },
    {
      "inputs": [
        {
          "internalType": "address",
          "name": "owner",
          "type": "address"
        },
        {
          "internalType": "address",
          "name": "spender",
          "type": "address"
        }
      ],
      "name": "allowance",
      "outputs": [
        {
          "internalType": "uint256",
          "name": "",
          "type": "uint256"
        }
      ],
      "stateMutability": "view",
      "type": "function"
    },
    {
      "inputs": [
        {
          "internalType": "address",
          "name": "spender",
          "type": "address"
        },
        {
          "internalType": "uint256",
          "name": "value",
          "type": "uint256"
        }
      ],
      "name": "approve",
      "outputs": [
        {
          "internalType": "bool",
          "name": "",
          "type": "bool"
        }
      ],
      "stateMutability": "nonpayable",
      "type": "function"
    },
    {
      "inputs": [
        {
          "internalType": "address",
          "name": "account",
          "type": "address"
        }
      ],
      "name": "balanceOf",
      "outputs": [
        {
          "internalType": "uint256",
          "name": "",
          "type": "uint256"
        }
      ],
      "stateMutability": "view",
      "type": "function"
    },
    {
      "inputs": [],
      "name": "decimals",
      "outputs": [
        {
          "internalType": "uint8",
          "name": "",
          "type": "uint8"
        }
      ],
      "stateMutability": "view",
      "type": "function"
    },
    {
      "inputs": [],
      "name": "name",
      "outputs": [
        {
          "internalType": "string",
          "name": "",
          "type": "string"
        }
      ],
      "stateMutability": "view",
      "type": "function"
    },
    {
      "inputs": [],
      "name": "symbol",
      "outputs": [
        {
          "internalType": "string",
          "name": "",
          "type": "string"
        }
      ],
      "stateMutability": "view",
      "type": "function"
    },
    {
      "inputs": [],
      "name": "totalSupply",
      "outputs": [
        {
          "internalType": "uint256",
          "name": "",
          "type": "uint256"
        }
      ],
      "stateMutability": "view",
      "type": "function"
    },
    {
      "inputs": [
        {
          "internalType": "address",
          "name": "to",
          "type": "address"
        },
        {
          "internalType": "uint256",
          "name": "value",
          "type": "uint256"
        }
      ],
      "name": "transfer",
      "outputs": [
        {
          "internalType": "bool",
          "name": "",
          "type": "bool"
        }
      ],
      "stateMutability": "nonpayable",
      "type": "function"
    },
    {
      "inputs": [
        {
          "internalType": "address",
          "name": "from",
          "type": "address"
        },
        {
          "internalType": "address",
          "name": "to",
          "type": "address"
        },
        {
          "internalType": "uint256",
          "name": "value",
          "type": "uint256"
        }
      ],
      "name": "transferFrom",
      "outputs": [
        {
          "internalType": "bool",
          "name": "",
          "type": "bool"
        }
      ],
      "stateMutability": "nonpayable",
      "type": "function"
    }
  ],
  "bytecode": "0x60806040523480156200001157600080fd5b5060405162001557380380620015578339818101604052810190620000379190620002a8565b828281600390816200004a919062000583565b5080600490816200005c919062000583565b505050806002600082825462000073919062000699565b92505081905550806000803373ffffffffffffffffffffffffffffffffffffffff1673ffffffffffffffffffffffffffffffffffffffff1681526020019081526020016000206000828254620000ca919062000699565b92505081905550505050620006d4565b6000604051905090565b600080fd5b600080fd5b600080fd5b600080fd5b6000601f19601f8301169050919050565b7f4e487b7100000000000000000000000000000000000000000000000000000000600052604160045260246000fd5b6200014382620000f8565b810181811067ffffffffffffffff8211171562000165576200016462000109565b5b80604052505050565b60006200017a620000da565b905062000188828262000138565b919050565b600067ffffffffffffffff821115620001ab57620001aa62000109565b5b620001b682620000f8565b9050602081019050919050565b60005b83811015620001e3578082015181840152602081019050620001c6565b60008484015250505050565b60006200020662000200846200018d565b6200016e565b905082815260208101848484011115620002255762000224620000f3565b5b62000232848285620001c3565b509392505050565b600082601f830112620002525762000251620000ee565b5b815162000264848260208601620001ef565b91505092915050565b6000819050919050565b62000282816200026d565b81146200028e57600080fd5b50565b600081519050620002a28162000277565b92915050565b600080600060608486031215620002c457620002c3620000e4565b5b600084015167ffffffffffffffff811115620002e557620002e4620000e9565b5b620002f3868287016200023a565b935050602084015167ffffffffffffffff811115620003175762000316620000e9565b5b62000325868287016200023a565b9250506040620003388682870162000291565b9150509250925092565b600081519050919050565b7f4e487b7100000000000000000000000000000000000000000000000000000000600052602260045260246000fd5b600060028204905060018216806200039557607f821691505b602082108103620003ab57620003aa6200034d565b5b50919050565b60008190508160005260206000209050919050565b60006020601f8301049050919050565b600082821b905092915050565b600060088302620004157fffffffffffffffffffffffffffffffffffffffffffffffffffffffffffffffff82620003d6565b620004218683620003d6565b95508019841693508086168417925050509392505050565b6000819050919050565b6000620004646200045e62000458846200026d565b62000439565b6200026d565b9050919050565b6000819050919050565b620004808362000443565b620004986200048f826200046b565b848454620003e3565b825550505050565b600090565b620004af620004a0565b620004bc81848462000475565b505050565b5b81811015620004e457620004d8600082620004a5565b600181019050620004c2565b5050565b601f8211156200053357620004fd81620003b1565b6200050884620003c6565b8101602085101562000518578190505b620005306200052785620003c6565b830182620004c1565b50505b505050565b600082821c905092915050565b6000620005586000198460080262000538565b1980831691505092915050565b600062000573838362000545565b9150826002028217905092915050565b6200058e8262000342565b67ffffffffffffffff811115620005aa57620005a962000109565b5b620005b682546200037c565b620005c3828285620004e8565b600060209050601f831160018114620005fb5760008415620005e6578287015190505b620005f2858262000565565b86555062000662565b601f1984166200060b86620003b1565b60005b8281101562000635578489015182556001820191506020850194506020810190506200060e565b8683101562000655578489015162000651601f89168262000545565b8355505b6001600288020188555050505b505050505050565b7f4e487b7100000000000000000000000000000000000000000000000000000000600052601160045260246000fd5b6000620006a6826200026d565b9150620006b3836200026d565b9250828201905080821115620006ce57620006cd6200066a565b5b92915050565b610e7380620006e46000396000f3fe608060405234801561001057600080fd5b50600436106100a95760003560e01c80633eaaf86b116100715780633eaaf86b146101685780636ebcf6071461018657806370a08231146101b657806395d89b41146101e6578063a9059cbb14610204578063dd62ed3e14610234576100a9565b806306fdde03146100ae578063095ea7b3146100cc57806318160ddd146100fc57806323b872dd1461011a578063313ce5671461014a575b600080fd5b6100b6610264565b6040516100c39190610ac7565b60405180910390f35b6100e660048036038101906100e19190610b82565b6102f6565b6040516100f39190610bdd565b60405180910390f35b610104610319565b6040516101119190610c07565b60405180910390f35b610134600480360381019061012f9190610c22565b610323565b6040516101419190610bdd565b60405180910390f35b610152610352565b60405161015f9190610c91565b60405180910390f35b61017061035b565b60405161017d9190610c07565b60405180910390f35b6101a0600480360381019061019b9190610cac565b610361565b6040516101ad9190610c07565b60405180910390f35b6101d060048036038101906101cb9190610cac565b610379565b6040516101dd9190610c07565b60405180910390f35b6101ee6103c1565b6040516101fb9190610ac7565b60405180910390f35b61021e60048036038101906102199190610b82565b610453565b60405161022b9190610bdd565b60405180910390f35b61024e60048036038101906102499190610cd9565b610476565b60405161025b9190610c07565b60405180910390f35b60606003805461027390610d48565b80601f016020809104026020016040519081016040528092919081815260200182805461029f90610d48565b80156102ec5780601f106102c1576101008083540402835291602001916102ec565b820191906000526020600020905b8154815290600101906020018083116102cf57829003601f168201915b5050505050905090565b6000806103016104fd565b905061030e818585610505565b600191505092915050565b6000600254905090565b60008061032e6104fd565b905061033b858285610517565b6103468585856105ac565b60019150509392505050565b60006012905090565b60025481565b60006020528060005260406000206000915090505481565b60008060008373ffffffffffffffffffffffffffffffffffffffff1673ffffffffffffffffffffffffffffffffffffffff168152602001908152602001600020549050919050565b6060600480546103d090610d48565b80601f01602080910402602001604051908101604052809291908181526020018280546103fc90610d48565b80156104495780601f1061041e57610100808354040283529160200191610449565b820191906000526020600020905b81548152906001019060200180831161042c57829003601f168201915b5050505050905090565b60008061045e6104fd565b905061046b8185856105ac565b600191505092915050565b6000600160008473ffffffffffffffffffffffffffffffffffffffff1673ffffffffffffffffffffffffffffffffffffffff16815260200190815260200160002060008373ffffffffffffffffffffffffffffffffffffffff1673ffffffffffffffffffffffffffffffffffffffff16815260200190815260200160002054905092915050565b600033905090565b61051283838360016106a0565b505050565b60006105238484610476565b90507fffffffffffffffffffffffffffffffffffffffffffffffffffffffffffffffff8110156105a65781811015610596578281836040517ffb8f41b200000000000000000000000000000000000000000000000000000000815260040161058d93929190610d88565b60405180910390fd5b6105a5848484840360006106a0565b5b50505050565b600073ffffffffffffffffffffffffffffffffffffffff168373ffffffffffffffffffffffffffffffffffffffff160361061e5760006040517f96c6fd1e0000000000000000000000000000000000000000000000000000000081526004016106159190610dbf565b60405180910390fd5b600073ffffffffffffffffffffffffffffffffffffffff168273ffffffffffffffffffffffffffffffffffffffff16036106905760006040517fec442f050000000000000000000000000000000000000000000000000000000081526004016106879190610dbf565b60405180910390fd5b61069b838383610877565b505050565b600073ffffffffffffffffffffffffffffffffffffffff168473ffffffffffffffffffffffffffffffffffffffff16036107125760006040517fe602df050000000000000000000000000000000000000000000000000000000081526004016107099190610dbf565b60405180910390fd5b600073ffffffffffffffffffffffffffffffffffffffff168373ffffffffffffffffffffffffffffffffffffffff16036107845760006040517f94280d6200000000000000000000000000000000000000000000000000000000815260040161077b9190610dbf565b60405180910390fd5b81600160008673ffffffffffffffffffffffffffffffffffffffff1673ffffffffffffffffffffffffffffffffffffffff16815260200190815260200160002060008573ffffffffffffffffffffffffffffffffffffffff1673ffffffffffffffffffffffffffffffffffffffff168152602001908152602001600020819055508015610871578273ffffffffffffffffffffffffffffffffffffffff168473ffffffffffffffffffffffffffffffffffffffff167f8c5be1e5ebec7d5bd14f71427d1e84f3dd0314c0f7b2291e5b200ac8c7c3b925846040516108689190610c07565b60405180910390a35b50505050565b600073ffffffffffffffffffffffffffffffffffffffff168373ffffffffffffffffffffffffffffffffffffffff16036108c95780600260008282546108bd9190610e09565b9250508190555061099c565b60008060008573ffffffffffffffffffffffffffffffffffffffff1673ffffffffffffffffffffffffffffffffffffffff16815260200190815260200160002054905081811015610955578381836040517fe450d38c00000000000000000000000000000000000000000000000000000000815260040161094c93929190610d88565b60405180910390fd5b8181036000808673ffffffffffffffffffffffffffffffffffffffff1673ffffffffffffffffffffffffffffffffffffffff16815260200190815260200160002081905550505b600073ffffffffffffffffffffffffffffffffffffffff168273ffffffffffffffffffffffffffffffffffffffff16036109e55780600260008282540392505081905550610a32565b806000808473ffffffffffffffffffffffffffffffffffffffff1673ffffffffffffffffffffffffffffffffffffffff168152602001908152602001600020600082825401925050819055505b505050565b600081519050919050565b600082825260208201905092915050565b60005b83811015610a71578082015181840152602081019050610a56565b60008484015250505050565b6000601f19601f8301169050919050565b6000610a9982610a37565b610aa38185610a42565b9350610ab3818560208601610a53565b610abc81610a7d565b840191505092915050565b60006020820190508181036000830152610ae18184610a8e565b905092915050565b600080fd5b600073ffffffffffffffffffffffffffffffffffffffff82169050919050565b6000610b1982610aee565b9050919050565b610b2981610b0e565b8114610b3457600080fd5b50565b600081359050610b4681610b20565b92915050565b6000819050919050565b610b5f81610b4c565b8114610b6a57600080fd5b50565b600081359050610b7c81610b56565b92915050565b60008060408385031215610b9957610b98610ae9565b5b6000610ba785828601610b37565b9250506020610bb885828601610b6d565b9150509250929050565b60008115159050919050565b610bd781610bc2565b82525050565b6000602082019050610bf26000830184610bce565b92915050565b610c0181610b4c565b82525050565b6000602082019050610c1c6000830184610bf8565b92915050565b600080600060608486031215610c3b57610c3a610ae9565b5b6000610c4986828701610b37565b9350506020610c5a86828701610b37565b9250506040610c6b86828701610b6d565b9150509250925092565b600060ff82169050919050565b610c8b81610c75565b82525050565b6000602082019050610ca66000830184610c82565b92915050565b600060208284031215610cc257610cc1610ae9565b5b6000610cd084828501610b37565b91505092915050565b60008060408385031215610cf057610cef610ae9565b5b6000610cfe85828601610b37565b9250506020610d0f85828601610b37565b9150509250929050565b7f4e487b7100000000000000000000000000000000000000000000000000000000600052602260045260246000fd5b60006002820490506001821680610d6057607f821691505b602082108103610d7357610d72610d19565b5b50919050565b610d8281610b0e565b82525050565b6000606082019050610d9d6000830186610d79565b610daa6020830185610bf8565b610db76040830184610bf8565b949350505050565b6000602082019050610dd46000830184610d79565b92915050565b7f4e487b7100000000000000000000000000000000000000000000000000000000600052601160045260246000fd5b6000610e1482610b4c565b9150610e1f83610b4c565b9250828201905080821115610e3757610e36610dda565b5b9291505056fea26469706673582212206f4694be2c4bf2deb7c3619226532379cb1f5c19fc946b1291260ccc8930a93664736f6c63430008140033",
  "linkReferences": {},
  "deployedLinkReferences": {}
}