{
  "_format": "hh-sol-artifact-1",
  "contractName": "ReentrancyGuardTestSender",
  "sourceName": "contracts/openzeppelin/reentrancy-guard/ReentrancyGuardTestSender.sol",
  "abi": [
    {
      "inputs": [],
      "stateMutability": "payable",
      "type": "constructor"
    },
    {
      "inputs": [],
      "name": "ReentrancyGuardReentrantCall",
      "type": "error"
    },
    {
      "inputs": [],
      "name": "counter",
      "outputs": [
        {
          "internalType": "uint256",
          "name": "",
          "type": "uint256"
        }
      ],
      "stateMutability": "view",
      "type": "function"
    },
    {
      "inputs": [],
      "name": "reentrancyTest",
      "outputs": [],
      "stateMutability": "nonpayable",
      "type": "function"
    },
    {
      "inputs": [],
      "name": "reentrancyTestNonReentrant",
      "outputs": [],
      "stateMutability": "nonpayable",
      "type": "function"
    },
    {
      "stateMutability": "payable",
      "type": "receive"
    }
  ],
  "bytecode": "0x60806040526000600181815590556101f48061001c6000396000f3fe6080604052600436106100385760003560e01c806361bc221a14610044578063c9b0b3b31461006c578063dd0994611461008357600080fd5b3661003f57005b600080fd5b34801561005057600080fd5b5061005a60015481565b60405190815260200160405180910390f35b34801561007857600080fd5b50610081610098565b005b34801561008f57600080fd5b5061008161010c565b6100a061016d565b600180546100ad91610197565b60015560405160009033906305f5e100908381818185875af1925050503d80600081146100f6576040519150601f19603f3d011682016040523d82523d6000602084013e6100fb565b606091505b505090505061010a6001600055565b565b6001805461011991610197565b60015560405160009033906305f5e100908381818185875af1925050503d8060008114610162576040519150601f19603f3d011682016040523d82523d6000602084013e610167565b606091505b50505050565b60026000540361019057604051633ee5aeb560e01b815260040160405180910390fd5b6002600055565b808201808211156101b857634e487b7160e01b600052601160045260246000fd5b9291505056fea26469706673582212202b087cd8ae770b78e95f3f2072a87682439f64279538fc4ffb6203a8881e2abc64736f6c63430008170033",
  "linkReferences": {},
  "deployedLinkReferences": {}
}