{
  "_format": "hh-sol-artifact-1",
  "contractName": "UtilPrecompileMock",
  "sourceName": "contracts/mocks/util-precompile/UtilPrecompileMock.sol",
  "abi": [
    {
      "inputs": [],
      "name": "getPseudorandomSeed",
      "outputs": [
        {
          "internalType": "bytes32",
          "name": "",
          "type": "bytes32"
        }
      ],
      "stateMutability": "nonpayable",
      "type": "function"
    }
  ],
  "bytecode": "0x6080604052348015600e575f80fd5b5060c38061001b5f395ff3fe6080604052348015600e575f80fd5b50600436106026575f3560e01c8063d83bf9a114602a575b5f80fd5b5f80546040805160208082019390935242818301524360608083019190915233901b6bffffffffffffffffffffffff1916608082015281518082036074018152609490910190915280519101209081905560405190815260200160405180910390f3fea2646970667358221220785f554ab9cc3a2dbfb1f487cf65c2d71be830dffa75fe96393eccb1770e9c9464736f6c63430008140033",
  "linkReferences": {},
  "deployedLinkReferences": {}
}