{
  "_format": "hh-sol-artifact-1",
  "contractName": "PrngSystemContract",
  "sourceName": "contracts/util-precompile/PrngSystemContract.sol",
  "abi": [
    {
      "inputs": [],
      "name": "getPseudorandomSeed",
      "outputs": [
        {
          "internalType": "bytes32",
          "name": "seedBytes",
          "type": "bytes32"
        }
      ],
      "stateMutability": "nonpayable",
      "type": "function"
    }
  ],
  "bytecode": "0x608060405234801561001057600080fd5b506101db806100206000396000f3fe608060405234801561001057600080fd5b506004361061002b5760003560e01c8063d83bf9a114610030575b600080fd5b61003861004a565b60405190815260200160405180910390f35b60408051600481526024810182526020810180517bffffffffffffffffffffffffffffffffffffffffffffffffffffffff1663d83bf9a160e01b1790529051600091829182916101699161009e9190610151565b6000604051808303816000865af19150503d80600081146100db576040519150601f19603f3d011682016040523d82523d6000602084013e6100e0565b606091505b5091509150816101365760405162461bcd60e51b815260206004820152601760248201527f50524e472073797374656d2063616c6c206661696c6564000000000000000000604482015260640160405180910390fd5b8080602001905181019061014a919061018c565b9250505090565b6000825160005b818110156101725760208186018101518583015201610158565b81811115610181576000828501525b509190910192915050565b60006020828403121561019e57600080fd5b505191905056fea2646970667358221220a49136322f882409d1b5c3cc11651540955e4d28743f8bfad05ebdb9f1e7e58464736f6c63430008090033",
  "linkReferences": {},
  "deployedLinkReferences": {}
}