{
  "_format": "hh-sol-artifact-1",
  "contractName": "Precompiles",
  "sourceName": "contracts/solidity/precompiles/Precompiles.sol",
  "abi": [
    {
      "anonymous": false,
      "inputs": [
        {
          "indexed": false,
          "internalType": "bytes",
          "name": "data",
          "type": "bytes"
        }
      ],
      "name": "DebugBytes",
      "type": "event"
    },
    {
      "anonymous": false,
      "inputs": [
        {
          "indexed": false,
          "internalType": "uint256",
          "name": "value",
          "type": "uint256"
        }
      ],
      "name": "DebugUint256",
      "type": "event"
    },
    {
      "inputs": [
        {
          "internalType": "uint32",
          "name": "rounds",
          "type": "uint32"
        },
        {
          "internalType": "bytes32[2]",
          "name": "h",
          "type": "bytes32[2]"
        },
        {
          "internalType": "bytes32[4]",
          "name": "m",
          "type": "bytes32[4]"
        },
        {
          "internalType": "bytes8[2]",
          "name": "t",
          "type": "bytes8[2]"
        },
        {
          "internalType": "bool",
          "name": "f",
          "type": "bool"
        }
      ],
      "name": "blake2",
      "outputs": [
        {
          "internalType": "bytes32[2]",
          "name": "",
          "type": "bytes32[2]"
        }
      ],
      "stateMutability": "nonpayable",
      "type": "function"
    },
    {
      "inputs": [
        {
          "internalType": "string",
          "name": "input",
          "type": "string"
        }
      ],
      "name": "computeRipemd160Hash",
      "outputs": [
        {
          "internalType": "bytes20",
          "name": "",
          "type": "bytes20"
        }
      ],
      "stateMutability": "pure",
      "type": "function"
    },
    {
      "inputs": [
        {
          "internalType": "string",
          "name": "input",
          "type": "string"
        }
      ],
      "name": "computeSha256Hash",
      "outputs": [
        {
          "internalType": "bytes32",
          "name": "",
          "type": "bytes32"
        }
      ],
      "stateMutability": "pure",
      "type": "function"
    },
    {
      "inputs": [
        {
          "internalType": "uint256[2]",
          "name": "point1",
          "type": "uint256[2]"
        },
        {
          "internalType": "uint256[2]",
          "name": "point2",
          "type": "uint256[2]"
        }
      ],
      "name": "ecAdd",
      "outputs": [
        {
          "internalType": "uint256[2]",
          "name": "result",
          "type": "uint256[2]"
        }
      ],
      "stateMutability": "view",
      "type": "function"
    },
    {
      "inputs": [
        {
          "internalType": "uint256[2]",
          "name": "point",
          "type": "uint256[2]"
        },
        {
          "internalType": "uint256",
          "name": "k",
          "type": "uint256"
        },
        {
          "internalType": "uint256",
          "name": "prime",
          "type": "uint256"
        }
      ],
      "name": "ecMul",
      "outputs": [
        {
          "internalType": "uint256[2]",
          "name": "result",
          "type": "uint256[2]"
        }
      ],
      "stateMutability": "nonpayable",
      "type": "function"
    },
    {
      "inputs": [
        {
          "internalType": "uint256[2]",
          "name": "_pA",
          "type": "uint256[2]"
        },
        {
          "internalType": "uint256[2][2]",
          "name": "_pB",
          "type": "uint256[2][2]"
        },
        {
          "internalType": "uint256[2]",
          "name": "_pC",
          "type": "uint256[2]"
        },
        {
          "internalType": "uint256[1]",
          "name": "_pubSignals",
          "type": "uint256[1]"
        }
      ],
      "name": "ecPairing",
      "outputs": [
        {
          "internalType": "bool",
          "name": "",
          "type": "bool"
        }
      ],
      "stateMutability": "view",
      "type": "function"
    },
    {
      "inputs": [
        {
          "internalType": "uint256",
          "name": "input",
          "type": "uint256"
        }
      ],
      "name": "getIdentity",
      "outputs": [
        {
          "internalType": "uint256",
          "name": "",
          "type": "uint256"
        }
      ],
      "stateMutability": "pure",
      "type": "function"
    },
    {
      "inputs": [
        {
          "internalType": "uint256[2]",
          "name": "point",
          "type": "uint256[2]"
        },
        {
          "internalType": "uint256",
          "name": "prime",
          "type": "uint256"
        }
      ],
      "name": "isOnCurve",
      "outputs": [
        {
          "internalType": "bool",
          "name": "",
          "type": "bool"
        }
      ],
      "stateMutability": "pure",
      "type": "function"
    },
    {
      "inputs": [
        {
          "internalType": "uint256",
          "name": "base",
          "type": "uint256"
        },
        {
          "internalType": "uint256",
          "name": "exponent",
          "type": "uint256"
        },
        {
          "internalType": "uint256",
          "name": "modulus",
          "type": "uint256"
        }
      ],
      "name": "modExp",
      "outputs": [
        {
          "internalType": "uint256",
          "name": "result",
          "type": "uint256"
        }
      ],
      "stateMutability": "nonpayable",
      "type": "function"
    },
    {
      "inputs": [
        {
          "internalType": "bytes32",
          "name": "hashedMessage",
          "type": "bytes32"
        },
        {
          "internalType": "uint8",
          "name": "v",
          "type": "uint8"
        },
        {
          "internalType": "bytes32",
          "name": "r",
          "type": "bytes32"
        },
        {
          "internalType": "bytes32",
          "name": "s",
          "type": "bytes32"
        },
        {
          "internalType": "address",
          "name": "expectedSigner",
          "type": "address"
        }
      ],
      "name": "verifySignature",
      "outputs": [
        {
          "internalType": "bool",
          "name": "",
          "type": "bool"
        }
      ],
      "stateMutability": "pure",
      "type": "function"
    }
  ],
  "bytecode": "0x608060405234801561001057600080fd5b50611143806100206000396000f3fe608060405234801561001057600080fd5b506004361061009e5760003560e01c806385e3f0581161006657806385e3f05814610132578063882beca414610147578063a044ed911461015a578063a867d0ca1461016d578063ec00e0ce1461018057600080fd5b806320d083be146100a357806329bcb04d146100cb5780633148f14f146100ec5780635b053f20146100ff5780636f7dad291461011f575b600080fd5b6100b66100b1366004610c11565b6101b1565b60405190151581526020015b60405180910390f35b6100de6100d9366004610c3c565b610214565b6040519081526020016100c2565b6100de6100fa366004610ced565b610283565b61011261010d366004610d19565b61040d565b6040516100c29190610d4d565b61011261012d366004610e07565b6104a5565b6100de610140366004610eee565b5060043590565b6100b6610155366004610f18565b6105b4565b6100b6610168366004610f7e565b610a15565b61011261017b366004610ff3565b610a9e565b61019361018e366004610c3c565b610aea565b6040516bffffffffffffffffffffffff1990911681526020016100c2565b81516020830151600091908284806101cb576101cb611028565b8283099050600085806101e0576101e0611028565b600387806101f0576101f0611028565b8689806101ff576101ff611028565b88890909089190911493505050505b92915050565b60006002826040516020016102299190611062565b60408051601f198184030181529082905261024391611062565b602060405180830381855afa158015610260573d6000803e3d6000fd5b5050506040513d601f19601f8201168201806040525081019061020e919061107e565b6040518381526000906020907f43d4b4706539f9e22baf8767ebea21ad24f723f14b6981664ac4d0af596dddbe90820160405180910390a16040518481527f43d4b4706539f9e22baf8767ebea21ad24f723f14b6981664ac4d0af596dddbe9060200160405180910390a16040518381527f43d4b4706539f9e22baf8767ebea21ad24f723f14b6981664ac4d0af596dddbe9060200160405180910390a17faf5a5af90a78ece430d7df503b54fc4070844db69884a9a4afb00710a4816e538560405160200161035591815260200190565b60408051601f1981840301815282825260208301889052910160408051601f1981840301815282825260208301889052910160408051601f19818403018152908290526103a6939291602001611097565b60408051601f19818403018152908290526103c0916110da565b60405180910390a16040518181528160208201528160408201528560608201528460808201528360a082015260208160c08360006005600019f161040357600080fd5b5195945050505050565b610415610b46565b61041f84836101b1565b61046f5760405162461bcd60e51b815260206004820152601960248201527f506f696e74206973206e6f74206f6e2074686520637572766500000000000000604482015260640160405180910390fd5b604051845181526020850151602082015283604082015260408160608360006007600019f161049d57600080fd5b949350505050565b6104ad610b46565b6104b5610b46565b600087878260200201518860016020020151886000602002015189600160200201518a600260200201518b600360200201518b600060200201518c6001602090810291909101516040517fffffffff0000000000000000000000000000000000000000000000000000000060e09b909b1b9a909a16918a0191909152602489019790975260448801959095526064870193909352608486019190915260a485015260c48401526001600160c01b031990811660e48401521660ec82015284151560f81b60f482015260f501604051602081830303815290604052905060408260d5602084016009600019fa6105a957600080fd5b509695505050505050565b60006109d7565b7f30644e72e131a029b85045b68181585d97816a916871ca8d3c208c16d87cfd4781106105ec576000805260206000f35b50565b600060405183815284602082015285604082015260408160608360076107d05a03fa915081610622576000805260206000f35b825160408201526020830151606082015260408360808360066107d05a03fa91505080610653576000805260206000f35b5050505050565b7f13bf597436e86b6a6cb22056689a0939d14f28a4e4b45c840c7cc16c3515b72385527f124d0e025bf1c4c1d8e689b45c7337aecb6d9fc454f1da47efc4ff310efad0f16020860152600060808601866106f787357f29f868ed2d8391d33354210603033fab4cdfc1b49d742fb8e55f71b7dded7ed77f1772c761cecc02547d68d90699d888775f490d41f2745c5cf21033a012f92ab5846105ef565b50823581527f30644e72e131a029b85045b68181585d97816a916871ca8d3c208c16d87cfd4760208401357f30644e72e131a029b85045b68181585d97816a916871ca8d3c208c16d87cfd4703066020820152833560408201526020840135606082015260408401356080820152606084013560a08201527f04678aa097c41849346c22e2c6ba468610cd7f96fc57a558cab4cb289948688660c08201527f2637c0b3c7ccb58e7810bab221dcc6cf104bff744082d6407e0cd8a6471f4e7d60e08201527f1a73912db196f1079d62c53b574f73e5e00fcc5f278e9aafec4e611cfda25a656101008201527f1b1f63d56234497ccf10d4e118e6de33f84ec5aa33774bf91533c624f29b8fca6101208201527f2f09bc71b4dad92a1edbc06fe348240b7690094f50211f85b796d24612017e006101408201527f19b433129fb924cc4b84374b8f560ded19d548f4cfd8522fb07271dc46a27e68610160820152600087015161018082015260206000018701516101a08201527f198e9393920d483a7260bfb731fb5d25f1aa493335a9e71297e485b7aef312c26101c08201527f1800deef121f1e76426a00665e5c4479674322d4f75edadd46debd5cd992f6ed6101e08201527f090689d0585ff075ec9e99ad690c3395bc4b313370b38ef355acdadcd122975b6102008201527f12c85ea5db8c6deb4aab71808dcb408fe3d1e7690c43d37b4ce6cc0166fa7daa610220820152843561024082015260208501356102608201527f04717af06bf4db421d548efd0a7ea57997677fd5a91fbf72cbd67dd2c14baab06102808201527f052062f5cc1bc3e4f88479a2e483d650e3c7d393c0b87c214b6266c53520e21f6102a08201527f1668f5d4ce00503fa7def4138f9f62b45ac62a4128658eff32008872768eb14e6102c08201527f16a66275ba6bf32278578785503bc6ca8d776da1ae142eca87a98b3d9868c64e6102e08201526020816103008360086107d05a03fa9051169695505050505050565b60405161038081016040526109ef60008401356105bb565b6109fc60208401356105bb565b610a09818486888a61065a565b90508060005260206000f35b6040805160008082526020820180845288905260ff8716928201929092526060810185905260808101849052819060019060a0016020604051602081039080840390855afa158015610a6b573d6000803e3d6000fd5b5050604051601f19015173ffffffffffffffffffffffffffffffffffffffff908116908516149250505095945050505050565b610aa6610b46565b610aae610b64565b83518152602080850151828201528351604080840191909152908401516060830152826080836006600019fa610ae357600080fd5b5092915050565b6000600382604051602001610aff9190611062565b60408051601f1981840301815290829052610b1991611062565b602060405180830381855afa158015610b36573d6000803e3d6000fd5b50506040515160601b9392505050565b60405180604001604052806002906020820280368337509192915050565b60405180608001604052806004906020820280368337509192915050565b634e487b7160e01b600052604160045260246000fd5b6040805190810167ffffffffffffffff81118282101715610bbb57610bbb610b82565b60405290565b600082601f830112610bd257600080fd5b610bda610b98565b806040840185811115610bec57600080fd5b845b81811015610c06578035845260209384019301610bee565b509095945050505050565b60008060608385031215610c2457600080fd5b610c2e8484610bc1565b946040939093013593505050565b600060208284031215610c4e57600080fd5b813567ffffffffffffffff80821115610c6657600080fd5b818401915084601f830112610c7a57600080fd5b813581811115610c8c57610c8c610b82565b604051601f8201601f19908116603f01168101908382118183101715610cb457610cb4610b82565b81604052828152876020848701011115610ccd57600080fd5b826020860160208301376000928101602001929092525095945050505050565b600080600060608486031215610d0257600080fd5b505081359360208301359350604090920135919050565b600080600060808486031215610d2e57600080fd5b610d388585610bc1565b95604085013595506060909401359392505050565b60408101818360005b6002811015610d75578151835260209283019290910190600101610d56565b50505092915050565b6000610d88610b98565b9050806040830184811115610d9c57600080fd5b835b81811015610d75578035835260209283019201610d9e565b60006040516080810181811067ffffffffffffffff82111715610ddb57610ddb610b82565b6040529050806080830184811115610d9c57600080fd5b80358015158114610e0257600080fd5b919050565b60008060008060006101408688031215610e2057600080fd5b853563ffffffff81168114610e3457600080fd5b94506020603f87018813610e4757600080fd5b610e548860208901610d7e565b945087607f880112610e6557600080fd5b610e728860608901610db6565b93508760ff880112610e8357600080fd5b610e8b610b98565b8061012089018a811115610e9e57600080fd5b60e08a015b81811015610ed15780356001600160c01b031981168114610ec45760008081fd5b8452928401928401610ea3565b50819550610ede81610df2565b9450505050509295509295909350565b600060208284031215610f0057600080fd5b5035919050565b806040810183101561020e57600080fd5b600080600080610120808688031215610f3057600080fd5b610f3a8787610f07565b945060c0860187811115610f4d57600080fd5b604087019450610f5d8882610f07565b935050868187011115610f6f57600080fd5b50929591945092610100019150565b600080600080600060a08688031215610f9657600080fd5b85359450602086013560ff81168114610fae57600080fd5b93506040860135925060608601359150608086013573ffffffffffffffffffffffffffffffffffffffff81168114610fe557600080fd5b809150509295509295909350565b6000806080838503121561100657600080fd5b6110108484610bc1565b915061101f8460408501610bc1565b90509250929050565b634e487b7160e01b600052601260045260246000fd5b60005b83811015611059578181015183820152602001611041565b50506000910152565b6000825161107481846020870161103e565b9190910192915050565b60006020828403121561109057600080fd5b5051919050565b600084516110a981846020890161103e565b8451908301906110bd81836020890161103e565b84519101906110d081836020880161103e565b0195945050505050565b60208152600082518060208401526110f981604085016020870161103e565b601f01601f1916919091016040019291505056fea2646970667358221220f3203d3c8cc62f3b2a80b9ad2e7bb9dfece058e329ff845f433112fd89c36c6f64736f6c63430008170033",
  "linkReferences": {},
  "deployedLinkReferences": {}
}