{
  "_format": "hh-sol-artifact-1",
  "contractName": "VoteV2",
  "sourceName": "contracts/solidity/oz/ERC1967Upgrade/VoteV2.sol",
  "abi": [
    {
      "inputs": [],
      "stateMutability": "nonpayable",
      "type": "constructor"
    },
    {
      "inputs": [],
      "name": "InvalidInitialization",
      "type": "error"
    },
    {
      "inputs": [],
      "name": "NotInitializing",
      "type": "error"
    },
    {
      "inputs": [],
      "name": "Voter_Has_Already_Voted",
      "type": "error"
    },
    {
      "inputs": [],
      "name": "Voter_Has_Not_Voted",
      "type": "error"
    },
    {
      "anonymous": false,
      "inputs": [
        {
          "indexed": false,
          "internalType": "uint64",
          "name": "version",
          "type": "uint64"
        }
      ],
      "name": "Initialized",
      "type": "event"
    },
    {
      "inputs": [],
      "name": "initialize",
      "outputs": [],
      "stateMutability": "nonpayable",
      "type": "function"
    },
    {
      "inputs": [],
      "name": "initializeV2",
      "outputs": [],
      "stateMutability": "nonpayable",
      "type": "function"
    },
    {
      "inputs": [],
      "name": "version",
      "outputs": [
        {
          "internalType": "uint256",
          "name": "",
          "type": "uint256"
        }
      ],
      "stateMutability": "view",
      "type": "function"
    },
    {
      "inputs": [],
      "name": "vote",
      "outputs": [],
      "stateMutability": "nonpayable",
      "type": "function"
    },
    {
      "inputs": [
        {
          "internalType": "address",
          "name": "voter",
          "type": "address"
        }
      ],
      "name": "voted",
      "outputs": [
        {
          "internalType": "bool",
          "name": "",
          "type": "bool"
        }
      ],
      "stateMutability": "view",
      "type": "function"
    },
    {
      "inputs": [],
      "name": "voters",
      "outputs": [
        {
          "internalType": "address[]",
          "name": "",
          "type": "address[]"
        }
      ],
      "stateMutability": "view",
      "type": "function"
    },
    {
      "inputs": [],
      "name": "withdrawVote",
      "outputs": [],
      "stateMutability": "nonpayable",
      "type": "function"
    }
  ],
  "bytecode": "0x608060405234801561001057600080fd5b506002600055610697806100256000396000f3fe608060405234801561001057600080fd5b506004361061007d5760003560e01c8063632a9a521161005b578063632a9a52146100bb5780638129fc1c146100c3578063aec2ccae146100cb578063d83eb2311461010757600080fd5b8063350580ea1461008257806354fd4d50146100a05780635cd8a76b146100b1575b600080fd5b61008a61010f565b604051610097919061055d565b60405180910390f35b600054604051908152602001610097565b6100b9610171565b005b6100b9610249565b6100b96102d4565b6100f76100d93660046105aa565b6001600160a01b031660009081526002602052604090205460ff1690565b6040519015158152602001610097565b6100b96103e9565b6060600180548060200260200160405190810160405280929190818152602001828054801561016757602002820191906000526020600020905b81546001600160a01b03168152600190910190602001808311610149575b5050505050905090565b7ff0c57e16840df040f15088dc2f81fe391c3923bec73e23a9662efc9c229c6a00805460029190600160401b900460ff16806101bb5750805467ffffffffffffffff808416911610155b156101d95760405163f92ee8a960e01b815260040160405180910390fd5b805468ffffffffffffffffff191667ffffffffffffffff8316908117600160401b1782556002600055815468ff0000000000000000191682556040519081527fc7f505b2f371ae2175ee4913f4499e1f2633a7b5936321eed1cdaeb6115181d29060200160405180910390a15050565b3360008181526002602052604090205460ff161561027a57604051633b1dbd5760e11b815260040160405180910390fd5b506001805480820182557fb10e2d527612073b26eecdfd717e6a320cf44b4afac2b0732d9fcbe2b7fa0cf60180546001600160a01b031916339081179091556000908152600260205260409020805460ff19169091179055565b7ff0c57e16840df040f15088dc2f81fe391c3923bec73e23a9662efc9c229c6a008054600160401b810460ff16159067ffffffffffffffff1660008115801561031a5750825b905060008267ffffffffffffffff1660011480156103375750303b155b905081158015610345575080155b156103635760405163f92ee8a960e01b815260040160405180910390fd5b845467ffffffffffffffff19166001178555831561039257845468ff00000000000000001916600160401b1785555b600160005583156103e257845468ff000000000000000019168555604051600181527fc7f505b2f371ae2175ee4913f4499e1f2633a7b5936321eed1cdaeb6115181d29060200160405180910390a15b5050505050565b3360008181526002602052604090205460ff1661041957604051630919808b60e01b815260040160405180910390fd5b60005b60015481101561050f57336001600160a01b031660018281548110610443576104436105da565b6000918252602090912001546001600160a01b0316036104fd57805b6001805461046d9190610606565b8110156104f7576001610480828261061f565b81548110610490576104906105da565b600091825260209091200154600180546001600160a01b0390921691839081106104bc576104bc6105da565b600091825260209091200180546001600160a01b0319166001600160a01b0392909216919091179055806104ef81610632565b91505061045f565b5061050f565b8061050781610632565b91505061041c565b50336000908152600260205260409020805460ff1916905560018054806105385761053861064b565b600082815260209020810160001990810180546001600160a01b031916905501905550565b6020808252825182820181905260009190848201906040850190845b8181101561059e5783516001600160a01b031683529284019291840191600101610579565b50909695505050505050565b6000602082840312156105bc57600080fd5b81356001600160a01b03811681146105d357600080fd5b9392505050565b634e487b7160e01b600052603260045260246000fd5b634e487b7160e01b600052601160045260246000fd5b81810381811115610619576106196105f0565b92915050565b80820180821115610619576106196105f0565b600060018201610644576106446105f0565b5060010190565b634e487b7160e01b600052603160045260246000fdfea2646970667358221220630d3e90f82dfc720dfcd547ec09d18171bd728b0d65ce0d415f17af7aee6ebf64736f6c63430008140033",
  "linkReferences": {},
  "deployedLinkReferences": {}
}