{
  "_format": "hh-sol-artifact-1",
  "contractName": "VoteV2",
  "sourceName": "contracts/solidity/oz/ERC1967Upgrade/VoteV2.sol",
  "abi": [
    {
      "inputs": [],
      "stateMutability": "nonpayable",
      "type": "constructor"
    },
    {
      "inputs": [],
      "name": "Voter_Has_Already_Voted",
      "type": "error"
    },
    {
      "inputs": [],
      "name": "Voter_Has_Not_Voted",
      "type": "error"
    },
    {
      "inputs": [],
      "name": "version",
      "outputs": [
        {
          "internalType": "uint256",
          "name": "",
          "type": "uint256"
        }
      ],
      "stateMutability": "view",
      "type": "function"
    },
    {
      "inputs": [],
      "name": "vote",
      "outputs": [],
      "stateMutability": "nonpayable",
      "type": "function"
    },
    {
      "inputs": [
        {
          "internalType": "address",
          "name": "voter",
          "type": "address"
        }
      ],
      "name": "voted",
      "outputs": [
        {
          "internalType": "bool",
          "name": "",
          "type": "bool"
        }
      ],
      "stateMutability": "view",
      "type": "function"
    },
    {
      "inputs": [],
      "name": "voters",
      "outputs": [
        {
          "internalType": "address[]",
          "name": "",
          "type": "address[]"
        }
      ],
      "stateMutability": "view",
      "type": "function"
    },
    {
      "inputs": [],
      "name": "withdrawVote",
      "outputs": [],
      "stateMutability": "nonpayable",
      "type": "function"
    }
  ],
  "bytecode": "0x608060405234801561001057600080fd5b506002600055610474806100256000396000f3fe608060405234801561001057600080fd5b50600436106100575760003560e01c8063350580ea1461005c57806354fd4d501461007a578063632a9a521461008b578063aec2ccae14610095578063d83eb231146100d1575b600080fd5b6100646100d9565b604051610071919061033a565b60405180910390f35b600054604051908152602001610071565b61009361013b565b005b6100c16100a3366004610387565b6001600160a01b031660009081526002602052604090205460ff1690565b6040519015158152602001610071565b6100936101c6565b6060600180548060200260200160405190810160405280929190818152602001828054801561013157602002820191906000526020600020905b81546001600160a01b03168152600190910190602001808311610113575b5050505050905090565b3360008181526002602052604090205460ff161561016c57604051633b1dbd5760e11b815260040160405180910390fd5b506001805480820182557fb10e2d527612073b26eecdfd717e6a320cf44b4afac2b0732d9fcbe2b7fa0cf60180546001600160a01b031916339081179091556000908152600260205260409020805460ff19169091179055565b3360008181526002602052604090205460ff166101f657604051630919808b60e01b815260040160405180910390fd5b60005b6001548110156102ec57336001600160a01b031660018281548110610220576102206103b7565b6000918252602090912001546001600160a01b0316036102da57805b6001805461024a91906103e3565b8110156102d457600161025d82826103fc565b8154811061026d5761026d6103b7565b600091825260209091200154600180546001600160a01b039092169183908110610299576102996103b7565b600091825260209091200180546001600160a01b0319166001600160a01b0392909216919091179055806102cc8161040f565b91505061023c565b506102ec565b806102e48161040f565b9150506101f9565b50336000908152600260205260409020805460ff19169055600180548061031557610315610428565b600082815260209020810160001990810180546001600160a01b031916905501905550565b6020808252825182820181905260009190848201906040850190845b8181101561037b5783516001600160a01b031683529284019291840191600101610356565b50909695505050505050565b60006020828403121561039957600080fd5b81356001600160a01b03811681146103b057600080fd5b9392505050565b634e487b7160e01b600052603260045260246000fd5b634e487b7160e01b600052601160045260246000fd5b818103818111156103f6576103f66103cd565b92915050565b808201808211156103f6576103f66103cd565b600060018201610421576104216103cd565b5060010190565b634e487b7160e01b600052603160045260246000fdfea2646970667358221220d03626254e31edb4a34bdd3043f89c264e2515a2bf73b44a18be8a42725f7e1d64736f6c63430008140033",
  "linkReferences": {},
  "deployedLinkReferences": {}
}