{
  "_format": "hh-sol-artifact-1",
  "contractName": "ExchangeRatePrecompileMock",
  "sourceName": "contracts/mocks/exchange-rate-precompile/ExchangeRatePrecompileMock.sol",
  "abi": [
    {
      "inputs": [],
      "name": "getCurrentRate",
      "outputs": [
        {
          "internalType": "uint256",
          "name": "",
          "type": "uint256"
        }
      ],
      "stateMutability": "view",
      "type": "function"
    },
    {
      "inputs": [
        {
          "internalType": "uint256",
          "name": "tinybars",
          "type": "uint256"
        }
      ],
      "name": "tinybarsToTinycents",
      "outputs": [
        {
          "internalType": "uint256",
          "name": "",
          "type": "uint256"
        }
      ],
      "stateMutability": "nonpayable",
      "type": "function"
    },
    {
      "inputs": [
        {
          "internalType": "uint256",
          "name": "tinycents",
          "type": "uint256"
        }
      ],
      "name": "tinycentsToTinybars",
      "outputs": [
        {
          "internalType": "uint256",
          "name": "",
          "type": "uint256"
        }
      ],
      "stateMutability": "nonpayable",
      "type": "function"
    },
    {
      "inputs": [
        {
          "internalType": "uint256",
          "name": "newRate",
          "type": "uint256"
        }
      ],
      "name": "updateRate",
      "outputs": [],
      "stateMutability": "nonpayable",
      "type": "function"
    }
  ],
  "bytecode": "0x608060405234801561000f575f80fd5b5061025d8061001d5f395ff3fe608060405234801561000f575f80fd5b506004361061004a575f3560e01c80632e3cff6a1461004e57806343a882291461007357806369ea177114610086578063f7fb07b01461009b575b5f80fd5b61006161005c3660046101ce565b6100a2565b60405190815260200160405180910390f35b6100616100813660046101ce565b61011a565b6100996100943660046101ce565b61017b565b005b5f54610061565b5f805f54116100f85760405162461bcd60e51b815260206004820152601b60248201527f52617465206d7573742062652067726561746572207468616e2030000000000060448201526064015b60405180910390fd5b6305f5e1005f548361010a91906101e5565b6101149190610208565b92915050565b5f805f541161016b5760405162461bcd60e51b815260206004820152601b60248201527f52617465206d7573742062652067726561746572207468616e2030000000000060448201526064016100ef565b5f5461010a836305f5e1006101e5565b5f81116101ca5760405162461bcd60e51b815260206004820152601f60248201527f4e65772072617465206d7573742062652067726561746572207468616e20300060448201526064016100ef565b5f55565b5f602082840312156101de575f80fd5b5035919050565b808202811582820484141761011457634e487b7160e01b5f52601160045260245ffd5b5f8261022257634e487b7160e01b5f52601260045260245ffd5b50049056fea2646970667358221220fd804c07675e4b6e6283449a17de3c8f2af6948b66e8cde4df5feced8ccafac664736f6c63430008140033",
  "linkReferences": {},
  "deployedLinkReferences": {}
}