{
  "_format": "hh-sol-artifact-1",
  "contractName": "ExchangeRatePrecompileMock",
  "sourceName": "contracts/mocks/exchange-rate-precompile/ExchangeRatePrecompileMock.sol",
  "abi": [
    {
      "inputs": [],
      "name": "getCurrentRate",
      "outputs": [
        {
          "internalType": "uint256",
          "name": "",
          "type": "uint256"
        }
      ],
      "stateMutability": "view",
      "type": "function"
    },
    {
      "inputs": [
        {
          "internalType": "uint256",
          "name": "tinybars",
          "type": "uint256"
        }
      ],
      "name": "tinybarsToTinycents",
      "outputs": [
        {
          "internalType": "uint256",
          "name": "",
          "type": "uint256"
        }
      ],
      "stateMutability": "nonpayable",
      "type": "function"
    },
    {
      "inputs": [
        {
          "internalType": "uint256",
          "name": "tinycents",
          "type": "uint256"
        }
      ],
      "name": "tinycentsToTinybars",
      "outputs": [
        {
          "internalType": "uint256",
          "name": "",
          "type": "uint256"
        }
      ],
      "stateMutability": "nonpayable",
      "type": "function"
    },
    {
      "inputs": [
        {
          "internalType": "uint256",
          "name": "newRate",
          "type": "uint256"
        }
      ],
      "name": "updateRate",
      "outputs": [],
      "stateMutability": "nonpayable",
      "type": "function"
    }
  ],
  "bytecode": "0x608060405234801561001057600080fd5b50610278806100206000396000f3fe608060405234801561001057600080fd5b506004361061004c5760003560e01c80632e3cff6a1461005157806343a882291461007657806369ea177114610089578063f7fb07b01461009e575b600080fd5b61006461005f3660046101da565b6100a6565b60405190815260200160405180910390f35b6100646100843660046101da565b610121565b61009c6100973660046101da565b610185565b005b600054610064565b600080600054116100fe5760405162461bcd60e51b815260206004820152601b60248201527f52617465206d7573742062652067726561746572207468616e2030000000000060448201526064015b60405180910390fd5b6305f5e1006000548361011191906101f3565b61011b9190610220565b92915050565b600080600054116101745760405162461bcd60e51b815260206004820152601b60248201527f52617465206d7573742062652067726561746572207468616e2030000000000060448201526064016100f5565b600054610111836305f5e1006101f3565b600081116101d55760405162461bcd60e51b815260206004820152601f60248201527f4e65772072617465206d7573742062652067726561746572207468616e20300060448201526064016100f5565b600055565b6000602082840312156101ec57600080fd5b5035919050565b600081600019048311821515161561021b57634e487b7160e01b600052601160045260246000fd5b500290565b60008261023d57634e487b7160e01b600052601260045260246000fd5b50049056fea264697066735822122014585a78c8a3633b8ef783e1d81f787f273fc188c4822c47531bc04abc2ca02c64736f6c63430008090033",
  "linkReferences": {},
  "deployedLinkReferences": {}
}