{
  "_format": "hh-sol-artifact-1",
  "contractName": "ContractCreator",
  "sourceName": "contracts/yul/contract-creator/ContractCreator.sol",
  "abi": [
    {
      "anonymous": false,
      "inputs": [
        {
          "indexed": false,
          "internalType": "address",
          "name": "contractAddress",
          "type": "address"
        }
      ],
      "name": "NewContractCreated",
      "type": "event"
    },
    {
      "inputs": [
        {
          "internalType": "bytes",
          "name": "bytecode",
          "type": "bytes"
        },
        {
          "internalType": "uint256",
          "name": "salt",
          "type": "uint256"
        }
      ],
      "name": "create2NewContract",
      "outputs": [],
      "stateMutability": "payable",
      "type": "function"
    },
    {
      "inputs": [
        {
          "internalType": "bytes",
          "name": "bytecode",
          "type": "bytes"
        }
      ],
      "name": "createNewContract",
      "outputs": [],
      "stateMutability": "payable",
      "type": "function"
    }
  ],
  "bytecode": "0x608060405234801561001057600080fd5b50610287806100206000396000f3fe6080604052600436106100295760003560e01c8063669bd3361461002e578063e04d19ac14610043575b600080fd5b61004161003c3660046101cf565b610056565b005b610041610051366004610214565b6100c2565b60003483516020850184828285f59350505050803b61007457600080fd5b60405173ffffffffffffffffffffffffffffffffffffffff821681527fda8571e58c4cf9dcae24580090e9dcfc82718f76bc81df86f8f18cfd0d6ad2609060200160405180910390a1505050565b600034825160208401818184f09350505050803b6100df57600080fd5b60405173ffffffffffffffffffffffffffffffffffffffff821681527fda8571e58c4cf9dcae24580090e9dcfc82718f76bc81df86f8f18cfd0d6ad2609060200160405180910390a15050565b634e487b7160e01b600052604160045260246000fd5b600082601f83011261015357600080fd5b813567ffffffffffffffff8082111561016e5761016e61012c565b604051601f8301601f19908116603f011681019082821181831017156101965761019661012c565b816040528381528660208588010111156101af57600080fd5b836020870160208301376000602085830101528094505050505092915050565b600080604083850312156101e257600080fd5b823567ffffffffffffffff8111156101f957600080fd5b61020585828601610142565b95602094909401359450505050565b60006020828403121561022657600080fd5b813567ffffffffffffffff81111561023d57600080fd5b61024984828501610142565b94935050505056fea2646970667358221220e15eb4ec11c9cfeacf9b405257f1826ccb3c12cf76ef0a3e915fa1b0a6bde8da64736f6c63430008170033",
  "linkReferences": {},
  "deployedLinkReferences": {}
}