{
  "_format": "hh-sol-artifact-1",
  "contractName": "ReentrancyGuardTestReceiver",
  "sourceName": "contracts/openzeppelin/reentrancy-guard/ReentrancyGuardTestReceiver.sol",
  "abi": [
    {
      "inputs": [
        {
          "internalType": "address payable",
          "name": "_reentrancyGuardTestSender",
          "type": "address"
        }
      ],
      "stateMutability": "nonpayable",
      "type": "constructor"
    },
    {
      "inputs": [],
      "name": "attack",
      "outputs": [],
      "stateMutability": "payable",
      "type": "function"
    },
    {
      "inputs": [],
      "name": "attackNonReentrant",
      "outputs": [],
      "stateMutability": "payable",
      "type": "function"
    },
    {
      "inputs": [],
      "name": "reentrancyGuardTestSender",
      "outputs": [
        {
          "internalType": "contract ReentrancyGuardTestSender",
          "name": "",
          "type": "address"
        }
      ],
      "stateMutability": "view",
      "type": "function"
    },
    {
      "inputs": [
        {
          "internalType": "bool",
          "name": "_nonReentrant",
          "type": "bool"
        }
      ],
      "name": "setNonReentrant",
      "outputs": [],
      "stateMutability": "nonpayable",
      "type": "function"
    },
    {
      "stateMutability": "payable",
      "type": "receive"
    }
  ],
  "bytecode": "0x60806040526000805460ff60a01b1916905534801561001d57600080fd5b5060405161033b38038061033b83398101604081905261003c91610061565b600080546001600160a01b0319166001600160a01b0392909216919091179055610091565b60006020828403121561007357600080fd5b81516001600160a01b038116811461008a57600080fd5b9392505050565b61029b806100a06000396000f3fe6080604052600436106100435760003560e01c80635705d8e61461011b57806393abfaf1146101575780639e5faafc14610190578063f68d7e581461019857600080fd5b36610116576305f5e1003331108015906100675750600054600160a01b900460ff16155b156100c357600080546040805163dd09946160e01b815290516001600160a01b039092169263dd0994619260048084019382900301818387803b1580156100ad57600080fd5b505af11580156100c1573d6000803e3d6000fd5b005b600054600160a01b900460ff16156100c157600080546040805163c9b0b3b360e01b815290516001600160a01b039092169263c9b0b3b39260048084019382900301818387803b1580156100ad57600080fd5b600080fd5b34801561012757600080fd5b5060005461013b906001600160a01b031681565b6040516001600160a01b03909116815260200160405180910390f35b34801561016357600080fd5b506100c161017236600461023c565b60008054911515600160a01b0260ff60a01b19909216919091179055565b6100c16101a0565b6100c16101fb565b600080546040805163dd09946160e01b815290516001600160a01b039092169263dd0994619260048084019382900301818387803b1580156101e157600080fd5b505af11580156101f5573d6000803e3d6000fd5b50505050565b600080546040805163c9b0b3b360e01b815290516001600160a01b039092169263c9b0b3b39260048084019382900301818387803b1580156101e157600080fd5b60006020828403121561024e57600080fd5b8135801515811461025e57600080fd5b939250505056fea2646970667358221220f24434db5fe0ac347d0bd6c4d25b8ae98bb3b070b8ebf51d38128a39cfa6f2a564736f6c63430008170033",
  "linkReferences": {},
  "deployedLinkReferences": {}
}