{
  "_format": "hh-sol-artifact-1",
  "contractName": "TokenManagementContract",
  "sourceName": "contracts/system-contracts/hedera-token-service/examples/token-manage/TokenManagementContract.sol",
  "abi": [
    {
      "anonymous": false,
      "inputs": [
        {
          "indexed": false,
          "internalType": "bool",
          "name": "",
          "type": "bool"
        },
        {
          "indexed": false,
          "internalType": "bytes",
          "name": "",
          "type": "bytes"
        }
      ],
      "name": "CallResponseEvent",
      "type": "event"
    },
    {
      "anonymous": false,
      "inputs": [
        {
          "indexed": false,
          "internalType": "bool",
          "name": "paused",
          "type": "bool"
        }
      ],
      "name": "PausedToken",
      "type": "event"
    },
    {
      "anonymous": false,
      "inputs": [
        {
          "indexed": false,
          "internalType": "int256",
          "name": "responseCode",
          "type": "int256"
        }
      ],
      "name": "ResponseCode",
      "type": "event"
    },
    {
      "anonymous": false,
      "inputs": [
        {
          "indexed": false,
          "internalType": "bool",
          "name": "unpaused",
          "type": "bool"
        }
      ],
      "name": "UnpausedToken",
      "type": "event"
    },
    {
      "inputs": [
        {
          "internalType": "address",
          "name": "token",
          "type": "address"
        },
        {
          "internalType": "address",
          "name": "approved",
          "type": "address"
        },
        {
          "internalType": "uint256",
          "name": "serialNumber",
          "type": "uint256"
        }
      ],
      "name": "approveNFTPublic",
      "outputs": [
        {
          "internalType": "int256",
          "name": "responseCode",
          "type": "int256"
        }
      ],
      "stateMutability": "nonpayable",
      "type": "function"
    },
    {
      "inputs": [
        {
          "internalType": "address",
          "name": "token",
          "type": "address"
        },
        {
          "internalType": "address",
          "name": "spender",
          "type": "address"
        },
        {
          "internalType": "uint256",
          "name": "amount",
          "type": "uint256"
        }
      ],
      "name": "approvePublic",
      "outputs": [
        {
          "internalType": "int256",
          "name": "responseCode",
          "type": "int256"
        }
      ],
      "stateMutability": "nonpayable",
      "type": "function"
    },
    {
      "inputs": [
        {
          "internalType": "address",
          "name": "token",
          "type": "address"
        },
        {
          "internalType": "int64",
          "name": "amount",
          "type": "int64"
        },
        {
          "internalType": "int64[]",
          "name": "serialNumbers",
          "type": "int64[]"
        }
      ],
      "name": "burnTokenPublic",
      "outputs": [
        {
          "internalType": "int256",
          "name": "responseCode",
          "type": "int256"
        },
        {
          "internalType": "int64",
          "name": "newTotalSupply",
          "type": "int64"
        }
      ],
      "stateMutability": "nonpayable",
      "type": "function"
    },
    {
      "inputs": [
        {
          "internalType": "address",
          "name": "token",
          "type": "address"
        }
      ],
      "name": "deleteTokenPublic",
      "outputs": [
        {
          "internalType": "int256",
          "name": "responseCode",
          "type": "int256"
        }
      ],
      "stateMutability": "nonpayable",
      "type": "function"
    },
    {
      "inputs": [
        {
          "internalType": "address",
          "name": "account",
          "type": "address"
        },
        {
          "internalType": "address",
          "name": "token",
          "type": "address"
        }
      ],
      "name": "dissociateTokenPublic",
      "outputs": [
        {
          "internalType": "int256",
          "name": "responseCode",
          "type": "int256"
        }
      ],
      "stateMutability": "nonpayable",
      "type": "function"
    },
    {
      "inputs": [
        {
          "internalType": "address",
          "name": "account",
          "type": "address"
        },
        {
          "internalType": "address[]",
          "name": "tokens",
          "type": "address[]"
        }
      ],
      "name": "dissociateTokensPublic",
      "outputs": [
        {
          "internalType": "int256",
          "name": "responseCode",
          "type": "int256"
        }
      ],
      "stateMutability": "nonpayable",
      "type": "function"
    },
    {
      "inputs": [
        {
          "internalType": "address",
          "name": "token",
          "type": "address"
        },
        {
          "internalType": "address",
          "name": "account",
          "type": "address"
        }
      ],
      "name": "freezeTokenPublic",
      "outputs": [
        {
          "internalType": "int256",
          "name": "responseCode",
          "type": "int256"
        }
      ],
      "stateMutability": "nonpayable",
      "type": "function"
    },
    {
      "inputs": [
        {
          "internalType": "address",
          "name": "token",
          "type": "address"
        }
      ],
      "name": "pauseTokenPublic",
      "outputs": [
        {
          "internalType": "int256",
          "name": "responseCode",
          "type": "int256"
        }
      ],
      "stateMutability": "nonpayable",
      "type": "function"
    },
    {
      "inputs": [
        {
          "internalType": "address",
          "name": "token",
          "type": "address"
        },
        {
          "internalType": "bytes",
          "name": "encodedFunctionSelector",
          "type": "bytes"
        }
      ],
      "name": "redirectForToken",
      "outputs": [
        {
          "internalType": "int256",
          "name": "responseCode",
          "type": "int256"
        },
        {
          "internalType": "bytes",
          "name": "response",
          "type": "bytes"
        }
      ],
      "stateMutability": "nonpayable",
      "type": "function"
    },
    {
      "inputs": [
        {
          "internalType": "address",
          "name": "token",
          "type": "address"
        },
        {
          "internalType": "address",
          "name": "account",
          "type": "address"
        }
      ],
      "name": "revokeTokenKycPublic",
      "outputs": [
        {
          "internalType": "int64",
          "name": "responseCode",
          "type": "int64"
        }
      ],
      "stateMutability": "nonpayable",
      "type": "function"
    },
    {
      "inputs": [
        {
          "internalType": "address",
          "name": "token",
          "type": "address"
        },
        {
          "internalType": "address",
          "name": "operator",
          "type": "address"
        },
        {
          "internalType": "bool",
          "name": "approved",
          "type": "bool"
        }
      ],
      "name": "setApprovalForAllPublic",
      "outputs": [
        {
          "internalType": "int256",
          "name": "responseCode",
          "type": "int256"
        }
      ],
      "stateMutability": "nonpayable",
      "type": "function"
    },
    {
      "inputs": [
        {
          "internalType": "address",
          "name": "token",
          "type": "address"
        },
        {
          "internalType": "address",
          "name": "from",
          "type": "address"
        },
        {
          "internalType": "address",
          "name": "to",
          "type": "address"
        },
        {
          "internalType": "uint256",
          "name": "amount",
          "type": "uint256"
        }
      ],
      "name": "transferFrom",
      "outputs": [
        {
          "internalType": "int64",
          "name": "responseCode",
          "type": "int64"
        }
      ],
      "stateMutability": "nonpayable",
      "type": "function"
    },
    {
      "inputs": [
        {
          "internalType": "address",
          "name": "token",
          "type": "address"
        },
        {
          "internalType": "address",
          "name": "from",
          "type": "address"
        },
        {
          "internalType": "address",
          "name": "to",
          "type": "address"
        },
        {
          "internalType": "uint256",
          "name": "serialNumber",
          "type": "uint256"
        }
      ],
      "name": "transferFromNFT",
      "outputs": [
        {
          "internalType": "int64",
          "name": "responseCode",
          "type": "int64"
        }
      ],
      "stateMutability": "nonpayable",
      "type": "function"
    },
    {
      "inputs": [
        {
          "internalType": "address",
          "name": "token",
          "type": "address"
        },
        {
          "internalType": "address",
          "name": "account",
          "type": "address"
        }
      ],
      "name": "unfreezeTokenPublic",
      "outputs": [
        {
          "internalType": "int256",
          "name": "responseCode",
          "type": "int256"
        }
      ],
      "stateMutability": "nonpayable",
      "type": "function"
    },
    {
      "inputs": [
        {
          "internalType": "address",
          "name": "token",
          "type": "address"
        }
      ],
      "name": "unpauseTokenPublic",
      "outputs": [
        {
          "internalType": "int256",
          "name": "responseCode",
          "type": "int256"
        }
      ],
      "stateMutability": "nonpayable",
      "type": "function"
    },
    {
      "inputs": [
        {
          "internalType": "address",
          "name": "token",
          "type": "address"
        },
        {
          "components": [
            {
              "internalType": "int64",
              "name": "amount",
              "type": "int64"
            },
            {
              "internalType": "address",
              "name": "tokenId",
              "type": "address"
            },
            {
              "internalType": "bool",
              "name": "useHbarsForPayment",
              "type": "bool"
            },
            {
              "internalType": "bool",
              "name": "useCurrentTokenForPayment",
              "type": "bool"
            },
            {
              "internalType": "address",
              "name": "feeCollector",
              "type": "address"
            }
          ],
          "internalType": "struct IHederaTokenService.FixedFee[]",
          "name": "fixedFees",
          "type": "tuple[]"
        },
        {
          "components": [
            {
              "internalType": "int64",
              "name": "numerator",
              "type": "int64"
            },
            {
              "internalType": "int64",
              "name": "denominator",
              "type": "int64"
            },
            {
              "internalType": "int64",
              "name": "minimumAmount",
              "type": "int64"
            },
            {
              "internalType": "int64",
              "name": "maximumAmount",
              "type": "int64"
            },
            {
              "internalType": "bool",
              "name": "netOfTransfers",
              "type": "bool"
            },
            {
              "internalType": "address",
              "name": "feeCollector",
              "type": "address"
            }
          ],
          "internalType": "struct IHederaTokenService.FractionalFee[]",
          "name": "fractionalFees",
          "type": "tuple[]"
        }
      ],
      "name": "updateFungibleTokenCustomFeesPublic",
      "outputs": [
        {
          "internalType": "int256",
          "name": "responseCode",
          "type": "int256"
        }
      ],
      "stateMutability": "nonpayable",
      "type": "function"
    },
    {
      "inputs": [
        {
          "internalType": "address",
          "name": "token",
          "type": "address"
        },
        {
          "components": [
            {
              "internalType": "int64",
              "name": "amount",
              "type": "int64"
            },
            {
              "internalType": "address",
              "name": "tokenId",
              "type": "address"
            },
            {
              "internalType": "bool",
              "name": "useHbarsForPayment",
              "type": "bool"
            },
            {
              "internalType": "bool",
              "name": "useCurrentTokenForPayment",
              "type": "bool"
            },
            {
              "internalType": "address",
              "name": "feeCollector",
              "type": "address"
            }
          ],
          "internalType": "struct IHederaTokenService.FixedFee[]",
          "name": "fixedFees",
          "type": "tuple[]"
        },
        {
          "components": [
            {
              "internalType": "int64",
              "name": "numerator",
              "type": "int64"
            },
            {
              "internalType": "int64",
              "name": "denominator",
              "type": "int64"
            },
            {
              "internalType": "int64",
              "name": "amount",
              "type": "int64"
            },
            {
              "internalType": "address",
              "name": "tokenId",
              "type": "address"
            },
            {
              "internalType": "bool",
              "name": "useHbarsForPayment",
              "type": "bool"
            },
            {
              "internalType": "address",
              "name": "feeCollector",
              "type": "address"
            }
          ],
          "internalType": "struct IHederaTokenService.RoyaltyFee[]",
          "name": "royaltyFees",
          "type": "tuple[]"
        }
      ],
      "name": "updateNonFungibleTokenCustomFeesPublic",
      "outputs": [
        {
          "internalType": "int256",
          "name": "responseCode",
          "type": "int256"
        }
      ],
      "stateMutability": "nonpayable",
      "type": "function"
    },
    {
      "inputs": [
        {
          "internalType": "address",
          "name": "token",
          "type": "address"
        },
        {
          "components": [
            {
              "internalType": "int64",
              "name": "second",
              "type": "int64"
            },
            {
              "internalType": "address",
              "name": "autoRenewAccount",
              "type": "address"
            },
            {
              "internalType": "int64",
              "name": "autoRenewPeriod",
              "type": "int64"
            }
          ],
          "internalType": "struct IHederaTokenService.Expiry",
          "name": "expiryInfo",
          "type": "tuple"
        }
      ],
      "name": "updateTokenExpiryInfoPublic",
      "outputs": [
        {
          "internalType": "int256",
          "name": "responseCode",
          "type": "int256"
        }
      ],
      "stateMutability": "nonpayable",
      "type": "function"
    },
    {
      "inputs": [
        {
          "internalType": "address",
          "name": "token",
          "type": "address"
        },
        {
          "components": [
            {
              "internalType": "string",
              "name": "name",
              "type": "string"
            },
            {
              "internalType": "string",
              "name": "symbol",
              "type": "string"
            },
            {
              "internalType": "address",
              "name": "treasury",
              "type": "address"
            },
            {
              "internalType": "string",
              "name": "memo",
              "type": "string"
            },
            {
              "internalType": "bool",
              "name": "tokenSupplyType",
              "type": "bool"
            },
            {
              "internalType": "int64",
              "name": "maxSupply",
              "type": "int64"
            },
            {
              "internalType": "bool",
              "name": "freezeDefault",
              "type": "bool"
            },
            {
              "components": [
                {
                  "internalType": "uint256",
                  "name": "keyType",
                  "type": "uint256"
                },
                {
                  "components": [
                    {
                      "internalType": "bool",
                      "name": "inheritAccountKey",
                      "type": "bool"
                    },
                    {
                      "internalType": "address",
                      "name": "contractId",
                      "type": "address"
                    },
                    {
                      "internalType": "bytes",
                      "name": "ed25519",
                      "type": "bytes"
                    },
                    {
                      "internalType": "bytes",
                      "name": "ECDSA_secp256k1",
                      "type": "bytes"
                    },
                    {
                      "internalType": "address",
                      "name": "delegatableContractId",
                      "type": "address"
                    }
                  ],
                  "internalType": "struct IHederaTokenService.KeyValue",
                  "name": "key",
                  "type": "tuple"
                }
              ],
              "internalType": "struct IHederaTokenService.TokenKey[]",
              "name": "tokenKeys",
              "type": "tuple[]"
            },
            {
              "components": [
                {
                  "internalType": "int64",
                  "name": "second",
                  "type": "int64"
                },
                {
                  "internalType": "address",
                  "name": "autoRenewAccount",
                  "type": "address"
                },
                {
                  "internalType": "int64",
                  "name": "autoRenewPeriod",
                  "type": "int64"
                }
              ],
              "internalType": "struct IHederaTokenService.Expiry",
              "name": "expiry",
              "type": "tuple"
            }
          ],
          "internalType": "struct IHederaTokenService.HederaToken",
          "name": "tokenInfo",
          "type": "tuple"
        }
      ],
      "name": "updateTokenInfoPublic",
      "outputs": [
        {
          "internalType": "int256",
          "name": "responseCode",
          "type": "int256"
        }
      ],
      "stateMutability": "nonpayable",
      "type": "function"
    },
    {
      "inputs": [
        {
          "internalType": "address",
          "name": "token",
          "type": "address"
        },
        {
          "components": [
            {
              "internalType": "uint256",
              "name": "keyType",
              "type": "uint256"
            },
            {
              "components": [
                {
                  "internalType": "bool",
                  "name": "inheritAccountKey",
                  "type": "bool"
                },
                {
                  "internalType": "address",
                  "name": "contractId",
                  "type": "address"
                },
                {
                  "internalType": "bytes",
                  "name": "ed25519",
                  "type": "bytes"
                },
                {
                  "internalType": "bytes",
                  "name": "ECDSA_secp256k1",
                  "type": "bytes"
                },
                {
                  "internalType": "address",
                  "name": "delegatableContractId",
                  "type": "address"
                }
              ],
              "internalType": "struct IHederaTokenService.KeyValue",
              "name": "key",
              "type": "tuple"
            }
          ],
          "internalType": "struct IHederaTokenService.TokenKey[]",
          "name": "keys",
          "type": "tuple[]"
        }
      ],
      "name": "updateTokenKeysPublic",
      "outputs": [
        {
          "internalType": "int64",
          "name": "responseCode",
          "type": "int64"
        }
      ],
      "stateMutability": "nonpayable",
      "type": "function"
    },
    {
      "inputs": [
        {
          "internalType": "address",
          "name": "token",
          "type": "address"
        },
        {
          "internalType": "address",
          "name": "account",
          "type": "address"
        },
        {
          "internalType": "int64[]",
          "name": "serialNumbers",
          "type": "int64[]"
        }
      ],
      "name": "wipeTokenAccountNFTPublic",
      "outputs": [
        {
          "internalType": "int256",
          "name": "responseCode",
          "type": "int256"
        }
      ],
      "stateMutability": "nonpayable",
      "type": "function"
    },
    {
      "inputs": [
        {
          "internalType": "address",
          "name": "token",
          "type": "address"
        },
        {
          "internalType": "address",
          "name": "account",
          "type": "address"
        },
        {
          "internalType": "int64",
          "name": "amount",
          "type": "int64"
        }
      ],
      "name": "wipeTokenAccountPublic",
      "outputs": [
        {
          "internalType": "int256",
          "name": "responseCode",
          "type": "int256"
        }
      ],
      "stateMutability": "nonpayable",
      "type": "function"
    }
  ],
  "bytecode": "0x608060405234801561000f575f80fd5b50600160208181527fa6eef7e35abe7026729641147f7915573c7e97b47efa546f5f6e3230263bcb499190915560027fcc69885fda6bcc1a4ace058b4a62bf5e179ea78fd58a1ccd71c22cc9b688792f5560047fd9d16d34ffb15ba3a3d852f0d403e2ce1d691fb54de27ac87cd2f993f3ec330f5560087f7dfe757ecd65cbd7922a9c0161e935dd7fdbcc0e999689c7d31633896b1fc60b5560107fedc95719e9a3b28dd8e80877cb5880a9be7de1a13fc8b05e7999683b6b567643557fe2689cd4a84e23ad2f564004f1c9013e9589d260bde6380aba3ca7e09e4df40c5560065f5260407f8f331abe73332f95a25873e8b430885974c0409691f89d643119a11623a7924a556122ab806101235f395ff3fe608060405234801561000f575f80fd5b506004361061015b575f3560e01c8063815228c0116100c3578063df6c06f511610088578063f7be342511610063578063f7be342514610314578063f848fec414610327578063fad0038a1461033a575f80fd5b8063df6c06f5146102c3578063f25b1200146102d6578063f52177ee146102e9575f80fd5b8063815228c0146102645780639b23d3d914610277578063a345f7bd1461028a578063b26d33cb1461029d578063c1139a2e146102b0575f80fd5b806336348de31161012357806356af8403116100fe57806356af84031461021d578063618dc65e146102305780637d3e5da814610251575f80fd5b806336348de3146101e45780634504f884146101f75780634d8f27c91461020a575f80fd5b806315dacbea1461015f5780632abf6c551461018a5780632b256ec8146101ab5780632d73bb2e146101be5780632eecbca3146101d1575b5f80fd5b61017261016d3660046110d4565b61034d565b60405160079190910b81526020015b60405180910390f35b61019d610198366004611217565b61043c565b604051908152602001610181565b61019d6101b93660046112c2565b610481565b61019d6101cc3660046112db565b6104f9565b6101726101df3660046112db565b610527565b61019d6101f2366004611566565b610569565b61019d61020536600461176c565b610574565b6101726102183660046118ac565b6105e5565b61019d61022b36600461195c565b6105f0565b61024361023e3660046119b6565b610630565b604051610181929190611a44565b61019d61025f3660046112db565b610747565b61019d610272366004611a64565b610752565b6101726102853660046110d4565b61075d565b61019d6102983660046112c2565b6107a1565b61019d6102ab3660046112db565b6107e4565b61019d6102be366004611a8d565b6107ef565b61019d6102d1366004611bb9565b6107fb565b61019d6102e4366004611bf2565b610807565b6102fc6102f7366004611c32565b610813565b6040805192835260079190910b602083015201610181565b61019d6103223660046112c2565b610859565b61019d610335366004611bb9565b6108c8565b61019d610348366004611c5d565b6108d4565b6040516001600160a01b038581166024830152848116604483015283166064820152608481018290525f908190819061016790630aed65f560e11b9060a4015b60408051601f198184030181529181526020820180516001600160e01b03166001600160e01b03199094169390931790925290516103cb9190611ca1565b5f604051808303815f865af19150503d805f8114610404576040519150601f19603f3d011682016040523d82523d5f602084013e610409565b606091505b50915091508161041a57601561042e565b8080602001905181019061042e9190611ccd565b60030b979650505050505050565b5f61044783836108e0565b90505f805160206122568339815191528160405161046791815260200190565b60405180910390a16016811461047b575f80fd5b92915050565b5f61048b826109b7565b90505f80516020612256833981519152816040516104ab91815260200190565b60405180910390a1601681146104bf575f80fd5b604051600181527f0c9c765845f4d139956bb8fc8decb2eec6093c9c608b809641b16054b29f0e13906020015b60405180910390a1919050565b5f6105048383610a8c565b60070b90505f805160206122568339815191528160405161046791815260200190565b5f6105328383610ac1565b604051600782900b81529091505f805160206122568339815191529060200160405180910390a1600781900b60161461047b575f80fd5b5f6104478383610af6565b5f610580848484610b20565b60070b90505f80516020612256833981519152816040516105a391815260200190565b60405180910390a1601681146105de576105bc81610bfa565b60405162461bcd60e51b81526004016105d59190611ce6565b60405180910390fd5b9392505050565b5f6105328383610c97565b5f6105fc848484610cc1565b90505f805160206122568339815191528160405161061c91815260200190565b60405180910390a1601681146105de575f80fd5b5f60605f806101676001600160a01b031663618dc65e60e01b878760405160240161065c929190611cf8565b60408051601f198184030181529181526020820180516001600160e01b03166001600160e01b031990941693909317909252905161069a9190611ca1565b5f604051808303815f865af19150503d805f81146106d3576040519150601f19603f3d011682016040523d82523d5f602084013e6106d8565b606091505b50915091507f4af4780e06fe8cb9df64b0794fa6f01399af979175bb988e35e0e57e594567bc828260405161070e929190611d19565b60405180910390a18161073157601560405180602001604052805f815250610735565b6016815b60039190910b97909650945050505050565b5f6105048383610ced565b5f6104478383610d22565b6040516001600160a01b038581166024830152848116604483015283166064820152608481018290525f908190819061016790639b23d3d960e01b9060a40161038d565b5f6107ab82610d4c565b90505f80516020612256833981519152816040516107cb91815260200190565b60405180910390a1601681146107df575f80fd5b919050565b5f6104478383610d79565b5f610580848484610dae565b5f6105fc848484610dda565b5f6105fc848484610e16565b5f80610820858585610e53565b60405182815291935091505f805160206122568339815191529060200160405180910390a160168214610851575f80fd5b935093915050565b5f61086382610f35565b90505f805160206122568339815191528160405161088391815260200190565b60405180910390a160168114610897575f80fd5b604051600181527f319ab7084208e4afa38c6e6ff7aea9587439f2e4700746f4c7d425fea17426d2906020016104ec565b5f6105fc848484610f62565b5f6105fc848484610f9e565b5f805f6101676001600160a01b03166378b6391860e01b868660405160240161090a929190611d33565b60408051601f198184030181529181526020820180516001600160e01b03166001600160e01b03199094169390931790925290516109489190611ca1565b5f604051808303815f865af19150503d805f8114610981576040519150601f19603f3d011682016040523d82523d5f602084013e610986565b606091505b5091509150816109975760156109ab565b808060200190518101906109ab9190611ccd565b60030b95945050505050565b6040516001600160a01b03821660248201525f908190819061016790631f106b4b60e21b906044015b60408051601f198184030181529181526020820180516001600160e01b03166001600160e01b0319909416939093179092529051610a1e9190611ca1565b5f604051808303815f865af19150503d805f8114610a57576040519150601f19603f3d011682016040523d82523d5f602084013e610a5c565b606091505b509150915081610a6d576015610a81565b80806020019051810190610a819190611ccd565b60030b949350505050565b6040516001600160a01b038381166024830152821660448201525f9081908190610167906352f9138760e01b9060640161090a565b6040516001600160a01b038381166024830152821660448201525f90819081906101679063af99c63360e01b9060640161090a565b5f805f6101676001600160a01b0316637d305cfa60e01b868660405160240161090a929190611e46565b5f805f6101676001600160a01b031663d5f60c4760e01b878787604051602401610b4c93929190611fe7565b60408051601f198184030181529181526020820180516001600160e01b03166001600160e01b0319909416939093179092529051610b8a9190611ca1565b5f604051808303815f865af19150503d805f8114610bc3576040519150601f19603f3d011682016040523d82523d5f602084013e610bc8565b606091505b509150915081610bd9576015610bed565b80806020019051810190610bed9190611ccd565b60030b9695505050505050565b60605f610c0683610fdd565b60010190505f8167ffffffffffffffff811115610c2557610c2561111c565b6040519080825280601f01601f191660200182016040528015610c4f576020820181803683370190505b5090508181016020015b5f19017f3031323334353637383961626364656600000000000000000000000000000000600a86061a8153600a8504945084610c5957509392505050565b5f805f6101676001600160a01b0316636fc3cbaf60e01b868660405160240161090a929190612092565b5f805f6101676001600160a01b031663f7f38e2660e01b878787604051602401610b4c939291906120e5565b6040516001600160a01b038381166024830152821660448201525f9081908190610167906316e3e16160e21b9060640161090a565b5f805f6101676001600160a01b031663d27be6cd60e01b868660405160240161090a929190612119565b6040516001600160a01b03821660248201525f908190819061016790637834fb8960e11b906044016109e0565b6040516001600160a01b038381166024830152821660448201525f908190819061016790630132f29d60e31b9060640161090a565b5f805f6101676001600160a01b03166330727a2960e01b878787604051602401610b4c9392919061215c565b6040516001600160a01b03848116602483015283166044820152606481018290525f9081908190610167906307336aaf60e41b90608401610b4c565b6040516001600160a01b0384811660248301528316604482015281151560648201525f908190819061016790631b3b02e560e11b90608401610b4c565b5f805f806101676001600160a01b031663d6910d0660e01b888888604051602401610e80939291906121f6565b60408051601f198184030181529181526020820180516001600160e01b03166001600160e01b0319909416939093179092529051610ebe9190611ca1565b5f604051808303815f865af19150503d805f8114610ef7576040519150601f19603f3d011682016040523d82523d5f602084013e610efc565b606091505b509150915081610f0e5760155f610f22565b80806020019051810190610f229190612220565b60039190910b9890975095505050505050565b6040516001600160a01b03821660248201525f908190819061016790633b3bff0f60e01b906044016109e0565b6040516001600160a01b03848116602483015283166044820152606481018290525f90819081906101679063e1f21c6760e01b90608401610b4c565b6040516001600160a01b03848116602483015283166044820152600782900b60648201525f90819081906101679063efef57f960e01b90608401610b4c565b5f807a184f03e93ff9f4daa797ed6e38ed64bf6a1f0100000000000000008310611025577a184f03e93ff9f4daa797ed6e38ed64bf6a1f010000000000000000830492506040015b6d04ee2d6d415b85acef81000000008310611051576d04ee2d6d415b85acef8100000000830492506020015b662386f26fc10000831061106f57662386f26fc10000830492506010015b6305f5e1008310611087576305f5e100830492506008015b612710831061109b57612710830492506004015b606483106110ad576064830492506002015b600a831061047b5760010192915050565b80356001600160a01b03811681146107df575f80fd5b5f805f80608085870312156110e7575f80fd5b6110f0856110be565b93506110fe602086016110be565b925061110c604086016110be565b9396929550929360600135925050565b634e487b7160e01b5f52604160045260245ffd5b6040805190810167ffffffffffffffff811182821017156111535761115361111c565b60405290565b60405160a0810167ffffffffffffffff811182821017156111535761115361111c565b604051610120810167ffffffffffffffff811182821017156111535761115361111c565b60405160c0810167ffffffffffffffff811182821017156111535761115361111c565b604051601f8201601f1916810167ffffffffffffffff811182821017156111ec576111ec61111c565b604052919050565b5f67ffffffffffffffff82111561120d5761120d61111c565b5060051b60200190565b5f8060408385031215611228575f80fd5b611231836110be565b915060208084013567ffffffffffffffff81111561124d575f80fd5b8401601f8101861361125d575f80fd5b803561127061126b826111f4565b6111c3565b81815260059190911b8201830190838101908883111561128e575f80fd5b928401925b828410156112b3576112a4846110be565b82529284019290840190611293565b80955050505050509250929050565b5f602082840312156112d2575f80fd5b6105de826110be565b5f80604083850312156112ec575f80fd5b6112f5836110be565b9150611303602084016110be565b90509250929050565b5f82601f83011261131b575f80fd5b813567ffffffffffffffff8111156113355761133561111c565b611348601f8201601f19166020016111c3565b81815284602083860101111561135c575f80fd5b816020850160208301375f918101602001919091529392505050565b803580151581146107df575f80fd5b8060070b8114611395575f80fd5b50565b80356107df81611387565b5f82601f8301126113b2575f80fd5b813560206113c261126b836111f4565b82815260059290921b840181019181810190868411156113e0575f80fd5b8286015b848110156114e957803567ffffffffffffffff80821115611403575f80fd5b908801906040601f19838c03810182131561141c575f80fd5b611424611130565b888501358152828501358481111561143a575f80fd5b949094019360a0858e0383011215611450575f80fd5b611458611159565b9150611465898601611378565b82526114728386016110be565b8983015260608086013585811115611488575f80fd5b6114968f8c838a010161130c565b85850152506080935083860135858111156114af575f80fd5b6114bd8f8c838a010161130c565b8285015250506114cf60a086016110be565b9282019290925281880152855250509183019183016113e4565b509695505050505050565b5f60608284031215611504575f80fd5b6040516060810181811067ffffffffffffffff821117156115275761152761111c565b604052905080823561153881611387565b8152611546602084016110be565b6020820152604083013561155981611387565b6040919091015292915050565b5f8060408385031215611577575f80fd5b611580836110be565b9150602083013567ffffffffffffffff8082111561159c575f80fd5b9084019061016082870312156115b0575f80fd5b6115b861117c565b8235828111156115c6575f80fd5b6115d28882860161130c565b8252506020830135828111156115e6575f80fd5b6115f28882860161130c565b602083015250611604604084016110be565b604082015260608301358281111561161a575f80fd5b6116268882860161130c565b60608301525061163860808401611378565b608082015261164960a08401611398565b60a082015261165a60c08401611378565b60c082015260e083013582811115611670575f80fd5b61167c888286016113a3565b60e0830152506101009150611693878385016114f4565b828201528093505050509250929050565b5f82601f8301126116b3575f80fd5b813560206116c361126b836111f4565b82815260a092830285018201928282019190878511156116e1575f80fd5b8387015b8581101561175f5781818a0312156116fb575f80fd5b611703611159565b813561170e81611387565b815261171b8287016110be565b86820152604061172c818401611378565b90820152606061173d838201611378565b90820152608061174e8382016110be565b9082015284529284019281016116e5565b5090979650505050505050565b5f805f606080858703121561177f575f80fd5b611788856110be565b935060208086013567ffffffffffffffff808211156117a5575f80fd5b6117b189838a016116a4565b9550604091506040880135818111156117c8575f80fd5b88019050601f810189136117da575f80fd5b80356117e861126b826111f4565b81815260c0918202830185019185820191908c841115611806575f80fd5b938601935b8385101561189a5780858e031215611821575f80fd5b6118296111a0565b853561183481611387565b81528588013561184381611387565b818901528587013561185481611387565b818801528589013561186581611387565b818a01526080611876878201611378565b9082015260a06118878782016110be565b908201528352938401939186019161180b565b50809750505050505050509250925092565b5f80604083850312156118bd575f80fd5b6118c6836110be565b9150602083013567ffffffffffffffff8111156118e1575f80fd5b6118ed858286016113a3565b9150509250929050565b5f82601f830112611906575f80fd5b8135602061191661126b836111f4565b8083825260208201915060208460051b870101935086841115611937575f80fd5b602086015b848110156114e957803561194f81611387565b835291830191830161193c565b5f805f6060848603121561196e575f80fd5b611977846110be565b9250611985602085016110be565b9150604084013567ffffffffffffffff8111156119a0575f80fd5b6119ac868287016118f7565b9150509250925092565b5f80604083850312156119c7575f80fd5b6119d0836110be565b9150602083013567ffffffffffffffff8111156119eb575f80fd5b6118ed8582860161130c565b5f5b83811015611a115781810151838201526020016119f9565b50505f910152565b5f8151808452611a308160208601602086016119f7565b601f01601f19169290920160200192915050565b828152604060208201525f611a5c6040830184611a19565b949350505050565b5f8060808385031215611a75575f80fd5b611a7e836110be565b915061130384602085016114f4565b5f805f6060808587031215611aa0575f80fd5b611aa9856110be565b935060208086013567ffffffffffffffff80821115611ac6575f80fd5b611ad289838a016116a4565b955060409150604088013581811115611ae9575f80fd5b88019050601f81018913611afb575f80fd5b8035611b0961126b826111f4565b81815260c0918202830185019185820191908c841115611b27575f80fd5b938601935b8385101561189a5780858e031215611b42575f80fd5b611b4a6111a0565b8535611b5581611387565b815285880135611b6481611387565b8189015285870135611b7581611387565b81880152611b84868a016110be565b898201526080611b95818801611378565b9082015260a0611ba68782016110be565b9082015283529384019391860191611b2c565b5f805f60608486031215611bcb575f80fd5b611bd4846110be565b9250611be2602085016110be565b9150604084013590509250925092565b5f805f60608486031215611c04575f80fd5b611c0d846110be565b9250611c1b602085016110be565b9150611c2960408501611378565b90509250925092565b5f805f60608486031215611c44575f80fd5b611c4d846110be565b9250602084013561198581611387565b5f805f60608486031215611c6f575f80fd5b611c78846110be565b9250611c86602085016110be565b91506040840135611c9681611387565b809150509250925092565b5f8251611cb28184602087016119f7565b9190910192915050565b8051600381900b81146107df575f80fd5b5f60208284031215611cdd575f80fd5b6105de82611cbc565b602081525f6105de6020830184611a19565b6001600160a01b0383168152604060208201525f611a5c6040830184611a19565b8215158152604060208201525f611a5c6040830184611a19565b5f604082016001600160a01b0380861684526020604060208601528286518085526060870191506020880194505f5b81811015611d80578551851683529483019491830191600101611d62565b509098975050505050505050565b5f82825180855260208086019550808260051b8401018186015f5b8481101561175f57601f198684030189528151604081518552858201519150808686015281511515818601528582015160606001600160a01b038083168289015283850151935060a09250608083818a0152611e0860e08a0186611a19565b92860151898403603f1901858b0152929450611e248584611a19565b9501511660c09790970196909652505098840198925090830190600101611da9565b6001600160a01b0383168152604060208201525f82516101606040840152611e726101a0840182611a19565b90506020840151603f1980858403016060860152611e908383611a19565b925060408601519150611eae60808601836001600160a01b03169052565b60608601519150808584030160a0860152611ec98383611a19565b925060808601519150611ee060c086018315159052565b60a08601519150611ef660e086018360070b9052565b60c08601519150610100611f0d8187018415159052565b60e087015192508186850301610120870152611f298484611d8e565b908701518051600790810b61014089015260208201516001600160a01b03166101608901526040820151900b6101808801529093509150611f679050565b50949350505050565b5f815180845260208085019450602084015f5b83811015611fdc578151805160070b8852838101516001600160a01b03908116858a01526040808301511515908a01526060808301511515908a0152608091820151169088015260a09096019590820190600101611f83565b509495945050505050565b5f60606001600160a01b038087168452602060608186015261200c6060860188611f70565b8581036040878101919091528751808352838901928401905f5b818110156120815784518051600790810b855287820151810b8886015285820151810b8686015289820151900b8985015260808082015115159085015260a0908101518816908401529385019360c090920191600101612026565b50909b9a5050505050505050505050565b6001600160a01b0383168152604060208201525f611a5c6040830184611d8e565b5f815180845260208085019450602084015f5b83811015611fdc57815160070b875295820195908201906001016120c6565b5f6001600160a01b0380861683528085166020840152506060604083015261211060608301846120b3565b95945050505050565b6001600160a01b0383168152608081016105de6020830184805160070b82526001600160a01b036020820151166020830152604081015160070b60408301525050565b5f60606001600160a01b03808716845260206060818601526121816060860188611f70565b8581036040878101919091528751808352838901928401905f5b818110156120815784518051600790810b855287820151810b8886015285820151900b858501528881015188168985015260808082015115159085015260a0908101518816908401529385019360c09092019160010161219b565b6001600160a01b03841681528260070b6020820152606060408201525f61211060608301846120b3565b5f8060408385031215612231575f80fd5b61223a83611cbc565b9150602083015161224a81611387565b80915050925092905056fe90a5cf4cffe88b4edbb041cfc7a8a812c48a5ec30b84640fb37690875168e3aaa264697066735822122066ff63a03780f6d5c70f11bbbf9ed9db07f5cc3f0cf525943d67d7e6f75506c964736f6c63430008180033",
  "linkReferences": {},
  "deployedLinkReferences": {}
}