{
  "_format": "hh-sol-artifact-1",
  "contractName": "TokenManagementContract",
  "sourceName": "contracts/system-contracts/hedera-token-service/examples/token-manage/TokenManagementContract.sol",
  "abi": [
    {
      "anonymous": false,
      "inputs": [
        {
          "indexed": false,
          "internalType": "bool",
          "name": "",
          "type": "bool"
        },
        {
          "indexed": false,
          "internalType": "bytes",
          "name": "",
          "type": "bytes"
        }
      ],
      "name": "CallResponseEvent",
      "type": "event"
    },
    {
      "anonymous": false,
      "inputs": [
        {
          "indexed": false,
          "internalType": "bool",
          "name": "paused",
          "type": "bool"
        }
      ],
      "name": "PausedToken",
      "type": "event"
    },
    {
      "anonymous": false,
      "inputs": [
        {
          "indexed": false,
          "internalType": "int256",
          "name": "responseCode",
          "type": "int256"
        }
      ],
      "name": "ResponseCode",
      "type": "event"
    },
    {
      "anonymous": false,
      "inputs": [
        {
          "indexed": false,
          "internalType": "bool",
          "name": "unpaused",
          "type": "bool"
        }
      ],
      "name": "UnpausedToken",
      "type": "event"
    },
    {
      "inputs": [
        {
          "internalType": "address",
          "name": "token",
          "type": "address"
        },
        {
          "internalType": "address",
          "name": "approved",
          "type": "address"
        },
        {
          "internalType": "uint256",
          "name": "serialNumber",
          "type": "uint256"
        }
      ],
      "name": "approveNFTPublic",
      "outputs": [
        {
          "internalType": "int256",
          "name": "responseCode",
          "type": "int256"
        }
      ],
      "stateMutability": "nonpayable",
      "type": "function"
    },
    {
      "inputs": [
        {
          "internalType": "address",
          "name": "token",
          "type": "address"
        },
        {
          "internalType": "address",
          "name": "spender",
          "type": "address"
        },
        {
          "internalType": "uint256",
          "name": "amount",
          "type": "uint256"
        }
      ],
      "name": "approvePublic",
      "outputs": [
        {
          "internalType": "int256",
          "name": "responseCode",
          "type": "int256"
        }
      ],
      "stateMutability": "nonpayable",
      "type": "function"
    },
    {
      "inputs": [
        {
          "internalType": "address",
          "name": "token",
          "type": "address"
        },
        {
          "internalType": "int64",
          "name": "amount",
          "type": "int64"
        },
        {
          "internalType": "int64[]",
          "name": "serialNumbers",
          "type": "int64[]"
        }
      ],
      "name": "burnTokenPublic",
      "outputs": [
        {
          "internalType": "int256",
          "name": "responseCode",
          "type": "int256"
        },
        {
          "internalType": "int64",
          "name": "newTotalSupply",
          "type": "int64"
        }
      ],
      "stateMutability": "nonpayable",
      "type": "function"
    },
    {
      "inputs": [
        {
          "internalType": "address",
          "name": "token",
          "type": "address"
        }
      ],
      "name": "deleteTokenPublic",
      "outputs": [
        {
          "internalType": "int256",
          "name": "responseCode",
          "type": "int256"
        }
      ],
      "stateMutability": "nonpayable",
      "type": "function"
    },
    {
      "inputs": [
        {
          "internalType": "address",
          "name": "account",
          "type": "address"
        },
        {
          "internalType": "address",
          "name": "token",
          "type": "address"
        }
      ],
      "name": "dissociateTokenPublic",
      "outputs": [
        {
          "internalType": "int256",
          "name": "responseCode",
          "type": "int256"
        }
      ],
      "stateMutability": "nonpayable",
      "type": "function"
    },
    {
      "inputs": [
        {
          "internalType": "address",
          "name": "account",
          "type": "address"
        },
        {
          "internalType": "address[]",
          "name": "tokens",
          "type": "address[]"
        }
      ],
      "name": "dissociateTokensPublic",
      "outputs": [
        {
          "internalType": "int256",
          "name": "responseCode",
          "type": "int256"
        }
      ],
      "stateMutability": "nonpayable",
      "type": "function"
    },
    {
      "inputs": [
        {
          "internalType": "address",
          "name": "token",
          "type": "address"
        },
        {
          "internalType": "address",
          "name": "account",
          "type": "address"
        }
      ],
      "name": "freezeTokenPublic",
      "outputs": [
        {
          "internalType": "int256",
          "name": "responseCode",
          "type": "int256"
        }
      ],
      "stateMutability": "nonpayable",
      "type": "function"
    },
    {
      "inputs": [
        {
          "internalType": "address",
          "name": "token",
          "type": "address"
        }
      ],
      "name": "pauseTokenPublic",
      "outputs": [
        {
          "internalType": "int256",
          "name": "responseCode",
          "type": "int256"
        }
      ],
      "stateMutability": "nonpayable",
      "type": "function"
    },
    {
      "inputs": [
        {
          "internalType": "address",
          "name": "token",
          "type": "address"
        },
        {
          "internalType": "bytes",
          "name": "encodedFunctionSelector",
          "type": "bytes"
        }
      ],
      "name": "redirectForToken",
      "outputs": [
        {
          "internalType": "int256",
          "name": "responseCode",
          "type": "int256"
        },
        {
          "internalType": "bytes",
          "name": "response",
          "type": "bytes"
        }
      ],
      "stateMutability": "nonpayable",
      "type": "function"
    },
    {
      "inputs": [
        {
          "internalType": "address",
          "name": "token",
          "type": "address"
        },
        {
          "internalType": "address",
          "name": "account",
          "type": "address"
        }
      ],
      "name": "revokeTokenKycPublic",
      "outputs": [
        {
          "internalType": "int64",
          "name": "responseCode",
          "type": "int64"
        }
      ],
      "stateMutability": "nonpayable",
      "type": "function"
    },
    {
      "inputs": [
        {
          "internalType": "address",
          "name": "token",
          "type": "address"
        },
        {
          "internalType": "address",
          "name": "operator",
          "type": "address"
        },
        {
          "internalType": "bool",
          "name": "approved",
          "type": "bool"
        }
      ],
      "name": "setApprovalForAllPublic",
      "outputs": [
        {
          "internalType": "int256",
          "name": "responseCode",
          "type": "int256"
        }
      ],
      "stateMutability": "nonpayable",
      "type": "function"
    },
    {
      "inputs": [
        {
          "internalType": "address",
          "name": "token",
          "type": "address"
        },
        {
          "internalType": "address",
          "name": "from",
          "type": "address"
        },
        {
          "internalType": "address",
          "name": "to",
          "type": "address"
        },
        {
          "internalType": "uint256",
          "name": "amount",
          "type": "uint256"
        }
      ],
      "name": "transferFrom",
      "outputs": [
        {
          "internalType": "int64",
          "name": "responseCode",
          "type": "int64"
        }
      ],
      "stateMutability": "nonpayable",
      "type": "function"
    },
    {
      "inputs": [
        {
          "internalType": "address",
          "name": "token",
          "type": "address"
        },
        {
          "internalType": "address",
          "name": "from",
          "type": "address"
        },
        {
          "internalType": "address",
          "name": "to",
          "type": "address"
        },
        {
          "internalType": "uint256",
          "name": "serialNumber",
          "type": "uint256"
        }
      ],
      "name": "transferFromNFT",
      "outputs": [
        {
          "internalType": "int64",
          "name": "responseCode",
          "type": "int64"
        }
      ],
      "stateMutability": "nonpayable",
      "type": "function"
    },
    {
      "inputs": [
        {
          "internalType": "address",
          "name": "token",
          "type": "address"
        },
        {
          "internalType": "address",
          "name": "account",
          "type": "address"
        }
      ],
      "name": "unfreezeTokenPublic",
      "outputs": [
        {
          "internalType": "int256",
          "name": "responseCode",
          "type": "int256"
        }
      ],
      "stateMutability": "nonpayable",
      "type": "function"
    },
    {
      "inputs": [
        {
          "internalType": "address",
          "name": "token",
          "type": "address"
        }
      ],
      "name": "unpauseTokenPublic",
      "outputs": [
        {
          "internalType": "int256",
          "name": "responseCode",
          "type": "int256"
        }
      ],
      "stateMutability": "nonpayable",
      "type": "function"
    },
    {
      "inputs": [
        {
          "internalType": "address",
          "name": "token",
          "type": "address"
        },
        {
          "components": [
            {
              "internalType": "int64",
              "name": "second",
              "type": "int64"
            },
            {
              "internalType": "address",
              "name": "autoRenewAccount",
              "type": "address"
            },
            {
              "internalType": "int64",
              "name": "autoRenewPeriod",
              "type": "int64"
            }
          ],
          "internalType": "struct IHederaTokenService.Expiry",
          "name": "expiryInfo",
          "type": "tuple"
        }
      ],
      "name": "updateTokenExpiryInfoPublic",
      "outputs": [
        {
          "internalType": "int256",
          "name": "responseCode",
          "type": "int256"
        }
      ],
      "stateMutability": "nonpayable",
      "type": "function"
    },
    {
      "inputs": [
        {
          "internalType": "address",
          "name": "token",
          "type": "address"
        },
        {
          "components": [
            {
              "internalType": "string",
              "name": "name",
              "type": "string"
            },
            {
              "internalType": "string",
              "name": "symbol",
              "type": "string"
            },
            {
              "internalType": "address",
              "name": "treasury",
              "type": "address"
            },
            {
              "internalType": "string",
              "name": "memo",
              "type": "string"
            },
            {
              "internalType": "bool",
              "name": "tokenSupplyType",
              "type": "bool"
            },
            {
              "internalType": "int64",
              "name": "maxSupply",
              "type": "int64"
            },
            {
              "internalType": "bool",
              "name": "freezeDefault",
              "type": "bool"
            },
            {
              "components": [
                {
                  "internalType": "uint256",
                  "name": "keyType",
                  "type": "uint256"
                },
                {
                  "components": [
                    {
                      "internalType": "bool",
                      "name": "inheritAccountKey",
                      "type": "bool"
                    },
                    {
                      "internalType": "address",
                      "name": "contractId",
                      "type": "address"
                    },
                    {
                      "internalType": "bytes",
                      "name": "ed25519",
                      "type": "bytes"
                    },
                    {
                      "internalType": "bytes",
                      "name": "ECDSA_secp256k1",
                      "type": "bytes"
                    },
                    {
                      "internalType": "address",
                      "name": "delegatableContractId",
                      "type": "address"
                    }
                  ],
                  "internalType": "struct IHederaTokenService.KeyValue",
                  "name": "key",
                  "type": "tuple"
                }
              ],
              "internalType": "struct IHederaTokenService.TokenKey[]",
              "name": "tokenKeys",
              "type": "tuple[]"
            },
            {
              "components": [
                {
                  "internalType": "int64",
                  "name": "second",
                  "type": "int64"
                },
                {
                  "internalType": "address",
                  "name": "autoRenewAccount",
                  "type": "address"
                },
                {
                  "internalType": "int64",
                  "name": "autoRenewPeriod",
                  "type": "int64"
                }
              ],
              "internalType": "struct IHederaTokenService.Expiry",
              "name": "expiry",
              "type": "tuple"
            }
          ],
          "internalType": "struct IHederaTokenService.HederaToken",
          "name": "tokenInfo",
          "type": "tuple"
        }
      ],
      "name": "updateTokenInfoPublic",
      "outputs": [
        {
          "internalType": "int256",
          "name": "responseCode",
          "type": "int256"
        }
      ],
      "stateMutability": "nonpayable",
      "type": "function"
    },
    {
      "inputs": [
        {
          "internalType": "address",
          "name": "token",
          "type": "address"
        },
        {
          "components": [
            {
              "internalType": "uint256",
              "name": "keyType",
              "type": "uint256"
            },
            {
              "components": [
                {
                  "internalType": "bool",
                  "name": "inheritAccountKey",
                  "type": "bool"
                },
                {
                  "internalType": "address",
                  "name": "contractId",
                  "type": "address"
                },
                {
                  "internalType": "bytes",
                  "name": "ed25519",
                  "type": "bytes"
                },
                {
                  "internalType": "bytes",
                  "name": "ECDSA_secp256k1",
                  "type": "bytes"
                },
                {
                  "internalType": "address",
                  "name": "delegatableContractId",
                  "type": "address"
                }
              ],
              "internalType": "struct IHederaTokenService.KeyValue",
              "name": "key",
              "type": "tuple"
            }
          ],
          "internalType": "struct IHederaTokenService.TokenKey[]",
          "name": "keys",
          "type": "tuple[]"
        }
      ],
      "name": "updateTokenKeysPublic",
      "outputs": [
        {
          "internalType": "int64",
          "name": "responseCode",
          "type": "int64"
        }
      ],
      "stateMutability": "nonpayable",
      "type": "function"
    },
    {
      "inputs": [
        {
          "internalType": "address",
          "name": "token",
          "type": "address"
        },
        {
          "internalType": "address",
          "name": "account",
          "type": "address"
        },
        {
          "internalType": "int64[]",
          "name": "serialNumbers",
          "type": "int64[]"
        }
      ],
      "name": "wipeTokenAccountNFTPublic",
      "outputs": [
        {
          "internalType": "int256",
          "name": "responseCode",
          "type": "int256"
        }
      ],
      "stateMutability": "nonpayable",
      "type": "function"
    },
    {
      "inputs": [
        {
          "internalType": "address",
          "name": "token",
          "type": "address"
        },
        {
          "internalType": "address",
          "name": "account",
          "type": "address"
        },
        {
          "internalType": "int64",
          "name": "amount",
          "type": "int64"
        }
      ],
      "name": "wipeTokenAccountPublic",
      "outputs": [
        {
          "internalType": "int256",
          "name": "responseCode",
          "type": "int256"
        }
      ],
      "stateMutability": "nonpayable",
      "type": "function"
    }
  ],
  "bytecode": "0x608060405234801561000f575f80fd5b50600160208181527fa6eef7e35abe7026729641147f7915573c7e97b47efa546f5f6e3230263bcb499190915560027fcc69885fda6bcc1a4ace058b4a62bf5e179ea78fd58a1ccd71c22cc9b688792f5560047fd9d16d34ffb15ba3a3d852f0d403e2ce1d691fb54de27ac87cd2f993f3ec330f5560087f7dfe757ecd65cbd7922a9c0161e935dd7fdbcc0e999689c7d31633896b1fc60b5560107fedc95719e9a3b28dd8e80877cb5880a9be7de1a13fc8b05e7999683b6b567643557fe2689cd4a84e23ad2f564004f1c9013e9589d260bde6380aba3ca7e09e4df40c5560065f5260407f8f331abe73332f95a25873e8b430885974c0409691f89d643119a11623a7924a55611af8806101235f395ff3fe608060405234801561000f575f80fd5b5060043610610127575f3560e01c8063815228c0116100a9578063f25b12001161006e578063f25b12001461027c578063f52177ee1461028f578063f7be3425146102ba578063f848fec4146102cd578063fad0038a146102e0575f80fd5b8063815228c01461021d5780639b23d3d914610230578063a345f7bd14610243578063b26d33cb14610256578063df6c06f514610269575f80fd5b806336348de3116100ef57806336348de3146101b05780634d8f27c9146101c357806356af8403146101d6578063618dc65e146101e95780637d3e5da81461020a575f80fd5b806315dacbea1461012b5780632abf6c55146101565780632b256ec8146101775780632d73bb2e1461018a5780632eecbca31461019d575b5f80fd5b61013e610139366004610e2e565b6102f3565b60405160079190910b81526020015b60405180910390f35b610169610164366004610f4e565b6103e2565b60405190815260200161014d565b610169610185366004610ff9565b610427565b610169610198366004611012565b61049f565b61013e6101ab366004611012565b6104cd565b6101696101be36600461129d565b61050f565b61013e6101d13660046113db565b61051a565b6101696101e436600461148b565b610525565b6101fc6101f73660046114e5565b61056c565b60405161014d929190611573565b610169610218366004611012565b610683565b61016961022b366004611593565b61068e565b61013e61023e366004610e2e565b610699565b610169610251366004610ff9565b6106dd565b610169610264366004611012565b610720565b6101696102773660046115bc565b61072b565b61016961028a3660046115f5565b610737565b6102a261029d366004611635565b610743565b6040805192835260079190910b60208301520161014d565b6101696102c8366004610ff9565b610789565b6101696102db3660046115bc565b6107f8565b6101696102ee366004611660565b610804565b6040516001600160a01b038581166024830152848116604483015283166064820152608481018290525f908190819061016790630aed65f560e11b9060a4015b60408051601f198184030181529181526020820180516001600160e01b03166001600160e01b031990941693909317909252905161037191906116a4565b5f604051808303815f865af19150503d805f81146103aa576040519150601f19603f3d011682016040523d82523d5f602084013e6103af565b606091505b5091509150816103c05760156103d4565b808060200190518101906103d491906116d0565b60030b979650505050505050565b5f6103ed8383610810565b90505f80516020611aa38339815191528160405161040d91815260200190565b60405180910390a160168114610421575f80fd5b92915050565b5f610431826108e7565b90505f80516020611aa38339815191528160405161045191815260200190565b60405180910390a160168114610465575f80fd5b604051600181527f0c9c765845f4d139956bb8fc8decb2eec6093c9c608b809641b16054b29f0e13906020015b60405180910390a1919050565b5f6104aa83836109bc565b60070b90505f80516020611aa38339815191528160405161040d91815260200190565b5f6104d883836109f1565b604051600782900b81529091505f80516020611aa38339815191529060200160405180910390a1600781900b601614610421575f80fd5b5f6103ed8383610a26565b5f6104d88383610a50565b5f610531848484610a7a565b90505f80516020611aa38339815191528160405161055191815260200190565b60405180910390a160168114610565575f80fd5b9392505050565b5f60605f806101676001600160a01b031663618dc65e60e01b87876040516024016105989291906116e9565b60408051601f198184030181529181526020820180516001600160e01b03166001600160e01b03199094169390931790925290516105d691906116a4565b5f604051808303815f865af19150503d805f811461060f576040519150601f19603f3d011682016040523d82523d5f602084013e610614565b606091505b50915091507f4af4780e06fe8cb9df64b0794fa6f01399af979175bb988e35e0e57e594567bc828260405161064a92919061170a565b60405180910390a18161066d57601560405180602001604052805f815250610671565b6016815b60039190910b97909650945050505050565b5f6104aa8383610b54565b5f6103ed8383610b89565b6040516001600160a01b038581166024830152848116604483015283166064820152608481018290525f908190819061016790639b23d3d960e01b9060a401610333565b5f6106e782610bb3565b90505f80516020611aa38339815191528160405161070791815260200190565b60405180910390a16016811461071b575f80fd5b919050565b5f6103ed8383610be0565b5f610531848484610c15565b5f610531848484610c51565b5f80610750858585610c8e565b60405182815291935091505f80516020611aa38339815191529060200160405180910390a160168214610781575f80fd5b935093915050565b5f61079382610d70565b90505f80516020611aa3833981519152816040516107b391815260200190565b60405180910390a1601681146107c7575f80fd5b604051600181527f319ab7084208e4afa38c6e6ff7aea9587439f2e4700746f4c7d425fea17426d290602001610492565b5f610531848484610d9d565b5f610531848484610dd9565b5f805f6101676001600160a01b03166378b6391860e01b868660405160240161083a929190611724565b60408051601f198184030181529181526020820180516001600160e01b03166001600160e01b031990941693909317909252905161087891906116a4565b5f604051808303815f865af19150503d805f81146108b1576040519150601f19603f3d011682016040523d82523d5f602084013e6108b6565b606091505b5091509150816108c75760156108db565b808060200190518101906108db91906116d0565b60030b95945050505050565b6040516001600160a01b03821660248201525f908190819061016790631f106b4b60e21b906044015b60408051601f198184030181529181526020820180516001600160e01b03166001600160e01b031990941693909317909252905161094e91906116a4565b5f604051808303815f865af19150503d805f8114610987576040519150601f19603f3d011682016040523d82523d5f602084013e61098c565b606091505b50915091508161099d5760156109b1565b808060200190518101906109b191906116d0565b60030b949350505050565b6040516001600160a01b038381166024830152821660448201525f9081908190610167906352f9138760e01b9060640161083a565b6040516001600160a01b038381166024830152821660448201525f90819081906101679063af99c63360e01b9060640161083a565b5f805f6101676001600160a01b0316637d305cfa60e01b868660405160240161083a929190611844565b5f805f6101676001600160a01b0316636fc3cbaf60e01b868660405160240161083a92919061196e565b5f805f6101676001600160a01b031663f7f38e2660e01b878787604051602401610aa6939291906119cc565b60408051601f198184030181529181526020820180516001600160e01b03166001600160e01b0319909416939093179092529051610ae491906116a4565b5f604051808303815f865af19150503d805f8114610b1d576040519150601f19603f3d011682016040523d82523d5f602084013e610b22565b606091505b509150915081610b33576015610b47565b80806020019051810190610b4791906116d0565b60030b9695505050505050565b6040516001600160a01b038381166024830152821660448201525f9081908190610167906316e3e16160e21b9060640161083a565b5f805f6101676001600160a01b031663d27be6cd60e01b868660405160240161083a929190611a00565b6040516001600160a01b03821660248201525f908190819061016790637834fb8960e11b90604401610910565b6040516001600160a01b038381166024830152821660448201525f908190819061016790630132f29d60e31b9060640161083a565b6040516001600160a01b03848116602483015283166044820152606481018290525f9081908190610167906307336aaf60e41b90608401610aa6565b6040516001600160a01b0384811660248301528316604482015281151560648201525f908190819061016790631b3b02e560e11b90608401610aa6565b5f805f806101676001600160a01b031663d6910d0660e01b888888604051602401610cbb93929190611a43565b60408051601f198184030181529181526020820180516001600160e01b03166001600160e01b0319909416939093179092529051610cf991906116a4565b5f604051808303815f865af19150503d805f8114610d32576040519150601f19603f3d011682016040523d82523d5f602084013e610d37565b606091505b509150915081610d495760155f610d5d565b80806020019051810190610d5d9190611a6d565b60039190910b9890975095505050505050565b6040516001600160a01b03821660248201525f908190819061016790633b3bff0f60e01b90604401610910565b6040516001600160a01b03848116602483015283166044820152606481018290525f90819081906101679063e1f21c6760e01b90608401610aa6565b6040516001600160a01b03848116602483015283166044820152600782900b60648201525f90819081906101679063efef57f960e01b90608401610aa6565b80356001600160a01b038116811461071b575f80fd5b5f805f8060808587031215610e41575f80fd5b610e4a85610e18565b9350610e5860208601610e18565b9250610e6660408601610e18565b9396929550929360600135925050565b634e487b7160e01b5f52604160045260245ffd5b6040805190810167ffffffffffffffff81118282101715610ead57610ead610e76565b60405290565b60405160a0810167ffffffffffffffff81118282101715610ead57610ead610e76565b604051610120810167ffffffffffffffff81118282101715610ead57610ead610e76565b604051601f8201601f1916810167ffffffffffffffff81118282101715610f2357610f23610e76565b604052919050565b5f67ffffffffffffffff821115610f4457610f44610e76565b5060051b60200190565b5f8060408385031215610f5f575f80fd5b610f6883610e18565b915060208084013567ffffffffffffffff811115610f84575f80fd5b8401601f81018613610f94575f80fd5b8035610fa7610fa282610f2b565b610efa565b81815260059190911b82018301908381019088831115610fc5575f80fd5b928401925b82841015610fea57610fdb84610e18565b82529284019290840190610fca565b80955050505050509250929050565b5f60208284031215611009575f80fd5b61056582610e18565b5f8060408385031215611023575f80fd5b61102c83610e18565b915061103a60208401610e18565b90509250929050565b5f82601f830112611052575f80fd5b813567ffffffffffffffff81111561106c5761106c610e76565b61107f601f8201601f1916602001610efa565b818152846020838601011115611093575f80fd5b816020850160208301375f918101602001919091529392505050565b8035801515811461071b575f80fd5b8060070b81146110cc575f80fd5b50565b803561071b816110be565b5f82601f8301126110e9575f80fd5b813560206110f9610fa283610f2b565b82815260059290921b84018101918181019086841115611117575f80fd5b8286015b8481101561122057803567ffffffffffffffff8082111561113a575f80fd5b908801906040601f19838c038101821315611153575f80fd5b61115b610e8a565b8885013581528285013584811115611171575f80fd5b949094019360a0858e0383011215611187575f80fd5b61118f610eb3565b915061119c8986016110af565b82526111a9838601610e18565b89830152606080860135858111156111bf575f80fd5b6111cd8f8c838a0101611043565b85850152506080935083860135858111156111e6575f80fd5b6111f48f8c838a0101611043565b82850152505061120660a08601610e18565b92820192909252818801528552505091830191830161111b565b509695505050505050565b5f6060828403121561123b575f80fd5b6040516060810181811067ffffffffffffffff8211171561125e5761125e610e76565b604052905080823561126f816110be565b815261127d60208401610e18565b60208201526040830135611290816110be565b6040919091015292915050565b5f80604083850312156112ae575f80fd5b6112b783610e18565b9150602083013567ffffffffffffffff808211156112d3575f80fd5b9084019061016082870312156112e7575f80fd5b6112ef610ed6565b8235828111156112fd575f80fd5b61130988828601611043565b82525060208301358281111561131d575f80fd5b61132988828601611043565b60208301525061133b60408401610e18565b6040820152606083013582811115611351575f80fd5b61135d88828601611043565b60608301525061136f608084016110af565b608082015261138060a084016110cf565b60a082015261139160c084016110af565b60c082015260e0830135828111156113a7575f80fd5b6113b3888286016110da565b60e08301525061010091506113ca8783850161122b565b828201528093505050509250929050565b5f80604083850312156113ec575f80fd5b6113f583610e18565b9150602083013567ffffffffffffffff811115611410575f80fd5b61141c858286016110da565b9150509250929050565b5f82601f830112611435575f80fd5b81356020611445610fa283610f2b565b8083825260208201915060208460051b870101935086841115611466575f80fd5b602086015b8481101561122057803561147e816110be565b835291830191830161146b565b5f805f6060848603121561149d575f80fd5b6114a684610e18565b92506114b460208501610e18565b9150604084013567ffffffffffffffff8111156114cf575f80fd5b6114db86828701611426565b9150509250925092565b5f80604083850312156114f6575f80fd5b6114ff83610e18565b9150602083013567ffffffffffffffff81111561151a575f80fd5b61141c85828601611043565b5f5b83811015611540578181015183820152602001611528565b50505f910152565b5f815180845261155f816020860160208601611526565b601f01601f19169290920160200192915050565b828152604060208201525f61158b6040830184611548565b949350505050565b5f80608083850312156115a4575f80fd5b6115ad83610e18565b915061103a846020850161122b565b5f805f606084860312156115ce575f80fd5b6115d784610e18565b92506115e560208501610e18565b9150604084013590509250925092565b5f805f60608486031215611607575f80fd5b61161084610e18565b925061161e60208501610e18565b915061162c604085016110af565b90509250925092565b5f805f60608486031215611647575f80fd5b61165084610e18565b925060208401356114b4816110be565b5f805f60608486031215611672575f80fd5b61167b84610e18565b925061168960208501610e18565b91506040840135611699816110be565b809150509250925092565b5f82516116b5818460208701611526565b9190910192915050565b8051600381900b811461071b575f80fd5b5f602082840312156116e0575f80fd5b610565826116bf565b6001600160a01b0383168152604060208201525f61158b6040830184611548565b8215158152604060208201525f61158b6040830184611548565b5f604082016001600160a01b0380861684526020604060208601528286518085526060870191506020880194505f5b81811015611771578551851683529483019491830191600101611753565b509098975050505050505050565b5f82825180855260208086019550808260051b8401018186015f5b8481101561183757601f198684030189528151604081518552858201519150808686015281511515818601528582015160606001600160a01b038083168289015283850151935060a09250608083818a01526117f960e08a0186611548565b92860151898403603f1901858b01529294506118158584611548565b9501511660c0979097019690965250509884019892509083019060010161179a565b5090979650505050505050565b6001600160a01b0383168152604060208201525f825161016060408401526118706101a0840182611548565b90506020840151603f198085840301606086015261188e8383611548565b9250604086015191506118ac60808601836001600160a01b03169052565b60608601519150808584030160a08601526118c78383611548565b9250608086015191506118de60c086018315159052565b60a086015191506118f460e086018360070b9052565b60c0860151915061010061190b8187018415159052565b60e087015192508186850301610120870152611927848461177f565b908701518051600790810b61014089015260208201516001600160a01b03166101608901526040820151900b61018088015290935091506119659050565b50949350505050565b6001600160a01b0383168152604060208201525f61158b604083018461177f565b5f815180845260208085019450602084015f5b838110156119c157815160070b875295820195908201906001016119a2565b509495945050505050565b5f6001600160a01b038086168352808516602084015250606060408301526119f7606083018461198f565b95945050505050565b6001600160a01b0383168152608081016105656020830184805160070b82526001600160a01b036020820151166020830152604081015160070b60408301525050565b6001600160a01b03841681528260070b6020820152606060408201525f6119f7606083018461198f565b5f8060408385031215611a7e575f80fd5b611a87836116bf565b91506020830151611a97816110be565b80915050925092905056fe90a5cf4cffe88b4edbb041cfc7a8a812c48a5ec30b84640fb37690875168e3aaa26469706673582212202da96f93cc2e178dd973a21f928bd28f62e0ead85ef55c0cd7deb839fb006f4564736f6c63430008180033",
  "linkReferences": {},
  "deployedLinkReferences": {}
}