{
  "_format": "hh-sol-artifact-1",
  "contractName": "Transaction",
  "sourceName": "contracts/solidity/transaction/Transaction.sol",
  "abi": [
    {
      "inputs": [
        {
          "internalType": "address",
          "name": "addr",
          "type": "address"
        }
      ],
      "stateMutability": "nonpayable",
      "type": "constructor"
    },
    {
      "anonymous": false,
      "inputs": [
        {
          "indexed": false,
          "internalType": "uint256",
          "name": "",
          "type": "uint256"
        }
      ],
      "name": "MsgValue",
      "type": "event"
    },
    {
      "inputs": [],
      "name": "checkGasleft",
      "outputs": [
        {
          "internalType": "uint256",
          "name": "",
          "type": "uint256"
        }
      ],
      "stateMutability": "view",
      "type": "function"
    },
    {
      "inputs": [],
      "name": "getGasPrice",
      "outputs": [
        {
          "internalType": "uint256",
          "name": "",
          "type": "uint256"
        }
      ],
      "stateMutability": "view",
      "type": "function"
    },
    {
      "inputs": [
        {
          "internalType": "uint256",
          "name": "integer",
          "type": "uint256"
        },
        {
          "internalType": "string",
          "name": "inputMessage",
          "type": "string"
        }
      ],
      "name": "getMessageData",
      "outputs": [
        {
          "internalType": "bytes",
          "name": "",
          "type": "bytes"
        }
      ],
      "stateMutability": "nonpayable",
      "type": "function"
    },
    {
      "inputs": [],
      "name": "getMessageSender",
      "outputs": [
        {
          "internalType": "address",
          "name": "",
          "type": "address"
        }
      ],
      "stateMutability": "view",
      "type": "function"
    },
    {
      "inputs": [],
      "name": "getMessageSignature",
      "outputs": [
        {
          "internalType": "bytes4",
          "name": "",
          "type": "bytes4"
        }
      ],
      "stateMutability": "pure",
      "type": "function"
    },
    {
      "inputs": [],
      "name": "getMessageValue",
      "outputs": [],
      "stateMutability": "payable",
      "type": "function"
    },
    {
      "inputs": [],
      "name": "getMsgSenderFromSecondary",
      "outputs": [
        {
          "internalType": "address",
          "name": "",
          "type": "address"
        }
      ],
      "stateMutability": "view",
      "type": "function"
    },
    {
      "inputs": [],
      "name": "getTxOriginFromSecondary",
      "outputs": [
        {
          "internalType": "address",
          "name": "",
          "type": "address"
        }
      ],
      "stateMutability": "view",
      "type": "function"
    },
    {
      "inputs": [],
      "name": "message",
      "outputs": [
        {
          "internalType": "string",
          "name": "",
          "type": "string"
        }
      ],
      "stateMutability": "view",
      "type": "function"
    }
  ],
  "bytecode": "0x608060405234801561001057600080fd5b506040516106f73803806106f783398101604081905261002f9161005e565b600280546001600160a01b039092166001600160a01b031992831681179091556003805490921617905561008e565b60006020828403121561007057600080fd5b81516001600160a01b038116811461008757600080fd5b9392505050565b61065a8061009d6000396000f3fe6080604052600436106100865760003560e01c806373c95a2f1161005957806373c95a2f146100f957806376167a89146101385780638b5a76e41461014b578063ddb6e87a14610160578063e21f37ce1461018d57600080fd5b8063025a2f651461008b5780632892c2c2146100bd578063455259cb146100d257806347d52d86146100ef575b600080fd5b34801561009757600080fd5b506100a06101a2565b6040516001600160a01b0390911681526020015b60405180910390f35b3480156100c957600080fd5b506100a0610215565b3480156100de57600080fd5b503a5b6040519081526020016100b4565b6100f761025f565b005b34801561010557600080fd5b506040517fffffffff000000000000000000000000000000000000000000000000000000006000351681526020016100b4565b34801561014457600080fd5b50336100a0565b34801561015757600080fd5b506100e1610294565b34801561016c57600080fd5b5061018061017b366004610395565b61029c565b6040516100b49190610496565b34801561019957600080fd5b506101806102f1565b60035460408051637a6ce2e160e01b815290516000926001600160a01b031691637a6ce2e19160048083019260209291908290030181865afa1580156101ec573d6000803e3d6000fd5b505050506040513d601f19601f8201168201806040525081019061021091906104b0565b905090565b60035460408051631700efc560e31b815290516000926001600160a01b03169163b8077e289160048083019260209291908290030181865afa1580156101ec573d6000803e3d6000fd5b6040513481527fa143729f1e064742494ee223fd9347d2eb1ea559fcad61e62d2568b526a7a6869060200160405180910390a1565b60005a905090565b606060006102aa8382610564565b50826001819055506000368080601f016020809104026020016040519081016040528093929190818152602001838380828437600092019190915250929695505050505050565b600080546102fe906104d9565b80601f016020809104026020016040519081016040528092919081815260200182805461032a906104d9565b80156103775780601f1061034c57610100808354040283529160200191610377565b820191906000526020600020905b81548152906001019060200180831161035a57829003601f168201915b505050505081565b634e487b7160e01b600052604160045260246000fd5b600080604083850312156103a857600080fd5b82359150602083013567ffffffffffffffff808211156103c757600080fd5b818501915085601f8301126103db57600080fd5b8135818111156103ed576103ed61037f565b604051601f8201601f19908116603f011681019083821181831017156104155761041561037f565b8160405282815288602084870101111561042e57600080fd5b8260208601602083013760006020848301015280955050505050509250929050565b6000815180845260005b818110156104765760208185018101518683018201520161045a565b506000602082860101526020601f19601f83011685010191505092915050565b6020815260006104a96020830184610450565b9392505050565b6000602082840312156104c257600080fd5b81516001600160a01b03811681146104a957600080fd5b600181811c908216806104ed57607f821691505b60208210810361050d57634e487b7160e01b600052602260045260246000fd5b50919050565b601f82111561055f576000816000526020600020601f850160051c8101602086101561053c5750805b601f850160051c820191505b8181101561055b57828155600101610548565b5050505b505050565b815167ffffffffffffffff81111561057e5761057e61037f565b6105928161058c84546104d9565b84610513565b602080601f8311600181146105c757600084156105af5750858301515b600019600386901b1c1916600185901b17855561055b565b600085815260208120601f198616915b828110156105f6578886015182559484019460019091019084016105d7565b50858210156106145787850151600019600388901b60f8161c191681555b5050505050600190811b0190555056fea26469706673582212205d7f51c2e8fbd4ceca376470dec5abee849058cf57d35ad28acdebb1ea6725e864736f6c63430008170033",
  "linkReferences": {},
  "deployedLinkReferences": {}
}