{
  "_format": "hh-sol-artifact-1",
  "contractName": "ExampleTokenVote",
  "sourceName": "contracts/openzeppelin/governor/ExampleTokenVote.sol",
  "abi": [
    {
      "inputs": [],
      "stateMutability": "nonpayable",
      "type": "constructor"
    },
    {
      "inputs": [],
      "name": "CheckpointUnorderedInsertion",
      "type": "error"
    },
    {
      "inputs": [],
      "name": "ECDSAInvalidSignature",
      "type": "error"
    },
    {
      "inputs": [
        {
          "internalType": "uint256",
          "name": "length",
          "type": "uint256"
        }
      ],
      "name": "ECDSAInvalidSignatureLength",
      "type": "error"
    },
    {
      "inputs": [
        {
          "internalType": "bytes32",
          "name": "s",
          "type": "bytes32"
        }
      ],
      "name": "ECDSAInvalidSignatureS",
      "type": "error"
    },
    {
      "inputs": [
        {
          "internalType": "uint256",
          "name": "increasedSupply",
          "type": "uint256"
        },
        {
          "internalType": "uint256",
          "name": "cap",
          "type": "uint256"
        }
      ],
      "name": "ERC20ExceededSafeSupply",
      "type": "error"
    },
    {
      "inputs": [
        {
          "internalType": "address",
          "name": "spender",
          "type": "address"
        },
        {
          "internalType": "uint256",
          "name": "allowance",
          "type": "uint256"
        },
        {
          "internalType": "uint256",
          "name": "needed",
          "type": "uint256"
        }
      ],
      "name": "ERC20InsufficientAllowance",
      "type": "error"
    },
    {
      "inputs": [
        {
          "internalType": "address",
          "name": "sender",
          "type": "address"
        },
        {
          "internalType": "uint256",
          "name": "balance",
          "type": "uint256"
        },
        {
          "internalType": "uint256",
          "name": "needed",
          "type": "uint256"
        }
      ],
      "name": "ERC20InsufficientBalance",
      "type": "error"
    },
    {
      "inputs": [
        {
          "internalType": "address",
          "name": "approver",
          "type": "address"
        }
      ],
      "name": "ERC20InvalidApprover",
      "type": "error"
    },
    {
      "inputs": [
        {
          "internalType": "address",
          "name": "receiver",
          "type": "address"
        }
      ],
      "name": "ERC20InvalidReceiver",
      "type": "error"
    },
    {
      "inputs": [
        {
          "internalType": "address",
          "name": "sender",
          "type": "address"
        }
      ],
      "name": "ERC20InvalidSender",
      "type": "error"
    },
    {
      "inputs": [
        {
          "internalType": "address",
          "name": "spender",
          "type": "address"
        }
      ],
      "name": "ERC20InvalidSpender",
      "type": "error"
    },
    {
      "inputs": [
        {
          "internalType": "uint256",
          "name": "deadline",
          "type": "uint256"
        }
      ],
      "name": "ERC2612ExpiredSignature",
      "type": "error"
    },
    {
      "inputs": [
        {
          "internalType": "address",
          "name": "signer",
          "type": "address"
        },
        {
          "internalType": "address",
          "name": "owner",
          "type": "address"
        }
      ],
      "name": "ERC2612InvalidSigner",
      "type": "error"
    },
    {
      "inputs": [
        {
          "internalType": "uint256",
          "name": "timepoint",
          "type": "uint256"
        },
        {
          "internalType": "uint48",
          "name": "clock",
          "type": "uint48"
        }
      ],
      "name": "ERC5805FutureLookup",
      "type": "error"
    },
    {
      "inputs": [],
      "name": "ERC6372InconsistentClock",
      "type": "error"
    },
    {
      "inputs": [
        {
          "internalType": "address",
          "name": "account",
          "type": "address"
        },
        {
          "internalType": "uint256",
          "name": "currentNonce",
          "type": "uint256"
        }
      ],
      "name": "InvalidAccountNonce",
      "type": "error"
    },
    {
      "inputs": [],
      "name": "InvalidShortString",
      "type": "error"
    },
    {
      "inputs": [
        {
          "internalType": "address",
          "name": "owner",
          "type": "address"
        }
      ],
      "name": "OwnableInvalidOwner",
      "type": "error"
    },
    {
      "inputs": [
        {
          "internalType": "address",
          "name": "account",
          "type": "address"
        }
      ],
      "name": "OwnableUnauthorizedAccount",
      "type": "error"
    },
    {
      "inputs": [
        {
          "internalType": "uint8",
          "name": "bits",
          "type": "uint8"
        },
        {
          "internalType": "uint256",
          "name": "value",
          "type": "uint256"
        }
      ],
      "name": "SafeCastOverflowedUintDowncast",
      "type": "error"
    },
    {
      "inputs": [
        {
          "internalType": "string",
          "name": "str",
          "type": "string"
        }
      ],
      "name": "StringTooLong",
      "type": "error"
    },
    {
      "inputs": [
        {
          "internalType": "uint256",
          "name": "expiry",
          "type": "uint256"
        }
      ],
      "name": "VotesExpiredSignature",
      "type": "error"
    },
    {
      "anonymous": false,
      "inputs": [
        {
          "indexed": true,
          "internalType": "address",
          "name": "owner",
          "type": "address"
        },
        {
          "indexed": true,
          "internalType": "address",
          "name": "spender",
          "type": "address"
        },
        {
          "indexed": false,
          "internalType": "uint256",
          "name": "value",
          "type": "uint256"
        }
      ],
      "name": "Approval",
      "type": "event"
    },
    {
      "anonymous": false,
      "inputs": [
        {
          "indexed": true,
          "internalType": "address",
          "name": "delegator",
          "type": "address"
        },
        {
          "indexed": true,
          "internalType": "address",
          "name": "fromDelegate",
          "type": "address"
        },
        {
          "indexed": true,
          "internalType": "address",
          "name": "toDelegate",
          "type": "address"
        }
      ],
      "name": "DelegateChanged",
      "type": "event"
    },
    {
      "anonymous": false,
      "inputs": [
        {
          "indexed": true,
          "internalType": "address",
          "name": "delegate",
          "type": "address"
        },
        {
          "indexed": false,
          "internalType": "uint256",
          "name": "previousVotes",
          "type": "uint256"
        },
        {
          "indexed": false,
          "internalType": "uint256",
          "name": "newVotes",
          "type": "uint256"
        }
      ],
      "name": "DelegateVotesChanged",
      "type": "event"
    },
    {
      "anonymous": false,
      "inputs": [],
      "name": "EIP712DomainChanged",
      "type": "event"
    },
    {
      "anonymous": false,
      "inputs": [
        {
          "indexed": true,
          "internalType": "address",
          "name": "previousOwner",
          "type": "address"
        },
        {
          "indexed": true,
          "internalType": "address",
          "name": "newOwner",
          "type": "address"
        }
      ],
      "name": "OwnershipTransferred",
      "type": "event"
    },
    {
      "anonymous": false,
      "inputs": [
        {
          "indexed": true,
          "internalType": "address",
          "name": "from",
          "type": "address"
        },
        {
          "indexed": true,
          "internalType": "address",
          "name": "to",
          "type": "address"
        },
        {
          "indexed": false,
          "internalType": "uint256",
          "name": "value",
          "type": "uint256"
        }
      ],
      "name": "Transfer",
      "type": "event"
    },
    {
      "inputs": [],
      "name": "CLOCK_MODE",
      "outputs": [
        {
          "internalType": "string",
          "name": "",
          "type": "string"
        }
      ],
      "stateMutability": "view",
      "type": "function"
    },
    {
      "inputs": [],
      "name": "DOMAIN_SEPARATOR",
      "outputs": [
        {
          "internalType": "bytes32",
          "name": "",
          "type": "bytes32"
        }
      ],
      "stateMutability": "view",
      "type": "function"
    },
    {
      "inputs": [
        {
          "internalType": "address",
          "name": "owner",
          "type": "address"
        },
        {
          "internalType": "address",
          "name": "spender",
          "type": "address"
        }
      ],
      "name": "allowance",
      "outputs": [
        {
          "internalType": "uint256",
          "name": "",
          "type": "uint256"
        }
      ],
      "stateMutability": "view",
      "type": "function"
    },
    {
      "inputs": [
        {
          "internalType": "address",
          "name": "spender",
          "type": "address"
        },
        {
          "internalType": "uint256",
          "name": "value",
          "type": "uint256"
        }
      ],
      "name": "approve",
      "outputs": [
        {
          "internalType": "bool",
          "name": "",
          "type": "bool"
        }
      ],
      "stateMutability": "nonpayable",
      "type": "function"
    },
    {
      "inputs": [
        {
          "internalType": "address",
          "name": "account",
          "type": "address"
        }
      ],
      "name": "balanceOf",
      "outputs": [
        {
          "internalType": "uint256",
          "name": "",
          "type": "uint256"
        }
      ],
      "stateMutability": "view",
      "type": "function"
    },
    {
      "inputs": [
        {
          "internalType": "address",
          "name": "account",
          "type": "address"
        },
        {
          "internalType": "uint32",
          "name": "pos",
          "type": "uint32"
        }
      ],
      "name": "checkpoints",
      "outputs": [
        {
          "components": [
            {
              "internalType": "uint48",
              "name": "_key",
              "type": "uint48"
            },
            {
              "internalType": "uint208",
              "name": "_value",
              "type": "uint208"
            }
          ],
          "internalType": "struct Checkpoints.Checkpoint208",
          "name": "",
          "type": "tuple"
        }
      ],
      "stateMutability": "view",
      "type": "function"
    },
    {
      "inputs": [],
      "name": "clock",
      "outputs": [
        {
          "internalType": "uint48",
          "name": "",
          "type": "uint48"
        }
      ],
      "stateMutability": "view",
      "type": "function"
    },
    {
      "inputs": [],
      "name": "decimals",
      "outputs": [
        {
          "internalType": "uint8",
          "name": "",
          "type": "uint8"
        }
      ],
      "stateMutability": "view",
      "type": "function"
    },
    {
      "inputs": [
        {
          "internalType": "address",
          "name": "delegatee",
          "type": "address"
        }
      ],
      "name": "delegate",
      "outputs": [],
      "stateMutability": "nonpayable",
      "type": "function"
    },
    {
      "inputs": [
        {
          "internalType": "address",
          "name": "delegatee",
          "type": "address"
        },
        {
          "internalType": "uint256",
          "name": "nonce",
          "type": "uint256"
        },
        {
          "internalType": "uint256",
          "name": "expiry",
          "type": "uint256"
        },
        {
          "internalType": "uint8",
          "name": "v",
          "type": "uint8"
        },
        {
          "internalType": "bytes32",
          "name": "r",
          "type": "bytes32"
        },
        {
          "internalType": "bytes32",
          "name": "s",
          "type": "bytes32"
        }
      ],
      "name": "delegateBySig",
      "outputs": [],
      "stateMutability": "nonpayable",
      "type": "function"
    },
    {
      "inputs": [
        {
          "internalType": "address",
          "name": "account",
          "type": "address"
        }
      ],
      "name": "delegates",
      "outputs": [
        {
          "internalType": "address",
          "name": "",
          "type": "address"
        }
      ],
      "stateMutability": "view",
      "type": "function"
    },
    {
      "inputs": [],
      "name": "eip712Domain",
      "outputs": [
        {
          "internalType": "bytes1",
          "name": "fields",
          "type": "bytes1"
        },
        {
          "internalType": "string",
          "name": "name",
          "type": "string"
        },
        {
          "internalType": "string",
          "name": "version",
          "type": "string"
        },
        {
          "internalType": "uint256",
          "name": "chainId",
          "type": "uint256"
        },
        {
          "internalType": "address",
          "name": "verifyingContract",
          "type": "address"
        },
        {
          "internalType": "bytes32",
          "name": "salt",
          "type": "bytes32"
        },
        {
          "internalType": "uint256[]",
          "name": "extensions",
          "type": "uint256[]"
        }
      ],
      "stateMutability": "view",
      "type": "function"
    },
    {
      "inputs": [
        {
          "internalType": "uint256",
          "name": "timepoint",
          "type": "uint256"
        }
      ],
      "name": "getPastTotalSupply",
      "outputs": [
        {
          "internalType": "uint256",
          "name": "",
          "type": "uint256"
        }
      ],
      "stateMutability": "view",
      "type": "function"
    },
    {
      "inputs": [
        {
          "internalType": "address",
          "name": "account",
          "type": "address"
        },
        {
          "internalType": "uint256",
          "name": "timepoint",
          "type": "uint256"
        }
      ],
      "name": "getPastVotes",
      "outputs": [
        {
          "internalType": "uint256",
          "name": "",
          "type": "uint256"
        }
      ],
      "stateMutability": "view",
      "type": "function"
    },
    {
      "inputs": [
        {
          "internalType": "address",
          "name": "account",
          "type": "address"
        }
      ],
      "name": "getVotes",
      "outputs": [
        {
          "internalType": "uint256",
          "name": "",
          "type": "uint256"
        }
      ],
      "stateMutability": "view",
      "type": "function"
    },
    {
      "inputs": [
        {
          "internalType": "address",
          "name": "to",
          "type": "address"
        },
        {
          "internalType": "uint256",
          "name": "amount",
          "type": "uint256"
        }
      ],
      "name": "mint",
      "outputs": [],
      "stateMutability": "nonpayable",
      "type": "function"
    },
    {
      "inputs": [],
      "name": "name",
      "outputs": [
        {
          "internalType": "string",
          "name": "",
          "type": "string"
        }
      ],
      "stateMutability": "view",
      "type": "function"
    },
    {
      "inputs": [
        {
          "internalType": "address",
          "name": "owner",
          "type": "address"
        }
      ],
      "name": "nonces",
      "outputs": [
        {
          "internalType": "uint256",
          "name": "",
          "type": "uint256"
        }
      ],
      "stateMutability": "view",
      "type": "function"
    },
    {
      "inputs": [
        {
          "internalType": "address",
          "name": "account",
          "type": "address"
        }
      ],
      "name": "numCheckpoints",
      "outputs": [
        {
          "internalType": "uint32",
          "name": "",
          "type": "uint32"
        }
      ],
      "stateMutability": "view",
      "type": "function"
    },
    {
      "inputs": [],
      "name": "owner",
      "outputs": [
        {
          "internalType": "address",
          "name": "",
          "type": "address"
        }
      ],
      "stateMutability": "view",
      "type": "function"
    },
    {
      "inputs": [
        {
          "internalType": "address",
          "name": "owner",
          "type": "address"
        },
        {
          "internalType": "address",
          "name": "spender",
          "type": "address"
        },
        {
          "internalType": "uint256",
          "name": "value",
          "type": "uint256"
        },
        {
          "internalType": "uint256",
          "name": "deadline",
          "type": "uint256"
        },
        {
          "internalType": "uint8",
          "name": "v",
          "type": "uint8"
        },
        {
          "internalType": "bytes32",
          "name": "r",
          "type": "bytes32"
        },
        {
          "internalType": "bytes32",
          "name": "s",
          "type": "bytes32"
        }
      ],
      "name": "permit",
      "outputs": [],
      "stateMutability": "nonpayable",
      "type": "function"
    },
    {
      "inputs": [],
      "name": "renounceOwnership",
      "outputs": [],
      "stateMutability": "nonpayable",
      "type": "function"
    },
    {
      "inputs": [],
      "name": "symbol",
      "outputs": [
        {
          "internalType": "string",
          "name": "",
          "type": "string"
        }
      ],
      "stateMutability": "view",
      "type": "function"
    },
    {
      "inputs": [],
      "name": "totalSupply",
      "outputs": [
        {
          "internalType": "uint256",
          "name": "",
          "type": "uint256"
        }
      ],
      "stateMutability": "view",
      "type": "function"
    },
    {
      "inputs": [
        {
          "internalType": "address",
          "name": "to",
          "type": "address"
        },
        {
          "internalType": "uint256",
          "name": "value",
          "type": "uint256"
        }
      ],
      "name": "transfer",
      "outputs": [
        {
          "internalType": "bool",
          "name": "",
          "type": "bool"
        }
      ],
      "stateMutability": "nonpayable",
      "type": "function"
    },
    {
      "inputs": [
        {
          "internalType": "address",
          "name": "from",
          "type": "address"
        },
        {
          "internalType": "address",
          "name": "to",
          "type": "address"
        },
        {
          "internalType": "uint256",
          "name": "value",
          "type": "uint256"
        }
      ],
      "name": "transferFrom",
      "outputs": [
        {
          "internalType": "bool",
          "name": "",
          "type": "bool"
        }
      ],
      "stateMutability": "nonpayable",
      "type": "function"
    },
    {
      "inputs": [
        {
          "internalType": "address",
          "name": "newOwner",
          "type": "address"
        }
      ],
      "name": "transferOwnership",
      "outputs": [],
      "stateMutability": "nonpayable",
      "type": "function"
    }
  ],
  "bytecode": "0x6101606040523480156200001257600080fd5b50336040518060400160405280600c81526020016b22bc30b6b83632aa37b5b2b760a11b81525080604051806040016040528060018152602001603160f81b8152506040518060400160405280600c81526020016b22bc30b6b83632aa37b5b2b760a11b8152506040518060400160405280600381526020016245584d60e81b8152508160039081620000a6919062000327565b506004620000b5828262000327565b50620000c791508390506005620001b2565b61012052620000d8816006620001b2565b61014052815160208084019190912060e052815190820120610100524660a0526200016660e05161010051604080517f8b73c3c69bb8fe3d512ecc4cf759cc79239f7b179b0ffacaa9a75d522b39400f60208201529081019290925260608201524660808201523060a082015260009060c00160405160208183030381529060405280519060200120905090565b60805250503060c052506001600160a01b038116620001a057604051631e4fbdf760e01b8152600060048201526024015b60405180910390fd5b620001ab81620001eb565b5062000469565b6000602083511015620001d257620001ca836200023d565b9050620001e5565b81620001df848262000327565b5060ff90505b92915050565b600b80546001600160a01b038381166001600160a01b0319831681179093556040519116919082907f8be0079c531659141344cd1fd0a4f28419497f9722a3daafe3b4186f6b6457e090600090a35050565b600080829050601f815111156200026b578260405163305a27a960e01b8152600401620001979190620003f3565b8051620002788262000444565b179392505050565b634e487b7160e01b600052604160045260246000fd5b600181811c90821680620002ab57607f821691505b602082108103620002cc57634e487b7160e01b600052602260045260246000fd5b50919050565b601f82111562000322576000816000526020600020601f850160051c81016020861015620002fd5750805b601f850160051c820191505b818110156200031e5782815560010162000309565b5050505b505050565b81516001600160401b0381111562000343576200034362000280565b6200035b8162000354845462000296565b84620002d2565b602080601f8311600181146200039357600084156200037a5750858301515b600019600386901b1c1916600185901b1785556200031e565b600085815260208120601f198616915b82811015620003c457888601518255948401946001909101908401620003a3565b5085821015620003e35787850151600019600388901b60f8161c191681555b5050505050600190811b01905550565b60006020808352835180602085015260005b81811015620004235785810183015185820160400152820162000405565b506000604082860101526040601f19601f8301168501019250505092915050565b80516020808301519190811015620002cc5760001960209190910360031b1b16919050565b60805160a05160c05160e05161010051610120516101405161200b620004c46000396000610ebb01526000610e8e01526000610bbd01526000610b9501526000610af001526000610b1a01526000610b44015261200b6000f3fe608060405234801561001057600080fd5b50600436106101b95760003560e01c8063715018a6116100f95780639ab24eb011610097578063d505accf11610071578063d505accf146103cd578063dd62ed3e146103e0578063f1127ed814610419578063f2fde38b1461045857600080fd5b80639ab24eb014610394578063a9059cbb146103a7578063c3cda520146103ba57600080fd5b80638da5cb5b116100d35780638da5cb5b146103495780638e539e8c1461035a57806391ddadf41461036d57806395d89b411461038c57600080fd5b8063715018a6146103135780637ecebe001461031b57806384b0196e1461032e57600080fd5b80633a46b1a811610166578063587cde1e11610140578063587cde1e1461026b5780635c19a95c146102af5780636fcfff45146102c257806370a08231146102ea57600080fd5b80633a46b1a81461023b57806340c10f191461024e5780634bf5d7e91461026357600080fd5b806323b872dd1161019757806323b872dd14610211578063313ce567146102245780633644e5151461023357600080fd5b806306fdde03146101be578063095ea7b3146101dc57806318160ddd146101ff575b600080fd5b6101c661046b565b6040516101d39190611c0c565b60405180910390f35b6101ef6101ea366004611c3b565b6104fd565b60405190151581526020016101d3565b6002545b6040519081526020016101d3565b6101ef61021f366004611c65565b610517565b604051601281526020016101d3565b61020361053b565b610203610249366004611c3b565b61054a565b61026161025c366004611c3b565b6105d0565b005b6101c66105e6565b610297610279366004611ca1565b6001600160a01b039081166000908152600860205260409020541690565b6040516001600160a01b0390911681526020016101d3565b6102616102bd366004611ca1565b61065e565b6102d56102d0366004611ca1565b610669565b60405163ffffffff90911681526020016101d3565b6102036102f8366004611ca1565b6001600160a01b031660009081526020819052604090205490565b610261610674565b610203610329366004611ca1565b610688565b610336610693565b6040516101d39796959493929190611cbc565b600b546001600160a01b0316610297565b610203610368366004611d55565b6106d9565b610375610743565b60405165ffffffffffff90911681526020016101d3565b6101c661074d565b6102036103a2366004611ca1565b61075c565b6101ef6103b5366004611c3b565b61078c565b6102616103c8366004611d7f565b61079a565b6102616103db366004611dd7565b610857565b6102036103ee366004611e41565b6001600160a01b03918216600090815260016020908152604080832093909416825291909152205490565b61042c610427366004611e74565b610991565b60408051825165ffffffffffff1681526020928301516001600160d01b031692810192909252016101d3565b610261610466366004611ca1565b6109b6565b60606003805461047a90611eb4565b80601f01602080910402602001604051908101604052809291908181526020018280546104a690611eb4565b80156104f35780601f106104c8576101008083540402835291602001916104f3565b820191906000526020600020905b8154815290600101906020018083116104d657829003601f168201915b5050505050905090565b60003361050b8185856109f4565b60019150505b92915050565b600033610525858285610a06565b610530858585610a84565b506001949350505050565b6000610545610ae3565b905090565b600080610555610743565b90508065ffffffffffff16831061059557604051637669fc0f60e11b81526004810184905265ffffffffffff821660248201526044015b60405180910390fd5b6105bf6105a184610c0e565b6001600160a01b038616600090815260096020526040902090610c45565b6001600160d01b0316949350505050565b6105d8610cfb565b6105e28282610d28565b5050565b60606105f0610d5e565b65ffffffffffff16610600610743565b65ffffffffffff1614610626576040516301bfc1c560e61b815260040160405180910390fd5b5060408051808201909152601d81527f6d6f64653d626c6f636b6e756d6265722666726f6d3d64656661756c74000000602082015290565b336105e28183610d69565b600061051182610de8565b61067c610cfb565b6106866000610e0a565b565b600061051182610e69565b6000606080600080600060606106a7610e87565b6106af610eb4565b60408051600080825260208201909252600f60f81b9b939a50919850469750309650945092509050565b6000806106e4610743565b90508065ffffffffffff16831061071f57604051637669fc0f60e11b81526004810184905265ffffffffffff8216602482015260440161058c565b61073361072b84610c0e565b600a90610c45565b6001600160d01b03169392505050565b6000610545610d5e565b60606004805461047a90611eb4565b6001600160a01b038116600090815260096020526040812061077d90610ee1565b6001600160d01b031692915050565b60003361050b818585610a84565b834211156107be57604051632341d78760e11b81526004810185905260240161058c565b604080517fe48329057bfd03d55e49b547132e39cffd9c1820ad7b9d4c5307691425d15adf60208201526001600160a01b038816918101919091526060810186905260808101859052600090610838906108309060a00160405160208183030381529060405280519060200120610f1a565b858585610f47565b90506108448187610f75565b61084e8188610d69565b50505050505050565b8342111561087b5760405163313c898160e11b81526004810185905260240161058c565b60007f6e71edae12b1b97f4d1f60370fef10105fa2faae0126114a169c64845d6126c98888886108c88c6001600160a01b0316600090815260076020526040902080546001810190915590565b6040805160208101969096526001600160a01b0394851690860152929091166060840152608083015260a082015260c0810186905260e001604051602081830303815290604052805190602001209050600061092382610f1a565b9050600061093382878787610f47565b9050896001600160a01b0316816001600160a01b03161461097a576040516325c0072360e11b81526001600160a01b0380831660048301528b16602482015260440161058c565b6109858a8a8a6109f4565b50505050505050505050565b60408051808201909152600080825260208201526109af8383610fc8565b9392505050565b6109be610cfb565b6001600160a01b0381166109e857604051631e4fbdf760e01b81526000600482015260240161058c565b6109f181610e0a565b50565b610a018383836001610ffe565b505050565b6001600160a01b038381166000908152600160209081526040808320938616835292905220546000198114610a7e5781811015610a6f57604051637dc7a0d960e11b81526001600160a01b0384166004820152602481018290526044810183905260640161058c565b610a7e84848484036000610ffe565b50505050565b6001600160a01b038316610aae57604051634b637e8f60e11b81526000600482015260240161058c565b6001600160a01b038216610ad85760405163ec442f0560e01b81526000600482015260240161058c565b610a018383836110d3565b6000306001600160a01b037f000000000000000000000000000000000000000000000000000000000000000016148015610b3c57507f000000000000000000000000000000000000000000000000000000000000000046145b15610b6657507f000000000000000000000000000000000000000000000000000000000000000090565b610545604080517f8b73c3c69bb8fe3d512ecc4cf759cc79239f7b179b0ffacaa9a75d522b39400f60208201527f0000000000000000000000000000000000000000000000000000000000000000918101919091527f000000000000000000000000000000000000000000000000000000000000000060608201524660808201523060a082015260009060c00160405160208183030381529060405280519060200120905090565b600065ffffffffffff821115610c41576040516306dfcc6560e41b8152603060048201526024810183905260440161058c565b5090565b815460009081816005811115610ca4576000610c60846110de565b610c6a9085611f04565b60008881526020902090915081015465ffffffffffff9081169087161015610c9457809150610ca2565b610c9f816001611f17565b92505b505b6000610cb2878785856111c6565b90508015610ced57610cd787610cc9600184611f04565b600091825260209091200190565b54600160301b90046001600160d01b0316610cf0565b60005b979650505050505050565b600b546001600160a01b031633146106865760405163118cdaa760e01b815233600482015260240161058c565b6001600160a01b038216610d525760405163ec442f0560e01b81526000600482015260240161058c565b6105e2600083836110d3565b600061054543610c0e565b6001600160a01b03828116600081815260086020526040808220805486861673ffffffffffffffffffffffffffffffffffffffff19821681179092559151919094169392849290917f3134e8a2e6d97e929a7e54011ea5485d7d196dd5f0ba4d4ef95803e8e3fc257f9190a4610a018183610de386611228565b611246565b6001600160a01b038116600090815260096020526040812054610511906113b2565b600b80546001600160a01b0383811673ffffffffffffffffffffffffffffffffffffffff19831681179093556040519116919082907f8be0079c531659141344cd1fd0a4f28419497f9722a3daafe3b4186f6b6457e090600090a35050565b6001600160a01b038116600090815260076020526040812054610511565b60606105457f000000000000000000000000000000000000000000000000000000000000000060056113e3565b60606105457f000000000000000000000000000000000000000000000000000000000000000060066113e3565b80546000908015610f1157610efb83610cc9600184611f04565b54600160301b90046001600160d01b03166109af565b60009392505050565b6000610511610f27610ae3565b8360405161190160f01b8152600281019290925260228201526042902090565b600080600080610f598888888861148e565b925092509250610f69828261155d565b50909695505050505050565b6001600160a01b0382166000908152600760205260409020805460018101909155818114610a01576040516301d4b62360e61b81526001600160a01b03841660048201526024810182905260440161058c565b60408051808201909152600080825260208201526001600160a01b03831660009081526009602052604090206109af9083611616565b6001600160a01b0384166110285760405163e602df0560e01b81526000600482015260240161058c565b6001600160a01b03831661105257604051634a1406b160e11b81526000600482015260240161058c565b6001600160a01b0380851660009081526001602090815260408083209387168352929052208290558015610a7e57826001600160a01b0316846001600160a01b03167f8c5be1e5ebec7d5bd14f71427d1e84f3dd0314c0f7b2291e5b200ac8c7c3b925846040516110c591815260200190565b60405180910390a350505050565b610a01838383611686565b6000816000036110f057506000919050565b600060016110fd846116ed565b901c6001901b9050600181848161111657611116611f2a565b048201901c9050600181848161112e5761112e611f2a565b048201901c9050600181848161114657611146611f2a565b048201901c9050600181848161115e5761115e611f2a565b048201901c9050600181848161117657611176611f2a565b048201901c9050600181848161118e5761118e611f2a565b048201901c905060018184816111a6576111a6611f2a565b048201901c90506109af818285816111c0576111c0611f2a565b04611781565b60005b818310156112205760006111dd8484611797565b60008781526020902090915065ffffffffffff86169082015465ffffffffffff16111561120c5780925061121a565b611217816001611f17565b93505b506111c9565b509392505050565b6001600160a01b038116600090815260208190526040812054610511565b816001600160a01b0316836001600160a01b0316141580156112685750600081115b15610a01576001600160a01b03831615611310576001600160a01b038316600090815260096020526040812081906112ab906117b26112a6866117be565b6117f2565b6001600160d01b031691506001600160d01b03169150846001600160a01b03167fdec2bacdd2f05b59de34da9b523dff8be42e5e38e818c82fdb0bae774387a7248383604051611305929190918252602082015260400190565b60405180910390a250505b6001600160a01b03821615610a01576001600160a01b038216600090815260096020526040812081906113499061182b6112a6866117be565b6001600160d01b031691506001600160d01b03169150836001600160a01b03167fdec2bacdd2f05b59de34da9b523dff8be42e5e38e818c82fdb0bae774387a72483836040516113a3929190918252602082015260400190565b60405180910390a25050505050565b600063ffffffff821115610c41576040516306dfcc6560e41b8152602060048201526024810183905260440161058c565b606060ff83146113fd576113f683611837565b9050610511565b81805461140990611eb4565b80601f016020809104026020016040519081016040528092919081815260200182805461143590611eb4565b80156114825780601f1061145757610100808354040283529160200191611482565b820191906000526020600020905b81548152906001019060200180831161146557829003601f168201915b50505050509050610511565b600080807f7fffffffffffffffffffffffffffffff5d576e7357a4501ddfe92f46681b20a08411156114c95750600091506003905082611553565b604080516000808252602082018084528a905260ff891692820192909252606081018790526080810186905260019060a0016020604051602081039080840390855afa15801561151d573d6000803e3d6000fd5b5050604051601f1901519150506001600160a01b03811661154957506000925060019150829050611553565b9250600091508190505b9450945094915050565b600082600381111561157157611571611f40565b0361157a575050565b600182600381111561158e5761158e611f40565b036115ac5760405163f645eedf60e01b815260040160405180910390fd5b60028260038111156115c0576115c0611f40565b036115e15760405163fce698f760e01b81526004810182905260240161058c565b60038260038111156115f5576115f5611f40565b036105e2576040516335e2f38360e21b81526004810182905260240161058c565b6040805180820190915260008082526020820152826000018263ffffffff168154811061164557611645611f56565b60009182526020918290206040805180820190915291015465ffffffffffff81168252600160301b90046001600160d01b0316918101919091529392505050565b611691838383611876565b6001600160a01b0383166116e25760006116aa60025490565b90506001600160d01b03808211156116df57604051630e58ae9360e11b8152600481018390526024810182905260440161058c565b50505b610a018383836119a0565b600080608083901c1561170257608092831c92015b604083901c1561171457604092831c92015b602083901c1561172657602092831c92015b601083901c1561173857601092831c92015b600883901c1561174a57600892831c92015b600483901c1561175c57600492831c92015b600283901c1561176e57600292831c92015b600183901c156105115760010192915050565b600081831061179057816109af565b5090919050565b60006117a66002848418611f6c565b6109af90848416611f17565b60006109af8284611f8e565b60006001600160d01b03821115610c41576040516306dfcc6560e41b815260d060048201526024810183905260440161058c565b60008061181e611800610743565b61181661180c88610ee1565b868863ffffffff16565b879190611a16565b915091505b935093915050565b60006109af8284611fb5565b6060600061184483611a24565b604080516020808252818301909252919250600091906020820181803683375050509182525060208101929092525090565b6001600160a01b0383166118a15780600260008282546118969190611f17565b909155506119139050565b6001600160a01b038316600090815260208190526040902054818110156118f45760405163391434e360e21b81526001600160a01b0385166004820152602481018290526044810183905260640161058c565b6001600160a01b03841660009081526020819052604090209082900390555b6001600160a01b03821661192f5760028054829003905561194e565b6001600160a01b03821660009081526020819052604090208054820190555b816001600160a01b0316836001600160a01b03167fddf252ad1be2c89b69c2b068fc378daa952ba7f163c4a11628f55a4df523b3ef8360405161199391815260200190565b60405180910390a3505050565b6001600160a01b0383166119c2576119bf600a61182b6112a6846117be565b50505b6001600160a01b0382166119e4576119e1600a6117b26112a6846117be565b50505b6001600160a01b03838116600090815260086020526040808220548584168352912054610a0192918216911683611246565b60008061181e858585611a4c565b600060ff8216601f81111561051157604051632cd44ac360e21b815260040160405180910390fd5b825460009081908015611b6b576000611a6a87610cc9600185611f04565b60408051808201909152905465ffffffffffff808216808452600160301b9092046001600160d01b031660208401529192509087161015611abe57604051632520601d60e01b815260040160405180910390fd5b805165ffffffffffff808816911603611b0a5784611ae188610cc9600186611f04565b80546001600160d01b0392909216600160301b0265ffffffffffff909216919091179055611b5b565b6040805180820190915265ffffffffffff80881682526001600160d01b0380881660208085019182528b54600181018d5560008d81529190912094519151909216600160301b029216919091179101555b6020015192508391506118239050565b50506040805180820190915265ffffffffffff80851682526001600160d01b0380851660208085019182528854600181018a5560008a815291822095519251909316600160301b029190931617920191909155905081611823565b6000815180845260005b81811015611bec57602081850181015186830182015201611bd0565b506000602082860101526020601f19601f83011685010191505092915050565b6020815260006109af6020830184611bc6565b80356001600160a01b0381168114611c3657600080fd5b919050565b60008060408385031215611c4e57600080fd5b611c5783611c1f565b946020939093013593505050565b600080600060608486031215611c7a57600080fd5b611c8384611c1f565b9250611c9160208501611c1f565b9150604084013590509250925092565b600060208284031215611cb357600080fd5b6109af82611c1f565b60ff60f81b881681526000602060e06020840152611cdd60e084018a611bc6565b8381036040850152611cef818a611bc6565b606085018990526001600160a01b038816608086015260a0850187905284810360c08601528551808252602080880193509091019060005b81811015611d4357835183529284019291840191600101611d27565b50909c9b505050505050505050505050565b600060208284031215611d6757600080fd5b5035919050565b803560ff81168114611c3657600080fd5b60008060008060008060c08789031215611d9857600080fd5b611da187611c1f565b95506020870135945060408701359350611dbd60608801611d6e565b92506080870135915060a087013590509295509295509295565b600080600080600080600060e0888a031215611df257600080fd5b611dfb88611c1f565b9650611e0960208901611c1f565b95506040880135945060608801359350611e2560808901611d6e565b925060a0880135915060c0880135905092959891949750929550565b60008060408385031215611e5457600080fd5b611e5d83611c1f565b9150611e6b60208401611c1f565b90509250929050565b60008060408385031215611e8757600080fd5b611e9083611c1f565b9150602083013563ffffffff81168114611ea957600080fd5b809150509250929050565b600181811c90821680611ec857607f821691505b602082108103611ee857634e487b7160e01b600052602260045260246000fd5b50919050565b634e487b7160e01b600052601160045260246000fd5b8181038181111561051157610511611eee565b8082018082111561051157610511611eee565b634e487b7160e01b600052601260045260246000fd5b634e487b7160e01b600052602160045260246000fd5b634e487b7160e01b600052603260045260246000fd5b600082611f8957634e487b7160e01b600052601260045260246000fd5b500490565b6001600160d01b03828116828216039080821115611fae57611fae611eee565b5092915050565b6001600160d01b03818116838216019080821115611fae57611fae611eee56fea264697066735822122038e96bf316cbbb73f9b63e77005ee3b2525662ba8b2cbb524b9ce30aa2d3f09b64736f6c63430008170033",
  "linkReferences": {},
  "deployedLinkReferences": {}
}