{
  "_format": "hh-sol-artifact-1",
  "contractName": "ERC777RecipientHookImpl",
  "sourceName": "contracts/openzeppelin/ERC-777/hooks/ERC777RecipientHookImpl.sol",
  "abi": [
    {
      "anonymous": false,
      "inputs": [
        {
          "indexed": false,
          "internalType": "address",
          "name": "operator",
          "type": "address"
        },
        {
          "indexed": false,
          "internalType": "address",
          "name": "from",
          "type": "address"
        },
        {
          "indexed": false,
          "internalType": "address",
          "name": "to",
          "type": "address"
        },
        {
          "indexed": false,
          "internalType": "uint256",
          "name": "amount",
          "type": "uint256"
        },
        {
          "indexed": false,
          "internalType": "bytes",
          "name": "userData",
          "type": "bytes"
        },
        {
          "indexed": false,
          "internalType": "bytes",
          "name": "operatorData",
          "type": "bytes"
        }
      ],
      "name": "ERC777RecipientHook",
      "type": "event"
    },
    {
      "inputs": [
        {
          "internalType": "bytes32",
          "name": "",
          "type": "bytes32"
        },
        {
          "internalType": "address",
          "name": "",
          "type": "address"
        }
      ],
      "name": "canImplementInterfaceForAddress",
      "outputs": [
        {
          "internalType": "bytes32",
          "name": "",
          "type": "bytes32"
        }
      ],
      "stateMutability": "pure",
      "type": "function"
    },
    {
      "inputs": [
        {
          "internalType": "address",
          "name": "operator",
          "type": "address"
        },
        {
          "internalType": "address",
          "name": "from",
          "type": "address"
        },
        {
          "internalType": "address",
          "name": "to",
          "type": "address"
        },
        {
          "internalType": "uint256",
          "name": "amount",
          "type": "uint256"
        },
        {
          "internalType": "bytes",
          "name": "userData",
          "type": "bytes"
        },
        {
          "internalType": "bytes",
          "name": "operatorData",
          "type": "bytes"
        }
      ],
      "name": "tokensReceived",
      "outputs": [],
      "stateMutability": "nonpayable",
      "type": "function"
    }
  ],
  "bytecode": "0x608060405234801561001057600080fd5b5061031d806100206000396000f3fe608060405234801561001057600080fd5b50600436106100355760003560e01c806223de291461003a578063249cb3fa1461004f575b600080fd5b61004d61004836600461017d565b6100bc565b005b6100aa61005d366004610228565b6040517f455243313832305f4143434550545f4d41474943000000000000000000000000602082015260009060340160405160208183030381529060405280519060200120905092915050565b60405190815260200160405180910390f35b7fc8eddc16df8a845f80b23e6c64814f5effe9c5fd9b43ea6cc8495bbe8b5b643588888888888888886040516100f998979695949392919061027d565b60405180910390a15050505050505050565b803573ffffffffffffffffffffffffffffffffffffffff8116811461012f57600080fd5b919050565b60008083601f84011261014657600080fd5b50813567ffffffffffffffff81111561015e57600080fd5b60208301915083602082850101111561017657600080fd5b9250929050565b60008060008060008060008060c0898b03121561019957600080fd5b6101a28961010b565b97506101b060208a0161010b565b96506101be60408a0161010b565b955060608901359450608089013567ffffffffffffffff808211156101e257600080fd5b6101ee8c838d01610134565b909650945060a08b013591508082111561020757600080fd5b506102148b828c01610134565b999c989b5096995094979396929594505050565b6000806040838503121561023b57600080fd5b8235915061024b6020840161010b565b90509250929050565b81835281816020850137506000828201602090810191909152601f909101601f19169091010190565b600073ffffffffffffffffffffffffffffffffffffffff808b168352808a16602084015280891660408401525086606083015260c060808301526102c560c083018688610254565b82810360a08401526102d8818587610254565b9b9a505050505050505050505056fea2646970667358221220602a896d2d36521ca8a9fe5e0001cf438b3f9b072f31c30d4db87b4d6a54ffc464736f6c63430008170033",
  "linkReferences": {},
  "deployedLinkReferences": {}
}