{
  "_format": "hh-sol-artifact-1",
  "contractName": "New",
  "sourceName": "contracts/solidity/new/New.sol",
  "abi": [
    {
      "inputs": [
        {
          "internalType": "string",
          "name": "contractName",
          "type": "string"
        },
        {
          "internalType": "string",
          "name": "message",
          "type": "string"
        }
      ],
      "name": "createContract",
      "outputs": [],
      "stateMutability": "nonpayable",
      "type": "function"
    },
    {
      "inputs": [
        {
          "internalType": "string",
          "name": "contractName",
          "type": "string"
        },
        {
          "internalType": "string",
          "name": "message",
          "type": "string"
        }
      ],
      "name": "createContractWithData",
      "outputs": [],
      "stateMutability": "nonpayable",
      "type": "function"
    },
    {
      "inputs": [
        {
          "internalType": "bytes32",
          "name": "salt",
          "type": "bytes32"
        },
        {
          "internalType": "string",
          "name": "contractName",
          "type": "string"
        },
        {
          "internalType": "string",
          "name": "message",
          "type": "string"
        }
      ],
      "name": "createContractWithSalt",
      "outputs": [],
      "stateMutability": "nonpayable",
      "type": "function"
    },
    {
      "inputs": [
        {
          "internalType": "string",
          "name": "",
          "type": "string"
        }
      ],
      "name": "newContractsInfo",
      "outputs": [
        {
          "internalType": "address",
          "name": "contractAddr",
          "type": "address"
        },
        {
          "internalType": "string",
          "name": "message",
          "type": "string"
        }
      ],
      "stateMutability": "view",
      "type": "function"
    }
  ],
  "bytecode": "0x608060405234801561001057600080fd5b50611198806100206000396000f3fe60806040523480156200001157600080fd5b5060043610620000525760003560e01c806336cea35614620000575780634d4be89c1462000070578063631a42311462000087578063872a45de146200009e575b600080fd5b6200006e620000683660046200054e565b620000ce565b005b6200006e62000081366004620005c1565b620001ff565b6200006e620000983660046200054e565b62000336565b620000b5620000af366004620006b7565b62000424565b604051620000c592919062000765565b60405180910390f35b60008282604051620000e090620004e6565b620000ed929190620007aa565b604051809103906000f0801580156200010a573d6000803e3d6000fd5b5090506040518060400160405280826001600160a01b03168152602001826001600160a01b031663e21f37ce6040518163ffffffff1660e01b8152600401600060405180830381865afa15801562000166573d6000803e3d6000fd5b505050506040513d6000823e601f3d908101601f19168201604052620001909190810190620007d9565b81525060008686604051620001a792919062000859565b908152604051602091819003820190208251815473ffffffffffffffffffffffffffffffffffffffff19166001600160a01b03909116178155908201516001820190620001f59082620008fa565b5050505050505050565b60008583836040516200021290620004e6565b6200021f929190620007aa565b8190604051809103906000f590508015801562000240573d6000803e3d6000fd5b5090506040518060400160405280826001600160a01b03168152602001826001600160a01b031663e21f37ce6040518163ffffffff1660e01b8152600401600060405180830381865afa1580156200029c573d6000803e3d6000fd5b505050506040513d6000823e601f3d908101601f19168201604052620002c69190810190620007d9565b81525060008686604051620002dd92919062000859565b908152604051602091819003820190208251815473ffffffffffffffffffffffffffffffffffffffff19166001600160a01b039091161781559082015160018201906200032b9082620008fa565b505050505050505050565b60006040516200034690620004f4565b604051809103906000f08015801562000363573d6000803e3d6000fd5b50604051631b45c3b960e11b81529091506001600160a01b0382169063368b877290620003979086908690600401620007aa565b600060405180830381600087803b158015620003b257600080fd5b505af1158015620003c7573d6000803e3d6000fd5b505050506040518060400160405280826001600160a01b03168152602001826001600160a01b031663e21f37ce6040518163ffffffff1660e01b8152600401600060405180830381865afa15801562000166573d6000803e3d6000fd5b8051602081830181018051600082529282019190930120915280546001820180546001600160a01b0390921692916200045d9062000869565b80601f01602080910402602001604051908101604052809291908181526020018280546200048b9062000869565b8015620004dc5780601f10620004b057610100808354040283529160200191620004dc565b820191906000526020600020905b815481529060010190602001808311620004be57829003601f168201915b5050505050905082565b61041580620009c883390190565b6103868062000ddd83390190565b60008083601f8401126200051557600080fd5b50813567ffffffffffffffff8111156200052e57600080fd5b6020830191508360208285010111156200054757600080fd5b9250929050565b600080600080604085870312156200056557600080fd5b843567ffffffffffffffff808211156200057e57600080fd5b6200058c8883890162000502565b90965094506020870135915080821115620005a657600080fd5b50620005b58782880162000502565b95989497509550505050565b600080600080600060608688031215620005da57600080fd5b85359450602086013567ffffffffffffffff80821115620005fa57600080fd5b6200060889838a0162000502565b909650945060408801359150808211156200062257600080fd5b50620006318882890162000502565b969995985093965092949392505050565b634e487b7160e01b600052604160045260246000fd5b604051601f8201601f1916810167ffffffffffffffff8111828210171562000684576200068462000642565b604052919050565b600067ffffffffffffffff821115620006a957620006a962000642565b50601f01601f191660200190565b600060208284031215620006ca57600080fd5b813567ffffffffffffffff811115620006e257600080fd5b8201601f81018413620006f457600080fd5b80356200070b62000705826200068c565b62000658565b8181528560208385010111156200072157600080fd5b81602084016020830137600091810160200191909152949350505050565b60005b838110156200075c57818101518382015260200162000742565b50506000910152565b6001600160a01b03831681526040602082015260008251806040840152620007958160608501602087016200073f565b601f01601f1916919091016060019392505050565b60208152816020820152818360408301376000818301604090810191909152601f909201601f19160101919050565b600060208284031215620007ec57600080fd5b815167ffffffffffffffff8111156200080457600080fd5b8201601f810184136200081657600080fd5b80516200082762000705826200068c565b8181528560208385010111156200083d57600080fd5b620008508260208301602086016200073f565b95945050505050565b8183823760009101908152919050565b600181811c908216806200087e57607f821691505b6020821081036200089f57634e487b7160e01b600052602260045260246000fd5b50919050565b601f821115620008f5576000816000526020600020601f850160051c81016020861015620008d05750805b601f850160051c820191505b81811015620008f157828155600101620008dc565b5050505b505050565b815167ffffffffffffffff81111562000917576200091762000642565b6200092f8162000928845462000869565b84620008a5565b602080601f8311600181146200096757600084156200094e5750858301515b600019600386901b1c1916600185901b178555620008f1565b600085815260208120601f198616915b82811015620009985788860151825594840194600190910190840162000977565b5085821015620009b75787850151600019600388901b60f8161c191681555b5050505050600190811b0190555056fe608060405234801561001057600080fd5b5060405161041538038061041583398101604081905261002f91610058565b600061003b82826101ac565b505061026b565b634e487b7160e01b600052604160045260246000fd5b6000602080838503121561006b57600080fd5b82516001600160401b038082111561008257600080fd5b818501915085601f83011261009657600080fd5b8151818111156100a8576100a8610042565b604051601f8201601f19908116603f011681019083821181831017156100d0576100d0610042565b8160405282815288868487010111156100e857600080fd5b600093505b8284101561010a57848401860151818501870152928501926100ed565b600086848301015280965050505050505092915050565b600181811c9082168061013557607f821691505b60208210810361015557634e487b7160e01b600052602260045260246000fd5b50919050565b601f8211156101a7576000816000526020600020601f850160051c810160208610156101845750805b601f850160051c820191505b818110156101a357828155600101610190565b5050505b505050565b81516001600160401b038111156101c5576101c5610042565b6101d9816101d38454610121565b8461015b565b602080601f83116001811461020e57600084156101f65750858301515b600019600386901b1c1916600185901b1785556101a3565b600085815260208120601f198616915b8281101561023d5788860151825594840194600190910190840161021e565b508582101561025b5787850151600019600388901b60f8161c191681555b5050505050600190811b01905550565b61019b8061027a6000396000f3fe608060405234801561001057600080fd5b506004361061002b5760003560e01c8063e21f37ce14610030575b600080fd5b61003861004e565b60405161004591906100dc565b60405180910390f35b6000805461005b9061012b565b80601f01602080910402602001604051908101604052809291908181526020018280546100879061012b565b80156100d45780601f106100a9576101008083540402835291602001916100d4565b820191906000526020600020905b8154815290600101906020018083116100b757829003601f168201915b505050505081565b60006020808352835180602085015260005b8181101561010a578581018301518582016040015282016100ee565b506000604082860101526040601f19601f8301168501019250505092915050565b600181811c9082168061013f57607f821691505b60208210810361015f57634e487b7160e01b600052602260045260246000fd5b5091905056fea264697066735822122081ca486213d9348f98a72e5ad3a52cc1f71846814737c9cb96287dbbe3bbc6f664736f6c63430008170033608060405234801561001057600080fd5b50610366806100206000396000f3fe608060405234801561001057600080fd5b50600436106100365760003560e01c8063368b87721461003b578063e21f37ce14610050575b600080fd5b61004e61004936600461010e565b61006e565b005b610058610080565b6040516100659190610180565b60405180910390f35b600061007b82848361026f565b505050565b6000805461008d906101e5565b80601f01602080910402602001604051908101604052809291908181526020018280546100b9906101e5565b80156101065780601f106100db57610100808354040283529160200191610106565b820191906000526020600020905b8154815290600101906020018083116100e957829003601f168201915b505050505081565b6000806020838503121561012157600080fd5b823567ffffffffffffffff8082111561013957600080fd5b818501915085601f83011261014d57600080fd5b81358181111561015c57600080fd5b86602082850101111561016e57600080fd5b60209290920196919550909350505050565b60006020808352835180602085015260005b818110156101ae57858101830151858201604001528201610192565b506000604082860101526040601f19601f8301168501019250505092915050565b634e487b7160e01b600052604160045260246000fd5b600181811c908216806101f957607f821691505b60208210810361021957634e487b7160e01b600052602260045260246000fd5b50919050565b601f82111561007b576000816000526020600020601f850160051c810160208610156102485750805b601f850160051c820191505b8181101561026757828155600101610254565b505050505050565b67ffffffffffffffff831115610287576102876101cf565b61029b8361029583546101e5565b8361021f565b6000601f8411600181146102cf57600085156102b75750838201355b600019600387901b1c1916600186901b178355610329565b600083815260209020601f19861690835b8281101561030057868501358255602094850194600190920191016102e0565b508682101561031d5760001960f88860031b161c19848701351681555b505060018560011b0183555b505050505056fea2646970667358221220f5a66f11384ae891496af6c76819a4902de6e1d5283fe7ca4b426e8dcebc421264736f6c63430008170033a2646970667358221220cdb2544386c0fa736b71596afae4bbe4a7831415ea4b4be067bc9988af2b7b7464736f6c63430008170033",
  "linkReferences": {},
  "deployedLinkReferences": {}
}