{
  "_format": "hh-sol-artifact-1",
  "contractName": "TargetWithConstructor",
  "sourceName": "contracts/solidity/new/New.sol",
  "abi": [
    {
      "inputs": [
        {
          "internalType": "string",
          "name": "_message",
          "type": "string"
        }
      ],
      "stateMutability": "nonpayable",
      "type": "constructor"
    },
    {
      "inputs": [],
      "name": "message",
      "outputs": [
        {
          "internalType": "string",
          "name": "",
          "type": "string"
        }
      ],
      "stateMutability": "view",
      "type": "function"
    }
  ],
  "bytecode": "0x608060405234801561001057600080fd5b5060405161041238038061041283398101604081905261002f91610058565b600061003b82826101aa565b5050610269565b634e487b7160e01b600052604160045260246000fd5b6000602080838503121561006b57600080fd5b82516001600160401b038082111561008257600080fd5b818501915085601f83011261009657600080fd5b8151818111156100a8576100a8610042565b604051601f8201601f19908116603f011681019083821181831017156100d0576100d0610042565b8160405282815288868487010111156100e857600080fd5b600093505b8284101561010a57848401860151818501870152928501926100ed565b600086848301015280965050505050505092915050565b600181811c9082168061013557607f821691505b60208210810361015557634e487b7160e01b600052602260045260246000fd5b50919050565b601f8211156101a557600081815260208120601f850160051c810160208610156101825750805b601f850160051c820191505b818110156101a15782815560010161018e565b5050505b505050565b81516001600160401b038111156101c3576101c3610042565b6101d7816101d18454610121565b8461015b565b602080601f83116001811461020c57600084156101f45750858301515b600019600386901b1c1916600185901b1785556101a1565b600085815260208120601f198616915b8281101561023b5788860151825594840194600190910190840161021c565b50858210156102595787850151600019600388901b60f8161c191681555b5050505050600190811b01905550565b61019a806102786000396000f3fe608060405234801561001057600080fd5b506004361061002b5760003560e01c8063e21f37ce14610030575b600080fd5b61003861004e565b60405161004591906100dc565b60405180910390f35b6000805461005b9061012a565b80601f01602080910402602001604051908101604052809291908181526020018280546100879061012a565b80156100d45780601f106100a9576101008083540402835291602001916100d4565b820191906000526020600020905b8154815290600101906020018083116100b757829003601f168201915b505050505081565b600060208083528351808285015260005b81811015610109578581018301518582016040015282016100ed565b506000604082860101526040601f19601f8301168501019250505092915050565b600181811c9082168061013e57607f821691505b60208210810361015e57634e487b7160e01b600052602260045260246000fd5b5091905056fea26469706673582212203c50db5c7cd97c6aac57cd532701557e5c317c0ab058c55b1e3ae22dd580c4bb64736f6c63430008140033",
  "linkReferences": {},
  "deployedLinkReferences": {}
}