{
  "_format": "hh-sol-artifact-1",
  "contractName": "Target",
  "sourceName": "contracts/solidity/new/New.sol",
  "abi": [
    {
      "inputs": [],
      "name": "message",
      "outputs": [
        {
          "internalType": "string",
          "name": "",
          "type": "string"
        }
      ],
      "stateMutability": "view",
      "type": "function"
    },
    {
      "inputs": [
        {
          "internalType": "string",
          "name": "_message",
          "type": "string"
        }
      ],
      "name": "setMessage",
      "outputs": [],
      "stateMutability": "nonpayable",
      "type": "function"
    }
  ],
  "bytecode": "0x608060405234801561001057600080fd5b50610366806100206000396000f3fe608060405234801561001057600080fd5b50600436106100365760003560e01c8063368b87721461003b578063e21f37ce14610050575b600080fd5b61004e61004936600461010e565b61006e565b005b610058610080565b6040516100659190610180565b60405180910390f35b600061007b82848361026f565b505050565b6000805461008d906101e5565b80601f01602080910402602001604051908101604052809291908181526020018280546100b9906101e5565b80156101065780601f106100db57610100808354040283529160200191610106565b820191906000526020600020905b8154815290600101906020018083116100e957829003601f168201915b505050505081565b6000806020838503121561012157600080fd5b823567ffffffffffffffff8082111561013957600080fd5b818501915085601f83011261014d57600080fd5b81358181111561015c57600080fd5b86602082850101111561016e57600080fd5b60209290920196919550909350505050565b60006020808352835180602085015260005b818110156101ae57858101830151858201604001528201610192565b506000604082860101526040601f19601f8301168501019250505092915050565b634e487b7160e01b600052604160045260246000fd5b600181811c908216806101f957607f821691505b60208210810361021957634e487b7160e01b600052602260045260246000fd5b50919050565b601f82111561007b576000816000526020600020601f850160051c810160208610156102485750805b601f850160051c820191505b8181101561026757828155600101610254565b505050505050565b67ffffffffffffffff831115610287576102876101cf565b61029b8361029583546101e5565b8361021f565b6000601f8411600181146102cf57600085156102b75750838201355b600019600387901b1c1916600186901b178355610329565b600083815260209020601f19861690835b8281101561030057868501358255602094850194600190920191016102e0565b508682101561031d5760001960f88860031b161c19848701351681555b505060018560011b0183555b505050505056fea2646970667358221220f5a66f11384ae891496af6c76819a4902de6e1d5283fe7ca4b426e8dcebc421264736f6c63430008170033",
  "linkReferences": {},
  "deployedLinkReferences": {}
}