{
  "_format": "hh-sol-artifact-1",
  "contractName": "TargetWithConstructor",
  "sourceName": "contracts/solidity/new/New.sol",
  "abi": [
    {
      "inputs": [
        {
          "internalType": "string",
          "name": "_message",
          "type": "string"
        }
      ],
      "stateMutability": "nonpayable",
      "type": "constructor"
    },
    {
      "inputs": [],
      "name": "message",
      "outputs": [
        {
          "internalType": "string",
          "name": "",
          "type": "string"
        }
      ],
      "stateMutability": "view",
      "type": "function"
    }
  ],
  "bytecode": "0x608060405234801561001057600080fd5b5060405161041538038061041583398101604081905261002f91610058565b600061003b82826101ac565b505061026b565b634e487b7160e01b600052604160045260246000fd5b6000602080838503121561006b57600080fd5b82516001600160401b038082111561008257600080fd5b818501915085601f83011261009657600080fd5b8151818111156100a8576100a8610042565b604051601f8201601f19908116603f011681019083821181831017156100d0576100d0610042565b8160405282815288868487010111156100e857600080fd5b600093505b8284101561010a57848401860151818501870152928501926100ed565b600086848301015280965050505050505092915050565b600181811c9082168061013557607f821691505b60208210810361015557634e487b7160e01b600052602260045260246000fd5b50919050565b601f8211156101a7576000816000526020600020601f850160051c810160208610156101845750805b601f850160051c820191505b818110156101a357828155600101610190565b5050505b505050565b81516001600160401b038111156101c5576101c5610042565b6101d9816101d38454610121565b8461015b565b602080601f83116001811461020e57600084156101f65750858301515b600019600386901b1c1916600185901b1785556101a3565b600085815260208120601f198616915b8281101561023d5788860151825594840194600190910190840161021e565b508582101561025b5787850151600019600388901b60f8161c191681555b5050505050600190811b01905550565b61019b8061027a6000396000f3fe608060405234801561001057600080fd5b506004361061002b5760003560e01c8063e21f37ce14610030575b600080fd5b61003861004e565b60405161004591906100dc565b60405180910390f35b6000805461005b9061012b565b80601f01602080910402602001604051908101604052809291908181526020018280546100879061012b565b80156100d45780601f106100a9576101008083540402835291602001916100d4565b820191906000526020600020905b8154815290600101906020018083116100b757829003601f168201915b505050505081565b60006020808352835180602085015260005b8181101561010a578581018301518582016040015282016100ee565b506000604082860101526040601f19601f8301168501019250505092915050565b600181811c9082168061013f57607f821691505b60208210810361015f57634e487b7160e01b600052602260045260246000fd5b5091905056fea264697066735822122081ca486213d9348f98a72e5ad3a52cc1f71846814737c9cb96287dbbe3bbc6f664736f6c63430008170033",
  "linkReferences": {},
  "deployedLinkReferences": {}
}