{
  "_format": "hh-sol-artifact-1",
  "contractName": "HRCContract",
  "sourceName": "contracts/hts-precompile/examples/hrc/HRCContract.sol",
  "abi": [
    {
      "inputs": [
        {
          "internalType": "address",
          "name": "token",
          "type": "address"
        }
      ],
      "name": "associate",
      "outputs": [
        {
          "internalType": "uint256",
          "name": "responseCode",
          "type": "uint256"
        }
      ],
      "stateMutability": "nonpayable",
      "type": "function"
    },
    {
      "inputs": [
        {
          "internalType": "address",
          "name": "token",
          "type": "address"
        }
      ],
      "name": "dissociate",
      "outputs": [
        {
          "internalType": "uint256",
          "name": "responseCode",
          "type": "uint256"
        }
      ],
      "stateMutability": "nonpayable",
      "type": "function"
    }
  ],
  "bytecode": "0x608060405234801561001057600080fd5b506101a0806100206000396000f3fe608060405234801561001057600080fd5b50600436106100365760003560e01c8063322e35501461003b578063d89f312314610060575b600080fd5b61004e610049366004610121565b610073565b60405190815260200160405180910390f35b61004e61006e366004610121565b6100df565b6000816001600160a01b0316635c9217e06040518163ffffffff1660e01b81526004016020604051808303816000875af11580156100b5573d6000803e3d6000fd5b505050506040513d601f19601f820116820180604052508101906100d99190610151565b92915050565b6000816001600160a01b0316630a754de66040518163ffffffff1660e01b81526004016020604051808303816000875af11580156100b5573d6000803e3d6000fd5b60006020828403121561013357600080fd5b81356001600160a01b038116811461014a57600080fd5b9392505050565b60006020828403121561016357600080fd5b505191905056fea26469706673582212209b69498c3d65324aca9a621cdb22b17518951d53b840cd6ab19db1d7118729a964736f6c63430008170033",
  "linkReferences": {},
  "deployedLinkReferences": {}
}