{
  "_format": "hh-sol-artifact-1",
  "contractName": "Arithmetic",
  "sourceName": "contracts/solidity/cryptomath/Arithmetic.sol",
  "abi": [
    {
      "inputs": [],
      "name": "add",
      "outputs": [],
      "stateMutability": "nonpayable",
      "type": "function"
    },
    {
      "inputs": [],
      "name": "add2",
      "outputs": [],
      "stateMutability": "nonpayable",
      "type": "function"
    },
    {
      "inputs": [],
      "name": "checkName",
      "outputs": [
        {
          "internalType": "string",
          "name": "",
          "type": "string"
        }
      ],
      "stateMutability": "view",
      "type": "function"
    },
    {
      "inputs": [],
      "name": "dec",
      "outputs": [],
      "stateMutability": "nonpayable",
      "type": "function"
    },
    {
      "inputs": [],
      "name": "mul",
      "outputs": [],
      "stateMutability": "nonpayable",
      "type": "function"
    },
    {
      "inputs": [],
      "name": "name",
      "outputs": [
        {
          "internalType": "string",
          "name": "",
          "type": "string"
        }
      ],
      "stateMutability": "view",
      "type": "function"
    },
    {
      "inputs": [],
      "name": "negativeHasMoreValues",
      "outputs": [],
      "stateMutability": "nonpayable",
      "type": "function"
    },
    {
      "inputs": [],
      "name": "sub",
      "outputs": [],
      "stateMutability": "nonpayable",
      "type": "function"
    },
    {
      "inputs": [],
      "name": "uncheckedAdd",
      "outputs": [
        {
          "internalType": "bool",
          "name": "",
          "type": "bool"
        }
      ],
      "stateMutability": "view",
      "type": "function"
    },
    {
      "inputs": [],
      "name": "uncheckedSub",
      "outputs": [
        {
          "internalType": "bool",
          "name": "",
          "type": "bool"
        }
      ],
      "stateMutability": "view",
      "type": "function"
    }
  ],
  "bytecode": "0x60c0604052600a60809081526941726974686d6574696360b01b60a05260009061002990826100e8565b50600019600155600060025534801561004157600080fd5b506101a7565b634e487b7160e01b600052604160045260246000fd5b600181811c9082168061007157607f821691505b60208210810361009157634e487b7160e01b600052602260045260246000fd5b50919050565b601f8211156100e3576000816000526020600020601f850160051c810160208610156100c05750805b601f850160051c820191505b818110156100df578281556001016100cc565b5050505b505050565b81516001600160401b0381111561010157610101610047565b6101158161010f845461005d565b84610097565b602080601f83116001811461014a57600084156101325750858301515b600019600386901b1c1916600185901b1785556100df565b600085815260208120601f198616915b828110156101795788860151825594840194600190910190840161015a565b50858210156101975787850151600019600388901b60f8161c191681555b5050505050600190811b01905550565b6106a6806101b66000396000f3fe608060405234801561001057600080fd5b506004361061009e5760003560e01c80638b2cc2bb116100665780638b2cc2bb146100db5780638b6eb52f146100ea578063aae1cc70146100f2578063b3bcfa82146100fa578063c54124be1461010257600080fd5b806306fdde03146100a35780634f2be91f146100c157806358931c46146100cb5780636c1f222f146100d35780637921d822146100db575b600080fd5b6100ab61010a565b6040516100b89190610429565b60405180910390f35b6100c9610198565b005b6100c96101ef565b6100c9610243565b604051600181526020016100b8565b6100c9610293565b6100ab6102eb565b6100c961037d565b6100c96103d9565b6000805461011790610478565b80601f016020809104026020016040519081016040528092919081815260200182805461014390610478565b80156101905780601f1061016557610100808354040283529160200191610190565b820191906000526020600020905b81548152906001019060200180831161017357829003601f168201915b505050505081565b6040518060400160405280602081526020017f41726974686d6574696320636865636b206966204e4f54207265766572746564815250600090816101dc9190610518565b50600180546101ea916105ee565b600155565b6040805180820190915260208082527f41726974686d6574696320636865636b206966204e4f542072657665727465649082015260ff906000906102339082610518565b5061023f816002610607565b5050565b6001546040805180820190915260208082527f41726974686d6574696320636865636b206966204e4f54207265766572746564908201526000906102879082610518565b5061023f6064826105ee565b6040805180820190915260208082527f41726974686d6574696320636865636b206966204e4f5420726576657274656490820152600090600160ff1b9082906102dc9082610518565b506102e68161062a565b505050565b6060600080546102fa90610478565b80601f016020809104026020016040519081016040528092919081815260200182805461032690610478565b80156103735780601f1061034857610100808354040283529160200191610373565b820191906000526020600020905b81548152906001019060200180831161035657829003601f168201915b5050505050905090565b6040518060400160405280602081526020017f41726974686d6574696320636865636b206966204e4f54207265766572746564815250600090816103c19190610518565b50600280549060006103d283610646565b9190505550565b6002546040805180820190915260208082527f41726974686d6574696320636865636b206966204e4f542072657665727465649082015260009061041d9082610518565b5061023f60018261065d565b60006020808352835180602085015260005b818110156104575785810183015185820160400152820161043b565b506000604082860101526040601f19601f8301168501019250505092915050565b600181811c9082168061048c57607f821691505b6020821081036104ac57634e487b7160e01b600052602260045260246000fd5b50919050565b634e487b7160e01b600052604160045260246000fd5b601f8211156102e6576000816000526020600020601f850160051c810160208610156104f15750805b601f850160051c820191505b81811015610510578281556001016104fd565b505050505050565b815167ffffffffffffffff811115610532576105326104b2565b610546816105408454610478565b846104c8565b602080601f83116001811461057b57600084156105635750858301515b600019600386901b1c1916600185901b178555610510565b600085815260208120601f198616915b828110156105aa5788860151825594840194600190910190840161058b565b50858210156105c85787850151600019600388901b60f8161c191681555b5050505050600190811b01905550565b634e487b7160e01b600052601160045260246000fd5b80820180821115610601576106016105d8565b92915050565b60ff8181168382160290811690818114610623576106236105d8565b5092915050565b6000600160ff1b820161063f5761063f6105d8565b5060000390565b600081610655576106556105d8565b506000190190565b81810381811115610601576106016105d856fea26469706673582212208d6d61e120aff527a379853ac2cb38f4a24797b7f1a42fa831623e069264e73364736f6c63430008170033",
  "linkReferences": {},
  "deployedLinkReferences": {}
}