{
  "_format": "hh-sol-artifact-1",
  "contractName": "Arithmetic",
  "sourceName": "contracts/solidity/cryptomath/Arithmetic.sol",
  "abi": [
    {
      "inputs": [],
      "name": "add",
      "outputs": [],
      "stateMutability": "nonpayable",
      "type": "function"
    },
    {
      "inputs": [],
      "name": "add2",
      "outputs": [],
      "stateMutability": "nonpayable",
      "type": "function"
    },
    {
      "inputs": [],
      "name": "checkName",
      "outputs": [
        {
          "internalType": "string",
          "name": "",
          "type": "string"
        }
      ],
      "stateMutability": "view",
      "type": "function"
    },
    {
      "inputs": [],
      "name": "dec",
      "outputs": [],
      "stateMutability": "nonpayable",
      "type": "function"
    },
    {
      "inputs": [],
      "name": "mul",
      "outputs": [],
      "stateMutability": "nonpayable",
      "type": "function"
    },
    {
      "inputs": [],
      "name": "name",
      "outputs": [
        {
          "internalType": "string",
          "name": "",
          "type": "string"
        }
      ],
      "stateMutability": "view",
      "type": "function"
    },
    {
      "inputs": [],
      "name": "negativeHasMoreValues",
      "outputs": [],
      "stateMutability": "nonpayable",
      "type": "function"
    },
    {
      "inputs": [],
      "name": "sub",
      "outputs": [],
      "stateMutability": "nonpayable",
      "type": "function"
    },
    {
      "inputs": [],
      "name": "uncheckedAdd",
      "outputs": [
        {
          "internalType": "bool",
          "name": "",
          "type": "bool"
        }
      ],
      "stateMutability": "view",
      "type": "function"
    },
    {
      "inputs": [],
      "name": "uncheckedSub",
      "outputs": [
        {
          "internalType": "bool",
          "name": "",
          "type": "bool"
        }
      ],
      "stateMutability": "view",
      "type": "function"
    }
  ],
  "bytecode": "0x60c0604052600a60809081526941726974686d6574696360b01b60a05260009061002990826100e6565b50600019600155600060025534801561004157600080fd5b506101a5565b634e487b7160e01b600052604160045260246000fd5b600181811c9082168061007157607f821691505b60208210810361009157634e487b7160e01b600052602260045260246000fd5b50919050565b601f8211156100e157600081815260208120601f850160051c810160208610156100be5750805b601f850160051c820191505b818110156100dd578281556001016100ca565b5050505b505050565b81516001600160401b038111156100ff576100ff610047565b6101138161010d845461005d565b84610097565b602080601f83116001811461014857600084156101305750858301515b600019600386901b1c1916600185901b1785556100dd565b600085815260208120601f198616915b8281101561017757888601518255948401946001909101908401610158565b50858210156101955787850151600019600388901b60f8161c191681555b5050505050600190811b01905550565b6106a3806101b46000396000f3fe608060405234801561001057600080fd5b506004361061009e5760003560e01c80638b2cc2bb116100665780638b2cc2bb146100db5780638b6eb52f146100ea578063aae1cc70146100f2578063b3bcfa82146100fa578063c54124be1461010257600080fd5b806306fdde03146100a35780634f2be91f146100c157806358931c46146100cb5780636c1f222f146100d35780637921d822146100db575b600080fd5b6100ab61010a565b6040516100b89190610429565b60405180910390f35b6100c9610198565b005b6100c96101ef565b6100c9610243565b604051600181526020016100b8565b6100c9610293565b6100ab6102eb565b6100c961037d565b6100c96103d9565b6000805461011790610477565b80601f016020809104026020016040519081016040528092919081815260200182805461014390610477565b80156101905780601f1061016557610100808354040283529160200191610190565b820191906000526020600020905b81548152906001019060200180831161017357829003601f168201915b505050505081565b6040518060400160405280602081526020017f41726974686d6574696320636865636b206966204e4f54207265766572746564815250600090816101dc9190610515565b50600180546101ea916105eb565b600155565b6040805180820190915260208082527f41726974686d6574696320636865636b206966204e4f542072657665727465649082015260ff906000906102339082610515565b5061023f816002610604565b5050565b6001546040805180820190915260208082527f41726974686d6574696320636865636b206966204e4f54207265766572746564908201526000906102879082610515565b5061023f6064826105eb565b6040805180820190915260208082527f41726974686d6574696320636865636b206966204e4f5420726576657274656490820152600090600160ff1b9082906102dc9082610515565b506102e681610627565b505050565b6060600080546102fa90610477565b80601f016020809104026020016040519081016040528092919081815260200182805461032690610477565b80156103735780601f1061034857610100808354040283529160200191610373565b820191906000526020600020905b81548152906001019060200180831161035657829003601f168201915b5050505050905090565b6040518060400160405280602081526020017f41726974686d6574696320636865636b206966204e4f54207265766572746564815250600090816103c19190610515565b50600280549060006103d283610643565b9190505550565b6002546040805180820190915260208082527f41726974686d6574696320636865636b206966204e4f542072657665727465649082015260009061041d9082610515565b5061023f60018261065a565b600060208083528351808285015260005b818110156104565785810183015185820160400152820161043a565b506000604082860101526040601f19601f8301168501019250505092915050565b600181811c9082168061048b57607f821691505b6020821081036104ab57634e487b7160e01b600052602260045260246000fd5b50919050565b634e487b7160e01b600052604160045260246000fd5b601f8211156102e657600081815260208120601f850160051c810160208610156104ee5750805b601f850160051c820191505b8181101561050d578281556001016104fa565b505050505050565b815167ffffffffffffffff81111561052f5761052f6104b1565b6105438161053d8454610477565b846104c7565b602080601f83116001811461057857600084156105605750858301515b600019600386901b1c1916600185901b17855561050d565b600085815260208120601f198616915b828110156105a757888601518255948401946001909101908401610588565b50858210156105c55787850151600019600388901b60f8161c191681555b5050505050600190811b01905550565b634e487b7160e01b600052601160045260246000fd5b808201808211156105fe576105fe6105d5565b92915050565b60ff8181168382160290811690818114610620576106206105d5565b5092915050565b6000600160ff1b820161063c5761063c6105d5565b5060000390565b600081610652576106526105d5565b506000190190565b818103818111156105fe576105fe6105d556fea2646970667358221220f92634de5982e1ba34d3f92edfcb662f8b693f4d05b25fa9b1d0fe6ff40a790d64736f6c63430008140033",
  "linkReferences": {},
  "deployedLinkReferences": {}
}