{
  "_format": "hh-sol-artifact-1",
  "contractName": "DataAllocation",
  "sourceName": "contracts/yul/data-allocation/DataAllocation.sol",
  "abi": [
    {
      "inputs": [
        {
          "internalType": "uint256",
          "name": "p",
          "type": "uint256"
        },
        {
          "internalType": "uint256",
          "name": "v",
          "type": "uint256"
        }
      ],
      "name": "allocateMemory",
      "outputs": [
        {
          "internalType": "uint256",
          "name": "n",
          "type": "uint256"
        }
      ],
      "stateMutability": "pure",
      "type": "function"
    },
    {
      "inputs": [
        {
          "internalType": "uint256",
          "name": "p",
          "type": "uint256"
        },
        {
          "internalType": "uint8",
          "name": "v",
          "type": "uint8"
        }
      ],
      "name": "allocateMemory8",
      "outputs": [
        {
          "internalType": "uint8",
          "name": "n",
          "type": "uint8"
        }
      ],
      "stateMutability": "pure",
      "type": "function"
    },
    {
      "inputs": [
        {
          "internalType": "uint256",
          "name": "p",
          "type": "uint256"
        }
      ],
      "name": "sload",
      "outputs": [
        {
          "internalType": "uint256",
          "name": "n",
          "type": "uint256"
        }
      ],
      "stateMutability": "view",
      "type": "function"
    },
    {
      "inputs": [
        {
          "internalType": "uint256",
          "name": "p",
          "type": "uint256"
        },
        {
          "internalType": "uint256",
          "name": "v",
          "type": "uint256"
        }
      ],
      "name": "sstore",
      "outputs": [],
      "stateMutability": "nonpayable",
      "type": "function"
    }
  ],
  "bytecode": "0x608060405260008055600c60015534801561001957600080fd5b5061017d806100296000396000f3fe608060405234801561001057600080fd5b506004361061004c5760003560e01c80639824000414610051578063bf0db86514610076578063e00f38671461009b578063ee2c983a146100af575b600080fd5b61006361005f3660046100d6565b5490565b6040519081526020015b60405180910390f35b6100896100843660046100ef565b6100c4565b60405160ff909116815260200161006d565b6100ad6100a9366004610125565b9055565b005b6100636100bd366004610125565b9081905290565b6000808284535050905160f81c919050565b6000602082840312156100e857600080fd5b5035919050565b6000806040838503121561010257600080fd5b82359150602083013560ff8116811461011a57600080fd5b809150509250929050565b6000806040838503121561013857600080fd5b5050803592602090910135915056fea2646970667358221220d7945353b0a9ea1690b6f2f4e8ffc5ae847df20619eb69c1cbb8d53814c44d4e64736f6c63430008170033",
  "linkReferences": {},
  "deployedLinkReferences": {}
}