{
  "_format": "hh-sol-artifact-1",
  "contractName": "TokenManagementContract",
  "sourceName": "contracts/hts-precompile/examples/token-manage/TokenManagementContract.sol",
  "abi": [
    {
      "anonymous": false,
      "inputs": [
        {
          "indexed": false,
          "internalType": "bool",
          "name": "",
          "type": "bool"
        },
        {
          "indexed": false,
          "internalType": "bytes",
          "name": "",
          "type": "bytes"
        }
      ],
      "name": "CallResponseEvent",
      "type": "event"
    },
    {
      "anonymous": false,
      "inputs": [
        {
          "indexed": false,
          "internalType": "bool",
          "name": "paused",
          "type": "bool"
        }
      ],
      "name": "PausedToken",
      "type": "event"
    },
    {
      "anonymous": false,
      "inputs": [
        {
          "indexed": false,
          "internalType": "int256",
          "name": "responseCode",
          "type": "int256"
        }
      ],
      "name": "ResponseCode",
      "type": "event"
    },
    {
      "anonymous": false,
      "inputs": [
        {
          "indexed": false,
          "internalType": "bool",
          "name": "unpaused",
          "type": "bool"
        }
      ],
      "name": "UnpausedToken",
      "type": "event"
    },
    {
      "inputs": [
        {
          "internalType": "address",
          "name": "token",
          "type": "address"
        },
        {
          "internalType": "address",
          "name": "approved",
          "type": "address"
        },
        {
          "internalType": "uint256",
          "name": "serialNumber",
          "type": "uint256"
        }
      ],
      "name": "approveNFTPublic",
      "outputs": [
        {
          "internalType": "int256",
          "name": "responseCode",
          "type": "int256"
        }
      ],
      "stateMutability": "nonpayable",
      "type": "function"
    },
    {
      "inputs": [
        {
          "internalType": "address",
          "name": "token",
          "type": "address"
        },
        {
          "internalType": "address",
          "name": "spender",
          "type": "address"
        },
        {
          "internalType": "uint256",
          "name": "amount",
          "type": "uint256"
        }
      ],
      "name": "approvePublic",
      "outputs": [
        {
          "internalType": "int256",
          "name": "responseCode",
          "type": "int256"
        }
      ],
      "stateMutability": "nonpayable",
      "type": "function"
    },
    {
      "inputs": [
        {
          "internalType": "address",
          "name": "token",
          "type": "address"
        },
        {
          "internalType": "int64",
          "name": "amount",
          "type": "int64"
        },
        {
          "internalType": "int64[]",
          "name": "serialNumbers",
          "type": "int64[]"
        }
      ],
      "name": "burnTokenPublic",
      "outputs": [
        {
          "internalType": "int256",
          "name": "responseCode",
          "type": "int256"
        },
        {
          "internalType": "int64",
          "name": "newTotalSupply",
          "type": "int64"
        }
      ],
      "stateMutability": "nonpayable",
      "type": "function"
    },
    {
      "inputs": [
        {
          "internalType": "address",
          "name": "token",
          "type": "address"
        }
      ],
      "name": "deleteTokenPublic",
      "outputs": [
        {
          "internalType": "int256",
          "name": "responseCode",
          "type": "int256"
        }
      ],
      "stateMutability": "nonpayable",
      "type": "function"
    },
    {
      "inputs": [
        {
          "internalType": "address",
          "name": "account",
          "type": "address"
        },
        {
          "internalType": "address",
          "name": "token",
          "type": "address"
        }
      ],
      "name": "dissociateTokenPublic",
      "outputs": [
        {
          "internalType": "int256",
          "name": "responseCode",
          "type": "int256"
        }
      ],
      "stateMutability": "nonpayable",
      "type": "function"
    },
    {
      "inputs": [
        {
          "internalType": "address",
          "name": "account",
          "type": "address"
        },
        {
          "internalType": "address[]",
          "name": "tokens",
          "type": "address[]"
        }
      ],
      "name": "dissociateTokensPublic",
      "outputs": [
        {
          "internalType": "int256",
          "name": "responseCode",
          "type": "int256"
        }
      ],
      "stateMutability": "nonpayable",
      "type": "function"
    },
    {
      "inputs": [
        {
          "internalType": "address",
          "name": "token",
          "type": "address"
        },
        {
          "internalType": "address",
          "name": "account",
          "type": "address"
        }
      ],
      "name": "freezeTokenPublic",
      "outputs": [
        {
          "internalType": "int256",
          "name": "responseCode",
          "type": "int256"
        }
      ],
      "stateMutability": "nonpayable",
      "type": "function"
    },
    {
      "inputs": [
        {
          "internalType": "address",
          "name": "token",
          "type": "address"
        }
      ],
      "name": "pauseTokenPublic",
      "outputs": [
        {
          "internalType": "int256",
          "name": "responseCode",
          "type": "int256"
        }
      ],
      "stateMutability": "nonpayable",
      "type": "function"
    },
    {
      "inputs": [
        {
          "internalType": "address",
          "name": "token",
          "type": "address"
        },
        {
          "internalType": "bytes",
          "name": "encodedFunctionSelector",
          "type": "bytes"
        }
      ],
      "name": "redirectForToken",
      "outputs": [
        {
          "internalType": "int256",
          "name": "responseCode",
          "type": "int256"
        },
        {
          "internalType": "bytes",
          "name": "response",
          "type": "bytes"
        }
      ],
      "stateMutability": "nonpayable",
      "type": "function"
    },
    {
      "inputs": [
        {
          "internalType": "address",
          "name": "token",
          "type": "address"
        },
        {
          "internalType": "address",
          "name": "account",
          "type": "address"
        }
      ],
      "name": "revokeTokenKycPublic",
      "outputs": [
        {
          "internalType": "int64",
          "name": "responseCode",
          "type": "int64"
        }
      ],
      "stateMutability": "nonpayable",
      "type": "function"
    },
    {
      "inputs": [
        {
          "internalType": "address",
          "name": "token",
          "type": "address"
        },
        {
          "internalType": "address",
          "name": "operator",
          "type": "address"
        },
        {
          "internalType": "bool",
          "name": "approved",
          "type": "bool"
        }
      ],
      "name": "setApprovalForAllPublic",
      "outputs": [
        {
          "internalType": "int256",
          "name": "responseCode",
          "type": "int256"
        }
      ],
      "stateMutability": "nonpayable",
      "type": "function"
    },
    {
      "inputs": [
        {
          "internalType": "address",
          "name": "token",
          "type": "address"
        },
        {
          "internalType": "address",
          "name": "from",
          "type": "address"
        },
        {
          "internalType": "address",
          "name": "to",
          "type": "address"
        },
        {
          "internalType": "uint256",
          "name": "amount",
          "type": "uint256"
        }
      ],
      "name": "transferFrom",
      "outputs": [
        {
          "internalType": "int64",
          "name": "responseCode",
          "type": "int64"
        }
      ],
      "stateMutability": "nonpayable",
      "type": "function"
    },
    {
      "inputs": [
        {
          "internalType": "address",
          "name": "token",
          "type": "address"
        },
        {
          "internalType": "address",
          "name": "from",
          "type": "address"
        },
        {
          "internalType": "address",
          "name": "to",
          "type": "address"
        },
        {
          "internalType": "uint256",
          "name": "serialNumber",
          "type": "uint256"
        }
      ],
      "name": "transferFromNFT",
      "outputs": [
        {
          "internalType": "int64",
          "name": "responseCode",
          "type": "int64"
        }
      ],
      "stateMutability": "nonpayable",
      "type": "function"
    },
    {
      "inputs": [
        {
          "internalType": "address",
          "name": "token",
          "type": "address"
        },
        {
          "internalType": "address",
          "name": "account",
          "type": "address"
        }
      ],
      "name": "unfreezeTokenPublic",
      "outputs": [
        {
          "internalType": "int256",
          "name": "responseCode",
          "type": "int256"
        }
      ],
      "stateMutability": "nonpayable",
      "type": "function"
    },
    {
      "inputs": [
        {
          "internalType": "address",
          "name": "token",
          "type": "address"
        }
      ],
      "name": "unpauseTokenPublic",
      "outputs": [
        {
          "internalType": "int256",
          "name": "responseCode",
          "type": "int256"
        }
      ],
      "stateMutability": "nonpayable",
      "type": "function"
    },
    {
      "inputs": [
        {
          "internalType": "address",
          "name": "token",
          "type": "address"
        },
        {
          "components": [
            {
              "internalType": "int64",
              "name": "second",
              "type": "int64"
            },
            {
              "internalType": "address",
              "name": "autoRenewAccount",
              "type": "address"
            },
            {
              "internalType": "int64",
              "name": "autoRenewPeriod",
              "type": "int64"
            }
          ],
          "internalType": "struct IHederaTokenService.Expiry",
          "name": "expiryInfo",
          "type": "tuple"
        }
      ],
      "name": "updateTokenExpiryInfoPublic",
      "outputs": [
        {
          "internalType": "int256",
          "name": "responseCode",
          "type": "int256"
        }
      ],
      "stateMutability": "nonpayable",
      "type": "function"
    },
    {
      "inputs": [
        {
          "internalType": "address",
          "name": "token",
          "type": "address"
        },
        {
          "components": [
            {
              "internalType": "string",
              "name": "name",
              "type": "string"
            },
            {
              "internalType": "string",
              "name": "symbol",
              "type": "string"
            },
            {
              "internalType": "address",
              "name": "treasury",
              "type": "address"
            },
            {
              "internalType": "string",
              "name": "memo",
              "type": "string"
            },
            {
              "internalType": "bool",
              "name": "tokenSupplyType",
              "type": "bool"
            },
            {
              "internalType": "int64",
              "name": "maxSupply",
              "type": "int64"
            },
            {
              "internalType": "bool",
              "name": "freezeDefault",
              "type": "bool"
            },
            {
              "components": [
                {
                  "internalType": "uint256",
                  "name": "keyType",
                  "type": "uint256"
                },
                {
                  "components": [
                    {
                      "internalType": "bool",
                      "name": "inheritAccountKey",
                      "type": "bool"
                    },
                    {
                      "internalType": "address",
                      "name": "contractId",
                      "type": "address"
                    },
                    {
                      "internalType": "bytes",
                      "name": "ed25519",
                      "type": "bytes"
                    },
                    {
                      "internalType": "bytes",
                      "name": "ECDSA_secp256k1",
                      "type": "bytes"
                    },
                    {
                      "internalType": "address",
                      "name": "delegatableContractId",
                      "type": "address"
                    }
                  ],
                  "internalType": "struct IHederaTokenService.KeyValue",
                  "name": "key",
                  "type": "tuple"
                }
              ],
              "internalType": "struct IHederaTokenService.TokenKey[]",
              "name": "tokenKeys",
              "type": "tuple[]"
            },
            {
              "components": [
                {
                  "internalType": "int64",
                  "name": "second",
                  "type": "int64"
                },
                {
                  "internalType": "address",
                  "name": "autoRenewAccount",
                  "type": "address"
                },
                {
                  "internalType": "int64",
                  "name": "autoRenewPeriod",
                  "type": "int64"
                }
              ],
              "internalType": "struct IHederaTokenService.Expiry",
              "name": "expiry",
              "type": "tuple"
            }
          ],
          "internalType": "struct IHederaTokenService.HederaToken",
          "name": "tokenInfo",
          "type": "tuple"
        }
      ],
      "name": "updateTokenInfoPublic",
      "outputs": [
        {
          "internalType": "int256",
          "name": "responseCode",
          "type": "int256"
        }
      ],
      "stateMutability": "nonpayable",
      "type": "function"
    },
    {
      "inputs": [
        {
          "internalType": "address",
          "name": "token",
          "type": "address"
        },
        {
          "components": [
            {
              "internalType": "uint256",
              "name": "keyType",
              "type": "uint256"
            },
            {
              "components": [
                {
                  "internalType": "bool",
                  "name": "inheritAccountKey",
                  "type": "bool"
                },
                {
                  "internalType": "address",
                  "name": "contractId",
                  "type": "address"
                },
                {
                  "internalType": "bytes",
                  "name": "ed25519",
                  "type": "bytes"
                },
                {
                  "internalType": "bytes",
                  "name": "ECDSA_secp256k1",
                  "type": "bytes"
                },
                {
                  "internalType": "address",
                  "name": "delegatableContractId",
                  "type": "address"
                }
              ],
              "internalType": "struct IHederaTokenService.KeyValue",
              "name": "key",
              "type": "tuple"
            }
          ],
          "internalType": "struct IHederaTokenService.TokenKey[]",
          "name": "keys",
          "type": "tuple[]"
        }
      ],
      "name": "updateTokenKeysPublic",
      "outputs": [
        {
          "internalType": "int64",
          "name": "responseCode",
          "type": "int64"
        }
      ],
      "stateMutability": "nonpayable",
      "type": "function"
    },
    {
      "inputs": [
        {
          "internalType": "address",
          "name": "token",
          "type": "address"
        },
        {
          "internalType": "address",
          "name": "account",
          "type": "address"
        },
        {
          "internalType": "int64[]",
          "name": "serialNumbers",
          "type": "int64[]"
        }
      ],
      "name": "wipeTokenAccountNFTPublic",
      "outputs": [
        {
          "internalType": "int256",
          "name": "responseCode",
          "type": "int256"
        }
      ],
      "stateMutability": "nonpayable",
      "type": "function"
    },
    {
      "inputs": [
        {
          "internalType": "address",
          "name": "token",
          "type": "address"
        },
        {
          "internalType": "address",
          "name": "account",
          "type": "address"
        },
        {
          "internalType": "int64",
          "name": "amount",
          "type": "int64"
        }
      ],
      "name": "wipeTokenAccountPublic",
      "outputs": [
        {
          "internalType": "int256",
          "name": "responseCode",
          "type": "int256"
        }
      ],
      "stateMutability": "nonpayable",
      "type": "function"
    }
  ],
  "bytecode": "0x608060405234801561001057600080fd5b50600160208181527fa6eef7e35abe7026729641147f7915573c7e97b47efa546f5f6e3230263bcb499190915560027fcc69885fda6bcc1a4ace058b4a62bf5e179ea78fd58a1ccd71c22cc9b688792f5560047fd9d16d34ffb15ba3a3d852f0d403e2ce1d691fb54de27ac87cd2f993f3ec330f5560087f7dfe757ecd65cbd7922a9c0161e935dd7fdbcc0e999689c7d31633896b1fc60b5560107fedc95719e9a3b28dd8e80877cb5880a9be7de1a13fc8b05e7999683b6b567643557fe2689cd4a84e23ad2f564004f1c9013e9589d260bde6380aba3ca7e09e4df40c55600660005260407f8f331abe73332f95a25873e8b430885974c0409691f89d643119a11623a7924a55611c49806101276000396000f3fe608060405234801561001057600080fd5b506004361061012c5760003560e01c8063815228c0116100ad578063f25b120011610071578063f25b120014610282578063f52177ee14610295578063f7be3425146102c0578063f848fec4146102d3578063fad0038a146102e657600080fd5b8063815228c0146102235780639b23d3d914610236578063a345f7bd14610249578063b26d33cb1461025c578063df6c06f51461026f57600080fd5b806336348de3116100f457806336348de3146101b65780634d8f27c9146101c957806356af8403146101dc578063618dc65e146101ef5780637d3e5da81461021057600080fd5b806315dacbea146101315780632abf6c551461015c5780632b256ec81461017d5780632d73bb2e146101905780632eecbca3146101a3575b600080fd5b61014461013f366004610e9a565b6102f9565b60405160079190910b81526020015b60405180910390f35b61016f61016a366004610fc0565b6103ed565b604051908152602001610153565b61016f61018b366004611070565b610435565b61016f61019e36600461108b565b6104b0565b6101446101b136600461108b565b6104e0565b61016f6101c4366004611335565b610525565b6101446101d736600461147b565b610531565b61016f6101ea36600461152d565b61053d565b6102026101fd36600461158b565b610587565b60405161015392919061161f565b61016f61021e36600461108b565b6106b5565b61016f610231366004611640565b6106c1565b610144610244366004610e9a565b6106cd565b61016f610257366004611070565b610712565b61016f61026a36600461108b565b610758565b61016f61027d36600461166b565b610764565b61016f6102903660046116a7565b610771565b6102a86102a33660046116ea565b61077e565b6040805192835260079190910b602083015201610153565b61016f6102ce366004611070565b6107c7565b61016f6102e136600461166b565b610839565b61016f6102f4366004611718565b610846565b6040516001600160a01b038581166024830152848116604483015283166064820152608481018290526000908190819061016790630aed65f560e11b9060a4015b60408051601f198184030181529181526020820180516001600160e01b03166001600160e01b0319909416939093179092529051610378919061175f565b6000604051808303816000865af19150503d80600081146103b5576040519150601f19603f3d011682016040523d82523d6000602084013e6103ba565b606091505b5091509150816103cb5760156103df565b808060200190518101906103df919061178d565b60030b979650505050505050565b60006103f98383610853565b9050600080516020611bf48339815191528160405161041a91815260200190565b60405180910390a16016811461042f57600080fd5b92915050565b600061044082610930565b9050600080516020611bf48339815191528160405161046191815260200190565b60405180910390a16016811461047657600080fd5b604051600181527f0c9c765845f4d139956bb8fc8decb2eec6093c9c608b809641b16054b29f0e13906020015b60405180910390a1919050565b60006104bc8383610a0a565b60070b9050600080516020611bf48339815191528160405161041a91815260200190565b60006104ec8383610a40565b604051600782900b8152909150600080516020611bf48339815191529060200160405180910390a1600781900b60161461042f57600080fd5b60006103f98383610a76565b60006104ec8383610aa2565b600061054a848484610ace565b9050600080516020611bf48339815191528160405161056b91815260200190565b60405180910390a16016811461058057600080fd5b9392505050565b600060606000806101676001600160a01b031663618dc65e60e01b87876040516024016105b59291906117a8565b60408051601f198184030181529181526020820180516001600160e01b03166001600160e01b03199094169390931790925290516105f3919061175f565b6000604051808303816000865af19150503d8060008114610630576040519150601f19603f3d011682016040523d82523d6000602084013e610635565b606091505b50915091507f4af4780e06fe8cb9df64b0794fa6f01399af979175bb988e35e0e57e594567bc828260405161066b9291906117ca565b60405180910390a18161068f576015604051806020016040528060008152506106a3565b808060200190518101906106a391906117e5565b60039190910b97909650945050505050565b60006104bc8383610bae565b60006103f98383610be4565b6040516001600160a01b038581166024830152848116604483015283166064820152608481018290526000908190819061016790639b23d3d960e01b9060a40161033a565b600061071d82610c10565b9050600080516020611bf48339815191528160405161073e91815260200190565b60405180910390a16016811461075357600080fd5b919050565b60006103f98383610c3e565b600061054a848484610c74565b600061054a848484610cb1565b60008061078c858585610cef565b6040518281529193509150600080516020611bf48339815191529060200160405180910390a1601682146107bf57600080fd5b935093915050565b60006107d282610dd8565b9050600080516020611bf4833981519152816040516107f391815260200190565b60405180910390a16016811461080857600080fd5b604051600181527f319ab7084208e4afa38c6e6ff7aea9587439f2e4700746f4c7d425fea17426d2906020016104a3565b600061054a848484610e06565b600061054a848484610e43565b60008060006101676001600160a01b03166378b6391860e01b868660405160240161087f92919061186f565b60408051601f198184030181529181526020820180516001600160e01b03166001600160e01b03199094169390931790925290516108bd919061175f565b6000604051808303816000865af19150503d80600081146108fa576040519150601f19603f3d011682016040523d82523d6000602084013e6108ff565b606091505b509150915081610910576015610924565b80806020019051810190610924919061178d565b60030b95945050505050565b6040516001600160a01b03821660248201526000908190819061016790631f106b4b60e21b906044015b60408051601f198184030181529181526020820180516001600160e01b03166001600160e01b0319909416939093179092529051610998919061175f565b6000604051808303816000865af19150503d80600081146109d5576040519150601f19603f3d011682016040523d82523d6000602084013e6109da565b606091505b5091509150816109eb5760156109ff565b808060200190518101906109ff919061178d565b60030b949350505050565b6040516001600160a01b0383811660248301528216604482015260009081908190610167906352f9138760e01b9060640161087f565b6040516001600160a01b03838116602483015282166044820152600090819081906101679063af99c63360e01b9060640161087f565b60008060006101676001600160a01b0316637d305cfa60e01b868660405160240161087f92919061198e565b60008060006101676001600160a01b0316636fc3cbaf60e01b868660405160240161087f929190611ab9565b60008060006101676001600160a01b031663f7f38e2660e01b878787604051602401610afc93929190611b19565b60408051601f198184030181529181526020820180516001600160e01b03166001600160e01b0319909416939093179092529051610b3a919061175f565b6000604051808303816000865af19150503d8060008114610b77576040519150601f19603f3d011682016040523d82523d6000602084013e610b7c565b606091505b509150915081610b8d576015610ba1565b80806020019051810190610ba1919061178d565b60030b9695505050505050565b6040516001600160a01b0383811660248301528216604482015260009081908190610167906316e3e16160e21b9060640161087f565b60008060006101676001600160a01b031663d27be6cd60e01b868660405160240161087f929190611b4e565b6040516001600160a01b03821660248201526000908190819061016790637834fb8960e11b9060440161095a565b6040516001600160a01b038381166024830152821660448201526000908190819061016790630132f29d60e31b9060640161087f565b6040516001600160a01b038481166024830152831660448201526064810182905260009081908190610167906307336aaf60e41b90608401610afc565b6040516001600160a01b0384811660248301528316604482015281151560648201526000908190819061016790631b3b02e560e11b90608401610afc565b6000806000806101676001600160a01b031663d6910d0660e01b888888604051602401610d1e93929190611b91565b60408051601f198184030181529181526020820180516001600160e01b03166001600160e01b0319909416939093179092529051610d5c919061175f565b6000604051808303816000865af19150503d8060008114610d99576040519150601f19603f3d011682016040523d82523d6000602084013e610d9e565b606091505b509150915081610db15760156000610dc5565b80806020019051810190610dc59190611bbc565b60039190910b9890975095505050505050565b6040516001600160a01b03821660248201526000908190819061016790633b3bff0f60e01b9060440161095a565b6040516001600160a01b0384811660248301528316604482015260648101829052600090819081906101679063e1f21c6760e01b90608401610afc565b6040516001600160a01b03848116602483015283166044820152600782900b6064820152600090819081906101679063efef57f960e01b90608401610afc565b80356001600160a01b038116811461075357600080fd5b60008060008060808587031215610eb057600080fd5b610eb985610e83565b9350610ec760208601610e83565b9250610ed560408601610e83565b9396929550929360600135925050565b634e487b7160e01b600052604160045260246000fd5b6040805190810167ffffffffffffffff81118282101715610f1e57610f1e610ee5565b60405290565b60405160a0810167ffffffffffffffff81118282101715610f1e57610f1e610ee5565b604051610120810167ffffffffffffffff81118282101715610f1e57610f1e610ee5565b604051601f8201601f1916810167ffffffffffffffff81118282101715610f9457610f94610ee5565b604052919050565b600067ffffffffffffffff821115610fb657610fb6610ee5565b5060051b60200190565b60008060408385031215610fd357600080fd5b610fdc83610e83565b915060208084013567ffffffffffffffff811115610ff957600080fd5b8401601f8101861361100a57600080fd5b803561101d61101882610f9c565b610f6b565b81815260059190911b8201830190838101908883111561103c57600080fd5b928401925b828410156110615761105284610e83565b82529284019290840190611041565b80955050505050509250929050565b60006020828403121561108257600080fd5b61058082610e83565b6000806040838503121561109e57600080fd5b6110a783610e83565b91506110b560208401610e83565b90509250929050565b600067ffffffffffffffff8211156110d8576110d8610ee5565b50601f01601f191660200190565b600082601f8301126110f757600080fd5b8135611105611018826110be565b81815284602083860101111561111a57600080fd5b816020850160208301376000918101602001919091529392505050565b8035801515811461075357600080fd5b8060070b811461115657600080fd5b50565b803561075381611147565b600082601f83011261117557600080fd5b8135602061118561101883610f9c565b82815260059290921b840181019181810190868411156111a457600080fd5b8286015b848110156112b657803567ffffffffffffffff808211156111c857600080fd5b908801906040601f19838c0381018213156111e257600080fd5b6111ea610efb565b888501358152828501358481111561120157600080fd5b949094019360a0858e03830112156112195760008081fd5b611221610f24565b915061122e898601611137565b825261123b838601610e83565b89830152606080860135858111156112535760008081fd5b6112618f8c838a01016110e6565b858501525060809350838601358581111561127c5760008081fd5b61128a8f8c838a01016110e6565b82850152505061129c60a08601610e83565b9282019290925281880152855250509183019183016111a8565b509695505050505050565b6000606082840312156112d357600080fd5b6040516060810181811067ffffffffffffffff821117156112f6576112f6610ee5565b604052905080823561130781611147565b815261131560208401610e83565b6020820152604083013561132881611147565b6040919091015292915050565b6000806040838503121561134857600080fd5b61135183610e83565b9150602083013567ffffffffffffffff8082111561136e57600080fd5b90840190610160828703121561138357600080fd5b61138b610f47565b82358281111561139a57600080fd5b6113a6888286016110e6565b8252506020830135828111156113bb57600080fd5b6113c7888286016110e6565b6020830152506113d960408401610e83565b60408201526060830135828111156113f057600080fd5b6113fc888286016110e6565b60608301525061140e60808401611137565b608082015261141f60a08401611159565b60a082015261143060c08401611137565b60c082015260e08301358281111561144757600080fd5b61145388828601611164565b60e083015250610100915061146a878385016112c1565b828201528093505050509250929050565b6000806040838503121561148e57600080fd5b61149783610e83565b9150602083013567ffffffffffffffff8111156114b357600080fd5b6114bf85828601611164565b9150509250929050565b600082601f8301126114da57600080fd5b813560206114ea61101883610f9c565b82815260059290921b8401810191818101908684111561150957600080fd5b8286015b848110156112b657803561152081611147565b835291830191830161150d565b60008060006060848603121561154257600080fd5b61154b84610e83565b925061155960208501610e83565b9150604084013567ffffffffffffffff81111561157557600080fd5b611581868287016114c9565b9150509250925092565b6000806040838503121561159e57600080fd5b6115a783610e83565b9150602083013567ffffffffffffffff8111156115c357600080fd5b6114bf858286016110e6565b60005b838110156115ea5781810151838201526020016115d2565b50506000910152565b6000815180845261160b8160208601602086016115cf565b601f01601f19169290920160200192915050565b82815260406020820152600061163860408301846115f3565b949350505050565b6000806080838503121561165357600080fd5b61165c83610e83565b91506110b584602085016112c1565b60008060006060848603121561168057600080fd5b61168984610e83565b925061169760208501610e83565b9150604084013590509250925092565b6000806000606084860312156116bc57600080fd5b6116c584610e83565b92506116d360208501610e83565b91506116e160408501611137565b90509250925092565b6000806000606084860312156116ff57600080fd5b61170884610e83565b9250602084013561155981611147565b60008060006060848603121561172d57600080fd5b61173684610e83565b925061174460208501610e83565b9150604084013561175481611147565b809150509250925092565b600082516117718184602087016115cf565b9190910192915050565b8051600381900b811461075357600080fd5b60006020828403121561179f57600080fd5b6105808261177b565b6001600160a01b038316815260406020820152600061163860408301846115f3565b821515815260406020820152600061163860408301846115f3565b600080604083850312156117f857600080fd5b6118018361177b565b9150602083015167ffffffffffffffff81111561181d57600080fd5b8301601f8101851361182e57600080fd5b805161183c611018826110be565b81815286602083850101111561185157600080fd5b6118628260208301602086016115cf565b8093505050509250929050565b6000604082016001600160a01b0380861684526020604081860152828651808552606087019150828801945060005b818110156118bc57855185168352948301949183019160010161189e565b509098975050505050505050565b600081518084526020808501808196508360051b8101915082860160005b858110156119815782840389528151604081518652868201519150808787015281511515818701528682015160606001600160a01b03808316828a015283850151935060a09250608083818b015261194360e08b01866115f3565b928601518a8403603f1901858c015292945061195f85846115f3565b9501511660c098909801979097525050988501989350908401906001016118e8565b5091979650505050505050565b6001600160a01b0383168152604060208201526000825161016060408401526119bb6101a08401826115f3565b90506020840151603f19808584030160608601526119d983836115f3565b9250604086015191506119f760808601836001600160a01b03169052565b60608601519150808584030160a0860152611a1283836115f3565b925060808601519150611a2960c086018315159052565b60a08601519150611a3f60e086018360070b9052565b60c08601519150610100611a568187018415159052565b60e087015192508186850301610120870152611a7284846118ca565b908701518051600790810b61014089015260208201516001600160a01b03166101608901526040820151900b6101808801529093509150611ab09050565b50949350505050565b6001600160a01b038316815260406020820152600061163860408301846118ca565b600081518084526020808501945080840160005b83811015611b0e57815160070b87529582019590820190600101611aef565b509495945050505050565b60006001600160a01b03808616835280851660208401525060606040830152611b456060830184611adb565b95945050505050565b6001600160a01b0383168152608081016105806020830184805160070b82526001600160a01b036020820151166020830152604081015160070b60408301525050565b6001600160a01b03841681528260070b6020820152606060408201526000611b456060830184611adb565b60008060408385031215611bcf57600080fd5b611bd88361177b565b91506020830151611be881611147565b80915050925092905056fe90a5cf4cffe88b4edbb041cfc7a8a812c48a5ec30b84640fb37690875168e3aaa2646970667358221220973f3bb5538ed39906871059dd8cb7fd5b32c0e59ac83fa8cca9f34551c3c9ec64736f6c63430008140033",
  "linkReferences": {},
  "deployedLinkReferences": {}
}