{
  "_format": "hh-sol-artifact-1",
  "contractName": "TokenManagementContract",
  "sourceName": "contracts/hts-precompile/examples/token-manage/TokenManagementContract.sol",
  "abi": [
    {
      "anonymous": false,
      "inputs": [
        {
          "indexed": false,
          "internalType": "bool",
          "name": "",
          "type": "bool"
        },
        {
          "indexed": false,
          "internalType": "bytes",
          "name": "",
          "type": "bytes"
        }
      ],
      "name": "CallResponseEvent",
      "type": "event"
    },
    {
      "anonymous": false,
      "inputs": [
        {
          "indexed": false,
          "internalType": "bool",
          "name": "paused",
          "type": "bool"
        }
      ],
      "name": "PausedToken",
      "type": "event"
    },
    {
      "anonymous": false,
      "inputs": [
        {
          "indexed": false,
          "internalType": "int256",
          "name": "responseCode",
          "type": "int256"
        }
      ],
      "name": "ResponseCode",
      "type": "event"
    },
    {
      "anonymous": false,
      "inputs": [
        {
          "indexed": false,
          "internalType": "bool",
          "name": "unpaused",
          "type": "bool"
        }
      ],
      "name": "UnpausedToken",
      "type": "event"
    },
    {
      "inputs": [
        {
          "internalType": "address",
          "name": "token",
          "type": "address"
        },
        {
          "internalType": "address",
          "name": "approved",
          "type": "address"
        },
        {
          "internalType": "uint256",
          "name": "serialNumber",
          "type": "uint256"
        }
      ],
      "name": "approveNFTPublic",
      "outputs": [
        {
          "internalType": "int256",
          "name": "responseCode",
          "type": "int256"
        }
      ],
      "stateMutability": "nonpayable",
      "type": "function"
    },
    {
      "inputs": [
        {
          "internalType": "address",
          "name": "token",
          "type": "address"
        },
        {
          "internalType": "address",
          "name": "spender",
          "type": "address"
        },
        {
          "internalType": "uint256",
          "name": "amount",
          "type": "uint256"
        }
      ],
      "name": "approvePublic",
      "outputs": [
        {
          "internalType": "int256",
          "name": "responseCode",
          "type": "int256"
        }
      ],
      "stateMutability": "nonpayable",
      "type": "function"
    },
    {
      "inputs": [
        {
          "internalType": "address",
          "name": "token",
          "type": "address"
        },
        {
          "internalType": "int64",
          "name": "amount",
          "type": "int64"
        },
        {
          "internalType": "int64[]",
          "name": "serialNumbers",
          "type": "int64[]"
        }
      ],
      "name": "burnTokenPublic",
      "outputs": [
        {
          "internalType": "int256",
          "name": "responseCode",
          "type": "int256"
        },
        {
          "internalType": "int64",
          "name": "newTotalSupply",
          "type": "int64"
        }
      ],
      "stateMutability": "nonpayable",
      "type": "function"
    },
    {
      "inputs": [
        {
          "internalType": "address",
          "name": "token",
          "type": "address"
        },
        {
          "internalType": "address",
          "name": "account",
          "type": "address"
        }
      ],
      "name": "delegateFreezeTokenPublic",
      "outputs": [
        {
          "internalType": "int256",
          "name": "responseCode",
          "type": "int256"
        }
      ],
      "stateMutability": "nonpayable",
      "type": "function"
    },
    {
      "inputs": [
        {
          "internalType": "address",
          "name": "token",
          "type": "address"
        }
      ],
      "name": "delegatePauseTokenPublic",
      "outputs": [
        {
          "internalType": "int256",
          "name": "responseCode",
          "type": "int256"
        }
      ],
      "stateMutability": "nonpayable",
      "type": "function"
    },
    {
      "inputs": [
        {
          "internalType": "address",
          "name": "token",
          "type": "address"
        },
        {
          "internalType": "address",
          "name": "from",
          "type": "address"
        },
        {
          "internalType": "address",
          "name": "to",
          "type": "address"
        },
        {
          "internalType": "uint256",
          "name": "amount",
          "type": "uint256"
        }
      ],
      "name": "delegateTransferFrom",
      "outputs": [
        {
          "internalType": "int64",
          "name": "responseCode",
          "type": "int64"
        }
      ],
      "stateMutability": "nonpayable",
      "type": "function"
    },
    {
      "inputs": [
        {
          "internalType": "address",
          "name": "token",
          "type": "address"
        },
        {
          "internalType": "address",
          "name": "from",
          "type": "address"
        },
        {
          "internalType": "address",
          "name": "to",
          "type": "address"
        },
        {
          "internalType": "uint256",
          "name": "serialNumber",
          "type": "uint256"
        }
      ],
      "name": "delegateTransferFromNFT",
      "outputs": [
        {
          "internalType": "int64",
          "name": "responseCode",
          "type": "int64"
        }
      ],
      "stateMutability": "nonpayable",
      "type": "function"
    },
    {
      "inputs": [
        {
          "internalType": "address",
          "name": "token",
          "type": "address"
        },
        {
          "internalType": "address",
          "name": "account",
          "type": "address"
        }
      ],
      "name": "delegateUnfreezeTokenPublic",
      "outputs": [
        {
          "internalType": "int256",
          "name": "responseCode",
          "type": "int256"
        }
      ],
      "stateMutability": "nonpayable",
      "type": "function"
    },
    {
      "inputs": [
        {
          "internalType": "address",
          "name": "token",
          "type": "address"
        }
      ],
      "name": "delegateUnpauseTokenPublic",
      "outputs": [
        {
          "internalType": "int256",
          "name": "responseCode",
          "type": "int256"
        }
      ],
      "stateMutability": "nonpayable",
      "type": "function"
    },
    {
      "inputs": [
        {
          "internalType": "address",
          "name": "token",
          "type": "address"
        },
        {
          "components": [
            {
              "internalType": "uint256",
              "name": "keyType",
              "type": "uint256"
            },
            {
              "components": [
                {
                  "internalType": "bool",
                  "name": "inheritAccountKey",
                  "type": "bool"
                },
                {
                  "internalType": "address",
                  "name": "contractId",
                  "type": "address"
                },
                {
                  "internalType": "bytes",
                  "name": "ed25519",
                  "type": "bytes"
                },
                {
                  "internalType": "bytes",
                  "name": "ECDSA_secp256k1",
                  "type": "bytes"
                },
                {
                  "internalType": "address",
                  "name": "delegatableContractId",
                  "type": "address"
                }
              ],
              "internalType": "struct IHederaTokenService.KeyValue",
              "name": "key",
              "type": "tuple"
            }
          ],
          "internalType": "struct IHederaTokenService.TokenKey[]",
          "name": "keys",
          "type": "tuple[]"
        }
      ],
      "name": "delegateUpdateTokenKeysPublic",
      "outputs": [
        {
          "internalType": "int64",
          "name": "responseCode",
          "type": "int64"
        }
      ],
      "stateMutability": "nonpayable",
      "type": "function"
    },
    {
      "inputs": [
        {
          "internalType": "address",
          "name": "token",
          "type": "address"
        },
        {
          "internalType": "address",
          "name": "account",
          "type": "address"
        },
        {
          "internalType": "int64",
          "name": "amount",
          "type": "int64"
        }
      ],
      "name": "delegateWipeTokenAccountPublic",
      "outputs": [
        {
          "internalType": "int256",
          "name": "responseCode",
          "type": "int256"
        }
      ],
      "stateMutability": "nonpayable",
      "type": "function"
    },
    {
      "inputs": [
        {
          "internalType": "address",
          "name": "token",
          "type": "address"
        }
      ],
      "name": "deleteTokenPublic",
      "outputs": [
        {
          "internalType": "int256",
          "name": "responseCode",
          "type": "int256"
        }
      ],
      "stateMutability": "nonpayable",
      "type": "function"
    },
    {
      "inputs": [
        {
          "internalType": "address",
          "name": "account",
          "type": "address"
        },
        {
          "internalType": "address",
          "name": "token",
          "type": "address"
        }
      ],
      "name": "dissociateTokenPublic",
      "outputs": [
        {
          "internalType": "int256",
          "name": "responseCode",
          "type": "int256"
        }
      ],
      "stateMutability": "nonpayable",
      "type": "function"
    },
    {
      "inputs": [
        {
          "internalType": "address",
          "name": "account",
          "type": "address"
        },
        {
          "internalType": "address[]",
          "name": "tokens",
          "type": "address[]"
        }
      ],
      "name": "dissociateTokensPublic",
      "outputs": [
        {
          "internalType": "int256",
          "name": "responseCode",
          "type": "int256"
        }
      ],
      "stateMutability": "nonpayable",
      "type": "function"
    },
    {
      "inputs": [
        {
          "internalType": "address",
          "name": "token",
          "type": "address"
        },
        {
          "internalType": "address",
          "name": "account",
          "type": "address"
        }
      ],
      "name": "freezeTokenPublic",
      "outputs": [
        {
          "internalType": "int256",
          "name": "responseCode",
          "type": "int256"
        }
      ],
      "stateMutability": "nonpayable",
      "type": "function"
    },
    {
      "inputs": [
        {
          "internalType": "address",
          "name": "token",
          "type": "address"
        }
      ],
      "name": "pauseTokenPublic",
      "outputs": [
        {
          "internalType": "int256",
          "name": "responseCode",
          "type": "int256"
        }
      ],
      "stateMutability": "nonpayable",
      "type": "function"
    },
    {
      "inputs": [
        {
          "internalType": "address",
          "name": "token",
          "type": "address"
        },
        {
          "internalType": "bytes",
          "name": "encodedFunctionSelector",
          "type": "bytes"
        }
      ],
      "name": "redirectForToken",
      "outputs": [],
      "stateMutability": "nonpayable",
      "type": "function"
    },
    {
      "inputs": [
        {
          "internalType": "address",
          "name": "token",
          "type": "address"
        },
        {
          "internalType": "address",
          "name": "account",
          "type": "address"
        }
      ],
      "name": "revokeTokenKycPublic",
      "outputs": [
        {
          "internalType": "int64",
          "name": "responseCode",
          "type": "int64"
        }
      ],
      "stateMutability": "nonpayable",
      "type": "function"
    },
    {
      "inputs": [
        {
          "internalType": "address",
          "name": "token",
          "type": "address"
        },
        {
          "internalType": "address",
          "name": "operator",
          "type": "address"
        },
        {
          "internalType": "bool",
          "name": "approved",
          "type": "bool"
        }
      ],
      "name": "setApprovalForAllPublic",
      "outputs": [
        {
          "internalType": "int256",
          "name": "responseCode",
          "type": "int256"
        }
      ],
      "stateMutability": "nonpayable",
      "type": "function"
    },
    {
      "inputs": [
        {
          "internalType": "address",
          "name": "token",
          "type": "address"
        },
        {
          "internalType": "address",
          "name": "from",
          "type": "address"
        },
        {
          "internalType": "address",
          "name": "to",
          "type": "address"
        },
        {
          "internalType": "uint256",
          "name": "amount",
          "type": "uint256"
        }
      ],
      "name": "transferFrom",
      "outputs": [
        {
          "internalType": "int64",
          "name": "responseCode",
          "type": "int64"
        }
      ],
      "stateMutability": "nonpayable",
      "type": "function"
    },
    {
      "inputs": [
        {
          "internalType": "address",
          "name": "token",
          "type": "address"
        },
        {
          "internalType": "address",
          "name": "from",
          "type": "address"
        },
        {
          "internalType": "address",
          "name": "to",
          "type": "address"
        },
        {
          "internalType": "uint256",
          "name": "serialNumber",
          "type": "uint256"
        }
      ],
      "name": "transferFromNFT",
      "outputs": [
        {
          "internalType": "int64",
          "name": "responseCode",
          "type": "int64"
        }
      ],
      "stateMutability": "nonpayable",
      "type": "function"
    },
    {
      "inputs": [
        {
          "internalType": "address",
          "name": "token",
          "type": "address"
        },
        {
          "internalType": "address",
          "name": "account",
          "type": "address"
        }
      ],
      "name": "unfreezeTokenPublic",
      "outputs": [
        {
          "internalType": "int256",
          "name": "responseCode",
          "type": "int256"
        }
      ],
      "stateMutability": "nonpayable",
      "type": "function"
    },
    {
      "inputs": [
        {
          "internalType": "address",
          "name": "token",
          "type": "address"
        }
      ],
      "name": "unpauseTokenPublic",
      "outputs": [
        {
          "internalType": "int256",
          "name": "responseCode",
          "type": "int256"
        }
      ],
      "stateMutability": "nonpayable",
      "type": "function"
    },
    {
      "inputs": [
        {
          "internalType": "address",
          "name": "token",
          "type": "address"
        },
        {
          "components": [
            {
              "internalType": "int64",
              "name": "second",
              "type": "int64"
            },
            {
              "internalType": "address",
              "name": "autoRenewAccount",
              "type": "address"
            },
            {
              "internalType": "int64",
              "name": "autoRenewPeriod",
              "type": "int64"
            }
          ],
          "internalType": "struct IHederaTokenService.Expiry",
          "name": "expiryInfo",
          "type": "tuple"
        }
      ],
      "name": "updateTokenExpiryInfoPublic",
      "outputs": [
        {
          "internalType": "int256",
          "name": "responseCode",
          "type": "int256"
        }
      ],
      "stateMutability": "nonpayable",
      "type": "function"
    },
    {
      "inputs": [
        {
          "internalType": "address",
          "name": "token",
          "type": "address"
        },
        {
          "components": [
            {
              "internalType": "string",
              "name": "name",
              "type": "string"
            },
            {
              "internalType": "string",
              "name": "symbol",
              "type": "string"
            },
            {
              "internalType": "address",
              "name": "treasury",
              "type": "address"
            },
            {
              "internalType": "string",
              "name": "memo",
              "type": "string"
            },
            {
              "internalType": "bool",
              "name": "tokenSupplyType",
              "type": "bool"
            },
            {
              "internalType": "int64",
              "name": "maxSupply",
              "type": "int64"
            },
            {
              "internalType": "bool",
              "name": "freezeDefault",
              "type": "bool"
            },
            {
              "components": [
                {
                  "internalType": "uint256",
                  "name": "keyType",
                  "type": "uint256"
                },
                {
                  "components": [
                    {
                      "internalType": "bool",
                      "name": "inheritAccountKey",
                      "type": "bool"
                    },
                    {
                      "internalType": "address",
                      "name": "contractId",
                      "type": "address"
                    },
                    {
                      "internalType": "bytes",
                      "name": "ed25519",
                      "type": "bytes"
                    },
                    {
                      "internalType": "bytes",
                      "name": "ECDSA_secp256k1",
                      "type": "bytes"
                    },
                    {
                      "internalType": "address",
                      "name": "delegatableContractId",
                      "type": "address"
                    }
                  ],
                  "internalType": "struct IHederaTokenService.KeyValue",
                  "name": "key",
                  "type": "tuple"
                }
              ],
              "internalType": "struct IHederaTokenService.TokenKey[]",
              "name": "tokenKeys",
              "type": "tuple[]"
            },
            {
              "components": [
                {
                  "internalType": "int64",
                  "name": "second",
                  "type": "int64"
                },
                {
                  "internalType": "address",
                  "name": "autoRenewAccount",
                  "type": "address"
                },
                {
                  "internalType": "int64",
                  "name": "autoRenewPeriod",
                  "type": "int64"
                }
              ],
              "internalType": "struct IHederaTokenService.Expiry",
              "name": "expiry",
              "type": "tuple"
            }
          ],
          "internalType": "struct IHederaTokenService.HederaToken",
          "name": "tokenInfo",
          "type": "tuple"
        }
      ],
      "name": "updateTokenInfoPublic",
      "outputs": [
        {
          "internalType": "int256",
          "name": "responseCode",
          "type": "int256"
        }
      ],
      "stateMutability": "nonpayable",
      "type": "function"
    },
    {
      "inputs": [
        {
          "internalType": "address",
          "name": "token",
          "type": "address"
        },
        {
          "components": [
            {
              "internalType": "uint256",
              "name": "keyType",
              "type": "uint256"
            },
            {
              "components": [
                {
                  "internalType": "bool",
                  "name": "inheritAccountKey",
                  "type": "bool"
                },
                {
                  "internalType": "address",
                  "name": "contractId",
                  "type": "address"
                },
                {
                  "internalType": "bytes",
                  "name": "ed25519",
                  "type": "bytes"
                },
                {
                  "internalType": "bytes",
                  "name": "ECDSA_secp256k1",
                  "type": "bytes"
                },
                {
                  "internalType": "address",
                  "name": "delegatableContractId",
                  "type": "address"
                }
              ],
              "internalType": "struct IHederaTokenService.KeyValue",
              "name": "key",
              "type": "tuple"
            }
          ],
          "internalType": "struct IHederaTokenService.TokenKey[]",
          "name": "keys",
          "type": "tuple[]"
        }
      ],
      "name": "updateTokenKeysPublic",
      "outputs": [
        {
          "internalType": "int64",
          "name": "responseCode",
          "type": "int64"
        }
      ],
      "stateMutability": "nonpayable",
      "type": "function"
    },
    {
      "inputs": [
        {
          "internalType": "address",
          "name": "token",
          "type": "address"
        },
        {
          "internalType": "address",
          "name": "account",
          "type": "address"
        },
        {
          "internalType": "int64[]",
          "name": "serialNumbers",
          "type": "int64[]"
        }
      ],
      "name": "wipeTokenAccountNFTPublic",
      "outputs": [
        {
          "internalType": "int256",
          "name": "responseCode",
          "type": "int256"
        }
      ],
      "stateMutability": "nonpayable",
      "type": "function"
    },
    {
      "inputs": [
        {
          "internalType": "address",
          "name": "token",
          "type": "address"
        },
        {
          "internalType": "address",
          "name": "account",
          "type": "address"
        },
        {
          "internalType": "int64",
          "name": "amount",
          "type": "int64"
        }
      ],
      "name": "wipeTokenAccountPublic",
      "outputs": [
        {
          "internalType": "int256",
          "name": "responseCode",
          "type": "int256"
        }
      ],
      "stateMutability": "nonpayable",
      "type": "function"
    }
  ],
  "bytecode": "0x608060405234801561001057600080fd5b50600160208181527fa6eef7e35abe7026729641147f7915573c7e97b47efa546f5f6e3230263bcb499190915560027fcc69885fda6bcc1a4ace058b4a62bf5e179ea78fd58a1ccd71c22cc9b688792f5560047fd9d16d34ffb15ba3a3d852f0d403e2ce1d691fb54de27ac87cd2f993f3ec330f5560087f7dfe757ecd65cbd7922a9c0161e935dd7fdbcc0e999689c7d31633896b1fc60b5560107fedc95719e9a3b28dd8e80877cb5880a9be7de1a13fc8b05e7999683b6b567643557fe2689cd4a84e23ad2f564004f1c9013e9589d260bde6380aba3ca7e09e4df40c55600660005260407f8f331abe73332f95a25873e8b430885974c0409691f89d643119a11623a7924a55612059806101276000396000f3fe608060405234801561001057600080fd5b50600436106101c25760003560e01c80637d3e5da8116100f9578063eac6f3fe11610097578063f52177ee11610071578063f52177ee146103b7578063f7be3425146103e2578063f848fec4146103f5578063fad0038a1461040857600080fd5b8063eac6f3fe1461037e578063ee13b27914610391578063f25b1200146103a457600080fd5b8063a345f7bd116100d3578063a345f7bd14610332578063b26d33cb14610345578063ba4cd46914610358578063df6c06f51461036b57600080fd5b80637d3e5da8146102f9578063815228c01461030c5780639b23d3d91461031f57600080fd5b80632c5c3a481161016657806336348de31161014057806336348de3146102ab5780634d8f27c9146102be57806356af8403146102d1578063618dc65e146102e457600080fd5b80632c5c3a48146102725780632d73bb2e146102855780632eecbca31461029857600080fd5b806311e1fc07116101a257806311e1fc071461022657806315dacbea146102395780632abf6c551461024c5780632b256ec81461025f57600080fd5b8062d8d04b146101c7578062ed61f8146101f2578063106360d614610213575b600080fd5b6101da6101d5366004611607565b61041b565b60405160079190910b81526020015b60405180910390f35b610205610200366004611655565b610466565b6040519081526020016101e9565b610205610221366004611688565b6104ab565b6101da6102343660046116a3565b610526565b6101da6102473660046116a3565b610618565b61020561025a3660046116ee565b6106d4565b61020561026d366004611688565b610701565b610205610280366004611655565b610773565b610205610293366004611655565b61077f565b6101da6102a6366004611655565b61078b565b6102056102b936600461182a565b610797565b6101da6102cc366004611607565b6107a3565b6102056102df3660046119d4565b6107af565b6102f76102f2366004611a32565b6107f9565b005b610205610307366004611655565b6108e7565b61020561031a366004611a76565b6108f3565b6101da61032d3660046116a3565b6108ff565b610205610340366004611688565b610944565b610205610353366004611655565b61098a565b610205610366366004611688565b610996565b610205610379366004611aa1565b6109a1565b6101da61038c3660046116a3565b6109ae565b61020561039f366004611add565b6109f3565b6102056103b2366004611b24565b610a00565b6103ca6103c5366004611b67565b610a0d565b6040805192835260079190910b6020830152016101e9565b6102056103f0366004611688565b610a56565b610205610403366004611aa1565b610a61565b610205610416366004611add565b610a6e565b60006104278383610a7b565b604051600782900b81529091506000805160206120048339815191529060200160405180910390a1600781900b60161461046057600080fd5b92915050565b60006104728383610b56565b60070b90506000805160206120048339815191528160405161049691815260200190565b60405180910390a16016811461046057600080fd5b60006104b682610b8c565b9050600080516020612004833981519152816040516104d791815260200190565b60405180910390a1601681146104ec57600080fd5b604051600181527f319ab7084208e4afa38c6e6ff7aea9587439f2e4700746f4c7d425fea17426d2906020015b60405180910390a1919050565b6040516001600160a01b038581166024830152848116604483015283166064820152608481018290526000908190819061016790639b23d3d960e01b9060a4015b60408051601f198184030181529181526020820180516001600160e01b03166001600160e01b03199094169390931790925290516105a59190611bc5565b600060405180830381855af49150503d80600081146105e0576040519150601f19603f3d011682016040523d82523d6000602084013e6105e5565b606091505b5091509150816105f657601561060a565b8080602001905181019061060a9190611bf3565b60030b979650505050505050565b6040516001600160a01b038581166024830152848116604483015283166064820152608481018290526000908190819061016790630aed65f560e11b9060a4015b60408051601f198184030181529181526020820180516001600160e01b03166001600160e01b03199094169390931790925290516106979190611bc5565b6000604051808303816000865af19150503d80600081146105e0576040519150601f19603f3d011682016040523d82523d6000602084013e6105e5565b60006106e08383610c64565b90506000805160206120048339815191528160405161049691815260200190565b600061070c82610d0b565b90506000805160206120048339815191528160405161072d91815260200190565b60405180910390a16016811461074257600080fd5b604051600181527f0c9c765845f4d139956bb8fc8decb2eec6093c9c608b809641b16054b29f0e1390602001610519565b60006104728383610db0565b60006104728383610de6565b60006104278383610e1c565b60006106e08383610e52565b60006104278383610e7e565b60006107bc848484610eaa565b9050600080516020612004833981519152816040516107dd91815260200190565b60405180910390a1601681146107f257600080fd5b9392505050565b6000806101676001600160a01b031663618dc65e60e01b8585604051602401610823929190611c3a565b60408051601f198184030181529181526020820180516001600160e01b03166001600160e01b03199094169390931790925290516108619190611bc5565b6000604051808303816000865af19150503d806000811461089e576040519150601f19603f3d011682016040523d82523d6000602084013e6108a3565b606091505b50915091507f4af4780e06fe8cb9df64b0794fa6f01399af979175bb988e35e0e57e594567bc82826040516108d9929190611c64565b60405180910390a150505050565b60006104728383610f8a565b60006106e08383610fc0565b6040516001600160a01b038581166024830152848116604483015283166064820152608481018290526000908190819061016790639b23d3d960e01b9060a401610659565b600061094f82610fec565b90506000805160206120048339815191528160405161097091815260200190565b60405180910390a16016811461098557600080fd5b919050565b60006106e0838361101a565b600061070c82611050565b60006107bc84848461107e565b6040516001600160a01b038581166024830152848116604483015283166064820152608481018290526000908190819061016790630aed65f560e11b9060a401610567565b60006107bc8484846110bb565b60006107bc848484611161565b600080610a1b85858561119f565b60405182815291935091506000805160206120048339815191529060200160405180910390a160168214610a4e57600080fd5b935093915050565b60006104b682611288565b60006107bc8484846112b6565b60006107bc8484846112f3565b60008060006101676001600160a01b0316636fc3cbaf60e01b8686604051602401610aa7929190611d43565b60408051601f198184030181529181526020820180516001600160e01b03166001600160e01b0319909416939093179092529051610ae59190611bc5565b600060405180830381855af49150503d8060008114610b20576040519150601f19603f3d011682016040523d82523d6000602084013e610b25565b606091505b509150915081610b36576015610b4a565b80806020019051810190610b4a9190611bf3565b60030b95945050505050565b6040516001600160a01b0383811660248301528216604482015260009081908190610167906352f9138760e01b90606401610aa7565b6040516001600160a01b03821660248201526000908190819061016790633b3bff0f60e01b906044015b60408051601f198184030181529181526020820180516001600160e01b03166001600160e01b0319909416939093179092529051610bf49190611bc5565b600060405180830381855af49150503d8060008114610c2f576040519150601f19603f3d011682016040523d82523d6000602084013e610c34565b606091505b509150915081610c45576015610c59565b80806020019051810190610c599190611bf3565b60030b949350505050565b60008060006101676001600160a01b03166378b6391860e01b8686604051602401610c90929190611d65565b60408051601f198184030181529181526020820180516001600160e01b03166001600160e01b0319909416939093179092529051610cce9190611bc5565b6000604051808303816000865af19150503d8060008114610b20576040519150601f19603f3d011682016040523d82523d6000602084013e610b25565b6040516001600160a01b03821660248201526000908190819061016790631f106b4b60e21b906044015b60408051601f198184030181529181526020820180516001600160e01b03166001600160e01b0319909416939093179092529051610d739190611bc5565b6000604051808303816000865af19150503d8060008114610c2f576040519150601f19603f3d011682016040523d82523d6000602084013e610c34565b6040516001600160a01b0383811660248301528216604482015260009081908190610167906316e3e16160e21b90606401610aa7565b6040516001600160a01b0383811660248301528216604482015260009081908190610167906352f9138760e01b90606401610c90565b6040516001600160a01b03838116602483015282166044820152600090819081906101679063af99c63360e01b90606401610c90565b60008060006101676001600160a01b0316637d305cfa60e01b8686604051602401610c90929190611dc0565b60008060006101676001600160a01b0316636fc3cbaf60e01b8686604051602401610c90929190611d43565b60008060006101676001600160a01b031663f7f38e2660e01b878787604051602401610ed893929190611f29565b60408051601f198184030181529181526020820180516001600160e01b03166001600160e01b0319909416939093179092529051610f169190611bc5565b6000604051808303816000865af19150503d8060008114610f53576040519150601f19603f3d011682016040523d82523d6000602084013e610f58565b606091505b509150915081610f69576015610f7d565b80806020019051810190610f7d9190611bf3565b60030b9695505050505050565b6040516001600160a01b0383811660248301528216604482015260009081908190610167906316e3e16160e21b90606401610c90565b60008060006101676001600160a01b031663d27be6cd60e01b8686604051602401610c90929190611f5e565b6040516001600160a01b03821660248201526000908190819061016790637834fb8960e11b90604401610d35565b6040516001600160a01b038381166024830152821660448201526000908190819061016790630132f29d60e31b90606401610c90565b6040516001600160a01b03821660248201526000908190819061016790631f106b4b60e21b90604401610bb6565b6040516001600160a01b038481166024830152831660448201526064810182905260009081908190610167906307336aaf60e41b90608401610ed8565b604080516001600160a01b03858116602483015284166044820152600783900b60648083019190915282518083039091018152608490910182526020810180516001600160e01b031663efef57f960e01b179052905160009182918291610167916111269190611bc5565b600060405180830381855af49150503d8060008114610f53576040519150601f19603f3d011682016040523d82523d6000602084013e610f58565b6040516001600160a01b0384811660248301528316604482015281151560648201526000908190819061016790631b3b02e560e11b90608401610ed8565b6000806000806101676001600160a01b031663d6910d0660e01b8888886040516024016111ce93929190611fa1565b60408051601f198184030181529181526020820180516001600160e01b03166001600160e01b031990941693909317909252905161120c9190611bc5565b6000604051808303816000865af19150503d8060008114611249576040519150601f19603f3d011682016040523d82523d6000602084013e61124e565b606091505b5091509150816112615760156000611275565b808060200190518101906112759190611fcc565b60039190910b9890975095505050505050565b6040516001600160a01b03821660248201526000908190819061016790633b3bff0f60e01b90604401610d35565b6040516001600160a01b0384811660248301528316604482015260648101829052600090819081906101679063e1f21c6760e01b90608401610ed8565b6040516001600160a01b03848116602483015283166044820152600782900b6064820152600090819081906101679063efef57f960e01b90608401610ed8565b80356001600160a01b038116811461098557600080fd5b634e487b7160e01b600052604160045260246000fd5b6040805190810167ffffffffffffffff811182821017156113835761138361134a565b60405290565b60405160a0810167ffffffffffffffff811182821017156113835761138361134a565b604051610120810167ffffffffffffffff811182821017156113835761138361134a565b604051601f8201601f1916810167ffffffffffffffff811182821017156113f9576113f961134a565b604052919050565b600067ffffffffffffffff82111561141b5761141b61134a565b5060051b60200190565b8035801515811461098557600080fd5b600082601f83011261144657600080fd5b813567ffffffffffffffff8111156114605761146061134a565b611473601f8201601f19166020016113d0565b81815284602083860101111561148857600080fd5b816020850160208301376000918101602001919091529392505050565b600082601f8301126114b657600080fd5b813560206114cb6114c683611401565b6113d0565b82815260059290921b840181019181810190868411156114ea57600080fd5b8286015b848110156115fc57803567ffffffffffffffff8082111561150e57600080fd5b908801906040601f19838c03810182131561152857600080fd5b611530611360565b888501358152828501358481111561154757600080fd5b949094019360a0858e038301121561155f5760008081fd5b611567611389565b9150611574898601611425565b8252611581838601611333565b89830152606080860135858111156115995760008081fd5b6115a78f8c838a0101611435565b85850152506080935083860135858111156115c25760008081fd5b6115d08f8c838a0101611435565b8285015250506115e260a08601611333565b9282019290925281880152855250509183019183016114ee565b509695505050505050565b6000806040838503121561161a57600080fd5b61162383611333565b9150602083013567ffffffffffffffff81111561163f57600080fd5b61164b858286016114a5565b9150509250929050565b6000806040838503121561166857600080fd5b61167183611333565b915061167f60208401611333565b90509250929050565b60006020828403121561169a57600080fd5b6107f282611333565b600080600080608085870312156116b957600080fd5b6116c285611333565b93506116d060208601611333565b92506116de60408601611333565b9396929550929360600135925050565b6000806040838503121561170157600080fd5b61170a83611333565b915060208084013567ffffffffffffffff81111561172757600080fd5b8401601f8101861361173857600080fd5b80356117466114c682611401565b81815260059190911b8201830190838101908883111561176557600080fd5b928401925b8284101561178a5761177b84611333565b8252928401929084019061176a565b80955050505050509250929050565b8060070b81146117a857600080fd5b50565b803561098581611799565b6000606082840312156117c857600080fd5b6040516060810181811067ffffffffffffffff821117156117eb576117eb61134a565b60405290508082356117fc81611799565b815261180a60208401611333565b6020820152604083013561181d81611799565b6040919091015292915050565b6000806040838503121561183d57600080fd5b61184683611333565b9150602083013567ffffffffffffffff8082111561186357600080fd5b90840190610160828703121561187857600080fd5b6118806113ac565b82358281111561188f57600080fd5b61189b88828601611435565b8252506020830135828111156118b057600080fd5b6118bc88828601611435565b6020830152506118ce60408401611333565b60408201526060830135828111156118e557600080fd5b6118f188828601611435565b60608301525061190360808401611425565b608082015261191460a084016117ab565b60a082015261192560c08401611425565b60c082015260e08301358281111561193c57600080fd5b611948888286016114a5565b60e083015250610100915061195f878385016117b6565b828201528093505050509250929050565b600082601f83011261198157600080fd5b813560206119916114c683611401565b82815260059290921b840181019181810190868411156119b057600080fd5b8286015b848110156115fc5780356119c781611799565b83529183019183016119b4565b6000806000606084860312156119e957600080fd5b6119f284611333565b9250611a0060208501611333565b9150604084013567ffffffffffffffff811115611a1c57600080fd5b611a2886828701611970565b9150509250925092565b60008060408385031215611a4557600080fd5b611a4e83611333565b9150602083013567ffffffffffffffff811115611a6a57600080fd5b61164b85828601611435565b60008060808385031215611a8957600080fd5b611a9283611333565b915061167f84602085016117b6565b600080600060608486031215611ab657600080fd5b611abf84611333565b9250611acd60208501611333565b9150604084013590509250925092565b600080600060608486031215611af257600080fd5b611afb84611333565b9250611b0960208501611333565b91506040840135611b1981611799565b809150509250925092565b600080600060608486031215611b3957600080fd5b611b4284611333565b9250611b5060208501611333565b9150611b5e60408501611425565b90509250925092565b600080600060608486031215611b7c57600080fd5b611b8584611333565b92506020840135611a0081611799565b60005b83811015611bb0578181015183820152602001611b98565b83811115611bbf576000848401525b50505050565b60008251611bd7818460208701611b95565b9190910192915050565b8051600381900b811461098557600080fd5b600060208284031215611c0557600080fd5b6107f282611be1565b60008151808452611c26816020860160208601611b95565b601f01601f19169290920160200192915050565b6001600160a01b0383168152604060208201526000611c5c6040830184611c0e565b949350505050565b8215158152604060208201526000611c5c6040830184611c0e565b600081518084526020808501808196508360051b8101915082860160005b85811015611d365782840389528151604081518652868201519150808787015281511515818701528682015160606001600160a01b03808316828a015283850151935060a09250608083818b0152611cf860e08b0186611c0e565b928601518a8403603f1901858c0152929450611d148584611c0e565b9501511660c09890980197909752505098850198935090840190600101611c9d565b5091979650505050505050565b6001600160a01b0383168152604060208201526000611c5c6040830184611c7f565b6000604082016001600160a01b0380861684526020604081860152828651808552606087019150828801945060005b81811015611db2578551851683529483019491830191600101611d94565b509098975050505050505050565b6001600160a01b038316815260406020820152600082516101606040840152611ded6101a0840182611c0e565b90506020840151603f1980858403016060860152611e0b8383611c0e565b925060408601519150611e2960808601836001600160a01b03169052565b60608601519150808584030160a0860152611e448383611c0e565b925060808601519150611e5b60c086018315159052565b60a08601519150611e7160e086018360070b9052565b60c08601519150610100611e888187018415159052565b60e087015192508186850301610120870152611ea48484611c7f565b908701518051600790810b61014089015260208201516001600160a01b03166101608901526040820151900b6101808801529093509150611ee29050565b50949350505050565b600081518084526020808501945080840160005b83811015611f1e57815160070b87529582019590820190600101611eff565b509495945050505050565b60006001600160a01b03808616835280851660208401525060606040830152611f556060830184611eeb565b95945050505050565b6001600160a01b0383168152608081016107f26020830184805160070b82526001600160a01b036020820151166020830152604081015160070b60408301525050565b6001600160a01b03841681528260070b6020820152606060408201526000611f556060830184611eeb565b60008060408385031215611fdf57600080fd5b611fe883611be1565b91506020830151611ff881611799565b80915050925092905056fe90a5cf4cffe88b4edbb041cfc7a8a812c48a5ec30b84640fb37690875168e3aaa2646970667358221220da0d24fc4b09494d5d5b6521aec6523a8371ceed9378602a78db3e222c91cd4d64736f6c63430008090033",
  "linkReferences": {},
  "deployedLinkReferences": {}
}