{
  "_format": "hh-sol-artifact-1",
  "contractName": "TokenManagementContract",
  "sourceName": "contracts/hts-precompile/examples/token-manage/TokenManagementContract.sol",
  "abi": [
    {
      "anonymous": false,
      "inputs": [
        {
          "indexed": false,
          "internalType": "bool",
          "name": "paused",
          "type": "bool"
        }
      ],
      "name": "PausedToken",
      "type": "event"
    },
    {
      "anonymous": false,
      "inputs": [
        {
          "indexed": false,
          "internalType": "int256",
          "name": "responseCode",
          "type": "int256"
        }
      ],
      "name": "ResponseCode",
      "type": "event"
    },
    {
      "anonymous": false,
      "inputs": [
        {
          "indexed": false,
          "internalType": "bool",
          "name": "unpaused",
          "type": "bool"
        }
      ],
      "name": "UnpausedToken",
      "type": "event"
    },
    {
      "inputs": [
        {
          "internalType": "address",
          "name": "token",
          "type": "address"
        },
        {
          "internalType": "address",
          "name": "approved",
          "type": "address"
        },
        {
          "internalType": "uint256",
          "name": "serialNumber",
          "type": "uint256"
        }
      ],
      "name": "approveNFTPublic",
      "outputs": [
        {
          "internalType": "int256",
          "name": "responseCode",
          "type": "int256"
        }
      ],
      "stateMutability": "nonpayable",
      "type": "function"
    },
    {
      "inputs": [
        {
          "internalType": "address",
          "name": "token",
          "type": "address"
        },
        {
          "internalType": "address",
          "name": "spender",
          "type": "address"
        },
        {
          "internalType": "uint256",
          "name": "amount",
          "type": "uint256"
        }
      ],
      "name": "approvePublic",
      "outputs": [
        {
          "internalType": "int256",
          "name": "responseCode",
          "type": "int256"
        }
      ],
      "stateMutability": "nonpayable",
      "type": "function"
    },
    {
      "inputs": [
        {
          "internalType": "address",
          "name": "token",
          "type": "address"
        },
        {
          "internalType": "int64",
          "name": "amount",
          "type": "int64"
        },
        {
          "internalType": "int64[]",
          "name": "serialNumbers",
          "type": "int64[]"
        }
      ],
      "name": "burnTokenPublic",
      "outputs": [
        {
          "internalType": "int256",
          "name": "responseCode",
          "type": "int256"
        },
        {
          "internalType": "int64",
          "name": "newTotalSupply",
          "type": "int64"
        }
      ],
      "stateMutability": "nonpayable",
      "type": "function"
    },
    {
      "inputs": [
        {
          "internalType": "address",
          "name": "token",
          "type": "address"
        },
        {
          "internalType": "address",
          "name": "account",
          "type": "address"
        }
      ],
      "name": "delegateFreezeTokenPublic",
      "outputs": [
        {
          "internalType": "int256",
          "name": "responseCode",
          "type": "int256"
        }
      ],
      "stateMutability": "nonpayable",
      "type": "function"
    },
    {
      "inputs": [
        {
          "internalType": "address",
          "name": "token",
          "type": "address"
        }
      ],
      "name": "delegatePauseTokenPublic",
      "outputs": [
        {
          "internalType": "int256",
          "name": "responseCode",
          "type": "int256"
        }
      ],
      "stateMutability": "nonpayable",
      "type": "function"
    },
    {
      "inputs": [
        {
          "internalType": "address",
          "name": "token",
          "type": "address"
        },
        {
          "internalType": "address",
          "name": "from",
          "type": "address"
        },
        {
          "internalType": "address",
          "name": "to",
          "type": "address"
        },
        {
          "internalType": "uint256",
          "name": "amount",
          "type": "uint256"
        }
      ],
      "name": "delegateTransferFrom",
      "outputs": [
        {
          "internalType": "int64",
          "name": "responseCode",
          "type": "int64"
        }
      ],
      "stateMutability": "nonpayable",
      "type": "function"
    },
    {
      "inputs": [
        {
          "internalType": "address",
          "name": "token",
          "type": "address"
        },
        {
          "internalType": "address",
          "name": "from",
          "type": "address"
        },
        {
          "internalType": "address",
          "name": "to",
          "type": "address"
        },
        {
          "internalType": "uint256",
          "name": "serialNumber",
          "type": "uint256"
        }
      ],
      "name": "delegateTransferFromNFT",
      "outputs": [
        {
          "internalType": "int64",
          "name": "responseCode",
          "type": "int64"
        }
      ],
      "stateMutability": "nonpayable",
      "type": "function"
    },
    {
      "inputs": [
        {
          "internalType": "address",
          "name": "token",
          "type": "address"
        },
        {
          "internalType": "address",
          "name": "account",
          "type": "address"
        }
      ],
      "name": "delegateUnfreezeTokenPublic",
      "outputs": [
        {
          "internalType": "int256",
          "name": "responseCode",
          "type": "int256"
        }
      ],
      "stateMutability": "nonpayable",
      "type": "function"
    },
    {
      "inputs": [
        {
          "internalType": "address",
          "name": "token",
          "type": "address"
        }
      ],
      "name": "delegateUnpauseTokenPublic",
      "outputs": [
        {
          "internalType": "int256",
          "name": "responseCode",
          "type": "int256"
        }
      ],
      "stateMutability": "nonpayable",
      "type": "function"
    },
    {
      "inputs": [
        {
          "internalType": "address",
          "name": "token",
          "type": "address"
        },
        {
          "components": [
            {
              "internalType": "uint256",
              "name": "keyType",
              "type": "uint256"
            },
            {
              "components": [
                {
                  "internalType": "bool",
                  "name": "inheritAccountKey",
                  "type": "bool"
                },
                {
                  "internalType": "address",
                  "name": "contractId",
                  "type": "address"
                },
                {
                  "internalType": "bytes",
                  "name": "ed25519",
                  "type": "bytes"
                },
                {
                  "internalType": "bytes",
                  "name": "ECDSA_secp256k1",
                  "type": "bytes"
                },
                {
                  "internalType": "address",
                  "name": "delegatableContractId",
                  "type": "address"
                }
              ],
              "internalType": "struct IHederaTokenService.KeyValue",
              "name": "key",
              "type": "tuple"
            }
          ],
          "internalType": "struct IHederaTokenService.TokenKey[]",
          "name": "keys",
          "type": "tuple[]"
        }
      ],
      "name": "delegateUpdateTokenKeysPublic",
      "outputs": [
        {
          "internalType": "int64",
          "name": "responseCode",
          "type": "int64"
        }
      ],
      "stateMutability": "nonpayable",
      "type": "function"
    },
    {
      "inputs": [
        {
          "internalType": "address",
          "name": "token",
          "type": "address"
        },
        {
          "internalType": "address",
          "name": "account",
          "type": "address"
        },
        {
          "internalType": "int64",
          "name": "amount",
          "type": "int64"
        }
      ],
      "name": "delegateWipeTokenAccountPublic",
      "outputs": [
        {
          "internalType": "int256",
          "name": "responseCode",
          "type": "int256"
        }
      ],
      "stateMutability": "nonpayable",
      "type": "function"
    },
    {
      "inputs": [
        {
          "internalType": "address",
          "name": "token",
          "type": "address"
        }
      ],
      "name": "deleteTokenPublic",
      "outputs": [
        {
          "internalType": "int256",
          "name": "responseCode",
          "type": "int256"
        }
      ],
      "stateMutability": "nonpayable",
      "type": "function"
    },
    {
      "inputs": [
        {
          "internalType": "address",
          "name": "account",
          "type": "address"
        },
        {
          "internalType": "address",
          "name": "token",
          "type": "address"
        }
      ],
      "name": "dissociateTokenPublic",
      "outputs": [
        {
          "internalType": "int256",
          "name": "responseCode",
          "type": "int256"
        }
      ],
      "stateMutability": "nonpayable",
      "type": "function"
    },
    {
      "inputs": [
        {
          "internalType": "address",
          "name": "account",
          "type": "address"
        },
        {
          "internalType": "address[]",
          "name": "tokens",
          "type": "address[]"
        }
      ],
      "name": "dissociateTokensPublic",
      "outputs": [
        {
          "internalType": "int256",
          "name": "responseCode",
          "type": "int256"
        }
      ],
      "stateMutability": "nonpayable",
      "type": "function"
    },
    {
      "inputs": [
        {
          "internalType": "address",
          "name": "token",
          "type": "address"
        },
        {
          "internalType": "address",
          "name": "account",
          "type": "address"
        }
      ],
      "name": "freezeTokenPublic",
      "outputs": [
        {
          "internalType": "int256",
          "name": "responseCode",
          "type": "int256"
        }
      ],
      "stateMutability": "nonpayable",
      "type": "function"
    },
    {
      "inputs": [
        {
          "internalType": "address",
          "name": "token",
          "type": "address"
        }
      ],
      "name": "pauseTokenPublic",
      "outputs": [
        {
          "internalType": "int256",
          "name": "responseCode",
          "type": "int256"
        }
      ],
      "stateMutability": "nonpayable",
      "type": "function"
    },
    {
      "inputs": [
        {
          "internalType": "address",
          "name": "token",
          "type": "address"
        },
        {
          "internalType": "address",
          "name": "account",
          "type": "address"
        }
      ],
      "name": "revokeTokenKycPublic",
      "outputs": [
        {
          "internalType": "int64",
          "name": "responseCode",
          "type": "int64"
        }
      ],
      "stateMutability": "nonpayable",
      "type": "function"
    },
    {
      "inputs": [
        {
          "internalType": "address",
          "name": "token",
          "type": "address"
        },
        {
          "internalType": "address",
          "name": "operator",
          "type": "address"
        },
        {
          "internalType": "bool",
          "name": "approved",
          "type": "bool"
        }
      ],
      "name": "setApprovalForAllPublic",
      "outputs": [
        {
          "internalType": "int256",
          "name": "responseCode",
          "type": "int256"
        }
      ],
      "stateMutability": "nonpayable",
      "type": "function"
    },
    {
      "inputs": [
        {
          "internalType": "address",
          "name": "token",
          "type": "address"
        },
        {
          "internalType": "address",
          "name": "from",
          "type": "address"
        },
        {
          "internalType": "address",
          "name": "to",
          "type": "address"
        },
        {
          "internalType": "uint256",
          "name": "amount",
          "type": "uint256"
        }
      ],
      "name": "transferFrom",
      "outputs": [
        {
          "internalType": "int64",
          "name": "responseCode",
          "type": "int64"
        }
      ],
      "stateMutability": "nonpayable",
      "type": "function"
    },
    {
      "inputs": [
        {
          "internalType": "address",
          "name": "token",
          "type": "address"
        },
        {
          "internalType": "address",
          "name": "from",
          "type": "address"
        },
        {
          "internalType": "address",
          "name": "to",
          "type": "address"
        },
        {
          "internalType": "uint256",
          "name": "serialNumber",
          "type": "uint256"
        }
      ],
      "name": "transferFromNFT",
      "outputs": [
        {
          "internalType": "int64",
          "name": "responseCode",
          "type": "int64"
        }
      ],
      "stateMutability": "nonpayable",
      "type": "function"
    },
    {
      "inputs": [
        {
          "internalType": "address",
          "name": "token",
          "type": "address"
        },
        {
          "internalType": "address",
          "name": "account",
          "type": "address"
        }
      ],
      "name": "unfreezeTokenPublic",
      "outputs": [
        {
          "internalType": "int256",
          "name": "responseCode",
          "type": "int256"
        }
      ],
      "stateMutability": "nonpayable",
      "type": "function"
    },
    {
      "inputs": [
        {
          "internalType": "address",
          "name": "token",
          "type": "address"
        }
      ],
      "name": "unpauseTokenPublic",
      "outputs": [
        {
          "internalType": "int256",
          "name": "responseCode",
          "type": "int256"
        }
      ],
      "stateMutability": "nonpayable",
      "type": "function"
    },
    {
      "inputs": [
        {
          "internalType": "address",
          "name": "token",
          "type": "address"
        },
        {
          "components": [
            {
              "internalType": "int64",
              "name": "second",
              "type": "int64"
            },
            {
              "internalType": "address",
              "name": "autoRenewAccount",
              "type": "address"
            },
            {
              "internalType": "int64",
              "name": "autoRenewPeriod",
              "type": "int64"
            }
          ],
          "internalType": "struct IHederaTokenService.Expiry",
          "name": "expiryInfo",
          "type": "tuple"
        }
      ],
      "name": "updateTokenExpiryInfoPublic",
      "outputs": [
        {
          "internalType": "int256",
          "name": "responseCode",
          "type": "int256"
        }
      ],
      "stateMutability": "nonpayable",
      "type": "function"
    },
    {
      "inputs": [
        {
          "internalType": "address",
          "name": "token",
          "type": "address"
        },
        {
          "components": [
            {
              "internalType": "string",
              "name": "name",
              "type": "string"
            },
            {
              "internalType": "string",
              "name": "symbol",
              "type": "string"
            },
            {
              "internalType": "address",
              "name": "treasury",
              "type": "address"
            },
            {
              "internalType": "string",
              "name": "memo",
              "type": "string"
            },
            {
              "internalType": "bool",
              "name": "tokenSupplyType",
              "type": "bool"
            },
            {
              "internalType": "int64",
              "name": "maxSupply",
              "type": "int64"
            },
            {
              "internalType": "bool",
              "name": "freezeDefault",
              "type": "bool"
            },
            {
              "components": [
                {
                  "internalType": "uint256",
                  "name": "keyType",
                  "type": "uint256"
                },
                {
                  "components": [
                    {
                      "internalType": "bool",
                      "name": "inheritAccountKey",
                      "type": "bool"
                    },
                    {
                      "internalType": "address",
                      "name": "contractId",
                      "type": "address"
                    },
                    {
                      "internalType": "bytes",
                      "name": "ed25519",
                      "type": "bytes"
                    },
                    {
                      "internalType": "bytes",
                      "name": "ECDSA_secp256k1",
                      "type": "bytes"
                    },
                    {
                      "internalType": "address",
                      "name": "delegatableContractId",
                      "type": "address"
                    }
                  ],
                  "internalType": "struct IHederaTokenService.KeyValue",
                  "name": "key",
                  "type": "tuple"
                }
              ],
              "internalType": "struct IHederaTokenService.TokenKey[]",
              "name": "tokenKeys",
              "type": "tuple[]"
            },
            {
              "components": [
                {
                  "internalType": "int64",
                  "name": "second",
                  "type": "int64"
                },
                {
                  "internalType": "address",
                  "name": "autoRenewAccount",
                  "type": "address"
                },
                {
                  "internalType": "int64",
                  "name": "autoRenewPeriod",
                  "type": "int64"
                }
              ],
              "internalType": "struct IHederaTokenService.Expiry",
              "name": "expiry",
              "type": "tuple"
            }
          ],
          "internalType": "struct IHederaTokenService.HederaToken",
          "name": "tokenInfo",
          "type": "tuple"
        }
      ],
      "name": "updateTokenInfoPublic",
      "outputs": [
        {
          "internalType": "int256",
          "name": "responseCode",
          "type": "int256"
        }
      ],
      "stateMutability": "nonpayable",
      "type": "function"
    },
    {
      "inputs": [
        {
          "internalType": "address",
          "name": "token",
          "type": "address"
        },
        {
          "components": [
            {
              "internalType": "uint256",
              "name": "keyType",
              "type": "uint256"
            },
            {
              "components": [
                {
                  "internalType": "bool",
                  "name": "inheritAccountKey",
                  "type": "bool"
                },
                {
                  "internalType": "address",
                  "name": "contractId",
                  "type": "address"
                },
                {
                  "internalType": "bytes",
                  "name": "ed25519",
                  "type": "bytes"
                },
                {
                  "internalType": "bytes",
                  "name": "ECDSA_secp256k1",
                  "type": "bytes"
                },
                {
                  "internalType": "address",
                  "name": "delegatableContractId",
                  "type": "address"
                }
              ],
              "internalType": "struct IHederaTokenService.KeyValue",
              "name": "key",
              "type": "tuple"
            }
          ],
          "internalType": "struct IHederaTokenService.TokenKey[]",
          "name": "keys",
          "type": "tuple[]"
        }
      ],
      "name": "updateTokenKeysPublic",
      "outputs": [
        {
          "internalType": "int64",
          "name": "responseCode",
          "type": "int64"
        }
      ],
      "stateMutability": "nonpayable",
      "type": "function"
    },
    {
      "inputs": [
        {
          "internalType": "address",
          "name": "token",
          "type": "address"
        },
        {
          "internalType": "address",
          "name": "account",
          "type": "address"
        },
        {
          "internalType": "int64[]",
          "name": "serialNumbers",
          "type": "int64[]"
        }
      ],
      "name": "wipeTokenAccountNFTPublic",
      "outputs": [
        {
          "internalType": "int256",
          "name": "responseCode",
          "type": "int256"
        }
      ],
      "stateMutability": "nonpayable",
      "type": "function"
    },
    {
      "inputs": [
        {
          "internalType": "address",
          "name": "token",
          "type": "address"
        },
        {
          "internalType": "address",
          "name": "account",
          "type": "address"
        },
        {
          "internalType": "int64",
          "name": "amount",
          "type": "int64"
        }
      ],
      "name": "wipeTokenAccountPublic",
      "outputs": [
        {
          "internalType": "int256",
          "name": "responseCode",
          "type": "int256"
        }
      ],
      "stateMutability": "nonpayable",
      "type": "function"
    }
  ],
  "bytecode": "0x608060405234801561001057600080fd5b50600160208181527fa6eef7e35abe7026729641147f7915573c7e97b47efa546f5f6e3230263bcb499190915560027fcc69885fda6bcc1a4ace058b4a62bf5e179ea78fd58a1ccd71c22cc9b688792f5560047fd9d16d34ffb15ba3a3d852f0d403e2ce1d691fb54de27ac87cd2f993f3ec330f5560087f7dfe757ecd65cbd7922a9c0161e935dd7fdbcc0e999689c7d31633896b1fc60b5560107fedc95719e9a3b28dd8e80877cb5880a9be7de1a13fc8b05e7999683b6b567643557fe2689cd4a84e23ad2f564004f1c9013e9589d260bde6380aba3ca7e09e4df40c55600660005260407f8f331abe73332f95a25873e8b430885974c0409691f89d643119a11623a7924a55611eca806101276000396000f3fe608060405234801561001057600080fd5b50600436106101b75760003560e01c80637d3e5da8116100f9578063eac6f3fe11610097578063f52177ee11610071578063f52177ee14610397578063f7be3425146103c2578063f848fec4146103d5578063fad0038a146103e857600080fd5b8063eac6f3fe1461035e578063ee13b27914610371578063f25b12001461038457600080fd5b8063a345f7bd116100d3578063a345f7bd14610312578063b26d33cb14610325578063ba4cd46914610338578063df6c06f51461034b57600080fd5b80637d3e5da8146102d9578063815228c0146102ec5780639b23d3d9146102ff57600080fd5b80632b256ec8116101665780632eecbca3116101405780632eecbca31461028d57806336348de3146102a05780634d8f27c9146102b357806356af8403146102c657600080fd5b80632b256ec8146102545780632c5c3a48146102675780632d73bb2e1461027a57600080fd5b806311e1fc071161019757806311e1fc071461021b57806315dacbea1461022e5780632abf6c551461024157600080fd5b8062d8d04b146101bc578062ed61f8146101e7578063106360d614610208575b600080fd5b6101cf6101ca3660046114f9565b6103fb565b60405160079190910b81526020015b60405180910390f35b6101fa6101f5366004611547565b610446565b6040519081526020016101de565b6101fa61021636600461157a565b61048b565b6101cf610229366004611595565b610506565b6101cf61023c366004611595565b6105f8565b6101fa61024f3660046115e0565b6106b4565b6101fa61026236600461157a565b6106e1565b6101fa610275366004611547565b610753565b6101fa610288366004611547565b61075f565b6101cf61029b366004611547565b61076b565b6101fa6102ae36600461171c565b610777565b6101cf6102c13660046114f9565b610783565b6101fa6102d43660046118c6565b61078f565b6101fa6102e7366004611547565b6107d9565b6101fa6102fa366004611924565b6107e5565b6101cf61030d366004611595565b6107f1565b6101fa61032036600461157a565b610836565b6101fa610333366004611547565b61087c565b6101fa61034636600461157a565b610888565b6101fa61035936600461194f565b610893565b6101cf61036c366004611595565b6108a0565b6101fa61037f36600461198b565b6108e5565b6101fa6103923660046119d2565b6108f2565b6103aa6103a5366004611a15565b6108ff565b6040805192835260079190910b6020830152016101de565b6101fa6103d036600461157a565b610948565b6101fa6103e336600461194f565b610953565b6101fa6103f636600461198b565b610960565b6000610407838361096d565b604051600782900b8152909150600080516020611e758339815191529060200160405180910390a1600781900b60161461044057600080fd5b92915050565b60006104528383610a48565b60070b9050600080516020611e758339815191528160405161047691815260200190565b60405180910390a16016811461044057600080fd5b600061049682610a7e565b9050600080516020611e75833981519152816040516104b791815260200190565b60405180910390a1601681146104cc57600080fd5b604051600181527f319ab7084208e4afa38c6e6ff7aea9587439f2e4700746f4c7d425fea17426d2906020015b60405180910390a1919050565b6040516001600160a01b038581166024830152848116604483015283166064820152608481018290526000908190819061016790639b23d3d960e01b9060a4015b60408051601f198184030181529181526020820180516001600160e01b03166001600160e01b03199094169390931790925290516105859190611a73565b600060405180830381855af49150503d80600081146105c0576040519150601f19603f3d011682016040523d82523d6000602084013e6105c5565b606091505b5091509150816105d65760156105ea565b808060200190518101906105ea9190611aa1565b60030b979650505050505050565b6040516001600160a01b038581166024830152848116604483015283166064820152608481018290526000908190819061016790630aed65f560e11b9060a4015b60408051601f198184030181529181526020820180516001600160e01b03166001600160e01b03199094169390931790925290516106779190611a73565b6000604051808303816000865af19150503d80600081146105c0576040519150601f19603f3d011682016040523d82523d6000602084013e6105c5565b60006106c08383610b56565b9050600080516020611e758339815191528160405161047691815260200190565b60006106ec82610bfd565b9050600080516020611e758339815191528160405161070d91815260200190565b60405180910390a16016811461072257600080fd5b604051600181527f0c9c765845f4d139956bb8fc8decb2eec6093c9c608b809641b16054b29f0e13906020016104f9565b60006104528383610ca2565b60006104528383610cd8565b60006104078383610d0e565b60006106c08383610d44565b60006104078383610d70565b600061079c848484610d9c565b9050600080516020611e75833981519152816040516107bd91815260200190565b60405180910390a1601681146107d257600080fd5b9392505050565b60006104528383610e7c565b60006106c08383610eb2565b6040516001600160a01b038581166024830152848116604483015283166064820152608481018290526000908190819061016790639b23d3d960e01b9060a401610639565b600061084182610ede565b9050600080516020611e758339815191528160405161086291815260200190565b60405180910390a16016811461087757600080fd5b919050565b60006106c08383610f0c565b60006106ec82610f42565b600061079c848484610f70565b6040516001600160a01b038581166024830152848116604483015283166064820152608481018290526000908190819061016790630aed65f560e11b9060a401610547565b600061079c848484610fad565b600061079c848484611053565b60008061090d858585611091565b6040518281529193509150600080516020611e758339815191529060200160405180910390a16016821461094057600080fd5b935093915050565b60006104968261117a565b600061079c8484846111a8565b600061079c8484846111e5565b60008060006101676001600160a01b0316636fc3cbaf60e01b8686604051602401610999929190611bac565b60408051601f198184030181529181526020820180516001600160e01b03166001600160e01b03199094169390931790925290516109d79190611a73565b600060405180830381855af49150503d8060008114610a12576040519150601f19603f3d011682016040523d82523d6000602084013e610a17565b606091505b509150915081610a28576015610a3c565b80806020019051810190610a3c9190611aa1565b60030b95945050505050565b6040516001600160a01b0383811660248301528216604482015260009081908190610167906352f9138760e01b90606401610999565b6040516001600160a01b03821660248201526000908190819061016790633b3bff0f60e01b906044015b60408051601f198184030181529181526020820180516001600160e01b03166001600160e01b0319909416939093179092529051610ae69190611a73565b600060405180830381855af49150503d8060008114610b21576040519150601f19603f3d011682016040523d82523d6000602084013e610b26565b606091505b509150915081610b37576015610b4b565b80806020019051810190610b4b9190611aa1565b60030b949350505050565b60008060006101676001600160a01b03166378b6391860e01b8686604051602401610b82929190611bd6565b60408051601f198184030181529181526020820180516001600160e01b03166001600160e01b0319909416939093179092529051610bc09190611a73565b6000604051808303816000865af19150503d8060008114610a12576040519150601f19603f3d011682016040523d82523d6000602084013e610a17565b6040516001600160a01b03821660248201526000908190819061016790631f106b4b60e21b906044015b60408051601f198184030181529181526020820180516001600160e01b03166001600160e01b0319909416939093179092529051610c659190611a73565b6000604051808303816000865af19150503d8060008114610b21576040519150601f19603f3d011682016040523d82523d6000602084013e610b26565b6040516001600160a01b0383811660248301528216604482015260009081908190610167906316e3e16160e21b90606401610999565b6040516001600160a01b0383811660248301528216604482015260009081908190610167906352f9138760e01b90606401610b82565b6040516001600160a01b03838116602483015282166044820152600090819081906101679063af99c63360e01b90606401610b82565b60008060006101676001600160a01b0316637d305cfa60e01b8686604051602401610b82929190611c31565b60008060006101676001600160a01b0316636fc3cbaf60e01b8686604051602401610b82929190611bac565b60008060006101676001600160a01b031663f7f38e2660e01b878787604051602401610dca93929190611d9a565b60408051601f198184030181529181526020820180516001600160e01b03166001600160e01b0319909416939093179092529051610e089190611a73565b6000604051808303816000865af19150503d8060008114610e45576040519150601f19603f3d011682016040523d82523d6000602084013e610e4a565b606091505b509150915081610e5b576015610e6f565b80806020019051810190610e6f9190611aa1565b60030b9695505050505050565b6040516001600160a01b0383811660248301528216604482015260009081908190610167906316e3e16160e21b90606401610b82565b60008060006101676001600160a01b031663d27be6cd60e01b8686604051602401610b82929190611dcf565b6040516001600160a01b03821660248201526000908190819061016790637834fb8960e11b90604401610c27565b6040516001600160a01b038381166024830152821660448201526000908190819061016790630132f29d60e31b90606401610b82565b6040516001600160a01b03821660248201526000908190819061016790631f106b4b60e21b90604401610aa8565b6040516001600160a01b038481166024830152831660448201526064810182905260009081908190610167906307336aaf60e41b90608401610dca565b604080516001600160a01b03858116602483015284166044820152600783900b60648083019190915282518083039091018152608490910182526020810180516001600160e01b031663efef57f960e01b179052905160009182918291610167916110189190611a73565b600060405180830381855af49150503d8060008114610e45576040519150601f19603f3d011682016040523d82523d6000602084013e610e4a565b6040516001600160a01b0384811660248301528316604482015281151560648201526000908190819061016790631b3b02e560e11b90608401610dca565b6000806000806101676001600160a01b031663d6910d0660e01b8888886040516024016110c093929190611e12565b60408051601f198184030181529181526020820180516001600160e01b03166001600160e01b03199094169390931790925290516110fe9190611a73565b6000604051808303816000865af19150503d806000811461113b576040519150601f19603f3d011682016040523d82523d6000602084013e611140565b606091505b5091509150816111535760156000611167565b808060200190518101906111679190611e3d565b60039190910b9890975095505050505050565b6040516001600160a01b03821660248201526000908190819061016790633b3bff0f60e01b90604401610c27565b6040516001600160a01b0384811660248301528316604482015260648101829052600090819081906101679063e1f21c6760e01b90608401610dca565b6040516001600160a01b03848116602483015283166044820152600782900b6064820152600090819081906101679063efef57f960e01b90608401610dca565b80356001600160a01b038116811461087757600080fd5b634e487b7160e01b600052604160045260246000fd5b6040805190810167ffffffffffffffff811182821017156112755761127561123c565b60405290565b60405160a0810167ffffffffffffffff811182821017156112755761127561123c565b604051610120810167ffffffffffffffff811182821017156112755761127561123c565b604051601f8201601f1916810167ffffffffffffffff811182821017156112eb576112eb61123c565b604052919050565b600067ffffffffffffffff82111561130d5761130d61123c565b5060051b60200190565b8035801515811461087757600080fd5b600082601f83011261133857600080fd5b813567ffffffffffffffff8111156113525761135261123c565b611365601f8201601f19166020016112c2565b81815284602083860101111561137a57600080fd5b816020850160208301376000918101602001919091529392505050565b600082601f8301126113a857600080fd5b813560206113bd6113b8836112f3565b6112c2565b82815260059290921b840181019181810190868411156113dc57600080fd5b8286015b848110156114ee57803567ffffffffffffffff8082111561140057600080fd5b908801906040601f19838c03810182131561141a57600080fd5b611422611252565b888501358152828501358481111561143957600080fd5b949094019360a0858e03830112156114515760008081fd5b61145961127b565b9150611466898601611317565b8252611473838601611225565b898301526060808601358581111561148b5760008081fd5b6114998f8c838a0101611327565b85850152506080935083860135858111156114b45760008081fd5b6114c28f8c838a0101611327565b8285015250506114d460a08601611225565b9282019290925281880152855250509183019183016113e0565b509695505050505050565b6000806040838503121561150c57600080fd5b61151583611225565b9150602083013567ffffffffffffffff81111561153157600080fd5b61153d85828601611397565b9150509250929050565b6000806040838503121561155a57600080fd5b61156383611225565b915061157160208401611225565b90509250929050565b60006020828403121561158c57600080fd5b6107d282611225565b600080600080608085870312156115ab57600080fd5b6115b485611225565b93506115c260208601611225565b92506115d060408601611225565b9396929550929360600135925050565b600080604083850312156115f357600080fd5b6115fc83611225565b915060208084013567ffffffffffffffff81111561161957600080fd5b8401601f8101861361162a57600080fd5b80356116386113b8826112f3565b81815260059190911b8201830190838101908883111561165757600080fd5b928401925b8284101561167c5761166d84611225565b8252928401929084019061165c565b80955050505050509250929050565b8060070b811461169a57600080fd5b50565b80356108778161168b565b6000606082840312156116ba57600080fd5b6040516060810181811067ffffffffffffffff821117156116dd576116dd61123c565b60405290508082356116ee8161168b565b81526116fc60208401611225565b6020820152604083013561170f8161168b565b6040919091015292915050565b6000806040838503121561172f57600080fd5b61173883611225565b9150602083013567ffffffffffffffff8082111561175557600080fd5b90840190610160828703121561176a57600080fd5b61177261129e565b82358281111561178157600080fd5b61178d88828601611327565b8252506020830135828111156117a257600080fd5b6117ae88828601611327565b6020830152506117c060408401611225565b60408201526060830135828111156117d757600080fd5b6117e388828601611327565b6060830152506117f560808401611317565b608082015261180660a0840161169d565b60a082015261181760c08401611317565b60c082015260e08301358281111561182e57600080fd5b61183a88828601611397565b60e0830152506101009150611851878385016116a8565b828201528093505050509250929050565b600082601f83011261187357600080fd5b813560206118836113b8836112f3565b82815260059290921b840181019181810190868411156118a257600080fd5b8286015b848110156114ee5780356118b98161168b565b83529183019183016118a6565b6000806000606084860312156118db57600080fd5b6118e484611225565b92506118f260208501611225565b9150604084013567ffffffffffffffff81111561190e57600080fd5b61191a86828701611862565b9150509250925092565b6000806080838503121561193757600080fd5b61194083611225565b915061157184602085016116a8565b60008060006060848603121561196457600080fd5b61196d84611225565b925061197b60208501611225565b9150604084013590509250925092565b6000806000606084860312156119a057600080fd5b6119a984611225565b92506119b760208501611225565b915060408401356119c78161168b565b809150509250925092565b6000806000606084860312156119e757600080fd5b6119f084611225565b92506119fe60208501611225565b9150611a0c60408501611317565b90509250925092565b600080600060608486031215611a2a57600080fd5b611a3384611225565b925060208401356118f28161168b565b60005b83811015611a5e578181015183820152602001611a46565b83811115611a6d576000848401525b50505050565b60008251611a85818460208701611a43565b9190910192915050565b8051600381900b811461087757600080fd5b600060208284031215611ab357600080fd5b6107d282611a8f565b60008151808452611ad4816020860160208601611a43565b601f01601f19169290920160200192915050565b600081518084526020808501808196508360051b8101915082860160005b85811015611b9f5782840389528151604081518652868201519150808787015281511515818701528682015160606001600160a01b03808316828a015283850151935060a09250608083818b0152611b6160e08b0186611abc565b928601518a8403603f1901858c0152929450611b7d8584611abc565b9501511660c09890980197909752505098850198935090840190600101611b06565b5091979650505050505050565b6001600160a01b0383168152604060208201526000611bce6040830184611ae8565b949350505050565b6000604082016001600160a01b0380861684526020604081860152828651808552606087019150828801945060005b81811015611c23578551851683529483019491830191600101611c05565b509098975050505050505050565b6001600160a01b038316815260406020820152600082516101606040840152611c5e6101a0840182611abc565b90506020840151603f1980858403016060860152611c7c8383611abc565b925060408601519150611c9a60808601836001600160a01b03169052565b60608601519150808584030160a0860152611cb58383611abc565b925060808601519150611ccc60c086018315159052565b60a08601519150611ce260e086018360070b9052565b60c08601519150610100611cf98187018415159052565b60e087015192508186850301610120870152611d158484611ae8565b908701518051600790810b61014089015260208201516001600160a01b03166101608901526040820151900b6101808801529093509150611d539050565b50949350505050565b600081518084526020808501945080840160005b83811015611d8f57815160070b87529582019590820190600101611d70565b509495945050505050565b60006001600160a01b03808616835280851660208401525060606040830152611dc66060830184611d5c565b95945050505050565b6001600160a01b0383168152608081016107d26020830184805160070b82526001600160a01b036020820151166020830152604081015160070b60408301525050565b6001600160a01b03841681528260070b6020820152606060408201526000611dc66060830184611d5c565b60008060408385031215611e5057600080fd5b611e5983611a8f565b91506020830151611e698161168b565b80915050925092905056fe90a5cf4cffe88b4edbb041cfc7a8a812c48a5ec30b84640fb37690875168e3aaa2646970667358221220a9b2eaba49cf7da522f0d899562dc61e6ea3d801b94db2016287a45ffc7ed96a64736f6c63430008090033",
  "linkReferences": {},
  "deployedLinkReferences": {}
}