{
  "_format": "hh-sol-artifact-1",
  "contractName": "TokenManagementContract",
  "sourceName": "contracts/hts-precompile/examples/token-manage/TokenManagementContract.sol",
  "abi": [
    {
      "anonymous": false,
      "inputs": [
        {
          "indexed": false,
          "internalType": "bool",
          "name": "paused",
          "type": "bool"
        }
      ],
      "name": "PausedToken",
      "type": "event"
    },
    {
      "anonymous": false,
      "inputs": [
        {
          "indexed": false,
          "internalType": "int256",
          "name": "responseCode",
          "type": "int256"
        }
      ],
      "name": "ResponseCode",
      "type": "event"
    },
    {
      "anonymous": false,
      "inputs": [
        {
          "indexed": false,
          "internalType": "bool",
          "name": "unpaused",
          "type": "bool"
        }
      ],
      "name": "UnpausedToken",
      "type": "event"
    },
    {
      "inputs": [
        {
          "internalType": "address",
          "name": "token",
          "type": "address"
        },
        {
          "internalType": "address",
          "name": "approved",
          "type": "address"
        },
        {
          "internalType": "uint256",
          "name": "serialNumber",
          "type": "uint256"
        }
      ],
      "name": "approveNFTPublic",
      "outputs": [
        {
          "internalType": "int256",
          "name": "responseCode",
          "type": "int256"
        }
      ],
      "stateMutability": "nonpayable",
      "type": "function"
    },
    {
      "inputs": [
        {
          "internalType": "address",
          "name": "token",
          "type": "address"
        },
        {
          "internalType": "address",
          "name": "spender",
          "type": "address"
        },
        {
          "internalType": "uint256",
          "name": "amount",
          "type": "uint256"
        }
      ],
      "name": "approvePublic",
      "outputs": [
        {
          "internalType": "int256",
          "name": "responseCode",
          "type": "int256"
        }
      ],
      "stateMutability": "nonpayable",
      "type": "function"
    },
    {
      "inputs": [
        {
          "internalType": "address",
          "name": "token",
          "type": "address"
        },
        {
          "internalType": "uint64",
          "name": "amount",
          "type": "uint64"
        },
        {
          "internalType": "int64[]",
          "name": "serialNumbers",
          "type": "int64[]"
        }
      ],
      "name": "burnTokenPublic",
      "outputs": [
        {
          "internalType": "int256",
          "name": "responseCode",
          "type": "int256"
        },
        {
          "internalType": "uint64",
          "name": "newTotalSupply",
          "type": "uint64"
        }
      ],
      "stateMutability": "nonpayable",
      "type": "function"
    },
    {
      "inputs": [
        {
          "internalType": "address",
          "name": "token",
          "type": "address"
        },
        {
          "internalType": "address",
          "name": "from",
          "type": "address"
        },
        {
          "internalType": "address",
          "name": "to",
          "type": "address"
        },
        {
          "internalType": "uint256",
          "name": "amount",
          "type": "uint256"
        }
      ],
      "name": "delegateTransferFrom",
      "outputs": [
        {
          "internalType": "int64",
          "name": "responseCode",
          "type": "int64"
        }
      ],
      "stateMutability": "nonpayable",
      "type": "function"
    },
    {
      "inputs": [
        {
          "internalType": "address",
          "name": "token",
          "type": "address"
        },
        {
          "internalType": "address",
          "name": "from",
          "type": "address"
        },
        {
          "internalType": "address",
          "name": "to",
          "type": "address"
        },
        {
          "internalType": "uint256",
          "name": "serialNumber",
          "type": "uint256"
        }
      ],
      "name": "delegateTransferFromNFT",
      "outputs": [
        {
          "internalType": "int64",
          "name": "responseCode",
          "type": "int64"
        }
      ],
      "stateMutability": "nonpayable",
      "type": "function"
    },
    {
      "inputs": [
        {
          "internalType": "address",
          "name": "token",
          "type": "address"
        }
      ],
      "name": "deleteTokenPublic",
      "outputs": [
        {
          "internalType": "int256",
          "name": "responseCode",
          "type": "int256"
        }
      ],
      "stateMutability": "nonpayable",
      "type": "function"
    },
    {
      "inputs": [
        {
          "internalType": "address",
          "name": "account",
          "type": "address"
        },
        {
          "internalType": "address",
          "name": "token",
          "type": "address"
        }
      ],
      "name": "dissociateTokenPublic",
      "outputs": [
        {
          "internalType": "int256",
          "name": "responseCode",
          "type": "int256"
        }
      ],
      "stateMutability": "nonpayable",
      "type": "function"
    },
    {
      "inputs": [
        {
          "internalType": "address",
          "name": "account",
          "type": "address"
        },
        {
          "internalType": "address[]",
          "name": "tokens",
          "type": "address[]"
        }
      ],
      "name": "dissociateTokensPublic",
      "outputs": [
        {
          "internalType": "int256",
          "name": "responseCode",
          "type": "int256"
        }
      ],
      "stateMutability": "nonpayable",
      "type": "function"
    },
    {
      "inputs": [
        {
          "internalType": "address",
          "name": "token",
          "type": "address"
        },
        {
          "internalType": "address",
          "name": "account",
          "type": "address"
        }
      ],
      "name": "freezeTokenPublic",
      "outputs": [
        {
          "internalType": "int256",
          "name": "responseCode",
          "type": "int256"
        }
      ],
      "stateMutability": "nonpayable",
      "type": "function"
    },
    {
      "inputs": [
        {
          "internalType": "address",
          "name": "token",
          "type": "address"
        }
      ],
      "name": "pauseTokenPublic",
      "outputs": [
        {
          "internalType": "int256",
          "name": "responseCode",
          "type": "int256"
        }
      ],
      "stateMutability": "nonpayable",
      "type": "function"
    },
    {
      "inputs": [
        {
          "internalType": "address",
          "name": "token",
          "type": "address"
        },
        {
          "internalType": "address",
          "name": "account",
          "type": "address"
        }
      ],
      "name": "revokeTokenKycPublic",
      "outputs": [
        {
          "internalType": "int64",
          "name": "responseCode",
          "type": "int64"
        }
      ],
      "stateMutability": "nonpayable",
      "type": "function"
    },
    {
      "inputs": [
        {
          "internalType": "address",
          "name": "token",
          "type": "address"
        },
        {
          "internalType": "address",
          "name": "operator",
          "type": "address"
        },
        {
          "internalType": "bool",
          "name": "approved",
          "type": "bool"
        }
      ],
      "name": "setApprovalForAllPublic",
      "outputs": [
        {
          "internalType": "int256",
          "name": "responseCode",
          "type": "int256"
        }
      ],
      "stateMutability": "nonpayable",
      "type": "function"
    },
    {
      "inputs": [
        {
          "internalType": "address",
          "name": "token",
          "type": "address"
        },
        {
          "internalType": "address",
          "name": "from",
          "type": "address"
        },
        {
          "internalType": "address",
          "name": "to",
          "type": "address"
        },
        {
          "internalType": "uint256",
          "name": "amount",
          "type": "uint256"
        }
      ],
      "name": "transferFrom",
      "outputs": [
        {
          "internalType": "int64",
          "name": "responseCode",
          "type": "int64"
        }
      ],
      "stateMutability": "nonpayable",
      "type": "function"
    },
    {
      "inputs": [
        {
          "internalType": "address",
          "name": "token",
          "type": "address"
        },
        {
          "internalType": "address",
          "name": "from",
          "type": "address"
        },
        {
          "internalType": "address",
          "name": "to",
          "type": "address"
        },
        {
          "internalType": "uint256",
          "name": "serialNumber",
          "type": "uint256"
        }
      ],
      "name": "transferFromNFT",
      "outputs": [
        {
          "internalType": "int64",
          "name": "responseCode",
          "type": "int64"
        }
      ],
      "stateMutability": "nonpayable",
      "type": "function"
    },
    {
      "inputs": [
        {
          "internalType": "address",
          "name": "token",
          "type": "address"
        },
        {
          "internalType": "address",
          "name": "account",
          "type": "address"
        }
      ],
      "name": "unfreezeTokenPublic",
      "outputs": [
        {
          "internalType": "int256",
          "name": "responseCode",
          "type": "int256"
        }
      ],
      "stateMutability": "nonpayable",
      "type": "function"
    },
    {
      "inputs": [
        {
          "internalType": "address",
          "name": "token",
          "type": "address"
        }
      ],
      "name": "unpauseTokenPublic",
      "outputs": [
        {
          "internalType": "int256",
          "name": "responseCode",
          "type": "int256"
        }
      ],
      "stateMutability": "nonpayable",
      "type": "function"
    },
    {
      "inputs": [
        {
          "internalType": "address",
          "name": "token",
          "type": "address"
        },
        {
          "components": [
            {
              "internalType": "uint32",
              "name": "second",
              "type": "uint32"
            },
            {
              "internalType": "address",
              "name": "autoRenewAccount",
              "type": "address"
            },
            {
              "internalType": "uint32",
              "name": "autoRenewPeriod",
              "type": "uint32"
            }
          ],
          "internalType": "struct IHederaTokenService.Expiry",
          "name": "expiryInfo",
          "type": "tuple"
        }
      ],
      "name": "updateTokenExpiryInfoPublic",
      "outputs": [
        {
          "internalType": "int256",
          "name": "responseCode",
          "type": "int256"
        }
      ],
      "stateMutability": "nonpayable",
      "type": "function"
    },
    {
      "inputs": [
        {
          "internalType": "address",
          "name": "token",
          "type": "address"
        },
        {
          "components": [
            {
              "internalType": "string",
              "name": "name",
              "type": "string"
            },
            {
              "internalType": "string",
              "name": "symbol",
              "type": "string"
            },
            {
              "internalType": "address",
              "name": "treasury",
              "type": "address"
            },
            {
              "internalType": "string",
              "name": "memo",
              "type": "string"
            },
            {
              "internalType": "bool",
              "name": "tokenSupplyType",
              "type": "bool"
            },
            {
              "internalType": "int64",
              "name": "maxSupply",
              "type": "int64"
            },
            {
              "internalType": "bool",
              "name": "freezeDefault",
              "type": "bool"
            },
            {
              "components": [
                {
                  "internalType": "uint256",
                  "name": "keyType",
                  "type": "uint256"
                },
                {
                  "components": [
                    {
                      "internalType": "bool",
                      "name": "inheritAccountKey",
                      "type": "bool"
                    },
                    {
                      "internalType": "address",
                      "name": "contractId",
                      "type": "address"
                    },
                    {
                      "internalType": "bytes",
                      "name": "ed25519",
                      "type": "bytes"
                    },
                    {
                      "internalType": "bytes",
                      "name": "ECDSA_secp256k1",
                      "type": "bytes"
                    },
                    {
                      "internalType": "address",
                      "name": "delegatableContractId",
                      "type": "address"
                    }
                  ],
                  "internalType": "struct IHederaTokenService.KeyValue",
                  "name": "key",
                  "type": "tuple"
                }
              ],
              "internalType": "struct IHederaTokenService.TokenKey[]",
              "name": "tokenKeys",
              "type": "tuple[]"
            },
            {
              "components": [
                {
                  "internalType": "uint32",
                  "name": "second",
                  "type": "uint32"
                },
                {
                  "internalType": "address",
                  "name": "autoRenewAccount",
                  "type": "address"
                },
                {
                  "internalType": "uint32",
                  "name": "autoRenewPeriod",
                  "type": "uint32"
                }
              ],
              "internalType": "struct IHederaTokenService.Expiry",
              "name": "expiry",
              "type": "tuple"
            }
          ],
          "internalType": "struct IHederaTokenService.HederaToken",
          "name": "tokenInfo",
          "type": "tuple"
        }
      ],
      "name": "updateTokenInfoPublic",
      "outputs": [
        {
          "internalType": "int256",
          "name": "responseCode",
          "type": "int256"
        }
      ],
      "stateMutability": "nonpayable",
      "type": "function"
    },
    {
      "inputs": [
        {
          "internalType": "address",
          "name": "token",
          "type": "address"
        },
        {
          "components": [
            {
              "internalType": "uint256",
              "name": "keyType",
              "type": "uint256"
            },
            {
              "components": [
                {
                  "internalType": "bool",
                  "name": "inheritAccountKey",
                  "type": "bool"
                },
                {
                  "internalType": "address",
                  "name": "contractId",
                  "type": "address"
                },
                {
                  "internalType": "bytes",
                  "name": "ed25519",
                  "type": "bytes"
                },
                {
                  "internalType": "bytes",
                  "name": "ECDSA_secp256k1",
                  "type": "bytes"
                },
                {
                  "internalType": "address",
                  "name": "delegatableContractId",
                  "type": "address"
                }
              ],
              "internalType": "struct IHederaTokenService.KeyValue",
              "name": "key",
              "type": "tuple"
            }
          ],
          "internalType": "struct IHederaTokenService.TokenKey[]",
          "name": "keys",
          "type": "tuple[]"
        }
      ],
      "name": "updateTokenKeysPublic",
      "outputs": [
        {
          "internalType": "int64",
          "name": "responseCode",
          "type": "int64"
        }
      ],
      "stateMutability": "nonpayable",
      "type": "function"
    },
    {
      "inputs": [
        {
          "internalType": "address",
          "name": "token",
          "type": "address"
        },
        {
          "internalType": "address",
          "name": "account",
          "type": "address"
        },
        {
          "internalType": "int64[]",
          "name": "serialNumbers",
          "type": "int64[]"
        }
      ],
      "name": "wipeTokenAccountNFTPublic",
      "outputs": [
        {
          "internalType": "int256",
          "name": "responseCode",
          "type": "int256"
        }
      ],
      "stateMutability": "nonpayable",
      "type": "function"
    },
    {
      "inputs": [
        {
          "internalType": "address",
          "name": "token",
          "type": "address"
        },
        {
          "internalType": "address",
          "name": "account",
          "type": "address"
        },
        {
          "internalType": "uint32",
          "name": "amount",
          "type": "uint32"
        }
      ],
      "name": "wipeTokenAccountPublic",
      "outputs": [
        {
          "internalType": "int256",
          "name": "responseCode",
          "type": "int256"
        }
      ],
      "stateMutability": "nonpayable",
      "type": "function"
    }
  ],
  "bytecode": "0x608060405234801561001057600080fd5b50600160208181527fa6eef7e35abe7026729641147f7915573c7e97b47efa546f5f6e3230263bcb499190915560027fcc69885fda6bcc1a4ace058b4a62bf5e179ea78fd58a1ccd71c22cc9b688792f5560047fd9d16d34ffb15ba3a3d852f0d403e2ce1d691fb54de27ac87cd2f993f3ec330f5560087f7dfe757ecd65cbd7922a9c0161e935dd7fdbcc0e999689c7d31633896b1fc60b5560107fedc95719e9a3b28dd8e80877cb5880a9be7de1a13fc8b05e7999683b6b567643557fe2689cd4a84e23ad2f564004f1c9013e9589d260bde6380aba3ca7e09e4df40c55600660005260407f8f331abe73332f95a25873e8b430885974c0409691f89d643119a11623a7924a55611b38806101276000396000f3fe608060405234801561001057600080fd5b50600436106101475760003560e01c80639b23d3d9116100c8578063eac6f3fe1161008c578063f7be342511610066578063f7be3425146102c8578063f848fec4146102db578063fa88f953146102ee57600080fd5b8063eac6f3fe1461028f578063eee55ac8146102a2578063f25b1200146102b557600080fd5b80639b23d3d914610230578063a345f7bd14610243578063b26d33cb14610256578063d92ac24814610269578063df6c06f51461027c57600080fd5b80632eecbca31161010f5780632eecbca3146101d15780632f13d66b146101e45780634d8f27c9146101f757806356af84031461020a5780637d3e5da81461021d57600080fd5b806311e1fc071461014c57806315dacbea146101775780632abf6c551461018a5780632b256ec8146101ab5780632d73bb2e146101be575b600080fd5b61015f61015a366004610e93565b61031f565b60405160079190910b81526020015b60405180910390f35b61015f610185366004610e93565b610411565b61019d610198366004610fb9565b6104cd565b60405190815260200161016e565b61019d6101b9366004611069565b610515565b61019d6101cc366004611084565b610590565b61015f6101df366004611084565b6105c0565b61019d6101f2366004611329565b610605565b61015f61020536600461146f565b610611565b61019d61021836600461151f565b61061d565b61019d61022b366004611084565b610667565b61015f61023e366004610e93565b610673565b61019d610251366004611069565b6106b8565b61019d610264366004611084565b6106fe565b61019d61027736600461157d565b61070a565b61019d61028a3660046115c0565b610717565b61015f61029d366004610e93565b610724565b61019d6102b03660046115fc565b610769565b61019d6102c3366004611627565b610775565b61019d6102d6366004611069565b610782565b61019d6102e93660046115c0565b6107f4565b6103016102fc36600461167a565b610801565b6040805192835267ffffffffffffffff90911660208301520161016e565b6040516001600160a01b038581166024830152848116604483015283166064820152608481018290526000908190819061016790639b23d3d960e01b9060a4015b60408051601f198184030181529181526020820180516001600160e01b03166001600160e01b031990941693909317909252905161039e91906116d8565b600060405180830381855af49150503d80600081146103d9576040519150601f19603f3d011682016040523d82523d6000602084013e6103de565b606091505b5091509150816103ef576015610403565b808060200190518101906104039190611706565b60030b979650505050505050565b6040516001600160a01b038581166024830152848116604483015283166064820152608481018290526000908190819061016790630aed65f560e11b9060a4015b60408051601f198184030181529181526020820180516001600160e01b03166001600160e01b031990941693909317909252905161049091906116d8565b6000604051808303816000865af19150503d80600081146103d9576040519150601f19603f3d011682016040523d82523d6000602084013e6103de565b60006104d9838361084a565b9050600080516020611ae3833981519152816040516104fa91815260200190565b60405180910390a16016811461050f57600080fd5b92915050565b600061052082610927565b9050600080516020611ae38339815191528160405161054191815260200190565b60405180910390a16016811461055657600080fd5b604051600181527f0c9c765845f4d139956bb8fc8decb2eec6093c9c608b809641b16054b29f0e13906020015b60405180910390a1919050565b600061059c8383610a01565b60070b9050600080516020611ae3833981519152816040516104fa91815260200190565b60006105cc8383610a37565b604051600782900b8152909150600080516020611ae38339815191529060200160405180910390a1600781900b60161461050f57600080fd5b60006104d98383610a6d565b60006105cc8383610a99565b600061062a848484610ac5565b9050600080516020611ae38339815191528160405161064b91815260200190565b60405180910390a16016811461066057600080fd5b9392505050565b600061059c8383610ba5565b6040516001600160a01b038581166024830152848116604483015283166064820152608481018290526000908190819061016790639b23d3d960e01b9060a401610452565b60006106c382610bdb565b9050600080516020611ae3833981519152816040516106e491815260200190565b60405180910390a1601681146106f957600080fd5b919050565b60006104d98383610c09565b600061062a848484610c3f565b600061062a848484610c81565b6040516001600160a01b038581166024830152848116604483015283166064820152608481018290526000908190819061016790630aed65f560e11b9060a401610360565b60006104d98383610cbe565b600061062a848484610cea565b600061078d82610d28565b9050600080516020611ae3833981519152816040516107ae91815260200190565b60405180910390a1601681146107c357600080fd5b604051600181527f319ab7084208e4afa38c6e6ff7aea9587439f2e4700746f4c7d425fea17426d290602001610583565b600061062a848484610d56565b60008061080f858585610d93565b6040518281529193509150600080516020611ae38339815191529060200160405180910390a16016821461084257600080fd5b935093915050565b60008060006101676001600160a01b03166378b6391860e01b8686604051602401610876929190611721565b60408051601f198184030181529181526020820180516001600160e01b03166001600160e01b03199094169390931790925290516108b491906116d8565b6000604051808303816000865af19150503d80600081146108f1576040519150601f19603f3d011682016040523d82523d6000602084013e6108f6565b606091505b50915091508161090757601561091b565b8080602001905181019061091b9190611706565b60030b95945050505050565b6040516001600160a01b03821660248201526000908190819061016790631f106b4b60e21b906044015b60408051601f198184030181529181526020820180516001600160e01b03166001600160e01b031990941693909317909252905161098f91906116d8565b6000604051808303816000865af19150503d80600081146109cc576040519150601f19603f3d011682016040523d82523d6000602084013e6109d1565b606091505b5091509150816109e25760156109f6565b808060200190518101906109f69190611706565b60030b949350505050565b6040516001600160a01b0383811660248301528216604482015260009081908190610167906352f9138760e01b90606401610876565b6040516001600160a01b03838116602483015282166044820152600090819081906101679063af99c63360e01b90606401610876565b60008060006101676001600160a01b03166318370d3460e01b868660405160240161087692919061186c565b60008060006101676001600160a01b0316636fc3cbaf60e01b8686604051602401610876929190611999565b60008060006101676001600160a01b031663f7f38e2660e01b878787604051602401610af393929190611a01565b60408051601f198184030181529181526020820180516001600160e01b03166001600160e01b0319909416939093179092529051610b3191906116d8565b6000604051808303816000865af19150503d8060008114610b6e576040519150601f19603f3d011682016040523d82523d6000602084013e610b73565b606091505b509150915081610b84576015610b98565b80806020019051810190610b989190611706565b60030b9695505050505050565b6040516001600160a01b0383811660248301528216604482015260009081908190610167906316e3e16160e21b90606401610876565b6040516001600160a01b03821660248201526000908190819061016790637834fb8960e11b90604401610951565b6040516001600160a01b038381166024830152821660448201526000908190819061016790630132f29d60e31b90606401610876565b6040516001600160a01b0384811660248301528316604482015263ffffffff821660648201526000908190819061016790639790686d60e01b90608401610af3565b6040516001600160a01b038481166024830152831660448201526064810182905260009081908190610167906307336aaf60e41b90608401610af3565b60008060006101676001600160a01b031663593d6e8260e01b8686604051602401610876929190611a36565b6040516001600160a01b0384811660248301528316604482015281151560648201526000908190819061016790631b3b02e560e11b90608401610af3565b6040516001600160a01b03821660248201526000908190819061016790633b3bff0f60e01b90604401610951565b6040516001600160a01b0384811660248301528316604482015260648101829052600090819081906101679063e1f21c6760e01b90608401610af3565b6000806000806101676001600160a01b031663acb9cff960e01b888888604051602401610dc293929190611a79565b60408051601f198184030181529181526020820180516001600160e01b03166001600160e01b0319909416939093179092529051610e0091906116d8565b6000604051808303816000865af19150503d8060008114610e3d576040519150601f19603f3d011682016040523d82523d6000602084013e610e42565b606091505b509150915081610e555760156000610e69565b80806020019051810190610e699190611aab565b60039190910b9890975095505050505050565b80356001600160a01b03811681146106f957600080fd5b60008060008060808587031215610ea957600080fd5b610eb285610e7c565b9350610ec060208601610e7c565b9250610ece60408601610e7c565b9396929550929360600135925050565b634e487b7160e01b600052604160045260246000fd5b6040805190810167ffffffffffffffff81118282101715610f1757610f17610ede565b60405290565b60405160a0810167ffffffffffffffff81118282101715610f1757610f17610ede565b604051610120810167ffffffffffffffff81118282101715610f1757610f17610ede565b604051601f8201601f1916810167ffffffffffffffff81118282101715610f8d57610f8d610ede565b604052919050565b600067ffffffffffffffff821115610faf57610faf610ede565b5060051b60200190565b60008060408385031215610fcc57600080fd5b610fd583610e7c565b915060208084013567ffffffffffffffff811115610ff257600080fd5b8401601f8101861361100357600080fd5b803561101661101182610f95565b610f64565b81815260059190911b8201830190838101908883111561103557600080fd5b928401925b8284101561105a5761104b84610e7c565b8252928401929084019061103a565b80955050505050509250929050565b60006020828403121561107b57600080fd5b61066082610e7c565b6000806040838503121561109757600080fd5b6110a083610e7c565b91506110ae60208401610e7c565b90509250929050565b600082601f8301126110c857600080fd5b813567ffffffffffffffff8111156110e2576110e2610ede565b6110f5601f8201601f1916602001610f64565b81815284602083860101111561110a57600080fd5b816020850160208301376000918101602001919091529392505050565b803580151581146106f957600080fd5b8035600781900b81146106f957600080fd5b600082601f83011261115a57600080fd5b8135602061116a61101183610f95565b82815260059290921b8401810191818101908684111561118957600080fd5b8286015b8481101561129b57803567ffffffffffffffff808211156111ad57600080fd5b908801906040601f19838c0381018213156111c757600080fd5b6111cf610ef4565b88850135815282850135848111156111e657600080fd5b949094019360a0858e03830112156111fe5760008081fd5b611206610f1d565b9150611213898601611127565b8252611220838601610e7c565b89830152606080860135858111156112385760008081fd5b6112468f8c838a01016110b7565b85850152506080935083860135858111156112615760008081fd5b61126f8f8c838a01016110b7565b82850152505061128160a08601610e7c565b92820192909252818801528552505091830191830161118d565b509695505050505050565b803563ffffffff811681146106f957600080fd5b6000606082840312156112cc57600080fd5b6040516060810181811067ffffffffffffffff821117156112ef576112ef610ede565b6040529050806112fe836112a6565b815261130c60208401610e7c565b602082015261131d604084016112a6565b60408201525092915050565b6000806040838503121561133c57600080fd5b61134583610e7c565b9150602083013567ffffffffffffffff8082111561136257600080fd5b90840190610160828703121561137757600080fd5b61137f610f40565b82358281111561138e57600080fd5b61139a888286016110b7565b8252506020830135828111156113af57600080fd5b6113bb888286016110b7565b6020830152506113cd60408401610e7c565b60408201526060830135828111156113e457600080fd5b6113f0888286016110b7565b60608301525061140260808401611127565b608082015261141360a08401611137565b60a082015261142460c08401611127565b60c082015260e08301358281111561143b57600080fd5b61144788828601611149565b60e083015250610100915061145e878385016112ba565b828201528093505050509250929050565b6000806040838503121561148257600080fd5b61148b83610e7c565b9150602083013567ffffffffffffffff8111156114a757600080fd5b6114b385828601611149565b9150509250929050565b600082601f8301126114ce57600080fd5b813560206114de61101183610f95565b82815260059290921b840181019181810190868411156114fd57600080fd5b8286015b8481101561129b5761151281611137565b8352918301918301611501565b60008060006060848603121561153457600080fd5b61153d84610e7c565b925061154b60208501610e7c565b9150604084013567ffffffffffffffff81111561156757600080fd5b611573868287016114bd565b9150509250925092565b60008060006060848603121561159257600080fd5b61159b84610e7c565b92506115a960208501610e7c565b91506115b7604085016112a6565b90509250925092565b6000806000606084860312156115d557600080fd5b6115de84610e7c565b92506115ec60208501610e7c565b9150604084013590509250925092565b6000806080838503121561160f57600080fd5b61161883610e7c565b91506110ae84602085016112ba565b60008060006060848603121561163c57600080fd5b61164584610e7c565b925061165360208501610e7c565b91506115b760408501611127565b67ffffffffffffffff8116811461167757600080fd5b50565b60008060006060848603121561168f57600080fd5b61169884610e7c565b9250602084013561154b81611661565b60005b838110156116c35781810151838201526020016116ab565b838111156116d2576000848401525b50505050565b600082516116ea8184602087016116a8565b9190910192915050565b8051600381900b81146106f957600080fd5b60006020828403121561171857600080fd5b610660826116f4565b6000604082016001600160a01b0380861684526020604081860152828651808552606087019150828801945060005b8181101561176e578551851683529483019491830191600101611750565b509098975050505050505050565b600081518084526117948160208601602086016116a8565b601f01601f19169290920160200192915050565b600081518084526020808501808196508360051b8101915082860160005b8581101561185f5782840389528151604081518652868201519150808787015281511515818701528682015160606001600160a01b03808316828a015283850151935060a09250608083818b015261182160e08b018661177c565b928601518a8403603f1901858c015292945061183d858461177c565b9501511660c098909801979097525050988501989350908401906001016117c6565b5091979650505050505050565b6001600160a01b0383168152604060208201526000825161016060408401526118996101a084018261177c565b90506020840151603f19808584030160608601526118b7838361177c565b9250604086015191506118d560808601836001600160a01b03169052565b60608601519150808584030160a08601526118f0838361177c565b92506080860151915061190760c086018315159052565b60a0860151915061191d60e086018360070b9052565b60c086015191506101006119348187018415159052565b60e08701519250818685030161012087015261195084846117a8565b90870151805163ffffffff90811661014089015260208201516001600160a01b031661016089015260408201511661018088015290935091506119909050565b50949350505050565b6001600160a01b03831681526040602082015260006119bb60408301846117a8565b949350505050565b600081518084526020808501945080840160005b838110156119f657815160070b875295820195908201906001016119d7565b509495945050505050565b60006001600160a01b03808616835280851660208401525060606040830152611a2d60608301846119c3565b95945050505050565b6001600160a01b0383168152608081016106606020830184805163ffffffff90811683526020808301516001600160a01b03169084015260409182015116910152565b6001600160a01b038416815267ffffffffffffffff83166020820152606060408201526000611a2d60608301846119c3565b60008060408385031215611abe57600080fd5b611ac7836116f4565b91506020830151611ad781611661565b80915050925092905056fe90a5cf4cffe88b4edbb041cfc7a8a812c48a5ec30b84640fb37690875168e3aaa264697066735822122087586ca0a7160525c6c431002299aa2c56fdc18821b40b51869244c3195d86bc64736f6c63430008090033",
  "linkReferences": {},
  "deployedLinkReferences": {}
}