{
  "_format": "hh-sol-artifact-1",
  "contractName": "TokenManagementContract",
  "sourceName": "contracts/hts-precompile/examples/token-manage/TokenManagementContract.sol",
  "abi": [
    {
      "anonymous": false,
      "inputs": [
        {
          "indexed": false,
          "internalType": "bool",
          "name": "paused",
          "type": "bool"
        }
      ],
      "name": "PausedToken",
      "type": "event"
    },
    {
      "anonymous": false,
      "inputs": [
        {
          "indexed": false,
          "internalType": "int256",
          "name": "responseCode",
          "type": "int256"
        }
      ],
      "name": "ResponseCode",
      "type": "event"
    },
    {
      "inputs": [
        {
          "internalType": "address",
          "name": "token",
          "type": "address"
        },
        {
          "internalType": "address",
          "name": "approved",
          "type": "address"
        },
        {
          "internalType": "uint256",
          "name": "serialNumber",
          "type": "uint256"
        }
      ],
      "name": "approveNFTPublic",
      "outputs": [
        {
          "internalType": "int256",
          "name": "responseCode",
          "type": "int256"
        }
      ],
      "stateMutability": "nonpayable",
      "type": "function"
    },
    {
      "inputs": [
        {
          "internalType": "address",
          "name": "token",
          "type": "address"
        },
        {
          "internalType": "address",
          "name": "spender",
          "type": "address"
        },
        {
          "internalType": "uint256",
          "name": "amount",
          "type": "uint256"
        }
      ],
      "name": "approvePublic",
      "outputs": [
        {
          "internalType": "int256",
          "name": "responseCode",
          "type": "int256"
        }
      ],
      "stateMutability": "nonpayable",
      "type": "function"
    },
    {
      "inputs": [
        {
          "internalType": "address",
          "name": "token",
          "type": "address"
        },
        {
          "internalType": "uint64",
          "name": "amount",
          "type": "uint64"
        },
        {
          "internalType": "int64[]",
          "name": "serialNumbers",
          "type": "int64[]"
        }
      ],
      "name": "burnTokenPublic",
      "outputs": [
        {
          "internalType": "int256",
          "name": "responseCode",
          "type": "int256"
        },
        {
          "internalType": "uint64",
          "name": "newTotalSupply",
          "type": "uint64"
        }
      ],
      "stateMutability": "nonpayable",
      "type": "function"
    },
    {
      "inputs": [
        {
          "internalType": "address",
          "name": "token",
          "type": "address"
        }
      ],
      "name": "deleteTokenPublic",
      "outputs": [
        {
          "internalType": "int256",
          "name": "responseCode",
          "type": "int256"
        }
      ],
      "stateMutability": "nonpayable",
      "type": "function"
    },
    {
      "inputs": [
        {
          "internalType": "address",
          "name": "account",
          "type": "address"
        },
        {
          "internalType": "address",
          "name": "token",
          "type": "address"
        }
      ],
      "name": "dissociateTokenPublic",
      "outputs": [
        {
          "internalType": "int256",
          "name": "responseCode",
          "type": "int256"
        }
      ],
      "stateMutability": "nonpayable",
      "type": "function"
    },
    {
      "inputs": [
        {
          "internalType": "address",
          "name": "account",
          "type": "address"
        },
        {
          "internalType": "address[]",
          "name": "tokens",
          "type": "address[]"
        }
      ],
      "name": "dissociateTokensPublic",
      "outputs": [
        {
          "internalType": "int256",
          "name": "responseCode",
          "type": "int256"
        }
      ],
      "stateMutability": "nonpayable",
      "type": "function"
    },
    {
      "inputs": [
        {
          "internalType": "address",
          "name": "token",
          "type": "address"
        },
        {
          "internalType": "address",
          "name": "account",
          "type": "address"
        }
      ],
      "name": "freezeTokenPublic",
      "outputs": [
        {
          "internalType": "int256",
          "name": "responseCode",
          "type": "int256"
        }
      ],
      "stateMutability": "nonpayable",
      "type": "function"
    },
    {
      "inputs": [
        {
          "internalType": "address",
          "name": "token",
          "type": "address"
        }
      ],
      "name": "getTokenExpiryInfo",
      "outputs": [
        {
          "internalType": "int256",
          "name": "responseCode",
          "type": "int256"
        },
        {
          "components": [
            {
              "internalType": "uint32",
              "name": "second",
              "type": "uint32"
            },
            {
              "internalType": "address",
              "name": "autoRenewAccount",
              "type": "address"
            },
            {
              "internalType": "uint32",
              "name": "autoRenewPeriod",
              "type": "uint32"
            }
          ],
          "internalType": "struct IHederaTokenService.Expiry",
          "name": "expiryInfo",
          "type": "tuple"
        }
      ],
      "stateMutability": "nonpayable",
      "type": "function"
    },
    {
      "inputs": [
        {
          "internalType": "address",
          "name": "token",
          "type": "address"
        },
        {
          "internalType": "address",
          "name": "account",
          "type": "address"
        }
      ],
      "name": "grantTokenKyc",
      "outputs": [
        {
          "internalType": "int64",
          "name": "responseCode",
          "type": "int64"
        }
      ],
      "stateMutability": "nonpayable",
      "type": "function"
    },
    {
      "inputs": [
        {
          "internalType": "address",
          "name": "token",
          "type": "address"
        },
        {
          "internalType": "address",
          "name": "account",
          "type": "address"
        }
      ],
      "name": "isKyc",
      "outputs": [
        {
          "internalType": "int64",
          "name": "responseCode",
          "type": "int64"
        },
        {
          "internalType": "bool",
          "name": "kycGranted",
          "type": "bool"
        }
      ],
      "stateMutability": "nonpayable",
      "type": "function"
    },
    {
      "inputs": [
        {
          "internalType": "address",
          "name": "token",
          "type": "address"
        }
      ],
      "name": "pauseToken",
      "outputs": [
        {
          "internalType": "int256",
          "name": "responseCode",
          "type": "int256"
        }
      ],
      "stateMutability": "nonpayable",
      "type": "function"
    },
    {
      "inputs": [
        {
          "internalType": "address",
          "name": "token",
          "type": "address"
        }
      ],
      "name": "pauseTokenPublic",
      "outputs": [
        {
          "internalType": "int256",
          "name": "responseCode",
          "type": "int256"
        }
      ],
      "stateMutability": "nonpayable",
      "type": "function"
    },
    {
      "inputs": [
        {
          "internalType": "address",
          "name": "token",
          "type": "address"
        },
        {
          "internalType": "address",
          "name": "account",
          "type": "address"
        }
      ],
      "name": "revokeTokenKyc",
      "outputs": [
        {
          "internalType": "int64",
          "name": "responseCode",
          "type": "int64"
        }
      ],
      "stateMutability": "nonpayable",
      "type": "function"
    },
    {
      "inputs": [
        {
          "internalType": "address",
          "name": "token",
          "type": "address"
        },
        {
          "internalType": "address",
          "name": "account",
          "type": "address"
        }
      ],
      "name": "revokeTokenKycPublic",
      "outputs": [
        {
          "internalType": "int64",
          "name": "responseCode",
          "type": "int64"
        }
      ],
      "stateMutability": "nonpayable",
      "type": "function"
    },
    {
      "inputs": [
        {
          "internalType": "address",
          "name": "token",
          "type": "address"
        },
        {
          "internalType": "address",
          "name": "operator",
          "type": "address"
        },
        {
          "internalType": "bool",
          "name": "approved",
          "type": "bool"
        }
      ],
      "name": "setApprovalForAllPublic",
      "outputs": [
        {
          "internalType": "int256",
          "name": "responseCode",
          "type": "int256"
        }
      ],
      "stateMutability": "nonpayable",
      "type": "function"
    },
    {
      "inputs": [
        {
          "internalType": "address",
          "name": "token",
          "type": "address"
        },
        {
          "internalType": "address",
          "name": "from",
          "type": "address"
        },
        {
          "internalType": "address",
          "name": "to",
          "type": "address"
        },
        {
          "internalType": "uint256",
          "name": "amount",
          "type": "uint256"
        }
      ],
      "name": "transferFrom",
      "outputs": [
        {
          "internalType": "int64",
          "name": "responseCode",
          "type": "int64"
        }
      ],
      "stateMutability": "nonpayable",
      "type": "function"
    },
    {
      "inputs": [
        {
          "internalType": "address",
          "name": "token",
          "type": "address"
        },
        {
          "internalType": "address",
          "name": "from",
          "type": "address"
        },
        {
          "internalType": "address",
          "name": "to",
          "type": "address"
        },
        {
          "internalType": "uint256",
          "name": "serialNumber",
          "type": "uint256"
        }
      ],
      "name": "transferFromNFT",
      "outputs": [
        {
          "internalType": "int64",
          "name": "responseCode",
          "type": "int64"
        }
      ],
      "stateMutability": "nonpayable",
      "type": "function"
    },
    {
      "inputs": [
        {
          "internalType": "address",
          "name": "token",
          "type": "address"
        }
      ],
      "name": "unpauseToken",
      "outputs": [
        {
          "internalType": "int256",
          "name": "responseCode",
          "type": "int256"
        }
      ],
      "stateMutability": "nonpayable",
      "type": "function"
    },
    {
      "inputs": [
        {
          "internalType": "address",
          "name": "token",
          "type": "address"
        },
        {
          "components": [
            {
              "internalType": "uint32",
              "name": "second",
              "type": "uint32"
            },
            {
              "internalType": "address",
              "name": "autoRenewAccount",
              "type": "address"
            },
            {
              "internalType": "uint32",
              "name": "autoRenewPeriod",
              "type": "uint32"
            }
          ],
          "internalType": "struct IHederaTokenService.Expiry",
          "name": "expiryInfo",
          "type": "tuple"
        }
      ],
      "name": "updateTokenExpiryInfo",
      "outputs": [
        {
          "internalType": "int256",
          "name": "responseCode",
          "type": "int256"
        }
      ],
      "stateMutability": "nonpayable",
      "type": "function"
    },
    {
      "inputs": [
        {
          "internalType": "address",
          "name": "token",
          "type": "address"
        },
        {
          "components": [
            {
              "internalType": "uint32",
              "name": "second",
              "type": "uint32"
            },
            {
              "internalType": "address",
              "name": "autoRenewAccount",
              "type": "address"
            },
            {
              "internalType": "uint32",
              "name": "autoRenewPeriod",
              "type": "uint32"
            }
          ],
          "internalType": "struct IHederaTokenService.Expiry",
          "name": "expiryInfo",
          "type": "tuple"
        }
      ],
      "name": "updateTokenExpiryInfoPublic",
      "outputs": [
        {
          "internalType": "int256",
          "name": "responseCode",
          "type": "int256"
        }
      ],
      "stateMutability": "nonpayable",
      "type": "function"
    },
    {
      "inputs": [
        {
          "internalType": "address",
          "name": "token",
          "type": "address"
        },
        {
          "components": [
            {
              "internalType": "string",
              "name": "name",
              "type": "string"
            },
            {
              "internalType": "string",
              "name": "symbol",
              "type": "string"
            },
            {
              "internalType": "address",
              "name": "treasury",
              "type": "address"
            },
            {
              "internalType": "string",
              "name": "memo",
              "type": "string"
            },
            {
              "internalType": "bool",
              "name": "tokenSupplyType",
              "type": "bool"
            },
            {
              "internalType": "int64",
              "name": "maxSupply",
              "type": "int64"
            },
            {
              "internalType": "bool",
              "name": "freezeDefault",
              "type": "bool"
            },
            {
              "components": [
                {
                  "internalType": "uint256",
                  "name": "keyType",
                  "type": "uint256"
                },
                {
                  "components": [
                    {
                      "internalType": "bool",
                      "name": "inheritAccountKey",
                      "type": "bool"
                    },
                    {
                      "internalType": "address",
                      "name": "contractId",
                      "type": "address"
                    },
                    {
                      "internalType": "bytes",
                      "name": "ed25519",
                      "type": "bytes"
                    },
                    {
                      "internalType": "bytes",
                      "name": "ECDSA_secp256k1",
                      "type": "bytes"
                    },
                    {
                      "internalType": "address",
                      "name": "delegatableContractId",
                      "type": "address"
                    }
                  ],
                  "internalType": "struct IHederaTokenService.KeyValue",
                  "name": "key",
                  "type": "tuple"
                }
              ],
              "internalType": "struct IHederaTokenService.TokenKey[]",
              "name": "tokenKeys",
              "type": "tuple[]"
            },
            {
              "components": [
                {
                  "internalType": "uint32",
                  "name": "second",
                  "type": "uint32"
                },
                {
                  "internalType": "address",
                  "name": "autoRenewAccount",
                  "type": "address"
                },
                {
                  "internalType": "uint32",
                  "name": "autoRenewPeriod",
                  "type": "uint32"
                }
              ],
              "internalType": "struct IHederaTokenService.Expiry",
              "name": "expiry",
              "type": "tuple"
            }
          ],
          "internalType": "struct IHederaTokenService.HederaToken",
          "name": "tokenInfo",
          "type": "tuple"
        }
      ],
      "name": "updateTokenInfo",
      "outputs": [
        {
          "internalType": "int256",
          "name": "responseCode",
          "type": "int256"
        }
      ],
      "stateMutability": "nonpayable",
      "type": "function"
    },
    {
      "inputs": [
        {
          "internalType": "address",
          "name": "token",
          "type": "address"
        },
        {
          "components": [
            {
              "internalType": "string",
              "name": "name",
              "type": "string"
            },
            {
              "internalType": "string",
              "name": "symbol",
              "type": "string"
            },
            {
              "internalType": "address",
              "name": "treasury",
              "type": "address"
            },
            {
              "internalType": "string",
              "name": "memo",
              "type": "string"
            },
            {
              "internalType": "bool",
              "name": "tokenSupplyType",
              "type": "bool"
            },
            {
              "internalType": "int64",
              "name": "maxSupply",
              "type": "int64"
            },
            {
              "internalType": "bool",
              "name": "freezeDefault",
              "type": "bool"
            },
            {
              "components": [
                {
                  "internalType": "uint256",
                  "name": "keyType",
                  "type": "uint256"
                },
                {
                  "components": [
                    {
                      "internalType": "bool",
                      "name": "inheritAccountKey",
                      "type": "bool"
                    },
                    {
                      "internalType": "address",
                      "name": "contractId",
                      "type": "address"
                    },
                    {
                      "internalType": "bytes",
                      "name": "ed25519",
                      "type": "bytes"
                    },
                    {
                      "internalType": "bytes",
                      "name": "ECDSA_secp256k1",
                      "type": "bytes"
                    },
                    {
                      "internalType": "address",
                      "name": "delegatableContractId",
                      "type": "address"
                    }
                  ],
                  "internalType": "struct IHederaTokenService.KeyValue",
                  "name": "key",
                  "type": "tuple"
                }
              ],
              "internalType": "struct IHederaTokenService.TokenKey[]",
              "name": "tokenKeys",
              "type": "tuple[]"
            },
            {
              "components": [
                {
                  "internalType": "uint32",
                  "name": "second",
                  "type": "uint32"
                },
                {
                  "internalType": "address",
                  "name": "autoRenewAccount",
                  "type": "address"
                },
                {
                  "internalType": "uint32",
                  "name": "autoRenewPeriod",
                  "type": "uint32"
                }
              ],
              "internalType": "struct IHederaTokenService.Expiry",
              "name": "expiry",
              "type": "tuple"
            }
          ],
          "internalType": "struct IHederaTokenService.HederaToken",
          "name": "tokenInfo",
          "type": "tuple"
        }
      ],
      "name": "updateTokenInfoPublic",
      "outputs": [
        {
          "internalType": "int256",
          "name": "responseCode",
          "type": "int256"
        }
      ],
      "stateMutability": "nonpayable",
      "type": "function"
    },
    {
      "inputs": [
        {
          "internalType": "address",
          "name": "token",
          "type": "address"
        },
        {
          "components": [
            {
              "internalType": "uint256",
              "name": "keyType",
              "type": "uint256"
            },
            {
              "components": [
                {
                  "internalType": "bool",
                  "name": "inheritAccountKey",
                  "type": "bool"
                },
                {
                  "internalType": "address",
                  "name": "contractId",
                  "type": "address"
                },
                {
                  "internalType": "bytes",
                  "name": "ed25519",
                  "type": "bytes"
                },
                {
                  "internalType": "bytes",
                  "name": "ECDSA_secp256k1",
                  "type": "bytes"
                },
                {
                  "internalType": "address",
                  "name": "delegatableContractId",
                  "type": "address"
                }
              ],
              "internalType": "struct IHederaTokenService.KeyValue",
              "name": "key",
              "type": "tuple"
            }
          ],
          "internalType": "struct IHederaTokenService.TokenKey[]",
          "name": "keys",
          "type": "tuple[]"
        }
      ],
      "name": "updateTokenKeysPublic",
      "outputs": [
        {
          "internalType": "int64",
          "name": "responseCode",
          "type": "int64"
        }
      ],
      "stateMutability": "nonpayable",
      "type": "function"
    },
    {
      "inputs": [
        {
          "internalType": "address",
          "name": "token",
          "type": "address"
        },
        {
          "internalType": "address",
          "name": "account",
          "type": "address"
        },
        {
          "internalType": "int64[]",
          "name": "serialNumbers",
          "type": "int64[]"
        }
      ],
      "name": "wipeTokenAccountNFTPublic",
      "outputs": [
        {
          "internalType": "int256",
          "name": "responseCode",
          "type": "int256"
        }
      ],
      "stateMutability": "nonpayable",
      "type": "function"
    },
    {
      "inputs": [
        {
          "internalType": "address",
          "name": "token",
          "type": "address"
        },
        {
          "internalType": "address",
          "name": "account",
          "type": "address"
        },
        {
          "internalType": "uint32",
          "name": "amount",
          "type": "uint32"
        }
      ],
      "name": "wipeTokenAccountPublic",
      "outputs": [
        {
          "internalType": "int256",
          "name": "responseCode",
          "type": "int256"
        }
      ],
      "stateMutability": "nonpayable",
      "type": "function"
    }
  ],
  "bytecode": "0x608060405234801561001057600080fd5b50600160208181527fa6eef7e35abe7026729641147f7915573c7e97b47efa546f5f6e3230263bcb499190915560027fcc69885fda6bcc1a4ace058b4a62bf5e179ea78fd58a1ccd71c22cc9b688792f5560047fd9d16d34ffb15ba3a3d852f0d403e2ce1d691fb54de27ac87cd2f993f3ec330f5560087f7dfe757ecd65cbd7922a9c0161e935dd7fdbcc0e999689c7d31633896b1fc60b5560107fedc95719e9a3b28dd8e80877cb5880a9be7de1a13fc8b05e7999683b6b567643557fe2689cd4a84e23ad2f564004f1c9013e9589d260bde6380aba3ca7e09e4df40c55600660005260407f8f331abe73332f95a25873e8b430885974c0409691f89d643119a11623a7924a55611f3f806101276000396000f3fe608060405234801561001057600080fd5b50600436106101a35760003560e01c80638f8d7f99116100ee578063d92ac24811610097578063f25b120011610071578063f25b12001461036b578063f2c31ff41461037e578063f848fec4146103ab578063fa88f953146103be57600080fd5b8063d92ac24814610332578063df6c06f514610345578063eee55ac81461035857600080fd5b8063af99c633116100c8578063af99c633146102eb578063b26d33cb146102fe578063d614cdb81461031157600080fd5b80638f8d7f99146102b25780639b23d3d9146102c5578063a345f7bd146102d857600080fd5b80633b3bff0f11610150578063593d6e821161012a578063593d6e82146102795780637c41ad2c1461028c5780637d3e5da81461029f57600080fd5b80633b3bff0f146102405780634d8f27c91461025357806356af84031461026657600080fd5b80632b256ec8116101815780632b256ec8146102075780632eecbca31461021a5780632f13d66b1461022d57600080fd5b806315dacbea146101a857806318370d34146101d35780632abf6c55146101f4575b600080fd5b6101bb6101b6366004611139565b6103ef565b60405160079190910b81526020015b60405180910390f35b6101e66101e13660046114f8565b6104e3565b6040519081526020016101ca565b6101e6610202366004611640565b6105c0565b6101e66102153660046116ef565b610608565b6101bb61022836600461170c565b6106f3565b6101e661023b3660046114f8565b6107b0565b6101e661024e3660046116ef565b61082a565b6101bb610261366004611745565b610904565b6101e66102743660046117f9565b610910565b6101e661028736600461185b565b61095a565b6101e661029a3660046116ef565b610986565b6101e66102ad36600461170c565b6109b4565b6101bb6102c036600461170c565b6109e4565b6101bb6102d3366004611139565b610a1a565b6101e66102e63660046116ef565b610a5f565b6101bb6102f936600461170c565b610aa5565b6101e661030c36600461170c565b610adb565b61032461031f3660046116ef565b610ae7565b6040516101ca929190611891565b6101e66103403660046118cb565b610bf1565b6101e6610353366004611916565b610bfe565b6101e661036636600461185b565b610c0b565b6101e6610379366004611957565b610c33565b61039161038c36600461170c565b610c40565b6040805160079390930b83529015156020830152016101ca565b6101e66103b9366004611916565b610d0b565b6103d16103cc3660046119ad565b610d18565b6040805192835267ffffffffffffffff9091166020830152016101ca565b6040516001600160a01b038581166024830152848116604483015283166064820152608481018290526000908190819061016790630aed65f560e11b9060a4015b60408051601f198184030181529181526020820180516001600160e01b03166001600160e01b031990941693909317909252905161046e9190611a0d565b6000604051808303816000865af19150503d80600081146104ab576040519150601f19603f3d011682016040523d82523d6000602084013e6104b0565b606091505b5091509150816104c15760156104d5565b808060200190518101906104d59190611a3b565b60030b979650505050505050565b60008060006101676001600160a01b03166318370d3460e01b868660405160240161050f929190611b46565b60408051601f198184030181529181526020820180516001600160e01b03166001600160e01b031990941693909317909252905161054d9190611a0d565b6000604051808303816000865af19150503d806000811461058a576040519150601f19603f3d011682016040523d82523d6000602084013e61058f565b606091505b5091509150816105a05760156105b4565b808060200190518101906105b49190611a3b565b60030b95945050505050565b60006105cc8383610d61565b9050600080516020611eea833981519152816040516105ed91815260200190565b60405180910390a16016811461060257600080fd5b92915050565b604051631f106b4b60e21b81526001600160a01b03821660048201526000903090637c41ad2c90602401602060405180830381600087803b15801561064c57600080fd5b505af1158015610660573d6000803e3d6000fd5b505050506040513d601f19601f820116820180604052508101906106849190611c73565b9050600080516020611eea833981519152816040516106a591815260200190565b60405180910390a1601681146106ba57600080fd5b604051600181527f0c9c765845f4d139956bb8fc8decb2eec6093c9c608b809641b16054b29f0e139060200160405180910390a1919050565b60405163af99c63360e01b81526001600160a01b03808416600483015282166024820152600090309063af99c63390604401602060405180830381600087803b15801561073f57600080fd5b505af1158015610753573d6000803e3d6000fd5b505050506040513d601f19601f820116820180604052508101906107779190611c8c565b604051600782900b8152909150600080516020611eea8339815191529060200160405180910390a1600781900b60161461060257600080fd5b60405163060dc34d60e21b815260009030906318370d34906107d89086908690600401611b46565b602060405180830381600087803b1580156107f257600080fd5b505af1158015610806573d6000803e3d6000fd5b505050506040513d601f19601f820116820180604052508101906105cc9190611c73565b6040516001600160a01b03821660248201526000908190819061016790633b3bff0f60e01b906044015b60408051601f198184030181529181526020820180516001600160e01b03166001600160e01b03199094169390931790925290516108929190611a0d565b6000604051808303816000865af19150503d80600081146108cf576040519150601f19603f3d011682016040523d82523d6000602084013e6108d4565b606091505b5091509150816108e55760156108f9565b808060200190518101906108f99190611a3b565b60030b949350505050565b60006107778383610d8d565b600061091d848484610db9565b9050600080516020611eea8339815191528160405161093e91815260200190565b60405180910390a16016811461095357600080fd5b9392505050565b60008060006101676001600160a01b031663593d6e8260e01b868660405160240161050f929190611ca9565b6040516001600160a01b03821660248201526000908190819061016790631f106b4b60e21b90604401610854565b60006109c08383610e99565b60070b9050600080516020611eea833981519152816040516105ed91815260200190565b6040516001600160a01b038381166024830152821660448201526000908190819061016790638f8d7f9960e01b9060640161050f565b6040516001600160a01b038581166024830152848116604483015283166064820152608481018290526000908190819061016790639b23d3d960e01b9060a401610430565b6000610a6a82610ecf565b9050600080516020611eea83398151915281604051610a8b91815260200190565b60405180910390a160168114610aa057600080fd5b919050565b6040516001600160a01b03838116602483015282166044820152600090819081906101679063af99c63360e01b9060640161050f565b60006105cc8383610efd565b604080516060810182526000808252602080830182905282840182905283516001600160a01b038616602480830191909152855180830390910181526044909101855290810180516001600160e01b0316631ac299b760e31b179052925190928391829161016791610b599190611a0d565b6000604051808303816000865af19150503d8060008114610b96576040519150601f19603f3d011682016040523d82523d6000602084013e610b9b565b606091505b506040805160608101825260008082526020820181905291810191909152919350915082610bcb57601581610bdf565b81806020019051810190610bdf9190611cec565b60039190910b97909650945050505050565b600061091d848484610f33565b600061091d848484610f75565b604051632c9eb74160e11b8152600090309063593d6e82906107d89086908690600401611ca9565b600061091d848484610fb2565b604080516001600160a01b038481166024830152831660448083019190915282518083039091018152606490910182526020810180516001600160e01b0316633cb0c7fd60e21b179052905160009182918291829161016791610ca291611a0d565b6000604051808303816000865af19150503d8060008114610cdf576040519150601f19603f3d011682016040523d82523d6000602084013e610ce4565b606091505b509150915081610cf75760156000610bdf565b80806020019051810190610bdf9190611d67565b600061091d848484610ff0565b600080610d2685858561102d565b6040518281529193509150600080516020611eea8339815191529060200160405180910390a160168214610d5957600080fd5b935093915050565b60008060006101676001600160a01b03166378b6391860e01b868660405160240161050f929190611d93565b60008060006101676001600160a01b0316636fc3cbaf60e01b868660405160240161050f929190611dee565b60008060006101676001600160a01b031663f7f38e2660e01b878787604051602401610de793929190611e56565b60408051601f198184030181529181526020820180516001600160e01b03166001600160e01b0319909416939093179092529051610e259190611a0d565b6000604051808303816000865af19150503d8060008114610e62576040519150601f19603f3d011682016040523d82523d6000602084013e610e67565b606091505b509150915081610e78576015610e8c565b80806020019051810190610e8c9190611a3b565b60030b9695505050505050565b6040516001600160a01b0383811660248301528216604482015260009081908190610167906316e3e16160e21b9060640161050f565b6040516001600160a01b03821660248201526000908190819061016790637834fb8960e11b90604401610854565b6040516001600160a01b038381166024830152821660448201526000908190819061016790630132f29d60e31b9060640161050f565b6040516001600160a01b0384811660248301528316604482015263ffffffff821660648201526000908190819061016790639790686d60e01b90608401610de7565b6040516001600160a01b038481166024830152831660448201526064810182905260009081908190610167906307336aaf60e41b90608401610de7565b6040516001600160a01b0384811660248301528316604482015281151560648201526000908190819061016790631b3b02e560e11b90608401610de7565b6040516001600160a01b0384811660248301528316604482015260648101829052600090819081906101679063e1f21c6760e01b90608401610de7565b6000806000806101676001600160a01b031663acb9cff960e01b88888860405160240161105c93929190611e8b565b60408051601f198184030181529181526020820180516001600160e01b03166001600160e01b031990941693909317909252905161109a9190611a0d565b6000604051808303816000865af19150503d80600081146110d7576040519150601f19603f3d011682016040523d82523d6000602084013e6110dc565b606091505b5091509150816110ef5760156000611103565b808060200190518101906111039190611ebd565b60039190910b9890975095505050505050565b6001600160a01b038116811461112b57600080fd5b50565b8035610aa081611116565b6000806000806080858703121561114f57600080fd5b843561115a81611116565b9350602085013561116a81611116565b9250604085013561117a81611116565b9396929550929360600135925050565b634e487b7160e01b600052604160045260246000fd5b6040805190810167ffffffffffffffff811182821017156111c3576111c361118a565b60405290565b60405160a0810167ffffffffffffffff811182821017156111c3576111c361118a565b6040516060810167ffffffffffffffff811182821017156111c3576111c361118a565b604051610120810167ffffffffffffffff811182821017156111c3576111c361118a565b604051601f8201601f1916810167ffffffffffffffff8111828210171561125c5761125c61118a565b604052919050565b600082601f83011261127557600080fd5b813567ffffffffffffffff81111561128f5761128f61118a565b6112a2601f8201601f1916602001611233565b8181528460208386010111156112b757600080fd5b816020850160208301376000918101602001919091529392505050565b801515811461112b57600080fd5b8035610aa0816112d4565b8060070b811461112b57600080fd5b8035610aa0816112ed565b600067ffffffffffffffff8211156113215761132161118a565b5060051b60200190565b600082601f83011261133c57600080fd5b8135602061135161134c83611307565b611233565b82815260059290921b8401810191818101908684111561137057600080fd5b8286015b8481101561148657803567ffffffffffffffff8082111561139457600080fd5b908801906040601f19838c0381018213156113ae57600080fd5b6113b66111a0565b88850135815282850135848111156113cd57600080fd5b949094019360a0858e03830112156113e55760008081fd5b6113ed6111c9565b9150888501356113fc816112d4565b82528483013561140b81611116565b828a0152606085810135858111156114235760008081fd5b6114318f8c838a0101611264565b858501525060809350838601358581111561144c5760008081fd5b61145a8f8c838a0101611264565b82850152505061146c60a0860161112e565b928201929092528188015285525050918301918301611374565b509695505050505050565b63ffffffff8116811461112b57600080fd5b6000606082840312156114b557600080fd5b6114bd6111ec565b905081356114ca81611491565b815260208201356114da81611116565b602082015260408201356114ed81611491565b604082015292915050565b6000806040838503121561150b57600080fd5b823561151681611116565b9150602083013567ffffffffffffffff8082111561153357600080fd5b90840190610160828703121561154857600080fd5b61155061120f565b82358281111561155f57600080fd5b61156b88828601611264565b82525060208301358281111561158057600080fd5b61158c88828601611264565b60208301525061159e6040840161112e565b60408201526060830135828111156115b557600080fd5b6115c188828601611264565b6060830152506115d3608084016112e2565b60808201526115e460a084016112fc565b60a08201526115f560c084016112e2565b60c082015260e08301358281111561160c57600080fd5b6116188882860161132b565b60e083015250610100915061162f878385016114a3565b828201528093505050509250929050565b6000806040838503121561165357600080fd5b823561165e81611116565b915060208381013567ffffffffffffffff81111561167b57600080fd5b8401601f8101861361168c57600080fd5b803561169a61134c82611307565b81815260059190911b820183019083810190888311156116b957600080fd5b928401925b828410156116e05783356116d181611116565b825292840192908401906116be565b80955050505050509250929050565b60006020828403121561170157600080fd5b813561095381611116565b6000806040838503121561171f57600080fd5b823561172a81611116565b9150602083013561173a81611116565b809150509250929050565b6000806040838503121561175857600080fd5b823561176381611116565b9150602083013567ffffffffffffffff81111561177f57600080fd5b61178b8582860161132b565b9150509250929050565b600082601f8301126117a657600080fd5b813560206117b661134c83611307565b82815260059290921b840181019181810190868411156117d557600080fd5b8286015b848110156114865780356117ec816112ed565b83529183019183016117d9565b60008060006060848603121561180e57600080fd5b833561181981611116565b9250602084013561182981611116565b9150604084013567ffffffffffffffff81111561184557600080fd5b61185186828701611795565b9150509250925092565b6000806080838503121561186e57600080fd5b823561187981611116565b915061188884602085016114a3565b90509250929050565b828152608081016109536020830184805163ffffffff90811683526020808301516001600160a01b03169084015260409182015116910152565b6000806000606084860312156118e057600080fd5b83356118eb81611116565b925060208401356118fb81611116565b9150604084013561190b81611491565b809150509250925092565b60008060006060848603121561192b57600080fd5b833561193681611116565b9250602084013561194681611116565b929592945050506040919091013590565b60008060006060848603121561196c57600080fd5b833561197781611116565b9250602084013561198781611116565b9150604084013561190b816112d4565b67ffffffffffffffff8116811461112b57600080fd5b6000806000606084860312156119c257600080fd5b83356119cd81611116565b9250602084013561182981611997565b60005b838110156119f85781810151838201526020016119e0565b83811115611a07576000848401525b50505050565b60008251611a1f8184602087016119dd565b9190910192915050565b8051600381900b8114610aa057600080fd5b600060208284031215611a4d57600080fd5b61095382611a29565b60008151808452611a6e8160208601602086016119dd565b601f01601f19169290920160200192915050565b600081518084526020808501808196508360051b8101915082860160005b85811015611b395782840389528151604081518652868201519150808787015281511515818701528682015160606001600160a01b03808316828a015283850151935060a09250608083818b0152611afb60e08b0186611a56565b928601518a8403603f1901858c0152929450611b178584611a56565b9501511660c09890980197909752505098850198935090840190600101611aa0565b5091979650505050505050565b6001600160a01b038316815260406020820152600082516101606040840152611b736101a0840182611a56565b90506020840151603f1980858403016060860152611b918383611a56565b925060408601519150611baf60808601836001600160a01b03169052565b60608601519150808584030160a0860152611bca8383611a56565b925060808601519150611be160c086018315159052565b60a08601519150611bf760e086018360070b9052565b60c08601519150610100611c0e8187018415159052565b60e087015192508186850301610120870152611c2a8484611a82565b90870151805163ffffffff90811661014089015260208201516001600160a01b03166101608901526040820151166101808801529093509150611c6a9050565b50949350505050565b600060208284031215611c8557600080fd5b5051919050565b600060208284031215611c9e57600080fd5b8151610953816112ed565b6001600160a01b0383168152608081016109536020830184805163ffffffff90811683526020808301516001600160a01b03169084015260409182015116910152565b6000808284036080811215611d0057600080fd5b611d0984611a29565b92506060601f1982011215611d1d57600080fd5b50611d266111ec565b6020840151611d3481611491565b81526040840151611d4481611116565b60208201526060840151611d5781611491565b6040820152919491935090915050565b60008060408385031215611d7a57600080fd5b611d8383611a29565b9150602083015161173a816112d4565b6000604082016001600160a01b0380861684526020604081860152828651808552606087019150828801945060005b81811015611de0578551851683529483019491830191600101611dc2565b509098975050505050505050565b6001600160a01b0383168152604060208201526000611e106040830184611a82565b949350505050565b600081518084526020808501945080840160005b83811015611e4b57815160070b87529582019590820190600101611e2c565b509495945050505050565b60006001600160a01b03808616835280851660208401525060606040830152611e826060830184611e18565b95945050505050565b6001600160a01b038416815267ffffffffffffffff83166020820152606060408201526000611e826060830184611e18565b60008060408385031215611ed057600080fd5b611ed983611a29565b9150602083015161173a8161199756fe90a5cf4cffe88b4edbb041cfc7a8a812c48a5ec30b84640fb37690875168e3aaa2646970667358221220d01998489047ce3471ab2dbbfe5edf2b4009031f802e82e128390525ff5537dd64736f6c63430008090033",
  "linkReferences": {},
  "deployedLinkReferences": {}
}