{
  "_format": "hh-sol-artifact-1",
  "contractName": "TokenManagementContract",
  "sourceName": "contracts/hts-precompile/examples/token-manage/TokenManagementContract.sol",
  "abi": [
    {
      "anonymous": false,
      "inputs": [
        {
          "indexed": false,
          "internalType": "bool",
          "name": "paused",
          "type": "bool"
        }
      ],
      "name": "PausedToken",
      "type": "event"
    },
    {
      "anonymous": false,
      "inputs": [
        {
          "indexed": false,
          "internalType": "int256",
          "name": "responseCode",
          "type": "int256"
        }
      ],
      "name": "ResponseCode",
      "type": "event"
    },
    {
      "anonymous": false,
      "inputs": [
        {
          "indexed": false,
          "internalType": "bool",
          "name": "unpaused",
          "type": "bool"
        }
      ],
      "name": "UnpausedToken",
      "type": "event"
    },
    {
      "inputs": [
        {
          "internalType": "address",
          "name": "token",
          "type": "address"
        },
        {
          "internalType": "address",
          "name": "approved",
          "type": "address"
        },
        {
          "internalType": "uint256",
          "name": "serialNumber",
          "type": "uint256"
        }
      ],
      "name": "approveNFTPublic",
      "outputs": [
        {
          "internalType": "int256",
          "name": "responseCode",
          "type": "int256"
        }
      ],
      "stateMutability": "nonpayable",
      "type": "function"
    },
    {
      "inputs": [
        {
          "internalType": "address",
          "name": "token",
          "type": "address"
        },
        {
          "internalType": "address",
          "name": "spender",
          "type": "address"
        },
        {
          "internalType": "uint256",
          "name": "amount",
          "type": "uint256"
        }
      ],
      "name": "approvePublic",
      "outputs": [
        {
          "internalType": "int256",
          "name": "responseCode",
          "type": "int256"
        }
      ],
      "stateMutability": "nonpayable",
      "type": "function"
    },
    {
      "inputs": [
        {
          "internalType": "address",
          "name": "token",
          "type": "address"
        },
        {
          "internalType": "int64",
          "name": "amount",
          "type": "int64"
        },
        {
          "internalType": "int64[]",
          "name": "serialNumbers",
          "type": "int64[]"
        }
      ],
      "name": "burnTokenPublic",
      "outputs": [
        {
          "internalType": "int256",
          "name": "responseCode",
          "type": "int256"
        },
        {
          "internalType": "int64",
          "name": "newTotalSupply",
          "type": "int64"
        }
      ],
      "stateMutability": "nonpayable",
      "type": "function"
    },
    {
      "inputs": [
        {
          "internalType": "address",
          "name": "token",
          "type": "address"
        },
        {
          "internalType": "address",
          "name": "from",
          "type": "address"
        },
        {
          "internalType": "address",
          "name": "to",
          "type": "address"
        },
        {
          "internalType": "uint256",
          "name": "amount",
          "type": "uint256"
        }
      ],
      "name": "delegateTransferFrom",
      "outputs": [
        {
          "internalType": "int64",
          "name": "responseCode",
          "type": "int64"
        }
      ],
      "stateMutability": "nonpayable",
      "type": "function"
    },
    {
      "inputs": [
        {
          "internalType": "address",
          "name": "token",
          "type": "address"
        },
        {
          "internalType": "address",
          "name": "from",
          "type": "address"
        },
        {
          "internalType": "address",
          "name": "to",
          "type": "address"
        },
        {
          "internalType": "uint256",
          "name": "serialNumber",
          "type": "uint256"
        }
      ],
      "name": "delegateTransferFromNFT",
      "outputs": [
        {
          "internalType": "int64",
          "name": "responseCode",
          "type": "int64"
        }
      ],
      "stateMutability": "nonpayable",
      "type": "function"
    },
    {
      "inputs": [
        {
          "internalType": "address",
          "name": "token",
          "type": "address"
        }
      ],
      "name": "deleteTokenPublic",
      "outputs": [
        {
          "internalType": "int256",
          "name": "responseCode",
          "type": "int256"
        }
      ],
      "stateMutability": "nonpayable",
      "type": "function"
    },
    {
      "inputs": [
        {
          "internalType": "address",
          "name": "account",
          "type": "address"
        },
        {
          "internalType": "address",
          "name": "token",
          "type": "address"
        }
      ],
      "name": "dissociateTokenPublic",
      "outputs": [
        {
          "internalType": "int256",
          "name": "responseCode",
          "type": "int256"
        }
      ],
      "stateMutability": "nonpayable",
      "type": "function"
    },
    {
      "inputs": [
        {
          "internalType": "address",
          "name": "account",
          "type": "address"
        },
        {
          "internalType": "address[]",
          "name": "tokens",
          "type": "address[]"
        }
      ],
      "name": "dissociateTokensPublic",
      "outputs": [
        {
          "internalType": "int256",
          "name": "responseCode",
          "type": "int256"
        }
      ],
      "stateMutability": "nonpayable",
      "type": "function"
    },
    {
      "inputs": [
        {
          "internalType": "address",
          "name": "token",
          "type": "address"
        },
        {
          "internalType": "address",
          "name": "account",
          "type": "address"
        }
      ],
      "name": "freezeTokenPublic",
      "outputs": [
        {
          "internalType": "int256",
          "name": "responseCode",
          "type": "int256"
        }
      ],
      "stateMutability": "nonpayable",
      "type": "function"
    },
    {
      "inputs": [
        {
          "internalType": "address",
          "name": "token",
          "type": "address"
        }
      ],
      "name": "pauseTokenPublic",
      "outputs": [
        {
          "internalType": "int256",
          "name": "responseCode",
          "type": "int256"
        }
      ],
      "stateMutability": "nonpayable",
      "type": "function"
    },
    {
      "inputs": [
        {
          "internalType": "address",
          "name": "token",
          "type": "address"
        },
        {
          "internalType": "address",
          "name": "account",
          "type": "address"
        }
      ],
      "name": "revokeTokenKycPublic",
      "outputs": [
        {
          "internalType": "int64",
          "name": "responseCode",
          "type": "int64"
        }
      ],
      "stateMutability": "nonpayable",
      "type": "function"
    },
    {
      "inputs": [
        {
          "internalType": "address",
          "name": "token",
          "type": "address"
        },
        {
          "internalType": "address",
          "name": "operator",
          "type": "address"
        },
        {
          "internalType": "bool",
          "name": "approved",
          "type": "bool"
        }
      ],
      "name": "setApprovalForAllPublic",
      "outputs": [
        {
          "internalType": "int256",
          "name": "responseCode",
          "type": "int256"
        }
      ],
      "stateMutability": "nonpayable",
      "type": "function"
    },
    {
      "inputs": [
        {
          "internalType": "address",
          "name": "token",
          "type": "address"
        },
        {
          "internalType": "address",
          "name": "from",
          "type": "address"
        },
        {
          "internalType": "address",
          "name": "to",
          "type": "address"
        },
        {
          "internalType": "uint256",
          "name": "amount",
          "type": "uint256"
        }
      ],
      "name": "transferFrom",
      "outputs": [
        {
          "internalType": "int64",
          "name": "responseCode",
          "type": "int64"
        }
      ],
      "stateMutability": "nonpayable",
      "type": "function"
    },
    {
      "inputs": [
        {
          "internalType": "address",
          "name": "token",
          "type": "address"
        },
        {
          "internalType": "address",
          "name": "from",
          "type": "address"
        },
        {
          "internalType": "address",
          "name": "to",
          "type": "address"
        },
        {
          "internalType": "uint256",
          "name": "serialNumber",
          "type": "uint256"
        }
      ],
      "name": "transferFromNFT",
      "outputs": [
        {
          "internalType": "int64",
          "name": "responseCode",
          "type": "int64"
        }
      ],
      "stateMutability": "nonpayable",
      "type": "function"
    },
    {
      "inputs": [
        {
          "internalType": "address",
          "name": "token",
          "type": "address"
        },
        {
          "internalType": "address",
          "name": "account",
          "type": "address"
        }
      ],
      "name": "unfreezeTokenPublic",
      "outputs": [
        {
          "internalType": "int256",
          "name": "responseCode",
          "type": "int256"
        }
      ],
      "stateMutability": "nonpayable",
      "type": "function"
    },
    {
      "inputs": [
        {
          "internalType": "address",
          "name": "token",
          "type": "address"
        }
      ],
      "name": "unpauseTokenPublic",
      "outputs": [
        {
          "internalType": "int256",
          "name": "responseCode",
          "type": "int256"
        }
      ],
      "stateMutability": "nonpayable",
      "type": "function"
    },
    {
      "inputs": [
        {
          "internalType": "address",
          "name": "token",
          "type": "address"
        },
        {
          "components": [
            {
              "internalType": "int64",
              "name": "second",
              "type": "int64"
            },
            {
              "internalType": "address",
              "name": "autoRenewAccount",
              "type": "address"
            },
            {
              "internalType": "int64",
              "name": "autoRenewPeriod",
              "type": "int64"
            }
          ],
          "internalType": "struct IHederaTokenService.Expiry",
          "name": "expiryInfo",
          "type": "tuple"
        }
      ],
      "name": "updateTokenExpiryInfoPublic",
      "outputs": [
        {
          "internalType": "int256",
          "name": "responseCode",
          "type": "int256"
        }
      ],
      "stateMutability": "nonpayable",
      "type": "function"
    },
    {
      "inputs": [
        {
          "internalType": "address",
          "name": "token",
          "type": "address"
        },
        {
          "components": [
            {
              "internalType": "string",
              "name": "name",
              "type": "string"
            },
            {
              "internalType": "string",
              "name": "symbol",
              "type": "string"
            },
            {
              "internalType": "address",
              "name": "treasury",
              "type": "address"
            },
            {
              "internalType": "string",
              "name": "memo",
              "type": "string"
            },
            {
              "internalType": "bool",
              "name": "tokenSupplyType",
              "type": "bool"
            },
            {
              "internalType": "int64",
              "name": "maxSupply",
              "type": "int64"
            },
            {
              "internalType": "bool",
              "name": "freezeDefault",
              "type": "bool"
            },
            {
              "components": [
                {
                  "internalType": "uint256",
                  "name": "keyType",
                  "type": "uint256"
                },
                {
                  "components": [
                    {
                      "internalType": "bool",
                      "name": "inheritAccountKey",
                      "type": "bool"
                    },
                    {
                      "internalType": "address",
                      "name": "contractId",
                      "type": "address"
                    },
                    {
                      "internalType": "bytes",
                      "name": "ed25519",
                      "type": "bytes"
                    },
                    {
                      "internalType": "bytes",
                      "name": "ECDSA_secp256k1",
                      "type": "bytes"
                    },
                    {
                      "internalType": "address",
                      "name": "delegatableContractId",
                      "type": "address"
                    }
                  ],
                  "internalType": "struct IHederaTokenService.KeyValue",
                  "name": "key",
                  "type": "tuple"
                }
              ],
              "internalType": "struct IHederaTokenService.TokenKey[]",
              "name": "tokenKeys",
              "type": "tuple[]"
            },
            {
              "components": [
                {
                  "internalType": "int64",
                  "name": "second",
                  "type": "int64"
                },
                {
                  "internalType": "address",
                  "name": "autoRenewAccount",
                  "type": "address"
                },
                {
                  "internalType": "int64",
                  "name": "autoRenewPeriod",
                  "type": "int64"
                }
              ],
              "internalType": "struct IHederaTokenService.Expiry",
              "name": "expiry",
              "type": "tuple"
            }
          ],
          "internalType": "struct IHederaTokenService.HederaToken",
          "name": "tokenInfo",
          "type": "tuple"
        }
      ],
      "name": "updateTokenInfoPublic",
      "outputs": [
        {
          "internalType": "int256",
          "name": "responseCode",
          "type": "int256"
        }
      ],
      "stateMutability": "nonpayable",
      "type": "function"
    },
    {
      "inputs": [
        {
          "internalType": "address",
          "name": "token",
          "type": "address"
        },
        {
          "components": [
            {
              "internalType": "uint256",
              "name": "keyType",
              "type": "uint256"
            },
            {
              "components": [
                {
                  "internalType": "bool",
                  "name": "inheritAccountKey",
                  "type": "bool"
                },
                {
                  "internalType": "address",
                  "name": "contractId",
                  "type": "address"
                },
                {
                  "internalType": "bytes",
                  "name": "ed25519",
                  "type": "bytes"
                },
                {
                  "internalType": "bytes",
                  "name": "ECDSA_secp256k1",
                  "type": "bytes"
                },
                {
                  "internalType": "address",
                  "name": "delegatableContractId",
                  "type": "address"
                }
              ],
              "internalType": "struct IHederaTokenService.KeyValue",
              "name": "key",
              "type": "tuple"
            }
          ],
          "internalType": "struct IHederaTokenService.TokenKey[]",
          "name": "keys",
          "type": "tuple[]"
        }
      ],
      "name": "updateTokenKeysPublic",
      "outputs": [
        {
          "internalType": "int64",
          "name": "responseCode",
          "type": "int64"
        }
      ],
      "stateMutability": "nonpayable",
      "type": "function"
    },
    {
      "inputs": [
        {
          "internalType": "address",
          "name": "token",
          "type": "address"
        },
        {
          "internalType": "address",
          "name": "account",
          "type": "address"
        },
        {
          "internalType": "int64[]",
          "name": "serialNumbers",
          "type": "int64[]"
        }
      ],
      "name": "wipeTokenAccountNFTPublic",
      "outputs": [
        {
          "internalType": "int256",
          "name": "responseCode",
          "type": "int256"
        }
      ],
      "stateMutability": "nonpayable",
      "type": "function"
    },
    {
      "inputs": [
        {
          "internalType": "address",
          "name": "token",
          "type": "address"
        },
        {
          "internalType": "address",
          "name": "account",
          "type": "address"
        },
        {
          "internalType": "int64",
          "name": "amount",
          "type": "int64"
        }
      ],
      "name": "wipeTokenAccountPublic",
      "outputs": [
        {
          "internalType": "int256",
          "name": "responseCode",
          "type": "int256"
        }
      ],
      "stateMutability": "nonpayable",
      "type": "function"
    }
  ],
  "bytecode": "0x608060405234801561001057600080fd5b50600160208181527fa6eef7e35abe7026729641147f7915573c7e97b47efa546f5f6e3230263bcb499190915560027fcc69885fda6bcc1a4ace058b4a62bf5e179ea78fd58a1ccd71c22cc9b688792f5560047fd9d16d34ffb15ba3a3d852f0d403e2ce1d691fb54de27ac87cd2f993f3ec330f5560087f7dfe757ecd65cbd7922a9c0161e935dd7fdbcc0e999689c7d31633896b1fc60b5560107fedc95719e9a3b28dd8e80877cb5880a9be7de1a13fc8b05e7999683b6b567643557fe2689cd4a84e23ad2f564004f1c9013e9589d260bde6380aba3ca7e09e4df40c55600660005260407f8f331abe73332f95a25873e8b430885974c0409691f89d643119a11623a7924a55611b19806101276000396000f3fe608060405234801561001057600080fd5b50600436106101475760003560e01c8063815228c0116100c8578063eac6f3fe1161008c578063f7be342511610066578063f7be3425146102e0578063f848fec4146102f3578063fad0038a1461030657600080fd5b8063eac6f3fe1461028f578063f25b1200146102a2578063f52177ee146102b557600080fd5b8063815228c0146102305780639b23d3d914610243578063a345f7bd14610256578063b26d33cb14610269578063df6c06f51461027c57600080fd5b80632eecbca31161010f5780632eecbca3146101d157806336348de3146101e45780634d8f27c9146101f757806356af84031461020a5780637d3e5da81461021d57600080fd5b806311e1fc071461014c57806315dacbea146101775780632abf6c551461018a5780632b256ec8146101ab5780632d73bb2e146101be575b600080fd5b61015f61015a366004610e8b565b610319565b60405160079190910b81526020015b60405180910390f35b61015f610185366004610e8b565b61040b565b61019d610198366004610fb1565b6104c7565b60405190815260200161016e565b61019d6101b9366004611061565b61050f565b61019d6101cc36600461107c565b61058a565b61015f6101df36600461107c565b6105ba565b61019d6101f236600461131d565b6105ff565b61015f610205366004611463565b61060b565b61019d610218366004611515565b610617565b61019d61022b36600461107c565b610661565b61019d61023e366004611573565b61066d565b61015f610251366004610e8b565b610679565b61019d610264366004611061565b6106be565b61019d61027736600461107c565b610704565b61019d61028a36600461159e565b610710565b61015f61029d366004610e8b565b61071d565b61019d6102b03660046115da565b610762565b6102c86102c336600461161d565b61076f565b6040805192835260079190910b60208301520161016e565b61019d6102ee366004611061565b6107b8565b61019d61030136600461159e565b61082a565b61019d61031436600461164b565b610837565b6040516001600160a01b038581166024830152848116604483015283166064820152608481018290526000908190819061016790639b23d3d960e01b9060a4015b60408051601f198184030181529181526020820180516001600160e01b03166001600160e01b031990941693909317909252905161039891906116c2565b600060405180830381855af49150503d80600081146103d3576040519150601f19603f3d011682016040523d82523d6000602084013e6103d8565b606091505b5091509150816103e95760156103fd565b808060200190518101906103fd91906116f0565b60030b979650505050505050565b6040516001600160a01b038581166024830152848116604483015283166064820152608481018290526000908190819061016790630aed65f560e11b9060a4015b60408051601f198184030181529181526020820180516001600160e01b03166001600160e01b031990941693909317909252905161048a91906116c2565b6000604051808303816000865af19150503d80600081146103d3576040519150601f19603f3d011682016040523d82523d6000602084013e6103d8565b60006104d38383610844565b9050600080516020611ac4833981519152816040516104f491815260200190565b60405180910390a16016811461050957600080fd5b92915050565b600061051a82610921565b9050600080516020611ac48339815191528160405161053b91815260200190565b60405180910390a16016811461055057600080fd5b604051600181527f0c9c765845f4d139956bb8fc8decb2eec6093c9c608b809641b16054b29f0e13906020015b60405180910390a1919050565b600061059683836109fb565b60070b9050600080516020611ac4833981519152816040516104f491815260200190565b60006105c68383610a31565b604051600782900b8152909150600080516020611ac48339815191529060200160405180910390a1600781900b60161461050957600080fd5b60006104d38383610a67565b60006105c68383610a93565b6000610624848484610abf565b9050600080516020611ac48339815191528160405161064591815260200190565b60405180910390a16016811461065a57600080fd5b9392505050565b60006105968383610b9f565b60006104d38383610bd5565b6040516001600160a01b038581166024830152848116604483015283166064820152608481018290526000908190819061016790639b23d3d960e01b9060a40161044c565b60006106c982610c01565b9050600080516020611ac4833981519152816040516106ea91815260200190565b60405180910390a1601681146106ff57600080fd5b919050565b60006104d38383610c2f565b6000610624848484610c65565b6040516001600160a01b038581166024830152848116604483015283166064820152608481018290526000908190819061016790630aed65f560e11b9060a40161035a565b6000610624848484610ca2565b60008061077d858585610ce0565b6040518281529193509150600080516020611ac48339815191529060200160405180910390a1601682146107b057600080fd5b935093915050565b60006107c382610dc9565b9050600080516020611ac4833981519152816040516107e491815260200190565b60405180910390a1601681146107f957600080fd5b604051600181527f319ab7084208e4afa38c6e6ff7aea9587439f2e4700746f4c7d425fea17426d29060200161057d565b6000610624848484610df7565b6000610624848484610e34565b60008060006101676001600160a01b03166378b6391860e01b868660405160240161087092919061170b565b60408051601f198184030181529181526020820180516001600160e01b03166001600160e01b03199094169390931790925290516108ae91906116c2565b6000604051808303816000865af19150503d80600081146108eb576040519150601f19603f3d011682016040523d82523d6000602084013e6108f0565b606091505b509150915081610901576015610915565b8080602001905181019061091591906116f0565b60030b95945050505050565b6040516001600160a01b03821660248201526000908190819061016790631f106b4b60e21b906044015b60408051601f198184030181529181526020820180516001600160e01b03166001600160e01b031990941693909317909252905161098991906116c2565b6000604051808303816000865af19150503d80600081146109c6576040519150601f19603f3d011682016040523d82523d6000602084013e6109cb565b606091505b5091509150816109dc5760156109f0565b808060200190518101906109f091906116f0565b60030b949350505050565b6040516001600160a01b0383811660248301528216604482015260009081908190610167906352f9138760e01b90606401610870565b6040516001600160a01b03838116602483015282166044820152600090819081906101679063af99c63360e01b90606401610870565b60008060006101676001600160a01b0316637d305cfa60e01b8686604051602401610870929190611856565b60008060006101676001600160a01b0316636fc3cbaf60e01b8686604051602401610870929190611981565b60008060006101676001600160a01b031663f7f38e2660e01b878787604051602401610aed939291906119e9565b60408051601f198184030181529181526020820180516001600160e01b03166001600160e01b0319909416939093179092529051610b2b91906116c2565b6000604051808303816000865af19150503d8060008114610b68576040519150601f19603f3d011682016040523d82523d6000602084013e610b6d565b606091505b509150915081610b7e576015610b92565b80806020019051810190610b9291906116f0565b60030b9695505050505050565b6040516001600160a01b0383811660248301528216604482015260009081908190610167906316e3e16160e21b90606401610870565b60008060006101676001600160a01b031663d27be6cd60e01b8686604051602401610870929190611a1e565b6040516001600160a01b03821660248201526000908190819061016790637834fb8960e11b9060440161094b565b6040516001600160a01b038381166024830152821660448201526000908190819061016790630132f29d60e31b90606401610870565b6040516001600160a01b038481166024830152831660448201526064810182905260009081908190610167906307336aaf60e41b90608401610aed565b6040516001600160a01b0384811660248301528316604482015281151560648201526000908190819061016790631b3b02e560e11b90608401610aed565b6000806000806101676001600160a01b031663d6910d0660e01b888888604051602401610d0f93929190611a61565b60408051601f198184030181529181526020820180516001600160e01b03166001600160e01b0319909416939093179092529051610d4d91906116c2565b6000604051808303816000865af19150503d8060008114610d8a576040519150601f19603f3d011682016040523d82523d6000602084013e610d8f565b606091505b509150915081610da25760156000610db6565b80806020019051810190610db69190611a8c565b60039190910b9890975095505050505050565b6040516001600160a01b03821660248201526000908190819061016790633b3bff0f60e01b9060440161094b565b6040516001600160a01b0384811660248301528316604482015260648101829052600090819081906101679063e1f21c6760e01b90608401610aed565b6040516001600160a01b03848116602483015283166044820152600782900b6064820152600090819081906101679063efef57f960e01b90608401610aed565b80356001600160a01b03811681146106ff57600080fd5b60008060008060808587031215610ea157600080fd5b610eaa85610e74565b9350610eb860208601610e74565b9250610ec660408601610e74565b9396929550929360600135925050565b634e487b7160e01b600052604160045260246000fd5b6040805190810167ffffffffffffffff81118282101715610f0f57610f0f610ed6565b60405290565b60405160a0810167ffffffffffffffff81118282101715610f0f57610f0f610ed6565b604051610120810167ffffffffffffffff81118282101715610f0f57610f0f610ed6565b604051601f8201601f1916810167ffffffffffffffff81118282101715610f8557610f85610ed6565b604052919050565b600067ffffffffffffffff821115610fa757610fa7610ed6565b5060051b60200190565b60008060408385031215610fc457600080fd5b610fcd83610e74565b915060208084013567ffffffffffffffff811115610fea57600080fd5b8401601f81018613610ffb57600080fd5b803561100e61100982610f8d565b610f5c565b81815260059190911b8201830190838101908883111561102d57600080fd5b928401925b828410156110525761104384610e74565b82529284019290840190611032565b80955050505050509250929050565b60006020828403121561107357600080fd5b61065a82610e74565b6000806040838503121561108f57600080fd5b61109883610e74565b91506110a660208401610e74565b90509250929050565b600082601f8301126110c057600080fd5b813567ffffffffffffffff8111156110da576110da610ed6565b6110ed601f8201601f1916602001610f5c565b81815284602083860101111561110257600080fd5b816020850160208301376000918101602001919091529392505050565b803580151581146106ff57600080fd5b8060070b811461113e57600080fd5b50565b80356106ff8161112f565b600082601f83011261115d57600080fd5b8135602061116d61100983610f8d565b82815260059290921b8401810191818101908684111561118c57600080fd5b8286015b8481101561129e57803567ffffffffffffffff808211156111b057600080fd5b908801906040601f19838c0381018213156111ca57600080fd5b6111d2610eec565b88850135815282850135848111156111e957600080fd5b949094019360a0858e03830112156112015760008081fd5b611209610f15565b915061121689860161111f565b8252611223838601610e74565b898301526060808601358581111561123b5760008081fd5b6112498f8c838a01016110af565b85850152506080935083860135858111156112645760008081fd5b6112728f8c838a01016110af565b82850152505061128460a08601610e74565b928201929092528188015285525050918301918301611190565b509695505050505050565b6000606082840312156112bb57600080fd5b6040516060810181811067ffffffffffffffff821117156112de576112de610ed6565b60405290508082356112ef8161112f565b81526112fd60208401610e74565b602082015260408301356113108161112f565b6040919091015292915050565b6000806040838503121561133057600080fd5b61133983610e74565b9150602083013567ffffffffffffffff8082111561135657600080fd5b90840190610160828703121561136b57600080fd5b611373610f38565b82358281111561138257600080fd5b61138e888286016110af565b8252506020830135828111156113a357600080fd5b6113af888286016110af565b6020830152506113c160408401610e74565b60408201526060830135828111156113d857600080fd5b6113e4888286016110af565b6060830152506113f66080840161111f565b608082015261140760a08401611141565b60a082015261141860c0840161111f565b60c082015260e08301358281111561142f57600080fd5b61143b8882860161114c565b60e0830152506101009150611452878385016112a9565b828201528093505050509250929050565b6000806040838503121561147657600080fd5b61147f83610e74565b9150602083013567ffffffffffffffff81111561149b57600080fd5b6114a78582860161114c565b9150509250929050565b600082601f8301126114c257600080fd5b813560206114d261100983610f8d565b82815260059290921b840181019181810190868411156114f157600080fd5b8286015b8481101561129e5780356115088161112f565b83529183019183016114f5565b60008060006060848603121561152a57600080fd5b61153384610e74565b925061154160208501610e74565b9150604084013567ffffffffffffffff81111561155d57600080fd5b611569868287016114b1565b9150509250925092565b6000806080838503121561158657600080fd5b61158f83610e74565b91506110a684602085016112a9565b6000806000606084860312156115b357600080fd5b6115bc84610e74565b92506115ca60208501610e74565b9150604084013590509250925092565b6000806000606084860312156115ef57600080fd5b6115f884610e74565b925061160660208501610e74565b91506116146040850161111f565b90509250925092565b60008060006060848603121561163257600080fd5b61163b84610e74565b925060208401356115418161112f565b60008060006060848603121561166057600080fd5b61166984610e74565b925061167760208501610e74565b915060408401356116878161112f565b809150509250925092565b60005b838110156116ad578181015183820152602001611695565b838111156116bc576000848401525b50505050565b600082516116d4818460208701611692565b9190910192915050565b8051600381900b81146106ff57600080fd5b60006020828403121561170257600080fd5b61065a826116de565b6000604082016001600160a01b0380861684526020604081860152828651808552606087019150828801945060005b8181101561175857855185168352948301949183019160010161173a565b509098975050505050505050565b6000815180845261177e816020860160208601611692565b601f01601f19169290920160200192915050565b600081518084526020808501808196508360051b8101915082860160005b858110156118495782840389528151604081518652868201519150808787015281511515818701528682015160606001600160a01b03808316828a015283850151935060a09250608083818b015261180b60e08b0186611766565b928601518a8403603f1901858c01529294506118278584611766565b9501511660c098909801979097525050988501989350908401906001016117b0565b5091979650505050505050565b6001600160a01b0383168152604060208201526000825161016060408401526118836101a0840182611766565b90506020840151603f19808584030160608601526118a18383611766565b9250604086015191506118bf60808601836001600160a01b03169052565b60608601519150808584030160a08601526118da8383611766565b9250608086015191506118f160c086018315159052565b60a0860151915061190760e086018360070b9052565b60c0860151915061010061191e8187018415159052565b60e08701519250818685030161012087015261193a8484611792565b908701518051600790810b61014089015260208201516001600160a01b03166101608901526040820151900b61018088015290935091506119789050565b50949350505050565b6001600160a01b03831681526040602082015260006119a36040830184611792565b949350505050565b600081518084526020808501945080840160005b838110156119de57815160070b875295820195908201906001016119bf565b509495945050505050565b60006001600160a01b03808616835280851660208401525060606040830152611a1560608301846119ab565b95945050505050565b6001600160a01b03831681526080810161065a6020830184805160070b82526001600160a01b036020820151166020830152604081015160070b60408301525050565b6001600160a01b03841681528260070b6020820152606060408201526000611a1560608301846119ab565b60008060408385031215611a9f57600080fd5b611aa8836116de565b91506020830151611ab88161112f565b80915050925092905056fe90a5cf4cffe88b4edbb041cfc7a8a812c48a5ec30b84640fb37690875168e3aaa26469706673582212208ab31749a92e75feb5510da87bec4d150999a0aa3431b37994a4b90d7e1164a664736f6c63430008090033",
  "linkReferences": {},
  "deployedLinkReferences": {}
}