{
  "_format": "hh-sol-artifact-1",
  "contractName": "TokenManagementContract",
  "sourceName": "contracts/hts-precompile/examples/token-manage/TokenManagementContract.sol",
  "abi": [
    {
      "anonymous": false,
      "inputs": [
        {
          "indexed": false,
          "internalType": "bool",
          "name": "paused",
          "type": "bool"
        }
      ],
      "name": "PausedToken",
      "type": "event"
    },
    {
      "anonymous": false,
      "inputs": [
        {
          "indexed": false,
          "internalType": "int256",
          "name": "responseCode",
          "type": "int256"
        }
      ],
      "name": "ResponseCode",
      "type": "event"
    },
    {
      "anonymous": false,
      "inputs": [
        {
          "indexed": false,
          "internalType": "bool",
          "name": "unpaused",
          "type": "bool"
        }
      ],
      "name": "UnpausedToken",
      "type": "event"
    },
    {
      "inputs": [
        {
          "internalType": "address",
          "name": "token",
          "type": "address"
        },
        {
          "internalType": "address",
          "name": "approved",
          "type": "address"
        },
        {
          "internalType": "uint256",
          "name": "serialNumber",
          "type": "uint256"
        }
      ],
      "name": "approveNFTPublic",
      "outputs": [
        {
          "internalType": "int256",
          "name": "responseCode",
          "type": "int256"
        }
      ],
      "stateMutability": "nonpayable",
      "type": "function"
    },
    {
      "inputs": [
        {
          "internalType": "address",
          "name": "token",
          "type": "address"
        },
        {
          "internalType": "address",
          "name": "spender",
          "type": "address"
        },
        {
          "internalType": "uint256",
          "name": "amount",
          "type": "uint256"
        }
      ],
      "name": "approvePublic",
      "outputs": [
        {
          "internalType": "int256",
          "name": "responseCode",
          "type": "int256"
        }
      ],
      "stateMutability": "nonpayable",
      "type": "function"
    },
    {
      "inputs": [
        {
          "internalType": "address",
          "name": "token",
          "type": "address"
        },
        {
          "internalType": "uint64",
          "name": "amount",
          "type": "uint64"
        },
        {
          "internalType": "int64[]",
          "name": "serialNumbers",
          "type": "int64[]"
        }
      ],
      "name": "burnTokenPublic",
      "outputs": [
        {
          "internalType": "int256",
          "name": "responseCode",
          "type": "int256"
        },
        {
          "internalType": "uint64",
          "name": "newTotalSupply",
          "type": "uint64"
        }
      ],
      "stateMutability": "nonpayable",
      "type": "function"
    },
    {
      "inputs": [
        {
          "internalType": "address",
          "name": "token",
          "type": "address"
        },
        {
          "internalType": "address",
          "name": "account",
          "type": "address"
        }
      ],
      "name": "delegateFreezeTokenPublic",
      "outputs": [
        {
          "internalType": "int256",
          "name": "responseCode",
          "type": "int256"
        }
      ],
      "stateMutability": "nonpayable",
      "type": "function"
    },
    {
      "inputs": [
        {
          "internalType": "address",
          "name": "token",
          "type": "address"
        }
      ],
      "name": "delegatePauseTokenPublic",
      "outputs": [
        {
          "internalType": "int256",
          "name": "responseCode",
          "type": "int256"
        }
      ],
      "stateMutability": "nonpayable",
      "type": "function"
    },
    {
      "inputs": [
        {
          "internalType": "address",
          "name": "token",
          "type": "address"
        },
        {
          "internalType": "address",
          "name": "from",
          "type": "address"
        },
        {
          "internalType": "address",
          "name": "to",
          "type": "address"
        },
        {
          "internalType": "uint256",
          "name": "amount",
          "type": "uint256"
        }
      ],
      "name": "delegateTransferFrom",
      "outputs": [
        {
          "internalType": "int64",
          "name": "responseCode",
          "type": "int64"
        }
      ],
      "stateMutability": "nonpayable",
      "type": "function"
    },
    {
      "inputs": [
        {
          "internalType": "address",
          "name": "token",
          "type": "address"
        },
        {
          "internalType": "address",
          "name": "from",
          "type": "address"
        },
        {
          "internalType": "address",
          "name": "to",
          "type": "address"
        },
        {
          "internalType": "uint256",
          "name": "serialNumber",
          "type": "uint256"
        }
      ],
      "name": "delegateTransferFromNFT",
      "outputs": [
        {
          "internalType": "int64",
          "name": "responseCode",
          "type": "int64"
        }
      ],
      "stateMutability": "nonpayable",
      "type": "function"
    },
    {
      "inputs": [
        {
          "internalType": "address",
          "name": "token",
          "type": "address"
        },
        {
          "internalType": "address",
          "name": "account",
          "type": "address"
        }
      ],
      "name": "delegateUnfreezeTokenPublic",
      "outputs": [
        {
          "internalType": "int256",
          "name": "responseCode",
          "type": "int256"
        }
      ],
      "stateMutability": "nonpayable",
      "type": "function"
    },
    {
      "inputs": [
        {
          "internalType": "address",
          "name": "token",
          "type": "address"
        }
      ],
      "name": "delegateUnpauseTokenPublic",
      "outputs": [
        {
          "internalType": "int256",
          "name": "responseCode",
          "type": "int256"
        }
      ],
      "stateMutability": "nonpayable",
      "type": "function"
    },
    {
      "inputs": [
        {
          "internalType": "address",
          "name": "token",
          "type": "address"
        },
        {
          "components": [
            {
              "internalType": "uint256",
              "name": "keyType",
              "type": "uint256"
            },
            {
              "components": [
                {
                  "internalType": "bool",
                  "name": "inheritAccountKey",
                  "type": "bool"
                },
                {
                  "internalType": "address",
                  "name": "contractId",
                  "type": "address"
                },
                {
                  "internalType": "bytes",
                  "name": "ed25519",
                  "type": "bytes"
                },
                {
                  "internalType": "bytes",
                  "name": "ECDSA_secp256k1",
                  "type": "bytes"
                },
                {
                  "internalType": "address",
                  "name": "delegatableContractId",
                  "type": "address"
                }
              ],
              "internalType": "struct IHederaTokenService.KeyValue",
              "name": "key",
              "type": "tuple"
            }
          ],
          "internalType": "struct IHederaTokenService.TokenKey[]",
          "name": "keys",
          "type": "tuple[]"
        }
      ],
      "name": "delegateUpdateTokenKeysPublic",
      "outputs": [
        {
          "internalType": "int64",
          "name": "responseCode",
          "type": "int64"
        }
      ],
      "stateMutability": "nonpayable",
      "type": "function"
    },
    {
      "inputs": [
        {
          "internalType": "address",
          "name": "token",
          "type": "address"
        },
        {
          "internalType": "address",
          "name": "account",
          "type": "address"
        },
        {
          "internalType": "uint32",
          "name": "amount",
          "type": "uint32"
        }
      ],
      "name": "delegateWipeTokenAccountPublic",
      "outputs": [
        {
          "internalType": "int256",
          "name": "responseCode",
          "type": "int256"
        }
      ],
      "stateMutability": "nonpayable",
      "type": "function"
    },
    {
      "inputs": [
        {
          "internalType": "address",
          "name": "token",
          "type": "address"
        }
      ],
      "name": "deleteTokenPublic",
      "outputs": [
        {
          "internalType": "int256",
          "name": "responseCode",
          "type": "int256"
        }
      ],
      "stateMutability": "nonpayable",
      "type": "function"
    },
    {
      "inputs": [
        {
          "internalType": "address",
          "name": "account",
          "type": "address"
        },
        {
          "internalType": "address",
          "name": "token",
          "type": "address"
        }
      ],
      "name": "dissociateTokenPublic",
      "outputs": [
        {
          "internalType": "int256",
          "name": "responseCode",
          "type": "int256"
        }
      ],
      "stateMutability": "nonpayable",
      "type": "function"
    },
    {
      "inputs": [
        {
          "internalType": "address",
          "name": "account",
          "type": "address"
        },
        {
          "internalType": "address[]",
          "name": "tokens",
          "type": "address[]"
        }
      ],
      "name": "dissociateTokensPublic",
      "outputs": [
        {
          "internalType": "int256",
          "name": "responseCode",
          "type": "int256"
        }
      ],
      "stateMutability": "nonpayable",
      "type": "function"
    },
    {
      "inputs": [
        {
          "internalType": "address",
          "name": "token",
          "type": "address"
        },
        {
          "internalType": "address",
          "name": "account",
          "type": "address"
        }
      ],
      "name": "freezeTokenPublic",
      "outputs": [
        {
          "internalType": "int256",
          "name": "responseCode",
          "type": "int256"
        }
      ],
      "stateMutability": "nonpayable",
      "type": "function"
    },
    {
      "inputs": [
        {
          "internalType": "address",
          "name": "token",
          "type": "address"
        }
      ],
      "name": "pauseTokenPublic",
      "outputs": [
        {
          "internalType": "int256",
          "name": "responseCode",
          "type": "int256"
        }
      ],
      "stateMutability": "nonpayable",
      "type": "function"
    },
    {
      "inputs": [
        {
          "internalType": "address",
          "name": "token",
          "type": "address"
        },
        {
          "internalType": "address",
          "name": "account",
          "type": "address"
        }
      ],
      "name": "revokeTokenKycPublic",
      "outputs": [
        {
          "internalType": "int64",
          "name": "responseCode",
          "type": "int64"
        }
      ],
      "stateMutability": "nonpayable",
      "type": "function"
    },
    {
      "inputs": [
        {
          "internalType": "address",
          "name": "token",
          "type": "address"
        },
        {
          "internalType": "address",
          "name": "operator",
          "type": "address"
        },
        {
          "internalType": "bool",
          "name": "approved",
          "type": "bool"
        }
      ],
      "name": "setApprovalForAllPublic",
      "outputs": [
        {
          "internalType": "int256",
          "name": "responseCode",
          "type": "int256"
        }
      ],
      "stateMutability": "nonpayable",
      "type": "function"
    },
    {
      "inputs": [
        {
          "internalType": "address",
          "name": "token",
          "type": "address"
        },
        {
          "internalType": "address",
          "name": "from",
          "type": "address"
        },
        {
          "internalType": "address",
          "name": "to",
          "type": "address"
        },
        {
          "internalType": "uint256",
          "name": "amount",
          "type": "uint256"
        }
      ],
      "name": "transferFrom",
      "outputs": [
        {
          "internalType": "int64",
          "name": "responseCode",
          "type": "int64"
        }
      ],
      "stateMutability": "nonpayable",
      "type": "function"
    },
    {
      "inputs": [
        {
          "internalType": "address",
          "name": "token",
          "type": "address"
        },
        {
          "internalType": "address",
          "name": "from",
          "type": "address"
        },
        {
          "internalType": "address",
          "name": "to",
          "type": "address"
        },
        {
          "internalType": "uint256",
          "name": "serialNumber",
          "type": "uint256"
        }
      ],
      "name": "transferFromNFT",
      "outputs": [
        {
          "internalType": "int64",
          "name": "responseCode",
          "type": "int64"
        }
      ],
      "stateMutability": "nonpayable",
      "type": "function"
    },
    {
      "inputs": [
        {
          "internalType": "address",
          "name": "token",
          "type": "address"
        },
        {
          "internalType": "address",
          "name": "account",
          "type": "address"
        }
      ],
      "name": "unfreezeTokenPublic",
      "outputs": [
        {
          "internalType": "int256",
          "name": "responseCode",
          "type": "int256"
        }
      ],
      "stateMutability": "nonpayable",
      "type": "function"
    },
    {
      "inputs": [
        {
          "internalType": "address",
          "name": "token",
          "type": "address"
        }
      ],
      "name": "unpauseTokenPublic",
      "outputs": [
        {
          "internalType": "int256",
          "name": "responseCode",
          "type": "int256"
        }
      ],
      "stateMutability": "nonpayable",
      "type": "function"
    },
    {
      "inputs": [
        {
          "internalType": "address",
          "name": "token",
          "type": "address"
        },
        {
          "components": [
            {
              "internalType": "uint32",
              "name": "second",
              "type": "uint32"
            },
            {
              "internalType": "address",
              "name": "autoRenewAccount",
              "type": "address"
            },
            {
              "internalType": "uint32",
              "name": "autoRenewPeriod",
              "type": "uint32"
            }
          ],
          "internalType": "struct IHederaTokenService.Expiry",
          "name": "expiryInfo",
          "type": "tuple"
        }
      ],
      "name": "updateTokenExpiryInfoPublic",
      "outputs": [
        {
          "internalType": "int256",
          "name": "responseCode",
          "type": "int256"
        }
      ],
      "stateMutability": "nonpayable",
      "type": "function"
    },
    {
      "inputs": [
        {
          "internalType": "address",
          "name": "token",
          "type": "address"
        },
        {
          "components": [
            {
              "internalType": "string",
              "name": "name",
              "type": "string"
            },
            {
              "internalType": "string",
              "name": "symbol",
              "type": "string"
            },
            {
              "internalType": "address",
              "name": "treasury",
              "type": "address"
            },
            {
              "internalType": "string",
              "name": "memo",
              "type": "string"
            },
            {
              "internalType": "bool",
              "name": "tokenSupplyType",
              "type": "bool"
            },
            {
              "internalType": "int64",
              "name": "maxSupply",
              "type": "int64"
            },
            {
              "internalType": "bool",
              "name": "freezeDefault",
              "type": "bool"
            },
            {
              "components": [
                {
                  "internalType": "uint256",
                  "name": "keyType",
                  "type": "uint256"
                },
                {
                  "components": [
                    {
                      "internalType": "bool",
                      "name": "inheritAccountKey",
                      "type": "bool"
                    },
                    {
                      "internalType": "address",
                      "name": "contractId",
                      "type": "address"
                    },
                    {
                      "internalType": "bytes",
                      "name": "ed25519",
                      "type": "bytes"
                    },
                    {
                      "internalType": "bytes",
                      "name": "ECDSA_secp256k1",
                      "type": "bytes"
                    },
                    {
                      "internalType": "address",
                      "name": "delegatableContractId",
                      "type": "address"
                    }
                  ],
                  "internalType": "struct IHederaTokenService.KeyValue",
                  "name": "key",
                  "type": "tuple"
                }
              ],
              "internalType": "struct IHederaTokenService.TokenKey[]",
              "name": "tokenKeys",
              "type": "tuple[]"
            },
            {
              "components": [
                {
                  "internalType": "uint32",
                  "name": "second",
                  "type": "uint32"
                },
                {
                  "internalType": "address",
                  "name": "autoRenewAccount",
                  "type": "address"
                },
                {
                  "internalType": "uint32",
                  "name": "autoRenewPeriod",
                  "type": "uint32"
                }
              ],
              "internalType": "struct IHederaTokenService.Expiry",
              "name": "expiry",
              "type": "tuple"
            }
          ],
          "internalType": "struct IHederaTokenService.HederaToken",
          "name": "tokenInfo",
          "type": "tuple"
        }
      ],
      "name": "updateTokenInfoPublic",
      "outputs": [
        {
          "internalType": "int256",
          "name": "responseCode",
          "type": "int256"
        }
      ],
      "stateMutability": "nonpayable",
      "type": "function"
    },
    {
      "inputs": [
        {
          "internalType": "address",
          "name": "token",
          "type": "address"
        },
        {
          "components": [
            {
              "internalType": "uint256",
              "name": "keyType",
              "type": "uint256"
            },
            {
              "components": [
                {
                  "internalType": "bool",
                  "name": "inheritAccountKey",
                  "type": "bool"
                },
                {
                  "internalType": "address",
                  "name": "contractId",
                  "type": "address"
                },
                {
                  "internalType": "bytes",
                  "name": "ed25519",
                  "type": "bytes"
                },
                {
                  "internalType": "bytes",
                  "name": "ECDSA_secp256k1",
                  "type": "bytes"
                },
                {
                  "internalType": "address",
                  "name": "delegatableContractId",
                  "type": "address"
                }
              ],
              "internalType": "struct IHederaTokenService.KeyValue",
              "name": "key",
              "type": "tuple"
            }
          ],
          "internalType": "struct IHederaTokenService.TokenKey[]",
          "name": "keys",
          "type": "tuple[]"
        }
      ],
      "name": "updateTokenKeysPublic",
      "outputs": [
        {
          "internalType": "int64",
          "name": "responseCode",
          "type": "int64"
        }
      ],
      "stateMutability": "nonpayable",
      "type": "function"
    },
    {
      "inputs": [
        {
          "internalType": "address",
          "name": "token",
          "type": "address"
        },
        {
          "internalType": "address",
          "name": "account",
          "type": "address"
        },
        {
          "internalType": "int64[]",
          "name": "serialNumbers",
          "type": "int64[]"
        }
      ],
      "name": "wipeTokenAccountNFTPublic",
      "outputs": [
        {
          "internalType": "int256",
          "name": "responseCode",
          "type": "int256"
        }
      ],
      "stateMutability": "nonpayable",
      "type": "function"
    },
    {
      "inputs": [
        {
          "internalType": "address",
          "name": "token",
          "type": "address"
        },
        {
          "internalType": "address",
          "name": "account",
          "type": "address"
        },
        {
          "internalType": "uint32",
          "name": "amount",
          "type": "uint32"
        }
      ],
      "name": "wipeTokenAccountPublic",
      "outputs": [
        {
          "internalType": "int256",
          "name": "responseCode",
          "type": "int256"
        }
      ],
      "stateMutability": "nonpayable",
      "type": "function"
    }
  ],
  "bytecode": "0x608060405234801561001057600080fd5b50600160208181527fa6eef7e35abe7026729641147f7915573c7e97b47efa546f5f6e3230263bcb499190915560027fcc69885fda6bcc1a4ace058b4a62bf5e179ea78fd58a1ccd71c22cc9b688792f5560047fd9d16d34ffb15ba3a3d852f0d403e2ce1d691fb54de27ac87cd2f993f3ec330f5560087f7dfe757ecd65cbd7922a9c0161e935dd7fdbcc0e999689c7d31633896b1fc60b5560107fedc95719e9a3b28dd8e80877cb5880a9be7de1a13fc8b05e7999683b6b567643557fe2689cd4a84e23ad2f564004f1c9013e9589d260bde6380aba3ca7e09e4df40c55600660005260407f8f331abe73332f95a25873e8b430885974c0409691f89d643119a11623a7924a55611eeb806101276000396000f3fe608060405234801561001057600080fd5b50600436106101b75760003560e01c80637d3e5da8116100f9578063df6c06f511610097578063f25b120011610071578063f25b120014610397578063f7be3425146103aa578063f848fec4146103bd578063fa88f953146103d057600080fd5b8063df6c06f51461035e578063eac6f3fe14610371578063eee55ac81461038457600080fd5b8063a3812502116100d3578063a381250214610312578063b26d33cb14610325578063ba4cd46914610338578063d92ac2481461034b57600080fd5b80637d3e5da8146102d95780639b23d3d9146102ec578063a345f7bd146102ff57600080fd5b80632b256ec8116101665780632eecbca3116101405780632eecbca31461028d5780632f13d66b146102a05780634d8f27c9146102b357806356af8403146102c657600080fd5b80632b256ec8146102545780632c5c3a48146102675780632d73bb2e1461027a57600080fd5b806311e1fc071161019757806311e1fc071461021b57806315dacbea1461022e5780632abf6c551461024157600080fd5b8062d8d04b146101bc578062ed61f8146101e7578063106360d614610208575b600080fd5b6101cf6101ca366004611503565b610401565b60405160079190910b81526020015b60405180910390f35b6101fa6101f5366004611551565b61044c565b6040519081526020016101de565b6101fa610216366004611584565b610491565b6101cf61022936600461159f565b61050c565b6101cf61023c36600461159f565b6105fe565b6101fa61024f3660046115ea565b6106ba565b6101fa610262366004611584565b6106e7565b6101fa610275366004611551565b610759565b6101fa610288366004611551565b610765565b6101cf61029b366004611551565b610771565b6101fa6102ae36600461172a565b61077d565b6101cf6102c1366004611503565b610789565b6101fa6102d43660046118d2565b610795565b6101fa6102e7366004611551565b6107df565b6101cf6102fa36600461159f565b6107eb565b6101fa61030d366004611584565b610830565b6101fa610320366004611930565b610876565b6101fa610333366004611551565b610883565b6101fa610346366004611584565b61088f565b6101fa610359366004611930565b61089a565b6101fa61036c366004611973565b6108a7565b6101cf61037f36600461159f565b6108b4565b6101fa6103923660046119af565b6108f9565b6101fa6103a53660046119da565b610905565b6101fa6103b8366004611584565b610912565b6101fa6103cb366004611973565b61091d565b6103e36103de366004611a2d565b61092a565b6040805192835267ffffffffffffffff9091166020830152016101de565b600061040d8383610973565b604051600782900b8152909150600080516020611e968339815191529060200160405180910390a1600781900b60161461044657600080fd5b92915050565b60006104588383610a4e565b60070b9050600080516020611e968339815191528160405161047c91815260200190565b60405180910390a16016811461044657600080fd5b600061049c82610a84565b9050600080516020611e96833981519152816040516104bd91815260200190565b60405180910390a1601681146104d257600080fd5b604051600181527f319ab7084208e4afa38c6e6ff7aea9587439f2e4700746f4c7d425fea17426d2906020015b60405180910390a1919050565b6040516001600160a01b038581166024830152848116604483015283166064820152608481018290526000908190819061016790639b23d3d960e01b9060a4015b60408051601f198184030181529181526020820180516001600160e01b03166001600160e01b031990941693909317909252905161058b9190611a8b565b600060405180830381855af49150503d80600081146105c6576040519150601f19603f3d011682016040523d82523d6000602084013e6105cb565b606091505b5091509150816105dc5760156105f0565b808060200190518101906105f09190611ab9565b60030b979650505050505050565b6040516001600160a01b038581166024830152848116604483015283166064820152608481018290526000908190819061016790630aed65f560e11b9060a4015b60408051601f198184030181529181526020820180516001600160e01b03166001600160e01b031990941693909317909252905161067d9190611a8b565b6000604051808303816000865af19150503d80600081146105c6576040519150601f19603f3d011682016040523d82523d6000602084013e6105cb565b60006106c68383610b5c565b9050600080516020611e968339815191528160405161047c91815260200190565b60006106f282610c03565b9050600080516020611e968339815191528160405161071391815260200190565b60405180910390a16016811461072857600080fd5b604051600181527f0c9c765845f4d139956bb8fc8decb2eec6093c9c608b809641b16054b29f0e13906020016104ff565b60006104588383610ca8565b60006104588383610cde565b600061040d8383610d14565b60006106c68383610d4a565b600061040d8383610d76565b60006107a2848484610da2565b9050600080516020611e96833981519152816040516107c391815260200190565b60405180910390a1601681146107d857600080fd5b9392505050565b60006104588383610e82565b6040516001600160a01b038581166024830152848116604483015283166064820152608481018290526000908190819061016790639b23d3d960e01b9060a40161063f565b600061083b82610eb8565b9050600080516020611e968339815191528160405161085c91815260200190565b60405180910390a16016811461087157600080fd5b919050565b60006107a2848484610ee6565b60006106c68383610f8e565b60006106f282610fc4565b60006107a2848484610ff2565b60006107a2848484611034565b6040516001600160a01b038581166024830152848116604483015283166064820152608481018290526000908190819061016790630aed65f560e11b9060a40161054d565b60006106c68383611071565b60006107a284848461109d565b600061049c826110db565b60006107a2848484611109565b600080610938858585611146565b6040518281529193509150600080516020611e968339815191529060200160405180910390a16016821461096b57600080fd5b935093915050565b60008060006101676001600160a01b0316636fc3cbaf60e01b868660405160240161099f929190611bc4565b60408051601f198184030181529181526020820180516001600160e01b03166001600160e01b03199094169390931790925290516109dd9190611a8b565b600060405180830381855af49150503d8060008114610a18576040519150601f19603f3d011682016040523d82523d6000602084013e610a1d565b606091505b509150915081610a2e576015610a42565b80806020019051810190610a429190611ab9565b60030b95945050505050565b6040516001600160a01b0383811660248301528216604482015260009081908190610167906352f9138760e01b9060640161099f565b6040516001600160a01b03821660248201526000908190819061016790633b3bff0f60e01b906044015b60408051601f198184030181529181526020820180516001600160e01b03166001600160e01b0319909416939093179092529051610aec9190611a8b565b600060405180830381855af49150503d8060008114610b27576040519150601f19603f3d011682016040523d82523d6000602084013e610b2c565b606091505b509150915081610b3d576015610b51565b80806020019051810190610b519190611ab9565b60030b949350505050565b60008060006101676001600160a01b03166378b6391860e01b8686604051602401610b88929190611bee565b60408051601f198184030181529181526020820180516001600160e01b03166001600160e01b0319909416939093179092529051610bc69190611a8b565b6000604051808303816000865af19150503d8060008114610a18576040519150601f19603f3d011682016040523d82523d6000602084013e610a1d565b6040516001600160a01b03821660248201526000908190819061016790631f106b4b60e21b906044015b60408051601f198184030181529181526020820180516001600160e01b03166001600160e01b0319909416939093179092529051610c6b9190611a8b565b6000604051808303816000865af19150503d8060008114610b27576040519150601f19603f3d011682016040523d82523d6000602084013e610b2c565b6040516001600160a01b0383811660248301528216604482015260009081908190610167906316e3e16160e21b9060640161099f565b6040516001600160a01b0383811660248301528216604482015260009081908190610167906352f9138760e01b90606401610b88565b6040516001600160a01b03838116602483015282166044820152600090819081906101679063af99c63360e01b90606401610b88565b60008060006101676001600160a01b03166318370d3460e01b8686604051602401610b88929190611c49565b60008060006101676001600160a01b0316636fc3cbaf60e01b8686604051602401610b88929190611bc4565b60008060006101676001600160a01b031663f7f38e2660e01b878787604051602401610dd093929190611db4565b60408051601f198184030181529181526020820180516001600160e01b03166001600160e01b0319909416939093179092529051610e0e9190611a8b565b6000604051808303816000865af19150503d8060008114610e4b576040519150601f19603f3d011682016040523d82523d6000602084013e610e50565b606091505b509150915081610e61576015610e75565b80806020019051810190610e759190611ab9565b60030b9695505050505050565b6040516001600160a01b0383811660248301528216604482015260009081908190610167906316e3e16160e21b90606401610b88565b6040516001600160a01b03821660248201526000908190819061016790637834fb8960e11b90604401610c2d565b604080516001600160a01b0385811660248301528416604482015263ffffffff831660648083019190915282518083039091018152608490910182526020810180516001600160e01b0316639790686d60e01b17905290516000918291829161016791610f539190611a8b565b600060405180830381855af49150503d8060008114610e4b576040519150601f19603f3d011682016040523d82523d6000602084013e610e50565b6040516001600160a01b038381166024830152821660448201526000908190819061016790630132f29d60e31b90606401610b88565b6040516001600160a01b03821660248201526000908190819061016790631f106b4b60e21b90604401610aae565b6040516001600160a01b0384811660248301528316604482015263ffffffff821660648201526000908190819061016790639790686d60e01b90608401610dd0565b6040516001600160a01b038481166024830152831660448201526064810182905260009081908190610167906307336aaf60e41b90608401610dd0565b60008060006101676001600160a01b031663593d6e8260e01b8686604051602401610b88929190611de9565b6040516001600160a01b0384811660248301528316604482015281151560648201526000908190819061016790631b3b02e560e11b90608401610dd0565b6040516001600160a01b03821660248201526000908190819061016790633b3bff0f60e01b90604401610c2d565b6040516001600160a01b0384811660248301528316604482015260648101829052600090819081906101679063e1f21c6760e01b90608401610dd0565b6000806000806101676001600160a01b031663acb9cff960e01b88888860405160240161117593929190611e2c565b60408051601f198184030181529181526020820180516001600160e01b03166001600160e01b03199094169390931790925290516111b39190611a8b565b6000604051808303816000865af19150503d80600081146111f0576040519150601f19603f3d011682016040523d82523d6000602084013e6111f5565b606091505b509150915081611208576015600061121c565b8080602001905181019061121c9190611e5e565b60039190910b9890975095505050505050565b80356001600160a01b038116811461087157600080fd5b634e487b7160e01b600052604160045260246000fd5b6040805190810167ffffffffffffffff8111828210171561127f5761127f611246565b60405290565b60405160a0810167ffffffffffffffff8111828210171561127f5761127f611246565b604051610120810167ffffffffffffffff8111828210171561127f5761127f611246565b604051601f8201601f1916810167ffffffffffffffff811182821017156112f5576112f5611246565b604052919050565b600067ffffffffffffffff82111561131757611317611246565b5060051b60200190565b8035801515811461087157600080fd5b600082601f83011261134257600080fd5b813567ffffffffffffffff81111561135c5761135c611246565b61136f601f8201601f19166020016112cc565b81815284602083860101111561138457600080fd5b816020850160208301376000918101602001919091529392505050565b600082601f8301126113b257600080fd5b813560206113c76113c2836112fd565b6112cc565b82815260059290921b840181019181810190868411156113e657600080fd5b8286015b848110156114f857803567ffffffffffffffff8082111561140a57600080fd5b908801906040601f19838c03810182131561142457600080fd5b61142c61125c565b888501358152828501358481111561144357600080fd5b949094019360a0858e038301121561145b5760008081fd5b611463611285565b9150611470898601611321565b825261147d83860161122f565b89830152606080860135858111156114955760008081fd5b6114a38f8c838a0101611331565b85850152506080935083860135858111156114be5760008081fd5b6114cc8f8c838a0101611331565b8285015250506114de60a0860161122f565b9282019290925281880152855250509183019183016113ea565b509695505050505050565b6000806040838503121561151657600080fd5b61151f8361122f565b9150602083013567ffffffffffffffff81111561153b57600080fd5b611547858286016113a1565b9150509250929050565b6000806040838503121561156457600080fd5b61156d8361122f565b915061157b6020840161122f565b90509250929050565b60006020828403121561159657600080fd5b6107d88261122f565b600080600080608085870312156115b557600080fd5b6115be8561122f565b93506115cc6020860161122f565b92506115da6040860161122f565b9396929550929360600135925050565b600080604083850312156115fd57600080fd5b6116068361122f565b915060208084013567ffffffffffffffff81111561162357600080fd5b8401601f8101861361163457600080fd5b80356116426113c2826112fd565b81815260059190911b8201830190838101908883111561166157600080fd5b928401925b82841015611686576116778461122f565b82529284019290840190611666565b80955050505050509250929050565b8035600781900b811461087157600080fd5b803563ffffffff8116811461087157600080fd5b6000606082840312156116cd57600080fd5b6040516060810181811067ffffffffffffffff821117156116f0576116f0611246565b6040529050806116ff836116a7565b815261170d6020840161122f565b602082015261171e604084016116a7565b60408201525092915050565b6000806040838503121561173d57600080fd5b6117468361122f565b9150602083013567ffffffffffffffff8082111561176357600080fd5b90840190610160828703121561177857600080fd5b6117806112a8565b82358281111561178f57600080fd5b61179b88828601611331565b8252506020830135828111156117b057600080fd5b6117bc88828601611331565b6020830152506117ce6040840161122f565b60408201526060830135828111156117e557600080fd5b6117f188828601611331565b60608301525061180360808401611321565b608082015261181460a08401611695565b60a082015261182560c08401611321565b60c082015260e08301358281111561183c57600080fd5b611848888286016113a1565b60e083015250610100915061185f878385016116bb565b828201528093505050509250929050565b600082601f83011261188157600080fd5b813560206118916113c2836112fd565b82815260059290921b840181019181810190868411156118b057600080fd5b8286015b848110156114f8576118c581611695565b83529183019183016118b4565b6000806000606084860312156118e757600080fd5b6118f08461122f565b92506118fe6020850161122f565b9150604084013567ffffffffffffffff81111561191a57600080fd5b61192686828701611870565b9150509250925092565b60008060006060848603121561194557600080fd5b61194e8461122f565b925061195c6020850161122f565b915061196a604085016116a7565b90509250925092565b60008060006060848603121561198857600080fd5b6119918461122f565b925061199f6020850161122f565b9150604084013590509250925092565b600080608083850312156119c257600080fd5b6119cb8361122f565b915061157b84602085016116bb565b6000806000606084860312156119ef57600080fd5b6119f88461122f565b9250611a066020850161122f565b915061196a60408501611321565b67ffffffffffffffff81168114611a2a57600080fd5b50565b600080600060608486031215611a4257600080fd5b611a4b8461122f565b925060208401356118fe81611a14565b60005b83811015611a76578181015183820152602001611a5e565b83811115611a85576000848401525b50505050565b60008251611a9d818460208701611a5b565b9190910192915050565b8051600381900b811461087157600080fd5b600060208284031215611acb57600080fd5b6107d882611aa7565b60008151808452611aec816020860160208601611a5b565b601f01601f19169290920160200192915050565b600081518084526020808501808196508360051b8101915082860160005b85811015611bb75782840389528151604081518652868201519150808787015281511515818701528682015160606001600160a01b03808316828a015283850151935060a09250608083818b0152611b7960e08b0186611ad4565b928601518a8403603f1901858c0152929450611b958584611ad4565b9501511660c09890980197909752505098850198935090840190600101611b1e565b5091979650505050505050565b6001600160a01b0383168152604060208201526000611be66040830184611b00565b949350505050565b6000604082016001600160a01b0380861684526020604081860152828651808552606087019150828801945060005b81811015611c3b578551851683529483019491830191600101611c1d565b509098975050505050505050565b6001600160a01b038316815260406020820152600082516101606040840152611c766101a0840182611ad4565b90506020840151603f1980858403016060860152611c948383611ad4565b925060408601519150611cb260808601836001600160a01b03169052565b60608601519150808584030160a0860152611ccd8383611ad4565b925060808601519150611ce460c086018315159052565b60a08601519150611cfa60e086018360070b9052565b60c08601519150610100611d118187018415159052565b60e087015192508186850301610120870152611d2d8484611b00565b90870151805163ffffffff90811661014089015260208201516001600160a01b03166101608901526040820151166101808801529093509150611d6d9050565b50949350505050565b600081518084526020808501945080840160005b83811015611da957815160070b87529582019590820190600101611d8a565b509495945050505050565b60006001600160a01b03808616835280851660208401525060606040830152611de06060830184611d76565b95945050505050565b6001600160a01b0383168152608081016107d86020830184805163ffffffff90811683526020808301516001600160a01b03169084015260409182015116910152565b6001600160a01b038416815267ffffffffffffffff83166020820152606060408201526000611de06060830184611d76565b60008060408385031215611e7157600080fd5b611e7a83611aa7565b91506020830151611e8a81611a14565b80915050925092905056fe90a5cf4cffe88b4edbb041cfc7a8a812c48a5ec30b84640fb37690875168e3aaa264697066735822122024d96c85b1baa256569f3f6fcb78051e8850504d6062e3219c34f7e4eb39f82364736f6c63430008090033",
  "linkReferences": {},
  "deployedLinkReferences": {}
}