{
  "_format": "hh-sol-artifact-1",
  "contractName": "ExpiryHelper",
  "sourceName": "contracts/hts-precompile/ExpiryHelper.sol",
  "abi": [
    {
      "inputs": [
        {
          "internalType": "address",
          "name": "token",
          "type": "address"
        }
      ],
      "name": "getTokenExpiryInfo",
      "outputs": [
        {
          "internalType": "int256",
          "name": "responseCode",
          "type": "int256"
        },
        {
          "components": [
            {
              "internalType": "uint32",
              "name": "second",
              "type": "uint32"
            },
            {
              "internalType": "address",
              "name": "autoRenewAccount",
              "type": "address"
            },
            {
              "internalType": "uint32",
              "name": "autoRenewPeriod",
              "type": "uint32"
            }
          ],
          "internalType": "struct IHederaTokenService.Expiry",
          "name": "expiryInfo",
          "type": "tuple"
        }
      ],
      "stateMutability": "nonpayable",
      "type": "function"
    },
    {
      "inputs": [
        {
          "internalType": "address",
          "name": "token",
          "type": "address"
        },
        {
          "internalType": "address",
          "name": "account",
          "type": "address"
        }
      ],
      "name": "grantTokenKyc",
      "outputs": [
        {
          "internalType": "int64",
          "name": "responseCode",
          "type": "int64"
        }
      ],
      "stateMutability": "nonpayable",
      "type": "function"
    },
    {
      "inputs": [
        {
          "internalType": "address",
          "name": "token",
          "type": "address"
        },
        {
          "internalType": "address",
          "name": "account",
          "type": "address"
        }
      ],
      "name": "isKyc",
      "outputs": [
        {
          "internalType": "int64",
          "name": "responseCode",
          "type": "int64"
        },
        {
          "internalType": "bool",
          "name": "kycGranted",
          "type": "bool"
        }
      ],
      "stateMutability": "nonpayable",
      "type": "function"
    },
    {
      "inputs": [
        {
          "internalType": "address",
          "name": "token",
          "type": "address"
        }
      ],
      "name": "pauseToken",
      "outputs": [
        {
          "internalType": "int256",
          "name": "responseCode",
          "type": "int256"
        }
      ],
      "stateMutability": "nonpayable",
      "type": "function"
    },
    {
      "inputs": [
        {
          "internalType": "address",
          "name": "token",
          "type": "address"
        },
        {
          "internalType": "address",
          "name": "account",
          "type": "address"
        }
      ],
      "name": "revokeTokenKyc",
      "outputs": [
        {
          "internalType": "int64",
          "name": "responseCode",
          "type": "int64"
        }
      ],
      "stateMutability": "nonpayable",
      "type": "function"
    },
    {
      "inputs": [
        {
          "internalType": "address",
          "name": "token",
          "type": "address"
        },
        {
          "internalType": "address",
          "name": "from",
          "type": "address"
        },
        {
          "internalType": "address",
          "name": "to",
          "type": "address"
        },
        {
          "internalType": "uint256",
          "name": "amount",
          "type": "uint256"
        }
      ],
      "name": "transferFrom",
      "outputs": [
        {
          "internalType": "int64",
          "name": "responseCode",
          "type": "int64"
        }
      ],
      "stateMutability": "nonpayable",
      "type": "function"
    },
    {
      "inputs": [
        {
          "internalType": "address",
          "name": "token",
          "type": "address"
        },
        {
          "internalType": "address",
          "name": "from",
          "type": "address"
        },
        {
          "internalType": "address",
          "name": "to",
          "type": "address"
        },
        {
          "internalType": "uint256",
          "name": "serialNumber",
          "type": "uint256"
        }
      ],
      "name": "transferFromNFT",
      "outputs": [
        {
          "internalType": "int64",
          "name": "responseCode",
          "type": "int64"
        }
      ],
      "stateMutability": "nonpayable",
      "type": "function"
    },
    {
      "inputs": [
        {
          "internalType": "address",
          "name": "token",
          "type": "address"
        }
      ],
      "name": "unpauseToken",
      "outputs": [
        {
          "internalType": "int256",
          "name": "responseCode",
          "type": "int256"
        }
      ],
      "stateMutability": "nonpayable",
      "type": "function"
    },
    {
      "inputs": [
        {
          "internalType": "address",
          "name": "token",
          "type": "address"
        },
        {
          "components": [
            {
              "internalType": "uint32",
              "name": "second",
              "type": "uint32"
            },
            {
              "internalType": "address",
              "name": "autoRenewAccount",
              "type": "address"
            },
            {
              "internalType": "uint32",
              "name": "autoRenewPeriod",
              "type": "uint32"
            }
          ],
          "internalType": "struct IHederaTokenService.Expiry",
          "name": "expiryInfo",
          "type": "tuple"
        }
      ],
      "name": "updateTokenExpiryInfo",
      "outputs": [
        {
          "internalType": "int256",
          "name": "responseCode",
          "type": "int256"
        }
      ],
      "stateMutability": "nonpayable",
      "type": "function"
    },
    {
      "inputs": [
        {
          "internalType": "address",
          "name": "token",
          "type": "address"
        },
        {
          "components": [
            {
              "internalType": "string",
              "name": "name",
              "type": "string"
            },
            {
              "internalType": "string",
              "name": "symbol",
              "type": "string"
            },
            {
              "internalType": "address",
              "name": "treasury",
              "type": "address"
            },
            {
              "internalType": "string",
              "name": "memo",
              "type": "string"
            },
            {
              "internalType": "bool",
              "name": "tokenSupplyType",
              "type": "bool"
            },
            {
              "internalType": "int64",
              "name": "maxSupply",
              "type": "int64"
            },
            {
              "internalType": "bool",
              "name": "freezeDefault",
              "type": "bool"
            },
            {
              "components": [
                {
                  "internalType": "uint256",
                  "name": "keyType",
                  "type": "uint256"
                },
                {
                  "components": [
                    {
                      "internalType": "bool",
                      "name": "inheritAccountKey",
                      "type": "bool"
                    },
                    {
                      "internalType": "address",
                      "name": "contractId",
                      "type": "address"
                    },
                    {
                      "internalType": "bytes",
                      "name": "ed25519",
                      "type": "bytes"
                    },
                    {
                      "internalType": "bytes",
                      "name": "ECDSA_secp256k1",
                      "type": "bytes"
                    },
                    {
                      "internalType": "address",
                      "name": "delegatableContractId",
                      "type": "address"
                    }
                  ],
                  "internalType": "struct IHederaTokenService.KeyValue",
                  "name": "key",
                  "type": "tuple"
                }
              ],
              "internalType": "struct IHederaTokenService.TokenKey[]",
              "name": "tokenKeys",
              "type": "tuple[]"
            },
            {
              "components": [
                {
                  "internalType": "uint32",
                  "name": "second",
                  "type": "uint32"
                },
                {
                  "internalType": "address",
                  "name": "autoRenewAccount",
                  "type": "address"
                },
                {
                  "internalType": "uint32",
                  "name": "autoRenewPeriod",
                  "type": "uint32"
                }
              ],
              "internalType": "struct IHederaTokenService.Expiry",
              "name": "expiry",
              "type": "tuple"
            }
          ],
          "internalType": "struct IHederaTokenService.HederaToken",
          "name": "tokenInfo",
          "type": "tuple"
        }
      ],
      "name": "updateTokenInfo",
      "outputs": [
        {
          "internalType": "int256",
          "name": "responseCode",
          "type": "int256"
        }
      ],
      "stateMutability": "nonpayable",
      "type": "function"
    }
  ],
  "bytecode": "0x608060405234801561001057600080fd5b50600160208181527fa6eef7e35abe7026729641147f7915573c7e97b47efa546f5f6e3230263bcb499190915560027fcc69885fda6bcc1a4ace058b4a62bf5e179ea78fd58a1ccd71c22cc9b688792f5560047fd9d16d34ffb15ba3a3d852f0d403e2ce1d691fb54de27ac87cd2f993f3ec330f5560087f7dfe757ecd65cbd7922a9c0161e935dd7fdbcc0e999689c7d31633896b1fc60b5560107fedc95719e9a3b28dd8e80877cb5880a9be7de1a13fc8b05e7999683b6b567643557fe2689cd4a84e23ad2f564004f1c9013e9589d260bde6380aba3ca7e09e4df40c55600660005260407f8f331abe73332f95a25873e8b430885974c0409691f89d643119a11623a7924a556110cb806101276000396000f3fe608060405234801561001057600080fd5b506004361061009e5760003560e01c80638f8d7f99116100665780638f8d7f99146101285780639b23d3d91461013b578063af99c6331461014e578063d614cdb814610161578063f2c31ff41461018257600080fd5b806315dacbea146100a357806318370d34146100ce5780633b3bff0f146100ef578063593d6e82146101025780637c41ad2c14610115575b600080fd5b6100b66100b1366004610762565b6101af565b60405160079190910b81526020015b60405180910390f35b6100e16100dc366004610b00565b6102a3565b6040519081526020016100c5565b6100e16100fd366004610c48565b610380565b6100e1610110366004610c6c565b61045a565b6100e1610123366004610c48565b610486565b6100b6610136366004610ca2565b6104b4565b6100b6610149366004610762565b6104ea565b6100b661015c366004610ca2565b61052f565b61017461016f366004610c48565b610565565b6040516100c5929190610cdb565b610195610190366004610ca2565b61066f565b6040805160079390930b83529015156020830152016100c5565b6040516001600160a01b038581166024830152848116604483015283166064820152608481018290526000908190819061016790630aed65f560e11b9060a4015b60408051601f198184030181529181526020820180516001600160e01b03166001600160e01b031990941693909317909252905161022e9190610d45565b6000604051808303816000865af19150503d806000811461026b576040519150601f19603f3d011682016040523d82523d6000602084013e610270565b606091505b509150915081610281576015610295565b808060200190518101906102959190610d73565b60030b979650505050505050565b60008060006101676001600160a01b03166318370d3460e01b86866040516024016102cf929190610e7e565b60408051601f198184030181529181526020820180516001600160e01b03166001600160e01b031990941693909317909252905161030d9190610d45565b6000604051808303816000865af19150503d806000811461034a576040519150601f19603f3d011682016040523d82523d6000602084013e61034f565b606091505b509150915081610360576015610374565b808060200190518101906103749190610d73565b60030b95945050505050565b6040516001600160a01b03821660248201526000908190819061016790633b3bff0f60e01b906044015b60408051601f198184030181529181526020820180516001600160e01b03166001600160e01b03199094169390931790925290516103e89190610d45565b6000604051808303816000865af19150503d8060008114610425576040519150601f19603f3d011682016040523d82523d6000602084013e61042a565b606091505b50915091508161043b57601561044f565b8080602001905181019061044f9190610d73565b60030b949350505050565b60008060006101676001600160a01b031663593d6e8260e01b86866040516024016102cf929190610fab565b6040516001600160a01b03821660248201526000908190819061016790631f106b4b60e21b906044016103aa565b6040516001600160a01b038381166024830152821660448201526000908190819061016790638f8d7f9960e01b906064016102cf565b6040516001600160a01b038581166024830152848116604483015283166064820152608481018290526000908190819061016790639b23d3d960e01b9060a4016101f0565b6040516001600160a01b03838116602483015282166044820152600090819081906101679063af99c63360e01b906064016102cf565b604080516060810182526000808252602080830182905282840182905283516001600160a01b038616602480830191909152855180830390910181526044909101855290810180516001600160e01b0316631ac299b760e31b1790529251909283918291610167916105d79190610d45565b6000604051808303816000865af19150503d8060008114610614576040519150601f19603f3d011682016040523d82523d6000602084013e610619565b606091505b5060408051606081018252600080825260208201819052918101919091529193509150826106495760158161065d565b8180602001905181019061065d9190610fee565b60039190910b97909650945050505050565b604080516001600160a01b038481166024830152831660448083019190915282518083039091018152606490910182526020810180516001600160e01b0316633cb0c7fd60e21b1790529051600091829182918291610167916106d191610d45565b6000604051808303816000865af19150503d806000811461070e576040519150601f19603f3d011682016040523d82523d6000602084013e610713565b606091505b509150915081610726576015600061065d565b8080602001905181019061065d9190611069565b6001600160a01b038116811461074f57600080fd5b50565b803561075d8161073a565b919050565b6000806000806080858703121561077857600080fd5b84356107838161073a565b935060208501356107938161073a565b925060408501356107a38161073a565b9396929550929360600135925050565b634e487b7160e01b600052604160045260246000fd5b6040805190810167ffffffffffffffff811182821017156107ec576107ec6107b3565b60405290565b60405160a0810167ffffffffffffffff811182821017156107ec576107ec6107b3565b6040516060810167ffffffffffffffff811182821017156107ec576107ec6107b3565b604051610120810167ffffffffffffffff811182821017156107ec576107ec6107b3565b604051601f8201601f1916810167ffffffffffffffff81118282101715610885576108856107b3565b604052919050565b600082601f83011261089e57600080fd5b813567ffffffffffffffff8111156108b8576108b86107b3565b6108cb601f8201601f191660200161085c565b8181528460208386010111156108e057600080fd5b816020850160208301376000918101602001919091529392505050565b801515811461074f57600080fd5b803561075d816108fd565b8035600781900b811461075d57600080fd5b600082601f83011261093957600080fd5b8135602067ffffffffffffffff80831115610956576109566107b3565b8260051b61096583820161085c565b938452858101830193838101908886111561097f57600080fd5b84880192505b85831015610a8d5782358481111561099c57600080fd5b88016040601f19828c0381018213156109b457600080fd5b6109bc6107c9565b88840135815282840135888111156109d357600080fd5b939093019260a0848e03830112156109eb5760008081fd5b6109f36107f2565b915088840135610a02816108fd565b825283830135610a118161073a565b828a015260608481013589811115610a295760008081fd5b610a378f8c8389010161088d565b8585015250608093508385013589811115610a525760008081fd5b610a608f8c8389010161088d565b828501525050610a7260a08501610752565b92820192909252818801528352509184019190840190610985565b98975050505050505050565b63ffffffff8116811461074f57600080fd5b600060608284031215610abd57600080fd5b610ac5610815565b90508135610ad281610a99565b81526020820135610ae28161073a565b60208201526040820135610af581610a99565b604082015292915050565b60008060408385031215610b1357600080fd5b8235610b1e8161073a565b9150602083013567ffffffffffffffff80821115610b3b57600080fd5b908401906101608287031215610b5057600080fd5b610b58610838565b823582811115610b6757600080fd5b610b738882860161088d565b825250602083013582811115610b8857600080fd5b610b948882860161088d565b602083015250610ba660408401610752565b6040820152606083013582811115610bbd57600080fd5b610bc98882860161088d565b606083015250610bdb6080840161090b565b6080820152610bec60a08401610916565b60a0820152610bfd60c0840161090b565b60c082015260e083013582811115610c1457600080fd5b610c2088828601610928565b60e0830152506101009150610c3787838501610aab565b828201528093505050509250929050565b600060208284031215610c5a57600080fd5b8135610c658161073a565b9392505050565b60008060808385031215610c7f57600080fd5b8235610c8a8161073a565b9150610c998460208501610aab565b90509250929050565b60008060408385031215610cb557600080fd5b8235610cc08161073a565b91506020830135610cd08161073a565b809150509250929050565b82815260808101610c656020830184805163ffffffff90811683526020808301516001600160a01b03169084015260409182015116910152565b60005b83811015610d30578181015183820152602001610d18565b83811115610d3f576000848401525b50505050565b60008251610d57818460208701610d15565b9190910192915050565b8051600381900b811461075d57600080fd5b600060208284031215610d8557600080fd5b610c6582610d61565b60008151808452610da6816020860160208601610d15565b601f01601f19169290920160200192915050565b600081518084526020808501808196508360051b8101915082860160005b85811015610e715782840389528151604081518652868201519150808787015281511515818701528682015160606001600160a01b03808316828a015283850151935060a09250608083818b0152610e3360e08b0186610d8e565b928601518a8403603f1901858c0152929450610e4f8584610d8e565b9501511660c09890980197909752505098850198935090840190600101610dd8565b5091979650505050505050565b6001600160a01b038316815260406020820152600082516101606040840152610eab6101a0840182610d8e565b90506020840151603f1980858403016060860152610ec98383610d8e565b925060408601519150610ee760808601836001600160a01b03169052565b60608601519150808584030160a0860152610f028383610d8e565b925060808601519150610f1960c086018315159052565b60a08601519150610f2f60e086018360070b9052565b60c08601519150610100610f468187018415159052565b60e087015192508186850301610120870152610f628484610dba565b90870151805163ffffffff90811661014089015260208201516001600160a01b03166101608901526040820151166101808801529093509150610fa29050565b50949350505050565b6001600160a01b038316815260808101610c656020830184805163ffffffff90811683526020808301516001600160a01b03169084015260409182015116910152565b600080828403608081121561100257600080fd5b61100b84610d61565b92506060601f198201121561101f57600080fd5b50611028610815565b602084015161103681610a99565b815260408401516110468161073a565b6020820152606084015161105981610a99565b6040820152919491935090915050565b6000806040838503121561107c57600080fd5b61108583610d61565b91506020830151610cd0816108fd56fea264697066735822122078748652644f942ca699ee6f45db56bc56c4701a79dd906f6198ff1e00f395db64736f6c63430008090033",
  "linkReferences": {},
  "deployedLinkReferences": {}
}