{
  "_format": "hh-sol-artifact-1",
  "contractName": "Concatenation",
  "sourceName": "contracts/solidity/concatenation/Concatenation.sol",
  "abi": [
    {
      "inputs": [
        {
          "internalType": "bytes",
          "name": "first",
          "type": "bytes"
        },
        {
          "internalType": "bytes",
          "name": "second",
          "type": "bytes"
        },
        {
          "internalType": "bytes",
          "name": "third",
          "type": "bytes"
        }
      ],
      "name": "byteConcatenation",
      "outputs": [
        {
          "internalType": "uint256",
          "name": "",
          "type": "uint256"
        }
      ],
      "stateMutability": "pure",
      "type": "function"
    },
    {
      "inputs": [],
      "name": "byteConcatenationEmpty",
      "outputs": [
        {
          "internalType": "bytes",
          "name": "",
          "type": "bytes"
        }
      ],
      "stateMutability": "pure",
      "type": "function"
    },
    {
      "inputs": [
        {
          "internalType": "string",
          "name": "first",
          "type": "string"
        },
        {
          "internalType": "string",
          "name": "second",
          "type": "string"
        },
        {
          "internalType": "string",
          "name": "third",
          "type": "string"
        }
      ],
      "name": "stringConcatenation",
      "outputs": [
        {
          "internalType": "string",
          "name": "",
          "type": "string"
        }
      ],
      "stateMutability": "pure",
      "type": "function"
    },
    {
      "inputs": [],
      "name": "stringConcatenationEmpty",
      "outputs": [
        {
          "internalType": "string",
          "name": "",
          "type": "string"
        }
      ],
      "stateMutability": "pure",
      "type": "function"
    }
  ],
  "bytecode": "0x608060405234801561001057600080fd5b50610432806100206000396000f3fe608060405234801561001057600080fd5b506004361061004c5760003560e01c80634e8e02af1461005157806364dff3eb14610077578063abca73ac14610094578063b9ec8c2d14610077575b600080fd5b61006461005f36600461015a565b6100a7565b6040519081526020015b60405180910390f35b6040805160008152602081019091525b60405161006e9190610244565b6100876100a2366004610301565b6100e2565b6000808787878787876040516020016100c596959493929190610389565b60408051808303601f190181529190525198975050505050505050565b60608383836040516020016100f9939291906103b9565b60405160208183030381529060405290509392505050565b60008083601f84011261012357600080fd5b50813567ffffffffffffffff81111561013b57600080fd5b60208301915083602082850101111561015357600080fd5b9250929050565b6000806000806000806060878903121561017357600080fd5b863567ffffffffffffffff8082111561018b57600080fd5b6101978a838b01610111565b909850965060208901359150808211156101b057600080fd5b6101bc8a838b01610111565b909650945060408901359150808211156101d557600080fd5b506101e289828a01610111565b979a9699509497509295939492505050565b60005b8381101561020f5781810151838201526020016101f7565b50506000910152565b600081518084526102308160208601602086016101f4565b601f01601f19169290920160200192915050565b6020815260006102576020830184610218565b9392505050565b634e487b7160e01b600052604160045260246000fd5b600082601f83011261028557600080fd5b813567ffffffffffffffff808211156102a0576102a061025e565b604051601f8301601f19908116603f011681019082821181831017156102c8576102c861025e565b816040528381528660208588010111156102e157600080fd5b836020870160208301376000602085830101528094505050505092915050565b60008060006060848603121561031657600080fd5b833567ffffffffffffffff8082111561032e57600080fd5b61033a87838801610274565b9450602086013591508082111561035057600080fd5b61035c87838801610274565b9350604086013591508082111561037257600080fd5b5061037f86828701610274565b9150509250925092565b85878237600086820160008152858782376000908601908152838582376000930192835250909695505050505050565b600084516103cb8184602089016101f4565b8451908301906103df8183602089016101f4565b84519101906103f28183602088016101f4565b019594505050505056fea2646970667358221220dd6b76d8751094d8b6740e5e45b241e07e29171a9b8b0d6e74dd30d8d05e422c64736f6c63430008170033",
  "linkReferences": {},
  "deployedLinkReferences": {}
}