{
  "_format": "hh-sol-artifact-1",
  "contractName": "ERC2771ForwardTest",
  "sourceName": "contracts/openzeppelin/ERC-2771/ERC2771Forward.sol",
  "abi": [
    {
      "inputs": [
        {
          "internalType": "string",
          "name": "name",
          "type": "string"
        }
      ],
      "stateMutability": "nonpayable",
      "type": "constructor"
    },
    {
      "inputs": [
        {
          "internalType": "address",
          "name": "account",
          "type": "address"
        }
      ],
      "name": "AddressInsufficientBalance",
      "type": "error"
    },
    {
      "inputs": [
        {
          "internalType": "uint48",
          "name": "deadline",
          "type": "uint48"
        }
      ],
      "name": "ERC2771ForwarderExpiredRequest",
      "type": "error"
    },
    {
      "inputs": [
        {
          "internalType": "address",
          "name": "signer",
          "type": "address"
        },
        {
          "internalType": "address",
          "name": "from",
          "type": "address"
        }
      ],
      "name": "ERC2771ForwarderInvalidSigner",
      "type": "error"
    },
    {
      "inputs": [
        {
          "internalType": "uint256",
          "name": "requestedValue",
          "type": "uint256"
        },
        {
          "internalType": "uint256",
          "name": "msgValue",
          "type": "uint256"
        }
      ],
      "name": "ERC2771ForwarderMismatchedValue",
      "type": "error"
    },
    {
      "inputs": [
        {
          "internalType": "address",
          "name": "target",
          "type": "address"
        },
        {
          "internalType": "address",
          "name": "forwarder",
          "type": "address"
        }
      ],
      "name": "ERC2771UntrustfulTarget",
      "type": "error"
    },
    {
      "inputs": [],
      "name": "FailedInnerCall",
      "type": "error"
    },
    {
      "inputs": [
        {
          "internalType": "address",
          "name": "account",
          "type": "address"
        },
        {
          "internalType": "uint256",
          "name": "currentNonce",
          "type": "uint256"
        }
      ],
      "name": "InvalidAccountNonce",
      "type": "error"
    },
    {
      "inputs": [],
      "name": "InvalidShortString",
      "type": "error"
    },
    {
      "inputs": [
        {
          "internalType": "string",
          "name": "str",
          "type": "string"
        }
      ],
      "name": "StringTooLong",
      "type": "error"
    },
    {
      "anonymous": false,
      "inputs": [],
      "name": "EIP712DomainChanged",
      "type": "event"
    },
    {
      "anonymous": false,
      "inputs": [
        {
          "indexed": true,
          "internalType": "address",
          "name": "signer",
          "type": "address"
        },
        {
          "indexed": false,
          "internalType": "uint256",
          "name": "nonce",
          "type": "uint256"
        },
        {
          "indexed": false,
          "internalType": "bool",
          "name": "success",
          "type": "bool"
        }
      ],
      "name": "ExecutedForwardRequest",
      "type": "event"
    },
    {
      "anonymous": false,
      "inputs": [
        {
          "indexed": false,
          "internalType": "bool",
          "name": "",
          "type": "bool"
        },
        {
          "indexed": false,
          "internalType": "bool",
          "name": "",
          "type": "bool"
        },
        {
          "indexed": false,
          "internalType": "bool",
          "name": "",
          "type": "bool"
        },
        {
          "indexed": false,
          "internalType": "address",
          "name": "",
          "type": "address"
        }
      ],
      "name": "TestEvent",
      "type": "event"
    },
    {
      "inputs": [],
      "name": "eip712Domain",
      "outputs": [
        {
          "internalType": "bytes1",
          "name": "fields",
          "type": "bytes1"
        },
        {
          "internalType": "string",
          "name": "name",
          "type": "string"
        },
        {
          "internalType": "string",
          "name": "version",
          "type": "string"
        },
        {
          "internalType": "uint256",
          "name": "chainId",
          "type": "uint256"
        },
        {
          "internalType": "address",
          "name": "verifyingContract",
          "type": "address"
        },
        {
          "internalType": "bytes32",
          "name": "salt",
          "type": "bytes32"
        },
        {
          "internalType": "uint256[]",
          "name": "extensions",
          "type": "uint256[]"
        }
      ],
      "stateMutability": "view",
      "type": "function"
    },
    {
      "inputs": [
        {
          "components": [
            {
              "internalType": "address",
              "name": "from",
              "type": "address"
            },
            {
              "internalType": "address",
              "name": "to",
              "type": "address"
            },
            {
              "internalType": "uint256",
              "name": "value",
              "type": "uint256"
            },
            {
              "internalType": "uint256",
              "name": "gas",
              "type": "uint256"
            },
            {
              "internalType": "uint48",
              "name": "deadline",
              "type": "uint48"
            },
            {
              "internalType": "bytes",
              "name": "data",
              "type": "bytes"
            },
            {
              "internalType": "bytes",
              "name": "signature",
              "type": "bytes"
            }
          ],
          "internalType": "struct ERC2771Forwarder.ForwardRequestData",
          "name": "request",
          "type": "tuple"
        }
      ],
      "name": "execute",
      "outputs": [],
      "stateMutability": "payable",
      "type": "function"
    },
    {
      "inputs": [
        {
          "components": [
            {
              "internalType": "address",
              "name": "from",
              "type": "address"
            },
            {
              "internalType": "address",
              "name": "to",
              "type": "address"
            },
            {
              "internalType": "uint256",
              "name": "value",
              "type": "uint256"
            },
            {
              "internalType": "uint256",
              "name": "gas",
              "type": "uint256"
            },
            {
              "internalType": "uint48",
              "name": "deadline",
              "type": "uint48"
            },
            {
              "internalType": "bytes",
              "name": "data",
              "type": "bytes"
            },
            {
              "internalType": "bytes",
              "name": "signature",
              "type": "bytes"
            }
          ],
          "internalType": "struct ERC2771Forwarder.ForwardRequestData[]",
          "name": "requests",
          "type": "tuple[]"
        },
        {
          "internalType": "address payable",
          "name": "refundReceiver",
          "type": "address"
        }
      ],
      "name": "executeBatch",
      "outputs": [],
      "stateMutability": "payable",
      "type": "function"
    },
    {
      "inputs": [],
      "name": "fund",
      "outputs": [],
      "stateMutability": "payable",
      "type": "function"
    },
    {
      "inputs": [],
      "name": "getChainID",
      "outputs": [
        {
          "internalType": "uint256",
          "name": "",
          "type": "uint256"
        }
      ],
      "stateMutability": "view",
      "type": "function"
    },
    {
      "inputs": [
        {
          "internalType": "address",
          "name": "owner",
          "type": "address"
        }
      ],
      "name": "nonces",
      "outputs": [
        {
          "internalType": "uint256",
          "name": "",
          "type": "uint256"
        }
      ],
      "stateMutability": "view",
      "type": "function"
    },
    {
      "inputs": [
        {
          "components": [
            {
              "internalType": "address",
              "name": "from",
              "type": "address"
            },
            {
              "internalType": "address",
              "name": "to",
              "type": "address"
            },
            {
              "internalType": "uint256",
              "name": "value",
              "type": "uint256"
            },
            {
              "internalType": "uint256",
              "name": "gas",
              "type": "uint256"
            },
            {
              "internalType": "uint48",
              "name": "deadline",
              "type": "uint48"
            },
            {
              "internalType": "bytes",
              "name": "data",
              "type": "bytes"
            },
            {
              "internalType": "bytes",
              "name": "signature",
              "type": "bytes"
            }
          ],
          "internalType": "struct ERC2771Forwarder.ForwardRequestData",
          "name": "request",
          "type": "tuple"
        }
      ],
      "name": "validateTest",
      "outputs": [
        {
          "internalType": "bool",
          "name": "",
          "type": "bool"
        },
        {
          "internalType": "bool",
          "name": "",
          "type": "bool"
        },
        {
          "internalType": "bool",
          "name": "",
          "type": "bool"
        },
        {
          "internalType": "address",
          "name": "",
          "type": "address"
        }
      ],
      "stateMutability": "nonpayable",
      "type": "function"
    },
    {
      "inputs": [
        {
          "components": [
            {
              "internalType": "address",
              "name": "from",
              "type": "address"
            },
            {
              "internalType": "address",
              "name": "to",
              "type": "address"
            },
            {
              "internalType": "uint256",
              "name": "value",
              "type": "uint256"
            },
            {
              "internalType": "uint256",
              "name": "gas",
              "type": "uint256"
            },
            {
              "internalType": "uint48",
              "name": "deadline",
              "type": "uint48"
            },
            {
              "internalType": "bytes",
              "name": "data",
              "type": "bytes"
            },
            {
              "internalType": "bytes",
              "name": "signature",
              "type": "bytes"
            }
          ],
          "internalType": "struct ERC2771Forwarder.ForwardRequestData",
          "name": "request",
          "type": "tuple"
        }
      ],
      "name": "verify",
      "outputs": [
        {
          "internalType": "bool",
          "name": "",
          "type": "bool"
        }
      ],
      "stateMutability": "view",
      "type": "function"
    }
  ],
  "bytecode": "0x6101606040523480156200001257600080fd5b5060405162001534380380620015348339810160408190526200003591620001d0565b6040805180820190915260018152603160f81b6020820152819081906200005e8260006200010f565b610120526200006f8160016200010f565b61014052815160208084019190912060e052815190820120610100524660a052620000fd60e05161010051604080517f8b73c3c69bb8fe3d512ecc4cf759cc79239f7b179b0ffacaa9a75d522b39400f60208201529081019290925260608201524660808201523060a082015260009060c00160405160208183030381529060405280519060200120905090565b60805250503060c052506200043f9050565b60006020835110156200012f57620001278362000148565b905062000142565b816200013c848262000319565b5060ff90505b92915050565b600080829050601f815111156200017f578260405163305a27a960e01b8152600401620001769190620003e5565b60405180910390fd5b80516200018c826200041a565b179392505050565b634e487b7160e01b600052604160045260246000fd5b60005b83811015620001c7578181015183820152602001620001ad565b50506000910152565b600060208284031215620001e357600080fd5b81516001600160401b0380821115620001fb57600080fd5b818401915084601f8301126200021057600080fd5b81518181111562000225576200022562000194565b604051601f8201601f19908116603f0116810190838211818310171562000250576200025062000194565b816040528281528760208487010111156200026a57600080fd5b6200027d836020830160208801620001aa565b979650505050505050565b600181811c908216806200029d57607f821691505b602082108103620002be57634e487b7160e01b600052602260045260246000fd5b50919050565b601f82111562000314576000816000526020600020601f850160051c81016020861015620002ef5750805b601f850160051c820191505b818110156200031057828155600101620002fb565b5050505b505050565b81516001600160401b0381111562000335576200033562000194565b6200034d8162000346845462000288565b84620002c4565b602080601f8311600181146200038557600084156200036c5750858301515b600019600386901b1c1916600185901b17855562000310565b600085815260208120601f198616915b82811015620003b65788860151825594840194600190910190840162000395565b5085821015620003d55787850151600019600388901b60f8161c191681555b5050505050600190811b01905550565b602081526000825180602084015262000406816040850160208701620001aa565b601f01601f19169190910160400192915050565b80516020808301519190811015620002be5760001960209190910360031b1b16919050565b60805160a05160c05160e05161010051610120516101405161109a6200049a60003960006104c60152600061049401526000610bce01526000610ba601526000610b0101526000610b2b01526000610b55015261109a6000f3fe60806040526004361061007b5760003560e01c8063b60d42881161004e578063b60d428814610130578063c494b8ef14610132578063ccf96b4a14610183578063df905caf1461019657600080fd5b806319d8d38c14610080578063564b81ef146100b55780637ecebe00146100d257806384b0196e14610108575b600080fd5b34801561008c57600080fd5b506100a061009b366004610d16565b6101a9565b60405190151581526020015b60405180910390f35b3480156100c157600080fd5b50465b6040519081526020016100ac565b3480156100de57600080fd5b506100c46100ed366004610d6d565b6001600160a01b031660009081526002602052604090205490565b34801561011457600080fd5b5061011d6101db565b6040516100ac9796959493929190610dd0565b005b34801561013e57600080fd5b5061015261014d366004610d16565b610221565b6040805194151585529215156020850152901515918301919091526001600160a01b031660608201526080016100ac565b610130610191366004610e69565b6102a6565b6101306101a4366004610d16565b6103ad565b6000806000806101b885610408565b509250925092508280156101c95750815b80156101d25750805b95945050505050565b6000606080600080600060606101ef61048d565b6101f76104bf565b60408051600080825260208201909252600f60f81b9b939a50919850469750309650945092509050565b600560035560008080808080808061023889610408565b6040805185151581528415156020820152831515818301526001600160a01b0383166060820152905194985092965090945092507f9e0cc1661775448812a658da511fdbbad20e5771d1b95286d9fd5ad88e6e8455919081900360800190a192989197509550909350915050565b6001600160a01b03811615600080805b85811015610366578686828181106102d0576102d0610eef565b90506020028101906102e29190610f05565b6102f0906040013584610f25565b9250600061032188888481811061030957610309610eef565b905060200281019061031b9190610f05565b866104ec565b90508061035d5787878381811061033a5761033a610eef565b905060200281019061034c9190610f05565b61035a906040013584610f25565b92505b506001016102b6565b50348214610395576040516370647f7960e01b8152600481018390523460248201526044015b60405180910390fd5b80156103a5576103a584826106cf565b505050505050565b806040013534146103dd57604080516370647f7960e01b815290820135600482015234602482015260440161038c565b6103e88160016104ec565b61040557604051630a12f52160e11b815260040160405180910390fd5b50565b60008060008060008061041a8761076b565b90925090506104376104326040890160208a01610d6d565b6108e0565b4261044860a08a0160808b01610f46565b65ffffffffffff16101583801561047c575061046760208a018a610d6d565b6001600160a01b0316836001600160a01b0316145b919750955093509150509193509193565b60606104ba7f00000000000000000000000000000000000000000000000000000000000000006000610972565b905090565b60606104ba7f00000000000000000000000000000000000000000000000000000000000000006001610972565b60008060008060006104fd87610408565b935093509350935085156105c3578361054b576105206040880160208901610d6d565b60405163d2650cd160e01b81526001600160a01b03909116600482015230602482015260440161038c565b826105845761056060a0880160808901610f46565b604051634a777ac560e11b815265ffffffffffff909116600482015260240161038c565b816105c357806105976020890189610d6d565b604051636422d02b60e11b81526001600160a01b0392831660048201529116602482015260440161038c565b8380156105cd5750815b80156105d65750825b156106c5576001600160a01b038116600090815260026020526040812080546001810190915590506060880135600061061560408b0160208c01610d6d565b905060408a0135600061062b60a08d018d610f6e565b61063860208f018f610d6d565b60405160200161064a93929190610fbc565b6040516020818303038152906040529050600080600083516020850186888af19a505a9050610679818e610a1f565b604080518781528c151560208201526001600160a01b038916917f842fb24a83793558587a3dab2be7674da4a51d09c5542d6dd354e5d0ea70813c910160405180910390a25050505050505b5050505092915050565b804710156106f25760405163cd78605960e01b815230600482015260240161038c565b6000826001600160a01b03168260405160006040518083038185875af1925050503d806000811461073f576040519150601f19603f3d011682016040523d82523d6000602084013e610744565b606091505b505090508061076657604051630a12f52160e11b815260040160405180910390fd5b505050565b60008080806108ba61078060c0870187610f6e565b8080601f0160208091040260200160405190810160405280939291908181526020018383808284376000920191909152506108b492507f7f96328b83274ebc7c1cf4f7a3abda602b51a78b7fa1d86a2ce353d75e587cac91506107e8905060208a018a610d6d565b6107f860408b0160208c01610d6d565b60408b013560608c01356108126100ed60208f018f610d6d565b8d60800160208101906108259190610f46565b8e8060a001906108359190610f6e565b604051610843929190610fe2565b6040805191829003822060208301999099526001600160a01b0397881690820152959094166060860152608085019290925260a084015260c083015265ffffffffffff1660e08201526101008101919091526101200160405160208183030381529060405280519060200120610a3b565b90610a68565b50909250905060008160038111156108d4576108d4610ff2565b14959194509092505050565b604051306024820152600090819060440160408051601f19818403018152919052602080820180517bffffffffffffffffffffffffffffffffffffffffffffffffffffffff1663572b6c0560e01b17815282519293506000928392839290918391895afa92503d9150600051905082801561095c575060208210155b80156109685750600081115b9695505050505050565b606060ff831461098c5761098583610ab5565b9050610a19565b81805461099890611008565b80601f01602080910402602001604051908101604052809291908181526020018280546109c490611008565b8015610a115780601f106109e657610100808354040283529160200191610a11565b820191906000526020600020905b8154815290600101906020018083116109f457829003601f168201915b505050505090505b92915050565b610a2e603f6060830135611042565b821015610a3757fe5b5050565b6000610a19610a48610af4565b8360405161190160f01b8152600281019290925260228201526042902090565b60008060008351604103610aa25760208401516040850151606086015160001a610a9488828585610c1f565b955095509550505050610aae565b50508151600091506002905b9250925092565b60606000610ac283610cee565b604080516020808252818301909252919250600091906020820181803683375050509182525060208101929092525090565b6000306001600160a01b037f000000000000000000000000000000000000000000000000000000000000000016148015610b4d57507f000000000000000000000000000000000000000000000000000000000000000046145b15610b7757507f000000000000000000000000000000000000000000000000000000000000000090565b6104ba604080517f8b73c3c69bb8fe3d512ecc4cf759cc79239f7b179b0ffacaa9a75d522b39400f60208201527f0000000000000000000000000000000000000000000000000000000000000000918101919091527f000000000000000000000000000000000000000000000000000000000000000060608201524660808201523060a082015260009060c00160405160208183030381529060405280519060200120905090565b600080807f7fffffffffffffffffffffffffffffff5d576e7357a4501ddfe92f46681b20a0841115610c5a5750600091506003905082610ce4565b604080516000808252602082018084528a905260ff891692820192909252606081018790526080810186905260019060a0016020604051602081039080840390855afa158015610cae573d6000803e3d6000fd5b5050604051601f1901519150506001600160a01b038116610cda57506000925060019150829050610ce4565b9250600091508190505b9450945094915050565b600060ff8216601f811115610a1957604051632cd44ac360e21b815260040160405180910390fd5b600060208284031215610d2857600080fd5b813567ffffffffffffffff811115610d3f57600080fd5b820160e08185031215610d5157600080fd5b9392505050565b6001600160a01b038116811461040557600080fd5b600060208284031215610d7f57600080fd5b8135610d5181610d58565b6000815180845260005b81811015610db057602081850181015186830182015201610d94565b506000602082860101526020601f19601f83011685010191505092915050565b60ff60f81b881681526000602060e06020840152610df160e084018a610d8a565b8381036040850152610e03818a610d8a565b606085018990526001600160a01b038816608086015260a0850187905284810360c08601528551808252602080880193509091019060005b81811015610e5757835183529284019291840191600101610e3b565b50909c9b505050505050505050505050565b600080600060408486031215610e7e57600080fd5b833567ffffffffffffffff80821115610e9657600080fd5b818601915086601f830112610eaa57600080fd5b813581811115610eb957600080fd5b8760208260051b8501011115610ece57600080fd5b60209283019550935050840135610ee481610d58565b809150509250925092565b634e487b7160e01b600052603260045260246000fd5b6000823560de19833603018112610f1b57600080fd5b9190910192915050565b80820180821115610a1957634e487b7160e01b600052601160045260246000fd5b600060208284031215610f5857600080fd5b813565ffffffffffff81168114610d5157600080fd5b6000808335601e19843603018112610f8557600080fd5b83018035915067ffffffffffffffff821115610fa057600080fd5b602001915036819003821315610fb557600080fd5b9250929050565b8284823760609190911b6bffffffffffffffffffffffff19169101908152601401919050565b8183823760009101908152919050565b634e487b7160e01b600052602160045260246000fd5b600181811c9082168061101c57607f821691505b60208210810361103c57634e487b7160e01b600052602260045260246000fd5b50919050565b60008261105f57634e487b7160e01b600052601260045260246000fd5b50049056fea2646970667358221220177adf05ef62878808209ad8a4a041a32be8e210822dd4df392a71ff7ec0734b64736f6c63430008170033",
  "linkReferences": {},
  "deployedLinkReferences": {}
}