{
  "_format": "hh-sol-artifact-1",
  "contractName": "ContextShowcase",
  "sourceName": "contracts/ContextShowcase.sol",
  "abi": [
    {
      "inputs": [
        {
          "internalType": "uint256",
          "name": "value",
          "type": "uint256"
        }
      ],
      "name": "precision",
      "outputs": [],
      "stateMutability": "payable",
      "type": "function"
    }
  ],
  "bytecode": "0x608060405234801561001057600080fd5b5061048b806100206000396000f3fe60806040526004361061001e5760003560e01c806373c9cac714610023575b600080fd5b61003d600480360381019061003891906101ff565b61003f565b005b803410156100505761004f610053565b5b50565b60006103e861beef60405160200161006c92919061024d565b60405160208183030381529060405280519060200120905060005b6103e881101561017b576000604061010083816100a7576100a6610279565b5b060167ffffffffffffffff8111156100c2576100c16102a8565b5b6040519080825280601f01601f1916602001820160405280156100f45781602001600182028036833780820191505090505b50905060005b604081101561014357838160208401015283838260405160200161012093929190610302565b6040516020818303038152906040528051906020012093506020810190506100fa565b5082816040516020016101579291906103b0565b60405160208183030381529060405280519060200120925050806001019050610087565b506000801b81036101c1576040517f08c379a00000000000000000000000000000000000000000000000000000000081526004016101b890610435565b60405180910390fd5b50565b600080fd5b6000819050919050565b6101dc816101c9565b81146101e757600080fd5b50565b6000813590506101f9816101d3565b92915050565b600060208284031215610215576102146101c4565b5b6000610223848285016101ea565b91505092915050565b6000819050919050565b610247610242826101c9565b61022c565b82525050565b60006102598285610236565b6020820191506102698284610236565b6020820191508190509392505050565b7f4e487b7100000000000000000000000000000000000000000000000000000000600052601260045260246000fd5b7f4e487b7100000000000000000000000000000000000000000000000000000000600052604160045260246000fd5b6000819050919050565b6000819050919050565b6102fc6102f7826102d7565b6102e1565b82525050565b600061030e82866102eb565b60208201915061031e8285610236565b60208201915061032e8284610236565b602082019150819050949350505050565b600081519050919050565b600081905092915050565b60005b83811015610373578082015181840152602081019050610358565b60008484015250505050565b600061038a8261033f565b610394818561034a565b93506103a4818560208601610355565b80840191505092915050565b60006103bc82856102eb565b6020820191506103cc828461037f565b91508190509392505050565b600082825260208201905092915050565b7f756e757365640000000000000000000000000000000000000000000000000000600082015250565b600061041f6006836103d8565b915061042a826103e9565b602082019050919050565b6000602082019050818103600083015261044e81610412565b905091905056fea26469706673582212207e84c52babdea22063ceb8ce33284b6bec02b83dc004b8b246e2e9bd3a92ef7064736f6c63430008140033",
  "linkReferences": {},
  "deployedLinkReferences": {}
}