{
  "_format": "hh-sol-artifact-1",
  "contractName": "BlindAuction",
  "sourceName": "contracts/solidity/blind-auction/BlindAuction.sol",
  "abi": [
    {
      "inputs": [
        {
          "internalType": "uint256",
          "name": "biddingTime",
          "type": "uint256"
        },
        {
          "internalType": "uint256",
          "name": "revealTime",
          "type": "uint256"
        },
        {
          "internalType": "address payable",
          "name": "beneficiaryAddress",
          "type": "address"
        }
      ],
      "stateMutability": "nonpayable",
      "type": "constructor"
    },
    {
      "inputs": [],
      "name": "AuctionEndAlreadyCalled",
      "type": "error"
    },
    {
      "inputs": [
        {
          "internalType": "uint256",
          "name": "time",
          "type": "uint256"
        }
      ],
      "name": "TooEarly",
      "type": "error"
    },
    {
      "inputs": [
        {
          "internalType": "uint256",
          "name": "time",
          "type": "uint256"
        }
      ],
      "name": "TooLate",
      "type": "error"
    },
    {
      "anonymous": false,
      "inputs": [
        {
          "indexed": false,
          "internalType": "address",
          "name": "winner",
          "type": "address"
        },
        {
          "indexed": false,
          "internalType": "uint256",
          "name": "highestBid",
          "type": "uint256"
        }
      ],
      "name": "AuctionEnded",
      "type": "event"
    },
    {
      "inputs": [],
      "name": "auctionEnd",
      "outputs": [],
      "stateMutability": "nonpayable",
      "type": "function"
    },
    {
      "inputs": [],
      "name": "beneficiary",
      "outputs": [
        {
          "internalType": "address payable",
          "name": "",
          "type": "address"
        }
      ],
      "stateMutability": "view",
      "type": "function"
    },
    {
      "inputs": [
        {
          "internalType": "bytes32",
          "name": "blindedBid",
          "type": "bytes32"
        }
      ],
      "name": "bid",
      "outputs": [],
      "stateMutability": "payable",
      "type": "function"
    },
    {
      "inputs": [],
      "name": "biddingEnd",
      "outputs": [
        {
          "internalType": "uint256",
          "name": "",
          "type": "uint256"
        }
      ],
      "stateMutability": "view",
      "type": "function"
    },
    {
      "inputs": [
        {
          "internalType": "address",
          "name": "",
          "type": "address"
        },
        {
          "internalType": "uint256",
          "name": "",
          "type": "uint256"
        }
      ],
      "name": "bids",
      "outputs": [
        {
          "internalType": "bytes32",
          "name": "blindedBid",
          "type": "bytes32"
        },
        {
          "internalType": "uint256",
          "name": "deposit",
          "type": "uint256"
        }
      ],
      "stateMutability": "view",
      "type": "function"
    },
    {
      "inputs": [],
      "name": "ended",
      "outputs": [
        {
          "internalType": "bool",
          "name": "",
          "type": "bool"
        }
      ],
      "stateMutability": "view",
      "type": "function"
    },
    {
      "inputs": [],
      "name": "getBalance",
      "outputs": [
        {
          "internalType": "uint256",
          "name": "",
          "type": "uint256"
        }
      ],
      "stateMutability": "view",
      "type": "function"
    },
    {
      "inputs": [
        {
          "internalType": "address",
          "name": "bidderAddress",
          "type": "address"
        }
      ],
      "name": "getBids",
      "outputs": [
        {
          "components": [
            {
              "internalType": "bytes32",
              "name": "blindedBid",
              "type": "bytes32"
            },
            {
              "internalType": "uint256",
              "name": "deposit",
              "type": "uint256"
            }
          ],
          "internalType": "struct BlindAuction.Bid[]",
          "name": "",
          "type": "tuple[]"
        }
      ],
      "stateMutability": "view",
      "type": "function"
    },
    {
      "inputs": [
        {
          "internalType": "address",
          "name": "bidderAddress",
          "type": "address"
        }
      ],
      "name": "getPendingReturns",
      "outputs": [
        {
          "internalType": "uint256",
          "name": "",
          "type": "uint256"
        }
      ],
      "stateMutability": "view",
      "type": "function"
    },
    {
      "inputs": [],
      "name": "highestBid",
      "outputs": [
        {
          "internalType": "uint256",
          "name": "",
          "type": "uint256"
        }
      ],
      "stateMutability": "view",
      "type": "function"
    },
    {
      "inputs": [],
      "name": "highestBidder",
      "outputs": [
        {
          "internalType": "address",
          "name": "",
          "type": "address"
        }
      ],
      "stateMutability": "view",
      "type": "function"
    },
    {
      "inputs": [
        {
          "internalType": "uint256[]",
          "name": "values",
          "type": "uint256[]"
        },
        {
          "internalType": "bool[]",
          "name": "fakes",
          "type": "bool[]"
        },
        {
          "internalType": "bytes32[]",
          "name": "secrets",
          "type": "bytes32[]"
        }
      ],
      "name": "reveal",
      "outputs": [],
      "stateMutability": "nonpayable",
      "type": "function"
    },
    {
      "inputs": [],
      "name": "revealEnd",
      "outputs": [
        {
          "internalType": "uint256",
          "name": "",
          "type": "uint256"
        }
      ],
      "stateMutability": "view",
      "type": "function"
    },
    {
      "inputs": [],
      "name": "withdraw",
      "outputs": [],
      "stateMutability": "nonpayable",
      "type": "function"
    }
  ],
  "bytecode": "0x608060405234801561001057600080fd5b50604051610b2a380380610b2a83398101604081905261002f91610070565b600080546001600160a01b0319166001600160a01b03831617905561005483426100b6565b60018190556100649083906100b6565b600255506100dd915050565b60008060006060848603121561008557600080fd5b83516020850151604086015191945092506001600160a01b03811681146100ab57600080fd5b809150509250925092565b808201808211156100d757634e487b7160e01b600052601160045260246000fd5b92915050565b610a3e806100ec6000396000f3fe6080604052600436106100dd5760003560e01c806383ffda3b1161007f578063957bb1e011610059578063957bb1e0146102535780639dccae8214610266578063a6e6647714610293578063d57bde79146102a957600080fd5b806383ffda3b146101dd578063900f080a1461021357806391f901571461023357600080fd5b80632a24f46c116100bb5780632a24f46c1461016357806338af3eed1461017a5780633ccfd60b146101b2578063423b217f146101c757600080fd5b806301495c1c146100e257806312065fe01461011c57806312fa6feb14610139575b600080fd5b3480156100ee57600080fd5b506101026100fd3660046107e1565b6102bf565b604080519283526020830191909152015b60405180910390f35b34801561012857600080fd5b50475b604051908152602001610113565b34801561014557600080fd5b506003546101539060ff1681565b6040519015158152602001610113565b34801561016f57600080fd5b506101786102fb565b005b34801561018657600080fd5b5060005461019a906001600160a01b031681565b6040516001600160a01b039091168152602001610113565b3480156101be57600080fd5b506101786103e0565b3480156101d357600080fd5b5061012b60015481565b3480156101e957600080fd5b5061012b6101f836600461080b565b6001600160a01b031660009081526007602052604090205490565b34801561021f57600080fd5b5061017861022e366004610879565b610434565b34801561023f57600080fd5b5060055461019a906001600160a01b031681565b610178610261366004610913565b610641565b34801561027257600080fd5b5061028661028136600461080b565b6106ae565b604051610113919061092c565b34801561029f57600080fd5b5061012b60025481565b3480156102b557600080fd5b5061012b60065481565b600460205281600052604060002081815481106102db57600080fd5b600091825260209091206002909102018054600190910154909250905082565b60025480421161032657604051630a8d68c960e21b8152600481018290526024015b60405180910390fd5b60035460ff161561034a57604051630c39fb9f60e31b815260040160405180910390fd5b600554600654604080516001600160a01b03909316835260208301919091527fdaec4582d5d9595688c8c98545fdd1c696d41c6aeaeb636737e84ed2f5c00eda910160405180910390a16003805460ff19166001179055600080546006546040516001600160a01b039092169281156108fc029290818181858888f193505050501580156103dc573d6000803e3d6000fd5b5050565b33600090815260076020526040902054801561043157336000818152600760205260408082208290555183156108fc0291849190818181858888f193505050501580156103dc573d6000803e3d6000fd5b50565b60015480421161045a57604051630a8d68c960e21b81526004810182905260240161031d565b6002548042106104805760405163348f2b4160e11b81526004810182905260240161031d565b3360009081526004602052604090205487811461049c57600080fd5b8581146104a857600080fd5b8381146104b457600080fd5b6000805b82811015610606573360009081526004602052604081208054839081106104e1576104e161097b565b9060005260206000209060020201905060008060008e8e868181106105085761050861097b565b905060200201358d8d878181106105215761052161097b565b90506020020160208101906105369190610991565b8c8c888181106105485761054861097b565b9050602002013592509250925082828260405160200161057e9392919092835290151560f81b6020830152602182015260410190565b604051602081830303815290604052805190602001208460000154146105a757505050506105f4565b60018401546105b690876109c9565b9550811580156105ca575082846001015410155b156105eb576105d93384610737565b156105eb576105e883876109dc565b95505b50506000909155505b806105fe816109ef565b9150506104b8565b50604051339082156108fc029083906000818181858888f19350505050158015610634573d6000803e3d6000fd5b5050505050505050505050565b6001548042106106675760405163348f2b4160e11b81526004810182905260240161031d565b503360009081526004602090815260408083208151808301909252938152348183019081528454600181810187559585529290932090516002909202019081559051910155565b6001600160a01b0381166000908152600460209081526040808320805482518185028101850190935280835260609492939192909184015b8282101561072c578382906000526020600020906002020160405180604001604052908160008201548152602001600182015481525050815260200190600101906106e6565b505050509050919050565b6000600654821161074a575060006107bf565b6005546001600160a01b03161561078e576006546005546001600160a01b0316600090815260076020526040812080549091906107889084906109c9565b90915550505b5060068190556005805473ffffffffffffffffffffffffffffffffffffffff19166001600160a01b03841617905560015b92915050565b80356001600160a01b03811681146107dc57600080fd5b919050565b600080604083850312156107f457600080fd5b6107fd836107c5565b946020939093013593505050565b60006020828403121561081d57600080fd5b610826826107c5565b9392505050565b60008083601f84011261083f57600080fd5b50813567ffffffffffffffff81111561085757600080fd5b6020830191508360208260051b850101111561087257600080fd5b9250929050565b6000806000806000806060878903121561089257600080fd5b863567ffffffffffffffff808211156108aa57600080fd5b6108b68a838b0161082d565b909850965060208901359150808211156108cf57600080fd5b6108db8a838b0161082d565b909650945060408901359150808211156108f457600080fd5b5061090189828a0161082d565b979a9699509497509295939492505050565b60006020828403121561092557600080fd5b5035919050565b602080825282518282018190526000919060409081850190868401855b8281101561096e57815180518552860151868501529284019290850190600101610949565b5091979650505050505050565b634e487b7160e01b600052603260045260246000fd5b6000602082840312156109a357600080fd5b8135801515811461082657600080fd5b634e487b7160e01b600052601160045260246000fd5b808201808211156107bf576107bf6109b3565b818103818111156107bf576107bf6109b3565b600060018201610a0157610a016109b3565b506001019056fea2646970667358221220eb6926d635ddef57e4c0ab2b13d8f9ae77bd802eb81efaf66257135b23f9b35f64736f6c63430008140033",
  "linkReferences": {},
  "deployedLinkReferences": {}
}