{
  "_format": "hh-sol-artifact-1",
  "contractName": "FunctionsParent",
  "sourceName": "contracts/solidity/functions/FunctionsParent.sol",
  "abi": [
    {
      "inputs": [
        {
          "internalType": "address",
          "name": "functionsContractAddr",
          "type": "address"
        }
      ],
      "stateMutability": "nonpayable",
      "type": "constructor"
    },
    {
      "inputs": [],
      "name": "message",
      "outputs": [
        {
          "internalType": "string",
          "name": "",
          "type": "string"
        }
      ],
      "stateMutability": "view",
      "type": "function"
    },
    {
      "inputs": [],
      "name": "testExternal",
      "outputs": [
        {
          "internalType": "uint256",
          "name": "",
          "type": "uint256"
        }
      ],
      "stateMutability": "view",
      "type": "function"
    }
  ],
  "bytecode": "0x608060405234801561001057600080fd5b506040516102e33803806102e383398101604081905261002f91610054565b600180546001600160a01b0319166001600160a01b0392909216919091179055610084565b60006020828403121561006657600080fd5b81516001600160a01b038116811461007d57600080fd5b9392505050565b610250806100936000396000f3fe608060405234801561001057600080fd5b50600436106100365760003560e01c806342e8051c1461003b578063e21f37ce14610056575b600080fd5b61004361006b565b6040519081526020015b60405180910390f35b61005e6100eb565b60405161004d9190610179565b600154604080516322d69db960e21b8152905160009273ffffffffffffffffffffffffffffffffffffffff1691638b5a76e49160048083019260209291908290030181865afa1580156100c2573d6000803e3d6000fd5b505050506040513d601f19601f820116820180604052508101906100e691906101c7565b905090565b600080546100f8906101e0565b80601f0160208091040260200160405190810160405280929190818152602001828054610124906101e0565b80156101715780601f1061014657610100808354040283529160200191610171565b820191906000526020600020905b81548152906001019060200180831161015457829003601f168201915b505050505081565b600060208083528351808285015260005b818110156101a65785810183015185820160400152820161018a565b506000604082860101526040601f19601f8301168501019250505092915050565b6000602082840312156101d957600080fd5b5051919050565b600181811c908216806101f457607f821691505b60208210810361021457634e487b7160e01b600052602260045260246000fd5b5091905056fea2646970667358221220d5f6fca264ae93e9141742dd180ddcb5c7419e70421ac5434c7eb3a97d9d6fa764736f6c63430008140033",
  "linkReferences": {},
  "deployedLinkReferences": {}
}