{
  "_format": "hh-sol-artifact-1",
  "contractName": "PausableTest",
  "sourceName": "contracts/openzeppelin/Pausable/Pausable.sol",
  "abi": [
    {
      "inputs": [],
      "name": "EnforcedPause",
      "type": "error"
    },
    {
      "inputs": [],
      "name": "ExpectedPause",
      "type": "error"
    },
    {
      "anonymous": false,
      "inputs": [
        {
          "indexed": false,
          "internalType": "address",
          "name": "account",
          "type": "address"
        }
      ],
      "name": "Paused",
      "type": "event"
    },
    {
      "anonymous": false,
      "inputs": [
        {
          "indexed": false,
          "internalType": "address",
          "name": "account",
          "type": "address"
        }
      ],
      "name": "Unpaused",
      "type": "event"
    },
    {
      "inputs": [],
      "name": "getPausedMessage",
      "outputs": [
        {
          "internalType": "string",
          "name": "",
          "type": "string"
        }
      ],
      "stateMutability": "view",
      "type": "function"
    },
    {
      "inputs": [],
      "name": "message",
      "outputs": [
        {
          "internalType": "string",
          "name": "",
          "type": "string"
        }
      ],
      "stateMutability": "view",
      "type": "function"
    },
    {
      "inputs": [],
      "name": "pause",
      "outputs": [],
      "stateMutability": "nonpayable",
      "type": "function"
    },
    {
      "inputs": [],
      "name": "paused",
      "outputs": [
        {
          "internalType": "bool",
          "name": "",
          "type": "bool"
        }
      ],
      "stateMutability": "view",
      "type": "function"
    },
    {
      "inputs": [
        {
          "internalType": "string",
          "name": "_message",
          "type": "string"
        }
      ],
      "name": "setPausedMessage",
      "outputs": [],
      "stateMutability": "nonpayable",
      "type": "function"
    },
    {
      "inputs": [],
      "name": "unpause",
      "outputs": [],
      "stateMutability": "nonpayable",
      "type": "function"
    }
  ],
  "bytecode": "0x608060405234801561001057600080fd5b506000805460ff191690556105678061002a6000396000f3fe608060405234801561001057600080fd5b50600436106100725760003560e01c80635c975abb116100505780635c975abb146100b25780638456cb59146100c8578063e21f37ce146100d057600080fd5b80630b29b52d146100775780633f4ba83a1461008c578063424cc42014610094575b600080fd5b61008a61008536600461030f565b6100d8565b005b61008a6100f2565b61009c6100fc565b6040516100a99190610381565b60405180910390f35b60005460ff1660405190151581526020016100a9565b61008a610196565b61009c61019e565b6100e061022c565b60016100ed828483610470565b505050565b6100fa610250565b565b60606101066102af565b60018054610113906103e6565b80601f016020809104026020016040519081016040528092919081815260200182805461013f906103e6565b801561018c5780601f106101615761010080835404028352916020019161018c565b820191906000526020600020905b81548152906001019060200180831161016f57829003601f168201915b5050505050905090565b6100fa6102d2565b600180546101ab906103e6565b80601f01602080910402602001604051908101604052809291908181526020018280546101d7906103e6565b80156102245780601f106101f957610100808354040283529160200191610224565b820191906000526020600020905b81548152906001019060200180831161020757829003601f168201915b505050505081565b60005460ff16156100fa5760405163d93c066560e01b815260040160405180910390fd5b6102586102af565b6000805460ff191690557f5db9ee0a495bf2e6ff9c91a7834c1ba4fdd244a5e8aa4e537bd38aeae4b073aa335b60405173ffffffffffffffffffffffffffffffffffffffff909116815260200160405180910390a1565b60005460ff166100fa57604051638dfc202b60e01b815260040160405180910390fd5b6102da61022c565b6000805460ff191660011790557f62e78cea01bee320cd4e420270b5ea74000d11b0c9f74754ebdbfc544b05a2586102853390565b6000806020838503121561032257600080fd5b823567ffffffffffffffff8082111561033a57600080fd5b818501915085601f83011261034e57600080fd5b81358181111561035d57600080fd5b86602082850101111561036f57600080fd5b60209290920196919550909350505050565b60006020808352835180602085015260005b818110156103af57858101830151858201604001528201610393565b506000604082860101526040601f19601f8301168501019250505092915050565b634e487b7160e01b600052604160045260246000fd5b600181811c908216806103fa57607f821691505b60208210810361041a57634e487b7160e01b600052602260045260246000fd5b50919050565b601f8211156100ed576000816000526020600020601f850160051c810160208610156104495750805b601f850160051c820191505b8181101561046857828155600101610455565b505050505050565b67ffffffffffffffff831115610488576104886103d0565b61049c8361049683546103e6565b83610420565b6000601f8411600181146104d057600085156104b85750838201355b600019600387901b1c1916600186901b17835561052a565b600083815260209020601f19861690835b8281101561050157868501358255602094850194600190920191016104e1565b508682101561051e5760001960f88860031b161c19848701351681555b505060018560011b0183555b505050505056fea264697066735822122009e19e346c8ca74dc09f98f72222c7991d87a827321e8b24597ed6ea0736eb4964736f6c63430008170033",
  "linkReferences": {},
  "deployedLinkReferences": {}
}