{
  "_format": "hh-sol-artifact-1",
  "contractName": "Panic",
  "sourceName": "contracts/solidity/errors/Panic.sol",
  "abi": [
    {
      "inputs": [],
      "stateMutability": "nonpayable",
      "type": "constructor"
    },
    {
      "inputs": [],
      "name": "getSomeArray",
      "outputs": [
        {
          "internalType": "uint256[]",
          "name": "",
          "type": "uint256[]"
        }
      ],
      "stateMutability": "view",
      "type": "function"
    },
    {
      "inputs": [],
      "name": "testPanicError0x01",
      "outputs": [],
      "stateMutability": "pure",
      "type": "function"
    },
    {
      "inputs": [],
      "name": "testPanicError0x11",
      "outputs": [
        {
          "internalType": "uint8",
          "name": "",
          "type": "uint8"
        }
      ],
      "stateMutability": "pure",
      "type": "function"
    },
    {
      "inputs": [],
      "name": "testPanicError0x12",
      "outputs": [
        {
          "internalType": "uint8",
          "name": "",
          "type": "uint8"
        }
      ],
      "stateMutability": "pure",
      "type": "function"
    },
    {
      "inputs": [],
      "name": "testPanicError0x21",
      "outputs": [],
      "stateMutability": "pure",
      "type": "function"
    },
    {
      "inputs": [],
      "name": "testPanicError0x22",
      "outputs": [
        {
          "internalType": "uint8",
          "name": "",
          "type": "uint8"
        }
      ],
      "stateMutability": "pure",
      "type": "function"
    },
    {
      "inputs": [],
      "name": "testPanicError0x31",
      "outputs": [],
      "stateMutability": "nonpayable",
      "type": "function"
    },
    {
      "inputs": [],
      "name": "testPanicError0x32",
      "outputs": [
        {
          "internalType": "uint256",
          "name": "",
          "type": "uint256"
        }
      ],
      "stateMutability": "view",
      "type": "function"
    },
    {
      "inputs": [],
      "name": "testPanicError0x41",
      "outputs": [
        {
          "internalType": "uint256[]",
          "name": "",
          "type": "uint256[]"
        }
      ],
      "stateMutability": "pure",
      "type": "function"
    },
    {
      "inputs": [],
      "name": "testPanicError0x51",
      "outputs": [
        {
          "internalType": "uint256",
          "name": "",
          "type": "uint256"
        }
      ],
      "stateMutability": "pure",
      "type": "function"
    }
  ],
  "bytecode": "0x60e060405260016080818152600260a052600360c0819052610022929190610035565b5034801561002f57600080fd5b5061009a565b828054828255906000526020600020908101928215610075579160200282015b82811115610075578251829060ff16905591602001919060010190610055565b50610081929150610085565b5090565b5b808211156100815760008155600101610086565b6103d8806100a96000396000f3fe608060405234801561001057600080fd5b506004361061009e5760003560e01c8063862c90ec11610066578063862c90ec146100f1578063897c6ac7146100f9578063e03dd0de14610113578063eb84b4841461011b578063f56e98ff1461012257600080fd5b80632b95d7a4146100a35780632e88512c146100ad578063364b5fdf146100b557806347f27952146100d357806372a5984c146100e9575b600080fd5b6100ab61012a565b005b6100ab61013d565b6100bd610147565b6040516100ca919061027d565b60405180910390f35b6100db61019f565b6040519081526020016100ca565b6100db6101ba565b6100bd6101e0565b610101610226565b60405160ff90911681526020016100ca565b6100ab61023d565b6000610101565b610101610266565b6000196000816101386102c1565b505050565b6101456102d7565b565b6060600080548060200260200160405190810160405280929190818152602001828054801561019557602002820191906000526020600020905b815481526020019060010190808311610181575b5050505050905090565b60006102756101b4600560068363ffffffff16565b91505090565b600060016005815481106101d0576101d06102ed565b9060005260206000200154905090565b60606000680100000000000000006101f6610303565b60405190808252806020026020018201604052801561021f578160200160208202803683370190505b5090505090565b600060ff60016102368183610319565b9250505090565b600080548061024e5761024e610346565b60019003818190600052602060002001600090559055565b6000600581610236818361035c565b61014561038c565b6020808252825182820181905260009190848201906040850190845b818110156102b557835183529284019291840191600101610299565b50909695505050505050565b634e487b7160e01b600052602160045260246000fd5b634e487b7160e01b600052600160045260246000fd5b634e487b7160e01b600052603260045260246000fd5b634e487b7160e01b600052604160045260246000fd5b60ff818116838216019081111561034057634e487b7160e01b600052601160045260246000fd5b92915050565b634e487b7160e01b600052603160045260246000fd5b600060ff83168061037d57634e487b7160e01b600052601260045260246000fd5b8060ff84160491505092915050565b634e487b7160e01b600052605160045260246000fdfea26469706673582212201c88b42647fedf957cc4b93b3d6fb8fb478ae6c61d12355996664c166b49631164736f6c63430008140033",
  "linkReferences": {},
  "deployedLinkReferences": {}
}