{
  "_format": "hh-sol-artifact-1",
  "contractName": "Panic",
  "sourceName": "contracts/solidity/errors/Panic.sol",
  "abi": [
    {
      "inputs": [],
      "stateMutability": "nonpayable",
      "type": "constructor"
    },
    {
      "inputs": [],
      "name": "getSomeArray",
      "outputs": [
        {
          "internalType": "uint256[]",
          "name": "",
          "type": "uint256[]"
        }
      ],
      "stateMutability": "view",
      "type": "function"
    },
    {
      "inputs": [],
      "name": "verifyPanicError0x01",
      "outputs": [],
      "stateMutability": "pure",
      "type": "function"
    },
    {
      "inputs": [],
      "name": "verifyPanicError0x11",
      "outputs": [
        {
          "internalType": "uint8",
          "name": "",
          "type": "uint8"
        }
      ],
      "stateMutability": "pure",
      "type": "function"
    },
    {
      "inputs": [],
      "name": "verifyPanicError0x12",
      "outputs": [
        {
          "internalType": "uint8",
          "name": "",
          "type": "uint8"
        }
      ],
      "stateMutability": "pure",
      "type": "function"
    },
    {
      "inputs": [],
      "name": "verifyPanicError0x21",
      "outputs": [],
      "stateMutability": "pure",
      "type": "function"
    },
    {
      "inputs": [],
      "name": "verifyPanicError0x22",
      "outputs": [
        {
          "internalType": "uint8",
          "name": "",
          "type": "uint8"
        }
      ],
      "stateMutability": "pure",
      "type": "function"
    },
    {
      "inputs": [],
      "name": "verifyPanicError0x31",
      "outputs": [],
      "stateMutability": "nonpayable",
      "type": "function"
    },
    {
      "inputs": [],
      "name": "verifyPanicError0x32",
      "outputs": [
        {
          "internalType": "uint256",
          "name": "",
          "type": "uint256"
        }
      ],
      "stateMutability": "view",
      "type": "function"
    },
    {
      "inputs": [],
      "name": "verifyPanicError0x41",
      "outputs": [
        {
          "internalType": "uint256[]",
          "name": "",
          "type": "uint256[]"
        }
      ],
      "stateMutability": "pure",
      "type": "function"
    },
    {
      "inputs": [],
      "name": "verifyPanicError0x51",
      "outputs": [
        {
          "internalType": "uint256",
          "name": "",
          "type": "uint256"
        }
      ],
      "stateMutability": "pure",
      "type": "function"
    }
  ],
  "bytecode": "0x60e060405260016080818152600260a052600360c0819052610022929190610035565b5034801561002f57600080fd5b5061009a565b828054828255906000526020600020908101928215610075579160200282015b82811115610075578251829060ff16905591602001919060010190610055565b50610081929150610085565b5090565b5b808211156100815760008155600101610086565b6103d0806100a96000396000f3fe608060405234801561001057600080fd5b506004361061009e5760003560e01c8063874df31311610066578063874df313146100fa5780638fc08cdd14610102578063aba8d4ae1461010a578063ca6bd12c14610112578063e6d3e9b11461011a57600080fd5b8063165aae99146100a357806326ed5d23146100bd578063364b5fdf146100c7578063428dee91146100dc5780637c64594e146100f2575b600080fd5b60005b60405160ff90911681526020015b60405180910390f35b6100c5610122565b005b6100cf61014b565b6040516100b49190610275565b6100e46101a3565b6040519081526020016100b4565b6100cf6101c9565b6100c561020f565b6100a6610219565b6100c561022f565b6100a6610242565b6100e4610252565b6000805480610133576101336102b9565b60019003818190600052602060002001600090559055565b6060600080548060200260200160405190810160405280929190818152602001828054801561019957602002820191906000526020600020905b815481526020019060010190808311610185575b5050505050905090565b600060016005815481106101b9576101b96102cf565b9060005260206000200154905090565b60606000680100000000000000006101df6102e5565b604051908082528060200260200182016040528015610208578160200160208202803683370190505b5090505090565b6102176102fb565b565b60006005816102288183610311565b9250505090565b60001960008161023d610341565b505050565b600060ff60016102288183610357565b600061026d610267600560068363ffffffff16565b91505090565b610217610384565b6020808252825182820181905260009190848201906040850190845b818110156102ad57835183529284019291840191600101610291565b50909695505050505050565b634e487b7160e01b600052603160045260246000fd5b634e487b7160e01b600052603260045260246000fd5b634e487b7160e01b600052604160045260246000fd5b634e487b7160e01b600052600160045260246000fd5b600060ff83168061033257634e487b7160e01b600052601260045260246000fd5b8060ff84160491505092915050565b634e487b7160e01b600052602160045260246000fd5b60ff818116838216019081111561037e57634e487b7160e01b600052601160045260246000fd5b92915050565b634e487b7160e01b600052605160045260246000fdfea2646970667358221220eb50a2b82925842dc419cec6fccea763e0a69c07c07c2be8984e7648cb30b70864736f6c63430008170033",
  "linkReferences": {},
  "deployedLinkReferences": {}
}