{
  "_format": "hh-sol-artifact-1",
  "contractName": "NonExtDup",
  "sourceName": "contracts/solidity/account/NonExtDup.sol",
  "abi": [
    {
      "inputs": [],
      "name": "ping",
      "outputs": [
        {
          "internalType": "string",
          "name": "",
          "type": "string"
        }
      ],
      "stateMutability": "pure",
      "type": "function"
    }
  ],
  "bytecode": "0x608060405234801561001057600080fd5b5060dc8061001f6000396000f3fe6080604052348015600f57600080fd5b506004361060285760003560e01c80635c36b18614602d575b600080fd5b6040805180820182526004815263706f6e6760e01b6020820152905160519190605a565b60405180910390f35b600060208083528351808285015260005b81811015608557858101830151858201604001528201606b565b506000604082860101526040601f19601f830116850101925050509291505056fea2646970667358221220e90655f0bbc71c96ea7f9ba74e6f98269280b394393670fda4d08b08ab5961d364736f6c63430008140033",
  "linkReferences": {},
  "deployedLinkReferences": {}
}