{
  "_format": "hh-sol-artifact-1",
  "contractName": "TokenCreateContract",
  "sourceName": "contracts/system-contracts/hedera-token-service/examples/token-create/TokenCreateContract.sol",
  "abi": [
    {
      "anonymous": false,
      "inputs": [
        {
          "indexed": false,
          "internalType": "bool",
          "name": "",
          "type": "bool"
        },
        {
          "indexed": false,
          "internalType": "bytes",
          "name": "",
          "type": "bytes"
        }
      ],
      "name": "CallResponseEvent",
      "type": "event"
    },
    {
      "anonymous": false,
      "inputs": [
        {
          "indexed": false,
          "internalType": "address",
          "name": "tokenAddress",
          "type": "address"
        }
      ],
      "name": "CreatedToken",
      "type": "event"
    },
    {
      "anonymous": false,
      "inputs": [
        {
          "indexed": false,
          "internalType": "bool",
          "name": "kycGranted",
          "type": "bool"
        }
      ],
      "name": "KycGranted",
      "type": "event"
    },
    {
      "anonymous": false,
      "inputs": [
        {
          "indexed": false,
          "internalType": "int64",
          "name": "newTotalSupply",
          "type": "int64"
        },
        {
          "indexed": false,
          "internalType": "int64[]",
          "name": "serialNumbers",
          "type": "int64[]"
        }
      ],
      "name": "MintedToken",
      "type": "event"
    },
    {
      "anonymous": false,
      "inputs": [
        {
          "indexed": false,
          "internalType": "int256",
          "name": "responseCode",
          "type": "int256"
        }
      ],
      "name": "ResponseCode",
      "type": "event"
    },
    {
      "inputs": [
        {
          "internalType": "address",
          "name": "token",
          "type": "address"
        },
        {
          "internalType": "address",
          "name": "spender",
          "type": "address"
        },
        {
          "internalType": "uint256",
          "name": "amount",
          "type": "uint256"
        }
      ],
      "name": "approvePublic",
      "outputs": [
        {
          "internalType": "int256",
          "name": "responseCode",
          "type": "int256"
        }
      ],
      "stateMutability": "nonpayable",
      "type": "function"
    },
    {
      "inputs": [
        {
          "internalType": "address",
          "name": "account",
          "type": "address"
        },
        {
          "internalType": "address",
          "name": "token",
          "type": "address"
        }
      ],
      "name": "associateTokenPublic",
      "outputs": [
        {
          "internalType": "int256",
          "name": "responseCode",
          "type": "int256"
        }
      ],
      "stateMutability": "nonpayable",
      "type": "function"
    },
    {
      "inputs": [
        {
          "internalType": "address",
          "name": "account",
          "type": "address"
        },
        {
          "internalType": "address[]",
          "name": "tokens",
          "type": "address[]"
        }
      ],
      "name": "associateTokensPublic",
      "outputs": [
        {
          "internalType": "int256",
          "name": "responseCode",
          "type": "int256"
        }
      ],
      "stateMutability": "nonpayable",
      "type": "function"
    },
    {
      "inputs": [
        {
          "internalType": "address",
          "name": "treasury",
          "type": "address"
        }
      ],
      "name": "createFungibleTokenPublic",
      "outputs": [],
      "stateMutability": "payable",
      "type": "function"
    },
    {
      "inputs": [
        {
          "internalType": "address",
          "name": "treasury",
          "type": "address"
        },
        {
          "internalType": "address",
          "name": "fixedFeeTokenAddress",
          "type": "address"
        }
      ],
      "name": "createFungibleTokenWithCustomFeesPublic",
      "outputs": [],
      "stateMutability": "payable",
      "type": "function"
    },
    {
      "inputs": [
        {
          "internalType": "address",
          "name": "treasury",
          "type": "address"
        },
        {
          "internalType": "bytes",
          "name": "adminKey",
          "type": "bytes"
        },
        {
          "internalType": "int64",
          "name": "amount",
          "type": "int64"
        }
      ],
      "name": "createFungibleTokenWithSECP256K1AdminKeyAssociateAndTransferToAddressPublic",
      "outputs": [],
      "stateMutability": "payable",
      "type": "function"
    },
    {
      "inputs": [
        {
          "internalType": "address",
          "name": "treasury",
          "type": "address"
        },
        {
          "internalType": "bytes",
          "name": "adminKey",
          "type": "bytes"
        }
      ],
      "name": "createFungibleTokenWithSECP256K1AdminKeyPublic",
      "outputs": [
        {
          "internalType": "address",
          "name": "",
          "type": "address"
        }
      ],
      "stateMutability": "payable",
      "type": "function"
    },
    {
      "inputs": [
        {
          "internalType": "address",
          "name": "treasury",
          "type": "address"
        },
        {
          "internalType": "bytes",
          "name": "adminKey",
          "type": "bytes"
        }
      ],
      "name": "createFungibleTokenWithSECP256K1AdminKeyWithoutKYCPublic",
      "outputs": [
        {
          "internalType": "address",
          "name": "",
          "type": "address"
        }
      ],
      "stateMutability": "payable",
      "type": "function"
    },
    {
      "inputs": [
        {
          "internalType": "address",
          "name": "treasury",
          "type": "address"
        }
      ],
      "name": "createNonFungibleTokenPublic",
      "outputs": [],
      "stateMutability": "payable",
      "type": "function"
    },
    {
      "inputs": [
        {
          "internalType": "address",
          "name": "treasury",
          "type": "address"
        },
        {
          "internalType": "address",
          "name": "fixedFeeTokenAddress",
          "type": "address"
        }
      ],
      "name": "createNonFungibleTokenWithCustomFeesPublic",
      "outputs": [],
      "stateMutability": "payable",
      "type": "function"
    },
    {
      "inputs": [
        {
          "internalType": "address",
          "name": "treasury",
          "type": "address"
        },
        {
          "internalType": "bytes",
          "name": "adminKey",
          "type": "bytes"
        }
      ],
      "name": "createNonFungibleTokenWithSECP256K1AdminKeyPublic",
      "outputs": [],
      "stateMutability": "payable",
      "type": "function"
    },
    {
      "inputs": [
        {
          "internalType": "address",
          "name": "treasury",
          "type": "address"
        },
        {
          "internalType": "bytes",
          "name": "adminKey",
          "type": "bytes"
        }
      ],
      "name": "createNonFungibleTokenWithSECP256K1AdminKeyWithoutKYCPublic",
      "outputs": [],
      "stateMutability": "payable",
      "type": "function"
    },
    {
      "inputs": [
        {
          "internalType": "address",
          "name": "token",
          "type": "address"
        },
        {
          "internalType": "address",
          "name": "account",
          "type": "address"
        }
      ],
      "name": "grantTokenKycPublic",
      "outputs": [
        {
          "internalType": "int64",
          "name": "responseCode",
          "type": "int64"
        }
      ],
      "stateMutability": "nonpayable",
      "type": "function"
    },
    {
      "inputs": [
        {
          "internalType": "address",
          "name": "token",
          "type": "address"
        },
        {
          "internalType": "int64",
          "name": "amount",
          "type": "int64"
        },
        {
          "internalType": "bytes[]",
          "name": "metadata",
          "type": "bytes[]"
        }
      ],
      "name": "mintTokenPublic",
      "outputs": [
        {
          "internalType": "int256",
          "name": "responseCode",
          "type": "int256"
        },
        {
          "internalType": "int64",
          "name": "newTotalSupply",
          "type": "int64"
        },
        {
          "internalType": "int64[]",
          "name": "serialNumbers",
          "type": "int64[]"
        }
      ],
      "stateMutability": "nonpayable",
      "type": "function"
    },
    {
      "inputs": [
        {
          "internalType": "address",
          "name": "token",
          "type": "address"
        },
        {
          "internalType": "int64",
          "name": "amount",
          "type": "int64"
        },
        {
          "internalType": "bytes[]",
          "name": "metadata",
          "type": "bytes[]"
        }
      ],
      "name": "mintTokenToAddressPublic",
      "outputs": [
        {
          "internalType": "int256",
          "name": "responseCode",
          "type": "int256"
        },
        {
          "internalType": "int64",
          "name": "newTotalSupply",
          "type": "int64"
        },
        {
          "internalType": "int64[]",
          "name": "serialNumbers",
          "type": "int64[]"
        }
      ],
      "stateMutability": "nonpayable",
      "type": "function"
    },
    {
      "inputs": [
        {
          "internalType": "address",
          "name": "token",
          "type": "address"
        },
        {
          "internalType": "bytes",
          "name": "encodedFunctionSelector",
          "type": "bytes"
        }
      ],
      "name": "redirectForToken",
      "outputs": [
        {
          "internalType": "int256",
          "name": "responseCode",
          "type": "int256"
        },
        {
          "internalType": "bytes",
          "name": "response",
          "type": "bytes"
        }
      ],
      "stateMutability": "nonpayable",
      "type": "function"
    },
    {
      "inputs": [
        {
          "internalType": "address",
          "name": "token",
          "type": "address"
        },
        {
          "internalType": "address",
          "name": "from",
          "type": "address"
        },
        {
          "internalType": "address",
          "name": "to",
          "type": "address"
        },
        {
          "internalType": "uint256",
          "name": "amount",
          "type": "uint256"
        }
      ],
      "name": "transferFrom",
      "outputs": [
        {
          "internalType": "int64",
          "name": "responseCode",
          "type": "int64"
        }
      ],
      "stateMutability": "nonpayable",
      "type": "function"
    },
    {
      "inputs": [
        {
          "internalType": "address",
          "name": "token",
          "type": "address"
        },
        {
          "internalType": "address",
          "name": "from",
          "type": "address"
        },
        {
          "internalType": "address",
          "name": "to",
          "type": "address"
        },
        {
          "internalType": "uint256",
          "name": "serialNumber",
          "type": "uint256"
        }
      ],
      "name": "transferFromNFT",
      "outputs": [
        {
          "internalType": "int64",
          "name": "responseCode",
          "type": "int64"
        }
      ],
      "stateMutability": "nonpayable",
      "type": "function"
    },
    {
      "inputs": [
        {
          "internalType": "address",
          "name": "token",
          "type": "address"
        },
        {
          "components": [
            {
              "internalType": "string",
              "name": "name",
              "type": "string"
            },
            {
              "internalType": "string",
              "name": "symbol",
              "type": "string"
            },
            {
              "internalType": "address",
              "name": "treasury",
              "type": "address"
            },
            {
              "internalType": "string",
              "name": "memo",
              "type": "string"
            },
            {
              "internalType": "bool",
              "name": "tokenSupplyType",
              "type": "bool"
            },
            {
              "internalType": "int64",
              "name": "maxSupply",
              "type": "int64"
            },
            {
              "internalType": "bool",
              "name": "freezeDefault",
              "type": "bool"
            },
            {
              "components": [
                {
                  "internalType": "uint256",
                  "name": "keyType",
                  "type": "uint256"
                },
                {
                  "components": [
                    {
                      "internalType": "bool",
                      "name": "inheritAccountKey",
                      "type": "bool"
                    },
                    {
                      "internalType": "address",
                      "name": "contractId",
                      "type": "address"
                    },
                    {
                      "internalType": "bytes",
                      "name": "ed25519",
                      "type": "bytes"
                    },
                    {
                      "internalType": "bytes",
                      "name": "ECDSA_secp256k1",
                      "type": "bytes"
                    },
                    {
                      "internalType": "address",
                      "name": "delegatableContractId",
                      "type": "address"
                    }
                  ],
                  "internalType": "struct IHederaTokenService.KeyValue",
                  "name": "key",
                  "type": "tuple"
                }
              ],
              "internalType": "struct IHederaTokenService.TokenKey[]",
              "name": "tokenKeys",
              "type": "tuple[]"
            },
            {
              "components": [
                {
                  "internalType": "int64",
                  "name": "second",
                  "type": "int64"
                },
                {
                  "internalType": "address",
                  "name": "autoRenewAccount",
                  "type": "address"
                },
                {
                  "internalType": "int64",
                  "name": "autoRenewPeriod",
                  "type": "int64"
                }
              ],
              "internalType": "struct IHederaTokenService.Expiry",
              "name": "expiry",
              "type": "tuple"
            }
          ],
          "internalType": "struct IHederaTokenService.HederaToken",
          "name": "tokenInfo",
          "type": "tuple"
        }
      ],
      "name": "updateTokenInfoPublic",
      "outputs": [
        {
          "internalType": "int256",
          "name": "responseCode",
          "type": "int256"
        }
      ],
      "stateMutability": "nonpayable",
      "type": "function"
    }
  ],
  "bytecode": "0x60c06040526009608090815268746f6b656e4e616d6560b81b60a0526002906200002a90826200025d565b5060408051808201909152600b81526a1d1bdad95b94de5b589bdb60aa1b60208201526003906200005c90826200025d565b50604080518082019091526004808252636d656d6f60e01b6020830152906200008690826200025d565b50600580546001600160a81b0319166c04a817c80000000002540be400179055348015620000b2575f80fd5b50600160208181527fa6eef7e35abe7026729641147f7915573c7e97b47efa546f5f6e3230263bcb499190915560027fcc69885fda6bcc1a4ace058b4a62bf5e179ea78fd58a1ccd71c22cc9b688792f5560047fd9d16d34ffb15ba3a3d852f0d403e2ce1d691fb54de27ac87cd2f993f3ec330f5560087f7dfe757ecd65cbd7922a9c0161e935dd7fdbcc0e999689c7d31633896b1fc60b5560107fedc95719e9a3b28dd8e80877cb5880a9be7de1a13fc8b05e7999683b6b567643557fe2689cd4a84e23ad2f564004f1c9013e9589d260bde6380aba3ca7e09e4df40c5560065f5260407f8f331abe73332f95a25873e8b430885974c0409691f89d643119a11623a7924a5562000329565b634e487b7160e01b5f52604160045260245ffd5b600181811c90821680620001e857607f821691505b6020821081036200020757634e487b7160e01b5f52602260045260245ffd5b50919050565b601f8211156200025857805f5260205f20601f840160051c81016020851015620002345750805b601f840160051c820191505b8181101562000255575f815560010162000240565b50505b505050565b81516001600160401b03811115620002795762000279620001bf565b62000291816200028a8454620001d3565b846200020d565b602080601f831160018114620002c7575f8415620002af5750858301515b5f19600386901b1c1916600185901b17855562000321565b5f85815260208120601f198616915b82811015620002f757888601518255948401946001909101908401620002d6565b50858210156200031557878501515f19600388901b60f8161c191681555b505060018460011b0185555b505050505050565b613d9480620003375f395ff3fe608060405260043610610110575f3560e01c80638ba74da01161009d578063d85f74c111610062578063d85f74c1146102cf578063de84a779146102e2578063e9f7322614610301578063f4a01e5b14610314578063f848fec414610333575f80fd5b80638ba74da01461024c5780638f74a17b1461025f5780639b23d3d91461028a578063b35d417a146102a9578063cc265af4146102bc575f80fd5b806336348de3116100e357806336348de3146101ac5780634b5c6687146101cb5780634d1769d6146101de578063618dc65e1461020c57806371de370714610239575f80fd5b80630488c939146101145780630fd2601e14610129578063118741e71461016057806315dacbea1461018d575b5f80fd5b610127610122366004612dee565b610352565b005b348015610134575f80fd5b50610148610143366004612dee565b6108a4565b60405160079190910b81526020015b60405180910390f35b34801561016b575f80fd5b5061017f61017a366004612efd565b6108ff565b604051908152602001610157565b348015610198575f80fd5b506101486101a7366004612fac565b610951565b3480156101b7575f80fd5b5061017f6101c636600461325b565b610a40565b6101276101d936600461339b565b610a4b565b3480156101e9575f80fd5b506101fd6101f83660046133b6565b610e73565b604051610157939291906134c3565b348015610217575f80fd5b5061022b6102263660046134ed565b610f31565b604051610157929190613587565b6101276102473660046135a7565b611048565b61012761025a366004612dee565b6111a4565b61027261026d3660046134ed565b6115f8565b6040516001600160a01b039091168152602001610157565b348015610295575f80fd5b506101486102a4366004612fac565b6119d7565b6101276102b73660046134ed565b611a1b565b6101276102ca3660046134ed565b611dde565b6101276102dd36600461339b565b611eb2565b3480156102ed575f80fd5b506101fd6102fc3660046133b6565b612236565b61027261030f3660046134ed565b6122ce565b34801561031f575f80fd5b5061017f61032e366004612dee565b6123a5565b34801561033e575f80fd5b5061017f61034d366004613607565b6123b0565b60408051600580825260c082019092525f91816020015b610371612d6e565b8152602001906001900390816103695790505090506103a15f60065f60405180602001604052805f81525061240a565b815f815181106103b3576103b3613645565b60200260200101819052506103d860015f60405180602001604052805f815250612441565b816001815181106103eb576103eb613645565b602002602001018190525061041060025f60405180602001604052805f815250612441565b8160028151811061042357610423613645565b602002602001018190525061044860045f60405180602001604052805f815250612441565b8160038151811061045b5761045b613645565b602002602001018190525061048060035f60405180602001604052805f815250612441565b8160048151811061049357610493613645565b60200260200101819052505f60405180606001604052805f60070b8152602001856001600160a01b03168152602001627a120060070b81525090505f604051806101200160405280600280546104e890613659565b80601f016020809104026020016040519081016040528092919081815260200182805461051490613659565b801561055f5780601f106105365761010080835404028352916020019161055f565b820191905f5260205f20905b81548152906001019060200180831161054257829003601f168201915b505050505081526020016003805461057690613659565b80601f01602080910402602001604051908101604052809291908181526020018280546105a290613659565b80156105ed5780601f106105c4576101008083540402835291602001916105ed565b820191905f5260205f20905b8154815290600101906020018083116105d057829003601f168201915b50505050508152602001866001600160a01b031681526020016004805461061390613659565b80601f016020809104026020016040519081016040528092919081815260200182805461063f90613659565b801561068a5780601f106106615761010080835404028352916020019161068a565b820191905f5260205f20905b81548152906001019060200180831161066d57829003601f168201915b5050509183525050600160208201819052600554600160401b810460070b6040840152600160a01b900460ff16151560608301526080820186905260a09091018490529091505f9060405190808252806020026020018201604052801561072957816020015b6040805160a0810182525f808252602080830182905292820181905260608201819052608082015282525f199092019101816106f05790505b506040805160a081018252600181526001600160a01b0380891660208301525f928201839052606082018390528916608082015282519293509183919061077257610772613645565b60209081029190910101526040805160018082528183019092525f91816020015b6040805160c0810182525f8082526020808301829052928201819052606082018190526080820181905260a082015282525f199092019101816107935790505090506040518060c00160405280600460070b8152602001600560070b8152602001600a60070b8152602001876001600160a01b031681526020015f15158152602001886001600160a01b0316815250815f8151811061083457610834613645565b60200260200101819052505f8061084c858585612476565b90925090506016821461085d575f80fd5b6040516001600160a01b03821681527f7bb17726df1f3adee8aa00ba8e8bc5d6f182af3bbf77604639cb7f008dd3b4ed9060200160405180910390a1505050505050505050565b5f6108af8383612596565b604051600782900b81529091507f90a5cf4cffe88b4edbb041cfc7a8a812c48a5ec30b84640fb37690875168e3aa9060200160405180910390a1600781900b6016146108f9575f80fd5b92915050565b5f61090a8383612674565b90507f90a5cf4cffe88b4edbb041cfc7a8a812c48a5ec30b84640fb37690875168e3aa8160405161093d91815260200190565b60405180910390a1601681146108f9575f80fd5b6040516001600160a01b038581166024830152848116604483015283166064820152608481018290525f908190819061016790630aed65f560e11b9060a4015b60408051601f198184030181529181526020820180516001600160e01b03166001600160e01b03199094169390931790925290516109cf9190613691565b5f604051808303815f865af19150503d805f8114610a08576040519150601f19603f3d011682016040523d82523d5f602084013e610a0d565b606091505b509150915081610a1e576015610a32565b80806020019051810190610a3291906136bd565b60030b979650505050505050565b5f61090a838361269e565b60408051600680825260e082019092525f91816020015b610a6a612d6e565b815260200190600190039081610a62579050509050610a9a5f60065f60405180602001604052805f81525061240a565b815f81518110610aac57610aac613645565b6020026020010181905250610ad160015f60405180602001604052805f815250612441565b81600181518110610ae457610ae4613645565b6020026020010181905250610b0960025f60405180602001604052805f815250612441565b81600281518110610b1c57610b1c613645565b6020026020010181905250610b4160035f60405180602001604052805f815250612441565b81600381518110610b5457610b54613645565b6020026020010181905250610b7960045f60405180602001604052805f815250612441565b81600481518110610b8c57610b8c613645565b6020026020010181905250610bb160055f60405180602001604052805f815250612441565b81600581518110610bc457610bc4613645565b60200260200101819052505f60405180606001604052805f60070b8152602001846001600160a01b03168152602001627a120060070b81525090505f60405180610120016040528060028054610c1990613659565b80601f0160208091040260200160405190810160405280929190818152602001828054610c4590613659565b8015610c905780601f10610c6757610100808354040283529160200191610c90565b820191905f5260205f20905b815481529060010190602001808311610c7357829003601f168201915b5050505050815260200160038054610ca790613659565b80601f0160208091040260200160405190810160405280929190818152602001828054610cd390613659565b8015610d1e5780601f10610cf557610100808354040283529160200191610d1e565b820191905f5260205f20905b815481529060010190602001808311610d0157829003601f168201915b50505050508152602001856001600160a01b0316815260200160048054610d4490613659565b80601f0160208091040260200160405190810160405280929190818152602001828054610d7090613659565b8015610dbb5780601f10610d9257610100808354040283529160200191610dbb565b820191905f5260205f20905b815481529060010190602001808311610d9e57829003601f168201915b505050918352505060016020820152600554600160401b8104600790810b604084015260ff600160a01b830416151560608401526080830187905260a09092018590529192505f918291610e1e91859181900b90600160801b900460030b6126c8565b909250905060168214610e2f575f80fd5b6040516001600160a01b03821681527f7bb17726df1f3adee8aa00ba8e8bc5d6f182af3bbf77604639cb7f008dd3b4ed9060200160405180910390a1505050505050565b5f806060610e82868686612731565b60405183815292955090935091507f90a5cf4cffe88b4edbb041cfc7a8a812c48a5ec30b84640fb37690875168e3aa9060200160405180910390a160168314610ec9575f80fd5b7ffc6b20023c4bac8ff1c48c1693e0cea5cd3c2163e9c2da41c58f17dd6d9f163d8282604051610efa9291906136d6565b60405180910390a1610f27863033845f81518110610f1a57610f1a613645565b6020026020010151612828565b5093509350939050565b5f60605f806101676001600160a01b031663618dc65e60e01b8787604051602401610f5d9291906136f1565b60408051601f198184030181529181526020820180516001600160e01b03166001600160e01b0319909416939093179092529051610f9b9190613691565b5f604051808303815f865af19150503d805f8114610fd4576040519150601f19603f3d011682016040523d82523d5f602084013e610fd9565b606091505b50915091507f4af4780e06fe8cb9df64b0794fa6f01399af979175bb988e35e0e57e594567bc828260405161100f929190613712565b60405180910390a18161103257601560405180602001604052805f815250611036565b6016815b60039190910b97909650945050505050565b604051638f74a17b60e01b81525f903090638f74a17b90349061107190889088906004016136f1565b60206040518083038185885af115801561108d573d5f803e3d5ffd5b50505050506040513d601f19601f820116820180604052508101906110b2919061372c565b60405163f4a01e5b60e01b81523360048201526001600160a01b0382166024820152909150309063f4a01e5b906044016020604051808303815f875af11580156110fe573d5f803e3d5ffd5b505050506040513d601f19601f820116820180604052508101906111229190613747565b506040516307e9300f60e11b81526001600160a01b03821660048201523360248201523090630fd2601e906044016020604051808303815f875af115801561116c573d5f803e3d5ffd5b505050506040513d601f19601f82011682018060405250810190611190919061375e565b5061119d8130338561286f565b5050505050565b6040805160018082528183019092525f91816020015b6111c2612d6e565b8152602001906001900390816111ba5790505090506111f15f805f60405180602001604052805f81525061240a565b815f8151811061120357611203613645565b60200260200101819052505f60405180606001604052805f60070b8152602001856001600160a01b03168152602001627a120060070b81525090505f6040518061012001604052806002805461125890613659565b80601f016020809104026020016040519081016040528092919081815260200182805461128490613659565b80156112cf5780601f106112a6576101008083540402835291602001916112cf565b820191905f5260205f20905b8154815290600101906020018083116112b257829003601f168201915b50505050508152602001600380546112e690613659565b80601f016020809104026020016040519081016040528092919081815260200182805461131290613659565b801561135d5780601f106113345761010080835404028352916020019161135d565b820191905f5260205f20905b81548152906001019060200180831161134057829003601f168201915b50505050508152602001866001600160a01b031681526020016004805461138390613659565b80601f01602080910402602001604051908101604052809291908181526020018280546113af90613659565b80156113fa5780601f106113d1576101008083540402835291602001916113fa565b820191905f5260205f20905b8154815290600101906020018083116113dd57829003601f168201915b5050509183525050600160208201819052600554600160401b900460070b6040808401919091525f606084018190526080840188905260a09093018690528051828152808201909152929350909190816020015b6040805160a0810182525f808252602080830182905292820181905260608201819052608082015282525f1990920191018161144e5750506040805160a081018252600181526001600160a01b0388811660208301525f92820183905260608201839052891660808201528251929350918391906114ce576114ce613645565b60209081029190910101526040805160018082528183019092525f91816020015b6040805160c0810182525f8082526020808301829052928201819052606082018190526080820181905260a082015282525f199092019101816114ef5750506040805160c0810182526004815260056020820152600a91810191909152601e60608201525f608082018190526001600160a01b038a1660a08301528251929350909183919061158057611580613645565b60209081029190910101526005545f9081906115af908690600781900b90600160801b900460030b87876128b6565b915091507f90a5cf4cffe88b4edbb041cfc7a8a812c48a5ec30b84640fb37690875168e3aa826040516115e491815260200190565b60405180910390a16016821461085d575f80fd5b60408051600680825260e082019092525f91829190816020015b61161a612d6e565b81526020019060019003908161161257905050905061163d5f600660038661240a565b815f8151811061164f5761164f613645565b60200260200101819052506116676001600385612441565b8160018151811061167a5761167a613645565b60200260200101819052506116926002600385612441565b816002815181106116a5576116a5613645565b60200260200101819052506116bd6004600385612441565b816003815181106116d0576116d0613645565b60200260200101819052506116e760038085612441565b816004815181106116fa576116fa613645565b60200260200101819052506117126005600385612441565b8160058151811061172557611725613645565b60200260200101819052505f60405180606001604052805f60070b8152602001866001600160a01b03168152602001627a120060070b81525090505f6040518061012001604052806002805461177a90613659565b80601f01602080910402602001604051908101604052809291908181526020018280546117a690613659565b80156117f15780601f106117c8576101008083540402835291602001916117f1565b820191905f5260205f20905b8154815290600101906020018083116117d457829003601f168201915b505050505081526020016003805461180890613659565b80601f016020809104026020016040519081016040528092919081815260200182805461183490613659565b801561187f5780601f106118565761010080835404028352916020019161187f565b820191905f5260205f20905b81548152906001019060200180831161186257829003601f168201915b50505050508152602001876001600160a01b03168152602001600480546118a590613659565b80601f01602080910402602001604051908101604052809291908181526020018280546118d190613659565b801561191c5780601f106118f35761010080835404028352916020019161191c565b820191905f5260205f20905b8154815290600101906020018083116118ff57829003601f168201915b505050918352505060016020820152600554600160401b8104600790810b604084015260ff600160a01b830416151560608401526080830187905260a09092018590529192505f91829161197f91859181900b90600160801b900460030b6126c8565b909250905060168214611990575f80fd5b6040516001600160a01b03821681527f7bb17726df1f3adee8aa00ba8e8bc5d6f182af3bbf77604639cb7f008dd3b4ed9060200160405180910390a1979650505050505050565b6040516001600160a01b038581166024830152848116604483015283166064820152608481018290525f908190819061016790639b23d3d960e01b9060a401610991565b60408051600680825260e082019092525f91816020015b611a3a612d6e565b815260200190600190039081611a32579050509050611a5d5f600660038561240a565b815f81518110611a6f57611a6f613645565b6020026020010181905250611a876001600384612441565b81600181518110611a9a57611a9a613645565b6020026020010181905250611ab26002600384612441565b81600281518110611ac557611ac5613645565b6020026020010181905250611add6004600384612441565b81600381518110611af057611af0613645565b6020026020010181905250611b0760038084612441565b81600481518110611b1a57611b1a613645565b6020026020010181905250611b326005600384612441565b81600581518110611b4557611b45613645565b60200260200101819052505f60405180606001604052805f60070b8152602001856001600160a01b03168152602001627a120060070b81525090505f60405180610120016040528060028054611b9a90613659565b80601f0160208091040260200160405190810160405280929190818152602001828054611bc690613659565b8015611c115780601f10611be857610100808354040283529160200191611c11565b820191905f5260205f20905b815481529060010190602001808311611bf457829003601f168201915b5050505050815260200160038054611c2890613659565b80601f0160208091040260200160405190810160405280929190818152602001828054611c5490613659565b8015611c9f5780601f10611c7657610100808354040283529160200191611c9f565b820191905f5260205f20905b815481529060010190602001808311611c8257829003601f168201915b50505050508152602001866001600160a01b0316815260200160048054611cc590613659565b80601f0160208091040260200160405190810160405280929190818152602001828054611cf190613659565b8015611d3c5780601f10611d1357610100808354040283529160200191611d3c565b820191905f5260205f20905b815481529060010190602001808311611d1f57829003601f168201915b505050918352505060016020820152600554600160401b810460070b6040830152600160a01b900460ff16151560608201526080810185905260a00183905290505f80611d88836129dc565b909250905060168214611d99575f80fd5b6040516001600160a01b03821681527f7bb17726df1f3adee8aa00ba8e8bc5d6f182af3bbf77604639cb7f008dd3b4ed9060200160405180910390a150505050505050565b60408051600480825260a082019092525f91816020015b611dfd612d6e565b815260200190600190039081611df5579050509050611e205f600660038561240a565b815f81518110611e3257611e32613645565b6020026020010181905250611e4a6002600384612441565b81600181518110611e5d57611e5d613645565b6020026020010181905250611e756004600384612441565b81600281518110611e8857611e88613645565b6020026020010181905250611e9f60038084612441565b81600381518110611b4557611b45613645565b60408051600580825260c082019092525f91816020015b611ed1612d6e565b815260200190600190039081611ec9579050509050611f015f60065f60405180602001604052805f81525061240a565b815f81518110611f1357611f13613645565b6020026020010181905250611f3860015f60405180602001604052805f815250612441565b81600181518110611f4b57611f4b613645565b6020026020010181905250611f7060025f60405180602001604052805f815250612441565b81600281518110611f8357611f83613645565b6020026020010181905250611fa860045f60405180602001604052805f815250612441565b81600381518110611fbb57611fbb613645565b6020026020010181905250611fe060035f60405180602001604052805f815250612441565b81600481518110611ff357611ff3613645565b60200260200101819052505f60405180606001604052805f60070b8152602001846001600160a01b03168152602001627a120060070b81525090505f6040518061012001604052806002805461204890613659565b80601f016020809104026020016040519081016040528092919081815260200182805461207490613659565b80156120bf5780601f10612096576101008083540402835291602001916120bf565b820191905f5260205f20905b8154815290600101906020018083116120a257829003601f168201915b50505050508152602001600380546120d690613659565b80601f016020809104026020016040519081016040528092919081815260200182805461210290613659565b801561214d5780601f106121245761010080835404028352916020019161214d565b820191905f5260205f20905b81548152906001019060200180831161213057829003601f168201915b50505050508152602001856001600160a01b031681526020016004805461217390613659565b80601f016020809104026020016040519081016040528092919081815260200182805461219f90613659565b80156121ea5780601f106121c1576101008083540402835291602001916121ea565b820191905f5260205f20905b8154815290600101906020018083116121cd57829003601f168201915b505050918352505060016020820152600554600160401b810460070b6040830152600160a01b900460ff16151560608201526080810185905260a00183905290505f80610e1e836129dc565b5f806060612245868686612731565b60405183815292955090935091507f90a5cf4cffe88b4edbb041cfc7a8a812c48a5ec30b84640fb37690875168e3aa9060200160405180910390a16016831461228c575f80fd5b7ffc6b20023c4bac8ff1c48c1693e0cea5cd3c2163e9c2da41c58f17dd6d9f163d82826040516122bd9291906136d6565b60405180910390a193509350939050565b60408051600480825260a082019092525f91829190816020015b6122f0612d6e565b8152602001906001900390816122e85790505090506123135f600660038661240a565b815f8151811061232557612325613645565b602002602001018190525061233d6002600385612441565b8160018151811061235057612350613645565b60200260200101819052506123686004600385612441565b8160028151811061237b5761237b613645565b602002602001018190525061239260038085612441565b8160038151811061172557611725613645565b5f61090a8383612ae4565b5f6123bc848484612b19565b90507f90a5cf4cffe88b4edbb041cfc7a8a812c48a5ec30b84640fb37690875168e3aa816040516123ef91815260200190565b60405180910390a160168114612403575f80fd5b9392505050565b612412612d6e565b60405180604001604052806124278787612bed565b81526020016124368585612c27565b905295945050505050565b612449612d6e565b604051806040016040528061245d86612d32565b815260200161246c8585612c27565b9052949350505050565b5f80848061010001515f015160070b5f14801561249d57506101008101516040015160070b155b156124b3576101008101516276a7006040909101525b5f806101676001600160a01b03163463abb54eb560e01b8a8a8a6040516024016124df939291906139ab565b60408051601f198184030181529181526020820180516001600160e01b03166001600160e01b031990941693909317909252905161251d9190613691565b5f6040518083038185875af1925050503d805f8114612557576040519150601f19603f3d011682016040523d82523d5f602084013e61255c565b606091505b50915091508161256e5760155f612582565b808060200190518101906125829190613a62565b60039190910b999098509650505050505050565b6040516001600160a01b038381166024830152821660448201525f908190819061016790638f8d7f9960e01b906064015b60408051601f198184030181529181526020820180516001600160e01b03166001600160e01b03199094169390931790925290516126059190613691565b5f604051808303815f865af19150503d805f811461263e576040519150601f19603f3d011682016040523d82523d5f602084013e612643565b606091505b509150915081612654576015612668565b8080602001905181019061266891906136bd565b60030b95945050505050565b5f805f6101676001600160a01b0316632e63879b60e01b86866040516024016125c7929190613a8c565b5f805f6101676001600160a01b0316637d305cfa60e01b86866040516024016125c7929190613ae7565b5f80848061010001515f015160070b5f1480156126ef57506101008101516040015160070b155b15612705576101008101516276a7006040909101525b5f806101676001600160a01b031634630fb65bf360e01b8a8a8a6040516024016124df93929190613b08565b5f8060605f806101676001600160a01b031663e0f4059a60e01b89898960405160240161276093929190613b36565b60408051601f198184030181529181526020820180516001600160e01b03166001600160e01b031990941693909317909252905161279e9190613691565b5f604051808303815f865af19150503d805f81146127d7576040519150601f19603f3d011682016040523d82523d5f602084013e6127dc565b606091505b5091509150816127fe57604080515f8082526020820190925260159190612812565b808060200190518101906128129190613bb3565b60039290920b9a90995090975095505050505050565b6040516001600160a01b038581166024830152848116604483015283166064820152600782900b60848201525f908190819061016790635cfc901160e01b9060a401610991565b6040516001600160a01b038581166024830152848116604483015283166064820152600782900b60848201525f90819081906101679063eca3691760e01b9060a401610991565b5f80868061010001515f015160070b5f1480156128dd57506101008101516040015160070b155b156128f3576101008101516276a7006040909101525b5f806101676001600160a01b031634632af0c59a60e01b8c8c8c8c8c604051602401612923959493929190613c6d565b60408051601f198184030181529181526020820180516001600160e01b03166001600160e01b03199094169390931790925290516129619190613691565b5f6040518083038185875af1925050503d805f811461299b576040519150601f19603f3d011682016040523d82523d5f602084013e6129a0565b606091505b5091509150816129b25760155f6129c6565b808060200190518101906129c69190613a62565b60039190910b9b909a5098505050505050505050565b5f80828061010001515f015160070b5f148015612a0357506101008101516040015160070b155b15612a19576101008101516276a7006040909101525b5f806101676001600160a01b03163463ea83f29360e01b88604051602401612a419190613d38565b60408051601f198184030181529181526020820180516001600160e01b03166001600160e01b0319909416939093179092529051612a7f9190613691565b5f6040518083038185875af1925050503d805f8114612ab9576040519150601f19603f3d011682016040523d82523d5f602084013e612abe565b606091505b509150915081612ad05760155f611036565b808060200190518101906110369190613a62565b6040516001600160a01b038381166024830152821660448201525f90819081906101679063248a35ef60e11b906064016125c7565b604080516001600160a01b03858116602483015284166044820152606480820184905282518083039091018152608490910182526020810180516001600160e01b031663e1f21c6760e01b17905290515f918291829161016791612b7d9190613691565b5f604051808303815f865af19150503d805f8114612bb6576040519150601f19603f3d011682016040523d82523d5f602084013e612bbb565b606091505b509150915081612bcc576015612be0565b80806020019051810190612be091906136bd565b60030b9695505050505050565b5f612c10836006811115612c0357612c03613d4a565b600160ff9091161b821790565b9050612403826006811115612c0357612c03613d4a565b612c6a6040518060a001604052805f151581526020015f6001600160a01b0316815260200160608152602001606081526020015f6001600160a01b031681525090565b5f836004811115612c7d57612c7d613d4a565b03612c8b57600181526108f9565b6001836004811115612c9f57612c9f613d4a565b03612cb9575f546001600160a01b031660208201526108f9565b6002836004811115612ccd57612ccd613d4a565b03612cde57604081018290526108f9565b6003836004811115612cf257612cf2613d4a565b03612d0357606081018290526108f9565b6004836004811115612d1757612d17613d4a565b036108f9575f546001600160a01b0316608082015292915050565b5f60015f836006811115612d4857612d48613d4a565b6006811115612d5957612d59613d4a565b81526020019081526020015f20549050919050565b60405180604001604052805f8152602001612dc26040518060a001604052805f151581526020015f6001600160a01b0316815260200160608152602001606081526020015f6001600160a01b031681525090565b905290565b6001600160a01b0381168114612ddb575f80fd5b50565b8035612de981612dc7565b919050565b5f8060408385031215612dff575f80fd5b8235612e0a81612dc7565b91506020830135612e1a81612dc7565b809150509250929050565b634e487b7160e01b5f52604160045260245ffd5b6040805190810167ffffffffffffffff81118282101715612e5c57612e5c612e25565b60405290565b60405160a0810167ffffffffffffffff81118282101715612e5c57612e5c612e25565b604051610120810167ffffffffffffffff81118282101715612e5c57612e5c612e25565b604051601f8201601f1916810167ffffffffffffffff81118282101715612ed257612ed2612e25565b604052919050565b5f67ffffffffffffffff821115612ef357612ef3612e25565b5060051b60200190565b5f8060408385031215612f0e575f80fd5b8235612f1981612dc7565b915060208381013567ffffffffffffffff811115612f35575f80fd5b8401601f81018613612f45575f80fd5b8035612f58612f5382612eda565b612ea9565b81815260059190911b82018301908381019088831115612f76575f80fd5b928401925b82841015612f9d578335612f8e81612dc7565b82529284019290840190612f7b565b80955050505050509250929050565b5f805f8060808587031215612fbf575f80fd5b8435612fca81612dc7565b93506020850135612fda81612dc7565b92506040850135612fea81612dc7565b9396929550929360600135925050565b5f82601f830112613009575f80fd5b813567ffffffffffffffff81111561302357613023612e25565b613036601f8201601f1916602001612ea9565b81815284602083860101111561304a575f80fd5b816020850160208301375f918101602001919091529392505050565b80358015158114612de9575f80fd5b8060070b8114612ddb575f80fd5b8035612de981613075565b5f82601f83011261309d575f80fd5b813560206130ad612f5383612eda565b82815260059290921b840181019181810190868411156130cb575f80fd5b8286015b848110156131dc57803567ffffffffffffffff808211156130ee575f80fd5b908801906040601f19838c038101821315613107575f80fd5b61310f612e39565b8885013581528285013584811115613125575f80fd5b949094019360a0858e038301121561313b575f80fd5b613143612e62565b9150613150898601613066565b82528285013561315f81612dc7565b828a015260608581013585811115613175575f80fd5b6131838f8c838a0101612ffa565b858501525060809350838601358581111561319c575f80fd5b6131aa8f8c838a0101612ffa565b82850152505060a085013594506131c085612dc7565b91810193909352808701929092525083529183019183016130cf565b509695505050505050565b5f606082840312156131f7575f80fd5b6040516060810181811067ffffffffffffffff8211171561321a5761321a612e25565b604052905080823561322b81613075565b8152602083013561323b81612dc7565b6020820152604083013561324e81613075565b6040919091015292915050565b5f806040838503121561326c575f80fd5b823561327781612dc7565b9150602083013567ffffffffffffffff80821115613293575f80fd5b9084019061016082870312156132a7575f80fd5b6132af612e85565b8235828111156132bd575f80fd5b6132c988828601612ffa565b8252506020830135828111156132dd575f80fd5b6132e988828601612ffa565b6020830152506132fb60408401612dde565b6040820152606083013582811115613311575f80fd5b61331d88828601612ffa565b60608301525061332f60808401613066565b608082015261334060a08401613083565b60a082015261335160c08401613066565b60c082015260e083013582811115613367575f80fd5b6133738882860161308e565b60e083015250610100915061338a878385016131e7565b828201528093505050509250929050565b5f602082840312156133ab575f80fd5b813561240381612dc7565b5f805f606084860312156133c8575f80fd5b83356133d381612dc7565b92506020848101356133e481613075565b9250604085013567ffffffffffffffff80821115613400575f80fd5b818701915087601f830112613413575f80fd5b8135613421612f5382612eda565b81815260059190911b8301840190848101908a83111561343f575f80fd5b8585015b8381101561347557803585811115613459575f80fd5b6134678d89838a0101612ffa565b845250918601918601613443565b508096505050505050509250925092565b5f815180845260208085019450602084015f5b838110156134b857815160070b87529582019590820190600101613499565b509495945050505050565b8381528260070b6020820152606060408201525f6134e46060830184613486565b95945050505050565b5f80604083850312156134fe575f80fd5b823561350981612dc7565b9150602083013567ffffffffffffffff811115613524575f80fd5b61353085828601612ffa565b9150509250929050565b5f5b8381101561355457818101518382015260200161353c565b50505f910152565b5f815180845261357381602086016020860161353a565b601f01601f19169290920160200192915050565b828152604060208201525f61359f604083018461355c565b949350505050565b5f805f606084860312156135b9575f80fd5b83356135c481612dc7565b9250602084013567ffffffffffffffff8111156135df575f80fd5b6135eb86828701612ffa565b92505060408401356135fc81613075565b809150509250925092565b5f805f60608486031215613619575f80fd5b833561362481612dc7565b9250602084013561363481612dc7565b929592945050506040919091013590565b634e487b7160e01b5f52603260045260245ffd5b600181811c9082168061366d57607f821691505b60208210810361368b57634e487b7160e01b5f52602260045260245ffd5b50919050565b5f82516136a281846020870161353a565b9190910192915050565b8051600381900b8114612de9575f80fd5b5f602082840312156136cd575f80fd5b612403826136ac565b8260070b8152604060208201525f61359f6040830184613486565b6001600160a01b0383168152604060208201525f61359f604083018461355c565b8215158152604060208201525f61359f604083018461355c565b5f6020828403121561373c575f80fd5b815161240381612dc7565b5f60208284031215613757575f80fd5b5051919050565b5f6020828403121561376e575f80fd5b815161240381613075565b5f82825180855260208086019550808260051b8401018186015f5b8481101561383157601f198684030189528151604081518552858201519150808686015281511515818601528582015160606001600160a01b038083168289015283850151935060a09250608083818a01526137f360e08a018661355c565b92860151898403603f1901858b015292945061380f858461355c565b9501511660c09790970196909652505098840198925090830190600101613794565b5090979650505050505050565b5f61016082518185526138538286018261355c565b9150506020830151848203602086015261386d828261355c565b915050604083015161388a60408601826001600160a01b03169052565b50606083015184820360608601526138a2828261355c565b91505060808301516138b8608086018215159052565b5060a08301516138cd60a086018260070b9052565b5060c08301516138e160c086018215159052565b5060e083015184820360e08601526138f98282613779565b9150506101008084015161393582870182805160070b82526001600160a01b036020820151166020830152604081015160070b60408301525050565b5090949350505050565b5f815180845260208085019450602084015f5b838110156134b8578151805160070b8852838101516001600160a01b03908116858a01526040808301511515908a01526060808301511515908a0152608091820151169088015260a09096019590820190600101613952565b5f60608083526139be606084018761383e565b6020848203818601526139d1828861393f565b915060408583036040870152828751808552838501915083890194505f5b81811015613a525785518051600790810b855286820151810b8786015285820151900b85850152878101516001600160a01b039081168986015260808083015115159086015260a09182015116908401529484019460c0909201916001016139ef565b50909a9950505050505050505050565b5f8060408385031215613a73575f80fd5b613a7c836136ac565b91506020830151612e1a81612dc7565b5f604082016001600160a01b0380861684526020604060208601528286518085526060870191506020880194505f5b81811015613ad9578551851683529483019491830191600101613abb565b509098975050505050505050565b6001600160a01b0383168152604060208201525f61359f604083018461383e565b606081525f613b1a606083018661383e565b90508360070b60208301528260030b6040830152949350505050565b5f606082016001600160a01b038616835260208560070b60208501526060604085015281855180845260808601915060808160051b8701019350602087015f5b82811015613ba457607f19888703018452613b9286835161355c565b95509284019290840190600101613b76565b50939998505050505050505050565b5f805f60608486031215613bc5575f80fd5b613bce846136ac565b9250602080850151613bdf81613075565b604086015190935067ffffffffffffffff811115613bfb575f80fd5b8501601f81018713613c0b575f80fd5b8051613c19612f5382612eda565b81815260059190911b82018301908381019089831115613c37575f80fd5b928401925b82841015613c5e578351613c4f81613075565b82529284019290840190613c3c565b80955050505050509250925092565b5f60a0808352613c8060a084018961383e565b602060078960070b8287015260408960030b604088015260608785036060890152613cab858b61393f565b9450608088860360808a0152858a518088528688019150868c0197505f5b81811015613d235788518051880b845288810151880b8985015286810151880b8785015285810151880b86850152848101511515858501528a01516001600160a01b03168a8401529787019760c090920191600101613cc9565b50909f9e505050505050505050505050505050565b602081525f612403602083018461383e565b634e487b7160e01b5f52602160045260245ffdfea26469706673582212201a2a78acef2272e299ef7da15bb6038a3884d585cc8cf31331335b791fe92ef164736f6c63430008180033",
  "linkReferences": {},
  "deployedLinkReferences": {}
}