{
  "_format": "hh-sol-artifact-1",
  "contractName": "AssemblyAddress",
  "sourceName": "contracts/solidity/address/AssemblyAddress.sol",
  "abi": [
    {
      "inputs": [
        {
          "internalType": "address",
          "name": "addr",
          "type": "address"
        }
      ],
      "name": "codecopyat",
      "outputs": [
        {
          "internalType": "bytes",
          "name": "code",
          "type": "bytes"
        }
      ],
      "stateMutability": "view",
      "type": "function"
    },
    {
      "inputs": [
        {
          "internalType": "address",
          "name": "addr",
          "type": "address"
        }
      ],
      "name": "codehashat",
      "outputs": [
        {
          "internalType": "bytes32",
          "name": "hash",
          "type": "bytes32"
        }
      ],
      "stateMutability": "view",
      "type": "function"
    },
    {
      "inputs": [
        {
          "internalType": "address",
          "name": "addr",
          "type": "address"
        }
      ],
      "name": "codesizeat",
      "outputs": [
        {
          "internalType": "uint256",
          "name": "size",
          "type": "uint256"
        }
      ],
      "stateMutability": "view",
      "type": "function"
    }
  ],
  "bytecode": "0x608060405234801561001057600080fd5b50610185806100206000396000f3fe608060405234801561001057600080fd5b50600436106100415760003560e01c80631c0a72e3146100465780633bd57db61461006b5780638b080dc11461008b575b600080fd5b6100586100543660046100c4565b3f90565b6040519081526020015b60405180910390f35b61007e6100793660046100c4565b61009d565b6040516100629190610101565b6100586100993660046100c4565b3b90565b60408051603f833b908101601f191682019092528181529080600060208401853c50919050565b6000602082840312156100d657600080fd5b813573ffffffffffffffffffffffffffffffffffffffff811681146100fa57600080fd5b9392505050565b600060208083528351808285015260005b8181101561012e57858101830151858201604001528201610112565b506000604082860101526040601f19601f830116850101925050509291505056fea264697066735822122048da08b1646b0f6c68680dbeab28b5a963f273f04e2066779f85492a37925e4b64736f6c63430008140033",
  "linkReferences": {},
  "deployedLinkReferences": {}
}