{
  "_format": "hh-sol-artifact-1",
  "contractName": "TokenQueryContract",
  "sourceName": "contracts/hts-precompile/examples/token-query/TokenQueryContract.sol",
  "abi": [
    {
      "anonymous": false,
      "inputs": [
        {
          "indexed": false,
          "internalType": "uint256",
          "name": "amount",
          "type": "uint256"
        }
      ],
      "name": "AllowanceValue",
      "type": "event"
    },
    {
      "anonymous": false,
      "inputs": [
        {
          "indexed": false,
          "internalType": "bool",
          "name": "approved",
          "type": "bool"
        }
      ],
      "name": "Approved",
      "type": "event"
    },
    {
      "anonymous": false,
      "inputs": [
        {
          "indexed": false,
          "internalType": "address",
          "name": "approved",
          "type": "address"
        }
      ],
      "name": "ApprovedAddress",
      "type": "event"
    },
    {
      "anonymous": false,
      "inputs": [
        {
          "indexed": false,
          "internalType": "bool",
          "name": "frozen",
          "type": "bool"
        }
      ],
      "name": "Frozen",
      "type": "event"
    },
    {
      "anonymous": false,
      "inputs": [
        {
          "components": [
            {
              "components": [
                {
                  "components": [
                    {
                      "internalType": "string",
                      "name": "name",
                      "type": "string"
                    },
                    {
                      "internalType": "string",
                      "name": "symbol",
                      "type": "string"
                    },
                    {
                      "internalType": "address",
                      "name": "treasury",
                      "type": "address"
                    },
                    {
                      "internalType": "string",
                      "name": "memo",
                      "type": "string"
                    },
                    {
                      "internalType": "bool",
                      "name": "tokenSupplyType",
                      "type": "bool"
                    },
                    {
                      "internalType": "int64",
                      "name": "maxSupply",
                      "type": "int64"
                    },
                    {
                      "internalType": "bool",
                      "name": "freezeDefault",
                      "type": "bool"
                    },
                    {
                      "components": [
                        {
                          "internalType": "uint256",
                          "name": "keyType",
                          "type": "uint256"
                        },
                        {
                          "components": [
                            {
                              "internalType": "bool",
                              "name": "inheritAccountKey",
                              "type": "bool"
                            },
                            {
                              "internalType": "address",
                              "name": "contractId",
                              "type": "address"
                            },
                            {
                              "internalType": "bytes",
                              "name": "ed25519",
                              "type": "bytes"
                            },
                            {
                              "internalType": "bytes",
                              "name": "ECDSA_secp256k1",
                              "type": "bytes"
                            },
                            {
                              "internalType": "address",
                              "name": "delegatableContractId",
                              "type": "address"
                            }
                          ],
                          "internalType": "struct IHederaTokenService.KeyValue",
                          "name": "key",
                          "type": "tuple"
                        }
                      ],
                      "internalType": "struct IHederaTokenService.TokenKey[]",
                      "name": "tokenKeys",
                      "type": "tuple[]"
                    },
                    {
                      "components": [
                        {
                          "internalType": "uint32",
                          "name": "second",
                          "type": "uint32"
                        },
                        {
                          "internalType": "address",
                          "name": "autoRenewAccount",
                          "type": "address"
                        },
                        {
                          "internalType": "uint32",
                          "name": "autoRenewPeriod",
                          "type": "uint32"
                        }
                      ],
                      "internalType": "struct IHederaTokenService.Expiry",
                      "name": "expiry",
                      "type": "tuple"
                    }
                  ],
                  "internalType": "struct IHederaTokenService.HederaToken",
                  "name": "token",
                  "type": "tuple"
                },
                {
                  "internalType": "uint64",
                  "name": "totalSupply",
                  "type": "uint64"
                },
                {
                  "internalType": "bool",
                  "name": "deleted",
                  "type": "bool"
                },
                {
                  "internalType": "bool",
                  "name": "defaultKycStatus",
                  "type": "bool"
                },
                {
                  "internalType": "bool",
                  "name": "pauseStatus",
                  "type": "bool"
                },
                {
                  "components": [
                    {
                      "internalType": "uint32",
                      "name": "amount",
                      "type": "uint32"
                    },
                    {
                      "internalType": "address",
                      "name": "tokenId",
                      "type": "address"
                    },
                    {
                      "internalType": "bool",
                      "name": "useHbarsForPayment",
                      "type": "bool"
                    },
                    {
                      "internalType": "bool",
                      "name": "useCurrentTokenForPayment",
                      "type": "bool"
                    },
                    {
                      "internalType": "address",
                      "name": "feeCollector",
                      "type": "address"
                    }
                  ],
                  "internalType": "struct IHederaTokenService.FixedFee[]",
                  "name": "fixedFees",
                  "type": "tuple[]"
                },
                {
                  "components": [
                    {
                      "internalType": "uint32",
                      "name": "numerator",
                      "type": "uint32"
                    },
                    {
                      "internalType": "uint32",
                      "name": "denominator",
                      "type": "uint32"
                    },
                    {
                      "internalType": "uint32",
                      "name": "minimumAmount",
                      "type": "uint32"
                    },
                    {
                      "internalType": "uint32",
                      "name": "maximumAmount",
                      "type": "uint32"
                    },
                    {
                      "internalType": "bool",
                      "name": "netOfTransfers",
                      "type": "bool"
                    },
                    {
                      "internalType": "address",
                      "name": "feeCollector",
                      "type": "address"
                    }
                  ],
                  "internalType": "struct IHederaTokenService.FractionalFee[]",
                  "name": "fractionalFees",
                  "type": "tuple[]"
                },
                {
                  "components": [
                    {
                      "internalType": "uint32",
                      "name": "numerator",
                      "type": "uint32"
                    },
                    {
                      "internalType": "uint32",
                      "name": "denominator",
                      "type": "uint32"
                    },
                    {
                      "internalType": "uint32",
                      "name": "amount",
                      "type": "uint32"
                    },
                    {
                      "internalType": "address",
                      "name": "tokenId",
                      "type": "address"
                    },
                    {
                      "internalType": "bool",
                      "name": "useHbarsForPayment",
                      "type": "bool"
                    },
                    {
                      "internalType": "address",
                      "name": "feeCollector",
                      "type": "address"
                    }
                  ],
                  "internalType": "struct IHederaTokenService.RoyaltyFee[]",
                  "name": "royaltyFees",
                  "type": "tuple[]"
                },
                {
                  "internalType": "string",
                  "name": "ledgerId",
                  "type": "string"
                }
              ],
              "internalType": "struct IHederaTokenService.TokenInfo",
              "name": "tokenInfo",
              "type": "tuple"
            },
            {
              "internalType": "uint32",
              "name": "decimals",
              "type": "uint32"
            }
          ],
          "indexed": false,
          "internalType": "struct IHederaTokenService.FungibleTokenInfo",
          "name": "tokenInfo",
          "type": "tuple"
        }
      ],
      "name": "FungibleTokenInfo",
      "type": "event"
    },
    {
      "anonymous": false,
      "inputs": [
        {
          "indexed": false,
          "internalType": "bool",
          "name": "isToken",
          "type": "bool"
        }
      ],
      "name": "IsToken",
      "type": "event"
    },
    {
      "anonymous": false,
      "inputs": [
        {
          "indexed": false,
          "internalType": "bool",
          "name": "kycGranted",
          "type": "bool"
        }
      ],
      "name": "KycGranted",
      "type": "event"
    },
    {
      "anonymous": false,
      "inputs": [
        {
          "components": [
            {
              "components": [
                {
                  "components": [
                    {
                      "internalType": "string",
                      "name": "name",
                      "type": "string"
                    },
                    {
                      "internalType": "string",
                      "name": "symbol",
                      "type": "string"
                    },
                    {
                      "internalType": "address",
                      "name": "treasury",
                      "type": "address"
                    },
                    {
                      "internalType": "string",
                      "name": "memo",
                      "type": "string"
                    },
                    {
                      "internalType": "bool",
                      "name": "tokenSupplyType",
                      "type": "bool"
                    },
                    {
                      "internalType": "int64",
                      "name": "maxSupply",
                      "type": "int64"
                    },
                    {
                      "internalType": "bool",
                      "name": "freezeDefault",
                      "type": "bool"
                    },
                    {
                      "components": [
                        {
                          "internalType": "uint256",
                          "name": "keyType",
                          "type": "uint256"
                        },
                        {
                          "components": [
                            {
                              "internalType": "bool",
                              "name": "inheritAccountKey",
                              "type": "bool"
                            },
                            {
                              "internalType": "address",
                              "name": "contractId",
                              "type": "address"
                            },
                            {
                              "internalType": "bytes",
                              "name": "ed25519",
                              "type": "bytes"
                            },
                            {
                              "internalType": "bytes",
                              "name": "ECDSA_secp256k1",
                              "type": "bytes"
                            },
                            {
                              "internalType": "address",
                              "name": "delegatableContractId",
                              "type": "address"
                            }
                          ],
                          "internalType": "struct IHederaTokenService.KeyValue",
                          "name": "key",
                          "type": "tuple"
                        }
                      ],
                      "internalType": "struct IHederaTokenService.TokenKey[]",
                      "name": "tokenKeys",
                      "type": "tuple[]"
                    },
                    {
                      "components": [
                        {
                          "internalType": "uint32",
                          "name": "second",
                          "type": "uint32"
                        },
                        {
                          "internalType": "address",
                          "name": "autoRenewAccount",
                          "type": "address"
                        },
                        {
                          "internalType": "uint32",
                          "name": "autoRenewPeriod",
                          "type": "uint32"
                        }
                      ],
                      "internalType": "struct IHederaTokenService.Expiry",
                      "name": "expiry",
                      "type": "tuple"
                    }
                  ],
                  "internalType": "struct IHederaTokenService.HederaToken",
                  "name": "token",
                  "type": "tuple"
                },
                {
                  "internalType": "uint64",
                  "name": "totalSupply",
                  "type": "uint64"
                },
                {
                  "internalType": "bool",
                  "name": "deleted",
                  "type": "bool"
                },
                {
                  "internalType": "bool",
                  "name": "defaultKycStatus",
                  "type": "bool"
                },
                {
                  "internalType": "bool",
                  "name": "pauseStatus",
                  "type": "bool"
                },
                {
                  "components": [
                    {
                      "internalType": "uint32",
                      "name": "amount",
                      "type": "uint32"
                    },
                    {
                      "internalType": "address",
                      "name": "tokenId",
                      "type": "address"
                    },
                    {
                      "internalType": "bool",
                      "name": "useHbarsForPayment",
                      "type": "bool"
                    },
                    {
                      "internalType": "bool",
                      "name": "useCurrentTokenForPayment",
                      "type": "bool"
                    },
                    {
                      "internalType": "address",
                      "name": "feeCollector",
                      "type": "address"
                    }
                  ],
                  "internalType": "struct IHederaTokenService.FixedFee[]",
                  "name": "fixedFees",
                  "type": "tuple[]"
                },
                {
                  "components": [
                    {
                      "internalType": "uint32",
                      "name": "numerator",
                      "type": "uint32"
                    },
                    {
                      "internalType": "uint32",
                      "name": "denominator",
                      "type": "uint32"
                    },
                    {
                      "internalType": "uint32",
                      "name": "minimumAmount",
                      "type": "uint32"
                    },
                    {
                      "internalType": "uint32",
                      "name": "maximumAmount",
                      "type": "uint32"
                    },
                    {
                      "internalType": "bool",
                      "name": "netOfTransfers",
                      "type": "bool"
                    },
                    {
                      "internalType": "address",
                      "name": "feeCollector",
                      "type": "address"
                    }
                  ],
                  "internalType": "struct IHederaTokenService.FractionalFee[]",
                  "name": "fractionalFees",
                  "type": "tuple[]"
                },
                {
                  "components": [
                    {
                      "internalType": "uint32",
                      "name": "numerator",
                      "type": "uint32"
                    },
                    {
                      "internalType": "uint32",
                      "name": "denominator",
                      "type": "uint32"
                    },
                    {
                      "internalType": "uint32",
                      "name": "amount",
                      "type": "uint32"
                    },
                    {
                      "internalType": "address",
                      "name": "tokenId",
                      "type": "address"
                    },
                    {
                      "internalType": "bool",
                      "name": "useHbarsForPayment",
                      "type": "bool"
                    },
                    {
                      "internalType": "address",
                      "name": "feeCollector",
                      "type": "address"
                    }
                  ],
                  "internalType": "struct IHederaTokenService.RoyaltyFee[]",
                  "name": "royaltyFees",
                  "type": "tuple[]"
                },
                {
                  "internalType": "string",
                  "name": "ledgerId",
                  "type": "string"
                }
              ],
              "internalType": "struct IHederaTokenService.TokenInfo",
              "name": "tokenInfo",
              "type": "tuple"
            },
            {
              "internalType": "int64",
              "name": "serialNumber",
              "type": "int64"
            },
            {
              "internalType": "address",
              "name": "ownerId",
              "type": "address"
            },
            {
              "internalType": "int64",
              "name": "creationTime",
              "type": "int64"
            },
            {
              "internalType": "bytes",
              "name": "metadata",
              "type": "bytes"
            },
            {
              "internalType": "address",
              "name": "spenderId",
              "type": "address"
            }
          ],
          "indexed": false,
          "internalType": "struct IHederaTokenService.NonFungibleTokenInfo",
          "name": "tokenInfo",
          "type": "tuple"
        }
      ],
      "name": "NonFungibleTokenInfo",
      "type": "event"
    },
    {
      "anonymous": false,
      "inputs": [
        {
          "indexed": false,
          "internalType": "int256",
          "name": "responseCode",
          "type": "int256"
        }
      ],
      "name": "ResponseCode",
      "type": "event"
    },
    {
      "anonymous": false,
      "inputs": [
        {
          "components": [
            {
              "internalType": "uint32",
              "name": "amount",
              "type": "uint32"
            },
            {
              "internalType": "address",
              "name": "tokenId",
              "type": "address"
            },
            {
              "internalType": "bool",
              "name": "useHbarsForPayment",
              "type": "bool"
            },
            {
              "internalType": "bool",
              "name": "useCurrentTokenForPayment",
              "type": "bool"
            },
            {
              "internalType": "address",
              "name": "feeCollector",
              "type": "address"
            }
          ],
          "indexed": false,
          "internalType": "struct IHederaTokenService.FixedFee[]",
          "name": "fixedFees",
          "type": "tuple[]"
        },
        {
          "components": [
            {
              "internalType": "uint32",
              "name": "numerator",
              "type": "uint32"
            },
            {
              "internalType": "uint32",
              "name": "denominator",
              "type": "uint32"
            },
            {
              "internalType": "uint32",
              "name": "minimumAmount",
              "type": "uint32"
            },
            {
              "internalType": "uint32",
              "name": "maximumAmount",
              "type": "uint32"
            },
            {
              "internalType": "bool",
              "name": "netOfTransfers",
              "type": "bool"
            },
            {
              "internalType": "address",
              "name": "feeCollector",
              "type": "address"
            }
          ],
          "indexed": false,
          "internalType": "struct IHederaTokenService.FractionalFee[]",
          "name": "fractionalFees",
          "type": "tuple[]"
        },
        {
          "components": [
            {
              "internalType": "uint32",
              "name": "numerator",
              "type": "uint32"
            },
            {
              "internalType": "uint32",
              "name": "denominator",
              "type": "uint32"
            },
            {
              "internalType": "uint32",
              "name": "amount",
              "type": "uint32"
            },
            {
              "internalType": "address",
              "name": "tokenId",
              "type": "address"
            },
            {
              "internalType": "bool",
              "name": "useHbarsForPayment",
              "type": "bool"
            },
            {
              "internalType": "address",
              "name": "feeCollector",
              "type": "address"
            }
          ],
          "indexed": false,
          "internalType": "struct IHederaTokenService.RoyaltyFee[]",
          "name": "royaltyFees",
          "type": "tuple[]"
        }
      ],
      "name": "TokenCustomFees",
      "type": "event"
    },
    {
      "anonymous": false,
      "inputs": [
        {
          "indexed": false,
          "internalType": "bool",
          "name": "defaultFreezeStatus",
          "type": "bool"
        }
      ],
      "name": "TokenDefaultFreezeStatus",
      "type": "event"
    },
    {
      "anonymous": false,
      "inputs": [
        {
          "indexed": false,
          "internalType": "bool",
          "name": "defaultKycStatus",
          "type": "bool"
        }
      ],
      "name": "TokenDefaultKycStatus",
      "type": "event"
    },
    {
      "anonymous": false,
      "inputs": [
        {
          "components": [
            {
              "internalType": "uint32",
              "name": "second",
              "type": "uint32"
            },
            {
              "internalType": "address",
              "name": "autoRenewAccount",
              "type": "address"
            },
            {
              "internalType": "uint32",
              "name": "autoRenewPeriod",
              "type": "uint32"
            }
          ],
          "indexed": false,
          "internalType": "struct IHederaTokenService.Expiry",
          "name": "expiryInfo",
          "type": "tuple"
        }
      ],
      "name": "TokenExpiryInfo",
      "type": "event"
    },
    {
      "anonymous": false,
      "inputs": [
        {
          "components": [
            {
              "components": [
                {
                  "internalType": "string",
                  "name": "name",
                  "type": "string"
                },
                {
                  "internalType": "string",
                  "name": "symbol",
                  "type": "string"
                },
                {
                  "internalType": "address",
                  "name": "treasury",
                  "type": "address"
                },
                {
                  "internalType": "string",
                  "name": "memo",
                  "type": "string"
                },
                {
                  "internalType": "bool",
                  "name": "tokenSupplyType",
                  "type": "bool"
                },
                {
                  "internalType": "int64",
                  "name": "maxSupply",
                  "type": "int64"
                },
                {
                  "internalType": "bool",
                  "name": "freezeDefault",
                  "type": "bool"
                },
                {
                  "components": [
                    {
                      "internalType": "uint256",
                      "name": "keyType",
                      "type": "uint256"
                    },
                    {
                      "components": [
                        {
                          "internalType": "bool",
                          "name": "inheritAccountKey",
                          "type": "bool"
                        },
                        {
                          "internalType": "address",
                          "name": "contractId",
                          "type": "address"
                        },
                        {
                          "internalType": "bytes",
                          "name": "ed25519",
                          "type": "bytes"
                        },
                        {
                          "internalType": "bytes",
                          "name": "ECDSA_secp256k1",
                          "type": "bytes"
                        },
                        {
                          "internalType": "address",
                          "name": "delegatableContractId",
                          "type": "address"
                        }
                      ],
                      "internalType": "struct IHederaTokenService.KeyValue",
                      "name": "key",
                      "type": "tuple"
                    }
                  ],
                  "internalType": "struct IHederaTokenService.TokenKey[]",
                  "name": "tokenKeys",
                  "type": "tuple[]"
                },
                {
                  "components": [
                    {
                      "internalType": "uint32",
                      "name": "second",
                      "type": "uint32"
                    },
                    {
                      "internalType": "address",
                      "name": "autoRenewAccount",
                      "type": "address"
                    },
                    {
                      "internalType": "uint32",
                      "name": "autoRenewPeriod",
                      "type": "uint32"
                    }
                  ],
                  "internalType": "struct IHederaTokenService.Expiry",
                  "name": "expiry",
                  "type": "tuple"
                }
              ],
              "internalType": "struct IHederaTokenService.HederaToken",
              "name": "token",
              "type": "tuple"
            },
            {
              "internalType": "uint64",
              "name": "totalSupply",
              "type": "uint64"
            },
            {
              "internalType": "bool",
              "name": "deleted",
              "type": "bool"
            },
            {
              "internalType": "bool",
              "name": "defaultKycStatus",
              "type": "bool"
            },
            {
              "internalType": "bool",
              "name": "pauseStatus",
              "type": "bool"
            },
            {
              "components": [
                {
                  "internalType": "uint32",
                  "name": "amount",
                  "type": "uint32"
                },
                {
                  "internalType": "address",
                  "name": "tokenId",
                  "type": "address"
                },
                {
                  "internalType": "bool",
                  "name": "useHbarsForPayment",
                  "type": "bool"
                },
                {
                  "internalType": "bool",
                  "name": "useCurrentTokenForPayment",
                  "type": "bool"
                },
                {
                  "internalType": "address",
                  "name": "feeCollector",
                  "type": "address"
                }
              ],
              "internalType": "struct IHederaTokenService.FixedFee[]",
              "name": "fixedFees",
              "type": "tuple[]"
            },
            {
              "components": [
                {
                  "internalType": "uint32",
                  "name": "numerator",
                  "type": "uint32"
                },
                {
                  "internalType": "uint32",
                  "name": "denominator",
                  "type": "uint32"
                },
                {
                  "internalType": "uint32",
                  "name": "minimumAmount",
                  "type": "uint32"
                },
                {
                  "internalType": "uint32",
                  "name": "maximumAmount",
                  "type": "uint32"
                },
                {
                  "internalType": "bool",
                  "name": "netOfTransfers",
                  "type": "bool"
                },
                {
                  "internalType": "address",
                  "name": "feeCollector",
                  "type": "address"
                }
              ],
              "internalType": "struct IHederaTokenService.FractionalFee[]",
              "name": "fractionalFees",
              "type": "tuple[]"
            },
            {
              "components": [
                {
                  "internalType": "uint32",
                  "name": "numerator",
                  "type": "uint32"
                },
                {
                  "internalType": "uint32",
                  "name": "denominator",
                  "type": "uint32"
                },
                {
                  "internalType": "uint32",
                  "name": "amount",
                  "type": "uint32"
                },
                {
                  "internalType": "address",
                  "name": "tokenId",
                  "type": "address"
                },
                {
                  "internalType": "bool",
                  "name": "useHbarsForPayment",
                  "type": "bool"
                },
                {
                  "internalType": "address",
                  "name": "feeCollector",
                  "type": "address"
                }
              ],
              "internalType": "struct IHederaTokenService.RoyaltyFee[]",
              "name": "royaltyFees",
              "type": "tuple[]"
            },
            {
              "internalType": "string",
              "name": "ledgerId",
              "type": "string"
            }
          ],
          "indexed": false,
          "internalType": "struct IHederaTokenService.TokenInfo",
          "name": "tokenInfo",
          "type": "tuple"
        }
      ],
      "name": "TokenInfo",
      "type": "event"
    },
    {
      "anonymous": false,
      "inputs": [
        {
          "components": [
            {
              "internalType": "bool",
              "name": "inheritAccountKey",
              "type": "bool"
            },
            {
              "internalType": "address",
              "name": "contractId",
              "type": "address"
            },
            {
              "internalType": "bytes",
              "name": "ed25519",
              "type": "bytes"
            },
            {
              "internalType": "bytes",
              "name": "ECDSA_secp256k1",
              "type": "bytes"
            },
            {
              "internalType": "address",
              "name": "delegatableContractId",
              "type": "address"
            }
          ],
          "indexed": false,
          "internalType": "struct IHederaTokenService.KeyValue",
          "name": "key",
          "type": "tuple"
        }
      ],
      "name": "TokenKey",
      "type": "event"
    },
    {
      "anonymous": false,
      "inputs": [
        {
          "indexed": false,
          "internalType": "int32",
          "name": "tokenType",
          "type": "int32"
        }
      ],
      "name": "TokenType",
      "type": "event"
    },
    {
      "inputs": [
        {
          "internalType": "address",
          "name": "token",
          "type": "address"
        },
        {
          "internalType": "address",
          "name": "owner",
          "type": "address"
        },
        {
          "internalType": "address",
          "name": "spender",
          "type": "address"
        }
      ],
      "name": "allowancePublic",
      "outputs": [
        {
          "internalType": "int256",
          "name": "responseCode",
          "type": "int256"
        },
        {
          "internalType": "uint256",
          "name": "amount",
          "type": "uint256"
        }
      ],
      "stateMutability": "nonpayable",
      "type": "function"
    },
    {
      "inputs": [
        {
          "internalType": "address",
          "name": "token",
          "type": "address"
        },
        {
          "internalType": "uint256",
          "name": "serialNumber",
          "type": "uint256"
        }
      ],
      "name": "getApprovedPublic",
      "outputs": [
        {
          "internalType": "int256",
          "name": "responseCode",
          "type": "int256"
        },
        {
          "internalType": "address",
          "name": "approved",
          "type": "address"
        }
      ],
      "stateMutability": "nonpayable",
      "type": "function"
    },
    {
      "inputs": [
        {
          "internalType": "address",
          "name": "token",
          "type": "address"
        }
      ],
      "name": "getFungibleTokenInfoPublic",
      "outputs": [
        {
          "internalType": "int256",
          "name": "responseCode",
          "type": "int256"
        },
        {
          "components": [
            {
              "components": [
                {
                  "components": [
                    {
                      "internalType": "string",
                      "name": "name",
                      "type": "string"
                    },
                    {
                      "internalType": "string",
                      "name": "symbol",
                      "type": "string"
                    },
                    {
                      "internalType": "address",
                      "name": "treasury",
                      "type": "address"
                    },
                    {
                      "internalType": "string",
                      "name": "memo",
                      "type": "string"
                    },
                    {
                      "internalType": "bool",
                      "name": "tokenSupplyType",
                      "type": "bool"
                    },
                    {
                      "internalType": "int64",
                      "name": "maxSupply",
                      "type": "int64"
                    },
                    {
                      "internalType": "bool",
                      "name": "freezeDefault",
                      "type": "bool"
                    },
                    {
                      "components": [
                        {
                          "internalType": "uint256",
                          "name": "keyType",
                          "type": "uint256"
                        },
                        {
                          "components": [
                            {
                              "internalType": "bool",
                              "name": "inheritAccountKey",
                              "type": "bool"
                            },
                            {
                              "internalType": "address",
                              "name": "contractId",
                              "type": "address"
                            },
                            {
                              "internalType": "bytes",
                              "name": "ed25519",
                              "type": "bytes"
                            },
                            {
                              "internalType": "bytes",
                              "name": "ECDSA_secp256k1",
                              "type": "bytes"
                            },
                            {
                              "internalType": "address",
                              "name": "delegatableContractId",
                              "type": "address"
                            }
                          ],
                          "internalType": "struct IHederaTokenService.KeyValue",
                          "name": "key",
                          "type": "tuple"
                        }
                      ],
                      "internalType": "struct IHederaTokenService.TokenKey[]",
                      "name": "tokenKeys",
                      "type": "tuple[]"
                    },
                    {
                      "components": [
                        {
                          "internalType": "uint32",
                          "name": "second",
                          "type": "uint32"
                        },
                        {
                          "internalType": "address",
                          "name": "autoRenewAccount",
                          "type": "address"
                        },
                        {
                          "internalType": "uint32",
                          "name": "autoRenewPeriod",
                          "type": "uint32"
                        }
                      ],
                      "internalType": "struct IHederaTokenService.Expiry",
                      "name": "expiry",
                      "type": "tuple"
                    }
                  ],
                  "internalType": "struct IHederaTokenService.HederaToken",
                  "name": "token",
                  "type": "tuple"
                },
                {
                  "internalType": "uint64",
                  "name": "totalSupply",
                  "type": "uint64"
                },
                {
                  "internalType": "bool",
                  "name": "deleted",
                  "type": "bool"
                },
                {
                  "internalType": "bool",
                  "name": "defaultKycStatus",
                  "type": "bool"
                },
                {
                  "internalType": "bool",
                  "name": "pauseStatus",
                  "type": "bool"
                },
                {
                  "components": [
                    {
                      "internalType": "uint32",
                      "name": "amount",
                      "type": "uint32"
                    },
                    {
                      "internalType": "address",
                      "name": "tokenId",
                      "type": "address"
                    },
                    {
                      "internalType": "bool",
                      "name": "useHbarsForPayment",
                      "type": "bool"
                    },
                    {
                      "internalType": "bool",
                      "name": "useCurrentTokenForPayment",
                      "type": "bool"
                    },
                    {
                      "internalType": "address",
                      "name": "feeCollector",
                      "type": "address"
                    }
                  ],
                  "internalType": "struct IHederaTokenService.FixedFee[]",
                  "name": "fixedFees",
                  "type": "tuple[]"
                },
                {
                  "components": [
                    {
                      "internalType": "uint32",
                      "name": "numerator",
                      "type": "uint32"
                    },
                    {
                      "internalType": "uint32",
                      "name": "denominator",
                      "type": "uint32"
                    },
                    {
                      "internalType": "uint32",
                      "name": "minimumAmount",
                      "type": "uint32"
                    },
                    {
                      "internalType": "uint32",
                      "name": "maximumAmount",
                      "type": "uint32"
                    },
                    {
                      "internalType": "bool",
                      "name": "netOfTransfers",
                      "type": "bool"
                    },
                    {
                      "internalType": "address",
                      "name": "feeCollector",
                      "type": "address"
                    }
                  ],
                  "internalType": "struct IHederaTokenService.FractionalFee[]",
                  "name": "fractionalFees",
                  "type": "tuple[]"
                },
                {
                  "components": [
                    {
                      "internalType": "uint32",
                      "name": "numerator",
                      "type": "uint32"
                    },
                    {
                      "internalType": "uint32",
                      "name": "denominator",
                      "type": "uint32"
                    },
                    {
                      "internalType": "uint32",
                      "name": "amount",
                      "type": "uint32"
                    },
                    {
                      "internalType": "address",
                      "name": "tokenId",
                      "type": "address"
                    },
                    {
                      "internalType": "bool",
                      "name": "useHbarsForPayment",
                      "type": "bool"
                    },
                    {
                      "internalType": "address",
                      "name": "feeCollector",
                      "type": "address"
                    }
                  ],
                  "internalType": "struct IHederaTokenService.RoyaltyFee[]",
                  "name": "royaltyFees",
                  "type": "tuple[]"
                },
                {
                  "internalType": "string",
                  "name": "ledgerId",
                  "type": "string"
                }
              ],
              "internalType": "struct IHederaTokenService.TokenInfo",
              "name": "tokenInfo",
              "type": "tuple"
            },
            {
              "internalType": "uint32",
              "name": "decimals",
              "type": "uint32"
            }
          ],
          "internalType": "struct IHederaTokenService.FungibleTokenInfo",
          "name": "tokenInfo",
          "type": "tuple"
        }
      ],
      "stateMutability": "nonpayable",
      "type": "function"
    },
    {
      "inputs": [
        {
          "internalType": "address",
          "name": "token",
          "type": "address"
        },
        {
          "internalType": "int64",
          "name": "serialNumber",
          "type": "int64"
        }
      ],
      "name": "getNonFungibleTokenInfoPublic",
      "outputs": [
        {
          "internalType": "int256",
          "name": "responseCode",
          "type": "int256"
        },
        {
          "components": [
            {
              "components": [
                {
                  "components": [
                    {
                      "internalType": "string",
                      "name": "name",
                      "type": "string"
                    },
                    {
                      "internalType": "string",
                      "name": "symbol",
                      "type": "string"
                    },
                    {
                      "internalType": "address",
                      "name": "treasury",
                      "type": "address"
                    },
                    {
                      "internalType": "string",
                      "name": "memo",
                      "type": "string"
                    },
                    {
                      "internalType": "bool",
                      "name": "tokenSupplyType",
                      "type": "bool"
                    },
                    {
                      "internalType": "int64",
                      "name": "maxSupply",
                      "type": "int64"
                    },
                    {
                      "internalType": "bool",
                      "name": "freezeDefault",
                      "type": "bool"
                    },
                    {
                      "components": [
                        {
                          "internalType": "uint256",
                          "name": "keyType",
                          "type": "uint256"
                        },
                        {
                          "components": [
                            {
                              "internalType": "bool",
                              "name": "inheritAccountKey",
                              "type": "bool"
                            },
                            {
                              "internalType": "address",
                              "name": "contractId",
                              "type": "address"
                            },
                            {
                              "internalType": "bytes",
                              "name": "ed25519",
                              "type": "bytes"
                            },
                            {
                              "internalType": "bytes",
                              "name": "ECDSA_secp256k1",
                              "type": "bytes"
                            },
                            {
                              "internalType": "address",
                              "name": "delegatableContractId",
                              "type": "address"
                            }
                          ],
                          "internalType": "struct IHederaTokenService.KeyValue",
                          "name": "key",
                          "type": "tuple"
                        }
                      ],
                      "internalType": "struct IHederaTokenService.TokenKey[]",
                      "name": "tokenKeys",
                      "type": "tuple[]"
                    },
                    {
                      "components": [
                        {
                          "internalType": "uint32",
                          "name": "second",
                          "type": "uint32"
                        },
                        {
                          "internalType": "address",
                          "name": "autoRenewAccount",
                          "type": "address"
                        },
                        {
                          "internalType": "uint32",
                          "name": "autoRenewPeriod",
                          "type": "uint32"
                        }
                      ],
                      "internalType": "struct IHederaTokenService.Expiry",
                      "name": "expiry",
                      "type": "tuple"
                    }
                  ],
                  "internalType": "struct IHederaTokenService.HederaToken",
                  "name": "token",
                  "type": "tuple"
                },
                {
                  "internalType": "uint64",
                  "name": "totalSupply",
                  "type": "uint64"
                },
                {
                  "internalType": "bool",
                  "name": "deleted",
                  "type": "bool"
                },
                {
                  "internalType": "bool",
                  "name": "defaultKycStatus",
                  "type": "bool"
                },
                {
                  "internalType": "bool",
                  "name": "pauseStatus",
                  "type": "bool"
                },
                {
                  "components": [
                    {
                      "internalType": "uint32",
                      "name": "amount",
                      "type": "uint32"
                    },
                    {
                      "internalType": "address",
                      "name": "tokenId",
                      "type": "address"
                    },
                    {
                      "internalType": "bool",
                      "name": "useHbarsForPayment",
                      "type": "bool"
                    },
                    {
                      "internalType": "bool",
                      "name": "useCurrentTokenForPayment",
                      "type": "bool"
                    },
                    {
                      "internalType": "address",
                      "name": "feeCollector",
                      "type": "address"
                    }
                  ],
                  "internalType": "struct IHederaTokenService.FixedFee[]",
                  "name": "fixedFees",
                  "type": "tuple[]"
                },
                {
                  "components": [
                    {
                      "internalType": "uint32",
                      "name": "numerator",
                      "type": "uint32"
                    },
                    {
                      "internalType": "uint32",
                      "name": "denominator",
                      "type": "uint32"
                    },
                    {
                      "internalType": "uint32",
                      "name": "minimumAmount",
                      "type": "uint32"
                    },
                    {
                      "internalType": "uint32",
                      "name": "maximumAmount",
                      "type": "uint32"
                    },
                    {
                      "internalType": "bool",
                      "name": "netOfTransfers",
                      "type": "bool"
                    },
                    {
                      "internalType": "address",
                      "name": "feeCollector",
                      "type": "address"
                    }
                  ],
                  "internalType": "struct IHederaTokenService.FractionalFee[]",
                  "name": "fractionalFees",
                  "type": "tuple[]"
                },
                {
                  "components": [
                    {
                      "internalType": "uint32",
                      "name": "numerator",
                      "type": "uint32"
                    },
                    {
                      "internalType": "uint32",
                      "name": "denominator",
                      "type": "uint32"
                    },
                    {
                      "internalType": "uint32",
                      "name": "amount",
                      "type": "uint32"
                    },
                    {
                      "internalType": "address",
                      "name": "tokenId",
                      "type": "address"
                    },
                    {
                      "internalType": "bool",
                      "name": "useHbarsForPayment",
                      "type": "bool"
                    },
                    {
                      "internalType": "address",
                      "name": "feeCollector",
                      "type": "address"
                    }
                  ],
                  "internalType": "struct IHederaTokenService.RoyaltyFee[]",
                  "name": "royaltyFees",
                  "type": "tuple[]"
                },
                {
                  "internalType": "string",
                  "name": "ledgerId",
                  "type": "string"
                }
              ],
              "internalType": "struct IHederaTokenService.TokenInfo",
              "name": "tokenInfo",
              "type": "tuple"
            },
            {
              "internalType": "int64",
              "name": "serialNumber",
              "type": "int64"
            },
            {
              "internalType": "address",
              "name": "ownerId",
              "type": "address"
            },
            {
              "internalType": "int64",
              "name": "creationTime",
              "type": "int64"
            },
            {
              "internalType": "bytes",
              "name": "metadata",
              "type": "bytes"
            },
            {
              "internalType": "address",
              "name": "spenderId",
              "type": "address"
            }
          ],
          "internalType": "struct IHederaTokenService.NonFungibleTokenInfo",
          "name": "tokenInfo",
          "type": "tuple"
        }
      ],
      "stateMutability": "nonpayable",
      "type": "function"
    },
    {
      "inputs": [
        {
          "internalType": "address",
          "name": "token",
          "type": "address"
        }
      ],
      "name": "getTokenCustomFeesPublic",
      "outputs": [
        {
          "internalType": "int64",
          "name": "responseCode",
          "type": "int64"
        },
        {
          "components": [
            {
              "internalType": "uint32",
              "name": "amount",
              "type": "uint32"
            },
            {
              "internalType": "address",
              "name": "tokenId",
              "type": "address"
            },
            {
              "internalType": "bool",
              "name": "useHbarsForPayment",
              "type": "bool"
            },
            {
              "internalType": "bool",
              "name": "useCurrentTokenForPayment",
              "type": "bool"
            },
            {
              "internalType": "address",
              "name": "feeCollector",
              "type": "address"
            }
          ],
          "internalType": "struct IHederaTokenService.FixedFee[]",
          "name": "fixedFees",
          "type": "tuple[]"
        },
        {
          "components": [
            {
              "internalType": "uint32",
              "name": "numerator",
              "type": "uint32"
            },
            {
              "internalType": "uint32",
              "name": "denominator",
              "type": "uint32"
            },
            {
              "internalType": "uint32",
              "name": "minimumAmount",
              "type": "uint32"
            },
            {
              "internalType": "uint32",
              "name": "maximumAmount",
              "type": "uint32"
            },
            {
              "internalType": "bool",
              "name": "netOfTransfers",
              "type": "bool"
            },
            {
              "internalType": "address",
              "name": "feeCollector",
              "type": "address"
            }
          ],
          "internalType": "struct IHederaTokenService.FractionalFee[]",
          "name": "fractionalFees",
          "type": "tuple[]"
        },
        {
          "components": [
            {
              "internalType": "uint32",
              "name": "numerator",
              "type": "uint32"
            },
            {
              "internalType": "uint32",
              "name": "denominator",
              "type": "uint32"
            },
            {
              "internalType": "uint32",
              "name": "amount",
              "type": "uint32"
            },
            {
              "internalType": "address",
              "name": "tokenId",
              "type": "address"
            },
            {
              "internalType": "bool",
              "name": "useHbarsForPayment",
              "type": "bool"
            },
            {
              "internalType": "address",
              "name": "feeCollector",
              "type": "address"
            }
          ],
          "internalType": "struct IHederaTokenService.RoyaltyFee[]",
          "name": "royaltyFees",
          "type": "tuple[]"
        }
      ],
      "stateMutability": "nonpayable",
      "type": "function"
    },
    {
      "inputs": [
        {
          "internalType": "address",
          "name": "token",
          "type": "address"
        }
      ],
      "name": "getTokenDefaultFreezeStatusPublic",
      "outputs": [
        {
          "internalType": "int256",
          "name": "responseCode",
          "type": "int256"
        },
        {
          "internalType": "bool",
          "name": "defaultFreezeStatus",
          "type": "bool"
        }
      ],
      "stateMutability": "nonpayable",
      "type": "function"
    },
    {
      "inputs": [
        {
          "internalType": "address",
          "name": "token",
          "type": "address"
        }
      ],
      "name": "getTokenDefaultKycStatusPublic",
      "outputs": [
        {
          "internalType": "int256",
          "name": "responseCode",
          "type": "int256"
        },
        {
          "internalType": "bool",
          "name": "defaultKycStatus",
          "type": "bool"
        }
      ],
      "stateMutability": "nonpayable",
      "type": "function"
    },
    {
      "inputs": [
        {
          "internalType": "address",
          "name": "token",
          "type": "address"
        }
      ],
      "name": "getTokenExpiryInfo",
      "outputs": [
        {
          "internalType": "int256",
          "name": "responseCode",
          "type": "int256"
        },
        {
          "components": [
            {
              "internalType": "uint32",
              "name": "second",
              "type": "uint32"
            },
            {
              "internalType": "address",
              "name": "autoRenewAccount",
              "type": "address"
            },
            {
              "internalType": "uint32",
              "name": "autoRenewPeriod",
              "type": "uint32"
            }
          ],
          "internalType": "struct IHederaTokenService.Expiry",
          "name": "expiryInfo",
          "type": "tuple"
        }
      ],
      "stateMutability": "nonpayable",
      "type": "function"
    },
    {
      "inputs": [
        {
          "internalType": "address",
          "name": "token",
          "type": "address"
        }
      ],
      "name": "getTokenExpiryInfoPublic",
      "outputs": [
        {
          "internalType": "int256",
          "name": "responseCode",
          "type": "int256"
        },
        {
          "components": [
            {
              "internalType": "uint32",
              "name": "second",
              "type": "uint32"
            },
            {
              "internalType": "address",
              "name": "autoRenewAccount",
              "type": "address"
            },
            {
              "internalType": "uint32",
              "name": "autoRenewPeriod",
              "type": "uint32"
            }
          ],
          "internalType": "struct IHederaTokenService.Expiry",
          "name": "expiryInfo",
          "type": "tuple"
        }
      ],
      "stateMutability": "nonpayable",
      "type": "function"
    },
    {
      "inputs": [
        {
          "internalType": "address",
          "name": "token",
          "type": "address"
        }
      ],
      "name": "getTokenInfoPublic",
      "outputs": [
        {
          "internalType": "int256",
          "name": "responseCode",
          "type": "int256"
        },
        {
          "components": [
            {
              "components": [
                {
                  "internalType": "string",
                  "name": "name",
                  "type": "string"
                },
                {
                  "internalType": "string",
                  "name": "symbol",
                  "type": "string"
                },
                {
                  "internalType": "address",
                  "name": "treasury",
                  "type": "address"
                },
                {
                  "internalType": "string",
                  "name": "memo",
                  "type": "string"
                },
                {
                  "internalType": "bool",
                  "name": "tokenSupplyType",
                  "type": "bool"
                },
                {
                  "internalType": "int64",
                  "name": "maxSupply",
                  "type": "int64"
                },
                {
                  "internalType": "bool",
                  "name": "freezeDefault",
                  "type": "bool"
                },
                {
                  "components": [
                    {
                      "internalType": "uint256",
                      "name": "keyType",
                      "type": "uint256"
                    },
                    {
                      "components": [
                        {
                          "internalType": "bool",
                          "name": "inheritAccountKey",
                          "type": "bool"
                        },
                        {
                          "internalType": "address",
                          "name": "contractId",
                          "type": "address"
                        },
                        {
                          "internalType": "bytes",
                          "name": "ed25519",
                          "type": "bytes"
                        },
                        {
                          "internalType": "bytes",
                          "name": "ECDSA_secp256k1",
                          "type": "bytes"
                        },
                        {
                          "internalType": "address",
                          "name": "delegatableContractId",
                          "type": "address"
                        }
                      ],
                      "internalType": "struct IHederaTokenService.KeyValue",
                      "name": "key",
                      "type": "tuple"
                    }
                  ],
                  "internalType": "struct IHederaTokenService.TokenKey[]",
                  "name": "tokenKeys",
                  "type": "tuple[]"
                },
                {
                  "components": [
                    {
                      "internalType": "uint32",
                      "name": "second",
                      "type": "uint32"
                    },
                    {
                      "internalType": "address",
                      "name": "autoRenewAccount",
                      "type": "address"
                    },
                    {
                      "internalType": "uint32",
                      "name": "autoRenewPeriod",
                      "type": "uint32"
                    }
                  ],
                  "internalType": "struct IHederaTokenService.Expiry",
                  "name": "expiry",
                  "type": "tuple"
                }
              ],
              "internalType": "struct IHederaTokenService.HederaToken",
              "name": "token",
              "type": "tuple"
            },
            {
              "internalType": "uint64",
              "name": "totalSupply",
              "type": "uint64"
            },
            {
              "internalType": "bool",
              "name": "deleted",
              "type": "bool"
            },
            {
              "internalType": "bool",
              "name": "defaultKycStatus",
              "type": "bool"
            },
            {
              "internalType": "bool",
              "name": "pauseStatus",
              "type": "bool"
            },
            {
              "components": [
                {
                  "internalType": "uint32",
                  "name": "amount",
                  "type": "uint32"
                },
                {
                  "internalType": "address",
                  "name": "tokenId",
                  "type": "address"
                },
                {
                  "internalType": "bool",
                  "name": "useHbarsForPayment",
                  "type": "bool"
                },
                {
                  "internalType": "bool",
                  "name": "useCurrentTokenForPayment",
                  "type": "bool"
                },
                {
                  "internalType": "address",
                  "name": "feeCollector",
                  "type": "address"
                }
              ],
              "internalType": "struct IHederaTokenService.FixedFee[]",
              "name": "fixedFees",
              "type": "tuple[]"
            },
            {
              "components": [
                {
                  "internalType": "uint32",
                  "name": "numerator",
                  "type": "uint32"
                },
                {
                  "internalType": "uint32",
                  "name": "denominator",
                  "type": "uint32"
                },
                {
                  "internalType": "uint32",
                  "name": "minimumAmount",
                  "type": "uint32"
                },
                {
                  "internalType": "uint32",
                  "name": "maximumAmount",
                  "type": "uint32"
                },
                {
                  "internalType": "bool",
                  "name": "netOfTransfers",
                  "type": "bool"
                },
                {
                  "internalType": "address",
                  "name": "feeCollector",
                  "type": "address"
                }
              ],
              "internalType": "struct IHederaTokenService.FractionalFee[]",
              "name": "fractionalFees",
              "type": "tuple[]"
            },
            {
              "components": [
                {
                  "internalType": "uint32",
                  "name": "numerator",
                  "type": "uint32"
                },
                {
                  "internalType": "uint32",
                  "name": "denominator",
                  "type": "uint32"
                },
                {
                  "internalType": "uint32",
                  "name": "amount",
                  "type": "uint32"
                },
                {
                  "internalType": "address",
                  "name": "tokenId",
                  "type": "address"
                },
                {
                  "internalType": "bool",
                  "name": "useHbarsForPayment",
                  "type": "bool"
                },
                {
                  "internalType": "address",
                  "name": "feeCollector",
                  "type": "address"
                }
              ],
              "internalType": "struct IHederaTokenService.RoyaltyFee[]",
              "name": "royaltyFees",
              "type": "tuple[]"
            },
            {
              "internalType": "string",
              "name": "ledgerId",
              "type": "string"
            }
          ],
          "internalType": "struct IHederaTokenService.TokenInfo",
          "name": "tokenInfo",
          "type": "tuple"
        }
      ],
      "stateMutability": "nonpayable",
      "type": "function"
    },
    {
      "inputs": [
        {
          "internalType": "address",
          "name": "token",
          "type": "address"
        },
        {
          "internalType": "uint256",
          "name": "keyType",
          "type": "uint256"
        }
      ],
      "name": "getTokenKeyPublic",
      "outputs": [
        {
          "internalType": "int64",
          "name": "responseCode",
          "type": "int64"
        },
        {
          "components": [
            {
              "internalType": "bool",
              "name": "inheritAccountKey",
              "type": "bool"
            },
            {
              "internalType": "address",
              "name": "contractId",
              "type": "address"
            },
            {
              "internalType": "bytes",
              "name": "ed25519",
              "type": "bytes"
            },
            {
              "internalType": "bytes",
              "name": "ECDSA_secp256k1",
              "type": "bytes"
            },
            {
              "internalType": "address",
              "name": "delegatableContractId",
              "type": "address"
            }
          ],
          "internalType": "struct IHederaTokenService.KeyValue",
          "name": "key",
          "type": "tuple"
        }
      ],
      "stateMutability": "nonpayable",
      "type": "function"
    },
    {
      "inputs": [
        {
          "internalType": "address",
          "name": "token",
          "type": "address"
        }
      ],
      "name": "getTokenTypePublic",
      "outputs": [
        {
          "internalType": "int64",
          "name": "responseCode",
          "type": "int64"
        },
        {
          "internalType": "int32",
          "name": "tokenType",
          "type": "int32"
        }
      ],
      "stateMutability": "nonpayable",
      "type": "function"
    },
    {
      "inputs": [
        {
          "internalType": "address",
          "name": "token",
          "type": "address"
        },
        {
          "internalType": "address",
          "name": "account",
          "type": "address"
        }
      ],
      "name": "grantTokenKyc",
      "outputs": [
        {
          "internalType": "int64",
          "name": "responseCode",
          "type": "int64"
        }
      ],
      "stateMutability": "nonpayable",
      "type": "function"
    },
    {
      "inputs": [
        {
          "internalType": "address",
          "name": "token",
          "type": "address"
        },
        {
          "internalType": "address",
          "name": "owner",
          "type": "address"
        },
        {
          "internalType": "address",
          "name": "operator",
          "type": "address"
        }
      ],
      "name": "isApprovedForAllPublic",
      "outputs": [
        {
          "internalType": "int256",
          "name": "responseCode",
          "type": "int256"
        },
        {
          "internalType": "bool",
          "name": "approved",
          "type": "bool"
        }
      ],
      "stateMutability": "nonpayable",
      "type": "function"
    },
    {
      "inputs": [
        {
          "internalType": "address",
          "name": "token",
          "type": "address"
        },
        {
          "internalType": "address",
          "name": "account",
          "type": "address"
        }
      ],
      "name": "isFrozenPublic",
      "outputs": [
        {
          "internalType": "int256",
          "name": "responseCode",
          "type": "int256"
        },
        {
          "internalType": "bool",
          "name": "frozen",
          "type": "bool"
        }
      ],
      "stateMutability": "nonpayable",
      "type": "function"
    },
    {
      "inputs": [
        {
          "internalType": "address",
          "name": "token",
          "type": "address"
        },
        {
          "internalType": "address",
          "name": "account",
          "type": "address"
        }
      ],
      "name": "isKyc",
      "outputs": [
        {
          "internalType": "int64",
          "name": "responseCode",
          "type": "int64"
        },
        {
          "internalType": "bool",
          "name": "kycGranted",
          "type": "bool"
        }
      ],
      "stateMutability": "nonpayable",
      "type": "function"
    },
    {
      "inputs": [
        {
          "internalType": "address",
          "name": "token",
          "type": "address"
        },
        {
          "internalType": "address",
          "name": "account",
          "type": "address"
        }
      ],
      "name": "isKycPublic",
      "outputs": [
        {
          "internalType": "int64",
          "name": "responseCode",
          "type": "int64"
        },
        {
          "internalType": "bool",
          "name": "kycGranted",
          "type": "bool"
        }
      ],
      "stateMutability": "nonpayable",
      "type": "function"
    },
    {
      "inputs": [
        {
          "internalType": "address",
          "name": "token",
          "type": "address"
        }
      ],
      "name": "isTokenPublic",
      "outputs": [
        {
          "internalType": "int64",
          "name": "responseCode",
          "type": "int64"
        },
        {
          "internalType": "bool",
          "name": "isTokenFlag",
          "type": "bool"
        }
      ],
      "stateMutability": "nonpayable",
      "type": "function"
    },
    {
      "inputs": [
        {
          "internalType": "address",
          "name": "token",
          "type": "address"
        }
      ],
      "name": "pauseToken",
      "outputs": [
        {
          "internalType": "int256",
          "name": "responseCode",
          "type": "int256"
        }
      ],
      "stateMutability": "nonpayable",
      "type": "function"
    },
    {
      "inputs": [
        {
          "internalType": "address",
          "name": "token",
          "type": "address"
        },
        {
          "internalType": "address",
          "name": "account",
          "type": "address"
        }
      ],
      "name": "revokeTokenKyc",
      "outputs": [
        {
          "internalType": "int64",
          "name": "responseCode",
          "type": "int64"
        }
      ],
      "stateMutability": "nonpayable",
      "type": "function"
    },
    {
      "inputs": [
        {
          "internalType": "address",
          "name": "token",
          "type": "address"
        },
        {
          "internalType": "address",
          "name": "from",
          "type": "address"
        },
        {
          "internalType": "address",
          "name": "to",
          "type": "address"
        },
        {
          "internalType": "uint256",
          "name": "amount",
          "type": "uint256"
        }
      ],
      "name": "transferFrom",
      "outputs": [
        {
          "internalType": "int64",
          "name": "responseCode",
          "type": "int64"
        }
      ],
      "stateMutability": "nonpayable",
      "type": "function"
    },
    {
      "inputs": [
        {
          "internalType": "address",
          "name": "token",
          "type": "address"
        },
        {
          "internalType": "address",
          "name": "from",
          "type": "address"
        },
        {
          "internalType": "address",
          "name": "to",
          "type": "address"
        },
        {
          "internalType": "uint256",
          "name": "serialNumber",
          "type": "uint256"
        }
      ],
      "name": "transferFromNFT",
      "outputs": [
        {
          "internalType": "int64",
          "name": "responseCode",
          "type": "int64"
        }
      ],
      "stateMutability": "nonpayable",
      "type": "function"
    },
    {
      "inputs": [
        {
          "internalType": "address",
          "name": "token",
          "type": "address"
        }
      ],
      "name": "unpauseToken",
      "outputs": [
        {
          "internalType": "int256",
          "name": "responseCode",
          "type": "int256"
        }
      ],
      "stateMutability": "nonpayable",
      "type": "function"
    },
    {
      "inputs": [
        {
          "internalType": "address",
          "name": "token",
          "type": "address"
        },
        {
          "components": [
            {
              "internalType": "uint32",
              "name": "second",
              "type": "uint32"
            },
            {
              "internalType": "address",
              "name": "autoRenewAccount",
              "type": "address"
            },
            {
              "internalType": "uint32",
              "name": "autoRenewPeriod",
              "type": "uint32"
            }
          ],
          "internalType": "struct IHederaTokenService.Expiry",
          "name": "expiryInfo",
          "type": "tuple"
        }
      ],
      "name": "updateTokenExpiryInfo",
      "outputs": [
        {
          "internalType": "int256",
          "name": "responseCode",
          "type": "int256"
        }
      ],
      "stateMutability": "nonpayable",
      "type": "function"
    },
    {
      "inputs": [
        {
          "internalType": "address",
          "name": "token",
          "type": "address"
        },
        {
          "components": [
            {
              "internalType": "string",
              "name": "name",
              "type": "string"
            },
            {
              "internalType": "string",
              "name": "symbol",
              "type": "string"
            },
            {
              "internalType": "address",
              "name": "treasury",
              "type": "address"
            },
            {
              "internalType": "string",
              "name": "memo",
              "type": "string"
            },
            {
              "internalType": "bool",
              "name": "tokenSupplyType",
              "type": "bool"
            },
            {
              "internalType": "int64",
              "name": "maxSupply",
              "type": "int64"
            },
            {
              "internalType": "bool",
              "name": "freezeDefault",
              "type": "bool"
            },
            {
              "components": [
                {
                  "internalType": "uint256",
                  "name": "keyType",
                  "type": "uint256"
                },
                {
                  "components": [
                    {
                      "internalType": "bool",
                      "name": "inheritAccountKey",
                      "type": "bool"
                    },
                    {
                      "internalType": "address",
                      "name": "contractId",
                      "type": "address"
                    },
                    {
                      "internalType": "bytes",
                      "name": "ed25519",
                      "type": "bytes"
                    },
                    {
                      "internalType": "bytes",
                      "name": "ECDSA_secp256k1",
                      "type": "bytes"
                    },
                    {
                      "internalType": "address",
                      "name": "delegatableContractId",
                      "type": "address"
                    }
                  ],
                  "internalType": "struct IHederaTokenService.KeyValue",
                  "name": "key",
                  "type": "tuple"
                }
              ],
              "internalType": "struct IHederaTokenService.TokenKey[]",
              "name": "tokenKeys",
              "type": "tuple[]"
            },
            {
              "components": [
                {
                  "internalType": "uint32",
                  "name": "second",
                  "type": "uint32"
                },
                {
                  "internalType": "address",
                  "name": "autoRenewAccount",
                  "type": "address"
                },
                {
                  "internalType": "uint32",
                  "name": "autoRenewPeriod",
                  "type": "uint32"
                }
              ],
              "internalType": "struct IHederaTokenService.Expiry",
              "name": "expiry",
              "type": "tuple"
            }
          ],
          "internalType": "struct IHederaTokenService.HederaToken",
          "name": "tokenInfo",
          "type": "tuple"
        }
      ],
      "name": "updateTokenInfo",
      "outputs": [
        {
          "internalType": "int256",
          "name": "responseCode",
          "type": "int256"
        }
      ],
      "stateMutability": "nonpayable",
      "type": "function"
    }
  ],
  "bytecode": "0x608060405234801561001057600080fd5b50600160208181527fa6eef7e35abe7026729641147f7915573c7e97b47efa546f5f6e3230263bcb499190915560027fcc69885fda6bcc1a4ace058b4a62bf5e179ea78fd58a1ccd71c22cc9b688792f5560047fd9d16d34ffb15ba3a3d852f0d403e2ce1d691fb54de27ac87cd2f993f3ec330f5560087f7dfe757ecd65cbd7922a9c0161e935dd7fdbcc0e999689c7d31633896b1fc60b5560107fedc95719e9a3b28dd8e80877cb5880a9be7de1a13fc8b05e7999683b6b567643557fe2689cd4a84e23ad2f564004f1c9013e9589d260bde6380aba3ca7e09e4df40c55600660005260407f8f331abe73332f95a25873e8b430885974c0409691f89d643119a11623a7924a55613629806101276000396000f3fe608060405234801561001057600080fd5b50600436106101a35760003560e01c806369837dc2116100ee5780639b23d3d911610097578063c0b19b6d11610071578063c0b19b6d14610415578063d614cdb814610436578063f2c31ff414610449578063f2f38a741461045c57600080fd5b80639b23d3d9146103dc578063a3ad5b55146103ef578063af99c6331461040257600080fd5b806386f88d88116100c857806386f88d88146103895780638c99ef5d1461039c5780638f8d7f99146103c957600080fd5b806369837dc2146103425780636a4dde21146103635780637c41ad2c1461037657600080fd5b80633eed2c39116101505780635a5e6c311161012a5780635a5e6c31146102c75780635b9076b7146102ef5780635d2c5bad1461031257600080fd5b80633eed2c39146102805780634cbdb37b14610293578063593d6e82146102b457600080fd5b80631955de0b116101815780631955de0b1461021c57806319db44b61461023d5780633b3bff0f1461026d57600080fd5b806313c05dd8146101a857806315dacbea146101d557806318370d34146101fb575b600080fd5b6101bb6101b6366004611cf3565b61047d565b604080519283529015156020830152015b60405180910390f35b6101e86101e3366004611d3e565b6104fb565b60405160079190910b81526020016101cc565b61020e610209366004612129565b6105ef565b6040519081526020016101cc565b61022f61022a366004612271565b6106cc565b6040516101cc929190612364565b61025061024b366004612271565b61077b565b604080519283526001600160a01b039091166020830152016101cc565b61020e61027b366004612388565b6107f4565b6101bb61028e366004612388565b6108ce565b6102a66102a13660046123ac565b610948565b6040516101cc929190612823565b61020e6102c236600461283c565b6109be565b6102da6102d5366004611cf3565b6109ea565b604080519283526020830191909152016101cc565b6103026102fd366004612388565b610a5b565b6040516101cc9493929190612872565b610325610320366004612388565b610aed565b6040805160079390930b835260039190910b6020830152016101cc565b610355610350366004612388565b610b68565b6040516101cc9291906128ee565b6101bb610371366004612907565b610bdd565b61020e610384366004612388565b610c54565b6101bb610397366004612388565b610c82565b6103af6103aa366004612388565b610cf3565b6040805160079390930b83529015156020830152016101cc565b6101e86103d7366004612907565b610d6c565b6101e86103ea366004611d3e565b610da2565b6103af6103fd366004612907565b610de7565b6101e8610410366004612907565b610ed9565b610428610423366004612388565b610f0f565b6040516101cc929190612935565b610428610444366004612388565b611006565b6103af610457366004612907565b611110565b61046f61046a366004612388565b6111eb565b6040516101cc92919061296f565b60008061048b858585611260565b60405182815291935091506000805160206135d48339815191529060200160405180910390a1601682146104be57600080fd5b60405181151581527e1c2e72360171244b3bb8cc8ddd767820edf37138ad6f129fb3574b407c307d906020015b60405180910390a1935093915050565b6040516001600160a01b038581166024830152848116604483015283166064820152608481018290526000908190819061016790630aed65f560e11b9060a4015b60408051601f198184030181529181526020820180516001600160e01b03166001600160e01b031990941693909317909252905161057a9190612988565b6000604051808303816000865af19150503d80600081146105b7576040519150601f19603f3d011682016040523d82523d6000602084013e6105bc565b606091505b5091509150816105cd5760156105e1565b808060200190518101906105e191906129b6565b60030b979650505050505050565b60008060006101676001600160a01b03166318370d3460e01b868660405160240161061b9291906129d1565b60408051601f198184030181529181526020820180516001600160e01b03166001600160e01b03199094169390931790925290516106599190612988565b6000604051808303816000865af19150503d8060008114610696576040519150601f19603f3d011682016040523d82523d6000602084013e61069b565b606091505b5091509150816106ac5760156106c0565b808060200190518101906106c091906129b6565b60030b95945050505050565b6040805160a081018252600080825260208201819052606092820183905282820192909252608081018290526107028484611346565b604051600783900b815291935091506000805160206135d48339815191529060200160405180910390a1600782900b60161461073d57600080fd5b7faed084fbdf29b6ba2242463299d7270f64e0f8ced16013cfff249856bd8871578160405161076c91906129f3565b60405180910390a19250929050565b6000806107888484611477565b60405182815291935091506000805160206135d48339815191529060200160405180910390a1601682146107bb57600080fd5b6040516001600160a01b03821681527fc2c78c7c31baf14949e75c51df12be56edb9af523cf82839c2869bbcf13b3ecb9060200161076c565b6040516001600160a01b03821660248201526000908190819061016790633b3bff0f60e01b906044015b60408051601f198184030181529181526020820180516001600160e01b03166001600160e01b031990941693909317909252905161085c9190612988565b6000604051808303816000865af19150503d8060008114610899576040519150601f19603f3d011682016040523d82523d6000602084013e61089e565b606091505b5091509150816108af5760156108c3565b808060200190518101906108c391906129b6565b60030b949350505050565b6000806108da8361153e565b60405182815291935091506000805160206135d48339815191529060200160405180910390a16016821461090d57600080fd5b60405181151581527f6b7f3306751292f85ab4161ee2b0ac16dfc8ded13e6446ce6bd859d0a2f4c78e906020015b60405180910390a1915091565b6000610952611bb2565b61095c8484611622565b60405182815291935091506000805160206135d48339815191529060200160405180910390a16016821461098f57600080fd5b7fd010ef68d3ac3e07c14bed496400730a484fd17c48a4d373cbc4722a56540def8160405161076c9190612a06565b60008060006101676001600160a01b031663593d6e8260e01b868660405160240161061b929190612a19565b6000806109f88585856116fc565b60405182815291935091506000805160206135d48339815191529060200160405180910390a160168214610a2b57600080fd5b6040518181527f25b6684a7e8fe1b676e9c39c8dd65034fbafea906d3bdfd97bf748b7b55e14c8906020016104eb565b60006060806060610a6b856117cf565b604051600785900b8152939750919550935091506000805160206135d48339815191529060200160405180910390a1600784900b601614610aab57600080fd5b7f2efc8334b040613a552197fe34283d6ca2909c8ffae393e128424931f20c69b3838383604051610ade93929190612a5c565b60405180910390a19193509193565b600080610af9836118b6565b604051600783900b815291935091506000805160206135d48339815191529060200160405180910390a1600782900b601614610b3457600080fd5b604051600382900b81527f182137409609594f2b12128230091c673507ea4cab315d59415d5e3f8c301ad59060200161093b565b6000610b72611bed565b610b7b8361197a565b60405182815291935091506000805160206135d48339815191529060200160405180910390a160168214610bae57600080fd5b7fea9419ffbaa766adf982c4c9864330eee1d848eff36c79e510e7e589c8bb265f8160405161093b9190612a95565b600080610bea8484611a4a565b60405160079290920b808352935091506000805160206135d48339815191529060200160405180910390a160168214610c2257600080fd5b60405181151581527f59800d968fcce138300a0019410b4b75041610d65b3cdc5f31656b03ed14912e9060200161076c565b6040516001600160a01b03821660248201526000908190819061016790631f106b4b60e21b9060440161081e565b600080610c8e83611a82565b60405182815291935091506000805160206135d48339815191529060200160405180910390a160168214610cc157600080fd5b60405181151581527f9ee19e13dfa1ba8db2502e15ff56dbecdeb0e0473323fb195473ce648030a2cd9060200161093b565b600080610cff83611ab2565b604051600783900b815291935091506000805160206135d48339815191529060200160405180910390a1600782900b601614610d3a57600080fd5b60405181151581527f5080c42cc33acbcea410fa6eaa925bd878674825501981184fdd53749f8478a89060200161093b565b6040516001600160a01b038381166024830152821660448201526000908190819061016790638f8d7f9960e01b9060640161061b565b6040516001600160a01b038581166024830152848116604483015283166064820152608481018290526000908190819061016790639b23d3d960e01b9060a40161053c565b604051633cb0c7fd60e21b81526001600160a01b038084166004830152821660248201526000908190309063f2c31ff4906044016040805180830381600087803b158015610e3457600080fd5b505af1158015610e48573d6000803e3d6000fd5b505050506040513d601f19601f82011682018060405250810190610e6c9190612abe565b604051600783900b815291935091506000805160206135d48339815191529060200160405180910390a1600782900b601614610ea757600080fd5b60405181151581527fd24dda6928587354b65aa1a18c2eaf249bef7e5bafd2a71fac71d286f76f957f9060200161076c565b6040516001600160a01b03838116602483015282166044820152600090819081906101679063af99c63360e01b9060640161061b565b60408051606081018252600080825260208201819052918101829052604051631ac299b760e31b81526001600160a01b0384166004820152309063d614cdb890602401608060405180830381600087803b158015610f6c57600080fd5b505af1158015610f80573d6000803e3d6000fd5b505050506040513d601f19601f82011682018060405250810190610fa49190612b42565b60405182815291935091506000805160206135d48339815191529060200160405180910390a160168214610fd757600080fd5b7fa0a16bf9db2c17796faeca5af5aaeef8523f9d4c350c512cb00062ad89604f888160405161093b9190612b66565b604080516060810182526000808252602080830182905282840182905283516001600160a01b038616602480830191909152855180830390910181526044909101855290810180516001600160e01b0316631ac299b760e31b1790529251909283918291610167916110789190612988565b6000604051808303816000865af19150503d80600081146110b5576040519150601f19603f3d011682016040523d82523d6000602084013e6110ba565b606091505b5060408051606081018252600080825260208201819052918101919091529193509150826110ea576015816110fe565b818060200190518101906110fe9190612ba0565b60039190910b97909650945050505050565b6040516001600160a01b0383811660248301528216604482015260009081908190819061016790633cb0c7fd60e21b906064015b60408051601f198184030181529181526020820180516001600160e01b03166001600160e01b03199094169390931790925290516111829190612988565b6000604051808303816000865af19150503d80600081146111bf576040519150601f19603f3d011682016040523d82523d6000602084013e6111c4565b606091505b5091509150816111d757601560006110fe565b808060200190518101906110fe9190612bcb565b60006111f5611c0d565b6111fe83611ae2565b60405182815291935091506000805160206135d48339815191529060200160405180910390a16016821461123157600080fd5b7fbdb65f8c2a2e9a3a37ea49e903836883766a922e4ce9b21f684035e304962d418160405161093b9190612bf7565b604080516001600160a01b0385811660248301528481166044830152831660648083019190915282518083039091018152608490910182526020810180516001600160e01b031663f49f40db60e01b1790529051600091829182918291610167916112ca91612988565b6000604051808303816000865af19150503d8060008114611307576040519150601f19603f3d011682016040523d82523d6000602084013e61130c565b606091505b50915091508161131f5760156000611333565b808060200190518101906113339190612bcb565b60039190910b9890975095505050505050565b6040805160a081018252600080825260208083018290526060838501819052808401526080830182905283516001600160a01b03871660248201526044808201879052855180830390910181526064909101855290810180516001600160e01b0316631e26e99760e11b1790529251909283918291610167916113c99190612988565b6000604051808303816000865af19150503d8060008114611406576040519150601f19603f3d011682016040523d82523d6000602084013e61140b565b606091505b50915091506114566040518060a0016040528060001515815260200160006001600160a01b03168152602001606081526020016060815260200160006001600160a01b031681525090565b8261146357601581611333565b818060200190518101906113339190612cf7565b604080516001600160a01b0384166024820152604480820184905282518083039091018152606490910182526020810180516001600160e01b03166304c791b360e11b1790529051600091829182918291610167916114d591612988565b6000604051808303816000865af19150503d8060008114611512576040519150601f19603f3d011682016040523d82523d6000602084013e611517565b606091505b50915091508161152a57601560006110fe565b808060200190518101906110fe9190612d45565b6040516001600160a01b03821660248201526000908190819081906101679063a7daa18d60e01b906044015b60408051601f198184030181529181526020820180516001600160e01b03166001600160e01b03199094169390931790925290516115a89190612988565b6000604051808303816000865af19150503d80600081146115e5576040519150601f19603f3d011682016040523d82523d6000602084013e6115ea565b606091505b5091509150816115fd5760156000611611565b808060200190518101906116119190612bcb565b60039190910b969095509350505050565b600061162c611bb2565b604080516001600160a01b0386166024820152600785900b60448083019190915282518083039091018152606490910182526020810180516001600160e01b031663050fc3b560e31b179052905160009182916101679161168c91612988565b6000604051808303816000865af19150503d80600081146116c9576040519150601f19603f3d011682016040523d82523d6000602084013e6116ce565b606091505b50915091506116db611bb2565b826116e857601581611333565b81806020019051810190611333919061330c565b604080516001600160a01b0385811660248301528481166044830152831660648083019190915282518083039091018152608490910182526020810180516001600160e01b031663927da10560e01b17905290516000918291829182916101679161176691612988565b6000604051808303816000865af19150503d80600081146117a3576040519150601f19603f3d011682016040523d82523d6000602084013e6117a8565b606091505b5091509150816117bb5760156000611333565b8080602001905181019061133391906133f4565b604080516001600160a01b03831660248083019190915282518083039091018152604490910182526020810180516001600160e01b0316630573b08d60e51b179052905160009160609182918291859182916101679161182e91612988565b6000604051808303816000865af19150503d806000811461186b576040519150601f19603f3d011682016040523d82523d6000602084013e611870565b606091505b509150915060608060608461188957601583838361189d565b8380602001905181019061189d9190613420565b60039390930b9d919c509a509098509650505050505050565b604080516001600160a01b03831660248083019190915282518083039091018152604490910182526020810180516001600160e01b03166393272baf60e01b17905290516000918291829182916101679161191091612988565b6000604051808303816000865af19150503d806000811461194d576040519150601f19603f3d011682016040523d82523d6000602084013e611952565b606091505b509150915081611966576015600019611611565b8080602001905181019061161191906134b9565b6000611984611bed565b604080516001600160a01b03851660248083019190915282518083039091018152604490910182526020810180516001600160e01b0316633f28a19b60e01b17905290516000918291610167916119da91612988565b6000604051808303816000865af19150503d8060008114611a17576040519150601f19603f3d011682016040523d82523d6000602084013e611a1c565b606091505b5091509150611a29611bed565b82611a36576015816110fe565b818060200190518101906110fe91906134e3565b6040516001600160a01b03838116602483015282166044820152600090819081908190610167906346de0fb160e01b90606401611144565b6040516001600160a01b03821660248201526000908190819081906101679063335e04c160e01b9060440161156a565b6040516001600160a01b0382166024820152600090819081908190610167906319f3736160e01b9060440161156a565b6000611aec611c0d565b604080516001600160a01b03851660248083019190915282518083039091018152604490910182526020810180516001600160e01b0316631f69565f60e01b1790529051600091829161016791611b4291612988565b6000604051808303816000865af19150503d8060008114611b7f576040519150601f19603f3d011682016040523d82523d6000602084013e611b84565b606091505b5091509150611b91611c0d565b82611b9e576015816110fe565b818060200190518101906110fe919061358f565b6040518060c00160405280611bc5611c0d565b8152600060208201819052604082018190526060808301829052608083015260a09091015290565b6040518060400160405280611c00611c0d565b8152600060209091015290565b60408051610240810182526060610120820181815261014083018290526000610160840181905261018084018390526101a084018190526101c084018190526101e0840181905261020084018390528451928301855280835260208301819052938201939093526102208201529081908152602001600067ffffffffffffffff168152602001600015158152602001600015158152602001600015158152602001606081526020016060815260200160608152602001606081525090565b6001600160a01b0381168114611ce057600080fd5b50565b8035611cee81611ccb565b919050565b600080600060608486031215611d0857600080fd5b8335611d1381611ccb565b92506020840135611d2381611ccb565b91506040840135611d3381611ccb565b809150509250925092565b60008060008060808587031215611d5457600080fd5b8435611d5f81611ccb565b93506020850135611d6f81611ccb565b92506040850135611d7f81611ccb565b9396929550929360600135925050565b634e487b7160e01b600052604160045260246000fd5b6040805190810167ffffffffffffffff81118282101715611dc857611dc8611d8f565b60405290565b60405160a0810167ffffffffffffffff81118282101715611dc857611dc8611d8f565b6040516060810167ffffffffffffffff81118282101715611dc857611dc8611d8f565b604051610120810167ffffffffffffffff81118282101715611dc857611dc8611d8f565b60405160c0810167ffffffffffffffff81118282101715611dc857611dc8611d8f565b604051601f8201601f1916810167ffffffffffffffff81118282101715611e8457611e84611d8f565b604052919050565b600067ffffffffffffffff821115611ea657611ea6611d8f565b50601f01601f191660200190565b600082601f830112611ec557600080fd5b8135611ed8611ed382611e8c565b611e5b565b818152846020838601011115611eed57600080fd5b816020850160208301376000918101602001919091529392505050565b8015158114611ce057600080fd5b8035611cee81611f0a565b8060070b8114611ce057600080fd5b8035611cee81611f23565b600067ffffffffffffffff821115611f5757611f57611d8f565b5060051b60200190565b600082601f830112611f7257600080fd5b81356020611f82611ed383611f3d565b82815260059290921b84018101918181019086841115611fa157600080fd5b8286015b848110156120b757803567ffffffffffffffff80821115611fc557600080fd5b908801906040601f19838c038101821315611fdf57600080fd5b611fe7611da5565b8885013581528285013584811115611ffe57600080fd5b949094019360a0858e03830112156120165760008081fd5b61201e611dce565b91508885013561202d81611f0a565b82528483013561203c81611ccb565b828a0152606085810135858111156120545760008081fd5b6120628f8c838a0101611eb4565b858501525060809350838601358581111561207d5760008081fd5b61208b8f8c838a0101611eb4565b82850152505061209d60a08601611ce3565b928201929092528188015285525050918301918301611fa5565b509695505050505050565b63ffffffff81168114611ce057600080fd5b6000606082840312156120e657600080fd5b6120ee611df1565b905081356120fb816120c2565b8152602082013561210b81611ccb565b6020820152604082013561211e816120c2565b604082015292915050565b6000806040838503121561213c57600080fd5b823561214781611ccb565b9150602083013567ffffffffffffffff8082111561216457600080fd5b90840190610160828703121561217957600080fd5b612181611e14565b82358281111561219057600080fd5b61219c88828601611eb4565b8252506020830135828111156121b157600080fd5b6121bd88828601611eb4565b6020830152506121cf60408401611ce3565b60408201526060830135828111156121e657600080fd5b6121f288828601611eb4565b60608301525061220460808401611f18565b608082015261221560a08401611f32565b60a082015261222660c08401611f18565b60c082015260e08301358281111561223d57600080fd5b61224988828601611f61565b60e0830152506101009150612260878385016120d4565b828201528093505050509250929050565b6000806040838503121561228457600080fd5b823561228f81611ccb565b946020939093013593505050565b60005b838110156122b85781810151838201526020016122a0565b838111156122c7576000848401525b50505050565b600081518084526122e581602086016020860161229d565b601f01601f19169290920160200192915050565b805115158252600060208201516001600160a01b0380821660208601526040840151915060a0604086015261233160a08601836122cd565b91506060840151858303606087015261234a83826122cd565b925050806080850151166080860152508091505092915050565b8260070b815260406020820152600061238060408301846122f9565b949350505050565b60006020828403121561239a57600080fd5b81356123a581611ccb565b9392505050565b600080604083850312156123bf57600080fd5b82356123ca81611ccb565b915060208301356123da81611f23565b809150509250929050565b600081518084526020808501808196508360051b8101915082860160005b85811015612441578284038952815180518552850151604086860181905261242d818701836122f9565b9a87019a9550505090840190600101612403565b5091979650505050505050565b60006101608251818552612464828601826122cd565b9150506020830151848203602086015261247e82826122cd565b915050604083015161249b60408601826001600160a01b03169052565b50606083015184820360608601526124b382826122cd565b91505060808301516124c9608086018215159052565b5060a08301516124de60a086018260070b9052565b5060c08301516124f260c086018215159052565b5060e083015184820360e086015261250a82826123e5565b61010085810151805163ffffffff9081168984015260208201516001600160a01b03166101208a015260408201511661014089015291935091505090949350505050565b600081518084526020808501945080840160005b838110156125be578151805163ffffffff168852838101516001600160a01b03908116858a01526040808301511515908a01526060808301511515908a0152608091820151169088015260a09096019590820190600101612562565b509495945050505050565b600081518084526020808501945080840160005b838110156125be578151805163ffffffff9081168952848201518116858a01526040808301518216908a01526060808301519091169089015260808082015115159089015260a0908101516001600160a01b03169088015260c090960195908201906001016125dd565b600081518084526020808501945080840160005b838110156125be578151805163ffffffff9081168952848201518116858a0152604080830151909116908901526060808201516001600160a01b03908116918a01919091526080808301511515908a015260a091820151169088015260c0909601959082019060010161265b565b600061012082518185526126df8286018261244e565b91505060208301516126fd602086018267ffffffffffffffff169052565b506040830151612711604086018215159052565b506060830151612725606086018215159052565b506080830151612739608086018215159052565b5060a083015184820360a0860152612751828261254e565b91505060c083015184820360c086015261276b82826125c9565b91505060e083015184820360e08601526127858282612647565b91505061010080840151858303828701526127a083826122cd565b9695505050505050565b6000815160c084526127bf60c08501826126c9565b9050602083015160070b602085015260408301516001600160a01b038082166040870152606085015160070b606087015260808501519150858303608087015261280983836122cd565b92508060a08601511660a087015250508091505092915050565b82815260406020820152600061238060408301846127aa565b6000806080838503121561284f57600080fd5b823561285a81611ccb565b915061286984602085016120d4565b90509250929050565b8460070b815260806020820152600061288e608083018661254e565b82810360408401526128a081866125c9565b905082810360608401526128b48185612647565b979650505050505050565b60008151604084526128d460408501826126c9565b60209384015163ffffffff16949093019390935250919050565b82815260406020820152600061238060408301846128bf565b6000806040838503121561291a57600080fd5b823561292581611ccb565b915060208301356123da81611ccb565b828152608081016123a56020830184805163ffffffff90811683526020808301516001600160a01b03169084015260409182015116910152565b82815260406020820152600061238060408301846126c9565b6000825161299a81846020870161229d565b9190910192915050565b8051600381900b8114611cee57600080fd5b6000602082840312156129c857600080fd5b6123a5826129a4565b6001600160a01b0383168152604060208201526000612380604083018461244e565b6020815260006123a560208301846122f9565b6020815260006123a560208301846127aa565b6001600160a01b0383168152608081016123a56020830184805163ffffffff90811683526020808301516001600160a01b03169084015260409182015116910152565b606081526000612a6f606083018661254e565b8281036020840152612a8181866125c9565b905082810360408401526127a08185612647565b6020815260006123a560208301846128bf565b8051611cee81611f23565b8051611cee81611f0a565b60008060408385031215612ad157600080fd5b8251612adc81611f23565b60208401519092506123da81611f0a565b8051611cee81611ccb565b600060608284031215612b0a57600080fd5b612b12611df1565b90508151612b1f816120c2565b81526020820151612b2f81611ccb565b6020820152604082015161211e816120c2565b60008060808385031215612b5557600080fd5b825191506128698460208501612af8565b60608101612b9a8284805163ffffffff90811683526020808301516001600160a01b03169084015260409182015116910152565b92915050565b60008060808385031215612bb357600080fd5b612bbc836129a4565b91506128698460208501612af8565b60008060408385031215612bde57600080fd5b612be7836129a4565b915060208301516123da81611f0a565b6020815260006123a560208301846126c9565b600082601f830112612c1b57600080fd5b8151612c29611ed382611e8c565b818152846020838601011115612c3e57600080fd5b61238082602083016020870161229d565b600060a08284031215612c6157600080fd5b612c69611dce565b90508151612c7681611f0a565b81526020820151612c8681611ccb565b6020820152604082015167ffffffffffffffff80821115612ca657600080fd5b612cb285838601612c0a565b60408401526060840151915080821115612ccb57600080fd5b50612cd884828501612c0a565b6060830152506080820151612cec81611ccb565b608082015292915050565b60008060408385031215612d0a57600080fd5b612d13836129a4565b9150602083015167ffffffffffffffff811115612d2f57600080fd5b612d3b85828601612c4f565b9150509250929050565b60008060408385031215612d5857600080fd5b612d61836129a4565b915060208301516123da81611ccb565b600082601f830112612d8257600080fd5b81516020612d92611ed383611f3d565b82815260059290921b84018101918181019086841115612db157600080fd5b8286015b848110156120b757805167ffffffffffffffff80821115612dd65760008081fd5b908801906040828b03601f1901811315612df05760008081fd5b612df8611da5565b838801518152908301519082821115612e115760008081fd5b612e1f8c8984870101612c4f565b818901528652505050918301918301612db5565b60006101608284031215612e4657600080fd5b612e4e611e14565b9050815167ffffffffffffffff80821115612e6857600080fd5b612e7485838601612c0a565b83526020840151915080821115612e8a57600080fd5b612e9685838601612c0a565b6020840152612ea760408501612aed565b60408401526060840151915080821115612ec057600080fd5b612ecc85838601612c0a565b6060840152612edd60808501612ab3565b6080840152612eee60a08501612aa8565b60a0840152612eff60c08501612ab3565b60c084015260e0840151915080821115612f1857600080fd5b50612f2584828501612d71565b60e083015250610100612f3a84828501612af8565b9082015292915050565b805167ffffffffffffffff81168114611cee57600080fd5b600082601f830112612f6d57600080fd5b81516020612f7d611ed383611f3d565b82815260a09283028501820192828201919087851115612f9c57600080fd5b8387015b858110156130245781818a031215612fb85760008081fd5b612fc0611dce565b8151612fcb816120c2565b815281860151612fda81611ccb565b81870152604082810151612fed81611f0a565b9082015260608281015161300081611f0a565b9082015260808281015161301381611ccb565b908201528452928401928101612fa0565b5090979650505050505050565b600082601f83011261304257600080fd5b81516020613052611ed383611f3d565b82815260c0928302850182019282820191908785111561307157600080fd5b8387015b858110156130245781818a03121561308d5760008081fd5b613095611e38565b81516130a0816120c2565b8152818601516130af816120c2565b818701526040828101516130c2816120c2565b908201526060828101516130d5816120c2565b908201526080828101516130e881611f0a565b9082015260a0828101516130fb81611ccb565b908201528452928401928101613075565b600082601f83011261311d57600080fd5b8151602061312d611ed383611f3d565b82815260c0928302850182019282820191908785111561314c57600080fd5b8387015b858110156130245781818a0312156131685760008081fd5b613170611e38565b815161317b816120c2565b81528186015161318a816120c2565b8187015260408281015161319d816120c2565b908201526060828101516131b081611ccb565b908201526080828101516131c381611f0a565b9082015260a0828101516131d681611ccb565b908201528452928401928101613150565b600061012082840312156131fa57600080fd5b613202611e14565b9050815167ffffffffffffffff8082111561321c57600080fd5b61322885838601612e33565b835261323660208501612f44565b602084015261324760408501612ab3565b604084015261325860608501612ab3565b606084015261326960808501612ab3565b608084015260a084015191508082111561328257600080fd5b61328e85838601612f5c565b60a084015260c08401519150808211156132a757600080fd5b6132b385838601613031565b60c084015260e08401519150808211156132cc57600080fd5b6132d88583860161310c565b60e0840152610100915081840151818111156132f357600080fd5b6132ff86828701612c0a565b8385015250505092915050565b6000806040838503121561331f57600080fd5b613328836129a4565b9150602083015167ffffffffffffffff8082111561334557600080fd5b9084019060c0828703121561335957600080fd5b613361611e38565b82518281111561337057600080fd5b61337c888286016131e7565b82525061338b60208401612aa8565b602082015261339c60408401612aed565b60408201526133ad60608401612aa8565b60608201526080830151828111156133c457600080fd5b6133d088828601612c0a565b6080830152506133e260a08401612aed565b60a08201528093505050509250929050565b6000806040838503121561340757600080fd5b613410836129a4565b9150602083015190509250929050565b6000806000806080858703121561343657600080fd5b61343f856129a4565b9350602085015167ffffffffffffffff8082111561345c57600080fd5b61346888838901612f5c565b9450604087015191508082111561347e57600080fd5b61348a88838901613031565b935060608701519150808211156134a057600080fd5b506134ad8782880161310c565b91505092959194509250565b600080604083850312156134cc57600080fd5b6134d5836129a4565b9150612869602084016129a4565b600080604083850312156134f657600080fd5b6134ff836129a4565b9150602083015167ffffffffffffffff8082111561351c57600080fd5b908401906040828703121561353057600080fd5b60405160408101818110838211171561354b5761354b611d8f565b60405282518281111561355d57600080fd5b613569888286016131e7565b8252506020830151925061357c836120c2565b8260208201528093505050509250929050565b600080604083850312156135a257600080fd5b6135ab836129a4565b9150602083015167ffffffffffffffff8111156135c757600080fd5b612d3b858286016131e756fe90a5cf4cffe88b4edbb041cfc7a8a812c48a5ec30b84640fb37690875168e3aaa264697066735822122023a38f4ea3ae3e02ed2876ad600dc6eec24f544369a40f14bf77b05bc280c67964736f6c63430008090033",
  "linkReferences": {},
  "deployedLinkReferences": {}
}