{
  "_format": "hh-sol-artifact-1",
  "contractName": "TokenQueryContract",
  "sourceName": "contracts/hts-precompile/examples/token-query/TokenQueryContract.sol",
  "abi": [
    {
      "anonymous": false,
      "inputs": [
        {
          "indexed": false,
          "internalType": "uint256",
          "name": "amount",
          "type": "uint256"
        }
      ],
      "name": "AllowanceValue",
      "type": "event"
    },
    {
      "anonymous": false,
      "inputs": [
        {
          "indexed": false,
          "internalType": "bool",
          "name": "approved",
          "type": "bool"
        }
      ],
      "name": "Approved",
      "type": "event"
    },
    {
      "anonymous": false,
      "inputs": [
        {
          "indexed": false,
          "internalType": "address",
          "name": "approved",
          "type": "address"
        }
      ],
      "name": "ApprovedAddress",
      "type": "event"
    },
    {
      "anonymous": false,
      "inputs": [
        {
          "indexed": false,
          "internalType": "bool",
          "name": "frozen",
          "type": "bool"
        }
      ],
      "name": "Frozen",
      "type": "event"
    },
    {
      "anonymous": false,
      "inputs": [
        {
          "components": [
            {
              "components": [
                {
                  "components": [
                    {
                      "internalType": "string",
                      "name": "name",
                      "type": "string"
                    },
                    {
                      "internalType": "string",
                      "name": "symbol",
                      "type": "string"
                    },
                    {
                      "internalType": "address",
                      "name": "treasury",
                      "type": "address"
                    },
                    {
                      "internalType": "string",
                      "name": "memo",
                      "type": "string"
                    },
                    {
                      "internalType": "bool",
                      "name": "tokenSupplyType",
                      "type": "bool"
                    },
                    {
                      "internalType": "int64",
                      "name": "maxSupply",
                      "type": "int64"
                    },
                    {
                      "internalType": "bool",
                      "name": "freezeDefault",
                      "type": "bool"
                    },
                    {
                      "components": [
                        {
                          "internalType": "uint256",
                          "name": "keyType",
                          "type": "uint256"
                        },
                        {
                          "components": [
                            {
                              "internalType": "bool",
                              "name": "inheritAccountKey",
                              "type": "bool"
                            },
                            {
                              "internalType": "address",
                              "name": "contractId",
                              "type": "address"
                            },
                            {
                              "internalType": "bytes",
                              "name": "ed25519",
                              "type": "bytes"
                            },
                            {
                              "internalType": "bytes",
                              "name": "ECDSA_secp256k1",
                              "type": "bytes"
                            },
                            {
                              "internalType": "address",
                              "name": "delegatableContractId",
                              "type": "address"
                            }
                          ],
                          "internalType": "struct IHederaTokenService.KeyValue",
                          "name": "key",
                          "type": "tuple"
                        }
                      ],
                      "internalType": "struct IHederaTokenService.TokenKey[]",
                      "name": "tokenKeys",
                      "type": "tuple[]"
                    },
                    {
                      "components": [
                        {
                          "internalType": "int64",
                          "name": "second",
                          "type": "int64"
                        },
                        {
                          "internalType": "address",
                          "name": "autoRenewAccount",
                          "type": "address"
                        },
                        {
                          "internalType": "int64",
                          "name": "autoRenewPeriod",
                          "type": "int64"
                        }
                      ],
                      "internalType": "struct IHederaTokenService.Expiry",
                      "name": "expiry",
                      "type": "tuple"
                    }
                  ],
                  "internalType": "struct IHederaTokenService.HederaToken",
                  "name": "token",
                  "type": "tuple"
                },
                {
                  "internalType": "int64",
                  "name": "totalSupply",
                  "type": "int64"
                },
                {
                  "internalType": "bool",
                  "name": "deleted",
                  "type": "bool"
                },
                {
                  "internalType": "bool",
                  "name": "defaultKycStatus",
                  "type": "bool"
                },
                {
                  "internalType": "bool",
                  "name": "pauseStatus",
                  "type": "bool"
                },
                {
                  "components": [
                    {
                      "internalType": "int64",
                      "name": "amount",
                      "type": "int64"
                    },
                    {
                      "internalType": "address",
                      "name": "tokenId",
                      "type": "address"
                    },
                    {
                      "internalType": "bool",
                      "name": "useHbarsForPayment",
                      "type": "bool"
                    },
                    {
                      "internalType": "bool",
                      "name": "useCurrentTokenForPayment",
                      "type": "bool"
                    },
                    {
                      "internalType": "address",
                      "name": "feeCollector",
                      "type": "address"
                    }
                  ],
                  "internalType": "struct IHederaTokenService.FixedFee[]",
                  "name": "fixedFees",
                  "type": "tuple[]"
                },
                {
                  "components": [
                    {
                      "internalType": "int64",
                      "name": "numerator",
                      "type": "int64"
                    },
                    {
                      "internalType": "int64",
                      "name": "denominator",
                      "type": "int64"
                    },
                    {
                      "internalType": "int64",
                      "name": "minimumAmount",
                      "type": "int64"
                    },
                    {
                      "internalType": "int64",
                      "name": "maximumAmount",
                      "type": "int64"
                    },
                    {
                      "internalType": "bool",
                      "name": "netOfTransfers",
                      "type": "bool"
                    },
                    {
                      "internalType": "address",
                      "name": "feeCollector",
                      "type": "address"
                    }
                  ],
                  "internalType": "struct IHederaTokenService.FractionalFee[]",
                  "name": "fractionalFees",
                  "type": "tuple[]"
                },
                {
                  "components": [
                    {
                      "internalType": "int64",
                      "name": "numerator",
                      "type": "int64"
                    },
                    {
                      "internalType": "int64",
                      "name": "denominator",
                      "type": "int64"
                    },
                    {
                      "internalType": "int64",
                      "name": "amount",
                      "type": "int64"
                    },
                    {
                      "internalType": "address",
                      "name": "tokenId",
                      "type": "address"
                    },
                    {
                      "internalType": "bool",
                      "name": "useHbarsForPayment",
                      "type": "bool"
                    },
                    {
                      "internalType": "address",
                      "name": "feeCollector",
                      "type": "address"
                    }
                  ],
                  "internalType": "struct IHederaTokenService.RoyaltyFee[]",
                  "name": "royaltyFees",
                  "type": "tuple[]"
                },
                {
                  "internalType": "string",
                  "name": "ledgerId",
                  "type": "string"
                }
              ],
              "internalType": "struct IHederaTokenService.TokenInfo",
              "name": "tokenInfo",
              "type": "tuple"
            },
            {
              "internalType": "int32",
              "name": "decimals",
              "type": "int32"
            }
          ],
          "indexed": false,
          "internalType": "struct IHederaTokenService.FungibleTokenInfo",
          "name": "tokenInfo",
          "type": "tuple"
        }
      ],
      "name": "FungibleTokenInfo",
      "type": "event"
    },
    {
      "anonymous": false,
      "inputs": [
        {
          "indexed": false,
          "internalType": "bool",
          "name": "isToken",
          "type": "bool"
        }
      ],
      "name": "IsToken",
      "type": "event"
    },
    {
      "anonymous": false,
      "inputs": [
        {
          "indexed": false,
          "internalType": "bool",
          "name": "kycGranted",
          "type": "bool"
        }
      ],
      "name": "KycGranted",
      "type": "event"
    },
    {
      "anonymous": false,
      "inputs": [
        {
          "components": [
            {
              "components": [
                {
                  "components": [
                    {
                      "internalType": "string",
                      "name": "name",
                      "type": "string"
                    },
                    {
                      "internalType": "string",
                      "name": "symbol",
                      "type": "string"
                    },
                    {
                      "internalType": "address",
                      "name": "treasury",
                      "type": "address"
                    },
                    {
                      "internalType": "string",
                      "name": "memo",
                      "type": "string"
                    },
                    {
                      "internalType": "bool",
                      "name": "tokenSupplyType",
                      "type": "bool"
                    },
                    {
                      "internalType": "int64",
                      "name": "maxSupply",
                      "type": "int64"
                    },
                    {
                      "internalType": "bool",
                      "name": "freezeDefault",
                      "type": "bool"
                    },
                    {
                      "components": [
                        {
                          "internalType": "uint256",
                          "name": "keyType",
                          "type": "uint256"
                        },
                        {
                          "components": [
                            {
                              "internalType": "bool",
                              "name": "inheritAccountKey",
                              "type": "bool"
                            },
                            {
                              "internalType": "address",
                              "name": "contractId",
                              "type": "address"
                            },
                            {
                              "internalType": "bytes",
                              "name": "ed25519",
                              "type": "bytes"
                            },
                            {
                              "internalType": "bytes",
                              "name": "ECDSA_secp256k1",
                              "type": "bytes"
                            },
                            {
                              "internalType": "address",
                              "name": "delegatableContractId",
                              "type": "address"
                            }
                          ],
                          "internalType": "struct IHederaTokenService.KeyValue",
                          "name": "key",
                          "type": "tuple"
                        }
                      ],
                      "internalType": "struct IHederaTokenService.TokenKey[]",
                      "name": "tokenKeys",
                      "type": "tuple[]"
                    },
                    {
                      "components": [
                        {
                          "internalType": "int64",
                          "name": "second",
                          "type": "int64"
                        },
                        {
                          "internalType": "address",
                          "name": "autoRenewAccount",
                          "type": "address"
                        },
                        {
                          "internalType": "int64",
                          "name": "autoRenewPeriod",
                          "type": "int64"
                        }
                      ],
                      "internalType": "struct IHederaTokenService.Expiry",
                      "name": "expiry",
                      "type": "tuple"
                    }
                  ],
                  "internalType": "struct IHederaTokenService.HederaToken",
                  "name": "token",
                  "type": "tuple"
                },
                {
                  "internalType": "int64",
                  "name": "totalSupply",
                  "type": "int64"
                },
                {
                  "internalType": "bool",
                  "name": "deleted",
                  "type": "bool"
                },
                {
                  "internalType": "bool",
                  "name": "defaultKycStatus",
                  "type": "bool"
                },
                {
                  "internalType": "bool",
                  "name": "pauseStatus",
                  "type": "bool"
                },
                {
                  "components": [
                    {
                      "internalType": "int64",
                      "name": "amount",
                      "type": "int64"
                    },
                    {
                      "internalType": "address",
                      "name": "tokenId",
                      "type": "address"
                    },
                    {
                      "internalType": "bool",
                      "name": "useHbarsForPayment",
                      "type": "bool"
                    },
                    {
                      "internalType": "bool",
                      "name": "useCurrentTokenForPayment",
                      "type": "bool"
                    },
                    {
                      "internalType": "address",
                      "name": "feeCollector",
                      "type": "address"
                    }
                  ],
                  "internalType": "struct IHederaTokenService.FixedFee[]",
                  "name": "fixedFees",
                  "type": "tuple[]"
                },
                {
                  "components": [
                    {
                      "internalType": "int64",
                      "name": "numerator",
                      "type": "int64"
                    },
                    {
                      "internalType": "int64",
                      "name": "denominator",
                      "type": "int64"
                    },
                    {
                      "internalType": "int64",
                      "name": "minimumAmount",
                      "type": "int64"
                    },
                    {
                      "internalType": "int64",
                      "name": "maximumAmount",
                      "type": "int64"
                    },
                    {
                      "internalType": "bool",
                      "name": "netOfTransfers",
                      "type": "bool"
                    },
                    {
                      "internalType": "address",
                      "name": "feeCollector",
                      "type": "address"
                    }
                  ],
                  "internalType": "struct IHederaTokenService.FractionalFee[]",
                  "name": "fractionalFees",
                  "type": "tuple[]"
                },
                {
                  "components": [
                    {
                      "internalType": "int64",
                      "name": "numerator",
                      "type": "int64"
                    },
                    {
                      "internalType": "int64",
                      "name": "denominator",
                      "type": "int64"
                    },
                    {
                      "internalType": "int64",
                      "name": "amount",
                      "type": "int64"
                    },
                    {
                      "internalType": "address",
                      "name": "tokenId",
                      "type": "address"
                    },
                    {
                      "internalType": "bool",
                      "name": "useHbarsForPayment",
                      "type": "bool"
                    },
                    {
                      "internalType": "address",
                      "name": "feeCollector",
                      "type": "address"
                    }
                  ],
                  "internalType": "struct IHederaTokenService.RoyaltyFee[]",
                  "name": "royaltyFees",
                  "type": "tuple[]"
                },
                {
                  "internalType": "string",
                  "name": "ledgerId",
                  "type": "string"
                }
              ],
              "internalType": "struct IHederaTokenService.TokenInfo",
              "name": "tokenInfo",
              "type": "tuple"
            },
            {
              "internalType": "int64",
              "name": "serialNumber",
              "type": "int64"
            },
            {
              "internalType": "address",
              "name": "ownerId",
              "type": "address"
            },
            {
              "internalType": "int64",
              "name": "creationTime",
              "type": "int64"
            },
            {
              "internalType": "bytes",
              "name": "metadata",
              "type": "bytes"
            },
            {
              "internalType": "address",
              "name": "spenderId",
              "type": "address"
            }
          ],
          "indexed": false,
          "internalType": "struct IHederaTokenService.NonFungibleTokenInfo",
          "name": "tokenInfo",
          "type": "tuple"
        }
      ],
      "name": "NonFungibleTokenInfo",
      "type": "event"
    },
    {
      "anonymous": false,
      "inputs": [
        {
          "indexed": false,
          "internalType": "int256",
          "name": "responseCode",
          "type": "int256"
        }
      ],
      "name": "ResponseCode",
      "type": "event"
    },
    {
      "anonymous": false,
      "inputs": [
        {
          "components": [
            {
              "internalType": "int64",
              "name": "amount",
              "type": "int64"
            },
            {
              "internalType": "address",
              "name": "tokenId",
              "type": "address"
            },
            {
              "internalType": "bool",
              "name": "useHbarsForPayment",
              "type": "bool"
            },
            {
              "internalType": "bool",
              "name": "useCurrentTokenForPayment",
              "type": "bool"
            },
            {
              "internalType": "address",
              "name": "feeCollector",
              "type": "address"
            }
          ],
          "indexed": false,
          "internalType": "struct IHederaTokenService.FixedFee[]",
          "name": "fixedFees",
          "type": "tuple[]"
        },
        {
          "components": [
            {
              "internalType": "int64",
              "name": "numerator",
              "type": "int64"
            },
            {
              "internalType": "int64",
              "name": "denominator",
              "type": "int64"
            },
            {
              "internalType": "int64",
              "name": "minimumAmount",
              "type": "int64"
            },
            {
              "internalType": "int64",
              "name": "maximumAmount",
              "type": "int64"
            },
            {
              "internalType": "bool",
              "name": "netOfTransfers",
              "type": "bool"
            },
            {
              "internalType": "address",
              "name": "feeCollector",
              "type": "address"
            }
          ],
          "indexed": false,
          "internalType": "struct IHederaTokenService.FractionalFee[]",
          "name": "fractionalFees",
          "type": "tuple[]"
        },
        {
          "components": [
            {
              "internalType": "int64",
              "name": "numerator",
              "type": "int64"
            },
            {
              "internalType": "int64",
              "name": "denominator",
              "type": "int64"
            },
            {
              "internalType": "int64",
              "name": "amount",
              "type": "int64"
            },
            {
              "internalType": "address",
              "name": "tokenId",
              "type": "address"
            },
            {
              "internalType": "bool",
              "name": "useHbarsForPayment",
              "type": "bool"
            },
            {
              "internalType": "address",
              "name": "feeCollector",
              "type": "address"
            }
          ],
          "indexed": false,
          "internalType": "struct IHederaTokenService.RoyaltyFee[]",
          "name": "royaltyFees",
          "type": "tuple[]"
        }
      ],
      "name": "TokenCustomFees",
      "type": "event"
    },
    {
      "anonymous": false,
      "inputs": [
        {
          "indexed": false,
          "internalType": "bool",
          "name": "defaultFreezeStatus",
          "type": "bool"
        }
      ],
      "name": "TokenDefaultFreezeStatus",
      "type": "event"
    },
    {
      "anonymous": false,
      "inputs": [
        {
          "indexed": false,
          "internalType": "bool",
          "name": "defaultKycStatus",
          "type": "bool"
        }
      ],
      "name": "TokenDefaultKycStatus",
      "type": "event"
    },
    {
      "anonymous": false,
      "inputs": [
        {
          "components": [
            {
              "internalType": "int64",
              "name": "second",
              "type": "int64"
            },
            {
              "internalType": "address",
              "name": "autoRenewAccount",
              "type": "address"
            },
            {
              "internalType": "int64",
              "name": "autoRenewPeriod",
              "type": "int64"
            }
          ],
          "indexed": false,
          "internalType": "struct IHederaTokenService.Expiry",
          "name": "expiryInfo",
          "type": "tuple"
        }
      ],
      "name": "TokenExpiryInfo",
      "type": "event"
    },
    {
      "anonymous": false,
      "inputs": [
        {
          "components": [
            {
              "components": [
                {
                  "internalType": "string",
                  "name": "name",
                  "type": "string"
                },
                {
                  "internalType": "string",
                  "name": "symbol",
                  "type": "string"
                },
                {
                  "internalType": "address",
                  "name": "treasury",
                  "type": "address"
                },
                {
                  "internalType": "string",
                  "name": "memo",
                  "type": "string"
                },
                {
                  "internalType": "bool",
                  "name": "tokenSupplyType",
                  "type": "bool"
                },
                {
                  "internalType": "int64",
                  "name": "maxSupply",
                  "type": "int64"
                },
                {
                  "internalType": "bool",
                  "name": "freezeDefault",
                  "type": "bool"
                },
                {
                  "components": [
                    {
                      "internalType": "uint256",
                      "name": "keyType",
                      "type": "uint256"
                    },
                    {
                      "components": [
                        {
                          "internalType": "bool",
                          "name": "inheritAccountKey",
                          "type": "bool"
                        },
                        {
                          "internalType": "address",
                          "name": "contractId",
                          "type": "address"
                        },
                        {
                          "internalType": "bytes",
                          "name": "ed25519",
                          "type": "bytes"
                        },
                        {
                          "internalType": "bytes",
                          "name": "ECDSA_secp256k1",
                          "type": "bytes"
                        },
                        {
                          "internalType": "address",
                          "name": "delegatableContractId",
                          "type": "address"
                        }
                      ],
                      "internalType": "struct IHederaTokenService.KeyValue",
                      "name": "key",
                      "type": "tuple"
                    }
                  ],
                  "internalType": "struct IHederaTokenService.TokenKey[]",
                  "name": "tokenKeys",
                  "type": "tuple[]"
                },
                {
                  "components": [
                    {
                      "internalType": "int64",
                      "name": "second",
                      "type": "int64"
                    },
                    {
                      "internalType": "address",
                      "name": "autoRenewAccount",
                      "type": "address"
                    },
                    {
                      "internalType": "int64",
                      "name": "autoRenewPeriod",
                      "type": "int64"
                    }
                  ],
                  "internalType": "struct IHederaTokenService.Expiry",
                  "name": "expiry",
                  "type": "tuple"
                }
              ],
              "internalType": "struct IHederaTokenService.HederaToken",
              "name": "token",
              "type": "tuple"
            },
            {
              "internalType": "int64",
              "name": "totalSupply",
              "type": "int64"
            },
            {
              "internalType": "bool",
              "name": "deleted",
              "type": "bool"
            },
            {
              "internalType": "bool",
              "name": "defaultKycStatus",
              "type": "bool"
            },
            {
              "internalType": "bool",
              "name": "pauseStatus",
              "type": "bool"
            },
            {
              "components": [
                {
                  "internalType": "int64",
                  "name": "amount",
                  "type": "int64"
                },
                {
                  "internalType": "address",
                  "name": "tokenId",
                  "type": "address"
                },
                {
                  "internalType": "bool",
                  "name": "useHbarsForPayment",
                  "type": "bool"
                },
                {
                  "internalType": "bool",
                  "name": "useCurrentTokenForPayment",
                  "type": "bool"
                },
                {
                  "internalType": "address",
                  "name": "feeCollector",
                  "type": "address"
                }
              ],
              "internalType": "struct IHederaTokenService.FixedFee[]",
              "name": "fixedFees",
              "type": "tuple[]"
            },
            {
              "components": [
                {
                  "internalType": "int64",
                  "name": "numerator",
                  "type": "int64"
                },
                {
                  "internalType": "int64",
                  "name": "denominator",
                  "type": "int64"
                },
                {
                  "internalType": "int64",
                  "name": "minimumAmount",
                  "type": "int64"
                },
                {
                  "internalType": "int64",
                  "name": "maximumAmount",
                  "type": "int64"
                },
                {
                  "internalType": "bool",
                  "name": "netOfTransfers",
                  "type": "bool"
                },
                {
                  "internalType": "address",
                  "name": "feeCollector",
                  "type": "address"
                }
              ],
              "internalType": "struct IHederaTokenService.FractionalFee[]",
              "name": "fractionalFees",
              "type": "tuple[]"
            },
            {
              "components": [
                {
                  "internalType": "int64",
                  "name": "numerator",
                  "type": "int64"
                },
                {
                  "internalType": "int64",
                  "name": "denominator",
                  "type": "int64"
                },
                {
                  "internalType": "int64",
                  "name": "amount",
                  "type": "int64"
                },
                {
                  "internalType": "address",
                  "name": "tokenId",
                  "type": "address"
                },
                {
                  "internalType": "bool",
                  "name": "useHbarsForPayment",
                  "type": "bool"
                },
                {
                  "internalType": "address",
                  "name": "feeCollector",
                  "type": "address"
                }
              ],
              "internalType": "struct IHederaTokenService.RoyaltyFee[]",
              "name": "royaltyFees",
              "type": "tuple[]"
            },
            {
              "internalType": "string",
              "name": "ledgerId",
              "type": "string"
            }
          ],
          "indexed": false,
          "internalType": "struct IHederaTokenService.TokenInfo",
          "name": "tokenInfo",
          "type": "tuple"
        }
      ],
      "name": "TokenInfo",
      "type": "event"
    },
    {
      "anonymous": false,
      "inputs": [
        {
          "components": [
            {
              "internalType": "bool",
              "name": "inheritAccountKey",
              "type": "bool"
            },
            {
              "internalType": "address",
              "name": "contractId",
              "type": "address"
            },
            {
              "internalType": "bytes",
              "name": "ed25519",
              "type": "bytes"
            },
            {
              "internalType": "bytes",
              "name": "ECDSA_secp256k1",
              "type": "bytes"
            },
            {
              "internalType": "address",
              "name": "delegatableContractId",
              "type": "address"
            }
          ],
          "indexed": false,
          "internalType": "struct IHederaTokenService.KeyValue",
          "name": "key",
          "type": "tuple"
        }
      ],
      "name": "TokenKey",
      "type": "event"
    },
    {
      "anonymous": false,
      "inputs": [
        {
          "indexed": false,
          "internalType": "int32",
          "name": "tokenType",
          "type": "int32"
        }
      ],
      "name": "TokenType",
      "type": "event"
    },
    {
      "inputs": [
        {
          "internalType": "address",
          "name": "token",
          "type": "address"
        },
        {
          "internalType": "address",
          "name": "owner",
          "type": "address"
        },
        {
          "internalType": "address",
          "name": "spender",
          "type": "address"
        }
      ],
      "name": "allowancePublic",
      "outputs": [
        {
          "internalType": "int256",
          "name": "responseCode",
          "type": "int256"
        },
        {
          "internalType": "uint256",
          "name": "amount",
          "type": "uint256"
        }
      ],
      "stateMutability": "nonpayable",
      "type": "function"
    },
    {
      "inputs": [
        {
          "internalType": "address",
          "name": "token",
          "type": "address"
        },
        {
          "internalType": "address",
          "name": "from",
          "type": "address"
        },
        {
          "internalType": "address",
          "name": "to",
          "type": "address"
        },
        {
          "internalType": "uint256",
          "name": "amount",
          "type": "uint256"
        }
      ],
      "name": "delegateTransferFrom",
      "outputs": [
        {
          "internalType": "int64",
          "name": "responseCode",
          "type": "int64"
        }
      ],
      "stateMutability": "nonpayable",
      "type": "function"
    },
    {
      "inputs": [
        {
          "internalType": "address",
          "name": "token",
          "type": "address"
        },
        {
          "internalType": "address",
          "name": "from",
          "type": "address"
        },
        {
          "internalType": "address",
          "name": "to",
          "type": "address"
        },
        {
          "internalType": "uint256",
          "name": "serialNumber",
          "type": "uint256"
        }
      ],
      "name": "delegateTransferFromNFT",
      "outputs": [
        {
          "internalType": "int64",
          "name": "responseCode",
          "type": "int64"
        }
      ],
      "stateMutability": "nonpayable",
      "type": "function"
    },
    {
      "inputs": [
        {
          "internalType": "address",
          "name": "token",
          "type": "address"
        },
        {
          "internalType": "uint256",
          "name": "serialNumber",
          "type": "uint256"
        }
      ],
      "name": "getApprovedPublic",
      "outputs": [
        {
          "internalType": "int256",
          "name": "responseCode",
          "type": "int256"
        },
        {
          "internalType": "address",
          "name": "approved",
          "type": "address"
        }
      ],
      "stateMutability": "nonpayable",
      "type": "function"
    },
    {
      "inputs": [
        {
          "internalType": "address",
          "name": "token",
          "type": "address"
        }
      ],
      "name": "getFungibleTokenInfoPublic",
      "outputs": [
        {
          "internalType": "int256",
          "name": "responseCode",
          "type": "int256"
        },
        {
          "components": [
            {
              "components": [
                {
                  "components": [
                    {
                      "internalType": "string",
                      "name": "name",
                      "type": "string"
                    },
                    {
                      "internalType": "string",
                      "name": "symbol",
                      "type": "string"
                    },
                    {
                      "internalType": "address",
                      "name": "treasury",
                      "type": "address"
                    },
                    {
                      "internalType": "string",
                      "name": "memo",
                      "type": "string"
                    },
                    {
                      "internalType": "bool",
                      "name": "tokenSupplyType",
                      "type": "bool"
                    },
                    {
                      "internalType": "int64",
                      "name": "maxSupply",
                      "type": "int64"
                    },
                    {
                      "internalType": "bool",
                      "name": "freezeDefault",
                      "type": "bool"
                    },
                    {
                      "components": [
                        {
                          "internalType": "uint256",
                          "name": "keyType",
                          "type": "uint256"
                        },
                        {
                          "components": [
                            {
                              "internalType": "bool",
                              "name": "inheritAccountKey",
                              "type": "bool"
                            },
                            {
                              "internalType": "address",
                              "name": "contractId",
                              "type": "address"
                            },
                            {
                              "internalType": "bytes",
                              "name": "ed25519",
                              "type": "bytes"
                            },
                            {
                              "internalType": "bytes",
                              "name": "ECDSA_secp256k1",
                              "type": "bytes"
                            },
                            {
                              "internalType": "address",
                              "name": "delegatableContractId",
                              "type": "address"
                            }
                          ],
                          "internalType": "struct IHederaTokenService.KeyValue",
                          "name": "key",
                          "type": "tuple"
                        }
                      ],
                      "internalType": "struct IHederaTokenService.TokenKey[]",
                      "name": "tokenKeys",
                      "type": "tuple[]"
                    },
                    {
                      "components": [
                        {
                          "internalType": "int64",
                          "name": "second",
                          "type": "int64"
                        },
                        {
                          "internalType": "address",
                          "name": "autoRenewAccount",
                          "type": "address"
                        },
                        {
                          "internalType": "int64",
                          "name": "autoRenewPeriod",
                          "type": "int64"
                        }
                      ],
                      "internalType": "struct IHederaTokenService.Expiry",
                      "name": "expiry",
                      "type": "tuple"
                    }
                  ],
                  "internalType": "struct IHederaTokenService.HederaToken",
                  "name": "token",
                  "type": "tuple"
                },
                {
                  "internalType": "int64",
                  "name": "totalSupply",
                  "type": "int64"
                },
                {
                  "internalType": "bool",
                  "name": "deleted",
                  "type": "bool"
                },
                {
                  "internalType": "bool",
                  "name": "defaultKycStatus",
                  "type": "bool"
                },
                {
                  "internalType": "bool",
                  "name": "pauseStatus",
                  "type": "bool"
                },
                {
                  "components": [
                    {
                      "internalType": "int64",
                      "name": "amount",
                      "type": "int64"
                    },
                    {
                      "internalType": "address",
                      "name": "tokenId",
                      "type": "address"
                    },
                    {
                      "internalType": "bool",
                      "name": "useHbarsForPayment",
                      "type": "bool"
                    },
                    {
                      "internalType": "bool",
                      "name": "useCurrentTokenForPayment",
                      "type": "bool"
                    },
                    {
                      "internalType": "address",
                      "name": "feeCollector",
                      "type": "address"
                    }
                  ],
                  "internalType": "struct IHederaTokenService.FixedFee[]",
                  "name": "fixedFees",
                  "type": "tuple[]"
                },
                {
                  "components": [
                    {
                      "internalType": "int64",
                      "name": "numerator",
                      "type": "int64"
                    },
                    {
                      "internalType": "int64",
                      "name": "denominator",
                      "type": "int64"
                    },
                    {
                      "internalType": "int64",
                      "name": "minimumAmount",
                      "type": "int64"
                    },
                    {
                      "internalType": "int64",
                      "name": "maximumAmount",
                      "type": "int64"
                    },
                    {
                      "internalType": "bool",
                      "name": "netOfTransfers",
                      "type": "bool"
                    },
                    {
                      "internalType": "address",
                      "name": "feeCollector",
                      "type": "address"
                    }
                  ],
                  "internalType": "struct IHederaTokenService.FractionalFee[]",
                  "name": "fractionalFees",
                  "type": "tuple[]"
                },
                {
                  "components": [
                    {
                      "internalType": "int64",
                      "name": "numerator",
                      "type": "int64"
                    },
                    {
                      "internalType": "int64",
                      "name": "denominator",
                      "type": "int64"
                    },
                    {
                      "internalType": "int64",
                      "name": "amount",
                      "type": "int64"
                    },
                    {
                      "internalType": "address",
                      "name": "tokenId",
                      "type": "address"
                    },
                    {
                      "internalType": "bool",
                      "name": "useHbarsForPayment",
                      "type": "bool"
                    },
                    {
                      "internalType": "address",
                      "name": "feeCollector",
                      "type": "address"
                    }
                  ],
                  "internalType": "struct IHederaTokenService.RoyaltyFee[]",
                  "name": "royaltyFees",
                  "type": "tuple[]"
                },
                {
                  "internalType": "string",
                  "name": "ledgerId",
                  "type": "string"
                }
              ],
              "internalType": "struct IHederaTokenService.TokenInfo",
              "name": "tokenInfo",
              "type": "tuple"
            },
            {
              "internalType": "int32",
              "name": "decimals",
              "type": "int32"
            }
          ],
          "internalType": "struct IHederaTokenService.FungibleTokenInfo",
          "name": "tokenInfo",
          "type": "tuple"
        }
      ],
      "stateMutability": "nonpayable",
      "type": "function"
    },
    {
      "inputs": [
        {
          "internalType": "address",
          "name": "token",
          "type": "address"
        },
        {
          "internalType": "int64",
          "name": "serialNumber",
          "type": "int64"
        }
      ],
      "name": "getNonFungibleTokenInfoPublic",
      "outputs": [
        {
          "internalType": "int256",
          "name": "responseCode",
          "type": "int256"
        },
        {
          "components": [
            {
              "components": [
                {
                  "components": [
                    {
                      "internalType": "string",
                      "name": "name",
                      "type": "string"
                    },
                    {
                      "internalType": "string",
                      "name": "symbol",
                      "type": "string"
                    },
                    {
                      "internalType": "address",
                      "name": "treasury",
                      "type": "address"
                    },
                    {
                      "internalType": "string",
                      "name": "memo",
                      "type": "string"
                    },
                    {
                      "internalType": "bool",
                      "name": "tokenSupplyType",
                      "type": "bool"
                    },
                    {
                      "internalType": "int64",
                      "name": "maxSupply",
                      "type": "int64"
                    },
                    {
                      "internalType": "bool",
                      "name": "freezeDefault",
                      "type": "bool"
                    },
                    {
                      "components": [
                        {
                          "internalType": "uint256",
                          "name": "keyType",
                          "type": "uint256"
                        },
                        {
                          "components": [
                            {
                              "internalType": "bool",
                              "name": "inheritAccountKey",
                              "type": "bool"
                            },
                            {
                              "internalType": "address",
                              "name": "contractId",
                              "type": "address"
                            },
                            {
                              "internalType": "bytes",
                              "name": "ed25519",
                              "type": "bytes"
                            },
                            {
                              "internalType": "bytes",
                              "name": "ECDSA_secp256k1",
                              "type": "bytes"
                            },
                            {
                              "internalType": "address",
                              "name": "delegatableContractId",
                              "type": "address"
                            }
                          ],
                          "internalType": "struct IHederaTokenService.KeyValue",
                          "name": "key",
                          "type": "tuple"
                        }
                      ],
                      "internalType": "struct IHederaTokenService.TokenKey[]",
                      "name": "tokenKeys",
                      "type": "tuple[]"
                    },
                    {
                      "components": [
                        {
                          "internalType": "int64",
                          "name": "second",
                          "type": "int64"
                        },
                        {
                          "internalType": "address",
                          "name": "autoRenewAccount",
                          "type": "address"
                        },
                        {
                          "internalType": "int64",
                          "name": "autoRenewPeriod",
                          "type": "int64"
                        }
                      ],
                      "internalType": "struct IHederaTokenService.Expiry",
                      "name": "expiry",
                      "type": "tuple"
                    }
                  ],
                  "internalType": "struct IHederaTokenService.HederaToken",
                  "name": "token",
                  "type": "tuple"
                },
                {
                  "internalType": "int64",
                  "name": "totalSupply",
                  "type": "int64"
                },
                {
                  "internalType": "bool",
                  "name": "deleted",
                  "type": "bool"
                },
                {
                  "internalType": "bool",
                  "name": "defaultKycStatus",
                  "type": "bool"
                },
                {
                  "internalType": "bool",
                  "name": "pauseStatus",
                  "type": "bool"
                },
                {
                  "components": [
                    {
                      "internalType": "int64",
                      "name": "amount",
                      "type": "int64"
                    },
                    {
                      "internalType": "address",
                      "name": "tokenId",
                      "type": "address"
                    },
                    {
                      "internalType": "bool",
                      "name": "useHbarsForPayment",
                      "type": "bool"
                    },
                    {
                      "internalType": "bool",
                      "name": "useCurrentTokenForPayment",
                      "type": "bool"
                    },
                    {
                      "internalType": "address",
                      "name": "feeCollector",
                      "type": "address"
                    }
                  ],
                  "internalType": "struct IHederaTokenService.FixedFee[]",
                  "name": "fixedFees",
                  "type": "tuple[]"
                },
                {
                  "components": [
                    {
                      "internalType": "int64",
                      "name": "numerator",
                      "type": "int64"
                    },
                    {
                      "internalType": "int64",
                      "name": "denominator",
                      "type": "int64"
                    },
                    {
                      "internalType": "int64",
                      "name": "minimumAmount",
                      "type": "int64"
                    },
                    {
                      "internalType": "int64",
                      "name": "maximumAmount",
                      "type": "int64"
                    },
                    {
                      "internalType": "bool",
                      "name": "netOfTransfers",
                      "type": "bool"
                    },
                    {
                      "internalType": "address",
                      "name": "feeCollector",
                      "type": "address"
                    }
                  ],
                  "internalType": "struct IHederaTokenService.FractionalFee[]",
                  "name": "fractionalFees",
                  "type": "tuple[]"
                },
                {
                  "components": [
                    {
                      "internalType": "int64",
                      "name": "numerator",
                      "type": "int64"
                    },
                    {
                      "internalType": "int64",
                      "name": "denominator",
                      "type": "int64"
                    },
                    {
                      "internalType": "int64",
                      "name": "amount",
                      "type": "int64"
                    },
                    {
                      "internalType": "address",
                      "name": "tokenId",
                      "type": "address"
                    },
                    {
                      "internalType": "bool",
                      "name": "useHbarsForPayment",
                      "type": "bool"
                    },
                    {
                      "internalType": "address",
                      "name": "feeCollector",
                      "type": "address"
                    }
                  ],
                  "internalType": "struct IHederaTokenService.RoyaltyFee[]",
                  "name": "royaltyFees",
                  "type": "tuple[]"
                },
                {
                  "internalType": "string",
                  "name": "ledgerId",
                  "type": "string"
                }
              ],
              "internalType": "struct IHederaTokenService.TokenInfo",
              "name": "tokenInfo",
              "type": "tuple"
            },
            {
              "internalType": "int64",
              "name": "serialNumber",
              "type": "int64"
            },
            {
              "internalType": "address",
              "name": "ownerId",
              "type": "address"
            },
            {
              "internalType": "int64",
              "name": "creationTime",
              "type": "int64"
            },
            {
              "internalType": "bytes",
              "name": "metadata",
              "type": "bytes"
            },
            {
              "internalType": "address",
              "name": "spenderId",
              "type": "address"
            }
          ],
          "internalType": "struct IHederaTokenService.NonFungibleTokenInfo",
          "name": "tokenInfo",
          "type": "tuple"
        }
      ],
      "stateMutability": "nonpayable",
      "type": "function"
    },
    {
      "inputs": [
        {
          "internalType": "address",
          "name": "token",
          "type": "address"
        }
      ],
      "name": "getTokenCustomFeesPublic",
      "outputs": [
        {
          "internalType": "int64",
          "name": "responseCode",
          "type": "int64"
        },
        {
          "components": [
            {
              "internalType": "int64",
              "name": "amount",
              "type": "int64"
            },
            {
              "internalType": "address",
              "name": "tokenId",
              "type": "address"
            },
            {
              "internalType": "bool",
              "name": "useHbarsForPayment",
              "type": "bool"
            },
            {
              "internalType": "bool",
              "name": "useCurrentTokenForPayment",
              "type": "bool"
            },
            {
              "internalType": "address",
              "name": "feeCollector",
              "type": "address"
            }
          ],
          "internalType": "struct IHederaTokenService.FixedFee[]",
          "name": "fixedFees",
          "type": "tuple[]"
        },
        {
          "components": [
            {
              "internalType": "int64",
              "name": "numerator",
              "type": "int64"
            },
            {
              "internalType": "int64",
              "name": "denominator",
              "type": "int64"
            },
            {
              "internalType": "int64",
              "name": "minimumAmount",
              "type": "int64"
            },
            {
              "internalType": "int64",
              "name": "maximumAmount",
              "type": "int64"
            },
            {
              "internalType": "bool",
              "name": "netOfTransfers",
              "type": "bool"
            },
            {
              "internalType": "address",
              "name": "feeCollector",
              "type": "address"
            }
          ],
          "internalType": "struct IHederaTokenService.FractionalFee[]",
          "name": "fractionalFees",
          "type": "tuple[]"
        },
        {
          "components": [
            {
              "internalType": "int64",
              "name": "numerator",
              "type": "int64"
            },
            {
              "internalType": "int64",
              "name": "denominator",
              "type": "int64"
            },
            {
              "internalType": "int64",
              "name": "amount",
              "type": "int64"
            },
            {
              "internalType": "address",
              "name": "tokenId",
              "type": "address"
            },
            {
              "internalType": "bool",
              "name": "useHbarsForPayment",
              "type": "bool"
            },
            {
              "internalType": "address",
              "name": "feeCollector",
              "type": "address"
            }
          ],
          "internalType": "struct IHederaTokenService.RoyaltyFee[]",
          "name": "royaltyFees",
          "type": "tuple[]"
        }
      ],
      "stateMutability": "nonpayable",
      "type": "function"
    },
    {
      "inputs": [
        {
          "internalType": "address",
          "name": "token",
          "type": "address"
        }
      ],
      "name": "getTokenDefaultFreezeStatusPublic",
      "outputs": [
        {
          "internalType": "int256",
          "name": "responseCode",
          "type": "int256"
        },
        {
          "internalType": "bool",
          "name": "defaultFreezeStatus",
          "type": "bool"
        }
      ],
      "stateMutability": "nonpayable",
      "type": "function"
    },
    {
      "inputs": [
        {
          "internalType": "address",
          "name": "token",
          "type": "address"
        }
      ],
      "name": "getTokenDefaultKycStatusPublic",
      "outputs": [
        {
          "internalType": "int256",
          "name": "responseCode",
          "type": "int256"
        },
        {
          "internalType": "bool",
          "name": "defaultKycStatus",
          "type": "bool"
        }
      ],
      "stateMutability": "nonpayable",
      "type": "function"
    },
    {
      "inputs": [
        {
          "internalType": "address",
          "name": "token",
          "type": "address"
        }
      ],
      "name": "getTokenExpiryInfoPublic",
      "outputs": [
        {
          "internalType": "int256",
          "name": "responseCode",
          "type": "int256"
        },
        {
          "components": [
            {
              "internalType": "int64",
              "name": "second",
              "type": "int64"
            },
            {
              "internalType": "address",
              "name": "autoRenewAccount",
              "type": "address"
            },
            {
              "internalType": "int64",
              "name": "autoRenewPeriod",
              "type": "int64"
            }
          ],
          "internalType": "struct IHederaTokenService.Expiry",
          "name": "expiryInfo",
          "type": "tuple"
        }
      ],
      "stateMutability": "nonpayable",
      "type": "function"
    },
    {
      "inputs": [
        {
          "internalType": "address",
          "name": "token",
          "type": "address"
        }
      ],
      "name": "getTokenInfoPublic",
      "outputs": [
        {
          "internalType": "int256",
          "name": "responseCode",
          "type": "int256"
        },
        {
          "components": [
            {
              "components": [
                {
                  "internalType": "string",
                  "name": "name",
                  "type": "string"
                },
                {
                  "internalType": "string",
                  "name": "symbol",
                  "type": "string"
                },
                {
                  "internalType": "address",
                  "name": "treasury",
                  "type": "address"
                },
                {
                  "internalType": "string",
                  "name": "memo",
                  "type": "string"
                },
                {
                  "internalType": "bool",
                  "name": "tokenSupplyType",
                  "type": "bool"
                },
                {
                  "internalType": "int64",
                  "name": "maxSupply",
                  "type": "int64"
                },
                {
                  "internalType": "bool",
                  "name": "freezeDefault",
                  "type": "bool"
                },
                {
                  "components": [
                    {
                      "internalType": "uint256",
                      "name": "keyType",
                      "type": "uint256"
                    },
                    {
                      "components": [
                        {
                          "internalType": "bool",
                          "name": "inheritAccountKey",
                          "type": "bool"
                        },
                        {
                          "internalType": "address",
                          "name": "contractId",
                          "type": "address"
                        },
                        {
                          "internalType": "bytes",
                          "name": "ed25519",
                          "type": "bytes"
                        },
                        {
                          "internalType": "bytes",
                          "name": "ECDSA_secp256k1",
                          "type": "bytes"
                        },
                        {
                          "internalType": "address",
                          "name": "delegatableContractId",
                          "type": "address"
                        }
                      ],
                      "internalType": "struct IHederaTokenService.KeyValue",
                      "name": "key",
                      "type": "tuple"
                    }
                  ],
                  "internalType": "struct IHederaTokenService.TokenKey[]",
                  "name": "tokenKeys",
                  "type": "tuple[]"
                },
                {
                  "components": [
                    {
                      "internalType": "int64",
                      "name": "second",
                      "type": "int64"
                    },
                    {
                      "internalType": "address",
                      "name": "autoRenewAccount",
                      "type": "address"
                    },
                    {
                      "internalType": "int64",
                      "name": "autoRenewPeriod",
                      "type": "int64"
                    }
                  ],
                  "internalType": "struct IHederaTokenService.Expiry",
                  "name": "expiry",
                  "type": "tuple"
                }
              ],
              "internalType": "struct IHederaTokenService.HederaToken",
              "name": "token",
              "type": "tuple"
            },
            {
              "internalType": "int64",
              "name": "totalSupply",
              "type": "int64"
            },
            {
              "internalType": "bool",
              "name": "deleted",
              "type": "bool"
            },
            {
              "internalType": "bool",
              "name": "defaultKycStatus",
              "type": "bool"
            },
            {
              "internalType": "bool",
              "name": "pauseStatus",
              "type": "bool"
            },
            {
              "components": [
                {
                  "internalType": "int64",
                  "name": "amount",
                  "type": "int64"
                },
                {
                  "internalType": "address",
                  "name": "tokenId",
                  "type": "address"
                },
                {
                  "internalType": "bool",
                  "name": "useHbarsForPayment",
                  "type": "bool"
                },
                {
                  "internalType": "bool",
                  "name": "useCurrentTokenForPayment",
                  "type": "bool"
                },
                {
                  "internalType": "address",
                  "name": "feeCollector",
                  "type": "address"
                }
              ],
              "internalType": "struct IHederaTokenService.FixedFee[]",
              "name": "fixedFees",
              "type": "tuple[]"
            },
            {
              "components": [
                {
                  "internalType": "int64",
                  "name": "numerator",
                  "type": "int64"
                },
                {
                  "internalType": "int64",
                  "name": "denominator",
                  "type": "int64"
                },
                {
                  "internalType": "int64",
                  "name": "minimumAmount",
                  "type": "int64"
                },
                {
                  "internalType": "int64",
                  "name": "maximumAmount",
                  "type": "int64"
                },
                {
                  "internalType": "bool",
                  "name": "netOfTransfers",
                  "type": "bool"
                },
                {
                  "internalType": "address",
                  "name": "feeCollector",
                  "type": "address"
                }
              ],
              "internalType": "struct IHederaTokenService.FractionalFee[]",
              "name": "fractionalFees",
              "type": "tuple[]"
            },
            {
              "components": [
                {
                  "internalType": "int64",
                  "name": "numerator",
                  "type": "int64"
                },
                {
                  "internalType": "int64",
                  "name": "denominator",
                  "type": "int64"
                },
                {
                  "internalType": "int64",
                  "name": "amount",
                  "type": "int64"
                },
                {
                  "internalType": "address",
                  "name": "tokenId",
                  "type": "address"
                },
                {
                  "internalType": "bool",
                  "name": "useHbarsForPayment",
                  "type": "bool"
                },
                {
                  "internalType": "address",
                  "name": "feeCollector",
                  "type": "address"
                }
              ],
              "internalType": "struct IHederaTokenService.RoyaltyFee[]",
              "name": "royaltyFees",
              "type": "tuple[]"
            },
            {
              "internalType": "string",
              "name": "ledgerId",
              "type": "string"
            }
          ],
          "internalType": "struct IHederaTokenService.TokenInfo",
          "name": "tokenInfo",
          "type": "tuple"
        }
      ],
      "stateMutability": "nonpayable",
      "type": "function"
    },
    {
      "inputs": [
        {
          "internalType": "address",
          "name": "token",
          "type": "address"
        },
        {
          "internalType": "uint256",
          "name": "keyType",
          "type": "uint256"
        }
      ],
      "name": "getTokenKeyPublic",
      "outputs": [
        {
          "internalType": "int64",
          "name": "responseCode",
          "type": "int64"
        },
        {
          "components": [
            {
              "internalType": "bool",
              "name": "inheritAccountKey",
              "type": "bool"
            },
            {
              "internalType": "address",
              "name": "contractId",
              "type": "address"
            },
            {
              "internalType": "bytes",
              "name": "ed25519",
              "type": "bytes"
            },
            {
              "internalType": "bytes",
              "name": "ECDSA_secp256k1",
              "type": "bytes"
            },
            {
              "internalType": "address",
              "name": "delegatableContractId",
              "type": "address"
            }
          ],
          "internalType": "struct IHederaTokenService.KeyValue",
          "name": "key",
          "type": "tuple"
        }
      ],
      "stateMutability": "nonpayable",
      "type": "function"
    },
    {
      "inputs": [
        {
          "internalType": "address",
          "name": "token",
          "type": "address"
        }
      ],
      "name": "getTokenTypePublic",
      "outputs": [
        {
          "internalType": "int64",
          "name": "responseCode",
          "type": "int64"
        },
        {
          "internalType": "int32",
          "name": "tokenType",
          "type": "int32"
        }
      ],
      "stateMutability": "nonpayable",
      "type": "function"
    },
    {
      "inputs": [
        {
          "internalType": "address",
          "name": "token",
          "type": "address"
        },
        {
          "internalType": "address",
          "name": "owner",
          "type": "address"
        },
        {
          "internalType": "address",
          "name": "operator",
          "type": "address"
        }
      ],
      "name": "isApprovedForAllPublic",
      "outputs": [
        {
          "internalType": "int256",
          "name": "responseCode",
          "type": "int256"
        },
        {
          "internalType": "bool",
          "name": "approved",
          "type": "bool"
        }
      ],
      "stateMutability": "nonpayable",
      "type": "function"
    },
    {
      "inputs": [
        {
          "internalType": "address",
          "name": "token",
          "type": "address"
        },
        {
          "internalType": "address",
          "name": "account",
          "type": "address"
        }
      ],
      "name": "isFrozenPublic",
      "outputs": [
        {
          "internalType": "int256",
          "name": "responseCode",
          "type": "int256"
        },
        {
          "internalType": "bool",
          "name": "frozen",
          "type": "bool"
        }
      ],
      "stateMutability": "nonpayable",
      "type": "function"
    },
    {
      "inputs": [
        {
          "internalType": "address",
          "name": "token",
          "type": "address"
        },
        {
          "internalType": "address",
          "name": "account",
          "type": "address"
        }
      ],
      "name": "isKycPublic",
      "outputs": [
        {
          "internalType": "int64",
          "name": "responseCode",
          "type": "int64"
        },
        {
          "internalType": "bool",
          "name": "kycGranted",
          "type": "bool"
        }
      ],
      "stateMutability": "nonpayable",
      "type": "function"
    },
    {
      "inputs": [
        {
          "internalType": "address",
          "name": "token",
          "type": "address"
        }
      ],
      "name": "isTokenPublic",
      "outputs": [
        {
          "internalType": "int64",
          "name": "responseCode",
          "type": "int64"
        },
        {
          "internalType": "bool",
          "name": "isTokenFlag",
          "type": "bool"
        }
      ],
      "stateMutability": "nonpayable",
      "type": "function"
    },
    {
      "inputs": [
        {
          "internalType": "address",
          "name": "token",
          "type": "address"
        },
        {
          "internalType": "address",
          "name": "from",
          "type": "address"
        },
        {
          "internalType": "address",
          "name": "to",
          "type": "address"
        },
        {
          "internalType": "uint256",
          "name": "amount",
          "type": "uint256"
        }
      ],
      "name": "transferFrom",
      "outputs": [
        {
          "internalType": "int64",
          "name": "responseCode",
          "type": "int64"
        }
      ],
      "stateMutability": "nonpayable",
      "type": "function"
    },
    {
      "inputs": [
        {
          "internalType": "address",
          "name": "token",
          "type": "address"
        },
        {
          "internalType": "address",
          "name": "from",
          "type": "address"
        },
        {
          "internalType": "address",
          "name": "to",
          "type": "address"
        },
        {
          "internalType": "uint256",
          "name": "serialNumber",
          "type": "uint256"
        }
      ],
      "name": "transferFromNFT",
      "outputs": [
        {
          "internalType": "int64",
          "name": "responseCode",
          "type": "int64"
        }
      ],
      "stateMutability": "nonpayable",
      "type": "function"
    }
  ],
  "bytecode": "0x608060405234801561001057600080fd5b50600160208181527fa6eef7e35abe7026729641147f7915573c7e97b47efa546f5f6e3230263bcb499190915560027fcc69885fda6bcc1a4ace058b4a62bf5e179ea78fd58a1ccd71c22cc9b688792f5560047fd9d16d34ffb15ba3a3d852f0d403e2ce1d691fb54de27ac87cd2f993f3ec330f5560087f7dfe757ecd65cbd7922a9c0161e935dd7fdbcc0e999689c7d31633896b1fc60b5560107fedc95719e9a3b28dd8e80877cb5880a9be7de1a13fc8b05e7999683b6b567643557fe2689cd4a84e23ad2f564004f1c9013e9589d260bde6380aba3ca7e09e4df40c55600660005260407f8f331abe73332f95a25873e8b430885974c0409691f89d643119a11623a7924a55612e1d806101276000396000f3fe608060405234801561001057600080fd5b50600436106101215760003560e01c80635d2c5bad116100ad5780639b23d3d9116100715780639b23d3d914610300578063a3ad5b5514610313578063c0b19b6d14610326578063eac6f3fe14610347578063f2f38a741461035a57600080fd5b80635d2c5bad1461025c57806369837dc21461028c5780636a4dde21146102ad57806386f88d88146102c05780638c99ef5d146102d357600080fd5b806319db44b6116100f457806319db44b6146101ad5780633eed2c39146101dd5780634cbdb37b146101f05780635a5e6c31146102115780635b9076b71461023957600080fd5b806311e1fc071461012657806313c05dd81461015157806315dacbea146101795780631955de0b1461018c575b600080fd5b610139610134366004611974565b61037b565b60405160079190910b81526020015b60405180910390f35b61016461015f3660046119c5565b61046d565b60408051928352901515602083015201610148565b610139610187366004611974565b6104eb565b61019f61019a366004611a10565b6105a7565b604051610148929190611b03565b6101c06101bb366004611a10565b610656565b604080519283526001600160a01b03909116602083015201610148565b6101646101eb366004611b27565b6106cf565b6102036101fe366004611b5a565b610749565b604051610148929190611fc3565b61022461021f3660046119c5565b6107bf565b60408051928352602083019190915201610148565b61024c610247366004611b27565b610830565b6040516101489493929190611fdc565b61026f61026a366004611b27565b6108c2565b6040805160079390930b835260039190910b602083015201610148565b61029f61029a366004611b27565b61093d565b604051610148929190612055565b6101646102bb36600461206e565b6109b2565b6101646102ce366004611b27565b610a29565b6102e66102e1366004611b27565b610a9a565b6040805160079390930b8352901515602083015201610148565b61013961030e366004611974565b610b13565b6102e661032136600461206e565b610b58565b610339610334366004611b27565b610bd2565b60405161014892919061209c565b610139610355366004611974565b610c59565b61036d610368366004611b27565b610c9e565b6040516101489291906120d6565b6040516001600160a01b038581166024830152848116604483015283166064820152608481018290526000908190819061016790639b23d3d960e01b9060a4015b60408051601f198184030181529181526020820180516001600160e01b03166001600160e01b03199094169390931790925290516103fa91906120ef565b600060405180830381855af49150503d8060008114610435576040519150601f19603f3d011682016040523d82523d6000602084013e61043a565b606091505b50915091508161044b57601561045f565b8080602001905181019061045f9190612122565b60030b979650505050505050565b60008061047b858585610d13565b6040518281529193509150600080516020612dc88339815191529060200160405180910390a1601682146104ae57600080fd5b60405181151581527e1c2e72360171244b3bb8cc8ddd767820edf37138ad6f129fb3574b407c307d906020015b60405180910390a1935093915050565b6040516001600160a01b038581166024830152848116604483015283166064820152608481018290526000908190819061016790630aed65f560e11b9060a4015b60408051601f198184030181529181526020820180516001600160e01b03166001600160e01b031990941693909317909252905161056a91906120ef565b6000604051808303816000865af19150503d8060008114610435576040519150601f19603f3d011682016040523d82523d6000602084013e61043a565b6040805160a081018252600080825260208201819052606092820183905282820192909252608081018290526105dd8484610df9565b604051600783900b81529193509150600080516020612dc88339815191529060200160405180910390a1600782900b60161461061857600080fd5b7faed084fbdf29b6ba2242463299d7270f64e0f8ced16013cfff249856bd88715781604051610647919061213d565b60405180910390a19250929050565b6000806106638484610f2a565b6040518281529193509150600080516020612dc88339815191529060200160405180910390a16016821461069657600080fd5b6040516001600160a01b03821681527fc2c78c7c31baf14949e75c51df12be56edb9af523cf82839c2869bbcf13b3ecb90602001610647565b6000806106db83611003565b6040518281529193509150600080516020612dc88339815191529060200160405180910390a16016821461070e57600080fd5b60405181151581527f6b7f3306751292f85ab4161ee2b0ac16dfc8ded13e6446ce6bd859d0a2f4c78e906020015b60405180910390a1915091565b600061075361184a565b61075d84846110e7565b6040518281529193509150600080516020612dc88339815191529060200160405180910390a16016821461079057600080fd5b7f91ccf16c022fe2d397abee975516433182ab8f781d4ef14b66cc732526e66dcf816040516106479190612150565b6000806107cd8585856111c1565b6040518281529193509150600080516020612dc88339815191529060200160405180910390a16016821461080057600080fd5b6040518181527f25b6684a7e8fe1b676e9c39c8dd65034fbafea906d3bdfd97bf748b7b55e14c8906020016104db565b6000606080606061084085611294565b604051600785900b815293975091955093509150600080516020612dc88339815191529060200160405180910390a1600784900b60161461088057600080fd5b7f2fc15414e589a7221dbee977ae9650a8990a7544fd1b3ae3ae62f4797f412a998383836040516108b393929190612163565b60405180910390a19193509193565b6000806108ce8361137b565b604051600783900b81529193509150600080516020612dc88339815191529060200160405180910390a1600782900b60161461090957600080fd5b604051600382900b81527f182137409609594f2b12128230091c673507ea4cab315d59415d5e3f8c301ad59060200161073c565b6000610947611885565b6109508361143f565b6040518281529193509150600080516020612dc88339815191529060200160405180910390a16016821461098357600080fd5b7f4ef7d8101cfcfd8272047933834c75def485d9965aef926f86f237d4e61ef6388160405161073c919061219c565b6000806109bf848461150f565b60405160079290920b80835293509150600080516020612dc88339815191529060200160405180910390a1601682146109f757600080fd5b60405181151581527f59800d968fcce138300a0019410b4b75041610d65b3cdc5f31656b03ed14912e90602001610647565b600080610a35836115ea565b6040518281529193509150600080516020612dc88339815191529060200160405180910390a160168214610a6857600080fd5b60405181151581527f9ee19e13dfa1ba8db2502e15ff56dbecdeb0e0473323fb195473ce648030a2cd9060200161073c565b600080610aa68361161a565b604051600783900b81529193509150600080516020612dc88339815191529060200160405180910390a1600782900b601614610ae157600080fd5b60405181151581527f5080c42cc33acbcea410fa6eaa925bd878674825501981184fdd53749f8478a89060200161073c565b6040516001600160a01b038581166024830152848116604483015283166064820152608481018290526000908190819061016790639b23d3d960e01b9060a40161052c565b600080610b65848461164a565b604051600783900b81529193509150600080516020612dc88339815191529060200160405180910390a1600782900b601614610ba057600080fd5b60405181151581527fd24dda6928587354b65aa1a18c2eaf249bef7e5bafd2a71fac71d286f76f957f90602001610647565b60408051606081018252600080825260208201819052918101829052610bf783611682565b6040518281529193509150600080516020612dc88339815191529060200160405180910390a160168214610c2a57600080fd5b7ffed17041c1dbab1a630961a1f2d469641f421ee8a8b0f717d6f840c75e4593338160405161073c91906121af565b6040516001600160a01b038581166024830152848116604483015283166064820152608481018290526000908190819061016790630aed65f560e11b9060a4016103bc565b6000610ca86118a5565b610cb18361177a565b6040518281529193509150600080516020612dc88339815191529060200160405180910390a160168214610ce457600080fd5b7fd1a813e1ab0917de7318f3003f23664aed447e65204cf1e19c2c806e591c851f8160405161073c91906121e9565b604080516001600160a01b0385811660248301528481166044830152831660648083019190915282518083039091018152608490910182526020810180516001600160e01b031663f49f40db60e01b179052905160009182918291829161016791610d7d916120ef565b6000604051808303816000865af19150503d8060008114610dba576040519150601f19603f3d011682016040523d82523d6000602084013e610dbf565b606091505b509150915081610dd25760156000610de6565b80806020019051810190610de6919061220c565b60039190910b9890975095505050505050565b6040805160a081018252600080825260208083018290526060838501819052808401526080830182905283516001600160a01b03871660248201526044808201879052855180830390910181526064909101855290810180516001600160e01b0316631e26e99760e11b179052925190928391829161016791610e7c91906120ef565b6000604051808303816000865af19150503d8060008114610eb9576040519150601f19603f3d011682016040523d82523d6000602084013e610ebe565b606091505b5091509150610f096040518060a0016040528060001515815260200160006001600160a01b03168152602001606081526020016060815260200160006001600160a01b031681525090565b82610f1657601581610de6565b81806020019051810190610de6919061242e565b604080516001600160a01b0384166024820152604480820184905282518083039091018152606490910182526020810180516001600160e01b03166304c791b360e11b179052905160009182918291829161016791610f88916120ef565b6000604051808303816000865af19150503d8060008114610fc5576040519150601f19603f3d011682016040523d82523d6000602084013e610fca565b606091505b509150915081610fdd5760156000610ff1565b80806020019051810190610ff1919061247c565b60039190910b97909650945050505050565b6040516001600160a01b03821660248201526000908190819081906101679063a7daa18d60e01b906044015b60408051601f198184030181529181526020820180516001600160e01b03166001600160e01b031990941693909317909252905161106d91906120ef565b6000604051808303816000865af19150503d80600081146110aa576040519150601f19603f3d011682016040523d82523d6000602084013e6110af565b606091505b5091509150816110c257601560006110d6565b808060200190518101906110d6919061220c565b60039190910b969095509350505050565b60006110f161184a565b604080516001600160a01b0386166024820152600785900b60448083019190915282518083039091018152606490910182526020810180516001600160e01b031663050fc3b560e31b1790529051600091829161016791611151916120ef565b6000604051808303816000865af19150503d806000811461118e576040519150601f19603f3d011682016040523d82523d6000602084013e611193565b606091505b50915091506111a061184a565b826111ad57601581610de6565b81806020019051810190610de69190612ada565b604080516001600160a01b0385811660248301528481166044830152831660648083019190915282518083039091018152608490910182526020810180516001600160e01b031663927da10560e01b17905290516000918291829182916101679161122b916120ef565b6000604051808303816000865af19150503d8060008114611268576040519150601f19603f3d011682016040523d82523d6000602084013e61126d565b606091505b5091509150816112805760156000610de6565b80806020019051810190610de69190612bc2565b604080516001600160a01b03831660248083019190915282518083039091018152604490910182526020810180516001600160e01b0316630573b08d60e51b17905290516000916060918291829185918291610167916112f3916120ef565b6000604051808303816000865af19150503d8060008114611330576040519150601f19603f3d011682016040523d82523d6000602084013e611335565b606091505b509150915060608060608461134e576015838383611362565b838060200190518101906113629190612bee565b60039390930b9d919c509a509098509650505050505050565b604080516001600160a01b03831660248083019190915282518083039091018152604490910182526020810180516001600160e01b03166393272baf60e01b1790529051600091829182918291610167916113d5916120ef565b6000604051808303816000865af19150503d8060008114611412576040519150601f19603f3d011682016040523d82523d6000602084013e611417565b606091505b50915091508161142b5760156000196110d6565b808060200190518101906110d69190612c87565b6000611449611885565b604080516001600160a01b03851660248083019190915282518083039091018152604490910182526020810180516001600160e01b0316633f28a19b60e01b179052905160009182916101679161149f916120ef565b6000604051808303816000865af19150503d80600081146114dc576040519150601f19603f3d011682016040523d82523d6000602084013e6114e1565b606091505b50915091506114ee611885565b826114fb57601581610ff1565b81806020019051810190610ff19190612cb1565b6040516001600160a01b03838116602483015282166044820152600090819081908190610167906346de0fb160e01b906064015b60408051601f198184030181529181526020820180516001600160e01b03166001600160e01b031990941693909317909252905161158191906120ef565b6000604051808303816000865af19150503d80600081146115be576040519150601f19603f3d011682016040523d82523d6000602084013e6115c3565b606091505b5091509150816115d65760156000610ff1565b80806020019051810190610ff1919061220c565b6040516001600160a01b03821660248201526000908190819081906101679063335e04c160e01b9060440161102f565b6040516001600160a01b0382166024820152600090819081908190610167906319f3736160e01b9060440161102f565b6040516001600160a01b0383811660248301528216604482015260009081908190819061016790633cb0c7fd60e21b90606401611543565b604080516060810182526000808252602080830182905282840182905283516001600160a01b038616602480830191909152855180830390910181526044909101855290810180516001600160e01b0316631ac299b760e31b1790529251909283918291610167916116f491906120ef565b6000604051808303816000865af19150503d8060008114611731576040519150601f19603f3d011682016040523d82523d6000602084013e611736565b606091505b50604080516060810182526000808252602082018190529181019190915291935091508261176657601581610ff1565b81806020019051810190610ff19190612d58565b60006117846118a5565b604080516001600160a01b03851660248083019190915282518083039091018152604490910182526020810180516001600160e01b0316631f69565f60e01b17905290516000918291610167916117da916120ef565b6000604051808303816000865af19150503d8060008114611817576040519150601f19603f3d011682016040523d82523d6000602084013e61181c565b606091505b50915091506118296118a5565b8261183657601581610ff1565b81806020019051810190610ff19190612d83565b6040518060c0016040528061185d6118a5565b8152600060208201819052604082018190526060808301829052608083015260a09091015290565b60405180604001604052806118986118a5565b8152600060209091015290565b60408051610240810182526060610120820181815261014083018290526000610160840181905261018084018390526101a084018190526101c084018190526101e0840181905261020084018390528451928301855280835260208301819052938201939093526102208201529081908152602001600060070b8152602001600015158152602001600015158152602001600015158152602001606081526020016060815260200160608152602001606081525090565b6001600160a01b038116811461197157600080fd5b50565b6000806000806080858703121561198a57600080fd5b84356119958161195c565b935060208501356119a58161195c565b925060408501356119b58161195c565b9396929550929360600135925050565b6000806000606084860312156119da57600080fd5b83356119e58161195c565b925060208401356119f58161195c565b91506040840135611a058161195c565b809150509250925092565b60008060408385031215611a2357600080fd5b8235611a2e8161195c565b946020939093013593505050565b60005b83811015611a57578181015183820152602001611a3f565b83811115611a66576000848401525b50505050565b60008151808452611a84816020860160208601611a3c565b601f01601f19169290920160200192915050565b805115158252600060208201516001600160a01b0380821660208601526040840151915060a06040860152611ad060a0860183611a6c565b915060608401518583036060870152611ae98382611a6c565b925050806080850151166080860152508091505092915050565b8260070b8152604060208201526000611b1f6040830184611a98565b949350505050565b600060208284031215611b3957600080fd5b8135611b448161195c565b9392505050565b8060070b811461197157600080fd5b60008060408385031215611b6d57600080fd5b8235611b788161195c565b91506020830135611b8881611b4b565b809150509250929050565b600081518084526020808501808196508360051b8101915082860160005b85811015611bef5782840389528151805185528501516040868601819052611bdb81870183611a98565b9a87019a9550505090840190600101611bb1565b5091979650505050505050565b60006101608251818552611c1282860182611a6c565b91505060208301518482036020860152611c2c8282611a6c565b9150506040830151611c4960408601826001600160a01b03169052565b5060608301518482036060860152611c618282611a6c565b9150506080830151611c77608086018215159052565b5060a0830151611c8c60a086018260070b9052565b5060c0830151611ca060c086018215159052565b5060e083015184820360e0860152611cb88282611b93565b91505061010080840151611cf482870182805160070b82526001600160a01b036020820151166020830152604081015160070b60408301525050565b5090949350505050565b600081518084526020808501945080840160005b83811015611d6b578151805160070b8852838101516001600160a01b03908116858a01526040808301511515908a01526060808301511515908a0152608091820151169088015260a09096019590820190600101611d12565b509495945050505050565b600081518084526020808501945080840160005b83811015611d6b5781518051600790810b895284820151810b858a0152604080830151820b908a015260608083015190910b9089015260808082015115159089015260a0908101516001600160a01b03169088015260c09096019590820190600101611d8a565b600081518084526020808501945080840160005b83811015611d6b5781518051600790810b895284820151810b858a015260408083015190910b908901526060808201516001600160a01b03908116918a01919091526080808301511515908a015260a091820151169088015260c09096019590820190600101611e05565b60006101208251818552611e8682860182611bfc565b9150506020830151611e9d602086018260070b9052565b506040830151611eb1604086018215159052565b506060830151611ec5606086018215159052565b506080830151611ed9608086018215159052565b5060a083015184820360a0860152611ef18282611cfe565b91505060c083015184820360c0860152611f0b8282611d76565b91505060e083015184820360e0860152611f258282611df1565b9150506101008084015185830382870152611f408382611a6c565b9695505050505050565b6000815160c08452611f5f60c0850182611e70565b9050602083015160070b602085015260408301516001600160a01b038082166040870152606085015160070b6060870152608085015191508583036080870152611fa98383611a6c565b92508060a08601511660a087015250508091505092915050565b828152604060208201526000611b1f6040830184611f4a565b8460070b8152608060208201526000611ff86080830186611cfe565b828103604084015261200a8186611d76565b9050828103606084015261201e8185611df1565b979650505050505050565b600081516040845261203e6040850182611e70565b60209384015160030b949093019390935250919050565b828152604060208201526000611b1f6040830184612029565b6000806040838503121561208157600080fd5b823561208c8161195c565b91506020830135611b888161195c565b82815260808101611b446020830184805160070b82526001600160a01b036020820151166020830152604081015160070b60408301525050565b828152604060208201526000611b1f6040830184611e70565b60008251612101818460208701611a3c565b9190910192915050565b8051600381900b811461211d57600080fd5b919050565b60006020828403121561213457600080fd5b611b448261210b565b602081526000611b446020830184611a98565b602081526000611b446020830184611f4a565b6060815260006121766060830186611cfe565b82810360208401526121888186611d76565b90508281036040840152611f408185611df1565b602081526000611b446020830184612029565b606081016121e38284805160070b82526001600160a01b036020820151166020830152604081015160070b60408301525050565b92915050565b602081526000611b446020830184611e70565b8051801515811461211d57600080fd5b6000806040838503121561221f57600080fd5b6122288361210b565b9150612236602084016121fc565b90509250929050565b634e487b7160e01b600052604160045260246000fd5b60405160a0810167ffffffffffffffff811182821017156122785761227861223f565b60405290565b6040805190810167ffffffffffffffff811182821017156122785761227861223f565b604051610120810167ffffffffffffffff811182821017156122785761227861223f565b60405160c0810167ffffffffffffffff811182821017156122785761227861223f565b604051601f8201601f1916810167ffffffffffffffff811182821017156123115761231161223f565b604052919050565b805161211d8161195c565b600082601f83011261233557600080fd5b815167ffffffffffffffff81111561234f5761234f61223f565b612362601f8201601f19166020016122e8565b81815284602083860101111561237757600080fd5b611b1f826020830160208701611a3c565b600060a0828403121561239a57600080fd5b6123a2612255565b90506123ad826121fc565b815260208201516123bd8161195c565b6020820152604082015167ffffffffffffffff808211156123dd57600080fd5b6123e985838601612324565b6040840152606084015191508082111561240257600080fd5b5061240f84828501612324565b60608301525060808201516124238161195c565b608082015292915050565b6000806040838503121561244157600080fd5b61244a8361210b565b9150602083015167ffffffffffffffff81111561246657600080fd5b61247285828601612388565b9150509250929050565b6000806040838503121561248f57600080fd5b6124988361210b565b91506020830151611b888161195c565b805161211d81611b4b565b600067ffffffffffffffff8211156124cd576124cd61223f565b5060051b60200190565b600082601f8301126124e857600080fd5b815160206124fd6124f8836124b3565b6122e8565b82815260059290921b8401810191818101908684111561251c57600080fd5b8286015b8481101561259e57805167ffffffffffffffff808211156125415760008081fd5b908801906040828b03601f190181131561255b5760008081fd5b61256361227e565b83880151815290830151908282111561257c5760008081fd5b61258a8c8984870101612388565b818901528652505050918301918301612520565b509695505050505050565b6000606082840312156125bb57600080fd5b6040516060810181811067ffffffffffffffff821117156125de576125de61223f565b806040525080915082516125f181611b4b565b815260208301516126018161195c565b6020820152604083015161261481611b4b565b6040919091015292915050565b6000610160828403121561263457600080fd5b61263c6122a1565b9050815167ffffffffffffffff8082111561265657600080fd5b61266285838601612324565b8352602084015191508082111561267857600080fd5b61268485838601612324565b602084015261269560408501612319565b604084015260608401519150808211156126ae57600080fd5b6126ba85838601612324565b60608401526126cb608085016121fc565b60808401526126dc60a085016124a8565b60a08401526126ed60c085016121fc565b60c084015260e084015191508082111561270657600080fd5b50612713848285016124d7565b60e083015250610100612728848285016125a9565b9082015292915050565b600082601f83011261274357600080fd5b815160206127536124f8836124b3565b82815260a0928302850182019282820191908785111561277257600080fd5b8387015b858110156127f65781818a03121561278e5760008081fd5b612796612255565b81516127a181611b4b565b8152818601516127b08161195c565b8187015260406127c18382016121fc565b9082015260606127d28382016121fc565b908201526080828101516127e58161195c565b908201528452928401928101612776565b5090979650505050505050565b600082601f83011261281457600080fd5b815160206128246124f8836124b3565b82815260c0928302850182019282820191908785111561284357600080fd5b8387015b858110156127f65781818a03121561285f5760008081fd5b6128676122c5565b815161287281611b4b565b81528186015161288181611b4b565b8187015260408281015161289481611b4b565b908201526060828101516128a781611b4b565b9082015260806128b88382016121fc565b9082015260a0828101516128cb8161195c565b908201528452928401928101612847565b600082601f8301126128ed57600080fd5b815160206128fd6124f8836124b3565b82815260c0928302850182019282820191908785111561291c57600080fd5b8387015b858110156127f65781818a0312156129385760008081fd5b6129406122c5565b815161294b81611b4b565b81528186015161295a81611b4b565b8187015260408281015161296d81611b4b565b908201526060828101516129808161195c565b9082015260806129918382016121fc565b9082015260a0828101516129a48161195c565b908201528452928401928101612920565b600061012082840312156129c857600080fd5b6129d06122a1565b9050815167ffffffffffffffff808211156129ea57600080fd5b6129f685838601612621565b8352612a04602085016124a8565b6020840152612a15604085016121fc565b6040840152612a26606085016121fc565b6060840152612a37608085016121fc565b608084015260a0840151915080821115612a5057600080fd5b612a5c85838601612732565b60a084015260c0840151915080821115612a7557600080fd5b612a8185838601612803565b60c084015260e0840151915080821115612a9a57600080fd5b612aa6858386016128dc565b60e084015261010091508184015181811115612ac157600080fd5b612acd86828701612324565b8385015250505092915050565b60008060408385031215612aed57600080fd5b612af68361210b565b9150602083015167ffffffffffffffff80821115612b1357600080fd5b9084019060c08287031215612b2757600080fd5b612b2f6122c5565b825182811115612b3e57600080fd5b612b4a888286016129b5565b825250612b59602084016124a8565b6020820152612b6a60408401612319565b6040820152612b7b606084016124a8565b6060820152608083015182811115612b9257600080fd5b612b9e88828601612324565b608083015250612bb060a08401612319565b60a08201528093505050509250929050565b60008060408385031215612bd557600080fd5b612bde8361210b565b9150602083015190509250929050565b60008060008060808587031215612c0457600080fd5b612c0d8561210b565b9350602085015167ffffffffffffffff80821115612c2a57600080fd5b612c3688838901612732565b94506040870151915080821115612c4c57600080fd5b612c5888838901612803565b93506060870151915080821115612c6e57600080fd5b50612c7b878288016128dc565b91505092959194509250565b60008060408385031215612c9a57600080fd5b612ca38361210b565b91506122366020840161210b565b60008060408385031215612cc457600080fd5b612ccd8361210b565b9150602083015167ffffffffffffffff80821115612cea57600080fd5b9084019060408287031215612cfe57600080fd5b604051604081018181108382111715612d1957612d1961223f565b604052825182811115612d2b57600080fd5b612d37888286016129b5565b825250612d466020840161210b565b60208201528093505050509250929050565b60008060808385031215612d6b57600080fd5b612d748361210b565b915061223684602085016125a9565b60008060408385031215612d9657600080fd5b612d9f8361210b565b9150602083015167ffffffffffffffff811115612dbb57600080fd5b612472858286016129b556fe90a5cf4cffe88b4edbb041cfc7a8a812c48a5ec30b84640fb37690875168e3aaa264697066735822122003f9fc902afc9b62088773d289ce166d3a45c7c7992799924487795cba09d5be64736f6c63430008090033",
  "linkReferences": {},
  "deployedLinkReferences": {}
}