{
  "_format": "hh-sol-artifact-1",
  "contractName": "Test_ERC165",
  "sourceName": "contracts/openzeppelin/ERC-165/Test_ERC165.sol",
  "abi": [
    {
      "inputs": [],
      "name": "hasChalk",
      "outputs": [
        {
          "internalType": "string",
          "name": "",
          "type": "string"
        }
      ],
      "stateMutability": "nonpayable",
      "type": "function"
    },
    {
      "inputs": [],
      "name": "hasClimbingShoes",
      "outputs": [
        {
          "internalType": "string",
          "name": "",
          "type": "string"
        }
      ],
      "stateMutability": "nonpayable",
      "type": "function"
    },
    {
      "inputs": [],
      "name": "hasHarness",
      "outputs": [
        {
          "internalType": "bool",
          "name": "",
          "type": "bool"
        }
      ],
      "stateMutability": "nonpayable",
      "type": "function"
    },
    {
      "inputs": [
        {
          "internalType": "bytes4",
          "name": "interfaceId",
          "type": "bytes4"
        }
      ],
      "name": "supportsInterface",
      "outputs": [
        {
          "internalType": "bool",
          "name": "",
          "type": "bool"
        }
      ],
      "stateMutability": "view",
      "type": "function"
    }
  ],
  "bytecode": "0x608060405234801561001057600080fd5b50610192806100206000396000f3fe608060405234801561001057600080fd5b506004361061004c5760003560e01c806301ffc9a71461005157806364e10bf81461007957806368147b5e14610079578063922ffe6f1461009e575b600080fd5b61006461005f3660046100dc565b6100a5565b60405190151581526020015b60405180910390f35b604080518082018252600381526279657360e81b60208201529051610070919061010d565b6001610064565b60006001600160e01b03198216639eda8ec960e01b14806100d657506301ffc9a760e01b6001600160e01b03198316145b92915050565b6000602082840312156100ee57600080fd5b81356001600160e01b03198116811461010657600080fd5b9392505050565b60006020808352835180602085015260005b8181101561013b5785810183015185820160400152820161011f565b506000604082860101526040601f19601f830116850101925050509291505056fea264697066735822122026f9c4595e2488380fd56026ca2efd00553c95d50cc92d0a3c3238e5da2b900c64736f6c63430008170033",
  "linkReferences": {},
  "deployedLinkReferences": {}
}