{
  "_format": "hh-sol-artifact-1",
  "contractName": "ERC20Contract",
  "sourceName": "contracts/system-contracts/hedera-token-service/examples/erc-20/ERC20Contract.sol",
  "abi": [
    {
      "inputs": [
        {
          "internalType": "address",
          "name": "token",
          "type": "address"
        },
        {
          "internalType": "address",
          "name": "owner",
          "type": "address"
        },
        {
          "internalType": "address",
          "name": "spender",
          "type": "address"
        }
      ],
      "name": "allowance",
      "outputs": [
        {
          "internalType": "uint256",
          "name": "",
          "type": "uint256"
        }
      ],
      "stateMutability": "view",
      "type": "function"
    },
    {
      "inputs": [
        {
          "internalType": "address",
          "name": "token",
          "type": "address"
        },
        {
          "internalType": "address",
          "name": "spender",
          "type": "address"
        },
        {
          "internalType": "uint256",
          "name": "amount",
          "type": "uint256"
        }
      ],
      "name": "approve",
      "outputs": [
        {
          "internalType": "bool",
          "name": "",
          "type": "bool"
        }
      ],
      "stateMutability": "nonpayable",
      "type": "function"
    },
    {
      "inputs": [
        {
          "internalType": "address",
          "name": "token",
          "type": "address"
        },
        {
          "internalType": "address",
          "name": "account",
          "type": "address"
        }
      ],
      "name": "balanceOf",
      "outputs": [
        {
          "internalType": "uint256",
          "name": "",
          "type": "uint256"
        }
      ],
      "stateMutability": "view",
      "type": "function"
    },
    {
      "inputs": [
        {
          "internalType": "address",
          "name": "token",
          "type": "address"
        }
      ],
      "name": "decimals",
      "outputs": [
        {
          "internalType": "uint8",
          "name": "",
          "type": "uint8"
        }
      ],
      "stateMutability": "view",
      "type": "function"
    },
    {
      "inputs": [
        {
          "internalType": "address",
          "name": "token",
          "type": "address"
        },
        {
          "internalType": "address",
          "name": "recipient",
          "type": "address"
        },
        {
          "internalType": "uint256",
          "name": "amount",
          "type": "uint256"
        }
      ],
      "name": "delegateApprove",
      "outputs": [],
      "stateMutability": "nonpayable",
      "type": "function"
    },
    {
      "inputs": [
        {
          "internalType": "address",
          "name": "token",
          "type": "address"
        },
        {
          "internalType": "address",
          "name": "recipient",
          "type": "address"
        },
        {
          "internalType": "uint256",
          "name": "amount",
          "type": "uint256"
        }
      ],
      "name": "delegateTransfer",
      "outputs": [],
      "stateMutability": "nonpayable",
      "type": "function"
    },
    {
      "inputs": [
        {
          "internalType": "address",
          "name": "token",
          "type": "address"
        },
        {
          "internalType": "address",
          "name": "from",
          "type": "address"
        },
        {
          "internalType": "address",
          "name": "to",
          "type": "address"
        },
        {
          "internalType": "uint256",
          "name": "amount",
          "type": "uint256"
        }
      ],
      "name": "delegateTransferFrom",
      "outputs": [],
      "stateMutability": "payable",
      "type": "function"
    },
    {
      "inputs": [
        {
          "internalType": "address",
          "name": "token",
          "type": "address"
        }
      ],
      "name": "name",
      "outputs": [
        {
          "internalType": "string",
          "name": "",
          "type": "string"
        }
      ],
      "stateMutability": "view",
      "type": "function"
    },
    {
      "inputs": [
        {
          "internalType": "address",
          "name": "token",
          "type": "address"
        }
      ],
      "name": "symbol",
      "outputs": [
        {
          "internalType": "string",
          "name": "",
          "type": "string"
        }
      ],
      "stateMutability": "view",
      "type": "function"
    },
    {
      "inputs": [
        {
          "internalType": "address",
          "name": "token",
          "type": "address"
        }
      ],
      "name": "totalSupply",
      "outputs": [
        {
          "internalType": "uint256",
          "name": "",
          "type": "uint256"
        }
      ],
      "stateMutability": "view",
      "type": "function"
    },
    {
      "inputs": [
        {
          "internalType": "address",
          "name": "token",
          "type": "address"
        },
        {
          "internalType": "address",
          "name": "recipient",
          "type": "address"
        },
        {
          "internalType": "uint256",
          "name": "amount",
          "type": "uint256"
        }
      ],
      "name": "transfer",
      "outputs": [
        {
          "internalType": "bool",
          "name": "",
          "type": "bool"
        }
      ],
      "stateMutability": "nonpayable",
      "type": "function"
    },
    {
      "inputs": [
        {
          "internalType": "address",
          "name": "token",
          "type": "address"
        },
        {
          "internalType": "address",
          "name": "sender",
          "type": "address"
        },
        {
          "internalType": "address",
          "name": "recipient",
          "type": "address"
        },
        {
          "internalType": "uint256",
          "name": "amount",
          "type": "uint256"
        }
      ],
      "name": "transferFrom",
      "outputs": [
        {
          "internalType": "bool",
          "name": "",
          "type": "bool"
        }
      ],
      "stateMutability": "nonpayable",
      "type": "function"
    }
  ],
  "bytecode": "0x608060405234801561000f575f80fd5b50610b068061001d5f395ff3fe6080604052600436106100c3575f3560e01c8063d449a83211610071578063eac6f3fe1161004c578063eac6f3fe14610226578063f4b79da514610239578063f7888aec14610258575f80fd5b8063d449a832146101b7578063e1f21c67146101e8578063e4dc2aa414610207575f80fd5b8063927da105116100a1578063927da1051461014c578063a86e357614610179578063beabacc814610198575f80fd5b806301984892146100c757806315dacbea146100fc578063734194a71461012b575b5f80fd5b3480156100d2575f80fd5b506100e66100e1366004610844565b610277565b6040516100f3919061087f565b60405180910390f35b348015610107575f80fd5b5061011b6101163660046108b1565b6102e1565b60405190151581526020016100f3565b348015610136575f80fd5b5061014a6101453660046108f9565b610365565b005b348015610157575f80fd5b5061016b610166366004610932565b61044d565b6040519081526020016100f3565b348015610184575f80fd5b506100e6610193366004610844565b6104c8565b3480156101a3575f80fd5b5061011b6101b23660046108f9565b610505565b3480156101c2575f80fd5b506101d66101d1366004610844565b610579565b60405160ff90911681526020016100f3565b3480156101f3575f80fd5b5061011b6102023660046108f9565b6105da565b348015610212575f80fd5b5061016b610221366004610844565b610612565b61014a6102343660046108b1565b610673565b348015610244575f80fd5b5061014a6102533660046108f9565b61075f565b348015610263575f80fd5b5061016b610272366004610972565b6107b7565b6060816001600160a01b03166306fdde036040518163ffffffff1660e01b81526004015f60405180830381865afa1580156102b4573d5f803e3d5ffd5b505050506040513d5f823e601f3d908101601f191682016040526102db91908101906109b7565b92915050565b6040516323b872dd60e01b81526001600160a01b0384811660048301528381166024830152604482018390525f91908616906323b872dd906064016020604051808303815f875af1158015610338573d5f803e3d5ffd5b505050506040513d601f19601f8201168201806040525081019061035c9190610a5f565b95945050505050565b6040516001600160a01b038381166024830152604482018390525f919085169060640160408051601f198184030181529181526020820180516001600160e01b031663095ea7b360e01b179052516103bd9190610a7e565b5f60405180830381855af49150503d805f81146103f5576040519150601f19603f3d011682016040523d82523d5f602084013e6103fa565b606091505b50509050806104475760405162461bcd60e51b815260206004820152601460248201527311195b1959d85d194818d85b1b0819985a5b195960621b60448201526064015b60405180910390fd5b50505050565b604051636eb1769f60e11b81526001600160a01b03838116600483015282811660248301525f919085169063dd62ed3e90604401602060405180830381865afa15801561049c573d5f803e3d5ffd5b505050506040513d601f19601f820116820180604052508101906104c09190610a99565b949350505050565b6060816001600160a01b03166395d89b416040518163ffffffff1660e01b81526004015f60405180830381865afa1580156102b4573d5f803e3d5ffd5b60405163a9059cbb60e01b81526001600160a01b038381166004830152602482018390525f919085169063a9059cbb906044015b6020604051808303815f875af1158015610555573d5f803e3d5ffd5b505050506040513d601f19601f820116820180604052508101906104c09190610a5f565b5f816001600160a01b031663313ce5676040518163ffffffff1660e01b8152600401602060405180830381865afa1580156105b6573d5f803e3d5ffd5b505050506040513d601f19601f820116820180604052508101906102db9190610ab0565b60405163095ea7b360e01b81526001600160a01b038381166004830152602482018390525f919085169063095ea7b390604401610539565b5f816001600160a01b03166318160ddd6040518163ffffffff1660e01b8152600401602060405180830381865afa15801561064f573d5f803e3d5ffd5b505050506040513d601f19601f820116820180604052508101906102db9190610a99565b6040516001600160a01b0384811660248301528381166044830152606482018390525f919086169060840160408051601f198184030181529181526020820180516001600160e01b03166323b872dd60e01b179052516106d39190610a7e565b5f60405180830381855af49150503d805f811461070b576040519150601f19603f3d011682016040523d82523d5f602084013e610710565b606091505b50509050806107585760405162461bcd60e51b815260206004820152601460248201527311195b1959d85d194818d85b1b0819985a5b195960621b604482015260640161043e565b5050505050565b6040516001600160a01b038381166024830152604482018390525f919085169060640160408051601f198184030181529181526020820180516001600160e01b031663a9059cbb60e01b179052516103bd9190610a7e565b6040516370a0823160e01b81526001600160a01b0382811660048301525f91908416906370a0823190602401602060405180830381865afa1580156107fe573d5f803e3d5ffd5b505050506040513d601f19601f820116820180604052508101906108229190610a99565b9392505050565b80356001600160a01b038116811461083f575f80fd5b919050565b5f60208284031215610854575f80fd5b61082282610829565b5f5b8381101561087757818101518382015260200161085f565b50505f910152565b602081525f825180602084015261089d81604085016020870161085d565b601f01601f19169190910160400192915050565b5f805f80608085870312156108c4575f80fd5b6108cd85610829565b93506108db60208601610829565b92506108e960408601610829565b9396929550929360600135925050565b5f805f6060848603121561090b575f80fd5b61091484610829565b925061092260208501610829565b9150604084013590509250925092565b5f805f60608486031215610944575f80fd5b61094d84610829565b925061095b60208501610829565b915061096960408501610829565b90509250925092565b5f8060408385031215610983575f80fd5b61098c83610829565b915061099a60208401610829565b90509250929050565b634e487b7160e01b5f52604160045260245ffd5b5f602082840312156109c7575f80fd5b815167ffffffffffffffff808211156109de575f80fd5b818401915084601f8301126109f1575f80fd5b815181811115610a0357610a036109a3565b604051601f8201601f19908116603f01168101908382118183101715610a2b57610a2b6109a3565b81604052828152876020848701011115610a43575f80fd5b610a5483602083016020880161085d565b979650505050505050565b5f60208284031215610a6f575f80fd5b81518015158114610822575f80fd5b5f8251610a8f81846020870161085d565b9190910192915050565b5f60208284031215610aa9575f80fd5b5051919050565b5f60208284031215610ac0575f80fd5b815160ff81168114610822575f80fdfea264697066735822122032ef79d5bda1a6ab55fcd92bf066f9f57ab898f52e6f08d06f6023692d6cf2fa64736f6c63430008180033",
  "linkReferences": {},
  "deployedLinkReferences": {}
}