{
  "_format": "hh-sol-artifact-1",
  "contractName": "ContractCaller",
  "sourceName": "contracts/yul/contract-caller/ContractCaller.sol",
  "abi": [
    {
      "anonymous": false,
      "inputs": [
        {
          "indexed": false,
          "internalType": "bool",
          "name": "success",
          "type": "bool"
        }
      ],
      "name": "CallResult",
      "type": "event"
    },
    {
      "anonymous": false,
      "inputs": [
        {
          "indexed": false,
          "internalType": "uint256",
          "name": "count",
          "type": "uint256"
        }
      ],
      "name": "CallReturnedData",
      "type": "event"
    },
    {
      "inputs": [
        {
          "internalType": "uint256",
          "name": "gasLimit",
          "type": "uint256"
        },
        {
          "internalType": "address payable",
          "name": "_targetContractAddress",
          "type": "address"
        },
        {
          "internalType": "bytes",
          "name": "input",
          "type": "bytes"
        }
      ],
      "name": "call",
      "outputs": [],
      "stateMutability": "payable",
      "type": "function"
    },
    {
      "inputs": [
        {
          "internalType": "uint256",
          "name": "gasLimit",
          "type": "uint256"
        },
        {
          "internalType": "address payable",
          "name": "_targetContractAddress",
          "type": "address"
        },
        {
          "internalType": "bytes",
          "name": "input",
          "type": "bytes"
        }
      ],
      "name": "callCode",
      "outputs": [],
      "stateMutability": "payable",
      "type": "function"
    },
    {
      "inputs": [],
      "name": "count",
      "outputs": [
        {
          "internalType": "uint256",
          "name": "",
          "type": "uint256"
        }
      ],
      "stateMutability": "view",
      "type": "function"
    },
    {
      "inputs": [
        {
          "internalType": "uint256",
          "name": "gasLimit",
          "type": "uint256"
        },
        {
          "internalType": "address payable",
          "name": "_targetContractAddress",
          "type": "address"
        },
        {
          "internalType": "bytes",
          "name": "input",
          "type": "bytes"
        }
      ],
      "name": "delegateCall",
      "outputs": [],
      "stateMutability": "nonpayable",
      "type": "function"
    },
    {
      "inputs": [
        {
          "internalType": "uint256",
          "name": "gasLimit",
          "type": "uint256"
        },
        {
          "internalType": "address payable",
          "name": "_targetContractAddress",
          "type": "address"
        },
        {
          "internalType": "bytes",
          "name": "input",
          "type": "bytes"
        }
      ],
      "name": "staticcall",
      "outputs": [],
      "stateMutability": "nonpayable",
      "type": "function"
    }
  ],
  "bytecode": "0x608060405234801561001057600080fd5b5061037b806100206000396000f3fe60806040526004361061004a5760003560e01c806306661abd1461004f578063087f108b146100775780630e21a7f0146100995780631a723a67146100b95780636ba3300c146100cc575b600080fd5b34801561005b57600080fd5b5061006560005481565b60405190815260200160405180910390f35b34801561008357600080fd5b5061009761009236600461025f565b6100df565b005b3480156100a557600080fd5b506100976100b436600461025f565b610168565b6100976100c736600461025f565b6101b9565b6100976100da36600461025f565b6101fd565b600080604051602081855160208701888afa9051604051821515815291935091507f9686a96220179cf6714c44293405f4ea5d8bef104774b6590164b7084e5732fa906020015b60405180910390a16040518181527fbbf40723f7e1e1ff16bed7c6b540029cfb01451aef5687656c570e5ecf57d0b89060200160405180910390a15050505050565b60008060008351602085018688f490507f9686a96220179cf6714c44293405f4ea5d8bef104774b6590164b7084e5732fa816040516101ab911515815260200190565b60405180910390a150505050565b6000806000835160208501348789f290507f9686a96220179cf6714c44293405f4ea5d8bef104774b6590164b7084e5732fa816040516101ab911515815260200190565b60008060405160208185516020870134898bf19051604051821515815291935091507f9686a96220179cf6714c44293405f4ea5d8bef104774b6590164b7084e5732fa90602001610126565b634e487b7160e01b600052604160045260246000fd5b60008060006060848603121561027457600080fd5b83359250602084013573ffffffffffffffffffffffffffffffffffffffff8116811461029f57600080fd5b9150604084013567ffffffffffffffff808211156102bc57600080fd5b818601915086601f8301126102d057600080fd5b8135818111156102e2576102e2610249565b604051601f8201601f19908116603f0116810190838211818310171561030a5761030a610249565b8160405282815289602084870101111561032357600080fd5b826020860160208301376000602084830101528095505050505050925092509256fea26469706673582212204243783d39a1f27a5e7dd4105d8e80b3097332e679abeab58d438a7b39c0e72864736f6c63430008170033",
  "linkReferences": {},
  "deployedLinkReferences": {}
}