{
  "_format": "hh-sol-artifact-1",
  "contractName": "TargetContract",
  "sourceName": "contracts/yul/contract-caller/ContractCaller.sol",
  "abi": [
    {
      "inputs": [
        {
          "internalType": "uint256",
          "name": "_count",
          "type": "uint256"
        }
      ],
      "stateMutability": "nonpayable",
      "type": "constructor"
    },
    {
      "inputs": [],
      "name": "getCount",
      "outputs": [
        {
          "internalType": "uint256",
          "name": "",
          "type": "uint256"
        }
      ],
      "stateMutability": "view",
      "type": "function"
    },
    {
      "inputs": [
        {
          "internalType": "uint256",
          "name": "_count",
          "type": "uint256"
        }
      ],
      "name": "setCount",
      "outputs": [],
      "stateMutability": "nonpayable",
      "type": "function"
    }
  ],
  "bytecode": "0x608060405234801561001057600080fd5b5060405161010a38038061010a83398101604081905261002f91610037565b600055610050565b60006020828403121561004957600080fd5b5051919050565b60ac8061005e6000396000f3fe6080604052348015600f57600080fd5b506004361060325760003560e01c8063a87d942c146037578063d14e62b814604c575b600080fd5b60005460405190815260200160405180910390f35b605c6057366004605e565b600055565b005b600060208284031215606f57600080fd5b503591905056fea2646970667358221220b548af824d43b2431b6a6c3274b3f39afef702d5ed55fb3ff9f212dc616a462064736f6c63430008170033",
  "linkReferences": {},
  "deployedLinkReferences": {}
}