{
  "_format": "hh-sol-artifact-1",
  "contractName": "TargetContract",
  "sourceName": "contracts/yul/contract-caller/ContractCaller.sol",
  "abi": [
    {
      "inputs": [
        {
          "internalType": "uint256",
          "name": "_count",
          "type": "uint256"
        }
      ],
      "stateMutability": "nonpayable",
      "type": "constructor"
    },
    {
      "inputs": [],
      "name": "getCount",
      "outputs": [
        {
          "internalType": "uint256",
          "name": "",
          "type": "uint256"
        }
      ],
      "stateMutability": "view",
      "type": "function"
    },
    {
      "inputs": [
        {
          "internalType": "uint256",
          "name": "_count",
          "type": "uint256"
        }
      ],
      "name": "setCount",
      "outputs": [],
      "stateMutability": "nonpayable",
      "type": "function"
    }
  ],
  "bytecode": "0x608060405234801561001057600080fd5b5060405161010a38038061010a83398101604081905261002f91610037565b600055610050565b60006020828403121561004957600080fd5b5051919050565b60ac8061005e6000396000f3fe6080604052348015600f57600080fd5b506004361060325760003560e01c8063a87d942c146037578063d14e62b814604c575b600080fd5b60005460405190815260200160405180910390f35b605c6057366004605e565b600055565b005b600060208284031215606f57600080fd5b503591905056fea26469706673582212205fb7ebb7905c4f84ccc50b1111ebe79fc9995b0e01d99ed40079a18a90f18a9364736f6c63430008180033",
  "linkReferences": {},
  "deployedLinkReferences": {}
}