{
  "_format": "hh-sol-artifact-1",
  "contractName": "AtomicHTS",
  "sourceName": "contracts/hts-precompile/AtomicHTS.sol",
  "abi": [
    {
      "anonymous": false,
      "inputs": [
        {
          "indexed": false,
          "internalType": "int256",
          "name": "transferTokenResponseCode",
          "type": "int256"
        },
        {
          "indexed": false,
          "internalType": "int256",
          "name": "approveResponseCode",
          "type": "int256"
        },
        {
          "indexed": false,
          "internalType": "int256",
          "name": "associateResponseCode",
          "type": "int256"
        },
        {
          "indexed": false,
          "internalType": "int256",
          "name": "grantKYCResponseCode",
          "type": "int256"
        },
        {
          "indexed": false,
          "internalType": "int256",
          "name": "transferFromResponseCode",
          "type": "int256"
        }
      ],
      "name": "BatchApproveAssociateGrantKYCTransferFrom",
      "type": "event"
    },
    {
      "anonymous": false,
      "inputs": [
        {
          "indexed": false,
          "internalType": "int256",
          "name": "associateResponseCode",
          "type": "int256"
        },
        {
          "indexed": false,
          "internalType": "int256",
          "name": "grantKYCResponseCode",
          "type": "int256"
        },
        {
          "indexed": false,
          "internalType": "int256",
          "name": "transferTokenResponseCode",
          "type": "int256"
        }
      ],
      "name": "BatchAssociateGrantKYCTransfer",
      "type": "event"
    },
    {
      "anonymous": false,
      "inputs": [
        {
          "indexed": false,
          "internalType": "int256",
          "name": "associateResponseCode",
          "type": "int256"
        },
        {
          "indexed": false,
          "internalType": "int256",
          "name": "mintTokenResponseCode",
          "type": "int256"
        },
        {
          "indexed": false,
          "internalType": "int256",
          "name": "grantKYCResponseCode",
          "type": "int256"
        },
        {
          "indexed": false,
          "internalType": "int256",
          "name": "transferTokenResponseCode",
          "type": "int256"
        }
      ],
      "name": "BatchAssociateMintGrantTransfer",
      "type": "event"
    },
    {
      "anonymous": false,
      "inputs": [
        {
          "indexed": false,
          "internalType": "int256",
          "name": "mintTokenResponseCode",
          "type": "int256"
        },
        {
          "indexed": false,
          "internalType": "int256",
          "name": "unfreezeTokenResponseCode",
          "type": "int256"
        },
        {
          "indexed": false,
          "internalType": "int256",
          "name": "grantKYCResponseCode",
          "type": "int256"
        },
        {
          "indexed": false,
          "internalType": "int256",
          "name": "freezeTokenResponseCode",
          "type": "int256"
        }
      ],
      "name": "BatchMintUnfreezeGrantKYCTransferFreeze",
      "type": "event"
    },
    {
      "anonymous": false,
      "inputs": [
        {
          "indexed": false,
          "internalType": "int256",
          "name": "unfreezeTokenResponseCode",
          "type": "int256"
        },
        {
          "indexed": false,
          "internalType": "int256",
          "name": "grantKYCResponseCode",
          "type": "int256"
        },
        {
          "indexed": false,
          "internalType": "int256",
          "name": "transferTokenResponseCode",
          "type": "int256"
        },
        {
          "indexed": false,
          "internalType": "int256",
          "name": "freezeTokenResponseCode",
          "type": "int256"
        }
      ],
      "name": "BatchUnfreezeGrantKYCTransferFreeze",
      "type": "event"
    },
    {
      "anonymous": false,
      "inputs": [
        {
          "indexed": false,
          "internalType": "int256",
          "name": "wipeTokenResponseCode",
          "type": "int256"
        },
        {
          "indexed": false,
          "internalType": "int256",
          "name": "mintTokenResponseCode",
          "type": "int256"
        },
        {
          "indexed": false,
          "internalType": "int256",
          "name": "transferTokenResponseCode",
          "type": "int256"
        }
      ],
      "name": "BatchWipeMintTransfer",
      "type": "event"
    },
    {
      "anonymous": false,
      "inputs": [
        {
          "indexed": false,
          "internalType": "bool",
          "name": "",
          "type": "bool"
        },
        {
          "indexed": false,
          "internalType": "bytes",
          "name": "",
          "type": "bytes"
        }
      ],
      "name": "CallResponseEvent",
      "type": "event"
    },
    {
      "inputs": [
        {
          "internalType": "address",
          "name": "token",
          "type": "address"
        },
        {
          "internalType": "address",
          "name": "owner",
          "type": "address"
        },
        {
          "internalType": "address",
          "name": "receipient",
          "type": "address"
        },
        {
          "internalType": "int64",
          "name": "transferAmount",
          "type": "int64"
        },
        {
          "internalType": "uint256",
          "name": "allowance",
          "type": "uint256"
        }
      ],
      "name": "batchApproveAssociateGrantKYCTransferFrom",
      "outputs": [],
      "stateMutability": "nonpayable",
      "type": "function"
    },
    {
      "inputs": [
        {
          "internalType": "address",
          "name": "token",
          "type": "address"
        },
        {
          "internalType": "address",
          "name": "sender",
          "type": "address"
        },
        {
          "internalType": "address",
          "name": "receiver",
          "type": "address"
        },
        {
          "internalType": "int64",
          "name": "amount",
          "type": "int64"
        }
      ],
      "name": "batchAssociateGrantKYCTransfer",
      "outputs": [],
      "stateMutability": "nonpayable",
      "type": "function"
    },
    {
      "inputs": [
        {
          "internalType": "address",
          "name": "token",
          "type": "address"
        },
        {
          "internalType": "address",
          "name": "sender",
          "type": "address"
        },
        {
          "internalType": "address",
          "name": "receiver",
          "type": "address"
        },
        {
          "internalType": "int64",
          "name": "amount",
          "type": "int64"
        }
      ],
      "name": "batchAssociateMintGrantTransfer",
      "outputs": [],
      "stateMutability": "nonpayable",
      "type": "function"
    },
    {
      "inputs": [
        {
          "internalType": "address",
          "name": "token",
          "type": "address"
        },
        {
          "internalType": "address",
          "name": "sender",
          "type": "address"
        },
        {
          "internalType": "address",
          "name": "receiver",
          "type": "address"
        },
        {
          "internalType": "int64",
          "name": "mintAmount",
          "type": "int64"
        },
        {
          "internalType": "int64",
          "name": "transferAmount",
          "type": "int64"
        }
      ],
      "name": "batchMintUnfreezeGrantKYCTransferFreeze",
      "outputs": [],
      "stateMutability": "nonpayable",
      "type": "function"
    },
    {
      "inputs": [
        {
          "internalType": "address",
          "name": "token",
          "type": "address"
        },
        {
          "internalType": "address",
          "name": "sender",
          "type": "address"
        },
        {
          "internalType": "address",
          "name": "receiver",
          "type": "address"
        },
        {
          "internalType": "int64",
          "name": "amount",
          "type": "int64"
        }
      ],
      "name": "batchUnfreezeGrantKYCTransferFreeze",
      "outputs": [],
      "stateMutability": "nonpayable",
      "type": "function"
    },
    {
      "inputs": [
        {
          "internalType": "address",
          "name": "token",
          "type": "address"
        },
        {
          "internalType": "address",
          "name": "treasury",
          "type": "address"
        },
        {
          "internalType": "address",
          "name": "owner",
          "type": "address"
        },
        {
          "internalType": "int64",
          "name": "wipedAmount",
          "type": "int64"
        },
        {
          "internalType": "int64",
          "name": "mintAmount",
          "type": "int64"
        },
        {
          "internalType": "int64",
          "name": "transferAmount",
          "type": "int64"
        }
      ],
      "name": "batchWipeMintTransfer",
      "outputs": [],
      "stateMutability": "nonpayable",
      "type": "function"
    },
    {
      "inputs": [
        {
          "internalType": "address",
          "name": "token",
          "type": "address"
        },
        {
          "internalType": "bytes",
          "name": "encodedFunctionSelector",
          "type": "bytes"
        }
      ],
      "name": "redirectForToken",
      "outputs": [
        {
          "internalType": "int256",
          "name": "responseCode",
          "type": "int256"
        },
        {
          "internalType": "bytes",
          "name": "response",
          "type": "bytes"
        }
      ],
      "stateMutability": "nonpayable",
      "type": "function"
    },
    {
      "inputs": [
        {
          "internalType": "address",
          "name": "token",
          "type": "address"
        },
        {
          "internalType": "address",
          "name": "from",
          "type": "address"
        },
        {
          "internalType": "address",
          "name": "to",
          "type": "address"
        },
        {
          "internalType": "uint256",
          "name": "amount",
          "type": "uint256"
        }
      ],
      "name": "transferFrom",
      "outputs": [
        {
          "internalType": "int64",
          "name": "responseCode",
          "type": "int64"
        }
      ],
      "stateMutability": "nonpayable",
      "type": "function"
    },
    {
      "inputs": [
        {
          "internalType": "address",
          "name": "token",
          "type": "address"
        },
        {
          "internalType": "address",
          "name": "from",
          "type": "address"
        },
        {
          "internalType": "address",
          "name": "to",
          "type": "address"
        },
        {
          "internalType": "uint256",
          "name": "serialNumber",
          "type": "uint256"
        }
      ],
      "name": "transferFromNFT",
      "outputs": [
        {
          "internalType": "int64",
          "name": "responseCode",
          "type": "int64"
        }
      ],
      "stateMutability": "nonpayable",
      "type": "function"
    }
  ],
  "bytecode": "0x608060405234801561001057600080fd5b50611981806100206000396000f3fe608060405234801561001057600080fd5b50600436106100935760003560e01c8063693b673f11610066578063693b673f1461010c578063744270871461011f5780639b23d3d914610132578063c352d09b14610145578063db649c361461015857600080fd5b806315dacbea146100985780632233bd1d146100c35780635fc8bc40146100d8578063618dc65e146100eb575b600080fd5b6100ab6100a63660046113f4565b61016b565b60405160079190910b81526020015b60405180910390f35b6100d66100d1366004611451565b61025f565b005b6100d66100e63660046114cd565b6103c8565b6100fe6100f9366004611572565b610745565b6040516100ba929190611668565b6100d661011a366004611689565b610863565b6100d661012d3660046116df565b6109d0565b6100ab6101403660046113f4565b610bfd565b6100d6610153366004611689565b610c42565b6100d6610166366004611689565b610e14565b6040516001600160a01b038581166024830152848116604483015283166064820152608481018290526000908190819061016790630aed65f560e11b9060a4015b60408051601f198184030181529181526020820180516001600160e01b03166001600160e01b03199094169390931790925290516101ea919061174a565b6000604051808303816000865af19150503d8060008114610227576040519150601f19603f3d011682016040523d82523d6000602084013e61022c565b606091505b50915091508161023d576015610251565b808060200190518101906102519190611778565b60030b979650505050505050565b6060600061026e888787610fe2565b9050601681146102c55760405162461bcd60e51b815260206004820152601560248201527f4661696c656420746f207769706520746f6b656e2e000000000000000000000060448201526064015b60405180910390fd5b60006102d28986856110d0565b50909150506016811461031f5760405162461bcd60e51b81526020600482015260156024820152742330b4b632b2103a379036b4b73a103a37b5b2b71760591b60448201526064016102bc565b600061032d8a8a8a886111ce565b90506016811461037b5760405162461bcd60e51b81526020600482015260196024820152782330b4b632b2103a37903a3930b739b332b9103a37b5b2b71760391b60448201526064016102bc565b60408051848152602081018490529081018290527fdcf20e982e9b4fb642e084af8406d7ae1483fb2d09e7a65a23cfdad87a4ed3ac9060600160405180910390a150505050505050505050565b3060006103d58288611216565b905060168114806103e6575060c281145b6104325760405162461bcd60e51b815260206004820152601a60248201527f4661696c656420746f206173736f636961746520746f6b656e2e00000000000060448201526064016102bc565b600061043e88846112f9565b60070b9050601681146104905760405162461bcd60e51b815260206004820152601a6024820152792330b4b632b2103a379033b930b73a103a37b5b2b71025aca19760311b60448201526064016102bc565b600061049e898986896111ce565b9050601681146104ec5760405162461bcd60e51b81526020600482015260196024820152782330b4b632b2103a37903a3930b739b332b9103a37b5b2b71760391b60448201526064016102bc565b60006104f98a868861132f565b90506016811461054b5760405162461bcd60e51b815260206004820181905260248201527f4661696c656420746f206772616e7420746f6b656e20616c6c6f77616e63652e60448201526064016102bc565b6000610557898c611216565b90506016811480610568575060c281145b6105b45760405162461bcd60e51b815260206004820152601a60248201527f4661696c656420746f206173736f636961746520746f6b656e2e00000000000060448201526064016102bc565b60006105c08c8b6112f9565b60070b9050601681146106125760405162461bcd60e51b815260206004820152601a6024820152792330b4b632b2103a379033b930b73a103a37b5b2b71025aca19760311b60448201526064016102bc565b604051630aed65f560e11b81526001600160a01b038d8116600483015288811660248301528b1660448201526064810189905260009030906315dacbea906084016020604051808303816000875af1158015610672573d6000803e3d6000fd5b505050506040513d601f19601f82011682018060405250810190610696919061179a565b60070b9050601681146106e75760405162461bcd60e51b81526020600482015260196024820152782330b4b632b2103a37903a3930b739b332b9103a37b5b2b71760391b60448201526064016102bc565b604080518681526020810186905290810184905260608101839052608081018290527f3ff6c94580787f75fc6c239d2de43d4b3b3aac4792ea38a0ff0ad44bc604e2219060a00160405180910390a150505050505050505050505050565b600060606000806101676001600160a01b031663618dc65e60e01b87876040516024016107739291906117b7565b60408051601f198184030181529181526020820180516001600160e01b03166001600160e01b03199094169390931790925290516107b1919061174a565b6000604051808303816000865af19150503d80600081146107ee576040519150601f19603f3d011682016040523d82523d6000602084013e6107f3565b606091505b50915091507f4af4780e06fe8cb9df64b0794fa6f01399af979175bb988e35e0e57e594567bc82826040516108299291906117d9565b60405180910390a18161084d57601560405180602001604052806000815250610851565b6016815b60039190910b97909650945050505050565b600061086f8386611216565b90506016811480610880575060c281145b6108cc5760405162461bcd60e51b815260206004820152601a60248201527f4661696c656420746f206173736f636961746520746f6b656e2e00000000000060448201526064016102bc565b60006108d886856112f9565b60070b90506016811461092a5760405162461bcd60e51b815260206004820152601a6024820152792330b4b632b2103a379033b930b73a103a37b5b2b71025aca19760311b60448201526064016102bc565b6000610938878787876111ce565b9050601681146109865760405162461bcd60e51b81526020600482015260196024820152782330b4b632b2103a37903a3930b739b332b9103a37b5b2b71760391b60448201526064016102bc565b60408051848152602081018490529081018290527fe4030211b90d9f1da56785f91728f2710a8a72a97cb3febfa38442380a736e529060600160405180910390a150505050505050565b606060006109df8785846110d0565b509091505060168114610a2c5760405162461bcd60e51b81526020600482015260156024820152742330b4b632b2103a379036b4b73a103a37b5b2b71760591b60448201526064016102bc565b6000610a38888761136c565b60070b905060168114610a8d5760405162461bcd60e51b815260206004820152601960248201527f4661696c656420746f20756e667265657a6520746f6b656e2e0000000000000060448201526064016102bc565b6000610a9989886112f9565b60070b905060168114610aeb5760405162461bcd60e51b815260206004820152601a6024820152792330b4b632b2103a379033b930b73a103a37b5b2b71025aca19760311b60448201526064016102bc565b6000610af98a8a8a896111ce565b905060168114610b475760405162461bcd60e51b81526020600482015260196024820152782330b4b632b2103a37903a3930b739b332b9103a37b5b2b71760391b60448201526064016102bc565b6000610b538b8a6113a2565b60070b905060168114610ba85760405162461bcd60e51b815260206004820152601760248201527f4661696c656420746f20667265657a6520746f6b656e2e00000000000000000060448201526064016102bc565b6040805186815260208101869052908101849052606081018290527fb0fc214eefabee691b226e12fdae9cef27195953e362485a61a55e9f7aebacfa9060800160405180910390a15050505050505050505050565b6040516001600160a01b038581166024830152848116604483015283166064820152608481018290526000908190819061016790639b23d3d960e01b9060a4016101ac565b6000610c4e8386611216565b90506016811480610c5f575060c281145b610cab5760405162461bcd60e51b815260206004820152601a60248201527f4661696c656420746f206173736f636961746520746f6b656e2e00000000000060448201526064016102bc565b60606000610cba8785846110d0565b509091505060168114610d075760405162461bcd60e51b81526020600482015260156024820152742330b4b632b2103a379036b4b73a103a37b5b2b71760591b60448201526064016102bc565b6000610d1388876112f9565b60070b905060168114610d655760405162461bcd60e51b815260206004820152601a6024820152792330b4b632b2103a379033b930b73a103a37b5b2b71025aca19760311b60448201526064016102bc565b6000610d73898989896111ce565b905060168114610dc15760405162461bcd60e51b81526020600482015260196024820152782330b4b632b2103a37903a3930b739b332b9103a37b5b2b71760391b60448201526064016102bc565b6040805186815260208101859052908101839052606081018290527f3d674a1ad36ef4c76dcf2c25991ff5125563f1dbd4bcce57e8264e3a6ad479179060800160405180910390a1505050505050505050565b6000610e20858461136c565b60070b905060168114610e755760405162461bcd60e51b815260206004820152601960248201527f4661696c656420746f20756e667265657a6520746f6b656e2e0000000000000060448201526064016102bc565b6000610e8186856112f9565b60070b905060168114610ed35760405162461bcd60e51b815260206004820152601a6024820152792330b4b632b2103a379033b930b73a103a37b5b2b71025aca19760311b60448201526064016102bc565b6000610ee1878787876111ce565b905060168114610f2f5760405162461bcd60e51b81526020600482015260196024820152782330b4b632b2103a37903a3930b739b332b9103a37b5b2b71760391b60448201526064016102bc565b6000610f3b88876113a2565b60070b905060168114610f905760405162461bcd60e51b815260206004820152601760248201527f4661696c656420746f20667265657a6520746f6b656e2e00000000000000000060448201526064016102bc565b6040805185815260208101859052908101839052606081018290527fe63c8f26de61087c5d2afb0d9893672df4a6e20d3c13a2598d0e16305ca5b94c9060800160405180910390a15050505050505050565b6040516001600160a01b03848116602483015283166044820152600782900b6064820152600090819081906101679063efef57f960e01b906084015b60408051601f198184030181529181526020820180516001600160e01b03166001600160e01b031990941693909317909252905161105c919061174a565b6000604051808303816000865af19150503d8060008114611099576040519150601f19603f3d011682016040523d82523d6000602084013e61109e565b606091505b5091509150816110af5760156110c3565b808060200190518101906110c39190611778565b60030b9695505050505050565b60008060606000806101676001600160a01b031663e0f4059a60e01b898989604051602401611101939291906117f4565b60408051601f198184030181529181526020820180516001600160e01b03166001600160e01b031990941693909317909252905161113f919061174a565b6000604051808303816000865af19150503d806000811461117c576040519150601f19603f3d011682016040523d82523d6000602084013e611181565b606091505b5091509150816111a45760408051600080825260208201909252601591906111b8565b808060200190518101906111b89190611873565b60039290920b9a90995090975095505050505050565b6040516001600160a01b038581166024830152848116604483015283166064820152600782900b6084820152600090819081906101679063eca3691760e01b9060a4016101ac565b6040516001600160a01b03838116602483015282166044820152600090819081906101679063248a35ef60e11b906064015b60408051601f198184030181529181526020820180516001600160e01b03166001600160e01b0319909416939093179092529051611286919061174a565b6000604051808303816000865af19150503d80600081146112c3576040519150601f19603f3d011682016040523d82523d6000602084013e6112c8565b606091505b5091509150816112d95760156112ed565b808060200190518101906112ed9190611778565b60030b95945050505050565b6040516001600160a01b038381166024830152821660448201526000908190819061016790638f8d7f9960e01b90606401611248565b6040516001600160a01b0384811660248301528316604482015260648101829052600090819081906101679063e1f21c6760e01b9060840161101e565b6040516001600160a01b0383811660248301528216604482015260009081908190610167906352f9138760e01b90606401611248565b6040516001600160a01b0383811660248301528216604482015260009081908190610167906316e3e16160e21b90606401611248565b80356001600160a01b03811681146113ef57600080fd5b919050565b6000806000806080858703121561140a57600080fd5b611413856113d8565b9350611421602086016113d8565b925061142f604086016113d8565b9396929550929360600135925050565b8060070b811461144e57600080fd5b50565b60008060008060008060c0878903121561146a57600080fd5b611473876113d8565b9550611481602088016113d8565b945061148f604088016113d8565b9350606087013561149f8161143f565b925060808701356114af8161143f565b915060a08701356114bf8161143f565b809150509295509295509295565b600080600080600060a086880312156114e557600080fd5b6114ee866113d8565b94506114fc602087016113d8565b935061150a604087016113d8565b9250606086013561151a8161143f565b949793965091946080013592915050565b634e487b7160e01b600052604160045260246000fd5b604051601f8201601f1916810167ffffffffffffffff8111828210171561156a5761156a61152b565b604052919050565b6000806040838503121561158557600080fd5b61158e836113d8565b915060208084013567ffffffffffffffff808211156115ac57600080fd5b818601915086601f8301126115c057600080fd5b8135818111156115d2576115d261152b565b6115e4601f8201601f19168501611541565b915080825287848285010111156115fa57600080fd5b80848401858401376000848284010152508093505050509250929050565b60005b8381101561163357818101518382015260200161161b565b50506000910152565b60008151808452611654816020860160208601611618565b601f01601f19169290920160200192915050565b828152604060208201526000611681604083018461163c565b949350505050565b6000806000806080858703121561169f57600080fd5b6116a8856113d8565b93506116b6602086016113d8565b92506116c4604086016113d8565b915060608501356116d48161143f565b939692955090935050565b600080600080600060a086880312156116f757600080fd5b611700866113d8565b945061170e602087016113d8565b935061171c604087016113d8565b9250606086013561172c8161143f565b9150608086013561173c8161143f565b809150509295509295909350565b6000825161175c818460208701611618565b9190910192915050565b8051600381900b81146113ef57600080fd5b60006020828403121561178a57600080fd5b61179382611766565b9392505050565b6000602082840312156117ac57600080fd5b81516117938161143f565b6001600160a01b0383168152604060208201526000611681604083018461163c565b8215158152604060208201526000611681604083018461163c565b6000606082016001600160a01b038616835260208560070b60208501526060604085015281855180845260808601915060808160051b87010193506020870160005b8281101561186457607f1988870301845261185286835161163c565b95509284019290840190600101611836565b50939998505050505050505050565b60008060006060848603121561188857600080fd5b61189184611766565b92506020808501516118a28161143f565b604086015190935067ffffffffffffffff808211156118c057600080fd5b818701915087601f8301126118d457600080fd5b8151818111156118e6576118e661152b565b8060051b91506118f7848301611541565b818152918301840191848101908a84111561191157600080fd5b938501935b8385101561193b578451925061192b8361143f565b8282529385019390850190611916565b809650505050505050925092509256fea2646970667358221220d2bcf2eef979d976cb12e42fbda9740cbf183789304b990ded91cff8d808290264736f6c63430008170033",
  "linkReferences": {},
  "deployedLinkReferences": {}
}