{
  "_format": "hh-sol-artifact-1",
  "contractName": "AtomicHTS",
  "sourceName": "contracts/hts-precompile/AtomicHTS.sol",
  "abi": [
    {
      "anonymous": false,
      "inputs": [
        {
          "indexed": false,
          "internalType": "int256",
          "name": "associateResponseCode",
          "type": "int256"
        },
        {
          "indexed": false,
          "internalType": "int256",
          "name": "grantKYCResponseCode",
          "type": "int256"
        },
        {
          "indexed": false,
          "internalType": "int256",
          "name": "transferTokenResponseCode",
          "type": "int256"
        }
      ],
      "name": "BatchAlpha",
      "type": "event"
    },
    {
      "anonymous": false,
      "inputs": [
        {
          "indexed": false,
          "internalType": "int256",
          "name": "transferTokenResponseCode",
          "type": "int256"
        },
        {
          "indexed": false,
          "internalType": "int256",
          "name": "approveResponseCode",
          "type": "int256"
        },
        {
          "indexed": false,
          "internalType": "int256",
          "name": "associateResponseCode",
          "type": "int256"
        },
        {
          "indexed": false,
          "internalType": "int256",
          "name": "grantKYCResponseCode",
          "type": "int256"
        },
        {
          "indexed": false,
          "internalType": "int256",
          "name": "transferFromResponseCode",
          "type": "int256"
        }
      ],
      "name": "BatchBeta",
      "type": "event"
    },
    {
      "anonymous": false,
      "inputs": [
        {
          "indexed": false,
          "internalType": "int256",
          "name": "unfreezeTokenResponseCode",
          "type": "int256"
        },
        {
          "indexed": false,
          "internalType": "int256",
          "name": "grantKYCResponseCode",
          "type": "int256"
        },
        {
          "indexed": false,
          "internalType": "int256",
          "name": "transferTokenResponseCode",
          "type": "int256"
        },
        {
          "indexed": false,
          "internalType": "int256",
          "name": "freezeTokenResponseCode",
          "type": "int256"
        }
      ],
      "name": "BatchCharlie",
      "type": "event"
    },
    {
      "anonymous": false,
      "inputs": [
        {
          "indexed": false,
          "internalType": "int256",
          "name": "wipeTokenResponseCode",
          "type": "int256"
        },
        {
          "indexed": false,
          "internalType": "int256",
          "name": "mintTokenResponseCode",
          "type": "int256"
        },
        {
          "indexed": false,
          "internalType": "int256",
          "name": "transferTokenResponseCode",
          "type": "int256"
        }
      ],
      "name": "BatchDelta",
      "type": "event"
    },
    {
      "anonymous": false,
      "inputs": [
        {
          "indexed": false,
          "internalType": "int256",
          "name": "mintTokenResponseCode",
          "type": "int256"
        },
        {
          "indexed": false,
          "internalType": "int256",
          "name": "unfreezeTokenResponseCode",
          "type": "int256"
        },
        {
          "indexed": false,
          "internalType": "int256",
          "name": "grantKYCResponseCode",
          "type": "int256"
        },
        {
          "indexed": false,
          "internalType": "int256",
          "name": "freezeTokenResponseCode",
          "type": "int256"
        }
      ],
      "name": "BatchEcho",
      "type": "event"
    },
    {
      "anonymous": false,
      "inputs": [
        {
          "indexed": false,
          "internalType": "int256",
          "name": "associateResponseCode",
          "type": "int256"
        },
        {
          "indexed": false,
          "internalType": "int256",
          "name": "mintTokenResponseCode",
          "type": "int256"
        },
        {
          "indexed": false,
          "internalType": "int256",
          "name": "grantKYCResponseCode",
          "type": "int256"
        },
        {
          "indexed": false,
          "internalType": "int256",
          "name": "transferTokenResponseCode",
          "type": "int256"
        }
      ],
      "name": "BatchFoxtrot",
      "type": "event"
    },
    {
      "anonymous": false,
      "inputs": [
        {
          "indexed": false,
          "internalType": "bool",
          "name": "",
          "type": "bool"
        },
        {
          "indexed": false,
          "internalType": "bytes",
          "name": "",
          "type": "bytes"
        }
      ],
      "name": "CallResponseEvent",
      "type": "event"
    },
    {
      "inputs": [
        {
          "internalType": "address",
          "name": "token",
          "type": "address"
        },
        {
          "internalType": "address",
          "name": "sender",
          "type": "address"
        },
        {
          "internalType": "address",
          "name": "receiver",
          "type": "address"
        },
        {
          "internalType": "int64",
          "name": "amount",
          "type": "int64"
        }
      ],
      "name": "batchAlpha",
      "outputs": [],
      "stateMutability": "nonpayable",
      "type": "function"
    },
    {
      "inputs": [
        {
          "internalType": "address",
          "name": "token",
          "type": "address"
        },
        {
          "internalType": "address",
          "name": "owner",
          "type": "address"
        },
        {
          "internalType": "address",
          "name": "receipient",
          "type": "address"
        },
        {
          "internalType": "int64",
          "name": "transferAmount",
          "type": "int64"
        },
        {
          "internalType": "uint256",
          "name": "allowance",
          "type": "uint256"
        }
      ],
      "name": "batchBeta",
      "outputs": [],
      "stateMutability": "nonpayable",
      "type": "function"
    },
    {
      "inputs": [
        {
          "internalType": "address",
          "name": "token",
          "type": "address"
        },
        {
          "internalType": "address",
          "name": "sender",
          "type": "address"
        },
        {
          "internalType": "address",
          "name": "receiver",
          "type": "address"
        },
        {
          "internalType": "int64",
          "name": "amount",
          "type": "int64"
        }
      ],
      "name": "batchCharlie",
      "outputs": [],
      "stateMutability": "nonpayable",
      "type": "function"
    },
    {
      "inputs": [
        {
          "internalType": "address",
          "name": "token",
          "type": "address"
        },
        {
          "internalType": "address",
          "name": "treasury",
          "type": "address"
        },
        {
          "internalType": "address",
          "name": "owner",
          "type": "address"
        },
        {
          "internalType": "int64",
          "name": "wipedAmount",
          "type": "int64"
        },
        {
          "internalType": "int64",
          "name": "mintAmount",
          "type": "int64"
        },
        {
          "internalType": "int64",
          "name": "transferAmount",
          "type": "int64"
        }
      ],
      "name": "batchDelta",
      "outputs": [],
      "stateMutability": "nonpayable",
      "type": "function"
    },
    {
      "inputs": [
        {
          "internalType": "address",
          "name": "token",
          "type": "address"
        },
        {
          "internalType": "address",
          "name": "sender",
          "type": "address"
        },
        {
          "internalType": "address",
          "name": "receiver",
          "type": "address"
        },
        {
          "internalType": "int64",
          "name": "mintAmount",
          "type": "int64"
        },
        {
          "internalType": "int64",
          "name": "transferAmount",
          "type": "int64"
        }
      ],
      "name": "batchEcho",
      "outputs": [],
      "stateMutability": "nonpayable",
      "type": "function"
    },
    {
      "inputs": [
        {
          "internalType": "address",
          "name": "token",
          "type": "address"
        },
        {
          "internalType": "address",
          "name": "sender",
          "type": "address"
        },
        {
          "internalType": "address",
          "name": "receiver",
          "type": "address"
        },
        {
          "internalType": "int64",
          "name": "amount",
          "type": "int64"
        }
      ],
      "name": "batchFoxtrot",
      "outputs": [],
      "stateMutability": "nonpayable",
      "type": "function"
    },
    {
      "inputs": [
        {
          "internalType": "address",
          "name": "token",
          "type": "address"
        },
        {
          "internalType": "bytes",
          "name": "encodedFunctionSelector",
          "type": "bytes"
        }
      ],
      "name": "redirectForToken",
      "outputs": [
        {
          "internalType": "int256",
          "name": "responseCode",
          "type": "int256"
        },
        {
          "internalType": "bytes",
          "name": "response",
          "type": "bytes"
        }
      ],
      "stateMutability": "nonpayable",
      "type": "function"
    },
    {
      "inputs": [
        {
          "internalType": "address",
          "name": "token",
          "type": "address"
        },
        {
          "internalType": "address",
          "name": "from",
          "type": "address"
        },
        {
          "internalType": "address",
          "name": "to",
          "type": "address"
        },
        {
          "internalType": "uint256",
          "name": "amount",
          "type": "uint256"
        }
      ],
      "name": "transferFrom",
      "outputs": [
        {
          "internalType": "int64",
          "name": "responseCode",
          "type": "int64"
        }
      ],
      "stateMutability": "nonpayable",
      "type": "function"
    },
    {
      "inputs": [
        {
          "internalType": "address",
          "name": "token",
          "type": "address"
        },
        {
          "internalType": "address",
          "name": "from",
          "type": "address"
        },
        {
          "internalType": "address",
          "name": "to",
          "type": "address"
        },
        {
          "internalType": "uint256",
          "name": "serialNumber",
          "type": "uint256"
        }
      ],
      "name": "transferFromNFT",
      "outputs": [
        {
          "internalType": "int64",
          "name": "responseCode",
          "type": "int64"
        }
      ],
      "stateMutability": "nonpayable",
      "type": "function"
    }
  ],
  "bytecode": "0x608060405234801561001057600080fd5b50611a00806100206000396000f3fe608060405234801561001057600080fd5b50600436106100935760003560e01c806362f8a93c1161006657806362f8a93c1461010c57806365e0cc4f1461011f5780637f42d4e2146101325780639b23d3d914610145578063c5cf03c61461015857600080fd5b806315dacbea146100985780635b82a803146100c35780635f335ebe146100d8578063618dc65e146100eb575b600080fd5b6100ab6100a63660046113d8565b61016b565b60405160079190910b81526020015b60405180910390f35b6100d66100d1366004611435565b61025f565b005b6100d66100e63660046114b1565b6103c8565b6100fe6100f936600461158b565b6105f5565b6040516100ba92919061166c565b6100d661011a36600461168d565b610723565b6100d661012d3660046116e3565b610885565b6100d661014036600461168d565b610bec565b6100ab6101533660046113d8565b610db3565b6100d661016636600461168d565b610df8565b6040516001600160a01b038581166024830152848116604483015283166064820152608481018290526000908190819061016790630aed65f560e11b9060a4015b60408051601f198184030181529181526020820180516001600160e01b03166001600160e01b03199094169390931790925290516101ea9190611741565b6000604051808303816000865af19150503d8060008114610227576040519150601f19603f3d011682016040523d82523d6000602084013e61022c565b606091505b50915091508161023d576015610251565b80806020019051810190610251919061176f565b60030b979650505050505050565b6060600061026e888787610fc6565b9050601681146102c55760405162461bcd60e51b815260206004820152601560248201527f4661696c656420746f207769706520746f6b656e2e000000000000000000000060448201526064015b60405180910390fd5b60006102d28986856110b4565b50909150506016811461031f5760405162461bcd60e51b81526020600482015260156024820152742330b4b632b2103a379036b4b73a103a37b5b2b71760591b60448201526064016102bc565b600061032d8a8a8a886111b2565b90506016811461037b5760405162461bcd60e51b81526020600482015260196024820152782330b4b632b2103a37903a3930b739b332b9103a37b5b2b71760391b60448201526064016102bc565b60408051848152602081018490529081018290527f354beb96ada735924ed082ef88da15068c88ad0e267a49980aa97fdebc55caba9060600160405180910390a150505050505050505050565b606060006103d78785846110b4565b5090915050601681146104245760405162461bcd60e51b81526020600482015260156024820152742330b4b632b2103a379036b4b73a103a37b5b2b71760591b60448201526064016102bc565b600061043088876111fa565b60070b9050601681146104855760405162461bcd60e51b815260206004820152601960248201527f4661696c656420746f20756e667265657a6520746f6b656e2e0000000000000060448201526064016102bc565b600061049189886112dd565b60070b9050601681146104e35760405162461bcd60e51b815260206004820152601a6024820152792330b4b632b2103a379033b930b73a103a37b5b2b71025aca19760311b60448201526064016102bc565b60006104f18a8a8a896111b2565b90506016811461053f5760405162461bcd60e51b81526020600482015260196024820152782330b4b632b2103a37903a3930b739b332b9103a37b5b2b71760391b60448201526064016102bc565b600061054b8b8a611313565b60070b9050601681146105a05760405162461bcd60e51b815260206004820152601760248201527f4661696c656420746f20667265657a6520746f6b656e2e00000000000000000060448201526064016102bc565b6040805186815260208101869052908101849052606081018290527fbf65540b5cff5e00032c9c38e3c72fc4a01711f59bd6810aed3a4618032270fd9060800160405180910390a15050505050505050505050565b600060606000806101676001600160a01b031663618dc65e60e01b8787604051602401610623929190611791565b60408051601f198184030181529181526020820180516001600160e01b03166001600160e01b03199094169390931790925290516106619190611741565b6000604051808303816000865af19150503d806000811461069e576040519150601f19603f3d011682016040523d82523d6000602084013e6106a3565b606091505b50915091507f4af4780e06fe8cb9df64b0794fa6f01399af979175bb988e35e0e57e594567bc82826040516106d99291906117b3565b60405180910390a1816106fd57601560405180602001604052806000815250610711565b8080602001905181019061071191906117ce565b60039190910b97909650945050505050565b600061072f8386611349565b9050601681146107815760405162461bcd60e51b815260206004820152601a60248201527f4661696c656420746f206173736f636961746520746f6b656e2e00000000000060448201526064016102bc565b600061078d86856112dd565b60070b9050601681146107df5760405162461bcd60e51b815260206004820152601a6024820152792330b4b632b2103a379033b930b73a103a37b5b2b71025aca19760311b60448201526064016102bc565b60006107ed878787876111b2565b90506016811461083b5760405162461bcd60e51b81526020600482015260196024820152782330b4b632b2103a37903a3930b739b332b9103a37b5b2b71760391b60448201526064016102bc565b60408051848152602081018490529081018290527fec7495fbc5a2c23a16c37de202d6e69d4bf19bf163ec977b472735fcdd06cb1a9060600160405180910390a150505050505050565b3060006108928288611349565b9050601681146108e45760405162461bcd60e51b815260206004820152601a60248201527f4661696c656420746f206173736f636961746520746f6b656e2e00000000000060448201526064016102bc565b60006108f088306112dd565b60070b9050601681146109425760405162461bcd60e51b815260206004820152601a6024820152792330b4b632b2103a379033b930b73a103a37b5b2b71025aca19760311b60448201526064016102bc565b6000610950898986896111b2565b90506016811461099e5760405162461bcd60e51b81526020600482015260196024820152782330b4b632b2103a37903a3930b739b332b9103a37b5b2b71760391b60448201526064016102bc565b60006109ab8a868861137f565b9050601681146109fd5760405162461bcd60e51b815260206004820181905260248201527f4661696c656420746f206772616e7420746f6b656e20616c6c6f77616e63652e60448201526064016102bc565b6000610a09898c611349565b905060168114610a5b5760405162461bcd60e51b815260206004820152601a60248201527f4661696c656420746f206173736f636961746520746f6b656e2e00000000000060448201526064016102bc565b6000610a678c8b6112dd565b60070b905060168114610ab95760405162461bcd60e51b815260206004820152601a6024820152792330b4b632b2103a379033b930b73a103a37b5b2b71025aca19760311b60448201526064016102bc565b604051630aed65f560e11b81526001600160a01b038d8116600483015288811660248301528b1660448201526064810189905260009030906315dacbea906084016020604051808303816000875af1158015610b19573d6000803e3d6000fd5b505050506040513d601f19601f82011682018060405250810190610b3d9190611858565b60070b905060168114610b8e5760405162461bcd60e51b81526020600482015260196024820152782330b4b632b2103a37903a3930b739b332b9103a37b5b2b71760391b60448201526064016102bc565b604080518681526020810186905290810184905260608101839052608081018290527fb146f91d1a1c0c3d6f18d6cb3c38371ecb8c2408a27523ca35736baf5b2b8dc19060a00160405180910390a150505050505050505050505050565b6000610bf88386611349565b905060168114610c4a5760405162461bcd60e51b815260206004820152601a60248201527f4661696c656420746f206173736f636961746520746f6b656e2e00000000000060448201526064016102bc565b60606000610c598785846110b4565b509091505060168114610ca65760405162461bcd60e51b81526020600482015260156024820152742330b4b632b2103a379036b4b73a103a37b5b2b71760591b60448201526064016102bc565b6000610cb288876112dd565b60070b905060168114610d045760405162461bcd60e51b815260206004820152601a6024820152792330b4b632b2103a379033b930b73a103a37b5b2b71025aca19760311b60448201526064016102bc565b6000610d12898989896111b2565b905060168114610d605760405162461bcd60e51b81526020600482015260196024820152782330b4b632b2103a37903a3930b739b332b9103a37b5b2b71760391b60448201526064016102bc565b6040805186815260208101859052908101839052606081018290527f063fd3c9bc78563940ebb126e9e7dc238f9c66dbb8d57425572e9d306786a2089060800160405180910390a1505050505050505050565b6040516001600160a01b038581166024830152848116604483015283166064820152608481018290526000908190819061016790639b23d3d960e01b9060a4016101ac565b6000610e0485846111fa565b60070b905060168114610e595760405162461bcd60e51b815260206004820152601960248201527f4661696c656420746f20756e667265657a6520746f6b656e2e0000000000000060448201526064016102bc565b6000610e6586856112dd565b60070b905060168114610eb75760405162461bcd60e51b815260206004820152601a6024820152792330b4b632b2103a379033b930b73a103a37b5b2b71025aca19760311b60448201526064016102bc565b6000610ec5878787876111b2565b905060168114610f135760405162461bcd60e51b81526020600482015260196024820152782330b4b632b2103a37903a3930b739b332b9103a37b5b2b71760391b60448201526064016102bc565b6000610f1f8887611313565b60070b905060168114610f745760405162461bcd60e51b815260206004820152601760248201527f4661696c656420746f20667265657a6520746f6b656e2e00000000000000000060448201526064016102bc565b6040805185815260208101859052908101839052606081018290527ff90e40255ea305be8d2f054720c3866c94e94d802b88f176ad6c9e98de827d8a9060800160405180910390a15050505050505050565b6040516001600160a01b03848116602483015283166044820152600782900b6064820152600090819081906101679063efef57f960e01b906084015b60408051601f198184030181529181526020820180516001600160e01b03166001600160e01b03199094169390931790925290516110409190611741565b6000604051808303816000865af19150503d806000811461107d576040519150601f19603f3d011682016040523d82523d6000602084013e611082565b606091505b5091509150816110935760156110a7565b808060200190518101906110a7919061176f565b60030b9695505050505050565b60008060606000806101676001600160a01b031663e0f4059a60e01b8989896040516024016110e593929190611875565b60408051601f198184030181529181526020820180516001600160e01b03166001600160e01b03199094169390931790925290516111239190611741565b6000604051808303816000865af19150503d8060008114611160576040519150601f19603f3d011682016040523d82523d6000602084013e611165565b606091505b50915091508161118857604080516000808252602082019092526015919061119c565b8080602001905181019061119c91906118f2565b60039290920b9a90995090975095505050505050565b6040516001600160a01b038581166024830152848116604483015283166064820152600782900b6084820152600090819081906101679063eca3691760e01b9060a4016101ac565b6040516001600160a01b0383811660248301528216604482015260009081908190610167906352f9138760e01b906064015b60408051601f198184030181529181526020820180516001600160e01b03166001600160e01b031990941693909317909252905161126a9190611741565b6000604051808303816000865af19150503d80600081146112a7576040519150601f19603f3d011682016040523d82523d6000602084013e6112ac565b606091505b5091509150816112bd5760156112d1565b808060200190518101906112d1919061176f565b60030b95945050505050565b6040516001600160a01b038381166024830152821660448201526000908190819061016790638f8d7f9960e01b9060640161122c565b6040516001600160a01b0383811660248301528216604482015260009081908190610167906316e3e16160e21b9060640161122c565b6040516001600160a01b03838116602483015282166044820152600090819081906101679063248a35ef60e11b9060640161122c565b6040516001600160a01b0384811660248301528316604482015260648101829052600090819081906101679063e1f21c6760e01b90608401611002565b80356001600160a01b03811681146113d357600080fd5b919050565b600080600080608085870312156113ee57600080fd5b6113f7856113bc565b9350611405602086016113bc565b9250611413604086016113bc565b9396929550929360600135925050565b8060070b811461143257600080fd5b50565b60008060008060008060c0878903121561144e57600080fd5b611457876113bc565b9550611465602088016113bc565b9450611473604088016113bc565b9350606087013561148381611423565b9250608087013561149381611423565b915060a08701356114a381611423565b809150509295509295509295565b600080600080600060a086880312156114c957600080fd5b6114d2866113bc565b94506114e0602087016113bc565b93506114ee604087016113bc565b925060608601356114fe81611423565b9150608086013561150e81611423565b809150509295509295909350565b634e487b7160e01b600052604160045260246000fd5b604051601f8201601f1916810167ffffffffffffffff8111828210171561155b5761155b61151c565b604052919050565b600067ffffffffffffffff82111561157d5761157d61151c565b50601f01601f191660200190565b6000806040838503121561159e57600080fd5b6115a7836113bc565b9150602083013567ffffffffffffffff8111156115c357600080fd5b8301601f810185136115d457600080fd5b80356115e76115e282611563565b611532565b8181528660208385010111156115fc57600080fd5b816020840160208301376000602083830101528093505050509250929050565b60005b8381101561163757818101518382015260200161161f565b50506000910152565b6000815180845261165881602086016020860161161c565b601f01601f19169290920160200192915050565b8281526040602082015260006116856040830184611640565b949350505050565b600080600080608085870312156116a357600080fd5b6116ac856113bc565b93506116ba602086016113bc565b92506116c8604086016113bc565b915060608501356116d881611423565b939692955090935050565b600080600080600060a086880312156116fb57600080fd5b611704866113bc565b9450611712602087016113bc565b9350611720604087016113bc565b9250606086013561173081611423565b949793965091946080013592915050565b6000825161175381846020870161161c565b9190910192915050565b8051600381900b81146113d357600080fd5b60006020828403121561178157600080fd5b61178a8261175d565b9392505050565b6001600160a01b03831681526040602082015260006116856040830184611640565b82151581526040602082015260006116856040830184611640565b600080604083850312156117e157600080fd5b6117ea8361175d565b9150602083015167ffffffffffffffff81111561180657600080fd5b8301601f8101851361181757600080fd5b80516118256115e282611563565b81815286602083850101111561183a57600080fd5b61184b82602083016020860161161c565b8093505050509250929050565b60006020828403121561186a57600080fd5b815161178a81611423565b6000606082016001600160a01b038616835260208560070b818501526060604085015281855180845260808601915060808160051b870101935082870160005b828110156118e357607f198887030184526118d1868351611640565b955092840192908401906001016118b5565b50939998505050505050505050565b60008060006060848603121561190757600080fd5b6119108461175d565b925060208085015161192181611423565b604086015190935067ffffffffffffffff8082111561193f57600080fd5b818701915087601f83011261195357600080fd5b8151818111156119655761196561151c565b8060051b9150611976848301611532565b818152918301840191848101908a84111561199057600080fd5b938501935b838510156119ba57845192506119aa83611423565b8282529385019390850190611995565b809650505050505050925092509256fea264697066735822122013a83852760114c731f9a7f44c932e897c22812a4cc4a51b11877cf787d7dead64736f6c63430008140033",
  "linkReferences": {},
  "deployedLinkReferences": {}
}