{
  "_format": "hh-sol-artifact-1",
  "contractName": "AtomicHTS",
  "sourceName": "contracts/hts-precompile/AtomicHTS.sol",
  "abi": [
    {
      "anonymous": false,
      "inputs": [
        {
          "indexed": false,
          "internalType": "int256",
          "name": "transferTokenResponseCode",
          "type": "int256"
        },
        {
          "indexed": false,
          "internalType": "int256",
          "name": "approveResponseCode",
          "type": "int256"
        },
        {
          "indexed": false,
          "internalType": "int256",
          "name": "associateResponseCode",
          "type": "int256"
        },
        {
          "indexed": false,
          "internalType": "int256",
          "name": "grantKYCResponseCode",
          "type": "int256"
        },
        {
          "indexed": false,
          "internalType": "int256",
          "name": "transferFromResponseCode",
          "type": "int256"
        }
      ],
      "name": "BatchApproveAssociateGrantKYCTransferFrom",
      "type": "event"
    },
    {
      "anonymous": false,
      "inputs": [
        {
          "indexed": false,
          "internalType": "int256",
          "name": "associateResponseCode",
          "type": "int256"
        },
        {
          "indexed": false,
          "internalType": "int256",
          "name": "grantKYCResponseCode",
          "type": "int256"
        },
        {
          "indexed": false,
          "internalType": "int256",
          "name": "transferTokenResponseCode",
          "type": "int256"
        }
      ],
      "name": "BatchAssociateGrantKYCTransfer",
      "type": "event"
    },
    {
      "anonymous": false,
      "inputs": [
        {
          "indexed": false,
          "internalType": "int256",
          "name": "associateResponseCode",
          "type": "int256"
        },
        {
          "indexed": false,
          "internalType": "int256",
          "name": "mintTokenResponseCode",
          "type": "int256"
        },
        {
          "indexed": false,
          "internalType": "int256",
          "name": "grantKYCResponseCode",
          "type": "int256"
        },
        {
          "indexed": false,
          "internalType": "int256",
          "name": "transferTokenResponseCode",
          "type": "int256"
        }
      ],
      "name": "BatchAssociateMintGrantTransfer",
      "type": "event"
    },
    {
      "anonymous": false,
      "inputs": [
        {
          "indexed": false,
          "internalType": "int256",
          "name": "mintTokenResponseCode",
          "type": "int256"
        },
        {
          "indexed": false,
          "internalType": "int256",
          "name": "unfreezeTokenResponseCode",
          "type": "int256"
        },
        {
          "indexed": false,
          "internalType": "int256",
          "name": "grantKYCResponseCode",
          "type": "int256"
        },
        {
          "indexed": false,
          "internalType": "int256",
          "name": "freezeTokenResponseCode",
          "type": "int256"
        }
      ],
      "name": "BatchMintUnfreezeGrantKYCTransferFreeze",
      "type": "event"
    },
    {
      "anonymous": false,
      "inputs": [
        {
          "indexed": false,
          "internalType": "int256",
          "name": "unfreezeTokenResponseCode",
          "type": "int256"
        },
        {
          "indexed": false,
          "internalType": "int256",
          "name": "grantKYCResponseCode",
          "type": "int256"
        },
        {
          "indexed": false,
          "internalType": "int256",
          "name": "transferTokenResponseCode",
          "type": "int256"
        },
        {
          "indexed": false,
          "internalType": "int256",
          "name": "freezeTokenResponseCode",
          "type": "int256"
        }
      ],
      "name": "BatchUnfreezeGrantKYCTransferFreeze",
      "type": "event"
    },
    {
      "anonymous": false,
      "inputs": [
        {
          "indexed": false,
          "internalType": "int256",
          "name": "wipeTokenResponseCode",
          "type": "int256"
        },
        {
          "indexed": false,
          "internalType": "int256",
          "name": "mintTokenResponseCode",
          "type": "int256"
        },
        {
          "indexed": false,
          "internalType": "int256",
          "name": "transferTokenResponseCode",
          "type": "int256"
        }
      ],
      "name": "BatchWipeMintTransfer",
      "type": "event"
    },
    {
      "anonymous": false,
      "inputs": [
        {
          "indexed": false,
          "internalType": "bool",
          "name": "",
          "type": "bool"
        },
        {
          "indexed": false,
          "internalType": "bytes",
          "name": "",
          "type": "bytes"
        }
      ],
      "name": "CallResponseEvent",
      "type": "event"
    },
    {
      "inputs": [
        {
          "internalType": "address",
          "name": "token",
          "type": "address"
        },
        {
          "internalType": "address",
          "name": "owner",
          "type": "address"
        },
        {
          "internalType": "address",
          "name": "receipient",
          "type": "address"
        },
        {
          "internalType": "int64",
          "name": "transferAmount",
          "type": "int64"
        },
        {
          "internalType": "uint256",
          "name": "allowance",
          "type": "uint256"
        }
      ],
      "name": "batchApproveAssociateGrantKYCTransferFrom",
      "outputs": [],
      "stateMutability": "nonpayable",
      "type": "function"
    },
    {
      "inputs": [
        {
          "internalType": "address",
          "name": "token",
          "type": "address"
        },
        {
          "internalType": "address",
          "name": "sender",
          "type": "address"
        },
        {
          "internalType": "address",
          "name": "receiver",
          "type": "address"
        },
        {
          "internalType": "int64",
          "name": "amount",
          "type": "int64"
        }
      ],
      "name": "batchAssociateGrantKYCTransfer",
      "outputs": [],
      "stateMutability": "nonpayable",
      "type": "function"
    },
    {
      "inputs": [
        {
          "internalType": "address",
          "name": "token",
          "type": "address"
        },
        {
          "internalType": "address",
          "name": "sender",
          "type": "address"
        },
        {
          "internalType": "address",
          "name": "receiver",
          "type": "address"
        },
        {
          "internalType": "int64",
          "name": "amount",
          "type": "int64"
        }
      ],
      "name": "batchAssociateMintGrantTransfer",
      "outputs": [],
      "stateMutability": "nonpayable",
      "type": "function"
    },
    {
      "inputs": [
        {
          "internalType": "address",
          "name": "token",
          "type": "address"
        },
        {
          "internalType": "address",
          "name": "sender",
          "type": "address"
        },
        {
          "internalType": "address",
          "name": "receiver",
          "type": "address"
        },
        {
          "internalType": "int64",
          "name": "mintAmount",
          "type": "int64"
        },
        {
          "internalType": "int64",
          "name": "transferAmount",
          "type": "int64"
        }
      ],
      "name": "batchMintUnfreezeGrantKYCTransferFreeze",
      "outputs": [],
      "stateMutability": "nonpayable",
      "type": "function"
    },
    {
      "inputs": [
        {
          "internalType": "address",
          "name": "token",
          "type": "address"
        },
        {
          "internalType": "address",
          "name": "sender",
          "type": "address"
        },
        {
          "internalType": "address",
          "name": "receiver",
          "type": "address"
        },
        {
          "internalType": "int64",
          "name": "amount",
          "type": "int64"
        }
      ],
      "name": "batchUnfreezeGrantKYCTransferFreeze",
      "outputs": [],
      "stateMutability": "nonpayable",
      "type": "function"
    },
    {
      "inputs": [
        {
          "internalType": "address",
          "name": "token",
          "type": "address"
        },
        {
          "internalType": "address",
          "name": "treasury",
          "type": "address"
        },
        {
          "internalType": "address",
          "name": "owner",
          "type": "address"
        },
        {
          "internalType": "int64",
          "name": "wipedAmount",
          "type": "int64"
        },
        {
          "internalType": "int64",
          "name": "mintAmount",
          "type": "int64"
        },
        {
          "internalType": "int64",
          "name": "transferAmount",
          "type": "int64"
        }
      ],
      "name": "batchWipeMintTransfer",
      "outputs": [],
      "stateMutability": "nonpayable",
      "type": "function"
    },
    {
      "inputs": [
        {
          "internalType": "address",
          "name": "token",
          "type": "address"
        },
        {
          "internalType": "bytes",
          "name": "encodedFunctionSelector",
          "type": "bytes"
        }
      ],
      "name": "redirectForToken",
      "outputs": [
        {
          "internalType": "int256",
          "name": "responseCode",
          "type": "int256"
        },
        {
          "internalType": "bytes",
          "name": "response",
          "type": "bytes"
        }
      ],
      "stateMutability": "nonpayable",
      "type": "function"
    },
    {
      "inputs": [
        {
          "internalType": "address",
          "name": "token",
          "type": "address"
        },
        {
          "internalType": "address",
          "name": "from",
          "type": "address"
        },
        {
          "internalType": "address",
          "name": "to",
          "type": "address"
        },
        {
          "internalType": "uint256",
          "name": "amount",
          "type": "uint256"
        }
      ],
      "name": "transferFrom",
      "outputs": [
        {
          "internalType": "int64",
          "name": "responseCode",
          "type": "int64"
        }
      ],
      "stateMutability": "nonpayable",
      "type": "function"
    },
    {
      "inputs": [
        {
          "internalType": "address",
          "name": "token",
          "type": "address"
        },
        {
          "internalType": "address",
          "name": "from",
          "type": "address"
        },
        {
          "internalType": "address",
          "name": "to",
          "type": "address"
        },
        {
          "internalType": "uint256",
          "name": "serialNumber",
          "type": "uint256"
        }
      ],
      "name": "transferFromNFT",
      "outputs": [
        {
          "internalType": "int64",
          "name": "responseCode",
          "type": "int64"
        }
      ],
      "stateMutability": "nonpayable",
      "type": "function"
    }
  ],
  "bytecode": "0x608060405234801561001057600080fd5b50611a2c806100206000396000f3fe608060405234801561001057600080fd5b50600436106100935760003560e01c8063693b673f11610066578063693b673f1461010c578063744270871461011f5780639b23d3d914610132578063c352d09b14610145578063db649c361461015857600080fd5b806315dacbea146100985780632233bd1d146100c35780635fc8bc40146100d8578063618dc65e146100eb575b600080fd5b6100ab6100a6366004611404565b61016b565b60405160079190910b81526020015b60405180910390f35b6100d66100d1366004611461565b61025f565b005b6100d66100e63660046114dd565b6103c8565b6100fe6100f93660046115aa565b610745565b6040516100ba92919061168b565b6100d661011a3660046116ac565b610873565b6100d661012d366004611702565b6109e0565b6100ab610140366004611404565b610c0d565b6100d66101533660046116ac565b610c52565b6100d66101663660046116ac565b610e24565b6040516001600160a01b038581166024830152848116604483015283166064820152608481018290526000908190819061016790630aed65f560e11b9060a4015b60408051601f198184030181529181526020820180516001600160e01b03166001600160e01b03199094169390931790925290516101ea919061176d565b6000604051808303816000865af19150503d8060008114610227576040519150601f19603f3d011682016040523d82523d6000602084013e61022c565b606091505b50915091508161023d576015610251565b80806020019051810190610251919061179b565b60030b979650505050505050565b6060600061026e888787610ff2565b9050601681146102c55760405162461bcd60e51b815260206004820152601560248201527f4661696c656420746f207769706520746f6b656e2e000000000000000000000060448201526064015b60405180910390fd5b60006102d28986856110e0565b50909150506016811461031f5760405162461bcd60e51b81526020600482015260156024820152742330b4b632b2103a379036b4b73a103a37b5b2b71760591b60448201526064016102bc565b600061032d8a8a8a886111de565b90506016811461037b5760405162461bcd60e51b81526020600482015260196024820152782330b4b632b2103a37903a3930b739b332b9103a37b5b2b71760391b60448201526064016102bc565b60408051848152602081018490529081018290527fdcf20e982e9b4fb642e084af8406d7ae1483fb2d09e7a65a23cfdad87a4ed3ac9060600160405180910390a150505050505050505050565b3060006103d58288611226565b905060168114806103e6575060c281145b6104325760405162461bcd60e51b815260206004820152601a60248201527f4661696c656420746f206173736f636961746520746f6b656e2e00000000000060448201526064016102bc565b600061043e8884611309565b60070b9050601681146104905760405162461bcd60e51b815260206004820152601a6024820152792330b4b632b2103a379033b930b73a103a37b5b2b71025aca19760311b60448201526064016102bc565b600061049e898986896111de565b9050601681146104ec5760405162461bcd60e51b81526020600482015260196024820152782330b4b632b2103a37903a3930b739b332b9103a37b5b2b71760391b60448201526064016102bc565b60006104f98a868861133f565b90506016811461054b5760405162461bcd60e51b815260206004820181905260248201527f4661696c656420746f206772616e7420746f6b656e20616c6c6f77616e63652e60448201526064016102bc565b6000610557898c611226565b90506016811480610568575060c281145b6105b45760405162461bcd60e51b815260206004820152601a60248201527f4661696c656420746f206173736f636961746520746f6b656e2e00000000000060448201526064016102bc565b60006105c08c8b611309565b60070b9050601681146106125760405162461bcd60e51b815260206004820152601a6024820152792330b4b632b2103a379033b930b73a103a37b5b2b71025aca19760311b60448201526064016102bc565b604051630aed65f560e11b81526001600160a01b038d8116600483015288811660248301528b1660448201526064810189905260009030906315dacbea906084016020604051808303816000875af1158015610672573d6000803e3d6000fd5b505050506040513d601f19601f8201168201806040525081019061069691906117bd565b60070b9050601681146106e75760405162461bcd60e51b81526020600482015260196024820152782330b4b632b2103a37903a3930b739b332b9103a37b5b2b71760391b60448201526064016102bc565b604080518681526020810186905290810184905260608101839052608081018290527f3ff6c94580787f75fc6c239d2de43d4b3b3aac4792ea38a0ff0ad44bc604e2219060a00160405180910390a150505050505050505050505050565b600060606000806101676001600160a01b031663618dc65e60e01b87876040516024016107739291906117da565b60408051601f198184030181529181526020820180516001600160e01b03166001600160e01b03199094169390931790925290516107b1919061176d565b6000604051808303816000865af19150503d80600081146107ee576040519150601f19603f3d011682016040523d82523d6000602084013e6107f3565b606091505b50915091507f4af4780e06fe8cb9df64b0794fa6f01399af979175bb988e35e0e57e594567bc82826040516108299291906117fc565b60405180910390a18161084d57601560405180602001604052806000815250610861565b808060200190518101906108619190611817565b60039190910b97909650945050505050565b600061087f8386611226565b90506016811480610890575060c281145b6108dc5760405162461bcd60e51b815260206004820152601a60248201527f4661696c656420746f206173736f636961746520746f6b656e2e00000000000060448201526064016102bc565b60006108e88685611309565b60070b90506016811461093a5760405162461bcd60e51b815260206004820152601a6024820152792330b4b632b2103a379033b930b73a103a37b5b2b71025aca19760311b60448201526064016102bc565b6000610948878787876111de565b9050601681146109965760405162461bcd60e51b81526020600482015260196024820152782330b4b632b2103a37903a3930b739b332b9103a37b5b2b71760391b60448201526064016102bc565b60408051848152602081018490529081018290527fe4030211b90d9f1da56785f91728f2710a8a72a97cb3febfa38442380a736e529060600160405180910390a150505050505050565b606060006109ef8785846110e0565b509091505060168114610a3c5760405162461bcd60e51b81526020600482015260156024820152742330b4b632b2103a379036b4b73a103a37b5b2b71760591b60448201526064016102bc565b6000610a48888761137c565b60070b905060168114610a9d5760405162461bcd60e51b815260206004820152601960248201527f4661696c656420746f20756e667265657a6520746f6b656e2e0000000000000060448201526064016102bc565b6000610aa98988611309565b60070b905060168114610afb5760405162461bcd60e51b815260206004820152601a6024820152792330b4b632b2103a379033b930b73a103a37b5b2b71025aca19760311b60448201526064016102bc565b6000610b098a8a8a896111de565b905060168114610b575760405162461bcd60e51b81526020600482015260196024820152782330b4b632b2103a37903a3930b739b332b9103a37b5b2b71760391b60448201526064016102bc565b6000610b638b8a6113b2565b60070b905060168114610bb85760405162461bcd60e51b815260206004820152601760248201527f4661696c656420746f20667265657a6520746f6b656e2e00000000000000000060448201526064016102bc565b6040805186815260208101869052908101849052606081018290527fb0fc214eefabee691b226e12fdae9cef27195953e362485a61a55e9f7aebacfa9060800160405180910390a15050505050505050505050565b6040516001600160a01b038581166024830152848116604483015283166064820152608481018290526000908190819061016790639b23d3d960e01b9060a4016101ac565b6000610c5e8386611226565b90506016811480610c6f575060c281145b610cbb5760405162461bcd60e51b815260206004820152601a60248201527f4661696c656420746f206173736f636961746520746f6b656e2e00000000000060448201526064016102bc565b60606000610cca8785846110e0565b509091505060168114610d175760405162461bcd60e51b81526020600482015260156024820152742330b4b632b2103a379036b4b73a103a37b5b2b71760591b60448201526064016102bc565b6000610d238887611309565b60070b905060168114610d755760405162461bcd60e51b815260206004820152601a6024820152792330b4b632b2103a379033b930b73a103a37b5b2b71025aca19760311b60448201526064016102bc565b6000610d83898989896111de565b905060168114610dd15760405162461bcd60e51b81526020600482015260196024820152782330b4b632b2103a37903a3930b739b332b9103a37b5b2b71760391b60448201526064016102bc565b6040805186815260208101859052908101839052606081018290527f3d674a1ad36ef4c76dcf2c25991ff5125563f1dbd4bcce57e8264e3a6ad479179060800160405180910390a1505050505050505050565b6000610e30858461137c565b60070b905060168114610e855760405162461bcd60e51b815260206004820152601960248201527f4661696c656420746f20756e667265657a6520746f6b656e2e0000000000000060448201526064016102bc565b6000610e918685611309565b60070b905060168114610ee35760405162461bcd60e51b815260206004820152601a6024820152792330b4b632b2103a379033b930b73a103a37b5b2b71025aca19760311b60448201526064016102bc565b6000610ef1878787876111de565b905060168114610f3f5760405162461bcd60e51b81526020600482015260196024820152782330b4b632b2103a37903a3930b739b332b9103a37b5b2b71760391b60448201526064016102bc565b6000610f4b88876113b2565b60070b905060168114610fa05760405162461bcd60e51b815260206004820152601760248201527f4661696c656420746f20667265657a6520746f6b656e2e00000000000000000060448201526064016102bc565b6040805185815260208101859052908101839052606081018290527fe63c8f26de61087c5d2afb0d9893672df4a6e20d3c13a2598d0e16305ca5b94c9060800160405180910390a15050505050505050565b6040516001600160a01b03848116602483015283166044820152600782900b6064820152600090819081906101679063efef57f960e01b906084015b60408051601f198184030181529181526020820180516001600160e01b03166001600160e01b031990941693909317909252905161106c919061176d565b6000604051808303816000865af19150503d80600081146110a9576040519150601f19603f3d011682016040523d82523d6000602084013e6110ae565b606091505b5091509150816110bf5760156110d3565b808060200190518101906110d3919061179b565b60030b9695505050505050565b60008060606000806101676001600160a01b031663e0f4059a60e01b898989604051602401611111939291906118a1565b60408051601f198184030181529181526020820180516001600160e01b03166001600160e01b031990941693909317909252905161114f919061176d565b6000604051808303816000865af19150503d806000811461118c576040519150601f19603f3d011682016040523d82523d6000602084013e611191565b606091505b5091509150816111b45760408051600080825260208201909252601591906111c8565b808060200190518101906111c8919061191e565b60039290920b9a90995090975095505050505050565b6040516001600160a01b038581166024830152848116604483015283166064820152600782900b6084820152600090819081906101679063eca3691760e01b9060a4016101ac565b6040516001600160a01b03838116602483015282166044820152600090819081906101679063248a35ef60e11b906064015b60408051601f198184030181529181526020820180516001600160e01b03166001600160e01b0319909416939093179092529051611296919061176d565b6000604051808303816000865af19150503d80600081146112d3576040519150601f19603f3d011682016040523d82523d6000602084013e6112d8565b606091505b5091509150816112e95760156112fd565b808060200190518101906112fd919061179b565b60030b95945050505050565b6040516001600160a01b038381166024830152821660448201526000908190819061016790638f8d7f9960e01b90606401611258565b6040516001600160a01b0384811660248301528316604482015260648101829052600090819081906101679063e1f21c6760e01b9060840161102e565b6040516001600160a01b0383811660248301528216604482015260009081908190610167906352f9138760e01b90606401611258565b6040516001600160a01b0383811660248301528216604482015260009081908190610167906316e3e16160e21b90606401611258565b80356001600160a01b03811681146113ff57600080fd5b919050565b6000806000806080858703121561141a57600080fd5b611423856113e8565b9350611431602086016113e8565b925061143f604086016113e8565b9396929550929360600135925050565b8060070b811461145e57600080fd5b50565b60008060008060008060c0878903121561147a57600080fd5b611483876113e8565b9550611491602088016113e8565b945061149f604088016113e8565b935060608701356114af8161144f565b925060808701356114bf8161144f565b915060a08701356114cf8161144f565b809150509295509295509295565b600080600080600060a086880312156114f557600080fd5b6114fe866113e8565b945061150c602087016113e8565b935061151a604087016113e8565b9250606086013561152a8161144f565b949793965091946080013592915050565b634e487b7160e01b600052604160045260246000fd5b604051601f8201601f1916810167ffffffffffffffff8111828210171561157a5761157a61153b565b604052919050565b600067ffffffffffffffff82111561159c5761159c61153b565b50601f01601f191660200190565b600080604083850312156115bd57600080fd5b6115c6836113e8565b9150602083013567ffffffffffffffff8111156115e257600080fd5b8301601f810185136115f357600080fd5b803561160661160182611582565b611551565b81815286602083850101111561161b57600080fd5b816020840160208301376000602083830101528093505050509250929050565b60005b8381101561165657818101518382015260200161163e565b50506000910152565b6000815180845261167781602086016020860161163b565b601f01601f19169290920160200192915050565b8281526040602082015260006116a4604083018461165f565b949350505050565b600080600080608085870312156116c257600080fd5b6116cb856113e8565b93506116d9602086016113e8565b92506116e7604086016113e8565b915060608501356116f78161144f565b939692955090935050565b600080600080600060a0868803121561171a57600080fd5b611723866113e8565b9450611731602087016113e8565b935061173f604087016113e8565b9250606086013561174f8161144f565b9150608086013561175f8161144f565b809150509295509295909350565b6000825161177f81846020870161163b565b9190910192915050565b8051600381900b81146113ff57600080fd5b6000602082840312156117ad57600080fd5b6117b682611789565b9392505050565b6000602082840312156117cf57600080fd5b81516117b68161144f565b6001600160a01b03831681526040602082015260006116a4604083018461165f565b82151581526040602082015260006116a4604083018461165f565b6000806040838503121561182a57600080fd5b61183383611789565b9150602083015167ffffffffffffffff81111561184f57600080fd5b8301601f8101851361186057600080fd5b805161186e61160182611582565b81815286602083850101111561188357600080fd5b61189482602083016020860161163b565b8093505050509250929050565b6000606082016001600160a01b038616835260208560070b818501526060604085015281855180845260808601915060808160051b870101935082870160005b8281101561190f57607f198887030184526118fd86835161165f565b955092840192908401906001016118e1565b50939998505050505050505050565b60008060006060848603121561193357600080fd5b61193c84611789565b925060208085015161194d8161144f565b604086015190935067ffffffffffffffff8082111561196b57600080fd5b818701915087601f83011261197f57600080fd5b8151818111156119915761199161153b565b8060051b91506119a2848301611551565b818152918301840191848101908a8411156119bc57600080fd5b938501935b838510156119e657845192506119d68361144f565b82825293850193908501906119c1565b809650505050505050925092509256fea26469706673582212203d45c0ffb0d07b0e48e2b4d2fd859a49242b2788cc962bf93136b432395125d864736f6c63430008140033",
  "linkReferences": {},
  "deployedLinkReferences": {}
}