{
  "_format": "hh-sol-artifact-1",
  "contractName": "Test2Facet",
  "sourceName": "contracts/diamond-pattern/facets/Test2Facet.sol",
  "abi": [
    {
      "inputs": [],
      "name": "test2Func1",
      "outputs": [],
      "stateMutability": "nonpayable",
      "type": "function"
    },
    {
      "inputs": [],
      "name": "test2Func19",
      "outputs": [],
      "stateMutability": "nonpayable",
      "type": "function"
    },
    {
      "inputs": [],
      "name": "test2Func20",
      "outputs": [],
      "stateMutability": "nonpayable",
      "type": "function"
    },
    {
      "inputs": [],
      "name": "test2Func5",
      "outputs": [],
      "stateMutability": "nonpayable",
      "type": "function"
    },
    {
      "inputs": [],
      "name": "test2Func6",
      "outputs": [],
      "stateMutability": "nonpayable",
      "type": "function"
    }
  ],
  "bytecode": "0x6080604052348015600f57600080fd5b50608d8061001e6000396000f3fe6080604052348015600f57600080fd5b506004361060505760003560e01c806317fd06e71460555780635fd6312b146055578063792a8e2e146055578063d2f0c73e146055578063ea36b558146055575b600080fd5b00fea2646970667358221220375baaa8a7e20ac94dd2f65622f62ca1906af8e6932015bbbec1f27ecca553e664736f6c63430008170033",
  "linkReferences": {},
  "deployedLinkReferences": {}
}