{
  "_format": "hh-sol-artifact-1",
  "contractName": "SafeCastTest",
  "sourceName": "contracts/openzeppelin/safe-cast/SafeCast.sol",
  "abi": [
    {
      "inputs": [
        {
          "internalType": "uint8",
          "name": "bits",
          "type": "uint8"
        },
        {
          "internalType": "int256",
          "name": "value",
          "type": "int256"
        }
      ],
      "name": "SafeCastOverflowedIntDowncast",
      "type": "error"
    },
    {
      "inputs": [
        {
          "internalType": "int256",
          "name": "value",
          "type": "int256"
        }
      ],
      "name": "SafeCastOverflowedIntToUint",
      "type": "error"
    },
    {
      "inputs": [
        {
          "internalType": "uint8",
          "name": "bits",
          "type": "uint8"
        },
        {
          "internalType": "uint256",
          "name": "value",
          "type": "uint256"
        }
      ],
      "name": "SafeCastOverflowedUintDowncast",
      "type": "error"
    },
    {
      "inputs": [
        {
          "internalType": "uint256",
          "name": "value",
          "type": "uint256"
        }
      ],
      "name": "SafeCastOverflowedUintToInt",
      "type": "error"
    },
    {
      "inputs": [
        {
          "internalType": "int256",
          "name": "number",
          "type": "int256"
        }
      ],
      "name": "toInt104",
      "outputs": [
        {
          "internalType": "int104",
          "name": "",
          "type": "int104"
        }
      ],
      "stateMutability": "view",
      "type": "function"
    },
    {
      "inputs": [
        {
          "internalType": "int256",
          "name": "number",
          "type": "int256"
        }
      ],
      "name": "toInt112",
      "outputs": [
        {
          "internalType": "int112",
          "name": "",
          "type": "int112"
        }
      ],
      "stateMutability": "view",
      "type": "function"
    },
    {
      "inputs": [
        {
          "internalType": "int256",
          "name": "number",
          "type": "int256"
        }
      ],
      "name": "toInt120",
      "outputs": [
        {
          "internalType": "int120",
          "name": "",
          "type": "int120"
        }
      ],
      "stateMutability": "view",
      "type": "function"
    },
    {
      "inputs": [
        {
          "internalType": "int256",
          "name": "number",
          "type": "int256"
        }
      ],
      "name": "toInt128",
      "outputs": [
        {
          "internalType": "int128",
          "name": "",
          "type": "int128"
        }
      ],
      "stateMutability": "view",
      "type": "function"
    },
    {
      "inputs": [
        {
          "internalType": "int256",
          "name": "number",
          "type": "int256"
        }
      ],
      "name": "toInt136",
      "outputs": [
        {
          "internalType": "int136",
          "name": "",
          "type": "int136"
        }
      ],
      "stateMutability": "view",
      "type": "function"
    },
    {
      "inputs": [
        {
          "internalType": "int256",
          "name": "number",
          "type": "int256"
        }
      ],
      "name": "toInt144",
      "outputs": [
        {
          "internalType": "int144",
          "name": "",
          "type": "int144"
        }
      ],
      "stateMutability": "view",
      "type": "function"
    },
    {
      "inputs": [
        {
          "internalType": "int256",
          "name": "number",
          "type": "int256"
        }
      ],
      "name": "toInt152",
      "outputs": [
        {
          "internalType": "int152",
          "name": "",
          "type": "int152"
        }
      ],
      "stateMutability": "view",
      "type": "function"
    },
    {
      "inputs": [
        {
          "internalType": "int256",
          "name": "number",
          "type": "int256"
        }
      ],
      "name": "toInt16",
      "outputs": [
        {
          "internalType": "int16",
          "name": "",
          "type": "int16"
        }
      ],
      "stateMutability": "view",
      "type": "function"
    },
    {
      "inputs": [
        {
          "internalType": "int256",
          "name": "number",
          "type": "int256"
        }
      ],
      "name": "toInt160",
      "outputs": [
        {
          "internalType": "int160",
          "name": "",
          "type": "int160"
        }
      ],
      "stateMutability": "view",
      "type": "function"
    },
    {
      "inputs": [
        {
          "internalType": "int256",
          "name": "number",
          "type": "int256"
        }
      ],
      "name": "toInt168",
      "outputs": [
        {
          "internalType": "int168",
          "name": "",
          "type": "int168"
        }
      ],
      "stateMutability": "view",
      "type": "function"
    },
    {
      "inputs": [
        {
          "internalType": "int256",
          "name": "number",
          "type": "int256"
        }
      ],
      "name": "toInt176",
      "outputs": [
        {
          "internalType": "int176",
          "name": "",
          "type": "int176"
        }
      ],
      "stateMutability": "view",
      "type": "function"
    },
    {
      "inputs": [
        {
          "internalType": "int256",
          "name": "number",
          "type": "int256"
        }
      ],
      "name": "toInt184",
      "outputs": [
        {
          "internalType": "int184",
          "name": "",
          "type": "int184"
        }
      ],
      "stateMutability": "view",
      "type": "function"
    },
    {
      "inputs": [
        {
          "internalType": "int256",
          "name": "number",
          "type": "int256"
        }
      ],
      "name": "toInt192",
      "outputs": [
        {
          "internalType": "int192",
          "name": "",
          "type": "int192"
        }
      ],
      "stateMutability": "view",
      "type": "function"
    },
    {
      "inputs": [
        {
          "internalType": "int256",
          "name": "number",
          "type": "int256"
        }
      ],
      "name": "toInt200",
      "outputs": [
        {
          "internalType": "int200",
          "name": "",
          "type": "int200"
        }
      ],
      "stateMutability": "view",
      "type": "function"
    },
    {
      "inputs": [
        {
          "internalType": "int256",
          "name": "number",
          "type": "int256"
        }
      ],
      "name": "toInt208",
      "outputs": [
        {
          "internalType": "int208",
          "name": "",
          "type": "int208"
        }
      ],
      "stateMutability": "view",
      "type": "function"
    },
    {
      "inputs": [
        {
          "internalType": "int256",
          "name": "number",
          "type": "int256"
        }
      ],
      "name": "toInt216",
      "outputs": [
        {
          "internalType": "int216",
          "name": "",
          "type": "int216"
        }
      ],
      "stateMutability": "view",
      "type": "function"
    },
    {
      "inputs": [
        {
          "internalType": "int256",
          "name": "number",
          "type": "int256"
        }
      ],
      "name": "toInt224",
      "outputs": [
        {
          "internalType": "int224",
          "name": "",
          "type": "int224"
        }
      ],
      "stateMutability": "view",
      "type": "function"
    },
    {
      "inputs": [
        {
          "internalType": "int256",
          "name": "number",
          "type": "int256"
        }
      ],
      "name": "toInt232",
      "outputs": [
        {
          "internalType": "int232",
          "name": "",
          "type": "int232"
        }
      ],
      "stateMutability": "view",
      "type": "function"
    },
    {
      "inputs": [
        {
          "internalType": "int256",
          "name": "number",
          "type": "int256"
        }
      ],
      "name": "toInt24",
      "outputs": [
        {
          "internalType": "int24",
          "name": "",
          "type": "int24"
        }
      ],
      "stateMutability": "view",
      "type": "function"
    },
    {
      "inputs": [
        {
          "internalType": "int256",
          "name": "number",
          "type": "int256"
        }
      ],
      "name": "toInt240",
      "outputs": [
        {
          "internalType": "int240",
          "name": "",
          "type": "int240"
        }
      ],
      "stateMutability": "view",
      "type": "function"
    },
    {
      "inputs": [
        {
          "internalType": "int256",
          "name": "number",
          "type": "int256"
        }
      ],
      "name": "toInt248",
      "outputs": [
        {
          "internalType": "int248",
          "name": "",
          "type": "int248"
        }
      ],
      "stateMutability": "view",
      "type": "function"
    },
    {
      "inputs": [
        {
          "internalType": "uint256",
          "name": "number",
          "type": "uint256"
        }
      ],
      "name": "toInt256",
      "outputs": [
        {
          "internalType": "int256",
          "name": "",
          "type": "int256"
        }
      ],
      "stateMutability": "view",
      "type": "function"
    },
    {
      "inputs": [
        {
          "internalType": "int256",
          "name": "number",
          "type": "int256"
        }
      ],
      "name": "toInt32",
      "outputs": [
        {
          "internalType": "int32",
          "name": "",
          "type": "int32"
        }
      ],
      "stateMutability": "view",
      "type": "function"
    },
    {
      "inputs": [
        {
          "internalType": "int256",
          "name": "number",
          "type": "int256"
        }
      ],
      "name": "toInt40",
      "outputs": [
        {
          "internalType": "int40",
          "name": "",
          "type": "int40"
        }
      ],
      "stateMutability": "view",
      "type": "function"
    },
    {
      "inputs": [
        {
          "internalType": "int256",
          "name": "number",
          "type": "int256"
        }
      ],
      "name": "toInt48",
      "outputs": [
        {
          "internalType": "int48",
          "name": "",
          "type": "int48"
        }
      ],
      "stateMutability": "view",
      "type": "function"
    },
    {
      "inputs": [
        {
          "internalType": "int256",
          "name": "number",
          "type": "int256"
        }
      ],
      "name": "toInt56",
      "outputs": [
        {
          "internalType": "int56",
          "name": "",
          "type": "int56"
        }
      ],
      "stateMutability": "view",
      "type": "function"
    },
    {
      "inputs": [
        {
          "internalType": "int256",
          "name": "number",
          "type": "int256"
        }
      ],
      "name": "toInt64",
      "outputs": [
        {
          "internalType": "int64",
          "name": "",
          "type": "int64"
        }
      ],
      "stateMutability": "view",
      "type": "function"
    },
    {
      "inputs": [
        {
          "internalType": "int256",
          "name": "number",
          "type": "int256"
        }
      ],
      "name": "toInt72",
      "outputs": [
        {
          "internalType": "int72",
          "name": "",
          "type": "int72"
        }
      ],
      "stateMutability": "view",
      "type": "function"
    },
    {
      "inputs": [
        {
          "internalType": "int256",
          "name": "number",
          "type": "int256"
        }
      ],
      "name": "toInt8",
      "outputs": [
        {
          "internalType": "int8",
          "name": "",
          "type": "int8"
        }
      ],
      "stateMutability": "view",
      "type": "function"
    },
    {
      "inputs": [
        {
          "internalType": "int256",
          "name": "number",
          "type": "int256"
        }
      ],
      "name": "toInt80",
      "outputs": [
        {
          "internalType": "int80",
          "name": "",
          "type": "int80"
        }
      ],
      "stateMutability": "view",
      "type": "function"
    },
    {
      "inputs": [
        {
          "internalType": "int256",
          "name": "number",
          "type": "int256"
        }
      ],
      "name": "toInt88",
      "outputs": [
        {
          "internalType": "int88",
          "name": "",
          "type": "int88"
        }
      ],
      "stateMutability": "view",
      "type": "function"
    },
    {
      "inputs": [
        {
          "internalType": "int256",
          "name": "number",
          "type": "int256"
        }
      ],
      "name": "toInt96",
      "outputs": [
        {
          "internalType": "int96",
          "name": "",
          "type": "int96"
        }
      ],
      "stateMutability": "view",
      "type": "function"
    },
    {
      "inputs": [
        {
          "internalType": "uint256",
          "name": "number",
          "type": "uint256"
        }
      ],
      "name": "toUint104",
      "outputs": [
        {
          "internalType": "uint104",
          "name": "",
          "type": "uint104"
        }
      ],
      "stateMutability": "view",
      "type": "function"
    },
    {
      "inputs": [
        {
          "internalType": "uint256",
          "name": "number",
          "type": "uint256"
        }
      ],
      "name": "toUint112",
      "outputs": [
        {
          "internalType": "uint112",
          "name": "",
          "type": "uint112"
        }
      ],
      "stateMutability": "view",
      "type": "function"
    },
    {
      "inputs": [
        {
          "internalType": "uint256",
          "name": "number",
          "type": "uint256"
        }
      ],
      "name": "toUint120",
      "outputs": [
        {
          "internalType": "uint120",
          "name": "",
          "type": "uint120"
        }
      ],
      "stateMutability": "view",
      "type": "function"
    },
    {
      "inputs": [
        {
          "internalType": "uint256",
          "name": "number",
          "type": "uint256"
        }
      ],
      "name": "toUint128",
      "outputs": [
        {
          "internalType": "uint128",
          "name": "",
          "type": "uint128"
        }
      ],
      "stateMutability": "view",
      "type": "function"
    },
    {
      "inputs": [
        {
          "internalType": "uint256",
          "name": "number",
          "type": "uint256"
        }
      ],
      "name": "toUint136",
      "outputs": [
        {
          "internalType": "uint136",
          "name": "",
          "type": "uint136"
        }
      ],
      "stateMutability": "view",
      "type": "function"
    },
    {
      "inputs": [
        {
          "internalType": "uint256",
          "name": "number",
          "type": "uint256"
        }
      ],
      "name": "toUint144",
      "outputs": [
        {
          "internalType": "uint144",
          "name": "",
          "type": "uint144"
        }
      ],
      "stateMutability": "view",
      "type": "function"
    },
    {
      "inputs": [
        {
          "internalType": "uint256",
          "name": "number",
          "type": "uint256"
        }
      ],
      "name": "toUint152",
      "outputs": [
        {
          "internalType": "uint152",
          "name": "",
          "type": "uint152"
        }
      ],
      "stateMutability": "view",
      "type": "function"
    },
    {
      "inputs": [
        {
          "internalType": "uint256",
          "name": "number",
          "type": "uint256"
        }
      ],
      "name": "toUint16",
      "outputs": [
        {
          "internalType": "uint16",
          "name": "",
          "type": "uint16"
        }
      ],
      "stateMutability": "view",
      "type": "function"
    },
    {
      "inputs": [
        {
          "internalType": "uint256",
          "name": "number",
          "type": "uint256"
        }
      ],
      "name": "toUint160",
      "outputs": [
        {
          "internalType": "uint160",
          "name": "",
          "type": "uint160"
        }
      ],
      "stateMutability": "view",
      "type": "function"
    },
    {
      "inputs": [
        {
          "internalType": "uint256",
          "name": "number",
          "type": "uint256"
        }
      ],
      "name": "toUint168",
      "outputs": [
        {
          "internalType": "uint168",
          "name": "",
          "type": "uint168"
        }
      ],
      "stateMutability": "view",
      "type": "function"
    },
    {
      "inputs": [
        {
          "internalType": "uint256",
          "name": "number",
          "type": "uint256"
        }
      ],
      "name": "toUint176",
      "outputs": [
        {
          "internalType": "uint176",
          "name": "",
          "type": "uint176"
        }
      ],
      "stateMutability": "view",
      "type": "function"
    },
    {
      "inputs": [
        {
          "internalType": "uint256",
          "name": "number",
          "type": "uint256"
        }
      ],
      "name": "toUint184",
      "outputs": [
        {
          "internalType": "uint184",
          "name": "",
          "type": "uint184"
        }
      ],
      "stateMutability": "view",
      "type": "function"
    },
    {
      "inputs": [
        {
          "internalType": "uint256",
          "name": "number",
          "type": "uint256"
        }
      ],
      "name": "toUint192",
      "outputs": [
        {
          "internalType": "uint192",
          "name": "",
          "type": "uint192"
        }
      ],
      "stateMutability": "view",
      "type": "function"
    },
    {
      "inputs": [
        {
          "internalType": "uint256",
          "name": "number",
          "type": "uint256"
        }
      ],
      "name": "toUint200",
      "outputs": [
        {
          "internalType": "uint200",
          "name": "",
          "type": "uint200"
        }
      ],
      "stateMutability": "view",
      "type": "function"
    },
    {
      "inputs": [
        {
          "internalType": "uint256",
          "name": "number",
          "type": "uint256"
        }
      ],
      "name": "toUint208",
      "outputs": [
        {
          "internalType": "uint208",
          "name": "",
          "type": "uint208"
        }
      ],
      "stateMutability": "view",
      "type": "function"
    },
    {
      "inputs": [
        {
          "internalType": "uint256",
          "name": "number",
          "type": "uint256"
        }
      ],
      "name": "toUint216",
      "outputs": [
        {
          "internalType": "uint216",
          "name": "",
          "type": "uint216"
        }
      ],
      "stateMutability": "view",
      "type": "function"
    },
    {
      "inputs": [
        {
          "internalType": "uint256",
          "name": "number",
          "type": "uint256"
        }
      ],
      "name": "toUint224",
      "outputs": [
        {
          "internalType": "uint224",
          "name": "",
          "type": "uint224"
        }
      ],
      "stateMutability": "view",
      "type": "function"
    },
    {
      "inputs": [
        {
          "internalType": "uint256",
          "name": "number",
          "type": "uint256"
        }
      ],
      "name": "toUint232",
      "outputs": [
        {
          "internalType": "uint232",
          "name": "",
          "type": "uint232"
        }
      ],
      "stateMutability": "view",
      "type": "function"
    },
    {
      "inputs": [
        {
          "internalType": "uint256",
          "name": "number",
          "type": "uint256"
        }
      ],
      "name": "toUint24",
      "outputs": [
        {
          "internalType": "uint24",
          "name": "",
          "type": "uint24"
        }
      ],
      "stateMutability": "view",
      "type": "function"
    },
    {
      "inputs": [
        {
          "internalType": "uint256",
          "name": "number",
          "type": "uint256"
        }
      ],
      "name": "toUint240",
      "outputs": [
        {
          "internalType": "uint240",
          "name": "",
          "type": "uint240"
        }
      ],
      "stateMutability": "view",
      "type": "function"
    },
    {
      "inputs": [
        {
          "internalType": "uint256",
          "name": "number",
          "type": "uint256"
        }
      ],
      "name": "toUint248",
      "outputs": [
        {
          "internalType": "uint248",
          "name": "",
          "type": "uint248"
        }
      ],
      "stateMutability": "view",
      "type": "function"
    },
    {
      "inputs": [
        {
          "internalType": "int256",
          "name": "number",
          "type": "int256"
        }
      ],
      "name": "toUint256",
      "outputs": [
        {
          "internalType": "uint256",
          "name": "",
          "type": "uint256"
        }
      ],
      "stateMutability": "pure",
      "type": "function"
    },
    {
      "inputs": [
        {
          "internalType": "uint256",
          "name": "number",
          "type": "uint256"
        }
      ],
      "name": "toUint32",
      "outputs": [
        {
          "internalType": "uint32",
          "name": "",
          "type": "uint32"
        }
      ],
      "stateMutability": "view",
      "type": "function"
    },
    {
      "inputs": [
        {
          "internalType": "uint256",
          "name": "number",
          "type": "uint256"
        }
      ],
      "name": "toUint40",
      "outputs": [
        {
          "internalType": "uint40",
          "name": "",
          "type": "uint40"
        }
      ],
      "stateMutability": "view",
      "type": "function"
    },
    {
      "inputs": [
        {
          "internalType": "uint256",
          "name": "number",
          "type": "uint256"
        }
      ],
      "name": "toUint48",
      "outputs": [
        {
          "internalType": "uint48",
          "name": "",
          "type": "uint48"
        }
      ],
      "stateMutability": "view",
      "type": "function"
    },
    {
      "inputs": [
        {
          "internalType": "uint256",
          "name": "number",
          "type": "uint256"
        }
      ],
      "name": "toUint56",
      "outputs": [
        {
          "internalType": "uint56",
          "name": "",
          "type": "uint56"
        }
      ],
      "stateMutability": "view",
      "type": "function"
    },
    {
      "inputs": [
        {
          "internalType": "uint256",
          "name": "number",
          "type": "uint256"
        }
      ],
      "name": "toUint64",
      "outputs": [
        {
          "internalType": "uint64",
          "name": "",
          "type": "uint64"
        }
      ],
      "stateMutability": "view",
      "type": "function"
    },
    {
      "inputs": [
        {
          "internalType": "uint256",
          "name": "number",
          "type": "uint256"
        }
      ],
      "name": "toUint72",
      "outputs": [
        {
          "internalType": "uint72",
          "name": "",
          "type": "uint72"
        }
      ],
      "stateMutability": "view",
      "type": "function"
    },
    {
      "inputs": [
        {
          "internalType": "uint256",
          "name": "number",
          "type": "uint256"
        }
      ],
      "name": "toUint8",
      "outputs": [
        {
          "internalType": "uint8",
          "name": "",
          "type": "uint8"
        }
      ],
      "stateMutability": "view",
      "type": "function"
    },
    {
      "inputs": [
        {
          "internalType": "uint256",
          "name": "number",
          "type": "uint256"
        }
      ],
      "name": "toUint80",
      "outputs": [
        {
          "internalType": "uint80",
          "name": "",
          "type": "uint80"
        }
      ],
      "stateMutability": "view",
      "type": "function"
    },
    {
      "inputs": [
        {
          "internalType": "uint256",
          "name": "number",
          "type": "uint256"
        }
      ],
      "name": "toUint88",
      "outputs": [
        {
          "internalType": "uint88",
          "name": "",
          "type": "uint88"
        }
      ],
      "stateMutability": "view",
      "type": "function"
    },
    {
      "inputs": [
        {
          "internalType": "uint256",
          "name": "number",
          "type": "uint256"
        }
      ],
      "name": "toUint96",
      "outputs": [
        {
          "internalType": "uint96",
          "name": "",
          "type": "uint96"
        }
      ],
      "stateMutability": "view",
      "type": "function"
    }
  ],
  "bytecode": "0x60806040526000196000556001600160f81b03600160006101000a8154816001600160f81b0302191690836001600160f81b031602179055506001600160f01b03600260006101000a8154816001600160f01b0302191690836001600160f01b031602179055506001600160e81b03600360006101000a8154816001600160e81b0302191690836001600160e81b031602179055506001600160e01b03600460006101000a8154816001600160e01b0302191690836001600160e01b031602179055506001600160d81b03600560006101000a8154816001600160d81b0302191690836001600160d81b031602179055506001600160d01b03600660006101000a8154816001600160d01b0302191690836001600160d01b031602179055506001600160c81b03600760006101000a8154816001600160c81b0302191690836001600160c81b031602179055506001600160c01b03600860006101000a8154816001600160c01b0302191690836001600160c01b031602179055506001600160b81b03600960006101000a8154816001600160b81b0302191690836001600160b81b031602179055506001600160b01b03600a60006101000a8154816001600160b01b0302191690836001600160b01b031602179055506001600160a81b03600b60006101000a8154816001600160a81b0302191690836001600160a81b031602179055506001600160a01b03600c60006101000a8154816001600160a01b0302191690836001600160a01b031602179055506001600160981b03600d60006101000a8154816001600160981b0302191690836001600160981b031602179055506001600160901b03600e60006101000a8154816001600160901b0302191690836001600160901b031602179055506001600160881b03600f60006101000a8154816001600160881b0302191690836001600160881b031602179055506001600160801b03601060006101000a8154816001600160801b0302191690836001600160801b031602179055506001600160781b036010806101000a8154816001600160781b0302191690836001600160781b031602179055506001600160701b03601160006101000a8154816001600160701b0302191690836001600160701b031602179055506001600160681b036011600e6101000a8154816001600160681b0302191690836001600160681b031602179055506001600160601b03601260006101000a8154816001600160601b0302191690836001600160601b031602179055506001600160581b036012600c6101000a8154816001600160581b0302191690836001600160581b031602179055506001600160501b03601360006101000a8154816001600160501b0302191690836001600160501b031602179055506001600160481b036013600a6101000a8154816001600160481b0302191690836001600160481b031602179055506001600160401b036013806101000a8154816001600160401b0302191690836001600160401b0316021790555066ffffffffffffff601460006101000a81548166ffffffffffffff021916908366ffffffffffffff16021790555065ffffffffffff601460076101000a81548165ffffffffffff021916908365ffffffffffff16021790555064ffffffffff6014600d6101000a81548164ffffffffff021916908364ffffffffff16021790555063ffffffff601460126101000a81548163ffffffff021916908363ffffffff16021790555062ffffff601460166101000a81548162ffffff021916908362ffffff16021790555061ffff601460196101000a81548161ffff021916908361ffff16021790555060ff6014601b6101000a81548160ff021916908360ff1602179055506001600160ff1b036015556001600160f71b03601660006101000a8154816001600160f81b030219169083601e0b6001600160f81b031602179055506001600160ef1b03601760006101000a8154816001600160f01b030219169083601d0b6001600160f01b031602179055506001600160e71b03601860006101000a8154816001600160e81b030219169083601c0b6001600160e81b031602179055506001600160df1b03601960006101000a8154816001600160e01b030219169083601b0b6001600160e01b031602179055506001600160d71b03601a60006101000a8154816001600160d81b030219169083601a0b6001600160d81b031602179055506001600160cf1b03601b60006101000a8154816001600160d01b03021916908360190b6001600160d01b031602179055506001600160c71b03601c60006101000a8154816001600160c81b03021916908360180b6001600160c81b031602179055506001600160bf1b03601d60006101000a8154816001600160c01b03021916908360170b6001600160c01b031602179055506001600160b71b03601e60006101000a8154816001600160b81b03021916908360160b6001600160b81b031602179055506001600160af1b03601f60006101000a8154816001600160b01b03021916908360150b6001600160b01b031602179055506001600160a71b03602060006101000a8154816001600160a81b03021916908360140b6001600160a81b0316021790555060016001609f1b03602160006101000a8154816001600160a01b03021916908360130b6001600160a01b031602179055506001600160971b03602260006101000a8154816001600160981b03021916908360120b6001600160981b0316021790555060016001608f1b03602360006101000a8154816001600160901b03021916908360110b6001600160901b031602179055506001600160871b03602460006101000a8154816001600160881b03021916908360100b6001600160881b0316021790555060016001607f1b03602560006101000a8154816001600160801b030219169083600f0b6001600160801b031602179055506001600160771b03602560106101000a8154816001600160781b030219169083600e0b6001600160781b0316021790555060016001606f1b03602660006101000a8154816001600160701b030219169083600d0b6001600160701b031602179055506001600160671b036026600e6101000a8154816001600160681b030219169083600c0b6001600160681b0316021790555060016001605f1b03602760006101000a8154816001600160601b030219169083600b0b6001600160601b031602179055506001600160571b036027600c6101000a8154816001600160581b030219169083600a0b6001600160581b0316021790555060016001604f1b03602860006101000a8154816001600160501b03021916908360090b6001600160501b031602179055506001600160471b036028600a6101000a8154816001600160481b03021916908360080b6001600160481b0316021790555060016001603f1b03602860136101000a8154816001600160401b03021916908360070b6001600160401b03160217905550667fffffffffffff602960006101000a81548166ffffffffffffff021916908360060b66ffffffffffffff160217905550657fffffffffff602960076101000a81548165ffffffffffff021916908360050b65ffffffffffff160217905550647fffffffff6029600d6101000a81548164ffffffffff021916908360040b64ffffffffff160217905550637fffffff602960126101000a81548163ffffffff021916908360030b63ffffffff160217905550627fffff602960166101000a81548162ffffff021916908360020b62ffffff160217905550617fff602960196101000a81548161ffff021916908360010b61ffff160217905550607f6029601b6101000a81548160ff021916908360000b60ff160217905550348015610b2257600080fd5b506123f680610b326000396000f3fe608060405234801561001057600080fd5b50600436106103d05760003560e01c8063809fdd33116101ff578063c81932551161011a578063e5feca77116100ad578063eaeff4e51161007c578063eaeff4e514610d77578063f136dc0214610d9d578063fb7f3c7914610dc3578063fdcf791b14610dec57600080fd5b8063e5feca7714610cdf578063e6a6f6f814610d05578063e87167c314610d2b578063ea4b667414610d5157600080fd5b8063dd2a0316116100e9578063dd2a031614610c47578063dfbe873b14610c6d578063dfef6beb14610c8e578063e46ea12014610cb957600080fd5b8063c819325514610ba5578063cbff595f14610bcd578063cf65b4d314610bfb578063d6bd32aa14610c2157600080fd5b80639c6f59be11610192578063b936bfb311610161578063b936bfb314610afe578063bb33fe0814610b29578063c3cd16b514610b54578063c4b4298c14610b7a57600080fd5b80639c6f59be14610a53578063ad4b458a14610a79578063b012db6f14610aae578063b0a9408714610ad857600080fd5b80638c48fc22116101ce5780638c48fc22146109b55780639374068f146109e057806395cb3ec614610a06578063971bcc2214610a2d57600080fd5b8063809fdd33146108ff578063821bedfa14610933578063839838381461095957806385bb6ae11461098a57600080fd5b80633b703090116102ef5780635badd405116102825780636d6d9e4b116102515780636d6d9e4b14610854578063720ad6741461087a578063785de9bf146108a55780637ef90ce0146108d057600080fd5b80635badd405146107b75780635bb79860146107dd57806368048346146108085780636c5048531461082e57600080fd5b806353b916f1116102be57806353b916f11461071557806354c23feb1461073b578063564121c71461076657806358d421eb1461079157600080fd5b80633b703090146106675780633fd726721461069257806341d2aa64146106bd57806343710f46146106ef57600080fd5b80631cf887fc116103675780632665fad0116103365780632665fad0146105c25780632c81868d146105ee578063316fcbbd1461061457806338d8e45a1461064157600080fd5b80631cf887fc146105135780631d1131e2146105435780631e07d036146105695780631e4e4bad1461058f57600080fd5b80630cc4681e116103a35780630cc4681e146104775780630d4a7bdb1461049c57806311e867ff146104c757806318a359ec146104ed57600080fd5b806301b49217146103d557806305752e511461040057806305b131011461042657806307f841be14610451575b600080fd5b6103e86103e3366004612356565b610dff565b604051601e9190910b81526020015b60405180910390f35b61041361040e366004612356565b610e22565b604051601c9190910b81526020016103f7565b610439610434366004612356565b610e3f565b6040516001600160b01b0390911681526020016103f7565b61046461045f366004612356565b610e62565b60405160179190910b81526020016103f7565b61048a610485366004612356565b610e7f565b60405160ff90911681526020016103f7565b6104af6104aa366004612356565b610ea3565b6040516001600160e81b0390911681526020016103f7565b6104da6104d5366004612356565b610ec6565b60405160189190910b81526020016103f7565b6105006104fb366004612356565b610ee3565b60405160059190910b81526020016103f7565b610526610521366004612356565b610f0b565b6040516bffffffffffffffffffffffff90911681526020016103f7565b610556610551366004612356565b610f33565b604051600b9190910b81526020016103f7565b61057c610577366004612356565b610f50565b604051600c9190910b81526020016103f7565b6105a261059d366004612356565b610f74565b6040516effffffffffffffffffffffffffffff90911681526020016103f7565b6105d56105d0366004612356565b610fa6565b60405167ffffffffffffffff90911681526020016103f7565b6106016105fc366004612356565b610fd1565b60405160099190910b81526020016103f7565b610627610622366004612356565b610fee565b60405168ffffffffffffffffff90911681526020016103f7565b61065461064f366004612356565b611021565b604051601b9190910b81526020016103f7565b61067a610675366004612356565b61103e565b6040516001600160f01b0390911681526020016103f7565b6106a56106a0366004612356565b611061565b6040516001600160f81b0390911681526020016103f7565b6106d06106cb366004612356565b611084565b6040516dffffffffffffffffffffffffffff90911681526020016103f7565b6107026106fd366004612356565b6110ae565b60405160069190910b81526020016103f7565b610728610723366004612356565b6110cb565b604051601d9190910b81526020016103f7565b61074e610749366004612356565b6110e8565b6040516001600160a81b0390911681526020016103f7565b610779610774366004612356565b61110b565b6040516001600160b81b0390911681526020016103f7565b6107a461079f366004612356565b61112e565b604051600d9190910b81526020016103f7565b6107ca6107c5366004612356565b61114b565b60405160129190910b81526020016103f7565b6107f06107eb366004612356565b611168565b6040516001600160e01b0390911681526020016103f7565b61081b610816366004612356565b61118b565b60405160139190910b81526020016103f7565b61084161083c366004612356565b6111a8565b60405160169190910b81526020016103f7565b610867610862366004612356565b6111c5565b60405160119190910b81526020016103f7565b61088d610888366004612356565b6111e2565b6040516001600160c81b0390911681526020016103f7565b6108b86108b3366004612356565b611205565b6040516001600160c01b0390911681526020016103f7565b6108e36108de366004612356565b611228565b6040516affffffffffffffffffffff90911681526020016103f7565b61091261090d366004612356565b611256565b6040516fffffffffffffffffffffffffffffffff90911681526020016103f7565b610946610941366004612356565b611282565b60405160159190910b81526020016103f7565b61096c610967366004612356565b61129f565b6040516cffffffffffffffffffffffffff90911681526020016103f7565b61099d610998366004612356565b6112cf565b6040516001600160d81b0390911681526020016103f7565b6109c86109c3366004612356565b6112f2565b6040516001600160981b0390911681526020016103f7565b6109f36109ee366004612356565b611315565b60405161ffff90911681526020016103f7565b610a19610a14366004612356565b61133a565b60405162ffffff90911681526020016103f7565b610a40610a3b366004612356565b611360565b604051600a9190910b81526020016103f7565b610a66610a61366004612356565b611384565b60405160039190910b81526020016103f7565b610a8c610a87366004612356565b6113a8565b60405170ffffffffffffffffffffffffffffffffff90911681526020016103f7565b610ac1610abc366004612356565b6113d5565b60405165ffffffffffff90911681526020016103f7565b610aeb610ae6366004612356565b611402565b60405160109190910b81526020016103f7565b610b11610b0c366004612356565b61141f565b6040516001600160901b0390911681526020016103f7565b610b3c610b37366004612356565b611442565b6040516001600160d01b0390911681526020016103f7565b610b67610b62366004612356565b611465565b60405160049190910b81526020016103f7565b610b8d610b88366004612356565b611489565b60405166ffffffffffffff90911681526020016103f7565b610bb8610bb3366004612356565b6114ac565b60405163ffffffff90911681526020016103f7565b610be0610bdb366004612356565b6114d3565b60405169ffffffffffffffffffff90911681526020016103f7565b610c0e610c09366004612356565b6114f9565b60405160019190910b81526020016103f7565b610c34610c2f366004612356565b61151d565b60405160079190910b81526020016103f7565b610c5a610c55366004612356565b611541565b604051600f9190910b81526020016103f7565b610c80610c7b366004612356565b61155e565b6040519081526020016103f7565b610ca1610c9c366004612356565b611576565b6040516001600160a01b0390911681526020016103f7565b610ccc610cc7366004612356565b611599565b60405160089190910b81526020016103f7565b610cf2610ced366004612356565b6115c4565b60405160029190910b81526020016103f7565b610d18610d13366004612356565b6115e8565b60405160149190910b81526020016103f7565b610d3e610d39366004612356565b611605565b604051601a9190910b81526020016103f7565b610d64610d5f366004612356565b611622565b604051600e9190910b81526020016103f7565b610d8a610d85366004612356565b611646565b60405160199190910b81526020016103f7565b610db0610dab366004612356565b611663565b60405160009190910b81526020016103f7565b610dd6610dd1366004612356565b611686565b60405164ffffffffff90911681526020016103f7565b610c80610dfa366004612356565b6116ae565b601654600090610e1c90610e17908490601e0b612385565b6116b9565b92915050565b601854600090610e1c90610e3a908490601c0b612385565b6116f2565b600a54600090610e1c90610e5d9084906001600160b01b03166123ad565b611721565b601d54600090610e1c90610e7a90849060170b612385565b611759565b601454600090610e1c90610e9e908490600160d81b900460ff166123ad565b611788565b600354600090610e1c90610ec19084906001600160e81b03166123ad565b6117b6565b601c54600090610e1c90610ede90849060180b612385565b6117ea565b602954600090610e1c90610f06908490670100000000000000900460050b612385565b611819565b601254600090610e1c90610f2e9084906bffffffffffffffffffffffff166123ad565b611848565b602754600090610e1c90610f4b908490600b0b612385565b611881565b602654600090610e1c90610f6f908490600160701b9004600c0b612385565b6118b0565b601054600090610e1c90610fa1908490600160801b90046effffffffffffffffffffffffffffff166123ad565b6118df565b601354600090610e1c90610fcc908490600160981b900467ffffffffffffffff166123ad565b61191b565b602854600090610e1c90610fe990849060090b612385565b611952565b601354600090610e1c9061101c9084906a0100000000000000000000900468ffffffffffffffffff166123ad565b611981565b601954600090610e1c90611039908490601b0b612385565b6119b7565b600254600090610e1c9061105c9084906001600160f01b03166123ad565b6119e6565b600154600090610e1c9061107f9084906001600160f81b03166123ad565b611a1a565b601154600090610e1c906110a99084906dffffffffffffffffffffffffffff166123ad565b611a4e565b602954600090610e1c906110c690849060060b612385565b611a89565b601754600090610e1c906110e3908490601d0b612385565b611ab8565b600b54600090610e1c906111069084906001600160a81b03166123ad565b611ae7565b600954600090610e1c906111299084906001600160b81b03166123ad565b611b1b565b602654600090610e1c90611146908490600d0b612385565b611b4f565b602254600090610e1c9061116390849060120b612385565b611b7e565b600454600090610e1c906111869084906001600160e01b03166123ad565b611bad565b602154600090610e1c906111a390849060130b612385565b611be1565b601e54600090610e1c906111c090849060160b612385565b611c10565b602354600090610e1c906111dd90849060110b612385565b611c3f565b600754600090610e1c906112009084906001600160c81b03166123ad565b611c6e565b600854600090610e1c906112239084906001600160c01b03166123ad565b611ca2565b601254600090610e1c90611251908490600160601b90046affffffffffffffffffffff166123ad565b611cd6565b601054600090610e1c9061127d9084906fffffffffffffffffffffffffffffffff166123ad565b611d0e565b601f54600090610e1c9061129a90849060150b612385565b611d4b565b601154600090610e1c906112ca908490600160701b90046cffffffffffffffffffffffffff166123ad565b611d7a565b600554600090610e1c906112ed9084906001600160d81b03166123ad565b611db4565b600d54600090610e1c906113109084906001600160981b03166123ad565b611de8565b601454600090610e1c90611335908490600160c81b900461ffff166123ad565b611e1c565b601454600090610e1c9061135b908490600160b01b900462ffffff166123ad565b611e4b565b602754600090610e1c9061137f908490600160601b9004600a0b612385565b611e7b565b602954600090610e1c906113a3908490600160901b900460030b612385565b611eaa565b600f54600090610e1c906113d090849070ffffffffffffffffffffffffffffffffff166123ad565b611ed9565b601454600090610e1c906113fd908490670100000000000000900465ffffffffffff166123ad565b611f17565b602454600090610e1c9061141a90849060100b612385565b611f4a565b600e54600090610e1c9061143d9084906001600160901b03166123ad565b611f79565b600654600090610e1c906114609084906001600160d01b03166123ad565b611fad565b602954600090610e1c90611484908490600160681b900460040b612385565b611fe1565b601454600090610e1c906114a790849066ffffffffffffff166123ad565b612010565b601454600090610e1c906114ce908490600160901b900463ffffffff166123ad565b612044565b601354600090610e1c906114f490849069ffffffffffffffffffff166123ad565b612075565b602954600090610e1c90611518908490600160c81b900460010b612385565b6120ac565b602854600090610e1c9061153c908490600160981b900460070b612385565b6120db565b602554600090610e1c90611559908490600f0b612385565b61210c565b6000610e1c8260155461157191906123ad565b61213b565b600c54600090610e1c906115949084906001600160a01b03166123ad565b612181565b602854600090610e1c906115bf9084906a0100000000000000000000900460080b612385565b6121b5565b602954600090610e1c906115e3908490600160b01b900460020b612385565b6121e4565b602054600090610e1c9061160090849060140b612385565b612213565b601a8054600091610e1c9161161d918591900b612385565b612242565b602554600090610e1c90611641908490600160801b9004600e0b612385565b612271565b601b54600090610e1c9061165e90849060190b612385565b6122a0565b602954600090610e1c90611681908490600160d81b9004840b612385565b6122cf565b601454600090610e1c906116a9908490600160681b900464ffffffffff166123ad565b6122fe565b6000610e1c82612330565b80601e81900b81146116ed5760405163327269a760e01b815260f86004820152602481018390526044015b60405180910390fd5b919050565b80601c81900b81146116ed5760405163327269a760e01b815260e86004820152602481018390526044016116e4565b60006001600160b01b03821115611755576040516306dfcc6560e41b815260b06004820152602481018390526044016116e4565b5090565b80601781900b81146116ed5760405163327269a760e01b815260c06004820152602481018390526044016116e4565b600060ff821115611755576040516306dfcc6560e41b815260086004820152602481018390526044016116e4565b60006001600160e81b03821115611755576040516306dfcc6560e41b815260e86004820152602481018390526044016116e4565b80601881900b81146116ed5760405163327269a760e01b815260c86004820152602481018390526044016116e4565b80600581900b81146116ed5760405163327269a760e01b815260306004820152602481018390526044016116e4565b60006bffffffffffffffffffffffff821115611755576040516306dfcc6560e41b815260606004820152602481018390526044016116e4565b80600b81900b81146116ed5760405163327269a760e01b815260606004820152602481018390526044016116e4565b80600c81900b81146116ed5760405163327269a760e01b815260686004820152602481018390526044016116e4565b60006effffffffffffffffffffffffffffff821115611755576040516306dfcc6560e41b815260786004820152602481018390526044016116e4565b600067ffffffffffffffff82111561175557604080516306dfcc6560e41b81526004810191909152602481018390526044016116e4565b80600981900b81146116ed5760405163327269a760e01b815260506004820152602481018390526044016116e4565b600068ffffffffffffffffff821115611755576040516306dfcc6560e41b815260486004820152602481018390526044016116e4565b80601b81900b81146116ed5760405163327269a760e01b815260e06004820152602481018390526044016116e4565b60006001600160f01b03821115611755576040516306dfcc6560e41b815260f06004820152602481018390526044016116e4565b60006001600160f81b03821115611755576040516306dfcc6560e41b815260f86004820152602481018390526044016116e4565b60006dffffffffffffffffffffffffffff821115611755576040516306dfcc6560e41b815260706004820152602481018390526044016116e4565b80600681900b81146116ed5760405163327269a760e01b815260386004820152602481018390526044016116e4565b80601d81900b81146116ed5760405163327269a760e01b815260f06004820152602481018390526044016116e4565b60006001600160a81b03821115611755576040516306dfcc6560e41b815260a86004820152602481018390526044016116e4565b60006001600160b81b03821115611755576040516306dfcc6560e41b815260b86004820152602481018390526044016116e4565b80600d81900b81146116ed5760405163327269a760e01b815260706004820152602481018390526044016116e4565b80601281900b81146116ed5760405163327269a760e01b815260986004820152602481018390526044016116e4565b60006001600160e01b03821115611755576040516306dfcc6560e41b815260e06004820152602481018390526044016116e4565b80601381900b81146116ed5760405163327269a760e01b815260a06004820152602481018390526044016116e4565b80601681900b81146116ed5760405163327269a760e01b815260b86004820152602481018390526044016116e4565b80601181900b81146116ed5760405163327269a760e01b815260906004820152602481018390526044016116e4565b60006001600160c81b03821115611755576040516306dfcc6560e41b815260c86004820152602481018390526044016116e4565b60006001600160c01b03821115611755576040516306dfcc6560e41b815260c06004820152602481018390526044016116e4565b60006affffffffffffffffffffff821115611755576040516306dfcc6560e41b815260586004820152602481018390526044016116e4565b60006fffffffffffffffffffffffffffffffff821115611755576040516306dfcc6560e41b815260806004820152602481018390526044016116e4565b80601581900b81146116ed5760405163327269a760e01b815260b06004820152602481018390526044016116e4565b60006cffffffffffffffffffffffffff821115611755576040516306dfcc6560e41b815260686004820152602481018390526044016116e4565b60006001600160d81b03821115611755576040516306dfcc6560e41b815260d86004820152602481018390526044016116e4565b60006001600160981b03821115611755576040516306dfcc6560e41b815260986004820152602481018390526044016116e4565b600061ffff821115611755576040516306dfcc6560e41b815260106004820152602481018390526044016116e4565b600062ffffff821115611755576040516306dfcc6560e41b815260186004820152602481018390526044016116e4565b80600a81900b81146116ed5760405163327269a760e01b815260586004820152602481018390526044016116e4565b80600381900b81146116ed5760405163327269a760e01b815260206004820152602481018390526044016116e4565b600070ffffffffffffffffffffffffffffffffff821115611755576040516306dfcc6560e41b815260886004820152602481018390526044016116e4565b600065ffffffffffff821115611755576040516306dfcc6560e41b815260306004820152602481018390526044016116e4565b80601081900b81146116ed5760405163327269a760e01b815260886004820152602481018390526044016116e4565b60006001600160901b03821115611755576040516306dfcc6560e41b815260906004820152602481018390526044016116e4565b60006001600160d01b03821115611755576040516306dfcc6560e41b815260d06004820152602481018390526044016116e4565b80600481900b81146116ed5760405163327269a760e01b815260286004820152602481018390526044016116e4565b600066ffffffffffffff821115611755576040516306dfcc6560e41b815260386004820152602481018390526044016116e4565b600063ffffffff821115611755576040516306dfcc6560e41b815260206004820152602481018390526044016116e4565b600069ffffffffffffffffffff821115611755576040516306dfcc6560e41b815260506004820152602481018390526044016116e4565b80600181900b81146116ed5760405163327269a760e01b815260106004820152602481018390526044016116e4565b80600781900b81146116ed576040805163327269a760e01b81526004810191909152602481018390526044016116e4565b80600f81900b81146116ed5760405163327269a760e01b815260806004820152602481018390526044016116e4565b60007f7fffffffffffffffffffffffffffffffffffffffffffffffffffffffffffffff8211156117555760405163123baf0360e11b8152600481018390526024016116e4565b60006001600160a01b03821115611755576040516306dfcc6560e41b815260a06004820152602481018390526044016116e4565b80600881900b81146116ed5760405163327269a760e01b815260486004820152602481018390526044016116e4565b80600281900b81146116ed5760405163327269a760e01b815260186004820152602481018390526044016116e4565b80601481900b81146116ed5760405163327269a760e01b815260a86004820152602481018390526044016116e4565b80601a81900b81146116ed5760405163327269a760e01b815260d86004820152602481018390526044016116e4565b80600e81900b81146116ed5760405163327269a760e01b815260786004820152602481018390526044016116e4565b80601981900b81146116ed5760405163327269a760e01b815260d06004820152602481018390526044016116e4565b80600081900b81146116ed5760405163327269a760e01b815260086004820152602481018390526044016116e4565b600064ffffffffff821115611755576040516306dfcc6560e41b815260286004820152602481018390526044016116e4565b60008082121561175557604051635467221960e11b8152600481018390526024016116e4565b60006020828403121561236857600080fd5b5035919050565b634e487b7160e01b600052601160045260246000fd5b80820182811260008312801582168215821617156123a5576123a561236f565b505092915050565b80820180821115610e1c57610e1c61236f56fea2646970667358221220ecd71117421ce47f778a851e2a27599b19988fd8a1a24daddd7d3c21d5299e9c64736f6c63430008170033",
  "linkReferences": {},
  "deployedLinkReferences": {}
}