{
  "_format": "hh-sol-artifact-1",
  "contractName": "ERC2612Test",
  "sourceName": "contracts/openzeppelin/ERC-2612/ERC2612.sol",
  "abi": [
    {
      "inputs": [],
      "stateMutability": "nonpayable",
      "type": "constructor"
    },
    {
      "inputs": [],
      "name": "ECDSAInvalidSignature",
      "type": "error"
    },
    {
      "inputs": [
        {
          "internalType": "uint256",
          "name": "length",
          "type": "uint256"
        }
      ],
      "name": "ECDSAInvalidSignatureLength",
      "type": "error"
    },
    {
      "inputs": [
        {
          "internalType": "bytes32",
          "name": "s",
          "type": "bytes32"
        }
      ],
      "name": "ECDSAInvalidSignatureS",
      "type": "error"
    },
    {
      "inputs": [
        {
          "internalType": "address",
          "name": "spender",
          "type": "address"
        },
        {
          "internalType": "uint256",
          "name": "allowance",
          "type": "uint256"
        },
        {
          "internalType": "uint256",
          "name": "needed",
          "type": "uint256"
        }
      ],
      "name": "ERC20InsufficientAllowance",
      "type": "error"
    },
    {
      "inputs": [
        {
          "internalType": "address",
          "name": "sender",
          "type": "address"
        },
        {
          "internalType": "uint256",
          "name": "balance",
          "type": "uint256"
        },
        {
          "internalType": "uint256",
          "name": "needed",
          "type": "uint256"
        }
      ],
      "name": "ERC20InsufficientBalance",
      "type": "error"
    },
    {
      "inputs": [
        {
          "internalType": "address",
          "name": "approver",
          "type": "address"
        }
      ],
      "name": "ERC20InvalidApprover",
      "type": "error"
    },
    {
      "inputs": [
        {
          "internalType": "address",
          "name": "receiver",
          "type": "address"
        }
      ],
      "name": "ERC20InvalidReceiver",
      "type": "error"
    },
    {
      "inputs": [
        {
          "internalType": "address",
          "name": "sender",
          "type": "address"
        }
      ],
      "name": "ERC20InvalidSender",
      "type": "error"
    },
    {
      "inputs": [
        {
          "internalType": "address",
          "name": "spender",
          "type": "address"
        }
      ],
      "name": "ERC20InvalidSpender",
      "type": "error"
    },
    {
      "inputs": [
        {
          "internalType": "uint256",
          "name": "deadline",
          "type": "uint256"
        }
      ],
      "name": "ERC2612ExpiredSignature",
      "type": "error"
    },
    {
      "inputs": [
        {
          "internalType": "address",
          "name": "signer",
          "type": "address"
        },
        {
          "internalType": "address",
          "name": "owner",
          "type": "address"
        }
      ],
      "name": "ERC2612InvalidSigner",
      "type": "error"
    },
    {
      "inputs": [
        {
          "internalType": "address",
          "name": "account",
          "type": "address"
        },
        {
          "internalType": "uint256",
          "name": "currentNonce",
          "type": "uint256"
        }
      ],
      "name": "InvalidAccountNonce",
      "type": "error"
    },
    {
      "inputs": [],
      "name": "InvalidShortString",
      "type": "error"
    },
    {
      "inputs": [
        {
          "internalType": "string",
          "name": "str",
          "type": "string"
        }
      ],
      "name": "StringTooLong",
      "type": "error"
    },
    {
      "anonymous": false,
      "inputs": [
        {
          "indexed": true,
          "internalType": "address",
          "name": "owner",
          "type": "address"
        },
        {
          "indexed": true,
          "internalType": "address",
          "name": "spender",
          "type": "address"
        },
        {
          "indexed": false,
          "internalType": "uint256",
          "name": "value",
          "type": "uint256"
        }
      ],
      "name": "Approval",
      "type": "event"
    },
    {
      "anonymous": false,
      "inputs": [],
      "name": "EIP712DomainChanged",
      "type": "event"
    },
    {
      "anonymous": false,
      "inputs": [
        {
          "indexed": false,
          "internalType": "address",
          "name": "signer",
          "type": "address"
        }
      ],
      "name": "Signer",
      "type": "event"
    },
    {
      "anonymous": false,
      "inputs": [
        {
          "indexed": true,
          "internalType": "address",
          "name": "from",
          "type": "address"
        },
        {
          "indexed": true,
          "internalType": "address",
          "name": "to",
          "type": "address"
        },
        {
          "indexed": false,
          "internalType": "uint256",
          "name": "value",
          "type": "uint256"
        }
      ],
      "name": "Transfer",
      "type": "event"
    },
    {
      "inputs": [],
      "name": "DOMAIN_SEPARATOR",
      "outputs": [
        {
          "internalType": "bytes32",
          "name": "",
          "type": "bytes32"
        }
      ],
      "stateMutability": "view",
      "type": "function"
    },
    {
      "inputs": [
        {
          "internalType": "address",
          "name": "owner",
          "type": "address"
        },
        {
          "internalType": "address",
          "name": "spender",
          "type": "address"
        }
      ],
      "name": "allowance",
      "outputs": [
        {
          "internalType": "uint256",
          "name": "",
          "type": "uint256"
        }
      ],
      "stateMutability": "view",
      "type": "function"
    },
    {
      "inputs": [
        {
          "internalType": "address",
          "name": "spender",
          "type": "address"
        },
        {
          "internalType": "uint256",
          "name": "value",
          "type": "uint256"
        }
      ],
      "name": "approve",
      "outputs": [
        {
          "internalType": "bool",
          "name": "",
          "type": "bool"
        }
      ],
      "stateMutability": "nonpayable",
      "type": "function"
    },
    {
      "inputs": [
        {
          "internalType": "address",
          "name": "account",
          "type": "address"
        }
      ],
      "name": "balanceOf",
      "outputs": [
        {
          "internalType": "uint256",
          "name": "",
          "type": "uint256"
        }
      ],
      "stateMutability": "view",
      "type": "function"
    },
    {
      "inputs": [],
      "name": "decimals",
      "outputs": [
        {
          "internalType": "uint8",
          "name": "",
          "type": "uint8"
        }
      ],
      "stateMutability": "view",
      "type": "function"
    },
    {
      "inputs": [],
      "name": "eip712Domain",
      "outputs": [
        {
          "internalType": "bytes1",
          "name": "fields",
          "type": "bytes1"
        },
        {
          "internalType": "string",
          "name": "name",
          "type": "string"
        },
        {
          "internalType": "string",
          "name": "version",
          "type": "string"
        },
        {
          "internalType": "uint256",
          "name": "chainId",
          "type": "uint256"
        },
        {
          "internalType": "address",
          "name": "verifyingContract",
          "type": "address"
        },
        {
          "internalType": "bytes32",
          "name": "salt",
          "type": "bytes32"
        },
        {
          "internalType": "uint256[]",
          "name": "extensions",
          "type": "uint256[]"
        }
      ],
      "stateMutability": "view",
      "type": "function"
    },
    {
      "inputs": [
        {
          "internalType": "uint256",
          "name": "mintAmount",
          "type": "uint256"
        }
      ],
      "name": "mint",
      "outputs": [],
      "stateMutability": "nonpayable",
      "type": "function"
    },
    {
      "inputs": [],
      "name": "name",
      "outputs": [
        {
          "internalType": "string",
          "name": "",
          "type": "string"
        }
      ],
      "stateMutability": "view",
      "type": "function"
    },
    {
      "inputs": [
        {
          "internalType": "address",
          "name": "owner",
          "type": "address"
        }
      ],
      "name": "nonces",
      "outputs": [
        {
          "internalType": "uint256",
          "name": "",
          "type": "uint256"
        }
      ],
      "stateMutability": "view",
      "type": "function"
    },
    {
      "inputs": [
        {
          "internalType": "address",
          "name": "owner",
          "type": "address"
        },
        {
          "internalType": "address",
          "name": "spender",
          "type": "address"
        },
        {
          "internalType": "uint256",
          "name": "value",
          "type": "uint256"
        },
        {
          "internalType": "uint256",
          "name": "deadline",
          "type": "uint256"
        },
        {
          "internalType": "uint8",
          "name": "v",
          "type": "uint8"
        },
        {
          "internalType": "bytes32",
          "name": "r",
          "type": "bytes32"
        },
        {
          "internalType": "bytes32",
          "name": "s",
          "type": "bytes32"
        }
      ],
      "name": "permit",
      "outputs": [],
      "stateMutability": "nonpayable",
      "type": "function"
    },
    {
      "inputs": [
        {
          "internalType": "address",
          "name": "owner",
          "type": "address"
        },
        {
          "internalType": "address",
          "name": "spender",
          "type": "address"
        },
        {
          "internalType": "uint256",
          "name": "value",
          "type": "uint256"
        },
        {
          "internalType": "uint256",
          "name": "deadline",
          "type": "uint256"
        },
        {
          "internalType": "uint8",
          "name": "v",
          "type": "uint8"
        },
        {
          "internalType": "bytes32",
          "name": "r",
          "type": "bytes32"
        },
        {
          "internalType": "bytes32",
          "name": "s",
          "type": "bytes32"
        }
      ],
      "name": "permitTest",
      "outputs": [],
      "stateMutability": "nonpayable",
      "type": "function"
    },
    {
      "inputs": [],
      "name": "symbol",
      "outputs": [
        {
          "internalType": "string",
          "name": "",
          "type": "string"
        }
      ],
      "stateMutability": "view",
      "type": "function"
    },
    {
      "inputs": [],
      "name": "totalSupply",
      "outputs": [
        {
          "internalType": "uint256",
          "name": "",
          "type": "uint256"
        }
      ],
      "stateMutability": "view",
      "type": "function"
    },
    {
      "inputs": [
        {
          "internalType": "address",
          "name": "to",
          "type": "address"
        },
        {
          "internalType": "uint256",
          "name": "value",
          "type": "uint256"
        }
      ],
      "name": "transfer",
      "outputs": [
        {
          "internalType": "bool",
          "name": "",
          "type": "bool"
        }
      ],
      "stateMutability": "nonpayable",
      "type": "function"
    },
    {
      "inputs": [
        {
          "internalType": "address",
          "name": "from",
          "type": "address"
        },
        {
          "internalType": "address",
          "name": "to",
          "type": "address"
        },
        {
          "internalType": "uint256",
          "name": "value",
          "type": "uint256"
        }
      ],
      "name": "transferFrom",
      "outputs": [
        {
          "internalType": "bool",
          "name": "",
          "type": "bool"
        }
      ],
      "stateMutability": "nonpayable",
      "type": "function"
    }
  ],
  "bytecode": "0x6101606040523480156200001257600080fd5b506040518060400160405280600b81526020016a115490cc8d8c4c95195cdd60aa1b81525080604051806040016040528060018152602001603160f81b8152506040518060400160405280600b81526020016a115490cc8d8c4c95195cdd60aa1b815250604051806040016040528060018152602001600960fa1b8152508160039081620000a191906200029d565b506004620000b082826200029d565b50620000c29150839050600562000171565b61012052620000d381600662000171565b61014052815160208084019190912060e052815190820120610100524660a0526200016160e05161010051604080517f8b73c3c69bb8fe3d512ecc4cf759cc79239f7b179b0ffacaa9a75d522b39400f60208201529081019290925260608201524660808201523060a082015260009060c00160405160208183030381529060405280519060200120905090565b60805250503060c05250620003df565b600060208351101562000191576200018983620001aa565b9050620001a4565b816200019e84826200029d565b5060ff90505b92915050565b600080829050601f81511115620001e1578260405163305a27a960e01b8152600401620001d8919062000369565b60405180910390fd5b8051620001ee82620003ba565b179392505050565b634e487b7160e01b600052604160045260246000fd5b600181811c908216806200022157607f821691505b6020821081036200024257634e487b7160e01b600052602260045260246000fd5b50919050565b601f82111562000298576000816000526020600020601f850160051c81016020861015620002735750805b601f850160051c820191505b8181101562000294578281556001016200027f565b5050505b505050565b81516001600160401b03811115620002b957620002b9620001f6565b620002d181620002ca84546200020c565b8462000248565b602080601f831160018114620003095760008415620002f05750858301515b600019600386901b1c1916600185901b17855562000294565b600085815260208120601f198616915b828110156200033a5788860151825594840194600190910190840162000319565b5085821015620003595787850151600019600388901b60f8161c191681555b5050505050600190811b01905550565b60006020808352835180602085015260005b8181101562000399578581018301518582016040015282016200037b565b506000604082860101526040601f19601f8301168501019250505092915050565b80516020808301519190811015620002425760001960209190910360031b1b16919050565b60805160a05160c05160e051610100516101205161014051610fbf6200043a600039600061076f01526000610742015260006106ea015260006106c20152600061061d01526000610647015260006106710152610fbf6000f3fe608060405234801561001057600080fd5b50600436106100f55760003560e01c806370a0823111610097578063a0712d6811610066578063a0712d68146101eb578063a9059cbb146101fe578063d505accf14610211578063dd62ed3e1461022457600080fd5b806370a082311461018c5780637ecebe00146101b557806384b0196e146101c857806395d89b41146101e357600080fd5b806323b872dd116100d357806323b872dd1461014d578063313ce567146101605780633644e5151461016f57806339d8acb91461017757600080fd5b806306fdde03146100fa578063095ea7b31461011857806318160ddd1461013b575b600080fd5b61010261025d565b60405161010f9190610d09565b60405180910390f35b61012b610126366004610d3f565b6102ef565b604051901515815260200161010f565b6002545b60405190815260200161010f565b61012b61015b366004610d69565b610309565b6040516012815260200161010f565b61013f61032d565b61018a610185366004610da5565b61033c565b005b61013f61019a366004610e18565b6001600160a01b031660009081526020819052604090205490565b61013f6101c3366004610e18565b610354565b6101d0610372565b60405161010f9796959493929190610e33565b6101026103b8565b61018a6101f9366004610ecc565b6103c7565b61012b61020c366004610d3f565b6103d4565b61018a61021f366004610da5565b6103e2565b61013f610232366004610ee5565b6001600160a01b03918216600090815260016020908152604080832093909416825291909152205490565b60606003805461026c90610f18565b80601f016020809104026020016040519081016040528092919081815260200182805461029890610f18565b80156102e55780601f106102ba576101008083540402835291602001916102e5565b820191906000526020600020905b8154815290600101906020018083116102c857829003601f168201915b5050505050905090565b6000336102fd818585610521565b60019150505b92915050565b600033610317858285610533565b6103228585856105b1565b506001949350505050565b6000610337610610565b905090565b61034b878787878787876103e2565b50505050505050565b6001600160a01b038116600090815260076020526040812054610303565b60006060806000806000606061038661073b565b61038e610768565b60408051600080825260208201909252600f60f81b9b939a50919850469750309650945092509050565b60606004805461026c90610f18565b6103d13382610795565b50565b6000336102fd8185856105b1565b8342111561040b5760405163313c898160e11b8152600481018590526024015b60405180910390fd5b60007f6e71edae12b1b97f4d1f60370fef10105fa2faae0126114a169c64845d6126c98888886104588c6001600160a01b0316600090815260076020526040902080546001810190915590565b6040805160208101969096526001600160a01b0394851690860152929091166060840152608083015260a082015260c0810186905260e00160405160208183030381529060405280519060200120905060006104b3826107cf565b905060006104c3828787876107fc565b9050896001600160a01b0316816001600160a01b03161461050a576040516325c0072360e11b81526001600160a01b0380831660048301528b166024820152604401610402565b6105158a8a8a610521565b50505050505050505050565b61052e838383600161082a565b505050565b6001600160a01b0383811660009081526001602090815260408083209386168352929052205460001981146105ab578181101561059c57604051637dc7a0d960e11b81526001600160a01b03841660048201526024810182905260448101839052606401610402565b6105ab8484848403600061082a565b50505050565b6001600160a01b0383166105db57604051634b637e8f60e11b815260006004820152602401610402565b6001600160a01b0382166106055760405163ec442f0560e01b815260006004820152602401610402565b61052e8383836108ff565b6000306001600160a01b037f00000000000000000000000000000000000000000000000000000000000000001614801561066957507f000000000000000000000000000000000000000000000000000000000000000046145b1561069357507f000000000000000000000000000000000000000000000000000000000000000090565b610337604080517f8b73c3c69bb8fe3d512ecc4cf759cc79239f7b179b0ffacaa9a75d522b39400f60208201527f0000000000000000000000000000000000000000000000000000000000000000918101919091527f000000000000000000000000000000000000000000000000000000000000000060608201524660808201523060a082015260009060c00160405160208183030381529060405280519060200120905090565b60606103377f00000000000000000000000000000000000000000000000000000000000000006005610a29565b60606103377f00000000000000000000000000000000000000000000000000000000000000006006610a29565b6001600160a01b0382166107bf5760405163ec442f0560e01b815260006004820152602401610402565b6107cb600083836108ff565b5050565b60006103036107dc610610565b8360405161190160f01b8152600281019290925260228201526042902090565b60008060008061080e88888888610ad4565b92509250925061081e8282610ba3565b50909695505050505050565b6001600160a01b0384166108545760405163e602df0560e01b815260006004820152602401610402565b6001600160a01b03831661087e57604051634a1406b160e11b815260006004820152602401610402565b6001600160a01b03808516600090815260016020908152604080832093871683529290522082905580156105ab57826001600160a01b0316846001600160a01b03167f8c5be1e5ebec7d5bd14f71427d1e84f3dd0314c0f7b2291e5b200ac8c7c3b925846040516108f191815260200190565b60405180910390a350505050565b6001600160a01b03831661092a57806002600082825461091f9190610f52565b9091555061099c9050565b6001600160a01b0383166000908152602081905260409020548181101561097d5760405163391434e360e21b81526001600160a01b03851660048201526024810182905260448101839052606401610402565b6001600160a01b03841660009081526020819052604090209082900390555b6001600160a01b0382166109b8576002805482900390556109d7565b6001600160a01b03821660009081526020819052604090208054820190555b816001600160a01b0316836001600160a01b03167fddf252ad1be2c89b69c2b068fc378daa952ba7f163c4a11628f55a4df523b3ef83604051610a1c91815260200190565b60405180910390a3505050565b606060ff8314610a4357610a3c83610c5c565b9050610303565b818054610a4f90610f18565b80601f0160208091040260200160405190810160405280929190818152602001828054610a7b90610f18565b8015610ac85780601f10610a9d57610100808354040283529160200191610ac8565b820191906000526020600020905b815481529060010190602001808311610aab57829003601f168201915b50505050509050610303565b600080807f7fffffffffffffffffffffffffffffff5d576e7357a4501ddfe92f46681b20a0841115610b0f5750600091506003905082610b99565b604080516000808252602082018084528a905260ff891692820192909252606081018790526080810186905260019060a0016020604051602081039080840390855afa158015610b63573d6000803e3d6000fd5b5050604051601f1901519150506001600160a01b038116610b8f57506000925060019150829050610b99565b9250600091508190505b9450945094915050565b6000826003811115610bb757610bb7610f73565b03610bc0575050565b6001826003811115610bd457610bd4610f73565b03610bf25760405163f645eedf60e01b815260040160405180910390fd5b6002826003811115610c0657610c06610f73565b03610c275760405163fce698f760e01b815260048101829052602401610402565b6003826003811115610c3b57610c3b610f73565b036107cb576040516335e2f38360e21b815260048101829052602401610402565b60606000610c6983610c9b565b604080516020808252818301909252919250600091906020820181803683375050509182525060208101929092525090565b600060ff8216601f81111561030357604051632cd44ac360e21b815260040160405180910390fd5b6000815180845260005b81811015610ce957602081850181015186830182015201610ccd565b506000602082860101526020601f19601f83011685010191505092915050565b602081526000610d1c6020830184610cc3565b9392505050565b80356001600160a01b0381168114610d3a57600080fd5b919050565b60008060408385031215610d5257600080fd5b610d5b83610d23565b946020939093013593505050565b600080600060608486031215610d7e57600080fd5b610d8784610d23565b9250610d9560208501610d23565b9150604084013590509250925092565b600080600080600080600060e0888a031215610dc057600080fd5b610dc988610d23565b9650610dd760208901610d23565b95506040880135945060608801359350608088013560ff81168114610dfb57600080fd5b9699959850939692959460a0840135945060c09093013592915050565b600060208284031215610e2a57600080fd5b610d1c82610d23565b60ff60f81b881681526000602060e06020840152610e5460e084018a610cc3565b8381036040850152610e66818a610cc3565b606085018990526001600160a01b038816608086015260a0850187905284810360c08601528551808252602080880193509091019060005b81811015610eba57835183529284019291840191600101610e9e565b50909c9b505050505050505050505050565b600060208284031215610ede57600080fd5b5035919050565b60008060408385031215610ef857600080fd5b610f0183610d23565b9150610f0f60208401610d23565b90509250929050565b600181811c90821680610f2c57607f821691505b602082108103610f4c57634e487b7160e01b600052602260045260246000fd5b50919050565b8082018082111561030357634e487b7160e01b600052601160045260246000fd5b634e487b7160e01b600052602160045260246000fdfea2646970667358221220b478610e3a1bd9422c8bb79c3fa4c1b69792aea37072c0396945b6080cea892864736f6c63430008170033",
  "linkReferences": {},
  "deployedLinkReferences": {}
}