{
  "_format": "hh-sol-artifact-1",
  "contractName": "InternalCallee",
  "sourceName": "contracts/discrepancies/nonce/InternalCallee.sol",
  "abi": [
    {
      "inputs": [],
      "name": "externalFunction",
      "outputs": [
        {
          "internalType": "uint256",
          "name": "",
          "type": "uint256"
        }
      ],
      "stateMutability": "nonpayable",
      "type": "function"
    },
    {
      "inputs": [],
      "name": "factorySample",
      "outputs": [
        {
          "internalType": "address",
          "name": "",
          "type": "address"
        }
      ],
      "stateMutability": "nonpayable",
      "type": "function"
    },
    {
      "inputs": [],
      "name": "revertWithRevertReason",
      "outputs": [
        {
          "internalType": "bool",
          "name": "",
          "type": "bool"
        }
      ],
      "stateMutability": "nonpayable",
      "type": "function"
    },
    {
      "inputs": [],
      "name": "revertWithoutRevertReason",
      "outputs": [
        {
          "internalType": "bool",
          "name": "",
          "type": "bool"
        }
      ],
      "stateMutability": "nonpayable",
      "type": "function"
    },
    {
      "inputs": [
        {
          "internalType": "address payable",
          "name": "_addr",
          "type": "address"
        }
      ],
      "name": "selfdestruct",
      "outputs": [],
      "stateMutability": "nonpayable",
      "type": "function"
    }
  ],
  "bytecode": "0x60806040526000805534801561001457600080fd5b50610255806100246000396000f3fe608060405234801561001057600080fd5b50600436106100575760003560e01c806311f95f6f1461005c5780633a32b54914610079578063b3943ef81461008f578063cfc72007146100af578063ff489d31146100c4575b600080fd5b6100646100cc565b60405190151581526020015b60405180910390f35b61008161010a565b604051908152602001610070565b610097610124565b6040516001600160a01b039091168152602001610070565b6100c26100bd36600461016c565b610154565b005b610064600080fd5b60405162461bcd60e51b815260206004820152600c60248201526b2932bb32b93a2932b0b9b7b760a11b604482015260009060640160405180910390fd5b6000806000815461011a9061019c565b9182905550919050565b600060405161013290610160565b604051809103906000f08015801561014e573d6000803e3d6000fd5b50905090565b806001600160a01b0316ff5b605c806101c483390190565b60006020828403121561017e57600080fd5b81356001600160a01b038116811461019557600080fd5b9392505050565b6000600182016101bc57634e487b7160e01b600052601160045260246000fd5b506001019056fe6080604052348015600f57600080fd5b50603f80601d6000396000f3fe6080604052600080fdfea2646970667358221220f6481075743730bdd3ce0fb7af3dd2b6506d5d84da4b52715906bac6a1105c9c64736f6c63430008140033a2646970667358221220fb4786cf966a2373184c8f6b1a628112b295bc3f9c837d44585ae5a78c4f7d2b64736f6c63430008140033",
  "linkReferences": {},
  "deployedLinkReferences": {}
}