{
  "_format": "hh-sol-artifact-1",
  "contractName": "InternalCallee",
  "sourceName": "contracts/discrepancies/nonce/InternalCallee.sol",
  "abi": [
    {
      "anonymous": false,
      "inputs": [
        {
          "indexed": false,
          "internalType": "address",
          "name": "",
          "type": "address"
        }
      ],
      "name": "DeployedContractAddress",
      "type": "event"
    },
    {
      "inputs": [
        {
          "internalType": "uint256",
          "name": "_salt",
          "type": "uint256"
        }
      ],
      "name": "deployViaCreate2",
      "outputs": [
        {
          "internalType": "address",
          "name": "",
          "type": "address"
        }
      ],
      "stateMutability": "nonpayable",
      "type": "function"
    },
    {
      "inputs": [],
      "name": "externalFunction",
      "outputs": [
        {
          "internalType": "uint256",
          "name": "",
          "type": "uint256"
        }
      ],
      "stateMutability": "nonpayable",
      "type": "function"
    },
    {
      "inputs": [],
      "name": "factorySample",
      "outputs": [
        {
          "internalType": "address",
          "name": "",
          "type": "address"
        }
      ],
      "stateMutability": "nonpayable",
      "type": "function"
    },
    {
      "inputs": [],
      "name": "revertWithRevertReason",
      "outputs": [
        {
          "internalType": "bool",
          "name": "",
          "type": "bool"
        }
      ],
      "stateMutability": "nonpayable",
      "type": "function"
    },
    {
      "inputs": [],
      "name": "revertWithoutRevertReason",
      "outputs": [
        {
          "internalType": "bool",
          "name": "",
          "type": "bool"
        }
      ],
      "stateMutability": "nonpayable",
      "type": "function"
    },
    {
      "inputs": [
        {
          "internalType": "address payable",
          "name": "_addr",
          "type": "address"
        }
      ],
      "name": "selfdestruct",
      "outputs": [],
      "stateMutability": "nonpayable",
      "type": "function"
    },
    {
      "inputs": [
        {
          "internalType": "address payable",
          "name": "sampleAddress",
          "type": "address"
        }
      ],
      "name": "selfdestructSample",
      "outputs": [],
      "stateMutability": "nonpayable",
      "type": "function"
    }
  ],
  "bytecode": "0x60806040526000805534801561001457600080fd5b506103b4806100246000396000f3fe608060405234801561001057600080fd5b506004361061007d5760003560e01c8063b1dd8b811161005b578063b1dd8b81146100e0578063b3943ef8146100f5578063cfc72007146100fd578063ff489d311461011057600080fd5b806311f95f6f146100825780633a32b5491461009f5780638b2db1a8146100b5575b600080fd5b61008a610118565b60405190151581526020015b60405180910390f35b6100a7610156565b604051908152602001610096565b6100c86100c3366004610287565b610170565b6040516001600160a01b039091168152602001610096565b6100f36100ee3660046102a0565b6101e9565b005b6100c861023f565b6100f361010b3660046102a0565b61026f565b61008a600080fd5b60405162461bcd60e51b815260206004820152600c60248201526b2932bb32b93a2932b0b9b7b760a11b604482015260009060640160405180910390fd5b60008060008154610166906102d0565b9182905550919050565b6000808260001b6040516101839061027b565b8190604051809103906000f59050801580156101a3573d6000803e3d6000fd5b506040516001600160a01b03821681529091507fc224c21b52d62db941f9d178d13671404cf736b0d9183e6f2e2aaaaf75849d7b9060200160405180910390a192915050565b806001600160a01b031663679d38e06040518163ffffffff1660e01b8152600401600060405180830381600087803b15801561022457600080fd5b505af1158015610238573d6000803e3d6000fd5b5050505050565b600060405161024d9061027b565b604051809103906000f080158015610269573d6000803e3d6000fd5b50905090565b806001600160a01b0316ff5b6087806102f883390190565b60006020828403121561029957600080fd5b5035919050565b6000602082840312156102b257600080fd5b81356001600160a01b03811681146102c957600080fd5b9392505050565b6000600182016102f057634e487b7160e01b600052601160045260246000fd5b506001019056fe6080604052348015600f57600080fd5b50606a80601d6000396000f3fe6080604052348015600f57600080fd5b506004361060285760003560e01c8063679d38e014602d575b600080fd5b603233ff5b00fea26469706673582212202d9c344804fc42fd5ac85fda39baf93c403cfc01b71b8aedc46a82d6f735f07b64736f6c63430008140033a26469706673582212204b22adf77c8dd46d093f9ab8326be65ecc943a831917b7d4623eb5385feee33b64736f6c63430008140033",
  "linkReferences": {},
  "deployedLinkReferences": {}
}