{
  "_format": "hh-sol-artifact-1",
  "contractName": "InternalCallee",
  "sourceName": "contracts/discrepancies/nonce/InternalCallee.sol",
  "abi": [
    {
      "anonymous": false,
      "inputs": [
        {
          "indexed": false,
          "internalType": "address",
          "name": "",
          "type": "address"
        }
      ],
      "name": "DeployedContractAddress",
      "type": "event"
    },
    {
      "inputs": [
        {
          "internalType": "uint256",
          "name": "_salt",
          "type": "uint256"
        }
      ],
      "name": "deployViaCreate2",
      "outputs": [
        {
          "internalType": "address",
          "name": "",
          "type": "address"
        }
      ],
      "stateMutability": "nonpayable",
      "type": "function"
    },
    {
      "inputs": [],
      "name": "externalFunction",
      "outputs": [
        {
          "internalType": "uint256",
          "name": "",
          "type": "uint256"
        }
      ],
      "stateMutability": "nonpayable",
      "type": "function"
    },
    {
      "inputs": [],
      "name": "factorySample",
      "outputs": [
        {
          "internalType": "address",
          "name": "",
          "type": "address"
        }
      ],
      "stateMutability": "nonpayable",
      "type": "function"
    },
    {
      "inputs": [
        {
          "internalType": "address payable",
          "name": "_addr",
          "type": "address"
        }
      ],
      "name": "internalTransfer",
      "outputs": [],
      "stateMutability": "nonpayable",
      "type": "function"
    },
    {
      "inputs": [],
      "name": "revertWithRevertReason",
      "outputs": [
        {
          "internalType": "bool",
          "name": "",
          "type": "bool"
        }
      ],
      "stateMutability": "nonpayable",
      "type": "function"
    },
    {
      "inputs": [],
      "name": "revertWithoutRevertReason",
      "outputs": [
        {
          "internalType": "bool",
          "name": "",
          "type": "bool"
        }
      ],
      "stateMutability": "nonpayable",
      "type": "function"
    },
    {
      "inputs": [
        {
          "internalType": "address payable",
          "name": "_addr",
          "type": "address"
        }
      ],
      "name": "selfdestruct",
      "outputs": [],
      "stateMutability": "nonpayable",
      "type": "function"
    },
    {
      "inputs": [
        {
          "internalType": "address payable",
          "name": "sampleAddress",
          "type": "address"
        }
      ],
      "name": "selfdestructSample",
      "outputs": [],
      "stateMutability": "nonpayable",
      "type": "function"
    }
  ],
  "bytecode": "0x60806040526000805534801561001457600080fd5b5061049b806100246000396000f3fe608060405234801561001057600080fd5b50600436106100885760003560e01c8063b1dd8b811161005b578063b1dd8b8114610100578063b3943ef814610113578063cfc720071461011b578063ff489d311461012e57600080fd5b806311f95f6f1461008d5780633a32b549146100aa5780638b2db1a8146100c057806394debf89146100eb575b600080fd5b610095610136565b60405190151581526020015b60405180910390f35b6100b2610174565b6040519081526020016100a1565b6100d36100ce36600461033f565b61018e565b6040516001600160a01b0390911681526020016100a1565b6100fe6100f9366004610358565b610207565b005b6100fe61010e366004610358565b6102a1565b6100d36102f7565b6100fe610129366004610358565b610327565b610095600080fd5b60405162461bcd60e51b815260206004820152600c60248201526b2932bb32b93a2932b0b9b7b760a11b604482015260009060640160405180910390fd5b6000806000815461018490610388565b9182905550919050565b6000808260001b6040516101a190610333565b8190604051809103906000f59050801580156101c1573d6000803e3d6000fd5b506040516001600160a01b03821681529091507fc224c21b52d62db941f9d178d13671404cf736b0d9183e6f2e2aaaaf75849d7b9060200160405180910390a192915050565b60408051600481526024810182526020810180517bffffffffffffffffffffffffffffffffffffffffffffffffffffffff1662d5ae9360e51b17905290516001600160a01b03831691610259916103af565b6000604051808303816000865af19150503d8060008114610296576040519150601f19603f3d011682016040523d82523d6000602084013e61029b565b606091505b50505050565b806001600160a01b031663679d38e06040518163ffffffff1660e01b8152600401600060405180830381600087803b1580156102dc57600080fd5b505af11580156102f0573d6000803e3d6000fd5b5050505050565b600060405161030590610333565b604051809103906000f080158015610321573d6000803e3d6000fd5b50905090565b806001600160a01b0316ff5b6087806103df83390190565b60006020828403121561035157600080fd5b5035919050565b60006020828403121561036a57600080fd5b81356001600160a01b038116811461038157600080fd5b9392505050565b6000600182016103a857634e487b7160e01b600052601160045260246000fd5b5060010190565b6000825160005b818110156103d057602081860181015185830152016103b6565b50600092019182525091905056fe6080604052348015600f57600080fd5b50606a80601d6000396000f3fe6080604052348015600f57600080fd5b506004361060285760003560e01c8063679d38e014602d575b600080fd5b603233ff5b00fea264697066735822122074e1852bac88571cffb04dab271be42f519e74147ffad45e1782e0d77cbef5fa64736f6c63430008140033a2646970667358221220b1c68401b1145b727c6c7bbdb2976a30edb741ed3f2be5cc9293edeeb5dce83e64736f6c63430008140033",
  "linkReferences": {},
  "deployedLinkReferences": {}
}