{
  "_format": "hh-sol-artifact-1",
  "contractName": "Sample",
  "sourceName": "contracts/discrepancies/nonce/InternalCallee.sol",
  "abi": [
    {
      "inputs": [],
      "name": "selfdestruct",
      "outputs": [],
      "stateMutability": "nonpayable",
      "type": "function"
    }
  ],
  "bytecode": "0x6080604052348015600f57600080fd5b50606a80601d6000396000f3fe6080604052348015600f57600080fd5b506004361060285760003560e01c8063679d38e014602d575b600080fd5b603233ff5b00fea26469706673582212202d9c344804fc42fd5ac85fda39baf93c403cfc01b71b8aedc46a82d6f735f07b64736f6c63430008140033",
  "linkReferences": {},
  "deployedLinkReferences": {}
}