{
  "_format": "hh-sol-artifact-1",
  "contractName": "Receiver",
  "sourceName": "contracts/solidity/encoding/Receiver.sol",
  "abi": [
    {
      "anonymous": false,
      "inputs": [
        {
          "indexed": false,
          "internalType": "uint256",
          "name": "data",
          "type": "uint256"
        }
      ],
      "name": "ReceivedData",
      "type": "event"
    },
    {
      "inputs": [
        {
          "internalType": "uint256",
          "name": "data",
          "type": "uint256"
        }
      ],
      "name": "receiveData",
      "outputs": [],
      "stateMutability": "nonpayable",
      "type": "function"
    }
  ],
  "bytecode": "0x608060405234801561001057600080fd5b5060c28061001f6000396000f3fe6080604052348015600f57600080fd5b506004361060285760003560e01c8063de947c8514602d575b600080fd5b603c60383660046074565b603e565b005b6040518181527fe2bb324fa67410a9554929c8822a194d56941327668b8c7ceb61e7b3b2e016f49060200160405180910390a150565b600060208284031215608557600080fd5b503591905056fea2646970667358221220325e84d0b42d1c16a9c3866172fb2d2b856bacf2b35303b4fe17a2db8e35d53c64736f6c63430008140033",
  "linkReferences": {},
  "deployedLinkReferences": {}
}