{
  "_format": "hh-sol-artifact-1",
  "contractName": "CounterV2",
  "sourceName": "contracts/proxy-upgrade/counter/CounterV2.sol",
  "abi": [
    {
      "anonymous": false,
      "inputs": [
        {
          "indexed": false,
          "internalType": "address",
          "name": "previousAdmin",
          "type": "address"
        },
        {
          "indexed": false,
          "internalType": "address",
          "name": "newAdmin",
          "type": "address"
        }
      ],
      "name": "AdminChanged",
      "type": "event"
    },
    {
      "anonymous": false,
      "inputs": [
        {
          "indexed": true,
          "internalType": "address",
          "name": "beacon",
          "type": "address"
        }
      ],
      "name": "BeaconUpgraded",
      "type": "event"
    },
    {
      "anonymous": false,
      "inputs": [
        {
          "indexed": false,
          "internalType": "uint8",
          "name": "version",
          "type": "uint8"
        }
      ],
      "name": "Initialized",
      "type": "event"
    },
    {
      "anonymous": false,
      "inputs": [
        {
          "indexed": true,
          "internalType": "address",
          "name": "previousOwner",
          "type": "address"
        },
        {
          "indexed": true,
          "internalType": "address",
          "name": "newOwner",
          "type": "address"
        }
      ],
      "name": "OwnershipTransferred",
      "type": "event"
    },
    {
      "anonymous": false,
      "inputs": [
        {
          "indexed": true,
          "internalType": "address",
          "name": "implementation",
          "type": "address"
        }
      ],
      "name": "Upgraded",
      "type": "event"
    },
    {
      "inputs": [
        {
          "internalType": "string",
          "name": "_name",
          "type": "string"
        }
      ],
      "name": "changeName",
      "outputs": [],
      "stateMutability": "nonpayable",
      "type": "function"
    },
    {
      "inputs": [],
      "name": "dec",
      "outputs": [
        {
          "internalType": "uint256",
          "name": "",
          "type": "uint256"
        }
      ],
      "stateMutability": "view",
      "type": "function"
    },
    {
      "inputs": [
        {
          "internalType": "uint256",
          "name": "x",
          "type": "uint256"
        }
      ],
      "name": "decrement",
      "outputs": [
        {
          "internalType": "uint256",
          "name": "",
          "type": "uint256"
        }
      ],
      "stateMutability": "nonpayable",
      "type": "function"
    },
    {
      "inputs": [],
      "name": "inc",
      "outputs": [
        {
          "internalType": "uint256",
          "name": "",
          "type": "uint256"
        }
      ],
      "stateMutability": "view",
      "type": "function"
    },
    {
      "inputs": [
        {
          "internalType": "uint256",
          "name": "x",
          "type": "uint256"
        }
      ],
      "name": "increment",
      "outputs": [
        {
          "internalType": "uint256",
          "name": "",
          "type": "uint256"
        }
      ],
      "stateMutability": "nonpayable",
      "type": "function"
    },
    {
      "inputs": [],
      "name": "name",
      "outputs": [
        {
          "internalType": "string",
          "name": "",
          "type": "string"
        }
      ],
      "stateMutability": "view",
      "type": "function"
    },
    {
      "inputs": [],
      "name": "owner",
      "outputs": [
        {
          "internalType": "address",
          "name": "",
          "type": "address"
        }
      ],
      "stateMutability": "view",
      "type": "function"
    },
    {
      "inputs": [],
      "name": "proxiableUUID",
      "outputs": [
        {
          "internalType": "bytes32",
          "name": "",
          "type": "bytes32"
        }
      ],
      "stateMutability": "view",
      "type": "function"
    },
    {
      "inputs": [],
      "name": "renounceOwnership",
      "outputs": [],
      "stateMutability": "nonpayable",
      "type": "function"
    },
    {
      "inputs": [
        {
          "internalType": "address",
          "name": "newOwner",
          "type": "address"
        }
      ],
      "name": "transferOwnership",
      "outputs": [],
      "stateMutability": "nonpayable",
      "type": "function"
    },
    {
      "inputs": [
        {
          "internalType": "address",
          "name": "newImplementation",
          "type": "address"
        }
      ],
      "name": "upgradeTo",
      "outputs": [],
      "stateMutability": "nonpayable",
      "type": "function"
    },
    {
      "inputs": [
        {
          "internalType": "address",
          "name": "newImplementation",
          "type": "address"
        },
        {
          "internalType": "bytes",
          "name": "data",
          "type": "bytes"
        }
      ],
      "name": "upgradeToAndCall",
      "outputs": [],
      "stateMutability": "payable",
      "type": "function"
    }
  ],
  "bytecode": "0x60a06040523060805234801561001457600080fd5b50608051610fac61004c600039600081816102d10152818161035b0152818161046a015281816104ef01526105d90152610fac6000f3fe6080604052600436106100c75760003560e01c80635353a2d8116100745780638da5cb5b1161004e5780638da5cb5b146101da578063b3bcfa8214610202578063f2fde38b1461021857600080fd5b80635353a2d814610185578063715018a6146101a55780637cf5dab0146101ba57600080fd5b80633a9ebefd116100a55780633a9ebefd1461013d5780634f1ef2861461015d57806352d1902d1461017057600080fd5b806306fdde03146100cc5780633659cfe6146100f7578063371303c014610119575b600080fd5b3480156100d857600080fd5b506100e1610238565b6040516100ee9190610cd8565b60405180910390f35b34801561010357600080fd5b50610117610112366004610d27565b6102c6565b005b34801561012557600080fd5b5061012f60cb5481565b6040519081526020016100ee565b34801561014957600080fd5b5061012f610158366004610d42565b610447565b61011761016b366004610de7565b61045f565b34801561017c57600080fd5b5061012f6105cc565b34801561019157600080fd5b506101176101a0366004610e49565b610691565b3480156101b157600080fd5b506101176106a4565b3480156101c657600080fd5b5061012f6101d5366004610d42565b6106b8565b3480156101e657600080fd5b506033546040516001600160a01b0390911681526020016100ee565b34801561020e57600080fd5b5061012f60ca5481565b34801561022457600080fd5b50610117610233366004610d27565b6106c5565b60c9805461024590610e9a565b80601f016020809104026020016040519081016040528092919081815260200182805461027190610e9a565b80156102be5780601f10610293576101008083540402835291602001916102be565b820191906000526020600020905b8154815290600101906020018083116102a157829003601f168201915b505050505081565b306001600160a01b037f00000000000000000000000000000000000000000000000000000000000000001614156103595760405162461bcd60e51b815260206004820152602c60248201527f46756e6374696f6e206d7573742062652063616c6c6564207468726f7567682060448201526b19195b1959d85d1958d85b1b60a21b60648201526084015b60405180910390fd5b7f00000000000000000000000000000000000000000000000000000000000000006001600160a01b03166103b47f360894a13ba1a3210667c828492db98dca3e2076cc3735a920a3ca505d382bbc546001600160a01b031690565b6001600160a01b03161461041f5760405162461bcd60e51b815260206004820152602c60248201527f46756e6374696f6e206d7573742062652063616c6c6564207468726f7567682060448201526b6163746976652070726f787960a01b6064820152608401610350565b6104288161073b565b6040805160008082526020820190925261044491839190610743565b50565b60006104548260016108e3565b60ca81905592915050565b306001600160a01b037f00000000000000000000000000000000000000000000000000000000000000001614156104ed5760405162461bcd60e51b815260206004820152602c60248201527f46756e6374696f6e206d7573742062652063616c6c6564207468726f7567682060448201526b19195b1959d85d1958d85b1b60a21b6064820152608401610350565b7f00000000000000000000000000000000000000000000000000000000000000006001600160a01b03166105487f360894a13ba1a3210667c828492db98dca3e2076cc3735a920a3ca505d382bbc546001600160a01b031690565b6001600160a01b0316146105b35760405162461bcd60e51b815260206004820152602c60248201527f46756e6374696f6e206d7573742062652063616c6c6564207468726f7567682060448201526b6163746976652070726f787960a01b6064820152608401610350565b6105bc8261073b565b6105c882826001610743565b5050565b6000306001600160a01b037f0000000000000000000000000000000000000000000000000000000000000000161461066c5760405162461bcd60e51b815260206004820152603860248201527f555550535570677261646561626c653a206d757374206e6f742062652063616c60448201527f6c6564207468726f7567682064656c656761746563616c6c00000000000000006064820152608401610350565b507f360894a13ba1a3210667c828492db98dca3e2076cc3735a920a3ca505d382bbc90565b80516105c89060c9906020840190610c13565b6106ac6108f6565b6106b66000610950565b565b60006104548260016109af565b6106cd6108f6565b6001600160a01b0381166107325760405162461bcd60e51b815260206004820152602660248201527f4f776e61626c653a206e6577206f776e657220697320746865207a65726f206160448201526564647265737360d01b6064820152608401610350565b61044481610950565b6104446108f6565b7f4910fdfa16fed3260ed0e7147f7cc6da11a60208b5b9406d12a635614ffd91435460ff161561077b57610776836109bb565b505050565b826001600160a01b03166352d1902d6040518163ffffffff1660e01b815260040160206040518083038186803b1580156107b457600080fd5b505afa9250505080156107e4575060408051601f3d908101601f191682019092526107e191810190610ed5565b60015b6108565760405162461bcd60e51b815260206004820152602e60248201527f45524331393637557067726164653a206e657720696d706c656d656e7461746960448201527f6f6e206973206e6f7420555550530000000000000000000000000000000000006064820152608401610350565b7f360894a13ba1a3210667c828492db98dca3e2076cc3735a920a3ca505d382bbc81146108d75760405162461bcd60e51b815260206004820152602960248201527f45524331393637557067726164653a20756e737570706f727465642070726f786044820152681a58589b195555525160ba1b6064820152608401610350565b50610776838383610a76565b60006108ef8284610f04565b9392505050565b6033546001600160a01b031633146106b65760405162461bcd60e51b815260206004820181905260248201527f4f776e61626c653a2063616c6c6572206973206e6f7420746865206f776e65726044820152606401610350565b603380546001600160a01b0383811673ffffffffffffffffffffffffffffffffffffffff19831681179093556040519116919082907f8be0079c531659141344cd1fd0a4f28419497f9722a3daafe3b4186f6b6457e090600090a35050565b60006108ef8284610f1b565b6001600160a01b0381163b610a285760405162461bcd60e51b815260206004820152602d60248201527f455243313936373a206e657720696d706c656d656e746174696f6e206973206e60448201526c1bdd08184818dbdb9d1c9858dd609a1b6064820152608401610350565b7f360894a13ba1a3210667c828492db98dca3e2076cc3735a920a3ca505d382bbc805473ffffffffffffffffffffffffffffffffffffffff19166001600160a01b0392909216919091179055565b610a7f83610aa1565b600082511180610a8c5750805b1561077657610a9b8383610ae1565b50505050565b610aaa816109bb565b6040516001600160a01b038216907fbc7cd75a20ee27fd9adebab32041f755214dbc6bffa90cc0225b39da2e5c2d3b90600090a250565b60606001600160a01b0383163b610b495760405162461bcd60e51b815260206004820152602660248201527f416464726573733a2064656c65676174652063616c6c20746f206e6f6e2d636f6044820152651b9d1c9858dd60d21b6064820152608401610350565b600080846001600160a01b031684604051610b649190610f33565b600060405180830381855af49150503d8060008114610b9f576040519150601f19603f3d011682016040523d82523d6000602084013e610ba4565b606091505b5091509150610bcc8282604051806060016040528060278152602001610f5060279139610bd5565b95945050505050565b60608315610be45750816108ef565b6108ef8383815115610bf95781518083602001fd5b8060405162461bcd60e51b81526004016103509190610cd8565b828054610c1f90610e9a565b90600052602060002090601f016020900481019282610c415760008555610c87565b82601f10610c5a57805160ff1916838001178555610c87565b82800160010185558215610c87579182015b82811115610c87578251825591602001919060010190610c6c565b50610c93929150610c97565b5090565b5b80821115610c935760008155600101610c98565b60005b83811015610cc7578181015183820152602001610caf565b83811115610a9b5750506000910152565b6020815260008251806020840152610cf7816040850160208701610cac565b601f01601f19169190910160400192915050565b80356001600160a01b0381168114610d2257600080fd5b919050565b600060208284031215610d3957600080fd5b6108ef82610d0b565b600060208284031215610d5457600080fd5b5035919050565b634e487b7160e01b600052604160045260246000fd5b600067ffffffffffffffff80841115610d8c57610d8c610d5b565b604051601f8501601f19908116603f01168101908282118183101715610db457610db4610d5b565b81604052809350858152868686011115610dcd57600080fd5b858560208301376000602087830101525050509392505050565b60008060408385031215610dfa57600080fd5b610e0383610d0b565b9150602083013567ffffffffffffffff811115610e1f57600080fd5b8301601f81018513610e3057600080fd5b610e3f85823560208401610d71565b9150509250929050565b600060208284031215610e5b57600080fd5b813567ffffffffffffffff811115610e7257600080fd5b8201601f81018413610e8357600080fd5b610e9284823560208401610d71565b949350505050565b600181811c90821680610eae57607f821691505b60208210811415610ecf57634e487b7160e01b600052602260045260246000fd5b50919050565b600060208284031215610ee757600080fd5b5051919050565b634e487b7160e01b600052601160045260246000fd5b600082821015610f1657610f16610eee565b500390565b60008219821115610f2e57610f2e610eee565b500190565b60008251610f45818460208701610cac565b919091019291505056fe416464726573733a206c6f772d6c6576656c2064656c65676174652063616c6c206661696c6564a2646970667358221220af765f9a5a8a46fafc193b8e201891cb6820a3fa63d17b3a03699bfd4eb9815964736f6c63430008090033",
  "linkReferences": {},
  "deployedLinkReferences": {}
}