{
  "_format": "hh-sol-artifact-1",
  "contractName": "CounterV2",
  "sourceName": "contracts/proxy-upgrade/counter/CounterV2.sol",
  "abi": [
    {
      "inputs": [
        {
          "internalType": "address",
          "name": "target",
          "type": "address"
        }
      ],
      "name": "AddressEmptyCode",
      "type": "error"
    },
    {
      "inputs": [
        {
          "internalType": "address",
          "name": "implementation",
          "type": "address"
        }
      ],
      "name": "ERC1967InvalidImplementation",
      "type": "error"
    },
    {
      "inputs": [],
      "name": "ERC1967NonPayable",
      "type": "error"
    },
    {
      "inputs": [],
      "name": "FailedInnerCall",
      "type": "error"
    },
    {
      "inputs": [],
      "name": "InvalidInitialization",
      "type": "error"
    },
    {
      "inputs": [],
      "name": "NotInitializing",
      "type": "error"
    },
    {
      "inputs": [
        {
          "internalType": "address",
          "name": "owner",
          "type": "address"
        }
      ],
      "name": "OwnableInvalidOwner",
      "type": "error"
    },
    {
      "inputs": [
        {
          "internalType": "address",
          "name": "account",
          "type": "address"
        }
      ],
      "name": "OwnableUnauthorizedAccount",
      "type": "error"
    },
    {
      "inputs": [],
      "name": "UUPSUnauthorizedCallContext",
      "type": "error"
    },
    {
      "inputs": [
        {
          "internalType": "bytes32",
          "name": "slot",
          "type": "bytes32"
        }
      ],
      "name": "UUPSUnsupportedProxiableUUID",
      "type": "error"
    },
    {
      "anonymous": false,
      "inputs": [
        {
          "indexed": false,
          "internalType": "uint64",
          "name": "version",
          "type": "uint64"
        }
      ],
      "name": "Initialized",
      "type": "event"
    },
    {
      "anonymous": false,
      "inputs": [
        {
          "indexed": true,
          "internalType": "address",
          "name": "previousOwner",
          "type": "address"
        },
        {
          "indexed": true,
          "internalType": "address",
          "name": "newOwner",
          "type": "address"
        }
      ],
      "name": "OwnershipTransferred",
      "type": "event"
    },
    {
      "anonymous": false,
      "inputs": [
        {
          "indexed": true,
          "internalType": "address",
          "name": "implementation",
          "type": "address"
        }
      ],
      "name": "Upgraded",
      "type": "event"
    },
    {
      "inputs": [],
      "name": "UPGRADE_INTERFACE_VERSION",
      "outputs": [
        {
          "internalType": "string",
          "name": "",
          "type": "string"
        }
      ],
      "stateMutability": "view",
      "type": "function"
    },
    {
      "inputs": [
        {
          "internalType": "string",
          "name": "_name",
          "type": "string"
        }
      ],
      "name": "changeName",
      "outputs": [],
      "stateMutability": "nonpayable",
      "type": "function"
    },
    {
      "inputs": [],
      "name": "count",
      "outputs": [
        {
          "internalType": "int256",
          "name": "",
          "type": "int256"
        }
      ],
      "stateMutability": "view",
      "type": "function"
    },
    {
      "inputs": [],
      "name": "decrement",
      "outputs": [
        {
          "internalType": "int256",
          "name": "",
          "type": "int256"
        }
      ],
      "stateMutability": "nonpayable",
      "type": "function"
    },
    {
      "inputs": [],
      "name": "increment",
      "outputs": [
        {
          "internalType": "int256",
          "name": "",
          "type": "int256"
        }
      ],
      "stateMutability": "nonpayable",
      "type": "function"
    },
    {
      "inputs": [
        {
          "internalType": "string",
          "name": "_name",
          "type": "string"
        }
      ],
      "name": "initialize",
      "outputs": [],
      "stateMutability": "nonpayable",
      "type": "function"
    },
    {
      "inputs": [],
      "name": "name",
      "outputs": [
        {
          "internalType": "string",
          "name": "",
          "type": "string"
        }
      ],
      "stateMutability": "view",
      "type": "function"
    },
    {
      "inputs": [],
      "name": "owner",
      "outputs": [
        {
          "internalType": "address",
          "name": "",
          "type": "address"
        }
      ],
      "stateMutability": "view",
      "type": "function"
    },
    {
      "inputs": [],
      "name": "proxiableUUID",
      "outputs": [
        {
          "internalType": "bytes32",
          "name": "",
          "type": "bytes32"
        }
      ],
      "stateMutability": "view",
      "type": "function"
    },
    {
      "inputs": [],
      "name": "renounceOwnership",
      "outputs": [],
      "stateMutability": "nonpayable",
      "type": "function"
    },
    {
      "inputs": [
        {
          "internalType": "address",
          "name": "newOwner",
          "type": "address"
        }
      ],
      "name": "transferOwnership",
      "outputs": [],
      "stateMutability": "nonpayable",
      "type": "function"
    },
    {
      "inputs": [
        {
          "internalType": "address",
          "name": "newImplementation",
          "type": "address"
        },
        {
          "internalType": "bytes",
          "name": "data",
          "type": "bytes"
        }
      ],
      "name": "upgradeToAndCall",
      "outputs": [],
      "stateMutability": "payable",
      "type": "function"
    }
  ],
  "bytecode": "0x60a06040523060805234801561001457600080fd5b50608051610def61003e600039600081816105020152818161052b01526106950152610def6000f3fe6080604052600436106100c75760003560e01c8063715018a611610074578063d09de08a1161004e578063d09de08a14610203578063f2fde38b14610218578063f62d18881461023857600080fd5b8063715018a6146101765780638da5cb5b1461018b578063ad3cb1cc146101d257600080fd5b80634f1ef286116100a55780634f1ef2861461012c57806352d1902d146101415780635353a2d81461015657600080fd5b806306661abd146100cc57806306fdde03146100f55780632baeceb714610117575b600080fd5b3480156100d857600080fd5b506100e260015481565b6040519081526020015b60405180910390f35b34801561010157600080fd5b5061010a610258565b6040516100ec9190610a2e565b34801561012357600080fd5b506100e26102e6565b61013f61013a366004610b09565b610304565b005b34801561014d57600080fd5b506100e2610323565b34801561016257600080fd5b5061013f610171366004610b6b565b610352565b34801561018257600080fd5b5061013f61035e565b34801561019757600080fd5b507f9016d09d72d40fdae2fd8ceac6b6234c7706214fd39c1cd1e609a0528c199300546040516001600160a01b0390911681526020016100ec565b3480156101de57600080fd5b5061010a604051806040016040528060058152602001640352e302e360dc1b81525081565b34801561020f57600080fd5b506100e2610372565b34801561022457600080fd5b5061013f610233366004610bbc565b610383565b34801561024457600080fd5b5061013f610253366004610b6b565b6103c6565b6000805461026590610bd7565b80601f016020809104026020016040519081016040528092919081815260200182805461029190610bd7565b80156102de5780601f106102b3576101008083540402835291602001916102de565b820191906000526020600020905b8154815290600101906020018083116102c157829003601f168201915b505050505081565b60018054600091826102f783610c27565b9190505550600154905090565b61030c6104f7565b610315826105ae565b61031f82826105b6565b5050565b600061032d61068a565b507f360894a13ba1a3210667c828492db98dca3e2076cc3735a920a3ca505d382bbc90565b600061031f8282610c8c565b6103666106d3565b610370600061072e565b565b60018054600091826102f783610d4c565b61038b6106d3565b6001600160a01b0381166103ba57604051631e4fbdf760e01b8152600060048201526024015b60405180910390fd5b6103c38161072e565b50565b7ff0c57e16840df040f15088dc2f81fe391c3923bec73e23a9662efc9c229c6a00805468010000000000000000810460ff16159067ffffffffffffffff166000811580156104115750825b905060008267ffffffffffffffff16600114801561042e5750303b155b90508115801561043c575080155b1561045a5760405163f92ee8a960e01b815260040160405180910390fd5b845467ffffffffffffffff19166001178555831561048e57845468ff00000000000000001916680100000000000000001785555b600061049a8782610c8c565b506104a4336107ac565b83156104ef57845468ff000000000000000019168555604051600181527fc7f505b2f371ae2175ee4913f4499e1f2633a7b5936321eed1cdaeb6115181d29060200160405180910390a15b505050505050565b306001600160a01b037f000000000000000000000000000000000000000000000000000000000000000016148061059057507f00000000000000000000000000000000000000000000000000000000000000006001600160a01b03166105847f360894a13ba1a3210667c828492db98dca3e2076cc3735a920a3ca505d382bbc546001600160a01b031690565b6001600160a01b031614155b156103705760405163703e46dd60e11b815260040160405180910390fd5b6103c36106d3565b816001600160a01b03166352d1902d6040518163ffffffff1660e01b8152600401602060405180830381865afa925050508015610610575060408051601f3d908101601f1916820190925261060d91810190610d84565b60015b61063857604051634c9c8ce360e01b81526001600160a01b03831660048201526024016103b1565b7f360894a13ba1a3210667c828492db98dca3e2076cc3735a920a3ca505d382bbc811461067b57604051632a87526960e21b8152600481018290526024016103b1565b61068583836107bd565b505050565b306001600160a01b037f000000000000000000000000000000000000000000000000000000000000000016146103705760405163703e46dd60e11b815260040160405180910390fd5b336107057f9016d09d72d40fdae2fd8ceac6b6234c7706214fd39c1cd1e609a0528c199300546001600160a01b031690565b6001600160a01b0316146103705760405163118cdaa760e01b81523360048201526024016103b1565b7f9016d09d72d40fdae2fd8ceac6b6234c7706214fd39c1cd1e609a0528c199300805473ffffffffffffffffffffffffffffffffffffffff1981166001600160a01b03848116918217845560405192169182907f8be0079c531659141344cd1fd0a4f28419497f9722a3daafe3b4186f6b6457e090600090a3505050565b6107b4610813565b6103c381610861565b6107c682610869565b6040516001600160a01b038316907fbc7cd75a20ee27fd9adebab32041f755214dbc6bffa90cc0225b39da2e5c2d3b90600090a280511561080b5761068582826108ed565b61031f610963565b7ff0c57e16840df040f15088dc2f81fe391c3923bec73e23a9662efc9c229c6a005468010000000000000000900460ff1661037057604051631afcd79f60e31b815260040160405180910390fd5b61038b610813565b806001600160a01b03163b60000361089f57604051634c9c8ce360e01b81526001600160a01b03821660048201526024016103b1565b7f360894a13ba1a3210667c828492db98dca3e2076cc3735a920a3ca505d382bbc805473ffffffffffffffffffffffffffffffffffffffff19166001600160a01b0392909216919091179055565b6060600080846001600160a01b03168460405161090a9190610d9d565b600060405180830381855af49150503d8060008114610945576040519150601f19603f3d011682016040523d82523d6000602084013e61094a565b606091505b509150915061095a858383610982565b95945050505050565b34156103705760405163b398979f60e01b815260040160405180910390fd5b60608261099757610992826109e1565b6109da565b81511580156109ae57506001600160a01b0384163b155b156109d757604051639996b31560e01b81526001600160a01b03851660048201526024016103b1565b50805b9392505050565b8051156109f15780518082602001fd5b604051630a12f52160e11b815260040160405180910390fd5b60005b83811015610a25578181015183820152602001610a0d565b50506000910152565b6020815260008251806020840152610a4d816040850160208701610a0a565b601f01601f19169190910160400192915050565b80356001600160a01b0381168114610a7857600080fd5b919050565b634e487b7160e01b600052604160045260246000fd5b600067ffffffffffffffff80841115610aae57610aae610a7d565b604051601f8501601f19908116603f01168101908282118183101715610ad657610ad6610a7d565b81604052809350858152868686011115610aef57600080fd5b858560208301376000602087830101525050509392505050565b60008060408385031215610b1c57600080fd5b610b2583610a61565b9150602083013567ffffffffffffffff811115610b4157600080fd5b8301601f81018513610b5257600080fd5b610b6185823560208401610a93565b9150509250929050565b600060208284031215610b7d57600080fd5b813567ffffffffffffffff811115610b9457600080fd5b8201601f81018413610ba557600080fd5b610bb484823560208401610a93565b949350505050565b600060208284031215610bce57600080fd5b6109da82610a61565b600181811c90821680610beb57607f821691505b602082108103610c0b57634e487b7160e01b600052602260045260246000fd5b50919050565b634e487b7160e01b600052601160045260246000fd5b6000600160ff1b8201610c3c57610c3c610c11565b506000190190565b601f821115610685576000816000526020600020601f850160051c81016020861015610c6d5750805b601f850160051c820191505b818110156104ef57828155600101610c79565b815167ffffffffffffffff811115610ca657610ca6610a7d565b610cba81610cb48454610bd7565b84610c44565b602080601f831160018114610cef5760008415610cd75750858301515b600019600386901b1c1916600185901b1785556104ef565b600085815260208120601f198616915b82811015610d1e57888601518255948401946001909101908401610cff565b5085821015610d3c5787850151600019600388901b60f8161c191681555b5050505050600190811b01905550565b60007f7fffffffffffffffffffffffffffffffffffffffffffffffffffffffffffffff8203610d7d57610d7d610c11565b5060010190565b600060208284031215610d9657600080fd5b5051919050565b60008251610daf818460208701610a0a565b919091019291505056fea2646970667358221220974d7fb9a91d4a6be3423f6c6fb02056231200231fd9c178bae3fc0b69b493c764736f6c63430008170033",
  "linkReferences": {},
  "deployedLinkReferences": {}
}