{
  "_format": "hh-sol-artifact-1",
  "contractName": "CounterV2",
  "sourceName": "contracts/proxy-upgrade/counter/CounterV2.sol",
  "abi": [
    {
      "anonymous": false,
      "inputs": [
        {
          "indexed": false,
          "internalType": "address",
          "name": "previousAdmin",
          "type": "address"
        },
        {
          "indexed": false,
          "internalType": "address",
          "name": "newAdmin",
          "type": "address"
        }
      ],
      "name": "AdminChanged",
      "type": "event"
    },
    {
      "anonymous": false,
      "inputs": [
        {
          "indexed": true,
          "internalType": "address",
          "name": "beacon",
          "type": "address"
        }
      ],
      "name": "BeaconUpgraded",
      "type": "event"
    },
    {
      "anonymous": false,
      "inputs": [
        {
          "indexed": false,
          "internalType": "uint8",
          "name": "version",
          "type": "uint8"
        }
      ],
      "name": "Initialized",
      "type": "event"
    },
    {
      "anonymous": false,
      "inputs": [
        {
          "indexed": true,
          "internalType": "address",
          "name": "previousOwner",
          "type": "address"
        },
        {
          "indexed": true,
          "internalType": "address",
          "name": "newOwner",
          "type": "address"
        }
      ],
      "name": "OwnershipTransferred",
      "type": "event"
    },
    {
      "anonymous": false,
      "inputs": [
        {
          "indexed": true,
          "internalType": "address",
          "name": "implementation",
          "type": "address"
        }
      ],
      "name": "Upgraded",
      "type": "event"
    },
    {
      "inputs": [
        {
          "internalType": "string",
          "name": "_name",
          "type": "string"
        }
      ],
      "name": "changeName",
      "outputs": [],
      "stateMutability": "nonpayable",
      "type": "function"
    },
    {
      "inputs": [],
      "name": "count",
      "outputs": [
        {
          "internalType": "int256",
          "name": "",
          "type": "int256"
        }
      ],
      "stateMutability": "view",
      "type": "function"
    },
    {
      "inputs": [],
      "name": "decrement",
      "outputs": [
        {
          "internalType": "int256",
          "name": "",
          "type": "int256"
        }
      ],
      "stateMutability": "nonpayable",
      "type": "function"
    },
    {
      "inputs": [],
      "name": "increment",
      "outputs": [
        {
          "internalType": "int256",
          "name": "",
          "type": "int256"
        }
      ],
      "stateMutability": "nonpayable",
      "type": "function"
    },
    {
      "inputs": [
        {
          "internalType": "string",
          "name": "_name",
          "type": "string"
        }
      ],
      "name": "initialize",
      "outputs": [],
      "stateMutability": "nonpayable",
      "type": "function"
    },
    {
      "inputs": [],
      "name": "name",
      "outputs": [
        {
          "internalType": "string",
          "name": "",
          "type": "string"
        }
      ],
      "stateMutability": "view",
      "type": "function"
    },
    {
      "inputs": [],
      "name": "owner",
      "outputs": [
        {
          "internalType": "address",
          "name": "",
          "type": "address"
        }
      ],
      "stateMutability": "view",
      "type": "function"
    },
    {
      "inputs": [],
      "name": "proxiableUUID",
      "outputs": [
        {
          "internalType": "bytes32",
          "name": "",
          "type": "bytes32"
        }
      ],
      "stateMutability": "view",
      "type": "function"
    },
    {
      "inputs": [],
      "name": "renounceOwnership",
      "outputs": [],
      "stateMutability": "nonpayable",
      "type": "function"
    },
    {
      "inputs": [
        {
          "internalType": "address",
          "name": "newOwner",
          "type": "address"
        }
      ],
      "name": "transferOwnership",
      "outputs": [],
      "stateMutability": "nonpayable",
      "type": "function"
    },
    {
      "inputs": [
        {
          "internalType": "address",
          "name": "newImplementation",
          "type": "address"
        }
      ],
      "name": "upgradeTo",
      "outputs": [],
      "stateMutability": "nonpayable",
      "type": "function"
    },
    {
      "inputs": [
        {
          "internalType": "address",
          "name": "newImplementation",
          "type": "address"
        },
        {
          "internalType": "bytes",
          "name": "data",
          "type": "bytes"
        }
      ],
      "name": "upgradeToAndCall",
      "outputs": [],
      "stateMutability": "payable",
      "type": "function"
    }
  ],
  "bytecode": "0x60a060405230608052348015610013575f80fd5b506080516111c86100485f395f81816102cb015281816103550152818161044a015281816104cf01526105b801526111c85ff3fe6080604052600436106100c3575f3560e01c80635353a2d811610071578063d09de08a1161004c578063d09de08a146101c6578063f2fde38b146101da578063f62d1888146101f9575f80fd5b80635353a2d81461016c578063715018a61461018b5780638da5cb5b1461019f575f80fd5b80633659cfe6116100a15780633659cfe6146101245780634f1ef2861461014557806352d1902d14610158575f80fd5b806306661abd146100c757806306fdde03146100ef5780632baeceb714610110575b5f80fd5b3480156100d2575f80fd5b506100dc60ca5481565b6040519081526020015b60405180910390f35b3480156100fa575f80fd5b50610103610218565b6040516100e69190610e02565b34801561011b575f80fd5b506100dc6102a4565b34801561012f575f80fd5b5061014361013e366004610e4f565b6102c1565b005b610143610153366004610eef565b610440565b348015610163575f80fd5b506100dc6105ac565b348015610177575f80fd5b50610143610186366004610f4d565b610670565b348015610196575f80fd5b5061014361067c565b3480156101aa575f80fd5b506033546040516001600160a01b0390911681526020016100e6565b3480156101d1575f80fd5b506100dc61068f565b3480156101e5575f80fd5b506101436101f4366004610e4f565b61069f565b348015610204575f80fd5b50610143610213366004610f4d565b610715565b60c9805461022590610f92565b80601f016020809104026020016040519081016040528092919081815260200182805461025190610f92565b801561029c5780601f106102735761010080835404028352916020019161029c565b820191905f5260205f20905b81548152906001019060200180831161027f57829003601f168201915b505050505081565b60ca80545f91826102b483610fde565b919050555060ca54905090565b6001600160a01b037f00000000000000000000000000000000000000000000000000000000000000001630036103535760405162461bcd60e51b815260206004820152602c60248201527f46756e6374696f6e206d7573742062652063616c6c6564207468726f7567682060448201526b19195b1959d85d1958d85b1b60a21b60648201526084015b60405180910390fd5b7f00000000000000000000000000000000000000000000000000000000000000006001600160a01b03166103ae7f360894a13ba1a3210667c828492db98dca3e2076cc3735a920a3ca505d382bbc546001600160a01b031690565b6001600160a01b0316146104195760405162461bcd60e51b815260206004820152602c60248201527f46756e6374696f6e206d7573742062652063616c6c6564207468726f7567682060448201526b6163746976652070726f787960a01b606482015260840161034a565b6104228161083c565b604080515f8082526020820190925261043d91839190610844565b50565b6001600160a01b037f00000000000000000000000000000000000000000000000000000000000000001630036104cd5760405162461bcd60e51b815260206004820152602c60248201527f46756e6374696f6e206d7573742062652063616c6c6564207468726f7567682060448201526b19195b1959d85d1958d85b1b60a21b606482015260840161034a565b7f00000000000000000000000000000000000000000000000000000000000000006001600160a01b03166105287f360894a13ba1a3210667c828492db98dca3e2076cc3735a920a3ca505d382bbc546001600160a01b031690565b6001600160a01b0316146105935760405162461bcd60e51b815260206004820152602c60248201527f46756e6374696f6e206d7573742062652063616c6c6564207468726f7567682060448201526b6163746976652070726f787960a01b606482015260840161034a565b61059c8261083c565b6105a882826001610844565b5050565b5f306001600160a01b037f0000000000000000000000000000000000000000000000000000000000000000161461064b5760405162461bcd60e51b815260206004820152603860248201527f555550535570677261646561626c653a206d757374206e6f742062652063616c60448201527f6c6564207468726f7567682064656c656761746563616c6c0000000000000000606482015260840161034a565b507f360894a13ba1a3210667c828492db98dca3e2076cc3735a920a3ca505d382bbc90565b60c96105a88282611046565b6106846109d5565b61068d5f610a2f565b565b60ca80545f91826102b483611102565b6106a76109d5565b6001600160a01b03811661070c5760405162461bcd60e51b815260206004820152602660248201527f4f776e61626c653a206e6577206f776e657220697320746865207a65726f206160448201526564647265737360d01b606482015260840161034a565b61043d81610a2f565b5f54610100900460ff161580801561073357505f54600160ff909116105b8061074c5750303b15801561074c57505f5460ff166001145b6107be5760405162461bcd60e51b815260206004820152602e60248201527f496e697469616c697a61626c653a20636f6e747261637420697320616c72656160448201527f647920696e697469616c697a6564000000000000000000000000000000000000606482015260840161034a565b5f805460ff1916600117905580156107df575f805461ff0019166101001790555b60c96107eb8382611046565b506107f4610a8d565b80156105a8575f805461ff0019169055604051600181527f7f26b83ff96e1f2b6a682f133852f6798a09c465da95921460cefb38474024989060200160405180910390a15050565b61043d6109d5565b7f4910fdfa16fed3260ed0e7147f7cc6da11a60208b5b9406d12a635614ffd91435460ff161561087c5761087783610aff565b505050565b826001600160a01b03166352d1902d6040518163ffffffff1660e01b8152600401602060405180830381865afa9250505080156108d6575060408051601f3d908101601f191682019092526108d391810190611139565b60015b6109485760405162461bcd60e51b815260206004820152602e60248201527f45524331393637557067726164653a206e657720696d706c656d656e7461746960448201527f6f6e206973206e6f742055555053000000000000000000000000000000000000606482015260840161034a565b7f360894a13ba1a3210667c828492db98dca3e2076cc3735a920a3ca505d382bbc81146109c95760405162461bcd60e51b815260206004820152602960248201527f45524331393637557067726164653a20756e737570706f727465642070726f786044820152681a58589b195555525160ba1b606482015260840161034a565b50610877838383610bba565b6033546001600160a01b0316331461068d5760405162461bcd60e51b815260206004820181905260248201527f4f776e61626c653a2063616c6c6572206973206e6f7420746865206f776e6572604482015260640161034a565b603380546001600160a01b0383811673ffffffffffffffffffffffffffffffffffffffff19831681179093556040519116919082907f8be0079c531659141344cd1fd0a4f28419497f9722a3daafe3b4186f6b6457e0905f90a35050565b5f54610100900460ff16610af75760405162461bcd60e51b815260206004820152602b60248201527f496e697469616c697a61626c653a20636f6e7472616374206973206e6f74206960448201526a6e697469616c697a696e6760a81b606482015260840161034a565b61068d610be4565b6001600160a01b0381163b610b6c5760405162461bcd60e51b815260206004820152602d60248201527f455243313936373a206e657720696d706c656d656e746174696f6e206973206e60448201526c1bdd08184818dbdb9d1c9858dd609a1b606482015260840161034a565b7f360894a13ba1a3210667c828492db98dca3e2076cc3735a920a3ca505d382bbc805473ffffffffffffffffffffffffffffffffffffffff19166001600160a01b0392909216919091179055565b610bc383610c57565b5f82511180610bcf5750805b1561087757610bde8383610c96565b50505050565b5f54610100900460ff16610c4e5760405162461bcd60e51b815260206004820152602b60248201527f496e697469616c697a61626c653a20636f6e7472616374206973206e6f74206960448201526a6e697469616c697a696e6760a81b606482015260840161034a565b61068d33610a2f565b610c6081610aff565b6040516001600160a01b038216907fbc7cd75a20ee27fd9adebab32041f755214dbc6bffa90cc0225b39da2e5c2d3b905f90a250565b6060610cbb838360405180606001604052806027815260200161116c60279139610cc2565b9392505050565b60605f80856001600160a01b031685604051610cde9190611150565b5f60405180830381855af49150503d805f8114610d16576040519150601f19603f3d011682016040523d82523d5f602084013e610d1b565b606091505b5091509150610d2c86838387610d36565b9695505050505050565b60608315610da45782515f03610d9d576001600160a01b0385163b610d9d5760405162461bcd60e51b815260206004820152601d60248201527f416464726573733a2063616c6c20746f206e6f6e2d636f6e7472616374000000604482015260640161034a565b5081610dae565b610dae8383610db6565b949350505050565b815115610dc65781518083602001fd5b8060405162461bcd60e51b815260040161034a9190610e02565b5f5b83811015610dfa578181015183820152602001610de2565b50505f910152565b602081525f8251806020840152610e20816040850160208701610de0565b601f01601f19169190910160400192915050565b80356001600160a01b0381168114610e4a575f80fd5b919050565b5f60208284031215610e5f575f80fd5b610cbb82610e34565b634e487b7160e01b5f52604160045260245ffd5b5f67ffffffffffffffff80841115610e9657610e96610e68565b604051601f8501601f19908116603f01168101908282118183101715610ebe57610ebe610e68565b81604052809350858152868686011115610ed6575f80fd5b858560208301375f602087830101525050509392505050565b5f8060408385031215610f00575f80fd5b610f0983610e34565b9150602083013567ffffffffffffffff811115610f24575f80fd5b8301601f81018513610f34575f80fd5b610f4385823560208401610e7c565b9150509250929050565b5f60208284031215610f5d575f80fd5b813567ffffffffffffffff811115610f73575f80fd5b8201601f81018413610f83575f80fd5b610dae84823560208401610e7c565b600181811c90821680610fa657607f821691505b602082108103610fc457634e487b7160e01b5f52602260045260245ffd5b50919050565b634e487b7160e01b5f52601160045260245ffd5b5f600160ff1b8201610ff257610ff2610fca565b505f190190565b601f821115610877575f81815260208120601f850160051c8101602086101561101f5750805b601f850160051c820191505b8181101561103e5782815560010161102b565b505050505050565b815167ffffffffffffffff81111561106057611060610e68565b6110748161106e8454610f92565b84610ff9565b602080601f8311600181146110a7575f84156110905750858301515b5f19600386901b1c1916600185901b17855561103e565b5f85815260208120601f198616915b828110156110d5578886015182559484019460019091019084016110b6565b50858210156110f257878501515f19600388901b60f8161c191681555b5050505050600190811b01905550565b5f7f7fffffffffffffffffffffffffffffffffffffffffffffffffffffffffffffff820361113257611132610fca565b5060010190565b5f60208284031215611149575f80fd5b5051919050565b5f8251611161818460208701610de0565b919091019291505056fe416464726573733a206c6f772d6c6576656c2064656c65676174652063616c6c206661696c6564a2646970667358221220176fa3db74e8db3c248eb34cb11452c099ecaea1fa58ec1981e4f8cb79fcb4b264736f6c63430008140033",
  "linkReferences": {},
  "deployedLinkReferences": {}
}