{
  "_format": "hh-sol-artifact-1",
  "contractName": "CounterV2",
  "sourceName": "contracts/proxy-upgrade/counter/CounterV2.sol",
  "abi": [
    {
      "anonymous": false,
      "inputs": [
        {
          "indexed": false,
          "internalType": "address",
          "name": "previousAdmin",
          "type": "address"
        },
        {
          "indexed": false,
          "internalType": "address",
          "name": "newAdmin",
          "type": "address"
        }
      ],
      "name": "AdminChanged",
      "type": "event"
    },
    {
      "anonymous": false,
      "inputs": [
        {
          "indexed": true,
          "internalType": "address",
          "name": "beacon",
          "type": "address"
        }
      ],
      "name": "BeaconUpgraded",
      "type": "event"
    },
    {
      "anonymous": false,
      "inputs": [
        {
          "indexed": false,
          "internalType": "uint8",
          "name": "version",
          "type": "uint8"
        }
      ],
      "name": "Initialized",
      "type": "event"
    },
    {
      "anonymous": false,
      "inputs": [
        {
          "indexed": true,
          "internalType": "address",
          "name": "previousOwner",
          "type": "address"
        },
        {
          "indexed": true,
          "internalType": "address",
          "name": "newOwner",
          "type": "address"
        }
      ],
      "name": "OwnershipTransferred",
      "type": "event"
    },
    {
      "anonymous": false,
      "inputs": [
        {
          "indexed": true,
          "internalType": "address",
          "name": "implementation",
          "type": "address"
        }
      ],
      "name": "Upgraded",
      "type": "event"
    },
    {
      "inputs": [
        {
          "internalType": "string",
          "name": "_name",
          "type": "string"
        }
      ],
      "name": "changeName",
      "outputs": [],
      "stateMutability": "nonpayable",
      "type": "function"
    },
    {
      "inputs": [],
      "name": "count",
      "outputs": [
        {
          "internalType": "int256",
          "name": "",
          "type": "int256"
        }
      ],
      "stateMutability": "view",
      "type": "function"
    },
    {
      "inputs": [],
      "name": "decrement",
      "outputs": [
        {
          "internalType": "int256",
          "name": "",
          "type": "int256"
        }
      ],
      "stateMutability": "nonpayable",
      "type": "function"
    },
    {
      "inputs": [],
      "name": "increment",
      "outputs": [
        {
          "internalType": "int256",
          "name": "",
          "type": "int256"
        }
      ],
      "stateMutability": "nonpayable",
      "type": "function"
    },
    {
      "inputs": [],
      "name": "name",
      "outputs": [
        {
          "internalType": "string",
          "name": "",
          "type": "string"
        }
      ],
      "stateMutability": "view",
      "type": "function"
    },
    {
      "inputs": [],
      "name": "owner",
      "outputs": [
        {
          "internalType": "address",
          "name": "",
          "type": "address"
        }
      ],
      "stateMutability": "view",
      "type": "function"
    },
    {
      "inputs": [],
      "name": "proxiableUUID",
      "outputs": [
        {
          "internalType": "bytes32",
          "name": "",
          "type": "bytes32"
        }
      ],
      "stateMutability": "view",
      "type": "function"
    },
    {
      "inputs": [],
      "name": "renounceOwnership",
      "outputs": [],
      "stateMutability": "nonpayable",
      "type": "function"
    },
    {
      "inputs": [
        {
          "internalType": "address",
          "name": "newOwner",
          "type": "address"
        }
      ],
      "name": "transferOwnership",
      "outputs": [],
      "stateMutability": "nonpayable",
      "type": "function"
    },
    {
      "inputs": [
        {
          "internalType": "address",
          "name": "newImplementation",
          "type": "address"
        }
      ],
      "name": "upgradeTo",
      "outputs": [],
      "stateMutability": "nonpayable",
      "type": "function"
    },
    {
      "inputs": [
        {
          "internalType": "address",
          "name": "newImplementation",
          "type": "address"
        },
        {
          "internalType": "bytes",
          "name": "data",
          "type": "bytes"
        }
      ],
      "name": "upgradeToAndCall",
      "outputs": [],
      "stateMutability": "payable",
      "type": "function"
    }
  ],
  "bytecode": "0x60a06040523060805234801561001457600080fd5b50608051610f6761004c600039600081816102a40152818161032e01528181610425015281816104aa01526105940152610f676000f3fe6080604052600436106100ac5760003560e01c806352d1902d116100745780638da5cb5b1161004e5780638da5cb5b14610190578063d09de08a146101b8578063f2fde38b146101cd57600080fd5b806352d1902d146101465780635353a2d81461015b578063715018a61461017b57600080fd5b806306661abd146100b157806306fdde03146100da5780632baeceb7146100fc5780633659cfe6146101115780634f1ef28614610133575b600080fd5b3480156100bd57600080fd5b506100c760ca5481565b6040519081526020015b60405180910390f35b3480156100e657600080fd5b506100ef6101ed565b6040516100d19190610c84565b34801561010857600080fd5b506100c761027b565b34801561011d57600080fd5b5061013161012c366004610cd3565b610299565b005b610131610141366004610d7a565b61041a565b34801561015257600080fd5b506100c7610587565b34801561016757600080fd5b50610131610176366004610ddc565b61064c565b34801561018757600080fd5b5061013161065f565b34801561019c57600080fd5b506033546040516001600160a01b0390911681526020016100d1565b3480156101c457600080fd5b506100c7610673565b3480156101d957600080fd5b506101316101e8366004610cd3565b610684565b60c980546101fa90610e2d565b80601f016020809104026020016040519081016040528092919081815260200182805461022690610e2d565b80156102735780601f1061024857610100808354040283529160200191610273565b820191906000526020600020905b81548152906001019060200180831161025657829003601f168201915b505050505081565b60ca80546000918261028c83610e7e565b919050555060ca54905090565b306001600160a01b037f000000000000000000000000000000000000000000000000000000000000000016141561032c5760405162461bcd60e51b815260206004820152602c60248201527f46756e6374696f6e206d7573742062652063616c6c6564207468726f7567682060448201526b19195b1959d85d1958d85b1b60a21b60648201526084015b60405180910390fd5b7f00000000000000000000000000000000000000000000000000000000000000006001600160a01b03166103877f360894a13ba1a3210667c828492db98dca3e2076cc3735a920a3ca505d382bbc546001600160a01b031690565b6001600160a01b0316146103f25760405162461bcd60e51b815260206004820152602c60248201527f46756e6374696f6e206d7573742062652063616c6c6564207468726f7567682060448201526b6163746976652070726f787960a01b6064820152608401610323565b6103fb816106fa565b6040805160008082526020820190925261041791839190610702565b50565b306001600160a01b037f00000000000000000000000000000000000000000000000000000000000000001614156104a85760405162461bcd60e51b815260206004820152602c60248201527f46756e6374696f6e206d7573742062652063616c6c6564207468726f7567682060448201526b19195b1959d85d1958d85b1b60a21b6064820152608401610323565b7f00000000000000000000000000000000000000000000000000000000000000006001600160a01b03166105037f360894a13ba1a3210667c828492db98dca3e2076cc3735a920a3ca505d382bbc546001600160a01b031690565b6001600160a01b03161461056e5760405162461bcd60e51b815260206004820152602c60248201527f46756e6374696f6e206d7573742062652063616c6c6564207468726f7567682060448201526b6163746976652070726f787960a01b6064820152608401610323565b610577826106fa565b61058382826001610702565b5050565b6000306001600160a01b037f000000000000000000000000000000000000000000000000000000000000000016146106275760405162461bcd60e51b815260206004820152603860248201527f555550535570677261646561626c653a206d757374206e6f742062652063616c60448201527f6c6564207468726f7567682064656c656761746563616c6c00000000000000006064820152608401610323565b507f360894a13ba1a3210667c828492db98dca3e2076cc3735a920a3ca505d382bbc90565b80516105839060c9906020840190610bbf565b6106676108a2565b61067160006108fc565b565b60ca80546000918261028c83610e9c565b61068c6108a2565b6001600160a01b0381166106f15760405162461bcd60e51b815260206004820152602660248201527f4f776e61626c653a206e6577206f776e657220697320746865207a65726f206160448201526564647265737360d01b6064820152608401610323565b610417816108fc565b6104176108a2565b7f4910fdfa16fed3260ed0e7147f7cc6da11a60208b5b9406d12a635614ffd91435460ff161561073a576107358361095b565b505050565b826001600160a01b03166352d1902d6040518163ffffffff1660e01b815260040160206040518083038186803b15801561077357600080fd5b505afa9250505080156107a3575060408051601f3d908101601f191682019092526107a091810190610ed5565b60015b6108155760405162461bcd60e51b815260206004820152602e60248201527f45524331393637557067726164653a206e657720696d706c656d656e7461746960448201527f6f6e206973206e6f7420555550530000000000000000000000000000000000006064820152608401610323565b7f360894a13ba1a3210667c828492db98dca3e2076cc3735a920a3ca505d382bbc81146108965760405162461bcd60e51b815260206004820152602960248201527f45524331393637557067726164653a20756e737570706f727465642070726f786044820152681a58589b195555525160ba1b6064820152608401610323565b50610735838383610a16565b6033546001600160a01b031633146106715760405162461bcd60e51b815260206004820181905260248201527f4f776e61626c653a2063616c6c6572206973206e6f7420746865206f776e65726044820152606401610323565b603380546001600160a01b0383811673ffffffffffffffffffffffffffffffffffffffff19831681179093556040519116919082907f8be0079c531659141344cd1fd0a4f28419497f9722a3daafe3b4186f6b6457e090600090a35050565b6001600160a01b0381163b6109c85760405162461bcd60e51b815260206004820152602d60248201527f455243313936373a206e657720696d706c656d656e746174696f6e206973206e60448201526c1bdd08184818dbdb9d1c9858dd609a1b6064820152608401610323565b7f360894a13ba1a3210667c828492db98dca3e2076cc3735a920a3ca505d382bbc805473ffffffffffffffffffffffffffffffffffffffff19166001600160a01b0392909216919091179055565b610a1f83610a41565b600082511180610a2c5750805b1561073557610a3b8383610a81565b50505050565b610a4a8161095b565b6040516001600160a01b038216907fbc7cd75a20ee27fd9adebab32041f755214dbc6bffa90cc0225b39da2e5c2d3b90600090a250565b60606001600160a01b0383163b610ae95760405162461bcd60e51b815260206004820152602660248201527f416464726573733a2064656c65676174652063616c6c20746f206e6f6e2d636f6044820152651b9d1c9858dd60d21b6064820152608401610323565b600080846001600160a01b031684604051610b049190610eee565b600060405180830381855af49150503d8060008114610b3f576040519150601f19603f3d011682016040523d82523d6000602084013e610b44565b606091505b5091509150610b6c8282604051806060016040528060278152602001610f0b60279139610b75565b95945050505050565b60608315610b84575081610b8e565b610b8e8383610b95565b9392505050565b815115610ba55781518083602001fd5b8060405162461bcd60e51b81526004016103239190610c84565b828054610bcb90610e2d565b90600052602060002090601f016020900481019282610bed5760008555610c33565b82601f10610c0657805160ff1916838001178555610c33565b82800160010185558215610c33579182015b82811115610c33578251825591602001919060010190610c18565b50610c3f929150610c43565b5090565b5b80821115610c3f5760008155600101610c44565b60005b83811015610c73578181015183820152602001610c5b565b83811115610a3b5750506000910152565b6020815260008251806020840152610ca3816040850160208701610c58565b601f01601f19169190910160400192915050565b80356001600160a01b0381168114610cce57600080fd5b919050565b600060208284031215610ce557600080fd5b610b8e82610cb7565b634e487b7160e01b600052604160045260246000fd5b600067ffffffffffffffff80841115610d1f57610d1f610cee565b604051601f8501601f19908116603f01168101908282118183101715610d4757610d47610cee565b81604052809350858152868686011115610d6057600080fd5b858560208301376000602087830101525050509392505050565b60008060408385031215610d8d57600080fd5b610d9683610cb7565b9150602083013567ffffffffffffffff811115610db257600080fd5b8301601f81018513610dc357600080fd5b610dd285823560208401610d04565b9150509250929050565b600060208284031215610dee57600080fd5b813567ffffffffffffffff811115610e0557600080fd5b8201601f81018413610e1657600080fd5b610e2584823560208401610d04565b949350505050565b600181811c90821680610e4157607f821691505b60208210811415610e6257634e487b7160e01b600052602260045260246000fd5b50919050565b634e487b7160e01b600052601160045260246000fd5b6000600160ff1b821415610e9457610e94610e68565b506000190190565b60007f7fffffffffffffffffffffffffffffffffffffffffffffffffffffffffffffff821415610ece57610ece610e68565b5060010190565b600060208284031215610ee757600080fd5b5051919050565b60008251610f00818460208701610c58565b919091019291505056fe416464726573733a206c6f772d6c6576656c2064656c65676174652063616c6c206661696c6564a2646970667358221220c15ee62e5259bc950ab0d199ac991dd55e7fc7993e24db9ad0854a67f68d282564736f6c63430008090033",
  "linkReferences": {},
  "deployedLinkReferences": {}
}