{
  "_format": "hh-sol-artifact-1",
  "contractName": "CounterV2",
  "sourceName": "contracts/proxy-upgrade/counter/CounterV2.sol",
  "abi": [
    {
      "anonymous": false,
      "inputs": [
        {
          "indexed": false,
          "internalType": "address",
          "name": "previousAdmin",
          "type": "address"
        },
        {
          "indexed": false,
          "internalType": "address",
          "name": "newAdmin",
          "type": "address"
        }
      ],
      "name": "AdminChanged",
      "type": "event"
    },
    {
      "anonymous": false,
      "inputs": [
        {
          "indexed": true,
          "internalType": "address",
          "name": "beacon",
          "type": "address"
        }
      ],
      "name": "BeaconUpgraded",
      "type": "event"
    },
    {
      "anonymous": false,
      "inputs": [
        {
          "indexed": false,
          "internalType": "uint8",
          "name": "version",
          "type": "uint8"
        }
      ],
      "name": "Initialized",
      "type": "event"
    },
    {
      "anonymous": false,
      "inputs": [
        {
          "indexed": true,
          "internalType": "address",
          "name": "previousOwner",
          "type": "address"
        },
        {
          "indexed": true,
          "internalType": "address",
          "name": "newOwner",
          "type": "address"
        }
      ],
      "name": "OwnershipTransferred",
      "type": "event"
    },
    {
      "anonymous": false,
      "inputs": [
        {
          "indexed": true,
          "internalType": "address",
          "name": "implementation",
          "type": "address"
        }
      ],
      "name": "Upgraded",
      "type": "event"
    },
    {
      "inputs": [
        {
          "internalType": "string",
          "name": "_name",
          "type": "string"
        }
      ],
      "name": "changeName",
      "outputs": [],
      "stateMutability": "nonpayable",
      "type": "function"
    },
    {
      "inputs": [],
      "name": "count",
      "outputs": [
        {
          "internalType": "int256",
          "name": "",
          "type": "int256"
        }
      ],
      "stateMutability": "view",
      "type": "function"
    },
    {
      "inputs": [],
      "name": "decrement",
      "outputs": [
        {
          "internalType": "int256",
          "name": "",
          "type": "int256"
        }
      ],
      "stateMutability": "nonpayable",
      "type": "function"
    },
    {
      "inputs": [],
      "name": "increment",
      "outputs": [
        {
          "internalType": "int256",
          "name": "",
          "type": "int256"
        }
      ],
      "stateMutability": "nonpayable",
      "type": "function"
    },
    {
      "inputs": [
        {
          "internalType": "string",
          "name": "_name",
          "type": "string"
        }
      ],
      "name": "initialize",
      "outputs": [],
      "stateMutability": "nonpayable",
      "type": "function"
    },
    {
      "inputs": [],
      "name": "name",
      "outputs": [
        {
          "internalType": "string",
          "name": "",
          "type": "string"
        }
      ],
      "stateMutability": "view",
      "type": "function"
    },
    {
      "inputs": [],
      "name": "owner",
      "outputs": [
        {
          "internalType": "address",
          "name": "",
          "type": "address"
        }
      ],
      "stateMutability": "view",
      "type": "function"
    },
    {
      "inputs": [],
      "name": "proxiableUUID",
      "outputs": [
        {
          "internalType": "bytes32",
          "name": "",
          "type": "bytes32"
        }
      ],
      "stateMutability": "view",
      "type": "function"
    },
    {
      "inputs": [],
      "name": "renounceOwnership",
      "outputs": [],
      "stateMutability": "nonpayable",
      "type": "function"
    },
    {
      "inputs": [
        {
          "internalType": "address",
          "name": "newOwner",
          "type": "address"
        }
      ],
      "name": "transferOwnership",
      "outputs": [],
      "stateMutability": "nonpayable",
      "type": "function"
    },
    {
      "inputs": [
        {
          "internalType": "address",
          "name": "newImplementation",
          "type": "address"
        }
      ],
      "name": "upgradeTo",
      "outputs": [],
      "stateMutability": "nonpayable",
      "type": "function"
    },
    {
      "inputs": [
        {
          "internalType": "address",
          "name": "newImplementation",
          "type": "address"
        },
        {
          "internalType": "bytes",
          "name": "data",
          "type": "bytes"
        }
      ],
      "name": "upgradeToAndCall",
      "outputs": [],
      "stateMutability": "payable",
      "type": "function"
    }
  ],
  "bytecode": "0x60a06040523060805234801561001457600080fd5b506080516111c361004c600039600081816102df0152818161036901528181610460015281816104e501526105cf01526111c36000f3fe6080604052600436106100c75760003560e01c80635353a2d811610074578063d09de08a1161004e578063d09de08a146101d3578063f2fde38b146101e8578063f62d18881461020857600080fd5b80635353a2d814610176578063715018a6146101965780638da5cb5b146101ab57600080fd5b80633659cfe6116100a55780633659cfe61461012c5780634f1ef2861461014e57806352d1902d1461016157600080fd5b806306661abd146100cc57806306fdde03146100f55780632baeceb714610117575b600080fd5b3480156100d857600080fd5b506100e260ca5481565b6040519081526020015b60405180910390f35b34801561010157600080fd5b5061010a610228565b6040516100ec9190610ee8565b34801561012357600080fd5b506100e26102b6565b34801561013857600080fd5b5061014c610147366004610f37565b6102d4565b005b61014c61015c366004610fde565b610455565b34801561016d57600080fd5b506100e26105c2565b34801561018257600080fd5b5061014c610191366004611040565b610687565b3480156101a257600080fd5b5061014c61069a565b3480156101b757600080fd5b506033546040516001600160a01b0390911681526020016100ec565b3480156101df57600080fd5b506100e26106ae565b3480156101f457600080fd5b5061014c610203366004610f37565b6106bf565b34801561021457600080fd5b5061014c610223366004611040565b610735565b60c9805461023590611089565b80601f016020809104026020016040519081016040528092919081815260200182805461026190611089565b80156102ae5780601f10610283576101008083540402835291602001916102ae565b820191906000526020600020905b81548152906001019060200180831161029157829003601f168201915b505050505081565b60ca8054600091826102c7836110da565b919050555060ca54905090565b306001600160a01b037f00000000000000000000000000000000000000000000000000000000000000001614156103675760405162461bcd60e51b815260206004820152602c60248201527f46756e6374696f6e206d7573742062652063616c6c6564207468726f7567682060448201526b19195b1959d85d1958d85b1b60a21b60648201526084015b60405180910390fd5b7f00000000000000000000000000000000000000000000000000000000000000006001600160a01b03166103c27f360894a13ba1a3210667c828492db98dca3e2076cc3735a920a3ca505d382bbc546001600160a01b031690565b6001600160a01b03161461042d5760405162461bcd60e51b815260206004820152602c60248201527f46756e6374696f6e206d7573742062652063616c6c6564207468726f7567682060448201526b6163746976652070726f787960a01b606482015260840161035e565b61043681610869565b6040805160008082526020820190925261045291839190610871565b50565b306001600160a01b037f00000000000000000000000000000000000000000000000000000000000000001614156104e35760405162461bcd60e51b815260206004820152602c60248201527f46756e6374696f6e206d7573742062652063616c6c6564207468726f7567682060448201526b19195b1959d85d1958d85b1b60a21b606482015260840161035e565b7f00000000000000000000000000000000000000000000000000000000000000006001600160a01b031661053e7f360894a13ba1a3210667c828492db98dca3e2076cc3735a920a3ca505d382bbc546001600160a01b031690565b6001600160a01b0316146105a95760405162461bcd60e51b815260206004820152602c60248201527f46756e6374696f6e206d7573742062652063616c6c6564207468726f7567682060448201526b6163746976652070726f787960a01b606482015260840161035e565b6105b282610869565b6105be82826001610871565b5050565b6000306001600160a01b037f000000000000000000000000000000000000000000000000000000000000000016146106625760405162461bcd60e51b815260206004820152603860248201527f555550535570677261646561626c653a206d757374206e6f742062652063616c60448201527f6c6564207468726f7567682064656c656761746563616c6c0000000000000000606482015260840161035e565b507f360894a13ba1a3210667c828492db98dca3e2076cc3735a920a3ca505d382bbc90565b80516105be9060c9906020840190610e23565b6106a2610a11565b6106ac6000610a6b565b565b60ca8054600091826102c7836110f8565b6106c7610a11565b6001600160a01b03811661072c5760405162461bcd60e51b815260206004820152602660248201527f4f776e61626c653a206e6577206f776e657220697320746865207a65726f206160448201526564647265737360d01b606482015260840161035e565b61045281610a6b565b600054610100900460ff16158080156107555750600054600160ff909116105b8061076f5750303b15801561076f575060005460ff166001145b6107e15760405162461bcd60e51b815260206004820152602e60248201527f496e697469616c697a61626c653a20636f6e747261637420697320616c72656160448201527f647920696e697469616c697a6564000000000000000000000000000000000000606482015260840161035e565b6000805460ff191660011790558015610804576000805461ff0019166101001790555b81516108179060c9906020850190610e23565b50610820610aca565b80156105be576000805461ff0019169055604051600181527f7f26b83ff96e1f2b6a682f133852f6798a09c465da95921460cefb38474024989060200160405180910390a15050565b610452610a11565b7f4910fdfa16fed3260ed0e7147f7cc6da11a60208b5b9406d12a635614ffd91435460ff16156108a9576108a483610b3d565b505050565b826001600160a01b03166352d1902d6040518163ffffffff1660e01b815260040160206040518083038186803b1580156108e257600080fd5b505afa925050508015610912575060408051601f3d908101601f1916820190925261090f91810190611131565b60015b6109845760405162461bcd60e51b815260206004820152602e60248201527f45524331393637557067726164653a206e657720696d706c656d656e7461746960448201527f6f6e206973206e6f742055555053000000000000000000000000000000000000606482015260840161035e565b7f360894a13ba1a3210667c828492db98dca3e2076cc3735a920a3ca505d382bbc8114610a055760405162461bcd60e51b815260206004820152602960248201527f45524331393637557067726164653a20756e737570706f727465642070726f786044820152681a58589b195555525160ba1b606482015260840161035e565b506108a4838383610bf8565b6033546001600160a01b031633146106ac5760405162461bcd60e51b815260206004820181905260248201527f4f776e61626c653a2063616c6c6572206973206e6f7420746865206f776e6572604482015260640161035e565b603380546001600160a01b0383811673ffffffffffffffffffffffffffffffffffffffff19831681179093556040519116919082907f8be0079c531659141344cd1fd0a4f28419497f9722a3daafe3b4186f6b6457e090600090a35050565b600054610100900460ff16610b355760405162461bcd60e51b815260206004820152602b60248201527f496e697469616c697a61626c653a20636f6e7472616374206973206e6f74206960448201526a6e697469616c697a696e6760a81b606482015260840161035e565b6106ac610c23565b6001600160a01b0381163b610baa5760405162461bcd60e51b815260206004820152602d60248201527f455243313936373a206e657720696d706c656d656e746174696f6e206973206e60448201526c1bdd08184818dbdb9d1c9858dd609a1b606482015260840161035e565b7f360894a13ba1a3210667c828492db98dca3e2076cc3735a920a3ca505d382bbc805473ffffffffffffffffffffffffffffffffffffffff19166001600160a01b0392909216919091179055565b610c0183610c97565b600082511180610c0e5750805b156108a457610c1d8383610cd7565b50505050565b600054610100900460ff16610c8e5760405162461bcd60e51b815260206004820152602b60248201527f496e697469616c697a61626c653a20636f6e7472616374206973206e6f74206960448201526a6e697469616c697a696e6760a81b606482015260840161035e565b6106ac33610a6b565b610ca081610b3d565b6040516001600160a01b038216907fbc7cd75a20ee27fd9adebab32041f755214dbc6bffa90cc0225b39da2e5c2d3b90600090a250565b6060610cfc838360405180606001604052806027815260200161116760279139610d03565b9392505050565b6060600080856001600160a01b031685604051610d20919061114a565b600060405180830381855af49150503d8060008114610d5b576040519150601f19603f3d011682016040523d82523d6000602084013e610d60565b606091505b5091509150610d7186838387610d7b565b9695505050505050565b60608315610de7578251610de0576001600160a01b0385163b610de05760405162461bcd60e51b815260206004820152601d60248201527f416464726573733a2063616c6c20746f206e6f6e2d636f6e7472616374000000604482015260640161035e565b5081610df1565b610df18383610df9565b949350505050565b815115610e095781518083602001fd5b8060405162461bcd60e51b815260040161035e9190610ee8565b828054610e2f90611089565b90600052602060002090601f016020900481019282610e515760008555610e97565b82601f10610e6a57805160ff1916838001178555610e97565b82800160010185558215610e97579182015b82811115610e97578251825591602001919060010190610e7c565b50610ea3929150610ea7565b5090565b5b80821115610ea35760008155600101610ea8565b60005b83811015610ed7578181015183820152602001610ebf565b83811115610c1d5750506000910152565b6020815260008251806020840152610f07816040850160208701610ebc565b601f01601f19169190910160400192915050565b80356001600160a01b0381168114610f3257600080fd5b919050565b600060208284031215610f4957600080fd5b610cfc82610f1b565b634e487b7160e01b600052604160045260246000fd5b600067ffffffffffffffff80841115610f8357610f83610f52565b604051601f8501601f19908116603f01168101908282118183101715610fab57610fab610f52565b81604052809350858152868686011115610fc457600080fd5b858560208301376000602087830101525050509392505050565b60008060408385031215610ff157600080fd5b610ffa83610f1b565b9150602083013567ffffffffffffffff81111561101657600080fd5b8301601f8101851361102757600080fd5b61103685823560208401610f68565b9150509250929050565b60006020828403121561105257600080fd5b813567ffffffffffffffff81111561106957600080fd5b8201601f8101841361107a57600080fd5b610df184823560208401610f68565b600181811c9082168061109d57607f821691505b602082108114156110be57634e487b7160e01b600052602260045260246000fd5b50919050565b634e487b7160e01b600052601160045260246000fd5b6000600160ff1b8214156110f0576110f06110c4565b506000190190565b60007f7fffffffffffffffffffffffffffffffffffffffffffffffffffffffffffffff82141561112a5761112a6110c4565b5060010190565b60006020828403121561114357600080fd5b5051919050565b6000825161115c818460208701610ebc565b919091019291505056fe416464726573733a206c6f772d6c6576656c2064656c65676174652063616c6c206661696c6564a264697066735822122061802ca7a9c872a3da597fd4e1917e6f96b1a432219ab7fe789696ebc74bb8cc64736f6c63430008090033",
  "linkReferences": {},
  "deployedLinkReferences": {}
}