{
  "_format": "hh-sol-artifact-1",
  "contractName": "CounterV2",
  "sourceName": "contracts/proxy-upgrade/counter/CounterV2.sol",
  "abi": [
    {
      "inputs": [
        {
          "internalType": "address",
          "name": "target",
          "type": "address"
        }
      ],
      "name": "AddressEmptyCode",
      "type": "error"
    },
    {
      "inputs": [
        {
          "internalType": "address",
          "name": "implementation",
          "type": "address"
        }
      ],
      "name": "ERC1967InvalidImplementation",
      "type": "error"
    },
    {
      "inputs": [],
      "name": "ERC1967NonPayable",
      "type": "error"
    },
    {
      "inputs": [],
      "name": "FailedInnerCall",
      "type": "error"
    },
    {
      "inputs": [],
      "name": "InvalidInitialization",
      "type": "error"
    },
    {
      "inputs": [],
      "name": "NotInitializing",
      "type": "error"
    },
    {
      "inputs": [
        {
          "internalType": "address",
          "name": "owner",
          "type": "address"
        }
      ],
      "name": "OwnableInvalidOwner",
      "type": "error"
    },
    {
      "inputs": [
        {
          "internalType": "address",
          "name": "account",
          "type": "address"
        }
      ],
      "name": "OwnableUnauthorizedAccount",
      "type": "error"
    },
    {
      "inputs": [],
      "name": "UUPSUnauthorizedCallContext",
      "type": "error"
    },
    {
      "inputs": [
        {
          "internalType": "bytes32",
          "name": "slot",
          "type": "bytes32"
        }
      ],
      "name": "UUPSUnsupportedProxiableUUID",
      "type": "error"
    },
    {
      "anonymous": false,
      "inputs": [
        {
          "indexed": false,
          "internalType": "uint64",
          "name": "version",
          "type": "uint64"
        }
      ],
      "name": "Initialized",
      "type": "event"
    },
    {
      "anonymous": false,
      "inputs": [
        {
          "indexed": true,
          "internalType": "address",
          "name": "previousOwner",
          "type": "address"
        },
        {
          "indexed": true,
          "internalType": "address",
          "name": "newOwner",
          "type": "address"
        }
      ],
      "name": "OwnershipTransferred",
      "type": "event"
    },
    {
      "anonymous": false,
      "inputs": [
        {
          "indexed": true,
          "internalType": "address",
          "name": "implementation",
          "type": "address"
        }
      ],
      "name": "Upgraded",
      "type": "event"
    },
    {
      "inputs": [],
      "name": "UPGRADE_INTERFACE_VERSION",
      "outputs": [
        {
          "internalType": "string",
          "name": "",
          "type": "string"
        }
      ],
      "stateMutability": "view",
      "type": "function"
    },
    {
      "inputs": [
        {
          "internalType": "string",
          "name": "_name",
          "type": "string"
        }
      ],
      "name": "changeName",
      "outputs": [],
      "stateMutability": "nonpayable",
      "type": "function"
    },
    {
      "inputs": [],
      "name": "count",
      "outputs": [
        {
          "internalType": "int256",
          "name": "",
          "type": "int256"
        }
      ],
      "stateMutability": "view",
      "type": "function"
    },
    {
      "inputs": [],
      "name": "decrement",
      "outputs": [
        {
          "internalType": "int256",
          "name": "",
          "type": "int256"
        }
      ],
      "stateMutability": "nonpayable",
      "type": "function"
    },
    {
      "inputs": [],
      "name": "increment",
      "outputs": [
        {
          "internalType": "int256",
          "name": "",
          "type": "int256"
        }
      ],
      "stateMutability": "nonpayable",
      "type": "function"
    },
    {
      "inputs": [
        {
          "internalType": "string",
          "name": "_name",
          "type": "string"
        }
      ],
      "name": "initialize",
      "outputs": [],
      "stateMutability": "nonpayable",
      "type": "function"
    },
    {
      "inputs": [],
      "name": "name",
      "outputs": [
        {
          "internalType": "string",
          "name": "",
          "type": "string"
        }
      ],
      "stateMutability": "view",
      "type": "function"
    },
    {
      "inputs": [],
      "name": "owner",
      "outputs": [
        {
          "internalType": "address",
          "name": "",
          "type": "address"
        }
      ],
      "stateMutability": "view",
      "type": "function"
    },
    {
      "inputs": [],
      "name": "proxiableUUID",
      "outputs": [
        {
          "internalType": "bytes32",
          "name": "",
          "type": "bytes32"
        }
      ],
      "stateMutability": "view",
      "type": "function"
    },
    {
      "inputs": [],
      "name": "renounceOwnership",
      "outputs": [],
      "stateMutability": "nonpayable",
      "type": "function"
    },
    {
      "inputs": [
        {
          "internalType": "address",
          "name": "newOwner",
          "type": "address"
        }
      ],
      "name": "transferOwnership",
      "outputs": [],
      "stateMutability": "nonpayable",
      "type": "function"
    },
    {
      "inputs": [
        {
          "internalType": "address",
          "name": "newImplementation",
          "type": "address"
        },
        {
          "internalType": "bytes",
          "name": "data",
          "type": "bytes"
        }
      ],
      "name": "upgradeToAndCall",
      "outputs": [],
      "stateMutability": "payable",
      "type": "function"
    }
  ],
  "bytecode": "0x60a06040523060805234801561001457600080fd5b50608051610e4361003e600039600081816105580152818161058101526106eb0152610e436000f3fe6080604052600436106100d25760003560e01c80635353a2d81161007f578063ad3cb1cc11610059578063ad3cb1cc146101fd578063d09de08a1461022e578063f2fde38b14610243578063f62d18881461026357600080fd5b80635353a2d814610181578063715018a6146101a15780638da5cb5b146101b657600080fd5b80633659cfe6116100b05780633659cfe6146101375780634f1ef2861461015957806352d1902d1461016c57600080fd5b806306661abd146100d757806306fdde03146101005780632baeceb714610122575b600080fd5b3480156100e357600080fd5b506100ed60015481565b6040519081526020015b60405180910390f35b34801561010c57600080fd5b50610115610283565b6040516100f79190610a84565b34801561012e57600080fd5b506100ed610311565b34801561014357600080fd5b50610157610152366004610ad3565b61032f565b005b610157610167366004610b7a565b61035d565b34801561017857600080fd5b506100ed61037c565b34801561018d57600080fd5b5061015761019c366004610bdc565b6103ab565b3480156101ad57600080fd5b506101576103b7565b3480156101c257600080fd5b507f9016d09d72d40fdae2fd8ceac6b6234c7706214fd39c1cd1e609a0528c199300546040516001600160a01b0390911681526020016100f7565b34801561020957600080fd5b50610115604051806040016040528060058152602001640352e302e360dc1b81525081565b34801561023a57600080fd5b506100ed6103cb565b34801561024f57600080fd5b5061015761025e366004610ad3565b6103dc565b34801561026f57600080fd5b5061015761027e366004610bdc565b61041c565b6000805461029090610c2d565b80601f01602080910402602001604051908101604052809291908181526020018280546102bc90610c2d565b80156103095780601f106102de57610100808354040283529160200191610309565b820191906000526020600020905b8154815290600101906020018083116102ec57829003601f168201915b505050505081565b600180546000918261032283610c7d565b9190505550600154905090565b61033761054d565b61034081610604565b60408051600081526020810190915261035a90829061060c565b50565b61036561054d565b61036e82610604565b610378828261060c565b5050565b60006103866106e0565b507f360894a13ba1a3210667c828492db98dca3e2076cc3735a920a3ca505d382bbc90565b60006103788282610ce0565b6103bf610729565b6103c96000610784565b565b600180546000918261032283610da0565b6103e4610729565b6001600160a01b03811661041357604051631e4fbdf760e01b8152600060048201526024015b60405180910390fd5b61035a81610784565b7ff0c57e16840df040f15088dc2f81fe391c3923bec73e23a9662efc9c229c6a00805468010000000000000000810460ff16159067ffffffffffffffff166000811580156104675750825b905060008267ffffffffffffffff1660011480156104845750303b155b905081158015610492575080155b156104b05760405163f92ee8a960e01b815260040160405180910390fd5b845467ffffffffffffffff1916600117855583156104e457845468ff00000000000000001916680100000000000000001785555b60006104f08782610ce0565b506104fa33610802565b831561054557845468ff000000000000000019168555604051600181527fc7f505b2f371ae2175ee4913f4499e1f2633a7b5936321eed1cdaeb6115181d29060200160405180910390a15b505050505050565b306001600160a01b037f00000000000000000000000000000000000000000000000000000000000000001614806105e657507f00000000000000000000000000000000000000000000000000000000000000006001600160a01b03166105da7f360894a13ba1a3210667c828492db98dca3e2076cc3735a920a3ca505d382bbc546001600160a01b031690565b6001600160a01b031614155b156103c95760405163703e46dd60e11b815260040160405180910390fd5b61035a610729565b816001600160a01b03166352d1902d6040518163ffffffff1660e01b8152600401602060405180830381865afa925050508015610666575060408051601f3d908101601f1916820190925261066391810190610dd8565b60015b61068e57604051634c9c8ce360e01b81526001600160a01b038316600482015260240161040a565b7f360894a13ba1a3210667c828492db98dca3e2076cc3735a920a3ca505d382bbc81146106d157604051632a87526960e21b81526004810182905260240161040a565b6106db8383610813565b505050565b306001600160a01b037f000000000000000000000000000000000000000000000000000000000000000016146103c95760405163703e46dd60e11b815260040160405180910390fd5b3361075b7f9016d09d72d40fdae2fd8ceac6b6234c7706214fd39c1cd1e609a0528c199300546001600160a01b031690565b6001600160a01b0316146103c95760405163118cdaa760e01b815233600482015260240161040a565b7f9016d09d72d40fdae2fd8ceac6b6234c7706214fd39c1cd1e609a0528c199300805473ffffffffffffffffffffffffffffffffffffffff1981166001600160a01b03848116918217845560405192169182907f8be0079c531659141344cd1fd0a4f28419497f9722a3daafe3b4186f6b6457e090600090a3505050565b61080a610869565b61035a816108b7565b61081c826108bf565b6040516001600160a01b038316907fbc7cd75a20ee27fd9adebab32041f755214dbc6bffa90cc0225b39da2e5c2d3b90600090a2805115610861576106db8282610943565b6103786109b9565b7ff0c57e16840df040f15088dc2f81fe391c3923bec73e23a9662efc9c229c6a005468010000000000000000900460ff166103c957604051631afcd79f60e31b815260040160405180910390fd5b6103e4610869565b806001600160a01b03163b6000036108f557604051634c9c8ce360e01b81526001600160a01b038216600482015260240161040a565b7f360894a13ba1a3210667c828492db98dca3e2076cc3735a920a3ca505d382bbc805473ffffffffffffffffffffffffffffffffffffffff19166001600160a01b0392909216919091179055565b6060600080846001600160a01b0316846040516109609190610df1565b600060405180830381855af49150503d806000811461099b576040519150601f19603f3d011682016040523d82523d6000602084013e6109a0565b606091505b50915091506109b08583836109d8565b95945050505050565b34156103c95760405163b398979f60e01b815260040160405180910390fd5b6060826109ed576109e882610a37565b610a30565b8151158015610a0457506001600160a01b0384163b155b15610a2d57604051639996b31560e01b81526001600160a01b038516600482015260240161040a565b50805b9392505050565b805115610a475780518082602001fd5b604051630a12f52160e11b815260040160405180910390fd5b60005b83811015610a7b578181015183820152602001610a63565b50506000910152565b6020815260008251806020840152610aa3816040850160208701610a60565b601f01601f19169190910160400192915050565b80356001600160a01b0381168114610ace57600080fd5b919050565b600060208284031215610ae557600080fd5b610a3082610ab7565b634e487b7160e01b600052604160045260246000fd5b600067ffffffffffffffff80841115610b1f57610b1f610aee565b604051601f8501601f19908116603f01168101908282118183101715610b4757610b47610aee565b81604052809350858152868686011115610b6057600080fd5b858560208301376000602087830101525050509392505050565b60008060408385031215610b8d57600080fd5b610b9683610ab7565b9150602083013567ffffffffffffffff811115610bb257600080fd5b8301601f81018513610bc357600080fd5b610bd285823560208401610b04565b9150509250929050565b600060208284031215610bee57600080fd5b813567ffffffffffffffff811115610c0557600080fd5b8201601f81018413610c1657600080fd5b610c2584823560208401610b04565b949350505050565b600181811c90821680610c4157607f821691505b602082108103610c6157634e487b7160e01b600052602260045260246000fd5b50919050565b634e487b7160e01b600052601160045260246000fd5b6000600160ff1b8201610c9257610c92610c67565b506000190190565b601f8211156106db57600081815260208120601f850160051c81016020861015610cc15750805b601f850160051c820191505b8181101561054557828155600101610ccd565b815167ffffffffffffffff811115610cfa57610cfa610aee565b610d0e81610d088454610c2d565b84610c9a565b602080601f831160018114610d435760008415610d2b5750858301515b600019600386901b1c1916600185901b178555610545565b600085815260208120601f198616915b82811015610d7257888601518255948401946001909101908401610d53565b5085821015610d905787850151600019600388901b60f8161c191681555b5050505050600190811b01905550565b60007f7fffffffffffffffffffffffffffffffffffffffffffffffffffffffffffffff8203610dd157610dd1610c67565b5060010190565b600060208284031215610dea57600080fd5b5051919050565b60008251610e03818460208701610a60565b919091019291505056fea264697066735822122020ea770c7bd974f8a80b4e412051423b3547f1e3a7dd37cca6e69a9c000c373f64736f6c63430008140033",
  "linkReferences": {},
  "deployedLinkReferences": {}
}