{
  "_format": "hh-sol-artifact-1",
  "contractName": "HRC904Contract",
  "sourceName": "contracts/system-contracts/hedera-token-service/examples/hrc-904/HRC904Contract.sol",
  "abi": [
    {
      "anonymous": false,
      "inputs": [
        {
          "indexed": false,
          "internalType": "bool",
          "name": "status",
          "type": "bool"
        }
      ],
      "name": "IsAssociated",
      "type": "event"
    },
    {
      "inputs": [
        {
          "internalType": "address",
          "name": "token",
          "type": "address"
        }
      ],
      "name": "associate",
      "outputs": [
        {
          "internalType": "uint256",
          "name": "responseCode",
          "type": "uint256"
        }
      ],
      "stateMutability": "nonpayable",
      "type": "function"
    },
    {
      "inputs": [
        {
          "internalType": "address",
          "name": "token",
          "type": "address"
        },
        {
          "internalType": "address",
          "name": "receiver",
          "type": "address"
        }
      ],
      "name": "cancelAirdropFT",
      "outputs": [
        {
          "internalType": "int64",
          "name": "responseCode",
          "type": "int64"
        }
      ],
      "stateMutability": "nonpayable",
      "type": "function"
    },
    {
      "inputs": [
        {
          "internalType": "address",
          "name": "token",
          "type": "address"
        },
        {
          "internalType": "address",
          "name": "receiver",
          "type": "address"
        },
        {
          "internalType": "int64",
          "name": "serial",
          "type": "int64"
        }
      ],
      "name": "cancelAirdropNFT",
      "outputs": [
        {
          "internalType": "int64",
          "name": "responseCode",
          "type": "int64"
        }
      ],
      "stateMutability": "nonpayable",
      "type": "function"
    },
    {
      "inputs": [
        {
          "internalType": "address",
          "name": "token",
          "type": "address"
        },
        {
          "internalType": "address",
          "name": "sender",
          "type": "address"
        }
      ],
      "name": "claimAirdropFT",
      "outputs": [
        {
          "internalType": "int64",
          "name": "responseCode",
          "type": "int64"
        }
      ],
      "stateMutability": "nonpayable",
      "type": "function"
    },
    {
      "inputs": [
        {
          "internalType": "address",
          "name": "token",
          "type": "address"
        },
        {
          "internalType": "address",
          "name": "sender",
          "type": "address"
        },
        {
          "internalType": "int64",
          "name": "serial",
          "type": "int64"
        }
      ],
      "name": "claimAirdropNFT",
      "outputs": [
        {
          "internalType": "int64",
          "name": "responseCode",
          "type": "int64"
        }
      ],
      "stateMutability": "nonpayable",
      "type": "function"
    },
    {
      "inputs": [
        {
          "internalType": "address",
          "name": "token",
          "type": "address"
        }
      ],
      "name": "dissociate",
      "outputs": [
        {
          "internalType": "uint256",
          "name": "responseCode",
          "type": "uint256"
        }
      ],
      "stateMutability": "nonpayable",
      "type": "function"
    },
    {
      "inputs": [
        {
          "internalType": "address",
          "name": "token",
          "type": "address"
        }
      ],
      "name": "isAssociated",
      "outputs": [
        {
          "internalType": "bool",
          "name": "associated",
          "type": "bool"
        }
      ],
      "stateMutability": "view",
      "type": "function"
    },
    {
      "inputs": [
        {
          "internalType": "address",
          "name": "token",
          "type": "address"
        }
      ],
      "name": "rejectTokenFT",
      "outputs": [
        {
          "internalType": "int64",
          "name": "responseCode",
          "type": "int64"
        }
      ],
      "stateMutability": "nonpayable",
      "type": "function"
    },
    {
      "inputs": [
        {
          "internalType": "address",
          "name": "token",
          "type": "address"
        },
        {
          "internalType": "int64[]",
          "name": "serialNumbers",
          "type": "int64[]"
        }
      ],
      "name": "rejectTokenNFTs",
      "outputs": [
        {
          "internalType": "int64",
          "name": "responseCode",
          "type": "int64"
        }
      ],
      "stateMutability": "nonpayable",
      "type": "function"
    },
    {
      "inputs": [
        {
          "internalType": "address",
          "name": "account",
          "type": "address"
        },
        {
          "internalType": "bool",
          "name": "enableAutoAssociations",
          "type": "bool"
        }
      ],
      "name": "setUnlimitedAssociations",
      "outputs": [
        {
          "internalType": "int64",
          "name": "responseCode",
          "type": "int64"
        }
      ],
      "stateMutability": "nonpayable",
      "type": "function"
    }
  ],
  "bytecode": "0x608060405234801561000f575f80fd5b506107708061001d5f395ff3fe608060405234801561000f575f80fd5b506004361061009b575f3560e01c8063cec8cb7a11610063578063cec8cb7a14610124578063d55fe58214610137578063d89f31231461015a578063e1588b8e1461016d578063ed6c8f5e14610180575f80fd5b8063322e35501461009f57806332ea4307146100c557806375371d8f146100eb57806385047407146100fe578063b1711d5414610111575b5f80fd5b6100b26100ad3660046104d4565b610193565b6040519081526020015b60405180910390f35b6100d86100d33660046104ed565b6101fb565b60405160079190910b81526020016100bc565b6100d86100f936600461053a565b61026f565b6100d861010c36600461058b565b6102ee565b6100d861011f3660046105d4565b61031e565b6100d861013236600461053a565b61034c565b61014a6101453660046104d4565b610387565b60405190151581526020016100bc565b6100b26101683660046104d4565b6103e8565b6100d861017b3660046104d4565b610426565b6100d861018e3660046104ed565b610488565b5f816001600160a01b0316635c9217e06040518163ffffffff1660e01b81526004016020604051808303815f875af11580156101d1573d5f803e3d5ffd5b505050506040513d601f19601f820116820180604052508101906101f591906106a7565b92915050565b60405163541de2d960e11b81526001600160a01b0382811660048301525f919084169063a83bc5b2906024015b6020604051808303815f875af1158015610244573d5f803e3d5ffd5b505050506040513d601f19601f8201168201806040525081019061026891906106be565b9392505050565b6040516363ada5d760e01b81526001600160a01b038381166004830152600783900b60248301525f91908516906363ada5d7906044015b6020604051808303815f875af11580156102c2573d5f803e3d5ffd5b505050506040513d601f19601f820116820180604052508101906102e691906106be565b949350505050565b60405163f5677e9960e01b815281151560048201525f906001600160a01b0384169063f5677e9990602401610228565b604051635434e3c560e11b81525f906001600160a01b0384169063a869c78a906102289085906004016106d9565b60405163ad4917cf60e01b81526001600160a01b038381166004830152600783900b60248301525f919085169063ad4917cf906044016102a6565b5f816001600160a01b0316634d8fdd6d6040518163ffffffff1660e01b8152600401602060405180830381865afa1580156103c4573d5f803e3d5ffd5b505050506040513d601f19601f820116820180604052508101906101f5919061071f565b5f816001600160a01b0316630a754de66040518163ffffffff1660e01b81526004016020604051808303815f875af11580156101d1573d5f803e3d5ffd5b5f816001600160a01b03166376c6b3916040518163ffffffff1660e01b81526004016020604051808303815f875af1158015610464573d5f803e3d5ffd5b505050506040513d601f19601f820116820180604052508101906101f591906106be565b60405163cef5b70560e01b81526001600160a01b0382811660048301525f919084169063cef5b70590602401610228565b80356001600160a01b03811681146104cf575f80fd5b919050565b5f602082840312156104e4575f80fd5b610268826104b9565b5f80604083850312156104fe575f80fd5b610507836104b9565b9150610515602084016104b9565b90509250929050565b8060070b811461052c575f80fd5b50565b80356104cf8161051e565b5f805f6060848603121561054c575f80fd5b610555846104b9565b9250610563602085016104b9565b915060408401356105738161051e565b809150509250925092565b801515811461052c575f80fd5b5f806040838503121561059c575f80fd5b6105a5836104b9565b915060208301356105b58161057e565b809150509250929050565b634e487b7160e01b5f52604160045260245ffd5b5f80604083850312156105e5575f80fd5b6105ee836104b9565b915060208084013567ffffffffffffffff8082111561060b575f80fd5b818601915086601f83011261061e575f80fd5b813581811115610630576106306105c0565b8060051b604051601f19603f83011681018181108582111715610655576106556105c0565b604052918252848201925083810185019189831115610672575f80fd5b938501935b82851015610697576106888561052f565b84529385019392850192610677565b8096505050505050509250929050565b5f602082840312156106b7575f80fd5b5051919050565b5f602082840312156106ce575f80fd5b81516102688161051e565b602080825282518282018190525f9190848201906040850190845b8181101561071357835160070b835292840192918401916001016106f4565b50909695505050505050565b5f6020828403121561072f575f80fd5b81516102688161057e56fea26469706673582212208afb3ae456efefd53a5648c4e595d7317b4387992941014e3b932370fd0e47a964736f6c63430008180033",
  "linkReferences": {},
  "deployedLinkReferences": {}
}