{
  "_format": "hh-sol-artifact-1",
  "contractName": "Exchange",
  "sourceName": "contracts/proxy-upgrade/exchange/Exchange.sol",
  "abi": [
    {
      "inputs": [
        {
          "internalType": "address",
          "name": "target",
          "type": "address"
        }
      ],
      "name": "AddressEmptyCode",
      "type": "error"
    },
    {
      "inputs": [
        {
          "internalType": "address",
          "name": "implementation",
          "type": "address"
        }
      ],
      "name": "ERC1967InvalidImplementation",
      "type": "error"
    },
    {
      "inputs": [],
      "name": "ERC1967NonPayable",
      "type": "error"
    },
    {
      "inputs": [],
      "name": "FailedInnerCall",
      "type": "error"
    },
    {
      "inputs": [],
      "name": "InvalidInitialization",
      "type": "error"
    },
    {
      "inputs": [],
      "name": "NotInitializing",
      "type": "error"
    },
    {
      "inputs": [
        {
          "internalType": "address",
          "name": "owner",
          "type": "address"
        }
      ],
      "name": "OwnableInvalidOwner",
      "type": "error"
    },
    {
      "inputs": [
        {
          "internalType": "address",
          "name": "account",
          "type": "address"
        }
      ],
      "name": "OwnableUnauthorizedAccount",
      "type": "error"
    },
    {
      "inputs": [],
      "name": "UUPSUnauthorizedCallContext",
      "type": "error"
    },
    {
      "inputs": [
        {
          "internalType": "bytes32",
          "name": "slot",
          "type": "bytes32"
        }
      ],
      "name": "UUPSUnsupportedProxiableUUID",
      "type": "error"
    },
    {
      "anonymous": false,
      "inputs": [
        {
          "indexed": false,
          "internalType": "uint64",
          "name": "version",
          "type": "uint64"
        }
      ],
      "name": "Initialized",
      "type": "event"
    },
    {
      "anonymous": false,
      "inputs": [
        {
          "indexed": true,
          "internalType": "address",
          "name": "previousOwner",
          "type": "address"
        },
        {
          "indexed": true,
          "internalType": "address",
          "name": "newOwner",
          "type": "address"
        }
      ],
      "name": "OwnershipTransferred",
      "type": "event"
    },
    {
      "anonymous": false,
      "inputs": [
        {
          "indexed": true,
          "internalType": "address",
          "name": "implementation",
          "type": "address"
        }
      ],
      "name": "Upgraded",
      "type": "event"
    },
    {
      "inputs": [],
      "name": "UPGRADE_INTERFACE_VERSION",
      "outputs": [
        {
          "internalType": "string",
          "name": "",
          "type": "string"
        }
      ],
      "stateMutability": "view",
      "type": "function"
    },
    {
      "inputs": [],
      "name": "associateToken",
      "outputs": [
        {
          "internalType": "int256",
          "name": "responseCode",
          "type": "int256"
        }
      ],
      "stateMutability": "nonpayable",
      "type": "function"
    },
    {
      "inputs": [],
      "name": "buy",
      "outputs": [],
      "stateMutability": "payable",
      "type": "function"
    },
    {
      "inputs": [],
      "name": "deposit",
      "outputs": [],
      "stateMutability": "payable",
      "type": "function"
    },
    {
      "inputs": [
        {
          "internalType": "int64",
          "name": "amount",
          "type": "int64"
        }
      ],
      "name": "depositTokens",
      "outputs": [
        {
          "internalType": "int256",
          "name": "responseCode",
          "type": "int256"
        }
      ],
      "stateMutability": "nonpayable",
      "type": "function"
    },
    {
      "inputs": [],
      "name": "getImplementationAddress",
      "outputs": [
        {
          "internalType": "address",
          "name": "",
          "type": "address"
        }
      ],
      "stateMutability": "view",
      "type": "function"
    },
    {
      "inputs": [],
      "name": "getNativeBalance",
      "outputs": [
        {
          "internalType": "uint256",
          "name": "",
          "type": "uint256"
        }
      ],
      "stateMutability": "view",
      "type": "function"
    },
    {
      "inputs": [],
      "name": "getTokenBalance",
      "outputs": [
        {
          "internalType": "uint256",
          "name": "",
          "type": "uint256"
        }
      ],
      "stateMutability": "view",
      "type": "function"
    },
    {
      "inputs": [
        {
          "internalType": "address",
          "name": "token",
          "type": "address"
        }
      ],
      "name": "initialize",
      "outputs": [],
      "stateMutability": "nonpayable",
      "type": "function"
    },
    {
      "inputs": [],
      "name": "owner",
      "outputs": [
        {
          "internalType": "address",
          "name": "",
          "type": "address"
        }
      ],
      "stateMutability": "view",
      "type": "function"
    },
    {
      "inputs": [],
      "name": "proxiableUUID",
      "outputs": [
        {
          "internalType": "bytes32",
          "name": "",
          "type": "bytes32"
        }
      ],
      "stateMutability": "view",
      "type": "function"
    },
    {
      "inputs": [],
      "name": "renounceOwnership",
      "outputs": [],
      "stateMutability": "nonpayable",
      "type": "function"
    },
    {
      "inputs": [
        {
          "internalType": "uint256",
          "name": "amount",
          "type": "uint256"
        }
      ],
      "name": "sell",
      "outputs": [],
      "stateMutability": "nonpayable",
      "type": "function"
    },
    {
      "inputs": [],
      "name": "tokenAddress",
      "outputs": [
        {
          "internalType": "address",
          "name": "",
          "type": "address"
        }
      ],
      "stateMutability": "view",
      "type": "function"
    },
    {
      "inputs": [
        {
          "internalType": "address",
          "name": "newOwner",
          "type": "address"
        }
      ],
      "name": "transferOwnership",
      "outputs": [],
      "stateMutability": "nonpayable",
      "type": "function"
    },
    {
      "inputs": [
        {
          "internalType": "address",
          "name": "newImplementation",
          "type": "address"
        },
        {
          "internalType": "bytes",
          "name": "data",
          "type": "bytes"
        }
      ],
      "name": "upgradeToAndCall",
      "outputs": [],
      "stateMutability": "payable",
      "type": "function"
    }
  ],
  "bytecode": "0x60a06040523060805234801561001457600080fd5b5060805161127d61003e60003960008181610b4201528181610b6b0152610cd0015261127d6000f3fe6080604052600436106100f35760003560e01c80639d76ea581161008a578063d0e30db011610059578063d0e30db014610282578063e4849b321461028a578063ec904f19146102aa578063f2fde38b146102bf57600080fd5b80639d76ea58146101fc578063a6f2ae3a1461021c578063ad3cb1cc14610224578063c4d66de81461026257600080fd5b806382b2e257116100c657806382b2e2571461017757806388a9d5541461018c5780638da5cb5b1461019f5780638f3ea017146101dc57600080fd5b80630cbcae70146100f85780634f1ef2861461012a57806352d1902d1461013f578063715018a614610162575b600080fd5b34801561010457600080fd5b5061010d6102df565b6040516001600160a01b0390911681526020015b60405180910390f35b61013d61013836600461105d565b610317565b005b34801561014b57600080fd5b50610154610336565b604051908152602001610121565b34801561016e57600080fd5b5061013d610365565b34801561018357600080fd5b50610154610379565b34801561019857600080fd5b5047610154565b3480156101ab57600080fd5b507f9016d09d72d40fdae2fd8ceac6b6234c7706214fd39c1cd1e609a0528c199300546001600160a01b031661010d565b3480156101e857600080fd5b506101546101f736600461111f565b6103e6565b34801561020857600080fd5b5060005461010d906001600160a01b031681565b61013d61052d565b34801561023057600080fd5b50610255604051806040016040528060058152602001640352e302e360dc1b81525081565b6040516101219190611166565b34801561026e57600080fd5b5061013d61027d366004611199565b6106c1565b61013d610800565b34801561029657600080fd5b5061013d6102a53660046111b4565b610850565b3480156102b657600080fd5b50610154610a1c565b3480156102cb57600080fd5b5061013d6102da366004611199565b610af9565b60006103127f360894a13ba1a3210667c828492db98dca3e2076cc3735a920a3ca505d382bbc546001600160a01b031690565b905090565b61031f610b37565b61032882610bee565b6103328282610bf6565b5050565b6000610340610cc5565b507f360894a13ba1a3210667c828492db98dca3e2076cc3735a920a3ca505d382bbc90565b61036d610d0e565b6103776000610d69565b565b600080546040516370a0823160e01b81523060048201526001600160a01b03909116906370a0823190602401602060405180830381865afa1580156103c2573d6000803e3d6000fd5b505050506040513d601f19601f8201168201806040525081019061031291906111cd565b6000808260070b1361043f5760405162461bcd60e51b815260206004820181905260248201527f596f75206861766520746f206465706f736974206d6f7265207468616e20302e60448201526064015b60405180910390fd5b60008054604080516001600160a01b039092166024830152336044830152306064830152600785900b6084808401919091528151808403909101815260a490920181526020820180516001600160e01b031663eca3691760e01b179052518291610167916104ad91906111e6565b6000604051808303816000865af19150503d80600081146104ea576040519150601f19603f3d011682016040523d82523d6000602084013e6104ef565b606091505b509150915081610500576015610514565b808060200190518101906105149190611202565b60030b92506016831461052657600080fd5b5050919050565b600080546040516370a0823160e01b81523060048201523492916001600160a01b0316906370a0823190602401602060405180830381865afa158015610577573d6000803e3d6000fd5b505050506040513d601f19601f8201168201806040525081019061059b91906111cd565b9050600082116105ed5760405162461bcd60e51b815260206004820152601b60248201527f596f75206e65656420746f2073656e6420736f6d6520484241522e00000000006044820152606401610436565b808211156106475760405162461bcd60e51b815260206004820152602160248201527f4e6f7420656e6f75676820746f6b656e7320696e2074686520726573657276656044820152601760f91b6064820152608401610436565b60005460405163a9059cbb60e01b8152336004820152602481018490526001600160a01b039091169063a9059cbb906044016020604051808303816000875af1158015610698573d6000803e3d6000fd5b505050506040513d601f19601f820116820180604052508101906106bc9190611225565b505050565b7ff0c57e16840df040f15088dc2f81fe391c3923bec73e23a9662efc9c229c6a00805468010000000000000000810460ff16159067ffffffffffffffff1660008115801561070c5750825b905060008267ffffffffffffffff1660011480156107295750303b155b905081158015610737575080155b156107555760405163f92ee8a960e01b815260040160405180910390fd5b845467ffffffffffffffff19166001178555831561078957845468ff00000000000000001916680100000000000000001785555b600080546001600160a01b0319166001600160a01b0388161790556107ad33610dda565b83156107f857845468ff000000000000000019168555604051600181527fc7f505b2f371ae2175ee4913f4499e1f2633a7b5936321eed1cdaeb6115181d29060200160405180910390a15b505050505050565b600034116103775760405162461bcd60e51b815260206004820181905260248201527f596f75206861766520746f206465706f736974206d6f7265207468616e20302e6044820152606401610436565b600081116108ae5760405162461bcd60e51b815260206004820152602560248201527f596f75206e65656420746f2073656c6c206174206c6561737420736f6d6520746044820152646f6b656e7360d81b6064820152608401610436565b60008054604051636eb1769f60e11b81523360048201523060248201526001600160a01b039091169063dd62ed3e90604401602060405180830381865afa1580156108fd573d6000803e3d6000fd5b505050506040513d601f19601f8201168201806040525081019061092191906111cd565b9050818110156109735760405162461bcd60e51b815260206004820152601960248201527f436865636b2074686520746f6b656e20616c6c6f77616e6365000000000000006044820152606401610436565b6000546040516323b872dd60e01b8152336004820152306024820152604481018490526001600160a01b03909116906323b872dd906064016020604051808303816000875af11580156109ca573d6000803e3d6000fd5b505050506040513d601f19601f820116820180604052508101906109ee9190611225565b50604051339083156108fc029084906000818181858888f193505050501580156106bc573d6000803e3d6000fd5b60008054604080513060248201526001600160a01b0390921660448084019190915281518084039091018152606490920181526020820180516001600160e01b031663248a35ef60e11b179052518291829161016791610a7b916111e6565b6000604051808303816000865af19150503d8060008114610ab8576040519150601f19603f3d011682016040523d82523d6000602084013e610abd565b606091505b509150915081610ace576015610ae2565b80806020019051810190610ae29190611202565b60030b925060168314610af457600080fd5b505090565b610b01610d0e565b6001600160a01b038116610b2b57604051631e4fbdf760e01b815260006004820152602401610436565b610b3481610d69565b50565b306001600160a01b037f0000000000000000000000000000000000000000000000000000000000000000161480610bd057507f00000000000000000000000000000000000000000000000000000000000000006001600160a01b0316610bc47f360894a13ba1a3210667c828492db98dca3e2076cc3735a920a3ca505d382bbc546001600160a01b031690565b6001600160a01b031614155b156103775760405163703e46dd60e11b815260040160405180910390fd5b610b34610d0e565b816001600160a01b03166352d1902d6040518163ffffffff1660e01b8152600401602060405180830381865afa925050508015610c50575060408051601f3d908101601f19168201909252610c4d918101906111cd565b60015b610c7857604051634c9c8ce360e01b81526001600160a01b0383166004820152602401610436565b7f360894a13ba1a3210667c828492db98dca3e2076cc3735a920a3ca505d382bbc8114610cbb57604051632a87526960e21b815260048101829052602401610436565b6106bc8383610deb565b306001600160a01b037f000000000000000000000000000000000000000000000000000000000000000016146103775760405163703e46dd60e11b815260040160405180910390fd5b33610d407f9016d09d72d40fdae2fd8ceac6b6234c7706214fd39c1cd1e609a0528c199300546001600160a01b031690565b6001600160a01b0316146103775760405163118cdaa760e01b8152336004820152602401610436565b7f9016d09d72d40fdae2fd8ceac6b6234c7706214fd39c1cd1e609a0528c19930080546001600160a01b031981166001600160a01b03848116918217845560405192169182907f8be0079c531659141344cd1fd0a4f28419497f9722a3daafe3b4186f6b6457e090600090a3505050565b610de2610e41565b610b3481610e8f565b610df482610e97565b6040516001600160a01b038316907fbc7cd75a20ee27fd9adebab32041f755214dbc6bffa90cc0225b39da2e5c2d3b90600090a2805115610e39576106bc8282610f0e565b610332610f84565b7ff0c57e16840df040f15088dc2f81fe391c3923bec73e23a9662efc9c229c6a005468010000000000000000900460ff1661037757604051631afcd79f60e31b815260040160405180910390fd5b610b01610e41565b806001600160a01b03163b600003610ecd57604051634c9c8ce360e01b81526001600160a01b0382166004820152602401610436565b7f360894a13ba1a3210667c828492db98dca3e2076cc3735a920a3ca505d382bbc80546001600160a01b0319166001600160a01b0392909216919091179055565b6060600080846001600160a01b031684604051610f2b91906111e6565b600060405180830381855af49150503d8060008114610f66576040519150601f19603f3d011682016040523d82523d6000602084013e610f6b565b606091505b5091509150610f7b858383610fa3565b95945050505050565b34156103775760405163b398979f60e01b815260040160405180910390fd5b606082610fb857610fb382611002565b610ffb565b8151158015610fcf57506001600160a01b0384163b155b15610ff857604051639996b31560e01b81526001600160a01b0385166004820152602401610436565b50805b9392505050565b8051156110125780518082602001fd5b604051630a12f52160e11b815260040160405180910390fd5b80356001600160a01b038116811461104257600080fd5b919050565b634e487b7160e01b600052604160045260246000fd5b6000806040838503121561107057600080fd5b6110798361102b565b9150602083013567ffffffffffffffff8082111561109657600080fd5b818501915085601f8301126110aa57600080fd5b8135818111156110bc576110bc611047565b604051601f8201601f19908116603f011681019083821181831017156110e4576110e4611047565b816040528281528860208487010111156110fd57600080fd5b8260208601602083013760006020848301015280955050505050509250929050565b60006020828403121561113157600080fd5b81358060070b8114610ffb57600080fd5b60005b8381101561115d578181015183820152602001611145565b50506000910152565b6020815260008251806020840152611185816040850160208701611142565b601f01601f19169190910160400192915050565b6000602082840312156111ab57600080fd5b610ffb8261102b565b6000602082840312156111c657600080fd5b5035919050565b6000602082840312156111df57600080fd5b5051919050565b600082516111f8818460208701611142565b9190910192915050565b60006020828403121561121457600080fd5b81518060030b8114610ffb57600080fd5b60006020828403121561123757600080fd5b81518015158114610ffb57600080fdfea264697066735822122023d894b7e4e097ad5fa0a2adb67f0636da44655f9f821d1f048f789a133c194764736f6c63430008170033",
  "linkReferences": {},
  "deployedLinkReferences": {}
}