{
  "_format": "hh-sol-artifact-1",
  "contractName": "Exchange",
  "sourceName": "contracts/proxy-upgrade/exchange/Exchange.sol",
  "abi": [
    {
      "inputs": [
        {
          "internalType": "address",
          "name": "target",
          "type": "address"
        }
      ],
      "name": "AddressEmptyCode",
      "type": "error"
    },
    {
      "inputs": [
        {
          "internalType": "address",
          "name": "implementation",
          "type": "address"
        }
      ],
      "name": "ERC1967InvalidImplementation",
      "type": "error"
    },
    {
      "inputs": [],
      "name": "ERC1967NonPayable",
      "type": "error"
    },
    {
      "inputs": [],
      "name": "FailedInnerCall",
      "type": "error"
    },
    {
      "inputs": [],
      "name": "InvalidInitialization",
      "type": "error"
    },
    {
      "inputs": [],
      "name": "NotInitializing",
      "type": "error"
    },
    {
      "inputs": [
        {
          "internalType": "address",
          "name": "owner",
          "type": "address"
        }
      ],
      "name": "OwnableInvalidOwner",
      "type": "error"
    },
    {
      "inputs": [
        {
          "internalType": "address",
          "name": "account",
          "type": "address"
        }
      ],
      "name": "OwnableUnauthorizedAccount",
      "type": "error"
    },
    {
      "inputs": [],
      "name": "UUPSUnauthorizedCallContext",
      "type": "error"
    },
    {
      "inputs": [
        {
          "internalType": "bytes32",
          "name": "slot",
          "type": "bytes32"
        }
      ],
      "name": "UUPSUnsupportedProxiableUUID",
      "type": "error"
    },
    {
      "anonymous": false,
      "inputs": [
        {
          "indexed": false,
          "internalType": "uint64",
          "name": "version",
          "type": "uint64"
        }
      ],
      "name": "Initialized",
      "type": "event"
    },
    {
      "anonymous": false,
      "inputs": [
        {
          "indexed": true,
          "internalType": "address",
          "name": "previousOwner",
          "type": "address"
        },
        {
          "indexed": true,
          "internalType": "address",
          "name": "newOwner",
          "type": "address"
        }
      ],
      "name": "OwnershipTransferred",
      "type": "event"
    },
    {
      "anonymous": false,
      "inputs": [
        {
          "indexed": true,
          "internalType": "address",
          "name": "implementation",
          "type": "address"
        }
      ],
      "name": "Upgraded",
      "type": "event"
    },
    {
      "inputs": [],
      "name": "UPGRADE_INTERFACE_VERSION",
      "outputs": [
        {
          "internalType": "string",
          "name": "",
          "type": "string"
        }
      ],
      "stateMutability": "view",
      "type": "function"
    },
    {
      "inputs": [],
      "name": "associateToken",
      "outputs": [
        {
          "internalType": "int256",
          "name": "responseCode",
          "type": "int256"
        }
      ],
      "stateMutability": "nonpayable",
      "type": "function"
    },
    {
      "inputs": [],
      "name": "buy",
      "outputs": [],
      "stateMutability": "payable",
      "type": "function"
    },
    {
      "inputs": [],
      "name": "deposit",
      "outputs": [],
      "stateMutability": "payable",
      "type": "function"
    },
    {
      "inputs": [
        {
          "internalType": "int64",
          "name": "amount",
          "type": "int64"
        }
      ],
      "name": "depositTokens",
      "outputs": [
        {
          "internalType": "int256",
          "name": "responseCode",
          "type": "int256"
        }
      ],
      "stateMutability": "nonpayable",
      "type": "function"
    },
    {
      "inputs": [],
      "name": "getImplementationAddress",
      "outputs": [
        {
          "internalType": "address",
          "name": "",
          "type": "address"
        }
      ],
      "stateMutability": "view",
      "type": "function"
    },
    {
      "inputs": [],
      "name": "getNativeBalance",
      "outputs": [
        {
          "internalType": "uint256",
          "name": "",
          "type": "uint256"
        }
      ],
      "stateMutability": "view",
      "type": "function"
    },
    {
      "inputs": [],
      "name": "getTokenBalance",
      "outputs": [
        {
          "internalType": "uint256",
          "name": "",
          "type": "uint256"
        }
      ],
      "stateMutability": "view",
      "type": "function"
    },
    {
      "inputs": [
        {
          "internalType": "address",
          "name": "token",
          "type": "address"
        }
      ],
      "name": "initialize",
      "outputs": [],
      "stateMutability": "nonpayable",
      "type": "function"
    },
    {
      "inputs": [],
      "name": "owner",
      "outputs": [
        {
          "internalType": "address",
          "name": "",
          "type": "address"
        }
      ],
      "stateMutability": "view",
      "type": "function"
    },
    {
      "inputs": [],
      "name": "proxiableUUID",
      "outputs": [
        {
          "internalType": "bytes32",
          "name": "",
          "type": "bytes32"
        }
      ],
      "stateMutability": "view",
      "type": "function"
    },
    {
      "inputs": [],
      "name": "renounceOwnership",
      "outputs": [],
      "stateMutability": "nonpayable",
      "type": "function"
    },
    {
      "inputs": [
        {
          "internalType": "uint256",
          "name": "amount",
          "type": "uint256"
        }
      ],
      "name": "sell",
      "outputs": [],
      "stateMutability": "nonpayable",
      "type": "function"
    },
    {
      "inputs": [],
      "name": "tokenAddress",
      "outputs": [
        {
          "internalType": "address",
          "name": "",
          "type": "address"
        }
      ],
      "stateMutability": "view",
      "type": "function"
    },
    {
      "inputs": [
        {
          "internalType": "address",
          "name": "newOwner",
          "type": "address"
        }
      ],
      "name": "transferOwnership",
      "outputs": [],
      "stateMutability": "nonpayable",
      "type": "function"
    },
    {
      "inputs": [
        {
          "internalType": "address",
          "name": "newImplementation",
          "type": "address"
        }
      ],
      "name": "upgradeTo",
      "outputs": [],
      "stateMutability": "nonpayable",
      "type": "function"
    },
    {
      "inputs": [
        {
          "internalType": "address",
          "name": "newImplementation",
          "type": "address"
        },
        {
          "internalType": "bytes",
          "name": "data",
          "type": "bytes"
        }
      ],
      "name": "upgradeToAndCall",
      "outputs": [],
      "stateMutability": "payable",
      "type": "function"
    }
  ],
  "bytecode": "0x60a06040523060805234801561001457600080fd5b506080516112d361003e60003960008181610b9801528181610bc10152610d2601526112d36000f3fe6080604052600436106100fe5760003560e01c80638f3ea01711610095578063c4d66de811610064578063c4d66de81461028d578063d0e30db0146102ad578063e4849b32146102b5578063ec904f19146102d5578063f2fde38b146102ea57600080fd5b80638f3ea017146102075780639d76ea5814610227578063a6f2ae3a14610247578063ad3cb1cc1461024f57600080fd5b8063715018a6116100d1578063715018a61461018d57806382b2e257146101a257806388a9d554146101b75780638da5cb5b146101ca57600080fd5b80630cbcae70146101035780633659cfe6146101355780634f1ef2861461015757806352d1902d1461016a575b600080fd5b34801561010f57600080fd5b5061011861030a565b6040516001600160a01b0390911681526020015b60405180910390f35b34801561014157600080fd5b5061015561015036600461109d565b610342565b005b6101556101653660046110ce565b610370565b34801561017657600080fd5b5061017f61038f565b60405190815260200161012c565b34801561019957600080fd5b506101556103be565b3480156101ae57600080fd5b5061017f6103d2565b3480156101c357600080fd5b504761017f565b3480156101d657600080fd5b507f9016d09d72d40fdae2fd8ceac6b6234c7706214fd39c1cd1e609a0528c199300546001600160a01b0316610118565b34801561021357600080fd5b5061017f610222366004611190565b61043f565b34801561023357600080fd5b50600054610118906001600160a01b031681565b610155610586565b34801561025b57600080fd5b50610280604051806040016040528060058152602001640352e302e360dc1b81525081565b60405161012c91906111d7565b34801561029957600080fd5b506101556102a836600461109d565b61071a565b610155610859565b3480156102c157600080fd5b506101556102d036600461120a565b6108a9565b3480156102e157600080fd5b5061017f610a75565b3480156102f657600080fd5b5061015561030536600461109d565b610b52565b600061033d7f360894a13ba1a3210667c828492db98dca3e2076cc3735a920a3ca505d382bbc546001600160a01b031690565b905090565b61034a610b8d565b61035381610c44565b60408051600081526020810190915261036d908290610c4c565b50565b610378610b8d565b61038182610c44565b61038b8282610c4c565b5050565b6000610399610d1b565b507f360894a13ba1a3210667c828492db98dca3e2076cc3735a920a3ca505d382bbc90565b6103c6610d64565b6103d06000610dbf565b565b600080546040516370a0823160e01b81523060048201526001600160a01b03909116906370a0823190602401602060405180830381865afa15801561041b573d6000803e3d6000fd5b505050506040513d601f19601f8201168201806040525081019061033d9190611223565b6000808260070b136104985760405162461bcd60e51b815260206004820181905260248201527f596f75206861766520746f206465706f736974206d6f7265207468616e20302e60448201526064015b60405180910390fd5b60008054604080516001600160a01b039092166024830152336044830152306064830152600785900b6084808401919091528151808403909101815260a490920181526020820180516001600160e01b031663eca3691760e01b17905251829161016791610506919061123c565b6000604051808303816000865af19150503d8060008114610543576040519150601f19603f3d011682016040523d82523d6000602084013e610548565b606091505b50915091508161055957601561056d565b8080602001905181019061056d9190611258565b60030b92506016831461057f57600080fd5b5050919050565b600080546040516370a0823160e01b81523060048201523492916001600160a01b0316906370a0823190602401602060405180830381865afa1580156105d0573d6000803e3d6000fd5b505050506040513d601f19601f820116820180604052508101906105f49190611223565b9050600082116106465760405162461bcd60e51b815260206004820152601b60248201527f596f75206e65656420746f2073656e6420736f6d6520484241522e0000000000604482015260640161048f565b808211156106a05760405162461bcd60e51b815260206004820152602160248201527f4e6f7420656e6f75676820746f6b656e7320696e2074686520726573657276656044820152601760f91b606482015260840161048f565b60005460405163a9059cbb60e01b8152336004820152602481018490526001600160a01b039091169063a9059cbb906044016020604051808303816000875af11580156106f1573d6000803e3d6000fd5b505050506040513d601f19601f82011682018060405250810190610715919061127b565b505050565b7ff0c57e16840df040f15088dc2f81fe391c3923bec73e23a9662efc9c229c6a00805468010000000000000000810460ff16159067ffffffffffffffff166000811580156107655750825b905060008267ffffffffffffffff1660011480156107825750303b155b905081158015610790575080155b156107ae5760405163f92ee8a960e01b815260040160405180910390fd5b845467ffffffffffffffff1916600117855583156107e257845468ff00000000000000001916680100000000000000001785555b600080546001600160a01b0319166001600160a01b03881617905561080633610e30565b831561085157845468ff000000000000000019168555604051600181527fc7f505b2f371ae2175ee4913f4499e1f2633a7b5936321eed1cdaeb6115181d29060200160405180910390a15b505050505050565b600034116103d05760405162461bcd60e51b815260206004820181905260248201527f596f75206861766520746f206465706f736974206d6f7265207468616e20302e604482015260640161048f565b600081116109075760405162461bcd60e51b815260206004820152602560248201527f596f75206e65656420746f2073656c6c206174206c6561737420736f6d6520746044820152646f6b656e7360d81b606482015260840161048f565b60008054604051636eb1769f60e11b81523360048201523060248201526001600160a01b039091169063dd62ed3e90604401602060405180830381865afa158015610956573d6000803e3d6000fd5b505050506040513d601f19601f8201168201806040525081019061097a9190611223565b9050818110156109cc5760405162461bcd60e51b815260206004820152601960248201527f436865636b2074686520746f6b656e20616c6c6f77616e636500000000000000604482015260640161048f565b6000546040516323b872dd60e01b8152336004820152306024820152604481018490526001600160a01b03909116906323b872dd906064016020604051808303816000875af1158015610a23573d6000803e3d6000fd5b505050506040513d601f19601f82011682018060405250810190610a47919061127b565b50604051339083156108fc029084906000818181858888f19350505050158015610715573d6000803e3d6000fd5b60008054604080513060248201526001600160a01b0390921660448084019190915281518084039091018152606490920181526020820180516001600160e01b031663248a35ef60e11b179052518291829161016791610ad49161123c565b6000604051808303816000865af19150503d8060008114610b11576040519150601f19603f3d011682016040523d82523d6000602084013e610b16565b606091505b509150915081610b27576015610b3b565b80806020019051810190610b3b9190611258565b60030b925060168314610b4d57600080fd5b505090565b610b5a610d64565b6001600160a01b038116610b8457604051631e4fbdf760e01b81526000600482015260240161048f565b61036d81610dbf565b306001600160a01b037f0000000000000000000000000000000000000000000000000000000000000000161480610c2657507f00000000000000000000000000000000000000000000000000000000000000006001600160a01b0316610c1a7f360894a13ba1a3210667c828492db98dca3e2076cc3735a920a3ca505d382bbc546001600160a01b031690565b6001600160a01b031614155b156103d05760405163703e46dd60e11b815260040160405180910390fd5b61036d610d64565b816001600160a01b03166352d1902d6040518163ffffffff1660e01b8152600401602060405180830381865afa925050508015610ca6575060408051601f3d908101601f19168201909252610ca391810190611223565b60015b610cce57604051634c9c8ce360e01b81526001600160a01b038316600482015260240161048f565b7f360894a13ba1a3210667c828492db98dca3e2076cc3735a920a3ca505d382bbc8114610d1157604051632a87526960e21b81526004810182905260240161048f565b6107158383610e41565b306001600160a01b037f000000000000000000000000000000000000000000000000000000000000000016146103d05760405163703e46dd60e11b815260040160405180910390fd5b33610d967f9016d09d72d40fdae2fd8ceac6b6234c7706214fd39c1cd1e609a0528c199300546001600160a01b031690565b6001600160a01b0316146103d05760405163118cdaa760e01b815233600482015260240161048f565b7f9016d09d72d40fdae2fd8ceac6b6234c7706214fd39c1cd1e609a0528c19930080546001600160a01b031981166001600160a01b03848116918217845560405192169182907f8be0079c531659141344cd1fd0a4f28419497f9722a3daafe3b4186f6b6457e090600090a3505050565b610e38610e97565b61036d81610ee5565b610e4a82610eed565b6040516001600160a01b038316907fbc7cd75a20ee27fd9adebab32041f755214dbc6bffa90cc0225b39da2e5c2d3b90600090a2805115610e8f576107158282610f64565b61038b610fda565b7ff0c57e16840df040f15088dc2f81fe391c3923bec73e23a9662efc9c229c6a005468010000000000000000900460ff166103d057604051631afcd79f60e31b815260040160405180910390fd5b610b5a610e97565b806001600160a01b03163b600003610f2357604051634c9c8ce360e01b81526001600160a01b038216600482015260240161048f565b7f360894a13ba1a3210667c828492db98dca3e2076cc3735a920a3ca505d382bbc80546001600160a01b0319166001600160a01b0392909216919091179055565b6060600080846001600160a01b031684604051610f81919061123c565b600060405180830381855af49150503d8060008114610fbc576040519150601f19603f3d011682016040523d82523d6000602084013e610fc1565b606091505b5091509150610fd1858383610ff9565b95945050505050565b34156103d05760405163b398979f60e01b815260040160405180910390fd5b60608261100e5761100982611058565b611051565b815115801561102557506001600160a01b0384163b155b1561104e57604051639996b31560e01b81526001600160a01b038516600482015260240161048f565b50805b9392505050565b8051156110685780518082602001fd5b604051630a12f52160e11b815260040160405180910390fd5b80356001600160a01b038116811461109857600080fd5b919050565b6000602082840312156110af57600080fd5b61105182611081565b634e487b7160e01b600052604160045260246000fd5b600080604083850312156110e157600080fd5b6110ea83611081565b9150602083013567ffffffffffffffff8082111561110757600080fd5b818501915085601f83011261111b57600080fd5b81358181111561112d5761112d6110b8565b604051601f8201601f19908116603f01168101908382118183101715611155576111556110b8565b8160405282815288602084870101111561116e57600080fd5b8260208601602083013760006020848301015280955050505050509250929050565b6000602082840312156111a257600080fd5b81358060070b811461105157600080fd5b60005b838110156111ce5781810151838201526020016111b6565b50506000910152565b60208152600082518060208401526111f68160408501602087016111b3565b601f01601f19169190910160400192915050565b60006020828403121561121c57600080fd5b5035919050565b60006020828403121561123557600080fd5b5051919050565b6000825161124e8184602087016111b3565b9190910192915050565b60006020828403121561126a57600080fd5b81518060030b811461105157600080fd5b60006020828403121561128d57600080fd5b8151801515811461105157600080fdfea2646970667358221220e7b0fb7eafb3f2f60aa865230ec86b525ed788ebff91bb0c84992efd8adbbfd664736f6c63430008140033",
  "linkReferences": {},
  "deployedLinkReferences": {}
}