{
  "_format": "hh-sol-artifact-1",
  "contractName": "Exchange",
  "sourceName": "contracts/proxy-upgrade/exchange/Exchange.sol",
  "abi": [
    {
      "anonymous": false,
      "inputs": [
        {
          "indexed": false,
          "internalType": "address",
          "name": "previousAdmin",
          "type": "address"
        },
        {
          "indexed": false,
          "internalType": "address",
          "name": "newAdmin",
          "type": "address"
        }
      ],
      "name": "AdminChanged",
      "type": "event"
    },
    {
      "anonymous": false,
      "inputs": [
        {
          "indexed": true,
          "internalType": "address",
          "name": "beacon",
          "type": "address"
        }
      ],
      "name": "BeaconUpgraded",
      "type": "event"
    },
    {
      "anonymous": false,
      "inputs": [
        {
          "indexed": false,
          "internalType": "uint8",
          "name": "version",
          "type": "uint8"
        }
      ],
      "name": "Initialized",
      "type": "event"
    },
    {
      "anonymous": false,
      "inputs": [
        {
          "indexed": true,
          "internalType": "address",
          "name": "previousOwner",
          "type": "address"
        },
        {
          "indexed": true,
          "internalType": "address",
          "name": "newOwner",
          "type": "address"
        }
      ],
      "name": "OwnershipTransferred",
      "type": "event"
    },
    {
      "anonymous": false,
      "inputs": [
        {
          "indexed": true,
          "internalType": "address",
          "name": "implementation",
          "type": "address"
        }
      ],
      "name": "Upgraded",
      "type": "event"
    },
    {
      "inputs": [],
      "name": "associateToken",
      "outputs": [
        {
          "internalType": "int256",
          "name": "responseCode",
          "type": "int256"
        }
      ],
      "stateMutability": "nonpayable",
      "type": "function"
    },
    {
      "inputs": [],
      "name": "buy",
      "outputs": [],
      "stateMutability": "payable",
      "type": "function"
    },
    {
      "inputs": [],
      "name": "deposit",
      "outputs": [],
      "stateMutability": "payable",
      "type": "function"
    },
    {
      "inputs": [
        {
          "internalType": "int64",
          "name": "amount",
          "type": "int64"
        }
      ],
      "name": "depositTokens",
      "outputs": [
        {
          "internalType": "int256",
          "name": "responseCode",
          "type": "int256"
        }
      ],
      "stateMutability": "nonpayable",
      "type": "function"
    },
    {
      "inputs": [],
      "name": "getImplementationAddress",
      "outputs": [
        {
          "internalType": "address",
          "name": "",
          "type": "address"
        }
      ],
      "stateMutability": "view",
      "type": "function"
    },
    {
      "inputs": [],
      "name": "getNativeBalance",
      "outputs": [
        {
          "internalType": "uint256",
          "name": "",
          "type": "uint256"
        }
      ],
      "stateMutability": "view",
      "type": "function"
    },
    {
      "inputs": [],
      "name": "getTokenBalance",
      "outputs": [
        {
          "internalType": "uint256",
          "name": "",
          "type": "uint256"
        }
      ],
      "stateMutability": "view",
      "type": "function"
    },
    {
      "inputs": [
        {
          "internalType": "address",
          "name": "token",
          "type": "address"
        }
      ],
      "name": "initialize",
      "outputs": [],
      "stateMutability": "nonpayable",
      "type": "function"
    },
    {
      "inputs": [],
      "name": "owner",
      "outputs": [
        {
          "internalType": "address",
          "name": "",
          "type": "address"
        }
      ],
      "stateMutability": "view",
      "type": "function"
    },
    {
      "inputs": [],
      "name": "proxiableUUID",
      "outputs": [
        {
          "internalType": "bytes32",
          "name": "",
          "type": "bytes32"
        }
      ],
      "stateMutability": "view",
      "type": "function"
    },
    {
      "inputs": [],
      "name": "renounceOwnership",
      "outputs": [],
      "stateMutability": "nonpayable",
      "type": "function"
    },
    {
      "inputs": [
        {
          "internalType": "uint256",
          "name": "amount",
          "type": "uint256"
        }
      ],
      "name": "sell",
      "outputs": [],
      "stateMutability": "nonpayable",
      "type": "function"
    },
    {
      "inputs": [],
      "name": "tokenAddress",
      "outputs": [
        {
          "internalType": "address",
          "name": "",
          "type": "address"
        }
      ],
      "stateMutability": "view",
      "type": "function"
    },
    {
      "inputs": [
        {
          "internalType": "address",
          "name": "newOwner",
          "type": "address"
        }
      ],
      "name": "transferOwnership",
      "outputs": [],
      "stateMutability": "nonpayable",
      "type": "function"
    },
    {
      "inputs": [
        {
          "internalType": "address",
          "name": "newImplementation",
          "type": "address"
        }
      ],
      "name": "upgradeTo",
      "outputs": [],
      "stateMutability": "nonpayable",
      "type": "function"
    },
    {
      "inputs": [
        {
          "internalType": "address",
          "name": "newImplementation",
          "type": "address"
        },
        {
          "internalType": "bytes",
          "name": "data",
          "type": "bytes"
        }
      ],
      "name": "upgradeToAndCall",
      "outputs": [],
      "stateMutability": "payable",
      "type": "function"
    }
  ],
  "bytecode": "0x60a06040523060805234801561001457600080fd5b506080516116fc61004c600039600081816102e50152818161036f01528181610466015281816104eb01526105d501526116fc6000f3fe6080604052600436106100f35760003560e01c80638f3ea0171161008a578063d0e30db011610059578063d0e30db014610245578063e4849b321461024d578063ec904f191461026d578063f2fde38b1461028257600080fd5b80638f3ea017146101dd5780639d76ea58146101fd578063a6f2ae3a1461021d578063c4d66de81461022557600080fd5b8063715018a6116100c6578063715018a61461018257806382b2e2571461019757806388a9d554146101ac5780638da5cb5b146101bf57600080fd5b80630cbcae70146100f85780633659cfe61461012a5780634f1ef2861461014c57806352d1902d1461015f575b600080fd5b34801561010457600080fd5b5061010d6102a2565b6040516001600160a01b0390911681526020015b60405180910390f35b34801561013657600080fd5b5061014a610145366004611497565b6102da565b005b61014a61015a3660046114c8565b61045b565b34801561016b57600080fd5b506101746105c8565b604051908152602001610121565b34801561018e57600080fd5b5061014a61068d565b3480156101a357600080fd5b506101746106a1565b3480156101b857600080fd5b5047610174565b3480156101cb57600080fd5b506033546001600160a01b031661010d565b3480156101e957600080fd5b506101746101f836600461158a565b61071d565b34801561020957600080fd5b5060c95461010d906001600160a01b031681565b61014a610860565b34801561023157600080fd5b5061014a610240366004611497565b610a15565b61014a610b50565b34801561025957600080fd5b5061014a6102683660046115ad565b610ba0565b34801561027957600080fd5b50610174610d8a565b34801561028e57600080fd5b5061014a61029d366004611497565b610e6a565b60006102d57f360894a13ba1a3210667c828492db98dca3e2076cc3735a920a3ca505d382bbc546001600160a01b031690565b905090565b306001600160a01b037f000000000000000000000000000000000000000000000000000000000000000016141561036d5760405162461bcd60e51b815260206004820152602c60248201527f46756e6374696f6e206d7573742062652063616c6c6564207468726f7567682060448201526b19195b1959d85d1958d85b1b60a21b60648201526084015b60405180910390fd5b7f00000000000000000000000000000000000000000000000000000000000000006001600160a01b03166103c87f360894a13ba1a3210667c828492db98dca3e2076cc3735a920a3ca505d382bbc546001600160a01b031690565b6001600160a01b0316146104335760405162461bcd60e51b815260206004820152602c60248201527f46756e6374696f6e206d7573742062652063616c6c6564207468726f7567682060448201526b6163746976652070726f787960a01b6064820152608401610364565b61043c81610ee0565b6040805160008082526020820190925261045891839190610ee8565b50565b306001600160a01b037f00000000000000000000000000000000000000000000000000000000000000001614156104e95760405162461bcd60e51b815260206004820152602c60248201527f46756e6374696f6e206d7573742062652063616c6c6564207468726f7567682060448201526b19195b1959d85d1958d85b1b60a21b6064820152608401610364565b7f00000000000000000000000000000000000000000000000000000000000000006001600160a01b03166105447f360894a13ba1a3210667c828492db98dca3e2076cc3735a920a3ca505d382bbc546001600160a01b031690565b6001600160a01b0316146105af5760405162461bcd60e51b815260206004820152602c60248201527f46756e6374696f6e206d7573742062652063616c6c6564207468726f7567682060448201526b6163746976652070726f787960a01b6064820152608401610364565b6105b882610ee0565b6105c482826001610ee8565b5050565b6000306001600160a01b037f000000000000000000000000000000000000000000000000000000000000000016146106685760405162461bcd60e51b815260206004820152603860248201527f555550535570677261646561626c653a206d757374206e6f742062652063616c60448201527f6c6564207468726f7567682064656c656761746563616c6c00000000000000006064820152608401610364565b507f360894a13ba1a3210667c828492db98dca3e2076cc3735a920a3ca505d382bbc90565b610695611083565b61069f60006110dd565b565b60c9546040516370a0823160e01b81523060048201526000916001600160a01b0316906370a082319060240160206040518083038186803b1580156106e557600080fd5b505afa1580156106f9573d6000803e3d6000fd5b505050506040513d601f19601f820116820180604052508101906102d591906115c6565b6000808260070b136107715760405162461bcd60e51b815260206004820181905260248201527f596f75206861766520746f206465706f736974206d6f7265207468616e20302e6044820152606401610364565b60c954604080516001600160a01b039092166024830152336044830152306064830152600784900b6084808401919091528151808403909101815260a490920181526020820180516001600160e01b031663eca3691760e01b179052516000918291610167916107e09161160b565b6000604051808303816000865af19150503d806000811461081d576040519150601f19603f3d011682016040523d82523d6000602084013e610822565b606091505b509150915081610833576015610847565b808060200190518101906108479190611627565b60030b92506016831461085957600080fd5b5050919050565b60c9546040516370a0823160e01b815230600482015234916000916001600160a01b03909116906370a082319060240160206040518083038186803b1580156108a857600080fd5b505afa1580156108bc573d6000803e3d6000fd5b505050506040513d601f19601f820116820180604052508101906108e091906115c6565b9050600082116109325760405162461bcd60e51b815260206004820152601b60248201527f596f75206e65656420746f2073656e6420736f6d6520484241522e00000000006044820152606401610364565b8082111561098c5760405162461bcd60e51b815260206004820152602160248201527f4e6f7420656e6f75676820746f6b656e7320696e2074686520726573657276656044820152601760f91b6064820152608401610364565b60c95460405163a9059cbb60e01b8152336004820152602481018490526001600160a01b039091169063a9059cbb90604401602060405180830381600087803b1580156109d857600080fd5b505af11580156109ec573d6000803e3d6000fd5b505050506040513d601f19601f82011682018060405250810190610a10919061164a565b505050565b600054610100900460ff1615808015610a355750600054600160ff909116105b80610a4f5750303b158015610a4f575060005460ff166001145b610ac15760405162461bcd60e51b815260206004820152602e60248201527f496e697469616c697a61626c653a20636f6e747261637420697320616c72656160448201527f647920696e697469616c697a65640000000000000000000000000000000000006064820152608401610364565b6000805460ff191660011790558015610ae4576000805461ff0019166101001790555b60c980546001600160a01b0319166001600160a01b038416179055610b0761112f565b80156105c4576000805461ff0019169055604051600181527f7f26b83ff96e1f2b6a682f133852f6798a09c465da95921460cefb38474024989060200160405180910390a15050565b6000341161069f5760405162461bcd60e51b815260206004820181905260248201527f596f75206861766520746f206465706f736974206d6f7265207468616e20302e6044820152606401610364565b60008111610bfe5760405162461bcd60e51b815260206004820152602560248201527f596f75206e65656420746f2073656c6c206174206c6561737420736f6d6520746044820152646f6b656e7360d81b6064820152608401610364565b60c954604051636eb1769f60e11b81523360048201523060248201526000916001600160a01b03169063dd62ed3e9060440160206040518083038186803b158015610c4857600080fd5b505afa158015610c5c573d6000803e3d6000fd5b505050506040513d601f19601f82011682018060405250810190610c8091906115c6565b905081811015610cd25760405162461bcd60e51b815260206004820152601960248201527f436865636b2074686520746f6b656e20616c6c6f77616e6365000000000000006044820152606401610364565b60c9546040516323b872dd60e01b8152336004820152306024820152604481018490526001600160a01b03909116906323b872dd90606401602060405180830381600087803b158015610d2457600080fd5b505af1158015610d38573d6000803e3d6000fd5b505050506040513d601f19601f82011682018060405250810190610d5c919061164a565b50604051339083156108fc029084906000818181858888f19350505050158015610a10573d6000803e3d6000fd5b60c954604080513060248201526001600160a01b0390921660448084019190915281518084039091018152606490920181526020820180516001600160e01b031663248a35ef60e11b179052516000918291829161016791610dec919061160b565b6000604051808303816000865af19150503d8060008114610e29576040519150601f19603f3d011682016040523d82523d6000602084013e610e2e565b606091505b509150915081610e3f576015610e53565b80806020019051810190610e539190611627565b60030b925060168314610e6557600080fd5b505090565b610e72611083565b6001600160a01b038116610ed75760405162461bcd60e51b815260206004820152602660248201527f4f776e61626c653a206e6577206f776e657220697320746865207a65726f206160448201526564647265737360d01b6064820152608401610364565b610458816110dd565b610458611083565b7f4910fdfa16fed3260ed0e7147f7cc6da11a60208b5b9406d12a635614ffd91435460ff1615610f1b57610a10836111a2565b826001600160a01b03166352d1902d6040518163ffffffff1660e01b815260040160206040518083038186803b158015610f5457600080fd5b505afa925050508015610f84575060408051601f3d908101601f19168201909252610f81918101906115c6565b60015b610ff65760405162461bcd60e51b815260206004820152602e60248201527f45524331393637557067726164653a206e657720696d706c656d656e7461746960448201527f6f6e206973206e6f7420555550530000000000000000000000000000000000006064820152608401610364565b7f360894a13ba1a3210667c828492db98dca3e2076cc3735a920a3ca505d382bbc81146110775760405162461bcd60e51b815260206004820152602960248201527f45524331393637557067726164653a20756e737570706f727465642070726f786044820152681a58589b195555525160ba1b6064820152608401610364565b50610a10838383611250565b6033546001600160a01b0316331461069f5760405162461bcd60e51b815260206004820181905260248201527f4f776e61626c653a2063616c6c6572206973206e6f7420746865206f776e65726044820152606401610364565b603380546001600160a01b038381166001600160a01b0319831681179093556040519116919082907f8be0079c531659141344cd1fd0a4f28419497f9722a3daafe3b4186f6b6457e090600090a35050565b600054610100900460ff1661119a5760405162461bcd60e51b815260206004820152602b60248201527f496e697469616c697a61626c653a20636f6e7472616374206973206e6f74206960448201526a6e697469616c697a696e6760a81b6064820152608401610364565b61069f61127b565b6001600160a01b0381163b61120f5760405162461bcd60e51b815260206004820152602d60248201527f455243313936373a206e657720696d706c656d656e746174696f6e206973206e60448201526c1bdd08184818dbdb9d1c9858dd609a1b6064820152608401610364565b7f360894a13ba1a3210667c828492db98dca3e2076cc3735a920a3ca505d382bbc80546001600160a01b0319166001600160a01b0392909216919091179055565b611259836112ef565b6000825111806112665750805b15610a1057611275838361132f565b50505050565b600054610100900460ff166112e65760405162461bcd60e51b815260206004820152602b60248201527f496e697469616c697a61626c653a20636f6e7472616374206973206e6f74206960448201526a6e697469616c697a696e6760a81b6064820152608401610364565b61069f336110dd565b6112f8816111a2565b6040516001600160a01b038216907fbc7cd75a20ee27fd9adebab32041f755214dbc6bffa90cc0225b39da2e5c2d3b90600090a250565b606061135483836040518060600160405280602781526020016116a06027913961135b565b9392505050565b6060600080856001600160a01b031685604051611378919061160b565b600060405180830381855af49150503d80600081146113b3576040519150601f19603f3d011682016040523d82523d6000602084013e6113b8565b606091505b50915091506113c9868383876113d3565b9695505050505050565b6060831561143f578251611438576001600160a01b0385163b6114385760405162461bcd60e51b815260206004820152601d60248201527f416464726573733a2063616c6c20746f206e6f6e2d636f6e74726163740000006044820152606401610364565b5081611449565b6114498383611451565b949350505050565b8151156114615781518083602001fd5b8060405162461bcd60e51b8152600401610364919061166c565b80356001600160a01b038116811461149257600080fd5b919050565b6000602082840312156114a957600080fd5b6113548261147b565b634e487b7160e01b600052604160045260246000fd5b600080604083850312156114db57600080fd5b6114e48361147b565b9150602083013567ffffffffffffffff8082111561150157600080fd5b818501915085601f83011261151557600080fd5b813581811115611527576115276114b2565b604051601f8201601f19908116603f0116810190838211818310171561154f5761154f6114b2565b8160405282815288602084870101111561156857600080fd5b8260208601602083013760006020848301015280955050505050509250929050565b60006020828403121561159c57600080fd5b81358060070b811461135457600080fd5b6000602082840312156115bf57600080fd5b5035919050565b6000602082840312156115d857600080fd5b5051919050565b60005b838110156115fa5781810151838201526020016115e2565b838111156112755750506000910152565b6000825161161d8184602087016115df565b9190910192915050565b60006020828403121561163957600080fd5b81518060030b811461135457600080fd5b60006020828403121561165c57600080fd5b8151801515811461135457600080fd5b602081526000825180602084015261168b8160408501602087016115df565b601f01601f1916919091016040019291505056fe416464726573733a206c6f772d6c6576656c2064656c65676174652063616c6c206661696c6564a2646970667358221220abd56999ce4af1f6b51828ac8c1b4acdcbe4242044aeb4f3f2eae70ac7db39a364736f6c63430008090033",
  "linkReferences": {},
  "deployedLinkReferences": {}
}