{
  "_format": "hh-sol-artifact-1",
  "contractName": "Exchange",
  "sourceName": "contracts/proxy-upgrade/exchange/Exchange.sol",
  "abi": [
    {
      "anonymous": false,
      "inputs": [
        {
          "indexed": false,
          "internalType": "address",
          "name": "previousAdmin",
          "type": "address"
        },
        {
          "indexed": false,
          "internalType": "address",
          "name": "newAdmin",
          "type": "address"
        }
      ],
      "name": "AdminChanged",
      "type": "event"
    },
    {
      "anonymous": false,
      "inputs": [
        {
          "indexed": true,
          "internalType": "address",
          "name": "beacon",
          "type": "address"
        }
      ],
      "name": "BeaconUpgraded",
      "type": "event"
    },
    {
      "anonymous": false,
      "inputs": [
        {
          "indexed": false,
          "internalType": "uint8",
          "name": "version",
          "type": "uint8"
        }
      ],
      "name": "Initialized",
      "type": "event"
    },
    {
      "anonymous": false,
      "inputs": [
        {
          "indexed": true,
          "internalType": "address",
          "name": "previousOwner",
          "type": "address"
        },
        {
          "indexed": true,
          "internalType": "address",
          "name": "newOwner",
          "type": "address"
        }
      ],
      "name": "OwnershipTransferred",
      "type": "event"
    },
    {
      "anonymous": false,
      "inputs": [
        {
          "indexed": true,
          "internalType": "address",
          "name": "implementation",
          "type": "address"
        }
      ],
      "name": "Upgraded",
      "type": "event"
    },
    {
      "inputs": [],
      "name": "associateToken",
      "outputs": [
        {
          "internalType": "int256",
          "name": "responseCode",
          "type": "int256"
        }
      ],
      "stateMutability": "nonpayable",
      "type": "function"
    },
    {
      "inputs": [],
      "name": "buy",
      "outputs": [],
      "stateMutability": "payable",
      "type": "function"
    },
    {
      "inputs": [],
      "name": "deposit",
      "outputs": [],
      "stateMutability": "payable",
      "type": "function"
    },
    {
      "inputs": [
        {
          "internalType": "int64",
          "name": "amount",
          "type": "int64"
        }
      ],
      "name": "depositTokens",
      "outputs": [
        {
          "internalType": "int256",
          "name": "responseCode",
          "type": "int256"
        }
      ],
      "stateMutability": "nonpayable",
      "type": "function"
    },
    {
      "inputs": [],
      "name": "getImplementationAddress",
      "outputs": [
        {
          "internalType": "address",
          "name": "",
          "type": "address"
        }
      ],
      "stateMutability": "view",
      "type": "function"
    },
    {
      "inputs": [],
      "name": "getNativeBalance",
      "outputs": [
        {
          "internalType": "uint256",
          "name": "",
          "type": "uint256"
        }
      ],
      "stateMutability": "view",
      "type": "function"
    },
    {
      "inputs": [],
      "name": "getTokenBalance",
      "outputs": [
        {
          "internalType": "uint256",
          "name": "",
          "type": "uint256"
        }
      ],
      "stateMutability": "view",
      "type": "function"
    },
    {
      "inputs": [
        {
          "internalType": "address",
          "name": "token",
          "type": "address"
        }
      ],
      "name": "initialize",
      "outputs": [],
      "stateMutability": "nonpayable",
      "type": "function"
    },
    {
      "inputs": [],
      "name": "owner",
      "outputs": [
        {
          "internalType": "address",
          "name": "",
          "type": "address"
        }
      ],
      "stateMutability": "view",
      "type": "function"
    },
    {
      "inputs": [],
      "name": "proxiableUUID",
      "outputs": [
        {
          "internalType": "bytes32",
          "name": "",
          "type": "bytes32"
        }
      ],
      "stateMutability": "view",
      "type": "function"
    },
    {
      "inputs": [],
      "name": "renounceOwnership",
      "outputs": [],
      "stateMutability": "nonpayable",
      "type": "function"
    },
    {
      "inputs": [
        {
          "internalType": "uint256",
          "name": "amount",
          "type": "uint256"
        }
      ],
      "name": "sell",
      "outputs": [],
      "stateMutability": "nonpayable",
      "type": "function"
    },
    {
      "inputs": [],
      "name": "tokenAddress",
      "outputs": [
        {
          "internalType": "address",
          "name": "",
          "type": "address"
        }
      ],
      "stateMutability": "view",
      "type": "function"
    },
    {
      "inputs": [
        {
          "internalType": "address",
          "name": "newOwner",
          "type": "address"
        }
      ],
      "name": "transferOwnership",
      "outputs": [],
      "stateMutability": "nonpayable",
      "type": "function"
    },
    {
      "inputs": [
        {
          "internalType": "address",
          "name": "newImplementation",
          "type": "address"
        }
      ],
      "name": "upgradeTo",
      "outputs": [],
      "stateMutability": "nonpayable",
      "type": "function"
    },
    {
      "inputs": [
        {
          "internalType": "address",
          "name": "newImplementation",
          "type": "address"
        },
        {
          "internalType": "bytes",
          "name": "data",
          "type": "bytes"
        }
      ],
      "name": "upgradeToAndCall",
      "outputs": [],
      "stateMutability": "payable",
      "type": "function"
    }
  ],
  "bytecode": "0x60a060405230608052348015610013575f80fd5b506080516116376100485f395f81816102d10152818161035b01528181610450015281816104d501526105be01526116375ff3fe6080604052600436106100ef575f3560e01c80638f3ea01711610087578063d0e30db011610057578063d0e30db014610236578063e4849b321461023e578063ec904f191461025d578063f2fde38b14610271575f80fd5b80638f3ea017146101d15780639d76ea58146101f0578063a6f2ae3a1461020f578063c4d66de814610217575f80fd5b8063715018a6116100c2578063715018a61461017a57806382b2e2571461018e57806388a9d554146101a25780638da5cb5b146101b4575f80fd5b80630cbcae70146100f35780633659cfe6146101245780634f1ef2861461014557806352d1902d14610158575b5f80fd5b3480156100fe575f80fd5b50610107610290565b6040516001600160a01b0390911681526020015b60405180910390f35b34801561012f575f80fd5b5061014361013e3660046113f5565b6102c7565b005b610143610153366004611422565b610446565b348015610163575f80fd5b5061016c6105b2565b60405190815260200161011b565b348015610185575f80fd5b50610143610676565b348015610199575f80fd5b5061016c610689565b3480156101ad575f80fd5b504761016c565b3480156101bf575f80fd5b506033546001600160a01b0316610107565b3480156101dc575f80fd5b5061016c6101eb3660046114de565b6106f3565b3480156101fb575f80fd5b5060c954610107906001600160a01b031681565b61014361082f565b348015610222575f80fd5b506101436102313660046113f5565b6109bf565b610143610af4565b348015610249575f80fd5b506101436102583660046114fe565b610b43565b348015610268575f80fd5b5061016c610d05565b34801561027c575f80fd5b5061014361028b3660046113f5565b610ddf565b5f6102c27f360894a13ba1a3210667c828492db98dca3e2076cc3735a920a3ca505d382bbc546001600160a01b031690565b905090565b6001600160a01b037f00000000000000000000000000000000000000000000000000000000000000001630036103595760405162461bcd60e51b815260206004820152602c60248201527f46756e6374696f6e206d7573742062652063616c6c6564207468726f7567682060448201526b19195b1959d85d1958d85b1b60a21b60648201526084015b60405180910390fd5b7f00000000000000000000000000000000000000000000000000000000000000006001600160a01b03166103b47f360894a13ba1a3210667c828492db98dca3e2076cc3735a920a3ca505d382bbc546001600160a01b031690565b6001600160a01b03161461041f5760405162461bcd60e51b815260206004820152602c60248201527f46756e6374696f6e206d7573742062652063616c6c6564207468726f7567682060448201526b6163746976652070726f787960a01b6064820152608401610350565b61042881610e55565b604080515f8082526020820190925261044391839190610e5d565b50565b6001600160a01b037f00000000000000000000000000000000000000000000000000000000000000001630036104d35760405162461bcd60e51b815260206004820152602c60248201527f46756e6374696f6e206d7573742062652063616c6c6564207468726f7567682060448201526b19195b1959d85d1958d85b1b60a21b6064820152608401610350565b7f00000000000000000000000000000000000000000000000000000000000000006001600160a01b031661052e7f360894a13ba1a3210667c828492db98dca3e2076cc3735a920a3ca505d382bbc546001600160a01b031690565b6001600160a01b0316146105995760405162461bcd60e51b815260206004820152602c60248201527f46756e6374696f6e206d7573742062652063616c6c6564207468726f7567682060448201526b6163746976652070726f787960a01b6064820152608401610350565b6105a282610e55565b6105ae82826001610e5d565b5050565b5f306001600160a01b037f000000000000000000000000000000000000000000000000000000000000000016146106515760405162461bcd60e51b815260206004820152603860248201527f555550535570677261646561626c653a206d757374206e6f742062652063616c60448201527f6c6564207468726f7567682064656c656761746563616c6c00000000000000006064820152608401610350565b507f360894a13ba1a3210667c828492db98dca3e2076cc3735a920a3ca505d382bbc90565b61067e610fe9565b6106875f611043565b565b60c9546040516370a0823160e01b81523060048201525f916001600160a01b0316906370a0823190602401602060405180830381865afa1580156106cf573d5f803e3d5ffd5b505050506040513d601f19601f820116820180604052508101906102c29190611515565b5f808260070b136107465760405162461bcd60e51b815260206004820181905260248201527f596f75206861766520746f206465706f736974206d6f7265207468616e20302e6044820152606401610350565b60c954604080516001600160a01b039092166024830152336044830152306064830152600784900b6084808401919091528151808403909101815260a490920181526020820180516001600160e01b031663eca3691760e01b179052515f918291610167916107b49161154e565b5f604051808303815f865af19150503d805f81146107ed576040519150601f19603f3d011682016040523d82523d5f602084013e6107f2565b606091505b509150915081610803576015610817565b808060200190518101906108179190611569565b60030b925060168314610828575f80fd5b5050919050565b60c9546040516370a0823160e01b815230600482015234915f916001600160a01b03909116906370a0823190602401602060405180830381865afa158015610879573d5f803e3d5ffd5b505050506040513d601f19601f8201168201806040525081019061089d9190611515565b90505f82116108ee5760405162461bcd60e51b815260206004820152601b60248201527f596f75206e65656420746f2073656e6420736f6d6520484241522e00000000006044820152606401610350565b808211156109485760405162461bcd60e51b815260206004820152602160248201527f4e6f7420656e6f75676820746f6b656e7320696e2074686520726573657276656044820152601760f91b6064820152608401610350565b60c95460405163a9059cbb60e01b8152336004820152602481018490526001600160a01b039091169063a9059cbb906044016020604051808303815f875af1158015610996573d5f803e3d5ffd5b505050506040513d601f19601f820116820180604052508101906109ba9190611589565b505050565b5f54610100900460ff16158080156109dd57505f54600160ff909116105b806109f65750303b1580156109f657505f5460ff166001145b610a685760405162461bcd60e51b815260206004820152602e60248201527f496e697469616c697a61626c653a20636f6e747261637420697320616c72656160448201527f647920696e697469616c697a65640000000000000000000000000000000000006064820152608401610350565b5f805460ff191660011790558015610a89575f805461ff0019166101001790555b60c980546001600160a01b0319166001600160a01b038416179055610aac611094565b80156105ae575f805461ff0019169055604051600181527f7f26b83ff96e1f2b6a682f133852f6798a09c465da95921460cefb38474024989060200160405180910390a15050565b5f34116106875760405162461bcd60e51b815260206004820181905260248201527f596f75206861766520746f206465706f736974206d6f7265207468616e20302e6044820152606401610350565b5f8111610ba05760405162461bcd60e51b815260206004820152602560248201527f596f75206e65656420746f2073656c6c206174206c6561737420736f6d6520746044820152646f6b656e7360d81b6064820152608401610350565b60c954604051636eb1769f60e11b81523360048201523060248201525f916001600160a01b03169063dd62ed3e90604401602060405180830381865afa158015610bec573d5f803e3d5ffd5b505050506040513d601f19601f82011682018060405250810190610c109190611515565b905081811015610c625760405162461bcd60e51b815260206004820152601960248201527f436865636b2074686520746f6b656e20616c6c6f77616e6365000000000000006044820152606401610350565b60c9546040516323b872dd60e01b8152336004820152306024820152604481018490526001600160a01b03909116906323b872dd906064016020604051808303815f875af1158015610cb6573d5f803e3d5ffd5b505050506040513d601f19601f82011682018060405250810190610cda9190611589565b50604051339083156108fc029084905f818181858888f193505050501580156109ba573d5f803e3d5ffd5b60c954604080513060248201526001600160a01b0390921660448084019190915281518084039091018152606490920181526020820180516001600160e01b031663248a35ef60e11b179052515f918291829161016791610d66919061154e565b5f604051808303815f865af19150503d805f8114610d9f576040519150601f19603f3d011682016040523d82523d5f602084013e610da4565b606091505b509150915081610db5576015610dc9565b80806020019051810190610dc99190611569565b60030b925060168314610dda575f80fd5b505090565b610de7610fe9565b6001600160a01b038116610e4c5760405162461bcd60e51b815260206004820152602660248201527f4f776e61626c653a206e6577206f776e657220697320746865207a65726f206160448201526564647265737360d01b6064820152608401610350565b61044381611043565b610443610fe9565b7f4910fdfa16fed3260ed0e7147f7cc6da11a60208b5b9406d12a635614ffd91435460ff1615610e90576109ba83611106565b826001600160a01b03166352d1902d6040518163ffffffff1660e01b8152600401602060405180830381865afa925050508015610eea575060408051601f3d908101601f19168201909252610ee791810190611515565b60015b610f5c5760405162461bcd60e51b815260206004820152602e60248201527f45524331393637557067726164653a206e657720696d706c656d656e7461746960448201527f6f6e206973206e6f7420555550530000000000000000000000000000000000006064820152608401610350565b7f360894a13ba1a3210667c828492db98dca3e2076cc3735a920a3ca505d382bbc8114610fdd5760405162461bcd60e51b815260206004820152602960248201527f45524331393637557067726164653a20756e737570706f727465642070726f786044820152681a58589b195555525160ba1b6064820152608401610350565b506109ba8383836111b4565b6033546001600160a01b031633146106875760405162461bcd60e51b815260206004820181905260248201527f4f776e61626c653a2063616c6c6572206973206e6f7420746865206f776e65726044820152606401610350565b603380546001600160a01b038381166001600160a01b0319831681179093556040519116919082907f8be0079c531659141344cd1fd0a4f28419497f9722a3daafe3b4186f6b6457e0905f90a35050565b5f54610100900460ff166110fe5760405162461bcd60e51b815260206004820152602b60248201527f496e697469616c697a61626c653a20636f6e7472616374206973206e6f74206960448201526a6e697469616c697a696e6760a81b6064820152608401610350565b6106876111de565b6001600160a01b0381163b6111735760405162461bcd60e51b815260206004820152602d60248201527f455243313936373a206e657720696d706c656d656e746174696f6e206973206e60448201526c1bdd08184818dbdb9d1c9858dd609a1b6064820152608401610350565b7f360894a13ba1a3210667c828492db98dca3e2076cc3735a920a3ca505d382bbc80546001600160a01b0319166001600160a01b0392909216919091179055565b6111bd83611251565b5f825111806111c95750805b156109ba576111d88383611290565b50505050565b5f54610100900460ff166112485760405162461bcd60e51b815260206004820152602b60248201527f496e697469616c697a61626c653a20636f6e7472616374206973206e6f74206960448201526a6e697469616c697a696e6760a81b6064820152608401610350565b61068733611043565b61125a81611106565b6040516001600160a01b038216907fbc7cd75a20ee27fd9adebab32041f755214dbc6bffa90cc0225b39da2e5c2d3b905f90a250565b60606112b583836040518060600160405280602781526020016115db602791396112bc565b9392505050565b60605f80856001600160a01b0316856040516112d8919061154e565b5f60405180830381855af49150503d805f8114611310576040519150601f19603f3d011682016040523d82523d5f602084013e611315565b606091505b509150915061132686838387611330565b9695505050505050565b6060831561139e5782515f03611397576001600160a01b0385163b6113975760405162461bcd60e51b815260206004820152601d60248201527f416464726573733a2063616c6c20746f206e6f6e2d636f6e74726163740000006044820152606401610350565b50816113a8565b6113a883836113b0565b949350505050565b8151156113c05781518083602001fd5b8060405162461bcd60e51b815260040161035091906115a8565b80356001600160a01b03811681146113f0575f80fd5b919050565b5f60208284031215611405575f80fd5b6112b5826113da565b634e487b7160e01b5f52604160045260245ffd5b5f8060408385031215611433575f80fd5b61143c836113da565b9150602083013567ffffffffffffffff80821115611458575f80fd5b818501915085601f83011261146b575f80fd5b81358181111561147d5761147d61140e565b604051601f8201601f19908116603f011681019083821181831017156114a5576114a561140e565b816040528281528860208487010111156114bd575f80fd5b826020860160208301375f6020848301015280955050505050509250929050565b5f602082840312156114ee575f80fd5b81358060070b81146112b5575f80fd5b5f6020828403121561150e575f80fd5b5035919050565b5f60208284031215611525575f80fd5b5051919050565b5f5b8381101561154657818101518382015260200161152e565b50505f910152565b5f825161155f81846020870161152c565b9190910192915050565b5f60208284031215611579575f80fd5b81518060030b81146112b5575f80fd5b5f60208284031215611599575f80fd5b815180151581146112b5575f80fd5b602081525f82518060208401526115c681604085016020870161152c565b601f01601f1916919091016040019291505056fe416464726573733a206c6f772d6c6576656c2064656c65676174652063616c6c206661696c6564a2646970667358221220861999d212ad577246ba3668337e3670ffcbb7ae735e3cc8b1780d4d8c829d6864736f6c63430008140033",
  "linkReferences": {},
  "deployedLinkReferences": {}
}