{
  "_format": "hh-sol-artifact-1",
  "contractName": "Counter",
  "sourceName": "contracts/Counter.sol",
  "abi": [
    {
      "inputs": [],
      "name": "increment",
      "outputs": [],
      "stateMutability": "nonpayable",
      "type": "function"
    },
    {
      "inputs": [],
      "name": "number",
      "outputs": [
        {
          "internalType": "uint256",
          "name": "",
          "type": "uint256"
        }
      ],
      "stateMutability": "view",
      "type": "function"
    },
    {
      "inputs": [
        {
          "internalType": "uint256",
          "name": "newNumber",
          "type": "uint256"
        }
      ],
      "name": "setNumber",
      "outputs": [],
      "stateMutability": "nonpayable",
      "type": "function"
    }
  ],
  "bytecode": "0x608060405234801561001057600080fd5b506101f2806100206000396000f3fe608060405234801561001057600080fd5b50600436106100415760003560e01c80633fb5c1cb146100465780638381f58a14610062578063d09de08a14610080575b600080fd5b610060600480360381019061005b91906100ee565b61008a565b005b61006a610094565b604051610077919061012a565b60405180910390f35b61008861009a565b005b8060008190555050565b60005481565b6000808154809291906100ac90610174565b9190505550565b600080fd5b6000819050919050565b6100cb816100b8565b81146100d657600080fd5b50565b6000813590506100e8816100c2565b92915050565b600060208284031215610104576101036100b3565b5b6000610112848285016100d9565b91505092915050565b610124816100b8565b82525050565b600060208201905061013f600083018461011b565b92915050565b7f4e487b7100000000000000000000000000000000000000000000000000000000600052601160045260246000fd5b600061017f826100b8565b91507fffffffffffffffffffffffffffffffffffffffffffffffffffffffffffffffff82036101b1576101b0610145565b5b60018201905091905056fea2646970667358221220e82994505f8e6bd5303c6e06bd4e811fede29753f8c5df071834f5ec9593484564736f6c63430008140033",
  "linkReferences": {},
  "deployedLinkReferences": {}
}