{
  "_format": "hh-sol-artifact-1",
  "contractName": "HRC719Contract",
  "sourceName": "contracts/system-contracts/hedera-token-service/examples/hrc-719/HRC719Contract.sol",
  "abi": [
    {
      "anonymous": false,
      "inputs": [
        {
          "indexed": false,
          "internalType": "bool",
          "name": "status",
          "type": "bool"
        }
      ],
      "name": "IsAssociated",
      "type": "event"
    },
    {
      "inputs": [
        {
          "internalType": "address",
          "name": "token",
          "type": "address"
        }
      ],
      "name": "associate",
      "outputs": [
        {
          "internalType": "uint256",
          "name": "responseCode",
          "type": "uint256"
        }
      ],
      "stateMutability": "nonpayable",
      "type": "function"
    },
    {
      "inputs": [
        {
          "internalType": "address",
          "name": "token",
          "type": "address"
        }
      ],
      "name": "dissociate",
      "outputs": [
        {
          "internalType": "uint256",
          "name": "responseCode",
          "type": "uint256"
        }
      ],
      "stateMutability": "nonpayable",
      "type": "function"
    },
    {
      "inputs": [
        {
          "internalType": "address",
          "name": "token",
          "type": "address"
        }
      ],
      "name": "isAssociated",
      "outputs": [],
      "stateMutability": "nonpayable",
      "type": "function"
    }
  ],
  "bytecode": "0x608060405234801561000f575f80fd5b506102718061001d5f395ff3fe608060405234801561000f575f80fd5b506004361061003f575f3560e01c8063322e355014610043578063d55fe58214610068578063d89f31231461007d575b5f80fd5b6100566100513660046101d8565b610090565b60405190815260200160405180910390f35b61007b6100763660046101d8565b6100f8565b005b61005661008b3660046101d8565b61019a565b5f816001600160a01b0316635c9217e06040518163ffffffff1660e01b81526004016020604051808303815f875af11580156100ce573d5f803e3d5ffd5b505050506040513d601f19601f820116820180604052508101906100f29190610205565b92915050565b5f816001600160a01b0316634d8fdd6d6040518163ffffffff1660e01b8152600401602060405180830381865afa158015610135573d5f803e3d5ffd5b505050506040513d601f19601f82011682018060405250810190610159919061021c565b90507f69aab4f43be6895e531764e5a61651bff1a197b11793d3716ac700ad4030f6068160405161018e911515815260200190565b60405180910390a15050565b5f816001600160a01b0316630a754de66040518163ffffffff1660e01b81526004016020604051808303815f875af11580156100ce573d5f803e3d5ffd5b5f602082840312156101e8575f80fd5b81356001600160a01b03811681146101fe575f80fd5b9392505050565b5f60208284031215610215575f80fd5b5051919050565b5f6020828403121561022c575f80fd5b815180151581146101fe575f80fdfea264697066735822122051372f90f10f08b403ed42167b2a427adfb06faa6a83bfb804c350f5c3a5f2d264736f6c63430008180033",
  "linkReferences": {},
  "deployedLinkReferences": {}
}