{
  "_format": "hh-sol-artifact-1",
  "contractName": "TokenCreateContract",
  "sourceName": "contracts/hts-precompile/examples/token-create/TokenCreateContract.sol",
  "abi": [
    {
      "anonymous": false,
      "inputs": [
        {
          "indexed": false,
          "internalType": "bool",
          "name": "",
          "type": "bool"
        },
        {
          "indexed": false,
          "internalType": "bytes",
          "name": "",
          "type": "bytes"
        }
      ],
      "name": "CallResponseEvent",
      "type": "event"
    },
    {
      "anonymous": false,
      "inputs": [
        {
          "indexed": false,
          "internalType": "address",
          "name": "tokenAddress",
          "type": "address"
        }
      ],
      "name": "CreatedToken",
      "type": "event"
    },
    {
      "anonymous": false,
      "inputs": [
        {
          "indexed": false,
          "internalType": "bool",
          "name": "kycGranted",
          "type": "bool"
        }
      ],
      "name": "KycGranted",
      "type": "event"
    },
    {
      "anonymous": false,
      "inputs": [
        {
          "indexed": false,
          "internalType": "int64",
          "name": "newTotalSupply",
          "type": "int64"
        },
        {
          "indexed": false,
          "internalType": "int64[]",
          "name": "serialNumbers",
          "type": "int64[]"
        }
      ],
      "name": "MintedToken",
      "type": "event"
    },
    {
      "anonymous": false,
      "inputs": [
        {
          "indexed": false,
          "internalType": "int256",
          "name": "responseCode",
          "type": "int256"
        }
      ],
      "name": "ResponseCode",
      "type": "event"
    },
    {
      "inputs": [
        {
          "internalType": "address",
          "name": "token",
          "type": "address"
        },
        {
          "internalType": "address",
          "name": "spender",
          "type": "address"
        },
        {
          "internalType": "uint256",
          "name": "amount",
          "type": "uint256"
        }
      ],
      "name": "approvePublic",
      "outputs": [
        {
          "internalType": "int256",
          "name": "responseCode",
          "type": "int256"
        }
      ],
      "stateMutability": "nonpayable",
      "type": "function"
    },
    {
      "inputs": [
        {
          "internalType": "address",
          "name": "account",
          "type": "address"
        },
        {
          "internalType": "address",
          "name": "token",
          "type": "address"
        }
      ],
      "name": "associateTokenPublic",
      "outputs": [
        {
          "internalType": "int256",
          "name": "responseCode",
          "type": "int256"
        }
      ],
      "stateMutability": "nonpayable",
      "type": "function"
    },
    {
      "inputs": [
        {
          "internalType": "address",
          "name": "account",
          "type": "address"
        },
        {
          "internalType": "address[]",
          "name": "tokens",
          "type": "address[]"
        }
      ],
      "name": "associateTokensPublic",
      "outputs": [
        {
          "internalType": "int256",
          "name": "responseCode",
          "type": "int256"
        }
      ],
      "stateMutability": "nonpayable",
      "type": "function"
    },
    {
      "inputs": [
        {
          "internalType": "address",
          "name": "treasury",
          "type": "address"
        }
      ],
      "name": "createFungibleTokenPublic",
      "outputs": [],
      "stateMutability": "payable",
      "type": "function"
    },
    {
      "inputs": [
        {
          "internalType": "address",
          "name": "treasury",
          "type": "address"
        },
        {
          "internalType": "address",
          "name": "fixedFeeTokenAddress",
          "type": "address"
        }
      ],
      "name": "createFungibleTokenWithCustomFeesPublic",
      "outputs": [],
      "stateMutability": "payable",
      "type": "function"
    },
    {
      "inputs": [
        {
          "internalType": "address",
          "name": "treasury",
          "type": "address"
        },
        {
          "internalType": "bytes",
          "name": "adminKey",
          "type": "bytes"
        },
        {
          "internalType": "int64",
          "name": "amount",
          "type": "int64"
        }
      ],
      "name": "createFungibleTokenWithSECP256K1AdminKeyAssociateAndTransferToAddressPublic",
      "outputs": [],
      "stateMutability": "payable",
      "type": "function"
    },
    {
      "inputs": [
        {
          "internalType": "address",
          "name": "treasury",
          "type": "address"
        },
        {
          "internalType": "bytes",
          "name": "adminKey",
          "type": "bytes"
        }
      ],
      "name": "createFungibleTokenWithSECP256K1AdminKeyPublic",
      "outputs": [
        {
          "internalType": "address",
          "name": "",
          "type": "address"
        }
      ],
      "stateMutability": "payable",
      "type": "function"
    },
    {
      "inputs": [
        {
          "internalType": "address",
          "name": "treasury",
          "type": "address"
        },
        {
          "internalType": "bytes",
          "name": "adminKey",
          "type": "bytes"
        }
      ],
      "name": "createFungibleTokenWithSECP256K1AdminKeyWithoutKYCPublic",
      "outputs": [
        {
          "internalType": "address",
          "name": "",
          "type": "address"
        }
      ],
      "stateMutability": "payable",
      "type": "function"
    },
    {
      "inputs": [
        {
          "internalType": "address",
          "name": "treasury",
          "type": "address"
        }
      ],
      "name": "createNonFungibleTokenPublic",
      "outputs": [],
      "stateMutability": "payable",
      "type": "function"
    },
    {
      "inputs": [
        {
          "internalType": "address",
          "name": "treasury",
          "type": "address"
        },
        {
          "internalType": "address",
          "name": "fixedFeeTokenAddress",
          "type": "address"
        }
      ],
      "name": "createNonFungibleTokenWithCustomFeesPublic",
      "outputs": [],
      "stateMutability": "payable",
      "type": "function"
    },
    {
      "inputs": [
        {
          "internalType": "address",
          "name": "treasury",
          "type": "address"
        },
        {
          "internalType": "bytes",
          "name": "adminKey",
          "type": "bytes"
        }
      ],
      "name": "createNonFungibleTokenWithSECP256K1AdminKeyPublic",
      "outputs": [],
      "stateMutability": "payable",
      "type": "function"
    },
    {
      "inputs": [
        {
          "internalType": "address",
          "name": "treasury",
          "type": "address"
        },
        {
          "internalType": "bytes",
          "name": "adminKey",
          "type": "bytes"
        }
      ],
      "name": "createNonFungibleTokenWithSECP256K1AdminKeyWithoutKYCPublic",
      "outputs": [],
      "stateMutability": "payable",
      "type": "function"
    },
    {
      "inputs": [
        {
          "internalType": "address",
          "name": "token",
          "type": "address"
        },
        {
          "internalType": "address",
          "name": "account",
          "type": "address"
        }
      ],
      "name": "grantTokenKycPublic",
      "outputs": [
        {
          "internalType": "int64",
          "name": "responseCode",
          "type": "int64"
        }
      ],
      "stateMutability": "nonpayable",
      "type": "function"
    },
    {
      "inputs": [
        {
          "internalType": "address",
          "name": "token",
          "type": "address"
        },
        {
          "internalType": "int64",
          "name": "amount",
          "type": "int64"
        },
        {
          "internalType": "bytes[]",
          "name": "metadata",
          "type": "bytes[]"
        }
      ],
      "name": "mintTokenPublic",
      "outputs": [
        {
          "internalType": "int256",
          "name": "responseCode",
          "type": "int256"
        },
        {
          "internalType": "int64",
          "name": "newTotalSupply",
          "type": "int64"
        },
        {
          "internalType": "int64[]",
          "name": "serialNumbers",
          "type": "int64[]"
        }
      ],
      "stateMutability": "nonpayable",
      "type": "function"
    },
    {
      "inputs": [
        {
          "internalType": "address",
          "name": "token",
          "type": "address"
        },
        {
          "internalType": "int64",
          "name": "amount",
          "type": "int64"
        },
        {
          "internalType": "bytes[]",
          "name": "metadata",
          "type": "bytes[]"
        }
      ],
      "name": "mintTokenToAddressPublic",
      "outputs": [
        {
          "internalType": "int256",
          "name": "responseCode",
          "type": "int256"
        },
        {
          "internalType": "int64",
          "name": "newTotalSupply",
          "type": "int64"
        },
        {
          "internalType": "int64[]",
          "name": "serialNumbers",
          "type": "int64[]"
        }
      ],
      "stateMutability": "nonpayable",
      "type": "function"
    },
    {
      "inputs": [
        {
          "internalType": "address",
          "name": "token",
          "type": "address"
        },
        {
          "internalType": "bytes",
          "name": "encodedFunctionSelector",
          "type": "bytes"
        }
      ],
      "name": "redirectForToken",
      "outputs": [
        {
          "internalType": "int256",
          "name": "responseCode",
          "type": "int256"
        },
        {
          "internalType": "bytes",
          "name": "response",
          "type": "bytes"
        }
      ],
      "stateMutability": "nonpayable",
      "type": "function"
    },
    {
      "inputs": [
        {
          "internalType": "address",
          "name": "token",
          "type": "address"
        },
        {
          "internalType": "address",
          "name": "from",
          "type": "address"
        },
        {
          "internalType": "address",
          "name": "to",
          "type": "address"
        },
        {
          "internalType": "uint256",
          "name": "amount",
          "type": "uint256"
        }
      ],
      "name": "transferFrom",
      "outputs": [
        {
          "internalType": "int64",
          "name": "responseCode",
          "type": "int64"
        }
      ],
      "stateMutability": "nonpayable",
      "type": "function"
    },
    {
      "inputs": [
        {
          "internalType": "address",
          "name": "token",
          "type": "address"
        },
        {
          "internalType": "address",
          "name": "from",
          "type": "address"
        },
        {
          "internalType": "address",
          "name": "to",
          "type": "address"
        },
        {
          "internalType": "uint256",
          "name": "serialNumber",
          "type": "uint256"
        }
      ],
      "name": "transferFromNFT",
      "outputs": [
        {
          "internalType": "int64",
          "name": "responseCode",
          "type": "int64"
        }
      ],
      "stateMutability": "nonpayable",
      "type": "function"
    },
    {
      "inputs": [
        {
          "internalType": "address",
          "name": "token",
          "type": "address"
        },
        {
          "components": [
            {
              "internalType": "string",
              "name": "name",
              "type": "string"
            },
            {
              "internalType": "string",
              "name": "symbol",
              "type": "string"
            },
            {
              "internalType": "address",
              "name": "treasury",
              "type": "address"
            },
            {
              "internalType": "string",
              "name": "memo",
              "type": "string"
            },
            {
              "internalType": "bool",
              "name": "tokenSupplyType",
              "type": "bool"
            },
            {
              "internalType": "int64",
              "name": "maxSupply",
              "type": "int64"
            },
            {
              "internalType": "bool",
              "name": "freezeDefault",
              "type": "bool"
            },
            {
              "components": [
                {
                  "internalType": "uint256",
                  "name": "keyType",
                  "type": "uint256"
                },
                {
                  "components": [
                    {
                      "internalType": "bool",
                      "name": "inheritAccountKey",
                      "type": "bool"
                    },
                    {
                      "internalType": "address",
                      "name": "contractId",
                      "type": "address"
                    },
                    {
                      "internalType": "bytes",
                      "name": "ed25519",
                      "type": "bytes"
                    },
                    {
                      "internalType": "bytes",
                      "name": "ECDSA_secp256k1",
                      "type": "bytes"
                    },
                    {
                      "internalType": "address",
                      "name": "delegatableContractId",
                      "type": "address"
                    }
                  ],
                  "internalType": "struct IHederaTokenService.KeyValue",
                  "name": "key",
                  "type": "tuple"
                }
              ],
              "internalType": "struct IHederaTokenService.TokenKey[]",
              "name": "tokenKeys",
              "type": "tuple[]"
            },
            {
              "components": [
                {
                  "internalType": "int64",
                  "name": "second",
                  "type": "int64"
                },
                {
                  "internalType": "address",
                  "name": "autoRenewAccount",
                  "type": "address"
                },
                {
                  "internalType": "int64",
                  "name": "autoRenewPeriod",
                  "type": "int64"
                }
              ],
              "internalType": "struct IHederaTokenService.Expiry",
              "name": "expiry",
              "type": "tuple"
            }
          ],
          "internalType": "struct IHederaTokenService.HederaToken",
          "name": "tokenInfo",
          "type": "tuple"
        }
      ],
      "name": "updateTokenInfoPublic",
      "outputs": [
        {
          "internalType": "int256",
          "name": "responseCode",
          "type": "int256"
        }
      ],
      "stateMutability": "nonpayable",
      "type": "function"
    }
  ],
  "bytecode": "0x60c06040526009608090815268746f6b656e4e616d6560b81b60a0526002906200002a908262000263565b5060408051808201909152600b81526a1d1bdad95b94de5b589bdb60aa1b60208201526003906200005c908262000263565b50604080518082019091526004808252636d656d6f60e01b60208301529062000086908262000263565b50600580546001600160a81b031916700800000000000003e800000000000003e8179055348015620000b6575f80fd5b50600160208181527fa6eef7e35abe7026729641147f7915573c7e97b47efa546f5f6e3230263bcb499190915560027fcc69885fda6bcc1a4ace058b4a62bf5e179ea78fd58a1ccd71c22cc9b688792f5560047fd9d16d34ffb15ba3a3d852f0d403e2ce1d691fb54de27ac87cd2f993f3ec330f5560087f7dfe757ecd65cbd7922a9c0161e935dd7fdbcc0e999689c7d31633896b1fc60b5560107fedc95719e9a3b28dd8e80877cb5880a9be7de1a13fc8b05e7999683b6b567643557fe2689cd4a84e23ad2f564004f1c9013e9589d260bde6380aba3ca7e09e4df40c5560065f5260407f8f331abe73332f95a25873e8b430885974c0409691f89d643119a11623a7924a556200032b565b634e487b7160e01b5f52604160045260245ffd5b600181811c90821680620001ec57607f821691505b6020821081036200020b57634e487b7160e01b5f52602260045260245ffd5b50919050565b601f8211156200025e575f81815260208120601f850160051c81016020861015620002395750805b601f850160051c820191505b818110156200025a5782815560010162000245565b5050505b505050565b81516001600160401b038111156200027f576200027f620001c3565b6200029781620002908454620001d7565b8462000211565b602080601f831160018114620002cd575f8415620002b55750858301515b5f19600386901b1c1916600185901b1785556200025a565b5f85815260208120601f198616915b82811015620002fd57888601518255948401946001909101908401620002dc565b50858210156200031b57878501515f19600388901b60f8161c191681555b5050505050600190811b01905550565b613d9780620003395f395ff3fe608060405260043610610110575f3560e01c80638ba74da01161009d578063d85f74c111610062578063d85f74c1146102cf578063de84a779146102e2578063e9f7322614610301578063f4a01e5b14610314578063f848fec414610333575f80fd5b80638ba74da01461024c5780638f74a17b1461025f5780639b23d3d91461028a578063b35d417a146102a9578063cc265af4146102bc575f80fd5b806336348de3116100e357806336348de3146101ac5780634b5c6687146101cb5780634d1769d6146101de578063618dc65e1461020c57806371de370714610239575f80fd5b80630488c939146101145780630fd2601e14610129578063118741e71461016057806315dacbea1461018d575b5f80fd5b610127610122366004612d70565b610352565b005b348015610134575f80fd5b50610148610143366004612d70565b6108a4565b60405160079190910b81526020015b60405180910390f35b34801561016b575f80fd5b5061017f61017a366004612e7f565b6108ff565b604051908152602001610157565b348015610198575f80fd5b506101486101a7366004612f2e565b610951565b3480156101b7575f80fd5b5061017f6101c63660046131e8565b610a40565b6101276101d9366004613328565b610a4b565b3480156101e9575f80fd5b506101fd6101f8366004613343565b610e3b565b60405161015793929190613450565b348015610217575f80fd5b5061022b61022636600461347a565b610ef9565b604051610157929190613514565b610127610247366004613534565b611020565b61012761025a366004612d70565b61117c565b61027261026d36600461347a565b6115d0565b6040516001600160a01b039091168152602001610157565b348015610295575f80fd5b506101486102a4366004612f2e565b611984565b6101276102b736600461347a565b6119c8565b6101276102ca36600461347a565b611d60565b6101276102dd366004613328565b611e34565b3480156102ed575f80fd5b506101fd6102fc366004613343565b6121b8565b61027261030f36600461347a565b612250565b34801561031f575f80fd5b5061017f61032e366004612d70565b612327565b34801561033e575f80fd5b5061017f61034d366004613594565b612332565b60408051600580825260c082019092525f91816020015b610371612cf0565b8152602001906001900390816103695790505090506103a15f60065f60405180602001604052805f81525061238c565b815f815181106103b3576103b36135d2565b60200260200101819052506103d860015f60405180602001604052805f8152506123c3565b816001815181106103eb576103eb6135d2565b602002602001018190525061041060025f60405180602001604052805f8152506123c3565b81600281518110610423576104236135d2565b602002602001018190525061044860045f60405180602001604052805f8152506123c3565b8160038151811061045b5761045b6135d2565b602002602001018190525061048060035f60405180602001604052805f8152506123c3565b81600481518110610493576104936135d2565b60200260200101819052505f60405180606001604052805f60070b8152602001856001600160a01b03168152602001627a120060070b81525090505f604051806101200160405280600280546104e8906135e6565b80601f0160208091040260200160405190810160405280929190818152602001828054610514906135e6565b801561055f5780601f106105365761010080835404028352916020019161055f565b820191905f5260205f20905b81548152906001019060200180831161054257829003601f168201915b5050505050815260200160038054610576906135e6565b80601f01602080910402602001604051908101604052809291908181526020018280546105a2906135e6565b80156105ed5780601f106105c4576101008083540402835291602001916105ed565b820191905f5260205f20905b8154815290600101906020018083116105d057829003601f168201915b50505050508152602001866001600160a01b0316815260200160048054610613906135e6565b80601f016020809104026020016040519081016040528092919081815260200182805461063f906135e6565b801561068a5780601f106106615761010080835404028352916020019161068a565b820191905f5260205f20905b81548152906001019060200180831161066d57829003601f168201915b5050509183525050600160208201819052600554600160401b810460070b6040840152600160a01b900460ff16151560608301526080820186905260a09091018490529091505f9060405190808252806020026020018201604052801561072957816020015b6040805160a0810182525f808252602080830182905292820181905260608201819052608082015282525f199092019101816106f05790505b506040805160a081018252600181526001600160a01b0380891660208301525f9282018390526060820183905289166080820152825192935091839190610772576107726135d2565b60209081029190910101526040805160018082528183019092525f91816020015b6040805160c0810182525f8082526020808301829052928201819052606082018190526080820181905260a082015282525f199092019101816107935790505090506040518060c00160405280600460070b8152602001600560070b8152602001600a60070b8152602001876001600160a01b031681526020015f15158152602001886001600160a01b0316815250815f81518110610834576108346135d2565b60200260200101819052505f8061084c8585856123f8565b90925090506016821461085d575f80fd5b6040516001600160a01b03821681527f7bb17726df1f3adee8aa00ba8e8bc5d6f182af3bbf77604639cb7f008dd3b4ed9060200160405180910390a1505050505050505050565b5f6108af8383612518565b604051600782900b81529091507f90a5cf4cffe88b4edbb041cfc7a8a812c48a5ec30b84640fb37690875168e3aa9060200160405180910390a1600781900b6016146108f9575f80fd5b92915050565b5f61090a83836125f6565b90507f90a5cf4cffe88b4edbb041cfc7a8a812c48a5ec30b84640fb37690875168e3aa8160405161093d91815260200190565b60405180910390a1601681146108f9575f80fd5b6040516001600160a01b038581166024830152848116604483015283166064820152608481018290525f908190819061016790630aed65f560e11b9060a4015b60408051601f198184030181529181526020820180516001600160e01b03166001600160e01b03199094169390931790925290516109cf919061361e565b5f604051808303815f865af19150503d805f8114610a08576040519150601f19603f3d011682016040523d82523d5f602084013e610a0d565b606091505b509150915081610a1e576015610a32565b80806020019051810190610a32919061364a565b60030b979650505050505050565b5f61090a8383612620565b60408051600580825260c082019092525f91816020015b610a6a612cf0565b815260200190600190039081610a62579050509050610a9a5f60065f60405180602001604052805f81525061238c565b815f81518110610aac57610aac6135d2565b6020026020010181905250610ad160015f60405180602001604052805f8152506123c3565b81600181518110610ae457610ae46135d2565b6020026020010181905250610b0960025f60405180602001604052805f8152506123c3565b81600281518110610b1c57610b1c6135d2565b6020026020010181905250610b4160035f60405180602001604052805f8152506123c3565b81600381518110610b5457610b546135d2565b6020026020010181905250610b7960045f60405180602001604052805f8152506123c3565b81600481518110610b8c57610b8c6135d2565b60200260200101819052505f60405180606001604052805f60070b8152602001846001600160a01b03168152602001627a120060070b81525090505f60405180610120016040528060028054610be1906135e6565b80601f0160208091040260200160405190810160405280929190818152602001828054610c0d906135e6565b8015610c585780601f10610c2f57610100808354040283529160200191610c58565b820191905f5260205f20905b815481529060010190602001808311610c3b57829003601f168201915b5050505050815260200160038054610c6f906135e6565b80601f0160208091040260200160405190810160405280929190818152602001828054610c9b906135e6565b8015610ce65780601f10610cbd57610100808354040283529160200191610ce6565b820191905f5260205f20905b815481529060010190602001808311610cc957829003601f168201915b50505050508152602001856001600160a01b0316815260200160048054610d0c906135e6565b80601f0160208091040260200160405190810160405280929190818152602001828054610d38906135e6565b8015610d835780601f10610d5a57610100808354040283529160200191610d83565b820191905f5260205f20905b815481529060010190602001808311610d6657829003601f168201915b505050918352505060016020820152600554600160401b8104600790810b604084015260ff600160a01b830416151560608401526080830187905260a09092018590529192505f918291610de691859181900b90600160801b900460030b61264a565b909250905060168214610df7575f80fd5b6040516001600160a01b03821681527f7bb17726df1f3adee8aa00ba8e8bc5d6f182af3bbf77604639cb7f008dd3b4ed9060200160405180910390a1505050505050565b5f806060610e4a8686866126b3565b60405183815292955090935091507f90a5cf4cffe88b4edbb041cfc7a8a812c48a5ec30b84640fb37690875168e3aa9060200160405180910390a160168314610e91575f80fd5b7ffc6b20023c4bac8ff1c48c1693e0cea5cd3c2163e9c2da41c58f17dd6d9f163d8282604051610ec2929190613663565b60405180910390a1610eef863033845f81518110610ee257610ee26135d2565b60200260200101516127aa565b5093509350939050565b5f60605f806101676001600160a01b031663618dc65e60e01b8787604051602401610f2592919061367e565b60408051601f198184030181529181526020820180516001600160e01b03166001600160e01b0319909416939093179092529051610f63919061361e565b5f604051808303815f865af19150503d805f8114610f9c576040519150601f19603f3d011682016040523d82523d5f602084013e610fa1565b606091505b50915091507f4af4780e06fe8cb9df64b0794fa6f01399af979175bb988e35e0e57e594567bc8282604051610fd792919061369f565b60405180910390a181610ffa57601560405180602001604052805f81525061100e565b8080602001905181019061100e91906136b9565b60039190910b97909650945050505050565b604051638f74a17b60e01b81525f903090638f74a17b903490611049908890889060040161367e565b60206040518083038185885af1158015611065573d5f803e3d5ffd5b50505050506040513d601f19601f8201168201806040525081019061108a919061373e565b60405163f4a01e5b60e01b81523360048201526001600160a01b0382166024820152909150309063f4a01e5b906044016020604051808303815f875af11580156110d6573d5f803e3d5ffd5b505050506040513d601f19601f820116820180604052508101906110fa9190613759565b506040516307e9300f60e11b81526001600160a01b03821660048201523360248201523090630fd2601e906044016020604051808303815f875af1158015611144573d5f803e3d5ffd5b505050506040513d601f19601f820116820180604052508101906111689190613770565b50611175813033856127f1565b5050505050565b6040805160018082528183019092525f91816020015b61119a612cf0565b8152602001906001900390816111925790505090506111c95f805f60405180602001604052805f81525061238c565b815f815181106111db576111db6135d2565b60200260200101819052505f60405180606001604052805f60070b8152602001856001600160a01b03168152602001627a120060070b81525090505f60405180610120016040528060028054611230906135e6565b80601f016020809104026020016040519081016040528092919081815260200182805461125c906135e6565b80156112a75780601f1061127e576101008083540402835291602001916112a7565b820191905f5260205f20905b81548152906001019060200180831161128a57829003601f168201915b50505050508152602001600380546112be906135e6565b80601f01602080910402602001604051908101604052809291908181526020018280546112ea906135e6565b80156113355780601f1061130c57610100808354040283529160200191611335565b820191905f5260205f20905b81548152906001019060200180831161131857829003601f168201915b50505050508152602001866001600160a01b031681526020016004805461135b906135e6565b80601f0160208091040260200160405190810160405280929190818152602001828054611387906135e6565b80156113d25780601f106113a9576101008083540402835291602001916113d2565b820191905f5260205f20905b8154815290600101906020018083116113b557829003601f168201915b5050509183525050600160208201819052600554600160401b900460070b6040808401919091525f606084018190526080840188905260a09093018690528051828152808201909152929350909190816020015b6040805160a0810182525f808252602080830182905292820181905260608201819052608082015282525f199092019101816114265750506040805160a081018252600181526001600160a01b0388811660208301525f92820183905260608201839052891660808201528251929350918391906114a6576114a66135d2565b60209081029190910101526040805160018082528183019092525f91816020015b6040805160c0810182525f8082526020808301829052928201819052606082018190526080820181905260a082015282525f199092019101816114c75750506040805160c0810182526004815260056020820152600a91810191909152601e60608201525f608082018190526001600160a01b038a1660a083015282519293509091839190611558576115586135d2565b60209081029190910101526005545f908190611587908690600781900b90600160801b900460030b8787612838565b915091507f90a5cf4cffe88b4edbb041cfc7a8a812c48a5ec30b84640fb37690875168e3aa826040516115bc91815260200190565b60405180910390a16016821461085d575f80fd5b60408051600580825260c082019092525f91829190816020015b6115f2612cf0565b8152602001906001900390816115ea5790505090506116155f600660038661238c565b815f81518110611627576116276135d2565b602002602001018190525061163f60016003856123c3565b81600181518110611652576116526135d2565b602002602001018190525061166a60026003856123c3565b8160028151811061167d5761167d6135d2565b602002602001018190525061169560046003856123c3565b816003815181106116a8576116a86135d2565b60200260200101819052506116bf600380856123c3565b816004815181106116d2576116d26135d2565b60200260200101819052505f60405180606001604052805f60070b8152602001866001600160a01b03168152602001627a120060070b81525090505f60405180610120016040528060028054611727906135e6565b80601f0160208091040260200160405190810160405280929190818152602001828054611753906135e6565b801561179e5780601f106117755761010080835404028352916020019161179e565b820191905f5260205f20905b81548152906001019060200180831161178157829003601f168201915b50505050508152602001600380546117b5906135e6565b80601f01602080910402602001604051908101604052809291908181526020018280546117e1906135e6565b801561182c5780601f106118035761010080835404028352916020019161182c565b820191905f5260205f20905b81548152906001019060200180831161180f57829003601f168201915b50505050508152602001876001600160a01b0316815260200160048054611852906135e6565b80601f016020809104026020016040519081016040528092919081815260200182805461187e906135e6565b80156118c95780601f106118a0576101008083540402835291602001916118c9565b820191905f5260205f20905b8154815290600101906020018083116118ac57829003601f168201915b505050918352505060016020820152600554600160401b8104600790810b604084015260ff600160a01b830416151560608401526080830187905260a09092018590529192505f91829161192c91859181900b90600160801b900460030b61264a565b90925090506016821461193d575f80fd5b6040516001600160a01b03821681527f7bb17726df1f3adee8aa00ba8e8bc5d6f182af3bbf77604639cb7f008dd3b4ed9060200160405180910390a1979650505050505050565b6040516001600160a01b038581166024830152848116604483015283166064820152608481018290525f908190819061016790639b23d3d960e01b9060a401610991565b60408051600580825260c082019092525f91816020015b6119e7612cf0565b8152602001906001900390816119df579050509050611a0a5f600660038561238c565b815f81518110611a1c57611a1c6135d2565b6020026020010181905250611a3460016003846123c3565b81600181518110611a4757611a476135d2565b6020026020010181905250611a5f60026003846123c3565b81600281518110611a7257611a726135d2565b6020026020010181905250611a8a60046003846123c3565b81600381518110611a9d57611a9d6135d2565b6020026020010181905250611ab4600380846123c3565b81600481518110611ac757611ac76135d2565b60200260200101819052505f60405180606001604052805f60070b8152602001856001600160a01b03168152602001627a120060070b81525090505f60405180610120016040528060028054611b1c906135e6565b80601f0160208091040260200160405190810160405280929190818152602001828054611b48906135e6565b8015611b935780601f10611b6a57610100808354040283529160200191611b93565b820191905f5260205f20905b815481529060010190602001808311611b7657829003601f168201915b5050505050815260200160038054611baa906135e6565b80601f0160208091040260200160405190810160405280929190818152602001828054611bd6906135e6565b8015611c215780601f10611bf857610100808354040283529160200191611c21565b820191905f5260205f20905b815481529060010190602001808311611c0457829003601f168201915b50505050508152602001866001600160a01b0316815260200160048054611c47906135e6565b80601f0160208091040260200160405190810160405280929190818152602001828054611c73906135e6565b8015611cbe5780601f10611c9557610100808354040283529160200191611cbe565b820191905f5260205f20905b815481529060010190602001808311611ca157829003601f168201915b505050918352505060016020820152600554600160401b810460070b6040830152600160a01b900460ff16151560608201526080810185905260a00183905290505f80611d0a8361295e565b909250905060168214611d1b575f80fd5b6040516001600160a01b03821681527f7bb17726df1f3adee8aa00ba8e8bc5d6f182af3bbf77604639cb7f008dd3b4ed9060200160405180910390a150505050505050565b60408051600480825260a082019092525f91816020015b611d7f612cf0565b815260200190600190039081611d77579050509050611da25f600660038561238c565b815f81518110611db457611db46135d2565b6020026020010181905250611dcc60026003846123c3565b81600181518110611ddf57611ddf6135d2565b6020026020010181905250611df760046003846123c3565b81600281518110611e0a57611e0a6135d2565b6020026020010181905250611e21600380846123c3565b81600381518110611ac757611ac76135d2565b60408051600580825260c082019092525f91816020015b611e53612cf0565b815260200190600190039081611e4b579050509050611e835f60065f60405180602001604052805f81525061238c565b815f81518110611e9557611e956135d2565b6020026020010181905250611eba60015f60405180602001604052805f8152506123c3565b81600181518110611ecd57611ecd6135d2565b6020026020010181905250611ef260025f60405180602001604052805f8152506123c3565b81600281518110611f0557611f056135d2565b6020026020010181905250611f2a60045f60405180602001604052805f8152506123c3565b81600381518110611f3d57611f3d6135d2565b6020026020010181905250611f6260035f60405180602001604052805f8152506123c3565b81600481518110611f7557611f756135d2565b60200260200101819052505f60405180606001604052805f60070b8152602001846001600160a01b03168152602001627a120060070b81525090505f60405180610120016040528060028054611fca906135e6565b80601f0160208091040260200160405190810160405280929190818152602001828054611ff6906135e6565b80156120415780601f1061201857610100808354040283529160200191612041565b820191905f5260205f20905b81548152906001019060200180831161202457829003601f168201915b5050505050815260200160038054612058906135e6565b80601f0160208091040260200160405190810160405280929190818152602001828054612084906135e6565b80156120cf5780601f106120a6576101008083540402835291602001916120cf565b820191905f5260205f20905b8154815290600101906020018083116120b257829003601f168201915b50505050508152602001856001600160a01b03168152602001600480546120f5906135e6565b80601f0160208091040260200160405190810160405280929190818152602001828054612121906135e6565b801561216c5780601f106121435761010080835404028352916020019161216c565b820191905f5260205f20905b81548152906001019060200180831161214f57829003601f168201915b505050918352505060016020820152600554600160401b810460070b6040830152600160a01b900460ff16151560608201526080810185905260a00183905290505f80610de68361295e565b5f8060606121c78686866126b3565b60405183815292955090935091507f90a5cf4cffe88b4edbb041cfc7a8a812c48a5ec30b84640fb37690875168e3aa9060200160405180910390a16016831461220e575f80fd5b7ffc6b20023c4bac8ff1c48c1693e0cea5cd3c2163e9c2da41c58f17dd6d9f163d828260405161223f929190613663565b60405180910390a193509350939050565b60408051600480825260a082019092525f91829190816020015b612272612cf0565b81526020019060019003908161226a5790505090506122955f600660038661238c565b815f815181106122a7576122a76135d2565b60200260200101819052506122bf60026003856123c3565b816001815181106122d2576122d26135d2565b60200260200101819052506122ea60046003856123c3565b816002815181106122fd576122fd6135d2565b6020026020010181905250612314600380856123c3565b816003815181106116d2576116d26135d2565b5f61090a8383612a66565b5f61233e848484612a9b565b90507f90a5cf4cffe88b4edbb041cfc7a8a812c48a5ec30b84640fb37690875168e3aa8160405161237191815260200190565b60405180910390a160168114612385575f80fd5b9392505050565b612394612cf0565b60405180604001604052806123a98787612b6f565b81526020016123b88585612ba9565b905295945050505050565b6123cb612cf0565b60405180604001604052806123df86612cb4565b81526020016123ee8585612ba9565b9052949350505050565b5f80848061010001515f015160070b5f14801561241f57506101008101516040015160070b155b15612435576101008101516276a7006040909101525b5f806101676001600160a01b03163463abb54eb560e01b8a8a8a604051602401612461939291906139b9565b60408051601f198184030181529181526020820180516001600160e01b03166001600160e01b031990941693909317909252905161249f919061361e565b5f6040518083038185875af1925050503d805f81146124d9576040519150601f19603f3d011682016040523d82523d5f602084013e6124de565b606091505b5091509150816124f05760155f612504565b808060200190518101906125049190613a6e565b60039190910b999098509650505050505050565b6040516001600160a01b038381166024830152821660448201525f908190819061016790638f8d7f9960e01b906064015b60408051601f198184030181529181526020820180516001600160e01b03166001600160e01b0319909416939093179092529051612587919061361e565b5f604051808303815f865af19150503d805f81146125c0576040519150601f19603f3d011682016040523d82523d5f602084013e6125c5565b606091505b5091509150816125d65760156125ea565b808060200190518101906125ea919061364a565b60030b95945050505050565b5f805f6101676001600160a01b0316632e63879b60e01b8686604051602401612549929190613a98565b5f805f6101676001600160a01b0316637d305cfa60e01b8686604051602401612549929190613af1565b5f80848061010001515f015160070b5f14801561267157506101008101516040015160070b155b15612687576101008101516276a7006040909101525b5f806101676001600160a01b031634630fb65bf360e01b8a8a8a60405160240161246193929190613b12565b5f8060605f806101676001600160a01b031663e0f4059a60e01b8989896040516024016126e293929190613b40565b60408051601f198184030181529181526020820180516001600160e01b03166001600160e01b0319909416939093179092529051612720919061361e565b5f604051808303815f865af19150503d805f8114612759576040519150601f19603f3d011682016040523d82523d5f602084013e61275e565b606091505b50915091508161278057604080515f8082526020820190925260159190612794565b808060200190518101906127949190613bbb565b60039290920b9a90995090975095505050505050565b6040516001600160a01b038581166024830152848116604483015283166064820152600782900b60848201525f908190819061016790635cfc901160e01b9060a401610991565b6040516001600160a01b038581166024830152848116604483015283166064820152600782900b60848201525f90819081906101679063eca3691760e01b9060a401610991565b5f80868061010001515f015160070b5f14801561285f57506101008101516040015160070b155b15612875576101008101516276a7006040909101525b5f806101676001600160a01b031634632af0c59a60e01b8c8c8c8c8c6040516024016128a5959493929190613c75565b60408051601f198184030181529181526020820180516001600160e01b03166001600160e01b03199094169390931790925290516128e3919061361e565b5f6040518083038185875af1925050503d805f811461291d576040519150601f19603f3d011682016040523d82523d5f602084013e612922565b606091505b5091509150816129345760155f612948565b808060200190518101906129489190613a6e565b60039190910b9b909a5098505050505050505050565b5f80828061010001515f015160070b5f14801561298557506101008101516040015160070b155b1561299b576101008101516276a7006040909101525b5f806101676001600160a01b03163463ea83f29360e01b886040516024016129c39190613d3b565b60408051601f198184030181529181526020820180516001600160e01b03166001600160e01b0319909416939093179092529051612a01919061361e565b5f6040518083038185875af1925050503d805f8114612a3b576040519150601f19603f3d011682016040523d82523d5f602084013e612a40565b606091505b509150915081612a525760155f61100e565b8080602001905181019061100e9190613a6e565b6040516001600160a01b038381166024830152821660448201525f90819081906101679063248a35ef60e11b90606401612549565b604080516001600160a01b03858116602483015284166044820152606480820184905282518083039091018152608490910182526020810180516001600160e01b031663e1f21c6760e01b17905290515f918291829161016791612aff919061361e565b5f604051808303815f865af19150503d805f8114612b38576040519150601f19603f3d011682016040523d82523d5f602084013e612b3d565b606091505b509150915081612b4e576015612b62565b80806020019051810190612b62919061364a565b60030b9695505050505050565b5f612b92836006811115612b8557612b85613d4d565b600160ff9091161b821790565b9050612385826006811115612b8557612b85613d4d565b612bec6040518060a001604052805f151581526020015f6001600160a01b0316815260200160608152602001606081526020015f6001600160a01b031681525090565b5f836004811115612bff57612bff613d4d565b03612c0d57600181526108f9565b6001836004811115612c2157612c21613d4d565b03612c3b575f546001600160a01b031660208201526108f9565b6002836004811115612c4f57612c4f613d4d565b03612c6057604081018290526108f9565b6003836004811115612c7457612c74613d4d565b03612c8557606081018290526108f9565b6004836004811115612c9957612c99613d4d565b036108f9575f546001600160a01b0316608082015292915050565b5f60015f836006811115612cca57612cca613d4d565b6006811115612cdb57612cdb613d4d565b81526020019081526020015f20549050919050565b60405180604001604052805f8152602001612d446040518060a001604052805f151581526020015f6001600160a01b0316815260200160608152602001606081526020015f6001600160a01b031681525090565b905290565b6001600160a01b0381168114612d5d575f80fd5b50565b8035612d6b81612d49565b919050565b5f8060408385031215612d81575f80fd5b8235612d8c81612d49565b91506020830135612d9c81612d49565b809150509250929050565b634e487b7160e01b5f52604160045260245ffd5b6040805190810167ffffffffffffffff81118282101715612dde57612dde612da7565b60405290565b60405160a0810167ffffffffffffffff81118282101715612dde57612dde612da7565b604051610120810167ffffffffffffffff81118282101715612dde57612dde612da7565b604051601f8201601f1916810167ffffffffffffffff81118282101715612e5457612e54612da7565b604052919050565b5f67ffffffffffffffff821115612e7557612e75612da7565b5060051b60200190565b5f8060408385031215612e90575f80fd5b8235612e9b81612d49565b915060208381013567ffffffffffffffff811115612eb7575f80fd5b8401601f81018613612ec7575f80fd5b8035612eda612ed582612e5c565b612e2b565b81815260059190911b82018301908381019088831115612ef8575f80fd5b928401925b82841015612f1f578335612f1081612d49565b82529284019290840190612efd565b80955050505050509250929050565b5f805f8060808587031215612f41575f80fd5b8435612f4c81612d49565b93506020850135612f5c81612d49565b92506040850135612f6c81612d49565b9396929550929360600135925050565b5f67ffffffffffffffff821115612f9557612f95612da7565b50601f01601f191660200190565b5f82601f830112612fb2575f80fd5b8135612fc0612ed582612f7c565b818152846020838601011115612fd4575f80fd5b816020850160208301375f918101602001919091529392505050565b80358015158114612d6b575f80fd5b8060070b8114612d5d575f80fd5b8035612d6b81612fff565b5f82601f830112613027575f80fd5b81356020613037612ed583612e5c565b82815260059290921b84018101918181019086841115613055575f80fd5b8286015b8481101561316957803567ffffffffffffffff80821115613078575f80fd5b908801906040601f19838c038101821315613091575f80fd5b613099612dbb565b88850135815282850135848111156130af575f80fd5b949094019360a0858e03830112156130c6575f8081fd5b6130ce612de4565b91506130db898601612ff0565b8252828501356130ea81612d49565b828a015260608581013585811115613101575f8081fd5b61310f8f8c838a0101612fa3565b8585015250608093508386013585811115613129575f8081fd5b6131378f8c838a0101612fa3565b82850152505060a0850135945061314d85612d49565b9181019390935280870192909252508352918301918301613059565b509695505050505050565b5f60608284031215613184575f80fd5b6040516060810181811067ffffffffffffffff821117156131a7576131a7612da7565b60405290508082356131b881612fff565b815260208301356131c881612d49565b602082015260408301356131db81612fff565b6040919091015292915050565b5f80604083850312156131f9575f80fd5b823561320481612d49565b9150602083013567ffffffffffffffff80821115613220575f80fd5b908401906101608287031215613234575f80fd5b61323c612e07565b82358281111561324a575f80fd5b61325688828601612fa3565b82525060208301358281111561326a575f80fd5b61327688828601612fa3565b60208301525061328860408401612d60565b604082015260608301358281111561329e575f80fd5b6132aa88828601612fa3565b6060830152506132bc60808401612ff0565b60808201526132cd60a0840161300d565b60a08201526132de60c08401612ff0565b60c082015260e0830135828111156132f4575f80fd5b61330088828601613018565b60e083015250610100915061331787838501613174565b828201528093505050509250929050565b5f60208284031215613338575f80fd5b813561238581612d49565b5f805f60608486031215613355575f80fd5b833561336081612d49565b925060208481013561337181612fff565b9250604085013567ffffffffffffffff8082111561338d575f80fd5b818701915087601f8301126133a0575f80fd5b81356133ae612ed582612e5c565b81815260059190911b8301840190848101908a8311156133cc575f80fd5b8585015b83811015613403578035858111156133e7575f8081fd5b6133f58d89838a0101612fa3565b8452509186019186016133d0565b508096505050505050509250925092565b5f8151808452602080850194508084015f5b8381101561344557815160070b87529582019590820190600101613426565b509495945050505050565b8381528260070b6020820152606060408201525f6134716060830184613414565b95945050505050565b5f806040838503121561348b575f80fd5b823561349681612d49565b9150602083013567ffffffffffffffff8111156134b1575f80fd5b6134bd85828601612fa3565b9150509250929050565b5f5b838110156134e15781810151838201526020016134c9565b50505f910152565b5f81518084526135008160208601602086016134c7565b601f01601f19169290920160200192915050565b828152604060208201525f61352c60408301846134e9565b949350505050565b5f805f60608486031215613546575f80fd5b833561355181612d49565b9250602084013567ffffffffffffffff81111561356c575f80fd5b61357886828701612fa3565b925050604084013561358981612fff565b809150509250925092565b5f805f606084860312156135a6575f80fd5b83356135b181612d49565b925060208401356135c181612d49565b929592945050506040919091013590565b634e487b7160e01b5f52603260045260245ffd5b600181811c908216806135fa57607f821691505b60208210810361361857634e487b7160e01b5f52602260045260245ffd5b50919050565b5f825161362f8184602087016134c7565b9190910192915050565b8051600381900b8114612d6b575f80fd5b5f6020828403121561365a575f80fd5b61238582613639565b8260070b8152604060208201525f61352c6040830184613414565b6001600160a01b0383168152604060208201525f61352c60408301846134e9565b8215158152604060208201525f61352c60408301846134e9565b5f80604083850312156136ca575f80fd5b6136d383613639565b9150602083015167ffffffffffffffff8111156136ee575f80fd5b8301601f810185136136fe575f80fd5b805161370c612ed582612f7c565b818152866020838501011115613720575f80fd5b6137318260208301602086016134c7565b8093505050509250929050565b5f6020828403121561374e575f80fd5b815161238581612d49565b5f60208284031215613769575f80fd5b5051919050565b5f60208284031215613780575f80fd5b815161238581612fff565b5f81518084526020808501808196508360051b810191508286015f5b858110156138405782840389528151604081518652868201519150808787015281511515818701528682015160606001600160a01b03808316828a015283850151935060a09250608083818b015261380260e08b01866134e9565b928601518a8403603f1901858c015292945061381e85846134e9565b9501511660c098909801979097525050988501989350908401906001016137a7565b5091979650505050505050565b5f6101608251818552613862828601826134e9565b9150506020830151848203602086015261387c82826134e9565b915050604083015161389960408601826001600160a01b03169052565b50606083015184820360608601526138b182826134e9565b91505060808301516138c7608086018215159052565b5060a08301516138dc60a086018260070b9052565b5060c08301516138f060c086018215159052565b5060e083015184820360e0860152613908828261378b565b9150506101008084015161394482870182805160070b82526001600160a01b036020820151166020830152604081015160070b60408301525050565b5090949350505050565b5f8151808452602080850194508084015f5b83811015613445578151805160070b8852838101516001600160a01b03908116858a01526040808301511515908a01526060808301511515908a0152608091820151169088015260a09096019590820190600101613960565b5f60608083526139cb8184018761384d565b6020848203818601526139de828861394e565b9150604085830381870152828751808552838501915083890194505f5b81811015613a5e5785518051600790810b855286820151810b8786015285820151900b85850152878101516001600160a01b039081168986015260808083015115159086015260a09182015116908401529484019460c0909201916001016139fb565b50909a9950505050505050505050565b5f8060408385031215613a7f575f80fd5b613a8883613639565b91506020830151612d9c81612d49565b5f604082016001600160a01b038086168452602060408186015282865180855260608701915082880194505f5b81811015613ae3578551851683529483019491830191600101613ac5565b509098975050505050505050565b6001600160a01b0383168152604060208201525f61352c604083018461384d565b606081525f613b24606083018661384d565b90508360070b60208301528260030b6040830152949350505050565b5f606082016001600160a01b038616835260208560070b818501526060604085015281855180845260808601915060808160051b87010193508287015f5b82811015613bac57607f19888703018452613b9a8683516134e9565b95509284019290840190600101613b7e565b50939998505050505050505050565b5f805f60608486031215613bcd575f80fd5b613bd684613639565b9250602080850151613be781612fff565b604086015190935067ffffffffffffffff811115613c03575f80fd5b8501601f81018713613c13575f80fd5b8051613c21612ed582612e5c565b81815260059190911b82018301908381019089831115613c3f575f80fd5b928401925b82841015613c66578351613c5781612fff565b82529284019290840190613c44565b80955050505050509250925092565b5f60a0808352613c878184018961384d565b6020600789810b8287015260408960030b81880152606087850381890152613caf858b61394e565b94506080888603818a0152858a518088528688019150868c0197505f5b81811015613d265788518051880b845288810151880b8985015286810151880b8785015285810151880b86850152848101511515858501528a01516001600160a01b03168a8401529787019760c090920191600101613ccc565b50909f9e505050505050505050505050505050565b602081525f612385602083018461384d565b634e487b7160e01b5f52602160045260245ffdfea2646970667358221220940078df2bc30bd37f327a9fca98db652bac2ae88577b4009278c896fe3052b864736f6c63430008140033",
  "linkReferences": {},
  "deployedLinkReferences": {}
}