{
  "_format": "hh-sol-artifact-1",
  "contractName": "TokenCreateContract",
  "sourceName": "contracts/hts-precompile/examples/token-create/TokenCreateContract.sol",
  "abi": [
    {
      "anonymous": false,
      "inputs": [
        {
          "indexed": false,
          "internalType": "address",
          "name": "tokenAddress",
          "type": "address"
        }
      ],
      "name": "CreatedToken",
      "type": "event"
    },
    {
      "anonymous": false,
      "inputs": [
        {
          "indexed": false,
          "internalType": "bool",
          "name": "kycGranted",
          "type": "bool"
        }
      ],
      "name": "KycGranted",
      "type": "event"
    },
    {
      "anonymous": false,
      "inputs": [
        {
          "indexed": false,
          "internalType": "int64",
          "name": "newTotalSupply",
          "type": "int64"
        },
        {
          "indexed": false,
          "internalType": "int64[]",
          "name": "serialNumbers",
          "type": "int64[]"
        }
      ],
      "name": "MintedToken",
      "type": "event"
    },
    {
      "anonymous": false,
      "inputs": [
        {
          "indexed": false,
          "internalType": "int256",
          "name": "responseCode",
          "type": "int256"
        }
      ],
      "name": "ResponseCode",
      "type": "event"
    },
    {
      "inputs": [
        {
          "internalType": "address",
          "name": "account",
          "type": "address"
        },
        {
          "internalType": "address",
          "name": "token",
          "type": "address"
        }
      ],
      "name": "associateTokenPublic",
      "outputs": [
        {
          "internalType": "int256",
          "name": "responseCode",
          "type": "int256"
        }
      ],
      "stateMutability": "nonpayable",
      "type": "function"
    },
    {
      "inputs": [
        {
          "internalType": "address",
          "name": "account",
          "type": "address"
        },
        {
          "internalType": "address[]",
          "name": "tokens",
          "type": "address[]"
        }
      ],
      "name": "associateTokensPublic",
      "outputs": [
        {
          "internalType": "int256",
          "name": "responseCode",
          "type": "int256"
        }
      ],
      "stateMutability": "nonpayable",
      "type": "function"
    },
    {
      "inputs": [
        {
          "internalType": "address",
          "name": "treasury",
          "type": "address"
        }
      ],
      "name": "createFungibleTokenPublic",
      "outputs": [],
      "stateMutability": "payable",
      "type": "function"
    },
    {
      "inputs": [
        {
          "internalType": "address",
          "name": "treasury",
          "type": "address"
        },
        {
          "internalType": "address",
          "name": "fixedFeeTokenAddress",
          "type": "address"
        }
      ],
      "name": "createFungibleTokenWithCustomFeesPublic",
      "outputs": [],
      "stateMutability": "payable",
      "type": "function"
    },
    {
      "inputs": [
        {
          "internalType": "address",
          "name": "treasury",
          "type": "address"
        },
        {
          "internalType": "bytes",
          "name": "adminKey",
          "type": "bytes"
        },
        {
          "internalType": "int64",
          "name": "amount",
          "type": "int64"
        }
      ],
      "name": "createFungibleTokenWithSECP256K1AdminKeyAssociateAndTransferToAddressPublic",
      "outputs": [],
      "stateMutability": "payable",
      "type": "function"
    },
    {
      "inputs": [
        {
          "internalType": "address",
          "name": "treasury",
          "type": "address"
        },
        {
          "internalType": "bytes",
          "name": "adminKey",
          "type": "bytes"
        }
      ],
      "name": "createFungibleTokenWithSECP256K1AdminKeyPublic",
      "outputs": [
        {
          "internalType": "address",
          "name": "",
          "type": "address"
        }
      ],
      "stateMutability": "payable",
      "type": "function"
    },
    {
      "inputs": [
        {
          "internalType": "address",
          "name": "treasury",
          "type": "address"
        }
      ],
      "name": "createNonFungibleTokenPublic",
      "outputs": [],
      "stateMutability": "payable",
      "type": "function"
    },
    {
      "inputs": [
        {
          "internalType": "address",
          "name": "treasury",
          "type": "address"
        },
        {
          "internalType": "address",
          "name": "fixedFeeTokenAddress",
          "type": "address"
        }
      ],
      "name": "createNonFungibleTokenWithCustomFeesPublic",
      "outputs": [],
      "stateMutability": "payable",
      "type": "function"
    },
    {
      "inputs": [
        {
          "internalType": "address",
          "name": "treasury",
          "type": "address"
        },
        {
          "internalType": "bytes",
          "name": "adminKey",
          "type": "bytes"
        }
      ],
      "name": "createNonFungibleTokenWithSECP256K1AdminKeyPublic",
      "outputs": [],
      "stateMutability": "payable",
      "type": "function"
    },
    {
      "inputs": [
        {
          "internalType": "address",
          "name": "token",
          "type": "address"
        },
        {
          "internalType": "address",
          "name": "from",
          "type": "address"
        },
        {
          "internalType": "address",
          "name": "to",
          "type": "address"
        },
        {
          "internalType": "uint256",
          "name": "amount",
          "type": "uint256"
        }
      ],
      "name": "delegateTransferFrom",
      "outputs": [
        {
          "internalType": "int64",
          "name": "responseCode",
          "type": "int64"
        }
      ],
      "stateMutability": "nonpayable",
      "type": "function"
    },
    {
      "inputs": [
        {
          "internalType": "address",
          "name": "token",
          "type": "address"
        },
        {
          "internalType": "address",
          "name": "from",
          "type": "address"
        },
        {
          "internalType": "address",
          "name": "to",
          "type": "address"
        },
        {
          "internalType": "uint256",
          "name": "serialNumber",
          "type": "uint256"
        }
      ],
      "name": "delegateTransferFromNFT",
      "outputs": [
        {
          "internalType": "int64",
          "name": "responseCode",
          "type": "int64"
        }
      ],
      "stateMutability": "nonpayable",
      "type": "function"
    },
    {
      "inputs": [
        {
          "internalType": "address",
          "name": "token",
          "type": "address"
        },
        {
          "internalType": "address",
          "name": "account",
          "type": "address"
        }
      ],
      "name": "grantTokenKycPublic",
      "outputs": [
        {
          "internalType": "int64",
          "name": "responseCode",
          "type": "int64"
        }
      ],
      "stateMutability": "nonpayable",
      "type": "function"
    },
    {
      "inputs": [
        {
          "internalType": "address",
          "name": "token",
          "type": "address"
        },
        {
          "internalType": "int64",
          "name": "amount",
          "type": "int64"
        },
        {
          "internalType": "bytes[]",
          "name": "metadata",
          "type": "bytes[]"
        }
      ],
      "name": "mintTokenPublic",
      "outputs": [
        {
          "internalType": "int256",
          "name": "responseCode",
          "type": "int256"
        },
        {
          "internalType": "int64",
          "name": "newTotalSupply",
          "type": "int64"
        },
        {
          "internalType": "int64[]",
          "name": "serialNumbers",
          "type": "int64[]"
        }
      ],
      "stateMutability": "nonpayable",
      "type": "function"
    },
    {
      "inputs": [
        {
          "internalType": "address",
          "name": "token",
          "type": "address"
        },
        {
          "internalType": "int64",
          "name": "amount",
          "type": "int64"
        },
        {
          "internalType": "bytes[]",
          "name": "metadata",
          "type": "bytes[]"
        }
      ],
      "name": "mintTokenToAddressPublic",
      "outputs": [
        {
          "internalType": "int256",
          "name": "responseCode",
          "type": "int256"
        },
        {
          "internalType": "int64",
          "name": "newTotalSupply",
          "type": "int64"
        },
        {
          "internalType": "int64[]",
          "name": "serialNumbers",
          "type": "int64[]"
        }
      ],
      "stateMutability": "nonpayable",
      "type": "function"
    },
    {
      "inputs": [
        {
          "internalType": "address",
          "name": "token",
          "type": "address"
        },
        {
          "internalType": "address",
          "name": "from",
          "type": "address"
        },
        {
          "internalType": "address",
          "name": "to",
          "type": "address"
        },
        {
          "internalType": "uint256",
          "name": "amount",
          "type": "uint256"
        }
      ],
      "name": "transferFrom",
      "outputs": [
        {
          "internalType": "int64",
          "name": "responseCode",
          "type": "int64"
        }
      ],
      "stateMutability": "nonpayable",
      "type": "function"
    },
    {
      "inputs": [
        {
          "internalType": "address",
          "name": "token",
          "type": "address"
        },
        {
          "internalType": "address",
          "name": "from",
          "type": "address"
        },
        {
          "internalType": "address",
          "name": "to",
          "type": "address"
        },
        {
          "internalType": "uint256",
          "name": "serialNumber",
          "type": "uint256"
        }
      ],
      "name": "transferFromNFT",
      "outputs": [
        {
          "internalType": "int64",
          "name": "responseCode",
          "type": "int64"
        }
      ],
      "stateMutability": "nonpayable",
      "type": "function"
    },
    {
      "inputs": [
        {
          "internalType": "address",
          "name": "token",
          "type": "address"
        },
        {
          "components": [
            {
              "internalType": "string",
              "name": "name",
              "type": "string"
            },
            {
              "internalType": "string",
              "name": "symbol",
              "type": "string"
            },
            {
              "internalType": "address",
              "name": "treasury",
              "type": "address"
            },
            {
              "internalType": "string",
              "name": "memo",
              "type": "string"
            },
            {
              "internalType": "bool",
              "name": "tokenSupplyType",
              "type": "bool"
            },
            {
              "internalType": "int64",
              "name": "maxSupply",
              "type": "int64"
            },
            {
              "internalType": "bool",
              "name": "freezeDefault",
              "type": "bool"
            },
            {
              "components": [
                {
                  "internalType": "uint256",
                  "name": "keyType",
                  "type": "uint256"
                },
                {
                  "components": [
                    {
                      "internalType": "bool",
                      "name": "inheritAccountKey",
                      "type": "bool"
                    },
                    {
                      "internalType": "address",
                      "name": "contractId",
                      "type": "address"
                    },
                    {
                      "internalType": "bytes",
                      "name": "ed25519",
                      "type": "bytes"
                    },
                    {
                      "internalType": "bytes",
                      "name": "ECDSA_secp256k1",
                      "type": "bytes"
                    },
                    {
                      "internalType": "address",
                      "name": "delegatableContractId",
                      "type": "address"
                    }
                  ],
                  "internalType": "struct IHederaTokenService.KeyValue",
                  "name": "key",
                  "type": "tuple"
                }
              ],
              "internalType": "struct IHederaTokenService.TokenKey[]",
              "name": "tokenKeys",
              "type": "tuple[]"
            },
            {
              "components": [
                {
                  "internalType": "int64",
                  "name": "second",
                  "type": "int64"
                },
                {
                  "internalType": "address",
                  "name": "autoRenewAccount",
                  "type": "address"
                },
                {
                  "internalType": "int64",
                  "name": "autoRenewPeriod",
                  "type": "int64"
                }
              ],
              "internalType": "struct IHederaTokenService.Expiry",
              "name": "expiry",
              "type": "tuple"
            }
          ],
          "internalType": "struct IHederaTokenService.HederaToken",
          "name": "tokenInfo",
          "type": "tuple"
        }
      ],
      "name": "updateTokenInfoPublic",
      "outputs": [
        {
          "internalType": "int256",
          "name": "responseCode",
          "type": "int256"
        }
      ],
      "stateMutability": "nonpayable",
      "type": "function"
    }
  ],
  "bytecode": "0x60c06040526009608081905268746f6b656e4e616d6560b81b60a09081526200002c9160029190620001cc565b5060408051808201909152600b8082526a1d1bdad95b94de5b589bdb60aa1b60209092019182526200006191600391620001cc565b50604080518082019091526004808252636d656d6f60e01b60209092019182526200008d9181620001cc565b50600580546001600160a81b031916700800000000000003e800000000000003e8179055348015620000be57600080fd5b50600160208181527fa6eef7e35abe7026729641147f7915573c7e97b47efa546f5f6e3230263bcb499190915560027fcc69885fda6bcc1a4ace058b4a62bf5e179ea78fd58a1ccd71c22cc9b688792f5560047fd9d16d34ffb15ba3a3d852f0d403e2ce1d691fb54de27ac87cd2f993f3ec330f5560087f7dfe757ecd65cbd7922a9c0161e935dd7fdbcc0e999689c7d31633896b1fc60b5560107fedc95719e9a3b28dd8e80877cb5880a9be7de1a13fc8b05e7999683b6b567643557fe2689cd4a84e23ad2f564004f1c9013e9589d260bde6380aba3ca7e09e4df40c55600660005260407f8f331abe73332f95a25873e8b430885974c0409691f89d643119a11623a7924a55620002af565b828054620001da9062000272565b90600052602060002090601f016020900481019282620001fe576000855562000249565b82601f106200021957805160ff191683800117855562000249565b8280016001018555821562000249579182015b82811115620002495782518255916020019190600101906200022c565b50620002579291506200025b565b5090565b5b808211156200025757600081556001016200025c565b600181811c908216806200028757607f821691505b60208210811415620002a957634e487b7160e01b600052602260045260246000fd5b50919050565b613af880620002bf6000396000f3fe6080604052600436106100fe5760003560e01c806371de370711610095578063b35d417a11610064578063b35d417a14610291578063d85f74c1146102a4578063de84a779146102b7578063eac6f3fe146102d7578063f4a01e5b146102f757600080fd5b806371de3707146102205780638ba74da0146102335780638f74a17b146102465780639b23d3d91461027157600080fd5b806315dacbea116100d157806315dacbea1461019e57806336348de3146101be5780634b5c6687146101de5780634d1769d6146101f157600080fd5b80630488c939146101035780630fd2601e14610118578063118741e71461015057806311e1fc071461017e575b600080fd5b610116610111366004612b5b565b610317565b005b34801561012457600080fd5b50610138610133366004612b5b565b61088a565b60405160079190910b81526020015b60405180910390f35b34801561015c57600080fd5b5061017061016b366004612c6f565b6108e7565b604051908152602001610147565b34801561018a57600080fd5b50610138610199366004612d23565b61093b565b3480156101aa57600080fd5b506101386101b9366004612d23565b610a2d565b3480156101ca57600080fd5b506101706101d9366004612fe9565b610ae9565b6101166101ec366004613131565b610af5565b3480156101fd57600080fd5b5061021161020c36600461314e565b610efd565b60405161014793929190613264565b61011661022e36600461328f565b610fbe565b610116610241366004612b5b565b611150565b6102596102543660046132f3565b6115bc565b6040516001600160a01b039091168152602001610147565b34801561027d57600080fd5b5061013861028c366004612d23565b61197e565b61011661029f3660046132f3565b6119c3565b6101166102b2366004613131565b611d69565b3480156102c357600080fd5b506102116102d236600461314e565b612104565b3480156102e357600080fd5b506101386102f2366004612d23565b61219e565b34801561030357600080fd5b50610170610312366004612b5b565b6121e3565b60408051600580825260c08201909252600091816020015b610337612ad6565b81526020019060019003908161032f57905050905061036a600060066000604051806020016040528060008152506121ef565b8160008151811061037d5761037d613343565b60200260200101819052506103a46001600060405180602001604052806000815250612226565b816001815181106103b7576103b7613343565b60200260200101819052506103de6002600060405180602001604052806000815250612226565b816002815181106103f1576103f1613343565b60200260200101819052506104186004600060405180602001604052806000815250612226565b8160038151811061042b5761042b613343565b60200260200101819052506104526003600060405180602001604052806000815250612226565b8160048151811061046557610465613343565b602002602001018190525060006040518060600160405280600060070b8152602001856001600160a01b03168152602001627a120060070b81525090506000604051806101200160405280600280546104bd90613359565b80601f01602080910402602001604051908101604052809291908181526020018280546104e990613359565b80156105365780601f1061050b57610100808354040283529160200191610536565b820191906000526020600020905b81548152906001019060200180831161051957829003601f168201915b505050505081526020016003805461054d90613359565b80601f016020809104026020016040519081016040528092919081815260200182805461057990613359565b80156105c65780601f1061059b576101008083540402835291602001916105c6565b820191906000526020600020905b8154815290600101906020018083116105a957829003601f168201915b50505050508152602001866001600160a01b03168152602001600480546105ec90613359565b80601f016020809104026020016040519081016040528092919081815260200182805461061890613359565b80156106655780601f1061063a57610100808354040283529160200191610665565b820191906000526020600020905b81548152906001019060200180831161064857829003601f168201915b5050509183525050600160208201819052600554600160401b810460070b6040840152600160a01b900460ff16151560608301526080820186905260a090910184905290915060009060405190808252806020026020018201604052801561070757816020015b6040805160a0810182526000808252602080830182905292820181905260608201819052608082015282526000199092019101816106cc5790505b506040805160a081018252600181526001600160a01b0380891660208301526000928201839052606082018390528916608082015282519293509183919061075157610751613343565b6020908102919091010152604080516001808252818301909252600091816020015b6040805160c08101825260008082526020808301829052928201819052606082018190526080820181905260a082015282526000199092019101816107735790505090506040518060c00160405280600460070b8152602001600560070b8152602001600a60070b8152602001876001600160a01b03168152602001600015158152602001886001600160a01b03168152508160008151811061081857610818613343565b602002602001018190525060008061083185858561225b565b90925090506016821461084357600080fd5b6040516001600160a01b03821681527f7bb17726df1f3adee8aa00ba8e8bc5d6f182af3bbf77604639cb7f008dd3b4ed9060200160405180910390a1505050505050505050565b60006108968383612383565b604051600782900b81529091507f90a5cf4cffe88b4edbb041cfc7a8a812c48a5ec30b84640fb37690875168e3aa9060200160405180910390a1600781900b6016146108e157600080fd5b92915050565b60006108f38383612466565b90507f90a5cf4cffe88b4edbb041cfc7a8a812c48a5ec30b84640fb37690875168e3aa8160405161092691815260200190565b60405180910390a1601681146108e157600080fd5b6040516001600160a01b038581166024830152848116604483015283166064820152608481018290526000908190819061016790639b23d3d960e01b9060a4015b60408051601f198184030181529181526020820180516001600160e01b03166001600160e01b03199094169390931790925290516109ba91906133c4565b600060405180830381855af49150503d80600081146109f5576040519150601f19603f3d011682016040523d82523d6000602084013e6109fa565b606091505b509150915081610a0b576015610a1f565b80806020019051810190610a1f91906133f2565b60030b979650505050505050565b6040516001600160a01b038581166024830152848116604483015283166064820152608481018290526000908190819061016790630aed65f560e11b9060a4015b60408051601f198184030181529181526020820180516001600160e01b03166001600160e01b0319909416939093179092529051610aac91906133c4565b6000604051808303816000865af19150503d80600081146109f5576040519150601f19603f3d011682016040523d82523d6000602084013e6109fa565b60006108f38383612492565b60408051600580825260c08201909252600091816020015b610b15612ad6565b815260200190600190039081610b0d579050509050610b48600060066000604051806020016040528060008152506121ef565b81600081518110610b5b57610b5b613343565b6020026020010181905250610b826001600060405180602001604052806000815250612226565b81600181518110610b9557610b95613343565b6020026020010181905250610bbc6002600060405180602001604052806000815250612226565b81600281518110610bcf57610bcf613343565b6020026020010181905250610bf66003600060405180602001604052806000815250612226565b81600381518110610c0957610c09613343565b6020026020010181905250610c306004600060405180602001604052806000815250612226565b81600481518110610c4357610c43613343565b602002602001018190525060006040518060600160405280600060070b8152602001846001600160a01b03168152602001627a120060070b8152509050600060405180610120016040528060028054610c9b90613359565b80601f0160208091040260200160405190810160405280929190818152602001828054610cc790613359565b8015610d145780601f10610ce957610100808354040283529160200191610d14565b820191906000526020600020905b815481529060010190602001808311610cf757829003601f168201915b5050505050815260200160038054610d2b90613359565b80601f0160208091040260200160405190810160405280929190818152602001828054610d5790613359565b8015610da45780601f10610d7957610100808354040283529160200191610da4565b820191906000526020600020905b815481529060010190602001808311610d8757829003601f168201915b50505050508152602001856001600160a01b0316815260200160048054610dca90613359565b80601f0160208091040260200160405190810160405280929190818152602001828054610df690613359565b8015610e435780601f10610e1857610100808354040283529160200191610e43565b820191906000526020600020905b815481529060010190602001808311610e2657829003601f168201915b505050918352505060016020820152600554600160401b8104600790810b604084015260ff600160a01b830416151560608401526080830187905260a09092018590529192506000918291610ea791859181900b90600160801b900460030b6124be565b909250905060168214610eb957600080fd5b6040516001600160a01b03821681527f7bb17726df1f3adee8aa00ba8e8bc5d6f182af3bbf77604639cb7f008dd3b4ed9060200160405180910390a1505050505050565b6000806060610f0d86868661252b565b60405183815292955090935091507f90a5cf4cffe88b4edbb041cfc7a8a812c48a5ec30b84640fb37690875168e3aa9060200160405180910390a160168314610f5557600080fd5b7ffc6b20023c4bac8ff1c48c1693e0cea5cd3c2163e9c2da41c58f17dd6d9f163d8282604051610f8692919061340d565b60405180910390a1610fb486303384600081518110610fa757610fa7613343565b6020026020010151612629565b5093509350939050565b604051638f74a17b60e01b81526000903090638f74a17b903490610fe8908890889060040161345d565b6020604051808303818588803b15801561100157600080fd5b505af1158015611015573d6000803e3d6000fd5b50505050506040513d601f19601f8201168201806040525081019061103a919061347f565b60405163f4a01e5b60e01b81523360048201526001600160a01b0382166024820152909150309063f4a01e5b90604401602060405180830381600087803b15801561108457600080fd5b505af1158015611098573d6000803e3d6000fd5b505050506040513d601f19601f820116820180604052508101906110bc919061349c565b506040516307e9300f60e11b81526001600160a01b03821660048201523360248201523090630fd2601e90604401602060405180830381600087803b15801561110457600080fd5b505af1158015611118573d6000803e3d6000fd5b505050506040513d601f19601f8201168201806040525081019061113c91906134b5565b5061114981303385612671565b5050505050565b604080516001808252818301909252600091816020015b61116f612ad6565b8152602001906001900390816111675790505090506111a16000806000604051806020016040528060008152506121ef565b816000815181106111b4576111b4613343565b602002602001018190525060006040518060600160405280600060070b8152602001856001600160a01b03168152602001627a120060070b815250905060006040518061012001604052806002805461120c90613359565b80601f016020809104026020016040519081016040528092919081815260200182805461123890613359565b80156112855780601f1061125a57610100808354040283529160200191611285565b820191906000526020600020905b81548152906001019060200180831161126857829003601f168201915b505050505081526020016003805461129c90613359565b80601f01602080910402602001604051908101604052809291908181526020018280546112c890613359565b80156113155780601f106112ea57610100808354040283529160200191611315565b820191906000526020600020905b8154815290600101906020018083116112f857829003601f168201915b50505050508152602001866001600160a01b031681526020016004805461133b90613359565b80601f016020809104026020016040519081016040528092919081815260200182805461136790613359565b80156113b45780601f10611389576101008083540402835291602001916113b4565b820191906000526020600020905b81548152906001019060200180831161139757829003601f168201915b5050509183525050600160208201819052600554600160401b900460070b6040808401919091526000606084018190526080840188905260a09093018690528051828152808201909152929350909190816020015b6040805160a0810182526000808252602080830182905292820181905260608201819052608082015282526000199092019101816114095750506040805160a081018252600181526001600160a01b0388811660208301526000928201839052606082018390528916608082015282519293509183919061148c5761148c613343565b6020908102919091010152604080516001808252818301909252600091816020015b6040805160c08101825260008082526020808301829052928201819052606082018190526080820181905260a082015282526000199092019101816114ae5750506040805160c0810182526004815260056020820152600a91810191909152601e60608201526000608082018190526001600160a01b038a1660a08301528251929350909183919061154257611542613343565b60209081029190910101526005546000908190611572908690600781900b90600160801b900460030b87876126b9565b915091507f90a5cf4cffe88b4edbb041cfc7a8a812c48a5ec30b84640fb37690875168e3aa826040516115a791815260200190565b60405180910390a16016821461084357600080fd5b60408051600580825260c08201909252600091829190816020015b6115df612ad6565b8152602001906001900390816115d7579050509050611603600060066003866121ef565b8160008151811061161657611616613343565b602002602001018190525061162e6001600385612226565b8160018151811061164157611641613343565b60200260200101819052506116596002600385612226565b8160028151811061166c5761166c613343565b60200260200101819052506116846004600385612226565b8160038151811061169757611697613343565b60200260200101819052506116ae60038085612226565b816004815181106116c1576116c1613343565b602002602001018190525060006040518060600160405280600060070b8152602001866001600160a01b03168152602001627a120060070b815250905060006040518061012001604052806002805461171990613359565b80601f016020809104026020016040519081016040528092919081815260200182805461174590613359565b80156117925780601f1061176757610100808354040283529160200191611792565b820191906000526020600020905b81548152906001019060200180831161177557829003601f168201915b50505050508152602001600380546117a990613359565b80601f01602080910402602001604051908101604052809291908181526020018280546117d590613359565b80156118225780601f106117f757610100808354040283529160200191611822565b820191906000526020600020905b81548152906001019060200180831161180557829003601f168201915b50505050508152602001876001600160a01b031681526020016004805461184890613359565b80601f016020809104026020016040519081016040528092919081815260200182805461187490613359565b80156118c15780601f10611896576101008083540402835291602001916118c1565b820191906000526020600020905b8154815290600101906020018083116118a457829003601f168201915b505050918352505060016020820152600554600160401b8104600790810b604084015260ff600160a01b830416151560608401526080830187905260a0909201859052919250600091829161192591859181900b90600160801b900460030b6124be565b90925090506016821461193757600080fd5b6040516001600160a01b03821681527f7bb17726df1f3adee8aa00ba8e8bc5d6f182af3bbf77604639cb7f008dd3b4ed9060200160405180910390a1979650505050505050565b6040516001600160a01b038581166024830152848116604483015283166064820152608481018290526000908190819061016790639b23d3d960e01b9060a401610a6e565b60408051600580825260c08201909252600091816020015b6119e3612ad6565b8152602001906001900390816119db579050509050611a07600060066003856121ef565b81600081518110611a1a57611a1a613343565b6020026020010181905250611a326001600384612226565b81600181518110611a4557611a45613343565b6020026020010181905250611a5d6002600384612226565b81600281518110611a7057611a70613343565b6020026020010181905250611a886004600384612226565b81600381518110611a9b57611a9b613343565b6020026020010181905250611ab260038084612226565b81600481518110611ac557611ac5613343565b602002602001018190525060006040518060600160405280600060070b8152602001856001600160a01b03168152602001627a120060070b8152509050600060405180610120016040528060028054611b1d90613359565b80601f0160208091040260200160405190810160405280929190818152602001828054611b4990613359565b8015611b965780601f10611b6b57610100808354040283529160200191611b96565b820191906000526020600020905b815481529060010190602001808311611b7957829003601f168201915b5050505050815260200160038054611bad90613359565b80601f0160208091040260200160405190810160405280929190818152602001828054611bd990613359565b8015611c265780601f10611bfb57610100808354040283529160200191611c26565b820191906000526020600020905b815481529060010190602001808311611c0957829003601f168201915b50505050508152602001866001600160a01b0316815260200160048054611c4c90613359565b80601f0160208091040260200160405190810160405280929190818152602001828054611c7890613359565b8015611cc55780601f10611c9a57610100808354040283529160200191611cc5565b820191906000526020600020905b815481529060010190602001808311611ca857829003601f168201915b505050918352505060016020820152600554600160401b810460070b6040830152600160a01b900460ff16151560608201526080810185905260a0018390529050600080611d12836127e7565b909250905060168214611d2457600080fd5b6040516001600160a01b03821681527f7bb17726df1f3adee8aa00ba8e8bc5d6f182af3bbf77604639cb7f008dd3b4ed9060200160405180910390a150505050505050565b60408051600580825260c08201909252600091816020015b611d89612ad6565b815260200190600190039081611d81579050509050611dbc600060066000604051806020016040528060008152506121ef565b81600081518110611dcf57611dcf613343565b6020026020010181905250611df66001600060405180602001604052806000815250612226565b81600181518110611e0957611e09613343565b6020026020010181905250611e306002600060405180602001604052806000815250612226565b81600281518110611e4357611e43613343565b6020026020010181905250611e6a6004600060405180602001604052806000815250612226565b81600381518110611e7d57611e7d613343565b6020026020010181905250611ea46003600060405180602001604052806000815250612226565b81600481518110611eb757611eb7613343565b602002602001018190525060006040518060600160405280600060070b8152602001846001600160a01b03168152602001627a120060070b8152509050600060405180610120016040528060028054611f0f90613359565b80601f0160208091040260200160405190810160405280929190818152602001828054611f3b90613359565b8015611f885780601f10611f5d57610100808354040283529160200191611f88565b820191906000526020600020905b815481529060010190602001808311611f6b57829003601f168201915b5050505050815260200160038054611f9f90613359565b80601f0160208091040260200160405190810160405280929190818152602001828054611fcb90613359565b80156120185780601f10611fed57610100808354040283529160200191612018565b820191906000526020600020905b815481529060010190602001808311611ffb57829003601f168201915b50505050508152602001856001600160a01b031681526020016004805461203e90613359565b80601f016020809104026020016040519081016040528092919081815260200182805461206a90613359565b80156120b75780601f1061208c576101008083540402835291602001916120b7565b820191906000526020600020905b81548152906001019060200180831161209a57829003601f168201915b505050918352505060016020820152600554600160401b810460070b6040830152600160a01b900460ff16151560608201526080810185905260a0018390529050600080610ea7836127e7565b600080606061211486868661252b565b60405183815292955090935091507f90a5cf4cffe88b4edbb041cfc7a8a812c48a5ec30b84640fb37690875168e3aa9060200160405180910390a16016831461215c57600080fd5b7ffc6b20023c4bac8ff1c48c1693e0cea5cd3c2163e9c2da41c58f17dd6d9f163d828260405161218d92919061340d565b60405180910390a193509350939050565b6040516001600160a01b038581166024830152848116604483015283166064820152608481018290526000908190819061016790630aed65f560e11b9060a40161097c565b60006108f38383612909565b6121f7612ad6565b604051806040016040528061220c878761293f565b815260200161221b8585612981565b905295945050505050565b61222e612ad6565b604051806040016040528061224286612a97565b81526020016122518585612981565b9052949350505050565b600080848061010001516000015160070b600014801561228557506101008101516040015160070b155b1561229b576101008101516276a7006040909101525b6000806101676001600160a01b03163463abb54eb560e01b8a8a8a6040516024016122c893929190613705565b60408051601f198184030181529181526020820180516001600160e01b03166001600160e01b031990941693909317909252905161230691906133c4565b60006040518083038185875af1925050503d8060008114612343576040519150601f19603f3d011682016040523d82523d6000602084013e612348565b606091505b50915091508161235b576015600061236f565b8080602001905181019061236f91906137bc565b60039190910b999098509650505050505050565b6040516001600160a01b038381166024830152821660448201526000908190819061016790638f8d7f9960e01b906064015b60408051601f198184030181529181526020820180516001600160e01b03166001600160e01b03199094169390931790925290516123f391906133c4565b6000604051808303816000865af19150503d8060008114612430576040519150601f19603f3d011682016040523d82523d6000602084013e612435565b606091505b50915091508161244657601561245a565b8080602001905181019061245a91906133f2565b60030b95945050505050565b60008060006101676001600160a01b0316632e63879b60e01b86866040516024016123b59291906137e8565b60008060006101676001600160a01b0316637d305cfa60e01b86866040516024016123b5929190613843565b600080848061010001516000015160070b60001480156124e857506101008101516040015160070b155b156124fe576101008101516276a7006040909101525b6000806101676001600160a01b031634630fb65bf360e01b8a8a8a6040516024016122c893929190613865565b60008060606000806101676001600160a01b031663e0f4059a60e01b89898960405160240161255c93929190613894565b60408051601f198184030181529181526020820180516001600160e01b03166001600160e01b031990941693909317909252905161259a91906133c4565b6000604051808303816000865af19150503d80600081146125d7576040519150601f19603f3d011682016040523d82523d6000602084013e6125dc565b606091505b5091509150816125ff576040805160008082526020820190925260159190612613565b808060200190518101906126139190613911565b60039290920b9a90995090975095505050505050565b6040516001600160a01b038581166024830152848116604483015283166064820152600782900b60848201526000908190819061016790635cfc901160e01b9060a401610a6e565b6040516001600160a01b038581166024830152848116604483015283166064820152600782900b6084820152600090819081906101679063eca3691760e01b9060a401610a6e565b600080868061010001516000015160070b60001480156126e357506101008101516040015160070b155b156126f9576101008101516276a7006040909101525b6000806101676001600160a01b031634632af0c59a60e01b8c8c8c8c8c60405160240161272a9594939291906139d1565b60408051601f198184030181529181526020820180516001600160e01b03166001600160e01b031990941693909317909252905161276891906133c4565b60006040518083038185875af1925050503d80600081146127a5576040519150601f19603f3d011682016040523d82523d6000602084013e6127aa565b606091505b5091509150816127bd57601560006127d1565b808060200190518101906127d191906137bc565b60039190910b9b909a5098505050505050505050565b600080828061010001516000015160070b600014801561281157506101008101516040015160070b155b15612827576101008101516276a7006040909101525b6000806101676001600160a01b03163463ea83f29360e01b886040516024016128509190613a99565b60408051601f198184030181529181526020820180516001600160e01b03166001600160e01b031990941693909317909252905161288e91906133c4565b60006040518083038185875af1925050503d80600081146128cb576040519150601f19603f3d011682016040523d82523d6000602084013e6128d0565b606091505b5091509150816128e357601560006128f7565b808060200190518101906128f791906137bc565b60039190910b97909650945050505050565b6040516001600160a01b03838116602483015282166044820152600090819081906101679063248a35ef60e11b906064016123b5565b600061296383600681111561295657612956613aac565b600160ff9091161b821790565b905061297a82600681111561295657612956613aac565b9392505050565b6129c76040518060a0016040528060001515815260200160006001600160a01b03168152602001606081526020016060815260200160006001600160a01b031681525090565b60008360048111156129db576129db613aac565b14156129ea57600181526108e1565b60018360048111156129fe576129fe613aac565b1415612a1a576000546001600160a01b031660208201526108e1565b6002836004811115612a2e57612a2e613aac565b1415612a4057604081018290526108e1565b6003836004811115612a5457612a54613aac565b1415612a6657606081018290526108e1565b6004836004811115612a7a57612a7a613aac565b14156108e1576000546001600160a01b0316608082015292915050565b600060016000836006811115612aaf57612aaf613aac565b6006811115612ac057612ac0613aac565b8152602001908152602001600020549050919050565b604051806040016040528060008152602001612b2e6040518060a0016040528060001515815260200160006001600160a01b03168152602001606081526020016060815260200160006001600160a01b031681525090565b905290565b6001600160a01b0381168114612b4857600080fd5b50565b8035612b5681612b33565b919050565b60008060408385031215612b6e57600080fd5b8235612b7981612b33565b91506020830135612b8981612b33565b809150509250929050565b634e487b7160e01b600052604160045260246000fd5b6040805190810167ffffffffffffffff81118282101715612bcd57612bcd612b94565b60405290565b60405160a0810167ffffffffffffffff81118282101715612bcd57612bcd612b94565b604051610120810167ffffffffffffffff81118282101715612bcd57612bcd612b94565b604051601f8201601f1916810167ffffffffffffffff81118282101715612c4357612c43612b94565b604052919050565b600067ffffffffffffffff821115612c6557612c65612b94565b5060051b60200190565b60008060408385031215612c8257600080fd5b8235612c8d81612b33565b915060208381013567ffffffffffffffff811115612caa57600080fd5b8401601f81018613612cbb57600080fd5b8035612cce612cc982612c4b565b612c1a565b81815260059190911b82018301908381019088831115612ced57600080fd5b928401925b82841015612d14578335612d0581612b33565b82529284019290840190612cf2565b80955050505050509250929050565b60008060008060808587031215612d3957600080fd5b8435612d4481612b33565b93506020850135612d5481612b33565b92506040850135612d6481612b33565b9396929550929360600135925050565b600082601f830112612d8557600080fd5b813567ffffffffffffffff811115612d9f57612d9f612b94565b612db2601f8201601f1916602001612c1a565b818152846020838601011115612dc757600080fd5b816020850160208301376000918101602001919091529392505050565b80358015158114612b5657600080fd5b8060070b8114612b4857600080fd5b8035612b5681612df4565b600082601f830112612e1f57600080fd5b81356020612e2f612cc983612c4b565b82815260059290921b84018101918181019086841115612e4e57600080fd5b8286015b84811015612f6857803567ffffffffffffffff80821115612e7257600080fd5b908801906040601f19838c038101821315612e8c57600080fd5b612e94612baa565b8885013581528285013584811115612eab57600080fd5b949094019360a0858e0383011215612ec35760008081fd5b612ecb612bd3565b9150612ed8898601612de4565b825282850135612ee781612b33565b828a015260608581013585811115612eff5760008081fd5b612f0d8f8c838a0101612d74565b8585015250608093508386013585811115612f285760008081fd5b612f368f8c838a0101612d74565b82850152505060a08501359450612f4c85612b33565b9181019390935280870192909252508352918301918301612e52565b509695505050505050565b600060608284031215612f8557600080fd5b6040516060810181811067ffffffffffffffff82111715612fa857612fa8612b94565b6040529050808235612fb981612df4565b81526020830135612fc981612b33565b60208201526040830135612fdc81612df4565b6040919091015292915050565b60008060408385031215612ffc57600080fd5b823561300781612b33565b9150602083013567ffffffffffffffff8082111561302457600080fd5b90840190610160828703121561303957600080fd5b613041612bf6565b82358281111561305057600080fd5b61305c88828601612d74565b82525060208301358281111561307157600080fd5b61307d88828601612d74565b60208301525061308f60408401612b4b565b60408201526060830135828111156130a657600080fd5b6130b288828601612d74565b6060830152506130c460808401612de4565b60808201526130d560a08401612e03565b60a08201526130e660c08401612de4565b60c082015260e0830135828111156130fd57600080fd5b61310988828601612e0e565b60e083015250610100915061312087838501612f73565b828201528093505050509250929050565b60006020828403121561314357600080fd5b813561297a81612b33565b60008060006060848603121561316357600080fd5b833561316e81612b33565b925060208481013561317f81612df4565b9250604085013567ffffffffffffffff8082111561319c57600080fd5b818701915087601f8301126131b057600080fd5b81356131be612cc982612c4b565b81815260059190911b8301840190848101908a8311156131dd57600080fd5b8585015b83811015613215578035858111156131f95760008081fd5b6132078d89838a0101612d74565b8452509186019186016131e1565b508096505050505050509250925092565b600081518084526020808501945080840160005b8381101561325957815160070b8752958201959082019060010161323a565b509495945050505050565b8381528260070b60208201526060604082015260006132866060830184613226565b95945050505050565b6000806000606084860312156132a457600080fd5b83356132af81612b33565b9250602084013567ffffffffffffffff8111156132cb57600080fd5b6132d786828701612d74565b92505060408401356132e881612df4565b809150509250925092565b6000806040838503121561330657600080fd5b823561331181612b33565b9150602083013567ffffffffffffffff81111561332d57600080fd5b61333985828601612d74565b9150509250929050565b634e487b7160e01b600052603260045260246000fd5b600181811c9082168061336d57607f821691505b6020821081141561338e57634e487b7160e01b600052602260045260246000fd5b50919050565b60005b838110156133af578181015183820152602001613397565b838111156133be576000848401525b50505050565b600082516133d6818460208701613394565b9190910192915050565b8051600381900b8114612b5657600080fd5b60006020828403121561340457600080fd5b61297a826133e0565b8260070b81526040602082015260006134296040830184613226565b949350505050565b60008151808452613449816020860160208601613394565b601f01601f19169290920160200192915050565b6001600160a01b03831681526040602082015260006134296040830184613431565b60006020828403121561349157600080fd5b815161297a81612b33565b6000602082840312156134ae57600080fd5b5051919050565b6000602082840312156134c757600080fd5b815161297a81612df4565b600081518084526020808501808196508360051b8101915082860160005b858110156135895782840389528151604081518652868201519150808787015281511515818701528682015160606001600160a01b03808316828a015283850151935060a09250608083818b015261354b60e08b0186613431565b928601518a8403603f1901858c01529294506135678584613431565b9501511660c098909801979097525050988501989350908401906001016134f0565b5091979650505050505050565b600061016082518185526135ac82860182613431565b915050602083015184820360208601526135c68282613431565b91505060408301516135e360408601826001600160a01b03169052565b50606083015184820360608601526135fb8282613431565b9150506080830151613611608086018215159052565b5060a083015161362660a086018260070b9052565b5060c083015161363a60c086018215159052565b5060e083015184820360e086015261365282826134d2565b9150506101008084015161368e82870182805160070b82526001600160a01b036020820151166020830152604081015160070b60408301525050565b5090949350505050565b600081518084526020808501945080840160005b83811015613259578151805160070b8852838101516001600160a01b03908116858a01526040808301511515908a01526060808301511515908a0152608091820151169088015260a090960195908201906001016136ac565b6000606080835261371881840187613596565b60208482038186015261372b8288613698565b91506040858303818701528287518085528385019150838901945060005b818110156137ac5785518051600790810b855286820151810b8786015285820151900b85850152878101516001600160a01b039081168986015260808083015115159086015260a09182015116908401529484019460c090920191600101613749565b50909a9950505050505050505050565b600080604083850312156137cf57600080fd5b6137d8836133e0565b91506020830151612b8981612b33565b6000604082016001600160a01b0380861684526020604081860152828651808552606087019150828801945060005b81811015613835578551851683529483019491830191600101613817565b509098975050505050505050565b6001600160a01b03831681526040602082015260006134296040830184613596565b6060815260006138786060830186613596565b90508360070b60208301528260030b6040830152949350505050565b6000606082016001600160a01b038616835260208560070b818501526060604085015281855180845260808601915060808160051b870101935082870160005b8281101561390257607f198887030184526138f0868351613431565b955092840192908401906001016138d4565b50939998505050505050505050565b60008060006060848603121561392657600080fd5b61392f846133e0565b925060208085015161394081612df4565b604086015190935067ffffffffffffffff81111561395d57600080fd5b8501601f8101871361396e57600080fd5b805161397c612cc982612c4b565b81815260059190911b8201830190838101908983111561399b57600080fd5b928401925b828410156139c25783516139b381612df4565b825292840192908401906139a0565b80955050505050509250925092565b600060a08083526139e481840189613596565b6020600789810b8287015260408960030b81880152606087850381890152613a0c858b613698565b94506080888603818a0152858a518088528688019150868c01975060005b81811015613a845788518051880b845288810151880b8985015286810151880b8785015285810151880b86850152848101511515858501528a01516001600160a01b03168a8401529787019760c090920191600101613a2a565b50909f9e505050505050505050505050505050565b60208152600061297a6020830184613596565b634e487b7160e01b600052602160045260246000fdfea2646970667358221220f96d135c7f4e4c4c5b2b64522d30869ce3fa09f79a6630770ade73c42c8c7ad564736f6c63430008090033",
  "linkReferences": {},
  "deployedLinkReferences": {}
}