{
  "_format": "hh-sol-artifact-1",
  "contractName": "TokenCreateContract",
  "sourceName": "contracts/hts-precompile/examples/token-create/TokenCreateContract.sol",
  "abi": [
    {
      "anonymous": false,
      "inputs": [
        {
          "indexed": false,
          "internalType": "address",
          "name": "tokenAddress",
          "type": "address"
        }
      ],
      "name": "CreatedToken",
      "type": "event"
    },
    {
      "anonymous": false,
      "inputs": [
        {
          "indexed": false,
          "internalType": "bool",
          "name": "kycGranted",
          "type": "bool"
        }
      ],
      "name": "KycGranted",
      "type": "event"
    },
    {
      "anonymous": false,
      "inputs": [
        {
          "indexed": false,
          "internalType": "uint64",
          "name": "newTotalSupply",
          "type": "uint64"
        },
        {
          "indexed": false,
          "internalType": "int64[]",
          "name": "serialNumbers",
          "type": "int64[]"
        }
      ],
      "name": "MintedToken",
      "type": "event"
    },
    {
      "anonymous": false,
      "inputs": [
        {
          "indexed": false,
          "internalType": "int256",
          "name": "responseCode",
          "type": "int256"
        }
      ],
      "name": "ResponseCode",
      "type": "event"
    },
    {
      "anonymous": false,
      "inputs": [
        {
          "indexed": false,
          "internalType": "bool",
          "name": "unpaused",
          "type": "bool"
        }
      ],
      "name": "UnpausedToken",
      "type": "event"
    },
    {
      "inputs": [
        {
          "internalType": "address",
          "name": "account",
          "type": "address"
        },
        {
          "internalType": "address",
          "name": "token",
          "type": "address"
        }
      ],
      "name": "associateTokenPublic",
      "outputs": [
        {
          "internalType": "int256",
          "name": "responseCode",
          "type": "int256"
        }
      ],
      "stateMutability": "nonpayable",
      "type": "function"
    },
    {
      "inputs": [
        {
          "internalType": "address",
          "name": "account",
          "type": "address"
        },
        {
          "internalType": "address[]",
          "name": "tokens",
          "type": "address[]"
        }
      ],
      "name": "associateTokensPublic",
      "outputs": [
        {
          "internalType": "int256",
          "name": "responseCode",
          "type": "int256"
        }
      ],
      "stateMutability": "nonpayable",
      "type": "function"
    },
    {
      "inputs": [
        {
          "internalType": "address",
          "name": "treasury",
          "type": "address"
        }
      ],
      "name": "createFungibleTokenPublic",
      "outputs": [],
      "stateMutability": "payable",
      "type": "function"
    },
    {
      "inputs": [
        {
          "internalType": "address",
          "name": "treasury",
          "type": "address"
        },
        {
          "internalType": "address",
          "name": "fixedFeeTokenAddress",
          "type": "address"
        }
      ],
      "name": "createFungibleTokenWithCustomFeesPublic",
      "outputs": [],
      "stateMutability": "payable",
      "type": "function"
    },
    {
      "inputs": [
        {
          "internalType": "address",
          "name": "treasury",
          "type": "address"
        }
      ],
      "name": "createNonFungibleTokenPublic",
      "outputs": [],
      "stateMutability": "payable",
      "type": "function"
    },
    {
      "inputs": [
        {
          "internalType": "address",
          "name": "treasury",
          "type": "address"
        },
        {
          "internalType": "address",
          "name": "fixedFeeTokenAddress",
          "type": "address"
        }
      ],
      "name": "createNonFungibleTokenWithCustomFeesPublic",
      "outputs": [],
      "stateMutability": "payable",
      "type": "function"
    },
    {
      "inputs": [
        {
          "internalType": "address",
          "name": "token",
          "type": "address"
        }
      ],
      "name": "getTokenExpiryInfo",
      "outputs": [
        {
          "internalType": "int256",
          "name": "responseCode",
          "type": "int256"
        },
        {
          "components": [
            {
              "internalType": "uint32",
              "name": "second",
              "type": "uint32"
            },
            {
              "internalType": "address",
              "name": "autoRenewAccount",
              "type": "address"
            },
            {
              "internalType": "uint32",
              "name": "autoRenewPeriod",
              "type": "uint32"
            }
          ],
          "internalType": "struct IHederaTokenService.Expiry",
          "name": "expiryInfo",
          "type": "tuple"
        }
      ],
      "stateMutability": "nonpayable",
      "type": "function"
    },
    {
      "inputs": [
        {
          "internalType": "address",
          "name": "token",
          "type": "address"
        },
        {
          "internalType": "address",
          "name": "account",
          "type": "address"
        }
      ],
      "name": "grantTokenKyc",
      "outputs": [
        {
          "internalType": "int64",
          "name": "responseCode",
          "type": "int64"
        }
      ],
      "stateMutability": "nonpayable",
      "type": "function"
    },
    {
      "inputs": [
        {
          "internalType": "address",
          "name": "token",
          "type": "address"
        },
        {
          "internalType": "address",
          "name": "account",
          "type": "address"
        }
      ],
      "name": "grantTokenKycPublic",
      "outputs": [
        {
          "internalType": "int64",
          "name": "responseCode",
          "type": "int64"
        }
      ],
      "stateMutability": "nonpayable",
      "type": "function"
    },
    {
      "inputs": [
        {
          "internalType": "address",
          "name": "token",
          "type": "address"
        },
        {
          "internalType": "address",
          "name": "account",
          "type": "address"
        }
      ],
      "name": "isKyc",
      "outputs": [
        {
          "internalType": "int64",
          "name": "responseCode",
          "type": "int64"
        },
        {
          "internalType": "bool",
          "name": "kycGranted",
          "type": "bool"
        }
      ],
      "stateMutability": "nonpayable",
      "type": "function"
    },
    {
      "inputs": [
        {
          "internalType": "address",
          "name": "token",
          "type": "address"
        },
        {
          "internalType": "uint64",
          "name": "amount",
          "type": "uint64"
        },
        {
          "internalType": "bytes[]",
          "name": "metadata",
          "type": "bytes[]"
        }
      ],
      "name": "mintTokenPublic",
      "outputs": [
        {
          "internalType": "int256",
          "name": "responseCode",
          "type": "int256"
        },
        {
          "internalType": "uint64",
          "name": "newTotalSupply",
          "type": "uint64"
        },
        {
          "internalType": "int64[]",
          "name": "serialNumbers",
          "type": "int64[]"
        }
      ],
      "stateMutability": "nonpayable",
      "type": "function"
    },
    {
      "inputs": [
        {
          "internalType": "address",
          "name": "token",
          "type": "address"
        }
      ],
      "name": "pauseToken",
      "outputs": [
        {
          "internalType": "int256",
          "name": "responseCode",
          "type": "int256"
        }
      ],
      "stateMutability": "nonpayable",
      "type": "function"
    },
    {
      "inputs": [
        {
          "internalType": "address",
          "name": "token",
          "type": "address"
        },
        {
          "internalType": "address",
          "name": "account",
          "type": "address"
        }
      ],
      "name": "revokeTokenKyc",
      "outputs": [
        {
          "internalType": "int64",
          "name": "responseCode",
          "type": "int64"
        }
      ],
      "stateMutability": "nonpayable",
      "type": "function"
    },
    {
      "inputs": [
        {
          "internalType": "address",
          "name": "token",
          "type": "address"
        },
        {
          "internalType": "address",
          "name": "from",
          "type": "address"
        },
        {
          "internalType": "address",
          "name": "to",
          "type": "address"
        },
        {
          "internalType": "uint256",
          "name": "amount",
          "type": "uint256"
        }
      ],
      "name": "transferFrom",
      "outputs": [
        {
          "internalType": "int64",
          "name": "responseCode",
          "type": "int64"
        }
      ],
      "stateMutability": "nonpayable",
      "type": "function"
    },
    {
      "inputs": [
        {
          "internalType": "address",
          "name": "token",
          "type": "address"
        },
        {
          "internalType": "address",
          "name": "from",
          "type": "address"
        },
        {
          "internalType": "address",
          "name": "to",
          "type": "address"
        },
        {
          "internalType": "uint256",
          "name": "serialNumber",
          "type": "uint256"
        }
      ],
      "name": "transferFromNFT",
      "outputs": [
        {
          "internalType": "int64",
          "name": "responseCode",
          "type": "int64"
        }
      ],
      "stateMutability": "nonpayable",
      "type": "function"
    },
    {
      "inputs": [
        {
          "internalType": "address",
          "name": "token",
          "type": "address"
        },
        {
          "internalType": "address",
          "name": "account",
          "type": "address"
        }
      ],
      "name": "unfreezeTokenPublic",
      "outputs": [
        {
          "internalType": "int256",
          "name": "responseCode",
          "type": "int256"
        }
      ],
      "stateMutability": "nonpayable",
      "type": "function"
    },
    {
      "inputs": [
        {
          "internalType": "address",
          "name": "token",
          "type": "address"
        }
      ],
      "name": "unpauseToken",
      "outputs": [
        {
          "internalType": "int256",
          "name": "responseCode",
          "type": "int256"
        }
      ],
      "stateMutability": "nonpayable",
      "type": "function"
    },
    {
      "inputs": [
        {
          "internalType": "address",
          "name": "token",
          "type": "address"
        }
      ],
      "name": "unpauseTokenPublic",
      "outputs": [
        {
          "internalType": "int256",
          "name": "responseCode",
          "type": "int256"
        }
      ],
      "stateMutability": "nonpayable",
      "type": "function"
    },
    {
      "inputs": [
        {
          "internalType": "address",
          "name": "token",
          "type": "address"
        },
        {
          "components": [
            {
              "internalType": "uint32",
              "name": "second",
              "type": "uint32"
            },
            {
              "internalType": "address",
              "name": "autoRenewAccount",
              "type": "address"
            },
            {
              "internalType": "uint32",
              "name": "autoRenewPeriod",
              "type": "uint32"
            }
          ],
          "internalType": "struct IHederaTokenService.Expiry",
          "name": "expiryInfo",
          "type": "tuple"
        }
      ],
      "name": "updateTokenExpiryInfo",
      "outputs": [
        {
          "internalType": "int256",
          "name": "responseCode",
          "type": "int256"
        }
      ],
      "stateMutability": "nonpayable",
      "type": "function"
    },
    {
      "inputs": [
        {
          "internalType": "address",
          "name": "token",
          "type": "address"
        },
        {
          "components": [
            {
              "internalType": "string",
              "name": "name",
              "type": "string"
            },
            {
              "internalType": "string",
              "name": "symbol",
              "type": "string"
            },
            {
              "internalType": "address",
              "name": "treasury",
              "type": "address"
            },
            {
              "internalType": "string",
              "name": "memo",
              "type": "string"
            },
            {
              "internalType": "bool",
              "name": "tokenSupplyType",
              "type": "bool"
            },
            {
              "internalType": "int64",
              "name": "maxSupply",
              "type": "int64"
            },
            {
              "internalType": "bool",
              "name": "freezeDefault",
              "type": "bool"
            },
            {
              "components": [
                {
                  "internalType": "uint256",
                  "name": "keyType",
                  "type": "uint256"
                },
                {
                  "components": [
                    {
                      "internalType": "bool",
                      "name": "inheritAccountKey",
                      "type": "bool"
                    },
                    {
                      "internalType": "address",
                      "name": "contractId",
                      "type": "address"
                    },
                    {
                      "internalType": "bytes",
                      "name": "ed25519",
                      "type": "bytes"
                    },
                    {
                      "internalType": "bytes",
                      "name": "ECDSA_secp256k1",
                      "type": "bytes"
                    },
                    {
                      "internalType": "address",
                      "name": "delegatableContractId",
                      "type": "address"
                    }
                  ],
                  "internalType": "struct IHederaTokenService.KeyValue",
                  "name": "key",
                  "type": "tuple"
                }
              ],
              "internalType": "struct IHederaTokenService.TokenKey[]",
              "name": "tokenKeys",
              "type": "tuple[]"
            },
            {
              "components": [
                {
                  "internalType": "uint32",
                  "name": "second",
                  "type": "uint32"
                },
                {
                  "internalType": "address",
                  "name": "autoRenewAccount",
                  "type": "address"
                },
                {
                  "internalType": "uint32",
                  "name": "autoRenewPeriod",
                  "type": "uint32"
                }
              ],
              "internalType": "struct IHederaTokenService.Expiry",
              "name": "expiry",
              "type": "tuple"
            }
          ],
          "internalType": "struct IHederaTokenService.HederaToken",
          "name": "tokenInfo",
          "type": "tuple"
        }
      ],
      "name": "updateTokenInfo",
      "outputs": [
        {
          "internalType": "int256",
          "name": "responseCode",
          "type": "int256"
        }
      ],
      "stateMutability": "nonpayable",
      "type": "function"
    }
  ],
  "bytecode": "0x60c06040526009608081905268746f6b656e4e616d6560b81b60a09081526200002c9160029190620001cc565b5060408051808201909152600b8082526a1d1bdad95b94de5b589bdb60aa1b60209092019182526200006191600391620001cc565b50604080518082019091526004808252636d656d6f60e01b60209092019182526200008d9181620001cc565b50600580546001600160a81b031916700800000000000003e800000000000003e8179055348015620000be57600080fd5b50600160208181527fa6eef7e35abe7026729641147f7915573c7e97b47efa546f5f6e3230263bcb499190915560027fcc69885fda6bcc1a4ace058b4a62bf5e179ea78fd58a1ccd71c22cc9b688792f5560047fd9d16d34ffb15ba3a3d852f0d403e2ce1d691fb54de27ac87cd2f993f3ec330f5560087f7dfe757ecd65cbd7922a9c0161e935dd7fdbcc0e999689c7d31633896b1fc60b5560107fedc95719e9a3b28dd8e80877cb5880a9be7de1a13fc8b05e7999683b6b567643557fe2689cd4a84e23ad2f564004f1c9013e9589d260bde6380aba3ca7e09e4df40c55600660005260407f8f331abe73332f95a25873e8b430885974c0409691f89d643119a11623a7924a55620002af565b828054620001da9062000272565b90600052602060002090601f016020900481019282620001fe576000855562000249565b82601f106200021957805160ff191683800117855562000249565b8280016001018555821562000249579182015b82811115620002495782518255916020019190600101906200022c565b50620002579291506200025b565b5090565b5b808211156200025757600081556001016200025c565b600181811c908216806200028757607f821691505b60208210811415620002a957634e487b7160e01b600052602260045260246000fd5b50919050565b61368580620002bf6000396000f3fe60806040526004361061011f5760003560e01c80638070905f116100a0578063d614cdb811610064578063d614cdb814610314578063d85f74c114610342578063f2c31ff414610355578063f4a01e5b1461038f578063f7be3425146103af57600080fd5b80638070905f146102725780638ba74da0146102a15780638f8d7f99146102b45780639b23d3d9146102d4578063af99c633146102f457600080fd5b80632d73bb2e116100e75780632d73bb2e146101df5780633b3bff0f146101ff5780634b5c66871461021f578063593d6e82146102325780637c41ad2c1461025257600080fd5b80630488c939146101245780630fd2601e14610139578063118741e71461017157806315dacbea1461019f57806318370d34146101bf575b600080fd5b610137610132366004612626565b6103cf565b005b34801561014557600080fd5b50610159610154366004612626565b610951565b60405160079190910b81526020015b60405180910390f35b34801561017d57600080fd5b5061019161018c36600461275d565b610a26565b604051908152602001610168565b3480156101ab57600080fd5b506101596101ba366004612811565b610a7a565b3480156101cb57600080fd5b506101916101da366004612acd565b610b6e565b3480156101eb57600080fd5b506101916101fa366004612626565b610c4b565b34801561020b57600080fd5b5061019161021a366004612c15565b610c8d565b61013761022d366004612c15565b610d67565b34801561023e57600080fd5b5061019161024d366004612c32565b61117e565b34801561025e57600080fd5b5061019161026d366004612c15565b6111aa565b34801561027e57600080fd5b5061029261028d366004612c7e565b6111d8565b60405161016893929190612d94565b6101376102af366004612626565b611272565b3480156102c057600080fd5b506101596102cf366004612626565b6116ed565b3480156102e057600080fd5b506101596102ef366004612811565b611723565b34801561030057600080fd5b5061015961030f366004612626565b611768565b34801561032057600080fd5b5061033461032f366004612c15565b61179e565b604051610168929190612dc6565b610137610350366004612c15565b6118a8565b34801561036157600080fd5b50610375610370366004612626565b611c49565b6040805160079390930b8352901515602083015201610168565b34801561039b57600080fd5b506101916103aa366004612626565b611d14565b3480156103bb57600080fd5b506101916103ca366004612c15565b611d20565b60408051600580825260c08201909252600091816020015b6103ef6125a1565b8152602001906001900390816103e757905050905061042260006006600060405180602001604052806000815250611e1d565b8160008151811061043557610435612e00565b602002602001018190525061045c6001600060405180602001604052806000815250611e54565b8160018151811061046f5761046f612e00565b60200260200101819052506104966002600060405180602001604052806000815250611e54565b816002815181106104a9576104a9612e00565b60200260200101819052506104d06004600060405180602001604052806000815250611e54565b816003815181106104e3576104e3612e00565b602002602001018190525061050a6003600060405180602001604052806000815250611e54565b8160048151811061051d5761051d612e00565b602002602001018190525060006040518060600160405280600063ffffffff168152602001856001600160a01b03168152602001627a120063ffffffff16815250905060006040518061012001604052806002805461057b90612e16565b80601f01602080910402602001604051908101604052809291908181526020018280546105a790612e16565b80156105f45780601f106105c9576101008083540402835291602001916105f4565b820191906000526020600020905b8154815290600101906020018083116105d757829003601f168201915b505050505081526020016003805461060b90612e16565b80601f016020809104026020016040519081016040528092919081815260200182805461063790612e16565b80156106845780601f1061065957610100808354040283529160200191610684565b820191906000526020600020905b81548152906001019060200180831161066757829003601f168201915b50505050508152602001866001600160a01b03168152602001600480546106aa90612e16565b80601f01602080910402602001604051908101604052809291908181526020018280546106d690612e16565b80156107235780601f106106f857610100808354040283529160200191610723565b820191906000526020600020905b81548152906001019060200180831161070657829003601f168201915b5050509183525050600160208201819052600554600160401b810460070b6040840152600160a01b900460ff16151560608301526080820186905260a09091018490529091506000906040519080825280602002602001820160405280156107c557816020015b6040805160a08101825260008082526020808301829052928201819052606082018190526080820152825260001990920191018161078a5790505b506040805160a081018252600181526001600160a01b0380891660208301526000928201839052606082018390528916608082015282519293509183919061080f5761080f612e00565b6020908102919091010152604080516001808252818301909252600091816020015b6040805160c08101825260008082526020808301829052928201819052606082018190526080820181905260a082015282526000199092019101816108315790505090506040518060c00160405280600463ffffffff168152602001600563ffffffff168152602001600a63ffffffff168152602001876001600160a01b03168152602001600015158152602001886001600160a01b0316815250816000815181106108df576108df612e00565b60200260200101819052506000806108f8858585611e89565b90925090506016821461090a57600080fd5b6040516001600160a01b03821681527f7bb17726df1f3adee8aa00ba8e8bc5d6f182af3bbf77604639cb7f008dd3b4ed9060200160405180910390a1505050505050505050565b604051638f8d7f9960e01b81526001600160a01b038084166004830152821660248201526000903090638f8d7f9990604401602060405180830381600087803b15801561099d57600080fd5b505af11580156109b1573d6000803e3d6000fd5b505050506040513d601f19601f820116820180604052508101906109d59190612e51565b604051600782900b81529091507f90a5cf4cffe88b4edbb041cfc7a8a812c48a5ec30b84640fb37690875168e3aa9060200160405180910390a1600781900b601614610a2057600080fd5b92915050565b6000610a328383611fb7565b90507f90a5cf4cffe88b4edbb041cfc7a8a812c48a5ec30b84640fb37690875168e3aa81604051610a6591815260200190565b60405180910390a160168114610a2057600080fd5b6040516001600160a01b038581166024830152848116604483015283166064820152608481018290526000908190819061016790630aed65f560e11b9060a4015b60408051601f198184030181529181526020820180516001600160e01b03166001600160e01b0319909416939093179092529051610af99190612e9e565b6000604051808303816000865af19150503d8060008114610b36576040519150601f19603f3d011682016040523d82523d6000602084013e610b3b565b606091505b509150915081610b4c576015610b60565b80806020019051810190610b609190612ecc565b60030b979650505050505050565b60008060006101676001600160a01b03166318370d3460e01b8686604051602401610b9a9291906130d7565b60408051601f198184030181529181526020820180516001600160e01b03166001600160e01b0319909416939093179092529051610bd89190612e9e565b6000604051808303816000865af19150503d8060008114610c15576040519150601f19603f3d011682016040523d82523d6000602084013e610c1a565b606091505b509150915081610c2b576015610c3f565b80806020019051810190610c3f9190612ecc565b60030b95945050505050565b6000610c578383611fe3565b60070b90507f90a5cf4cffe88b4edbb041cfc7a8a812c48a5ec30b84640fb37690875168e3aa81604051610a6591815260200190565b6040516001600160a01b03821660248201526000908190819061016790633b3bff0f60e01b906044015b60408051601f198184030181529181526020820180516001600160e01b03166001600160e01b0319909416939093179092529051610cf59190612e9e565b6000604051808303816000865af19150503d8060008114610d32576040519150601f19603f3d011682016040523d82523d6000602084013e610d37565b606091505b509150915081610d48576015610d5c565b80806020019051810190610d5c9190612ecc565b60030b949350505050565b60408051600580825260c08201909252600091816020015b610d876125a1565b815260200190600190039081610d7f579050509050610dba60006006600060405180602001604052806000815250611e1d565b81600081518110610dcd57610dcd612e00565b6020026020010181905250610df46001600060405180602001604052806000815250611e54565b81600181518110610e0757610e07612e00565b6020026020010181905250610e2e6002600060405180602001604052806000815250611e54565b81600281518110610e4157610e41612e00565b6020026020010181905250610e686003600060405180602001604052806000815250611e54565b81600381518110610e7b57610e7b612e00565b6020026020010181905250610ea26004600060405180602001604052806000815250611e54565b81600481518110610eb557610eb5612e00565b602002602001018190525060006040518060600160405280600063ffffffff168152602001846001600160a01b03168152602001627a120063ffffffff168152509050600060405180610120016040528060028054610f1390612e16565b80601f0160208091040260200160405190810160405280929190818152602001828054610f3f90612e16565b8015610f8c5780601f10610f6157610100808354040283529160200191610f8c565b820191906000526020600020905b815481529060010190602001808311610f6f57829003601f168201915b5050505050815260200160038054610fa390612e16565b80601f0160208091040260200160405190810160405280929190818152602001828054610fcf90612e16565b801561101c5780601f10610ff15761010080835404028352916020019161101c565b820191906000526020600020905b815481529060010190602001808311610fff57829003601f168201915b50505050508152602001856001600160a01b031681526020016004805461104290612e16565b80601f016020809104026020016040519081016040528092919081815260200182805461106e90612e16565b80156110bb5780601f10611090576101008083540402835291602001916110bb565b820191906000526020600020905b81548152906001019060200180831161109e57829003601f168201915b505050918352505060016020820152600554600160401b810460070b6040830152600160a01b810460ff16151560608301526080820186905260a0909101849052909150600090819061112890849067ffffffffffffffff811690600160801b900463ffffffff16612019565b90925090506016821461113a57600080fd5b6040516001600160a01b03821681527f7bb17726df1f3adee8aa00ba8e8bc5d6f182af3bbf77604639cb7f008dd3b4ed9060200160405180910390a1505050505050565b60008060006101676001600160a01b031663593d6e8260e01b8686604051602401610b9a929190613101565b6040516001600160a01b03821660248201526000908190819061016790631f106b4b60e21b90604401610cb7565b60008060606111e886868661208c565b60405183815292955090935091507f90a5cf4cffe88b4edbb041cfc7a8a812c48a5ec30b84640fb37690875168e3aa9060200160405180910390a16016831461123057600080fd5b7feff23992f47b3c101679f8b4dc9d3e242c903909dba4a453f2b2341ad463b0e28282604051611261929190613144565b60405180910390a193509350939050565b604080516001808252818301909252600091816020015b6112916125a1565b8152602001906001900390816112895790505090506112c3600080600060405180602001604052806000815250611e1d565b816000815181106112d6576112d6612e00565b602002602001018190525060006040518060600160405280600063ffffffff168152602001856001600160a01b03168152602001627a120063ffffffff16815250905060006040518061012001604052806002805461133490612e16565b80601f016020809104026020016040519081016040528092919081815260200182805461136090612e16565b80156113ad5780601f10611382576101008083540402835291602001916113ad565b820191906000526020600020905b81548152906001019060200180831161139057829003601f168201915b50505050508152602001600380546113c490612e16565b80601f01602080910402602001604051908101604052809291908181526020018280546113f090612e16565b801561143d5780601f106114125761010080835404028352916020019161143d565b820191906000526020600020905b81548152906001019060200180831161142057829003601f168201915b50505050508152602001866001600160a01b031681526020016004805461146390612e16565b80601f016020809104026020016040519081016040528092919081815260200182805461148f90612e16565b80156114dc5780601f106114b1576101008083540402835291602001916114dc565b820191906000526020600020905b8154815290600101906020018083116114bf57829003601f168201915b5050509183525050600160208201819052600554600160401b900460070b6040808401919091526000606084018190526080840188905260a09093018690528051828152808201909152929350909190816020015b6040805160a0810182526000808252602080830182905292820181905260608201819052608082015282526000199092019101816115315750506040805160a081018252600181526001600160a01b038881166020830152600092820183905260608201839052891660808201528251929350918391906115b4576115b4612e00565b6020908102919091010152604080516001808252818301909252600091816020015b6040805160c08101825260008082526020808301829052928201819052606082018190526080820181905260a082015282526000199092019101816115d65750506040805160c0810182526004815260056020820152600a91810191909152601e60608201526000608082018190526001600160a01b038a1660a08301528251929350909183919061166a5761166a612e00565b602090810291909101015260055460009081906116a390869067ffffffffffffffff811690600160801b900463ffffffff16878761218a565b915091507f90a5cf4cffe88b4edbb041cfc7a8a812c48a5ec30b84640fb37690875168e3aa826040516116d891815260200190565b60405180910390a16016821461090a57600080fd5b6040516001600160a01b038381166024830152821660448201526000908190819061016790638f8d7f9960e01b90606401610b9a565b6040516001600160a01b038581166024830152848116604483015283166064820152608481018290526000908190819061016790639b23d3d960e01b9060a401610abb565b6040516001600160a01b03838116602483015282166044820152600090819081906101679063af99c63360e01b90606401610b9a565b604080516060810182526000808252602080830182905282840182905283516001600160a01b038616602480830191909152855180830390910181526044909101855290810180516001600160e01b0316631ac299b760e31b1790529251909283918291610167916118109190612e9e565b6000604051808303816000865af19150503d806000811461184d576040519150601f19603f3d011682016040523d82523d6000602084013e611852565b606091505b50604080516060810182526000808252602082018190529181019190915291935091508261188257601581611896565b818060200190518101906118969190613167565b60039190910b97909650945050505050565b60408051600580825260c08201909252600091816020015b6118c86125a1565b8152602001906001900390816118c05790505090506118fb60006006600060405180602001604052806000815250611e1d565b8160008151811061190e5761190e612e00565b60200260200101819052506119356001600060405180602001604052806000815250611e54565b8160018151811061194857611948612e00565b602002602001018190525061196f6002600060405180602001604052806000815250611e54565b8160028151811061198257611982612e00565b60200260200101819052506119a96004600060405180602001604052806000815250611e54565b816003815181106119bc576119bc612e00565b60200260200101819052506119e36003600060405180602001604052806000815250611e54565b816004815181106119f6576119f6612e00565b602002602001018190525060006040518060600160405280600063ffffffff168152602001846001600160a01b03168152602001627a120063ffffffff168152509050600060405180610120016040528060028054611a5490612e16565b80601f0160208091040260200160405190810160405280929190818152602001828054611a8090612e16565b8015611acd5780601f10611aa257610100808354040283529160200191611acd565b820191906000526020600020905b815481529060010190602001808311611ab057829003601f168201915b5050505050815260200160038054611ae490612e16565b80601f0160208091040260200160405190810160405280929190818152602001828054611b1090612e16565b8015611b5d5780601f10611b3257610100808354040283529160200191611b5d565b820191906000526020600020905b815481529060010190602001808311611b4057829003601f168201915b50505050508152602001856001600160a01b0316815260200160048054611b8390612e16565b80601f0160208091040260200160405190810160405280929190818152602001828054611baf90612e16565b8015611bfc5780601f10611bd157610100808354040283529160200191611bfc565b820191906000526020600020905b815481529060010190602001808311611bdf57829003601f168201915b505050918352505060016020820152600554600160401b810460070b6040830152600160a01b900460ff16151560608201526080810185905260a0018390529050600080611128836122be565b604080516001600160a01b038481166024830152831660448083019190915282518083039091018152606490910182526020810180516001600160e01b0316633cb0c7fd60e21b179052905160009182918291829161016791611cab91612e9e565b6000604051808303816000865af19150503d8060008114611ce8576040519150601f19603f3d011682016040523d82523d6000602084013e611ced565b606091505b509150915081611d005760156000611896565b8080602001905181019061189691906131e2565b6000610a3283836123d4565b604051633b3bff0f60e01b81526001600160a01b03821660048201526000903090633b3bff0f90602401602060405180830381600087803b158015611d6457600080fd5b505af1158015611d78573d6000803e3d6000fd5b505050506040513d601f19601f82011682018060405250810190611d9c919061320e565b90507f90a5cf4cffe88b4edbb041cfc7a8a812c48a5ec30b84640fb37690875168e3aa81604051611dcf91815260200190565b60405180910390a160168114611de457600080fd5b604051600181527f319ab7084208e4afa38c6e6ff7aea9587439f2e4700746f4c7d425fea17426d29060200160405180910390a1919050565b611e256125a1565b6040518060400160405280611e3a878761240a565b8152602001611e49858561244c565b905295945050505050565b611e5c6125a1565b6040518060400160405280611e7086612562565b8152602001611e7f858561244c565b9052949350505050565b600080848061010001516000015163ffffffff166000148015611eb957506101008101516040015163ffffffff16155b15611ecf576101008101516276a7006040909101525b6000806101676001600160a01b031634634573396960e01b8a8a8a604051602401611efc93929190613297565b60408051601f198184030181529181526020820180516001600160e01b03166001600160e01b0319909416939093179092529051611f3a9190612e9e565b60006040518083038185875af1925050503d8060008114611f77576040519150601f19603f3d011682016040523d82523d6000602084013e611f7c565b606091505b509150915081611f8f5760156000611fa3565b80806020019051810190611fa39190613350565b60039190910b999098509650505050505050565b60008060006101676001600160a01b0316632e63879b60e01b8686604051602401610b9a92919061337c565b6040516001600160a01b0383811660248301528216604482015260009081908190610167906352f9138760e01b90606401610b9a565b600080848061010001516000015163ffffffff16600014801561204957506101008101516040015163ffffffff16155b1561205f576101008101516276a7006040909101525b6000806101676001600160a01b03163463c23baeb660e01b8a8a8a604051602401611efc939291906133d7565b60008060606000806101676001600160a01b031663278e0b8860e01b8989896040516024016120bd93929190613410565b60408051601f198184030181529181526020820180516001600160e01b03166001600160e01b03199094169390931790925290516120fb9190612e9e565b6000604051808303816000865af19150503d8060008114612138576040519150601f19603f3d011682016040523d82523d6000602084013e61213d565b606091505b509150915081612160576040805160008082526020820190925260159190612174565b808060200190518101906121749190613494565b60039290920b9a90995090975095505050505050565b600080868061010001516000015163ffffffff1660001480156121ba57506101008101516040015163ffffffff16155b156121d0576101008101516276a7006040909101525b6000806101676001600160a01b03163463b937581a60e01b8c8c8c8c8c604051602401612201959493929190613554565b60408051601f198184030181529181526020820180516001600160e01b03166001600160e01b031990941693909317909252905161223f9190612e9e565b60006040518083038185875af1925050503d806000811461227c576040519150601f19603f3d011682016040523d82523d6000602084013e612281565b606091505b50915091508161229457601560006122a8565b808060200190518101906122a89190613350565b60039190910b9b909a5098505050505050505050565b600080828061010001516000015163ffffffff1660001480156122ee57506101008101516040015163ffffffff16155b15612304576101008101516276a7006040909101525b6000806101676001600160a01b031634639c89bb3560e01b8860405160240161232d9190613626565b60408051601f198184030181529181526020820180516001600160e01b03166001600160e01b031990941693909317909252905161236b9190612e9e565b60006040518083038185875af1925050503d80600081146123a8576040519150601f19603f3d011682016040523d82523d6000602084013e6123ad565b606091505b5091509150816123c05760156000611896565b808060200190518101906118969190613350565b6040516001600160a01b03838116602483015282166044820152600090819081906101679063248a35ef60e11b90606401610b9a565b600061242e83600681111561242157612421613639565b600160ff9091161b821790565b905061244582600681111561242157612421613639565b9392505050565b6124926040518060a0016040528060001515815260200160006001600160a01b03168152602001606081526020016060815260200160006001600160a01b031681525090565b60008360048111156124a6576124a6613639565b14156124b55760018152610a20565b60018360048111156124c9576124c9613639565b14156124e5576000546001600160a01b03166020820152610a20565b60028360048111156124f9576124f9613639565b141561250b5760408101829052610a20565b600383600481111561251f5761251f613639565b14156125315760608101829052610a20565b600483600481111561254557612545613639565b1415610a20576000546001600160a01b0316608082015292915050565b60006001600083600681111561257a5761257a613639565b600681111561258b5761258b613639565b8152602001908152602001600020549050919050565b6040518060400160405280600081526020016125f96040518060a0016040528060001515815260200160006001600160a01b03168152602001606081526020016060815260200160006001600160a01b031681525090565b905290565b6001600160a01b038116811461261357600080fd5b50565b8035612621816125fe565b919050565b6000806040838503121561263957600080fd5b8235612644816125fe565b91506020830135612654816125fe565b809150509250929050565b634e487b7160e01b600052604160045260246000fd5b6040805190810167ffffffffffffffff811182821017156126985761269861265f565b60405290565b60405160a0810167ffffffffffffffff811182821017156126985761269861265f565b6040516060810167ffffffffffffffff811182821017156126985761269861265f565b604051610120810167ffffffffffffffff811182821017156126985761269861265f565b604051601f8201601f1916810167ffffffffffffffff811182821017156127315761273161265f565b604052919050565b600067ffffffffffffffff8211156127535761275361265f565b5060051b60200190565b6000806040838503121561277057600080fd5b823561277b816125fe565b915060208381013567ffffffffffffffff81111561279857600080fd5b8401601f810186136127a957600080fd5b80356127bc6127b782612739565b612708565b81815260059190911b820183019083810190888311156127db57600080fd5b928401925b828410156128025783356127f3816125fe565b825292840192908401906127e0565b80955050505050509250929050565b6000806000806080858703121561282757600080fd5b8435612832816125fe565b93506020850135612842816125fe565b92506040850135612852816125fe565b9396929550929360600135925050565b600082601f83011261287357600080fd5b813567ffffffffffffffff81111561288d5761288d61265f565b6128a0601f8201601f1916602001612708565b8181528460208386010111156128b557600080fd5b816020850160208301376000918101602001919091529392505050565b801515811461261357600080fd5b8035612621816128d2565b8060070b811461261357600080fd5b8035612621816128eb565b600082601f83011261291657600080fd5b813560206129266127b783612739565b82815260059290921b8401810191818101908684111561294557600080fd5b8286015b84811015612a5b57803567ffffffffffffffff8082111561296957600080fd5b908801906040601f19838c03810182131561298357600080fd5b61298b612675565b88850135815282850135848111156129a257600080fd5b949094019360a0858e03830112156129ba5760008081fd5b6129c261269e565b9150888501356129d1816128d2565b8252848301356129e0816125fe565b828a0152606085810135858111156129f85760008081fd5b612a068f8c838a0101612862565b8585015250608093508386013585811115612a215760008081fd5b612a2f8f8c838a0101612862565b828501525050612a4160a08601612616565b928201929092528188015285525050918301918301612949565b509695505050505050565b63ffffffff8116811461261357600080fd5b600060608284031215612a8a57600080fd5b612a926126c1565b90508135612a9f81612a66565b81526020820135612aaf816125fe565b60208201526040820135612ac281612a66565b604082015292915050565b60008060408385031215612ae057600080fd5b8235612aeb816125fe565b9150602083013567ffffffffffffffff80821115612b0857600080fd5b908401906101608287031215612b1d57600080fd5b612b256126e4565b823582811115612b3457600080fd5b612b4088828601612862565b825250602083013582811115612b5557600080fd5b612b6188828601612862565b602083015250612b7360408401612616565b6040820152606083013582811115612b8a57600080fd5b612b9688828601612862565b606083015250612ba8608084016128e0565b6080820152612bb960a084016128fa565b60a0820152612bca60c084016128e0565b60c082015260e083013582811115612be157600080fd5b612bed88828601612905565b60e0830152506101009150612c0487838501612a78565b828201528093505050509250929050565b600060208284031215612c2757600080fd5b8135612445816125fe565b60008060808385031215612c4557600080fd5b8235612c50816125fe565b9150612c5f8460208501612a78565b90509250929050565b67ffffffffffffffff8116811461261357600080fd5b600080600060608486031215612c9357600080fd5b8335612c9e816125fe565b9250602084810135612caf81612c68565b9250604085013567ffffffffffffffff80821115612ccc57600080fd5b818701915087601f830112612ce057600080fd5b8135612cee6127b782612739565b81815260059190911b8301840190848101908a831115612d0d57600080fd5b8585015b83811015612d4557803585811115612d295760008081fd5b612d378d89838a0101612862565b845250918601918601612d11565b508096505050505050509250925092565b600081518084526020808501945080840160005b83811015612d8957815160070b87529582019590820190600101612d6a565b509495945050505050565b83815267ffffffffffffffff83166020820152606060408201526000612dbd6060830184612d56565b95945050505050565b828152608081016124456020830184805163ffffffff90811683526020808301516001600160a01b03169084015260409182015116910152565b634e487b7160e01b600052603260045260246000fd5b600181811c90821680612e2a57607f821691505b60208210811415612e4b57634e487b7160e01b600052602260045260246000fd5b50919050565b600060208284031215612e6357600080fd5b8151612445816128eb565b60005b83811015612e89578181015183820152602001612e71565b83811115612e98576000848401525b50505050565b60008251612eb0818460208701612e6e565b9190910192915050565b8051600381900b811461262157600080fd5b600060208284031215612ede57600080fd5b61244582612eba565b60008151808452612eff816020860160208601612e6e565b601f01601f19169290920160200192915050565b600081518084526020808501808196508360051b8101915082860160005b85811015612fca5782840389528151604081518652868201519150808787015281511515818701528682015160606001600160a01b03808316828a015283850151935060a09250608083818b0152612f8c60e08b0186612ee7565b928601518a8403603f1901858c0152929450612fa88584612ee7565b9501511660c09890980197909752505098850198935090840190600101612f31565b5091979650505050505050565b60006101608251818552612fed82860182612ee7565b915050602083015184820360208601526130078282612ee7565b915050604083015161302460408601826001600160a01b03169052565b506060830151848203606086015261303c8282612ee7565b9150506080830151613052608086018215159052565b5060a083015161306760a086018260070b9052565b5060c083015161307b60c086018215159052565b5060e083015184820360e08601526130938282612f13565b61010085810151805163ffffffff9081168984015260208201516001600160a01b03166101208a015260408201511661014089015291935091505090949350505050565b6001600160a01b03831681526040602082015260006130f96040830184612fd7565b949350505050565b6001600160a01b0383168152608081016124456020830184805163ffffffff90811683526020808301516001600160a01b03169084015260409182015116910152565b67ffffffffffffffff831681526040602082015260006130f96040830184612d56565b600080828403608081121561317b57600080fd5b61318484612eba565b92506060601f198201121561319857600080fd5b506131a16126c1565b60208401516131af81612a66565b815260408401516131bf816125fe565b602082015260608401516131d281612a66565b6040820152919491935090915050565b600080604083850312156131f557600080fd5b6131fe83612eba565b91506020830151612654816128d2565b60006020828403121561322057600080fd5b5051919050565b600081518084526020808501945080840160005b83811015612d89578151805163ffffffff168852838101516001600160a01b03908116858a01526040808301511515908a01526060808301511515908a0152608091820151169088015260a0909601959082019060010161323b565b600060608083526132aa81840187612fd7565b6020848203818601526132bd8288613227565b91506040858303818701528287518085528385019150838901945060005b81811015613340578551805163ffffffff908116855286820151811687860152858201511685850152878101516001600160a01b039081168986015260808083015115159086015260a09182015116908401529484019460c0909201916001016132db565b50909a9950505050505050505050565b6000806040838503121561336357600080fd5b61336c83612eba565b91506020830151612654816125fe565b6000604082016001600160a01b0380861684526020604081860152828651808552606087019150828801945060005b818110156133c95785518516835294830194918301916001016133ab565b509098975050505050505050565b6060815260006133ea6060830186612fd7565b905067ffffffffffffffff8416602083015263ffffffff83166040830152949350505050565b6000606082016001600160a01b0386168352602067ffffffffffffffff8616818501526060604085015281855180845260808601915060808160051b870101935082870160005b8281101561348557607f19888703018452613473868351612ee7565b95509284019290840190600101613457565b50939998505050505050505050565b6000806000606084860312156134a957600080fd5b6134b284612eba565b92506020808501516134c381612c68565b604086015190935067ffffffffffffffff8111156134e057600080fd5b8501601f810187136134f157600080fd5b80516134ff6127b782612739565b81815260059190911b8201830190838101908983111561351e57600080fd5b928401925b82841015613545578351613536816128eb565b82529284019290840190613523565b80955050505050509250925092565b600060a080835261356781840189612fd7565b602067ffffffffffffffff891681860152604063ffffffff808a1682880152606087850381890152613599858b613227565b94506080888603818a0152858a518088528688019150868c01975060005b81811015613611578851805187168452888101518716898501528781015187168885015285810151871686850152848101511515858501528a01516001600160a01b03168a8401529787019760c0909201916001016135b7565b50909f9e505050505050505050505050505050565b6020815260006124456020830184612fd7565b634e487b7160e01b600052602160045260246000fdfea264697066735822122091953a8d66e921bf063c099d53a70445c6fc7647ed2d18248da0003fa4740a7b64736f6c63430008090033",
  "linkReferences": {},
  "deployedLinkReferences": {}
}