{
  "_format": "hh-sol-artifact-1",
  "contractName": "TokenCreateContract",
  "sourceName": "contracts/hts-precompile/examples/token-create/TokenCreateContract.sol",
  "abi": [
    {
      "anonymous": false,
      "inputs": [
        {
          "indexed": false,
          "internalType": "address",
          "name": "tokenAddress",
          "type": "address"
        }
      ],
      "name": "CreatedToken",
      "type": "event"
    },
    {
      "anonymous": false,
      "inputs": [
        {
          "indexed": false,
          "internalType": "bool",
          "name": "kycGranted",
          "type": "bool"
        }
      ],
      "name": "KycGranted",
      "type": "event"
    },
    {
      "anonymous": false,
      "inputs": [
        {
          "indexed": false,
          "internalType": "int64",
          "name": "newTotalSupply",
          "type": "int64"
        },
        {
          "indexed": false,
          "internalType": "int64[]",
          "name": "serialNumbers",
          "type": "int64[]"
        }
      ],
      "name": "MintedToken",
      "type": "event"
    },
    {
      "anonymous": false,
      "inputs": [
        {
          "indexed": false,
          "internalType": "int256",
          "name": "responseCode",
          "type": "int256"
        }
      ],
      "name": "ResponseCode",
      "type": "event"
    },
    {
      "inputs": [
        {
          "internalType": "address",
          "name": "account",
          "type": "address"
        },
        {
          "internalType": "address",
          "name": "token",
          "type": "address"
        }
      ],
      "name": "associateTokenPublic",
      "outputs": [
        {
          "internalType": "int256",
          "name": "responseCode",
          "type": "int256"
        }
      ],
      "stateMutability": "nonpayable",
      "type": "function"
    },
    {
      "inputs": [
        {
          "internalType": "address",
          "name": "account",
          "type": "address"
        },
        {
          "internalType": "address[]",
          "name": "tokens",
          "type": "address[]"
        }
      ],
      "name": "associateTokensPublic",
      "outputs": [
        {
          "internalType": "int256",
          "name": "responseCode",
          "type": "int256"
        }
      ],
      "stateMutability": "nonpayable",
      "type": "function"
    },
    {
      "inputs": [
        {
          "internalType": "address",
          "name": "treasury",
          "type": "address"
        }
      ],
      "name": "createFungibleTokenPublic",
      "outputs": [],
      "stateMutability": "payable",
      "type": "function"
    },
    {
      "inputs": [
        {
          "internalType": "address",
          "name": "treasury",
          "type": "address"
        },
        {
          "internalType": "address",
          "name": "fixedFeeTokenAddress",
          "type": "address"
        }
      ],
      "name": "createFungibleTokenWithCustomFeesPublic",
      "outputs": [],
      "stateMutability": "payable",
      "type": "function"
    },
    {
      "inputs": [
        {
          "internalType": "address",
          "name": "treasury",
          "type": "address"
        },
        {
          "internalType": "bytes",
          "name": "adminKey",
          "type": "bytes"
        },
        {
          "internalType": "int64",
          "name": "amount",
          "type": "int64"
        }
      ],
      "name": "createFungibleTokenWithSECP256K1AdminKeyAssociateAndTransferToAddressPublic",
      "outputs": [],
      "stateMutability": "payable",
      "type": "function"
    },
    {
      "inputs": [
        {
          "internalType": "address",
          "name": "treasury",
          "type": "address"
        },
        {
          "internalType": "bytes",
          "name": "adminKey",
          "type": "bytes"
        }
      ],
      "name": "createFungibleTokenWithSECP256K1AdminKeyPublic",
      "outputs": [
        {
          "internalType": "address",
          "name": "",
          "type": "address"
        }
      ],
      "stateMutability": "payable",
      "type": "function"
    },
    {
      "inputs": [
        {
          "internalType": "address",
          "name": "treasury",
          "type": "address"
        }
      ],
      "name": "createNonFungibleTokenPublic",
      "outputs": [],
      "stateMutability": "payable",
      "type": "function"
    },
    {
      "inputs": [
        {
          "internalType": "address",
          "name": "treasury",
          "type": "address"
        },
        {
          "internalType": "address",
          "name": "fixedFeeTokenAddress",
          "type": "address"
        }
      ],
      "name": "createNonFungibleTokenWithCustomFeesPublic",
      "outputs": [],
      "stateMutability": "payable",
      "type": "function"
    },
    {
      "inputs": [
        {
          "internalType": "address",
          "name": "treasury",
          "type": "address"
        },
        {
          "internalType": "bytes",
          "name": "adminKey",
          "type": "bytes"
        }
      ],
      "name": "createNonFungibleTokenWithSECP256K1AdminKeyPublic",
      "outputs": [],
      "stateMutability": "payable",
      "type": "function"
    },
    {
      "inputs": [
        {
          "internalType": "address",
          "name": "token",
          "type": "address"
        },
        {
          "internalType": "address",
          "name": "from",
          "type": "address"
        },
        {
          "internalType": "address",
          "name": "to",
          "type": "address"
        },
        {
          "internalType": "uint256",
          "name": "amount",
          "type": "uint256"
        }
      ],
      "name": "delegateTransferFrom",
      "outputs": [
        {
          "internalType": "int64",
          "name": "responseCode",
          "type": "int64"
        }
      ],
      "stateMutability": "nonpayable",
      "type": "function"
    },
    {
      "inputs": [
        {
          "internalType": "address",
          "name": "token",
          "type": "address"
        },
        {
          "internalType": "address",
          "name": "from",
          "type": "address"
        },
        {
          "internalType": "address",
          "name": "to",
          "type": "address"
        },
        {
          "internalType": "uint256",
          "name": "serialNumber",
          "type": "uint256"
        }
      ],
      "name": "delegateTransferFromNFT",
      "outputs": [
        {
          "internalType": "int64",
          "name": "responseCode",
          "type": "int64"
        }
      ],
      "stateMutability": "nonpayable",
      "type": "function"
    },
    {
      "inputs": [
        {
          "internalType": "address",
          "name": "token",
          "type": "address"
        },
        {
          "internalType": "address",
          "name": "account",
          "type": "address"
        }
      ],
      "name": "grantTokenKycPublic",
      "outputs": [
        {
          "internalType": "int64",
          "name": "responseCode",
          "type": "int64"
        }
      ],
      "stateMutability": "nonpayable",
      "type": "function"
    },
    {
      "inputs": [
        {
          "internalType": "address",
          "name": "token",
          "type": "address"
        },
        {
          "internalType": "int64",
          "name": "amount",
          "type": "int64"
        },
        {
          "internalType": "bytes[]",
          "name": "metadata",
          "type": "bytes[]"
        }
      ],
      "name": "mintTokenPublic",
      "outputs": [
        {
          "internalType": "int256",
          "name": "responseCode",
          "type": "int256"
        },
        {
          "internalType": "int64",
          "name": "newTotalSupply",
          "type": "int64"
        },
        {
          "internalType": "int64[]",
          "name": "serialNumbers",
          "type": "int64[]"
        }
      ],
      "stateMutability": "nonpayable",
      "type": "function"
    },
    {
      "inputs": [
        {
          "internalType": "address",
          "name": "token",
          "type": "address"
        },
        {
          "internalType": "int64",
          "name": "amount",
          "type": "int64"
        },
        {
          "internalType": "bytes[]",
          "name": "metadata",
          "type": "bytes[]"
        }
      ],
      "name": "mintTokenToAddressPublic",
      "outputs": [
        {
          "internalType": "int256",
          "name": "responseCode",
          "type": "int256"
        },
        {
          "internalType": "int64",
          "name": "newTotalSupply",
          "type": "int64"
        },
        {
          "internalType": "int64[]",
          "name": "serialNumbers",
          "type": "int64[]"
        }
      ],
      "stateMutability": "nonpayable",
      "type": "function"
    },
    {
      "inputs": [
        {
          "internalType": "address",
          "name": "token",
          "type": "address"
        },
        {
          "internalType": "address",
          "name": "from",
          "type": "address"
        },
        {
          "internalType": "address",
          "name": "to",
          "type": "address"
        },
        {
          "internalType": "uint256",
          "name": "amount",
          "type": "uint256"
        }
      ],
      "name": "transferFrom",
      "outputs": [
        {
          "internalType": "int64",
          "name": "responseCode",
          "type": "int64"
        }
      ],
      "stateMutability": "nonpayable",
      "type": "function"
    },
    {
      "inputs": [
        {
          "internalType": "address",
          "name": "token",
          "type": "address"
        },
        {
          "internalType": "address",
          "name": "from",
          "type": "address"
        },
        {
          "internalType": "address",
          "name": "to",
          "type": "address"
        },
        {
          "internalType": "uint256",
          "name": "serialNumber",
          "type": "uint256"
        }
      ],
      "name": "transferFromNFT",
      "outputs": [
        {
          "internalType": "int64",
          "name": "responseCode",
          "type": "int64"
        }
      ],
      "stateMutability": "nonpayable",
      "type": "function"
    }
  ],
  "bytecode": "0x60c06040526009608081905268746f6b656e4e616d6560b81b60a09081526200002c9160029190620001cc565b5060408051808201909152600b8082526a1d1bdad95b94de5b589bdb60aa1b60209092019182526200006191600391620001cc565b50604080518082019091526004808252636d656d6f60e01b60209092019182526200008d9181620001cc565b50600580546001600160a81b031916700800000000000003e800000000000003e8179055348015620000be57600080fd5b50600160208181527fa6eef7e35abe7026729641147f7915573c7e97b47efa546f5f6e3230263bcb499190915560027fcc69885fda6bcc1a4ace058b4a62bf5e179ea78fd58a1ccd71c22cc9b688792f5560047fd9d16d34ffb15ba3a3d852f0d403e2ce1d691fb54de27ac87cd2f993f3ec330f5560087f7dfe757ecd65cbd7922a9c0161e935dd7fdbcc0e999689c7d31633896b1fc60b5560107fedc95719e9a3b28dd8e80877cb5880a9be7de1a13fc8b05e7999683b6b567643557fe2689cd4a84e23ad2f564004f1c9013e9589d260bde6380aba3ca7e09e4df40c55600660005260407f8f331abe73332f95a25873e8b430885974c0409691f89d643119a11623a7924a55620002af565b828054620001da9062000272565b90600052602060002090601f016020900481019282620001fe576000855562000249565b82601f106200021957805160ff191683800117855562000249565b8280016001018555821562000249579182015b82811115620002495782518255916020019190600101906200022c565b50620002579291506200025b565b5090565b5b808211156200025757600081556001016200025c565b600181811c908216806200028757607f821691505b60208210811415620002a957634e487b7160e01b600052602260045260246000fd5b50919050565b6136ba80620002bf6000396000f3fe6080604052600436106100f35760003560e01c80638ba74da01161008a578063d85f74c111610059578063d85f74c114610279578063de84a7791461028c578063eac6f3fe146102ac578063f4a01e5b146102cc57600080fd5b80638ba74da0146102085780638f74a17b1461021b5780639b23d3d914610246578063b35d417a1461026657600080fd5b806315dacbea116100c657806315dacbea146101935780634b5c6687146101b35780634d1769d6146101c657806371de3707146101f557600080fd5b80630488c939146100f85780630fd2601e1461010d578063118741e71461014557806311e1fc0714610173575b600080fd5b61010b610106366004612ae8565b6102ec565b005b34801561011957600080fd5b5061012d610128366004612ae8565b61085f565b60405160079190910b81526020015b60405180910390f35b34801561015157600080fd5b50610165610160366004612b8c565b6108bc565b60405190815260200161013c565b34801561017f57600080fd5b5061012d61018e366004612c40565b610910565b34801561019f57600080fd5b5061012d6101ae366004612c40565b610a02565b61010b6101c1366004612c91565b610abe565b3480156101d257600080fd5b506101e66101e1366004612d2d565b610ec6565b60405161013c93929190612e43565b61010b610203366004612e6e565b610f87565b61010b610216366004612ae8565b611119565b61022e610229366004612ed2565b611585565b6040516001600160a01b03909116815260200161013c565b34801561025257600080fd5b5061012d610261366004612c40565b611947565b61010b610274366004612ed2565b61198c565b61010b610287366004612c91565b611d32565b34801561029857600080fd5b506101e66102a7366004612d2d565b6120cd565b3480156102b857600080fd5b5061012d6102c7366004612c40565b612167565b3480156102d857600080fd5b506101656102e7366004612ae8565b6121ac565b60408051600580825260c08201909252600091816020015b61030c612a73565b81526020019060019003908161030457905050905061033f600060066000604051806020016040528060008152506121b8565b8160008151811061035257610352612f22565b602002602001018190525061037960016000604051806020016040528060008152506121ef565b8160018151811061038c5761038c612f22565b60200260200101819052506103b360026000604051806020016040528060008152506121ef565b816002815181106103c6576103c6612f22565b60200260200101819052506103ed60046000604051806020016040528060008152506121ef565b8160038151811061040057610400612f22565b602002602001018190525061042760036000604051806020016040528060008152506121ef565b8160048151811061043a5761043a612f22565b602002602001018190525060006040518060600160405280600060070b8152602001856001600160a01b03168152602001627a120060070b815250905060006040518061012001604052806002805461049290612f38565b80601f01602080910402602001604051908101604052809291908181526020018280546104be90612f38565b801561050b5780601f106104e05761010080835404028352916020019161050b565b820191906000526020600020905b8154815290600101906020018083116104ee57829003601f168201915b505050505081526020016003805461052290612f38565b80601f016020809104026020016040519081016040528092919081815260200182805461054e90612f38565b801561059b5780601f106105705761010080835404028352916020019161059b565b820191906000526020600020905b81548152906001019060200180831161057e57829003601f168201915b50505050508152602001866001600160a01b03168152602001600480546105c190612f38565b80601f01602080910402602001604051908101604052809291908181526020018280546105ed90612f38565b801561063a5780601f1061060f5761010080835404028352916020019161063a565b820191906000526020600020905b81548152906001019060200180831161061d57829003601f168201915b5050509183525050600160208201819052600554600160401b810460070b6040840152600160a01b900460ff16151560608301526080820186905260a09091018490529091506000906040519080825280602002602001820160405280156106dc57816020015b6040805160a0810182526000808252602080830182905292820181905260608201819052608082015282526000199092019101816106a15790505b506040805160a081018252600181526001600160a01b0380891660208301526000928201839052606082018390528916608082015282519293509183919061072657610726612f22565b6020908102919091010152604080516001808252818301909252600091816020015b6040805160c08101825260008082526020808301829052928201819052606082018190526080820181905260a082015282526000199092019101816107485790505090506040518060c00160405280600460070b8152602001600560070b8152602001600a60070b8152602001876001600160a01b03168152602001600015158152602001886001600160a01b0316815250816000815181106107ed576107ed612f22565b6020026020010181905250600080610806858585612224565b90925090506016821461081857600080fd5b6040516001600160a01b03821681527f7bb17726df1f3adee8aa00ba8e8bc5d6f182af3bbf77604639cb7f008dd3b4ed9060200160405180910390a1505050505050505050565b600061086b838361234c565b604051600782900b81529091507f90a5cf4cffe88b4edbb041cfc7a8a812c48a5ec30b84640fb37690875168e3aa9060200160405180910390a1600781900b6016146108b657600080fd5b92915050565b60006108c8838361242f565b90507f90a5cf4cffe88b4edbb041cfc7a8a812c48a5ec30b84640fb37690875168e3aa816040516108fb91815260200190565b60405180910390a1601681146108b657600080fd5b6040516001600160a01b038581166024830152848116604483015283166064820152608481018290526000908190819061016790639b23d3d960e01b9060a4015b60408051601f198184030181529181526020820180516001600160e01b03166001600160e01b031990941693909317909252905161098f9190612fa3565b600060405180830381855af49150503d80600081146109ca576040519150601f19603f3d011682016040523d82523d6000602084013e6109cf565b606091505b5091509150816109e05760156109f4565b808060200190518101906109f49190612fd6565b60030b979650505050505050565b6040516001600160a01b038581166024830152848116604483015283166064820152608481018290526000908190819061016790630aed65f560e11b9060a4015b60408051601f198184030181529181526020820180516001600160e01b03166001600160e01b0319909416939093179092529051610a819190612fa3565b6000604051808303816000865af19150503d80600081146109ca576040519150601f19603f3d011682016040523d82523d6000602084013e6109cf565b60408051600580825260c08201909252600091816020015b610ade612a73565b815260200190600190039081610ad6579050509050610b11600060066000604051806020016040528060008152506121b8565b81600081518110610b2457610b24612f22565b6020026020010181905250610b4b60016000604051806020016040528060008152506121ef565b81600181518110610b5e57610b5e612f22565b6020026020010181905250610b8560026000604051806020016040528060008152506121ef565b81600281518110610b9857610b98612f22565b6020026020010181905250610bbf60036000604051806020016040528060008152506121ef565b81600381518110610bd257610bd2612f22565b6020026020010181905250610bf960046000604051806020016040528060008152506121ef565b81600481518110610c0c57610c0c612f22565b602002602001018190525060006040518060600160405280600060070b8152602001846001600160a01b03168152602001627a120060070b8152509050600060405180610120016040528060028054610c6490612f38565b80601f0160208091040260200160405190810160405280929190818152602001828054610c9090612f38565b8015610cdd5780601f10610cb257610100808354040283529160200191610cdd565b820191906000526020600020905b815481529060010190602001808311610cc057829003601f168201915b5050505050815260200160038054610cf490612f38565b80601f0160208091040260200160405190810160405280929190818152602001828054610d2090612f38565b8015610d6d5780601f10610d4257610100808354040283529160200191610d6d565b820191906000526020600020905b815481529060010190602001808311610d5057829003601f168201915b50505050508152602001856001600160a01b0316815260200160048054610d9390612f38565b80601f0160208091040260200160405190810160405280929190818152602001828054610dbf90612f38565b8015610e0c5780601f10610de157610100808354040283529160200191610e0c565b820191906000526020600020905b815481529060010190602001808311610def57829003601f168201915b505050918352505060016020820152600554600160401b8104600790810b604084015260ff600160a01b830416151560608401526080830187905260a09092018590529192506000918291610e7091859181900b90600160801b900460030b61245b565b909250905060168214610e8257600080fd5b6040516001600160a01b03821681527f7bb17726df1f3adee8aa00ba8e8bc5d6f182af3bbf77604639cb7f008dd3b4ed9060200160405180910390a1505050505050565b6000806060610ed68686866124c8565b60405183815292955090935091507f90a5cf4cffe88b4edbb041cfc7a8a812c48a5ec30b84640fb37690875168e3aa9060200160405180910390a160168314610f1e57600080fd5b7ffc6b20023c4bac8ff1c48c1693e0cea5cd3c2163e9c2da41c58f17dd6d9f163d8282604051610f4f929190612ff1565b60405180910390a1610f7d86303384600081518110610f7057610f70612f22565b60200260200101516125c6565b5093509350939050565b604051638f74a17b60e01b81526000903090638f74a17b903490610fb19088908890600401613041565b6020604051808303818588803b158015610fca57600080fd5b505af1158015610fde573d6000803e3d6000fd5b50505050506040513d601f19601f820116820180604052508101906110039190613063565b60405163f4a01e5b60e01b81523360048201526001600160a01b0382166024820152909150309063f4a01e5b90604401602060405180830381600087803b15801561104d57600080fd5b505af1158015611061573d6000803e3d6000fd5b505050506040513d601f19601f820116820180604052508101906110859190613080565b506040516307e9300f60e11b81526001600160a01b03821660048201523360248201523090630fd2601e90604401602060405180830381600087803b1580156110cd57600080fd5b505af11580156110e1573d6000803e3d6000fd5b505050506040513d601f19601f820116820180604052508101906111059190613099565b506111128130338561260e565b5050505050565b604080516001808252818301909252600091816020015b611138612a73565b81526020019060019003908161113057905050905061116a6000806000604051806020016040528060008152506121b8565b8160008151811061117d5761117d612f22565b602002602001018190525060006040518060600160405280600060070b8152602001856001600160a01b03168152602001627a120060070b81525090506000604051806101200160405280600280546111d590612f38565b80601f016020809104026020016040519081016040528092919081815260200182805461120190612f38565b801561124e5780601f106112235761010080835404028352916020019161124e565b820191906000526020600020905b81548152906001019060200180831161123157829003601f168201915b505050505081526020016003805461126590612f38565b80601f016020809104026020016040519081016040528092919081815260200182805461129190612f38565b80156112de5780601f106112b3576101008083540402835291602001916112de565b820191906000526020600020905b8154815290600101906020018083116112c157829003601f168201915b50505050508152602001866001600160a01b031681526020016004805461130490612f38565b80601f016020809104026020016040519081016040528092919081815260200182805461133090612f38565b801561137d5780601f106113525761010080835404028352916020019161137d565b820191906000526020600020905b81548152906001019060200180831161136057829003601f168201915b5050509183525050600160208201819052600554600160401b900460070b6040808401919091526000606084018190526080840188905260a09093018690528051828152808201909152929350909190816020015b6040805160a0810182526000808252602080830182905292820181905260608201819052608082015282526000199092019101816113d25750506040805160a081018252600181526001600160a01b0388811660208301526000928201839052606082018390528916608082015282519293509183919061145557611455612f22565b6020908102919091010152604080516001808252818301909252600091816020015b6040805160c08101825260008082526020808301829052928201819052606082018190526080820181905260a082015282526000199092019101816114775750506040805160c0810182526004815260056020820152600a91810191909152601e60608201526000608082018190526001600160a01b038a1660a08301528251929350909183919061150b5761150b612f22565b6020908102919091010152600554600090819061153b908690600781900b90600160801b900460030b8787612656565b915091507f90a5cf4cffe88b4edbb041cfc7a8a812c48a5ec30b84640fb37690875168e3aa8260405161157091815260200190565b60405180910390a16016821461081857600080fd5b60408051600580825260c08201909252600091829190816020015b6115a8612a73565b8152602001906001900390816115a05790505090506115cc600060066003866121b8565b816000815181106115df576115df612f22565b60200260200101819052506115f760016003856121ef565b8160018151811061160a5761160a612f22565b602002602001018190525061162260026003856121ef565b8160028151811061163557611635612f22565b602002602001018190525061164d60046003856121ef565b8160038151811061166057611660612f22565b6020026020010181905250611677600380856121ef565b8160048151811061168a5761168a612f22565b602002602001018190525060006040518060600160405280600060070b8152602001866001600160a01b03168152602001627a120060070b81525090506000604051806101200160405280600280546116e290612f38565b80601f016020809104026020016040519081016040528092919081815260200182805461170e90612f38565b801561175b5780601f106117305761010080835404028352916020019161175b565b820191906000526020600020905b81548152906001019060200180831161173e57829003601f168201915b505050505081526020016003805461177290612f38565b80601f016020809104026020016040519081016040528092919081815260200182805461179e90612f38565b80156117eb5780601f106117c0576101008083540402835291602001916117eb565b820191906000526020600020905b8154815290600101906020018083116117ce57829003601f168201915b50505050508152602001876001600160a01b031681526020016004805461181190612f38565b80601f016020809104026020016040519081016040528092919081815260200182805461183d90612f38565b801561188a5780601f1061185f5761010080835404028352916020019161188a565b820191906000526020600020905b81548152906001019060200180831161186d57829003601f168201915b505050918352505060016020820152600554600160401b8104600790810b604084015260ff600160a01b830416151560608401526080830187905260a090920185905291925060009182916118ee91859181900b90600160801b900460030b61245b565b90925090506016821461190057600080fd5b6040516001600160a01b03821681527f7bb17726df1f3adee8aa00ba8e8bc5d6f182af3bbf77604639cb7f008dd3b4ed9060200160405180910390a1979650505050505050565b6040516001600160a01b038581166024830152848116604483015283166064820152608481018290526000908190819061016790639b23d3d960e01b9060a401610a43565b60408051600580825260c08201909252600091816020015b6119ac612a73565b8152602001906001900390816119a45790505090506119d0600060066003856121b8565b816000815181106119e3576119e3612f22565b60200260200101819052506119fb60016003846121ef565b81600181518110611a0e57611a0e612f22565b6020026020010181905250611a2660026003846121ef565b81600281518110611a3957611a39612f22565b6020026020010181905250611a5160046003846121ef565b81600381518110611a6457611a64612f22565b6020026020010181905250611a7b600380846121ef565b81600481518110611a8e57611a8e612f22565b602002602001018190525060006040518060600160405280600060070b8152602001856001600160a01b03168152602001627a120060070b8152509050600060405180610120016040528060028054611ae690612f38565b80601f0160208091040260200160405190810160405280929190818152602001828054611b1290612f38565b8015611b5f5780601f10611b3457610100808354040283529160200191611b5f565b820191906000526020600020905b815481529060010190602001808311611b4257829003601f168201915b5050505050815260200160038054611b7690612f38565b80601f0160208091040260200160405190810160405280929190818152602001828054611ba290612f38565b8015611bef5780601f10611bc457610100808354040283529160200191611bef565b820191906000526020600020905b815481529060010190602001808311611bd257829003601f168201915b50505050508152602001866001600160a01b0316815260200160048054611c1590612f38565b80601f0160208091040260200160405190810160405280929190818152602001828054611c4190612f38565b8015611c8e5780601f10611c6357610100808354040283529160200191611c8e565b820191906000526020600020905b815481529060010190602001808311611c7157829003601f168201915b505050918352505060016020820152600554600160401b810460070b6040830152600160a01b900460ff16151560608201526080810185905260a0018390529050600080611cdb83612784565b909250905060168214611ced57600080fd5b6040516001600160a01b03821681527f7bb17726df1f3adee8aa00ba8e8bc5d6f182af3bbf77604639cb7f008dd3b4ed9060200160405180910390a150505050505050565b60408051600580825260c08201909252600091816020015b611d52612a73565b815260200190600190039081611d4a579050509050611d85600060066000604051806020016040528060008152506121b8565b81600081518110611d9857611d98612f22565b6020026020010181905250611dbf60016000604051806020016040528060008152506121ef565b81600181518110611dd257611dd2612f22565b6020026020010181905250611df960026000604051806020016040528060008152506121ef565b81600281518110611e0c57611e0c612f22565b6020026020010181905250611e3360046000604051806020016040528060008152506121ef565b81600381518110611e4657611e46612f22565b6020026020010181905250611e6d60036000604051806020016040528060008152506121ef565b81600481518110611e8057611e80612f22565b602002602001018190525060006040518060600160405280600060070b8152602001846001600160a01b03168152602001627a120060070b8152509050600060405180610120016040528060028054611ed890612f38565b80601f0160208091040260200160405190810160405280929190818152602001828054611f0490612f38565b8015611f515780601f10611f2657610100808354040283529160200191611f51565b820191906000526020600020905b815481529060010190602001808311611f3457829003601f168201915b5050505050815260200160038054611f6890612f38565b80601f0160208091040260200160405190810160405280929190818152602001828054611f9490612f38565b8015611fe15780601f10611fb657610100808354040283529160200191611fe1565b820191906000526020600020905b815481529060010190602001808311611fc457829003601f168201915b50505050508152602001856001600160a01b031681526020016004805461200790612f38565b80601f016020809104026020016040519081016040528092919081815260200182805461203390612f38565b80156120805780601f1061205557610100808354040283529160200191612080565b820191906000526020600020905b81548152906001019060200180831161206357829003601f168201915b505050918352505060016020820152600554600160401b810460070b6040830152600160a01b900460ff16151560608201526080810185905260a0018390529050600080610e7083612784565b60008060606120dd8686866124c8565b60405183815292955090935091507f90a5cf4cffe88b4edbb041cfc7a8a812c48a5ec30b84640fb37690875168e3aa9060200160405180910390a16016831461212557600080fd5b7ffc6b20023c4bac8ff1c48c1693e0cea5cd3c2163e9c2da41c58f17dd6d9f163d8282604051612156929190612ff1565b60405180910390a193509350939050565b6040516001600160a01b038581166024830152848116604483015283166064820152608481018290526000908190819061016790630aed65f560e11b9060a401610951565b60006108c883836128a6565b6121c0612a73565b60405180604001604052806121d587876128dc565b81526020016121e4858561291e565b905295945050505050565b6121f7612a73565b604051806040016040528061220b86612a34565b815260200161221a858561291e565b9052949350505050565b600080848061010001516000015160070b600014801561224e57506101008101516040015160070b155b15612264576101008101516276a7006040909101525b6000806101676001600160a01b03163463abb54eb560e01b8a8a8a604051602401612291939291906132e9565b60408051601f198184030181529181526020820180516001600160e01b03166001600160e01b03199094169390931790925290516122cf9190612fa3565b60006040518083038185875af1925050503d806000811461230c576040519150601f19603f3d011682016040523d82523d6000602084013e612311565b606091505b5091509150816123245760156000612338565b8080602001905181019061233891906133a0565b60039190910b999098509650505050505050565b6040516001600160a01b038381166024830152821660448201526000908190819061016790638f8d7f9960e01b906064015b60408051601f198184030181529181526020820180516001600160e01b03166001600160e01b03199094169390931790925290516123bc9190612fa3565b6000604051808303816000865af19150503d80600081146123f9576040519150601f19603f3d011682016040523d82523d6000602084013e6123fe565b606091505b50915091508161240f576015612423565b808060200190518101906124239190612fd6565b60030b95945050505050565b60008060006101676001600160a01b0316632e63879b60e01b868660405160240161237e9291906133cc565b600080848061010001516000015160070b600014801561248557506101008101516040015160070b155b1561249b576101008101516276a7006040909101525b6000806101676001600160a01b031634630fb65bf360e01b8a8a8a60405160240161229193929190613427565b60008060606000806101676001600160a01b031663e0f4059a60e01b8989896040516024016124f993929190613456565b60408051601f198184030181529181526020820180516001600160e01b03166001600160e01b03199094169390931790925290516125379190612fa3565b6000604051808303816000865af19150503d8060008114612574576040519150601f19603f3d011682016040523d82523d6000602084013e612579565b606091505b50915091508161259c5760408051600080825260208201909252601591906125b0565b808060200190518101906125b091906134d3565b60039290920b9a90995090975095505050505050565b6040516001600160a01b038581166024830152848116604483015283166064820152600782900b60848201526000908190819061016790635cfc901160e01b9060a401610a43565b6040516001600160a01b038581166024830152848116604483015283166064820152600782900b6084820152600090819081906101679063eca3691760e01b9060a401610a43565b600080868061010001516000015160070b600014801561268057506101008101516040015160070b155b15612696576101008101516276a7006040909101525b6000806101676001600160a01b031634632af0c59a60e01b8c8c8c8c8c6040516024016126c7959493929190613593565b60408051601f198184030181529181526020820180516001600160e01b03166001600160e01b03199094169390931790925290516127059190612fa3565b60006040518083038185875af1925050503d8060008114612742576040519150601f19603f3d011682016040523d82523d6000602084013e612747565b606091505b50915091508161275a576015600061276e565b8080602001905181019061276e91906133a0565b60039190910b9b909a5098505050505050505050565b600080828061010001516000015160070b60001480156127ae57506101008101516040015160070b155b156127c4576101008101516276a7006040909101525b6000806101676001600160a01b03163463ea83f29360e01b886040516024016127ed919061365b565b60408051601f198184030181529181526020820180516001600160e01b03166001600160e01b031990941693909317909252905161282b9190612fa3565b60006040518083038185875af1925050503d8060008114612868576040519150601f19603f3d011682016040523d82523d6000602084013e61286d565b606091505b5091509150816128805760156000612894565b8080602001905181019061289491906133a0565b60039190910b97909650945050505050565b6040516001600160a01b03838116602483015282166044820152600090819081906101679063248a35ef60e11b9060640161237e565b60006129008360068111156128f3576128f361366e565b600160ff9091161b821790565b90506129178260068111156128f3576128f361366e565b9392505050565b6129646040518060a0016040528060001515815260200160006001600160a01b03168152602001606081526020016060815260200160006001600160a01b031681525090565b60008360048111156129785761297861366e565b141561298757600181526108b6565b600183600481111561299b5761299b61366e565b14156129b7576000546001600160a01b031660208201526108b6565b60028360048111156129cb576129cb61366e565b14156129dd57604081018290526108b6565b60038360048111156129f1576129f161366e565b1415612a0357606081018290526108b6565b6004836004811115612a1757612a1761366e565b14156108b6576000546001600160a01b0316608082015292915050565b600060016000836006811115612a4c57612a4c61366e565b6006811115612a5d57612a5d61366e565b8152602001908152602001600020549050919050565b604051806040016040528060008152602001612acb6040518060a0016040528060001515815260200160006001600160a01b03168152602001606081526020016060815260200160006001600160a01b031681525090565b905290565b6001600160a01b0381168114612ae557600080fd5b50565b60008060408385031215612afb57600080fd5b8235612b0681612ad0565b91506020830135612b1681612ad0565b809150509250929050565b634e487b7160e01b600052604160045260246000fd5b604051601f8201601f1916810167ffffffffffffffff81118282101715612b6057612b60612b21565b604052919050565b600067ffffffffffffffff821115612b8257612b82612b21565b5060051b60200190565b60008060408385031215612b9f57600080fd5b8235612baa81612ad0565b915060208381013567ffffffffffffffff811115612bc757600080fd5b8401601f81018613612bd857600080fd5b8035612beb612be682612b68565b612b37565b81815260059190911b82018301908381019088831115612c0a57600080fd5b928401925b82841015612c31578335612c2281612ad0565b82529284019290840190612c0f565b80955050505050509250929050565b60008060008060808587031215612c5657600080fd5b8435612c6181612ad0565b93506020850135612c7181612ad0565b92506040850135612c8181612ad0565b9396929550929360600135925050565b600060208284031215612ca357600080fd5b813561291781612ad0565b8060070b8114612ae557600080fd5b600082601f830112612cce57600080fd5b813567ffffffffffffffff811115612ce857612ce8612b21565b612cfb601f8201601f1916602001612b37565b818152846020838601011115612d1057600080fd5b816020850160208301376000918101602001919091529392505050565b600080600060608486031215612d4257600080fd5b8335612d4d81612ad0565b9250602084810135612d5e81612cae565b9250604085013567ffffffffffffffff80821115612d7b57600080fd5b818701915087601f830112612d8f57600080fd5b8135612d9d612be682612b68565b81815260059190911b8301840190848101908a831115612dbc57600080fd5b8585015b83811015612df457803585811115612dd85760008081fd5b612de68d89838a0101612cbd565b845250918601918601612dc0565b508096505050505050509250925092565b600081518084526020808501945080840160005b83811015612e3857815160070b87529582019590820190600101612e19565b509495945050505050565b8381528260070b6020820152606060408201526000612e656060830184612e05565b95945050505050565b600080600060608486031215612e8357600080fd5b8335612e8e81612ad0565b9250602084013567ffffffffffffffff811115612eaa57600080fd5b612eb686828701612cbd565b9250506040840135612ec781612cae565b809150509250925092565b60008060408385031215612ee557600080fd5b8235612ef081612ad0565b9150602083013567ffffffffffffffff811115612f0c57600080fd5b612f1885828601612cbd565b9150509250929050565b634e487b7160e01b600052603260045260246000fd5b600181811c90821680612f4c57607f821691505b60208210811415612f6d57634e487b7160e01b600052602260045260246000fd5b50919050565b60005b83811015612f8e578181015183820152602001612f76565b83811115612f9d576000848401525b50505050565b60008251612fb5818460208701612f73565b9190910192915050565b8051600381900b8114612fd157600080fd5b919050565b600060208284031215612fe857600080fd5b61291782612fbf565b8260070b815260406020820152600061300d6040830184612e05565b949350505050565b6000815180845261302d816020860160208601612f73565b601f01601f19169290920160200192915050565b6001600160a01b038316815260406020820152600061300d6040830184613015565b60006020828403121561307557600080fd5b815161291781612ad0565b60006020828403121561309257600080fd5b5051919050565b6000602082840312156130ab57600080fd5b815161291781612cae565b600081518084526020808501808196508360051b8101915082860160005b8581101561316d5782840389528151604081518652868201519150808787015281511515818701528682015160606001600160a01b03808316828a015283850151935060a09250608083818b015261312f60e08b0186613015565b928601518a8403603f1901858c015292945061314b8584613015565b9501511660c098909801979097525050988501989350908401906001016130d4565b5091979650505050505050565b6000610160825181855261319082860182613015565b915050602083015184820360208601526131aa8282613015565b91505060408301516131c760408601826001600160a01b03169052565b50606083015184820360608601526131df8282613015565b91505060808301516131f5608086018215159052565b5060a083015161320a60a086018260070b9052565b5060c083015161321e60c086018215159052565b5060e083015184820360e086015261323682826130b6565b9150506101008084015161327282870182805160070b82526001600160a01b036020820151166020830152604081015160070b60408301525050565b5090949350505050565b600081518084526020808501945080840160005b83811015612e38578151805160070b8852838101516001600160a01b03908116858a01526040808301511515908a01526060808301511515908a0152608091820151169088015260a09096019590820190600101613290565b600060608083526132fc8184018761317a565b60208482038186015261330f828861327c565b91506040858303818701528287518085528385019150838901945060005b818110156133905785518051600790810b855286820151810b8786015285820151900b85850152878101516001600160a01b039081168986015260808083015115159086015260a09182015116908401529484019460c09092019160010161332d565b50909a9950505050505050505050565b600080604083850312156133b357600080fd5b6133bc83612fbf565b91506020830151612b1681612ad0565b6000604082016001600160a01b0380861684526020604081860152828651808552606087019150828801945060005b818110156134195785518516835294830194918301916001016133fb565b509098975050505050505050565b60608152600061343a606083018661317a565b90508360070b60208301528260030b6040830152949350505050565b6000606082016001600160a01b038616835260208560070b818501526060604085015281855180845260808601915060808160051b870101935082870160005b828110156134c457607f198887030184526134b2868351613015565b95509284019290840190600101613496565b50939998505050505050505050565b6000806000606084860312156134e857600080fd5b6134f184612fbf565b925060208085015161350281612cae565b604086015190935067ffffffffffffffff81111561351f57600080fd5b8501601f8101871361353057600080fd5b805161353e612be682612b68565b81815260059190911b8201830190838101908983111561355d57600080fd5b928401925b8284101561358457835161357581612cae565b82529284019290840190613562565b80955050505050509250925092565b600060a08083526135a68184018961317a565b6020600789810b8287015260408960030b818801526060878503818901526135ce858b61327c565b94506080888603818a0152858a518088528688019150868c01975060005b818110156136465788518051880b845288810151880b8985015286810151880b8785015285810151880b86850152848101511515858501528a01516001600160a01b03168a8401529787019760c0909201916001016135ec565b50909f9e505050505050505050505050505050565b602081526000612917602083018461317a565b634e487b7160e01b600052602160045260246000fdfea2646970667358221220f2cf6067bfd2fc44bc3c409c6d77d070c246560db38a86c07739cd4f871f315c64736f6c63430008090033",
  "linkReferences": {},
  "deployedLinkReferences": {}
}