{
  "_format": "hh-sol-artifact-1",
  "contractName": "TokenCreateContract",
  "sourceName": "contracts/hts-precompile/examples/token-create/TokenCreateContract.sol",
  "abi": [
    {
      "anonymous": false,
      "inputs": [
        {
          "indexed": false,
          "internalType": "bool",
          "name": "",
          "type": "bool"
        },
        {
          "indexed": false,
          "internalType": "bytes",
          "name": "",
          "type": "bytes"
        }
      ],
      "name": "CallResponseEvent",
      "type": "event"
    },
    {
      "anonymous": false,
      "inputs": [
        {
          "indexed": false,
          "internalType": "address",
          "name": "tokenAddress",
          "type": "address"
        }
      ],
      "name": "CreatedToken",
      "type": "event"
    },
    {
      "anonymous": false,
      "inputs": [
        {
          "indexed": false,
          "internalType": "bool",
          "name": "kycGranted",
          "type": "bool"
        }
      ],
      "name": "KycGranted",
      "type": "event"
    },
    {
      "anonymous": false,
      "inputs": [
        {
          "indexed": false,
          "internalType": "int64",
          "name": "newTotalSupply",
          "type": "int64"
        },
        {
          "indexed": false,
          "internalType": "int64[]",
          "name": "serialNumbers",
          "type": "int64[]"
        }
      ],
      "name": "MintedToken",
      "type": "event"
    },
    {
      "anonymous": false,
      "inputs": [
        {
          "indexed": false,
          "internalType": "int256",
          "name": "responseCode",
          "type": "int256"
        }
      ],
      "name": "ResponseCode",
      "type": "event"
    },
    {
      "inputs": [
        {
          "internalType": "address",
          "name": "account",
          "type": "address"
        },
        {
          "internalType": "address",
          "name": "token",
          "type": "address"
        }
      ],
      "name": "associateTokenPublic",
      "outputs": [
        {
          "internalType": "int256",
          "name": "responseCode",
          "type": "int256"
        }
      ],
      "stateMutability": "nonpayable",
      "type": "function"
    },
    {
      "inputs": [
        {
          "internalType": "address",
          "name": "account",
          "type": "address"
        },
        {
          "internalType": "address[]",
          "name": "tokens",
          "type": "address[]"
        }
      ],
      "name": "associateTokensPublic",
      "outputs": [
        {
          "internalType": "int256",
          "name": "responseCode",
          "type": "int256"
        }
      ],
      "stateMutability": "nonpayable",
      "type": "function"
    },
    {
      "inputs": [
        {
          "internalType": "address",
          "name": "treasury",
          "type": "address"
        }
      ],
      "name": "createFungibleTokenPublic",
      "outputs": [],
      "stateMutability": "payable",
      "type": "function"
    },
    {
      "inputs": [
        {
          "internalType": "address",
          "name": "treasury",
          "type": "address"
        },
        {
          "internalType": "address",
          "name": "fixedFeeTokenAddress",
          "type": "address"
        }
      ],
      "name": "createFungibleTokenWithCustomFeesPublic",
      "outputs": [],
      "stateMutability": "payable",
      "type": "function"
    },
    {
      "inputs": [
        {
          "internalType": "address",
          "name": "treasury",
          "type": "address"
        },
        {
          "internalType": "bytes",
          "name": "adminKey",
          "type": "bytes"
        },
        {
          "internalType": "int64",
          "name": "amount",
          "type": "int64"
        }
      ],
      "name": "createFungibleTokenWithSECP256K1AdminKeyAssociateAndTransferToAddressPublic",
      "outputs": [],
      "stateMutability": "payable",
      "type": "function"
    },
    {
      "inputs": [
        {
          "internalType": "address",
          "name": "treasury",
          "type": "address"
        },
        {
          "internalType": "bytes",
          "name": "adminKey",
          "type": "bytes"
        }
      ],
      "name": "createFungibleTokenWithSECP256K1AdminKeyPublic",
      "outputs": [
        {
          "internalType": "address",
          "name": "",
          "type": "address"
        }
      ],
      "stateMutability": "payable",
      "type": "function"
    },
    {
      "inputs": [
        {
          "internalType": "address",
          "name": "treasury",
          "type": "address"
        },
        {
          "internalType": "bytes",
          "name": "adminKey",
          "type": "bytes"
        }
      ],
      "name": "createFungibleTokenWithSECP256K1AdminKeyWithoutKYCPublic",
      "outputs": [
        {
          "internalType": "address",
          "name": "",
          "type": "address"
        }
      ],
      "stateMutability": "payable",
      "type": "function"
    },
    {
      "inputs": [
        {
          "internalType": "address",
          "name": "treasury",
          "type": "address"
        }
      ],
      "name": "createNonFungibleTokenPublic",
      "outputs": [],
      "stateMutability": "payable",
      "type": "function"
    },
    {
      "inputs": [
        {
          "internalType": "address",
          "name": "treasury",
          "type": "address"
        },
        {
          "internalType": "address",
          "name": "fixedFeeTokenAddress",
          "type": "address"
        }
      ],
      "name": "createNonFungibleTokenWithCustomFeesPublic",
      "outputs": [],
      "stateMutability": "payable",
      "type": "function"
    },
    {
      "inputs": [
        {
          "internalType": "address",
          "name": "treasury",
          "type": "address"
        },
        {
          "internalType": "bytes",
          "name": "adminKey",
          "type": "bytes"
        }
      ],
      "name": "createNonFungibleTokenWithSECP256K1AdminKeyPublic",
      "outputs": [],
      "stateMutability": "payable",
      "type": "function"
    },
    {
      "inputs": [
        {
          "internalType": "address",
          "name": "treasury",
          "type": "address"
        },
        {
          "internalType": "bytes",
          "name": "adminKey",
          "type": "bytes"
        }
      ],
      "name": "createNonFungibleTokenWithSECP256K1AdminKeyWithoutKYCPublic",
      "outputs": [],
      "stateMutability": "payable",
      "type": "function"
    },
    {
      "inputs": [
        {
          "internalType": "address",
          "name": "token",
          "type": "address"
        },
        {
          "internalType": "address",
          "name": "from",
          "type": "address"
        },
        {
          "internalType": "address",
          "name": "to",
          "type": "address"
        },
        {
          "internalType": "uint256",
          "name": "amount",
          "type": "uint256"
        }
      ],
      "name": "delegateTransferFrom",
      "outputs": [
        {
          "internalType": "int64",
          "name": "responseCode",
          "type": "int64"
        }
      ],
      "stateMutability": "nonpayable",
      "type": "function"
    },
    {
      "inputs": [
        {
          "internalType": "address",
          "name": "token",
          "type": "address"
        },
        {
          "internalType": "address",
          "name": "from",
          "type": "address"
        },
        {
          "internalType": "address",
          "name": "to",
          "type": "address"
        },
        {
          "internalType": "uint256",
          "name": "serialNumber",
          "type": "uint256"
        }
      ],
      "name": "delegateTransferFromNFT",
      "outputs": [
        {
          "internalType": "int64",
          "name": "responseCode",
          "type": "int64"
        }
      ],
      "stateMutability": "nonpayable",
      "type": "function"
    },
    {
      "inputs": [
        {
          "internalType": "address",
          "name": "token",
          "type": "address"
        },
        {
          "internalType": "address",
          "name": "account",
          "type": "address"
        }
      ],
      "name": "grantTokenKycPublic",
      "outputs": [
        {
          "internalType": "int64",
          "name": "responseCode",
          "type": "int64"
        }
      ],
      "stateMutability": "nonpayable",
      "type": "function"
    },
    {
      "inputs": [
        {
          "internalType": "address",
          "name": "token",
          "type": "address"
        },
        {
          "internalType": "int64",
          "name": "amount",
          "type": "int64"
        },
        {
          "internalType": "bytes[]",
          "name": "metadata",
          "type": "bytes[]"
        }
      ],
      "name": "mintTokenPublic",
      "outputs": [
        {
          "internalType": "int256",
          "name": "responseCode",
          "type": "int256"
        },
        {
          "internalType": "int64",
          "name": "newTotalSupply",
          "type": "int64"
        },
        {
          "internalType": "int64[]",
          "name": "serialNumbers",
          "type": "int64[]"
        }
      ],
      "stateMutability": "nonpayable",
      "type": "function"
    },
    {
      "inputs": [
        {
          "internalType": "address",
          "name": "token",
          "type": "address"
        },
        {
          "internalType": "int64",
          "name": "amount",
          "type": "int64"
        },
        {
          "internalType": "bytes[]",
          "name": "metadata",
          "type": "bytes[]"
        }
      ],
      "name": "mintTokenToAddressPublic",
      "outputs": [
        {
          "internalType": "int256",
          "name": "responseCode",
          "type": "int256"
        },
        {
          "internalType": "int64",
          "name": "newTotalSupply",
          "type": "int64"
        },
        {
          "internalType": "int64[]",
          "name": "serialNumbers",
          "type": "int64[]"
        }
      ],
      "stateMutability": "nonpayable",
      "type": "function"
    },
    {
      "inputs": [
        {
          "internalType": "address",
          "name": "token",
          "type": "address"
        },
        {
          "internalType": "bytes",
          "name": "encodedFunctionSelector",
          "type": "bytes"
        }
      ],
      "name": "redirectForToken",
      "outputs": [],
      "stateMutability": "nonpayable",
      "type": "function"
    },
    {
      "inputs": [
        {
          "internalType": "address",
          "name": "token",
          "type": "address"
        },
        {
          "internalType": "address",
          "name": "from",
          "type": "address"
        },
        {
          "internalType": "address",
          "name": "to",
          "type": "address"
        },
        {
          "internalType": "uint256",
          "name": "amount",
          "type": "uint256"
        }
      ],
      "name": "transferFrom",
      "outputs": [
        {
          "internalType": "int64",
          "name": "responseCode",
          "type": "int64"
        }
      ],
      "stateMutability": "nonpayable",
      "type": "function"
    },
    {
      "inputs": [
        {
          "internalType": "address",
          "name": "token",
          "type": "address"
        },
        {
          "internalType": "address",
          "name": "from",
          "type": "address"
        },
        {
          "internalType": "address",
          "name": "to",
          "type": "address"
        },
        {
          "internalType": "uint256",
          "name": "serialNumber",
          "type": "uint256"
        }
      ],
      "name": "transferFromNFT",
      "outputs": [
        {
          "internalType": "int64",
          "name": "responseCode",
          "type": "int64"
        }
      ],
      "stateMutability": "nonpayable",
      "type": "function"
    },
    {
      "inputs": [
        {
          "internalType": "address",
          "name": "token",
          "type": "address"
        },
        {
          "components": [
            {
              "internalType": "string",
              "name": "name",
              "type": "string"
            },
            {
              "internalType": "string",
              "name": "symbol",
              "type": "string"
            },
            {
              "internalType": "address",
              "name": "treasury",
              "type": "address"
            },
            {
              "internalType": "string",
              "name": "memo",
              "type": "string"
            },
            {
              "internalType": "bool",
              "name": "tokenSupplyType",
              "type": "bool"
            },
            {
              "internalType": "int64",
              "name": "maxSupply",
              "type": "int64"
            },
            {
              "internalType": "bool",
              "name": "freezeDefault",
              "type": "bool"
            },
            {
              "components": [
                {
                  "internalType": "uint256",
                  "name": "keyType",
                  "type": "uint256"
                },
                {
                  "components": [
                    {
                      "internalType": "bool",
                      "name": "inheritAccountKey",
                      "type": "bool"
                    },
                    {
                      "internalType": "address",
                      "name": "contractId",
                      "type": "address"
                    },
                    {
                      "internalType": "bytes",
                      "name": "ed25519",
                      "type": "bytes"
                    },
                    {
                      "internalType": "bytes",
                      "name": "ECDSA_secp256k1",
                      "type": "bytes"
                    },
                    {
                      "internalType": "address",
                      "name": "delegatableContractId",
                      "type": "address"
                    }
                  ],
                  "internalType": "struct IHederaTokenService.KeyValue",
                  "name": "key",
                  "type": "tuple"
                }
              ],
              "internalType": "struct IHederaTokenService.TokenKey[]",
              "name": "tokenKeys",
              "type": "tuple[]"
            },
            {
              "components": [
                {
                  "internalType": "int64",
                  "name": "second",
                  "type": "int64"
                },
                {
                  "internalType": "address",
                  "name": "autoRenewAccount",
                  "type": "address"
                },
                {
                  "internalType": "int64",
                  "name": "autoRenewPeriod",
                  "type": "int64"
                }
              ],
              "internalType": "struct IHederaTokenService.Expiry",
              "name": "expiry",
              "type": "tuple"
            }
          ],
          "internalType": "struct IHederaTokenService.HederaToken",
          "name": "tokenInfo",
          "type": "tuple"
        }
      ],
      "name": "updateTokenInfoPublic",
      "outputs": [
        {
          "internalType": "int256",
          "name": "responseCode",
          "type": "int256"
        }
      ],
      "stateMutability": "nonpayable",
      "type": "function"
    }
  ],
  "bytecode": "0x60c06040526009608081905268746f6b656e4e616d6560b81b60a09081526200002c9160029190620001cc565b5060408051808201909152600b8082526a1d1bdad95b94de5b589bdb60aa1b60209092019182526200006191600391620001cc565b50604080518082019091526004808252636d656d6f60e01b60209092019182526200008d9181620001cc565b50600580546001600160a81b031916700800000000000003e800000000000003e8179055348015620000be57600080fd5b50600160208181527fa6eef7e35abe7026729641147f7915573c7e97b47efa546f5f6e3230263bcb499190915560027fcc69885fda6bcc1a4ace058b4a62bf5e179ea78fd58a1ccd71c22cc9b688792f5560047fd9d16d34ffb15ba3a3d852f0d403e2ce1d691fb54de27ac87cd2f993f3ec330f5560087f7dfe757ecd65cbd7922a9c0161e935dd7fdbcc0e999689c7d31633896b1fc60b5560107fedc95719e9a3b28dd8e80877cb5880a9be7de1a13fc8b05e7999683b6b567643557fe2689cd4a84e23ad2f564004f1c9013e9589d260bde6380aba3ca7e09e4df40c55600660005260407f8f331abe73332f95a25873e8b430885974c0409691f89d643119a11623a7924a55620002af565b828054620001da9062000272565b90600052602060002090601f016020900481019282620001fe576000855562000249565b82601f106200021957805160ff191683800117855562000249565b8280016001018555821562000249579182015b82811115620002495782518255916020019190600101906200022c565b50620002579291506200025b565b5090565b5b808211156200025757600081556001016200025c565b600181811c908216806200028757607f821691505b60208210811415620002a957634e487b7160e01b600052602260045260246000fd5b50919050565b613e1980620002bf6000396000f3fe60806040526004361061011f5760003560e01c80638ba74da0116100a0578063d85f74c111610064578063d85f74c1146102f8578063de84a7791461030b578063e9f732261461032b578063eac6f3fe1461033e578063f4a01e5b1461035e57600080fd5b80638ba74da0146102745780638f74a17b146102875780639b23d3d9146102b2578063b35d417a146102d2578063cc265af4146102e557600080fd5b806336348de3116100e757806336348de3146101df5780634b5c6687146101ff5780634d1769d614610212578063618dc65e1461024157806371de37071461026157600080fd5b80630488c939146101245780630fd2601e14610139578063118741e71461017157806311e1fc071461019f57806315dacbea146101bf575b600080fd5b610137610132366004612e61565b61037e565b005b34801561014557600080fd5b50610159610154366004612e61565b6108f1565b60405160079190910b81526020015b60405180910390f35b34801561017d57600080fd5b5061019161018c366004612f75565b61094e565b604051908152602001610168565b3480156101ab57600080fd5b506101596101ba366004613029565b6109a2565b3480156101cb57600080fd5b506101596101da366004613029565b610a94565b3480156101eb57600080fd5b506101916101fa3660046132ef565b610b50565b61013761020d366004613437565b610b5c565b34801561021e57600080fd5b5061023261022d366004613454565b610f64565b6040516101689392919061356a565b34801561024d57600080fd5b5061013761025c366004613595565b611025565b61013761026f3660046135e5565b611113565b610137610282366004612e61565b6112a5565b61029a610295366004613595565b611711565b6040516001600160a01b039091168152602001610168565b3480156102be57600080fd5b506101596102cd366004613029565b611ad3565b6101376102e0366004613595565b611b18565b6101376102f3366004613595565b611ebe565b610137610306366004613437565b611f95565b34801561031757600080fd5b50610232610326366004613454565b612330565b61029a610339366004613595565b6123ca565b34801561034a57600080fd5b50610159610359366004613029565b6124a4565b34801561036a57600080fd5b50610191610379366004612e61565b6124e9565b60408051600580825260c08201909252600091816020015b61039e612ddc565b8152602001906001900390816103965790505090506103d1600060066000604051806020016040528060008152506124f5565b816000815181106103e4576103e4613649565b602002602001018190525061040b600160006040518060200160405280600081525061252c565b8160018151811061041e5761041e613649565b6020026020010181905250610445600260006040518060200160405280600081525061252c565b8160028151811061045857610458613649565b602002602001018190525061047f600460006040518060200160405280600081525061252c565b8160038151811061049257610492613649565b60200260200101819052506104b9600360006040518060200160405280600081525061252c565b816004815181106104cc576104cc613649565b602002602001018190525060006040518060600160405280600060070b8152602001856001600160a01b03168152602001627a120060070b81525090506000604051806101200160405280600280546105249061365f565b80601f01602080910402602001604051908101604052809291908181526020018280546105509061365f565b801561059d5780601f106105725761010080835404028352916020019161059d565b820191906000526020600020905b81548152906001019060200180831161058057829003601f168201915b50505050508152602001600380546105b49061365f565b80601f01602080910402602001604051908101604052809291908181526020018280546105e09061365f565b801561062d5780601f106106025761010080835404028352916020019161062d565b820191906000526020600020905b81548152906001019060200180831161061057829003601f168201915b50505050508152602001866001600160a01b03168152602001600480546106539061365f565b80601f016020809104026020016040519081016040528092919081815260200182805461067f9061365f565b80156106cc5780601f106106a1576101008083540402835291602001916106cc565b820191906000526020600020905b8154815290600101906020018083116106af57829003601f168201915b5050509183525050600160208201819052600554600160401b810460070b6040840152600160a01b900460ff16151560608301526080820186905260a090910184905290915060009060405190808252806020026020018201604052801561076e57816020015b6040805160a0810182526000808252602080830182905292820181905260608201819052608082015282526000199092019101816107335790505b506040805160a081018252600181526001600160a01b038089166020830152600092820183905260608201839052891660808201528251929350918391906107b8576107b8613649565b6020908102919091010152604080516001808252818301909252600091816020015b6040805160c08101825260008082526020808301829052928201819052606082018190526080820181905260a082015282526000199092019101816107da5790505090506040518060c00160405280600460070b8152602001600560070b8152602001600a60070b8152602001876001600160a01b03168152602001600015158152602001886001600160a01b03168152508160008151811061087f5761087f613649565b6020026020010181905250600080610898858585612561565b9092509050601682146108aa57600080fd5b6040516001600160a01b03821681527f7bb17726df1f3adee8aa00ba8e8bc5d6f182af3bbf77604639cb7f008dd3b4ed9060200160405180910390a1505050505050505050565b60006108fd8383612689565b604051600782900b81529091507f90a5cf4cffe88b4edbb041cfc7a8a812c48a5ec30b84640fb37690875168e3aa9060200160405180910390a1600781900b60161461094857600080fd5b92915050565b600061095a838361276c565b90507f90a5cf4cffe88b4edbb041cfc7a8a812c48a5ec30b84640fb37690875168e3aa8160405161098d91815260200190565b60405180910390a16016811461094857600080fd5b6040516001600160a01b038581166024830152848116604483015283166064820152608481018290526000908190819061016790639b23d3d960e01b9060a4015b60408051601f198184030181529181526020820180516001600160e01b03166001600160e01b0319909416939093179092529051610a2191906136ca565b600060405180830381855af49150503d8060008114610a5c576040519150601f19603f3d011682016040523d82523d6000602084013e610a61565b606091505b509150915081610a72576015610a86565b80806020019051810190610a8691906136f8565b60030b979650505050505050565b6040516001600160a01b038581166024830152848116604483015283166064820152608481018290526000908190819061016790630aed65f560e11b9060a4015b60408051601f198184030181529181526020820180516001600160e01b03166001600160e01b0319909416939093179092529051610b1391906136ca565b6000604051808303816000865af19150503d8060008114610a5c576040519150601f19603f3d011682016040523d82523d6000602084013e610a61565b600061095a8383612798565b60408051600580825260c08201909252600091816020015b610b7c612ddc565b815260200190600190039081610b74579050509050610baf600060066000604051806020016040528060008152506124f5565b81600081518110610bc257610bc2613649565b6020026020010181905250610be9600160006040518060200160405280600081525061252c565b81600181518110610bfc57610bfc613649565b6020026020010181905250610c23600260006040518060200160405280600081525061252c565b81600281518110610c3657610c36613649565b6020026020010181905250610c5d600360006040518060200160405280600081525061252c565b81600381518110610c7057610c70613649565b6020026020010181905250610c97600460006040518060200160405280600081525061252c565b81600481518110610caa57610caa613649565b602002602001018190525060006040518060600160405280600060070b8152602001846001600160a01b03168152602001627a120060070b8152509050600060405180610120016040528060028054610d029061365f565b80601f0160208091040260200160405190810160405280929190818152602001828054610d2e9061365f565b8015610d7b5780601f10610d5057610100808354040283529160200191610d7b565b820191906000526020600020905b815481529060010190602001808311610d5e57829003601f168201915b5050505050815260200160038054610d929061365f565b80601f0160208091040260200160405190810160405280929190818152602001828054610dbe9061365f565b8015610e0b5780601f10610de057610100808354040283529160200191610e0b565b820191906000526020600020905b815481529060010190602001808311610dee57829003601f168201915b50505050508152602001856001600160a01b0316815260200160048054610e319061365f565b80601f0160208091040260200160405190810160405280929190818152602001828054610e5d9061365f565b8015610eaa5780601f10610e7f57610100808354040283529160200191610eaa565b820191906000526020600020905b815481529060010190602001808311610e8d57829003601f168201915b505050918352505060016020820152600554600160401b8104600790810b604084015260ff600160a01b830416151560608401526080830187905260a09092018590529192506000918291610f0e91859181900b90600160801b900460030b6127c4565b909250905060168214610f2057600080fd5b6040516001600160a01b03821681527f7bb17726df1f3adee8aa00ba8e8bc5d6f182af3bbf77604639cb7f008dd3b4ed9060200160405180910390a1505050505050565b6000806060610f74868686612831565b60405183815292955090935091507f90a5cf4cffe88b4edbb041cfc7a8a812c48a5ec30b84640fb37690875168e3aa9060200160405180910390a160168314610fbc57600080fd5b7ffc6b20023c4bac8ff1c48c1693e0cea5cd3c2163e9c2da41c58f17dd6d9f163d8282604051610fed929190613713565b60405180910390a161101b8630338460008151811061100e5761100e613649565b602002602001015161292f565b5093509350939050565b6000806101676001600160a01b031663618dc65e60e01b858560405160240161104f929190613763565b60408051601f198184030181529181526020820180516001600160e01b03166001600160e01b031990941693909317909252905161108d91906136ca565b6000604051808303816000865af19150503d80600081146110ca576040519150601f19603f3d011682016040523d82523d6000602084013e6110cf565b606091505b50915091507f4af4780e06fe8cb9df64b0794fa6f01399af979175bb988e35e0e57e594567bc8282604051611105929190613785565b60405180910390a150505050565b604051638f74a17b60e01b81526000903090638f74a17b90349061113d9088908890600401613763565b6020604051808303818588803b15801561115657600080fd5b505af115801561116a573d6000803e3d6000fd5b50505050506040513d601f19601f8201168201806040525081019061118f91906137a0565b60405163f4a01e5b60e01b81523360048201526001600160a01b0382166024820152909150309063f4a01e5b90604401602060405180830381600087803b1580156111d957600080fd5b505af11580156111ed573d6000803e3d6000fd5b505050506040513d601f19601f8201168201806040525081019061121191906137bd565b506040516307e9300f60e11b81526001600160a01b03821660048201523360248201523090630fd2601e90604401602060405180830381600087803b15801561125957600080fd5b505af115801561126d573d6000803e3d6000fd5b505050506040513d601f19601f8201168201806040525081019061129191906137d6565b5061129e81303385612977565b5050505050565b604080516001808252818301909252600091816020015b6112c4612ddc565b8152602001906001900390816112bc5790505090506112f66000806000604051806020016040528060008152506124f5565b8160008151811061130957611309613649565b602002602001018190525060006040518060600160405280600060070b8152602001856001600160a01b03168152602001627a120060070b81525090506000604051806101200160405280600280546113619061365f565b80601f016020809104026020016040519081016040528092919081815260200182805461138d9061365f565b80156113da5780601f106113af576101008083540402835291602001916113da565b820191906000526020600020905b8154815290600101906020018083116113bd57829003601f168201915b50505050508152602001600380546113f19061365f565b80601f016020809104026020016040519081016040528092919081815260200182805461141d9061365f565b801561146a5780601f1061143f5761010080835404028352916020019161146a565b820191906000526020600020905b81548152906001019060200180831161144d57829003601f168201915b50505050508152602001866001600160a01b03168152602001600480546114909061365f565b80601f01602080910402602001604051908101604052809291908181526020018280546114bc9061365f565b80156115095780601f106114de57610100808354040283529160200191611509565b820191906000526020600020905b8154815290600101906020018083116114ec57829003601f168201915b5050509183525050600160208201819052600554600160401b900460070b6040808401919091526000606084018190526080840188905260a09093018690528051828152808201909152929350909190816020015b6040805160a08101825260008082526020808301829052928201819052606082018190526080820152825260001990920191018161155e5750506040805160a081018252600181526001600160a01b038881166020830152600092820183905260608201839052891660808201528251929350918391906115e1576115e1613649565b6020908102919091010152604080516001808252818301909252600091816020015b6040805160c08101825260008082526020808301829052928201819052606082018190526080820181905260a082015282526000199092019101816116035750506040805160c0810182526004815260056020820152600a91810191909152601e60608201526000608082018190526001600160a01b038a1660a08301528251929350909183919061169757611697613649565b602090810291909101015260055460009081906116c7908690600781900b90600160801b900460030b87876129bf565b915091507f90a5cf4cffe88b4edbb041cfc7a8a812c48a5ec30b84640fb37690875168e3aa826040516116fc91815260200190565b60405180910390a1601682146108aa57600080fd5b60408051600580825260c08201909252600091829190816020015b611734612ddc565b81526020019060019003908161172c579050509050611758600060066003866124f5565b8160008151811061176b5761176b613649565b6020026020010181905250611783600160038561252c565b8160018151811061179657611796613649565b60200260200101819052506117ae600260038561252c565b816002815181106117c1576117c1613649565b60200260200101819052506117d9600460038561252c565b816003815181106117ec576117ec613649565b60200260200101819052506118036003808561252c565b8160048151811061181657611816613649565b602002602001018190525060006040518060600160405280600060070b8152602001866001600160a01b03168152602001627a120060070b815250905060006040518061012001604052806002805461186e9061365f565b80601f016020809104026020016040519081016040528092919081815260200182805461189a9061365f565b80156118e75780601f106118bc576101008083540402835291602001916118e7565b820191906000526020600020905b8154815290600101906020018083116118ca57829003601f168201915b50505050508152602001600380546118fe9061365f565b80601f016020809104026020016040519081016040528092919081815260200182805461192a9061365f565b80156119775780601f1061194c57610100808354040283529160200191611977565b820191906000526020600020905b81548152906001019060200180831161195a57829003601f168201915b50505050508152602001876001600160a01b031681526020016004805461199d9061365f565b80601f01602080910402602001604051908101604052809291908181526020018280546119c99061365f565b8015611a165780601f106119eb57610100808354040283529160200191611a16565b820191906000526020600020905b8154815290600101906020018083116119f957829003601f168201915b505050918352505060016020820152600554600160401b8104600790810b604084015260ff600160a01b830416151560608401526080830187905260a09092018590529192506000918291611a7a91859181900b90600160801b900460030b6127c4565b909250905060168214611a8c57600080fd5b6040516001600160a01b03821681527f7bb17726df1f3adee8aa00ba8e8bc5d6f182af3bbf77604639cb7f008dd3b4ed9060200160405180910390a1979650505050505050565b6040516001600160a01b038581166024830152848116604483015283166064820152608481018290526000908190819061016790639b23d3d960e01b9060a401610ad5565b60408051600580825260c08201909252600091816020015b611b38612ddc565b815260200190600190039081611b30579050509050611b5c600060066003856124f5565b81600081518110611b6f57611b6f613649565b6020026020010181905250611b87600160038461252c565b81600181518110611b9a57611b9a613649565b6020026020010181905250611bb2600260038461252c565b81600281518110611bc557611bc5613649565b6020026020010181905250611bdd600460038461252c565b81600381518110611bf057611bf0613649565b6020026020010181905250611c076003808461252c565b81600481518110611c1a57611c1a613649565b602002602001018190525060006040518060600160405280600060070b8152602001856001600160a01b03168152602001627a120060070b8152509050600060405180610120016040528060028054611c729061365f565b80601f0160208091040260200160405190810160405280929190818152602001828054611c9e9061365f565b8015611ceb5780601f10611cc057610100808354040283529160200191611ceb565b820191906000526020600020905b815481529060010190602001808311611cce57829003601f168201915b5050505050815260200160038054611d029061365f565b80601f0160208091040260200160405190810160405280929190818152602001828054611d2e9061365f565b8015611d7b5780601f10611d5057610100808354040283529160200191611d7b565b820191906000526020600020905b815481529060010190602001808311611d5e57829003601f168201915b50505050508152602001866001600160a01b0316815260200160048054611da19061365f565b80601f0160208091040260200160405190810160405280929190818152602001828054611dcd9061365f565b8015611e1a5780601f10611def57610100808354040283529160200191611e1a565b820191906000526020600020905b815481529060010190602001808311611dfd57829003601f168201915b505050918352505060016020820152600554600160401b810460070b6040830152600160a01b900460ff16151560608201526080810185905260a0018390529050600080611e6783612aed565b909250905060168214611e7957600080fd5b6040516001600160a01b03821681527f7bb17726df1f3adee8aa00ba8e8bc5d6f182af3bbf77604639cb7f008dd3b4ed9060200160405180910390a150505050505050565b60408051600480825260a08201909252600091816020015b611ede612ddc565b815260200190600190039081611ed6579050509050611f02600060066003856124f5565b81600081518110611f1557611f15613649565b6020026020010181905250611f2d600260038461252c565b81600181518110611f4057611f40613649565b6020026020010181905250611f58600460038461252c565b81600281518110611f6b57611f6b613649565b6020026020010181905250611f826003808461252c565b81600381518110611c1a57611c1a613649565b60408051600580825260c08201909252600091816020015b611fb5612ddc565b815260200190600190039081611fad579050509050611fe8600060066000604051806020016040528060008152506124f5565b81600081518110611ffb57611ffb613649565b6020026020010181905250612022600160006040518060200160405280600081525061252c565b8160018151811061203557612035613649565b602002602001018190525061205c600260006040518060200160405280600081525061252c565b8160028151811061206f5761206f613649565b6020026020010181905250612096600460006040518060200160405280600081525061252c565b816003815181106120a9576120a9613649565b60200260200101819052506120d0600360006040518060200160405280600081525061252c565b816004815181106120e3576120e3613649565b602002602001018190525060006040518060600160405280600060070b8152602001846001600160a01b03168152602001627a120060070b815250905060006040518061012001604052806002805461213b9061365f565b80601f01602080910402602001604051908101604052809291908181526020018280546121679061365f565b80156121b45780601f10612189576101008083540402835291602001916121b4565b820191906000526020600020905b81548152906001019060200180831161219757829003601f168201915b50505050508152602001600380546121cb9061365f565b80601f01602080910402602001604051908101604052809291908181526020018280546121f79061365f565b80156122445780601f1061221957610100808354040283529160200191612244565b820191906000526020600020905b81548152906001019060200180831161222757829003601f168201915b50505050508152602001856001600160a01b031681526020016004805461226a9061365f565b80601f01602080910402602001604051908101604052809291908181526020018280546122969061365f565b80156122e35780601f106122b8576101008083540402835291602001916122e3565b820191906000526020600020905b8154815290600101906020018083116122c657829003601f168201915b505050918352505060016020820152600554600160401b810460070b6040830152600160a01b900460ff16151560608201526080810185905260a0018390529050600080610f0e83612aed565b6000806060612340868686612831565b60405183815292955090935091507f90a5cf4cffe88b4edbb041cfc7a8a812c48a5ec30b84640fb37690875168e3aa9060200160405180910390a16016831461238857600080fd5b7ffc6b20023c4bac8ff1c48c1693e0cea5cd3c2163e9c2da41c58f17dd6d9f163d82826040516123b9929190613713565b60405180910390a193509350939050565b60408051600480825260a08201909252600091829190816020015b6123ed612ddc565b8152602001906001900390816123e5579050509050612411600060066003866124f5565b8160008151811061242457612424613649565b602002602001018190525061243c600260038561252c565b8160018151811061244f5761244f613649565b6020026020010181905250612467600460038561252c565b8160028151811061247a5761247a613649565b60200260200101819052506124916003808561252c565b8160038151811061181657611816613649565b6040516001600160a01b038581166024830152848116604483015283166064820152608481018290526000908190819061016790630aed65f560e11b9060a4016109e3565b600061095a8383612c0f565b6124fd612ddc565b60405180604001604052806125128787612c45565b81526020016125218585612c87565b905295945050505050565b612534612ddc565b604051806040016040528061254886612d9d565b81526020016125578585612c87565b9052949350505050565b600080848061010001516000015160070b600014801561258b57506101008101516040015160070b155b156125a1576101008101516276a7006040909101525b6000806101676001600160a01b03163463abb54eb560e01b8a8a8a6040516024016125ce93929190613a26565b60408051601f198184030181529181526020820180516001600160e01b03166001600160e01b031990941693909317909252905161260c91906136ca565b60006040518083038185875af1925050503d8060008114612649576040519150601f19603f3d011682016040523d82523d6000602084013e61264e565b606091505b5091509150816126615760156000612675565b808060200190518101906126759190613add565b60039190910b999098509650505050505050565b6040516001600160a01b038381166024830152821660448201526000908190819061016790638f8d7f9960e01b906064015b60408051601f198184030181529181526020820180516001600160e01b03166001600160e01b03199094169390931790925290516126f991906136ca565b6000604051808303816000865af19150503d8060008114612736576040519150601f19603f3d011682016040523d82523d6000602084013e61273b565b606091505b50915091508161274c576015612760565b8080602001905181019061276091906136f8565b60030b95945050505050565b60008060006101676001600160a01b0316632e63879b60e01b86866040516024016126bb929190613b09565b60008060006101676001600160a01b0316637d305cfa60e01b86866040516024016126bb929190613b64565b600080848061010001516000015160070b60001480156127ee57506101008101516040015160070b155b15612804576101008101516276a7006040909101525b6000806101676001600160a01b031634630fb65bf360e01b8a8a8a6040516024016125ce93929190613b86565b60008060606000806101676001600160a01b031663e0f4059a60e01b89898960405160240161286293929190613bb5565b60408051601f198184030181529181526020820180516001600160e01b03166001600160e01b03199094169390931790925290516128a091906136ca565b6000604051808303816000865af19150503d80600081146128dd576040519150601f19603f3d011682016040523d82523d6000602084013e6128e2565b606091505b509150915081612905576040805160008082526020820190925260159190612919565b808060200190518101906129199190613c32565b60039290920b9a90995090975095505050505050565b6040516001600160a01b038581166024830152848116604483015283166064820152600782900b60848201526000908190819061016790635cfc901160e01b9060a401610ad5565b6040516001600160a01b038581166024830152848116604483015283166064820152600782900b6084820152600090819081906101679063eca3691760e01b9060a401610ad5565b600080868061010001516000015160070b60001480156129e957506101008101516040015160070b155b156129ff576101008101516276a7006040909101525b6000806101676001600160a01b031634632af0c59a60e01b8c8c8c8c8c604051602401612a30959493929190613cf2565b60408051601f198184030181529181526020820180516001600160e01b03166001600160e01b0319909416939093179092529051612a6e91906136ca565b60006040518083038185875af1925050503d8060008114612aab576040519150601f19603f3d011682016040523d82523d6000602084013e612ab0565b606091505b509150915081612ac35760156000612ad7565b80806020019051810190612ad79190613add565b60039190910b9b909a5098505050505050505050565b600080828061010001516000015160070b6000148015612b1757506101008101516040015160070b155b15612b2d576101008101516276a7006040909101525b6000806101676001600160a01b03163463ea83f29360e01b88604051602401612b569190613dba565b60408051601f198184030181529181526020820180516001600160e01b03166001600160e01b0319909416939093179092529051612b9491906136ca565b60006040518083038185875af1925050503d8060008114612bd1576040519150601f19603f3d011682016040523d82523d6000602084013e612bd6565b606091505b509150915081612be95760156000612bfd565b80806020019051810190612bfd9190613add565b60039190910b97909650945050505050565b6040516001600160a01b03838116602483015282166044820152600090819081906101679063248a35ef60e11b906064016126bb565b6000612c69836006811115612c5c57612c5c613dcd565b600160ff9091161b821790565b9050612c80826006811115612c5c57612c5c613dcd565b9392505050565b612ccd6040518060a0016040528060001515815260200160006001600160a01b03168152602001606081526020016060815260200160006001600160a01b031681525090565b6000836004811115612ce157612ce1613dcd565b1415612cf05760018152610948565b6001836004811115612d0457612d04613dcd565b1415612d20576000546001600160a01b03166020820152610948565b6002836004811115612d3457612d34613dcd565b1415612d465760408101829052610948565b6003836004811115612d5a57612d5a613dcd565b1415612d6c5760608101829052610948565b6004836004811115612d8057612d80613dcd565b1415610948576000546001600160a01b0316608082015292915050565b600060016000836006811115612db557612db5613dcd565b6006811115612dc657612dc6613dcd565b8152602001908152602001600020549050919050565b604051806040016040528060008152602001612e346040518060a0016040528060001515815260200160006001600160a01b03168152602001606081526020016060815260200160006001600160a01b031681525090565b905290565b6001600160a01b0381168114612e4e57600080fd5b50565b8035612e5c81612e39565b919050565b60008060408385031215612e7457600080fd5b8235612e7f81612e39565b91506020830135612e8f81612e39565b809150509250929050565b634e487b7160e01b600052604160045260246000fd5b6040805190810167ffffffffffffffff81118282101715612ed357612ed3612e9a565b60405290565b60405160a0810167ffffffffffffffff81118282101715612ed357612ed3612e9a565b604051610120810167ffffffffffffffff81118282101715612ed357612ed3612e9a565b604051601f8201601f1916810167ffffffffffffffff81118282101715612f4957612f49612e9a565b604052919050565b600067ffffffffffffffff821115612f6b57612f6b612e9a565b5060051b60200190565b60008060408385031215612f8857600080fd5b8235612f9381612e39565b915060208381013567ffffffffffffffff811115612fb057600080fd5b8401601f81018613612fc157600080fd5b8035612fd4612fcf82612f51565b612f20565b81815260059190911b82018301908381019088831115612ff357600080fd5b928401925b8284101561301a57833561300b81612e39565b82529284019290840190612ff8565b80955050505050509250929050565b6000806000806080858703121561303f57600080fd5b843561304a81612e39565b9350602085013561305a81612e39565b9250604085013561306a81612e39565b9396929550929360600135925050565b600082601f83011261308b57600080fd5b813567ffffffffffffffff8111156130a5576130a5612e9a565b6130b8601f8201601f1916602001612f20565b8181528460208386010111156130cd57600080fd5b816020850160208301376000918101602001919091529392505050565b80358015158114612e5c57600080fd5b8060070b8114612e4e57600080fd5b8035612e5c816130fa565b600082601f83011261312557600080fd5b81356020613135612fcf83612f51565b82815260059290921b8401810191818101908684111561315457600080fd5b8286015b8481101561326e57803567ffffffffffffffff8082111561317857600080fd5b908801906040601f19838c03810182131561319257600080fd5b61319a612eb0565b88850135815282850135848111156131b157600080fd5b949094019360a0858e03830112156131c95760008081fd5b6131d1612ed9565b91506131de8986016130ea565b8252828501356131ed81612e39565b828a0152606085810135858111156132055760008081fd5b6132138f8c838a010161307a565b858501525060809350838601358581111561322e5760008081fd5b61323c8f8c838a010161307a565b82850152505060a0850135945061325285612e39565b9181019390935280870192909252508352918301918301613158565b509695505050505050565b60006060828403121561328b57600080fd5b6040516060810181811067ffffffffffffffff821117156132ae576132ae612e9a565b60405290508082356132bf816130fa565b815260208301356132cf81612e39565b602082015260408301356132e2816130fa565b6040919091015292915050565b6000806040838503121561330257600080fd5b823561330d81612e39565b9150602083013567ffffffffffffffff8082111561332a57600080fd5b90840190610160828703121561333f57600080fd5b613347612efc565b82358281111561335657600080fd5b6133628882860161307a565b82525060208301358281111561337757600080fd5b6133838882860161307a565b60208301525061339560408401612e51565b60408201526060830135828111156133ac57600080fd5b6133b88882860161307a565b6060830152506133ca608084016130ea565b60808201526133db60a08401613109565b60a08201526133ec60c084016130ea565b60c082015260e08301358281111561340357600080fd5b61340f88828601613114565b60e083015250610100915061342687838501613279565b828201528093505050509250929050565b60006020828403121561344957600080fd5b8135612c8081612e39565b60008060006060848603121561346957600080fd5b833561347481612e39565b9250602084810135613485816130fa565b9250604085013567ffffffffffffffff808211156134a257600080fd5b818701915087601f8301126134b657600080fd5b81356134c4612fcf82612f51565b81815260059190911b8301840190848101908a8311156134e357600080fd5b8585015b8381101561351b578035858111156134ff5760008081fd5b61350d8d89838a010161307a565b8452509186019186016134e7565b508096505050505050509250925092565b600081518084526020808501945080840160005b8381101561355f57815160070b87529582019590820190600101613540565b509495945050505050565b8381528260070b602082015260606040820152600061358c606083018461352c565b95945050505050565b600080604083850312156135a857600080fd5b82356135b381612e39565b9150602083013567ffffffffffffffff8111156135cf57600080fd5b6135db8582860161307a565b9150509250929050565b6000806000606084860312156135fa57600080fd5b833561360581612e39565b9250602084013567ffffffffffffffff81111561362157600080fd5b61362d8682870161307a565b925050604084013561363e816130fa565b809150509250925092565b634e487b7160e01b600052603260045260246000fd5b600181811c9082168061367357607f821691505b6020821081141561369457634e487b7160e01b600052602260045260246000fd5b50919050565b60005b838110156136b557818101518382015260200161369d565b838111156136c4576000848401525b50505050565b600082516136dc81846020870161369a565b9190910192915050565b8051600381900b8114612e5c57600080fd5b60006020828403121561370a57600080fd5b612c80826136e6565b8260070b815260406020820152600061372f604083018461352c565b949350505050565b6000815180845261374f81602086016020860161369a565b601f01601f19169290920160200192915050565b6001600160a01b038316815260406020820152600061372f6040830184613737565b821515815260406020820152600061372f6040830184613737565b6000602082840312156137b257600080fd5b8151612c8081612e39565b6000602082840312156137cf57600080fd5b5051919050565b6000602082840312156137e857600080fd5b8151612c80816130fa565b600081518084526020808501808196508360051b8101915082860160005b858110156138aa5782840389528151604081518652868201519150808787015281511515818701528682015160606001600160a01b03808316828a015283850151935060a09250608083818b015261386c60e08b0186613737565b928601518a8403603f1901858c01529294506138888584613737565b9501511660c09890980197909752505098850198935090840190600101613811565b5091979650505050505050565b600061016082518185526138cd82860182613737565b915050602083015184820360208601526138e78282613737565b915050604083015161390460408601826001600160a01b03169052565b506060830151848203606086015261391c8282613737565b9150506080830151613932608086018215159052565b5060a083015161394760a086018260070b9052565b5060c083015161395b60c086018215159052565b5060e083015184820360e086015261397382826137f3565b915050610100808401516139af82870182805160070b82526001600160a01b036020820151166020830152604081015160070b60408301525050565b5090949350505050565b600081518084526020808501945080840160005b8381101561355f578151805160070b8852838101516001600160a01b03908116858a01526040808301511515908a01526060808301511515908a0152608091820151169088015260a090960195908201906001016139cd565b60006060808352613a39818401876138b7565b602084820381860152613a4c82886139b9565b91506040858303818701528287518085528385019150838901945060005b81811015613acd5785518051600790810b855286820151810b8786015285820151900b85850152878101516001600160a01b039081168986015260808083015115159086015260a09182015116908401529484019460c090920191600101613a6a565b50909a9950505050505050505050565b60008060408385031215613af057600080fd5b613af9836136e6565b91506020830151612e8f81612e39565b6000604082016001600160a01b0380861684526020604081860152828651808552606087019150828801945060005b81811015613b56578551851683529483019491830191600101613b38565b509098975050505050505050565b6001600160a01b038316815260406020820152600061372f60408301846138b7565b606081526000613b9960608301866138b7565b90508360070b60208301528260030b6040830152949350505050565b6000606082016001600160a01b038616835260208560070b818501526060604085015281855180845260808601915060808160051b870101935082870160005b82811015613c2357607f19888703018452613c11868351613737565b95509284019290840190600101613bf5565b50939998505050505050505050565b600080600060608486031215613c4757600080fd5b613c50846136e6565b9250602080850151613c61816130fa565b604086015190935067ffffffffffffffff811115613c7e57600080fd5b8501601f81018713613c8f57600080fd5b8051613c9d612fcf82612f51565b81815260059190911b82018301908381019089831115613cbc57600080fd5b928401925b82841015613ce3578351613cd4816130fa565b82529284019290840190613cc1565b80955050505050509250925092565b600060a0808352613d05818401896138b7565b6020600789810b8287015260408960030b81880152606087850381890152613d2d858b6139b9565b94506080888603818a0152858a518088528688019150868c01975060005b81811015613da55788518051880b845288810151880b8985015286810151880b8785015285810151880b86850152848101511515858501528a01516001600160a01b03168a8401529787019760c090920191600101613d4b565b50909f9e505050505050505050505050505050565b602081526000612c8060208301846138b7565b634e487b7160e01b600052602160045260246000fdfea2646970667358221220196311793f670785fa973c44975fb7611244a6fd2b8e21918c9f007c67686f0464736f6c63430008090033",
  "linkReferences": {},
  "deployedLinkReferences": {}
}