{
  "_format": "hh-sol-artifact-1",
  "contractName": "TokenCreateContract",
  "sourceName": "contracts/hts-precompile/examples/token-create/TokenCreateContract.sol",
  "abi": [
    {
      "anonymous": false,
      "inputs": [
        {
          "indexed": false,
          "internalType": "address",
          "name": "tokenAddress",
          "type": "address"
        }
      ],
      "name": "CreatedToken",
      "type": "event"
    },
    {
      "anonymous": false,
      "inputs": [
        {
          "indexed": false,
          "internalType": "bool",
          "name": "kycGranted",
          "type": "bool"
        }
      ],
      "name": "KycGranted",
      "type": "event"
    },
    {
      "anonymous": false,
      "inputs": [
        {
          "indexed": false,
          "internalType": "int64",
          "name": "newTotalSupply",
          "type": "int64"
        },
        {
          "indexed": false,
          "internalType": "int64[]",
          "name": "serialNumbers",
          "type": "int64[]"
        }
      ],
      "name": "MintedToken",
      "type": "event"
    },
    {
      "anonymous": false,
      "inputs": [
        {
          "indexed": false,
          "internalType": "int256",
          "name": "responseCode",
          "type": "int256"
        }
      ],
      "name": "ResponseCode",
      "type": "event"
    },
    {
      "inputs": [
        {
          "internalType": "address",
          "name": "account",
          "type": "address"
        },
        {
          "internalType": "address",
          "name": "token",
          "type": "address"
        }
      ],
      "name": "associateTokenPublic",
      "outputs": [
        {
          "internalType": "int256",
          "name": "responseCode",
          "type": "int256"
        }
      ],
      "stateMutability": "nonpayable",
      "type": "function"
    },
    {
      "inputs": [
        {
          "internalType": "address",
          "name": "account",
          "type": "address"
        },
        {
          "internalType": "address[]",
          "name": "tokens",
          "type": "address[]"
        }
      ],
      "name": "associateTokensPublic",
      "outputs": [
        {
          "internalType": "int256",
          "name": "responseCode",
          "type": "int256"
        }
      ],
      "stateMutability": "nonpayable",
      "type": "function"
    },
    {
      "inputs": [
        {
          "internalType": "address",
          "name": "treasury",
          "type": "address"
        }
      ],
      "name": "createFungibleTokenPublic",
      "outputs": [],
      "stateMutability": "payable",
      "type": "function"
    },
    {
      "inputs": [
        {
          "internalType": "address",
          "name": "treasury",
          "type": "address"
        },
        {
          "internalType": "address",
          "name": "fixedFeeTokenAddress",
          "type": "address"
        }
      ],
      "name": "createFungibleTokenWithCustomFeesPublic",
      "outputs": [],
      "stateMutability": "payable",
      "type": "function"
    },
    {
      "inputs": [
        {
          "internalType": "address",
          "name": "treasury",
          "type": "address"
        },
        {
          "internalType": "bytes",
          "name": "adminKey",
          "type": "bytes"
        },
        {
          "internalType": "int64",
          "name": "amount",
          "type": "int64"
        }
      ],
      "name": "createFungibleTokenWithSECP256K1AdminKeyAssociateAndTransferToAddressPublic",
      "outputs": [],
      "stateMutability": "payable",
      "type": "function"
    },
    {
      "inputs": [
        {
          "internalType": "address",
          "name": "treasury",
          "type": "address"
        },
        {
          "internalType": "bytes",
          "name": "adminKey",
          "type": "bytes"
        }
      ],
      "name": "createFungibleTokenWithSECP256K1AdminKeyPublic",
      "outputs": [
        {
          "internalType": "address",
          "name": "",
          "type": "address"
        }
      ],
      "stateMutability": "payable",
      "type": "function"
    },
    {
      "inputs": [
        {
          "internalType": "address",
          "name": "treasury",
          "type": "address"
        },
        {
          "internalType": "bytes",
          "name": "adminKey",
          "type": "bytes"
        }
      ],
      "name": "createFungibleTokenWithSECP256K1AdminKeyWithoutKYCPublic",
      "outputs": [
        {
          "internalType": "address",
          "name": "",
          "type": "address"
        }
      ],
      "stateMutability": "payable",
      "type": "function"
    },
    {
      "inputs": [
        {
          "internalType": "address",
          "name": "treasury",
          "type": "address"
        }
      ],
      "name": "createNonFungibleTokenPublic",
      "outputs": [],
      "stateMutability": "payable",
      "type": "function"
    },
    {
      "inputs": [
        {
          "internalType": "address",
          "name": "treasury",
          "type": "address"
        },
        {
          "internalType": "address",
          "name": "fixedFeeTokenAddress",
          "type": "address"
        }
      ],
      "name": "createNonFungibleTokenWithCustomFeesPublic",
      "outputs": [],
      "stateMutability": "payable",
      "type": "function"
    },
    {
      "inputs": [
        {
          "internalType": "address",
          "name": "treasury",
          "type": "address"
        },
        {
          "internalType": "bytes",
          "name": "adminKey",
          "type": "bytes"
        }
      ],
      "name": "createNonFungibleTokenWithSECP256K1AdminKeyPublic",
      "outputs": [],
      "stateMutability": "payable",
      "type": "function"
    },
    {
      "inputs": [
        {
          "internalType": "address",
          "name": "treasury",
          "type": "address"
        },
        {
          "internalType": "bytes",
          "name": "adminKey",
          "type": "bytes"
        }
      ],
      "name": "createNonFungibleTokenWithSECP256K1AdminKeyWithoutKYCPublic",
      "outputs": [],
      "stateMutability": "payable",
      "type": "function"
    },
    {
      "inputs": [
        {
          "internalType": "address",
          "name": "token",
          "type": "address"
        },
        {
          "internalType": "address",
          "name": "from",
          "type": "address"
        },
        {
          "internalType": "address",
          "name": "to",
          "type": "address"
        },
        {
          "internalType": "uint256",
          "name": "amount",
          "type": "uint256"
        }
      ],
      "name": "delegateTransferFrom",
      "outputs": [
        {
          "internalType": "int64",
          "name": "responseCode",
          "type": "int64"
        }
      ],
      "stateMutability": "nonpayable",
      "type": "function"
    },
    {
      "inputs": [
        {
          "internalType": "address",
          "name": "token",
          "type": "address"
        },
        {
          "internalType": "address",
          "name": "from",
          "type": "address"
        },
        {
          "internalType": "address",
          "name": "to",
          "type": "address"
        },
        {
          "internalType": "uint256",
          "name": "serialNumber",
          "type": "uint256"
        }
      ],
      "name": "delegateTransferFromNFT",
      "outputs": [
        {
          "internalType": "int64",
          "name": "responseCode",
          "type": "int64"
        }
      ],
      "stateMutability": "nonpayable",
      "type": "function"
    },
    {
      "inputs": [
        {
          "internalType": "address",
          "name": "token",
          "type": "address"
        },
        {
          "internalType": "address",
          "name": "account",
          "type": "address"
        }
      ],
      "name": "grantTokenKycPublic",
      "outputs": [
        {
          "internalType": "int64",
          "name": "responseCode",
          "type": "int64"
        }
      ],
      "stateMutability": "nonpayable",
      "type": "function"
    },
    {
      "inputs": [
        {
          "internalType": "address",
          "name": "token",
          "type": "address"
        },
        {
          "internalType": "int64",
          "name": "amount",
          "type": "int64"
        },
        {
          "internalType": "bytes[]",
          "name": "metadata",
          "type": "bytes[]"
        }
      ],
      "name": "mintTokenPublic",
      "outputs": [
        {
          "internalType": "int256",
          "name": "responseCode",
          "type": "int256"
        },
        {
          "internalType": "int64",
          "name": "newTotalSupply",
          "type": "int64"
        },
        {
          "internalType": "int64[]",
          "name": "serialNumbers",
          "type": "int64[]"
        }
      ],
      "stateMutability": "nonpayable",
      "type": "function"
    },
    {
      "inputs": [
        {
          "internalType": "address",
          "name": "token",
          "type": "address"
        },
        {
          "internalType": "int64",
          "name": "amount",
          "type": "int64"
        },
        {
          "internalType": "bytes[]",
          "name": "metadata",
          "type": "bytes[]"
        }
      ],
      "name": "mintTokenToAddressPublic",
      "outputs": [
        {
          "internalType": "int256",
          "name": "responseCode",
          "type": "int256"
        },
        {
          "internalType": "int64",
          "name": "newTotalSupply",
          "type": "int64"
        },
        {
          "internalType": "int64[]",
          "name": "serialNumbers",
          "type": "int64[]"
        }
      ],
      "stateMutability": "nonpayable",
      "type": "function"
    },
    {
      "inputs": [
        {
          "internalType": "address",
          "name": "token",
          "type": "address"
        },
        {
          "internalType": "address",
          "name": "from",
          "type": "address"
        },
        {
          "internalType": "address",
          "name": "to",
          "type": "address"
        },
        {
          "internalType": "uint256",
          "name": "amount",
          "type": "uint256"
        }
      ],
      "name": "transferFrom",
      "outputs": [
        {
          "internalType": "int64",
          "name": "responseCode",
          "type": "int64"
        }
      ],
      "stateMutability": "nonpayable",
      "type": "function"
    },
    {
      "inputs": [
        {
          "internalType": "address",
          "name": "token",
          "type": "address"
        },
        {
          "internalType": "address",
          "name": "from",
          "type": "address"
        },
        {
          "internalType": "address",
          "name": "to",
          "type": "address"
        },
        {
          "internalType": "uint256",
          "name": "serialNumber",
          "type": "uint256"
        }
      ],
      "name": "transferFromNFT",
      "outputs": [
        {
          "internalType": "int64",
          "name": "responseCode",
          "type": "int64"
        }
      ],
      "stateMutability": "nonpayable",
      "type": "function"
    }
  ],
  "bytecode": "0x60c06040526009608081905268746f6b656e4e616d6560b81b60a09081526200002c9160029190620001cc565b5060408051808201909152600b8082526a1d1bdad95b94de5b589bdb60aa1b60209092019182526200006191600391620001cc565b50604080518082019091526004808252636d656d6f60e01b60209092019182526200008d9181620001cc565b50600580546001600160a81b031916700800000000000003e800000000000003e8179055348015620000be57600080fd5b50600160208181527fa6eef7e35abe7026729641147f7915573c7e97b47efa546f5f6e3230263bcb499190915560027fcc69885fda6bcc1a4ace058b4a62bf5e179ea78fd58a1ccd71c22cc9b688792f5560047fd9d16d34ffb15ba3a3d852f0d403e2ce1d691fb54de27ac87cd2f993f3ec330f5560087f7dfe757ecd65cbd7922a9c0161e935dd7fdbcc0e999689c7d31633896b1fc60b5560107fedc95719e9a3b28dd8e80877cb5880a9be7de1a13fc8b05e7999683b6b567643557fe2689cd4a84e23ad2f564004f1c9013e9589d260bde6380aba3ca7e09e4df40c55600660005260407f8f331abe73332f95a25873e8b430885974c0409691f89d643119a11623a7924a55620002af565b828054620001da9062000272565b90600052602060002090601f016020900481019282620001fe576000855562000249565b82601f106200021957805160ff191683800117855562000249565b8280016001018555821562000249579182015b82811115620002495782518255916020019190600101906200022c565b50620002579291506200025b565b5090565b5b808211156200025757600081556001016200025c565b600181811c908216806200028757607f821691505b60208210811415620002a957634e487b7160e01b600052602260045260246000fd5b50919050565b6138a780620002bf6000396000f3fe6080604052600436106101095760003560e01c80638f74a17b11610095578063d85f74c111610064578063d85f74c1146102a2578063de84a779146102b5578063e9f73226146102d5578063eac6f3fe146102e8578063f4a01e5b1461030857600080fd5b80638f74a17b146102315780639b23d3d91461025c578063b35d417a1461027c578063cc265af41461028f57600080fd5b806315dacbea116100dc57806315dacbea146101a95780634b5c6687146101c95780634d1769d6146101dc57806371de37071461020b5780638ba74da01461021e57600080fd5b80630488c9391461010e5780630fd2601e14610123578063118741e71461015b57806311e1fc0714610189575b600080fd5b61012161011c366004612cd5565b610328565b005b34801561012f57600080fd5b5061014361013e366004612cd5565b61089b565b60405160079190910b81526020015b60405180910390f35b34801561016757600080fd5b5061017b610176366004612d79565b6108f8565b604051908152602001610152565b34801561019557600080fd5b506101436101a4366004612e2d565b61094c565b3480156101b557600080fd5b506101436101c4366004612e2d565b610a3e565b6101216101d7366004612e7e565b610afa565b3480156101e857600080fd5b506101fc6101f7366004612f1a565b610f02565b60405161015293929190613030565b61012161021936600461305b565b610fc3565b61012161022c366004612cd5565b611155565b61024461023f3660046130bf565b6115c1565b6040516001600160a01b039091168152602001610152565b34801561026857600080fd5b50610143610277366004612e2d565b611983565b61012161028a3660046130bf565b6119c8565b61012161029d3660046130bf565b611d6e565b6101216102b0366004612e7e565b611e45565b3480156102c157600080fd5b506101fc6102d0366004612f1a565b6121e0565b6102446102e33660046130bf565b61227a565b3480156102f457600080fd5b50610143610303366004612e2d565b612354565b34801561031457600080fd5b5061017b610323366004612cd5565b612399565b60408051600580825260c08201909252600091816020015b610348612c60565b81526020019060019003908161034057905050905061037b600060066000604051806020016040528060008152506123a5565b8160008151811061038e5761038e61310f565b60200260200101819052506103b560016000604051806020016040528060008152506123dc565b816001815181106103c8576103c861310f565b60200260200101819052506103ef60026000604051806020016040528060008152506123dc565b816002815181106104025761040261310f565b602002602001018190525061042960046000604051806020016040528060008152506123dc565b8160038151811061043c5761043c61310f565b602002602001018190525061046360036000604051806020016040528060008152506123dc565b816004815181106104765761047661310f565b602002602001018190525060006040518060600160405280600060070b8152602001856001600160a01b03168152602001627a120060070b81525090506000604051806101200160405280600280546104ce90613125565b80601f01602080910402602001604051908101604052809291908181526020018280546104fa90613125565b80156105475780601f1061051c57610100808354040283529160200191610547565b820191906000526020600020905b81548152906001019060200180831161052a57829003601f168201915b505050505081526020016003805461055e90613125565b80601f016020809104026020016040519081016040528092919081815260200182805461058a90613125565b80156105d75780601f106105ac576101008083540402835291602001916105d7565b820191906000526020600020905b8154815290600101906020018083116105ba57829003601f168201915b50505050508152602001866001600160a01b03168152602001600480546105fd90613125565b80601f016020809104026020016040519081016040528092919081815260200182805461062990613125565b80156106765780601f1061064b57610100808354040283529160200191610676565b820191906000526020600020905b81548152906001019060200180831161065957829003601f168201915b5050509183525050600160208201819052600554600160401b810460070b6040840152600160a01b900460ff16151560608301526080820186905260a090910184905290915060009060405190808252806020026020018201604052801561071857816020015b6040805160a0810182526000808252602080830182905292820181905260608201819052608082015282526000199092019101816106dd5790505b506040805160a081018252600181526001600160a01b038089166020830152600092820183905260608201839052891660808201528251929350918391906107625761076261310f565b6020908102919091010152604080516001808252818301909252600091816020015b6040805160c08101825260008082526020808301829052928201819052606082018190526080820181905260a082015282526000199092019101816107845790505090506040518060c00160405280600460070b8152602001600560070b8152602001600a60070b8152602001876001600160a01b03168152602001600015158152602001886001600160a01b0316815250816000815181106108295761082961310f565b6020026020010181905250600080610842858585612411565b90925090506016821461085457600080fd5b6040516001600160a01b03821681527f7bb17726df1f3adee8aa00ba8e8bc5d6f182af3bbf77604639cb7f008dd3b4ed9060200160405180910390a1505050505050505050565b60006108a78383612539565b604051600782900b81529091507f90a5cf4cffe88b4edbb041cfc7a8a812c48a5ec30b84640fb37690875168e3aa9060200160405180910390a1600781900b6016146108f257600080fd5b92915050565b6000610904838361261c565b90507f90a5cf4cffe88b4edbb041cfc7a8a812c48a5ec30b84640fb37690875168e3aa8160405161093791815260200190565b60405180910390a1601681146108f257600080fd5b6040516001600160a01b038581166024830152848116604483015283166064820152608481018290526000908190819061016790639b23d3d960e01b9060a4015b60408051601f198184030181529181526020820180516001600160e01b03166001600160e01b03199094169390931790925290516109cb9190613190565b600060405180830381855af49150503d8060008114610a06576040519150601f19603f3d011682016040523d82523d6000602084013e610a0b565b606091505b509150915081610a1c576015610a30565b80806020019051810190610a3091906131c3565b60030b979650505050505050565b6040516001600160a01b038581166024830152848116604483015283166064820152608481018290526000908190819061016790630aed65f560e11b9060a4015b60408051601f198184030181529181526020820180516001600160e01b03166001600160e01b0319909416939093179092529051610abd9190613190565b6000604051808303816000865af19150503d8060008114610a06576040519150601f19603f3d011682016040523d82523d6000602084013e610a0b565b60408051600580825260c08201909252600091816020015b610b1a612c60565b815260200190600190039081610b12579050509050610b4d600060066000604051806020016040528060008152506123a5565b81600081518110610b6057610b6061310f565b6020026020010181905250610b8760016000604051806020016040528060008152506123dc565b81600181518110610b9a57610b9a61310f565b6020026020010181905250610bc160026000604051806020016040528060008152506123dc565b81600281518110610bd457610bd461310f565b6020026020010181905250610bfb60036000604051806020016040528060008152506123dc565b81600381518110610c0e57610c0e61310f565b6020026020010181905250610c3560046000604051806020016040528060008152506123dc565b81600481518110610c4857610c4861310f565b602002602001018190525060006040518060600160405280600060070b8152602001846001600160a01b03168152602001627a120060070b8152509050600060405180610120016040528060028054610ca090613125565b80601f0160208091040260200160405190810160405280929190818152602001828054610ccc90613125565b8015610d195780601f10610cee57610100808354040283529160200191610d19565b820191906000526020600020905b815481529060010190602001808311610cfc57829003601f168201915b5050505050815260200160038054610d3090613125565b80601f0160208091040260200160405190810160405280929190818152602001828054610d5c90613125565b8015610da95780601f10610d7e57610100808354040283529160200191610da9565b820191906000526020600020905b815481529060010190602001808311610d8c57829003601f168201915b50505050508152602001856001600160a01b0316815260200160048054610dcf90613125565b80601f0160208091040260200160405190810160405280929190818152602001828054610dfb90613125565b8015610e485780601f10610e1d57610100808354040283529160200191610e48565b820191906000526020600020905b815481529060010190602001808311610e2b57829003601f168201915b505050918352505060016020820152600554600160401b8104600790810b604084015260ff600160a01b830416151560608401526080830187905260a09092018590529192506000918291610eac91859181900b90600160801b900460030b612648565b909250905060168214610ebe57600080fd5b6040516001600160a01b03821681527f7bb17726df1f3adee8aa00ba8e8bc5d6f182af3bbf77604639cb7f008dd3b4ed9060200160405180910390a1505050505050565b6000806060610f128686866126b5565b60405183815292955090935091507f90a5cf4cffe88b4edbb041cfc7a8a812c48a5ec30b84640fb37690875168e3aa9060200160405180910390a160168314610f5a57600080fd5b7ffc6b20023c4bac8ff1c48c1693e0cea5cd3c2163e9c2da41c58f17dd6d9f163d8282604051610f8b9291906131de565b60405180910390a1610fb986303384600081518110610fac57610fac61310f565b60200260200101516127b3565b5093509350939050565b604051638f74a17b60e01b81526000903090638f74a17b903490610fed908890889060040161322e565b6020604051808303818588803b15801561100657600080fd5b505af115801561101a573d6000803e3d6000fd5b50505050506040513d601f19601f8201168201806040525081019061103f9190613250565b60405163f4a01e5b60e01b81523360048201526001600160a01b0382166024820152909150309063f4a01e5b90604401602060405180830381600087803b15801561108957600080fd5b505af115801561109d573d6000803e3d6000fd5b505050506040513d601f19601f820116820180604052508101906110c1919061326d565b506040516307e9300f60e11b81526001600160a01b03821660048201523360248201523090630fd2601e90604401602060405180830381600087803b15801561110957600080fd5b505af115801561111d573d6000803e3d6000fd5b505050506040513d601f19601f820116820180604052508101906111419190613286565b5061114e813033856127fb565b5050505050565b604080516001808252818301909252600091816020015b611174612c60565b81526020019060019003908161116c5790505090506111a66000806000604051806020016040528060008152506123a5565b816000815181106111b9576111b961310f565b602002602001018190525060006040518060600160405280600060070b8152602001856001600160a01b03168152602001627a120060070b815250905060006040518061012001604052806002805461121190613125565b80601f016020809104026020016040519081016040528092919081815260200182805461123d90613125565b801561128a5780601f1061125f5761010080835404028352916020019161128a565b820191906000526020600020905b81548152906001019060200180831161126d57829003601f168201915b50505050508152602001600380546112a190613125565b80601f01602080910402602001604051908101604052809291908181526020018280546112cd90613125565b801561131a5780601f106112ef5761010080835404028352916020019161131a565b820191906000526020600020905b8154815290600101906020018083116112fd57829003601f168201915b50505050508152602001866001600160a01b031681526020016004805461134090613125565b80601f016020809104026020016040519081016040528092919081815260200182805461136c90613125565b80156113b95780601f1061138e576101008083540402835291602001916113b9565b820191906000526020600020905b81548152906001019060200180831161139c57829003601f168201915b5050509183525050600160208201819052600554600160401b900460070b6040808401919091526000606084018190526080840188905260a09093018690528051828152808201909152929350909190816020015b6040805160a08101825260008082526020808301829052928201819052606082018190526080820152825260001990920191018161140e5750506040805160a081018252600181526001600160a01b038881166020830152600092820183905260608201839052891660808201528251929350918391906114915761149161310f565b6020908102919091010152604080516001808252818301909252600091816020015b6040805160c08101825260008082526020808301829052928201819052606082018190526080820181905260a082015282526000199092019101816114b35750506040805160c0810182526004815260056020820152600a91810191909152601e60608201526000608082018190526001600160a01b038a1660a0830152825192935090918391906115475761154761310f565b60209081029190910101526005546000908190611577908690600781900b90600160801b900460030b8787612843565b915091507f90a5cf4cffe88b4edbb041cfc7a8a812c48a5ec30b84640fb37690875168e3aa826040516115ac91815260200190565b60405180910390a16016821461085457600080fd5b60408051600580825260c08201909252600091829190816020015b6115e4612c60565b8152602001906001900390816115dc579050509050611608600060066003866123a5565b8160008151811061161b5761161b61310f565b602002602001018190525061163360016003856123dc565b816001815181106116465761164661310f565b602002602001018190525061165e60026003856123dc565b816002815181106116715761167161310f565b602002602001018190525061168960046003856123dc565b8160038151811061169c5761169c61310f565b60200260200101819052506116b3600380856123dc565b816004815181106116c6576116c661310f565b602002602001018190525060006040518060600160405280600060070b8152602001866001600160a01b03168152602001627a120060070b815250905060006040518061012001604052806002805461171e90613125565b80601f016020809104026020016040519081016040528092919081815260200182805461174a90613125565b80156117975780601f1061176c57610100808354040283529160200191611797565b820191906000526020600020905b81548152906001019060200180831161177a57829003601f168201915b50505050508152602001600380546117ae90613125565b80601f01602080910402602001604051908101604052809291908181526020018280546117da90613125565b80156118275780601f106117fc57610100808354040283529160200191611827565b820191906000526020600020905b81548152906001019060200180831161180a57829003601f168201915b50505050508152602001876001600160a01b031681526020016004805461184d90613125565b80601f016020809104026020016040519081016040528092919081815260200182805461187990613125565b80156118c65780601f1061189b576101008083540402835291602001916118c6565b820191906000526020600020905b8154815290600101906020018083116118a957829003601f168201915b505050918352505060016020820152600554600160401b8104600790810b604084015260ff600160a01b830416151560608401526080830187905260a0909201859052919250600091829161192a91859181900b90600160801b900460030b612648565b90925090506016821461193c57600080fd5b6040516001600160a01b03821681527f7bb17726df1f3adee8aa00ba8e8bc5d6f182af3bbf77604639cb7f008dd3b4ed9060200160405180910390a1979650505050505050565b6040516001600160a01b038581166024830152848116604483015283166064820152608481018290526000908190819061016790639b23d3d960e01b9060a401610a7f565b60408051600580825260c08201909252600091816020015b6119e8612c60565b8152602001906001900390816119e0579050509050611a0c600060066003856123a5565b81600081518110611a1f57611a1f61310f565b6020026020010181905250611a3760016003846123dc565b81600181518110611a4a57611a4a61310f565b6020026020010181905250611a6260026003846123dc565b81600281518110611a7557611a7561310f565b6020026020010181905250611a8d60046003846123dc565b81600381518110611aa057611aa061310f565b6020026020010181905250611ab7600380846123dc565b81600481518110611aca57611aca61310f565b602002602001018190525060006040518060600160405280600060070b8152602001856001600160a01b03168152602001627a120060070b8152509050600060405180610120016040528060028054611b2290613125565b80601f0160208091040260200160405190810160405280929190818152602001828054611b4e90613125565b8015611b9b5780601f10611b7057610100808354040283529160200191611b9b565b820191906000526020600020905b815481529060010190602001808311611b7e57829003601f168201915b5050505050815260200160038054611bb290613125565b80601f0160208091040260200160405190810160405280929190818152602001828054611bde90613125565b8015611c2b5780601f10611c0057610100808354040283529160200191611c2b565b820191906000526020600020905b815481529060010190602001808311611c0e57829003601f168201915b50505050508152602001866001600160a01b0316815260200160048054611c5190613125565b80601f0160208091040260200160405190810160405280929190818152602001828054611c7d90613125565b8015611cca5780601f10611c9f57610100808354040283529160200191611cca565b820191906000526020600020905b815481529060010190602001808311611cad57829003601f168201915b505050918352505060016020820152600554600160401b810460070b6040830152600160a01b900460ff16151560608201526080810185905260a0018390529050600080611d1783612971565b909250905060168214611d2957600080fd5b6040516001600160a01b03821681527f7bb17726df1f3adee8aa00ba8e8bc5d6f182af3bbf77604639cb7f008dd3b4ed9060200160405180910390a150505050505050565b60408051600480825260a08201909252600091816020015b611d8e612c60565b815260200190600190039081611d86579050509050611db2600060066003856123a5565b81600081518110611dc557611dc561310f565b6020026020010181905250611ddd60026003846123dc565b81600181518110611df057611df061310f565b6020026020010181905250611e0860046003846123dc565b81600281518110611e1b57611e1b61310f565b6020026020010181905250611e32600380846123dc565b81600381518110611aca57611aca61310f565b60408051600580825260c08201909252600091816020015b611e65612c60565b815260200190600190039081611e5d579050509050611e98600060066000604051806020016040528060008152506123a5565b81600081518110611eab57611eab61310f565b6020026020010181905250611ed260016000604051806020016040528060008152506123dc565b81600181518110611ee557611ee561310f565b6020026020010181905250611f0c60026000604051806020016040528060008152506123dc565b81600281518110611f1f57611f1f61310f565b6020026020010181905250611f4660046000604051806020016040528060008152506123dc565b81600381518110611f5957611f5961310f565b6020026020010181905250611f8060036000604051806020016040528060008152506123dc565b81600481518110611f9357611f9361310f565b602002602001018190525060006040518060600160405280600060070b8152602001846001600160a01b03168152602001627a120060070b8152509050600060405180610120016040528060028054611feb90613125565b80601f016020809104026020016040519081016040528092919081815260200182805461201790613125565b80156120645780601f1061203957610100808354040283529160200191612064565b820191906000526020600020905b81548152906001019060200180831161204757829003601f168201915b505050505081526020016003805461207b90613125565b80601f01602080910402602001604051908101604052809291908181526020018280546120a790613125565b80156120f45780601f106120c9576101008083540402835291602001916120f4565b820191906000526020600020905b8154815290600101906020018083116120d757829003601f168201915b50505050508152602001856001600160a01b031681526020016004805461211a90613125565b80601f016020809104026020016040519081016040528092919081815260200182805461214690613125565b80156121935780601f1061216857610100808354040283529160200191612193565b820191906000526020600020905b81548152906001019060200180831161217657829003601f168201915b505050918352505060016020820152600554600160401b810460070b6040830152600160a01b900460ff16151560608201526080810185905260a0018390529050600080610eac83612971565b60008060606121f08686866126b5565b60405183815292955090935091507f90a5cf4cffe88b4edbb041cfc7a8a812c48a5ec30b84640fb37690875168e3aa9060200160405180910390a16016831461223857600080fd5b7ffc6b20023c4bac8ff1c48c1693e0cea5cd3c2163e9c2da41c58f17dd6d9f163d82826040516122699291906131de565b60405180910390a193509350939050565b60408051600480825260a08201909252600091829190816020015b61229d612c60565b8152602001906001900390816122955790505090506122c1600060066003866123a5565b816000815181106122d4576122d461310f565b60200260200101819052506122ec60026003856123dc565b816001815181106122ff576122ff61310f565b602002602001018190525061231760046003856123dc565b8160028151811061232a5761232a61310f565b6020026020010181905250612341600380856123dc565b816003815181106116c6576116c661310f565b6040516001600160a01b038581166024830152848116604483015283166064820152608481018290526000908190819061016790630aed65f560e11b9060a40161098d565b60006109048383612a93565b6123ad612c60565b60405180604001604052806123c28787612ac9565b81526020016123d18585612b0b565b905295945050505050565b6123e4612c60565b60405180604001604052806123f886612c21565b81526020016124078585612b0b565b9052949350505050565b600080848061010001516000015160070b600014801561243b57506101008101516040015160070b155b15612451576101008101516276a7006040909101525b6000806101676001600160a01b03163463abb54eb560e01b8a8a8a60405160240161247e939291906134d6565b60408051601f198184030181529181526020820180516001600160e01b03166001600160e01b03199094169390931790925290516124bc9190613190565b60006040518083038185875af1925050503d80600081146124f9576040519150601f19603f3d011682016040523d82523d6000602084013e6124fe565b606091505b5091509150816125115760156000612525565b80806020019051810190612525919061358d565b60039190910b999098509650505050505050565b6040516001600160a01b038381166024830152821660448201526000908190819061016790638f8d7f9960e01b906064015b60408051601f198184030181529181526020820180516001600160e01b03166001600160e01b03199094169390931790925290516125a99190613190565b6000604051808303816000865af19150503d80600081146125e6576040519150601f19603f3d011682016040523d82523d6000602084013e6125eb565b606091505b5091509150816125fc576015612610565b8080602001905181019061261091906131c3565b60030b95945050505050565b60008060006101676001600160a01b0316632e63879b60e01b868660405160240161256b9291906135b9565b600080848061010001516000015160070b600014801561267257506101008101516040015160070b155b15612688576101008101516276a7006040909101525b6000806101676001600160a01b031634630fb65bf360e01b8a8a8a60405160240161247e93929190613614565b60008060606000806101676001600160a01b031663e0f4059a60e01b8989896040516024016126e693929190613643565b60408051601f198184030181529181526020820180516001600160e01b03166001600160e01b03199094169390931790925290516127249190613190565b6000604051808303816000865af19150503d8060008114612761576040519150601f19603f3d011682016040523d82523d6000602084013e612766565b606091505b50915091508161278957604080516000808252602082019092526015919061279d565b8080602001905181019061279d91906136c0565b60039290920b9a90995090975095505050505050565b6040516001600160a01b038581166024830152848116604483015283166064820152600782900b60848201526000908190819061016790635cfc901160e01b9060a401610a7f565b6040516001600160a01b038581166024830152848116604483015283166064820152600782900b6084820152600090819081906101679063eca3691760e01b9060a401610a7f565b600080868061010001516000015160070b600014801561286d57506101008101516040015160070b155b15612883576101008101516276a7006040909101525b6000806101676001600160a01b031634632af0c59a60e01b8c8c8c8c8c6040516024016128b4959493929190613780565b60408051601f198184030181529181526020820180516001600160e01b03166001600160e01b03199094169390931790925290516128f29190613190565b60006040518083038185875af1925050503d806000811461292f576040519150601f19603f3d011682016040523d82523d6000602084013e612934565b606091505b509150915081612947576015600061295b565b8080602001905181019061295b919061358d565b60039190910b9b909a5098505050505050505050565b600080828061010001516000015160070b600014801561299b57506101008101516040015160070b155b156129b1576101008101516276a7006040909101525b6000806101676001600160a01b03163463ea83f29360e01b886040516024016129da9190613848565b60408051601f198184030181529181526020820180516001600160e01b03166001600160e01b0319909416939093179092529051612a189190613190565b60006040518083038185875af1925050503d8060008114612a55576040519150601f19603f3d011682016040523d82523d6000602084013e612a5a565b606091505b509150915081612a6d5760156000612a81565b80806020019051810190612a81919061358d565b60039190910b97909650945050505050565b6040516001600160a01b03838116602483015282166044820152600090819081906101679063248a35ef60e11b9060640161256b565b6000612aed836006811115612ae057612ae061385b565b600160ff9091161b821790565b9050612b04826006811115612ae057612ae061385b565b9392505050565b612b516040518060a0016040528060001515815260200160006001600160a01b03168152602001606081526020016060815260200160006001600160a01b031681525090565b6000836004811115612b6557612b6561385b565b1415612b7457600181526108f2565b6001836004811115612b8857612b8861385b565b1415612ba4576000546001600160a01b031660208201526108f2565b6002836004811115612bb857612bb861385b565b1415612bca57604081018290526108f2565b6003836004811115612bde57612bde61385b565b1415612bf057606081018290526108f2565b6004836004811115612c0457612c0461385b565b14156108f2576000546001600160a01b0316608082015292915050565b600060016000836006811115612c3957612c3961385b565b6006811115612c4a57612c4a61385b565b8152602001908152602001600020549050919050565b604051806040016040528060008152602001612cb86040518060a0016040528060001515815260200160006001600160a01b03168152602001606081526020016060815260200160006001600160a01b031681525090565b905290565b6001600160a01b0381168114612cd257600080fd5b50565b60008060408385031215612ce857600080fd5b8235612cf381612cbd565b91506020830135612d0381612cbd565b809150509250929050565b634e487b7160e01b600052604160045260246000fd5b604051601f8201601f1916810167ffffffffffffffff81118282101715612d4d57612d4d612d0e565b604052919050565b600067ffffffffffffffff821115612d6f57612d6f612d0e565b5060051b60200190565b60008060408385031215612d8c57600080fd5b8235612d9781612cbd565b915060208381013567ffffffffffffffff811115612db457600080fd5b8401601f81018613612dc557600080fd5b8035612dd8612dd382612d55565b612d24565b81815260059190911b82018301908381019088831115612df757600080fd5b928401925b82841015612e1e578335612e0f81612cbd565b82529284019290840190612dfc565b80955050505050509250929050565b60008060008060808587031215612e4357600080fd5b8435612e4e81612cbd565b93506020850135612e5e81612cbd565b92506040850135612e6e81612cbd565b9396929550929360600135925050565b600060208284031215612e9057600080fd5b8135612b0481612cbd565b8060070b8114612cd257600080fd5b600082601f830112612ebb57600080fd5b813567ffffffffffffffff811115612ed557612ed5612d0e565b612ee8601f8201601f1916602001612d24565b818152846020838601011115612efd57600080fd5b816020850160208301376000918101602001919091529392505050565b600080600060608486031215612f2f57600080fd5b8335612f3a81612cbd565b9250602084810135612f4b81612e9b565b9250604085013567ffffffffffffffff80821115612f6857600080fd5b818701915087601f830112612f7c57600080fd5b8135612f8a612dd382612d55565b81815260059190911b8301840190848101908a831115612fa957600080fd5b8585015b83811015612fe157803585811115612fc55760008081fd5b612fd38d89838a0101612eaa565b845250918601918601612fad565b508096505050505050509250925092565b600081518084526020808501945080840160005b8381101561302557815160070b87529582019590820190600101613006565b509495945050505050565b8381528260070b60208201526060604082015260006130526060830184612ff2565b95945050505050565b60008060006060848603121561307057600080fd5b833561307b81612cbd565b9250602084013567ffffffffffffffff81111561309757600080fd5b6130a386828701612eaa565b92505060408401356130b481612e9b565b809150509250925092565b600080604083850312156130d257600080fd5b82356130dd81612cbd565b9150602083013567ffffffffffffffff8111156130f957600080fd5b61310585828601612eaa565b9150509250929050565b634e487b7160e01b600052603260045260246000fd5b600181811c9082168061313957607f821691505b6020821081141561315a57634e487b7160e01b600052602260045260246000fd5b50919050565b60005b8381101561317b578181015183820152602001613163565b8381111561318a576000848401525b50505050565b600082516131a2818460208701613160565b9190910192915050565b8051600381900b81146131be57600080fd5b919050565b6000602082840312156131d557600080fd5b612b04826131ac565b8260070b81526040602082015260006131fa6040830184612ff2565b949350505050565b6000815180845261321a816020860160208601613160565b601f01601f19169290920160200192915050565b6001600160a01b03831681526040602082015260006131fa6040830184613202565b60006020828403121561326257600080fd5b8151612b0481612cbd565b60006020828403121561327f57600080fd5b5051919050565b60006020828403121561329857600080fd5b8151612b0481612e9b565b600081518084526020808501808196508360051b8101915082860160005b8581101561335a5782840389528151604081518652868201519150808787015281511515818701528682015160606001600160a01b03808316828a015283850151935060a09250608083818b015261331c60e08b0186613202565b928601518a8403603f1901858c01529294506133388584613202565b9501511660c098909801979097525050988501989350908401906001016132c1565b5091979650505050505050565b6000610160825181855261337d82860182613202565b915050602083015184820360208601526133978282613202565b91505060408301516133b460408601826001600160a01b03169052565b50606083015184820360608601526133cc8282613202565b91505060808301516133e2608086018215159052565b5060a08301516133f760a086018260070b9052565b5060c083015161340b60c086018215159052565b5060e083015184820360e086015261342382826132a3565b9150506101008084015161345f82870182805160070b82526001600160a01b036020820151166020830152604081015160070b60408301525050565b5090949350505050565b600081518084526020808501945080840160005b83811015613025578151805160070b8852838101516001600160a01b03908116858a01526040808301511515908a01526060808301511515908a0152608091820151169088015260a0909601959082019060010161347d565b600060608083526134e981840187613367565b6020848203818601526134fc8288613469565b91506040858303818701528287518085528385019150838901945060005b8181101561357d5785518051600790810b855286820151810b8786015285820151900b85850152878101516001600160a01b039081168986015260808083015115159086015260a09182015116908401529484019460c09092019160010161351a565b50909a9950505050505050505050565b600080604083850312156135a057600080fd5b6135a9836131ac565b91506020830151612d0381612cbd565b6000604082016001600160a01b0380861684526020604081860152828651808552606087019150828801945060005b818110156136065785518516835294830194918301916001016135e8565b509098975050505050505050565b6060815260006136276060830186613367565b90508360070b60208301528260030b6040830152949350505050565b6000606082016001600160a01b038616835260208560070b818501526060604085015281855180845260808601915060808160051b870101935082870160005b828110156136b157607f1988870301845261369f868351613202565b95509284019290840190600101613683565b50939998505050505050505050565b6000806000606084860312156136d557600080fd5b6136de846131ac565b92506020808501516136ef81612e9b565b604086015190935067ffffffffffffffff81111561370c57600080fd5b8501601f8101871361371d57600080fd5b805161372b612dd382612d55565b81815260059190911b8201830190838101908983111561374a57600080fd5b928401925b8284101561377157835161376281612e9b565b8252928401929084019061374f565b80955050505050509250925092565b600060a080835261379381840189613367565b6020600789810b8287015260408960030b818801526060878503818901526137bb858b613469565b94506080888603818a0152858a518088528688019150868c01975060005b818110156138335788518051880b845288810151880b8985015286810151880b8785015285810151880b86850152848101511515858501528a01516001600160a01b03168a8401529787019760c0909201916001016137d9565b50909f9e505050505050505050505050505050565b602081526000612b046020830184613367565b634e487b7160e01b600052602160045260246000fdfea2646970667358221220ca9018b98a3a180798917baf27a23518c68b5c77d5b45c39517bd91477684b6d64736f6c63430008090033",
  "linkReferences": {},
  "deployedLinkReferences": {}
}