{
  "_format": "hh-sol-artifact-1",
  "contractName": "TokenCreateContract",
  "sourceName": "contracts/hts-precompile/examples/token-create/TokenCreateContract.sol",
  "abi": [
    {
      "anonymous": false,
      "inputs": [
        {
          "indexed": false,
          "internalType": "address",
          "name": "tokenAddress",
          "type": "address"
        }
      ],
      "name": "CreatedToken",
      "type": "event"
    },
    {
      "anonymous": false,
      "inputs": [
        {
          "indexed": false,
          "internalType": "bool",
          "name": "kycGranted",
          "type": "bool"
        }
      ],
      "name": "KycGranted",
      "type": "event"
    },
    {
      "anonymous": false,
      "inputs": [
        {
          "indexed": false,
          "internalType": "uint64",
          "name": "newTotalSupply",
          "type": "uint64"
        },
        {
          "indexed": false,
          "internalType": "int64[]",
          "name": "serialNumbers",
          "type": "int64[]"
        }
      ],
      "name": "MintedToken",
      "type": "event"
    },
    {
      "anonymous": false,
      "inputs": [
        {
          "indexed": false,
          "internalType": "int256",
          "name": "responseCode",
          "type": "int256"
        }
      ],
      "name": "ResponseCode",
      "type": "event"
    },
    {
      "inputs": [
        {
          "internalType": "address",
          "name": "account",
          "type": "address"
        },
        {
          "internalType": "address",
          "name": "token",
          "type": "address"
        }
      ],
      "name": "associateTokenPublic",
      "outputs": [
        {
          "internalType": "int256",
          "name": "responseCode",
          "type": "int256"
        }
      ],
      "stateMutability": "nonpayable",
      "type": "function"
    },
    {
      "inputs": [
        {
          "internalType": "address",
          "name": "account",
          "type": "address"
        },
        {
          "internalType": "address[]",
          "name": "tokens",
          "type": "address[]"
        }
      ],
      "name": "associateTokensPublic",
      "outputs": [
        {
          "internalType": "int256",
          "name": "responseCode",
          "type": "int256"
        }
      ],
      "stateMutability": "nonpayable",
      "type": "function"
    },
    {
      "inputs": [
        {
          "internalType": "address",
          "name": "treasury",
          "type": "address"
        }
      ],
      "name": "createFungibleTokenPublic",
      "outputs": [],
      "stateMutability": "payable",
      "type": "function"
    },
    {
      "inputs": [
        {
          "internalType": "address",
          "name": "treasury",
          "type": "address"
        },
        {
          "internalType": "address",
          "name": "fixedFeeTokenAddress",
          "type": "address"
        }
      ],
      "name": "createFungibleTokenWithCustomFeesPublic",
      "outputs": [],
      "stateMutability": "payable",
      "type": "function"
    },
    {
      "inputs": [
        {
          "internalType": "address",
          "name": "treasury",
          "type": "address"
        }
      ],
      "name": "createNonFungibleTokenPublic",
      "outputs": [],
      "stateMutability": "payable",
      "type": "function"
    },
    {
      "inputs": [
        {
          "internalType": "address",
          "name": "treasury",
          "type": "address"
        },
        {
          "internalType": "address",
          "name": "fixedFeeTokenAddress",
          "type": "address"
        }
      ],
      "name": "createNonFungibleTokenWithCustomFeesPublic",
      "outputs": [],
      "stateMutability": "payable",
      "type": "function"
    },
    {
      "inputs": [
        {
          "internalType": "address",
          "name": "token",
          "type": "address"
        },
        {
          "internalType": "address",
          "name": "from",
          "type": "address"
        },
        {
          "internalType": "address",
          "name": "to",
          "type": "address"
        },
        {
          "internalType": "uint256",
          "name": "amount",
          "type": "uint256"
        }
      ],
      "name": "delegateTransferFrom",
      "outputs": [
        {
          "internalType": "int64",
          "name": "responseCode",
          "type": "int64"
        }
      ],
      "stateMutability": "nonpayable",
      "type": "function"
    },
    {
      "inputs": [
        {
          "internalType": "address",
          "name": "token",
          "type": "address"
        },
        {
          "internalType": "address",
          "name": "from",
          "type": "address"
        },
        {
          "internalType": "address",
          "name": "to",
          "type": "address"
        },
        {
          "internalType": "uint256",
          "name": "serialNumber",
          "type": "uint256"
        }
      ],
      "name": "delegateTransferFromNFT",
      "outputs": [
        {
          "internalType": "int64",
          "name": "responseCode",
          "type": "int64"
        }
      ],
      "stateMutability": "nonpayable",
      "type": "function"
    },
    {
      "inputs": [
        {
          "internalType": "address",
          "name": "token",
          "type": "address"
        },
        {
          "internalType": "address",
          "name": "account",
          "type": "address"
        }
      ],
      "name": "grantTokenKycPublic",
      "outputs": [
        {
          "internalType": "int64",
          "name": "responseCode",
          "type": "int64"
        }
      ],
      "stateMutability": "nonpayable",
      "type": "function"
    },
    {
      "inputs": [
        {
          "internalType": "address",
          "name": "token",
          "type": "address"
        },
        {
          "internalType": "uint64",
          "name": "amount",
          "type": "uint64"
        },
        {
          "internalType": "bytes[]",
          "name": "metadata",
          "type": "bytes[]"
        }
      ],
      "name": "mintTokenPublic",
      "outputs": [
        {
          "internalType": "int256",
          "name": "responseCode",
          "type": "int256"
        },
        {
          "internalType": "uint64",
          "name": "newTotalSupply",
          "type": "uint64"
        },
        {
          "internalType": "int64[]",
          "name": "serialNumbers",
          "type": "int64[]"
        }
      ],
      "stateMutability": "nonpayable",
      "type": "function"
    },
    {
      "inputs": [
        {
          "internalType": "address",
          "name": "token",
          "type": "address"
        },
        {
          "internalType": "address",
          "name": "from",
          "type": "address"
        },
        {
          "internalType": "address",
          "name": "to",
          "type": "address"
        },
        {
          "internalType": "uint256",
          "name": "amount",
          "type": "uint256"
        }
      ],
      "name": "transferFrom",
      "outputs": [
        {
          "internalType": "int64",
          "name": "responseCode",
          "type": "int64"
        }
      ],
      "stateMutability": "nonpayable",
      "type": "function"
    },
    {
      "inputs": [
        {
          "internalType": "address",
          "name": "token",
          "type": "address"
        },
        {
          "internalType": "address",
          "name": "from",
          "type": "address"
        },
        {
          "internalType": "address",
          "name": "to",
          "type": "address"
        },
        {
          "internalType": "uint256",
          "name": "serialNumber",
          "type": "uint256"
        }
      ],
      "name": "transferFromNFT",
      "outputs": [
        {
          "internalType": "int64",
          "name": "responseCode",
          "type": "int64"
        }
      ],
      "stateMutability": "nonpayable",
      "type": "function"
    }
  ],
  "bytecode": "0x60c06040526009608081905268746f6b656e4e616d6560b81b60a09081526200002c9160029190620001cc565b5060408051808201909152600b8082526a1d1bdad95b94de5b589bdb60aa1b60209092019182526200006191600391620001cc565b50604080518082019091526004808252636d656d6f60e01b60209092019182526200008d9181620001cc565b50600580546001600160a81b031916700800000000000003e800000000000003e8179055348015620000be57600080fd5b50600160208181527fa6eef7e35abe7026729641147f7915573c7e97b47efa546f5f6e3230263bcb499190915560027fcc69885fda6bcc1a4ace058b4a62bf5e179ea78fd58a1ccd71c22cc9b688792f5560047fd9d16d34ffb15ba3a3d852f0d403e2ce1d691fb54de27ac87cd2f993f3ec330f5560087f7dfe757ecd65cbd7922a9c0161e935dd7fdbcc0e999689c7d31633896b1fc60b5560107fedc95719e9a3b28dd8e80877cb5880a9be7de1a13fc8b05e7999683b6b567643557fe2689cd4a84e23ad2f564004f1c9013e9589d260bde6380aba3ca7e09e4df40c55600660005260407f8f331abe73332f95a25873e8b430885974c0409691f89d643119a11623a7924a55620002af565b828054620001da9062000272565b90600052602060002090601f016020900481019282620001fe576000855562000249565b82601f106200021957805160ff191683800117855562000249565b8280016001018555821562000249579182015b82811115620002495782518255916020019190600101906200022c565b50620002579291506200025b565b5090565b5b808211156200025757600081556001016200025c565b600181811c908216806200028757607f821691505b60208210811415620002a957634e487b7160e01b600052602260045260246000fd5b50919050565b612b1280620002bf6000396000f3fe6080604052600436106100c75760003560e01c80638070905f11610074578063d85f74c11161004e578063d85f74c1146101fc578063eac6f3fe1461020f578063f4a01e5b1461022f57600080fd5b80638070905f1461019a5780638ba74da0146101c95780639b23d3d9146101dc57600080fd5b806311e1fc07116100a557806311e1fc071461014757806315dacbea146101675780634b5c66871461018757600080fd5b80630488c939146100cc5780630fd2601e146100e1578063118741e714610119575b600080fd5b6100df6100da36600461204b565b61024f565b005b3480156100ed57600080fd5b506101016100fc36600461204b565b6107d1565b60405160079190910b81526020015b60405180910390f35b34801561012557600080fd5b506101396101343660046120ef565b61082e565b604051908152602001610110565b34801561015357600080fd5b506101016101623660046121a3565b610882565b34801561017357600080fd5b506101016101823660046121a3565b610974565b6100df6101953660046121f4565b610a30565b3480156101a657600080fd5b506101ba6101b5366004612227565b610e47565b60405161011093929190612391565b6100df6101d736600461204b565b610ee1565b3480156101e857600080fd5b506101016101f73660046121a3565b61135c565b6100df61020a3660046121f4565b6113a1565b34801561021b57600080fd5b5061010161022a3660046121a3565b611742565b34801561023b57600080fd5b5061013961024a36600461204b565b611787565b60408051600580825260c08201909252600091816020015b61026f611fd6565b8152602001906001900390816102675790505090506102a260006006600060405180602001604052806000815250611793565b816000815181106102b5576102b56123c3565b60200260200101819052506102dc60016000604051806020016040528060008152506117ca565b816001815181106102ef576102ef6123c3565b602002602001018190525061031660026000604051806020016040528060008152506117ca565b81600281518110610329576103296123c3565b602002602001018190525061035060046000604051806020016040528060008152506117ca565b81600381518110610363576103636123c3565b602002602001018190525061038a60036000604051806020016040528060008152506117ca565b8160048151811061039d5761039d6123c3565b602002602001018190525060006040518060600160405280600063ffffffff168152602001856001600160a01b03168152602001627a120063ffffffff1681525090506000604051806101200160405280600280546103fb906123d9565b80601f0160208091040260200160405190810160405280929190818152602001828054610427906123d9565b80156104745780601f1061044957610100808354040283529160200191610474565b820191906000526020600020905b81548152906001019060200180831161045757829003601f168201915b505050505081526020016003805461048b906123d9565b80601f01602080910402602001604051908101604052809291908181526020018280546104b7906123d9565b80156105045780601f106104d957610100808354040283529160200191610504565b820191906000526020600020905b8154815290600101906020018083116104e757829003601f168201915b50505050508152602001866001600160a01b031681526020016004805461052a906123d9565b80601f0160208091040260200160405190810160405280929190818152602001828054610556906123d9565b80156105a35780601f10610578576101008083540402835291602001916105a3565b820191906000526020600020905b81548152906001019060200180831161058657829003601f168201915b5050509183525050600160208201819052600554600160401b810460070b6040840152600160a01b900460ff16151560608301526080820186905260a090910184905290915060009060405190808252806020026020018201604052801561064557816020015b6040805160a08101825260008082526020808301829052928201819052606082018190526080820152825260001990920191018161060a5790505b506040805160a081018252600181526001600160a01b0380891660208301526000928201839052606082018390528916608082015282519293509183919061068f5761068f6123c3565b6020908102919091010152604080516001808252818301909252600091816020015b6040805160c08101825260008082526020808301829052928201819052606082018190526080820181905260a082015282526000199092019101816106b15790505090506040518060c00160405280600463ffffffff168152602001600563ffffffff168152602001600a63ffffffff168152602001876001600160a01b03168152602001600015158152602001886001600160a01b03168152508160008151811061075f5761075f6123c3565b60200260200101819052506000806107788585856117ff565b90925090506016821461078a57600080fd5b6040516001600160a01b03821681527f7bb17726df1f3adee8aa00ba8e8bc5d6f182af3bbf77604639cb7f008dd3b4ed9060200160405180910390a1505050505050505050565b60006107dd838361192d565b604051600782900b81529091507f90a5cf4cffe88b4edbb041cfc7a8a812c48a5ec30b84640fb37690875168e3aa9060200160405180910390a1600781900b60161461082857600080fd5b92915050565b600061083a8383611a10565b90507f90a5cf4cffe88b4edbb041cfc7a8a812c48a5ec30b84640fb37690875168e3aa8160405161086d91815260200190565b60405180910390a16016811461082857600080fd5b6040516001600160a01b038581166024830152848116604483015283166064820152608481018290526000908190819061016790639b23d3d960e01b9060a4015b60408051601f198184030181529181526020820180516001600160e01b03166001600160e01b03199094169390931790925290516109019190612444565b600060405180830381855af49150503d806000811461093c576040519150601f19603f3d011682016040523d82523d6000602084013e610941565b606091505b509150915081610952576015610966565b808060200190518101906109669190612477565b60030b979650505050505050565b6040516001600160a01b038581166024830152848116604483015283166064820152608481018290526000908190819061016790630aed65f560e11b9060a4015b60408051601f198184030181529181526020820180516001600160e01b03166001600160e01b03199094169390931790925290516109f39190612444565b6000604051808303816000865af19150503d806000811461093c576040519150601f19603f3d011682016040523d82523d6000602084013e610941565b60408051600580825260c08201909252600091816020015b610a50611fd6565b815260200190600190039081610a48579050509050610a8360006006600060405180602001604052806000815250611793565b81600081518110610a9657610a966123c3565b6020026020010181905250610abd60016000604051806020016040528060008152506117ca565b81600181518110610ad057610ad06123c3565b6020026020010181905250610af760026000604051806020016040528060008152506117ca565b81600281518110610b0a57610b0a6123c3565b6020026020010181905250610b3160036000604051806020016040528060008152506117ca565b81600381518110610b4457610b446123c3565b6020026020010181905250610b6b60046000604051806020016040528060008152506117ca565b81600481518110610b7e57610b7e6123c3565b602002602001018190525060006040518060600160405280600063ffffffff168152602001846001600160a01b03168152602001627a120063ffffffff168152509050600060405180610120016040528060028054610bdc906123d9565b80601f0160208091040260200160405190810160405280929190818152602001828054610c08906123d9565b8015610c555780601f10610c2a57610100808354040283529160200191610c55565b820191906000526020600020905b815481529060010190602001808311610c3857829003601f168201915b5050505050815260200160038054610c6c906123d9565b80601f0160208091040260200160405190810160405280929190818152602001828054610c98906123d9565b8015610ce55780601f10610cba57610100808354040283529160200191610ce5565b820191906000526020600020905b815481529060010190602001808311610cc857829003601f168201915b50505050508152602001856001600160a01b0316815260200160048054610d0b906123d9565b80601f0160208091040260200160405190810160405280929190818152602001828054610d37906123d9565b8015610d845780601f10610d5957610100808354040283529160200191610d84565b820191906000526020600020905b815481529060010190602001808311610d6757829003601f168201915b505050918352505060016020820152600554600160401b810460070b6040830152600160a01b810460ff16151560608301526080820186905260a09091018490529091506000908190610df190849067ffffffffffffffff811690600160801b900463ffffffff16611a3c565b909250905060168214610e0357600080fd5b6040516001600160a01b03821681527f7bb17726df1f3adee8aa00ba8e8bc5d6f182af3bbf77604639cb7f008dd3b4ed9060200160405180910390a1505050505050565b6000806060610e57868686611aaf565b60405183815292955090935091507f90a5cf4cffe88b4edbb041cfc7a8a812c48a5ec30b84640fb37690875168e3aa9060200160405180910390a160168314610e9f57600080fd5b7feff23992f47b3c101679f8b4dc9d3e242c903909dba4a453f2b2341ad463b0e28282604051610ed0929190612492565b60405180910390a193509350939050565b604080516001808252818301909252600091816020015b610f00611fd6565b815260200190600190039081610ef8579050509050610f32600080600060405180602001604052806000815250611793565b81600081518110610f4557610f456123c3565b602002602001018190525060006040518060600160405280600063ffffffff168152602001856001600160a01b03168152602001627a120063ffffffff168152509050600060405180610120016040528060028054610fa3906123d9565b80601f0160208091040260200160405190810160405280929190818152602001828054610fcf906123d9565b801561101c5780601f10610ff15761010080835404028352916020019161101c565b820191906000526020600020905b815481529060010190602001808311610fff57829003601f168201915b5050505050815260200160038054611033906123d9565b80601f016020809104026020016040519081016040528092919081815260200182805461105f906123d9565b80156110ac5780601f10611081576101008083540402835291602001916110ac565b820191906000526020600020905b81548152906001019060200180831161108f57829003601f168201915b50505050508152602001866001600160a01b03168152602001600480546110d2906123d9565b80601f01602080910402602001604051908101604052809291908181526020018280546110fe906123d9565b801561114b5780601f106111205761010080835404028352916020019161114b565b820191906000526020600020905b81548152906001019060200180831161112e57829003601f168201915b5050509183525050600160208201819052600554600160401b900460070b6040808401919091526000606084018190526080840188905260a09093018690528051828152808201909152929350909190816020015b6040805160a0810182526000808252602080830182905292820181905260608201819052608082015282526000199092019101816111a05750506040805160a081018252600181526001600160a01b03888116602083015260009282018390526060820183905289166080820152825192935091839190611223576112236123c3565b6020908102919091010152604080516001808252818301909252600091816020015b6040805160c08101825260008082526020808301829052928201819052606082018190526080820181905260a082015282526000199092019101816112455750506040805160c0810182526004815260056020820152600a91810191909152601e60608201526000608082018190526001600160a01b038a1660a0830152825192935090918391906112d9576112d96123c3565b6020908102919091010152600554600090819061131290869067ffffffffffffffff811690600160801b900463ffffffff168787611bad565b915091507f90a5cf4cffe88b4edbb041cfc7a8a812c48a5ec30b84640fb37690875168e3aa8260405161134791815260200190565b60405180910390a16016821461078a57600080fd5b6040516001600160a01b038581166024830152848116604483015283166064820152608481018290526000908190819061016790639b23d3d960e01b9060a4016109b5565b60408051600580825260c08201909252600091816020015b6113c1611fd6565b8152602001906001900390816113b95790505090506113f460006006600060405180602001604052806000815250611793565b81600081518110611407576114076123c3565b602002602001018190525061142e60016000604051806020016040528060008152506117ca565b81600181518110611441576114416123c3565b602002602001018190525061146860026000604051806020016040528060008152506117ca565b8160028151811061147b5761147b6123c3565b60200260200101819052506114a260046000604051806020016040528060008152506117ca565b816003815181106114b5576114b56123c3565b60200260200101819052506114dc60036000604051806020016040528060008152506117ca565b816004815181106114ef576114ef6123c3565b602002602001018190525060006040518060600160405280600063ffffffff168152602001846001600160a01b03168152602001627a120063ffffffff16815250905060006040518061012001604052806002805461154d906123d9565b80601f0160208091040260200160405190810160405280929190818152602001828054611579906123d9565b80156115c65780601f1061159b576101008083540402835291602001916115c6565b820191906000526020600020905b8154815290600101906020018083116115a957829003601f168201915b50505050508152602001600380546115dd906123d9565b80601f0160208091040260200160405190810160405280929190818152602001828054611609906123d9565b80156116565780601f1061162b57610100808354040283529160200191611656565b820191906000526020600020905b81548152906001019060200180831161163957829003601f168201915b50505050508152602001856001600160a01b031681526020016004805461167c906123d9565b80601f01602080910402602001604051908101604052809291908181526020018280546116a8906123d9565b80156116f55780601f106116ca576101008083540402835291602001916116f5565b820191906000526020600020905b8154815290600101906020018083116116d857829003601f168201915b505050918352505060016020820152600554600160401b810460070b6040830152600160a01b900460ff16151560608201526080810185905260a0018390529050600080610df183611ce1565b6040516001600160a01b038581166024830152848116604483015283166064820152608481018290526000908190819061016790630aed65f560e11b9060a4016108c3565b600061083a8383611e09565b61179b611fd6565b60405180604001604052806117b08787611e3f565b81526020016117bf8585611e81565b905295945050505050565b6117d2611fd6565b60405180604001604052806117e686611f97565b81526020016117f58585611e81565b9052949350505050565b600080848061010001516000015163ffffffff16600014801561182f57506101008101516040015163ffffffff16155b15611845576101008101516276a7006040909101525b6000806101676001600160a01b031634634573396960e01b8a8a8a6040516024016118729392919061271d565b60408051601f198184030181529181526020820180516001600160e01b03166001600160e01b03199094169390931790925290516118b09190612444565b60006040518083038185875af1925050503d80600081146118ed576040519150601f19603f3d011682016040523d82523d6000602084013e6118f2565b606091505b5091509150816119055760156000611919565b8080602001905181019061191991906127d6565b60039190910b999098509650505050505050565b6040516001600160a01b038381166024830152821660448201526000908190819061016790638f8d7f9960e01b906064015b60408051601f198184030181529181526020820180516001600160e01b03166001600160e01b031990941693909317909252905161199d9190612444565b6000604051808303816000865af19150503d80600081146119da576040519150601f19603f3d011682016040523d82523d6000602084013e6119df565b606091505b5091509150816119f0576015611a04565b80806020019051810190611a049190612477565b60030b95945050505050565b60008060006101676001600160a01b0316632e63879b60e01b868660405160240161195f929190612802565b600080848061010001516000015163ffffffff166000148015611a6c57506101008101516040015163ffffffff16155b15611a82576101008101516276a7006040909101525b6000806101676001600160a01b03163463c23baeb660e01b8a8a8a6040516024016118729392919061285d565b60008060606000806101676001600160a01b031663278e0b8860e01b898989604051602401611ae093929190612896565b60408051601f198184030181529181526020820180516001600160e01b03166001600160e01b0319909416939093179092529051611b1e9190612444565b6000604051808303816000865af19150503d8060008114611b5b576040519150601f19603f3d011682016040523d82523d6000602084013e611b60565b606091505b509150915081611b83576040805160008082526020820190925260159190611b97565b80806020019051810190611b97919061291a565b60039290920b9a90995090975095505050505050565b600080868061010001516000015163ffffffff166000148015611bdd57506101008101516040015163ffffffff16155b15611bf3576101008101516276a7006040909101525b6000806101676001600160a01b03163463b937581a60e01b8c8c8c8c8c604051602401611c249594939291906129e1565b60408051601f198184030181529181526020820180516001600160e01b03166001600160e01b0319909416939093179092529051611c629190612444565b60006040518083038185875af1925050503d8060008114611c9f576040519150601f19603f3d011682016040523d82523d6000602084013e611ca4565b606091505b509150915081611cb75760156000611ccb565b80806020019051810190611ccb91906127d6565b60039190910b9b909a5098505050505050505050565b600080828061010001516000015163ffffffff166000148015611d1157506101008101516040015163ffffffff16155b15611d27576101008101516276a7006040909101525b6000806101676001600160a01b031634639c89bb3560e01b88604051602401611d509190612ab3565b60408051601f198184030181529181526020820180516001600160e01b03166001600160e01b0319909416939093179092529051611d8e9190612444565b60006040518083038185875af1925050503d8060008114611dcb576040519150601f19603f3d011682016040523d82523d6000602084013e611dd0565b606091505b509150915081611de35760156000611df7565b80806020019051810190611df791906127d6565b60039190910b97909650945050505050565b6040516001600160a01b03838116602483015282166044820152600090819081906101679063248a35ef60e11b9060640161195f565b6000611e63836006811115611e5657611e56612ac6565b600160ff9091161b821790565b9050611e7a826006811115611e5657611e56612ac6565b9392505050565b611ec76040518060a0016040528060001515815260200160006001600160a01b03168152602001606081526020016060815260200160006001600160a01b031681525090565b6000836004811115611edb57611edb612ac6565b1415611eea5760018152610828565b6001836004811115611efe57611efe612ac6565b1415611f1a576000546001600160a01b03166020820152610828565b6002836004811115611f2e57611f2e612ac6565b1415611f405760408101829052610828565b6003836004811115611f5457611f54612ac6565b1415611f665760608101829052610828565b6004836004811115611f7a57611f7a612ac6565b1415610828576000546001600160a01b0316608082015292915050565b600060016000836006811115611faf57611faf612ac6565b6006811115611fc057611fc0612ac6565b8152602001908152602001600020549050919050565b60405180604001604052806000815260200161202e6040518060a0016040528060001515815260200160006001600160a01b03168152602001606081526020016060815260200160006001600160a01b031681525090565b905290565b6001600160a01b038116811461204857600080fd5b50565b6000806040838503121561205e57600080fd5b823561206981612033565b9150602083013561207981612033565b809150509250929050565b634e487b7160e01b600052604160045260246000fd5b604051601f8201601f1916810167ffffffffffffffff811182821017156120c3576120c3612084565b604052919050565b600067ffffffffffffffff8211156120e5576120e5612084565b5060051b60200190565b6000806040838503121561210257600080fd5b823561210d81612033565b915060208381013567ffffffffffffffff81111561212a57600080fd5b8401601f8101861361213b57600080fd5b803561214e612149826120cb565b61209a565b81815260059190911b8201830190838101908883111561216d57600080fd5b928401925b8284101561219457833561218581612033565b82529284019290840190612172565b80955050505050509250929050565b600080600080608085870312156121b957600080fd5b84356121c481612033565b935060208501356121d481612033565b925060408501356121e481612033565b9396929550929360600135925050565b60006020828403121561220657600080fd5b8135611e7a81612033565b67ffffffffffffffff8116811461204857600080fd5b60008060006060848603121561223c57600080fd5b833561224781612033565b925060208481013561225881612211565b925060408581013567ffffffffffffffff8082111561227657600080fd5b818801915088601f83011261228a57600080fd5b8135612298612149826120cb565b81815260059190911b8301850190858101908b8311156122b757600080fd5b8685015b83811015612341578035858111156122d35760008081fd5b8601603f81018e136122e55760008081fd5b88810135868111156122f9576122f9612084565b61230b601f8201601f19168b0161209a565b8181528f8a8385010111156123205760008081fd5b818a84018c83013760009181018b01919091528452509187019187016122bb565b50809750505050505050509250925092565b600081518084526020808501945080840160005b8381101561238657815160070b87529582019590820190600101612367565b509495945050505050565b83815267ffffffffffffffff831660208201526060604082015260006123ba6060830184612353565b95945050505050565b634e487b7160e01b600052603260045260246000fd5b600181811c908216806123ed57607f821691505b6020821081141561240e57634e487b7160e01b600052602260045260246000fd5b50919050565b60005b8381101561242f578181015183820152602001612417565b8381111561243e576000848401525b50505050565b60008251612456818460208701612414565b9190910192915050565b8051600381900b811461247257600080fd5b919050565b60006020828403121561248957600080fd5b611e7a82612460565b67ffffffffffffffff831681526040602082015260006124b56040830184612353565b949350505050565b600081518084526124d5816020860160208601612414565b601f01601f19169290920160200192915050565b600081518084526020808501808196508360051b8101915082860160005b858110156125a05782840389528151604081518652868201519150808787015281511515818701528682015160606001600160a01b03808316828a015283850151935060a09250608083818b015261256260e08b01866124bd565b928601518a8403603f1901858c015292945061257e85846124bd565b9501511660c09890980197909752505098850198935090840190600101612507565b5091979650505050505050565b600061016082518185526125c3828601826124bd565b915050602083015184820360208601526125dd82826124bd565b91505060408301516125fa60408601826001600160a01b03169052565b506060830151848203606086015261261282826124bd565b9150506080830151612628608086018215159052565b5060a083015161263d60a086018260070b9052565b5060c083015161265160c086018215159052565b5060e083015184820360e086015261266982826124e9565b61010085810151805163ffffffff9081168984015260208201516001600160a01b03166101208a015260408201511661014089015291935091505090949350505050565b600081518084526020808501945080840160005b83811015612386578151805163ffffffff168852838101516001600160a01b03908116858a01526040808301511515908a01526060808301511515908a0152608091820151169088015260a090960195908201906001016126c1565b60006060808352612730818401876125ad565b60208482038186015261274382886126ad565b91506040858303818701528287518085528385019150838901945060005b818110156127c6578551805163ffffffff908116855286820151811687860152858201511685850152878101516001600160a01b039081168986015260808083015115159086015260a09182015116908401529484019460c090920191600101612761565b50909a9950505050505050505050565b600080604083850312156127e957600080fd5b6127f283612460565b9150602083015161207981612033565b6000604082016001600160a01b0380861684526020604081860152828651808552606087019150828801945060005b8181101561284f578551851683529483019491830191600101612831565b509098975050505050505050565b60608152600061287060608301866125ad565b905067ffffffffffffffff8416602083015263ffffffff83166040830152949350505050565b6000606082016001600160a01b0386168352602067ffffffffffffffff8616818501526060604085015281855180845260808601915060808160051b870101935082870160005b8281101561290b57607f198887030184526128f98683516124bd565b955092840192908401906001016128dd565b50939998505050505050505050565b60008060006060848603121561292f57600080fd5b61293884612460565b925060208085015161294981612211565b604086015190935067ffffffffffffffff81111561296657600080fd5b8501601f8101871361297757600080fd5b8051612985612149826120cb565b81815260059190911b820183019083810190898311156129a457600080fd5b928401925b828410156129d25783518060070b81146129c35760008081fd5b825292840192908401906129a9565b80955050505050509250925092565b600060a08083526129f4818401896125ad565b602067ffffffffffffffff891681860152604063ffffffff808a1682880152606087850381890152612a26858b6126ad565b94506080888603818a0152858a518088528688019150868c01975060005b81811015612a9e578851805187168452888101518716898501528781015187168885015285810151871686850152848101511515858501528a01516001600160a01b03168a8401529787019760c090920191600101612a44565b50909f9e505050505050505050505050505050565b602081526000611e7a60208301846125ad565b634e487b7160e01b600052602160045260246000fdfea2646970667358221220c58fc67a89895130fbcaf2a3f79078ae1c1127048c647b365e4e3a5c460eb97e64736f6c63430008090033",
  "linkReferences": {},
  "deployedLinkReferences": {}
}