{
  "_format": "hh-sol-artifact-1",
  "contractName": "TokenCreateContract",
  "sourceName": "contracts/hts-precompile/examples/token-create/TokenCreateContract.sol",
  "abi": [
    {
      "anonymous": false,
      "inputs": [
        {
          "indexed": false,
          "internalType": "address",
          "name": "tokenAddress",
          "type": "address"
        }
      ],
      "name": "CreatedToken",
      "type": "event"
    },
    {
      "anonymous": false,
      "inputs": [
        {
          "indexed": false,
          "internalType": "bool",
          "name": "kycGranted",
          "type": "bool"
        }
      ],
      "name": "KycGranted",
      "type": "event"
    },
    {
      "anonymous": false,
      "inputs": [
        {
          "indexed": false,
          "internalType": "uint64",
          "name": "newTotalSupply",
          "type": "uint64"
        },
        {
          "indexed": false,
          "internalType": "int64[]",
          "name": "serialNumbers",
          "type": "int64[]"
        }
      ],
      "name": "MintedToken",
      "type": "event"
    },
    {
      "anonymous": false,
      "inputs": [
        {
          "indexed": false,
          "internalType": "int256",
          "name": "responseCode",
          "type": "int256"
        }
      ],
      "name": "ResponseCode",
      "type": "event"
    },
    {
      "inputs": [
        {
          "internalType": "address",
          "name": "account",
          "type": "address"
        },
        {
          "internalType": "address",
          "name": "token",
          "type": "address"
        }
      ],
      "name": "associateTokenPublic",
      "outputs": [
        {
          "internalType": "int256",
          "name": "responseCode",
          "type": "int256"
        }
      ],
      "stateMutability": "nonpayable",
      "type": "function"
    },
    {
      "inputs": [
        {
          "internalType": "address",
          "name": "account",
          "type": "address"
        },
        {
          "internalType": "address[]",
          "name": "tokens",
          "type": "address[]"
        }
      ],
      "name": "associateTokensPublic",
      "outputs": [
        {
          "internalType": "int256",
          "name": "responseCode",
          "type": "int256"
        }
      ],
      "stateMutability": "nonpayable",
      "type": "function"
    },
    {
      "inputs": [
        {
          "internalType": "address",
          "name": "treasury",
          "type": "address"
        }
      ],
      "name": "createFungibleTokenPublic",
      "outputs": [],
      "stateMutability": "payable",
      "type": "function"
    },
    {
      "inputs": [
        {
          "internalType": "address",
          "name": "treasury",
          "type": "address"
        },
        {
          "internalType": "address",
          "name": "fixedFeeTokenAddress",
          "type": "address"
        }
      ],
      "name": "createFungibleTokenWithCustomFeesPublic",
      "outputs": [],
      "stateMutability": "payable",
      "type": "function"
    },
    {
      "inputs": [
        {
          "internalType": "address",
          "name": "treasury",
          "type": "address"
        },
        {
          "internalType": "bytes",
          "name": "adminKey",
          "type": "bytes"
        },
        {
          "internalType": "int64",
          "name": "amount",
          "type": "int64"
        }
      ],
      "name": "createFungibleTokenWithSECP256K1AdminKeyAssociateAndTransferToAddressPublic",
      "outputs": [],
      "stateMutability": "payable",
      "type": "function"
    },
    {
      "inputs": [
        {
          "internalType": "address",
          "name": "treasury",
          "type": "address"
        },
        {
          "internalType": "bytes",
          "name": "adminKey",
          "type": "bytes"
        }
      ],
      "name": "createFungibleTokenWithSECP256K1AdminKeyPublic",
      "outputs": [
        {
          "internalType": "address",
          "name": "",
          "type": "address"
        }
      ],
      "stateMutability": "payable",
      "type": "function"
    },
    {
      "inputs": [
        {
          "internalType": "address",
          "name": "treasury",
          "type": "address"
        }
      ],
      "name": "createNonFungibleTokenPublic",
      "outputs": [],
      "stateMutability": "payable",
      "type": "function"
    },
    {
      "inputs": [
        {
          "internalType": "address",
          "name": "treasury",
          "type": "address"
        },
        {
          "internalType": "address",
          "name": "fixedFeeTokenAddress",
          "type": "address"
        }
      ],
      "name": "createNonFungibleTokenWithCustomFeesPublic",
      "outputs": [],
      "stateMutability": "payable",
      "type": "function"
    },
    {
      "inputs": [
        {
          "internalType": "address",
          "name": "treasury",
          "type": "address"
        },
        {
          "internalType": "bytes",
          "name": "adminKey",
          "type": "bytes"
        }
      ],
      "name": "createNonFungibleTokenWithSECP256K1AdminKeyPublic",
      "outputs": [],
      "stateMutability": "payable",
      "type": "function"
    },
    {
      "inputs": [
        {
          "internalType": "address",
          "name": "token",
          "type": "address"
        },
        {
          "internalType": "address",
          "name": "from",
          "type": "address"
        },
        {
          "internalType": "address",
          "name": "to",
          "type": "address"
        },
        {
          "internalType": "uint256",
          "name": "amount",
          "type": "uint256"
        }
      ],
      "name": "delegateTransferFrom",
      "outputs": [
        {
          "internalType": "int64",
          "name": "responseCode",
          "type": "int64"
        }
      ],
      "stateMutability": "nonpayable",
      "type": "function"
    },
    {
      "inputs": [
        {
          "internalType": "address",
          "name": "token",
          "type": "address"
        },
        {
          "internalType": "address",
          "name": "from",
          "type": "address"
        },
        {
          "internalType": "address",
          "name": "to",
          "type": "address"
        },
        {
          "internalType": "uint256",
          "name": "serialNumber",
          "type": "uint256"
        }
      ],
      "name": "delegateTransferFromNFT",
      "outputs": [
        {
          "internalType": "int64",
          "name": "responseCode",
          "type": "int64"
        }
      ],
      "stateMutability": "nonpayable",
      "type": "function"
    },
    {
      "inputs": [
        {
          "internalType": "address",
          "name": "token",
          "type": "address"
        },
        {
          "internalType": "address",
          "name": "account",
          "type": "address"
        }
      ],
      "name": "grantTokenKycPublic",
      "outputs": [
        {
          "internalType": "int64",
          "name": "responseCode",
          "type": "int64"
        }
      ],
      "stateMutability": "nonpayable",
      "type": "function"
    },
    {
      "inputs": [
        {
          "internalType": "address",
          "name": "token",
          "type": "address"
        },
        {
          "internalType": "uint64",
          "name": "amount",
          "type": "uint64"
        },
        {
          "internalType": "bytes[]",
          "name": "metadata",
          "type": "bytes[]"
        }
      ],
      "name": "mintTokenPublic",
      "outputs": [
        {
          "internalType": "int256",
          "name": "responseCode",
          "type": "int256"
        },
        {
          "internalType": "uint64",
          "name": "newTotalSupply",
          "type": "uint64"
        },
        {
          "internalType": "int64[]",
          "name": "serialNumbers",
          "type": "int64[]"
        }
      ],
      "stateMutability": "nonpayable",
      "type": "function"
    },
    {
      "inputs": [
        {
          "internalType": "address",
          "name": "token",
          "type": "address"
        },
        {
          "internalType": "uint64",
          "name": "amount",
          "type": "uint64"
        },
        {
          "internalType": "bytes[]",
          "name": "metadata",
          "type": "bytes[]"
        }
      ],
      "name": "mintTokenToAddressPublic",
      "outputs": [
        {
          "internalType": "int256",
          "name": "responseCode",
          "type": "int256"
        },
        {
          "internalType": "uint64",
          "name": "newTotalSupply",
          "type": "uint64"
        },
        {
          "internalType": "int64[]",
          "name": "serialNumbers",
          "type": "int64[]"
        }
      ],
      "stateMutability": "nonpayable",
      "type": "function"
    },
    {
      "inputs": [
        {
          "internalType": "address",
          "name": "token",
          "type": "address"
        },
        {
          "internalType": "address",
          "name": "from",
          "type": "address"
        },
        {
          "internalType": "address",
          "name": "to",
          "type": "address"
        },
        {
          "internalType": "uint256",
          "name": "amount",
          "type": "uint256"
        }
      ],
      "name": "transferFrom",
      "outputs": [
        {
          "internalType": "int64",
          "name": "responseCode",
          "type": "int64"
        }
      ],
      "stateMutability": "nonpayable",
      "type": "function"
    },
    {
      "inputs": [
        {
          "internalType": "address",
          "name": "token",
          "type": "address"
        },
        {
          "internalType": "address",
          "name": "from",
          "type": "address"
        },
        {
          "internalType": "address",
          "name": "to",
          "type": "address"
        },
        {
          "internalType": "uint256",
          "name": "serialNumber",
          "type": "uint256"
        }
      ],
      "name": "transferFromNFT",
      "outputs": [
        {
          "internalType": "int64",
          "name": "responseCode",
          "type": "int64"
        }
      ],
      "stateMutability": "nonpayable",
      "type": "function"
    },
    {
      "inputs": [
        {
          "internalType": "address",
          "name": "token",
          "type": "address"
        },
        {
          "components": [
            {
              "internalType": "string",
              "name": "name",
              "type": "string"
            },
            {
              "internalType": "string",
              "name": "symbol",
              "type": "string"
            },
            {
              "internalType": "address",
              "name": "treasury",
              "type": "address"
            },
            {
              "internalType": "string",
              "name": "memo",
              "type": "string"
            },
            {
              "internalType": "bool",
              "name": "tokenSupplyType",
              "type": "bool"
            },
            {
              "internalType": "int64",
              "name": "maxSupply",
              "type": "int64"
            },
            {
              "internalType": "bool",
              "name": "freezeDefault",
              "type": "bool"
            },
            {
              "components": [
                {
                  "internalType": "uint256",
                  "name": "keyType",
                  "type": "uint256"
                },
                {
                  "components": [
                    {
                      "internalType": "bool",
                      "name": "inheritAccountKey",
                      "type": "bool"
                    },
                    {
                      "internalType": "address",
                      "name": "contractId",
                      "type": "address"
                    },
                    {
                      "internalType": "bytes",
                      "name": "ed25519",
                      "type": "bytes"
                    },
                    {
                      "internalType": "bytes",
                      "name": "ECDSA_secp256k1",
                      "type": "bytes"
                    },
                    {
                      "internalType": "address",
                      "name": "delegatableContractId",
                      "type": "address"
                    }
                  ],
                  "internalType": "struct IHederaTokenService.KeyValue",
                  "name": "key",
                  "type": "tuple"
                }
              ],
              "internalType": "struct IHederaTokenService.TokenKey[]",
              "name": "tokenKeys",
              "type": "tuple[]"
            },
            {
              "components": [
                {
                  "internalType": "uint32",
                  "name": "second",
                  "type": "uint32"
                },
                {
                  "internalType": "address",
                  "name": "autoRenewAccount",
                  "type": "address"
                },
                {
                  "internalType": "uint32",
                  "name": "autoRenewPeriod",
                  "type": "uint32"
                }
              ],
              "internalType": "struct IHederaTokenService.Expiry",
              "name": "expiry",
              "type": "tuple"
            }
          ],
          "internalType": "struct IHederaTokenService.HederaToken",
          "name": "tokenInfo",
          "type": "tuple"
        }
      ],
      "name": "updateTokenInfoPublic",
      "outputs": [
        {
          "internalType": "int256",
          "name": "responseCode",
          "type": "int256"
        }
      ],
      "stateMutability": "nonpayable",
      "type": "function"
    }
  ],
  "bytecode": "0x60c06040526009608081905268746f6b656e4e616d6560b81b60a09081526200002c9160029190620001cc565b5060408051808201909152600b8082526a1d1bdad95b94de5b589bdb60aa1b60209092019182526200006191600391620001cc565b50604080518082019091526004808252636d656d6f60e01b60209092019182526200008d9181620001cc565b50600580546001600160a81b031916700800000000000003e800000000000003e8179055348015620000be57600080fd5b50600160208181527fa6eef7e35abe7026729641147f7915573c7e97b47efa546f5f6e3230263bcb499190915560027fcc69885fda6bcc1a4ace058b4a62bf5e179ea78fd58a1ccd71c22cc9b688792f5560047fd9d16d34ffb15ba3a3d852f0d403e2ce1d691fb54de27ac87cd2f993f3ec330f5560087f7dfe757ecd65cbd7922a9c0161e935dd7fdbcc0e999689c7d31633896b1fc60b5560107fedc95719e9a3b28dd8e80877cb5880a9be7de1a13fc8b05e7999683b6b567643557fe2689cd4a84e23ad2f564004f1c9013e9589d260bde6380aba3ca7e09e4df40c55600660005260407f8f331abe73332f95a25873e8b430885974c0409691f89d643119a11623a7924a55620002af565b828054620001da9062000272565b90600052602060002090601f016020900481019282620001fe576000855562000249565b82601f106200021957805160ff191683800117855562000249565b8280016001018555821562000249579182015b82811115620002495782518255916020019190600101906200022c565b50620002579291506200025b565b5090565b5b808211156200025757600081556001016200025c565b600181811c908216806200028757607f821691505b60208210811415620002a957634e487b7160e01b600052602260045260246000fd5b50919050565b613ba980620002bf6000396000f3fe6080604052600436106100fe5760003560e01c806371de3707116100955780639b23d3d9116100645780639b23d3d914610291578063b35d417a146102b1578063d85f74c1146102c4578063eac6f3fe146102d7578063f4a01e5b146102f757600080fd5b806371de3707146102205780638070905f146102335780638ba74da0146102535780638f74a17b1461026657600080fd5b806315dacbea116100d157806315dacbea1461019e5780632f13d66b146101be578063492d21f7146101de5780634b5c66871461020d57600080fd5b80630488c939146101035780630fd2601e14610118578063118741e71461015057806311e1fc071461017e575b600080fd5b610116610111366004612bbb565b610317565b005b34801561012457600080fd5b50610138610133366004612bbb565b610899565b60405160079190910b81526020015b60405180910390f35b34801561015c57600080fd5b5061017061016b366004612ccf565b6108f6565b604051908152602001610147565b34801561018a57600080fd5b50610138610199366004612d83565b61094a565b3480156101aa57600080fd5b506101386101b9366004612d83565b610a3c565b3480156101ca57600080fd5b506101706101d9366004613058565b610af8565b3480156101ea57600080fd5b506101fe6101f93660046131b6565b610b04565b604051610147939291906132cc565b61011661021b3660046132fe565b610bc5565b61011661022e36600461331b565b610fdc565b34801561023f57600080fd5b506101fe61024e3660046131b6565b61116e565b610116610261366004612bbb565b611208565b61027961027436600461337f565b611683565b6040516001600160a01b039091168152602001610147565b34801561029d57600080fd5b506101386102ac366004612d83565b611a54565b6101166102bf36600461337f565b611a99565b6101166102d23660046132fe565b611e45565b3480156102e357600080fd5b506101386102f2366004612d83565b6121e6565b34801561030357600080fd5b50610170610312366004612bbb565b61222b565b60408051600580825260c08201909252600091816020015b610337612b36565b81526020019060019003908161032f57905050905061036a60006006600060405180602001604052806000815250612237565b8160008151811061037d5761037d6133cf565b60200260200101819052506103a4600160006040518060200160405280600081525061226e565b816001815181106103b7576103b76133cf565b60200260200101819052506103de600260006040518060200160405280600081525061226e565b816002815181106103f1576103f16133cf565b6020026020010181905250610418600460006040518060200160405280600081525061226e565b8160038151811061042b5761042b6133cf565b6020026020010181905250610452600360006040518060200160405280600081525061226e565b81600481518110610465576104656133cf565b602002602001018190525060006040518060600160405280600063ffffffff168152602001856001600160a01b03168152602001627a120063ffffffff1681525090506000604051806101200160405280600280546104c3906133e5565b80601f01602080910402602001604051908101604052809291908181526020018280546104ef906133e5565b801561053c5780601f106105115761010080835404028352916020019161053c565b820191906000526020600020905b81548152906001019060200180831161051f57829003601f168201915b5050505050815260200160038054610553906133e5565b80601f016020809104026020016040519081016040528092919081815260200182805461057f906133e5565b80156105cc5780601f106105a1576101008083540402835291602001916105cc565b820191906000526020600020905b8154815290600101906020018083116105af57829003601f168201915b50505050508152602001866001600160a01b03168152602001600480546105f2906133e5565b80601f016020809104026020016040519081016040528092919081815260200182805461061e906133e5565b801561066b5780601f106106405761010080835404028352916020019161066b565b820191906000526020600020905b81548152906001019060200180831161064e57829003601f168201915b5050509183525050600160208201819052600554600160401b810460070b6040840152600160a01b900460ff16151560608301526080820186905260a090910184905290915060009060405190808252806020026020018201604052801561070d57816020015b6040805160a0810182526000808252602080830182905292820181905260608201819052608082015282526000199092019101816106d25790505b506040805160a081018252600181526001600160a01b03808916602083015260009282018390526060820183905289166080820152825192935091839190610757576107576133cf565b6020908102919091010152604080516001808252818301909252600091816020015b6040805160c08101825260008082526020808301829052928201819052606082018190526080820181905260a082015282526000199092019101816107795790505090506040518060c00160405280600463ffffffff168152602001600563ffffffff168152602001600a63ffffffff168152602001876001600160a01b03168152602001600015158152602001886001600160a01b031681525081600081518110610827576108276133cf565b60200260200101819052506000806108408585856122a3565b90925090506016821461085257600080fd5b6040516001600160a01b03821681527f7bb17726df1f3adee8aa00ba8e8bc5d6f182af3bbf77604639cb7f008dd3b4ed9060200160405180910390a1505050505050505050565b60006108a583836123d1565b604051600782900b81529091507f90a5cf4cffe88b4edbb041cfc7a8a812c48a5ec30b84640fb37690875168e3aa9060200160405180910390a1600781900b6016146108f057600080fd5b92915050565b600061090283836124b4565b90507f90a5cf4cffe88b4edbb041cfc7a8a812c48a5ec30b84640fb37690875168e3aa8160405161093591815260200190565b60405180910390a1601681146108f057600080fd5b6040516001600160a01b038581166024830152848116604483015283166064820152608481018290526000908190819061016790639b23d3d960e01b9060a4015b60408051601f198184030181529181526020820180516001600160e01b03166001600160e01b03199094169390931790925290516109c99190613450565b600060405180830381855af49150503d8060008114610a04576040519150601f19603f3d011682016040523d82523d6000602084013e610a09565b606091505b509150915081610a1a576015610a2e565b80806020019051810190610a2e919061347e565b60030b979650505050505050565b6040516001600160a01b038581166024830152848116604483015283166064820152608481018290526000908190819061016790630aed65f560e11b9060a4015b60408051601f198184030181529181526020820180516001600160e01b03166001600160e01b0319909416939093179092529051610abb9190613450565b6000604051808303816000865af19150503d8060008114610a04576040519150601f19603f3d011682016040523d82523d6000602084013e610a09565b600061090283836124e0565b6000806060610b1486868661250c565b60405183815292955090935091507f90a5cf4cffe88b4edbb041cfc7a8a812c48a5ec30b84640fb37690875168e3aa9060200160405180910390a160168314610b5c57600080fd5b7feff23992f47b3c101679f8b4dc9d3e242c903909dba4a453f2b2341ad463b0e28282604051610b8d929190613499565b60405180910390a1610bbb86303384600081518110610bae57610bae6133cf565b602002602001015161260a565b5093509350939050565b60408051600580825260c08201909252600091816020015b610be5612b36565b815260200190600190039081610bdd579050509050610c1860006006600060405180602001604052806000815250612237565b81600081518110610c2b57610c2b6133cf565b6020026020010181905250610c52600160006040518060200160405280600081525061226e565b81600181518110610c6557610c656133cf565b6020026020010181905250610c8c600260006040518060200160405280600081525061226e565b81600281518110610c9f57610c9f6133cf565b6020026020010181905250610cc6600360006040518060200160405280600081525061226e565b81600381518110610cd957610cd96133cf565b6020026020010181905250610d00600460006040518060200160405280600081525061226e565b81600481518110610d1357610d136133cf565b602002602001018190525060006040518060600160405280600063ffffffff168152602001846001600160a01b03168152602001627a120063ffffffff168152509050600060405180610120016040528060028054610d71906133e5565b80601f0160208091040260200160405190810160405280929190818152602001828054610d9d906133e5565b8015610dea5780601f10610dbf57610100808354040283529160200191610dea565b820191906000526020600020905b815481529060010190602001808311610dcd57829003601f168201915b5050505050815260200160038054610e01906133e5565b80601f0160208091040260200160405190810160405280929190818152602001828054610e2d906133e5565b8015610e7a5780601f10610e4f57610100808354040283529160200191610e7a565b820191906000526020600020905b815481529060010190602001808311610e5d57829003601f168201915b50505050508152602001856001600160a01b0316815260200160048054610ea0906133e5565b80601f0160208091040260200160405190810160405280929190818152602001828054610ecc906133e5565b8015610f195780601f10610eee57610100808354040283529160200191610f19565b820191906000526020600020905b815481529060010190602001808311610efc57829003601f168201915b505050918352505060016020820152600554600160401b810460070b6040830152600160a01b810460ff16151560608301526080820186905260a09091018490529091506000908190610f8690849067ffffffffffffffff811690600160801b900463ffffffff16612652565b909250905060168214610f9857600080fd5b6040516001600160a01b03821681527f7bb17726df1f3adee8aa00ba8e8bc5d6f182af3bbf77604639cb7f008dd3b4ed9060200160405180910390a1505050505050565b604051638f74a17b60e01b81526000903090638f74a17b90349061100690889088906004016134f0565b6020604051808303818588803b15801561101f57600080fd5b505af1158015611033573d6000803e3d6000fd5b50505050506040513d601f19601f820116820180604052508101906110589190613512565b60405163f4a01e5b60e01b81523360048201526001600160a01b0382166024820152909150309063f4a01e5b90604401602060405180830381600087803b1580156110a257600080fd5b505af11580156110b6573d6000803e3d6000fd5b505050506040513d601f19601f820116820180604052508101906110da919061352f565b506040516307e9300f60e11b81526001600160a01b03821660048201523360248201523090630fd2601e90604401602060405180830381600087803b15801561112257600080fd5b505af1158015611136573d6000803e3d6000fd5b505050506040513d601f19601f8201168201806040525081019061115a9190613548565b50611167813033856126c5565b5050505050565b600080606061117e86868661250c565b60405183815292955090935091507f90a5cf4cffe88b4edbb041cfc7a8a812c48a5ec30b84640fb37690875168e3aa9060200160405180910390a1601683146111c657600080fd5b7feff23992f47b3c101679f8b4dc9d3e242c903909dba4a453f2b2341ad463b0e282826040516111f7929190613499565b60405180910390a193509350939050565b604080516001808252818301909252600091816020015b611227612b36565b81526020019060019003908161121f579050509050611259600080600060405180602001604052806000815250612237565b8160008151811061126c5761126c6133cf565b602002602001018190525060006040518060600160405280600063ffffffff168152602001856001600160a01b03168152602001627a120063ffffffff1681525090506000604051806101200160405280600280546112ca906133e5565b80601f01602080910402602001604051908101604052809291908181526020018280546112f6906133e5565b80156113435780601f1061131857610100808354040283529160200191611343565b820191906000526020600020905b81548152906001019060200180831161132657829003601f168201915b505050505081526020016003805461135a906133e5565b80601f0160208091040260200160405190810160405280929190818152602001828054611386906133e5565b80156113d35780601f106113a8576101008083540402835291602001916113d3565b820191906000526020600020905b8154815290600101906020018083116113b657829003601f168201915b50505050508152602001866001600160a01b03168152602001600480546113f9906133e5565b80601f0160208091040260200160405190810160405280929190818152602001828054611425906133e5565b80156114725780601f1061144757610100808354040283529160200191611472565b820191906000526020600020905b81548152906001019060200180831161145557829003601f168201915b5050509183525050600160208201819052600554600160401b900460070b6040808401919091526000606084018190526080840188905260a09093018690528051828152808201909152929350909190816020015b6040805160a0810182526000808252602080830182905292820181905260608201819052608082015282526000199092019101816114c75750506040805160a081018252600181526001600160a01b0388811660208301526000928201839052606082018390528916608082015282519293509183919061154a5761154a6133cf565b6020908102919091010152604080516001808252818301909252600091816020015b6040805160c08101825260008082526020808301829052928201819052606082018190526080820181905260a0820152825260001990920191018161156c5750506040805160c0810182526004815260056020820152600a91810191909152601e60608201526000608082018190526001600160a01b038a1660a083015282519293509091839190611600576116006133cf565b6020908102919091010152600554600090819061163990869067ffffffffffffffff811690600160801b900463ffffffff16878761270d565b915091507f90a5cf4cffe88b4edbb041cfc7a8a812c48a5ec30b84640fb37690875168e3aa8260405161166e91815260200190565b60405180910390a16016821461085257600080fd5b60408051600580825260c08201909252600091829190816020015b6116a6612b36565b81526020019060019003908161169e5790505090506116ca60006006600386612237565b816000815181106116dd576116dd6133cf565b60200260200101819052506116f5600160038561226e565b81600181518110611708576117086133cf565b6020026020010181905250611720600260038561226e565b81600281518110611733576117336133cf565b602002602001018190525061174b600460038561226e565b8160038151811061175e5761175e6133cf565b60200260200101819052506117756003808561226e565b81600481518110611788576117886133cf565b602002602001018190525060006040518060600160405280600063ffffffff168152602001866001600160a01b03168152602001627a120063ffffffff1681525090506000604051806101200160405280600280546117e6906133e5565b80601f0160208091040260200160405190810160405280929190818152602001828054611812906133e5565b801561185f5780601f106118345761010080835404028352916020019161185f565b820191906000526020600020905b81548152906001019060200180831161184257829003601f168201915b5050505050815260200160038054611876906133e5565b80601f01602080910402602001604051908101604052809291908181526020018280546118a2906133e5565b80156118ef5780601f106118c4576101008083540402835291602001916118ef565b820191906000526020600020905b8154815290600101906020018083116118d257829003601f168201915b50505050508152602001876001600160a01b0316815260200160048054611915906133e5565b80601f0160208091040260200160405190810160405280929190818152602001828054611941906133e5565b801561198e5780601f106119635761010080835404028352916020019161198e565b820191906000526020600020905b81548152906001019060200180831161197157829003601f168201915b505050918352505060016020820152600554600160401b810460070b6040830152600160a01b810460ff16151560608301526080820186905260a090910184905290915060009081906119fb90849067ffffffffffffffff811690600160801b900463ffffffff16612652565b909250905060168214611a0d57600080fd5b6040516001600160a01b03821681527f7bb17726df1f3adee8aa00ba8e8bc5d6f182af3bbf77604639cb7f008dd3b4ed9060200160405180910390a1979650505050505050565b6040516001600160a01b038581166024830152848116604483015283166064820152608481018290526000908190819061016790639b23d3d960e01b9060a401610a7d565b60408051600580825260c08201909252600091816020015b611ab9612b36565b815260200190600190039081611ab1579050509050611add60006006600385612237565b81600081518110611af057611af06133cf565b6020026020010181905250611b08600160038461226e565b81600181518110611b1b57611b1b6133cf565b6020026020010181905250611b33600260038461226e565b81600281518110611b4657611b466133cf565b6020026020010181905250611b5e600460038461226e565b81600381518110611b7157611b716133cf565b6020026020010181905250611b886003808461226e565b81600481518110611b9b57611b9b6133cf565b602002602001018190525060006040518060600160405280600063ffffffff168152602001856001600160a01b03168152602001627a120063ffffffff168152509050600060405180610120016040528060028054611bf9906133e5565b80601f0160208091040260200160405190810160405280929190818152602001828054611c25906133e5565b8015611c725780601f10611c4757610100808354040283529160200191611c72565b820191906000526020600020905b815481529060010190602001808311611c5557829003601f168201915b5050505050815260200160038054611c89906133e5565b80601f0160208091040260200160405190810160405280929190818152602001828054611cb5906133e5565b8015611d025780601f10611cd757610100808354040283529160200191611d02565b820191906000526020600020905b815481529060010190602001808311611ce557829003601f168201915b50505050508152602001866001600160a01b0316815260200160048054611d28906133e5565b80601f0160208091040260200160405190810160405280929190818152602001828054611d54906133e5565b8015611da15780601f10611d7657610100808354040283529160200191611da1565b820191906000526020600020905b815481529060010190602001808311611d8457829003601f168201915b505050918352505060016020820152600554600160401b810460070b6040830152600160a01b900460ff16151560608201526080810185905260a0018390529050600080611dee83612841565b909250905060168214611e0057600080fd5b6040516001600160a01b03821681527f7bb17726df1f3adee8aa00ba8e8bc5d6f182af3bbf77604639cb7f008dd3b4ed9060200160405180910390a150505050505050565b60408051600580825260c08201909252600091816020015b611e65612b36565b815260200190600190039081611e5d579050509050611e9860006006600060405180602001604052806000815250612237565b81600081518110611eab57611eab6133cf565b6020026020010181905250611ed2600160006040518060200160405280600081525061226e565b81600181518110611ee557611ee56133cf565b6020026020010181905250611f0c600260006040518060200160405280600081525061226e565b81600281518110611f1f57611f1f6133cf565b6020026020010181905250611f46600460006040518060200160405280600081525061226e565b81600381518110611f5957611f596133cf565b6020026020010181905250611f80600360006040518060200160405280600081525061226e565b81600481518110611f9357611f936133cf565b602002602001018190525060006040518060600160405280600063ffffffff168152602001846001600160a01b03168152602001627a120063ffffffff168152509050600060405180610120016040528060028054611ff1906133e5565b80601f016020809104026020016040519081016040528092919081815260200182805461201d906133e5565b801561206a5780601f1061203f5761010080835404028352916020019161206a565b820191906000526020600020905b81548152906001019060200180831161204d57829003601f168201915b5050505050815260200160038054612081906133e5565b80601f01602080910402602001604051908101604052809291908181526020018280546120ad906133e5565b80156120fa5780601f106120cf576101008083540402835291602001916120fa565b820191906000526020600020905b8154815290600101906020018083116120dd57829003601f168201915b50505050508152602001856001600160a01b0316815260200160048054612120906133e5565b80601f016020809104026020016040519081016040528092919081815260200182805461214c906133e5565b80156121995780601f1061216e57610100808354040283529160200191612199565b820191906000526020600020905b81548152906001019060200180831161217c57829003601f168201915b505050918352505060016020820152600554600160401b810460070b6040830152600160a01b900460ff16151560608201526080810185905260a0018390529050600080610f8683612841565b6040516001600160a01b038581166024830152848116604483015283166064820152608481018290526000908190819061016790630aed65f560e11b9060a40161098b565b60006109028383612969565b61223f612b36565b6040518060400160405280612254878761299f565b815260200161226385856129e1565b905295945050505050565b612276612b36565b604051806040016040528061228a86612af7565b815260200161229985856129e1565b9052949350505050565b600080848061010001516000015163ffffffff1660001480156122d357506101008101516040015163ffffffff16155b156122e9576101008101516276a7006040909101525b6000806101676001600160a01b031634634573396960e01b8a8a8a60405160240161231693929190613799565b60408051601f198184030181529181526020820180516001600160e01b03166001600160e01b03199094169390931790925290516123549190613450565b60006040518083038185875af1925050503d8060008114612391576040519150601f19603f3d011682016040523d82523d6000602084013e612396565b606091505b5091509150816123a957601560006123bd565b808060200190518101906123bd9190613852565b60039190910b999098509650505050505050565b6040516001600160a01b038381166024830152821660448201526000908190819061016790638f8d7f9960e01b906064015b60408051601f198184030181529181526020820180516001600160e01b03166001600160e01b03199094169390931790925290516124419190613450565b6000604051808303816000865af19150503d806000811461247e576040519150601f19603f3d011682016040523d82523d6000602084013e612483565b606091505b5091509150816124945760156124a8565b808060200190518101906124a8919061347e565b60030b95945050505050565b60008060006101676001600160a01b0316632e63879b60e01b868660405160240161240392919061387e565b60008060006101676001600160a01b03166318370d3460e01b86866040516024016124039291906138d9565b60008060606000806101676001600160a01b031663278e0b8860e01b89898960405160240161253d939291906138fb565b60408051601f198184030181529181526020820180516001600160e01b03166001600160e01b031990941693909317909252905161257b9190613450565b6000604051808303816000865af19150503d80600081146125b8576040519150601f19603f3d011682016040523d82523d6000602084013e6125bd565b606091505b5091509150816125e05760408051600080825260208201909252601591906125f4565b808060200190518101906125f4919061397f565b60039290920b9a90995090975095505050505050565b6040516001600160a01b038581166024830152848116604483015283166064820152600782900b60848201526000908190819061016790635cfc901160e01b9060a401610a7d565b600080848061010001516000015163ffffffff16600014801561268257506101008101516040015163ffffffff16155b15612698576101008101516276a7006040909101525b6000806101676001600160a01b03163463c23baeb660e01b8a8a8a60405160240161231693929190613a3f565b6040516001600160a01b038581166024830152848116604483015283166064820152600782900b6084820152600090819081906101679063eca3691760e01b9060a401610a7d565b600080868061010001516000015163ffffffff16600014801561273d57506101008101516040015163ffffffff16155b15612753576101008101516276a7006040909101525b6000806101676001600160a01b03163463b937581a60e01b8c8c8c8c8c604051602401612784959493929190613a78565b60408051601f198184030181529181526020820180516001600160e01b03166001600160e01b03199094169390931790925290516127c29190613450565b60006040518083038185875af1925050503d80600081146127ff576040519150601f19603f3d011682016040523d82523d6000602084013e612804565b606091505b509150915081612817576015600061282b565b8080602001905181019061282b9190613852565b60039190910b9b909a5098505050505050505050565b600080828061010001516000015163ffffffff16600014801561287157506101008101516040015163ffffffff16155b15612887576101008101516276a7006040909101525b6000806101676001600160a01b031634639c89bb3560e01b886040516024016128b09190613b4a565b60408051601f198184030181529181526020820180516001600160e01b03166001600160e01b03199094169390931790925290516128ee9190613450565b60006040518083038185875af1925050503d806000811461292b576040519150601f19603f3d011682016040523d82523d6000602084013e612930565b606091505b5091509150816129435760156000612957565b808060200190518101906129579190613852565b60039190910b97909650945050505050565b6040516001600160a01b03838116602483015282166044820152600090819081906101679063248a35ef60e11b90606401612403565b60006129c38360068111156129b6576129b6613b5d565b600160ff9091161b821790565b90506129da8260068111156129b6576129b6613b5d565b9392505050565b612a276040518060a0016040528060001515815260200160006001600160a01b03168152602001606081526020016060815260200160006001600160a01b031681525090565b6000836004811115612a3b57612a3b613b5d565b1415612a4a57600181526108f0565b6001836004811115612a5e57612a5e613b5d565b1415612a7a576000546001600160a01b031660208201526108f0565b6002836004811115612a8e57612a8e613b5d565b1415612aa057604081018290526108f0565b6003836004811115612ab457612ab4613b5d565b1415612ac657606081018290526108f0565b6004836004811115612ada57612ada613b5d565b14156108f0576000546001600160a01b0316608082015292915050565b600060016000836006811115612b0f57612b0f613b5d565b6006811115612b2057612b20613b5d565b8152602001908152602001600020549050919050565b604051806040016040528060008152602001612b8e6040518060a0016040528060001515815260200160006001600160a01b03168152602001606081526020016060815260200160006001600160a01b031681525090565b905290565b6001600160a01b0381168114612ba857600080fd5b50565b8035612bb681612b93565b919050565b60008060408385031215612bce57600080fd5b8235612bd981612b93565b91506020830135612be981612b93565b809150509250929050565b634e487b7160e01b600052604160045260246000fd5b6040805190810167ffffffffffffffff81118282101715612c2d57612c2d612bf4565b60405290565b60405160a0810167ffffffffffffffff81118282101715612c2d57612c2d612bf4565b604051610120810167ffffffffffffffff81118282101715612c2d57612c2d612bf4565b604051601f8201601f1916810167ffffffffffffffff81118282101715612ca357612ca3612bf4565b604052919050565b600067ffffffffffffffff821115612cc557612cc5612bf4565b5060051b60200190565b60008060408385031215612ce257600080fd5b8235612ced81612b93565b915060208381013567ffffffffffffffff811115612d0a57600080fd5b8401601f81018613612d1b57600080fd5b8035612d2e612d2982612cab565b612c7a565b81815260059190911b82018301908381019088831115612d4d57600080fd5b928401925b82841015612d74578335612d6581612b93565b82529284019290840190612d52565b80955050505050509250929050565b60008060008060808587031215612d9957600080fd5b8435612da481612b93565b93506020850135612db481612b93565b92506040850135612dc481612b93565b9396929550929360600135925050565b600082601f830112612de557600080fd5b813567ffffffffffffffff811115612dff57612dff612bf4565b612e12601f8201601f1916602001612c7a565b818152846020838601011115612e2757600080fd5b816020850160208301376000918101602001919091529392505050565b80358015158114612bb657600080fd5b8060070b8114612ba857600080fd5b8035612bb681612e54565b600082601f830112612e7f57600080fd5b81356020612e8f612d2983612cab565b82815260059290921b84018101918181019086841115612eae57600080fd5b8286015b84811015612fc857803567ffffffffffffffff80821115612ed257600080fd5b908801906040601f19838c038101821315612eec57600080fd5b612ef4612c0a565b8885013581528285013584811115612f0b57600080fd5b949094019360a0858e0383011215612f235760008081fd5b612f2b612c33565b9150612f38898601612e44565b825282850135612f4781612b93565b828a015260608581013585811115612f5f5760008081fd5b612f6d8f8c838a0101612dd4565b8585015250608093508386013585811115612f885760008081fd5b612f968f8c838a0101612dd4565b82850152505060a08501359450612fac85612b93565b9181019390935280870192909252508352918301918301612eb2565b509695505050505050565b803563ffffffff81168114612bb657600080fd5b600060608284031215612ff957600080fd5b6040516060810181811067ffffffffffffffff8211171561301c5761301c612bf4565b60405290508061302b83612fd3565b8152602083013561303b81612b93565b602082015261304c60408401612fd3565b60408201525092915050565b6000806040838503121561306b57600080fd5b823561307681612b93565b9150602083013567ffffffffffffffff8082111561309357600080fd5b9084019061016082870312156130a857600080fd5b6130b0612c56565b8235828111156130bf57600080fd5b6130cb88828601612dd4565b8252506020830135828111156130e057600080fd5b6130ec88828601612dd4565b6020830152506130fe60408401612bab565b604082015260608301358281111561311557600080fd5b61312188828601612dd4565b60608301525061313360808401612e44565b608082015261314460a08401612e63565b60a082015261315560c08401612e44565b60c082015260e08301358281111561316c57600080fd5b61317888828601612e6e565b60e083015250610100915061318f87838501612fe7565b828201528093505050509250929050565b67ffffffffffffffff81168114612ba857600080fd5b6000806000606084860312156131cb57600080fd5b83356131d681612b93565b92506020848101356131e7816131a0565b9250604085013567ffffffffffffffff8082111561320457600080fd5b818701915087601f83011261321857600080fd5b8135613226612d2982612cab565b81815260059190911b8301840190848101908a83111561324557600080fd5b8585015b8381101561327d578035858111156132615760008081fd5b61326f8d89838a0101612dd4565b845250918601918601613249565b508096505050505050509250925092565b600081518084526020808501945080840160005b838110156132c157815160070b875295820195908201906001016132a2565b509495945050505050565b83815267ffffffffffffffff831660208201526060604082015260006132f5606083018461328e565b95945050505050565b60006020828403121561331057600080fd5b81356129da81612b93565b60008060006060848603121561333057600080fd5b833561333b81612b93565b9250602084013567ffffffffffffffff81111561335757600080fd5b61336386828701612dd4565b925050604084013561337481612e54565b809150509250925092565b6000806040838503121561339257600080fd5b823561339d81612b93565b9150602083013567ffffffffffffffff8111156133b957600080fd5b6133c585828601612dd4565b9150509250929050565b634e487b7160e01b600052603260045260246000fd5b600181811c908216806133f957607f821691505b6020821081141561341a57634e487b7160e01b600052602260045260246000fd5b50919050565b60005b8381101561343b578181015183820152602001613423565b8381111561344a576000848401525b50505050565b60008251613462818460208701613420565b9190910192915050565b8051600381900b8114612bb657600080fd5b60006020828403121561349057600080fd5b6129da8261346c565b67ffffffffffffffff831681526040602082015260006134bc604083018461328e565b949350505050565b600081518084526134dc816020860160208601613420565b601f01601f19169290920160200192915050565b6001600160a01b03831681526040602082015260006134bc60408301846134c4565b60006020828403121561352457600080fd5b81516129da81612b93565b60006020828403121561354157600080fd5b5051919050565b60006020828403121561355a57600080fd5b81516129da81612e54565b600081518084526020808501808196508360051b8101915082860160005b8581101561361c5782840389528151604081518652868201519150808787015281511515818701528682015160606001600160a01b03808316828a015283850151935060a09250608083818b01526135de60e08b01866134c4565b928601518a8403603f1901858c01529294506135fa85846134c4565b9501511660c09890980197909752505098850198935090840190600101613583565b5091979650505050505050565b6000610160825181855261363f828601826134c4565b9150506020830151848203602086015261365982826134c4565b915050604083015161367660408601826001600160a01b03169052565b506060830151848203606086015261368e82826134c4565b91505060808301516136a4608086018215159052565b5060a08301516136b960a086018260070b9052565b5060c08301516136cd60c086018215159052565b5060e083015184820360e08601526136e58282613565565b61010085810151805163ffffffff9081168984015260208201516001600160a01b03166101208a015260408201511661014089015291935091505090949350505050565b600081518084526020808501945080840160005b838110156132c1578151805163ffffffff168852838101516001600160a01b03908116858a01526040808301511515908a01526060808301511515908a0152608091820151169088015260a0909601959082019060010161373d565b600060608083526137ac81840187613629565b6020848203818601526137bf8288613729565b91506040858303818701528287518085528385019150838901945060005b81811015613842578551805163ffffffff908116855286820151811687860152858201511685850152878101516001600160a01b039081168986015260808083015115159086015260a09182015116908401529484019460c0909201916001016137dd565b50909a9950505050505050505050565b6000806040838503121561386557600080fd5b61386e8361346c565b91506020830151612be981612b93565b6000604082016001600160a01b0380861684526020604081860152828651808552606087019150828801945060005b818110156138cb5785518516835294830194918301916001016138ad565b509098975050505050505050565b6001600160a01b03831681526040602082015260006134bc6040830184613629565b6000606082016001600160a01b0386168352602067ffffffffffffffff8616818501526060604085015281855180845260808601915060808160051b870101935082870160005b8281101561397057607f1988870301845261395e8683516134c4565b95509284019290840190600101613942565b50939998505050505050505050565b60008060006060848603121561399457600080fd5b61399d8461346c565b92506020808501516139ae816131a0565b604086015190935067ffffffffffffffff8111156139cb57600080fd5b8501601f810187136139dc57600080fd5b80516139ea612d2982612cab565b81815260059190911b82018301908381019089831115613a0957600080fd5b928401925b82841015613a30578351613a2181612e54565b82529284019290840190613a0e565b80955050505050509250925092565b606081526000613a526060830186613629565b905067ffffffffffffffff8416602083015263ffffffff83166040830152949350505050565b600060a0808352613a8b81840189613629565b602067ffffffffffffffff891681860152604063ffffffff808a1682880152606087850381890152613abd858b613729565b94506080888603818a0152858a518088528688019150868c01975060005b81811015613b35578851805187168452888101518716898501528781015187168885015285810151871686850152848101511515858501528a01516001600160a01b03168a8401529787019760c090920191600101613adb565b50909f9e505050505050505050505050505050565b6020815260006129da6020830184613629565b634e487b7160e01b600052602160045260246000fdfea26469706673582212205db17e0efcd6ff9943613e2c4309ae54909159185fdbf95b676496c77763e8c664736f6c63430008090033",
  "linkReferences": {},
  "deployedLinkReferences": {}
}