{
  "_format": "hh-sol-artifact-1",
  "contractName": "TokenCreateContract",
  "sourceName": "contracts/hts-precompile/examples/token-create/TokenCreateContract.sol",
  "abi": [
    {
      "anonymous": false,
      "inputs": [
        {
          "indexed": false,
          "internalType": "address",
          "name": "tokenAddress",
          "type": "address"
        }
      ],
      "name": "CreatedToken",
      "type": "event"
    },
    {
      "anonymous": false,
      "inputs": [
        {
          "indexed": false,
          "internalType": "bool",
          "name": "kycGranted",
          "type": "bool"
        }
      ],
      "name": "KycGranted",
      "type": "event"
    },
    {
      "anonymous": false,
      "inputs": [
        {
          "indexed": false,
          "internalType": "uint64",
          "name": "newTotalSupply",
          "type": "uint64"
        },
        {
          "indexed": false,
          "internalType": "int64[]",
          "name": "serialNumbers",
          "type": "int64[]"
        }
      ],
      "name": "MintedToken",
      "type": "event"
    },
    {
      "anonymous": false,
      "inputs": [
        {
          "indexed": false,
          "internalType": "int256",
          "name": "responseCode",
          "type": "int256"
        }
      ],
      "name": "ResponseCode",
      "type": "event"
    },
    {
      "inputs": [
        {
          "internalType": "address",
          "name": "account",
          "type": "address"
        },
        {
          "internalType": "address",
          "name": "token",
          "type": "address"
        }
      ],
      "name": "associateTokenPublic",
      "outputs": [
        {
          "internalType": "int256",
          "name": "responseCode",
          "type": "int256"
        }
      ],
      "stateMutability": "nonpayable",
      "type": "function"
    },
    {
      "inputs": [
        {
          "internalType": "address",
          "name": "account",
          "type": "address"
        },
        {
          "internalType": "address[]",
          "name": "tokens",
          "type": "address[]"
        }
      ],
      "name": "associateTokensPublic",
      "outputs": [
        {
          "internalType": "int256",
          "name": "responseCode",
          "type": "int256"
        }
      ],
      "stateMutability": "nonpayable",
      "type": "function"
    },
    {
      "inputs": [
        {
          "internalType": "address",
          "name": "treasury",
          "type": "address"
        }
      ],
      "name": "createFungibleTokenPublic",
      "outputs": [],
      "stateMutability": "payable",
      "type": "function"
    },
    {
      "inputs": [
        {
          "internalType": "address",
          "name": "treasury",
          "type": "address"
        },
        {
          "internalType": "address",
          "name": "fixedFeeTokenAddress",
          "type": "address"
        }
      ],
      "name": "createFungibleTokenWithCustomFeesPublic",
      "outputs": [],
      "stateMutability": "payable",
      "type": "function"
    },
    {
      "inputs": [
        {
          "internalType": "address",
          "name": "treasury",
          "type": "address"
        },
        {
          "internalType": "bytes",
          "name": "adminKey",
          "type": "bytes"
        },
        {
          "internalType": "int64",
          "name": "amount",
          "type": "int64"
        }
      ],
      "name": "createFungibleTokenWithSECP256K1AdminKeyAssociateAndTransferToAddressPublic",
      "outputs": [],
      "stateMutability": "payable",
      "type": "function"
    },
    {
      "inputs": [
        {
          "internalType": "address",
          "name": "treasury",
          "type": "address"
        },
        {
          "internalType": "bytes",
          "name": "adminKey",
          "type": "bytes"
        }
      ],
      "name": "createFungibleTokenWithSECP256K1AdminKeyPublic",
      "outputs": [
        {
          "internalType": "address",
          "name": "",
          "type": "address"
        }
      ],
      "stateMutability": "payable",
      "type": "function"
    },
    {
      "inputs": [
        {
          "internalType": "address",
          "name": "treasury",
          "type": "address"
        }
      ],
      "name": "createNonFungibleTokenPublic",
      "outputs": [],
      "stateMutability": "payable",
      "type": "function"
    },
    {
      "inputs": [
        {
          "internalType": "address",
          "name": "treasury",
          "type": "address"
        },
        {
          "internalType": "address",
          "name": "fixedFeeTokenAddress",
          "type": "address"
        }
      ],
      "name": "createNonFungibleTokenWithCustomFeesPublic",
      "outputs": [],
      "stateMutability": "payable",
      "type": "function"
    },
    {
      "inputs": [
        {
          "internalType": "address",
          "name": "treasury",
          "type": "address"
        },
        {
          "internalType": "bytes",
          "name": "adminKey",
          "type": "bytes"
        }
      ],
      "name": "createNonFungibleTokenWithSECP256K1AdminKeyPublic",
      "outputs": [],
      "stateMutability": "payable",
      "type": "function"
    },
    {
      "inputs": [
        {
          "internalType": "address",
          "name": "token",
          "type": "address"
        },
        {
          "internalType": "address",
          "name": "from",
          "type": "address"
        },
        {
          "internalType": "address",
          "name": "to",
          "type": "address"
        },
        {
          "internalType": "uint256",
          "name": "amount",
          "type": "uint256"
        }
      ],
      "name": "delegateTransferFrom",
      "outputs": [
        {
          "internalType": "int64",
          "name": "responseCode",
          "type": "int64"
        }
      ],
      "stateMutability": "nonpayable",
      "type": "function"
    },
    {
      "inputs": [
        {
          "internalType": "address",
          "name": "token",
          "type": "address"
        },
        {
          "internalType": "address",
          "name": "from",
          "type": "address"
        },
        {
          "internalType": "address",
          "name": "to",
          "type": "address"
        },
        {
          "internalType": "uint256",
          "name": "serialNumber",
          "type": "uint256"
        }
      ],
      "name": "delegateTransferFromNFT",
      "outputs": [
        {
          "internalType": "int64",
          "name": "responseCode",
          "type": "int64"
        }
      ],
      "stateMutability": "nonpayable",
      "type": "function"
    },
    {
      "inputs": [
        {
          "internalType": "address",
          "name": "token",
          "type": "address"
        },
        {
          "internalType": "address",
          "name": "account",
          "type": "address"
        }
      ],
      "name": "grantTokenKycPublic",
      "outputs": [
        {
          "internalType": "int64",
          "name": "responseCode",
          "type": "int64"
        }
      ],
      "stateMutability": "nonpayable",
      "type": "function"
    },
    {
      "inputs": [
        {
          "internalType": "address",
          "name": "token",
          "type": "address"
        },
        {
          "internalType": "uint64",
          "name": "amount",
          "type": "uint64"
        },
        {
          "internalType": "bytes[]",
          "name": "metadata",
          "type": "bytes[]"
        }
      ],
      "name": "mintTokenPublic",
      "outputs": [
        {
          "internalType": "int256",
          "name": "responseCode",
          "type": "int256"
        },
        {
          "internalType": "uint64",
          "name": "newTotalSupply",
          "type": "uint64"
        },
        {
          "internalType": "int64[]",
          "name": "serialNumbers",
          "type": "int64[]"
        }
      ],
      "stateMutability": "nonpayable",
      "type": "function"
    },
    {
      "inputs": [
        {
          "internalType": "address",
          "name": "token",
          "type": "address"
        },
        {
          "internalType": "uint64",
          "name": "amount",
          "type": "uint64"
        },
        {
          "internalType": "bytes[]",
          "name": "metadata",
          "type": "bytes[]"
        }
      ],
      "name": "mintTokenToAddressPublic",
      "outputs": [
        {
          "internalType": "int256",
          "name": "responseCode",
          "type": "int256"
        },
        {
          "internalType": "uint64",
          "name": "newTotalSupply",
          "type": "uint64"
        },
        {
          "internalType": "int64[]",
          "name": "serialNumbers",
          "type": "int64[]"
        }
      ],
      "stateMutability": "nonpayable",
      "type": "function"
    },
    {
      "inputs": [
        {
          "internalType": "address",
          "name": "token",
          "type": "address"
        },
        {
          "internalType": "address",
          "name": "from",
          "type": "address"
        },
        {
          "internalType": "address",
          "name": "to",
          "type": "address"
        },
        {
          "internalType": "uint256",
          "name": "amount",
          "type": "uint256"
        }
      ],
      "name": "transferFrom",
      "outputs": [
        {
          "internalType": "int64",
          "name": "responseCode",
          "type": "int64"
        }
      ],
      "stateMutability": "nonpayable",
      "type": "function"
    },
    {
      "inputs": [
        {
          "internalType": "address",
          "name": "token",
          "type": "address"
        },
        {
          "internalType": "address",
          "name": "from",
          "type": "address"
        },
        {
          "internalType": "address",
          "name": "to",
          "type": "address"
        },
        {
          "internalType": "uint256",
          "name": "serialNumber",
          "type": "uint256"
        }
      ],
      "name": "transferFromNFT",
      "outputs": [
        {
          "internalType": "int64",
          "name": "responseCode",
          "type": "int64"
        }
      ],
      "stateMutability": "nonpayable",
      "type": "function"
    }
  ],
  "bytecode": "0x60c06040526009608081905268746f6b656e4e616d6560b81b60a09081526200002c9160029190620001cc565b5060408051808201909152600b8082526a1d1bdad95b94de5b589bdb60aa1b60209092019182526200006191600391620001cc565b50604080518082019091526004808252636d656d6f60e01b60209092019182526200008d9181620001cc565b50600580546001600160a81b031916700800000000000003e800000000000003e8179055348015620000be57600080fd5b50600160208181527fa6eef7e35abe7026729641147f7915573c7e97b47efa546f5f6e3230263bcb499190915560027fcc69885fda6bcc1a4ace058b4a62bf5e179ea78fd58a1ccd71c22cc9b688792f5560047fd9d16d34ffb15ba3a3d852f0d403e2ce1d691fb54de27ac87cd2f993f3ec330f5560087f7dfe757ecd65cbd7922a9c0161e935dd7fdbcc0e999689c7d31633896b1fc60b5560107fedc95719e9a3b28dd8e80877cb5880a9be7de1a13fc8b05e7999683b6b567643557fe2689cd4a84e23ad2f564004f1c9013e9589d260bde6380aba3ca7e09e4df40c55600660005260407f8f331abe73332f95a25873e8b430885974c0409691f89d643119a11623a7924a55620002af565b828054620001da9062000272565b90600052602060002090601f016020900481019282620001fe576000855562000249565b82601f106200021957805160ff191683800117855562000249565b8280016001018555821562000249579182015b82811115620002495782518255916020019190600101906200022c565b50620002579291506200025b565b5090565b5b808211156200025757600081556001016200025c565b600181811c908216806200028757607f821691505b60208210811415620002a957634e487b7160e01b600052602260045260246000fd5b50919050565b61375c80620002bf6000396000f3fe6080604052600436106100f35760003560e01c80638070905f1161008a578063b35d417a11610059578063b35d417a14610286578063d85f74c114610299578063eac6f3fe146102ac578063f4a01e5b146102cc57600080fd5b80638070905f146102085780638ba74da0146102285780638f74a17b1461023b5780639b23d3d91461026657600080fd5b806315dacbea116100c657806315dacbea14610193578063492d21f7146101b35780634b5c6687146101e257806371de3707146101f557600080fd5b80630488c939146100f85780630fd2601e1461010d578063118741e71461014557806311e1fc0714610173575b600080fd5b61010b610106366004612b48565b6102ec565b005b34801561011957600080fd5b5061012d610128366004612b48565b61086e565b60405160079190910b81526020015b60405180910390f35b34801561015157600080fd5b50610165610160366004612bec565b6108cb565b60405190815260200161013c565b34801561017f57600080fd5b5061012d61018e366004612ca0565b61091f565b34801561019f57600080fd5b5061012d6101ae366004612ca0565b610a11565b3480156101bf57600080fd5b506101d36101ce366004612d77565b610acd565b60405161013c93929190612e8d565b61010b6101f0366004612ebf565b610b8e565b61010b610203366004612eeb565b610fa5565b34801561021457600080fd5b506101d3610223366004612d77565b611137565b61010b610236366004612b48565b6111d1565b61024e610249366004612f4f565b61164c565b6040516001600160a01b03909116815260200161013c565b34801561027257600080fd5b5061012d610281366004612ca0565b611a1d565b61010b610294366004612f4f565b611a62565b61010b6102a7366004612ebf565b611e0e565b3480156102b857600080fd5b5061012d6102c7366004612ca0565b6121af565b3480156102d857600080fd5b506101656102e7366004612b48565b6121f4565b60408051600580825260c08201909252600091816020015b61030c612ad3565b81526020019060019003908161030457905050905061033f60006006600060405180602001604052806000815250612200565b8160008151811061035257610352612f9f565b60200260200101819052506103796001600060405180602001604052806000815250612237565b8160018151811061038c5761038c612f9f565b60200260200101819052506103b36002600060405180602001604052806000815250612237565b816002815181106103c6576103c6612f9f565b60200260200101819052506103ed6004600060405180602001604052806000815250612237565b8160038151811061040057610400612f9f565b60200260200101819052506104276003600060405180602001604052806000815250612237565b8160048151811061043a5761043a612f9f565b602002602001018190525060006040518060600160405280600063ffffffff168152602001856001600160a01b03168152602001627a120063ffffffff16815250905060006040518061012001604052806002805461049890612fb5565b80601f01602080910402602001604051908101604052809291908181526020018280546104c490612fb5565b80156105115780601f106104e657610100808354040283529160200191610511565b820191906000526020600020905b8154815290600101906020018083116104f457829003601f168201915b505050505081526020016003805461052890612fb5565b80601f016020809104026020016040519081016040528092919081815260200182805461055490612fb5565b80156105a15780601f10610576576101008083540402835291602001916105a1565b820191906000526020600020905b81548152906001019060200180831161058457829003601f168201915b50505050508152602001866001600160a01b03168152602001600480546105c790612fb5565b80601f01602080910402602001604051908101604052809291908181526020018280546105f390612fb5565b80156106405780601f1061061557610100808354040283529160200191610640565b820191906000526020600020905b81548152906001019060200180831161062357829003601f168201915b5050509183525050600160208201819052600554600160401b810460070b6040840152600160a01b900460ff16151560608301526080820186905260a09091018490529091506000906040519080825280602002602001820160405280156106e257816020015b6040805160a0810182526000808252602080830182905292820181905260608201819052608082015282526000199092019101816106a75790505b506040805160a081018252600181526001600160a01b0380891660208301526000928201839052606082018390528916608082015282519293509183919061072c5761072c612f9f565b6020908102919091010152604080516001808252818301909252600091816020015b6040805160c08101825260008082526020808301829052928201819052606082018190526080820181905260a0820152825260001990920191018161074e5790505090506040518060c00160405280600463ffffffff168152602001600563ffffffff168152602001600a63ffffffff168152602001876001600160a01b03168152602001600015158152602001886001600160a01b0316815250816000815181106107fc576107fc612f9f565b602002602001018190525060008061081585858561226c565b90925090506016821461082757600080fd5b6040516001600160a01b03821681527f7bb17726df1f3adee8aa00ba8e8bc5d6f182af3bbf77604639cb7f008dd3b4ed9060200160405180910390a1505050505050505050565b600061087a838361239a565b604051600782900b81529091507f90a5cf4cffe88b4edbb041cfc7a8a812c48a5ec30b84640fb37690875168e3aa9060200160405180910390a1600781900b6016146108c557600080fd5b92915050565b60006108d7838361247d565b90507f90a5cf4cffe88b4edbb041cfc7a8a812c48a5ec30b84640fb37690875168e3aa8160405161090a91815260200190565b60405180910390a1601681146108c557600080fd5b6040516001600160a01b038581166024830152848116604483015283166064820152608481018290526000908190819061016790639b23d3d960e01b9060a4015b60408051601f198184030181529181526020820180516001600160e01b03166001600160e01b031990941693909317909252905161099e9190613020565b600060405180830381855af49150503d80600081146109d9576040519150601f19603f3d011682016040523d82523d6000602084013e6109de565b606091505b5091509150816109ef576015610a03565b80806020019051810190610a039190613053565b60030b979650505050505050565b6040516001600160a01b038581166024830152848116604483015283166064820152608481018290526000908190819061016790630aed65f560e11b9060a4015b60408051601f198184030181529181526020820180516001600160e01b03166001600160e01b0319909416939093179092529051610a909190613020565b6000604051808303816000865af19150503d80600081146109d9576040519150601f19603f3d011682016040523d82523d6000602084013e6109de565b6000806060610add8686866124a9565b60405183815292955090935091507f90a5cf4cffe88b4edbb041cfc7a8a812c48a5ec30b84640fb37690875168e3aa9060200160405180910390a160168314610b2557600080fd5b7feff23992f47b3c101679f8b4dc9d3e242c903909dba4a453f2b2341ad463b0e28282604051610b5692919061306e565b60405180910390a1610b8486303384600081518110610b7757610b77612f9f565b60200260200101516125a7565b5093509350939050565b60408051600580825260c08201909252600091816020015b610bae612ad3565b815260200190600190039081610ba6579050509050610be160006006600060405180602001604052806000815250612200565b81600081518110610bf457610bf4612f9f565b6020026020010181905250610c1b6001600060405180602001604052806000815250612237565b81600181518110610c2e57610c2e612f9f565b6020026020010181905250610c556002600060405180602001604052806000815250612237565b81600281518110610c6857610c68612f9f565b6020026020010181905250610c8f6003600060405180602001604052806000815250612237565b81600381518110610ca257610ca2612f9f565b6020026020010181905250610cc96004600060405180602001604052806000815250612237565b81600481518110610cdc57610cdc612f9f565b602002602001018190525060006040518060600160405280600063ffffffff168152602001846001600160a01b03168152602001627a120063ffffffff168152509050600060405180610120016040528060028054610d3a90612fb5565b80601f0160208091040260200160405190810160405280929190818152602001828054610d6690612fb5565b8015610db35780601f10610d8857610100808354040283529160200191610db3565b820191906000526020600020905b815481529060010190602001808311610d9657829003601f168201915b5050505050815260200160038054610dca90612fb5565b80601f0160208091040260200160405190810160405280929190818152602001828054610df690612fb5565b8015610e435780601f10610e1857610100808354040283529160200191610e43565b820191906000526020600020905b815481529060010190602001808311610e2657829003601f168201915b50505050508152602001856001600160a01b0316815260200160048054610e6990612fb5565b80601f0160208091040260200160405190810160405280929190818152602001828054610e9590612fb5565b8015610ee25780601f10610eb757610100808354040283529160200191610ee2565b820191906000526020600020905b815481529060010190602001808311610ec557829003601f168201915b505050918352505060016020820152600554600160401b810460070b6040830152600160a01b810460ff16151560608301526080820186905260a09091018490529091506000908190610f4f90849067ffffffffffffffff811690600160801b900463ffffffff166125ef565b909250905060168214610f6157600080fd5b6040516001600160a01b03821681527f7bb17726df1f3adee8aa00ba8e8bc5d6f182af3bbf77604639cb7f008dd3b4ed9060200160405180910390a1505050505050565b604051638f74a17b60e01b81526000903090638f74a17b903490610fcf90889088906004016130c5565b6020604051808303818588803b158015610fe857600080fd5b505af1158015610ffc573d6000803e3d6000fd5b50505050506040513d601f19601f8201168201806040525081019061102191906130e7565b60405163f4a01e5b60e01b81523360048201526001600160a01b0382166024820152909150309063f4a01e5b90604401602060405180830381600087803b15801561106b57600080fd5b505af115801561107f573d6000803e3d6000fd5b505050506040513d601f19601f820116820180604052508101906110a39190613104565b506040516307e9300f60e11b81526001600160a01b03821660048201523360248201523090630fd2601e90604401602060405180830381600087803b1580156110eb57600080fd5b505af11580156110ff573d6000803e3d6000fd5b505050506040513d601f19601f82011682018060405250810190611123919061311d565b5061113081303385612662565b5050505050565b60008060606111478686866124a9565b60405183815292955090935091507f90a5cf4cffe88b4edbb041cfc7a8a812c48a5ec30b84640fb37690875168e3aa9060200160405180910390a16016831461118f57600080fd5b7feff23992f47b3c101679f8b4dc9d3e242c903909dba4a453f2b2341ad463b0e282826040516111c092919061306e565b60405180910390a193509350939050565b604080516001808252818301909252600091816020015b6111f0612ad3565b8152602001906001900390816111e8579050509050611222600080600060405180602001604052806000815250612200565b8160008151811061123557611235612f9f565b602002602001018190525060006040518060600160405280600063ffffffff168152602001856001600160a01b03168152602001627a120063ffffffff16815250905060006040518061012001604052806002805461129390612fb5565b80601f01602080910402602001604051908101604052809291908181526020018280546112bf90612fb5565b801561130c5780601f106112e15761010080835404028352916020019161130c565b820191906000526020600020905b8154815290600101906020018083116112ef57829003601f168201915b505050505081526020016003805461132390612fb5565b80601f016020809104026020016040519081016040528092919081815260200182805461134f90612fb5565b801561139c5780601f106113715761010080835404028352916020019161139c565b820191906000526020600020905b81548152906001019060200180831161137f57829003601f168201915b50505050508152602001866001600160a01b03168152602001600480546113c290612fb5565b80601f01602080910402602001604051908101604052809291908181526020018280546113ee90612fb5565b801561143b5780601f106114105761010080835404028352916020019161143b565b820191906000526020600020905b81548152906001019060200180831161141e57829003601f168201915b5050509183525050600160208201819052600554600160401b900460070b6040808401919091526000606084018190526080840188905260a09093018690528051828152808201909152929350909190816020015b6040805160a0810182526000808252602080830182905292820181905260608201819052608082015282526000199092019101816114905750506040805160a081018252600181526001600160a01b0388811660208301526000928201839052606082018390528916608082015282519293509183919061151357611513612f9f565b6020908102919091010152604080516001808252818301909252600091816020015b6040805160c08101825260008082526020808301829052928201819052606082018190526080820181905260a082015282526000199092019101816115355750506040805160c0810182526004815260056020820152600a91810191909152601e60608201526000608082018190526001600160a01b038a1660a0830152825192935090918391906115c9576115c9612f9f565b6020908102919091010152600554600090819061160290869067ffffffffffffffff811690600160801b900463ffffffff1687876126aa565b915091507f90a5cf4cffe88b4edbb041cfc7a8a812c48a5ec30b84640fb37690875168e3aa8260405161163791815260200190565b60405180910390a16016821461082757600080fd5b60408051600580825260c08201909252600091829190816020015b61166f612ad3565b81526020019060019003908161166757905050905061169360006006600386612200565b816000815181106116a6576116a6612f9f565b60200260200101819052506116be6001600385612237565b816001815181106116d1576116d1612f9f565b60200260200101819052506116e96002600385612237565b816002815181106116fc576116fc612f9f565b60200260200101819052506117146004600385612237565b8160038151811061172757611727612f9f565b602002602001018190525061173e60038085612237565b8160048151811061175157611751612f9f565b602002602001018190525060006040518060600160405280600063ffffffff168152602001866001600160a01b03168152602001627a120063ffffffff1681525090506000604051806101200160405280600280546117af90612fb5565b80601f01602080910402602001604051908101604052809291908181526020018280546117db90612fb5565b80156118285780601f106117fd57610100808354040283529160200191611828565b820191906000526020600020905b81548152906001019060200180831161180b57829003601f168201915b505050505081526020016003805461183f90612fb5565b80601f016020809104026020016040519081016040528092919081815260200182805461186b90612fb5565b80156118b85780601f1061188d576101008083540402835291602001916118b8565b820191906000526020600020905b81548152906001019060200180831161189b57829003601f168201915b50505050508152602001876001600160a01b03168152602001600480546118de90612fb5565b80601f016020809104026020016040519081016040528092919081815260200182805461190a90612fb5565b80156119575780601f1061192c57610100808354040283529160200191611957565b820191906000526020600020905b81548152906001019060200180831161193a57829003601f168201915b505050918352505060016020820152600554600160401b810460070b6040830152600160a01b810460ff16151560608301526080820186905260a090910184905290915060009081906119c490849067ffffffffffffffff811690600160801b900463ffffffff166125ef565b9092509050601682146119d657600080fd5b6040516001600160a01b03821681527f7bb17726df1f3adee8aa00ba8e8bc5d6f182af3bbf77604639cb7f008dd3b4ed9060200160405180910390a1979650505050505050565b6040516001600160a01b038581166024830152848116604483015283166064820152608481018290526000908190819061016790639b23d3d960e01b9060a401610a52565b60408051600580825260c08201909252600091816020015b611a82612ad3565b815260200190600190039081611a7a579050509050611aa660006006600385612200565b81600081518110611ab957611ab9612f9f565b6020026020010181905250611ad16001600384612237565b81600181518110611ae457611ae4612f9f565b6020026020010181905250611afc6002600384612237565b81600281518110611b0f57611b0f612f9f565b6020026020010181905250611b276004600384612237565b81600381518110611b3a57611b3a612f9f565b6020026020010181905250611b5160038084612237565b81600481518110611b6457611b64612f9f565b602002602001018190525060006040518060600160405280600063ffffffff168152602001856001600160a01b03168152602001627a120063ffffffff168152509050600060405180610120016040528060028054611bc290612fb5565b80601f0160208091040260200160405190810160405280929190818152602001828054611bee90612fb5565b8015611c3b5780601f10611c1057610100808354040283529160200191611c3b565b820191906000526020600020905b815481529060010190602001808311611c1e57829003601f168201915b5050505050815260200160038054611c5290612fb5565b80601f0160208091040260200160405190810160405280929190818152602001828054611c7e90612fb5565b8015611ccb5780601f10611ca057610100808354040283529160200191611ccb565b820191906000526020600020905b815481529060010190602001808311611cae57829003601f168201915b50505050508152602001866001600160a01b0316815260200160048054611cf190612fb5565b80601f0160208091040260200160405190810160405280929190818152602001828054611d1d90612fb5565b8015611d6a5780601f10611d3f57610100808354040283529160200191611d6a565b820191906000526020600020905b815481529060010190602001808311611d4d57829003601f168201915b505050918352505060016020820152600554600160401b810460070b6040830152600160a01b900460ff16151560608201526080810185905260a0018390529050600080611db7836127de565b909250905060168214611dc957600080fd5b6040516001600160a01b03821681527f7bb17726df1f3adee8aa00ba8e8bc5d6f182af3bbf77604639cb7f008dd3b4ed9060200160405180910390a150505050505050565b60408051600580825260c08201909252600091816020015b611e2e612ad3565b815260200190600190039081611e26579050509050611e6160006006600060405180602001604052806000815250612200565b81600081518110611e7457611e74612f9f565b6020026020010181905250611e9b6001600060405180602001604052806000815250612237565b81600181518110611eae57611eae612f9f565b6020026020010181905250611ed56002600060405180602001604052806000815250612237565b81600281518110611ee857611ee8612f9f565b6020026020010181905250611f0f6004600060405180602001604052806000815250612237565b81600381518110611f2257611f22612f9f565b6020026020010181905250611f496003600060405180602001604052806000815250612237565b81600481518110611f5c57611f5c612f9f565b602002602001018190525060006040518060600160405280600063ffffffff168152602001846001600160a01b03168152602001627a120063ffffffff168152509050600060405180610120016040528060028054611fba90612fb5565b80601f0160208091040260200160405190810160405280929190818152602001828054611fe690612fb5565b80156120335780601f1061200857610100808354040283529160200191612033565b820191906000526020600020905b81548152906001019060200180831161201657829003601f168201915b505050505081526020016003805461204a90612fb5565b80601f016020809104026020016040519081016040528092919081815260200182805461207690612fb5565b80156120c35780601f10612098576101008083540402835291602001916120c3565b820191906000526020600020905b8154815290600101906020018083116120a657829003601f168201915b50505050508152602001856001600160a01b03168152602001600480546120e990612fb5565b80601f016020809104026020016040519081016040528092919081815260200182805461211590612fb5565b80156121625780601f1061213757610100808354040283529160200191612162565b820191906000526020600020905b81548152906001019060200180831161214557829003601f168201915b505050918352505060016020820152600554600160401b810460070b6040830152600160a01b900460ff16151560608201526080810185905260a0018390529050600080610f4f836127de565b6040516001600160a01b038581166024830152848116604483015283166064820152608481018290526000908190819061016790630aed65f560e11b9060a401610960565b60006108d78383612906565b612208612ad3565b604051806040016040528061221d878761293c565b815260200161222c858561297e565b905295945050505050565b61223f612ad3565b604051806040016040528061225386612a94565b8152602001612262858561297e565b9052949350505050565b600080848061010001516000015163ffffffff16600014801561229c57506101008101516040015163ffffffff16155b156122b2576101008101516276a7006040909101525b6000806101676001600160a01b031634634573396960e01b8a8a8a6040516024016122df9392919061336e565b60408051601f198184030181529181526020820180516001600160e01b03166001600160e01b031990941693909317909252905161231d9190613020565b60006040518083038185875af1925050503d806000811461235a576040519150601f19603f3d011682016040523d82523d6000602084013e61235f565b606091505b5091509150816123725760156000612386565b808060200190518101906123869190613427565b60039190910b999098509650505050505050565b6040516001600160a01b038381166024830152821660448201526000908190819061016790638f8d7f9960e01b906064015b60408051601f198184030181529181526020820180516001600160e01b03166001600160e01b031990941693909317909252905161240a9190613020565b6000604051808303816000865af19150503d8060008114612447576040519150601f19603f3d011682016040523d82523d6000602084013e61244c565b606091505b50915091508161245d576015612471565b808060200190518101906124719190613053565b60030b95945050505050565b60008060006101676001600160a01b0316632e63879b60e01b86866040516024016123cc929190613453565b60008060606000806101676001600160a01b031663278e0b8860e01b8989896040516024016124da939291906134ae565b60408051601f198184030181529181526020820180516001600160e01b03166001600160e01b03199094169390931790925290516125189190613020565b6000604051808303816000865af19150503d8060008114612555576040519150601f19603f3d011682016040523d82523d6000602084013e61255a565b606091505b50915091508161257d576040805160008082526020820190925260159190612591565b808060200190518101906125919190613532565b60039290920b9a90995090975095505050505050565b6040516001600160a01b038581166024830152848116604483015283166064820152600782900b60848201526000908190819061016790635cfc901160e01b9060a401610a52565b600080848061010001516000015163ffffffff16600014801561261f57506101008101516040015163ffffffff16155b15612635576101008101516276a7006040909101525b6000806101676001600160a01b03163463c23baeb660e01b8a8a8a6040516024016122df939291906135f2565b6040516001600160a01b038581166024830152848116604483015283166064820152600782900b6084820152600090819081906101679063eca3691760e01b9060a401610a52565b600080868061010001516000015163ffffffff1660001480156126da57506101008101516040015163ffffffff16155b156126f0576101008101516276a7006040909101525b6000806101676001600160a01b03163463b937581a60e01b8c8c8c8c8c60405160240161272195949392919061362b565b60408051601f198184030181529181526020820180516001600160e01b03166001600160e01b031990941693909317909252905161275f9190613020565b60006040518083038185875af1925050503d806000811461279c576040519150601f19603f3d011682016040523d82523d6000602084013e6127a1565b606091505b5091509150816127b457601560006127c8565b808060200190518101906127c89190613427565b60039190910b9b909a5098505050505050505050565b600080828061010001516000015163ffffffff16600014801561280e57506101008101516040015163ffffffff16155b15612824576101008101516276a7006040909101525b6000806101676001600160a01b031634639c89bb3560e01b8860405160240161284d91906136fd565b60408051601f198184030181529181526020820180516001600160e01b03166001600160e01b031990941693909317909252905161288b9190613020565b60006040518083038185875af1925050503d80600081146128c8576040519150601f19603f3d011682016040523d82523d6000602084013e6128cd565b606091505b5091509150816128e057601560006128f4565b808060200190518101906128f49190613427565b60039190910b97909650945050505050565b6040516001600160a01b03838116602483015282166044820152600090819081906101679063248a35ef60e11b906064016123cc565b600061296083600681111561295357612953613710565b600160ff9091161b821790565b905061297782600681111561295357612953613710565b9392505050565b6129c46040518060a0016040528060001515815260200160006001600160a01b03168152602001606081526020016060815260200160006001600160a01b031681525090565b60008360048111156129d8576129d8613710565b14156129e757600181526108c5565b60018360048111156129fb576129fb613710565b1415612a17576000546001600160a01b031660208201526108c5565b6002836004811115612a2b57612a2b613710565b1415612a3d57604081018290526108c5565b6003836004811115612a5157612a51613710565b1415612a6357606081018290526108c5565b6004836004811115612a7757612a77613710565b14156108c5576000546001600160a01b0316608082015292915050565b600060016000836006811115612aac57612aac613710565b6006811115612abd57612abd613710565b8152602001908152602001600020549050919050565b604051806040016040528060008152602001612b2b6040518060a0016040528060001515815260200160006001600160a01b03168152602001606081526020016060815260200160006001600160a01b031681525090565b905290565b6001600160a01b0381168114612b4557600080fd5b50565b60008060408385031215612b5b57600080fd5b8235612b6681612b30565b91506020830135612b7681612b30565b809150509250929050565b634e487b7160e01b600052604160045260246000fd5b604051601f8201601f1916810167ffffffffffffffff81118282101715612bc057612bc0612b81565b604052919050565b600067ffffffffffffffff821115612be257612be2612b81565b5060051b60200190565b60008060408385031215612bff57600080fd5b8235612c0a81612b30565b915060208381013567ffffffffffffffff811115612c2757600080fd5b8401601f81018613612c3857600080fd5b8035612c4b612c4682612bc8565b612b97565b81815260059190911b82018301908381019088831115612c6a57600080fd5b928401925b82841015612c91578335612c8281612b30565b82529284019290840190612c6f565b80955050505050509250929050565b60008060008060808587031215612cb657600080fd5b8435612cc181612b30565b93506020850135612cd181612b30565b92506040850135612ce181612b30565b9396929550929360600135925050565b67ffffffffffffffff81168114612b4557600080fd5b600082601f830112612d1857600080fd5b813567ffffffffffffffff811115612d3257612d32612b81565b612d45601f8201601f1916602001612b97565b818152846020838601011115612d5a57600080fd5b816020850160208301376000918101602001919091529392505050565b600080600060608486031215612d8c57600080fd5b8335612d9781612b30565b9250602084810135612da881612cf1565b9250604085013567ffffffffffffffff80821115612dc557600080fd5b818701915087601f830112612dd957600080fd5b8135612de7612c4682612bc8565b81815260059190911b8301840190848101908a831115612e0657600080fd5b8585015b83811015612e3e57803585811115612e225760008081fd5b612e308d89838a0101612d07565b845250918601918601612e0a565b508096505050505050509250925092565b600081518084526020808501945080840160005b83811015612e8257815160070b87529582019590820190600101612e63565b509495945050505050565b83815267ffffffffffffffff83166020820152606060408201526000612eb66060830184612e4f565b95945050505050565b600060208284031215612ed157600080fd5b813561297781612b30565b8060070b8114612b4557600080fd5b600080600060608486031215612f0057600080fd5b8335612f0b81612b30565b9250602084013567ffffffffffffffff811115612f2757600080fd5b612f3386828701612d07565b9250506040840135612f4481612edc565b809150509250925092565b60008060408385031215612f6257600080fd5b8235612f6d81612b30565b9150602083013567ffffffffffffffff811115612f8957600080fd5b612f9585828601612d07565b9150509250929050565b634e487b7160e01b600052603260045260246000fd5b600181811c90821680612fc957607f821691505b60208210811415612fea57634e487b7160e01b600052602260045260246000fd5b50919050565b60005b8381101561300b578181015183820152602001612ff3565b8381111561301a576000848401525b50505050565b60008251613032818460208701612ff0565b9190910192915050565b8051600381900b811461304e57600080fd5b919050565b60006020828403121561306557600080fd5b6129778261303c565b67ffffffffffffffff831681526040602082015260006130916040830184612e4f565b949350505050565b600081518084526130b1816020860160208601612ff0565b601f01601f19169290920160200192915050565b6001600160a01b03831681526040602082015260006130916040830184613099565b6000602082840312156130f957600080fd5b815161297781612b30565b60006020828403121561311657600080fd5b5051919050565b60006020828403121561312f57600080fd5b815161297781612edc565b600081518084526020808501808196508360051b8101915082860160005b858110156131f15782840389528151604081518652868201519150808787015281511515818701528682015160606001600160a01b03808316828a015283850151935060a09250608083818b01526131b360e08b0186613099565b928601518a8403603f1901858c01529294506131cf8584613099565b9501511660c09890980197909752505098850198935090840190600101613158565b5091979650505050505050565b6000610160825181855261321482860182613099565b9150506020830151848203602086015261322e8282613099565b915050604083015161324b60408601826001600160a01b03169052565b50606083015184820360608601526132638282613099565b9150506080830151613279608086018215159052565b5060a083015161328e60a086018260070b9052565b5060c08301516132a260c086018215159052565b5060e083015184820360e08601526132ba828261313a565b61010085810151805163ffffffff9081168984015260208201516001600160a01b03166101208a015260408201511661014089015291935091505090949350505050565b600081518084526020808501945080840160005b83811015612e82578151805163ffffffff168852838101516001600160a01b03908116858a01526040808301511515908a01526060808301511515908a0152608091820151169088015260a09096019590820190600101613312565b60006060808352613381818401876131fe565b60208482038186015261339482886132fe565b91506040858303818701528287518085528385019150838901945060005b81811015613417578551805163ffffffff908116855286820151811687860152858201511685850152878101516001600160a01b039081168986015260808083015115159086015260a09182015116908401529484019460c0909201916001016133b2565b50909a9950505050505050505050565b6000806040838503121561343a57600080fd5b6134438361303c565b91506020830151612b7681612b30565b6000604082016001600160a01b0380861684526020604081860152828651808552606087019150828801945060005b818110156134a0578551851683529483019491830191600101613482565b509098975050505050505050565b6000606082016001600160a01b0386168352602067ffffffffffffffff8616818501526060604085015281855180845260808601915060808160051b870101935082870160005b8281101561352357607f19888703018452613511868351613099565b955092840192908401906001016134f5565b50939998505050505050505050565b60008060006060848603121561354757600080fd5b6135508461303c565b925060208085015161356181612cf1565b604086015190935067ffffffffffffffff81111561357e57600080fd5b8501601f8101871361358f57600080fd5b805161359d612c4682612bc8565b81815260059190911b820183019083810190898311156135bc57600080fd5b928401925b828410156135e35783516135d481612edc565b825292840192908401906135c1565b80955050505050509250925092565b60608152600061360560608301866131fe565b905067ffffffffffffffff8416602083015263ffffffff83166040830152949350505050565b600060a080835261363e818401896131fe565b602067ffffffffffffffff891681860152604063ffffffff808a1682880152606087850381890152613670858b6132fe565b94506080888603818a0152858a518088528688019150868c01975060005b818110156136e8578851805187168452888101518716898501528781015187168885015285810151871686850152848101511515858501528a01516001600160a01b03168a8401529787019760c09092019160010161368e565b50909f9e505050505050505050505050505050565b60208152600061297760208301846131fe565b634e487b7160e01b600052602160045260246000fdfea264697066735822122049dddd00a45ee42e67c556e3bd49f2b63161bd1a3f19e36165e0d268365eb65564736f6c63430008090033",
  "linkReferences": {},
  "deployedLinkReferences": {}
}