{
  "_format": "hh-sol-artifact-1",
  "contractName": "TokenCreateContract",
  "sourceName": "contracts/hts-precompile/examples/token-create/TokenCreateContract.sol",
  "abi": [
    {
      "anonymous": false,
      "inputs": [
        {
          "indexed": false,
          "internalType": "address",
          "name": "tokenAddress",
          "type": "address"
        }
      ],
      "name": "CreatedToken",
      "type": "event"
    },
    {
      "anonymous": false,
      "inputs": [
        {
          "indexed": false,
          "internalType": "bool",
          "name": "kycGranted",
          "type": "bool"
        }
      ],
      "name": "KycGranted",
      "type": "event"
    },
    {
      "anonymous": false,
      "inputs": [
        {
          "indexed": false,
          "internalType": "int64",
          "name": "newTotalSupply",
          "type": "int64"
        },
        {
          "indexed": false,
          "internalType": "int64[]",
          "name": "serialNumbers",
          "type": "int64[]"
        }
      ],
      "name": "MintedToken",
      "type": "event"
    },
    {
      "anonymous": false,
      "inputs": [
        {
          "indexed": false,
          "internalType": "int256",
          "name": "responseCode",
          "type": "int256"
        }
      ],
      "name": "ResponseCode",
      "type": "event"
    },
    {
      "inputs": [
        {
          "internalType": "address",
          "name": "account",
          "type": "address"
        },
        {
          "internalType": "address",
          "name": "token",
          "type": "address"
        }
      ],
      "name": "associateTokenPublic",
      "outputs": [
        {
          "internalType": "int256",
          "name": "responseCode",
          "type": "int256"
        }
      ],
      "stateMutability": "nonpayable",
      "type": "function"
    },
    {
      "inputs": [
        {
          "internalType": "address",
          "name": "account",
          "type": "address"
        },
        {
          "internalType": "address[]",
          "name": "tokens",
          "type": "address[]"
        }
      ],
      "name": "associateTokensPublic",
      "outputs": [
        {
          "internalType": "int256",
          "name": "responseCode",
          "type": "int256"
        }
      ],
      "stateMutability": "nonpayable",
      "type": "function"
    },
    {
      "inputs": [
        {
          "internalType": "address",
          "name": "treasury",
          "type": "address"
        }
      ],
      "name": "createFungibleTokenPublic",
      "outputs": [],
      "stateMutability": "payable",
      "type": "function"
    },
    {
      "inputs": [
        {
          "internalType": "address",
          "name": "treasury",
          "type": "address"
        },
        {
          "internalType": "address",
          "name": "fixedFeeTokenAddress",
          "type": "address"
        }
      ],
      "name": "createFungibleTokenWithCustomFeesPublic",
      "outputs": [],
      "stateMutability": "payable",
      "type": "function"
    },
    {
      "inputs": [
        {
          "internalType": "address",
          "name": "treasury",
          "type": "address"
        },
        {
          "internalType": "bytes",
          "name": "adminKey",
          "type": "bytes"
        },
        {
          "internalType": "int64",
          "name": "amount",
          "type": "int64"
        }
      ],
      "name": "createFungibleTokenWithSECP256K1AdminKeyAssociateAndTransferToAddressPublic",
      "outputs": [],
      "stateMutability": "payable",
      "type": "function"
    },
    {
      "inputs": [
        {
          "internalType": "address",
          "name": "treasury",
          "type": "address"
        },
        {
          "internalType": "bytes",
          "name": "adminKey",
          "type": "bytes"
        }
      ],
      "name": "createFungibleTokenWithSECP256K1AdminKeyPublic",
      "outputs": [
        {
          "internalType": "address",
          "name": "",
          "type": "address"
        }
      ],
      "stateMutability": "payable",
      "type": "function"
    },
    {
      "inputs": [
        {
          "internalType": "address",
          "name": "treasury",
          "type": "address"
        },
        {
          "internalType": "bytes",
          "name": "adminKey",
          "type": "bytes"
        }
      ],
      "name": "createFungibleTokenWithSECP256K1AdminKeyWithoutKYCPublic",
      "outputs": [
        {
          "internalType": "address",
          "name": "",
          "type": "address"
        }
      ],
      "stateMutability": "payable",
      "type": "function"
    },
    {
      "inputs": [
        {
          "internalType": "address",
          "name": "treasury",
          "type": "address"
        }
      ],
      "name": "createNonFungibleTokenPublic",
      "outputs": [],
      "stateMutability": "payable",
      "type": "function"
    },
    {
      "inputs": [
        {
          "internalType": "address",
          "name": "treasury",
          "type": "address"
        },
        {
          "internalType": "address",
          "name": "fixedFeeTokenAddress",
          "type": "address"
        }
      ],
      "name": "createNonFungibleTokenWithCustomFeesPublic",
      "outputs": [],
      "stateMutability": "payable",
      "type": "function"
    },
    {
      "inputs": [
        {
          "internalType": "address",
          "name": "treasury",
          "type": "address"
        },
        {
          "internalType": "bytes",
          "name": "adminKey",
          "type": "bytes"
        }
      ],
      "name": "createNonFungibleTokenWithSECP256K1AdminKeyPublic",
      "outputs": [],
      "stateMutability": "payable",
      "type": "function"
    },
    {
      "inputs": [
        {
          "internalType": "address",
          "name": "treasury",
          "type": "address"
        },
        {
          "internalType": "bytes",
          "name": "adminKey",
          "type": "bytes"
        }
      ],
      "name": "createNonFungibleTokenWithSECP256K1AdminKeyWithoutKYCPublic",
      "outputs": [],
      "stateMutability": "payable",
      "type": "function"
    },
    {
      "inputs": [
        {
          "internalType": "address",
          "name": "token",
          "type": "address"
        },
        {
          "internalType": "address",
          "name": "from",
          "type": "address"
        },
        {
          "internalType": "address",
          "name": "to",
          "type": "address"
        },
        {
          "internalType": "uint256",
          "name": "amount",
          "type": "uint256"
        }
      ],
      "name": "delegateTransferFrom",
      "outputs": [
        {
          "internalType": "int64",
          "name": "responseCode",
          "type": "int64"
        }
      ],
      "stateMutability": "nonpayable",
      "type": "function"
    },
    {
      "inputs": [
        {
          "internalType": "address",
          "name": "token",
          "type": "address"
        },
        {
          "internalType": "address",
          "name": "from",
          "type": "address"
        },
        {
          "internalType": "address",
          "name": "to",
          "type": "address"
        },
        {
          "internalType": "uint256",
          "name": "serialNumber",
          "type": "uint256"
        }
      ],
      "name": "delegateTransferFromNFT",
      "outputs": [
        {
          "internalType": "int64",
          "name": "responseCode",
          "type": "int64"
        }
      ],
      "stateMutability": "nonpayable",
      "type": "function"
    },
    {
      "inputs": [
        {
          "internalType": "address",
          "name": "token",
          "type": "address"
        },
        {
          "internalType": "address",
          "name": "account",
          "type": "address"
        }
      ],
      "name": "grantTokenKycPublic",
      "outputs": [
        {
          "internalType": "int64",
          "name": "responseCode",
          "type": "int64"
        }
      ],
      "stateMutability": "nonpayable",
      "type": "function"
    },
    {
      "inputs": [
        {
          "internalType": "address",
          "name": "token",
          "type": "address"
        },
        {
          "internalType": "int64",
          "name": "amount",
          "type": "int64"
        },
        {
          "internalType": "bytes[]",
          "name": "metadata",
          "type": "bytes[]"
        }
      ],
      "name": "mintTokenPublic",
      "outputs": [
        {
          "internalType": "int256",
          "name": "responseCode",
          "type": "int256"
        },
        {
          "internalType": "int64",
          "name": "newTotalSupply",
          "type": "int64"
        },
        {
          "internalType": "int64[]",
          "name": "serialNumbers",
          "type": "int64[]"
        }
      ],
      "stateMutability": "nonpayable",
      "type": "function"
    },
    {
      "inputs": [
        {
          "internalType": "address",
          "name": "token",
          "type": "address"
        },
        {
          "internalType": "int64",
          "name": "amount",
          "type": "int64"
        },
        {
          "internalType": "bytes[]",
          "name": "metadata",
          "type": "bytes[]"
        }
      ],
      "name": "mintTokenToAddressPublic",
      "outputs": [
        {
          "internalType": "int256",
          "name": "responseCode",
          "type": "int256"
        },
        {
          "internalType": "int64",
          "name": "newTotalSupply",
          "type": "int64"
        },
        {
          "internalType": "int64[]",
          "name": "serialNumbers",
          "type": "int64[]"
        }
      ],
      "stateMutability": "nonpayable",
      "type": "function"
    },
    {
      "inputs": [
        {
          "internalType": "address",
          "name": "token",
          "type": "address"
        },
        {
          "internalType": "address",
          "name": "from",
          "type": "address"
        },
        {
          "internalType": "address",
          "name": "to",
          "type": "address"
        },
        {
          "internalType": "uint256",
          "name": "amount",
          "type": "uint256"
        }
      ],
      "name": "transferFrom",
      "outputs": [
        {
          "internalType": "int64",
          "name": "responseCode",
          "type": "int64"
        }
      ],
      "stateMutability": "nonpayable",
      "type": "function"
    },
    {
      "inputs": [
        {
          "internalType": "address",
          "name": "token",
          "type": "address"
        },
        {
          "internalType": "address",
          "name": "from",
          "type": "address"
        },
        {
          "internalType": "address",
          "name": "to",
          "type": "address"
        },
        {
          "internalType": "uint256",
          "name": "serialNumber",
          "type": "uint256"
        }
      ],
      "name": "transferFromNFT",
      "outputs": [
        {
          "internalType": "int64",
          "name": "responseCode",
          "type": "int64"
        }
      ],
      "stateMutability": "nonpayable",
      "type": "function"
    },
    {
      "inputs": [
        {
          "internalType": "address",
          "name": "token",
          "type": "address"
        },
        {
          "components": [
            {
              "internalType": "string",
              "name": "name",
              "type": "string"
            },
            {
              "internalType": "string",
              "name": "symbol",
              "type": "string"
            },
            {
              "internalType": "address",
              "name": "treasury",
              "type": "address"
            },
            {
              "internalType": "string",
              "name": "memo",
              "type": "string"
            },
            {
              "internalType": "bool",
              "name": "tokenSupplyType",
              "type": "bool"
            },
            {
              "internalType": "int64",
              "name": "maxSupply",
              "type": "int64"
            },
            {
              "internalType": "bool",
              "name": "freezeDefault",
              "type": "bool"
            },
            {
              "components": [
                {
                  "internalType": "uint256",
                  "name": "keyType",
                  "type": "uint256"
                },
                {
                  "components": [
                    {
                      "internalType": "bool",
                      "name": "inheritAccountKey",
                      "type": "bool"
                    },
                    {
                      "internalType": "address",
                      "name": "contractId",
                      "type": "address"
                    },
                    {
                      "internalType": "bytes",
                      "name": "ed25519",
                      "type": "bytes"
                    },
                    {
                      "internalType": "bytes",
                      "name": "ECDSA_secp256k1",
                      "type": "bytes"
                    },
                    {
                      "internalType": "address",
                      "name": "delegatableContractId",
                      "type": "address"
                    }
                  ],
                  "internalType": "struct IHederaTokenService.KeyValue",
                  "name": "key",
                  "type": "tuple"
                }
              ],
              "internalType": "struct IHederaTokenService.TokenKey[]",
              "name": "tokenKeys",
              "type": "tuple[]"
            },
            {
              "components": [
                {
                  "internalType": "int64",
                  "name": "second",
                  "type": "int64"
                },
                {
                  "internalType": "address",
                  "name": "autoRenewAccount",
                  "type": "address"
                },
                {
                  "internalType": "int64",
                  "name": "autoRenewPeriod",
                  "type": "int64"
                }
              ],
              "internalType": "struct IHederaTokenService.Expiry",
              "name": "expiry",
              "type": "tuple"
            }
          ],
          "internalType": "struct IHederaTokenService.HederaToken",
          "name": "tokenInfo",
          "type": "tuple"
        }
      ],
      "name": "updateTokenInfoPublic",
      "outputs": [
        {
          "internalType": "int256",
          "name": "responseCode",
          "type": "int256"
        }
      ],
      "stateMutability": "nonpayable",
      "type": "function"
    }
  ],
  "bytecode": "0x60c06040526009608081905268746f6b656e4e616d6560b81b60a09081526200002c9160029190620001cc565b5060408051808201909152600b8082526a1d1bdad95b94de5b589bdb60aa1b60209092019182526200006191600391620001cc565b50604080518082019091526004808252636d656d6f60e01b60209092019182526200008d9181620001cc565b50600580546001600160a81b031916700800000000000003e800000000000003e8179055348015620000be57600080fd5b50600160208181527fa6eef7e35abe7026729641147f7915573c7e97b47efa546f5f6e3230263bcb499190915560027fcc69885fda6bcc1a4ace058b4a62bf5e179ea78fd58a1ccd71c22cc9b688792f5560047fd9d16d34ffb15ba3a3d852f0d403e2ce1d691fb54de27ac87cd2f993f3ec330f5560087f7dfe757ecd65cbd7922a9c0161e935dd7fdbcc0e999689c7d31633896b1fc60b5560107fedc95719e9a3b28dd8e80877cb5880a9be7de1a13fc8b05e7999683b6b567643557fe2689cd4a84e23ad2f564004f1c9013e9589d260bde6380aba3ca7e09e4df40c55600660005260407f8f331abe73332f95a25873e8b430885974c0409691f89d643119a11623a7924a55620002af565b828054620001da9062000272565b90600052602060002090601f016020900481019282620001fe576000855562000249565b82601f106200021957805160ff191683800117855562000249565b8280016001018555821562000249579182015b82811115620002495782518255916020019190600101906200022c565b50620002579291506200025b565b5090565b5b808211156200025757600081556001016200025c565b600181811c908216806200028757607f821691505b60208210811415620002a957634e487b7160e01b600052602260045260246000fd5b50919050565b613ce580620002bf6000396000f3fe6080604052600436106101145760003560e01c80638ba74da0116100a0578063d85f74c111610064578063d85f74c1146102cd578063de84a779146102e0578063e9f7322614610300578063eac6f3fe14610313578063f4a01e5b1461033357600080fd5b80638ba74da0146102495780638f74a17b1461025c5780639b23d3d914610287578063b35d417a146102a7578063cc265af4146102ba57600080fd5b806315dacbea116100e757806315dacbea146101b457806336348de3146101d45780634b5c6687146101f45780634d1769d61461020757806371de37071461023657600080fd5b80630488c939146101195780630fd2601e1461012e578063118741e71461016657806311e1fc0714610194575b600080fd5b61012c610127366004612d48565b610353565b005b34801561013a57600080fd5b5061014e610149366004612d48565b6108c6565b60405160079190910b81526020015b60405180910390f35b34801561017257600080fd5b50610186610181366004612e5c565b610923565b60405190815260200161015d565b3480156101a057600080fd5b5061014e6101af366004612f10565b610977565b3480156101c057600080fd5b5061014e6101cf366004612f10565b610a69565b3480156101e057600080fd5b506101866101ef3660046131d6565b610b25565b61012c61020236600461331e565b610b31565b34801561021357600080fd5b5061022761022236600461333b565b610f39565b60405161015d93929190613451565b61012c61024436600461347c565b610ffa565b61012c610257366004612d48565b61118c565b61026f61026a3660046134e0565b6115f8565b6040516001600160a01b03909116815260200161015d565b34801561029357600080fd5b5061014e6102a2366004612f10565b6119ba565b61012c6102b53660046134e0565b6119ff565b61012c6102c83660046134e0565b611da5565b61012c6102db36600461331e565b611e7c565b3480156102ec57600080fd5b506102276102fb36600461333b565b612217565b61026f61030e3660046134e0565b6122b1565b34801561031f57600080fd5b5061014e61032e366004612f10565b61238b565b34801561033f57600080fd5b5061018661034e366004612d48565b6123d0565b60408051600580825260c08201909252600091816020015b610373612cc3565b81526020019060019003908161036b5790505090506103a6600060066000604051806020016040528060008152506123dc565b816000815181106103b9576103b9613530565b60200260200101819052506103e06001600060405180602001604052806000815250612413565b816001815181106103f3576103f3613530565b602002602001018190525061041a6002600060405180602001604052806000815250612413565b8160028151811061042d5761042d613530565b60200260200101819052506104546004600060405180602001604052806000815250612413565b8160038151811061046757610467613530565b602002602001018190525061048e6003600060405180602001604052806000815250612413565b816004815181106104a1576104a1613530565b602002602001018190525060006040518060600160405280600060070b8152602001856001600160a01b03168152602001627a120060070b81525090506000604051806101200160405280600280546104f990613546565b80601f016020809104026020016040519081016040528092919081815260200182805461052590613546565b80156105725780601f1061054757610100808354040283529160200191610572565b820191906000526020600020905b81548152906001019060200180831161055557829003601f168201915b505050505081526020016003805461058990613546565b80601f01602080910402602001604051908101604052809291908181526020018280546105b590613546565b80156106025780601f106105d757610100808354040283529160200191610602565b820191906000526020600020905b8154815290600101906020018083116105e557829003601f168201915b50505050508152602001866001600160a01b031681526020016004805461062890613546565b80601f016020809104026020016040519081016040528092919081815260200182805461065490613546565b80156106a15780601f10610676576101008083540402835291602001916106a1565b820191906000526020600020905b81548152906001019060200180831161068457829003601f168201915b5050509183525050600160208201819052600554600160401b810460070b6040840152600160a01b900460ff16151560608301526080820186905260a090910184905290915060009060405190808252806020026020018201604052801561074357816020015b6040805160a0810182526000808252602080830182905292820181905260608201819052608082015282526000199092019101816107085790505b506040805160a081018252600181526001600160a01b0380891660208301526000928201839052606082018390528916608082015282519293509183919061078d5761078d613530565b6020908102919091010152604080516001808252818301909252600091816020015b6040805160c08101825260008082526020808301829052928201819052606082018190526080820181905260a082015282526000199092019101816107af5790505090506040518060c00160405280600460070b8152602001600560070b8152602001600a60070b8152602001876001600160a01b03168152602001600015158152602001886001600160a01b03168152508160008151811061085457610854613530565b602002602001018190525060008061086d858585612448565b90925090506016821461087f57600080fd5b6040516001600160a01b03821681527f7bb17726df1f3adee8aa00ba8e8bc5d6f182af3bbf77604639cb7f008dd3b4ed9060200160405180910390a1505050505050505050565b60006108d28383612570565b604051600782900b81529091507f90a5cf4cffe88b4edbb041cfc7a8a812c48a5ec30b84640fb37690875168e3aa9060200160405180910390a1600781900b60161461091d57600080fd5b92915050565b600061092f8383612653565b90507f90a5cf4cffe88b4edbb041cfc7a8a812c48a5ec30b84640fb37690875168e3aa8160405161096291815260200190565b60405180910390a16016811461091d57600080fd5b6040516001600160a01b038581166024830152848116604483015283166064820152608481018290526000908190819061016790639b23d3d960e01b9060a4015b60408051601f198184030181529181526020820180516001600160e01b03166001600160e01b03199094169390931790925290516109f691906135b1565b600060405180830381855af49150503d8060008114610a31576040519150601f19603f3d011682016040523d82523d6000602084013e610a36565b606091505b509150915081610a47576015610a5b565b80806020019051810190610a5b91906135df565b60030b979650505050505050565b6040516001600160a01b038581166024830152848116604483015283166064820152608481018290526000908190819061016790630aed65f560e11b9060a4015b60408051601f198184030181529181526020820180516001600160e01b03166001600160e01b0319909416939093179092529051610ae891906135b1565b6000604051808303816000865af19150503d8060008114610a31576040519150601f19603f3d011682016040523d82523d6000602084013e610a36565b600061092f838361267f565b60408051600580825260c08201909252600091816020015b610b51612cc3565b815260200190600190039081610b49579050509050610b84600060066000604051806020016040528060008152506123dc565b81600081518110610b9757610b97613530565b6020026020010181905250610bbe6001600060405180602001604052806000815250612413565b81600181518110610bd157610bd1613530565b6020026020010181905250610bf86002600060405180602001604052806000815250612413565b81600281518110610c0b57610c0b613530565b6020026020010181905250610c326003600060405180602001604052806000815250612413565b81600381518110610c4557610c45613530565b6020026020010181905250610c6c6004600060405180602001604052806000815250612413565b81600481518110610c7f57610c7f613530565b602002602001018190525060006040518060600160405280600060070b8152602001846001600160a01b03168152602001627a120060070b8152509050600060405180610120016040528060028054610cd790613546565b80601f0160208091040260200160405190810160405280929190818152602001828054610d0390613546565b8015610d505780601f10610d2557610100808354040283529160200191610d50565b820191906000526020600020905b815481529060010190602001808311610d3357829003601f168201915b5050505050815260200160038054610d6790613546565b80601f0160208091040260200160405190810160405280929190818152602001828054610d9390613546565b8015610de05780601f10610db557610100808354040283529160200191610de0565b820191906000526020600020905b815481529060010190602001808311610dc357829003601f168201915b50505050508152602001856001600160a01b0316815260200160048054610e0690613546565b80601f0160208091040260200160405190810160405280929190818152602001828054610e3290613546565b8015610e7f5780601f10610e5457610100808354040283529160200191610e7f565b820191906000526020600020905b815481529060010190602001808311610e6257829003601f168201915b505050918352505060016020820152600554600160401b8104600790810b604084015260ff600160a01b830416151560608401526080830187905260a09092018590529192506000918291610ee391859181900b90600160801b900460030b6126ab565b909250905060168214610ef557600080fd5b6040516001600160a01b03821681527f7bb17726df1f3adee8aa00ba8e8bc5d6f182af3bbf77604639cb7f008dd3b4ed9060200160405180910390a1505050505050565b6000806060610f49868686612718565b60405183815292955090935091507f90a5cf4cffe88b4edbb041cfc7a8a812c48a5ec30b84640fb37690875168e3aa9060200160405180910390a160168314610f9157600080fd5b7ffc6b20023c4bac8ff1c48c1693e0cea5cd3c2163e9c2da41c58f17dd6d9f163d8282604051610fc29291906135fa565b60405180910390a1610ff086303384600081518110610fe357610fe3613530565b6020026020010151612816565b5093509350939050565b604051638f74a17b60e01b81526000903090638f74a17b903490611024908890889060040161364a565b6020604051808303818588803b15801561103d57600080fd5b505af1158015611051573d6000803e3d6000fd5b50505050506040513d601f19601f82011682018060405250810190611076919061366c565b60405163f4a01e5b60e01b81523360048201526001600160a01b0382166024820152909150309063f4a01e5b90604401602060405180830381600087803b1580156110c057600080fd5b505af11580156110d4573d6000803e3d6000fd5b505050506040513d601f19601f820116820180604052508101906110f89190613689565b506040516307e9300f60e11b81526001600160a01b03821660048201523360248201523090630fd2601e90604401602060405180830381600087803b15801561114057600080fd5b505af1158015611154573d6000803e3d6000fd5b505050506040513d601f19601f8201168201806040525081019061117891906136a2565b506111858130338561285e565b5050505050565b604080516001808252818301909252600091816020015b6111ab612cc3565b8152602001906001900390816111a35790505090506111dd6000806000604051806020016040528060008152506123dc565b816000815181106111f0576111f0613530565b602002602001018190525060006040518060600160405280600060070b8152602001856001600160a01b03168152602001627a120060070b815250905060006040518061012001604052806002805461124890613546565b80601f016020809104026020016040519081016040528092919081815260200182805461127490613546565b80156112c15780601f10611296576101008083540402835291602001916112c1565b820191906000526020600020905b8154815290600101906020018083116112a457829003601f168201915b50505050508152602001600380546112d890613546565b80601f016020809104026020016040519081016040528092919081815260200182805461130490613546565b80156113515780601f1061132657610100808354040283529160200191611351565b820191906000526020600020905b81548152906001019060200180831161133457829003601f168201915b50505050508152602001866001600160a01b031681526020016004805461137790613546565b80601f01602080910402602001604051908101604052809291908181526020018280546113a390613546565b80156113f05780601f106113c5576101008083540402835291602001916113f0565b820191906000526020600020905b8154815290600101906020018083116113d357829003601f168201915b5050509183525050600160208201819052600554600160401b900460070b6040808401919091526000606084018190526080840188905260a09093018690528051828152808201909152929350909190816020015b6040805160a0810182526000808252602080830182905292820181905260608201819052608082015282526000199092019101816114455750506040805160a081018252600181526001600160a01b038881166020830152600092820183905260608201839052891660808201528251929350918391906114c8576114c8613530565b6020908102919091010152604080516001808252818301909252600091816020015b6040805160c08101825260008082526020808301829052928201819052606082018190526080820181905260a082015282526000199092019101816114ea5750506040805160c0810182526004815260056020820152600a91810191909152601e60608201526000608082018190526001600160a01b038a1660a08301528251929350909183919061157e5761157e613530565b602090810291909101015260055460009081906115ae908690600781900b90600160801b900460030b87876128a6565b915091507f90a5cf4cffe88b4edbb041cfc7a8a812c48a5ec30b84640fb37690875168e3aa826040516115e391815260200190565b60405180910390a16016821461087f57600080fd5b60408051600580825260c08201909252600091829190816020015b61161b612cc3565b81526020019060019003908161161357905050905061163f600060066003866123dc565b8160008151811061165257611652613530565b602002602001018190525061166a6001600385612413565b8160018151811061167d5761167d613530565b60200260200101819052506116956002600385612413565b816002815181106116a8576116a8613530565b60200260200101819052506116c06004600385612413565b816003815181106116d3576116d3613530565b60200260200101819052506116ea60038085612413565b816004815181106116fd576116fd613530565b602002602001018190525060006040518060600160405280600060070b8152602001866001600160a01b03168152602001627a120060070b815250905060006040518061012001604052806002805461175590613546565b80601f016020809104026020016040519081016040528092919081815260200182805461178190613546565b80156117ce5780601f106117a3576101008083540402835291602001916117ce565b820191906000526020600020905b8154815290600101906020018083116117b157829003601f168201915b50505050508152602001600380546117e590613546565b80601f016020809104026020016040519081016040528092919081815260200182805461181190613546565b801561185e5780601f106118335761010080835404028352916020019161185e565b820191906000526020600020905b81548152906001019060200180831161184157829003601f168201915b50505050508152602001876001600160a01b031681526020016004805461188490613546565b80601f01602080910402602001604051908101604052809291908181526020018280546118b090613546565b80156118fd5780601f106118d2576101008083540402835291602001916118fd565b820191906000526020600020905b8154815290600101906020018083116118e057829003601f168201915b505050918352505060016020820152600554600160401b8104600790810b604084015260ff600160a01b830416151560608401526080830187905260a0909201859052919250600091829161196191859181900b90600160801b900460030b6126ab565b90925090506016821461197357600080fd5b6040516001600160a01b03821681527f7bb17726df1f3adee8aa00ba8e8bc5d6f182af3bbf77604639cb7f008dd3b4ed9060200160405180910390a1979650505050505050565b6040516001600160a01b038581166024830152848116604483015283166064820152608481018290526000908190819061016790639b23d3d960e01b9060a401610aaa565b60408051600580825260c08201909252600091816020015b611a1f612cc3565b815260200190600190039081611a17579050509050611a43600060066003856123dc565b81600081518110611a5657611a56613530565b6020026020010181905250611a6e6001600384612413565b81600181518110611a8157611a81613530565b6020026020010181905250611a996002600384612413565b81600281518110611aac57611aac613530565b6020026020010181905250611ac46004600384612413565b81600381518110611ad757611ad7613530565b6020026020010181905250611aee60038084612413565b81600481518110611b0157611b01613530565b602002602001018190525060006040518060600160405280600060070b8152602001856001600160a01b03168152602001627a120060070b8152509050600060405180610120016040528060028054611b5990613546565b80601f0160208091040260200160405190810160405280929190818152602001828054611b8590613546565b8015611bd25780601f10611ba757610100808354040283529160200191611bd2565b820191906000526020600020905b815481529060010190602001808311611bb557829003601f168201915b5050505050815260200160038054611be990613546565b80601f0160208091040260200160405190810160405280929190818152602001828054611c1590613546565b8015611c625780601f10611c3757610100808354040283529160200191611c62565b820191906000526020600020905b815481529060010190602001808311611c4557829003601f168201915b50505050508152602001866001600160a01b0316815260200160048054611c8890613546565b80601f0160208091040260200160405190810160405280929190818152602001828054611cb490613546565b8015611d015780601f10611cd657610100808354040283529160200191611d01565b820191906000526020600020905b815481529060010190602001808311611ce457829003601f168201915b505050918352505060016020820152600554600160401b810460070b6040830152600160a01b900460ff16151560608201526080810185905260a0018390529050600080611d4e836129d4565b909250905060168214611d6057600080fd5b6040516001600160a01b03821681527f7bb17726df1f3adee8aa00ba8e8bc5d6f182af3bbf77604639cb7f008dd3b4ed9060200160405180910390a150505050505050565b60408051600480825260a08201909252600091816020015b611dc5612cc3565b815260200190600190039081611dbd579050509050611de9600060066003856123dc565b81600081518110611dfc57611dfc613530565b6020026020010181905250611e146002600384612413565b81600181518110611e2757611e27613530565b6020026020010181905250611e3f6004600384612413565b81600281518110611e5257611e52613530565b6020026020010181905250611e6960038084612413565b81600381518110611b0157611b01613530565b60408051600580825260c08201909252600091816020015b611e9c612cc3565b815260200190600190039081611e94579050509050611ecf600060066000604051806020016040528060008152506123dc565b81600081518110611ee257611ee2613530565b6020026020010181905250611f096001600060405180602001604052806000815250612413565b81600181518110611f1c57611f1c613530565b6020026020010181905250611f436002600060405180602001604052806000815250612413565b81600281518110611f5657611f56613530565b6020026020010181905250611f7d6004600060405180602001604052806000815250612413565b81600381518110611f9057611f90613530565b6020026020010181905250611fb76003600060405180602001604052806000815250612413565b81600481518110611fca57611fca613530565b602002602001018190525060006040518060600160405280600060070b8152602001846001600160a01b03168152602001627a120060070b815250905060006040518061012001604052806002805461202290613546565b80601f016020809104026020016040519081016040528092919081815260200182805461204e90613546565b801561209b5780601f106120705761010080835404028352916020019161209b565b820191906000526020600020905b81548152906001019060200180831161207e57829003601f168201915b50505050508152602001600380546120b290613546565b80601f01602080910402602001604051908101604052809291908181526020018280546120de90613546565b801561212b5780601f106121005761010080835404028352916020019161212b565b820191906000526020600020905b81548152906001019060200180831161210e57829003601f168201915b50505050508152602001856001600160a01b031681526020016004805461215190613546565b80601f016020809104026020016040519081016040528092919081815260200182805461217d90613546565b80156121ca5780601f1061219f576101008083540402835291602001916121ca565b820191906000526020600020905b8154815290600101906020018083116121ad57829003601f168201915b505050918352505060016020820152600554600160401b810460070b6040830152600160a01b900460ff16151560608201526080810185905260a0018390529050600080610ee3836129d4565b6000806060612227868686612718565b60405183815292955090935091507f90a5cf4cffe88b4edbb041cfc7a8a812c48a5ec30b84640fb37690875168e3aa9060200160405180910390a16016831461226f57600080fd5b7ffc6b20023c4bac8ff1c48c1693e0cea5cd3c2163e9c2da41c58f17dd6d9f163d82826040516122a09291906135fa565b60405180910390a193509350939050565b60408051600480825260a08201909252600091829190816020015b6122d4612cc3565b8152602001906001900390816122cc5790505090506122f8600060066003866123dc565b8160008151811061230b5761230b613530565b60200260200101819052506123236002600385612413565b8160018151811061233657612336613530565b602002602001018190525061234e6004600385612413565b8160028151811061236157612361613530565b602002602001018190525061237860038085612413565b816003815181106116fd576116fd613530565b6040516001600160a01b038581166024830152848116604483015283166064820152608481018290526000908190819061016790630aed65f560e11b9060a4016109b8565b600061092f8383612af6565b6123e4612cc3565b60405180604001604052806123f98787612b2c565b81526020016124088585612b6e565b905295945050505050565b61241b612cc3565b604051806040016040528061242f86612c84565b815260200161243e8585612b6e565b9052949350505050565b600080848061010001516000015160070b600014801561247257506101008101516040015160070b155b15612488576101008101516276a7006040909101525b6000806101676001600160a01b03163463abb54eb560e01b8a8a8a6040516024016124b5939291906138f2565b60408051601f198184030181529181526020820180516001600160e01b03166001600160e01b03199094169390931790925290516124f391906135b1565b60006040518083038185875af1925050503d8060008114612530576040519150601f19603f3d011682016040523d82523d6000602084013e612535565b606091505b509150915081612548576015600061255c565b8080602001905181019061255c91906139a9565b60039190910b999098509650505050505050565b6040516001600160a01b038381166024830152821660448201526000908190819061016790638f8d7f9960e01b906064015b60408051601f198184030181529181526020820180516001600160e01b03166001600160e01b03199094169390931790925290516125e091906135b1565b6000604051808303816000865af19150503d806000811461261d576040519150601f19603f3d011682016040523d82523d6000602084013e612622565b606091505b509150915081612633576015612647565b8080602001905181019061264791906135df565b60030b95945050505050565b60008060006101676001600160a01b0316632e63879b60e01b86866040516024016125a29291906139d5565b60008060006101676001600160a01b0316637d305cfa60e01b86866040516024016125a2929190613a30565b600080848061010001516000015160070b60001480156126d557506101008101516040015160070b155b156126eb576101008101516276a7006040909101525b6000806101676001600160a01b031634630fb65bf360e01b8a8a8a6040516024016124b593929190613a52565b60008060606000806101676001600160a01b031663e0f4059a60e01b89898960405160240161274993929190613a81565b60408051601f198184030181529181526020820180516001600160e01b03166001600160e01b031990941693909317909252905161278791906135b1565b6000604051808303816000865af19150503d80600081146127c4576040519150601f19603f3d011682016040523d82523d6000602084013e6127c9565b606091505b5091509150816127ec576040805160008082526020820190925260159190612800565b808060200190518101906128009190613afe565b60039290920b9a90995090975095505050505050565b6040516001600160a01b038581166024830152848116604483015283166064820152600782900b60848201526000908190819061016790635cfc901160e01b9060a401610aaa565b6040516001600160a01b038581166024830152848116604483015283166064820152600782900b6084820152600090819081906101679063eca3691760e01b9060a401610aaa565b600080868061010001516000015160070b60001480156128d057506101008101516040015160070b155b156128e6576101008101516276a7006040909101525b6000806101676001600160a01b031634632af0c59a60e01b8c8c8c8c8c604051602401612917959493929190613bbe565b60408051601f198184030181529181526020820180516001600160e01b03166001600160e01b031990941693909317909252905161295591906135b1565b60006040518083038185875af1925050503d8060008114612992576040519150601f19603f3d011682016040523d82523d6000602084013e612997565b606091505b5091509150816129aa57601560006129be565b808060200190518101906129be91906139a9565b60039190910b9b909a5098505050505050505050565b600080828061010001516000015160070b60001480156129fe57506101008101516040015160070b155b15612a14576101008101516276a7006040909101525b6000806101676001600160a01b03163463ea83f29360e01b88604051602401612a3d9190613c86565b60408051601f198184030181529181526020820180516001600160e01b03166001600160e01b0319909416939093179092529051612a7b91906135b1565b60006040518083038185875af1925050503d8060008114612ab8576040519150601f19603f3d011682016040523d82523d6000602084013e612abd565b606091505b509150915081612ad05760156000612ae4565b80806020019051810190612ae491906139a9565b60039190910b97909650945050505050565b6040516001600160a01b03838116602483015282166044820152600090819081906101679063248a35ef60e11b906064016125a2565b6000612b50836006811115612b4357612b43613c99565b600160ff9091161b821790565b9050612b67826006811115612b4357612b43613c99565b9392505050565b612bb46040518060a0016040528060001515815260200160006001600160a01b03168152602001606081526020016060815260200160006001600160a01b031681525090565b6000836004811115612bc857612bc8613c99565b1415612bd7576001815261091d565b6001836004811115612beb57612beb613c99565b1415612c07576000546001600160a01b0316602082015261091d565b6002836004811115612c1b57612c1b613c99565b1415612c2d576040810182905261091d565b6003836004811115612c4157612c41613c99565b1415612c53576060810182905261091d565b6004836004811115612c6757612c67613c99565b141561091d576000546001600160a01b0316608082015292915050565b600060016000836006811115612c9c57612c9c613c99565b6006811115612cad57612cad613c99565b8152602001908152602001600020549050919050565b604051806040016040528060008152602001612d1b6040518060a0016040528060001515815260200160006001600160a01b03168152602001606081526020016060815260200160006001600160a01b031681525090565b905290565b6001600160a01b0381168114612d3557600080fd5b50565b8035612d4381612d20565b919050565b60008060408385031215612d5b57600080fd5b8235612d6681612d20565b91506020830135612d7681612d20565b809150509250929050565b634e487b7160e01b600052604160045260246000fd5b6040805190810167ffffffffffffffff81118282101715612dba57612dba612d81565b60405290565b60405160a0810167ffffffffffffffff81118282101715612dba57612dba612d81565b604051610120810167ffffffffffffffff81118282101715612dba57612dba612d81565b604051601f8201601f1916810167ffffffffffffffff81118282101715612e3057612e30612d81565b604052919050565b600067ffffffffffffffff821115612e5257612e52612d81565b5060051b60200190565b60008060408385031215612e6f57600080fd5b8235612e7a81612d20565b915060208381013567ffffffffffffffff811115612e9757600080fd5b8401601f81018613612ea857600080fd5b8035612ebb612eb682612e38565b612e07565b81815260059190911b82018301908381019088831115612eda57600080fd5b928401925b82841015612f01578335612ef281612d20565b82529284019290840190612edf565b80955050505050509250929050565b60008060008060808587031215612f2657600080fd5b8435612f3181612d20565b93506020850135612f4181612d20565b92506040850135612f5181612d20565b9396929550929360600135925050565b600082601f830112612f7257600080fd5b813567ffffffffffffffff811115612f8c57612f8c612d81565b612f9f601f8201601f1916602001612e07565b818152846020838601011115612fb457600080fd5b816020850160208301376000918101602001919091529392505050565b80358015158114612d4357600080fd5b8060070b8114612d3557600080fd5b8035612d4381612fe1565b600082601f83011261300c57600080fd5b8135602061301c612eb683612e38565b82815260059290921b8401810191818101908684111561303b57600080fd5b8286015b8481101561315557803567ffffffffffffffff8082111561305f57600080fd5b908801906040601f19838c03810182131561307957600080fd5b613081612d97565b888501358152828501358481111561309857600080fd5b949094019360a0858e03830112156130b05760008081fd5b6130b8612dc0565b91506130c5898601612fd1565b8252828501356130d481612d20565b828a0152606085810135858111156130ec5760008081fd5b6130fa8f8c838a0101612f61565b85850152506080935083860135858111156131155760008081fd5b6131238f8c838a0101612f61565b82850152505060a0850135945061313985612d20565b918101939093528087019290925250835291830191830161303f565b509695505050505050565b60006060828403121561317257600080fd5b6040516060810181811067ffffffffffffffff8211171561319557613195612d81565b60405290508082356131a681612fe1565b815260208301356131b681612d20565b602082015260408301356131c981612fe1565b6040919091015292915050565b600080604083850312156131e957600080fd5b82356131f481612d20565b9150602083013567ffffffffffffffff8082111561321157600080fd5b90840190610160828703121561322657600080fd5b61322e612de3565b82358281111561323d57600080fd5b61324988828601612f61565b82525060208301358281111561325e57600080fd5b61326a88828601612f61565b60208301525061327c60408401612d38565b604082015260608301358281111561329357600080fd5b61329f88828601612f61565b6060830152506132b160808401612fd1565b60808201526132c260a08401612ff0565b60a08201526132d360c08401612fd1565b60c082015260e0830135828111156132ea57600080fd5b6132f688828601612ffb565b60e083015250610100915061330d87838501613160565b828201528093505050509250929050565b60006020828403121561333057600080fd5b8135612b6781612d20565b60008060006060848603121561335057600080fd5b833561335b81612d20565b925060208481013561336c81612fe1565b9250604085013567ffffffffffffffff8082111561338957600080fd5b818701915087601f83011261339d57600080fd5b81356133ab612eb682612e38565b81815260059190911b8301840190848101908a8311156133ca57600080fd5b8585015b83811015613402578035858111156133e65760008081fd5b6133f48d89838a0101612f61565b8452509186019186016133ce565b508096505050505050509250925092565b600081518084526020808501945080840160005b8381101561344657815160070b87529582019590820190600101613427565b509495945050505050565b8381528260070b60208201526060604082015260006134736060830184613413565b95945050505050565b60008060006060848603121561349157600080fd5b833561349c81612d20565b9250602084013567ffffffffffffffff8111156134b857600080fd5b6134c486828701612f61565b92505060408401356134d581612fe1565b809150509250925092565b600080604083850312156134f357600080fd5b82356134fe81612d20565b9150602083013567ffffffffffffffff81111561351a57600080fd5b61352685828601612f61565b9150509250929050565b634e487b7160e01b600052603260045260246000fd5b600181811c9082168061355a57607f821691505b6020821081141561357b57634e487b7160e01b600052602260045260246000fd5b50919050565b60005b8381101561359c578181015183820152602001613584565b838111156135ab576000848401525b50505050565b600082516135c3818460208701613581565b9190910192915050565b8051600381900b8114612d4357600080fd5b6000602082840312156135f157600080fd5b612b67826135cd565b8260070b81526040602082015260006136166040830184613413565b949350505050565b60008151808452613636816020860160208601613581565b601f01601f19169290920160200192915050565b6001600160a01b0383168152604060208201526000613616604083018461361e565b60006020828403121561367e57600080fd5b8151612b6781612d20565b60006020828403121561369b57600080fd5b5051919050565b6000602082840312156136b457600080fd5b8151612b6781612fe1565b600081518084526020808501808196508360051b8101915082860160005b858110156137765782840389528151604081518652868201519150808787015281511515818701528682015160606001600160a01b03808316828a015283850151935060a09250608083818b015261373860e08b018661361e565b928601518a8403603f1901858c0152929450613754858461361e565b9501511660c098909801979097525050988501989350908401906001016136dd565b5091979650505050505050565b600061016082518185526137998286018261361e565b915050602083015184820360208601526137b3828261361e565b91505060408301516137d060408601826001600160a01b03169052565b50606083015184820360608601526137e8828261361e565b91505060808301516137fe608086018215159052565b5060a083015161381360a086018260070b9052565b5060c083015161382760c086018215159052565b5060e083015184820360e086015261383f82826136bf565b9150506101008084015161387b82870182805160070b82526001600160a01b036020820151166020830152604081015160070b60408301525050565b5090949350505050565b600081518084526020808501945080840160005b83811015613446578151805160070b8852838101516001600160a01b03908116858a01526040808301511515908a01526060808301511515908a0152608091820151169088015260a09096019590820190600101613899565b6000606080835261390581840187613783565b6020848203818601526139188288613885565b91506040858303818701528287518085528385019150838901945060005b818110156139995785518051600790810b855286820151810b8786015285820151900b85850152878101516001600160a01b039081168986015260808083015115159086015260a09182015116908401529484019460c090920191600101613936565b50909a9950505050505050505050565b600080604083850312156139bc57600080fd5b6139c5836135cd565b91506020830151612d7681612d20565b6000604082016001600160a01b0380861684526020604081860152828651808552606087019150828801945060005b81811015613a22578551851683529483019491830191600101613a04565b509098975050505050505050565b6001600160a01b03831681526040602082015260006136166040830184613783565b606081526000613a656060830186613783565b90508360070b60208301528260030b6040830152949350505050565b6000606082016001600160a01b038616835260208560070b818501526060604085015281855180845260808601915060808160051b870101935082870160005b82811015613aef57607f19888703018452613add86835161361e565b95509284019290840190600101613ac1565b50939998505050505050505050565b600080600060608486031215613b1357600080fd5b613b1c846135cd565b9250602080850151613b2d81612fe1565b604086015190935067ffffffffffffffff811115613b4a57600080fd5b8501601f81018713613b5b57600080fd5b8051613b69612eb682612e38565b81815260059190911b82018301908381019089831115613b8857600080fd5b928401925b82841015613baf578351613ba081612fe1565b82529284019290840190613b8d565b80955050505050509250925092565b600060a0808352613bd181840189613783565b6020600789810b8287015260408960030b81880152606087850381890152613bf9858b613885565b94506080888603818a0152858a518088528688019150868c01975060005b81811015613c715788518051880b845288810151880b8985015286810151880b8785015285810151880b86850152848101511515858501528a01516001600160a01b03168a8401529787019760c090920191600101613c17565b50909f9e505050505050505050505050505050565b602081526000612b676020830184613783565b634e487b7160e01b600052602160045260246000fdfea2646970667358221220d7832e039d7cdb707300dc6e3721e1e749783bb90ce0f08bb7c3b8e8af71fa9f64736f6c63430008090033",
  "linkReferences": {},
  "deployedLinkReferences": {}
}