{
  "_format": "hh-sol-artifact-1",
  "contractName": "TokenCreateContract",
  "sourceName": "contracts/hts-precompile/examples/token-create/TokenCreateContract.sol",
  "abi": [
    {
      "anonymous": false,
      "inputs": [
        {
          "indexed": false,
          "internalType": "address",
          "name": "tokenAddress",
          "type": "address"
        }
      ],
      "name": "CreatedToken",
      "type": "event"
    },
    {
      "anonymous": false,
      "inputs": [
        {
          "indexed": false,
          "internalType": "bool",
          "name": "kycGranted",
          "type": "bool"
        }
      ],
      "name": "KycGranted",
      "type": "event"
    },
    {
      "anonymous": false,
      "inputs": [
        {
          "indexed": false,
          "internalType": "uint64",
          "name": "newTotalSupply",
          "type": "uint64"
        },
        {
          "indexed": false,
          "internalType": "int64[]",
          "name": "serialNumbers",
          "type": "int64[]"
        }
      ],
      "name": "MintedToken",
      "type": "event"
    },
    {
      "anonymous": false,
      "inputs": [
        {
          "indexed": false,
          "internalType": "int256",
          "name": "responseCode",
          "type": "int256"
        }
      ],
      "name": "ResponseCode",
      "type": "event"
    },
    {
      "inputs": [
        {
          "internalType": "address",
          "name": "account",
          "type": "address"
        },
        {
          "internalType": "address",
          "name": "token",
          "type": "address"
        }
      ],
      "name": "associateTokenPublic",
      "outputs": [
        {
          "internalType": "int256",
          "name": "responseCode",
          "type": "int256"
        }
      ],
      "stateMutability": "nonpayable",
      "type": "function"
    },
    {
      "inputs": [
        {
          "internalType": "address",
          "name": "account",
          "type": "address"
        },
        {
          "internalType": "address[]",
          "name": "tokens",
          "type": "address[]"
        }
      ],
      "name": "associateTokensPublic",
      "outputs": [
        {
          "internalType": "int256",
          "name": "responseCode",
          "type": "int256"
        }
      ],
      "stateMutability": "nonpayable",
      "type": "function"
    },
    {
      "inputs": [
        {
          "internalType": "address",
          "name": "treasury",
          "type": "address"
        },
        {
          "internalType": "int64",
          "name": "amount",
          "type": "int64"
        },
        {
          "internalType": "bytes",
          "name": "adminKey",
          "type": "bytes"
        }
      ],
      "name": "createFungibleTokenAssociateAndTransferToAddressPublic",
      "outputs": [],
      "stateMutability": "payable",
      "type": "function"
    },
    {
      "inputs": [
        {
          "internalType": "address",
          "name": "treasury",
          "type": "address"
        },
        {
          "internalType": "bytes",
          "name": "adminKey",
          "type": "bytes"
        }
      ],
      "name": "createFungibleTokenPublic",
      "outputs": [
        {
          "internalType": "address",
          "name": "",
          "type": "address"
        }
      ],
      "stateMutability": "payable",
      "type": "function"
    },
    {
      "inputs": [
        {
          "internalType": "address",
          "name": "treasury",
          "type": "address"
        },
        {
          "internalType": "address",
          "name": "fixedFeeTokenAddress",
          "type": "address"
        }
      ],
      "name": "createFungibleTokenWithCustomFeesPublic",
      "outputs": [],
      "stateMutability": "payable",
      "type": "function"
    },
    {
      "inputs": [
        {
          "internalType": "address",
          "name": "treasury",
          "type": "address"
        },
        {
          "internalType": "bytes",
          "name": "adminKey",
          "type": "bytes"
        }
      ],
      "name": "createNonFungibleTokenPublic",
      "outputs": [],
      "stateMutability": "payable",
      "type": "function"
    },
    {
      "inputs": [
        {
          "internalType": "address",
          "name": "treasury",
          "type": "address"
        },
        {
          "internalType": "address",
          "name": "fixedFeeTokenAddress",
          "type": "address"
        }
      ],
      "name": "createNonFungibleTokenWithCustomFeesPublic",
      "outputs": [],
      "stateMutability": "payable",
      "type": "function"
    },
    {
      "inputs": [
        {
          "internalType": "address",
          "name": "token",
          "type": "address"
        },
        {
          "internalType": "address",
          "name": "from",
          "type": "address"
        },
        {
          "internalType": "address",
          "name": "to",
          "type": "address"
        },
        {
          "internalType": "uint256",
          "name": "amount",
          "type": "uint256"
        }
      ],
      "name": "delegateTransferFrom",
      "outputs": [
        {
          "internalType": "int64",
          "name": "responseCode",
          "type": "int64"
        }
      ],
      "stateMutability": "nonpayable",
      "type": "function"
    },
    {
      "inputs": [
        {
          "internalType": "address",
          "name": "token",
          "type": "address"
        },
        {
          "internalType": "address",
          "name": "from",
          "type": "address"
        },
        {
          "internalType": "address",
          "name": "to",
          "type": "address"
        },
        {
          "internalType": "uint256",
          "name": "serialNumber",
          "type": "uint256"
        }
      ],
      "name": "delegateTransferFromNFT",
      "outputs": [
        {
          "internalType": "int64",
          "name": "responseCode",
          "type": "int64"
        }
      ],
      "stateMutability": "nonpayable",
      "type": "function"
    },
    {
      "inputs": [
        {
          "internalType": "address",
          "name": "token",
          "type": "address"
        },
        {
          "internalType": "address",
          "name": "account",
          "type": "address"
        }
      ],
      "name": "grantTokenKycPublic",
      "outputs": [
        {
          "internalType": "int64",
          "name": "responseCode",
          "type": "int64"
        }
      ],
      "stateMutability": "nonpayable",
      "type": "function"
    },
    {
      "inputs": [
        {
          "internalType": "address",
          "name": "token",
          "type": "address"
        },
        {
          "internalType": "uint64",
          "name": "amount",
          "type": "uint64"
        },
        {
          "internalType": "bytes[]",
          "name": "metadata",
          "type": "bytes[]"
        }
      ],
      "name": "mintTokenToAddressPublic",
      "outputs": [
        {
          "internalType": "int256",
          "name": "responseCode",
          "type": "int256"
        },
        {
          "internalType": "uint64",
          "name": "newTotalSupply",
          "type": "uint64"
        },
        {
          "internalType": "int64[]",
          "name": "serialNumbers",
          "type": "int64[]"
        }
      ],
      "stateMutability": "nonpayable",
      "type": "function"
    },
    {
      "inputs": [
        {
          "internalType": "address",
          "name": "token",
          "type": "address"
        },
        {
          "internalType": "address",
          "name": "from",
          "type": "address"
        },
        {
          "internalType": "address",
          "name": "to",
          "type": "address"
        },
        {
          "internalType": "uint256",
          "name": "amount",
          "type": "uint256"
        }
      ],
      "name": "transferFrom",
      "outputs": [
        {
          "internalType": "int64",
          "name": "responseCode",
          "type": "int64"
        }
      ],
      "stateMutability": "nonpayable",
      "type": "function"
    },
    {
      "inputs": [
        {
          "internalType": "address",
          "name": "token",
          "type": "address"
        },
        {
          "internalType": "address",
          "name": "from",
          "type": "address"
        },
        {
          "internalType": "address",
          "name": "to",
          "type": "address"
        },
        {
          "internalType": "uint256",
          "name": "serialNumber",
          "type": "uint256"
        }
      ],
      "name": "transferFromNFT",
      "outputs": [
        {
          "internalType": "int64",
          "name": "responseCode",
          "type": "int64"
        }
      ],
      "stateMutability": "nonpayable",
      "type": "function"
    }
  ],
  "bytecode": "0x60c06040526009608081905268746f6b656e4e616d6560b81b60a09081526200002c9160029190620001cc565b5060408051808201909152600b8082526a1d1bdad95b94de5b589bdb60aa1b60209092019182526200006191600391620001cc565b50604080518082019091526004808252636d656d6f60e01b60209092019182526200008d9181620001cc565b50600580546001600160a81b031916700800000000000003e800000000000003e8179055348015620000be57600080fd5b50600160208181527fa6eef7e35abe7026729641147f7915573c7e97b47efa546f5f6e3230263bcb499190915560027fcc69885fda6bcc1a4ace058b4a62bf5e179ea78fd58a1ccd71c22cc9b688792f5560047fd9d16d34ffb15ba3a3d852f0d403e2ce1d691fb54de27ac87cd2f993f3ec330f5560087f7dfe757ecd65cbd7922a9c0161e935dd7fdbcc0e999689c7d31633896b1fc60b5560107fedc95719e9a3b28dd8e80877cb5880a9be7de1a13fc8b05e7999683b6b567643557fe2689cd4a84e23ad2f564004f1c9013e9589d260bde6380aba3ca7e09e4df40c55600660005260407f8f331abe73332f95a25873e8b430885974c0409691f89d643119a11623a7924a55620002af565b828054620001da9062000272565b90600052602060002090601f016020900481019282620001fe576000855562000249565b82601f106200021957805160ff191683800117855562000249565b8280016001018555821562000249579182015b82811115620002495782518255916020019190600101906200022c565b50620002579291506200025b565b5090565b5b808211156200025757600081556001016200025c565b600181811c908216806200028757607f821691505b60208210811415620002a957634e487b7160e01b600052602260045260246000fd5b50919050565b612e8480620002bf6000396000f3fe6080604052600436106100d25760003560e01c8063492d21f71161007f5780638ba74da0116100595780638ba74da0146102125780639b23d3d914610225578063eac6f3fe14610245578063f4a01e5b1461026557600080fd5b8063492d21f7146101a557806376f81213146101d45780638aedccba146101e757600080fd5b8063118741e7116100b0578063118741e71461013757806311e1fc071461016557806315dacbea1461018557600080fd5b80630488c939146100d757806308a94bb9146100ec5780630fd2601e146100ff575b600080fd5b6100ea6100e536600461228f565b610285565b005b6100ea6100fa36600461237f565b610807565b34801561010b57600080fd5b5061011f61011a36600461228f565b610bb3565b60405160079190910b81526020015b60405180910390f35b34801561014357600080fd5b506101576101523660046123f3565b610c10565b60405190815260200161012e565b34801561017157600080fd5b5061011f6101803660046124a7565b610c64565b34801561019157600080fd5b5061011f6101a03660046124a7565b610d56565b3480156101b157600080fd5b506101c56101c036600461250e565b610e12565b60405161012e93929190612624565b6100ea6101e2366004612665565b610ed3565b6101fa6101f536600461237f565b611065565b6040516001600160a01b03909116815260200161012e565b6100ea61022036600461228f565b611436565b34801561023157600080fd5b5061011f6102403660046124a7565b6118b1565b34801561025157600080fd5b5061011f6102603660046124a7565b6118f6565b34801561027157600080fd5b5061015761028036600461228f565b61193b565b60408051600580825260c08201909252600091816020015b6102a561221a565b81526020019060019003908161029d5790505090506102d860006006600060405180602001604052806000815250611947565b816000815181106102eb576102eb6126c7565b6020026020010181905250610312600160006040518060200160405280600081525061197e565b81600181518110610325576103256126c7565b602002602001018190525061034c600260006040518060200160405280600081525061197e565b8160028151811061035f5761035f6126c7565b6020026020010181905250610386600460006040518060200160405280600081525061197e565b81600381518110610399576103996126c7565b60200260200101819052506103c0600360006040518060200160405280600081525061197e565b816004815181106103d3576103d36126c7565b602002602001018190525060006040518060600160405280600063ffffffff168152602001856001600160a01b03168152602001627a120063ffffffff168152509050600060405180610120016040528060028054610431906126dd565b80601f016020809104026020016040519081016040528092919081815260200182805461045d906126dd565b80156104aa5780601f1061047f576101008083540402835291602001916104aa565b820191906000526020600020905b81548152906001019060200180831161048d57829003601f168201915b50505050508152602001600380546104c1906126dd565b80601f01602080910402602001604051908101604052809291908181526020018280546104ed906126dd565b801561053a5780601f1061050f5761010080835404028352916020019161053a565b820191906000526020600020905b81548152906001019060200180831161051d57829003601f168201915b50505050508152602001866001600160a01b0316815260200160048054610560906126dd565b80601f016020809104026020016040519081016040528092919081815260200182805461058c906126dd565b80156105d95780601f106105ae576101008083540402835291602001916105d9565b820191906000526020600020905b8154815290600101906020018083116105bc57829003601f168201915b5050509183525050600160208201819052600554600160401b810460070b6040840152600160a01b900460ff16151560608301526080820186905260a090910184905290915060009060405190808252806020026020018201604052801561067b57816020015b6040805160a0810182526000808252602080830182905292820181905260608201819052608082015282526000199092019101816106405790505b506040805160a081018252600181526001600160a01b038089166020830152600092820183905260608201839052891660808201528251929350918391906106c5576106c56126c7565b6020908102919091010152604080516001808252818301909252600091816020015b6040805160c08101825260008082526020808301829052928201819052606082018190526080820181905260a082015282526000199092019101816106e75790505090506040518060c00160405280600463ffffffff168152602001600563ffffffff168152602001600a63ffffffff168152602001876001600160a01b03168152602001600015158152602001886001600160a01b031681525081600081518110610795576107956126c7565b60200260200101819052506000806107ae8585856119b3565b9092509050601682146107c057600080fd5b6040516001600160a01b03821681527f7bb17726df1f3adee8aa00ba8e8bc5d6f182af3bbf77604639cb7f008dd3b4ed9060200160405180910390a1505050505050505050565b60408051600580825260c08201909252600091816020015b61082761221a565b81526020019060019003908161081f57905050905061084b60006006600385611947565b8160008151811061085e5761085e6126c7565b6020026020010181905250610876600160038461197e565b81600181518110610889576108896126c7565b60200260200101819052506108a1600260038461197e565b816002815181106108b4576108b46126c7565b60200260200101819052506108cc600460038461197e565b816003815181106108df576108df6126c7565b60200260200101819052506108f66003808461197e565b81600481518110610909576109096126c7565b602002602001018190525060006040518060600160405280600063ffffffff168152602001856001600160a01b03168152602001627a120063ffffffff168152509050600060405180610120016040528060028054610967906126dd565b80601f0160208091040260200160405190810160405280929190818152602001828054610993906126dd565b80156109e05780601f106109b5576101008083540402835291602001916109e0565b820191906000526020600020905b8154815290600101906020018083116109c357829003601f168201915b50505050508152602001600380546109f7906126dd565b80601f0160208091040260200160405190810160405280929190818152602001828054610a23906126dd565b8015610a705780601f10610a4557610100808354040283529160200191610a70565b820191906000526020600020905b815481529060010190602001808311610a5357829003601f168201915b50505050508152602001866001600160a01b0316815260200160048054610a96906126dd565b80601f0160208091040260200160405190810160405280929190818152602001828054610ac2906126dd565b8015610b0f5780601f10610ae457610100808354040283529160200191610b0f565b820191906000526020600020905b815481529060010190602001808311610af257829003601f168201915b505050918352505060016020820152600554600160401b810460070b6040830152600160a01b900460ff16151560608201526080810185905260a0018390529050600080610b5c83611ae1565b909250905060168214610b6e57600080fd5b6040516001600160a01b03821681527f7bb17726df1f3adee8aa00ba8e8bc5d6f182af3bbf77604639cb7f008dd3b4ed9060200160405180910390a150505050505050565b6000610bbf8383611c09565b604051600782900b81529091507f90a5cf4cffe88b4edbb041cfc7a8a812c48a5ec30b84640fb37690875168e3aa9060200160405180910390a1600781900b601614610c0a57600080fd5b92915050565b6000610c1c8383611cec565b90507f90a5cf4cffe88b4edbb041cfc7a8a812c48a5ec30b84640fb37690875168e3aa81604051610c4f91815260200190565b60405180910390a160168114610c0a57600080fd5b6040516001600160a01b038581166024830152848116604483015283166064820152608481018290526000908190819061016790639b23d3d960e01b9060a4015b60408051601f198184030181529181526020820180516001600160e01b03166001600160e01b0319909416939093179092529051610ce39190612748565b600060405180830381855af49150503d8060008114610d1e576040519150601f19603f3d011682016040523d82523d6000602084013e610d23565b606091505b509150915081610d34576015610d48565b80806020019051810190610d48919061277b565b60030b979650505050505050565b6040516001600160a01b038581166024830152848116604483015283166064820152608481018290526000908190819061016790630aed65f560e11b9060a4015b60408051601f198184030181529181526020820180516001600160e01b03166001600160e01b0319909416939093179092529051610dd59190612748565b6000604051808303816000865af19150503d8060008114610d1e576040519150601f19603f3d011682016040523d82523d6000602084013e610d23565b6000806060610e22868686611d18565b60405183815292955090935091507f90a5cf4cffe88b4edbb041cfc7a8a812c48a5ec30b84640fb37690875168e3aa9060200160405180910390a160168314610e6a57600080fd5b7feff23992f47b3c101679f8b4dc9d3e242c903909dba4a453f2b2341ad463b0e28282604051610e9b929190612796565b60405180910390a1610ec986303384600081518110610ebc57610ebc6126c7565b6020026020010151611e16565b5093509350939050565b604051634576e65d60e11b81526000903090638aedccba903490610efd90889087906004016127ed565b6020604051808303818588803b158015610f1657600080fd5b505af1158015610f2a573d6000803e3d6000fd5b50505050506040513d601f19601f82011682018060405250810190610f4f919061280f565b60405163f4a01e5b60e01b81523360048201526001600160a01b0382166024820152909150309063f4a01e5b90604401602060405180830381600087803b158015610f9957600080fd5b505af1158015610fad573d6000803e3d6000fd5b505050506040513d601f19601f82011682018060405250810190610fd1919061282c565b506040516307e9300f60e11b81526001600160a01b03821660048201523360248201523090630fd2601e90604401602060405180830381600087803b15801561101957600080fd5b505af115801561102d573d6000803e3d6000fd5b505050506040513d601f19601f820116820180604052508101906110519190612845565b5061105e81303386611e5e565b5050505050565b60408051600580825260c08201909252600091829190816020015b61108861221a565b8152602001906001900390816110805790505090506110ac60006006600386611947565b816000815181106110bf576110bf6126c7565b60200260200101819052506110d7600160038561197e565b816001815181106110ea576110ea6126c7565b6020026020010181905250611102600260038561197e565b81600281518110611115576111156126c7565b602002602001018190525061112d600460038561197e565b81600381518110611140576111406126c7565b60200260200101819052506111576003808561197e565b8160048151811061116a5761116a6126c7565b602002602001018190525060006040518060600160405280600063ffffffff168152602001866001600160a01b03168152602001627a120063ffffffff1681525090506000604051806101200160405280600280546111c8906126dd565b80601f01602080910402602001604051908101604052809291908181526020018280546111f4906126dd565b80156112415780601f1061121657610100808354040283529160200191611241565b820191906000526020600020905b81548152906001019060200180831161122457829003601f168201915b5050505050815260200160038054611258906126dd565b80601f0160208091040260200160405190810160405280929190818152602001828054611284906126dd565b80156112d15780601f106112a6576101008083540402835291602001916112d1565b820191906000526020600020905b8154815290600101906020018083116112b457829003601f168201915b50505050508152602001876001600160a01b03168152602001600480546112f7906126dd565b80601f0160208091040260200160405190810160405280929190818152602001828054611323906126dd565b80156113705780601f1061134557610100808354040283529160200191611370565b820191906000526020600020905b81548152906001019060200180831161135357829003601f168201915b505050918352505060016020820152600554600160401b810460070b6040830152600160a01b810460ff16151560608301526080820186905260a090910184905290915060009081906113dd90849067ffffffffffffffff811690600160801b900463ffffffff16611ea6565b9092509050601682146113ef57600080fd5b6040516001600160a01b03821681527f7bb17726df1f3adee8aa00ba8e8bc5d6f182af3bbf77604639cb7f008dd3b4ed9060200160405180910390a1979650505050505050565b604080516001808252818301909252600091816020015b61145561221a565b81526020019060019003908161144d579050509050611487600080600060405180602001604052806000815250611947565b8160008151811061149a5761149a6126c7565b602002602001018190525060006040518060600160405280600063ffffffff168152602001856001600160a01b03168152602001627a120063ffffffff1681525090506000604051806101200160405280600280546114f8906126dd565b80601f0160208091040260200160405190810160405280929190818152602001828054611524906126dd565b80156115715780601f1061154657610100808354040283529160200191611571565b820191906000526020600020905b81548152906001019060200180831161155457829003601f168201915b5050505050815260200160038054611588906126dd565b80601f01602080910402602001604051908101604052809291908181526020018280546115b4906126dd565b80156116015780601f106115d657610100808354040283529160200191611601565b820191906000526020600020905b8154815290600101906020018083116115e457829003601f168201915b50505050508152602001866001600160a01b0316815260200160048054611627906126dd565b80601f0160208091040260200160405190810160405280929190818152602001828054611653906126dd565b80156116a05780601f10611675576101008083540402835291602001916116a0565b820191906000526020600020905b81548152906001019060200180831161168357829003601f168201915b5050509183525050600160208201819052600554600160401b900460070b6040808401919091526000606084018190526080840188905260a09093018690528051828152808201909152929350909190816020015b6040805160a0810182526000808252602080830182905292820181905260608201819052608082015282526000199092019101816116f55750506040805160a081018252600181526001600160a01b03888116602083015260009282018390526060820183905289166080820152825192935091839190611778576117786126c7565b6020908102919091010152604080516001808252818301909252600091816020015b6040805160c08101825260008082526020808301829052928201819052606082018190526080820181905260a0820152825260001990920191018161179a5750506040805160c0810182526004815260056020820152600a91810191909152601e60608201526000608082018190526001600160a01b038a1660a08301528251929350909183919061182e5761182e6126c7565b6020908102919091010152600554600090819061186790869067ffffffffffffffff811690600160801b900463ffffffff168787611f19565b915091507f90a5cf4cffe88b4edbb041cfc7a8a812c48a5ec30b84640fb37690875168e3aa8260405161189c91815260200190565b60405180910390a1601682146107c057600080fd5b6040516001600160a01b038581166024830152848116604483015283166064820152608481018290526000908190819061016790639b23d3d960e01b9060a401610d97565b6040516001600160a01b038581166024830152848116604483015283166064820152608481018290526000908190819061016790630aed65f560e11b9060a401610ca5565b6000610c1c838361204d565b61194f61221a565b60405180604001604052806119648787612083565b815260200161197385856120c5565b905295945050505050565b61198661221a565b604051806040016040528061199a866121db565b81526020016119a985856120c5565b9052949350505050565b600080848061010001516000015163ffffffff1660001480156119e357506101008101516040015163ffffffff16155b156119f9576101008101516276a7006040909101525b6000806101676001600160a01b031634634573396960e01b8a8a8a604051602401611a2693929190612a96565b60408051601f198184030181529181526020820180516001600160e01b03166001600160e01b0319909416939093179092529051611a649190612748565b60006040518083038185875af1925050503d8060008114611aa1576040519150601f19603f3d011682016040523d82523d6000602084013e611aa6565b606091505b509150915081611ab95760156000611acd565b80806020019051810190611acd9190612b4f565b60039190910b999098509650505050505050565b600080828061010001516000015163ffffffff166000148015611b1157506101008101516040015163ffffffff16155b15611b27576101008101516276a7006040909101525b6000806101676001600160a01b031634639c89bb3560e01b88604051602401611b509190612b7b565b60408051601f198184030181529181526020820180516001600160e01b03166001600160e01b0319909416939093179092529051611b8e9190612748565b60006040518083038185875af1925050503d8060008114611bcb576040519150601f19603f3d011682016040523d82523d6000602084013e611bd0565b606091505b509150915081611be35760156000611bf7565b80806020019051810190611bf79190612b4f565b60039190910b97909650945050505050565b6040516001600160a01b038381166024830152821660448201526000908190819061016790638f8d7f9960e01b906064015b60408051601f198184030181529181526020820180516001600160e01b03166001600160e01b0319909416939093179092529051611c799190612748565b6000604051808303816000865af19150503d8060008114611cb6576040519150601f19603f3d011682016040523d82523d6000602084013e611cbb565b606091505b509150915081611ccc576015611ce0565b80806020019051810190611ce0919061277b565b60030b95945050505050565b60008060006101676001600160a01b0316632e63879b60e01b8686604051602401611c3b929190612b8e565b60008060606000806101676001600160a01b031663278e0b8860e01b898989604051602401611d4993929190612be9565b60408051601f198184030181529181526020820180516001600160e01b03166001600160e01b0319909416939093179092529051611d879190612748565b6000604051808303816000865af19150503d8060008114611dc4576040519150601f19603f3d011682016040523d82523d6000602084013e611dc9565b606091505b509150915081611dec576040805160008082526020820190925260159190611e00565b80806020019051810190611e009190612c6d565b60039290920b9a90995090975095505050505050565b6040516001600160a01b038581166024830152848116604483015283166064820152600782900b60848201526000908190819061016790635cfc901160e01b9060a401610d97565b6040516001600160a01b038581166024830152848116604483015283166064820152600782900b6084820152600090819081906101679063eca3691760e01b9060a401610d97565b600080848061010001516000015163ffffffff166000148015611ed657506101008101516040015163ffffffff16155b15611eec576101008101516276a7006040909101525b6000806101676001600160a01b03163463c23baeb660e01b8a8a8a604051602401611a2693929190612d2d565b600080868061010001516000015163ffffffff166000148015611f4957506101008101516040015163ffffffff16155b15611f5f576101008101516276a7006040909101525b6000806101676001600160a01b03163463b937581a60e01b8c8c8c8c8c604051602401611f90959493929190612d66565b60408051601f198184030181529181526020820180516001600160e01b03166001600160e01b0319909416939093179092529051611fce9190612748565b60006040518083038185875af1925050503d806000811461200b576040519150601f19603f3d011682016040523d82523d6000602084013e612010565b606091505b5091509150816120235760156000612037565b808060200190518101906120379190612b4f565b60039190910b9b909a5098505050505050505050565b6040516001600160a01b03838116602483015282166044820152600090819081906101679063248a35ef60e11b90606401611c3b565b60006120a783600681111561209a5761209a612e38565b600160ff9091161b821790565b90506120be82600681111561209a5761209a612e38565b9392505050565b61210b6040518060a0016040528060001515815260200160006001600160a01b03168152602001606081526020016060815260200160006001600160a01b031681525090565b600083600481111561211f5761211f612e38565b141561212e5760018152610c0a565b600183600481111561214257612142612e38565b141561215e576000546001600160a01b03166020820152610c0a565b600283600481111561217257612172612e38565b14156121845760408101829052610c0a565b600383600481111561219857612198612e38565b14156121aa5760608101829052610c0a565b60048360048111156121be576121be612e38565b1415610c0a576000546001600160a01b0316608082015292915050565b6000600160008360068111156121f3576121f3612e38565b600681111561220457612204612e38565b8152602001908152602001600020549050919050565b6040518060400160405280600081526020016122726040518060a0016040528060001515815260200160006001600160a01b03168152602001606081526020016060815260200160006001600160a01b031681525090565b905290565b6001600160a01b038116811461228c57600080fd5b50565b600080604083850312156122a257600080fd5b82356122ad81612277565b915060208301356122bd81612277565b809150509250929050565b634e487b7160e01b600052604160045260246000fd5b604051601f8201601f1916810167ffffffffffffffff81118282101715612307576123076122c8565b604052919050565b600082601f83011261232057600080fd5b813567ffffffffffffffff81111561233a5761233a6122c8565b61234d601f8201601f19166020016122de565b81815284602083860101111561236257600080fd5b816020850160208301376000918101602001919091529392505050565b6000806040838503121561239257600080fd5b823561239d81612277565b9150602083013567ffffffffffffffff8111156123b957600080fd5b6123c58582860161230f565b9150509250929050565b600067ffffffffffffffff8211156123e9576123e96122c8565b5060051b60200190565b6000806040838503121561240657600080fd5b823561241181612277565b915060208381013567ffffffffffffffff81111561242e57600080fd5b8401601f8101861361243f57600080fd5b803561245261244d826123cf565b6122de565b81815260059190911b8201830190838101908883111561247157600080fd5b928401925b8284101561249857833561248981612277565b82529284019290840190612476565b80955050505050509250929050565b600080600080608085870312156124bd57600080fd5b84356124c881612277565b935060208501356124d881612277565b925060408501356124e881612277565b9396929550929360600135925050565b67ffffffffffffffff8116811461228c57600080fd5b60008060006060848603121561252357600080fd5b833561252e81612277565b925060208481013561253f816124f8565b9250604085013567ffffffffffffffff8082111561255c57600080fd5b818701915087601f83011261257057600080fd5b813561257e61244d826123cf565b81815260059190911b8301840190848101908a83111561259d57600080fd5b8585015b838110156125d5578035858111156125b95760008081fd5b6125c78d89838a010161230f565b8452509186019186016125a1565b508096505050505050509250925092565b600081518084526020808501945080840160005b8381101561261957815160070b875295820195908201906001016125fa565b509495945050505050565b83815267ffffffffffffffff8316602082015260606040820152600061264d60608301846125e6565b95945050505050565b8060070b811461228c57600080fd5b60008060006060848603121561267a57600080fd5b833561268581612277565b9250602084013561269581612656565b9150604084013567ffffffffffffffff8111156126b157600080fd5b6126bd8682870161230f565b9150509250925092565b634e487b7160e01b600052603260045260246000fd5b600181811c908216806126f157607f821691505b6020821081141561271257634e487b7160e01b600052602260045260246000fd5b50919050565b60005b8381101561273357818101518382015260200161271b565b83811115612742576000848401525b50505050565b6000825161275a818460208701612718565b9190910192915050565b8051600381900b811461277657600080fd5b919050565b60006020828403121561278d57600080fd5b6120be82612764565b67ffffffffffffffff831681526040602082015260006127b960408301846125e6565b949350505050565b600081518084526127d9816020860160208601612718565b601f01601f19169290920160200192915050565b6001600160a01b03831681526040602082015260006127b960408301846127c1565b60006020828403121561282157600080fd5b81516120be81612277565b60006020828403121561283e57600080fd5b5051919050565b60006020828403121561285757600080fd5b81516120be81612656565b600081518084526020808501808196508360051b8101915082860160005b858110156129195782840389528151604081518652868201519150808787015281511515818701528682015160606001600160a01b03808316828a015283850151935060a09250608083818b01526128db60e08b01866127c1565b928601518a8403603f1901858c01529294506128f785846127c1565b9501511660c09890980197909752505098850198935090840190600101612880565b5091979650505050505050565b6000610160825181855261293c828601826127c1565b9150506020830151848203602086015261295682826127c1565b915050604083015161297360408601826001600160a01b03169052565b506060830151848203606086015261298b82826127c1565b91505060808301516129a1608086018215159052565b5060a08301516129b660a086018260070b9052565b5060c08301516129ca60c086018215159052565b5060e083015184820360e08601526129e28282612862565b61010085810151805163ffffffff9081168984015260208201516001600160a01b03166101208a015260408201511661014089015291935091505090949350505050565b600081518084526020808501945080840160005b83811015612619578151805163ffffffff168852838101516001600160a01b03908116858a01526040808301511515908a01526060808301511515908a0152608091820151169088015260a09096019590820190600101612a3a565b60006060808352612aa981840187612926565b602084820381860152612abc8288612a26565b91506040858303818701528287518085528385019150838901945060005b81811015612b3f578551805163ffffffff908116855286820151811687860152858201511685850152878101516001600160a01b039081168986015260808083015115159086015260a09182015116908401529484019460c090920191600101612ada565b50909a9950505050505050505050565b60008060408385031215612b6257600080fd5b612b6b83612764565b915060208301516122bd81612277565b6020815260006120be6020830184612926565b6000604082016001600160a01b0380861684526020604081860152828651808552606087019150828801945060005b81811015612bdb578551851683529483019491830191600101612bbd565b509098975050505050505050565b6000606082016001600160a01b0386168352602067ffffffffffffffff8616818501526060604085015281855180845260808601915060808160051b870101935082870160005b82811015612c5e57607f19888703018452612c4c8683516127c1565b95509284019290840190600101612c30565b50939998505050505050505050565b600080600060608486031215612c8257600080fd5b612c8b84612764565b9250602080850151612c9c816124f8565b604086015190935067ffffffffffffffff811115612cb957600080fd5b8501601f81018713612cca57600080fd5b8051612cd861244d826123cf565b81815260059190911b82018301908381019089831115612cf757600080fd5b928401925b82841015612d1e578351612d0f81612656565b82529284019290840190612cfc565b80955050505050509250925092565b606081526000612d406060830186612926565b905067ffffffffffffffff8416602083015263ffffffff83166040830152949350505050565b600060a0808352612d7981840189612926565b602067ffffffffffffffff891681860152604063ffffffff808a1682880152606087850381890152612dab858b612a26565b94506080888603818a0152858a518088528688019150868c01975060005b81811015612e23578851805187168452888101518716898501528781015187168885015285810151871686850152848101511515858501528a01516001600160a01b03168a8401529787019760c090920191600101612dc9565b50909f9e505050505050505050505050505050565b634e487b7160e01b600052602160045260246000fdfea26469706673582212200d01acc8ef76bae1a040d7d6b72e7e335108f1322eae22df3d1bb7e67c46632064736f6c63430008090033",
  "linkReferences": {},
  "deployedLinkReferences": {}
}