{
  "_format": "hh-sol-artifact-1",
  "contractName": "TokenCreateContract",
  "sourceName": "contracts/hts-precompile/examples/token-create/TokenCreateContract.sol",
  "abi": [
    {
      "anonymous": false,
      "inputs": [
        {
          "indexed": false,
          "internalType": "address",
          "name": "tokenAddress",
          "type": "address"
        }
      ],
      "name": "CreatedToken",
      "type": "event"
    },
    {
      "anonymous": false,
      "inputs": [
        {
          "indexed": false,
          "internalType": "bool",
          "name": "kycGranted",
          "type": "bool"
        }
      ],
      "name": "KycGranted",
      "type": "event"
    },
    {
      "anonymous": false,
      "inputs": [
        {
          "indexed": false,
          "internalType": "uint64",
          "name": "newTotalSupply",
          "type": "uint64"
        },
        {
          "indexed": false,
          "internalType": "int64[]",
          "name": "serialNumbers",
          "type": "int64[]"
        }
      ],
      "name": "MintedToken",
      "type": "event"
    },
    {
      "anonymous": false,
      "inputs": [
        {
          "indexed": false,
          "internalType": "int256",
          "name": "responseCode",
          "type": "int256"
        }
      ],
      "name": "ResponseCode",
      "type": "event"
    },
    {
      "inputs": [
        {
          "internalType": "address",
          "name": "account",
          "type": "address"
        },
        {
          "internalType": "address",
          "name": "token",
          "type": "address"
        }
      ],
      "name": "associateTokenPublic",
      "outputs": [
        {
          "internalType": "int256",
          "name": "responseCode",
          "type": "int256"
        }
      ],
      "stateMutability": "nonpayable",
      "type": "function"
    },
    {
      "inputs": [
        {
          "internalType": "address",
          "name": "account",
          "type": "address"
        },
        {
          "internalType": "address[]",
          "name": "tokens",
          "type": "address[]"
        }
      ],
      "name": "associateTokensPublic",
      "outputs": [
        {
          "internalType": "int256",
          "name": "responseCode",
          "type": "int256"
        }
      ],
      "stateMutability": "nonpayable",
      "type": "function"
    },
    {
      "inputs": [
        {
          "internalType": "address",
          "name": "treasury",
          "type": "address"
        },
        {
          "internalType": "int64",
          "name": "amount",
          "type": "int64"
        }
      ],
      "name": "createFungibleTokenAssociateAndTransferToAddressPublic",
      "outputs": [],
      "stateMutability": "payable",
      "type": "function"
    },
    {
      "inputs": [
        {
          "internalType": "address",
          "name": "treasury",
          "type": "address"
        }
      ],
      "name": "createFungibleTokenPublic",
      "outputs": [
        {
          "internalType": "address",
          "name": "",
          "type": "address"
        }
      ],
      "stateMutability": "payable",
      "type": "function"
    },
    {
      "inputs": [
        {
          "internalType": "address",
          "name": "treasury",
          "type": "address"
        },
        {
          "internalType": "address",
          "name": "fixedFeeTokenAddress",
          "type": "address"
        }
      ],
      "name": "createFungibleTokenWithCustomFeesPublic",
      "outputs": [],
      "stateMutability": "payable",
      "type": "function"
    },
    {
      "inputs": [
        {
          "internalType": "address",
          "name": "treasury",
          "type": "address"
        }
      ],
      "name": "createNonFungibleTokenPublic",
      "outputs": [],
      "stateMutability": "payable",
      "type": "function"
    },
    {
      "inputs": [
        {
          "internalType": "address",
          "name": "treasury",
          "type": "address"
        },
        {
          "internalType": "address",
          "name": "fixedFeeTokenAddress",
          "type": "address"
        }
      ],
      "name": "createNonFungibleTokenWithCustomFeesPublic",
      "outputs": [],
      "stateMutability": "payable",
      "type": "function"
    },
    {
      "inputs": [
        {
          "internalType": "address",
          "name": "token",
          "type": "address"
        },
        {
          "internalType": "address",
          "name": "from",
          "type": "address"
        },
        {
          "internalType": "address",
          "name": "to",
          "type": "address"
        },
        {
          "internalType": "uint256",
          "name": "amount",
          "type": "uint256"
        }
      ],
      "name": "delegateTransferFrom",
      "outputs": [
        {
          "internalType": "int64",
          "name": "responseCode",
          "type": "int64"
        }
      ],
      "stateMutability": "nonpayable",
      "type": "function"
    },
    {
      "inputs": [
        {
          "internalType": "address",
          "name": "token",
          "type": "address"
        },
        {
          "internalType": "address",
          "name": "from",
          "type": "address"
        },
        {
          "internalType": "address",
          "name": "to",
          "type": "address"
        },
        {
          "internalType": "uint256",
          "name": "serialNumber",
          "type": "uint256"
        }
      ],
      "name": "delegateTransferFromNFT",
      "outputs": [
        {
          "internalType": "int64",
          "name": "responseCode",
          "type": "int64"
        }
      ],
      "stateMutability": "nonpayable",
      "type": "function"
    },
    {
      "inputs": [
        {
          "internalType": "address",
          "name": "token",
          "type": "address"
        },
        {
          "internalType": "address",
          "name": "account",
          "type": "address"
        }
      ],
      "name": "grantTokenKycPublic",
      "outputs": [
        {
          "internalType": "int64",
          "name": "responseCode",
          "type": "int64"
        }
      ],
      "stateMutability": "nonpayable",
      "type": "function"
    },
    {
      "inputs": [
        {
          "internalType": "address",
          "name": "token",
          "type": "address"
        },
        {
          "internalType": "uint64",
          "name": "amount",
          "type": "uint64"
        },
        {
          "internalType": "bytes[]",
          "name": "metadata",
          "type": "bytes[]"
        }
      ],
      "name": "mintTokenToAddressPublic",
      "outputs": [
        {
          "internalType": "int256",
          "name": "responseCode",
          "type": "int256"
        },
        {
          "internalType": "uint64",
          "name": "newTotalSupply",
          "type": "uint64"
        },
        {
          "internalType": "int64[]",
          "name": "serialNumbers",
          "type": "int64[]"
        }
      ],
      "stateMutability": "nonpayable",
      "type": "function"
    },
    {
      "inputs": [
        {
          "internalType": "address",
          "name": "token",
          "type": "address"
        },
        {
          "internalType": "address",
          "name": "from",
          "type": "address"
        },
        {
          "internalType": "address",
          "name": "to",
          "type": "address"
        },
        {
          "internalType": "uint256",
          "name": "amount",
          "type": "uint256"
        }
      ],
      "name": "transferFrom",
      "outputs": [
        {
          "internalType": "int64",
          "name": "responseCode",
          "type": "int64"
        }
      ],
      "stateMutability": "nonpayable",
      "type": "function"
    },
    {
      "inputs": [
        {
          "internalType": "address",
          "name": "token",
          "type": "address"
        },
        {
          "internalType": "address",
          "name": "from",
          "type": "address"
        },
        {
          "internalType": "address",
          "name": "to",
          "type": "address"
        },
        {
          "internalType": "uint256",
          "name": "serialNumber",
          "type": "uint256"
        }
      ],
      "name": "transferFromNFT",
      "outputs": [
        {
          "internalType": "int64",
          "name": "responseCode",
          "type": "int64"
        }
      ],
      "stateMutability": "nonpayable",
      "type": "function"
    }
  ],
  "bytecode": "0x60c06040526009608081905268746f6b656e4e616d6560b81b60a09081526200002c9160029190620001cc565b5060408051808201909152600b8082526a1d1bdad95b94de5b589bdb60aa1b60209092019182526200006191600391620001cc565b50604080518082019091526004808252636d656d6f60e01b60209092019182526200008d9181620001cc565b50600580546001600160a81b031916700800000000000003e800000000000003e8179055348015620000be57600080fd5b50600160208181527fa6eef7e35abe7026729641147f7915573c7e97b47efa546f5f6e3230263bcb499190915560027fcc69885fda6bcc1a4ace058b4a62bf5e179ea78fd58a1ccd71c22cc9b688792f5560047fd9d16d34ffb15ba3a3d852f0d403e2ce1d691fb54de27ac87cd2f993f3ec330f5560087f7dfe757ecd65cbd7922a9c0161e935dd7fdbcc0e999689c7d31633896b1fc60b5560107fedc95719e9a3b28dd8e80877cb5880a9be7de1a13fc8b05e7999683b6b567643557fe2689cd4a84e23ad2f564004f1c9013e9589d260bde6380aba3ca7e09e4df40c55600660005260407f8f331abe73332f95a25873e8b430885974c0409691f89d643119a11623a7924a55620002af565b828054620001da9062000272565b90600052602060002090601f016020900481019282620001fe576000855562000249565b82601f106200021957805160ff191683800117855562000249565b8280016001018555821562000249579182015b82811115620002495782518255916020019190600101906200022c565b50620002579291506200025b565b5090565b5b808211156200025757600081556001016200025c565b600181811c908216806200028757607f821691505b60208210811415620002a957634e487b7160e01b600052602260045260246000fd5b50919050565b612e7280620002bf6000396000f3fe6080604052600436106100d25760003560e01c80634b5c66871161007f578063ce45dcac11610059578063ce45dcac1461021f578063d85f74c114610232578063eac6f3fe14610245578063f4a01e5b1461026557600080fd5b80634b5c6687146101c15780638ba74da0146101ec5780639b23d3d9146101ff57600080fd5b806311e1fc07116100b057806311e1fc071461015257806315dacbea14610172578063492d21f71461019257600080fd5b80630488c939146100d75780630fd2601e146100ec578063118741e714610124575b600080fd5b6100ea6100e5366004612326565b610285565b005b3480156100f857600080fd5b5061010c610107366004612326565b610807565b60405160079190910b81526020015b60405180910390f35b34801561013057600080fd5b5061014461013f3660046123ca565b610864565b60405190815260200161011b565b34801561015e57600080fd5b5061010c61016d36600461247e565b6108b8565b34801561017e57600080fd5b5061010c61018d36600461247e565b6109aa565b34801561019e57600080fd5b506101b26101ad3660046124e5565b610a66565b60405161011b9392919061264f565b6101d46101cf366004612681565b610b27565b6040516001600160a01b03909116815260200161011b565b6100ea6101fa366004612326565b610f43565b34801561020b57600080fd5b5061010c61021a36600461247e565b6113be565b6100ea61022d3660046126ad565b611403565b6100ea610240366004612681565b611596565b34801561025157600080fd5b5061010c61026036600461247e565b61198d565b34801561027157600080fd5b50610144610280366004612326565b6119d2565b60408051600580825260c08201909252600091816020015b6102a56122b1565b81526020019060019003908161029d5790505090506102d8600060066000604051806020016040528060008152506119de565b816000815181106102eb576102eb6126db565b60200260200101819052506103126001600060405180602001604052806000815250611a15565b81600181518110610325576103256126db565b602002602001018190525061034c6002600060405180602001604052806000815250611a15565b8160028151811061035f5761035f6126db565b60200260200101819052506103866004600060405180602001604052806000815250611a15565b81600381518110610399576103996126db565b60200260200101819052506103c06003600060405180602001604052806000815250611a15565b816004815181106103d3576103d36126db565b602002602001018190525060006040518060600160405280600063ffffffff168152602001856001600160a01b03168152602001627a120063ffffffff168152509050600060405180610120016040528060028054610431906126f1565b80601f016020809104026020016040519081016040528092919081815260200182805461045d906126f1565b80156104aa5780601f1061047f576101008083540402835291602001916104aa565b820191906000526020600020905b81548152906001019060200180831161048d57829003601f168201915b50505050508152602001600380546104c1906126f1565b80601f01602080910402602001604051908101604052809291908181526020018280546104ed906126f1565b801561053a5780601f1061050f5761010080835404028352916020019161053a565b820191906000526020600020905b81548152906001019060200180831161051d57829003601f168201915b50505050508152602001866001600160a01b0316815260200160048054610560906126f1565b80601f016020809104026020016040519081016040528092919081815260200182805461058c906126f1565b80156105d95780601f106105ae576101008083540402835291602001916105d9565b820191906000526020600020905b8154815290600101906020018083116105bc57829003601f168201915b5050509183525050600160208201819052600554600160401b810460070b6040840152600160a01b900460ff16151560608301526080820186905260a090910184905290915060009060405190808252806020026020018201604052801561067b57816020015b6040805160a0810182526000808252602080830182905292820181905260608201819052608082015282526000199092019101816106405790505b506040805160a081018252600181526001600160a01b038089166020830152600092820183905260608201839052891660808201528251929350918391906106c5576106c56126db565b6020908102919091010152604080516001808252818301909252600091816020015b6040805160c08101825260008082526020808301829052928201819052606082018190526080820181905260a082015282526000199092019101816106e75790505090506040518060c00160405280600463ffffffff168152602001600563ffffffff168152602001600a63ffffffff168152602001876001600160a01b03168152602001600015158152602001886001600160a01b031681525081600081518110610795576107956126db565b60200260200101819052506000806107ae858585611a4a565b9092509050601682146107c057600080fd5b6040516001600160a01b03821681527f7bb17726df1f3adee8aa00ba8e8bc5d6f182af3bbf77604639cb7f008dd3b4ed9060200160405180910390a1505050505050505050565b60006108138383611b78565b604051600782900b81529091507f90a5cf4cffe88b4edbb041cfc7a8a812c48a5ec30b84640fb37690875168e3aa9060200160405180910390a1600781900b60161461085e57600080fd5b92915050565b60006108708383611c5b565b90507f90a5cf4cffe88b4edbb041cfc7a8a812c48a5ec30b84640fb37690875168e3aa816040516108a391815260200190565b60405180910390a16016811461085e57600080fd5b6040516001600160a01b038581166024830152848116604483015283166064820152608481018290526000908190819061016790639b23d3d960e01b9060a4015b60408051601f198184030181529181526020820180516001600160e01b03166001600160e01b03199094169390931790925290516109379190612758565b600060405180830381855af49150503d8060008114610972576040519150601f19603f3d011682016040523d82523d6000602084013e610977565b606091505b50915091508161098857601561099c565b8080602001905181019061099c919061278b565b60030b979650505050505050565b6040516001600160a01b038581166024830152848116604483015283166064820152608481018290526000908190819061016790630aed65f560e11b9060a4015b60408051601f198184030181529181526020820180516001600160e01b03166001600160e01b0319909416939093179092529051610a299190612758565b6000604051808303816000865af19150503d8060008114610972576040519150601f19603f3d011682016040523d82523d6000602084013e610977565b6000806060610a76868686611c87565b60405183815292955090935091507f90a5cf4cffe88b4edbb041cfc7a8a812c48a5ec30b84640fb37690875168e3aa9060200160405180910390a160168314610abe57600080fd5b7feff23992f47b3c101679f8b4dc9d3e242c903909dba4a453f2b2341ad463b0e28282604051610aef9291906127a6565b60405180910390a1610b1d86303384600081518110610b1057610b106126db565b6020026020010151611d85565b5093509350939050565b60408051600580825260c08201909252600091829190816020015b610b4a6122b1565b815260200190600190039081610b42579050509050610b7d600060066000604051806020016040528060008152506119de565b81600081518110610b9057610b906126db565b6020026020010181905250610bb76001600060405180602001604052806000815250611a15565b81600181518110610bca57610bca6126db565b6020026020010181905250610bf16002600060405180602001604052806000815250611a15565b81600281518110610c0457610c046126db565b6020026020010181905250610c2b6003600060405180602001604052806000815250611a15565b81600381518110610c3e57610c3e6126db565b6020026020010181905250610c656004600060405180602001604052806000815250611a15565b81600481518110610c7857610c786126db565b602002602001018190525060006040518060600160405280600063ffffffff168152602001856001600160a01b03168152602001627a120063ffffffff168152509050600060405180610120016040528060028054610cd6906126f1565b80601f0160208091040260200160405190810160405280929190818152602001828054610d02906126f1565b8015610d4f5780601f10610d2457610100808354040283529160200191610d4f565b820191906000526020600020905b815481529060010190602001808311610d3257829003601f168201915b5050505050815260200160038054610d66906126f1565b80601f0160208091040260200160405190810160405280929190818152602001828054610d92906126f1565b8015610ddf5780601f10610db457610100808354040283529160200191610ddf565b820191906000526020600020905b815481529060010190602001808311610dc257829003601f168201915b50505050508152602001866001600160a01b0316815260200160048054610e05906126f1565b80601f0160208091040260200160405190810160405280929190818152602001828054610e31906126f1565b8015610e7e5780601f10610e5357610100808354040283529160200191610e7e565b820191906000526020600020905b815481529060010190602001808311610e6157829003601f168201915b505050918352505060016020820152600554600160401b810460070b6040830152600160a01b810460ff16151560608301526080820186905260a09091018490529091506000908190610eeb90849067ffffffffffffffff811690600160801b900463ffffffff16611dcd565b909250905060168214610efd57600080fd5b6040516001600160a01b03821681527f7bb17726df1f3adee8aa00ba8e8bc5d6f182af3bbf77604639cb7f008dd3b4ed9060200160405180910390a19695505050505050565b604080516001808252818301909252600091816020015b610f626122b1565b815260200190600190039081610f5a579050509050610f946000806000604051806020016040528060008152506119de565b81600081518110610fa757610fa76126db565b602002602001018190525060006040518060600160405280600063ffffffff168152602001856001600160a01b03168152602001627a120063ffffffff168152509050600060405180610120016040528060028054611005906126f1565b80601f0160208091040260200160405190810160405280929190818152602001828054611031906126f1565b801561107e5780601f106110535761010080835404028352916020019161107e565b820191906000526020600020905b81548152906001019060200180831161106157829003601f168201915b5050505050815260200160038054611095906126f1565b80601f01602080910402602001604051908101604052809291908181526020018280546110c1906126f1565b801561110e5780601f106110e35761010080835404028352916020019161110e565b820191906000526020600020905b8154815290600101906020018083116110f157829003601f168201915b50505050508152602001866001600160a01b0316815260200160048054611134906126f1565b80601f0160208091040260200160405190810160405280929190818152602001828054611160906126f1565b80156111ad5780601f10611182576101008083540402835291602001916111ad565b820191906000526020600020905b81548152906001019060200180831161119057829003601f168201915b5050509183525050600160208201819052600554600160401b900460070b6040808401919091526000606084018190526080840188905260a09093018690528051828152808201909152929350909190816020015b6040805160a0810182526000808252602080830182905292820181905260608201819052608082015282526000199092019101816112025750506040805160a081018252600181526001600160a01b03888116602083015260009282018390526060820183905289166080820152825192935091839190611285576112856126db565b6020908102919091010152604080516001808252818301909252600091816020015b6040805160c08101825260008082526020808301829052928201819052606082018190526080820181905260a082015282526000199092019101816112a75750506040805160c0810182526004815260056020820152600a91810191909152601e60608201526000608082018190526001600160a01b038a1660a08301528251929350909183919061133b5761133b6126db565b6020908102919091010152600554600090819061137490869067ffffffffffffffff811690600160801b900463ffffffff168787611e40565b915091507f90a5cf4cffe88b4edbb041cfc7a8a812c48a5ec30b84640fb37690875168e3aa826040516113a991815260200190565b60405180910390a1601682146107c057600080fd5b6040516001600160a01b038581166024830152848116604483015283166064820152608481018290526000908190819061016790639b23d3d960e01b9060a4016109eb565b604051634b5c668760e01b81526001600160a01b03831660048201526000903090634b5c66879034906024016020604051808303818588803b15801561144857600080fd5b505af115801561145c573d6000803e3d6000fd5b50505050506040513d601f19601f8201168201806040525081019061148191906127d1565b60405163f4a01e5b60e01b81523360048201526001600160a01b0382166024820152909150309063f4a01e5b90604401602060405180830381600087803b1580156114cb57600080fd5b505af11580156114df573d6000803e3d6000fd5b505050506040513d601f19601f8201168201806040525081019061150391906127ee565b506040516307e9300f60e11b81526001600160a01b03821660048201523360248201523090630fd2601e90604401602060405180830381600087803b15801561154b57600080fd5b505af115801561155f573d6000803e3d6000fd5b505050506040513d601f19601f820116820180604052508101906115839190612807565b5061159081303385611f74565b50505050565b60408051600580825260c08201909252600091816020015b6115b66122b1565b8152602001906001900390816115ae5790505090506115e9600060066000604051806020016040528060008152506119de565b816000815181106115fc576115fc6126db565b60200260200101819052506116236001600060405180602001604052806000815250611a15565b81600181518110611636576116366126db565b602002602001018190525061165d6002600060405180602001604052806000815250611a15565b81600281518110611670576116706126db565b60200260200101819052506116976004600060405180602001604052806000815250611a15565b816003815181106116aa576116aa6126db565b60200260200101819052506116d16003600060405180602001604052806000815250611a15565b816004815181106116e4576116e46126db565b602002602001018190525060006040518060600160405280600063ffffffff168152602001846001600160a01b03168152602001627a120063ffffffff168152509050600060405180610120016040528060028054611742906126f1565b80601f016020809104026020016040519081016040528092919081815260200182805461176e906126f1565b80156117bb5780601f10611790576101008083540402835291602001916117bb565b820191906000526020600020905b81548152906001019060200180831161179e57829003601f168201915b50505050508152602001600380546117d2906126f1565b80601f01602080910402602001604051908101604052809291908181526020018280546117fe906126f1565b801561184b5780601f106118205761010080835404028352916020019161184b565b820191906000526020600020905b81548152906001019060200180831161182e57829003601f168201915b50505050508152602001856001600160a01b0316815260200160048054611871906126f1565b80601f016020809104026020016040519081016040528092919081815260200182805461189d906126f1565b80156118ea5780601f106118bf576101008083540402835291602001916118ea565b820191906000526020600020905b8154815290600101906020018083116118cd57829003601f168201915b505050918352505060016020820152600554600160401b810460070b6040830152600160a01b900460ff16151560608201526080810185905260a001839052905060008061193783611fbc565b90925090506016821461194957600080fd5b6040516001600160a01b03821681527f7bb17726df1f3adee8aa00ba8e8bc5d6f182af3bbf77604639cb7f008dd3b4ed9060200160405180910390a1505050505050565b6040516001600160a01b038581166024830152848116604483015283166064820152608481018290526000908190819061016790630aed65f560e11b9060a4016108f9565b600061087083836120e4565b6119e66122b1565b60405180604001604052806119fb878761211a565b8152602001611a0a858561215c565b905295945050505050565b611a1d6122b1565b6040518060400160405280611a3186612272565b8152602001611a40858561215c565b9052949350505050565b600080848061010001516000015163ffffffff166000148015611a7a57506101008101516040015163ffffffff16155b15611a90576101008101516276a7006040909101525b6000806101676001600160a01b031634634573396960e01b8a8a8a604051602401611abd93929190612a84565b60408051601f198184030181529181526020820180516001600160e01b03166001600160e01b0319909416939093179092529051611afb9190612758565b60006040518083038185875af1925050503d8060008114611b38576040519150601f19603f3d011682016040523d82523d6000602084013e611b3d565b606091505b509150915081611b505760156000611b64565b80806020019051810190611b649190612b3d565b60039190910b999098509650505050505050565b6040516001600160a01b038381166024830152821660448201526000908190819061016790638f8d7f9960e01b906064015b60408051601f198184030181529181526020820180516001600160e01b03166001600160e01b0319909416939093179092529051611be89190612758565b6000604051808303816000865af19150503d8060008114611c25576040519150601f19603f3d011682016040523d82523d6000602084013e611c2a565b606091505b509150915081611c3b576015611c4f565b80806020019051810190611c4f919061278b565b60030b95945050505050565b60008060006101676001600160a01b0316632e63879b60e01b8686604051602401611baa929190612b69565b60008060606000806101676001600160a01b031663278e0b8860e01b898989604051602401611cb893929190612bc4565b60408051601f198184030181529181526020820180516001600160e01b03166001600160e01b0319909416939093179092529051611cf69190612758565b6000604051808303816000865af19150503d8060008114611d33576040519150601f19603f3d011682016040523d82523d6000602084013e611d38565b606091505b509150915081611d5b576040805160008082526020820190925260159190611d6f565b80806020019051810190611d6f9190612c48565b60039290920b9a90995090975095505050505050565b6040516001600160a01b038581166024830152848116604483015283166064820152600782900b60848201526000908190819061016790635cfc901160e01b9060a4016109eb565b600080848061010001516000015163ffffffff166000148015611dfd57506101008101516040015163ffffffff16155b15611e13576101008101516276a7006040909101525b6000806101676001600160a01b03163463c23baeb660e01b8a8a8a604051602401611abd93929190612d08565b600080868061010001516000015163ffffffff166000148015611e7057506101008101516040015163ffffffff16155b15611e86576101008101516276a7006040909101525b6000806101676001600160a01b03163463b937581a60e01b8c8c8c8c8c604051602401611eb7959493929190612d41565b60408051601f198184030181529181526020820180516001600160e01b03166001600160e01b0319909416939093179092529051611ef59190612758565b60006040518083038185875af1925050503d8060008114611f32576040519150601f19603f3d011682016040523d82523d6000602084013e611f37565b606091505b509150915081611f4a5760156000611f5e565b80806020019051810190611f5e9190612b3d565b60039190910b9b909a5098505050505050505050565b6040516001600160a01b038581166024830152848116604483015283166064820152600782900b6084820152600090819081906101679063eca3691760e01b9060a4016109eb565b600080828061010001516000015163ffffffff166000148015611fec57506101008101516040015163ffffffff16155b15612002576101008101516276a7006040909101525b6000806101676001600160a01b031634639c89bb3560e01b8860405160240161202b9190612e13565b60408051601f198184030181529181526020820180516001600160e01b03166001600160e01b03199094169390931790925290516120699190612758565b60006040518083038185875af1925050503d80600081146120a6576040519150601f19603f3d011682016040523d82523d6000602084013e6120ab565b606091505b5091509150816120be57601560006120d2565b808060200190518101906120d29190612b3d565b60039190910b97909650945050505050565b6040516001600160a01b03838116602483015282166044820152600090819081906101679063248a35ef60e11b90606401611baa565b600061213e83600681111561213157612131612e26565b600160ff9091161b821790565b905061215582600681111561213157612131612e26565b9392505050565b6121a26040518060a0016040528060001515815260200160006001600160a01b03168152602001606081526020016060815260200160006001600160a01b031681525090565b60008360048111156121b6576121b6612e26565b14156121c5576001815261085e565b60018360048111156121d9576121d9612e26565b14156121f5576000546001600160a01b0316602082015261085e565b600283600481111561220957612209612e26565b141561221b576040810182905261085e565b600383600481111561222f5761222f612e26565b1415612241576060810182905261085e565b600483600481111561225557612255612e26565b141561085e576000546001600160a01b0316608082015292915050565b60006001600083600681111561228a5761228a612e26565b600681111561229b5761229b612e26565b8152602001908152602001600020549050919050565b6040518060400160405280600081526020016123096040518060a0016040528060001515815260200160006001600160a01b03168152602001606081526020016060815260200160006001600160a01b031681525090565b905290565b6001600160a01b038116811461232357600080fd5b50565b6000806040838503121561233957600080fd5b82356123448161230e565b915060208301356123548161230e565b809150509250929050565b634e487b7160e01b600052604160045260246000fd5b604051601f8201601f1916810167ffffffffffffffff8111828210171561239e5761239e61235f565b604052919050565b600067ffffffffffffffff8211156123c0576123c061235f565b5060051b60200190565b600080604083850312156123dd57600080fd5b82356123e88161230e565b915060208381013567ffffffffffffffff81111561240557600080fd5b8401601f8101861361241657600080fd5b8035612429612424826123a6565b612375565b81815260059190911b8201830190838101908883111561244857600080fd5b928401925b8284101561246f5783356124608161230e565b8252928401929084019061244d565b80955050505050509250929050565b6000806000806080858703121561249457600080fd5b843561249f8161230e565b935060208501356124af8161230e565b925060408501356124bf8161230e565b9396929550929360600135925050565b67ffffffffffffffff8116811461232357600080fd5b6000806000606084860312156124fa57600080fd5b83356125058161230e565b9250602084810135612516816124cf565b925060408581013567ffffffffffffffff8082111561253457600080fd5b818801915088601f83011261254857600080fd5b8135612556612424826123a6565b81815260059190911b8301850190858101908b83111561257557600080fd5b8685015b838110156125ff578035858111156125915760008081fd5b8601603f81018e136125a35760008081fd5b88810135868111156125b7576125b761235f565b6125c9601f8201601f19168b01612375565b8181528f8a8385010111156125de5760008081fd5b818a84018c83013760009181018b0191909152845250918701918701612579565b50809750505050505050509250925092565b600081518084526020808501945080840160005b8381101561264457815160070b87529582019590820190600101612625565b509495945050505050565b83815267ffffffffffffffff831660208201526060604082015260006126786060830184612611565b95945050505050565b60006020828403121561269357600080fd5b81356121558161230e565b8060070b811461232357600080fd5b600080604083850312156126c057600080fd5b82356126cb8161230e565b915060208301356123548161269e565b634e487b7160e01b600052603260045260246000fd5b600181811c9082168061270557607f821691505b6020821081141561272657634e487b7160e01b600052602260045260246000fd5b50919050565b60005b8381101561274757818101518382015260200161272f565b838111156115905750506000910152565b6000825161276a81846020870161272c565b9190910192915050565b8051600381900b811461278657600080fd5b919050565b60006020828403121561279d57600080fd5b61215582612774565b67ffffffffffffffff831681526040602082015260006127c96040830184612611565b949350505050565b6000602082840312156127e357600080fd5b81516121558161230e565b60006020828403121561280057600080fd5b5051919050565b60006020828403121561281957600080fd5b81516121558161269e565b6000815180845261283c81602086016020860161272c565b601f01601f19169290920160200192915050565b600081518084526020808501808196508360051b8101915082860160005b858110156129075782840389528151604081518652868201519150808787015281511515818701528682015160606001600160a01b03808316828a015283850151935060a09250608083818b01526128c960e08b0186612824565b928601518a8403603f1901858c01529294506128e58584612824565b9501511660c0989098019790975250509885019893509084019060010161286e565b5091979650505050505050565b6000610160825181855261292a82860182612824565b915050602083015184820360208601526129448282612824565b915050604083015161296160408601826001600160a01b03169052565b50606083015184820360608601526129798282612824565b915050608083015161298f608086018215159052565b5060a08301516129a460a086018260070b9052565b5060c08301516129b860c086018215159052565b5060e083015184820360e08601526129d08282612850565b61010085810151805163ffffffff9081168984015260208201516001600160a01b03166101208a015260408201511661014089015291935091505090949350505050565b600081518084526020808501945080840160005b83811015612644578151805163ffffffff168852838101516001600160a01b03908116858a01526040808301511515908a01526060808301511515908a0152608091820151169088015260a09096019590820190600101612a28565b60006060808352612a9781840187612914565b602084820381860152612aaa8288612a14565b91506040858303818701528287518085528385019150838901945060005b81811015612b2d578551805163ffffffff908116855286820151811687860152858201511685850152878101516001600160a01b039081168986015260808083015115159086015260a09182015116908401529484019460c090920191600101612ac8565b50909a9950505050505050505050565b60008060408385031215612b5057600080fd5b612b5983612774565b915060208301516123548161230e565b6000604082016001600160a01b0380861684526020604081860152828651808552606087019150828801945060005b81811015612bb6578551851683529483019491830191600101612b98565b509098975050505050505050565b6000606082016001600160a01b0386168352602067ffffffffffffffff8616818501526060604085015281855180845260808601915060808160051b870101935082870160005b82811015612c3957607f19888703018452612c27868351612824565b95509284019290840190600101612c0b565b50939998505050505050505050565b600080600060608486031215612c5d57600080fd5b612c6684612774565b9250602080850151612c77816124cf565b604086015190935067ffffffffffffffff811115612c9457600080fd5b8501601f81018713612ca557600080fd5b8051612cb3612424826123a6565b81815260059190911b82018301908381019089831115612cd257600080fd5b928401925b82841015612cf9578351612cea8161269e565b82529284019290840190612cd7565b80955050505050509250925092565b606081526000612d1b6060830186612914565b905067ffffffffffffffff8416602083015263ffffffff83166040830152949350505050565b600060a0808352612d5481840189612914565b602067ffffffffffffffff891681860152604063ffffffff808a1682880152606087850381890152612d86858b612a14565b94506080888603818a0152858a518088528688019150868c01975060005b81811015612dfe578851805187168452888101518716898501528781015187168885015285810151871686850152848101511515858501528a01516001600160a01b03168a8401529787019760c090920191600101612da4565b50909f9e505050505050505050505050505050565b6020815260006121556020830184612914565b634e487b7160e01b600052602160045260246000fdfea2646970667358221220ef82ec448e45bc38485dc90e17d2771dc39166da9cf645546f5b48edb52acdba64736f6c63430008090033",
  "linkReferences": {},
  "deployedLinkReferences": {}
}