{
  "_format": "hh-sol-artifact-1",
  "contractName": "TokenCreateContract",
  "sourceName": "contracts/hts-precompile/examples/token-create/TokenCreateContract.sol",
  "abi": [
    {
      "anonymous": false,
      "inputs": [
        {
          "indexed": false,
          "internalType": "bool",
          "name": "",
          "type": "bool"
        },
        {
          "indexed": false,
          "internalType": "bytes",
          "name": "",
          "type": "bytes"
        }
      ],
      "name": "CallResponseEvent",
      "type": "event"
    },
    {
      "anonymous": false,
      "inputs": [
        {
          "indexed": false,
          "internalType": "address",
          "name": "tokenAddress",
          "type": "address"
        }
      ],
      "name": "CreatedToken",
      "type": "event"
    },
    {
      "anonymous": false,
      "inputs": [
        {
          "indexed": false,
          "internalType": "bool",
          "name": "kycGranted",
          "type": "bool"
        }
      ],
      "name": "KycGranted",
      "type": "event"
    },
    {
      "anonymous": false,
      "inputs": [
        {
          "indexed": false,
          "internalType": "int64",
          "name": "newTotalSupply",
          "type": "int64"
        },
        {
          "indexed": false,
          "internalType": "int64[]",
          "name": "serialNumbers",
          "type": "int64[]"
        }
      ],
      "name": "MintedToken",
      "type": "event"
    },
    {
      "anonymous": false,
      "inputs": [
        {
          "indexed": false,
          "internalType": "int256",
          "name": "responseCode",
          "type": "int256"
        }
      ],
      "name": "ResponseCode",
      "type": "event"
    },
    {
      "inputs": [
        {
          "internalType": "address",
          "name": "account",
          "type": "address"
        },
        {
          "internalType": "address",
          "name": "token",
          "type": "address"
        }
      ],
      "name": "associateTokenPublic",
      "outputs": [
        {
          "internalType": "int256",
          "name": "responseCode",
          "type": "int256"
        }
      ],
      "stateMutability": "nonpayable",
      "type": "function"
    },
    {
      "inputs": [
        {
          "internalType": "address",
          "name": "account",
          "type": "address"
        },
        {
          "internalType": "address[]",
          "name": "tokens",
          "type": "address[]"
        }
      ],
      "name": "associateTokensPublic",
      "outputs": [
        {
          "internalType": "int256",
          "name": "responseCode",
          "type": "int256"
        }
      ],
      "stateMutability": "nonpayable",
      "type": "function"
    },
    {
      "inputs": [
        {
          "internalType": "address",
          "name": "treasury",
          "type": "address"
        }
      ],
      "name": "createFungibleTokenPublic",
      "outputs": [],
      "stateMutability": "payable",
      "type": "function"
    },
    {
      "inputs": [
        {
          "internalType": "address",
          "name": "treasury",
          "type": "address"
        },
        {
          "internalType": "address",
          "name": "fixedFeeTokenAddress",
          "type": "address"
        }
      ],
      "name": "createFungibleTokenWithCustomFeesPublic",
      "outputs": [],
      "stateMutability": "payable",
      "type": "function"
    },
    {
      "inputs": [
        {
          "internalType": "address",
          "name": "treasury",
          "type": "address"
        },
        {
          "internalType": "bytes",
          "name": "adminKey",
          "type": "bytes"
        },
        {
          "internalType": "int64",
          "name": "amount",
          "type": "int64"
        }
      ],
      "name": "createFungibleTokenWithSECP256K1AdminKeyAssociateAndTransferToAddressPublic",
      "outputs": [],
      "stateMutability": "payable",
      "type": "function"
    },
    {
      "inputs": [
        {
          "internalType": "address",
          "name": "treasury",
          "type": "address"
        },
        {
          "internalType": "bytes",
          "name": "adminKey",
          "type": "bytes"
        }
      ],
      "name": "createFungibleTokenWithSECP256K1AdminKeyPublic",
      "outputs": [
        {
          "internalType": "address",
          "name": "",
          "type": "address"
        }
      ],
      "stateMutability": "payable",
      "type": "function"
    },
    {
      "inputs": [
        {
          "internalType": "address",
          "name": "treasury",
          "type": "address"
        },
        {
          "internalType": "bytes",
          "name": "adminKey",
          "type": "bytes"
        }
      ],
      "name": "createFungibleTokenWithSECP256K1AdminKeyWithoutKYCPublic",
      "outputs": [
        {
          "internalType": "address",
          "name": "",
          "type": "address"
        }
      ],
      "stateMutability": "payable",
      "type": "function"
    },
    {
      "inputs": [
        {
          "internalType": "address",
          "name": "treasury",
          "type": "address"
        }
      ],
      "name": "createNonFungibleTokenPublic",
      "outputs": [],
      "stateMutability": "payable",
      "type": "function"
    },
    {
      "inputs": [
        {
          "internalType": "address",
          "name": "treasury",
          "type": "address"
        },
        {
          "internalType": "address",
          "name": "fixedFeeTokenAddress",
          "type": "address"
        }
      ],
      "name": "createNonFungibleTokenWithCustomFeesPublic",
      "outputs": [],
      "stateMutability": "payable",
      "type": "function"
    },
    {
      "inputs": [
        {
          "internalType": "address",
          "name": "treasury",
          "type": "address"
        },
        {
          "internalType": "bytes",
          "name": "adminKey",
          "type": "bytes"
        }
      ],
      "name": "createNonFungibleTokenWithSECP256K1AdminKeyPublic",
      "outputs": [],
      "stateMutability": "payable",
      "type": "function"
    },
    {
      "inputs": [
        {
          "internalType": "address",
          "name": "treasury",
          "type": "address"
        },
        {
          "internalType": "bytes",
          "name": "adminKey",
          "type": "bytes"
        }
      ],
      "name": "createNonFungibleTokenWithSECP256K1AdminKeyWithoutKYCPublic",
      "outputs": [],
      "stateMutability": "payable",
      "type": "function"
    },
    {
      "inputs": [
        {
          "internalType": "address",
          "name": "token",
          "type": "address"
        },
        {
          "internalType": "address",
          "name": "account",
          "type": "address"
        }
      ],
      "name": "grantTokenKycPublic",
      "outputs": [
        {
          "internalType": "int64",
          "name": "responseCode",
          "type": "int64"
        }
      ],
      "stateMutability": "nonpayable",
      "type": "function"
    },
    {
      "inputs": [
        {
          "internalType": "address",
          "name": "token",
          "type": "address"
        },
        {
          "internalType": "int64",
          "name": "amount",
          "type": "int64"
        },
        {
          "internalType": "bytes[]",
          "name": "metadata",
          "type": "bytes[]"
        }
      ],
      "name": "mintTokenPublic",
      "outputs": [
        {
          "internalType": "int256",
          "name": "responseCode",
          "type": "int256"
        },
        {
          "internalType": "int64",
          "name": "newTotalSupply",
          "type": "int64"
        },
        {
          "internalType": "int64[]",
          "name": "serialNumbers",
          "type": "int64[]"
        }
      ],
      "stateMutability": "nonpayable",
      "type": "function"
    },
    {
      "inputs": [
        {
          "internalType": "address",
          "name": "token",
          "type": "address"
        },
        {
          "internalType": "int64",
          "name": "amount",
          "type": "int64"
        },
        {
          "internalType": "bytes[]",
          "name": "metadata",
          "type": "bytes[]"
        }
      ],
      "name": "mintTokenToAddressPublic",
      "outputs": [
        {
          "internalType": "int256",
          "name": "responseCode",
          "type": "int256"
        },
        {
          "internalType": "int64",
          "name": "newTotalSupply",
          "type": "int64"
        },
        {
          "internalType": "int64[]",
          "name": "serialNumbers",
          "type": "int64[]"
        }
      ],
      "stateMutability": "nonpayable",
      "type": "function"
    },
    {
      "inputs": [
        {
          "internalType": "address",
          "name": "token",
          "type": "address"
        },
        {
          "internalType": "bytes",
          "name": "encodedFunctionSelector",
          "type": "bytes"
        }
      ],
      "name": "redirectForToken",
      "outputs": [],
      "stateMutability": "nonpayable",
      "type": "function"
    },
    {
      "inputs": [
        {
          "internalType": "address",
          "name": "token",
          "type": "address"
        },
        {
          "internalType": "address",
          "name": "from",
          "type": "address"
        },
        {
          "internalType": "address",
          "name": "to",
          "type": "address"
        },
        {
          "internalType": "uint256",
          "name": "amount",
          "type": "uint256"
        }
      ],
      "name": "transferFrom",
      "outputs": [
        {
          "internalType": "int64",
          "name": "responseCode",
          "type": "int64"
        }
      ],
      "stateMutability": "nonpayable",
      "type": "function"
    },
    {
      "inputs": [
        {
          "internalType": "address",
          "name": "token",
          "type": "address"
        },
        {
          "internalType": "address",
          "name": "from",
          "type": "address"
        },
        {
          "internalType": "address",
          "name": "to",
          "type": "address"
        },
        {
          "internalType": "uint256",
          "name": "serialNumber",
          "type": "uint256"
        }
      ],
      "name": "transferFromNFT",
      "outputs": [
        {
          "internalType": "int64",
          "name": "responseCode",
          "type": "int64"
        }
      ],
      "stateMutability": "nonpayable",
      "type": "function"
    },
    {
      "inputs": [
        {
          "internalType": "address",
          "name": "token",
          "type": "address"
        },
        {
          "components": [
            {
              "internalType": "string",
              "name": "name",
              "type": "string"
            },
            {
              "internalType": "string",
              "name": "symbol",
              "type": "string"
            },
            {
              "internalType": "address",
              "name": "treasury",
              "type": "address"
            },
            {
              "internalType": "string",
              "name": "memo",
              "type": "string"
            },
            {
              "internalType": "bool",
              "name": "tokenSupplyType",
              "type": "bool"
            },
            {
              "internalType": "int64",
              "name": "maxSupply",
              "type": "int64"
            },
            {
              "internalType": "bool",
              "name": "freezeDefault",
              "type": "bool"
            },
            {
              "components": [
                {
                  "internalType": "uint256",
                  "name": "keyType",
                  "type": "uint256"
                },
                {
                  "components": [
                    {
                      "internalType": "bool",
                      "name": "inheritAccountKey",
                      "type": "bool"
                    },
                    {
                      "internalType": "address",
                      "name": "contractId",
                      "type": "address"
                    },
                    {
                      "internalType": "bytes",
                      "name": "ed25519",
                      "type": "bytes"
                    },
                    {
                      "internalType": "bytes",
                      "name": "ECDSA_secp256k1",
                      "type": "bytes"
                    },
                    {
                      "internalType": "address",
                      "name": "delegatableContractId",
                      "type": "address"
                    }
                  ],
                  "internalType": "struct IHederaTokenService.KeyValue",
                  "name": "key",
                  "type": "tuple"
                }
              ],
              "internalType": "struct IHederaTokenService.TokenKey[]",
              "name": "tokenKeys",
              "type": "tuple[]"
            },
            {
              "components": [
                {
                  "internalType": "int64",
                  "name": "second",
                  "type": "int64"
                },
                {
                  "internalType": "address",
                  "name": "autoRenewAccount",
                  "type": "address"
                },
                {
                  "internalType": "int64",
                  "name": "autoRenewPeriod",
                  "type": "int64"
                }
              ],
              "internalType": "struct IHederaTokenService.Expiry",
              "name": "expiry",
              "type": "tuple"
            }
          ],
          "internalType": "struct IHederaTokenService.HederaToken",
          "name": "tokenInfo",
          "type": "tuple"
        }
      ],
      "name": "updateTokenInfoPublic",
      "outputs": [
        {
          "internalType": "int256",
          "name": "responseCode",
          "type": "int256"
        }
      ],
      "stateMutability": "nonpayable",
      "type": "function"
    }
  ],
  "bytecode": "0x60c06040526009608081905268746f6b656e4e616d6560b81b60a09081526200002c9160029190620001cc565b5060408051808201909152600b8082526a1d1bdad95b94de5b589bdb60aa1b60209092019182526200006191600391620001cc565b50604080518082019091526004808252636d656d6f60e01b60209092019182526200008d9181620001cc565b50600580546001600160a81b031916700800000000000003e800000000000003e8179055348015620000be57600080fd5b50600160208181527fa6eef7e35abe7026729641147f7915573c7e97b47efa546f5f6e3230263bcb499190915560027fcc69885fda6bcc1a4ace058b4a62bf5e179ea78fd58a1ccd71c22cc9b688792f5560047fd9d16d34ffb15ba3a3d852f0d403e2ce1d691fb54de27ac87cd2f993f3ec330f5560087f7dfe757ecd65cbd7922a9c0161e935dd7fdbcc0e999689c7d31633896b1fc60b5560107fedc95719e9a3b28dd8e80877cb5880a9be7de1a13fc8b05e7999683b6b567643557fe2689cd4a84e23ad2f564004f1c9013e9589d260bde6380aba3ca7e09e4df40c55600660005260407f8f331abe73332f95a25873e8b430885974c0409691f89d643119a11623a7924a55620002af565b828054620001da9062000272565b90600052602060002090601f016020900481019282620001fe576000855562000249565b82601f106200021957805160ff191683800117855562000249565b8280016001018555821562000249579182015b82811115620002495782518255916020019190600101906200022c565b50620002579291506200025b565b5090565b5b808211156200025757600081556001016200025c565b600181811c908216806200028757607f821691505b60208210811415620002a957634e487b7160e01b600052602260045260246000fd5b50919050565b613cc480620002bf6000396000f3fe6080604052600436106101095760003560e01c80638ba74da011610095578063cc265af411610064578063cc265af4146102af578063d85f74c1146102c2578063de84a779146102d5578063e9f73226146102f5578063f4a01e5b1461030857600080fd5b80638ba74da01461023e5780638f74a17b146102515780639b23d3d91461027c578063b35d417a1461029c57600080fd5b806336348de3116100dc57806336348de3146101a95780634b5c6687146101c95780634d1769d6146101dc578063618dc65e1461020b57806371de37071461022b57600080fd5b80630488c9391461010e5780630fd2601e14610123578063118741e71461015b57806315dacbea14610189575b600080fd5b61012161011c366004612d0c565b610328565b005b34801561012f57600080fd5b5061014361013e366004612d0c565b61089b565b60405160079190910b81526020015b60405180910390f35b34801561016757600080fd5b5061017b610176366004612e20565b6108f8565b604051908152602001610152565b34801561019557600080fd5b506101436101a4366004612ed4565b61094c565b3480156101b557600080fd5b5061017b6101c436600461319a565b610a40565b6101216101d73660046132e2565b610a4c565b3480156101e857600080fd5b506101fc6101f73660046132ff565b610e54565b60405161015293929190613415565b34801561021757600080fd5b50610121610226366004613440565b610f15565b610121610239366004613490565b611003565b61012161024c366004612d0c565b611195565b61026461025f366004613440565b611601565b6040516001600160a01b039091168152602001610152565b34801561028857600080fd5b50610143610297366004612ed4565b6119c3565b6101216102aa366004613440565b611a08565b6101216102bd366004613440565b611dae565b6101216102d03660046132e2565b611e85565b3480156102e157600080fd5b506101fc6102f03660046132ff565b612220565b610264610303366004613440565b6122ba565b34801561031457600080fd5b5061017b610323366004612d0c565b612394565b60408051600580825260c08201909252600091816020015b610348612c87565b81526020019060019003908161034057905050905061037b600060066000604051806020016040528060008152506123a0565b8160008151811061038e5761038e6134f4565b60200260200101819052506103b560016000604051806020016040528060008152506123d7565b816001815181106103c8576103c86134f4565b60200260200101819052506103ef60026000604051806020016040528060008152506123d7565b81600281518110610402576104026134f4565b602002602001018190525061042960046000604051806020016040528060008152506123d7565b8160038151811061043c5761043c6134f4565b602002602001018190525061046360036000604051806020016040528060008152506123d7565b81600481518110610476576104766134f4565b602002602001018190525060006040518060600160405280600060070b8152602001856001600160a01b03168152602001627a120060070b81525090506000604051806101200160405280600280546104ce9061350a565b80601f01602080910402602001604051908101604052809291908181526020018280546104fa9061350a565b80156105475780601f1061051c57610100808354040283529160200191610547565b820191906000526020600020905b81548152906001019060200180831161052a57829003601f168201915b505050505081526020016003805461055e9061350a565b80601f016020809104026020016040519081016040528092919081815260200182805461058a9061350a565b80156105d75780601f106105ac576101008083540402835291602001916105d7565b820191906000526020600020905b8154815290600101906020018083116105ba57829003601f168201915b50505050508152602001866001600160a01b03168152602001600480546105fd9061350a565b80601f01602080910402602001604051908101604052809291908181526020018280546106299061350a565b80156106765780601f1061064b57610100808354040283529160200191610676565b820191906000526020600020905b81548152906001019060200180831161065957829003601f168201915b5050509183525050600160208201819052600554600160401b810460070b6040840152600160a01b900460ff16151560608301526080820186905260a090910184905290915060009060405190808252806020026020018201604052801561071857816020015b6040805160a0810182526000808252602080830182905292820181905260608201819052608082015282526000199092019101816106dd5790505b506040805160a081018252600181526001600160a01b03808916602083015260009282018390526060820183905289166080820152825192935091839190610762576107626134f4565b6020908102919091010152604080516001808252818301909252600091816020015b6040805160c08101825260008082526020808301829052928201819052606082018190526080820181905260a082015282526000199092019101816107845790505090506040518060c00160405280600460070b8152602001600560070b8152602001600a60070b8152602001876001600160a01b03168152602001600015158152602001886001600160a01b031681525081600081518110610829576108296134f4565b602002602001018190525060008061084285858561240c565b90925090506016821461085457600080fd5b6040516001600160a01b03821681527f7bb17726df1f3adee8aa00ba8e8bc5d6f182af3bbf77604639cb7f008dd3b4ed9060200160405180910390a1505050505050505050565b60006108a78383612534565b604051600782900b81529091507f90a5cf4cffe88b4edbb041cfc7a8a812c48a5ec30b84640fb37690875168e3aa9060200160405180910390a1600781900b6016146108f257600080fd5b92915050565b60006109048383612617565b90507f90a5cf4cffe88b4edbb041cfc7a8a812c48a5ec30b84640fb37690875168e3aa8160405161093791815260200190565b60405180910390a1601681146108f257600080fd5b6040516001600160a01b038581166024830152848116604483015283166064820152608481018290526000908190819061016790630aed65f560e11b9060a4015b60408051601f198184030181529181526020820180516001600160e01b03166001600160e01b03199094169390931790925290516109cb9190613575565b6000604051808303816000865af19150503d8060008114610a08576040519150601f19603f3d011682016040523d82523d6000602084013e610a0d565b606091505b509150915081610a1e576015610a32565b80806020019051810190610a3291906135a3565b60030b979650505050505050565b60006109048383612643565b60408051600580825260c08201909252600091816020015b610a6c612c87565b815260200190600190039081610a64579050509050610a9f600060066000604051806020016040528060008152506123a0565b81600081518110610ab257610ab26134f4565b6020026020010181905250610ad960016000604051806020016040528060008152506123d7565b81600181518110610aec57610aec6134f4565b6020026020010181905250610b1360026000604051806020016040528060008152506123d7565b81600281518110610b2657610b266134f4565b6020026020010181905250610b4d60036000604051806020016040528060008152506123d7565b81600381518110610b6057610b606134f4565b6020026020010181905250610b8760046000604051806020016040528060008152506123d7565b81600481518110610b9a57610b9a6134f4565b602002602001018190525060006040518060600160405280600060070b8152602001846001600160a01b03168152602001627a120060070b8152509050600060405180610120016040528060028054610bf29061350a565b80601f0160208091040260200160405190810160405280929190818152602001828054610c1e9061350a565b8015610c6b5780601f10610c4057610100808354040283529160200191610c6b565b820191906000526020600020905b815481529060010190602001808311610c4e57829003601f168201915b5050505050815260200160038054610c829061350a565b80601f0160208091040260200160405190810160405280929190818152602001828054610cae9061350a565b8015610cfb5780601f10610cd057610100808354040283529160200191610cfb565b820191906000526020600020905b815481529060010190602001808311610cde57829003601f168201915b50505050508152602001856001600160a01b0316815260200160048054610d219061350a565b80601f0160208091040260200160405190810160405280929190818152602001828054610d4d9061350a565b8015610d9a5780601f10610d6f57610100808354040283529160200191610d9a565b820191906000526020600020905b815481529060010190602001808311610d7d57829003601f168201915b505050918352505060016020820152600554600160401b8104600790810b604084015260ff600160a01b830416151560608401526080830187905260a09092018590529192506000918291610dfe91859181900b90600160801b900460030b61266f565b909250905060168214610e1057600080fd5b6040516001600160a01b03821681527f7bb17726df1f3adee8aa00ba8e8bc5d6f182af3bbf77604639cb7f008dd3b4ed9060200160405180910390a1505050505050565b6000806060610e648686866126dc565b60405183815292955090935091507f90a5cf4cffe88b4edbb041cfc7a8a812c48a5ec30b84640fb37690875168e3aa9060200160405180910390a160168314610eac57600080fd5b7ffc6b20023c4bac8ff1c48c1693e0cea5cd3c2163e9c2da41c58f17dd6d9f163d8282604051610edd9291906135be565b60405180910390a1610f0b86303384600081518110610efe57610efe6134f4565b60200260200101516127da565b5093509350939050565b6000806101676001600160a01b031663618dc65e60e01b8585604051602401610f3f92919061360e565b60408051601f198184030181529181526020820180516001600160e01b03166001600160e01b0319909416939093179092529051610f7d9190613575565b6000604051808303816000865af19150503d8060008114610fba576040519150601f19603f3d011682016040523d82523d6000602084013e610fbf565b606091505b50915091507f4af4780e06fe8cb9df64b0794fa6f01399af979175bb988e35e0e57e594567bc8282604051610ff5929190613630565b60405180910390a150505050565b604051638f74a17b60e01b81526000903090638f74a17b90349061102d908890889060040161360e565b6020604051808303818588803b15801561104657600080fd5b505af115801561105a573d6000803e3d6000fd5b50505050506040513d601f19601f8201168201806040525081019061107f919061364b565b60405163f4a01e5b60e01b81523360048201526001600160a01b0382166024820152909150309063f4a01e5b90604401602060405180830381600087803b1580156110c957600080fd5b505af11580156110dd573d6000803e3d6000fd5b505050506040513d601f19601f820116820180604052508101906111019190613668565b506040516307e9300f60e11b81526001600160a01b03821660048201523360248201523090630fd2601e90604401602060405180830381600087803b15801561114957600080fd5b505af115801561115d573d6000803e3d6000fd5b505050506040513d601f19601f820116820180604052508101906111819190613681565b5061118e81303385612822565b5050505050565b604080516001808252818301909252600091816020015b6111b4612c87565b8152602001906001900390816111ac5790505090506111e66000806000604051806020016040528060008152506123a0565b816000815181106111f9576111f96134f4565b602002602001018190525060006040518060600160405280600060070b8152602001856001600160a01b03168152602001627a120060070b81525090506000604051806101200160405280600280546112519061350a565b80601f016020809104026020016040519081016040528092919081815260200182805461127d9061350a565b80156112ca5780601f1061129f576101008083540402835291602001916112ca565b820191906000526020600020905b8154815290600101906020018083116112ad57829003601f168201915b50505050508152602001600380546112e19061350a565b80601f016020809104026020016040519081016040528092919081815260200182805461130d9061350a565b801561135a5780601f1061132f5761010080835404028352916020019161135a565b820191906000526020600020905b81548152906001019060200180831161133d57829003601f168201915b50505050508152602001866001600160a01b03168152602001600480546113809061350a565b80601f01602080910402602001604051908101604052809291908181526020018280546113ac9061350a565b80156113f95780601f106113ce576101008083540402835291602001916113f9565b820191906000526020600020905b8154815290600101906020018083116113dc57829003601f168201915b5050509183525050600160208201819052600554600160401b900460070b6040808401919091526000606084018190526080840188905260a09093018690528051828152808201909152929350909190816020015b6040805160a08101825260008082526020808301829052928201819052606082018190526080820152825260001990920191018161144e5750506040805160a081018252600181526001600160a01b038881166020830152600092820183905260608201839052891660808201528251929350918391906114d1576114d16134f4565b6020908102919091010152604080516001808252818301909252600091816020015b6040805160c08101825260008082526020808301829052928201819052606082018190526080820181905260a082015282526000199092019101816114f35750506040805160c0810182526004815260056020820152600a91810191909152601e60608201526000608082018190526001600160a01b038a1660a083015282519293509091839190611587576115876134f4565b602090810291909101015260055460009081906115b7908690600781900b90600160801b900460030b878761286a565b915091507f90a5cf4cffe88b4edbb041cfc7a8a812c48a5ec30b84640fb37690875168e3aa826040516115ec91815260200190565b60405180910390a16016821461085457600080fd5b60408051600580825260c08201909252600091829190816020015b611624612c87565b81526020019060019003908161161c579050509050611648600060066003866123a0565b8160008151811061165b5761165b6134f4565b602002602001018190525061167360016003856123d7565b81600181518110611686576116866134f4565b602002602001018190525061169e60026003856123d7565b816002815181106116b1576116b16134f4565b60200260200101819052506116c960046003856123d7565b816003815181106116dc576116dc6134f4565b60200260200101819052506116f3600380856123d7565b81600481518110611706576117066134f4565b602002602001018190525060006040518060600160405280600060070b8152602001866001600160a01b03168152602001627a120060070b815250905060006040518061012001604052806002805461175e9061350a565b80601f016020809104026020016040519081016040528092919081815260200182805461178a9061350a565b80156117d75780601f106117ac576101008083540402835291602001916117d7565b820191906000526020600020905b8154815290600101906020018083116117ba57829003601f168201915b50505050508152602001600380546117ee9061350a565b80601f016020809104026020016040519081016040528092919081815260200182805461181a9061350a565b80156118675780601f1061183c57610100808354040283529160200191611867565b820191906000526020600020905b81548152906001019060200180831161184a57829003601f168201915b50505050508152602001876001600160a01b031681526020016004805461188d9061350a565b80601f01602080910402602001604051908101604052809291908181526020018280546118b99061350a565b80156119065780601f106118db57610100808354040283529160200191611906565b820191906000526020600020905b8154815290600101906020018083116118e957829003601f168201915b505050918352505060016020820152600554600160401b8104600790810b604084015260ff600160a01b830416151560608401526080830187905260a0909201859052919250600091829161196a91859181900b90600160801b900460030b61266f565b90925090506016821461197c57600080fd5b6040516001600160a01b03821681527f7bb17726df1f3adee8aa00ba8e8bc5d6f182af3bbf77604639cb7f008dd3b4ed9060200160405180910390a1979650505050505050565b6040516001600160a01b038581166024830152848116604483015283166064820152608481018290526000908190819061016790639b23d3d960e01b9060a40161098d565b60408051600580825260c08201909252600091816020015b611a28612c87565b815260200190600190039081611a20579050509050611a4c600060066003856123a0565b81600081518110611a5f57611a5f6134f4565b6020026020010181905250611a7760016003846123d7565b81600181518110611a8a57611a8a6134f4565b6020026020010181905250611aa260026003846123d7565b81600281518110611ab557611ab56134f4565b6020026020010181905250611acd60046003846123d7565b81600381518110611ae057611ae06134f4565b6020026020010181905250611af7600380846123d7565b81600481518110611b0a57611b0a6134f4565b602002602001018190525060006040518060600160405280600060070b8152602001856001600160a01b03168152602001627a120060070b8152509050600060405180610120016040528060028054611b629061350a565b80601f0160208091040260200160405190810160405280929190818152602001828054611b8e9061350a565b8015611bdb5780601f10611bb057610100808354040283529160200191611bdb565b820191906000526020600020905b815481529060010190602001808311611bbe57829003601f168201915b5050505050815260200160038054611bf29061350a565b80601f0160208091040260200160405190810160405280929190818152602001828054611c1e9061350a565b8015611c6b5780601f10611c4057610100808354040283529160200191611c6b565b820191906000526020600020905b815481529060010190602001808311611c4e57829003601f168201915b50505050508152602001866001600160a01b0316815260200160048054611c919061350a565b80601f0160208091040260200160405190810160405280929190818152602001828054611cbd9061350a565b8015611d0a5780601f10611cdf57610100808354040283529160200191611d0a565b820191906000526020600020905b815481529060010190602001808311611ced57829003601f168201915b505050918352505060016020820152600554600160401b810460070b6040830152600160a01b900460ff16151560608201526080810185905260a0018390529050600080611d5783612998565b909250905060168214611d6957600080fd5b6040516001600160a01b03821681527f7bb17726df1f3adee8aa00ba8e8bc5d6f182af3bbf77604639cb7f008dd3b4ed9060200160405180910390a150505050505050565b60408051600480825260a08201909252600091816020015b611dce612c87565b815260200190600190039081611dc6579050509050611df2600060066003856123a0565b81600081518110611e0557611e056134f4565b6020026020010181905250611e1d60026003846123d7565b81600181518110611e3057611e306134f4565b6020026020010181905250611e4860046003846123d7565b81600281518110611e5b57611e5b6134f4565b6020026020010181905250611e72600380846123d7565b81600381518110611b0a57611b0a6134f4565b60408051600580825260c08201909252600091816020015b611ea5612c87565b815260200190600190039081611e9d579050509050611ed8600060066000604051806020016040528060008152506123a0565b81600081518110611eeb57611eeb6134f4565b6020026020010181905250611f1260016000604051806020016040528060008152506123d7565b81600181518110611f2557611f256134f4565b6020026020010181905250611f4c60026000604051806020016040528060008152506123d7565b81600281518110611f5f57611f5f6134f4565b6020026020010181905250611f8660046000604051806020016040528060008152506123d7565b81600381518110611f9957611f996134f4565b6020026020010181905250611fc060036000604051806020016040528060008152506123d7565b81600481518110611fd357611fd36134f4565b602002602001018190525060006040518060600160405280600060070b8152602001846001600160a01b03168152602001627a120060070b815250905060006040518061012001604052806002805461202b9061350a565b80601f01602080910402602001604051908101604052809291908181526020018280546120579061350a565b80156120a45780601f10612079576101008083540402835291602001916120a4565b820191906000526020600020905b81548152906001019060200180831161208757829003601f168201915b50505050508152602001600380546120bb9061350a565b80601f01602080910402602001604051908101604052809291908181526020018280546120e79061350a565b80156121345780601f1061210957610100808354040283529160200191612134565b820191906000526020600020905b81548152906001019060200180831161211757829003601f168201915b50505050508152602001856001600160a01b031681526020016004805461215a9061350a565b80601f01602080910402602001604051908101604052809291908181526020018280546121869061350a565b80156121d35780601f106121a8576101008083540402835291602001916121d3565b820191906000526020600020905b8154815290600101906020018083116121b657829003601f168201915b505050918352505060016020820152600554600160401b810460070b6040830152600160a01b900460ff16151560608201526080810185905260a0018390529050600080610dfe83612998565b60008060606122308686866126dc565b60405183815292955090935091507f90a5cf4cffe88b4edbb041cfc7a8a812c48a5ec30b84640fb37690875168e3aa9060200160405180910390a16016831461227857600080fd5b7ffc6b20023c4bac8ff1c48c1693e0cea5cd3c2163e9c2da41c58f17dd6d9f163d82826040516122a99291906135be565b60405180910390a193509350939050565b60408051600480825260a08201909252600091829190816020015b6122dd612c87565b8152602001906001900390816122d5579050509050612301600060066003866123a0565b81600081518110612314576123146134f4565b602002602001018190525061232c60026003856123d7565b8160018151811061233f5761233f6134f4565b602002602001018190525061235760046003856123d7565b8160028151811061236a5761236a6134f4565b6020026020010181905250612381600380856123d7565b81600381518110611706576117066134f4565b60006109048383612aba565b6123a8612c87565b60405180604001604052806123bd8787612af0565b81526020016123cc8585612b32565b905295945050505050565b6123df612c87565b60405180604001604052806123f386612c48565b81526020016124028585612b32565b9052949350505050565b600080848061010001516000015160070b600014801561243657506101008101516040015160070b155b1561244c576101008101516276a7006040909101525b6000806101676001600160a01b03163463abb54eb560e01b8a8a8a604051602401612479939291906138d1565b60408051601f198184030181529181526020820180516001600160e01b03166001600160e01b03199094169390931790925290516124b79190613575565b60006040518083038185875af1925050503d80600081146124f4576040519150601f19603f3d011682016040523d82523d6000602084013e6124f9565b606091505b50915091508161250c5760156000612520565b808060200190518101906125209190613988565b60039190910b999098509650505050505050565b6040516001600160a01b038381166024830152821660448201526000908190819061016790638f8d7f9960e01b906064015b60408051601f198184030181529181526020820180516001600160e01b03166001600160e01b03199094169390931790925290516125a49190613575565b6000604051808303816000865af19150503d80600081146125e1576040519150601f19603f3d011682016040523d82523d6000602084013e6125e6565b606091505b5091509150816125f757601561260b565b8080602001905181019061260b91906135a3565b60030b95945050505050565b60008060006101676001600160a01b0316632e63879b60e01b86866040516024016125669291906139b4565b60008060006101676001600160a01b0316637d305cfa60e01b8686604051602401612566929190613a0f565b600080848061010001516000015160070b600014801561269957506101008101516040015160070b155b156126af576101008101516276a7006040909101525b6000806101676001600160a01b031634630fb65bf360e01b8a8a8a60405160240161247993929190613a31565b60008060606000806101676001600160a01b031663e0f4059a60e01b89898960405160240161270d93929190613a60565b60408051601f198184030181529181526020820180516001600160e01b03166001600160e01b031990941693909317909252905161274b9190613575565b6000604051808303816000865af19150503d8060008114612788576040519150601f19603f3d011682016040523d82523d6000602084013e61278d565b606091505b5091509150816127b05760408051600080825260208201909252601591906127c4565b808060200190518101906127c49190613add565b60039290920b9a90995090975095505050505050565b6040516001600160a01b038581166024830152848116604483015283166064820152600782900b60848201526000908190819061016790635cfc901160e01b9060a40161098d565b6040516001600160a01b038581166024830152848116604483015283166064820152600782900b6084820152600090819081906101679063eca3691760e01b9060a40161098d565b600080868061010001516000015160070b600014801561289457506101008101516040015160070b155b156128aa576101008101516276a7006040909101525b6000806101676001600160a01b031634632af0c59a60e01b8c8c8c8c8c6040516024016128db959493929190613b9d565b60408051601f198184030181529181526020820180516001600160e01b03166001600160e01b03199094169390931790925290516129199190613575565b60006040518083038185875af1925050503d8060008114612956576040519150601f19603f3d011682016040523d82523d6000602084013e61295b565b606091505b50915091508161296e5760156000612982565b808060200190518101906129829190613988565b60039190910b9b909a5098505050505050505050565b600080828061010001516000015160070b60001480156129c257506101008101516040015160070b155b156129d8576101008101516276a7006040909101525b6000806101676001600160a01b03163463ea83f29360e01b88604051602401612a019190613c65565b60408051601f198184030181529181526020820180516001600160e01b03166001600160e01b0319909416939093179092529051612a3f9190613575565b60006040518083038185875af1925050503d8060008114612a7c576040519150601f19603f3d011682016040523d82523d6000602084013e612a81565b606091505b509150915081612a945760156000612aa8565b80806020019051810190612aa89190613988565b60039190910b97909650945050505050565b6040516001600160a01b03838116602483015282166044820152600090819081906101679063248a35ef60e11b90606401612566565b6000612b14836006811115612b0757612b07613c78565b600160ff9091161b821790565b9050612b2b826006811115612b0757612b07613c78565b9392505050565b612b786040518060a0016040528060001515815260200160006001600160a01b03168152602001606081526020016060815260200160006001600160a01b031681525090565b6000836004811115612b8c57612b8c613c78565b1415612b9b57600181526108f2565b6001836004811115612baf57612baf613c78565b1415612bcb576000546001600160a01b031660208201526108f2565b6002836004811115612bdf57612bdf613c78565b1415612bf157604081018290526108f2565b6003836004811115612c0557612c05613c78565b1415612c1757606081018290526108f2565b6004836004811115612c2b57612c2b613c78565b14156108f2576000546001600160a01b0316608082015292915050565b600060016000836006811115612c6057612c60613c78565b6006811115612c7157612c71613c78565b8152602001908152602001600020549050919050565b604051806040016040528060008152602001612cdf6040518060a0016040528060001515815260200160006001600160a01b03168152602001606081526020016060815260200160006001600160a01b031681525090565b905290565b6001600160a01b0381168114612cf957600080fd5b50565b8035612d0781612ce4565b919050565b60008060408385031215612d1f57600080fd5b8235612d2a81612ce4565b91506020830135612d3a81612ce4565b809150509250929050565b634e487b7160e01b600052604160045260246000fd5b6040805190810167ffffffffffffffff81118282101715612d7e57612d7e612d45565b60405290565b60405160a0810167ffffffffffffffff81118282101715612d7e57612d7e612d45565b604051610120810167ffffffffffffffff81118282101715612d7e57612d7e612d45565b604051601f8201601f1916810167ffffffffffffffff81118282101715612df457612df4612d45565b604052919050565b600067ffffffffffffffff821115612e1657612e16612d45565b5060051b60200190565b60008060408385031215612e3357600080fd5b8235612e3e81612ce4565b915060208381013567ffffffffffffffff811115612e5b57600080fd5b8401601f81018613612e6c57600080fd5b8035612e7f612e7a82612dfc565b612dcb565b81815260059190911b82018301908381019088831115612e9e57600080fd5b928401925b82841015612ec5578335612eb681612ce4565b82529284019290840190612ea3565b80955050505050509250929050565b60008060008060808587031215612eea57600080fd5b8435612ef581612ce4565b93506020850135612f0581612ce4565b92506040850135612f1581612ce4565b9396929550929360600135925050565b600082601f830112612f3657600080fd5b813567ffffffffffffffff811115612f5057612f50612d45565b612f63601f8201601f1916602001612dcb565b818152846020838601011115612f7857600080fd5b816020850160208301376000918101602001919091529392505050565b80358015158114612d0757600080fd5b8060070b8114612cf957600080fd5b8035612d0781612fa5565b600082601f830112612fd057600080fd5b81356020612fe0612e7a83612dfc565b82815260059290921b84018101918181019086841115612fff57600080fd5b8286015b8481101561311957803567ffffffffffffffff8082111561302357600080fd5b908801906040601f19838c03810182131561303d57600080fd5b613045612d5b565b888501358152828501358481111561305c57600080fd5b949094019360a0858e03830112156130745760008081fd5b61307c612d84565b9150613089898601612f95565b82528285013561309881612ce4565b828a0152606085810135858111156130b05760008081fd5b6130be8f8c838a0101612f25565b85850152506080935083860135858111156130d95760008081fd5b6130e78f8c838a0101612f25565b82850152505060a085013594506130fd85612ce4565b9181019390935280870192909252508352918301918301613003565b509695505050505050565b60006060828403121561313657600080fd5b6040516060810181811067ffffffffffffffff8211171561315957613159612d45565b604052905080823561316a81612fa5565b8152602083013561317a81612ce4565b6020820152604083013561318d81612fa5565b6040919091015292915050565b600080604083850312156131ad57600080fd5b82356131b881612ce4565b9150602083013567ffffffffffffffff808211156131d557600080fd5b9084019061016082870312156131ea57600080fd5b6131f2612da7565b82358281111561320157600080fd5b61320d88828601612f25565b82525060208301358281111561322257600080fd5b61322e88828601612f25565b60208301525061324060408401612cfc565b604082015260608301358281111561325757600080fd5b61326388828601612f25565b60608301525061327560808401612f95565b608082015261328660a08401612fb4565b60a082015261329760c08401612f95565b60c082015260e0830135828111156132ae57600080fd5b6132ba88828601612fbf565b60e08301525061010091506132d187838501613124565b828201528093505050509250929050565b6000602082840312156132f457600080fd5b8135612b2b81612ce4565b60008060006060848603121561331457600080fd5b833561331f81612ce4565b925060208481013561333081612fa5565b9250604085013567ffffffffffffffff8082111561334d57600080fd5b818701915087601f83011261336157600080fd5b813561336f612e7a82612dfc565b81815260059190911b8301840190848101908a83111561338e57600080fd5b8585015b838110156133c6578035858111156133aa5760008081fd5b6133b88d89838a0101612f25565b845250918601918601613392565b508096505050505050509250925092565b600081518084526020808501945080840160005b8381101561340a57815160070b875295820195908201906001016133eb565b509495945050505050565b8381528260070b602082015260606040820152600061343760608301846133d7565b95945050505050565b6000806040838503121561345357600080fd5b823561345e81612ce4565b9150602083013567ffffffffffffffff81111561347a57600080fd5b61348685828601612f25565b9150509250929050565b6000806000606084860312156134a557600080fd5b83356134b081612ce4565b9250602084013567ffffffffffffffff8111156134cc57600080fd5b6134d886828701612f25565b92505060408401356134e981612fa5565b809150509250925092565b634e487b7160e01b600052603260045260246000fd5b600181811c9082168061351e57607f821691505b6020821081141561353f57634e487b7160e01b600052602260045260246000fd5b50919050565b60005b83811015613560578181015183820152602001613548565b8381111561356f576000848401525b50505050565b60008251613587818460208701613545565b9190910192915050565b8051600381900b8114612d0757600080fd5b6000602082840312156135b557600080fd5b612b2b82613591565b8260070b81526040602082015260006135da60408301846133d7565b949350505050565b600081518084526135fa816020860160208601613545565b601f01601f19169290920160200192915050565b6001600160a01b03831681526040602082015260006135da60408301846135e2565b82151581526040602082015260006135da60408301846135e2565b60006020828403121561365d57600080fd5b8151612b2b81612ce4565b60006020828403121561367a57600080fd5b5051919050565b60006020828403121561369357600080fd5b8151612b2b81612fa5565b600081518084526020808501808196508360051b8101915082860160005b858110156137555782840389528151604081518652868201519150808787015281511515818701528682015160606001600160a01b03808316828a015283850151935060a09250608083818b015261371760e08b01866135e2565b928601518a8403603f1901858c015292945061373385846135e2565b9501511660c098909801979097525050988501989350908401906001016136bc565b5091979650505050505050565b60006101608251818552613778828601826135e2565b9150506020830151848203602086015261379282826135e2565b91505060408301516137af60408601826001600160a01b03169052565b50606083015184820360608601526137c782826135e2565b91505060808301516137dd608086018215159052565b5060a08301516137f260a086018260070b9052565b5060c083015161380660c086018215159052565b5060e083015184820360e086015261381e828261369e565b9150506101008084015161385a82870182805160070b82526001600160a01b036020820151166020830152604081015160070b60408301525050565b5090949350505050565b600081518084526020808501945080840160005b8381101561340a578151805160070b8852838101516001600160a01b03908116858a01526040808301511515908a01526060808301511515908a0152608091820151169088015260a09096019590820190600101613878565b600060608083526138e481840187613762565b6020848203818601526138f78288613864565b91506040858303818701528287518085528385019150838901945060005b818110156139785785518051600790810b855286820151810b8786015285820151900b85850152878101516001600160a01b039081168986015260808083015115159086015260a09182015116908401529484019460c090920191600101613915565b50909a9950505050505050505050565b6000806040838503121561399b57600080fd5b6139a483613591565b91506020830151612d3a81612ce4565b6000604082016001600160a01b0380861684526020604081860152828651808552606087019150828801945060005b81811015613a015785518516835294830194918301916001016139e3565b509098975050505050505050565b6001600160a01b03831681526040602082015260006135da6040830184613762565b606081526000613a446060830186613762565b90508360070b60208301528260030b6040830152949350505050565b6000606082016001600160a01b038616835260208560070b818501526060604085015281855180845260808601915060808160051b870101935082870160005b82811015613ace57607f19888703018452613abc8683516135e2565b95509284019290840190600101613aa0565b50939998505050505050505050565b600080600060608486031215613af257600080fd5b613afb84613591565b9250602080850151613b0c81612fa5565b604086015190935067ffffffffffffffff811115613b2957600080fd5b8501601f81018713613b3a57600080fd5b8051613b48612e7a82612dfc565b81815260059190911b82018301908381019089831115613b6757600080fd5b928401925b82841015613b8e578351613b7f81612fa5565b82529284019290840190613b6c565b80955050505050509250925092565b600060a0808352613bb081840189613762565b6020600789810b8287015260408960030b81880152606087850381890152613bd8858b613864565b94506080888603818a0152858a518088528688019150868c01975060005b81811015613c505788518051880b845288810151880b8985015286810151880b8785015285810151880b86850152848101511515858501528a01516001600160a01b03168a8401529787019760c090920191600101613bf6565b50909f9e505050505050505050505050505050565b602081526000612b2b6020830184613762565b634e487b7160e01b600052602160045260246000fdfea2646970667358221220923315cffd10f7c33a28fbb3658b5c664f6934ecdf52be3be4651009141de5ab64736f6c63430008090033",
  "linkReferences": {},
  "deployedLinkReferences": {}
}