{
  "_format": "hh-sol-artifact-1",
  "contractName": "ContractTransferTx",
  "sourceName": "contracts/hip-583/ContractTransferTx.sol",
  "abi": [
    {
      "anonymous": false,
      "inputs": [
        {
          "indexed": false,
          "internalType": "bool",
          "name": "_success",
          "type": "bool"
        },
        {
          "indexed": false,
          "internalType": "bytes",
          "name": "_data",
          "type": "bytes"
        }
      ],
      "name": "Success",
      "type": "event"
    },
    {
      "anonymous": false,
      "inputs": [
        {
          "indexed": false,
          "internalType": "address",
          "name": "_from",
          "type": "address"
        },
        {
          "indexed": false,
          "internalType": "address",
          "name": "_to",
          "type": "address"
        },
        {
          "indexed": false,
          "internalType": "uint256",
          "name": "_amount",
          "type": "uint256"
        }
      ],
      "name": "Transferred",
      "type": "event"
    },
    {
      "stateMutability": "payable",
      "type": "fallback"
    },
    {
      "inputs": [
        {
          "internalType": "address",
          "name": "tokenContract",
          "type": "address"
        },
        {
          "internalType": "address",
          "name": "_from",
          "type": "address"
        },
        {
          "internalType": "address",
          "name": "_to",
          "type": "address"
        },
        {
          "internalType": "uint256",
          "name": "_tokenId",
          "type": "uint256"
        }
      ],
      "name": "transferFromNonFungibleTokenTo",
      "outputs": [],
      "stateMutability": "nonpayable",
      "type": "function"
    },
    {
      "inputs": [
        {
          "internalType": "address",
          "name": "tokenContract",
          "type": "address"
        },
        {
          "internalType": "address",
          "name": "_to",
          "type": "address"
        },
        {
          "internalType": "uint256",
          "name": "_amount",
          "type": "uint256"
        }
      ],
      "name": "transferFungibleTokenTo",
      "outputs": [],
      "stateMutability": "nonpayable",
      "type": "function"
    },
    {
      "inputs": [
        {
          "internalType": "address payable",
          "name": "_to",
          "type": "address"
        },
        {
          "internalType": "uint256",
          "name": "_amount",
          "type": "uint256"
        }
      ],
      "name": "transferTo",
      "outputs": [],
      "stateMutability": "nonpayable",
      "type": "function"
    },
    {
      "stateMutability": "payable",
      "type": "receive"
    }
  ],
  "bytecode": "0x608060405234801561000f575f80fd5b506104878061001d5f395ff3fe608060405260043610610034575f3560e01c80632ccb1b301461003d578063cae6b2621461005c578063e8178a6a1461007b57005b3661003b57005b005b348015610048575f80fd5b5061003b610057366004610323565b61009a565b348015610067575f80fd5b5061003b61007636600461034d565b610188565b348015610086575f80fd5b5061003b61009536600461039b565b61026d565b8047116100ed5760405162461bcd60e51b815260206004820152601d60248201527f496e73756666696369656e7420636f6e74726163742062616c616e6365000000604482015260640160405180910390fd5b6040516001600160a01b0383169082905f81818185875af1925050503d805f8114610133576040519150601f19603f3d011682016040523d82523d5f602084013e610138565b606091505b5050604080513381526001600160a01b03851660208201529081018390527fd1ba4ac2e2a11b5101f6cb4d978f514a155b421e8ec396d2d9abaf0bb02917ee915060600160405180910390a15050565b6040516001600160a01b0384811660248301528381166044830152606482018390525f91829187169060840160408051601f198184030181529181526020820180516001600160e01b03166323b872dd60e01b179052516101e991906103fb565b5f604051808303815f865af19150503d805f8114610222576040519150601f19603f3d011682016040523d82523d5f602084013e610227565b606091505b50915091507fc939de2540668c9bbcd5df58c1a1a88520e87daddfe8f47a40c9584513d3dc8b828260405161025d929190610416565b60405180910390a1505050505050565b6040516001600160a01b038381166024830152604482018390525f919085169060640160408051601f198184030181529181526020820180516001600160e01b031663a9059cbb60e01b179052516102c591906103fb565b5f604051808303815f865af19150503d805f81146102fe576040519150601f19603f3d011682016040523d82523d5f602084013e610303565b606091505b50505050505050565b6001600160a01b0381168114610320575f80fd5b50565b5f8060408385031215610334575f80fd5b823561033f8161030c565b946020939093013593505050565b5f805f8060808587031215610360575f80fd5b843561036b8161030c565b9350602085013561037b8161030c565b9250604085013561038b8161030c565b9396929550929360600135925050565b5f805f606084860312156103ad575f80fd5b83356103b88161030c565b925060208401356103c88161030c565b929592945050506040919091013590565b5f5b838110156103f35781810151838201526020016103db565b50505f910152565b5f825161040c8184602087016103d9565b9190910192915050565b8215158152604060208201525f825180604084015261043c8160608501602087016103d9565b601f01601f191691909101606001939250505056fea26469706673582212201bbe8f1b42f74c08db453e84011f7232e3d8119c7e302f8b104cabed145ecfd764736f6c63430008140033",
  "linkReferences": {},
  "deployedLinkReferences": {}
}