{
  "_format": "hh-sol-artifact-1",
  "contractName": "ContractTransferTx",
  "sourceName": "contracts/hip-583/ContractTransferTx.sol",
  "abi": [
    {
      "anonymous": false,
      "inputs": [
        {
          "indexed": false,
          "internalType": "bool",
          "name": "_success",
          "type": "bool"
        },
        {
          "indexed": false,
          "internalType": "bytes",
          "name": "_data",
          "type": "bytes"
        }
      ],
      "name": "Success",
      "type": "event"
    },
    {
      "anonymous": false,
      "inputs": [
        {
          "indexed": false,
          "internalType": "address",
          "name": "_from",
          "type": "address"
        },
        {
          "indexed": false,
          "internalType": "address",
          "name": "_to",
          "type": "address"
        },
        {
          "indexed": false,
          "internalType": "uint256",
          "name": "_amount",
          "type": "uint256"
        }
      ],
      "name": "Transferred",
      "type": "event"
    },
    {
      "stateMutability": "payable",
      "type": "fallback"
    },
    {
      "inputs": [
        {
          "internalType": "address",
          "name": "tokenContract",
          "type": "address"
        },
        {
          "internalType": "address",
          "name": "_from",
          "type": "address"
        },
        {
          "internalType": "address",
          "name": "_to",
          "type": "address"
        },
        {
          "internalType": "uint256",
          "name": "_tokenId",
          "type": "uint256"
        }
      ],
      "name": "transferFromNonFungibleTokenTo",
      "outputs": [],
      "stateMutability": "nonpayable",
      "type": "function"
    },
    {
      "inputs": [
        {
          "internalType": "address",
          "name": "tokenContract",
          "type": "address"
        },
        {
          "internalType": "address",
          "name": "_to",
          "type": "address"
        },
        {
          "internalType": "uint256",
          "name": "_amount",
          "type": "uint256"
        }
      ],
      "name": "transferFungibleTokenTo",
      "outputs": [],
      "stateMutability": "nonpayable",
      "type": "function"
    },
    {
      "inputs": [
        {
          "internalType": "address payable",
          "name": "_to",
          "type": "address"
        },
        {
          "internalType": "uint256",
          "name": "_amount",
          "type": "uint256"
        }
      ],
      "name": "transferTo",
      "outputs": [],
      "stateMutability": "nonpayable",
      "type": "function"
    },
    {
      "stateMutability": "payable",
      "type": "receive"
    }
  ],
  "bytecode": "0x608060405234801561001057600080fd5b50610547806100206000396000f3fe6080604052600436106100355760003560e01c80632ccb1b301461003e578063cae6b2621461005e578063e8178a6a1461007e57005b3661003c57005b005b34801561004a57600080fd5b5061003c6100593660046103d7565b61009e565b34801561006a57600080fd5b5061003c610079366004610403565b6101e3565b34801561008a57600080fd5b5061003c610099366004610454565b6102cd565b8047116100f25760405162461bcd60e51b815260206004820152601d60248201527f496e73756666696369656e7420636f6e74726163742062616c616e636500000060448201526064015b60405180910390fd5b6000826001600160a01b03168260405160006040518083038185875af1925050503d806000811461013f576040519150601f19603f3d011682016040523d82523d6000602084013e610144565b606091505b50509050806101955760405162461bcd60e51b815260206004820152601460248201527f5472616e736665722063616c6c206661696c656400000000000000000000000060448201526064016100e9565b604080513381526001600160a01b03851660208201529081018390527fd1ba4ac2e2a11b5101f6cb4d978f514a155b421e8ec396d2d9abaf0bb02917ee9060600160405180910390a1505050565b6040516001600160a01b038481166024830152838116604483015260648201839052600091829187169060840160408051601f198184030181529181526020820180516001600160e01b03166323b872dd60e01b1790525161024591906104b9565b6000604051808303816000865af19150503d8060008114610282576040519150601f19603f3d011682016040523d82523d6000602084013e610287565b606091505b50915091507fc939de2540668c9bbcd5df58c1a1a88520e87daddfe8f47a40c9584513d3dc8b82826040516102bd9291906104d5565b60405180910390a1505050505050565b6040516001600160a01b038381166024830152604482018390526000919085169060640160408051601f198184030181529181526020820180516001600160e01b031663a9059cbb60e01b1790525161032691906104b9565b6000604051808303816000865af19150503d8060008114610363576040519150601f19603f3d011682016040523d82523d6000602084013e610368565b606091505b50509050806103b95760405162461bcd60e51b815260206004820152601460248201527f46756e6374696f6e2063616c6c206661696c656400000000000000000000000060448201526064016100e9565b50505050565b6001600160a01b03811681146103d457600080fd5b50565b600080604083850312156103ea57600080fd5b82356103f5816103bf565b946020939093013593505050565b6000806000806080858703121561041957600080fd5b8435610424816103bf565b93506020850135610434816103bf565b92506040850135610444816103bf565b9396929550929360600135925050565b60008060006060848603121561046957600080fd5b8335610474816103bf565b92506020840135610484816103bf565b929592945050506040919091013590565b60005b838110156104b0578181015183820152602001610498565b50506000910152565b600082516104cb818460208701610495565b9190910192915050565b821515815260406020820152600082518060408401526104fc816060850160208701610495565b601f01601f191691909101606001939250505056fea2646970667358221220a505c90c8a4008a9bdc0612adf58e3dd0e98b379813ce064fee30fccf5ae678b64736f6c63430008170033",
  "linkReferences": {},
  "deployedLinkReferences": {}
}