{
  "_format": "hh-sol-artifact-1",
  "contractName": "ERC2771ContextTest",
  "sourceName": "contracts/solidity/oz/ERC-2771/ERC2771Context.sol",
  "abi": [
    {
      "inputs": [
        {
          "internalType": "address",
          "name": "trustedForward",
          "type": "address"
        }
      ],
      "stateMutability": "nonpayable",
      "type": "constructor"
    },
    {
      "inputs": [
        {
          "internalType": "address",
          "name": "forwarder",
          "type": "address"
        }
      ],
      "name": "isTrustedForwarder",
      "outputs": [
        {
          "internalType": "bool",
          "name": "",
          "type": "bool"
        }
      ],
      "stateMutability": "view",
      "type": "function"
    },
    {
      "inputs": [],
      "name": "message",
      "outputs": [
        {
          "internalType": "string",
          "name": "",
          "type": "string"
        }
      ],
      "stateMutability": "view",
      "type": "function"
    },
    {
      "inputs": [],
      "name": "msgData",
      "outputs": [
        {
          "internalType": "bytes",
          "name": "",
          "type": "bytes"
        }
      ],
      "stateMutability": "view",
      "type": "function"
    },
    {
      "inputs": [],
      "name": "msgDataTest",
      "outputs": [
        {
          "internalType": "bytes",
          "name": "",
          "type": "bytes"
        }
      ],
      "stateMutability": "nonpayable",
      "type": "function"
    },
    {
      "inputs": [],
      "name": "msgSenderTest",
      "outputs": [
        {
          "internalType": "address",
          "name": "",
          "type": "address"
        }
      ],
      "stateMutability": "nonpayable",
      "type": "function"
    },
    {
      "inputs": [],
      "name": "sender",
      "outputs": [
        {
          "internalType": "address",
          "name": "",
          "type": "address"
        }
      ],
      "stateMutability": "view",
      "type": "function"
    },
    {
      "inputs": [],
      "name": "trustedForwarder",
      "outputs": [
        {
          "internalType": "address",
          "name": "",
          "type": "address"
        }
      ],
      "stateMutability": "view",
      "type": "function"
    }
  ],
  "bytecode": "0x60a060405234801561001057600080fd5b5060405161066138038061066183398101604081905261002f91610040565b6001600160a01b0316608052610070565b60006020828403121561005257600080fd5b81516001600160a01b038116811461006957600080fd5b9392505050565b6080516105c261009f6000396000818160b00152818161011d01528181610298015261030401526105c26000f3fe608060405234801561001057600080fd5b506004361061007d5760003560e01c80637da0a8771161005b5780637da0a8771461011b5780638afa462e14610141578063c4c2bfdc14610149578063e21f37ce1461015157600080fd5b80632c8cf4fc14610082578063572b6c05146100a057806367e404ce146100f0575b600080fd5b61008a610159565b6040516100979190610398565b60405180910390f35b6100e06100ae3660046103b2565b7f00000000000000000000000000000000000000000000000000000000000000006001600160a01b0390811691161490565b6040519015158152602001610097565b600154610103906001600160a01b031681565b6040516001600160a01b039091168152602001610097565b7f0000000000000000000000000000000000000000000000000000000000000000610103565b6101036101b4565b61008a6101f8565b61008a610286565b6060610163610293565b60029161017191908361047a565b5061017a610293565b8080601f01602080910402602001604051908101604052809392919081815260200183838082843760009201919091525092949350505050565b60006101be610300565b6001805473ffffffffffffffffffffffffffffffffffffffff19166001600160a01b03929092169190911790556101f3610300565b905090565b60028054610205906103f1565b80601f0160208091040260200160405190810160405280929190818152602001828054610231906103f1565b801561027e5780601f106102535761010080835404028352916020019161027e565b820191906000526020600020905b81548152906001019060200180831161026157829003601f168201915b505050505081565b60008054610205906103f1565b3660007f00000000000000000000000000000000000000000000000000000000000000006001600160a01b0316331480156102cf575060143610155b156102f857600080366102e360148261053b565b926102f093929190610562565b915091509091565b6000366102f0565b60007f00000000000000000000000000000000000000000000000000000000000000006001600160a01b03163314801561033b575060143610155b1561034d575060131936013560601c90565b503390565b6000815180845260005b818110156103785760208185018101518683018201520161035c565b506000602082860101526020601f19601f83011685010191505092915050565b6020815260006103ab6020830184610352565b9392505050565b6000602082840312156103c457600080fd5b81356001600160a01b03811681146103ab57600080fd5b634e487b7160e01b600052604160045260246000fd5b600181811c9082168061040557607f821691505b60208210810361042557634e487b7160e01b600052602260045260246000fd5b50919050565b601f82111561047557600081815260208120601f850160051c810160208610156104525750805b601f850160051c820191505b818110156104715782815560010161045e565b5050505b505050565b67ffffffffffffffff831115610492576104926103db565b6104a6836104a083546103f1565b8361042b565b6000601f8411600181146104da57600085156104c25750838201355b600019600387901b1c1916600186901b178355610534565b600083815260209020601f19861690835b8281101561050b57868501358255602094850194600190920191016104eb565b50868210156105285760001960f88860031b161c19848701351681555b505060018560011b0183555b5050505050565b8181038181111561055c57634e487b7160e01b600052601160045260246000fd5b92915050565b6000808585111561057257600080fd5b8386111561057f57600080fd5b505082019391909203915056fea2646970667358221220c863d64187f5b1eb7fbd87e0af899a23f7a2e7214493d64b4cdb33c7d6df096a64736f6c63430008140033",
  "linkReferences": {},
  "deployedLinkReferences": {}
}