{
  "_format": "hh-sol-artifact-1",
  "contractName": "HederaNonFungibleToken",
  "sourceName": "contracts/mocks/hts-precompile/HederaNonFungibleToken.sol",
  "abi": [
    {
      "inputs": [
        {
          "components": [
            {
              "components": [
                {
                  "internalType": "string",
                  "name": "name",
                  "type": "string"
                },
                {
                  "internalType": "string",
                  "name": "symbol",
                  "type": "string"
                },
                {
                  "internalType": "address",
                  "name": "treasury",
                  "type": "address"
                },
                {
                  "internalType": "string",
                  "name": "memo",
                  "type": "string"
                },
                {
                  "internalType": "bool",
                  "name": "tokenSupplyType",
                  "type": "bool"
                },
                {
                  "internalType": "int64",
                  "name": "maxSupply",
                  "type": "int64"
                },
                {
                  "internalType": "bool",
                  "name": "freezeDefault",
                  "type": "bool"
                },
                {
                  "components": [
                    {
                      "internalType": "uint256",
                      "name": "keyType",
                      "type": "uint256"
                    },
                    {
                      "components": [
                        {
                          "internalType": "bool",
                          "name": "inheritAccountKey",
                          "type": "bool"
                        },
                        {
                          "internalType": "address",
                          "name": "contractId",
                          "type": "address"
                        },
                        {
                          "internalType": "bytes",
                          "name": "ed25519",
                          "type": "bytes"
                        },
                        {
                          "internalType": "bytes",
                          "name": "ECDSA_secp256k1",
                          "type": "bytes"
                        },
                        {
                          "internalType": "address",
                          "name": "delegatableContractId",
                          "type": "address"
                        }
                      ],
                      "internalType": "struct IHederaTokenService.KeyValue",
                      "name": "key",
                      "type": "tuple"
                    }
                  ],
                  "internalType": "struct IHederaTokenService.TokenKey[]",
                  "name": "tokenKeys",
                  "type": "tuple[]"
                },
                {
                  "components": [
                    {
                      "internalType": "int64",
                      "name": "second",
                      "type": "int64"
                    },
                    {
                      "internalType": "address",
                      "name": "autoRenewAccount",
                      "type": "address"
                    },
                    {
                      "internalType": "int64",
                      "name": "autoRenewPeriod",
                      "type": "int64"
                    }
                  ],
                  "internalType": "struct IHederaTokenService.Expiry",
                  "name": "expiry",
                  "type": "tuple"
                }
              ],
              "internalType": "struct IHederaTokenService.HederaToken",
              "name": "token",
              "type": "tuple"
            },
            {
              "internalType": "int64",
              "name": "totalSupply",
              "type": "int64"
            },
            {
              "internalType": "bool",
              "name": "deleted",
              "type": "bool"
            },
            {
              "internalType": "bool",
              "name": "defaultKycStatus",
              "type": "bool"
            },
            {
              "internalType": "bool",
              "name": "pauseStatus",
              "type": "bool"
            },
            {
              "components": [
                {
                  "internalType": "int64",
                  "name": "amount",
                  "type": "int64"
                },
                {
                  "internalType": "address",
                  "name": "tokenId",
                  "type": "address"
                },
                {
                  "internalType": "bool",
                  "name": "useHbarsForPayment",
                  "type": "bool"
                },
                {
                  "internalType": "bool",
                  "name": "useCurrentTokenForPayment",
                  "type": "bool"
                },
                {
                  "internalType": "address",
                  "name": "feeCollector",
                  "type": "address"
                }
              ],
              "internalType": "struct IHederaTokenService.FixedFee[]",
              "name": "fixedFees",
              "type": "tuple[]"
            },
            {
              "components": [
                {
                  "internalType": "int64",
                  "name": "numerator",
                  "type": "int64"
                },
                {
                  "internalType": "int64",
                  "name": "denominator",
                  "type": "int64"
                },
                {
                  "internalType": "int64",
                  "name": "minimumAmount",
                  "type": "int64"
                },
                {
                  "internalType": "int64",
                  "name": "maximumAmount",
                  "type": "int64"
                },
                {
                  "internalType": "bool",
                  "name": "netOfTransfers",
                  "type": "bool"
                },
                {
                  "internalType": "address",
                  "name": "feeCollector",
                  "type": "address"
                }
              ],
              "internalType": "struct IHederaTokenService.FractionalFee[]",
              "name": "fractionalFees",
              "type": "tuple[]"
            },
            {
              "components": [
                {
                  "internalType": "int64",
                  "name": "numerator",
                  "type": "int64"
                },
                {
                  "internalType": "int64",
                  "name": "denominator",
                  "type": "int64"
                },
                {
                  "internalType": "int64",
                  "name": "amount",
                  "type": "int64"
                },
                {
                  "internalType": "address",
                  "name": "tokenId",
                  "type": "address"
                },
                {
                  "internalType": "bool",
                  "name": "useHbarsForPayment",
                  "type": "bool"
                },
                {
                  "internalType": "address",
                  "name": "feeCollector",
                  "type": "address"
                }
              ],
              "internalType": "struct IHederaTokenService.RoyaltyFee[]",
              "name": "royaltyFees",
              "type": "tuple[]"
            },
            {
              "internalType": "string",
              "name": "ledgerId",
              "type": "string"
            }
          ],
          "internalType": "struct IHederaTokenService.TokenInfo",
          "name": "_nftTokenInfo",
          "type": "tuple"
        }
      ],
      "stateMutability": "nonpayable",
      "type": "constructor"
    },
    {
      "inputs": [
        {
          "internalType": "int64",
          "name": "responseCode",
          "type": "int64"
        }
      ],
      "name": "HtsPrecompileError",
      "type": "error"
    },
    {
      "anonymous": false,
      "inputs": [
        {
          "indexed": true,
          "internalType": "address",
          "name": "owner",
          "type": "address"
        },
        {
          "indexed": true,
          "internalType": "address",
          "name": "approved",
          "type": "address"
        },
        {
          "indexed": true,
          "internalType": "uint256",
          "name": "tokenId",
          "type": "uint256"
        }
      ],
      "name": "Approval",
      "type": "event"
    },
    {
      "anonymous": false,
      "inputs": [
        {
          "indexed": true,
          "internalType": "address",
          "name": "owner",
          "type": "address"
        },
        {
          "indexed": true,
          "internalType": "address",
          "name": "operator",
          "type": "address"
        },
        {
          "indexed": false,
          "internalType": "bool",
          "name": "approved",
          "type": "bool"
        }
      ],
      "name": "ApprovalForAll",
      "type": "event"
    },
    {
      "anonymous": false,
      "inputs": [
        {
          "indexed": true,
          "internalType": "address",
          "name": "from",
          "type": "address"
        },
        {
          "indexed": true,
          "internalType": "address",
          "name": "to",
          "type": "address"
        },
        {
          "indexed": true,
          "internalType": "uint256",
          "name": "tokenId",
          "type": "uint256"
        }
      ],
      "name": "Transfer",
      "type": "event"
    },
    {
      "inputs": [],
      "name": "IS_FUNGIBLE",
      "outputs": [
        {
          "internalType": "bool",
          "name": "",
          "type": "bool"
        }
      ],
      "stateMutability": "view",
      "type": "function"
    },
    {
      "inputs": [
        {
          "internalType": "address",
          "name": "to",
          "type": "address"
        },
        {
          "internalType": "uint256",
          "name": "tokenId",
          "type": "uint256"
        }
      ],
      "name": "approve",
      "outputs": [],
      "stateMutability": "nonpayable",
      "type": "function"
    },
    {
      "inputs": [
        {
          "internalType": "address",
          "name": "spender",
          "type": "address"
        },
        {
          "internalType": "int64",
          "name": "tokenId",
          "type": "int64"
        }
      ],
      "name": "approveRequestFromHtsPrecompile",
      "outputs": [],
      "stateMutability": "nonpayable",
      "type": "function"
    },
    {
      "inputs": [
        {
          "internalType": "address",
          "name": "owner",
          "type": "address"
        }
      ],
      "name": "balanceOf",
      "outputs": [
        {
          "internalType": "uint256",
          "name": "",
          "type": "uint256"
        }
      ],
      "stateMutability": "view",
      "type": "function"
    },
    {
      "inputs": [],
      "name": "burnCount",
      "outputs": [
        {
          "internalType": "int64",
          "name": "burned",
          "type": "int64"
        }
      ],
      "stateMutability": "view",
      "type": "function"
    },
    {
      "inputs": [
        {
          "internalType": "int64[]",
          "name": "tokenIds",
          "type": "int64[]"
        }
      ],
      "name": "burnRequestFromHtsPrecompile",
      "outputs": [
        {
          "internalType": "int64",
          "name": "newTotalSupply",
          "type": "int64"
        }
      ],
      "stateMutability": "nonpayable",
      "type": "function"
    },
    {
      "inputs": [
        {
          "internalType": "uint256",
          "name": "tokenId",
          "type": "uint256"
        }
      ],
      "name": "getApproved",
      "outputs": [
        {
          "internalType": "address",
          "name": "",
          "type": "address"
        }
      ],
      "stateMutability": "view",
      "type": "function"
    },
    {
      "inputs": [
        {
          "internalType": "address",
          "name": "owner",
          "type": "address"
        },
        {
          "internalType": "address",
          "name": "operator",
          "type": "address"
        }
      ],
      "name": "isApprovedForAll",
      "outputs": [
        {
          "internalType": "bool",
          "name": "",
          "type": "bool"
        }
      ],
      "stateMutability": "view",
      "type": "function"
    },
    {
      "inputs": [
        {
          "internalType": "address",
          "name": "spender",
          "type": "address"
        },
        {
          "internalType": "uint256",
          "name": "tokenId",
          "type": "uint256"
        }
      ],
      "name": "isApprovedOrOwner",
      "outputs": [
        {
          "internalType": "bool",
          "name": "",
          "type": "bool"
        }
      ],
      "stateMutability": "view",
      "type": "function"
    },
    {
      "inputs": [],
      "name": "mintCount",
      "outputs": [
        {
          "internalType": "int64",
          "name": "minted",
          "type": "int64"
        }
      ],
      "stateMutability": "view",
      "type": "function"
    },
    {
      "inputs": [
        {
          "internalType": "bytes[]",
          "name": "metadata",
          "type": "bytes[]"
        }
      ],
      "name": "mintRequestFromHtsPrecompile",
      "outputs": [
        {
          "internalType": "int64",
          "name": "newTotalSupply",
          "type": "int64"
        },
        {
          "internalType": "int64",
          "name": "serialNumber",
          "type": "int64"
        }
      ],
      "stateMutability": "nonpayable",
      "type": "function"
    },
    {
      "inputs": [],
      "name": "name",
      "outputs": [
        {
          "internalType": "string",
          "name": "",
          "type": "string"
        }
      ],
      "stateMutability": "view",
      "type": "function"
    },
    {
      "inputs": [
        {
          "internalType": "uint256",
          "name": "tokenId",
          "type": "uint256"
        }
      ],
      "name": "ownerOf",
      "outputs": [
        {
          "internalType": "address",
          "name": "",
          "type": "address"
        }
      ],
      "stateMutability": "view",
      "type": "function"
    },
    {
      "inputs": [
        {
          "internalType": "address",
          "name": "from",
          "type": "address"
        },
        {
          "internalType": "address",
          "name": "to",
          "type": "address"
        },
        {
          "internalType": "uint256",
          "name": "tokenId",
          "type": "uint256"
        }
      ],
      "name": "safeTransferFrom",
      "outputs": [],
      "stateMutability": "nonpayable",
      "type": "function"
    },
    {
      "inputs": [
        {
          "internalType": "address",
          "name": "from",
          "type": "address"
        },
        {
          "internalType": "address",
          "name": "to",
          "type": "address"
        },
        {
          "internalType": "uint256",
          "name": "tokenId",
          "type": "uint256"
        },
        {
          "internalType": "bytes",
          "name": "data",
          "type": "bytes"
        }
      ],
      "name": "safeTransferFrom",
      "outputs": [],
      "stateMutability": "nonpayable",
      "type": "function"
    },
    {
      "inputs": [
        {
          "internalType": "address",
          "name": "operator",
          "type": "address"
        },
        {
          "internalType": "bool",
          "name": "approved",
          "type": "bool"
        }
      ],
      "name": "setApprovalForAll",
      "outputs": [],
      "stateMutability": "nonpayable",
      "type": "function"
    },
    {
      "inputs": [
        {
          "internalType": "address",
          "name": "owner",
          "type": "address"
        },
        {
          "internalType": "address",
          "name": "operator",
          "type": "address"
        },
        {
          "internalType": "bool",
          "name": "approved",
          "type": "bool"
        }
      ],
      "name": "setApprovalForAllFromHtsPrecompile",
      "outputs": [],
      "stateMutability": "nonpayable",
      "type": "function"
    },
    {
      "inputs": [
        {
          "internalType": "bytes4",
          "name": "interfaceId",
          "type": "bytes4"
        }
      ],
      "name": "supportsInterface",
      "outputs": [
        {
          "internalType": "bool",
          "name": "",
          "type": "bool"
        }
      ],
      "stateMutability": "view",
      "type": "function"
    },
    {
      "inputs": [],
      "name": "symbol",
      "outputs": [
        {
          "internalType": "string",
          "name": "",
          "type": "string"
        }
      ],
      "stateMutability": "view",
      "type": "function"
    },
    {
      "inputs": [
        {
          "internalType": "uint256",
          "name": "tokenId",
          "type": "uint256"
        }
      ],
      "name": "tokenURI",
      "outputs": [
        {
          "internalType": "string",
          "name": "",
          "type": "string"
        }
      ],
      "stateMutability": "view",
      "type": "function"
    },
    {
      "inputs": [],
      "name": "totalSupply",
      "outputs": [
        {
          "internalType": "uint256",
          "name": "",
          "type": "uint256"
        }
      ],
      "stateMutability": "view",
      "type": "function"
    },
    {
      "inputs": [
        {
          "internalType": "address",
          "name": "from",
          "type": "address"
        },
        {
          "internalType": "address",
          "name": "to",
          "type": "address"
        },
        {
          "internalType": "uint256",
          "name": "tokenId",
          "type": "uint256"
        }
      ],
      "name": "transferFrom",
      "outputs": [],
      "stateMutability": "nonpayable",
      "type": "function"
    },
    {
      "inputs": [
        {
          "internalType": "bool",
          "name": "isRequestFromOwner",
          "type": "bool"
        },
        {
          "internalType": "address",
          "name": "spender",
          "type": "address"
        },
        {
          "internalType": "address",
          "name": "from",
          "type": "address"
        },
        {
          "internalType": "address",
          "name": "to",
          "type": "address"
        },
        {
          "internalType": "uint256",
          "name": "tokenId",
          "type": "uint256"
        }
      ],
      "name": "transferRequestFromHtsPrecompile",
      "outputs": [
        {
          "internalType": "int64",
          "name": "responseCode",
          "type": "int64"
        }
      ],
      "stateMutability": "nonpayable",
      "type": "function"
    },
    {
      "inputs": [
        {
          "internalType": "int64[]",
          "name": "tokenIds",
          "type": "int64[]"
        }
      ],
      "name": "wipeRequestFromHtsPrecompile",
      "outputs": [],
      "stateMutability": "nonpayable",
      "type": "function"
    }
  ],
  "bytecode": "0x608060405234801562000010575f80fd5b506040516200371f3803806200371f833981016040819052620000339162000843565b805180516020909101515f6200004a838262000a27565b50600162000059828262000a27565b505060405163da23fff960e01b81523391506101679063da23fff99062000087908490869060040162000e5e565b5f604051808303815f87803b1580156200009f575f80fd5b505af1158015620000b2573d5f803e3d5ffd5b50505050505062000f57565b634e487b7160e01b5f52604160045260245ffd5b604080519081016001600160401b0381118282101715620000f757620000f7620000be565b60405290565b60405160a081016001600160401b0381118282101715620000f757620000f7620000be565b60405161012081016001600160401b0381118282101715620000f757620000f7620000be565b60405160c081016001600160401b0381118282101715620000f757620000f7620000be565b604051601f8201601f191681016001600160401b0381118282101715620001985762000198620000be565b604052919050565b5f5b83811015620001bc578181015183820152602001620001a2565b50505f910152565b5f82601f830112620001d4575f80fd5b81516001600160401b03811115620001f057620001f0620000be565b62000205601f8201601f19166020016200016d565b8181528460208386010111156200021a575f80fd5b6200022d826020830160208701620001a0565b949350505050565b80516001600160a01b03811681146200024c575f80fd5b919050565b805180151581146200024c575f80fd5b8051600781900b81146200024c575f80fd5b5f6001600160401b038211156200028e576200028e620000be565b5060051b60200190565b5f82601f830112620002a8575f80fd5b81516020620002c1620002bb8362000273565b6200016d565b82815260059290921b84018101918181019086841115620002e0575f80fd5b8286015b84811015620004015780516001600160401b038082111562000304575f80fd5b908801906040601f19838c0381018213156200031e575f80fd5b62000328620000d2565b88850151815282850151848111156200033f575f80fd5b949094019360a0858e038301121562000357575f8081fd5b62000361620000fd565b91506200037089860162000251565b82526200037f83860162000235565b898301526060808601518581111562000397575f8081fd5b620003a78f8c838a0101620001c4565b8585015250608093508386015185811115620003c2575f8081fd5b620003d28f8c838a0101620001c4565b828501525050620003e660a0860162000235565b928201929092528188015285525050918301918301620002e4565b509695505050505050565b5f606082840312156200041d575f80fd5b604051606081016001600160401b0381118282101715620004425762000442620000be565b604052905080620004538362000261565b8152620004636020840162000235565b6020820152620004766040840162000261565b60408201525092915050565b5f610160828403121562000494575f80fd5b6200049e62000122565b82519091506001600160401b0380821115620004b8575f80fd5b620004c685838601620001c4565b83526020840151915080821115620004dc575f80fd5b620004ea85838601620001c4565b6020840152620004fd6040850162000235565b6040840152606084015191508082111562000516575f80fd5b6200052485838601620001c4565b6060840152620005376080850162000251565b60808401526200054a60a0850162000261565b60a08401526200055d60c0850162000251565b60c084015260e084015191508082111562000576575f80fd5b50620005858482850162000298565b60e0830152506101006200059c848285016200040c565b9082015292915050565b5f82601f830112620005b6575f80fd5b81516020620005c9620002bb8362000273565b82815260a09283028501820192828201919087851115620005e8575f80fd5b8387015b85811015620006745781818a03121562000605575f8081fd5b6200060f620000fd565b6200061a8262000261565b81526200062986830162000235565b8682015260406200063c81840162000251565b9082015260606200064f83820162000251565b9082015260806200066283820162000235565b908201528452928401928101620005ec565b5090979650505050505050565b5f82601f83011262000691575f80fd5b81516020620006a4620002bb8362000273565b82815260c09283028501820192828201919087851115620006c3575f80fd5b8387015b85811015620006745781818a031215620006e0575f8081fd5b620006ea62000148565b620006f58262000261565b81526200070486830162000261565b8682015260406200071781840162000261565b9082015260606200072a83820162000261565b9082015260806200073d83820162000251565b9082015260a06200075083820162000235565b908201528452928401928101620006c7565b5f82601f83011262000772575f80fd5b8151602062000785620002bb8362000273565b82815260c09283028501820192828201919087851115620007a4575f80fd5b8387015b85811015620006745781818a031215620007c1575f8081fd5b620007cb62000148565b620007d68262000261565b8152620007e586830162000261565b868201526040620007f881840162000261565b9082015260606200080b83820162000235565b9082015260806200081e83820162000251565b9082015260a06200083183820162000235565b908201528452928401928101620007a8565b5f6020828403121562000854575f80fd5b81516001600160401b03808211156200086b575f80fd5b90830190610120828603121562000880575f80fd5b6200088a62000122565b82518281111562000899575f80fd5b620008a78782860162000482565b825250620008b86020840162000261565b6020820152620008cb6040840162000251565b6040820152620008de6060840162000251565b6060820152620008f16080840162000251565b608082015260a08301518281111562000908575f80fd5b6200091687828601620005a6565b60a08301525060c0830151828111156200092e575f80fd5b6200093c8782860162000681565b60c08301525060e08301518281111562000954575f80fd5b620009628782860162000762565b60e08301525061010080840151838111156200097c575f80fd5b6200098a88828701620001c4565b918301919091525095945050505050565b600181811c90821680620009b057607f821691505b602082108103620009cf57634e487b7160e01b5f52602260045260245ffd5b50919050565b601f82111562000a22575f81815260208120601f850160051c81016020861015620009fd5750805b601f850160051c820191505b8181101562000a1e5782815560010162000a09565b5050505b505050565b81516001600160401b0381111562000a435762000a43620000be565b62000a5b8162000a5484546200099b565b84620009d5565b602080601f83116001811462000a91575f841562000a795750858301515b5f19600386901b1c1916600185901b17855562000a1e565b5f85815260208120601f198616915b8281101562000ac15788860151825594840194600190910190840162000aa0565b508582101562000adf57878501515f19600388901b60f8161c191681555b5050505050600190811b01905550565b5f815180845262000b08816020860160208601620001a0565b601f01601f19169290920160200192915050565b5f81518084526020808501808196508360051b810191508286015f5b8581101562000bd657828403895281516040815186528682015191508087870152815115158187015286820151606060018060a01b03808316828a015283850151935060a09250608083818b015262000b9560e08b018662000aef565b928601518a8403603f1901858c015292945062000bb3858462000aef565b9501511660c0989098019790975250509885019893509084019060010162000b38565b5091979650505050505050565b5f610160825181855262000bfa8286018262000aef565b9150506020830151848203602086015262000c16828262000aef565b915050604083015162000c3460408601826001600160a01b03169052565b506060830151848203606086015262000c4e828262000aef565b915050608083015162000c65608086018215159052565b5060a083015162000c7b60a086018260070b9052565b5060c083015162000c9060c086018215159052565b5060e083015184820360e086015262000caa828262000b1c565b610100858101518051600790810b8984015260208201516001600160a01b03166101208a01526040820151900b61014089015291935091505090949350505050565b5f8151808452602080850194508084015f5b8381101562000d59578151805160070b8852838101516001600160a01b03908116858a01526040808301511515908a01526060808301511515908a0152608091820151169088015260a0909601959082019060010162000cfe565b509495945050505050565b5f8151808452602080850194508084015f5b8381101562000d595781518051600790810b895284820151810b858a0152604080830151820b908a015260608083015190910b9089015260808082015115159089015260a0908101516001600160a01b03169088015260c0909601959082019060010162000d76565b5f8151808452602080850194508084015f5b8381101562000d595781518051600790810b895284820151810b858a015260408083015190910b908901526060808201516001600160a01b03908116918a01919091526080808301511515908a015260a091820151169088015260c0909601959082019060010162000df1565b60018060a01b0383168152604060208201525f825161012080604085015262000e8c61016085018362000be3565b9150602085015162000ea3606086018260070b9052565b506040850151801515608086015250606085015180151560a086015250608085015180151560c08601525060a0850151603f19808685030160e087015262000eec848362000cec565b935060c0870151915061010081878603018188015262000f0d858462000d64565b945060e0880151925081878603018488015262000f2b858462000ddf565b9450808801519350508086850301610140870152505062000f4d828262000aef565b9695505050505050565b6127ba8062000f655f395ff3fe608060405234801561000f575f80fd5b506004361061018f575f3560e01c80636352211e116100dd578063b59fc61911610088578063cc98587811610063578063cc9858781461036b578063d5efa53c14610372578063e985e9c514610385575f80fd5b8063b59fc61914610332578063b88d4fde14610345578063c87b56dd14610358575f80fd5b806395d89b41116100b857806395d89b411461030c5780639659867e14610314578063a22cb4651461031f575f80fd5b80636352211e146102d357806370a08231146102e657806387087728146102f9575f80fd5b806318160ddd1161013d57806342842e0e1161011857806342842e0e1461028c578063430c20811461029f578063524773ce146102b2575f80fd5b806318160ddd1461023657806323b872dd1461024c5780633d08925d1461025f575f80fd5b8063081812fc1161016d578063081812fc146101e5578063095ea7b3146102105780630ff1493814610223575f80fd5b806301ffc9a71461019357806306e483a5146101bb57806306fdde03146101d0575b5f80fd5b6101a66101a136600461194e565b6103c0565b60405190151581526020015b60405180910390f35b6101ce6101c936600461198b565b610411565b005b6101d8610474565b6040516101b29190611a0f565b6101f86101f3366004611a21565b610503565b6040516001600160a01b0390911681526020016101b2565b6101ce61021e366004611a38565b610528565b6101ce610231366004611a6f565b6105e3565b61023e610639565b6040519081526020016101b2565b6101ce61025a366004611ab7565b610665565b61027261026d366004611c69565b610720565b60408051600793840b81529190920b6020820152016101b2565b6101ce61029a366004611ab7565b610839565b6101a66102ad366004611a38565b6108f4565b600654600160401b900460070b5b60405160079190910b81526020016101b2565b6101f86102e1366004611a21565b610906565b61023e6102f4366004611d14565b61096a565b6102c0610307366004611d2f565b6109ee565b6101d8610af6565b60065460070b6102c0565b6101ce61032d366004611d9e565b610b05565b6102c0610340366004611dca565b610bbe565b6101ce610353366004611e2a565b610c3b565b6101d8610366366004611a21565b610cff565b6101a65f81565b6101ce610380366004611d2f565b610d6e565b6101a6610393366004611e92565b6001600160a01b039182165f90815260056020908152604080832093909416825291909152205460ff1690565b5f6001600160e01b031982166380ac58cd60e01b14806103f057506001600160e01b03198216635b5e139f60e01b145b8061040b57506301ffc9a760e01b6001600160e01b03198316145b92915050565b336101671461045c5760405162461bcd60e51b81526020600482015260126024820152714e4f545f4854535f505245434f4d50494c4560701b60448201526064015b60405180910390fd5b610470828267ffffffffffffffff16610dbe565b5050565b60605f805461048290611ebe565b80601f01602080910402602001604051908101604052809291908181526020018280546104ae90611ebe565b80156104f95780601f106104d0576101008083540402835291602001916104f9565b820191905f5260205f20905b8154815290600101906020018083116104dc57829003601f168201915b5050505050905090565b5f61050d82610e2b565b505f908152600460205260409020546001600160a01b031690565b60405163e459524960e01b815233600482018190526001600160a01b0384166024830152604482018390529083905f906101679063e4595249906064016020604051808303815f875af1158015610581573d5f803e3d5ffd5b505050506040513d601f19601f820116820180604052508101906105a59190611f06565b9050600781900b6016146105d25760405163fbe0be3960e01b8152600782900b6004820152602401610453565b6105dc8585610e91565b5050505050565b33610167146106295760405162461bcd60e51b81526020600482015260126024820152714e4f545f4854535f505245434f4d50494c4560701b6044820152606401610453565b610634838383610fa0565b505050565b6006545f9061065690600160401b8104600790810b91900b611f35565b67ffffffffffffffff16905090565b60405163a0ecee3360e01b815233600482018190526001600160a01b0380861660248401528416604483015260648201839052905f906101679063a0ecee33906084016020604051808303815f875af11580156106c4573d5f803e3d5ffd5b505050506040513d601f19601f820116820180604052508101906106e89190611f06565b9050600781900b6016146107155760405163fbe0be3960e01b8152600782900b6004820152602401610453565b6105dc85858561106d565b5f8033610167146107685760405162461bcd60e51b81526020600482015260126024820152714e4f545f4854535f505245434f4d50494c4560701b6044820152606401610453565b604051631f69565f60e01b81523060048201525f9061016790631f69565f906024015f60405180830381865afa1580156107a4573d5f803e3d5ffd5b505050506040513d5f823e601f3d908101601f191682016040526107cb9190810190612514565b80516040015160068054929450909250905f906107ea9060070b612665565b91906101000a81548167ffffffffffffffff021916908360070b67ffffffffffffffff16021790559250610828818467ffffffffffffffff166110e4565b610830610639565b93505050915091565b60405163a0ecee3360e01b815233600482018190526001600160a01b0380861660248401528416604483015260648201839052905f906101679063a0ecee33906084016020604051808303815f875af1158015610898573d5f803e3d5ffd5b505050506040513d601f19601f820116820180604052508101906108bc9190611f06565b9050600781900b6016146108e95760405163fbe0be3960e01b8152600782900b6004820152602401610453565b6105dc85858561126c565b5f6108ff8383611286565b9392505050565b5f818152600260205260408120546001600160a01b03168061040b5760405162461bcd60e51b815260206004820152601860248201527f4552433732313a20696e76616c696420746f6b656e20494400000000000000006044820152606401610453565b5f6001600160a01b0382166109d35760405162461bcd60e51b815260206004820152602960248201527f4552433732313a2061646472657373207a65726f206973206e6f7420612076616044820152683634b21037bbb732b960b91b6064820152608401610453565b506001600160a01b03165f9081526003602052604090205490565b5f3361016714610a355760405162461bcd60e51b81526020600482015260126024820152714e4f545f4854535f505245434f4d50494c4560701b6044820152606401610453565b6006548290610a4f908290600160401b900460070b61268a565b6006805467ffffffffffffffff92909216600160401b026fffffffffffffffff0000000000000000199092169190911790555f5b8167ffffffffffffffff16811015610ae5575f858583818110610aa857610aa86126b9565b9050602002016020810190610abd91906126cd565b67ffffffffffffffff169050610ad281611302565b5080610add816126e8565b915050610a83565b50610aee610639565b949350505050565b60606001805461048290611ebe565b6040516329aabad960e11b815233600482018190526001600160a01b03841660248301528215156044830152905f906101679063535575b2906064016020604051808303815f875af1158015610b5d573d5f803e3d5ffd5b505050506040513d601f19601f82011682018060405250810190610b819190611f06565b9050600781900b601614610bae5760405163fbe0be3960e01b8152600782900b6004820152602401610453565b610bb88484611394565b50505050565b5f3361016714610c055760405162461bcd60e51b81526020600482015260126024820152714e4f545f4854535f505245434f4d50494c4560701b6044820152606401610453565b5f610c108684611286565b905080610c21575060b29050610c32565b610c2c85858561139f565b50601690505b95945050505050565b60405163a0ecee3360e01b815233600482018190526001600160a01b0380871660248401528516604483015260648201849052905f906101679063a0ecee33906084016020604051808303815f875af1158015610c9a573d5f803e3d5ffd5b505050506040513d601f19601f82011682018060405250810190610cbe9190611f06565b9050600781900b601614610ceb5760405163fbe0be3960e01b8152600782900b6004820152602401610453565b610cf78686868661157d565b505050505050565b6060610d0a82610e2b565b5f610d1f60408051602081019091525f815290565b90505f815111610d3d5760405180602001604052805f8152506108ff565b80610d47846115f5565b604051602001610d58929190612700565b6040516020818303038152906040529392505050565b3361016714610db45760405162461bcd60e51b81526020600482015260126024820152714e4f545f4854535f505245434f4d50494c4560701b6044820152606401610453565b61063482826109ee565b5f81815260046020526040902080546001600160a01b0319166001600160a01b0384169081179091558190610df282610906565b6001600160a01b03167f8c5be1e5ebec7d5bd14f71427d1e84f3dd0314c0f7b2291e5b200ac8c7c3b92560405160405180910390a45050565b5f818152600260205260409020546001600160a01b0316610e8e5760405162461bcd60e51b815260206004820152601860248201527f4552433732313a20696e76616c696420746f6b656e20494400000000000000006044820152606401610453565b50565b5f610e9b82610906565b9050806001600160a01b0316836001600160a01b031603610f085760405162461bcd60e51b815260206004820152602160248201527f4552433732313a20617070726f76616c20746f2063757272656e74206f776e656044820152603960f91b6064820152608401610453565b336001600160a01b0382161480610f245750610f248133610393565b610f965760405162461bcd60e51b815260206004820152603d60248201527f4552433732313a20617070726f76652063616c6c6572206973206e6f7420746f60448201527f6b656e206f776e6572206f7220617070726f76656420666f7220616c6c0000006064820152608401610453565b6106348383610dbe565b816001600160a01b0316836001600160a01b0316036110015760405162461bcd60e51b815260206004820152601960248201527f4552433732313a20617070726f766520746f2063616c6c6572000000000000006044820152606401610453565b6001600160a01b038381165f81815260056020908152604080832094871680845294825291829020805460ff191686151590811790915591519182527f17307eab39ab6107e8899845ad3d59bd9653f200f220920489ca2b5937696c31910160405180910390a3505050565b6110773382611286565b6110d95760405162461bcd60e51b815260206004820152602d60248201527f4552433732313a2063616c6c6572206973206e6f7420746f6b656e206f776e6560448201526c1c881bdc88185c1c1c9bdd9959609a1b6064820152608401610453565b61063483838361139f565b6001600160a01b03821661113a5760405162461bcd60e51b815260206004820181905260248201527f4552433732313a206d696e7420746f20746865207a65726f20616464726573736044820152606401610453565b5f818152600260205260409020546001600160a01b03161561119e5760405162461bcd60e51b815260206004820152601c60248201527f4552433732313a20746f6b656e20616c7265616479206d696e746564000000006044820152606401610453565b5f818152600260205260409020546001600160a01b0316156112025760405162461bcd60e51b815260206004820152601c60248201527f4552433732313a20746f6b656e20616c7265616479206d696e746564000000006044820152606401610453565b6001600160a01b0382165f81815260036020908152604080832080546001019055848352600290915280822080546001600160a01b0319168417905551839291907fddf252ad1be2c89b69c2b068fc378daa952ba7f163c4a11628f55a4df523b3ef908290a45050565b61063483838360405180602001604052805f815250610c3b565b5f8061129183610906565b9050806001600160a01b0316846001600160a01b031614806112d757506001600160a01b038082165f9081526005602090815260408083209388168352929052205460ff165b80610aee5750836001600160a01b03166112f084610503565b6001600160a01b031614949350505050565b5f61130c82610906565b905061131782610906565b5f83815260046020908152604080832080546001600160a01b03199081169091556001600160a01b0385168085526003845282852080545f190190558785526002909352818420805490911690555192935084927fddf252ad1be2c89b69c2b068fc378daa952ba7f163c4a11628f55a4df523b3ef908390a45050565b610470338383610fa0565b826001600160a01b03166113b282610906565b6001600160a01b0316146114165760405162461bcd60e51b815260206004820152602560248201527f4552433732313a207472616e736665722066726f6d20696e636f72726563742060448201526437bbb732b960d91b6064820152608401610453565b6001600160a01b0382166114785760405162461bcd60e51b8152602060048201526024808201527f4552433732313a207472616e7366657220746f20746865207a65726f206164646044820152637265737360e01b6064820152608401610453565b826001600160a01b031661148b82610906565b6001600160a01b0316146114ef5760405162461bcd60e51b815260206004820152602560248201527f4552433732313a207472616e736665722066726f6d20696e636f72726563742060448201526437bbb732b960d91b6064820152608401610453565b5f81815260046020908152604080832080546001600160a01b03199081169091556001600160a01b038781168086526003855283862080545f1901905590871680865283862080546001019055868652600290945282852080549092168417909155905184937fddf252ad1be2c89b69c2b068fc378daa952ba7f163c4a11628f55a4df523b3ef91a4505050565b6115873383611286565b6115e95760405162461bcd60e51b815260206004820152602d60248201527f4552433732313a2063616c6c6572206973206e6f7420746f6b656e206f776e6560448201526c1c881bdc88185c1c1c9bdd9959609a1b6064820152608401610453565b610bb884848484611692565b60605f61160183611710565b60010190505f8167ffffffffffffffff81111561162057611620611af5565b6040519080825280601f01601f19166020018201604052801561164a576020820181803683370190505b5090508181016020015b5f19017f3031323334353637383961626364656600000000000000000000000000000000600a86061a8153600a850494508461165457509392505050565b61169d84848461139f565b6116a9848484846117f1565b610bb85760405162461bcd60e51b815260206004820152603260248201527f4552433732313a207472616e7366657220746f206e6f6e20455243373231526560448201527131b2b4bb32b91034b6b83632b6b2b73a32b960711b6064820152608401610453565b5f807a184f03e93ff9f4daa797ed6e38ed64bf6a1f0100000000000000008310611758577a184f03e93ff9f4daa797ed6e38ed64bf6a1f010000000000000000830492506040015b6d04ee2d6d415b85acef81000000008310611784576d04ee2d6d415b85acef8100000000830492506020015b662386f26fc1000083106117a257662386f26fc10000830492506010015b6305f5e10083106117ba576305f5e100830492506008015b61271083106117ce57612710830492506004015b606483106117e0576064830492506002015b600a831061040b5760010192915050565b5f6001600160a01b0384163b1561192e57604051630a85bd0160e11b81526001600160a01b0385169063150b7a029061183490339089908890889060040161272e565b6020604051808303815f875af192505050801561186e575060408051601f3d908101601f1916820190925261186b91810190612769565b60015b611914573d80801561189b576040519150601f19603f3d011682016040523d82523d5f602084013e6118a0565b606091505b5080515f0361190c5760405162461bcd60e51b815260206004820152603260248201527f4552433732313a207472616e7366657220746f206e6f6e20455243373231526560448201527131b2b4bb32b91034b6b83632b6b2b73a32b960711b6064820152608401610453565b805181602001fd5b6001600160e01b031916630a85bd0160e11b149050610aee565b506001949350505050565b6001600160e01b031981168114610e8e575f80fd5b5f6020828403121561195e575f80fd5b81356108ff81611939565b6001600160a01b0381168114610e8e575f80fd5b8060070b8114610e8e575f80fd5b5f806040838503121561199c575f80fd5b82356119a781611969565b915060208301356119b78161197d565b809150509250929050565b5f5b838110156119dc5781810151838201526020016119c4565b50505f910152565b5f81518084526119fb8160208601602086016119c2565b601f01601f19169290920160200192915050565b602081525f6108ff60208301846119e4565b5f60208284031215611a31575f80fd5b5035919050565b5f8060408385031215611a49575f80fd5b8235611a5481611969565b946020939093013593505050565b8015158114610e8e575f80fd5b5f805f60608486031215611a81575f80fd5b8335611a8c81611969565b92506020840135611a9c81611969565b91506040840135611aac81611a62565b809150509250925092565b5f805f60608486031215611ac9575f80fd5b8335611ad481611969565b92506020840135611ae481611969565b929592945050506040919091013590565b634e487b7160e01b5f52604160045260245ffd5b6040805190810167ffffffffffffffff81118282101715611b2c57611b2c611af5565b60405290565b60405160a0810167ffffffffffffffff81118282101715611b2c57611b2c611af5565b604051610120810167ffffffffffffffff81118282101715611b2c57611b2c611af5565b60405160c0810167ffffffffffffffff81118282101715611b2c57611b2c611af5565b604051601f8201601f1916810167ffffffffffffffff81118282101715611bc557611bc5611af5565b604052919050565b5f67ffffffffffffffff821115611be657611be6611af5565b5060051b60200190565b5f67ffffffffffffffff821115611c0957611c09611af5565b50601f01601f191660200190565b5f82601f830112611c26575f80fd5b8135611c39611c3482611bf0565b611b9c565b818152846020838601011115611c4d575f80fd5b816020850160208301375f918101602001919091529392505050565b5f6020808385031215611c7a575f80fd5b823567ffffffffffffffff80821115611c91575f80fd5b818501915085601f830112611ca4575f80fd5b8135611cb2611c3482611bcd565b81815260059190911b83018401908481019088831115611cd0575f80fd5b8585015b83811015611d0757803585811115611ceb575f8081fd5b611cf98b89838a0101611c17565b845250918601918601611cd4565b5098975050505050505050565b5f60208284031215611d24575f80fd5b81356108ff81611969565b5f8060208385031215611d40575f80fd5b823567ffffffffffffffff80821115611d57575f80fd5b818501915085601f830112611d6a575f80fd5b813581811115611d78575f80fd5b8660208260051b8501011115611d8c575f80fd5b60209290920196919550909350505050565b5f8060408385031215611daf575f80fd5b8235611dba81611969565b915060208301356119b781611a62565b5f805f805f60a08688031215611dde575f80fd5b8535611de981611a62565b94506020860135611df981611969565b93506040860135611e0981611969565b92506060860135611e1981611969565b949793965091946080013592915050565b5f805f8060808587031215611e3d575f80fd5b8435611e4881611969565b93506020850135611e5881611969565b925060408501359150606085013567ffffffffffffffff811115611e7a575f80fd5b611e8687828801611c17565b91505092959194509250565b5f8060408385031215611ea3575f80fd5b8235611eae81611969565b915060208301356119b781611969565b600181811c90821680611ed257607f821691505b602082108103611ef057634e487b7160e01b5f52602260045260245ffd5b50919050565b8051611f018161197d565b919050565b5f60208284031215611f16575f80fd5b81516108ff8161197d565b634e487b7160e01b5f52601160045260245ffd5b600782810b9082900b03677fffffffffffffff198112677fffffffffffffff8213171561040b5761040b611f21565b5f82601f830112611f73575f80fd5b8151611f81611c3482611bf0565b818152846020838601011115611f95575f80fd5b610aee8260208301602087016119c2565b8051611f0181611969565b8051611f0181611a62565b5f82601f830112611fcb575f80fd5b81516020611fdb611c3483611bcd565b82815260059290921b84018101918181019086841115611ff9575f80fd5b8286015b8481101561210957805167ffffffffffffffff8082111561201c575f80fd5b908801906040601f19838c038101821315612035575f80fd5b61203d611b09565b8885015181528285015184811115612053575f80fd5b949094019360a0858e038301121561206a575f8081fd5b612072611b32565b91508885015161208181611a62565b82528483015161209081611969565b828a0152606085810151858111156120a7575f8081fd5b6120b58f8c838a0101611f64565b85850152506080935083860151858111156120cf575f8081fd5b6120dd8f8c838a0101611f64565b8285015250506120ef60a08601611fa6565b928201929092528188015285525050918301918301611ffd565b509695505050505050565b5f60608284031215612124575f80fd5b6040516060810181811067ffffffffffffffff8211171561214757612147611af5565b8060405250809150825161215a8161197d565b8152602083015161216a81611969565b6020820152604083015161217d8161197d565b6040919091015292915050565b5f610160828403121561219b575f80fd5b6121a3611b55565b9050815167ffffffffffffffff808211156121bc575f80fd5b6121c885838601611f64565b835260208401519150808211156121dd575f80fd5b6121e985838601611f64565b60208401526121fa60408501611fa6565b60408401526060840151915080821115612212575f80fd5b61221e85838601611f64565b606084015261222f60808501611fb1565b608084015261224060a08501611ef6565b60a084015261225160c08501611fb1565b60c084015260e0840151915080821115612269575f80fd5b5061227684828501611fbc565b60e08301525061010061228b84828501612114565b9082015292915050565b5f82601f8301126122a4575f80fd5b815160206122b4611c3483611bcd565b82815260a092830285018201928282019190878511156122d2575f80fd5b8387015b858110156123595781818a0312156122ed575f8081fd5b6122f5611b32565b81516123008161197d565b81528186015161230f81611969565b8187015260408281015161232281611a62565b9082015260608281015161233581611a62565b9082015260808281015161234881611969565b9082015284529284019281016122d6565b5090979650505050505050565b5f82601f830112612375575f80fd5b81516020612385611c3483611bcd565b82815260c092830285018201928282019190878511156123a3575f80fd5b8387015b858110156123595781818a0312156123be575f8081fd5b6123c6611b79565b81516123d18161197d565b8152818601516123e08161197d565b818701526040828101516123f38161197d565b908201526060828101516124068161197d565b9082015260808281015161241981611a62565b9082015260a08281015161242c81611969565b9082015284529284019281016123a7565b5f82601f83011261244c575f80fd5b8151602061245c611c3483611bcd565b82815260c0928302850182019282820191908785111561247a575f80fd5b8387015b858110156123595781818a031215612495575f8081fd5b61249d611b79565b81516124a88161197d565b8152818601516124b78161197d565b818701526040828101516124ca8161197d565b908201526060828101516124dd81611969565b908201526080828101516124f081611a62565b9082015260a08281015161250381611969565b90820152845292840192810161247e565b5f8060408385031215612525575f80fd5b82516125308161197d565b602084015190925067ffffffffffffffff8082111561254d575f80fd5b908401906101208287031215612561575f80fd5b612569611b55565b825182811115612577575f80fd5b6125838882860161218a565b82525061259260208401611ef6565b60208201526125a360408401611fb1565b60408201526125b460608401611fb1565b60608201526125c560808401611fb1565b608082015260a0830151828111156125db575f80fd5b6125e788828601612295565b60a08301525060c0830151828111156125fe575f80fd5b61260a88828601612366565b60c08301525060e083015182811115612621575f80fd5b61262d8882860161243d565b60e0830152506101008084015183811115612646575f80fd5b61265289828701611f64565b8284015250508093505050509250929050565b5f8160070b677fffffffffffffff810361268157612681611f21565b60010192915050565b600781810b9083900b01677fffffffffffffff8113677fffffffffffffff198212171561040b5761040b611f21565b634e487b7160e01b5f52603260045260245ffd5b5f602082840312156126dd575f80fd5b81356108ff8161197d565b5f600182016126f9576126f9611f21565b5060010190565b5f83516127118184602088016119c2565b8351908301906127258183602088016119c2565b01949350505050565b5f6001600160a01b0380871683528086166020840152508360408301526080606083015261275f60808301846119e4565b9695505050505050565b5f60208284031215612779575f80fd5b81516108ff8161193956fea264697066735822122021337e190891ba30ea43c788fdd952ba2b937b6c15bdc2a8268b2841a17320b564736f6c63430008140033",
  "linkReferences": {},
  "deployedLinkReferences": {}
}