{
  "_format": "hh-sol-artifact-1",
  "contractName": "HederaNonFungibleToken",
  "sourceName": "contracts/mocks/hts-precompile/HederaNonFungibleToken.sol",
  "abi": [
    {
      "inputs": [
        {
          "components": [
            {
              "components": [
                {
                  "internalType": "string",
                  "name": "name",
                  "type": "string"
                },
                {
                  "internalType": "string",
                  "name": "symbol",
                  "type": "string"
                },
                {
                  "internalType": "address",
                  "name": "treasury",
                  "type": "address"
                },
                {
                  "internalType": "string",
                  "name": "memo",
                  "type": "string"
                },
                {
                  "internalType": "bool",
                  "name": "tokenSupplyType",
                  "type": "bool"
                },
                {
                  "internalType": "int64",
                  "name": "maxSupply",
                  "type": "int64"
                },
                {
                  "internalType": "bool",
                  "name": "freezeDefault",
                  "type": "bool"
                },
                {
                  "components": [
                    {
                      "internalType": "uint256",
                      "name": "keyType",
                      "type": "uint256"
                    },
                    {
                      "components": [
                        {
                          "internalType": "bool",
                          "name": "inheritAccountKey",
                          "type": "bool"
                        },
                        {
                          "internalType": "address",
                          "name": "contractId",
                          "type": "address"
                        },
                        {
                          "internalType": "bytes",
                          "name": "ed25519",
                          "type": "bytes"
                        },
                        {
                          "internalType": "bytes",
                          "name": "ECDSA_secp256k1",
                          "type": "bytes"
                        },
                        {
                          "internalType": "address",
                          "name": "delegatableContractId",
                          "type": "address"
                        }
                      ],
                      "internalType": "struct IHederaTokenService.KeyValue",
                      "name": "key",
                      "type": "tuple"
                    }
                  ],
                  "internalType": "struct IHederaTokenService.TokenKey[]",
                  "name": "tokenKeys",
                  "type": "tuple[]"
                },
                {
                  "components": [
                    {
                      "internalType": "int64",
                      "name": "second",
                      "type": "int64"
                    },
                    {
                      "internalType": "address",
                      "name": "autoRenewAccount",
                      "type": "address"
                    },
                    {
                      "internalType": "int64",
                      "name": "autoRenewPeriod",
                      "type": "int64"
                    }
                  ],
                  "internalType": "struct IHederaTokenService.Expiry",
                  "name": "expiry",
                  "type": "tuple"
                }
              ],
              "internalType": "struct IHederaTokenService.HederaToken",
              "name": "token",
              "type": "tuple"
            },
            {
              "internalType": "int64",
              "name": "totalSupply",
              "type": "int64"
            },
            {
              "internalType": "bool",
              "name": "deleted",
              "type": "bool"
            },
            {
              "internalType": "bool",
              "name": "defaultKycStatus",
              "type": "bool"
            },
            {
              "internalType": "bool",
              "name": "pauseStatus",
              "type": "bool"
            },
            {
              "components": [
                {
                  "internalType": "int64",
                  "name": "amount",
                  "type": "int64"
                },
                {
                  "internalType": "address",
                  "name": "tokenId",
                  "type": "address"
                },
                {
                  "internalType": "bool",
                  "name": "useHbarsForPayment",
                  "type": "bool"
                },
                {
                  "internalType": "bool",
                  "name": "useCurrentTokenForPayment",
                  "type": "bool"
                },
                {
                  "internalType": "address",
                  "name": "feeCollector",
                  "type": "address"
                }
              ],
              "internalType": "struct IHederaTokenService.FixedFee[]",
              "name": "fixedFees",
              "type": "tuple[]"
            },
            {
              "components": [
                {
                  "internalType": "int64",
                  "name": "numerator",
                  "type": "int64"
                },
                {
                  "internalType": "int64",
                  "name": "denominator",
                  "type": "int64"
                },
                {
                  "internalType": "int64",
                  "name": "minimumAmount",
                  "type": "int64"
                },
                {
                  "internalType": "int64",
                  "name": "maximumAmount",
                  "type": "int64"
                },
                {
                  "internalType": "bool",
                  "name": "netOfTransfers",
                  "type": "bool"
                },
                {
                  "internalType": "address",
                  "name": "feeCollector",
                  "type": "address"
                }
              ],
              "internalType": "struct IHederaTokenService.FractionalFee[]",
              "name": "fractionalFees",
              "type": "tuple[]"
            },
            {
              "components": [
                {
                  "internalType": "int64",
                  "name": "numerator",
                  "type": "int64"
                },
                {
                  "internalType": "int64",
                  "name": "denominator",
                  "type": "int64"
                },
                {
                  "internalType": "int64",
                  "name": "amount",
                  "type": "int64"
                },
                {
                  "internalType": "address",
                  "name": "tokenId",
                  "type": "address"
                },
                {
                  "internalType": "bool",
                  "name": "useHbarsForPayment",
                  "type": "bool"
                },
                {
                  "internalType": "address",
                  "name": "feeCollector",
                  "type": "address"
                }
              ],
              "internalType": "struct IHederaTokenService.RoyaltyFee[]",
              "name": "royaltyFees",
              "type": "tuple[]"
            },
            {
              "internalType": "string",
              "name": "ledgerId",
              "type": "string"
            }
          ],
          "internalType": "struct IHederaTokenService.TokenInfo",
          "name": "_nftTokenInfo",
          "type": "tuple"
        }
      ],
      "stateMutability": "nonpayable",
      "type": "constructor"
    },
    {
      "inputs": [
        {
          "internalType": "int64",
          "name": "responseCode",
          "type": "int64"
        }
      ],
      "name": "HtsPrecompileError",
      "type": "error"
    },
    {
      "anonymous": false,
      "inputs": [
        {
          "indexed": true,
          "internalType": "address",
          "name": "owner",
          "type": "address"
        },
        {
          "indexed": true,
          "internalType": "address",
          "name": "approved",
          "type": "address"
        },
        {
          "indexed": true,
          "internalType": "uint256",
          "name": "tokenId",
          "type": "uint256"
        }
      ],
      "name": "Approval",
      "type": "event"
    },
    {
      "anonymous": false,
      "inputs": [
        {
          "indexed": true,
          "internalType": "address",
          "name": "owner",
          "type": "address"
        },
        {
          "indexed": true,
          "internalType": "address",
          "name": "operator",
          "type": "address"
        },
        {
          "indexed": false,
          "internalType": "bool",
          "name": "approved",
          "type": "bool"
        }
      ],
      "name": "ApprovalForAll",
      "type": "event"
    },
    {
      "anonymous": false,
      "inputs": [
        {
          "indexed": true,
          "internalType": "address",
          "name": "from",
          "type": "address"
        },
        {
          "indexed": true,
          "internalType": "address",
          "name": "to",
          "type": "address"
        },
        {
          "indexed": true,
          "internalType": "uint256",
          "name": "tokenId",
          "type": "uint256"
        }
      ],
      "name": "Transfer",
      "type": "event"
    },
    {
      "inputs": [],
      "name": "IS_FUNGIBLE",
      "outputs": [
        {
          "internalType": "bool",
          "name": "",
          "type": "bool"
        }
      ],
      "stateMutability": "view",
      "type": "function"
    },
    {
      "inputs": [
        {
          "internalType": "address",
          "name": "to",
          "type": "address"
        },
        {
          "internalType": "uint256",
          "name": "tokenId",
          "type": "uint256"
        }
      ],
      "name": "approve",
      "outputs": [],
      "stateMutability": "nonpayable",
      "type": "function"
    },
    {
      "inputs": [
        {
          "internalType": "address",
          "name": "spender",
          "type": "address"
        },
        {
          "internalType": "int64",
          "name": "tokenId",
          "type": "int64"
        }
      ],
      "name": "approveRequestFromHtsPrecompile",
      "outputs": [],
      "stateMutability": "nonpayable",
      "type": "function"
    },
    {
      "inputs": [
        {
          "internalType": "address",
          "name": "owner",
          "type": "address"
        }
      ],
      "name": "balanceOf",
      "outputs": [
        {
          "internalType": "uint256",
          "name": "",
          "type": "uint256"
        }
      ],
      "stateMutability": "view",
      "type": "function"
    },
    {
      "inputs": [],
      "name": "burnCount",
      "outputs": [
        {
          "internalType": "int64",
          "name": "burned",
          "type": "int64"
        }
      ],
      "stateMutability": "view",
      "type": "function"
    },
    {
      "inputs": [
        {
          "internalType": "int64[]",
          "name": "tokenIds",
          "type": "int64[]"
        }
      ],
      "name": "burnRequestFromHtsPrecompile",
      "outputs": [
        {
          "internalType": "int64",
          "name": "newTotalSupply",
          "type": "int64"
        }
      ],
      "stateMutability": "nonpayable",
      "type": "function"
    },
    {
      "inputs": [
        {
          "internalType": "uint256",
          "name": "tokenId",
          "type": "uint256"
        }
      ],
      "name": "getApproved",
      "outputs": [
        {
          "internalType": "address",
          "name": "",
          "type": "address"
        }
      ],
      "stateMutability": "view",
      "type": "function"
    },
    {
      "inputs": [
        {
          "internalType": "address",
          "name": "owner",
          "type": "address"
        },
        {
          "internalType": "address",
          "name": "operator",
          "type": "address"
        }
      ],
      "name": "isApprovedForAll",
      "outputs": [
        {
          "internalType": "bool",
          "name": "",
          "type": "bool"
        }
      ],
      "stateMutability": "view",
      "type": "function"
    },
    {
      "inputs": [
        {
          "internalType": "address",
          "name": "spender",
          "type": "address"
        },
        {
          "internalType": "uint256",
          "name": "tokenId",
          "type": "uint256"
        }
      ],
      "name": "isApprovedOrOwner",
      "outputs": [
        {
          "internalType": "bool",
          "name": "",
          "type": "bool"
        }
      ],
      "stateMutability": "view",
      "type": "function"
    },
    {
      "inputs": [],
      "name": "mintCount",
      "outputs": [
        {
          "internalType": "int64",
          "name": "minted",
          "type": "int64"
        }
      ],
      "stateMutability": "view",
      "type": "function"
    },
    {
      "inputs": [
        {
          "internalType": "bytes[]",
          "name": "metadata",
          "type": "bytes[]"
        }
      ],
      "name": "mintRequestFromHtsPrecompile",
      "outputs": [
        {
          "internalType": "int64",
          "name": "newTotalSupply",
          "type": "int64"
        },
        {
          "internalType": "int64",
          "name": "serialNumber",
          "type": "int64"
        }
      ],
      "stateMutability": "nonpayable",
      "type": "function"
    },
    {
      "inputs": [],
      "name": "name",
      "outputs": [
        {
          "internalType": "string",
          "name": "",
          "type": "string"
        }
      ],
      "stateMutability": "view",
      "type": "function"
    },
    {
      "inputs": [
        {
          "internalType": "uint256",
          "name": "tokenId",
          "type": "uint256"
        }
      ],
      "name": "ownerOf",
      "outputs": [
        {
          "internalType": "address",
          "name": "",
          "type": "address"
        }
      ],
      "stateMutability": "view",
      "type": "function"
    },
    {
      "inputs": [
        {
          "internalType": "address",
          "name": "from",
          "type": "address"
        },
        {
          "internalType": "address",
          "name": "to",
          "type": "address"
        },
        {
          "internalType": "uint256",
          "name": "tokenId",
          "type": "uint256"
        }
      ],
      "name": "safeTransferFrom",
      "outputs": [],
      "stateMutability": "nonpayable",
      "type": "function"
    },
    {
      "inputs": [
        {
          "internalType": "address",
          "name": "from",
          "type": "address"
        },
        {
          "internalType": "address",
          "name": "to",
          "type": "address"
        },
        {
          "internalType": "uint256",
          "name": "tokenId",
          "type": "uint256"
        },
        {
          "internalType": "bytes",
          "name": "data",
          "type": "bytes"
        }
      ],
      "name": "safeTransferFrom",
      "outputs": [],
      "stateMutability": "nonpayable",
      "type": "function"
    },
    {
      "inputs": [
        {
          "internalType": "address",
          "name": "operator",
          "type": "address"
        },
        {
          "internalType": "bool",
          "name": "approved",
          "type": "bool"
        }
      ],
      "name": "setApprovalForAll",
      "outputs": [],
      "stateMutability": "nonpayable",
      "type": "function"
    },
    {
      "inputs": [
        {
          "internalType": "address",
          "name": "owner",
          "type": "address"
        },
        {
          "internalType": "address",
          "name": "operator",
          "type": "address"
        },
        {
          "internalType": "bool",
          "name": "approved",
          "type": "bool"
        }
      ],
      "name": "setApprovalForAllFromHtsPrecompile",
      "outputs": [],
      "stateMutability": "nonpayable",
      "type": "function"
    },
    {
      "inputs": [
        {
          "internalType": "bytes4",
          "name": "interfaceId",
          "type": "bytes4"
        }
      ],
      "name": "supportsInterface",
      "outputs": [
        {
          "internalType": "bool",
          "name": "",
          "type": "bool"
        }
      ],
      "stateMutability": "view",
      "type": "function"
    },
    {
      "inputs": [],
      "name": "symbol",
      "outputs": [
        {
          "internalType": "string",
          "name": "",
          "type": "string"
        }
      ],
      "stateMutability": "view",
      "type": "function"
    },
    {
      "inputs": [
        {
          "internalType": "uint256",
          "name": "tokenId",
          "type": "uint256"
        }
      ],
      "name": "tokenURI",
      "outputs": [
        {
          "internalType": "string",
          "name": "",
          "type": "string"
        }
      ],
      "stateMutability": "view",
      "type": "function"
    },
    {
      "inputs": [],
      "name": "totalSupply",
      "outputs": [
        {
          "internalType": "uint256",
          "name": "",
          "type": "uint256"
        }
      ],
      "stateMutability": "view",
      "type": "function"
    },
    {
      "inputs": [
        {
          "internalType": "address",
          "name": "from",
          "type": "address"
        },
        {
          "internalType": "address",
          "name": "to",
          "type": "address"
        },
        {
          "internalType": "uint256",
          "name": "tokenId",
          "type": "uint256"
        }
      ],
      "name": "transferFrom",
      "outputs": [],
      "stateMutability": "nonpayable",
      "type": "function"
    },
    {
      "inputs": [
        {
          "internalType": "bool",
          "name": "isRequestFromOwner",
          "type": "bool"
        },
        {
          "internalType": "address",
          "name": "spender",
          "type": "address"
        },
        {
          "internalType": "address",
          "name": "from",
          "type": "address"
        },
        {
          "internalType": "address",
          "name": "to",
          "type": "address"
        },
        {
          "internalType": "uint256",
          "name": "tokenId",
          "type": "uint256"
        }
      ],
      "name": "transferRequestFromHtsPrecompile",
      "outputs": [
        {
          "internalType": "int64",
          "name": "responseCode",
          "type": "int64"
        }
      ],
      "stateMutability": "nonpayable",
      "type": "function"
    }
  ],
  "bytecode": "0x60806040523480156200001157600080fd5b506040516200381938038062003819833981016040819052620000349162000936565b80518051602091820151815191929091620000569160009190850190620000d6565b5080516200006c906001906020840190620000d6565b505060405163da23fff960e01b81523391506101679063da23fff9906200009a908490869060040162000e10565b600060405180830381600087803b158015620000b557600080fd5b505af1158015620000ca573d6000803e3d6000fd5b50505050505062000f47565b828054620000e49062000f0a565b90600052602060002090601f01602090048101928262000108576000855562000153565b82601f106200012357805160ff191683800117855562000153565b8280016001018555821562000153579182015b828111156200015357825182559160200191906001019062000136565b506200016192915062000165565b5090565b5b8082111562000161576000815560010162000166565b634e487b7160e01b600052604160045260246000fd5b604080519081016001600160401b0381118282101715620001b757620001b76200017c565b60405290565b60405160a081016001600160401b0381118282101715620001b757620001b76200017c565b60405161012081016001600160401b0381118282101715620001b757620001b76200017c565b60405160c081016001600160401b0381118282101715620001b757620001b76200017c565b604051601f8201601f191681016001600160401b03811182821017156200025857620002586200017c565b604052919050565b60005b838110156200027d57818101518382015260200162000263565b838111156200028d576000848401525b50505050565b600082601f830112620002a557600080fd5b81516001600160401b03811115620002c157620002c16200017c565b620002d6601f8201601f19166020016200022d565b818152846020838601011115620002ec57600080fd5b620002ff82602083016020870162000260565b949350505050565b80516001600160a01b03811681146200031f57600080fd5b919050565b805180151581146200031f57600080fd5b8051600781900b81146200031f57600080fd5b60006001600160401b038211156200036457620003646200017c565b5060051b60200190565b600082601f8301126200038057600080fd5b8151602062000399620003938362000348565b6200022d565b82815260059290921b84018101918181019086841115620003b957600080fd5b8286015b84811015620004e05780516001600160401b0380821115620003de57600080fd5b908801906040601f19838c038101821315620003f957600080fd5b6200040362000192565b88850151815282850151848111156200041b57600080fd5b949094019360a0858e0383011215620004345760008081fd5b6200043e620001bd565b91506200044d89860162000324565b82526200045c83860162000307565b8983015260608086015185811115620004755760008081fd5b620004858f8c838a010162000293565b8585015250608093508386015185811115620004a15760008081fd5b620004b18f8c838a010162000293565b828501525050620004c560a0860162000307565b928201929092528188015285525050918301918301620003bd565b509695505050505050565b600060608284031215620004fe57600080fd5b604051606081016001600160401b03811182821017156200052357620005236200017c565b604052905080620005348362000335565b8152620005446020840162000307565b6020820152620005576040840162000335565b60408201525092915050565b600061016082840312156200057757600080fd5b62000581620001e2565b82519091506001600160401b03808211156200059c57600080fd5b620005aa8583860162000293565b83526020840151915080821115620005c157600080fd5b620005cf8583860162000293565b6020840152620005e26040850162000307565b60408401526060840151915080821115620005fc57600080fd5b6200060a8583860162000293565b60608401526200061d6080850162000324565b60808401526200063060a0850162000335565b60a08401526200064360c0850162000324565b60c084015260e08401519150808211156200065d57600080fd5b506200066c848285016200036e565b60e0830152506101006200068384828501620004eb565b9082015292915050565b600082601f8301126200069f57600080fd5b81516020620006b2620003938362000348565b82815260a09283028501820192828201919087851115620006d257600080fd5b8387015b858110156200075f5781818a031215620006f05760008081fd5b620006fa620001bd565b620007058262000335565b81526200071486830162000307565b8682015260406200072781840162000324565b9082015260606200073a83820162000324565b9082015260806200074d83820162000307565b908201528452928401928101620006d6565b5090979650505050505050565b600082601f8301126200077e57600080fd5b8151602062000791620003938362000348565b82815260c09283028501820192828201919087851115620007b157600080fd5b8387015b858110156200075f5781818a031215620007cf5760008081fd5b620007d962000208565b620007e48262000335565b8152620007f386830162000335565b8682015260406200080681840162000335565b9082015260606200081983820162000335565b9082015260806200082c83820162000324565b9082015260a06200083f83820162000307565b908201528452928401928101620007b5565b600082601f8301126200086357600080fd5b8151602062000876620003938362000348565b82815260c092830285018201928282019190878511156200089657600080fd5b8387015b858110156200075f5781818a031215620008b45760008081fd5b620008be62000208565b620008c98262000335565b8152620008d886830162000335565b868201526040620008eb81840162000335565b908201526060620008fe83820162000307565b9082015260806200091183820162000324565b9082015260a06200092483820162000307565b9082015284529284019281016200089a565b6000602082840312156200094957600080fd5b81516001600160401b03808211156200096157600080fd5b9083019061012082860312156200097757600080fd5b62000981620001e2565b8251828111156200099157600080fd5b6200099f8782860162000563565b825250620009b06020840162000335565b6020820152620009c36040840162000324565b6040820152620009d66060840162000324565b6060820152620009e96080840162000324565b608082015260a08301518281111562000a0157600080fd5b62000a0f878286016200068d565b60a08301525060c08301518281111562000a2857600080fd5b62000a36878286016200076c565b60c08301525060e08301518281111562000a4f57600080fd5b62000a5d8782860162000851565b60e083015250610100808401518381111562000a7857600080fd5b62000a868882870162000293565b918301919091525095945050505050565b6000815180845262000ab181602086016020860162000260565b601f01601f19169290920160200192915050565b600081518084526020808501808196508360051b8101915082860160005b8581101562000b8157828403895281516040815186528682015191508087870152815115158187015286820151606060018060a01b03808316828a015283850151935060a09250608083818b015262000b4060e08b018662000a97565b928601518a8403603f1901858c015292945062000b5e858462000a97565b9501511660c0989098019790975250509885019893509084019060010162000ae3565b5091979650505050505050565b6000610160825181855262000ba68286018262000a97565b9150506020830151848203602086015262000bc2828262000a97565b915050604083015162000be060408601826001600160a01b03169052565b506060830151848203606086015262000bfa828262000a97565b915050608083015162000c11608086018215159052565b5060a083015162000c2760a086018260070b9052565b5060c083015162000c3c60c086018215159052565b5060e083015184820360e086015262000c56828262000ac5565b610100858101518051600790810b8984015260208201516001600160a01b03166101208a01526040820151900b61014089015291935091505090949350505050565b600081518084526020808501945080840160005b8381101562000d07578151805160070b8852838101516001600160a01b03908116858a01526040808301511515908a01526060808301511515908a0152608091820151169088015260a0909601959082019060010162000cac565b509495945050505050565b600081518084526020808501945080840160005b8381101562000d075781518051600790810b895284820151810b858a0152604080830151820b908a015260608083015190910b9089015260808082015115159089015260a0908101516001600160a01b03169088015260c0909601959082019060010162000d26565b600081518084526020808501945080840160005b8381101562000d075781518051600790810b895284820151810b858a015260408083015190910b908901526060808201516001600160a01b03908116918a01919091526080808301511515908a015260a091820151169088015260c0909601959082019060010162000da3565b60018060a01b0383168152604060208201526000825161012080604085015262000e3f61016085018362000b8e565b9150602085015162000e56606086018260070b9052565b506040850151801515608086015250606085015180151560a086015250608085015180151560c08601525060a0850151603f19808685030160e087015262000e9f848362000c98565b935060c0870151915061010081878603018188015262000ec0858462000d12565b945060e0880151925081878603018488015262000ede858462000d8f565b9450808801519350508086850301610140870152505062000f00828262000a97565b9695505050505050565b600181811c9082168062000f1f57607f821691505b6020821081141562000f4157634e487b7160e01b600052602260045260246000fd5b50919050565b6128c28062000f576000396000f3fe608060405234801561001057600080fd5b506004361061017d5760003560e01c8063524773ce116100e3578063a22cb4651161008c578063c87b56dd11610066578063c87b56dd14610347578063cc9858781461035a578063e985e9c51461036257600080fd5b8063a22cb4651461030e578063b59fc61914610321578063b88d4fde1461033457600080fd5b806387087728116100bd57806387087728146102e857806395d89b41146102fb5780639659867e1461030357600080fd5b8063524773ce146102a15780636352211e146102c257806370a08231146102d557600080fd5b80630ff14938116101455780633d08925d1161011f5780633d08925d1461024e57806342842e0e1461027b578063430c20811461028e57600080fd5b80630ff149381461021257806318160ddd1461022557806323b872dd1461023b57600080fd5b806301ffc9a71461018257806306e483a5146101aa57806306fdde03146101bf578063081812fc146101d4578063095ea7b3146101ff575b600080fd5b610195610190366004611995565b61039e565b60405190151581526020015b60405180910390f35b6101bd6101b83660046119d6565b6103f0565b005b6101c7610453565b6040516101a19190611a67565b6101e76101e2366004611a7a565b6104e5565b6040516001600160a01b0390911681526020016101a1565b6101bd61020d366004611a93565b61050c565b6101bd610220366004611acd565b6105da565b61022d610630565b6040519081526020016101a1565b6101bd610249366004611b18565b61065d565b61026161025c366004611cd5565b61072b565b60408051600793840b81529190920b6020820152016101a1565b6101bd610289366004611b18565b61085a565b61019561029c366004611a93565b610928565b600654600160401b900460070b5b60405160079190910b81526020016101a1565b6101e76102d0366004611a7a565b61093b565b61022d6102e3366004611d86565b6109a0565b6102af6102f6366004611da3565b610a26565b6101c7610b31565b60065460070b6102af565b6101bd61031c366004611e18565b610b40565b6102af61032f366004611e46565b610c0c565b6101bd610342366004611eaa565b610c8b565b6101c7610355366004611a7a565b610d62565b610195600081565b610195610370366004611f16565b6001600160a01b03918216600090815260056020908152604080832093909416825291909152205460ff1690565b60006001600160e01b031982166380ac58cd60e01b14806103cf57506001600160e01b03198216635b5e139f60e01b145b806103ea57506301ffc9a760e01b6001600160e01b03198316145b92915050565b336101671461043b5760405162461bcd60e51b81526020600482015260126024820152714e4f545f4854535f505245434f4d50494c4560701b60448201526064015b60405180910390fd5b61044f828267ffffffffffffffff16610dd5565b5050565b60606000805461046290611f44565b80601f016020809104026020016040519081016040528092919081815260200182805461048e90611f44565b80156104db5780601f106104b0576101008083540402835291602001916104db565b820191906000526020600020905b8154815290600101906020018083116104be57829003601f168201915b5050505050905090565b60006104f082610e43565b506000908152600460205260409020546001600160a01b031690565b60405163e459524960e01b815233600482018190526001600160a01b0384166024830152604482018390529083906000906101679063e459524990606401602060405180830381600087803b15801561056457600080fd5b505af1158015610578573d6000803e3d6000fd5b505050506040513d601f19601f8201168201806040525081019061059c9190611f8f565b9050600781900b6016146105c95760405163fbe0be3960e01b8152600782900b6004820152602401610432565b6105d38585610eaa565b5050505050565b33610167146106205760405162461bcd60e51b81526020600482015260126024820152714e4f545f4854535f505245434f4d50494c4560701b6044820152606401610432565b61062b838383610fbb565b505050565b60065460009061064e90600160401b8104600790810b91900b611fc2565b67ffffffffffffffff16905090565b60405163a0ecee3360e01b815233600482018190526001600160a01b0380861660248401528416604483015260648201839052906000906101679063a0ecee3390608401602060405180830381600087803b1580156106bb57600080fd5b505af11580156106cf573d6000803e3d6000fd5b505050506040513d601f19601f820116820180604052508101906106f39190611f8f565b9050600781900b6016146107205760405163fbe0be3960e01b8152600782900b6004820152602401610432565b6105d385858561108a565b60008033610167146107745760405162461bcd60e51b81526020600482015260126024820152714e4f545f4854535f505245434f4d50494c4560701b6044820152606401610432565b604051631f69565f60e01b815230600482015260009061016790631f69565f9060240160006040518083038186803b1580156107af57600080fd5b505afa1580156107c3573d6000803e3d6000fd5b505050506040513d6000823e601f3d908101601f191682016040526107eb91908101906125e4565b805160400151600680549294509092509060009061080b9060070b61273e565b91906101000a81548167ffffffffffffffff021916908360070b67ffffffffffffffff16021790559250610849818467ffffffffffffffff16611101565b610851610630565b93505050915091565b60405163a0ecee3360e01b815233600482018190526001600160a01b0380861660248401528416604483015260648201839052906000906101679063a0ecee3390608401602060405180830381600087803b1580156108b857600080fd5b505af11580156108cc573d6000803e3d6000fd5b505050506040513d601f19601f820116820180604052508101906108f09190611f8f565b9050600781900b60161461091d5760405163fbe0be3960e01b8152600782900b6004820152602401610432565b6105d385858561128c565b600061093483836112a7565b9392505050565b6000818152600260205260408120546001600160a01b0316806103ea5760405162461bcd60e51b815260206004820152601860248201527f4552433732313a20696e76616c696420746f6b656e20494400000000000000006044820152606401610432565b60006001600160a01b038216610a0a5760405162461bcd60e51b815260206004820152602960248201527f4552433732313a2061646472657373207a65726f206973206e6f7420612076616044820152683634b21037bbb732b960b91b6064820152608401610432565b506001600160a01b031660009081526003602052604090205490565b60003361016714610a6e5760405162461bcd60e51b81526020600482015260126024820152714e4f545f4854535f505245434f4d50494c4560701b6044820152606401610432565b6006548290610a88908290600160401b900460070b612765565b6006805467ffffffffffffffff92909216600160401b026fffffffffffffffff00000000000000001990921691909117905560005b8167ffffffffffffffff16811015610b20576000858583818110610ae357610ae36127b6565b9050602002016020810190610af891906127cc565b67ffffffffffffffff169050610b0d81611325565b5080610b18816127e9565b915050610abd565b50610b29610630565b949350505050565b60606001805461046290611f44565b6040516329aabad960e11b815233600482018190526001600160a01b03841660248301528215156044830152906000906101679063535575b290606401602060405180830381600087803b158015610b9757600080fd5b505af1158015610bab573d6000803e3d6000fd5b505050506040513d601f19601f82011682018060405250810190610bcf9190611f8f565b9050600781900b601614610bfc5760405163fbe0be3960e01b8152600782900b6004820152602401610432565b610c0684846113ba565b50505050565b60003361016714610c545760405162461bcd60e51b81526020600482015260126024820152714e4f545f4854535f505245434f4d50494c4560701b6044820152606401610432565b6000610c6086846112a7565b905080610c71575060b29050610c82565b610c7c8585856113c5565b50601690505b95945050505050565b60405163a0ecee3360e01b815233600482018190526001600160a01b0380871660248401528516604483015260648201849052906000906101679063a0ecee3390608401602060405180830381600087803b158015610ce957600080fd5b505af1158015610cfd573d6000803e3d6000fd5b505050506040513d601f19601f82011682018060405250810190610d219190611f8f565b9050600781900b601614610d4e5760405163fbe0be3960e01b8152600782900b6004820152602401610432565b610d5a868686866115a5565b505050505050565b6060610d6d82610e43565b6000610d8460408051602081019091526000815290565b90506000815111610da45760405180602001604052806000815250610934565b80610dae8461161d565b604051602001610dbf929190612804565b6040516020818303038152906040529392505050565b600081815260046020526040902080546001600160a01b0319166001600160a01b0384169081179091558190610e0a8261093b565b6001600160a01b03167f8c5be1e5ebec7d5bd14f71427d1e84f3dd0314c0f7b2291e5b200ac8c7c3b92560405160405180910390a45050565b6000818152600260205260409020546001600160a01b0316610ea75760405162461bcd60e51b815260206004820152601860248201527f4552433732313a20696e76616c696420746f6b656e20494400000000000000006044820152606401610432565b50565b6000610eb58261093b565b9050806001600160a01b0316836001600160a01b03161415610f235760405162461bcd60e51b815260206004820152602160248201527f4552433732313a20617070726f76616c20746f2063757272656e74206f776e656044820152603960f91b6064820152608401610432565b336001600160a01b0382161480610f3f5750610f3f8133610370565b610fb15760405162461bcd60e51b815260206004820152603d60248201527f4552433732313a20617070726f76652063616c6c6572206973206e6f7420746f60448201527f6b656e206f776e6572206f7220617070726f76656420666f7220616c6c0000006064820152608401610432565b61062b8383610dd5565b816001600160a01b0316836001600160a01b0316141561101d5760405162461bcd60e51b815260206004820152601960248201527f4552433732313a20617070726f766520746f2063616c6c6572000000000000006044820152606401610432565b6001600160a01b03838116600081815260056020908152604080832094871680845294825291829020805460ff191686151590811790915591519182527f17307eab39ab6107e8899845ad3d59bd9653f200f220920489ca2b5937696c31910160405180910390a3505050565b61109433826112a7565b6110f65760405162461bcd60e51b815260206004820152602d60248201527f4552433732313a2063616c6c6572206973206e6f7420746f6b656e206f776e6560448201526c1c881bdc88185c1c1c9bdd9959609a1b6064820152608401610432565b61062b8383836113c5565b6001600160a01b0382166111575760405162461bcd60e51b815260206004820181905260248201527f4552433732313a206d696e7420746f20746865207a65726f20616464726573736044820152606401610432565b6000818152600260205260409020546001600160a01b0316156111bc5760405162461bcd60e51b815260206004820152601c60248201527f4552433732313a20746f6b656e20616c7265616479206d696e746564000000006044820152606401610432565b6000818152600260205260409020546001600160a01b0316156112215760405162461bcd60e51b815260206004820152601c60248201527f4552433732313a20746f6b656e20616c7265616479206d696e746564000000006044820152606401610432565b6001600160a01b038216600081815260036020908152604080832080546001019055848352600290915280822080546001600160a01b0319168417905551839291907fddf252ad1be2c89b69c2b068fc378daa952ba7f163c4a11628f55a4df523b3ef908290a45050565b61062b83838360405180602001604052806000815250610c8b565b6000806112b38361093b565b9050806001600160a01b0316846001600160a01b031614806112fa57506001600160a01b0380821660009081526005602090815260408083209388168352929052205460ff165b80610b295750836001600160a01b0316611313846104e5565b6001600160a01b031614949350505050565b60006113308261093b565b905061133b8261093b565b600083815260046020908152604080832080546001600160a01b03199081169091556001600160a01b0385168085526003845282852080546000190190558785526002909352818420805490911690555192935084927fddf252ad1be2c89b69c2b068fc378daa952ba7f163c4a11628f55a4df523b3ef908390a45050565b61044f338383610fbb565b826001600160a01b03166113d88261093b565b6001600160a01b03161461143c5760405162461bcd60e51b815260206004820152602560248201527f4552433732313a207472616e736665722066726f6d20696e636f72726563742060448201526437bbb732b960d91b6064820152608401610432565b6001600160a01b03821661149e5760405162461bcd60e51b8152602060048201526024808201527f4552433732313a207472616e7366657220746f20746865207a65726f206164646044820152637265737360e01b6064820152608401610432565b826001600160a01b03166114b18261093b565b6001600160a01b0316146115155760405162461bcd60e51b815260206004820152602560248201527f4552433732313a207472616e736665722066726f6d20696e636f72726563742060448201526437bbb732b960d91b6064820152608401610432565b600081815260046020908152604080832080546001600160a01b03199081169091556001600160a01b0387811680865260038552838620805460001901905590871680865283862080546001019055868652600290945282852080549092168417909155905184937fddf252ad1be2c89b69c2b068fc378daa952ba7f163c4a11628f55a4df523b3ef91a4505050565b6115af33836112a7565b6116115760405162461bcd60e51b815260206004820152602d60248201527f4552433732313a2063616c6c6572206973206e6f7420746f6b656e206f776e6560448201526c1c881bdc88185c1c1c9bdd9959609a1b6064820152608401610432565b610c06848484846116c7565b6060600061162a83611745565b600101905060008167ffffffffffffffff81111561164a5761164a611b59565b6040519080825280601f01601f191660200182016040528015611674576020820181803683370190505b5090508181016020015b600019017f3031323334353637383961626364656600000000000000000000000000000000600a86061a8153600a85049450846116ba576116bf565b61167e565b509392505050565b6116d28484846113c5565b6116de84848484611827565b610c065760405162461bcd60e51b815260206004820152603260248201527f4552433732313a207472616e7366657220746f206e6f6e20455243373231526560448201527131b2b4bb32b91034b6b83632b6b2b73a32b960711b6064820152608401610432565b6000807a184f03e93ff9f4daa797ed6e38ed64bf6a1f010000000000000000831061178e577a184f03e93ff9f4daa797ed6e38ed64bf6a1f010000000000000000830492506040015b6d04ee2d6d415b85acef810000000083106117ba576d04ee2d6d415b85acef8100000000830492506020015b662386f26fc1000083106117d857662386f26fc10000830492506010015b6305f5e10083106117f0576305f5e100830492506008015b612710831061180457612710830492506004015b60648310611816576064830492506002015b600a83106103ea5760010192915050565b60006001600160a01b0384163b1561197457604051630a85bd0160e11b81526001600160a01b0385169063150b7a029061186b903390899088908890600401612833565b602060405180830381600087803b15801561188557600080fd5b505af19250505080156118b5575060408051601f3d908101601f191682019092526118b29181019061286f565b60015b61195a573d8080156118e3576040519150601f19603f3d011682016040523d82523d6000602084013e6118e8565b606091505b5080516119525760405162461bcd60e51b815260206004820152603260248201527f4552433732313a207472616e7366657220746f206e6f6e20455243373231526560448201527131b2b4bb32b91034b6b83632b6b2b73a32b960711b6064820152608401610432565b805181602001fd5b6001600160e01b031916630a85bd0160e11b149050610b29565b506001949350505050565b6001600160e01b031981168114610ea757600080fd5b6000602082840312156119a757600080fd5b81356109348161197f565b6001600160a01b0381168114610ea757600080fd5b8060070b8114610ea757600080fd5b600080604083850312156119e957600080fd5b82356119f4816119b2565b91506020830135611a04816119c7565b809150509250929050565b60005b83811015611a2a578181015183820152602001611a12565b83811115610c065750506000910152565b60008151808452611a53816020860160208601611a0f565b601f01601f19169290920160200192915050565b6020815260006109346020830184611a3b565b600060208284031215611a8c57600080fd5b5035919050565b60008060408385031215611aa657600080fd5b8235611ab1816119b2565b946020939093013593505050565b8015158114610ea757600080fd5b600080600060608486031215611ae257600080fd5b8335611aed816119b2565b92506020840135611afd816119b2565b91506040840135611b0d81611abf565b809150509250925092565b600080600060608486031215611b2d57600080fd5b8335611b38816119b2565b92506020840135611b48816119b2565b929592945050506040919091013590565b634e487b7160e01b600052604160045260246000fd5b6040805190810167ffffffffffffffff81118282101715611b9257611b92611b59565b60405290565b60405160a0810167ffffffffffffffff81118282101715611b9257611b92611b59565b604051610120810167ffffffffffffffff81118282101715611b9257611b92611b59565b60405160c0810167ffffffffffffffff81118282101715611b9257611b92611b59565b604051601f8201601f1916810167ffffffffffffffff81118282101715611c2b57611c2b611b59565b604052919050565b600067ffffffffffffffff821115611c4d57611c4d611b59565b5060051b60200190565b600067ffffffffffffffff821115611c7157611c71611b59565b50601f01601f191660200190565b600082601f830112611c9057600080fd5b8135611ca3611c9e82611c57565b611c02565b818152846020838601011115611cb857600080fd5b816020850160208301376000918101602001919091529392505050565b60006020808385031215611ce857600080fd5b823567ffffffffffffffff80821115611d0057600080fd5b818501915085601f830112611d1457600080fd5b8135611d22611c9e82611c33565b81815260059190911b83018401908481019088831115611d4157600080fd5b8585015b83811015611d7957803585811115611d5d5760008081fd5b611d6b8b89838a0101611c7f565b845250918601918601611d45565b5098975050505050505050565b600060208284031215611d9857600080fd5b8135610934816119b2565b60008060208385031215611db657600080fd5b823567ffffffffffffffff80821115611dce57600080fd5b818501915085601f830112611de257600080fd5b813581811115611df157600080fd5b8660208260051b8501011115611e0657600080fd5b60209290920196919550909350505050565b60008060408385031215611e2b57600080fd5b8235611e36816119b2565b91506020830135611a0481611abf565b600080600080600060a08688031215611e5e57600080fd5b8535611e6981611abf565b94506020860135611e79816119b2565b93506040860135611e89816119b2565b92506060860135611e99816119b2565b949793965091946080013592915050565b60008060008060808587031215611ec057600080fd5b8435611ecb816119b2565b93506020850135611edb816119b2565b925060408501359150606085013567ffffffffffffffff811115611efe57600080fd5b611f0a87828801611c7f565b91505092959194509250565b60008060408385031215611f2957600080fd5b8235611f34816119b2565b91506020830135611a04816119b2565b600181811c90821680611f5857607f821691505b60208210811415611f7957634e487b7160e01b600052602260045260246000fd5b50919050565b8051611f8a816119c7565b919050565b600060208284031215611fa157600080fd5b8151610934816119c7565b634e487b7160e01b600052601160045260246000fd5b60008160070b8360070b6000811281677fffffffffffffff1901831281151615611fee57611fee611fac565b81677fffffffffffffff01831381161561200a5761200a611fac565b5090039392505050565b600082601f83011261202557600080fd5b8151612033611c9e82611c57565b81815284602083860101111561204857600080fd5b610b29826020830160208701611a0f565b8051611f8a816119b2565b8051611f8a81611abf565b600082601f83011261208057600080fd5b81516020612090611c9e83611c33565b82815260059290921b840181019181810190868411156120af57600080fd5b8286015b848110156121c557805167ffffffffffffffff808211156120d357600080fd5b908801906040601f19838c0381018213156120ed57600080fd5b6120f5611b6f565b888501518152828501518481111561210c57600080fd5b949094019360a0858e03830112156121245760008081fd5b61212c611b98565b91508885015161213b81611abf565b82528483015161214a816119b2565b828a0152606085810151858111156121625760008081fd5b6121708f8c838a0101612014565b858501525060809350838601518581111561218b5760008081fd5b6121998f8c838a0101612014565b8285015250506121ab60a08601612059565b9282019290925281880152855250509183019183016120b3565b509695505050505050565b6000606082840312156121e257600080fd5b6040516060810181811067ffffffffffffffff8211171561220557612205611b59565b80604052508091508251612218816119c7565b81526020830151612228816119b2565b6020820152604083015161223b816119c7565b6040919091015292915050565b6000610160828403121561225b57600080fd5b612263611bbb565b9050815167ffffffffffffffff8082111561227d57600080fd5b61228985838601612014565b8352602084015191508082111561229f57600080fd5b6122ab85838601612014565b60208401526122bc60408501612059565b604084015260608401519150808211156122d557600080fd5b6122e185838601612014565b60608401526122f260808501612064565b608084015261230360a08501611f7f565b60a084015261231460c08501612064565b60c084015260e084015191508082111561232d57600080fd5b5061233a8482850161206f565b60e08301525061010061234f848285016121d0565b9082015292915050565b600082601f83011261236a57600080fd5b8151602061237a611c9e83611c33565b82815260a0928302850182019282820191908785111561239957600080fd5b8387015b858110156124215781818a0312156123b55760008081fd5b6123bd611b98565b81516123c8816119c7565b8152818601516123d7816119b2565b818701526040828101516123ea81611abf565b908201526060828101516123fd81611abf565b90820152608082810151612410816119b2565b90820152845292840192810161239d565b5090979650505050505050565b600082601f83011261243f57600080fd5b8151602061244f611c9e83611c33565b82815260c0928302850182019282820191908785111561246e57600080fd5b8387015b858110156124215781818a03121561248a5760008081fd5b612492611bdf565b815161249d816119c7565b8152818601516124ac816119c7565b818701526040828101516124bf816119c7565b908201526060828101516124d2816119c7565b908201526080828101516124e581611abf565b9082015260a0828101516124f8816119b2565b908201528452928401928101612472565b600082601f83011261251a57600080fd5b8151602061252a611c9e83611c33565b82815260c0928302850182019282820191908785111561254957600080fd5b8387015b858110156124215781818a0312156125655760008081fd5b61256d611bdf565b8151612578816119c7565b815281860151612587816119c7565b8187015260408281015161259a816119c7565b908201526060828101516125ad816119b2565b908201526080828101516125c081611abf565b9082015260a0828101516125d3816119b2565b90820152845292840192810161254d565b600080604083850312156125f757600080fd5b8251612602816119c7565b602084015190925067ffffffffffffffff8082111561262057600080fd5b90840190610120828703121561263557600080fd5b61263d611bbb565b82518281111561264c57600080fd5b61265888828601612248565b82525061266760208401611f7f565b602082015261267860408401612064565b604082015261268960608401612064565b606082015261269a60808401612064565b608082015260a0830151828111156126b157600080fd5b6126bd88828601612359565b60a08301525060c0830151828111156126d557600080fd5b6126e18882860161242e565b60c08301525060e0830151828111156126f957600080fd5b61270588828601612509565b60e083015250610100808401518381111561271f57600080fd5b61272b89828701612014565b8284015250508093505050509250929050565b60008160070b677fffffffffffffff81141561275c5761275c611fac565b60010192915050565b60008160070b8360070b6000821282677fffffffffffffff0382138115161561279057612790611fac565b82677fffffffffffffff190382128116156127ad576127ad611fac565b50019392505050565b634e487b7160e01b600052603260045260246000fd5b6000602082840312156127de57600080fd5b8135610934816119c7565b60006000198214156127fd576127fd611fac565b5060010190565b60008351612816818460208801611a0f565b83519083019061282a818360208801611a0f565b01949350505050565b60006001600160a01b038087168352808616602084015250836040830152608060608301526128656080830184611a3b565b9695505050505050565b60006020828403121561288157600080fd5b81516109348161197f56fea26469706673582212207babbf556d0de1771dcf114fe429864a7baef48cf2dbee4c25a17d8f0c7a0bcb64736f6c63430008090033",
  "linkReferences": {},
  "deployedLinkReferences": {}
}