{
  "_format": "hh-sol-artifact-1",
  "contractName": "NonExisting",
  "sourceName": "contracts/solidity/account/NonExisting.sol",
  "abi": [
    {
      "inputs": [
        {
          "internalType": "address",
          "name": "addr",
          "type": "address"
        }
      ],
      "stateMutability": "nonpayable",
      "type": "constructor"
    },
    {
      "inputs": [
        {
          "internalType": "address",
          "name": "nonExistingAddr",
          "type": "address"
        }
      ],
      "name": "balanceNoneExistingAddr",
      "outputs": [
        {
          "internalType": "uint256",
          "name": "",
          "type": "uint256"
        }
      ],
      "stateMutability": "view",
      "type": "function"
    },
    {
      "inputs": [
        {
          "internalType": "address",
          "name": "addr",
          "type": "address"
        }
      ],
      "name": "balanceOf",
      "outputs": [
        {
          "internalType": "uint256",
          "name": "",
          "type": "uint256"
        }
      ],
      "stateMutability": "view",
      "type": "function"
    },
    {
      "inputs": [
        {
          "internalType": "address",
          "name": "nonExistingAddr",
          "type": "address"
        }
      ],
      "name": "callOnNonExistingAccount",
      "outputs": [
        {
          "internalType": "bool",
          "name": "",
          "type": "bool"
        }
      ],
      "stateMutability": "nonpayable",
      "type": "function"
    },
    {
      "inputs": [
        {
          "internalType": "address",
          "name": "nonExistingAddr",
          "type": "address"
        }
      ],
      "name": "delegatecallOnNonExistingAccount",
      "outputs": [
        {
          "internalType": "bool",
          "name": "",
          "type": "bool"
        }
      ],
      "stateMutability": "nonpayable",
      "type": "function"
    },
    {
      "inputs": [
        {
          "internalType": "address",
          "name": "nonExistingAddr",
          "type": "address"
        }
      ],
      "name": "staticcallOnNonExistingAccount",
      "outputs": [
        {
          "internalType": "bool",
          "name": "",
          "type": "bool"
        }
      ],
      "stateMutability": "view",
      "type": "function"
    }
  ],
  "bytecode": "0x608060405234801561001057600080fd5b5060405161038638038061038683398101604081905261002f91610054565b600080546001600160a01b0319166001600160a01b0392909216919091179055610084565b60006020828403121561006657600080fd5b81516001600160a01b038116811461007d57600080fd5b9392505050565b6102f3806100936000396000f3fe608060405234801561001057600080fd5b50600436106100575760003560e01c806304fa55251461005c57806338750ce41461008457806370a08231146100845780637688ef3a146100ad578063ac8ff975146100c0575b600080fd5b61006f61006a36600461025e565b6100d3565b60405190151581526020015b60405180910390f35b61009f61009236600461025e565b6001600160a01b03163190565b60405190815260200161007b565b61006f6100bb36600461025e565b610162565b61006f6100ce36600461025e565b6101e0565b60408051600481526024810182526020810180516001600160e01b0316630ee642d760e11b179052905160009182916001600160a01b038516916101169161028e565b6000604051808303816000865af19150503d8060008114610153576040519150601f19603f3d011682016040523d82523d6000602084013e610158565b606091505b5090949350505050565b60408051600481526024810182526020810180516001600160e01b0316630ee642d760e11b179052905160009182916001600160a01b038516916101a59161028e565b600060405180830381855afa9150503d8060008114610153576040519150601f19603f3d011682016040523d82523d6000602084013e610158565b60408051600481526024810182526020810180516001600160e01b0316630ee642d760e11b179052905160009182916001600160a01b038516916102239161028e565b600060405180830381855af49150503d8060008114610153576040519150601f19603f3d011682016040523d82523d6000602084013e610158565b60006020828403121561027057600080fd5b81356001600160a01b038116811461028757600080fd5b9392505050565b6000825160005b818110156102af5760208186018101518583015201610295565b50600092019182525091905056fea264697066735822122076baa8a419dc0afdb13d678ae82ce5aea203583c2fe528aef05aa4b68a1e632964736f6c63430008170033",
  "linkReferences": {},
  "deployedLinkReferences": {}
}