{
  "_format": "hh-sol-artifact-1",
  "contractName": "NonExisting",
  "sourceName": "contracts/solidity/account/NonExisting.sol",
  "abi": [
    {
      "inputs": [
        {
          "internalType": "address",
          "name": "addr",
          "type": "address"
        }
      ],
      "stateMutability": "nonpayable",
      "type": "constructor"
    },
    {
      "inputs": [
        {
          "internalType": "address",
          "name": "nonExistingAddr",
          "type": "address"
        }
      ],
      "name": "balanceNoneExistingAddr",
      "outputs": [
        {
          "internalType": "uint256",
          "name": "",
          "type": "uint256"
        }
      ],
      "stateMutability": "view",
      "type": "function"
    },
    {
      "inputs": [
        {
          "internalType": "address",
          "name": "nonExistingAddr",
          "type": "address"
        }
      ],
      "name": "callOnNonExistingAccount",
      "outputs": [],
      "stateMutability": "nonpayable",
      "type": "function"
    },
    {
      "inputs": [
        {
          "internalType": "address",
          "name": "nonExistingAddr",
          "type": "address"
        }
      ],
      "name": "delegatecallOnNoneExistingAccount",
      "outputs": [],
      "stateMutability": "nonpayable",
      "type": "function"
    },
    {
      "inputs": [
        {
          "internalType": "address",
          "name": "nonExistingAddr",
          "type": "address"
        }
      ],
      "name": "staticcallOnNoneExistingAccount",
      "outputs": [],
      "stateMutability": "nonpayable",
      "type": "function"
    }
  ],
  "bytecode": "0x608060405234801561001057600080fd5b5060405161035938038061035983398101604081905261002f91610054565b600080546001600160a01b0319166001600160a01b0392909216919091179055610084565b60006020828403121561006657600080fd5b81516001600160a01b038116811461007d57600080fd5b9392505050565b6102c6806100936000396000f3fe608060405234801561001057600080fd5b506004361061004c5760003560e01c806304fa55251461005157806338750ce41461006657806394f6a1a014610093578063fb6641ba146100a6575b600080fd5b61006461005f366004610231565b6100b9565b005b610081610074366004610231565b6001600160a01b03163190565b60405190815260200160405180910390f35b6100646100a1366004610231565b61013f565b6100646100b4366004610231565b6101b8565b60408051600481526024810182526020810180516001600160e01b0316630ee642d760e11b17905290516001600160a01b038316916100f791610261565b6000604051808303816000865af19150503d8060008114610134576040519150601f19603f3d011682016040523d82523d6000602084013e610139565b606091505b50505050565b60408051600481526024810182526020810180516001600160e01b0316630ee642d760e11b17905290516001600160a01b0383169161017d91610261565b600060405180830381855af49150503d8060008114610134576040519150601f19603f3d011682016040523d82523d6000602084013e610139565b60408051600481526024810182526020810180516001600160e01b0316630ee642d760e11b17905290516001600160a01b038316916101f691610261565b600060405180830381855afa9150503d8060008114610134576040519150601f19603f3d011682016040523d82523d6000602084013e610139565b60006020828403121561024357600080fd5b81356001600160a01b038116811461025a57600080fd5b9392505050565b6000825160005b818110156102825760208186018101518583015201610268565b50600092019182525091905056fea2646970667358221220cbebceb69acde86954b869fef3f54009fa4308e679a1b84afb1ded540a5fe72464736f6c63430008140033",
  "linkReferences": {},
  "deployedLinkReferences": {}
}