{
  "_format": "hh-sol-artifact-1",
  "contractName": "Scoping",
  "sourceName": "contracts/solidity/scoping/Scoping.sol",
  "abi": [
    {
      "inputs": [],
      "name": "minimalScoping",
      "outputs": [],
      "stateMutability": "pure",
      "type": "function"
    },
    {
      "inputs": [],
      "name": "reassign",
      "outputs": [
        {
          "internalType": "uint256",
          "name": "",
          "type": "uint256"
        }
      ],
      "stateMutability": "pure",
      "type": "function"
    }
  ],
  "bytecode": "0x6080604052348015600f57600080fd5b5060838061001e6000396000f3fe6080604052348015600f57600080fd5b506004361060325760003560e01c80635288d07f146037578063d1332e12146039575b600080fd5b005b600260405190815260200160405180910390f3fea26469706673582212200a1e6ffc042b9c890cccb6903e7a7240ecf2f2d8085739993dda8da35a5b727764736f6c63430008180033",
  "linkReferences": {},
  "deployedLinkReferences": {}
}