{
  "address": "0x91fa7DAfAe42C475fbFCA3A05073dA0807c60A7B",
  "abi": [
    {
      "inputs": [
        {
          "internalType": "address",
          "name": "_stargateBridgeAddress",
          "type": "address"
        },
        {
          "internalType": "address",
          "name": "_stargateTokenAddress",
          "type": "address"
        }
      ],
      "stateMutability": "nonpayable",
      "type": "constructor"
    },
    {
      "inputs": [
        {
          "internalType": "bytes",
          "name": "data",
          "type": "bytes"
        },
        {
          "internalType": "uint256",
          "name": "sizeOfSrcAddress",
          "type": "uint256"
        },
        {
          "internalType": "bytes32",
          "name": "ulnAddress",
          "type": "bytes32"
        }
      ],
      "name": "getPacket",
      "outputs": [
        {
          "components": [
            {
              "internalType": "uint16",
              "name": "srcChainId",
              "type": "uint16"
            },
            {
              "internalType": "uint16",
              "name": "dstChainId",
              "type": "uint16"
            },
            {
              "internalType": "uint64",
              "name": "nonce",
              "type": "uint64"
            },
            {
              "internalType": "address",
              "name": "dstAddress",
              "type": "address"
            },
            {
              "internalType": "bytes",
              "name": "srcAddress",
              "type": "bytes"
            },
            {
              "internalType": "bytes32",
              "name": "ulnAddress",
              "type": "bytes32"
            },
            {
              "internalType": "bytes",
              "name": "payload",
              "type": "bytes"
            }
          ],
          "internalType": "struct LayerZeroPacket.Packet",
          "name": "",
          "type": "tuple"
        }
      ],
      "stateMutability": "pure",
      "type": "function"
    },
    {
      "inputs": [],
      "name": "getProofType",
      "outputs": [
        {
          "internalType": "uint8",
          "name": "",
          "type": "uint8"
        }
      ],
      "stateMutability": "view",
      "type": "function"
    },
    {
      "inputs": [],
      "name": "getUtilsVersion",
      "outputs": [
        {
          "internalType": "uint8",
          "name": "",
          "type": "uint8"
        }
      ],
      "stateMutability": "view",
      "type": "function"
    },
    {
      "inputs": [
        {
          "internalType": "bytes32",
          "name": "",
          "type": "bytes32"
        },
        {
          "internalType": "uint256[]",
          "name": "",
          "type": "uint256[]"
        },
        {
          "internalType": "uint256",
          "name": "",
          "type": "uint256"
        },
        {
          "internalType": "bytes[]",
          "name": "proof",
          "type": "bytes[]"
        }
      ],
      "name": "getVerifyLog",
      "outputs": [
        {
          "components": [
            {
              "internalType": "bytes32",
              "name": "contractAddress",
              "type": "bytes32"
            },
            {
              "internalType": "bytes32",
              "name": "topicZeroSig",
              "type": "bytes32"
            },
            {
              "internalType": "bytes",
              "name": "data",
              "type": "bytes"
            }
          ],
          "internalType": "struct IValidationLibraryHelperV2.ULNLog",
          "name": "log",
          "type": "tuple"
        }
      ],
      "stateMutability": "pure",
      "type": "function"
    },
    {
      "inputs": [],
      "name": "proofType",
      "outputs": [
        {
          "internalType": "uint8",
          "name": "",
          "type": "uint8"
        }
      ],
      "stateMutability": "view",
      "type": "function"
    },
    {
      "inputs": [
        {
          "internalType": "bytes",
          "name": "_payload",
          "type": "bytes"
        }
      ],
      "name": "secureStgPayload",
      "outputs": [
        {
          "internalType": "bytes",
          "name": "",
          "type": "bytes"
        }
      ],
      "stateMutability": "view",
      "type": "function"
    },
    {
      "inputs": [
        {
          "internalType": "bytes",
          "name": "_payload",
          "type": "bytes"
        }
      ],
      "name": "secureStgTokenPayload",
      "outputs": [
        {
          "internalType": "bytes",
          "name": "",
          "type": "bytes"
        }
      ],
      "stateMutability": "pure",
      "type": "function"
    },
    {
      "inputs": [],
      "name": "stargateBridgeAddress",
      "outputs": [
        {
          "internalType": "address",
          "name": "",
          "type": "address"
        }
      ],
      "stateMutability": "view",
      "type": "function"
    },
    {
      "inputs": [],
      "name": "stargateTokenAddress",
      "outputs": [
        {
          "internalType": "address",
          "name": "",
          "type": "address"
        }
      ],
      "stateMutability": "view",
      "type": "function"
    },
    {
      "inputs": [],
      "name": "utilsVersion",
      "outputs": [
        {
          "internalType": "uint8",
          "name": "",
          "type": "uint8"
        }
      ],
      "stateMutability": "view",
      "type": "function"
    },
    {
      "inputs": [
        {
          "internalType": "bytes32",
          "name": "_packetHash",
          "type": "bytes32"
        },
        {
          "internalType": "bytes",
          "name": "_transactionProof",
          "type": "bytes"
        },
        {
          "internalType": "uint256",
          "name": "_remoteAddressSize",
          "type": "uint256"
        }
      ],
      "name": "validateProof",
      "outputs": [
        {
          "components": [
            {
              "internalType": "uint16",
              "name": "srcChainId",
              "type": "uint16"
            },
            {
              "internalType": "uint16",
              "name": "dstChainId",
              "type": "uint16"
            },
            {
              "internalType": "uint64",
              "name": "nonce",
              "type": "uint64"
            },
            {
              "internalType": "address",
              "name": "dstAddress",
              "type": "address"
            },
            {
              "internalType": "bytes",
              "name": "srcAddress",
              "type": "bytes"
            },
            {
              "internalType": "bytes32",
              "name": "ulnAddress",
              "type": "bytes32"
            },
            {
              "internalType": "bytes",
              "name": "payload",
              "type": "bytes"
            }
          ],
          "internalType": "struct LayerZeroPacket.Packet",
          "name": "packet",
          "type": "tuple"
        }
      ],
      "stateMutability": "view",
      "type": "function"
    }
  ],
  "transactionHash": "0x8da85427626b5d00fe0dcd3094f0759c2c600530dece6684e78506715cac83ba",
  "args": [
    "0xAB8651bb60b4C6056709b9DbAC4c25548108b98A",
    "0xAB8651bb60b4C6056709b9DbAC4c25548108b98A"
  ],
  "numDeployments": 2,
  "solcInputHash": "23b37c3ce064226fcbce28c931af6ef0",
  "bytecode": "0x60c06040526000805461ff001960ff199091166002171661010017905534801561002857600080fd5b5060405161146738038061146783398101604081905261004791610081565b6001600160601b0319606092831b8116608052911b1660a0526100b3565b80516001600160a01b038116811461007c57600080fd5b919050565b60008060408385031215610093578182fd5b61009c83610065565b91506100aa60208401610065565b90509250929050565b60805160601c60a05160601c6113816100e6600039806103dc528061045f525080610200528061037152506113816000f3fe608060405234801561001057600080fd5b50600436106100c95760003560e01c80636348d26911610081578063d633ad611161005b578063d633ad6114610184578063e965c1921461018c578063ea455df914610194576100c9565b80636348d269146101545780639bcd850f14610169578063b71e0f7114610171576100c9565b80632ff20449116100b25780632ff204491461010c57806347713b391461012c5780635711c2a814610134576100c9565b806305af5d35146100ce5780630f222e65146100ec575b600080fd5b6100d66101a7565b6040516100e391906111e3565b60405180910390f35b6100ff6100fa366004610cfa565b6101b0565b6040516100e391906111b4565b61011f61011a366004610e6f565b6101c2565b6040516100e39190611106565b6100d66101dd565b610147610142366004610df7565b6101eb565b6040516100e3919061103d565b61015c6101fe565b6040516100e3919061101c565b6100d6610222565b61011f61017f366004610d7a565b61022b565b6100d661044f565b61015c61045d565b6101476101a2366004610df7565b610481565b60005460ff1681565b6101b8610aeb565b9695505050505050565b6101ca610b0a565b6101d584848461048c565b949350505050565b600054610100900460ff1681565b60606101f682610666565b90505b919050565b7f000000000000000000000000000000000000000000000000000000000000000081565b60005460ff1690565b610233610b0a565b60008211610276576040517f08c379a000000000000000000000000000000000000000000000000000000000815260040161026d906110cf565b60405180910390fd5b60208311801561029c575084848460405161029292919061100c565b6040518091039020145b6102d2576040517f08c379a000000000000000000000000000000000000000000000000000000000815260040161026d90611072565b60006102e160208286886112f7565b8080601f016020809104026020016040519081016040528093929190818152602001838380828437600092019190915250505060208083015192935061036d915061032f908790818a6112f7565b8080601f01602080910402602001604051908101604052809392919081815260200183838082843760009201919091525088925085915061048c9050565b92507f000000000000000000000000000000000000000000000000000000000000000073ffffffffffffffffffffffffffffffffffffffff16836060015173ffffffffffffffffffffffffffffffffffffffff1614156103da576103d48360c00151610666565b60c08401525b7f000000000000000000000000000000000000000000000000000000000000000073ffffffffffffffffffffffffffffffffffffffff16836060015173ffffffffffffffffffffffffffffffffffffffff1614156104455761043f8360c00151610787565b60c08401525b5050949350505050565b600054610100900460ff1690565b7f000000000000000000000000000000000000000000000000000000000000000081565b60606101f682610787565b610494610b0a565b835160006104a3856020610831565b90508082101561051457604080517f08c379a000000000000000000000000000000000000000000000000000000000815260206004820152601f60248201527f4c617965725a65726f5061636b65743a20696e76616c6964207061636b657400604482015290519081900360640190fd5b6008860151600a870151868801600c8101516020909101518486039392919061ffff83166105a357604080517f08c379a000000000000000000000000000000000000000000000000000000000815260206004820152601f60248201527f4c617965725a65726f5061636b65743a20696e76616c6964207061636b657400604482015290519081900360640190fd5b6105ab610b48565b6105b5818c6108ae565b506105c58160008e602a8f6108e8565b506105ce610b48565b86156105fc576105de81886108ae565b506105fa60008e6105f08b6020610831565b849291908b6108e8565b505b6040805160e08101825261ffff968716815294909516602085015267ffffffffffffffff9095169383019390935273ffffffffffffffffffffffffffffffffffffffff1660608201529051608082015260a08101879052905160c082015293505050509392505050565b6020810151606090600160ff82161415610780576000806000806000806000898060200190518101906106999190610ebb565b975097509750975097509750975050600081511115610778578151600090156106c3575060148201515b803b80610775576000826040516020016106dd9190610fdc565b604080517fffffffffffffffffffffffffffffffffffffffffffffffffffffffffffffffe081840301815260208381018352600080855292519194509192610733928f928f928f928f928f928f928b92016111f1565b604080517fffffffffffffffffffffffffffffffffffffffffffffffffffffffffffffffe08184030181529190529c506101f99b505050505050505050505050565b50505b505050505050505b5090919050565b6060600080838060200190518101906107a09190610e2a565b91509150600080835111156107b6575060148201515b73ffffffffffffffffffffffffffffffffffffffff81166108285760405161dead906000906107e9908390602001610fdc565b6040516020818303038152906040529050808460405160200161080d929190611050565b604051602081830303815290604052955050505050506101f9565b50929392505050565b6000828201838110156108a557604080517f08c379a000000000000000000000000000000000000000000000000000000000815260206004820152601b60248201527f536166654d6174683a206164646974696f6e206f766572666c6f770000000000604482015290519081900360640190fd5b90505b92915050565b6108b6610b48565b60208206156108cb5760208206602003820191505b506020828101829052604080518085526000815290920101905290565b6108f0610b48565b8560200151828601111561091a5761091a8661091288602001518886016109c2565b6002026109d9565b6000808751805188602083010193508089870111156109395788860182525b5050508484015b6020841061097d57805182527fffffffffffffffffffffffffffffffffffffffffffffffffffffffffffffffe09093019260209182019101610940565b5181517fffffffffffffffffffffffffffffffffffffffffffffffffffffffffffffffff60208690036101000a01908116901991909116179052508495945050505050565b6000818311156109d35750816108a8565b50919050565b81516109e583836108ae565b506109f083826109f6565b50505050565b6109fe610b48565b6108a583846000015151848551610a13610b48565b8251821115610a2157600080fd5b84602001518285011115610a4357610a438561091287602001518786016109c2565b600080865180518760208301019350808887011115610a625787860182525b505050602084015b60208410610aa757805182527fffffffffffffffffffffffffffffffffffffffffffffffffffffffffffffffe09093019260209182019101610a6a565b5181517fffffffffffffffffffffffffffffffffffffffffffffffffffffffffffffffff60208690036101000a019081169019919091161790525083949350505050565b6040805160608082018352600080835260208301529181019190915290565b6040805160e08101825260008082526020820181905291810182905260608082018390526080820181905260a082019290925260c081019190915290565b604051806040016040528060608152602001600081525090565b60008083601f840112610b73578081fd5b50813567ffffffffffffffff811115610b8a578182fd5b6020830191508360208083028501011115610ba457600080fd5b9250929050565b600082601f830112610bbb578081fd5b8135610bce610bc9826112b7565b611293565b818152846020838601011115610be2578283fd5b816020850160208301379081016020019190915292915050565b600082601f830112610c0c578081fd5b8151610c1a610bc9826112b7565b818152846020838601011115610c2e578283fd5b6101d582602083016020870161131f565b600060408284031215610c50578081fd5b6040516040810181811067ffffffffffffffff82111715610c6d57fe5b604052825181526020928301519281019290925250919050565b600060c08284031215610c98578081fd5b60405160c0810181811067ffffffffffffffff82111715610cb557fe5b8060405250809150825181526020830151602082015260408301516040820152606083015160608201526080830151608082015260a083015160a08201525092915050565b60008060008060008060808789031215610d12578182fd5b86359550602087013567ffffffffffffffff80821115610d30578384fd5b610d3c8a838b01610b62565b9097509550604089013594506060890135915080821115610d5b578384fd5b50610d6889828a01610b62565b979a9699509497509295939492505050565b60008060008060608587031215610d8f578384fd5b84359350602085013567ffffffffffffffff80821115610dad578485fd5b818701915087601f830112610dc0578485fd5b813581811115610dce578586fd5b886020828501011115610ddf578586fd5b95986020929092019750949560400135945092505050565b600060208284031215610e08578081fd5b813567ffffffffffffffff811115610e1e578182fd5b6101d584828501610bab565b60008060408385031215610e3c578182fd5b825167ffffffffffffffff811115610e52578283fd5b610e5e85828601610bfc565b925050602083015190509250929050565b600080600060608486031215610e83578283fd5b833567ffffffffffffffff811115610e99578384fd5b610ea586828701610bab565b9660208601359650604090950135949350505050565b6000806000806000806000806101c0898b031215610ed7578182fd5b885160ff81168114610ee7578283fd5b80985050602089015196506040890151955060608901519450610f0d8a60808b01610c3f565b9350610f1c8a60c08b01610c87565b925061018089015167ffffffffffffffff80821115610f39578384fd5b610f458c838d01610bfc565b93506101a08b0151915080821115610f5b578283fd5b50610f688b828c01610bfc565b9150509295985092959890939650565b73ffffffffffffffffffffffffffffffffffffffff169052565b60008151808452610faa81602086016020860161131f565b601f017fffffffffffffffffffffffffffffffffffffffffffffffffffffffffffffffe0169290920160200192915050565b60609190911b7fffffffffffffffffffffffffffffffffffffffff00000000000000000000000016815260140190565b6000828483379101908152919050565b73ffffffffffffffffffffffffffffffffffffffff91909116815260200190565b6000602082526108a56020830184610f92565b6000604082526110636040830185610f92565b90508260208301529392505050565b60208082526023908201527f50726f6f664c69623a20696e76616c6964207472616e73616374696f6e20707260408201527f6f6f660000000000000000000000000000000000000000000000000000000000606082015260800190565b6020808252601e908201527f50726f6f664c69623a20696e76616c696420616464726573732073697a650000604082015260600190565b60006020825261ffff8084511660208401528060208501511660408401525067ffffffffffffffff6040840151166060830152606083015161114b6080840182610f78565b50608083015160e060a0840152611166610100840182610f92565b905060a084015160c084015260c08401517fffffffffffffffffffffffffffffffffffffffffffffffffffffffffffffffe08483030160e08501526111ab8282610f92565b95945050505050565b600060208252825160208301526020830151604083015260408301516060808401526101d56080840182610f92565b60ff91909116815260200190565b60006101c060ff8b16835289602084015288604084015287606084015286516080840152602087015160a0840152855160c0840152602086015160e084015260408601516101008401526060860151610120840152608086015161014084015260a08601516101608401528061018084015261126f81840186610f92565b90508281036101a08401526112848185610f92565b9b9a5050505050505050505050565b60405181810167ffffffffffffffff811182821017156112af57fe5b604052919050565b600067ffffffffffffffff8211156112cb57fe5b50601f017fffffffffffffffffffffffffffffffffffffffffffffffffffffffffffffffe01660200190565b60008085851115611306578182fd5b83861115611312578182fd5b5050820193919092039150565b60005b8381101561133a578181015183820152602001611322565b838111156109f0575050600091015256fea26469706673582212200b4f78e34b5688581d76fe7d274a93eea70ee98c0e3d891e92de726f9917bed364736f6c63430007060033",
  "devdoc": {
    "kind": "dev",
    "methods": {},
    "version": 1
  },
  "userdoc": {
    "kind": "user",
    "methods": {},
    "version": 1
  },
  "storageLayout": {
    "storage": [
      {
        "astId": 11211,
        "contract": "contracts/proof/FPValidator.sol:FPValidator",
        "label": "proofType",
        "offset": 0,
        "slot": "0",
        "type": "t_uint8"
      },
      {
        "astId": 11214,
        "contract": "contracts/proof/FPValidator.sol:FPValidator",
        "label": "utilsVersion",
        "offset": 1,
        "slot": "0",
        "type": "t_uint8"
      }
    ],
    "types": {
      "t_uint8": {
        "encoding": "inplace",
        "label": "uint8",
        "numberOfBytes": "1"
      }
    }
  }
}