{
  "_format": "hh-sol-artifact-1",
  "contractName": "DerivedContract",
  "sourceName": "contracts/solidity/modifiers/DerivedContract.sol",
  "abi": [
    {
      "inputs": [
        {
          "internalType": "uint256",
          "name": "_baseValue",
          "type": "uint256"
        }
      ],
      "stateMutability": "nonpayable",
      "type": "constructor"
    },
    {
      "anonymous": true,
      "inputs": [
        {
          "indexed": true,
          "internalType": "address",
          "name": "sender",
          "type": "address"
        },
        {
          "indexed": false,
          "internalType": "uint256",
          "name": "value",
          "type": "uint256"
        }
      ],
      "name": "AnonymousEvent",
      "type": "event"
    },
    {
      "anonymous": false,
      "inputs": [
        {
          "indexed": true,
          "internalType": "address",
          "name": "from",
          "type": "address"
        },
        {
          "indexed": true,
          "internalType": "address",
          "name": "to",
          "type": "address"
        },
        {
          "indexed": false,
          "internalType": "uint256",
          "name": "value",
          "type": "uint256"
        },
        {
          "indexed": false,
          "internalType": "string",
          "name": "message",
          "type": "string"
        }
      ],
      "name": "RegularEvent",
      "type": "event"
    },
    {
      "inputs": [],
      "name": "MAX_SUPPLY",
      "outputs": [
        {
          "internalType": "uint256",
          "name": "",
          "type": "uint256"
        }
      ],
      "stateMutability": "view",
      "type": "function"
    },
    {
      "inputs": [
        {
          "internalType": "uint256",
          "name": "a",
          "type": "uint256"
        },
        {
          "internalType": "uint256",
          "name": "b",
          "type": "uint256"
        }
      ],
      "name": "addPure",
      "outputs": [
        {
          "internalType": "uint256",
          "name": "",
          "type": "uint256"
        }
      ],
      "stateMutability": "pure",
      "type": "function"
    },
    {
      "inputs": [],
      "name": "data",
      "outputs": [
        {
          "internalType": "uint256",
          "name": "",
          "type": "uint256"
        }
      ],
      "stateMutability": "view",
      "type": "function"
    },
    {
      "inputs": [],
      "name": "deploymentTimestamp",
      "outputs": [
        {
          "internalType": "uint256",
          "name": "",
          "type": "uint256"
        }
      ],
      "stateMutability": "view",
      "type": "function"
    },
    {
      "inputs": [],
      "name": "getBalance",
      "outputs": [
        {
          "internalType": "uint256",
          "name": "",
          "type": "uint256"
        }
      ],
      "stateMutability": "view",
      "type": "function"
    },
    {
      "inputs": [],
      "name": "getData",
      "outputs": [
        {
          "internalType": "uint256",
          "name": "",
          "type": "uint256"
        }
      ],
      "stateMutability": "view",
      "type": "function"
    },
    {
      "inputs": [],
      "name": "makePayment",
      "outputs": [],
      "stateMutability": "payable",
      "type": "function"
    },
    {
      "inputs": [],
      "name": "owner",
      "outputs": [
        {
          "internalType": "address",
          "name": "",
          "type": "address"
        }
      ],
      "stateMutability": "view",
      "type": "function"
    },
    {
      "inputs": [],
      "name": "show",
      "outputs": [
        {
          "internalType": "string",
          "name": "",
          "type": "string"
        }
      ],
      "stateMutability": "pure",
      "type": "function"
    },
    {
      "inputs": [
        {
          "internalType": "uint256",
          "name": "_value",
          "type": "uint256"
        }
      ],
      "name": "triggerAnonymousEvent",
      "outputs": [],
      "stateMutability": "nonpayable",
      "type": "function"
    },
    {
      "inputs": [
        {
          "internalType": "address",
          "name": "_to",
          "type": "address"
        },
        {
          "internalType": "uint256",
          "name": "_value",
          "type": "uint256"
        },
        {
          "internalType": "string",
          "name": "_message",
          "type": "string"
        }
      ],
      "name": "triggerRegularEvent",
      "outputs": [],
      "stateMutability": "nonpayable",
      "type": "function"
    }
  ],
  "bytecode": "0x60a060405234801561001057600080fd5b5060405161059638038061059683398101604081905261002f9161004d565b600055600180546001600160a01b0319163317905542608052610066565b60006020828403121561005f57600080fd5b5051919050565b60805161051561008160003960006101c101526105156000f3fe6080604052600436106100ac5760003560e01c806373d4a13a11610074578063bfc12c051161004e578063bfc12c05146101af578063cc80f6f3146101e3578063d8d797001461022f57600080fd5b806373d4a13a146101415780638da5cb5b14610157578063bc69a5311461018f57600080fd5b806312065fe0146100b157806332cb6b0c146100d3578063368cc017146100ea5780633bc5de301461010c578063459dc56c14610121575b600080fd5b3480156100bd57600080fd5b50475b6040519081526020015b60405180910390f35b3480156100df57600080fd5b506100c0620f424081565b3480156100f657600080fd5b5061010a610105366004610330565b610237565b005b34801561011857600080fd5b506000546100c0565b34801561012d57600080fd5b506100c061013c366004610409565b610289565b34801561014d57600080fd5b506100c060005481565b34801561016357600080fd5b50600154610177906001600160a01b031681565b6040516001600160a01b0390911681526020016100ca565b34801561019b57600080fd5b5061010a6101aa36600461042b565b61029e565b3480156101bb57600080fd5b506100c07f000000000000000000000000000000000000000000000000000000000000000081565b3480156101ef57600080fd5b50604080518082018252601c81527f5468697320697320746865206465726976656420636f6e747261637400000000602082015290516100ca919061048a565b61010a6102b4565b826001600160a01b0316336001600160a01b03167f8c60167d897b78b9b14f6c3d117a0084825fb576f33802e8bf4c7dc632c0b742848460405161027c92919061049d565b60405180910390a3505050565b600061029582846104be565b90505b92915050565b604051818152339060200160405180910390a150565b600034116103185760405162461bcd60e51b815260206004820152602760248201527f5061796d656e7420616d6f756e742073686f756c6420626520677265617465726044820152660207468616e20360cc1b606482015260840160405180910390fd5b565b634e487b7160e01b600052604160045260246000fd5b60008060006060848603121561034557600080fd5b83356001600160a01b038116811461035c57600080fd5b925060208401359150604084013567ffffffffffffffff8082111561038057600080fd5b818601915086601f83011261039457600080fd5b8135818111156103a6576103a661031a565b604051601f8201601f19908116603f011681019083821181831017156103ce576103ce61031a565b816040528281528960208487010111156103e757600080fd5b8260208601602083013760006020848301015280955050505050509250925092565b6000806040838503121561041c57600080fd5b50508035926020909101359150565b60006020828403121561043d57600080fd5b5035919050565b6000815180845260005b8181101561046a5760208185018101518683018201520161044e565b506000602082860101526020601f19601f83011685010191505092915050565b6020815260006102956020830184610444565b8281526040602082015260006104b66040830184610444565b949350505050565b8082018082111561029857634e487b7160e01b600052601160045260246000fdfea2646970667358221220fea4a5574b46d9fd764a6159c16f4a5ef7c97d7f4c25e434c03af1a986cfaf9764736f6c63430008170033",
  "linkReferences": {},
  "deployedLinkReferences": {}
}