{
  "_format": "hh-sol-artifact-1",
  "contractName": "Base",
  "sourceName": "contracts/solidity/inhetitance/Base.sol",
  "abi": [
    {
      "inputs": [],
      "name": "classIdentifier",
      "outputs": [
        {
          "internalType": "string",
          "name": "",
          "type": "string"
        }
      ],
      "stateMutability": "pure",
      "type": "function"
    },
    {
      "inputs": [],
      "name": "getBalance",
      "outputs": [
        {
          "internalType": "uint256",
          "name": "",
          "type": "uint256"
        }
      ],
      "stateMutability": "view",
      "type": "function"
    },
    {
      "stateMutability": "payable",
      "type": "receive"
    }
  ],
  "bytecode": "0x608060405234801561001057600080fd5b50610105806100206000396000f3fe608060405260043610602a5760003560e01c806312065fe01460355780638e2a04a514605457600080fd5b36603057005b600080fd5b348015604057600080fd5b506040514781526020015b60405180910390f35b348015605f57600080fd5b506040805180820190915260048152634261736560e01b6020820152604051604b919060006020808352835180602085015260005b8181101560ae578581018301518582016040015282016094565b506000604082860101526040601f19601f830116850101925050509291505056fea2646970667358221220bff90021c4f9ba588953b78838e98e899a3475eb1e15e6cfc6b87e76f21ef4eb64736f6c63430008170033",
  "linkReferences": {},
  "deployedLinkReferences": {}
}