{
  "_format": "hh-sol-artifact-1",
  "contractName": "Multicaller",
  "sourceName": "contracts/multicaller/Multicaller.sol",
  "abi": [
    {
      "anonymous": false,
      "inputs": [
        {
          "indexed": false,
          "internalType": "bytes[]",
          "name": "results",
          "type": "bytes[]"
        }
      ],
      "name": "Result",
      "type": "event"
    },
    {
      "stateMutability": "payable",
      "type": "fallback"
    },
    {
      "inputs": [],
      "name": "counter",
      "outputs": [
        {
          "internalType": "uint256",
          "name": "",
          "type": "uint256"
        }
      ],
      "stateMutability": "view",
      "type": "function"
    },
    {
      "inputs": [
        {
          "internalType": "address[]",
          "name": "targets",
          "type": "address[]"
        },
        {
          "internalType": "bytes[]",
          "name": "data",
          "type": "bytes[]"
        }
      ],
      "name": "multiCall",
      "outputs": [
        {
          "internalType": "bytes[]",
          "name": "",
          "type": "bytes[]"
        }
      ],
      "stateMutability": "view",
      "type": "function"
    },
    {
      "inputs": [
        {
          "internalType": "address[]",
          "name": "targets",
          "type": "address[]"
        },
        {
          "internalType": "bytes[]",
          "name": "data",
          "type": "bytes[]"
        }
      ],
      "name": "multiDelegateCall",
      "outputs": [
        {
          "internalType": "bytes[]",
          "name": "results",
          "type": "bytes[]"
        }
      ],
      "stateMutability": "payable",
      "type": "function"
    },
    {
      "stateMutability": "payable",
      "type": "receive"
    }
  ],
  "bytecode": "0x60806040526000805534801561001457600080fd5b50610829806100246000396000f3fe6080604052600436106100355760003560e01c806331d8d7ba1461003e57806361bc221a14610067578063da5b4ffd1461008b57005b3661003c57005b005b61005161004c3660046104bb565b6100ab565b60405161005e919061062b565b60405180910390f35b34801561007357600080fd5b5061007d60005481565b60405190815260200161005e565b34801561009757600080fd5b506100516100a63660046106a5565b610259565b6060815167ffffffffffffffff8111156100c7576100c7610474565b6040519080825280602002602001820160405280156100fa57816020015b60608152602001906001900390816100e55790505b50905060005b8381101561021a5760008086868481811061011d5761011d610711565b90506020020160208101906101329190610727565b6001600160a01b031685848151811061014d5761014d610711565b60200260200101516040516101629190610757565b600060405180830381855af49150503d806000811461019d576040519150601f19603f3d011682016040523d82523d6000602084013e6101a2565b606091505b5091509150816101e75760405162461bcd60e51b815260206004820152600b60248201526a18d85b1b0819985a5b195960aa1b60448201526064015b60405180910390fd5b808484815181106101fa576101fa610711565b60200260200101819052505050808061021290610773565b915050610100565b507f51ed3bc756bfcd0359932b489194aa59d8e0aa5bd5fc358314e3330ff94417c78160405161024a919061062b565b60405180910390a19392505050565b60608382146102aa5760405162461bcd60e51b815260206004820152601c60248201527f746172676574206c656e67746820213d2064617461206c656e6774680000000060448201526064016101de565b60008267ffffffffffffffff8111156102c5576102c5610474565b6040519080825280602002602001820160405280156102f857816020015b60608152602001906001900390816102e35790505b50905060005b8581101561041e5760008088888481811061031b5761031b610711565b90506020020160208101906103309190610727565b6001600160a01b031687878581811061034b5761034b610711565b905060200281019061035d919061079c565b60405161036b9291906107e3565b600060405180830381855afa9150503d80600081146103a6576040519150601f19603f3d011682016040523d82523d6000602084013e6103ab565b606091505b5091509150816103eb5760405162461bcd60e51b815260206004820152600b60248201526a18d85b1b0819985a5b195960aa1b60448201526064016101de565b808484815181106103fe576103fe610711565b60200260200101819052505050808061041690610773565b9150506102fe565b5095945050505050565b60008083601f84011261043a57600080fd5b50813567ffffffffffffffff81111561045257600080fd5b6020830191508360208260051b850101111561046d57600080fd5b9250929050565b634e487b7160e01b600052604160045260246000fd5b604051601f8201601f1916810167ffffffffffffffff811182821017156104b3576104b3610474565b604052919050565b600080600060408085870312156104d157600080fd5b843567ffffffffffffffff808211156104e957600080fd5b6104f588838901610428565b909650945060209150868201358181111561050f57600080fd5b8701601f8101891361052057600080fd5b80358281111561053257610532610474565b8060051b61054185820161048a565b918252828101850191858101908c84111561055b57600080fd5b86850192505b838310156105e9578235868111156105795760008081fd5b8501603f81018e1361058b5760008081fd5b878101358781111561059f5761059f610474565b6105b1601f8201601f19168a0161048a565b8181528f8b8385010111156105c65760008081fd5b818b84018b83013760009181018a01919091528352509186019190860190610561565b80985050505050505050509250925092565b60005b838110156106165781810151838201526020016105fe565b83811115610625576000848401525b50505050565b6000602080830181845280855180835260408601915060408160051b870101925083870160005b8281101561069857878503603f1901845281518051808752610679818989018a85016105fb565b601f01601f191695909501860194509285019290850190600101610652565b5092979650505050505050565b600080600080604085870312156106bb57600080fd5b843567ffffffffffffffff808211156106d357600080fd5b6106df88838901610428565b909650945060208701359150808211156106f857600080fd5b5061070587828801610428565b95989497509550505050565b634e487b7160e01b600052603260045260246000fd5b60006020828403121561073957600080fd5b81356001600160a01b038116811461075057600080fd5b9392505050565b600082516107698184602087016105fb565b9190910192915050565b600060001982141561079557634e487b7160e01b600052601160045260246000fd5b5060010190565b6000808335601e198436030181126107b357600080fd5b83018035915067ffffffffffffffff8211156107ce57600080fd5b60200191503681900382131561046d57600080fd5b818382376000910190815291905056fea26469706673582212209dc920b74e3958ad9919fcb0801d66252ee4b31921d28fb108c3856e0af2b0fa64736f6c63430008090033",
  "linkReferences": {},
  "deployedLinkReferences": {}
}