{
  "_format": "hh-sol-artifact-1",
  "contractName": "TokenCreateCustomContract",
  "sourceName": "contracts/system-contracts/hedera-token-service/examples/token-create/TokenCreateCustom.sol",
  "abi": [
    {
      "anonymous": false,
      "inputs": [
        {
          "indexed": false,
          "internalType": "bool",
          "name": "",
          "type": "bool"
        },
        {
          "indexed": false,
          "internalType": "bytes",
          "name": "",
          "type": "bytes"
        }
      ],
      "name": "CallResponseEvent",
      "type": "event"
    },
    {
      "anonymous": false,
      "inputs": [
        {
          "indexed": false,
          "internalType": "address",
          "name": "tokenAddress",
          "type": "address"
        }
      ],
      "name": "CreatedToken",
      "type": "event"
    },
    {
      "anonymous": false,
      "inputs": [
        {
          "indexed": false,
          "internalType": "int64",
          "name": "newTotalSupply",
          "type": "int64"
        },
        {
          "indexed": false,
          "internalType": "int64[]",
          "name": "serialNumbers",
          "type": "int64[]"
        }
      ],
      "name": "MintedToken",
      "type": "event"
    },
    {
      "anonymous": false,
      "inputs": [
        {
          "indexed": false,
          "internalType": "int256",
          "name": "responseCode",
          "type": "int256"
        }
      ],
      "name": "ResponseCode",
      "type": "event"
    },
    {
      "anonymous": false,
      "inputs": [
        {
          "indexed": false,
          "internalType": "address",
          "name": "tokenAddress",
          "type": "address"
        },
        {
          "indexed": false,
          "internalType": "address",
          "name": "receiver",
          "type": "address"
        },
        {
          "indexed": false,
          "internalType": "int64",
          "name": "amount",
          "type": "int64"
        }
      ],
      "name": "TransferToken",
      "type": "event"
    },
    {
      "inputs": [
        {
          "internalType": "address",
          "name": "account",
          "type": "address"
        },
        {
          "internalType": "address",
          "name": "token",
          "type": "address"
        }
      ],
      "name": "associateTokenPublic",
      "outputs": [
        {
          "internalType": "int256",
          "name": "responseCode",
          "type": "int256"
        }
      ],
      "stateMutability": "nonpayable",
      "type": "function"
    },
    {
      "inputs": [
        {
          "internalType": "address",
          "name": "account",
          "type": "address"
        },
        {
          "internalType": "address[]",
          "name": "tokens",
          "type": "address[]"
        }
      ],
      "name": "associateTokensPublic",
      "outputs": [
        {
          "internalType": "int256",
          "name": "responseCode",
          "type": "int256"
        }
      ],
      "stateMutability": "nonpayable",
      "type": "function"
    },
    {
      "inputs": [
        {
          "internalType": "string",
          "name": "name",
          "type": "string"
        },
        {
          "internalType": "string",
          "name": "symbol",
          "type": "string"
        },
        {
          "internalType": "string",
          "name": "memo",
          "type": "string"
        },
        {
          "internalType": "int64",
          "name": "initialTotalSupply",
          "type": "int64"
        },
        {
          "internalType": "int64",
          "name": "maxSupply",
          "type": "int64"
        },
        {
          "internalType": "int32",
          "name": "decimals",
          "type": "int32"
        },
        {
          "internalType": "bool",
          "name": "freezeDefaultStatus",
          "type": "bool"
        },
        {
          "internalType": "address",
          "name": "treasury",
          "type": "address"
        },
        {
          "components": [
            {
              "internalType": "uint256",
              "name": "keyType",
              "type": "uint256"
            },
            {
              "components": [
                {
                  "internalType": "bool",
                  "name": "inheritAccountKey",
                  "type": "bool"
                },
                {
                  "internalType": "address",
                  "name": "contractId",
                  "type": "address"
                },
                {
                  "internalType": "bytes",
                  "name": "ed25519",
                  "type": "bytes"
                },
                {
                  "internalType": "bytes",
                  "name": "ECDSA_secp256k1",
                  "type": "bytes"
                },
                {
                  "internalType": "address",
                  "name": "delegatableContractId",
                  "type": "address"
                }
              ],
              "internalType": "struct IHederaTokenService.KeyValue",
              "name": "key",
              "type": "tuple"
            }
          ],
          "internalType": "struct IHederaTokenService.TokenKey[]",
          "name": "keys",
          "type": "tuple[]"
        }
      ],
      "name": "createFungibleTokenPublic",
      "outputs": [],
      "stateMutability": "payable",
      "type": "function"
    },
    {
      "inputs": [
        {
          "internalType": "address",
          "name": "treasury",
          "type": "address"
        },
        {
          "internalType": "address",
          "name": "fixedFeeTokenAddress",
          "type": "address"
        },
        {
          "internalType": "string",
          "name": "name",
          "type": "string"
        },
        {
          "internalType": "string",
          "name": "symbol",
          "type": "string"
        },
        {
          "internalType": "string",
          "name": "memo",
          "type": "string"
        },
        {
          "internalType": "int64",
          "name": "initialTotalSupply",
          "type": "int64"
        },
        {
          "internalType": "int64",
          "name": "maxSupply",
          "type": "int64"
        },
        {
          "internalType": "int32",
          "name": "decimals",
          "type": "int32"
        },
        {
          "internalType": "int64",
          "name": "feeAmount",
          "type": "int64"
        },
        {
          "components": [
            {
              "internalType": "uint256",
              "name": "keyType",
              "type": "uint256"
            },
            {
              "components": [
                {
                  "internalType": "bool",
                  "name": "inheritAccountKey",
                  "type": "bool"
                },
                {
                  "internalType": "address",
                  "name": "contractId",
                  "type": "address"
                },
                {
                  "internalType": "bytes",
                  "name": "ed25519",
                  "type": "bytes"
                },
                {
                  "internalType": "bytes",
                  "name": "ECDSA_secp256k1",
                  "type": "bytes"
                },
                {
                  "internalType": "address",
                  "name": "delegatableContractId",
                  "type": "address"
                }
              ],
              "internalType": "struct IHederaTokenService.KeyValue",
              "name": "key",
              "type": "tuple"
            }
          ],
          "internalType": "struct IHederaTokenService.TokenKey[]",
          "name": "keys",
          "type": "tuple[]"
        }
      ],
      "name": "createFungibleTokenWithCustomFeesPublic",
      "outputs": [],
      "stateMutability": "payable",
      "type": "function"
    },
    {
      "inputs": [
        {
          "internalType": "string",
          "name": "name",
          "type": "string"
        },
        {
          "internalType": "string",
          "name": "symbol",
          "type": "string"
        },
        {
          "internalType": "string",
          "name": "memo",
          "type": "string"
        },
        {
          "internalType": "int64",
          "name": "maxSupply",
          "type": "int64"
        },
        {
          "internalType": "address",
          "name": "treasury",
          "type": "address"
        },
        {
          "components": [
            {
              "internalType": "uint256",
              "name": "keyType",
              "type": "uint256"
            },
            {
              "components": [
                {
                  "internalType": "bool",
                  "name": "inheritAccountKey",
                  "type": "bool"
                },
                {
                  "internalType": "address",
                  "name": "contractId",
                  "type": "address"
                },
                {
                  "internalType": "bytes",
                  "name": "ed25519",
                  "type": "bytes"
                },
                {
                  "internalType": "bytes",
                  "name": "ECDSA_secp256k1",
                  "type": "bytes"
                },
                {
                  "internalType": "address",
                  "name": "delegatableContractId",
                  "type": "address"
                }
              ],
              "internalType": "struct IHederaTokenService.KeyValue",
              "name": "key",
              "type": "tuple"
            }
          ],
          "internalType": "struct IHederaTokenService.TokenKey[]",
          "name": "keys",
          "type": "tuple[]"
        }
      ],
      "name": "createNonFungibleTokenPublic",
      "outputs": [],
      "stateMutability": "payable",
      "type": "function"
    },
    {
      "inputs": [
        {
          "internalType": "address",
          "name": "treasury",
          "type": "address"
        },
        {
          "internalType": "address",
          "name": "fixedFeeTokenAddress",
          "type": "address"
        },
        {
          "internalType": "string",
          "name": "name",
          "type": "string"
        },
        {
          "internalType": "string",
          "name": "symbol",
          "type": "string"
        },
        {
          "internalType": "string",
          "name": "memo",
          "type": "string"
        },
        {
          "internalType": "int64",
          "name": "maxSupply",
          "type": "int64"
        },
        {
          "internalType": "int64",
          "name": "feeAmount",
          "type": "int64"
        },
        {
          "components": [
            {
              "internalType": "uint256",
              "name": "keyType",
              "type": "uint256"
            },
            {
              "components": [
                {
                  "internalType": "bool",
                  "name": "inheritAccountKey",
                  "type": "bool"
                },
                {
                  "internalType": "address",
                  "name": "contractId",
                  "type": "address"
                },
                {
                  "internalType": "bytes",
                  "name": "ed25519",
                  "type": "bytes"
                },
                {
                  "internalType": "bytes",
                  "name": "ECDSA_secp256k1",
                  "type": "bytes"
                },
                {
                  "internalType": "address",
                  "name": "delegatableContractId",
                  "type": "address"
                }
              ],
              "internalType": "struct IHederaTokenService.KeyValue",
              "name": "key",
              "type": "tuple"
            }
          ],
          "internalType": "struct IHederaTokenService.TokenKey[]",
          "name": "keys",
          "type": "tuple[]"
        }
      ],
      "name": "createNonFungibleTokenWithCustomFeesPublic",
      "outputs": [],
      "stateMutability": "payable",
      "type": "function"
    },
    {
      "inputs": [
        {
          "internalType": "address",
          "name": "token",
          "type": "address"
        },
        {
          "internalType": "address",
          "name": "account",
          "type": "address"
        }
      ],
      "name": "grantTokenKycPublic",
      "outputs": [
        {
          "internalType": "int64",
          "name": "responseCode",
          "type": "int64"
        }
      ],
      "stateMutability": "nonpayable",
      "type": "function"
    },
    {
      "inputs": [
        {
          "internalType": "address",
          "name": "token",
          "type": "address"
        },
        {
          "internalType": "address",
          "name": "receiver",
          "type": "address"
        },
        {
          "internalType": "int64",
          "name": "amount",
          "type": "int64"
        },
        {
          "internalType": "bytes[]",
          "name": "metadata",
          "type": "bytes[]"
        }
      ],
      "name": "mintNonFungibleTokenToAddressPublic",
      "outputs": [
        {
          "internalType": "int256",
          "name": "responseCode",
          "type": "int256"
        },
        {
          "internalType": "int64",
          "name": "newTotalSupply",
          "type": "int64"
        },
        {
          "internalType": "int64[]",
          "name": "serialNumbers",
          "type": "int64[]"
        }
      ],
      "stateMutability": "nonpayable",
      "type": "function"
    },
    {
      "inputs": [
        {
          "internalType": "address",
          "name": "token",
          "type": "address"
        },
        {
          "internalType": "int64",
          "name": "amount",
          "type": "int64"
        },
        {
          "internalType": "bytes[]",
          "name": "metadata",
          "type": "bytes[]"
        }
      ],
      "name": "mintTokenPublic",
      "outputs": [
        {
          "internalType": "int256",
          "name": "responseCode",
          "type": "int256"
        },
        {
          "internalType": "int64",
          "name": "newTotalSupply",
          "type": "int64"
        },
        {
          "internalType": "int64[]",
          "name": "serialNumbers",
          "type": "int64[]"
        }
      ],
      "stateMutability": "nonpayable",
      "type": "function"
    },
    {
      "inputs": [
        {
          "internalType": "address",
          "name": "token",
          "type": "address"
        },
        {
          "internalType": "address",
          "name": "receiver",
          "type": "address"
        },
        {
          "internalType": "int64",
          "name": "amount",
          "type": "int64"
        },
        {
          "internalType": "bytes[]",
          "name": "metadata",
          "type": "bytes[]"
        }
      ],
      "name": "mintTokenToAddressPublic",
      "outputs": [
        {
          "internalType": "int256",
          "name": "responseCode",
          "type": "int256"
        },
        {
          "internalType": "int64",
          "name": "newTotalSupply",
          "type": "int64"
        },
        {
          "internalType": "int64[]",
          "name": "serialNumbers",
          "type": "int64[]"
        }
      ],
      "stateMutability": "nonpayable",
      "type": "function"
    },
    {
      "inputs": [
        {
          "internalType": "address",
          "name": "token",
          "type": "address"
        },
        {
          "internalType": "bytes",
          "name": "encodedFunctionSelector",
          "type": "bytes"
        }
      ],
      "name": "redirectForToken",
      "outputs": [
        {
          "internalType": "int256",
          "name": "responseCode",
          "type": "int256"
        },
        {
          "internalType": "bytes",
          "name": "response",
          "type": "bytes"
        }
      ],
      "stateMutability": "nonpayable",
      "type": "function"
    },
    {
      "inputs": [
        {
          "internalType": "address",
          "name": "token",
          "type": "address"
        },
        {
          "internalType": "address",
          "name": "from",
          "type": "address"
        },
        {
          "internalType": "address",
          "name": "to",
          "type": "address"
        },
        {
          "internalType": "uint256",
          "name": "amount",
          "type": "uint256"
        }
      ],
      "name": "transferFrom",
      "outputs": [
        {
          "internalType": "int64",
          "name": "responseCode",
          "type": "int64"
        }
      ],
      "stateMutability": "nonpayable",
      "type": "function"
    },
    {
      "inputs": [
        {
          "internalType": "address",
          "name": "token",
          "type": "address"
        },
        {
          "internalType": "address",
          "name": "from",
          "type": "address"
        },
        {
          "internalType": "address",
          "name": "to",
          "type": "address"
        },
        {
          "internalType": "uint256",
          "name": "serialNumber",
          "type": "uint256"
        }
      ],
      "name": "transferFromNFT",
      "outputs": [
        {
          "internalType": "int64",
          "name": "responseCode",
          "type": "int64"
        }
      ],
      "stateMutability": "nonpayable",
      "type": "function"
    }
  ],
  "bytecode": "0x608060405234801561000f575f80fd5b50600160208181527fa6eef7e35abe7026729641147f7915573c7e97b47efa546f5f6e3230263bcb499190915560027fcc69885fda6bcc1a4ace058b4a62bf5e179ea78fd58a1ccd71c22cc9b688792f5560047fd9d16d34ffb15ba3a3d852f0d403e2ce1d691fb54de27ac87cd2f993f3ec330f5560087f7dfe757ecd65cbd7922a9c0161e935dd7fdbcc0e999689c7d31633896b1fc60b5560107fedc95719e9a3b28dd8e80877cb5880a9be7de1a13fc8b05e7999683b6b567643557fe2689cd4a84e23ad2f564004f1c9013e9589d260bde6380aba3ca7e09e4df40c5560065f5260407f8f331abe73332f95a25873e8b430885974c0409691f89d643119a11623a7924a55612480806101235f395ff3fe6080604052600436106100ce575f3560e01c8063618dc65e1161007c578063c827bd3211610057578063c827bd32146101ef578063de84a7791461021d578063f4a01e5b1461023c578063fec394da1461025b575f80fd5b8063618dc65e146101905780639b23d3d9146101bd578063bb330b12146101dc575f80fd5b806329fc46e6116100ac57806329fc46e614610155578063424f165e1461016a57806353b4f6781461017d575f80fd5b80630fd2601e146100d2578063118741e71461010957806315dacbea14610136575b5f80fd5b3480156100dd575f80fd5b506100f16100ec3660046113e7565b61027a565b60405160079190910b81526020015b60405180910390f35b348015610114575f80fd5b506101286101233660046114d2565b6102d5565b604051908152602001610100565b348015610141575f80fd5b506100f1610150366004611581565b610327565b6101686101633660046117d5565b610416565b005b6101686101783660046118cc565b6104ee565b61016861018b366004611991565b6105c0565b34801561019b575f80fd5b506101af6101aa366004611a78565b61080c565b604051610100929190611b12565b3480156101c8575f80fd5b506100f16101d7366004611581565b610923565b6101686101ea366004611b32565b610967565b3480156101fa575f80fd5b5061020e610209366004611cb6565b610bea565b60405161010093929190611d64565b348015610228575f80fd5b5061020e610237366004611d8e565b610c82565b348015610247575f80fd5b506101286102563660046113e7565b610d1a565b348015610266575f80fd5b5061020e610275366004611cb6565b610d25565b5f6102858383610d47565b604051600782900b81529091507f90a5cf4cffe88b4edbb041cfc7a8a812c48a5ec30b84640fb37690875168e3aa9060200160405180910390a1600781900b6016146102cf575f80fd5b92915050565b5f6102e08383610e25565b90507f90a5cf4cffe88b4edbb041cfc7a8a812c48a5ec30b84640fb37690875168e3aa8160405161031391815260200190565b60405180910390a1601681146102cf575f80fd5b6040516001600160a01b038581166024830152848116604483015283166064820152608481018290525f908190819061016790630aed65f560e11b9060a4015b60408051601f198184030181529181526020820180516001600160e01b03166001600160e01b03199094169390931790925290516103a59190611dec565b5f604051808303815f865af19150503d805f81146103de576040519150601f19603f3d011682016040523d82523d5f602084013e6103e3565b606091505b5091509150816103f4576015610408565b808060200190518101906104089190611e07565b60030b979650505050505050565b60408051606080820183525f8083526001600160a01b0386166020808501829052627a1200858701528551610120810187528f81529081018e9052948501529083018a905260016080840152600788900b60a084015285151560c084015260e08301849052610100830182905290919080610492838b8a610e4f565b9092509050601682146104a3575f80fd5b6040516001600160a01b03821681527f7bb17726df1f3adee8aa00ba8e8bc5d6f182af3bbf77604639cb7f008dd3b4ed9060200160405180910390a150505050505050505050505050565b60408051606080820183525f8083526001600160a01b0386166020808501829052627a1200858701528551610120810187528c81529081018b90529485015290830187905260016080840152600786900b60a084015260c0830181905260e0830184905261010083018290529091908061056783610f6f565b909250905060168214610578575f80fd5b6040516001600160a01b03821681527f7bb17726df1f3adee8aa00ba8e8bc5d6f182af3bbf77604639cb7f008dd3b4ed9060200160405180910390a150505050505050505050565b60408051606080820183525f8083526001600160a01b038c166020808501829052627a1200858701528551610120810187528c81529081018b905280860191909152918201889052600160808301819052600788900b60a084015260c0830182905260e083018690526101008301849052845181815280860190955292939192909190816020015b6040805160a0810182525f808252602080830182905292820181905260608201819052608082015282525f199092019101816106485790505090506040518060a001604052808660070b81526020018b6001600160a01b031681526020015f151581526020015f151581526020018c6001600160a01b0316815250815f815181106106d5576106d5611e29565b60209081029190910101526040805160018082528183019092525f91816020015b6040805160c0810182525f8082526020808301829052928201819052606082018190526080820181905260a082015282525f199092019101816106f65790505090506040518060c00160405280600460070b8152602001600560070b8152602001600a60070b81526020018c6001600160a01b031681526020015f151581526020018d6001600160a01b0316815250815f8151811061079757610797611e29565b60200260200101819052505f806107af858585611077565b9092509050601682146107c0575f80fd5b6040516001600160a01b03821681527f7bb17726df1f3adee8aa00ba8e8bc5d6f182af3bbf77604639cb7f008dd3b4ed9060200160405180910390a15050505050505050505050505050565b5f60605f806101676001600160a01b031663618dc65e60e01b8787604051602401610838929190611e3d565b60408051601f198184030181529181526020820180516001600160e01b03166001600160e01b03199094169390931790925290516108769190611dec565b5f604051808303815f865af19150503d805f81146108af576040519150601f19603f3d011682016040523d82523d5f602084013e6108b4565b606091505b50915091507f4af4780e06fe8cb9df64b0794fa6f01399af979175bb988e35e0e57e594567bc82826040516108ea929190611e5e565b60405180910390a18161090d57601560405180602001604052805f815250610911565b6016815b60039190910b97909650945050505050565b6040516001600160a01b038581166024830152848116604483015283166064820152608481018290525f908190819061016790639b23d3d960e01b9060a401610367565b60408051606080820183525f8083526001600160a01b038e166020808501829052627a1200858701528551610120810187528e81529081018d9052808601919091529182018a9052600160808301819052600789900b60a084015260c0830182905260e083018690526101008301849052845181815280860190955292939192909190816020015b6040805160a0810182525f808252602080830182905292820181905260608201819052608082015282525f199092019101816109ef5790505090506040518060a001604052808660070b81526020018d6001600160a01b031681526020015f151581526020015f151581526020018e6001600160a01b0316815250815f81518110610a7c57610a7c611e29565b60209081029190910101526040805160018082528183019092525f91816020015b6040805160c0810182525f8082526020808301829052928201819052606082018190526080820181905260a082015282525f19909201910181610a9d5790505090506040518060c00160405280600460070b8152602001600560070b8152602001600a60070b8152602001601e60070b81526020015f151581526020018f6001600160a01b0316815250815f81518110610b3957610b39611e29565b60200260200101819052505f80610b53858c8b87876110e0565b915091507f90a5cf4cffe88b4edbb041cfc7a8a812c48a5ec30b84640fb37690875168e3aa82604051610b8891815260200190565b60405180910390a160168214610b9c575f80fd5b6040516001600160a01b03821681527f7bb17726df1f3adee8aa00ba8e8bc5d6f182af3bbf77604639cb7f008dd3b4ed9060200160405180910390a150505050505050505050505050505050565b5f806060610bf9878686610c82565b809350819450829550505050610c2a873088845f81518110610c1d57610c1d611e29565b6020026020010151611206565b50604080516001600160a01b03898116825288166020820152600787900b8183015290517f215c8eec9aa8fa57cdc8525400a046bf00ff93b20cc529980e01c1ef114fc2289181900360600190a19450945094915050565b5f806060610c9186868661124d565b60405183815292955090935091507f90a5cf4cffe88b4edbb041cfc7a8a812c48a5ec30b84640fb37690875168e3aa9060200160405180910390a160168314610cd8575f80fd5b7ffc6b20023c4bac8ff1c48c1693e0cea5cd3c2163e9c2da41c58f17dd6d9f163d8282604051610d09929190611e78565b60405180910390a193509350939050565b5f6102e08383611344565b5f806060610d34878686610c82565b91945092509050610c2a87308888611379565b6040516001600160a01b038381166024830152821660448201525f908190819061016790638f8d7f9960e01b906064015b60408051601f198184030181529181526020820180516001600160e01b03166001600160e01b0319909416939093179092529051610db69190611dec565b5f604051808303815f865af19150503d805f8114610def576040519150601f19603f3d011682016040523d82523d5f602084013e610df4565b606091505b509150915081610e05576015610e19565b80806020019051810190610e199190611e07565b60030b95945050505050565b5f805f6101676001600160a01b0316632e63879b60e01b8686604051602401610d78929190611e93565b5f80848061010001515f015160070b5f148015610e7657506101008101516040015160070b155b15610e8c576101008101516276a7006040909101525b5f806101676001600160a01b031634630fb65bf360e01b8a8a8a604051602401610eb8939291906120b4565b60408051601f198184030181529181526020820180516001600160e01b03166001600160e01b0319909416939093179092529051610ef69190611dec565b5f6040518083038185875af1925050503d805f8114610f30576040519150601f19603f3d011682016040523d82523d5f602084013e610f35565b606091505b509150915081610f475760155f610f5b565b80806020019051810190610f5b91906120e2565b60039190910b999098509650505050505050565b5f80828061010001515f015160070b5f148015610f9657506101008101516040015160070b155b15610fac576101008101516276a7006040909101525b5f806101676001600160a01b03163463ea83f29360e01b88604051602401610fd4919061210f565b60408051601f198184030181529181526020820180516001600160e01b03166001600160e01b03199094169390931790925290516110129190611dec565b5f6040518083038185875af1925050503d805f811461104c576040519150601f19603f3d011682016040523d82523d5f602084013e611051565b606091505b5091509150816110635760155f610911565b8080602001905181019061091191906120e2565b5f80848061010001515f015160070b5f14801561109e57506101008101516040015160070b155b156110b4576101008101516276a7006040909101525b5f806101676001600160a01b03163463abb54eb560e01b8a8a8a604051602401610eb89392919061218d565b5f80868061010001515f015160070b5f14801561110757506101008101516040015160070b155b1561111d576101008101516276a7006040909101525b5f806101676001600160a01b031634632af0c59a60e01b8c8c8c8c8c60405160240161114d959493929190612244565b60408051601f198184030181529181526020820180516001600160e01b03166001600160e01b031990941693909317909252905161118b9190611dec565b5f6040518083038185875af1925050503d805f81146111c5576040519150601f19603f3d011682016040523d82523d5f602084013e6111ca565b606091505b5091509150816111dc5760155f6111f0565b808060200190518101906111f091906120e2565b60039190910b9b909a5098505050505050505050565b6040516001600160a01b038581166024830152848116604483015283166064820152600782900b60848201525f908190819061016790635cfc901160e01b9060a401610367565b5f8060605f806101676001600160a01b031663e0f4059a60e01b89898960405160240161127c9392919061230f565b60408051601f198184030181529181526020820180516001600160e01b03166001600160e01b03199094169390931790925290516112ba9190611dec565b5f604051808303815f865af19150503d805f81146112f3576040519150601f19603f3d011682016040523d82523d5f602084013e6112f8565b606091505b50915091508161131a57604080515f808252602082019092526015919061132e565b8080602001905181019061132e919061238c565b60039290920b9a90995090975095505050505050565b6040516001600160a01b038381166024830152821660448201525f90819081906101679063248a35ef60e11b90606401610d78565b6040516001600160a01b038581166024830152848116604483015283166064820152600782900b60848201525f90819081906101679063eca3691760e01b9060a401610367565b6001600160a01b03811681146113d4575f80fd5b50565b80356113e2816113c0565b919050565b5f80604083850312156113f8575f80fd5b8235611403816113c0565b91506020830135611413816113c0565b809150509250929050565b634e487b7160e01b5f52604160045260245ffd5b6040805190810167ffffffffffffffff811182821017156114555761145561141e565b60405290565b60405160a0810167ffffffffffffffff811182821017156114555761145561141e565b604051601f8201601f1916810167ffffffffffffffff811182821017156114a7576114a761141e565b604052919050565b5f67ffffffffffffffff8211156114c8576114c861141e565b5060051b60200190565b5f80604083850312156114e3575f80fd5b82356114ee816113c0565b915060208381013567ffffffffffffffff81111561150a575f80fd5b8401601f8101861361151a575f80fd5b803561152d611528826114af565b61147e565b81815260059190911b8201830190838101908883111561154b575f80fd5b928401925b82841015611572578335611563816113c0565b82529284019290840190611550565b80955050505050509250929050565b5f805f8060808587031215611594575f80fd5b843561159f816113c0565b935060208501356115af816113c0565b925060408501356115bf816113c0565b9396929550929360600135925050565b5f82601f8301126115de575f80fd5b813567ffffffffffffffff8111156115f8576115f861141e565b61160b601f8201601f191660200161147e565b81815284602083860101111561161f575f80fd5b816020850160208301375f918101602001919091529392505050565b8060070b81146113d4575f80fd5b80356113e28161163b565b8060030b81146113d4575f80fd5b80356113e281611654565b803580151581146113e2575f80fd5b5f82601f83011261168b575f80fd5b8135602061169b611528836114af565b82815260059290921b840181019181810190868411156116b9575f80fd5b8286015b848110156117ca57803567ffffffffffffffff808211156116dc575f80fd5b908801906040601f19838c0381018213156116f5575f80fd5b6116fd611432565b8885013581528285013584811115611713575f80fd5b949094019360a0858e0383011215611729575f80fd5b61173161145b565b915061173e89860161166d565b82528285013561174d816113c0565b828a015260608581013585811115611763575f80fd5b6117718f8c838a01016115cf565b858501525060809350838601358581111561178a575f80fd5b6117988f8c838a01016115cf565b82850152505060a085013594506117ae856113c0565b91810193909352808701929092525083529183019183016116bd565b509695505050505050565b5f805f805f805f805f6101208a8c0312156117ee575f80fd5b893567ffffffffffffffff80821115611805575f80fd5b6118118d838e016115cf565b9a5060208c0135915080821115611826575f80fd5b6118328d838e016115cf565b995060408c0135915080821115611847575f80fd5b6118538d838e016115cf565b985061186160608d01611649565b975061186f60808d01611649565b965061187d60a08d01611662565b955061188b60c08d0161166d565b945061189960e08d016113d7565b93506101008c01359150808211156118af575f80fd5b506118bc8c828d0161167c565b9150509295985092959850929598565b5f805f805f8060c087890312156118e1575f80fd5b863567ffffffffffffffff808211156118f8575f80fd5b6119048a838b016115cf565b97506020890135915080821115611919575f80fd5b6119258a838b016115cf565b9650604089013591508082111561193a575f80fd5b6119468a838b016115cf565b955061195460608a01611649565b945061196260808a016113d7565b935060a0890135915080821115611977575f80fd5b5061198489828a0161167c565b9150509295509295509295565b5f805f805f805f80610100898b0312156119a9575f80fd5b6119b2896113d7565b97506119c060208a016113d7565b9650604089013567ffffffffffffffff808211156119dc575f80fd5b6119e88c838d016115cf565b975060608b01359150808211156119fd575f80fd5b611a098c838d016115cf565b965060808b0135915080821115611a1e575f80fd5b611a2a8c838d016115cf565b9550611a3860a08c01611649565b9450611a4660c08c01611649565b935060e08b0135915080821115611a5b575f80fd5b50611a688b828c0161167c565b9150509295985092959890939650565b5f8060408385031215611a89575f80fd5b8235611a94816113c0565b9150602083013567ffffffffffffffff811115611aaf575f80fd5b611abb858286016115cf565b9150509250929050565b5f5b83811015611adf578181015183820152602001611ac7565b50505f910152565b5f8151808452611afe816020860160208601611ac5565b601f01601f19169290920160200192915050565b828152604060208201525f611b2a6040830184611ae7565b949350505050565b5f805f805f805f805f806101408b8d031215611b4c575f80fd5b611b558b6113d7565b9950611b6360208c016113d7565b985060408b013567ffffffffffffffff80821115611b7f575f80fd5b611b8b8e838f016115cf565b995060608d0135915080821115611ba0575f80fd5b611bac8e838f016115cf565b985060808d0135915080821115611bc1575f80fd5b611bcd8e838f016115cf565b9750611bdb60a08e01611649565b9650611be960c08e01611649565b9550611bf760e08e01611662565b9450611c066101008e01611649565b93506101208d0135915080821115611c1c575f80fd5b50611c298d828e0161167c565b9150509295989b9194979a5092959850565b5f82601f830112611c4a575f80fd5b81356020611c5a611528836114af565b82815260059290921b84018101918181019086841115611c78575f80fd5b8286015b848110156117ca57803567ffffffffffffffff811115611c9a575f80fd5b611ca88986838b01016115cf565b845250918301918301611c7c565b5f805f8060808587031215611cc9575f80fd5b8435611cd4816113c0565b93506020850135611ce4816113c0565b92506040850135611cf48161163b565b9150606085013567ffffffffffffffff811115611d0f575f80fd5b611d1b87828801611c3b565b91505092959194509250565b5f815180845260208085019450602084015f5b83811015611d5957815160070b87529582019590820190600101611d3a565b509495945050505050565b8381528260070b6020820152606060408201525f611d856060830184611d27565b95945050505050565b5f805f60608486031215611da0575f80fd5b8335611dab816113c0565b92506020840135611dbb8161163b565b9150604084013567ffffffffffffffff811115611dd6575f80fd5b611de286828701611c3b565b9150509250925092565b5f8251611dfd818460208701611ac5565b9190910192915050565b5f60208284031215611e17575f80fd5b8151611e2281611654565b9392505050565b634e487b7160e01b5f52603260045260245ffd5b6001600160a01b0383168152604060208201525f611b2a6040830184611ae7565b8215158152604060208201525f611b2a6040830184611ae7565b8260070b8152604060208201525f611b2a6040830184611d27565b5f604082016001600160a01b0380861684526020604060208601528286518085526060870191506020880194505f5b81811015611ee0578551851683529483019491830191600101611ec2565b509098975050505050505050565b5f82825180855260208086019550808260051b8401018186015f5b84811015611fa657601f198684030189528151604081518552858201519150808686015281511515818601528582015160606001600160a01b038083168289015283850151935060a09250608083818a0152611f6860e08a0186611ae7565b92860151898403603f1901858b0152929450611f848584611ae7565b9501511660c09790970196909652505098840198925090830190600101611f09565b5090979650505050505050565b5f6101608251818552611fc882860182611ae7565b91505060208301518482036020860152611fe28282611ae7565b9150506040830151611fff60408601826001600160a01b03169052565b50606083015184820360608601526120178282611ae7565b915050608083015161202d608086018215159052565b5060a083015161204260a086018260070b9052565b5060c083015161205660c086018215159052565b5060e083015184820360e086015261206e8282611eee565b915050610100808401516120aa82870182805160070b82526001600160a01b036020820151166020830152604081015160070b60408301525050565b5090949350505050565b606081525f6120c66060830186611fb3565b90508360070b60208301528260030b6040830152949350505050565b5f80604083850312156120f3575f80fd5b82516120fe81611654565b6020840151909250611413816113c0565b602081525f611e226020830184611fb3565b5f815180845260208085019450602084015f5b83811015611d59578151805160070b8852838101516001600160a01b03908116858a01526040808301511515908a01526060808301511515908a0152608091820151169088015260a09096019590820190600101612134565b5f60608083526121a06060840187611fb3565b6020848203818601526121b38288612121565b915060408583036040870152828751808552838501915083890194505f5b818110156122345785518051600790810b855286820151810b8786015285820151900b85850152878101516001600160a01b039081168986015260808083015115159086015260a09182015116908401529484019460c0909201916001016121d1565b50909a9950505050505050505050565b5f60a080835261225760a0840189611fb3565b602060078960070b8287015260408960030b604088015260608785036060890152612282858b612121565b9450608088860360808a0152858a518088528688019150868c0197505f5b818110156122fa5788518051880b845288810151880b8985015286810151880b8785015285810151880b86850152848101511515858501528a01516001600160a01b03168a8401529787019760c0909201916001016122a0565b50909f9e505050505050505050505050505050565b5f606082016001600160a01b038616835260208560070b60208501526060604085015281855180845260808601915060808160051b8701019350602087015f5b8281101561237d57607f1988870301845261236b868351611ae7565b9550928401929084019060010161234f565b50939998505050505050505050565b5f805f6060848603121561239e575f80fd5b83516123a981611654565b809350506020808501516123bc8161163b565b604086015190935067ffffffffffffffff8111156123d8575f80fd5b8501601f810187136123e8575f80fd5b80516123f6611528826114af565b81815260059190911b82018301908381019089831115612414575f80fd5b928401925b8284101561243b57835161242c8161163b565b82529284019290840190612419565b8095505050505050925092509256fea264697066735822122010a2023c07338c6b3303b2a8178f77640bf0604206f0b54a7b16dc66dd94671964736f6c63430008180033",
  "linkReferences": {},
  "deployedLinkReferences": {}
}