{
  "_format": "hh-sol-artifact-1",
  "contractName": "TokenCreateCustomContract",
  "sourceName": "contracts/system-contracts/hedera-token-service/examples/token-create/TokenCreateCustom.sol",
  "abi": [
    {
      "anonymous": false,
      "inputs": [
        {
          "indexed": false,
          "internalType": "bool",
          "name": "",
          "type": "bool"
        },
        {
          "indexed": false,
          "internalType": "bytes",
          "name": "",
          "type": "bytes"
        }
      ],
      "name": "CallResponseEvent",
      "type": "event"
    },
    {
      "anonymous": false,
      "inputs": [
        {
          "indexed": false,
          "internalType": "address",
          "name": "tokenAddress",
          "type": "address"
        }
      ],
      "name": "CreatedToken",
      "type": "event"
    },
    {
      "anonymous": false,
      "inputs": [
        {
          "indexed": false,
          "internalType": "int64",
          "name": "newTotalSupply",
          "type": "int64"
        },
        {
          "indexed": false,
          "internalType": "int64[]",
          "name": "serialNumbers",
          "type": "int64[]"
        }
      ],
      "name": "MintedToken",
      "type": "event"
    },
    {
      "anonymous": false,
      "inputs": [
        {
          "indexed": false,
          "internalType": "int256",
          "name": "responseCode",
          "type": "int256"
        }
      ],
      "name": "ResponseCode",
      "type": "event"
    },
    {
      "anonymous": false,
      "inputs": [
        {
          "indexed": false,
          "internalType": "address",
          "name": "tokenAddress",
          "type": "address"
        },
        {
          "indexed": false,
          "internalType": "address",
          "name": "receiver",
          "type": "address"
        },
        {
          "indexed": false,
          "internalType": "int64",
          "name": "amount",
          "type": "int64"
        }
      ],
      "name": "TransferToken",
      "type": "event"
    },
    {
      "inputs": [
        {
          "internalType": "address",
          "name": "token",
          "type": "address"
        },
        {
          "internalType": "address",
          "name": "spender",
          "type": "address"
        },
        {
          "internalType": "uint256",
          "name": "amount",
          "type": "uint256"
        }
      ],
      "name": "approvePublic",
      "outputs": [
        {
          "internalType": "int256",
          "name": "responseCode",
          "type": "int256"
        }
      ],
      "stateMutability": "nonpayable",
      "type": "function"
    },
    {
      "inputs": [
        {
          "internalType": "address",
          "name": "account",
          "type": "address"
        },
        {
          "internalType": "address",
          "name": "token",
          "type": "address"
        }
      ],
      "name": "associateTokenPublic",
      "outputs": [
        {
          "internalType": "int256",
          "name": "responseCode",
          "type": "int256"
        }
      ],
      "stateMutability": "nonpayable",
      "type": "function"
    },
    {
      "inputs": [
        {
          "internalType": "address",
          "name": "account",
          "type": "address"
        },
        {
          "internalType": "address[]",
          "name": "tokens",
          "type": "address[]"
        }
      ],
      "name": "associateTokensPublic",
      "outputs": [
        {
          "internalType": "int256",
          "name": "responseCode",
          "type": "int256"
        }
      ],
      "stateMutability": "nonpayable",
      "type": "function"
    },
    {
      "inputs": [
        {
          "internalType": "string",
          "name": "name",
          "type": "string"
        },
        {
          "internalType": "string",
          "name": "symbol",
          "type": "string"
        },
        {
          "internalType": "string",
          "name": "memo",
          "type": "string"
        },
        {
          "internalType": "int64",
          "name": "initialTotalSupply",
          "type": "int64"
        },
        {
          "internalType": "int64",
          "name": "maxSupply",
          "type": "int64"
        },
        {
          "internalType": "int32",
          "name": "decimals",
          "type": "int32"
        },
        {
          "internalType": "bool",
          "name": "freezeDefaultStatus",
          "type": "bool"
        },
        {
          "internalType": "address",
          "name": "treasury",
          "type": "address"
        },
        {
          "components": [
            {
              "internalType": "uint256",
              "name": "keyType",
              "type": "uint256"
            },
            {
              "components": [
                {
                  "internalType": "bool",
                  "name": "inheritAccountKey",
                  "type": "bool"
                },
                {
                  "internalType": "address",
                  "name": "contractId",
                  "type": "address"
                },
                {
                  "internalType": "bytes",
                  "name": "ed25519",
                  "type": "bytes"
                },
                {
                  "internalType": "bytes",
                  "name": "ECDSA_secp256k1",
                  "type": "bytes"
                },
                {
                  "internalType": "address",
                  "name": "delegatableContractId",
                  "type": "address"
                }
              ],
              "internalType": "struct IHederaTokenService.KeyValue",
              "name": "key",
              "type": "tuple"
            }
          ],
          "internalType": "struct IHederaTokenService.TokenKey[]",
          "name": "keys",
          "type": "tuple[]"
        }
      ],
      "name": "createFungibleTokenPublic",
      "outputs": [],
      "stateMutability": "payable",
      "type": "function"
    },
    {
      "inputs": [
        {
          "internalType": "address",
          "name": "treasury",
          "type": "address"
        },
        {
          "internalType": "string",
          "name": "name",
          "type": "string"
        },
        {
          "internalType": "string",
          "name": "symbol",
          "type": "string"
        },
        {
          "internalType": "string",
          "name": "memo",
          "type": "string"
        },
        {
          "internalType": "int64",
          "name": "initialTotalSupply",
          "type": "int64"
        },
        {
          "internalType": "int64",
          "name": "maxSupply",
          "type": "int64"
        },
        {
          "internalType": "int32",
          "name": "decimals",
          "type": "int32"
        },
        {
          "components": [
            {
              "internalType": "int64",
              "name": "amount",
              "type": "int64"
            },
            {
              "internalType": "address",
              "name": "tokenId",
              "type": "address"
            },
            {
              "internalType": "bool",
              "name": "useHbarsForPayment",
              "type": "bool"
            },
            {
              "internalType": "bool",
              "name": "useCurrentTokenForPayment",
              "type": "bool"
            },
            {
              "internalType": "address",
              "name": "feeCollector",
              "type": "address"
            }
          ],
          "internalType": "struct IHederaTokenService.FixedFee[]",
          "name": "fixedFees",
          "type": "tuple[]"
        },
        {
          "components": [
            {
              "internalType": "int64",
              "name": "numerator",
              "type": "int64"
            },
            {
              "internalType": "int64",
              "name": "denominator",
              "type": "int64"
            },
            {
              "internalType": "int64",
              "name": "minimumAmount",
              "type": "int64"
            },
            {
              "internalType": "int64",
              "name": "maximumAmount",
              "type": "int64"
            },
            {
              "internalType": "bool",
              "name": "netOfTransfers",
              "type": "bool"
            },
            {
              "internalType": "address",
              "name": "feeCollector",
              "type": "address"
            }
          ],
          "internalType": "struct IHederaTokenService.FractionalFee[]",
          "name": "fractionalFees",
          "type": "tuple[]"
        },
        {
          "components": [
            {
              "internalType": "uint256",
              "name": "keyType",
              "type": "uint256"
            },
            {
              "components": [
                {
                  "internalType": "bool",
                  "name": "inheritAccountKey",
                  "type": "bool"
                },
                {
                  "internalType": "address",
                  "name": "contractId",
                  "type": "address"
                },
                {
                  "internalType": "bytes",
                  "name": "ed25519",
                  "type": "bytes"
                },
                {
                  "internalType": "bytes",
                  "name": "ECDSA_secp256k1",
                  "type": "bytes"
                },
                {
                  "internalType": "address",
                  "name": "delegatableContractId",
                  "type": "address"
                }
              ],
              "internalType": "struct IHederaTokenService.KeyValue",
              "name": "key",
              "type": "tuple"
            }
          ],
          "internalType": "struct IHederaTokenService.TokenKey[]",
          "name": "keys",
          "type": "tuple[]"
        }
      ],
      "name": "createFungibleTokenWithCustomFeesPublic",
      "outputs": [],
      "stateMutability": "payable",
      "type": "function"
    },
    {
      "inputs": [
        {
          "internalType": "string",
          "name": "name",
          "type": "string"
        },
        {
          "internalType": "string",
          "name": "symbol",
          "type": "string"
        },
        {
          "internalType": "string",
          "name": "memo",
          "type": "string"
        },
        {
          "internalType": "int64",
          "name": "initialTotalSupply",
          "type": "int64"
        },
        {
          "internalType": "int64",
          "name": "maxSupply",
          "type": "int64"
        },
        {
          "internalType": "int32",
          "name": "decimals",
          "type": "int32"
        },
        {
          "internalType": "bool",
          "name": "freezeDefaultStatus",
          "type": "bool"
        },
        {
          "internalType": "address",
          "name": "treasury",
          "type": "address"
        }
      ],
      "name": "createFungibleTokenWithPresetKeys",
      "outputs": [],
      "stateMutability": "payable",
      "type": "function"
    },
    {
      "inputs": [
        {
          "internalType": "string",
          "name": "name",
          "type": "string"
        },
        {
          "internalType": "string",
          "name": "symbol",
          "type": "string"
        },
        {
          "internalType": "string",
          "name": "memo",
          "type": "string"
        },
        {
          "internalType": "int64",
          "name": "maxSupply",
          "type": "int64"
        },
        {
          "internalType": "address",
          "name": "treasury",
          "type": "address"
        },
        {
          "components": [
            {
              "internalType": "uint256",
              "name": "keyType",
              "type": "uint256"
            },
            {
              "components": [
                {
                  "internalType": "bool",
                  "name": "inheritAccountKey",
                  "type": "bool"
                },
                {
                  "internalType": "address",
                  "name": "contractId",
                  "type": "address"
                },
                {
                  "internalType": "bytes",
                  "name": "ed25519",
                  "type": "bytes"
                },
                {
                  "internalType": "bytes",
                  "name": "ECDSA_secp256k1",
                  "type": "bytes"
                },
                {
                  "internalType": "address",
                  "name": "delegatableContractId",
                  "type": "address"
                }
              ],
              "internalType": "struct IHederaTokenService.KeyValue",
              "name": "key",
              "type": "tuple"
            }
          ],
          "internalType": "struct IHederaTokenService.TokenKey[]",
          "name": "keys",
          "type": "tuple[]"
        }
      ],
      "name": "createNonFungibleTokenPublic",
      "outputs": [],
      "stateMutability": "payable",
      "type": "function"
    },
    {
      "inputs": [
        {
          "internalType": "address",
          "name": "treasury",
          "type": "address"
        },
        {
          "internalType": "string",
          "name": "name",
          "type": "string"
        },
        {
          "internalType": "string",
          "name": "symbol",
          "type": "string"
        },
        {
          "internalType": "string",
          "name": "memo",
          "type": "string"
        },
        {
          "internalType": "int64",
          "name": "maxSupply",
          "type": "int64"
        },
        {
          "components": [
            {
              "internalType": "int64",
              "name": "amount",
              "type": "int64"
            },
            {
              "internalType": "address",
              "name": "tokenId",
              "type": "address"
            },
            {
              "internalType": "bool",
              "name": "useHbarsForPayment",
              "type": "bool"
            },
            {
              "internalType": "bool",
              "name": "useCurrentTokenForPayment",
              "type": "bool"
            },
            {
              "internalType": "address",
              "name": "feeCollector",
              "type": "address"
            }
          ],
          "internalType": "struct IHederaTokenService.FixedFee[]",
          "name": "fixedFees",
          "type": "tuple[]"
        },
        {
          "components": [
            {
              "internalType": "int64",
              "name": "numerator",
              "type": "int64"
            },
            {
              "internalType": "int64",
              "name": "denominator",
              "type": "int64"
            },
            {
              "internalType": "int64",
              "name": "amount",
              "type": "int64"
            },
            {
              "internalType": "address",
              "name": "tokenId",
              "type": "address"
            },
            {
              "internalType": "bool",
              "name": "useHbarsForPayment",
              "type": "bool"
            },
            {
              "internalType": "address",
              "name": "feeCollector",
              "type": "address"
            }
          ],
          "internalType": "struct IHederaTokenService.RoyaltyFee[]",
          "name": "royaltyFees",
          "type": "tuple[]"
        },
        {
          "components": [
            {
              "internalType": "uint256",
              "name": "keyType",
              "type": "uint256"
            },
            {
              "components": [
                {
                  "internalType": "bool",
                  "name": "inheritAccountKey",
                  "type": "bool"
                },
                {
                  "internalType": "address",
                  "name": "contractId",
                  "type": "address"
                },
                {
                  "internalType": "bytes",
                  "name": "ed25519",
                  "type": "bytes"
                },
                {
                  "internalType": "bytes",
                  "name": "ECDSA_secp256k1",
                  "type": "bytes"
                },
                {
                  "internalType": "address",
                  "name": "delegatableContractId",
                  "type": "address"
                }
              ],
              "internalType": "struct IHederaTokenService.KeyValue",
              "name": "key",
              "type": "tuple"
            }
          ],
          "internalType": "struct IHederaTokenService.TokenKey[]",
          "name": "keys",
          "type": "tuple[]"
        }
      ],
      "name": "createNonFungibleTokenWithCustomFeesPublic",
      "outputs": [],
      "stateMutability": "payable",
      "type": "function"
    },
    {
      "inputs": [
        {
          "internalType": "address",
          "name": "token",
          "type": "address"
        },
        {
          "internalType": "address",
          "name": "account",
          "type": "address"
        }
      ],
      "name": "grantTokenKycPublic",
      "outputs": [
        {
          "internalType": "int64",
          "name": "responseCode",
          "type": "int64"
        }
      ],
      "stateMutability": "nonpayable",
      "type": "function"
    },
    {
      "inputs": [
        {
          "internalType": "address",
          "name": "token",
          "type": "address"
        },
        {
          "internalType": "address",
          "name": "receiver",
          "type": "address"
        },
        {
          "internalType": "int64",
          "name": "amount",
          "type": "int64"
        },
        {
          "internalType": "bytes[]",
          "name": "metadata",
          "type": "bytes[]"
        }
      ],
      "name": "mintNonFungibleTokenToAddressPublic",
      "outputs": [
        {
          "internalType": "int256",
          "name": "responseCode",
          "type": "int256"
        },
        {
          "internalType": "int64",
          "name": "newTotalSupply",
          "type": "int64"
        },
        {
          "internalType": "int64[]",
          "name": "serialNumbers",
          "type": "int64[]"
        }
      ],
      "stateMutability": "nonpayable",
      "type": "function"
    },
    {
      "inputs": [
        {
          "internalType": "address",
          "name": "token",
          "type": "address"
        },
        {
          "internalType": "int64",
          "name": "amount",
          "type": "int64"
        },
        {
          "internalType": "bytes[]",
          "name": "metadata",
          "type": "bytes[]"
        }
      ],
      "name": "mintTokenPublic",
      "outputs": [
        {
          "internalType": "int256",
          "name": "responseCode",
          "type": "int256"
        },
        {
          "internalType": "int64",
          "name": "newTotalSupply",
          "type": "int64"
        },
        {
          "internalType": "int64[]",
          "name": "serialNumbers",
          "type": "int64[]"
        }
      ],
      "stateMutability": "nonpayable",
      "type": "function"
    },
    {
      "inputs": [
        {
          "internalType": "address",
          "name": "token",
          "type": "address"
        },
        {
          "internalType": "address",
          "name": "receiver",
          "type": "address"
        },
        {
          "internalType": "int64",
          "name": "amount",
          "type": "int64"
        },
        {
          "internalType": "bytes[]",
          "name": "metadata",
          "type": "bytes[]"
        }
      ],
      "name": "mintTokenToAddressPublic",
      "outputs": [
        {
          "internalType": "int256",
          "name": "responseCode",
          "type": "int256"
        },
        {
          "internalType": "int64",
          "name": "newTotalSupply",
          "type": "int64"
        },
        {
          "internalType": "int64[]",
          "name": "serialNumbers",
          "type": "int64[]"
        }
      ],
      "stateMutability": "nonpayable",
      "type": "function"
    },
    {
      "inputs": [
        {
          "internalType": "address",
          "name": "token",
          "type": "address"
        },
        {
          "internalType": "bytes",
          "name": "encodedFunctionSelector",
          "type": "bytes"
        }
      ],
      "name": "redirectForToken",
      "outputs": [
        {
          "internalType": "int256",
          "name": "responseCode",
          "type": "int256"
        },
        {
          "internalType": "bytes",
          "name": "response",
          "type": "bytes"
        }
      ],
      "stateMutability": "nonpayable",
      "type": "function"
    },
    {
      "inputs": [
        {
          "internalType": "address",
          "name": "token",
          "type": "address"
        },
        {
          "internalType": "address",
          "name": "from",
          "type": "address"
        },
        {
          "internalType": "address",
          "name": "to",
          "type": "address"
        },
        {
          "internalType": "uint256",
          "name": "amount",
          "type": "uint256"
        }
      ],
      "name": "transferFrom",
      "outputs": [
        {
          "internalType": "int64",
          "name": "responseCode",
          "type": "int64"
        }
      ],
      "stateMutability": "nonpayable",
      "type": "function"
    },
    {
      "inputs": [
        {
          "internalType": "address",
          "name": "token",
          "type": "address"
        },
        {
          "internalType": "address",
          "name": "from",
          "type": "address"
        },
        {
          "internalType": "address",
          "name": "to",
          "type": "address"
        },
        {
          "internalType": "uint256",
          "name": "serialNumber",
          "type": "uint256"
        }
      ],
      "name": "transferFromNFT",
      "outputs": [
        {
          "internalType": "int64",
          "name": "responseCode",
          "type": "int64"
        }
      ],
      "stateMutability": "nonpayable",
      "type": "function"
    }
  ],
  "bytecode": "0x608060405234801561000f575f80fd5b50600160208181527fa6eef7e35abe7026729641147f7915573c7e97b47efa546f5f6e3230263bcb499190915560027fcc69885fda6bcc1a4ace058b4a62bf5e179ea78fd58a1ccd71c22cc9b688792f5560047fd9d16d34ffb15ba3a3d852f0d403e2ce1d691fb54de27ac87cd2f993f3ec330f5560087f7dfe757ecd65cbd7922a9c0161e935dd7fdbcc0e999689c7d31633896b1fc60b5560107fedc95719e9a3b28dd8e80877cb5880a9be7de1a13fc8b05e7999683b6b567643557fe2689cd4a84e23ad2f564004f1c9013e9589d260bde6380aba3ca7e09e4df40c5560065f5260407f8f331abe73332f95a25873e8b430885974c0409691f89d643119a11623a7924a55612b4d806101235f395ff3fe6080604052600436106100e4575f3560e01c8063618dc65e11610087578063e36f755511610057578063e36f755514610252578063f4a01e5b14610265578063f848fec414610284578063fec394da146102a3575f80fd5b8063618dc65e146101b95780639b23d3d9146101e6578063c827bd3214610205578063de84a77914610233575f80fd5b806315dacbea116100c257806315dacbea1461016157806329fc46e614610180578063424f165e1461019357806355a0d9a3146101a6575f80fd5b80630fd2601e146100e8578063118741e71461011f57806311ba467f1461014c575b5f80fd5b3480156100f3575f80fd5b506101076101023660046116bf565b6102c2565b60405160079190910b81526020015b60405180910390f35b34801561012a575f80fd5b5061013e6101393660046117cd565b61031d565b604051908152602001610116565b61015f61015a366004611929565b61036f565b005b34801561016c575f80fd5b5061010761017b3660046119fd565b6105ce565b61015f61018e366004611ba4565b6106bd565b61015f6101a1366004611c9b565b610739565b61015f6101b4366004611f00565b61080b565b3480156101c4575f80fd5b506101d86101d336600461200d565b6108e1565b6040516101169291906120a7565b3480156101f1575f80fd5b506101076102003660046119fd565b6109f8565b348015610210575f80fd5b5061022461021f366004612142565b610a3c565b604051610116939291906121f0565b34801561023e575f80fd5b5061022461024d36600461221a565b610ad4565b61015f61026036600461234c565b610b6c565b348015610270575f80fd5b5061013e61027f3660046116bf565b610c7e565b34801561028f575f80fd5b5061013e61029e36600461247b565b610c89565b3480156102ae575f80fd5b506102246102bd366004612142565b610ce3565b5f6102cd8383610d05565b604051600782900b81529091507f90a5cf4cffe88b4edbb041cfc7a8a812c48a5ec30b84640fb37690875168e3aa9060200160405180910390a1600781900b601614610317575f80fd5b92915050565b5f6103288383610de3565b90507f90a5cf4cffe88b4edbb041cfc7a8a812c48a5ec30b84640fb37690875168e3aa8160405161035b91815260200190565b60405180910390a160168114610317575f80fd5b60408051600680825260e082019092525f91816020015b61038e61163f565b8152602001906001900390816103865790505090506103be5f60065f60405180602001604052805f815250610e0d565b815f815181106103d0576103d06124b9565b60200260200101819052506103f560015f60405180602001604052805f815250610e44565b81600181518110610408576104086124b9565b602002602001018190525061042d60025f60405180602001604052805f815250610e44565b81600281518110610440576104406124b9565b602002602001018190525061046560035f60405180602001604052805f815250610e44565b81600381518110610478576104786124b9565b602002602001018190525061049d60045f60405180602001604052805f815250610e44565b816004815181106104b0576104b06124b9565b60200260200101819052506104d560055f60405180602001604052805f815250610e44565b816005815181106104e8576104e86124b9565b60209081029190910181019190915260408051606080820183525f8083526001600160a01b038716838601819052627a1200848601528451610120810186528f81529586018e90529385019390935283018a905260016080840152600788900b60a084015285151560c084015260e083018490526101008301819052919080610572838b8a610e79565b909250905060168214610583575f80fd5b6040516001600160a01b03821681527f7bb17726df1f3adee8aa00ba8e8bc5d6f182af3bbf77604639cb7f008dd3b4ed9060200160405180910390a150505050505050505050505050565b6040516001600160a01b038581166024830152848116604483015283166064820152608481018290525f908190819061016790630aed65f560e11b9060a4015b60408051601f198184030181529181526020820180516001600160e01b03166001600160e01b031990941693909317909252905161064c91906124cd565b5f604051808303815f865af19150503d805f8114610685576040519150601f19603f3d011682016040523d82523d5f602084013e61068a565b606091505b50915091508161069b5760156106af565b808060200190518101906106af91906124e8565b60030b979650505050505050565b60408051606080820183525f8083526001600160a01b0386166020808501829052627a1200858701528551610120810187528f81529081018e9052948501529083018a905260016080840152600788900b60a084015285151560c084015260e08301849052610100830182905290919080610572838b8a610e79565b60408051606080820183525f8083526001600160a01b0386166020808501829052627a1200858701528551610120810187528c81529081018b90529485015290830187905260016080840152600786900b60a084015260c0830181905260e083018490526101008301829052909190806107b283610f99565b9092509050601682146107c3575f80fd5b6040516001600160a01b03821681527f7bb17726df1f3adee8aa00ba8e8bc5d6f182af3bbf77604639cb7f008dd3b4ed9060200160405180910390a150505050505050505050565b60408051606080820183525f8083526001600160a01b038c166020808501829052627a1200858701528551610120810187528d81529081018c90529485015290830188905260016080840152600787900b60a084015260c0830181905260e083018490526101008301829052909190806108868388886110a1565b909250905060168214610897575f80fd5b6040516001600160a01b03821681527f7bb17726df1f3adee8aa00ba8e8bc5d6f182af3bbf77604639cb7f008dd3b4ed9060200160405180910390a1505050505050505050505050565b5f60605f806101676001600160a01b031663618dc65e60e01b878760405160240161090d929190612503565b60408051601f198184030181529181526020820180516001600160e01b03166001600160e01b031990941693909317909252905161094b91906124cd565b5f604051808303815f865af19150503d805f8114610984576040519150601f19603f3d011682016040523d82523d5f602084013e610989565b606091505b50915091507f4af4780e06fe8cb9df64b0794fa6f01399af979175bb988e35e0e57e594567bc82826040516109bf929190612524565b60405180910390a1816109e257601560405180602001604052805f8152506109e6565b6016815b60039190910b97909650945050505050565b6040516001600160a01b038581166024830152848116604483015283166064820152608481018290525f908190819061016790639b23d3d960e01b9060a40161060e565b5f806060610a4b878686610ad4565b809350819450829550505050610a7c873088845f81518110610a6f57610a6f6124b9565b602002602001015161110a565b50604080516001600160a01b03898116825288166020820152600787900b8183015290517f215c8eec9aa8fa57cdc8525400a046bf00ff93b20cc529980e01c1ef114fc2289181900360600190a19450945094915050565b5f806060610ae3868686611151565b60405183815292955090935091507f90a5cf4cffe88b4edbb041cfc7a8a812c48a5ec30b84640fb37690875168e3aa9060200160405180910390a160168314610b2a575f80fd5b7ffc6b20023c4bac8ff1c48c1693e0cea5cd3c2163e9c2da41c58f17dd6d9f163d8282604051610b5b92919061253e565b60405180910390a193509350939050565b60408051606080820183525f8083526001600160a01b038e166020808501829052627a1200858701528551610120810187528f81529081018e9052948501529083018a905260016080840152600788900b60a084015260c0830181905260e08301849052610100830182905290919080610be9838b8a8a8a611248565b915091507f90a5cf4cffe88b4edbb041cfc7a8a812c48a5ec30b84640fb37690875168e3aa82604051610c1e91815260200190565b60405180910390a160168214610c32575f80fd5b6040516001600160a01b03821681527f7bb17726df1f3adee8aa00ba8e8bc5d6f182af3bbf77604639cb7f008dd3b4ed9060200160405180910390a15050505050505050505050505050565b5f610328838361136e565b5f610c958484846113a3565b90507f90a5cf4cffe88b4edbb041cfc7a8a812c48a5ec30b84640fb37690875168e3aa81604051610cc891815260200190565b60405180910390a160168114610cdc575f80fd5b9392505050565b5f806060610cf2878686610ad4565b91945092509050610a7c87308888611477565b6040516001600160a01b038381166024830152821660448201525f908190819061016790638f8d7f9960e01b906064015b60408051601f198184030181529181526020820180516001600160e01b03166001600160e01b0319909416939093179092529051610d7491906124cd565b5f604051808303815f865af19150503d805f8114610dad576040519150601f19603f3d011682016040523d82523d5f602084013e610db2565b606091505b509150915081610dc3576015610dd7565b80806020019051810190610dd791906124e8565b60030b95945050505050565b5f805f6101676001600160a01b0316632e63879b60e01b8686604051602401610d36929190612559565b610e1561163f565b6040518060400160405280610e2a87876114be565b8152602001610e3985856114f8565b905295945050505050565b610e4c61163f565b6040518060400160405280610e6086611603565b8152602001610e6f85856114f8565b9052949350505050565b5f80848061010001515f015160070b5f148015610ea057506101008101516040015160070b155b15610eb6576101008101516276a7006040909101525b5f806101676001600160a01b031634630fb65bf360e01b8a8a8a604051602401610ee29392919061276d565b60408051601f198184030181529181526020820180516001600160e01b03166001600160e01b0319909416939093179092529051610f2091906124cd565b5f6040518083038185875af1925050503d805f8114610f5a576040519150601f19603f3d011682016040523d82523d5f602084013e610f5f565b606091505b509150915081610f715760155f610f85565b80806020019051810190610f85919061279b565b60039190910b999098509650505050505050565b5f80828061010001515f015160070b5f148015610fc057506101008101516040015160070b155b15610fd6576101008101516276a7006040909101525b5f806101676001600160a01b03163463ea83f29360e01b88604051602401610ffe91906127c8565b60408051601f198184030181529181526020820180516001600160e01b03166001600160e01b031990941693909317909252905161103c91906124cd565b5f6040518083038185875af1925050503d805f8114611076576040519150601f19603f3d011682016040523d82523d5f602084013e61107b565b606091505b50915091508161108d5760155f6109e6565b808060200190518101906109e6919061279b565b5f80848061010001515f015160070b5f1480156110c857506101008101516040015160070b155b156110de576101008101516276a7006040909101525b5f806101676001600160a01b03163463abb54eb560e01b8a8a8a604051602401610ee293929190612846565b6040516001600160a01b038581166024830152848116604483015283166064820152600782900b60848201525f908190819061016790635cfc901160e01b9060a40161060e565b5f8060605f806101676001600160a01b031663e0f4059a60e01b898989604051602401611180939291906128fd565b60408051601f198184030181529181526020820180516001600160e01b03166001600160e01b03199094169390931790925290516111be91906124cd565b5f604051808303815f865af19150503d805f81146111f7576040519150601f19603f3d011682016040523d82523d5f602084013e6111fc565b606091505b50915091508161121e57604080515f8082526020820190925260159190611232565b80806020019051810190611232919061297a565b60039290920b9a90995090975095505050505050565b5f80868061010001515f015160070b5f14801561126f57506101008101516040015160070b155b15611285576101008101516276a7006040909101525b5f806101676001600160a01b031634632af0c59a60e01b8c8c8c8c8c6040516024016112b5959493929190612a38565b60408051601f198184030181529181526020820180516001600160e01b03166001600160e01b03199094169390931790925290516112f391906124cd565b5f6040518083038185875af1925050503d805f811461132d576040519150601f19603f3d011682016040523d82523d5f602084013e611332565b606091505b5091509150816113445760155f611358565b80806020019051810190611358919061279b565b60039190910b9b909a5098505050505050505050565b6040516001600160a01b038381166024830152821660448201525f90819081906101679063248a35ef60e11b90606401610d36565b604080516001600160a01b03858116602483015284166044820152606480820184905282518083039091018152608490910182526020810180516001600160e01b031663e1f21c6760e01b17905290515f91829182916101679161140791906124cd565b5f604051808303815f865af19150503d805f8114611440576040519150601f19603f3d011682016040523d82523d5f602084013e611445565b606091505b50915091508161145657601561146a565b8080602001905181019061146a91906124e8565b60030b9695505050505050565b6040516001600160a01b038581166024830152848116604483015283166064820152600782900b60848201525f90819081906101679063eca3691760e01b9060a40161060e565b5f6114e18360068111156114d4576114d4612b03565b600160ff9091161b821790565b9050610cdc8260068111156114d4576114d4612b03565b61153b6040518060a001604052805f151581526020015f6001600160a01b0316815260200160608152602001606081526020015f6001600160a01b031681525090565b5f83600481111561154e5761154e612b03565b0361155c5760018152610317565b600183600481111561157057611570612b03565b0361158a575f546001600160a01b03166020820152610317565b600283600481111561159e5761159e612b03565b036115af5760408101829052610317565b60038360048111156115c3576115c3612b03565b036115d45760608101829052610317565b60048360048111156115e8576115e8612b03565b03610317575f546001600160a01b0316608082015292915050565b5f60015f83600681111561161957611619612b03565b600681111561162a5761162a612b03565b81526020019081526020015f20549050919050565b60405180604001604052805f81526020016116936040518060a001604052805f151581526020015f6001600160a01b0316815260200160608152602001606081526020015f6001600160a01b031681525090565b905290565b6001600160a01b03811681146116ac575f80fd5b50565b80356116ba81611698565b919050565b5f80604083850312156116d0575f80fd5b82356116db81611698565b915060208301356116eb81611698565b809150509250929050565b634e487b7160e01b5f52604160045260245ffd5b6040805190810167ffffffffffffffff8111828210171561172d5761172d6116f6565b60405290565b60405160a0810167ffffffffffffffff8111828210171561172d5761172d6116f6565b60405160c0810167ffffffffffffffff8111828210171561172d5761172d6116f6565b604051601f8201601f1916810167ffffffffffffffff811182821017156117a2576117a26116f6565b604052919050565b5f67ffffffffffffffff8211156117c3576117c36116f6565b5060051b60200190565b5f80604083850312156117de575f80fd5b82356117e981611698565b915060208381013567ffffffffffffffff811115611805575f80fd5b8401601f81018613611815575f80fd5b8035611828611823826117aa565b611779565b81815260059190911b82018301908381019088831115611846575f80fd5b928401925b8284101561186d57833561185e81611698565b8252928401929084019061184b565b80955050505050509250929050565b5f82601f83011261188b575f80fd5b813567ffffffffffffffff8111156118a5576118a56116f6565b6118b8601f8201601f1916602001611779565b8181528460208386010111156118cc575f80fd5b816020850160208301375f918101602001919091529392505050565b8060070b81146116ac575f80fd5b80356116ba816118e8565b8060030b81146116ac575f80fd5b80356116ba81611901565b803580151581146116ba575f80fd5b5f805f805f805f80610100898b031215611941575f80fd5b883567ffffffffffffffff80821115611958575f80fd5b6119648c838d0161187c565b995060208b0135915080821115611979575f80fd5b6119858c838d0161187c565b985060408b013591508082111561199a575f80fd5b506119a78b828c0161187c565b9650506119b660608a016118f6565b94506119c460808a016118f6565b93506119d260a08a0161190f565b92506119e060c08a0161191a565b91506119ee60e08a016116af565b90509295985092959890939650565b5f805f8060808587031215611a10575f80fd5b8435611a1b81611698565b93506020850135611a2b81611698565b92506040850135611a3b81611698565b9396929550929360600135925050565b5f82601f830112611a5a575f80fd5b81356020611a6a611823836117aa565b82815260059290921b84018101918181019086841115611a88575f80fd5b8286015b84811015611b9957803567ffffffffffffffff80821115611aab575f80fd5b908801906040601f19838c038101821315611ac4575f80fd5b611acc61170a565b8885013581528285013584811115611ae2575f80fd5b949094019360a0858e0383011215611af8575f80fd5b611b00611733565b9150611b0d89860161191a565b825282850135611b1c81611698565b828a015260608581013585811115611b32575f80fd5b611b408f8c838a010161187c565b8585015250608093508386013585811115611b59575f80fd5b611b678f8c838a010161187c565b82850152505060a08501359450611b7d85611698565b9181019390935280870192909252508352918301918301611a8c565b509695505050505050565b5f805f805f805f805f6101208a8c031215611bbd575f80fd5b893567ffffffffffffffff80821115611bd4575f80fd5b611be08d838e0161187c565b9a5060208c0135915080821115611bf5575f80fd5b611c018d838e0161187c565b995060408c0135915080821115611c16575f80fd5b611c228d838e0161187c565b9850611c3060608d016118f6565b9750611c3e60808d016118f6565b9650611c4c60a08d0161190f565b9550611c5a60c08d0161191a565b9450611c6860e08d016116af565b93506101008c0135915080821115611c7e575f80fd5b50611c8b8c828d01611a4b565b9150509295985092959850929598565b5f805f805f8060c08789031215611cb0575f80fd5b863567ffffffffffffffff80821115611cc7575f80fd5b611cd38a838b0161187c565b97506020890135915080821115611ce8575f80fd5b611cf48a838b0161187c565b96506040890135915080821115611d09575f80fd5b611d158a838b0161187c565b9550611d2360608a016118f6565b9450611d3160808a016116af565b935060a0890135915080821115611d46575f80fd5b50611d5389828a01611a4b565b9150509295509295509295565b5f82601f830112611d6f575f80fd5b81356020611d7f611823836117aa565b82815260a09283028501820192828201919087851115611d9d575f80fd5b8387015b85811015611e1f5781818a031215611db7575f80fd5b611dbf611733565b8135611dca816118e8565b815281860135611dd981611698565b818701526040611dea83820161191a565b908201526060611dfb83820161191a565b90820152608082810135611e0e81611698565b908201528452928401928101611da1565b5090979650505050505050565b5f82601f830112611e3b575f80fd5b81356020611e4b611823836117aa565b82815260c09283028501820192828201919087851115611e69575f80fd5b8387015b85811015611e1f5781818a031215611e83575f80fd5b611e8b611756565b8135611e96816118e8565b815281860135611ea5816118e8565b81870152604082810135611eb8816118e8565b90820152606082810135611ecb81611698565b908201526080611edc83820161191a565b9082015260a082810135611eef81611698565b908201528452928401928101611e6d565b5f805f805f805f80610100898b031215611f18575f80fd5b611f21896116af565b9750602089013567ffffffffffffffff80821115611f3d575f80fd5b611f498c838d0161187c565b985060408b0135915080821115611f5e575f80fd5b611f6a8c838d0161187c565b975060608b0135915080821115611f7f575f80fd5b611f8b8c838d0161187c565b9650611f9960808c016118f6565b955060a08b0135915080821115611fae575f80fd5b611fba8c838d01611d60565b945060c08b0135915080821115611fcf575f80fd5b611fdb8c838d01611e2c565b935060e08b0135915080821115611ff0575f80fd5b50611ffd8b828c01611a4b565b9150509295985092959890939650565b5f806040838503121561201e575f80fd5b823561202981611698565b9150602083013567ffffffffffffffff811115612044575f80fd5b6120508582860161187c565b9150509250929050565b5f5b8381101561207457818101518382015260200161205c565b50505f910152565b5f815180845261209381602086016020860161205a565b601f01601f19169290920160200192915050565b828152604060208201525f6120bf604083018461207c565b949350505050565b5f82601f8301126120d6575f80fd5b813560206120e6611823836117aa565b82815260059290921b84018101918181019086841115612104575f80fd5b8286015b84811015611b9957803567ffffffffffffffff811115612126575f80fd5b6121348986838b010161187c565b845250918301918301612108565b5f805f8060808587031215612155575f80fd5b843561216081611698565b9350602085013561217081611698565b92506040850135612180816118e8565b9150606085013567ffffffffffffffff81111561219b575f80fd5b6121a7878288016120c7565b91505092959194509250565b5f815180845260208085019450602084015f5b838110156121e557815160070b875295820195908201906001016121c6565b509495945050505050565b8381528260070b6020820152606060408201525f61221160608301846121b3565b95945050505050565b5f805f6060848603121561222c575f80fd5b833561223781611698565b92506020840135612247816118e8565b9150604084013567ffffffffffffffff811115612262575f80fd5b61226e868287016120c7565b9150509250925092565b5f82601f830112612287575f80fd5b81356020612297611823836117aa565b82815260c092830285018201928282019190878511156122b5575f80fd5b8387015b85811015611e1f5781818a0312156122cf575f80fd5b6122d7611756565b81356122e2816118e8565b8152818601356122f1816118e8565b81870152604082810135612304816118e8565b90820152606082810135612317816118e8565b90820152608061232883820161191a565b9082015260a08281013561233b81611698565b9082015284529284019281016122b9565b5f805f805f805f805f806101408b8d031215612366575f80fd5b61236f8b6116af565b995060208b013567ffffffffffffffff8082111561238b575f80fd5b6123978e838f0161187c565b9a5060408d01359150808211156123ac575f80fd5b6123b88e838f0161187c565b995060608d01359150808211156123cd575f80fd5b6123d98e838f0161187c565b98506123e760808e016118f6565b97506123f560a08e016118f6565b965061240360c08e0161190f565b955060e08d0135915080821115612418575f80fd5b6124248e838f01611d60565b94506101008d013591508082111561243a575f80fd5b6124468e838f01612278565b93506101208d013591508082111561245c575f80fd5b506124698d828e01611a4b565b9150509295989b9194979a5092959850565b5f805f6060848603121561248d575f80fd5b833561249881611698565b925060208401356124a881611698565b929592945050506040919091013590565b634e487b7160e01b5f52603260045260245ffd5b5f82516124de81846020870161205a565b9190910192915050565b5f602082840312156124f8575f80fd5b8151610cdc81611901565b6001600160a01b0383168152604060208201525f6120bf604083018461207c565b8215158152604060208201525f6120bf604083018461207c565b8260070b8152604060208201525f6120bf60408301846121b3565b5f604082016001600160a01b0380861684526020604060208601528286518085526060870191506020880194505f5b818110156125a6578551851683529483019491830191600101612588565b509098975050505050505050565b5f82825180855260208086019550808260051b8401018186015f5b84811015611e1f57601f198684030189528151604081518552858201519150808686015281511515818601528582015160606001600160a01b038083168289015283850151935060a09250608083818a015261262e60e08a018661207c565b92860151898403603f1901858b015292945061264a858461207c565b9501511660c097909701969096525050988401989250908301906001016125cf565b5f61016082518185526126818286018261207c565b9150506020830151848203602086015261269b828261207c565b91505060408301516126b860408601826001600160a01b03169052565b50606083015184820360608601526126d0828261207c565b91505060808301516126e6608086018215159052565b5060a08301516126fb60a086018260070b9052565b5060c083015161270f60c086018215159052565b5060e083015184820360e086015261272782826125b4565b9150506101008084015161276382870182805160070b82526001600160a01b036020820151166020830152604081015160070b60408301525050565b5090949350505050565b606081525f61277f606083018661266c565b90508360070b60208301528260030b6040830152949350505050565b5f80604083850312156127ac575f80fd5b82516127b781611901565b60208401519092506116eb81611698565b602081525f610cdc602083018461266c565b5f815180845260208085019450602084015f5b838110156121e5578151805160070b8852838101516001600160a01b03908116858a01526040808301511515908a01526060808301511515908a0152608091820151169088015260a090960195908201906001016127ed565b5f6060808352612859606084018761266c565b60208482038186015261286c82886127da565b915060408583036040870152828751808552838501915083890194505f5b818110156128ed5785518051600790810b855286820151810b8786015285820151900b85850152878101516001600160a01b039081168986015260808083015115159086015260a09182015116908401529484019460c09092019160010161288a565b50909a9950505050505050505050565b5f606082016001600160a01b038616835260208560070b60208501526060604085015281855180845260808601915060808160051b8701019350602087015f5b8281101561296b57607f1988870301845261295986835161207c565b9550928401929084019060010161293d565b50939998505050505050505050565b5f805f6060848603121561298c575f80fd5b835161299781611901565b809350506020808501516129aa816118e8565b604086015190935067ffffffffffffffff8111156129c6575f80fd5b8501601f810187136129d6575f80fd5b80516129e4611823826117aa565b81815260059190911b82018301908381019089831115612a02575f80fd5b928401925b82841015612a29578351612a1a816118e8565b82529284019290840190612a07565b80955050505050509250925092565b5f60a0808352612a4b60a084018961266c565b602060078960070b8287015260408960030b604088015260608785036060890152612a76858b6127da565b9450608088860360808a0152858a518088528688019150868c0197505f5b81811015612aee5788518051880b845288810151880b8985015286810151880b8785015285810151880b86850152848101511515858501528a01516001600160a01b03168a8401529787019760c090920191600101612a94565b50909f9e505050505050505050505050505050565b634e487b7160e01b5f52602160045260245ffdfea2646970667358221220319b9a794c33c085c1e2860638d50e0814fecdc5b0313aa3f1bc5286a1f4d99564736f6c63430008180033",
  "linkReferences": {},
  "deployedLinkReferences": {}
}