{
  "_format": "hh-sol-artifact-1",
  "contractName": "TokenCreateCustomContract",
  "sourceName": "contracts/system-contracts/hedera-token-service/examples/token-create/TokenCreateCustom.sol",
  "abi": [
    {
      "anonymous": false,
      "inputs": [
        {
          "indexed": false,
          "internalType": "bool",
          "name": "",
          "type": "bool"
        },
        {
          "indexed": false,
          "internalType": "bytes",
          "name": "",
          "type": "bytes"
        }
      ],
      "name": "CallResponseEvent",
      "type": "event"
    },
    {
      "anonymous": false,
      "inputs": [
        {
          "indexed": false,
          "internalType": "address",
          "name": "tokenAddress",
          "type": "address"
        }
      ],
      "name": "CreatedToken",
      "type": "event"
    },
    {
      "anonymous": false,
      "inputs": [
        {
          "indexed": false,
          "internalType": "int64",
          "name": "newTotalSupply",
          "type": "int64"
        },
        {
          "indexed": false,
          "internalType": "int64[]",
          "name": "serialNumbers",
          "type": "int64[]"
        }
      ],
      "name": "MintedToken",
      "type": "event"
    },
    {
      "anonymous": false,
      "inputs": [
        {
          "indexed": false,
          "internalType": "int256",
          "name": "responseCode",
          "type": "int256"
        }
      ],
      "name": "ResponseCode",
      "type": "event"
    },
    {
      "anonymous": false,
      "inputs": [
        {
          "indexed": false,
          "internalType": "address",
          "name": "tokenAddress",
          "type": "address"
        },
        {
          "indexed": false,
          "internalType": "address",
          "name": "receiver",
          "type": "address"
        },
        {
          "indexed": false,
          "internalType": "int64",
          "name": "amount",
          "type": "int64"
        }
      ],
      "name": "TransferToken",
      "type": "event"
    },
    {
      "inputs": [
        {
          "internalType": "address",
          "name": "token",
          "type": "address"
        },
        {
          "internalType": "address",
          "name": "spender",
          "type": "address"
        },
        {
          "internalType": "uint256",
          "name": "amount",
          "type": "uint256"
        }
      ],
      "name": "approvePublic",
      "outputs": [
        {
          "internalType": "int256",
          "name": "responseCode",
          "type": "int256"
        }
      ],
      "stateMutability": "nonpayable",
      "type": "function"
    },
    {
      "inputs": [
        {
          "internalType": "address",
          "name": "account",
          "type": "address"
        },
        {
          "internalType": "address",
          "name": "token",
          "type": "address"
        }
      ],
      "name": "associateTokenPublic",
      "outputs": [
        {
          "internalType": "int256",
          "name": "responseCode",
          "type": "int256"
        }
      ],
      "stateMutability": "nonpayable",
      "type": "function"
    },
    {
      "inputs": [
        {
          "internalType": "address",
          "name": "account",
          "type": "address"
        },
        {
          "internalType": "address[]",
          "name": "tokens",
          "type": "address[]"
        }
      ],
      "name": "associateTokensPublic",
      "outputs": [
        {
          "internalType": "int256",
          "name": "responseCode",
          "type": "int256"
        }
      ],
      "stateMutability": "nonpayable",
      "type": "function"
    },
    {
      "inputs": [
        {
          "internalType": "string",
          "name": "name",
          "type": "string"
        },
        {
          "internalType": "string",
          "name": "symbol",
          "type": "string"
        },
        {
          "internalType": "string",
          "name": "memo",
          "type": "string"
        },
        {
          "internalType": "int64",
          "name": "initialTotalSupply",
          "type": "int64"
        },
        {
          "internalType": "int64",
          "name": "maxSupply",
          "type": "int64"
        },
        {
          "internalType": "int32",
          "name": "decimals",
          "type": "int32"
        },
        {
          "internalType": "bool",
          "name": "freezeDefaultStatus",
          "type": "bool"
        },
        {
          "internalType": "address",
          "name": "treasury",
          "type": "address"
        },
        {
          "components": [
            {
              "internalType": "uint256",
              "name": "keyType",
              "type": "uint256"
            },
            {
              "components": [
                {
                  "internalType": "bool",
                  "name": "inheritAccountKey",
                  "type": "bool"
                },
                {
                  "internalType": "address",
                  "name": "contractId",
                  "type": "address"
                },
                {
                  "internalType": "bytes",
                  "name": "ed25519",
                  "type": "bytes"
                },
                {
                  "internalType": "bytes",
                  "name": "ECDSA_secp256k1",
                  "type": "bytes"
                },
                {
                  "internalType": "address",
                  "name": "delegatableContractId",
                  "type": "address"
                }
              ],
              "internalType": "struct IHederaTokenService.KeyValue",
              "name": "key",
              "type": "tuple"
            }
          ],
          "internalType": "struct IHederaTokenService.TokenKey[]",
          "name": "keys",
          "type": "tuple[]"
        }
      ],
      "name": "createFungibleTokenPublic",
      "outputs": [],
      "stateMutability": "payable",
      "type": "function"
    },
    {
      "inputs": [
        {
          "internalType": "address",
          "name": "treasury",
          "type": "address"
        },
        {
          "internalType": "string",
          "name": "name",
          "type": "string"
        },
        {
          "internalType": "string",
          "name": "symbol",
          "type": "string"
        },
        {
          "internalType": "string",
          "name": "memo",
          "type": "string"
        },
        {
          "internalType": "int64",
          "name": "initialTotalSupply",
          "type": "int64"
        },
        {
          "internalType": "int64",
          "name": "maxSupply",
          "type": "int64"
        },
        {
          "internalType": "int32",
          "name": "decimals",
          "type": "int32"
        },
        {
          "components": [
            {
              "internalType": "int64",
              "name": "amount",
              "type": "int64"
            },
            {
              "internalType": "address",
              "name": "tokenId",
              "type": "address"
            },
            {
              "internalType": "bool",
              "name": "useHbarsForPayment",
              "type": "bool"
            },
            {
              "internalType": "bool",
              "name": "useCurrentTokenForPayment",
              "type": "bool"
            },
            {
              "internalType": "address",
              "name": "feeCollector",
              "type": "address"
            }
          ],
          "internalType": "struct IHederaTokenService.FixedFee[]",
          "name": "fixedFees",
          "type": "tuple[]"
        },
        {
          "components": [
            {
              "internalType": "int64",
              "name": "numerator",
              "type": "int64"
            },
            {
              "internalType": "int64",
              "name": "denominator",
              "type": "int64"
            },
            {
              "internalType": "int64",
              "name": "minimumAmount",
              "type": "int64"
            },
            {
              "internalType": "int64",
              "name": "maximumAmount",
              "type": "int64"
            },
            {
              "internalType": "bool",
              "name": "netOfTransfers",
              "type": "bool"
            },
            {
              "internalType": "address",
              "name": "feeCollector",
              "type": "address"
            }
          ],
          "internalType": "struct IHederaTokenService.FractionalFee[]",
          "name": "fractionalFees",
          "type": "tuple[]"
        },
        {
          "components": [
            {
              "internalType": "uint256",
              "name": "keyType",
              "type": "uint256"
            },
            {
              "components": [
                {
                  "internalType": "bool",
                  "name": "inheritAccountKey",
                  "type": "bool"
                },
                {
                  "internalType": "address",
                  "name": "contractId",
                  "type": "address"
                },
                {
                  "internalType": "bytes",
                  "name": "ed25519",
                  "type": "bytes"
                },
                {
                  "internalType": "bytes",
                  "name": "ECDSA_secp256k1",
                  "type": "bytes"
                },
                {
                  "internalType": "address",
                  "name": "delegatableContractId",
                  "type": "address"
                }
              ],
              "internalType": "struct IHederaTokenService.KeyValue",
              "name": "key",
              "type": "tuple"
            }
          ],
          "internalType": "struct IHederaTokenService.TokenKey[]",
          "name": "keys",
          "type": "tuple[]"
        }
      ],
      "name": "createFungibleTokenWithCustomFeesPublic",
      "outputs": [],
      "stateMutability": "payable",
      "type": "function"
    },
    {
      "inputs": [
        {
          "internalType": "string",
          "name": "name",
          "type": "string"
        },
        {
          "internalType": "string",
          "name": "symbol",
          "type": "string"
        },
        {
          "internalType": "string",
          "name": "memo",
          "type": "string"
        },
        {
          "internalType": "int64",
          "name": "initialTotalSupply",
          "type": "int64"
        },
        {
          "internalType": "int64",
          "name": "maxSupply",
          "type": "int64"
        },
        {
          "internalType": "int32",
          "name": "decimals",
          "type": "int32"
        },
        {
          "internalType": "bool",
          "name": "freezeDefaultStatus",
          "type": "bool"
        },
        {
          "internalType": "address",
          "name": "treasury",
          "type": "address"
        }
      ],
      "name": "createFungibleTokenWithPresetKeys",
      "outputs": [],
      "stateMutability": "payable",
      "type": "function"
    },
    {
      "inputs": [
        {
          "internalType": "string",
          "name": "name",
          "type": "string"
        },
        {
          "internalType": "string",
          "name": "symbol",
          "type": "string"
        },
        {
          "internalType": "string",
          "name": "memo",
          "type": "string"
        },
        {
          "internalType": "int64",
          "name": "maxSupply",
          "type": "int64"
        },
        {
          "internalType": "address",
          "name": "treasury",
          "type": "address"
        },
        {
          "components": [
            {
              "internalType": "uint256",
              "name": "keyType",
              "type": "uint256"
            },
            {
              "components": [
                {
                  "internalType": "bool",
                  "name": "inheritAccountKey",
                  "type": "bool"
                },
                {
                  "internalType": "address",
                  "name": "contractId",
                  "type": "address"
                },
                {
                  "internalType": "bytes",
                  "name": "ed25519",
                  "type": "bytes"
                },
                {
                  "internalType": "bytes",
                  "name": "ECDSA_secp256k1",
                  "type": "bytes"
                },
                {
                  "internalType": "address",
                  "name": "delegatableContractId",
                  "type": "address"
                }
              ],
              "internalType": "struct IHederaTokenService.KeyValue",
              "name": "key",
              "type": "tuple"
            }
          ],
          "internalType": "struct IHederaTokenService.TokenKey[]",
          "name": "keys",
          "type": "tuple[]"
        }
      ],
      "name": "createNonFungibleTokenPublic",
      "outputs": [],
      "stateMutability": "payable",
      "type": "function"
    },
    {
      "inputs": [
        {
          "internalType": "address",
          "name": "treasury",
          "type": "address"
        },
        {
          "internalType": "string",
          "name": "name",
          "type": "string"
        },
        {
          "internalType": "string",
          "name": "symbol",
          "type": "string"
        },
        {
          "internalType": "string",
          "name": "memo",
          "type": "string"
        },
        {
          "internalType": "int64",
          "name": "maxSupply",
          "type": "int64"
        },
        {
          "components": [
            {
              "internalType": "int64",
              "name": "amount",
              "type": "int64"
            },
            {
              "internalType": "address",
              "name": "tokenId",
              "type": "address"
            },
            {
              "internalType": "bool",
              "name": "useHbarsForPayment",
              "type": "bool"
            },
            {
              "internalType": "bool",
              "name": "useCurrentTokenForPayment",
              "type": "bool"
            },
            {
              "internalType": "address",
              "name": "feeCollector",
              "type": "address"
            }
          ],
          "internalType": "struct IHederaTokenService.FixedFee[]",
          "name": "fixedFees",
          "type": "tuple[]"
        },
        {
          "components": [
            {
              "internalType": "int64",
              "name": "numerator",
              "type": "int64"
            },
            {
              "internalType": "int64",
              "name": "denominator",
              "type": "int64"
            },
            {
              "internalType": "int64",
              "name": "amount",
              "type": "int64"
            },
            {
              "internalType": "address",
              "name": "tokenId",
              "type": "address"
            },
            {
              "internalType": "bool",
              "name": "useHbarsForPayment",
              "type": "bool"
            },
            {
              "internalType": "address",
              "name": "feeCollector",
              "type": "address"
            }
          ],
          "internalType": "struct IHederaTokenService.RoyaltyFee[]",
          "name": "royaltyFees",
          "type": "tuple[]"
        },
        {
          "components": [
            {
              "internalType": "uint256",
              "name": "keyType",
              "type": "uint256"
            },
            {
              "components": [
                {
                  "internalType": "bool",
                  "name": "inheritAccountKey",
                  "type": "bool"
                },
                {
                  "internalType": "address",
                  "name": "contractId",
                  "type": "address"
                },
                {
                  "internalType": "bytes",
                  "name": "ed25519",
                  "type": "bytes"
                },
                {
                  "internalType": "bytes",
                  "name": "ECDSA_secp256k1",
                  "type": "bytes"
                },
                {
                  "internalType": "address",
                  "name": "delegatableContractId",
                  "type": "address"
                }
              ],
              "internalType": "struct IHederaTokenService.KeyValue",
              "name": "key",
              "type": "tuple"
            }
          ],
          "internalType": "struct IHederaTokenService.TokenKey[]",
          "name": "keys",
          "type": "tuple[]"
        }
      ],
      "name": "createNonFungibleTokenWithCustomFeesPublic",
      "outputs": [],
      "stateMutability": "payable",
      "type": "function"
    },
    {
      "inputs": [
        {
          "internalType": "address",
          "name": "token",
          "type": "address"
        },
        {
          "internalType": "address",
          "name": "account",
          "type": "address"
        }
      ],
      "name": "grantTokenKycPublic",
      "outputs": [
        {
          "internalType": "int64",
          "name": "responseCode",
          "type": "int64"
        }
      ],
      "stateMutability": "nonpayable",
      "type": "function"
    },
    {
      "inputs": [
        {
          "internalType": "address",
          "name": "token",
          "type": "address"
        },
        {
          "internalType": "address",
          "name": "receiver",
          "type": "address"
        },
        {
          "internalType": "int64",
          "name": "amount",
          "type": "int64"
        },
        {
          "internalType": "bytes[]",
          "name": "metadata",
          "type": "bytes[]"
        }
      ],
      "name": "mintNonFungibleTokenToAddressPublic",
      "outputs": [
        {
          "internalType": "int256",
          "name": "responseCode",
          "type": "int256"
        },
        {
          "internalType": "int64",
          "name": "newTotalSupply",
          "type": "int64"
        },
        {
          "internalType": "int64[]",
          "name": "serialNumbers",
          "type": "int64[]"
        }
      ],
      "stateMutability": "nonpayable",
      "type": "function"
    },
    {
      "inputs": [
        {
          "internalType": "address",
          "name": "token",
          "type": "address"
        },
        {
          "internalType": "int64",
          "name": "amount",
          "type": "int64"
        },
        {
          "internalType": "bytes[]",
          "name": "metadata",
          "type": "bytes[]"
        }
      ],
      "name": "mintTokenPublic",
      "outputs": [
        {
          "internalType": "int256",
          "name": "responseCode",
          "type": "int256"
        },
        {
          "internalType": "int64",
          "name": "newTotalSupply",
          "type": "int64"
        },
        {
          "internalType": "int64[]",
          "name": "serialNumbers",
          "type": "int64[]"
        }
      ],
      "stateMutability": "nonpayable",
      "type": "function"
    },
    {
      "inputs": [
        {
          "internalType": "address",
          "name": "token",
          "type": "address"
        },
        {
          "internalType": "address",
          "name": "receiver",
          "type": "address"
        },
        {
          "internalType": "int64",
          "name": "amount",
          "type": "int64"
        },
        {
          "internalType": "bytes[]",
          "name": "metadata",
          "type": "bytes[]"
        }
      ],
      "name": "mintTokenToAddressPublic",
      "outputs": [
        {
          "internalType": "int256",
          "name": "responseCode",
          "type": "int256"
        },
        {
          "internalType": "int64",
          "name": "newTotalSupply",
          "type": "int64"
        },
        {
          "internalType": "int64[]",
          "name": "serialNumbers",
          "type": "int64[]"
        }
      ],
      "stateMutability": "nonpayable",
      "type": "function"
    },
    {
      "inputs": [
        {
          "internalType": "address",
          "name": "token",
          "type": "address"
        },
        {
          "internalType": "bytes",
          "name": "encodedFunctionSelector",
          "type": "bytes"
        }
      ],
      "name": "redirectForToken",
      "outputs": [
        {
          "internalType": "int256",
          "name": "responseCode",
          "type": "int256"
        },
        {
          "internalType": "bytes",
          "name": "response",
          "type": "bytes"
        }
      ],
      "stateMutability": "nonpayable",
      "type": "function"
    },
    {
      "inputs": [
        {
          "internalType": "address",
          "name": "token",
          "type": "address"
        },
        {
          "internalType": "address",
          "name": "from",
          "type": "address"
        },
        {
          "internalType": "address",
          "name": "to",
          "type": "address"
        },
        {
          "internalType": "uint256",
          "name": "amount",
          "type": "uint256"
        }
      ],
      "name": "transferFrom",
      "outputs": [
        {
          "internalType": "int64",
          "name": "responseCode",
          "type": "int64"
        }
      ],
      "stateMutability": "nonpayable",
      "type": "function"
    },
    {
      "inputs": [
        {
          "internalType": "address",
          "name": "token",
          "type": "address"
        },
        {
          "internalType": "address",
          "name": "from",
          "type": "address"
        },
        {
          "internalType": "address",
          "name": "to",
          "type": "address"
        },
        {
          "internalType": "uint256",
          "name": "serialNumber",
          "type": "uint256"
        }
      ],
      "name": "transferFromNFT",
      "outputs": [
        {
          "internalType": "int64",
          "name": "responseCode",
          "type": "int64"
        }
      ],
      "stateMutability": "nonpayable",
      "type": "function"
    }
  ],
  "bytecode": "0x60806040526002805460ff1916600117905534801561001c575f80fd5b50600160208181527fa6eef7e35abe7026729641147f7915573c7e97b47efa546f5f6e3230263bcb499190915560027fcc69885fda6bcc1a4ace058b4a62bf5e179ea78fd58a1ccd71c22cc9b688792f5560047fd9d16d34ffb15ba3a3d852f0d403e2ce1d691fb54de27ac87cd2f993f3ec330f5560087f7dfe757ecd65cbd7922a9c0161e935dd7fdbcc0e999689c7d31633896b1fc60b5560107fedc95719e9a3b28dd8e80877cb5880a9be7de1a13fc8b05e7999683b6b567643557fe2689cd4a84e23ad2f564004f1c9013e9589d260bde6380aba3ca7e09e4df40c5560065f5260407f8f331abe73332f95a25873e8b430885974c0409691f89d643119a11623a7924a55612b6b806101305f395ff3fe6080604052600436106100e4575f3560e01c8063618dc65e11610087578063e36f755511610057578063e36f755514610252578063f4a01e5b14610265578063f848fec414610284578063fec394da146102a3575f80fd5b8063618dc65e146101b95780639b23d3d9146101e6578063c827bd3214610205578063de84a77914610233575f80fd5b806315dacbea116100c257806315dacbea1461016157806329fc46e614610180578063424f165e1461019357806355a0d9a3146101a6575f80fd5b80630fd2601e146100e8578063118741e71461011f57806311ba467f1461014c575b5f80fd5b3480156100f3575f80fd5b506101076101023660046116dd565b6102c2565b60405160079190910b81526020015b60405180910390f35b34801561012a575f80fd5b5061013e6101393660046117eb565b61031d565b604051908152602001610116565b61015f61015a366004611947565b61036f565b005b34801561016c575f80fd5b5061010761017b366004611a1b565b6105d4565b61015f61018e366004611bc2565b6106c3565b61015f6101a1366004611cb9565b610745565b61015f6101b4366004611f1e565b61081d565b3480156101c4575f80fd5b506101d86101d336600461202b565b6108f9565b6040516101169291906120c5565b3480156101f1575f80fd5b50610107610200366004611a1b565b610a10565b348015610210575f80fd5b5061022461021f366004612160565b610a54565b6040516101169392919061220e565b34801561023e575f80fd5b5061022461024d366004612238565b610aec565b61015f61026036600461236a565b610b84565b348015610270575f80fd5b5061013e61027f3660046116dd565b610c9c565b34801561028f575f80fd5b5061013e61029e366004612499565b610ca7565b3480156102ae575f80fd5b506102246102bd366004612160565b610d01565b5f6102cd8383610d23565b604051600782900b81529091507f90a5cf4cffe88b4edbb041cfc7a8a812c48a5ec30b84640fb37690875168e3aa9060200160405180910390a1600781900b601614610317575f80fd5b92915050565b5f6103288383610e01565b90507f90a5cf4cffe88b4edbb041cfc7a8a812c48a5ec30b84640fb37690875168e3aa8160405161035b91815260200190565b60405180910390a160168114610317575f80fd5b60408051600680825260e082019092525f91816020015b61038e61165d565b8152602001906001900390816103865790505090506103be5f60065f60405180602001604052805f815250610e2b565b815f815181106103d0576103d06124d7565b60200260200101819052506103f560015f60405180602001604052805f815250610e62565b81600181518110610408576104086124d7565b602002602001018190525061042d60025f60405180602001604052805f815250610e62565b81600281518110610440576104406124d7565b602002602001018190525061046560035f60405180602001604052805f815250610e62565b81600381518110610478576104786124d7565b602002602001018190525061049d60045f60405180602001604052805f815250610e62565b816004815181106104b0576104b06124d7565b60200260200101819052506104d560055f60405180602001604052805f815250610e62565b816005815181106104e8576104e86124d7565b60209081029190910181019190915260408051606080820183525f8083526001600160a01b038716838601819052627a1200848601528451610120810186528f81529586018e90529385019390935283018a905260025460ff1615156080840152600788900b60a084015285151560c084015260e083018490526101008301819052919080610578838b8a610e97565b909250905060168214610589575f80fd5b6040516001600160a01b03821681527f7bb17726df1f3adee8aa00ba8e8bc5d6f182af3bbf77604639cb7f008dd3b4ed9060200160405180910390a150505050505050505050505050565b6040516001600160a01b038581166024830152848116604483015283166064820152608481018290525f908190819061016790630aed65f560e11b9060a4015b60408051601f198184030181529181526020820180516001600160e01b03166001600160e01b031990941693909317909252905161065291906124eb565b5f604051808303815f865af19150503d805f811461068b576040519150601f19603f3d011682016040523d82523d5f602084013e610690565b606091505b5091509150816106a15760156106b5565b808060200190518101906106b59190612506565b60030b979650505050505050565b60408051606080820183525f8083526001600160a01b0386166020808501829052627a1200858701528551610120810187528f81529081018e9052948501529083018a905260025460ff1615156080840152600788900b60a084015285151560c084015260e08301849052610100830182905290919080610578838b8a610e97565b60408051606080820183525f8083526001600160a01b0386166020808501829052627a1200858701528551610120810187528c81529081018b90529485015290830187905260025460ff1615156080840152600786900b60a084015260c0830181905260e083018490526101008301829052909190806107c483610fb7565b9092509050601682146107d5575f80fd5b6040516001600160a01b03821681527f7bb17726df1f3adee8aa00ba8e8bc5d6f182af3bbf77604639cb7f008dd3b4ed9060200160405180910390a150505050505050505050565b60408051606080820183525f8083526001600160a01b038c166020808501829052627a1200858701528551610120810187528d81529081018c90529485015290830188905260025460ff1615156080840152600787900b60a084015260c0830181905260e0830184905261010083018290529091908061089e8388886110bf565b9092509050601682146108af575f80fd5b6040516001600160a01b03821681527f7bb17726df1f3adee8aa00ba8e8bc5d6f182af3bbf77604639cb7f008dd3b4ed9060200160405180910390a1505050505050505050505050565b5f60605f806101676001600160a01b031663618dc65e60e01b8787604051602401610925929190612521565b60408051601f198184030181529181526020820180516001600160e01b03166001600160e01b031990941693909317909252905161096391906124eb565b5f604051808303815f865af19150503d805f811461099c576040519150601f19603f3d011682016040523d82523d5f602084013e6109a1565b606091505b50915091507f4af4780e06fe8cb9df64b0794fa6f01399af979175bb988e35e0e57e594567bc82826040516109d7929190612542565b60405180910390a1816109fa57601560405180602001604052805f8152506109fe565b6016815b60039190910b97909650945050505050565b6040516001600160a01b038581166024830152848116604483015283166064820152608481018290525f908190819061016790639b23d3d960e01b9060a401610614565b5f806060610a63878686610aec565b809350819450829550505050610a94873088845f81518110610a8757610a876124d7565b6020026020010151611128565b50604080516001600160a01b03898116825288166020820152600787900b8183015290517f215c8eec9aa8fa57cdc8525400a046bf00ff93b20cc529980e01c1ef114fc2289181900360600190a19450945094915050565b5f806060610afb86868661116f565b60405183815292955090935091507f90a5cf4cffe88b4edbb041cfc7a8a812c48a5ec30b84640fb37690875168e3aa9060200160405180910390a160168314610b42575f80fd5b7ffc6b20023c4bac8ff1c48c1693e0cea5cd3c2163e9c2da41c58f17dd6d9f163d8282604051610b7392919061255c565b60405180910390a193509350939050565b60408051606080820183525f8083526001600160a01b038e166020808501829052627a1200858701528551610120810187528f81529081018e9052948501529083018a905260025460ff1615156080840152600788900b60a084015260c0830181905260e08301849052610100830182905290919080610c07838b8a8a8a611266565b915091507f90a5cf4cffe88b4edbb041cfc7a8a812c48a5ec30b84640fb37690875168e3aa82604051610c3c91815260200190565b60405180910390a160168214610c50575f80fd5b6040516001600160a01b03821681527f7bb17726df1f3adee8aa00ba8e8bc5d6f182af3bbf77604639cb7f008dd3b4ed9060200160405180910390a15050505050505050505050505050565b5f610328838361138c565b5f610cb38484846113c1565b90507f90a5cf4cffe88b4edbb041cfc7a8a812c48a5ec30b84640fb37690875168e3aa81604051610ce691815260200190565b60405180910390a160168114610cfa575f80fd5b9392505050565b5f806060610d10878686610aec565b91945092509050610a9487308888611495565b6040516001600160a01b038381166024830152821660448201525f908190819061016790638f8d7f9960e01b906064015b60408051601f198184030181529181526020820180516001600160e01b03166001600160e01b0319909416939093179092529051610d9291906124eb565b5f604051808303815f865af19150503d805f8114610dcb576040519150601f19603f3d011682016040523d82523d5f602084013e610dd0565b606091505b509150915081610de1576015610df5565b80806020019051810190610df59190612506565b60030b95945050505050565b5f805f6101676001600160a01b0316632e63879b60e01b8686604051602401610d54929190612577565b610e3361165d565b6040518060400160405280610e4887876114dc565b8152602001610e578585611516565b905295945050505050565b610e6a61165d565b6040518060400160405280610e7e86611621565b8152602001610e8d8585611516565b9052949350505050565b5f80848061010001515f015160070b5f148015610ebe57506101008101516040015160070b155b15610ed4576101008101516276a7006040909101525b5f806101676001600160a01b031634630fb65bf360e01b8a8a8a604051602401610f009392919061278b565b60408051601f198184030181529181526020820180516001600160e01b03166001600160e01b0319909416939093179092529051610f3e91906124eb565b5f6040518083038185875af1925050503d805f8114610f78576040519150601f19603f3d011682016040523d82523d5f602084013e610f7d565b606091505b509150915081610f8f5760155f610fa3565b80806020019051810190610fa391906127b9565b60039190910b999098509650505050505050565b5f80828061010001515f015160070b5f148015610fde57506101008101516040015160070b155b15610ff4576101008101516276a7006040909101525b5f806101676001600160a01b03163463ea83f29360e01b8860405160240161101c91906127e6565b60408051601f198184030181529181526020820180516001600160e01b03166001600160e01b031990941693909317909252905161105a91906124eb565b5f6040518083038185875af1925050503d805f8114611094576040519150601f19603f3d011682016040523d82523d5f602084013e611099565b606091505b5091509150816110ab5760155f6109fe565b808060200190518101906109fe91906127b9565b5f80848061010001515f015160070b5f1480156110e657506101008101516040015160070b155b156110fc576101008101516276a7006040909101525b5f806101676001600160a01b03163463abb54eb560e01b8a8a8a604051602401610f0093929190612864565b6040516001600160a01b038581166024830152848116604483015283166064820152600782900b60848201525f908190819061016790635cfc901160e01b9060a401610614565b5f8060605f806101676001600160a01b031663e0f4059a60e01b89898960405160240161119e9392919061291b565b60408051601f198184030181529181526020820180516001600160e01b03166001600160e01b03199094169390931790925290516111dc91906124eb565b5f604051808303815f865af19150503d805f8114611215576040519150601f19603f3d011682016040523d82523d5f602084013e61121a565b606091505b50915091508161123c57604080515f8082526020820190925260159190611250565b808060200190518101906112509190612998565b60039290920b9a90995090975095505050505050565b5f80868061010001515f015160070b5f14801561128d57506101008101516040015160070b155b156112a3576101008101516276a7006040909101525b5f806101676001600160a01b031634632af0c59a60e01b8c8c8c8c8c6040516024016112d3959493929190612a56565b60408051601f198184030181529181526020820180516001600160e01b03166001600160e01b031990941693909317909252905161131191906124eb565b5f6040518083038185875af1925050503d805f811461134b576040519150601f19603f3d011682016040523d82523d5f602084013e611350565b606091505b5091509150816113625760155f611376565b8080602001905181019061137691906127b9565b60039190910b9b909a5098505050505050505050565b6040516001600160a01b038381166024830152821660448201525f90819081906101679063248a35ef60e11b90606401610d54565b604080516001600160a01b03858116602483015284166044820152606480820184905282518083039091018152608490910182526020810180516001600160e01b031663e1f21c6760e01b17905290515f91829182916101679161142591906124eb565b5f604051808303815f865af19150503d805f811461145e576040519150601f19603f3d011682016040523d82523d5f602084013e611463565b606091505b509150915081611474576015611488565b808060200190518101906114889190612506565b60030b9695505050505050565b6040516001600160a01b038581166024830152848116604483015283166064820152600782900b60848201525f90819081906101679063eca3691760e01b9060a401610614565b5f6114ff8360068111156114f2576114f2612b21565b600160ff9091161b821790565b9050610cfa8260068111156114f2576114f2612b21565b6115596040518060a001604052805f151581526020015f6001600160a01b0316815260200160608152602001606081526020015f6001600160a01b031681525090565b5f83600481111561156c5761156c612b21565b0361157a5760018152610317565b600183600481111561158e5761158e612b21565b036115a8575f546001600160a01b03166020820152610317565b60028360048111156115bc576115bc612b21565b036115cd5760408101829052610317565b60038360048111156115e1576115e1612b21565b036115f25760608101829052610317565b600483600481111561160657611606612b21565b03610317575f546001600160a01b0316608082015292915050565b5f60015f83600681111561163757611637612b21565b600681111561164857611648612b21565b81526020019081526020015f20549050919050565b60405180604001604052805f81526020016116b16040518060a001604052805f151581526020015f6001600160a01b0316815260200160608152602001606081526020015f6001600160a01b031681525090565b905290565b6001600160a01b03811681146116ca575f80fd5b50565b80356116d8816116b6565b919050565b5f80604083850312156116ee575f80fd5b82356116f9816116b6565b91506020830135611709816116b6565b809150509250929050565b634e487b7160e01b5f52604160045260245ffd5b6040805190810167ffffffffffffffff8111828210171561174b5761174b611714565b60405290565b60405160a0810167ffffffffffffffff8111828210171561174b5761174b611714565b60405160c0810167ffffffffffffffff8111828210171561174b5761174b611714565b604051601f8201601f1916810167ffffffffffffffff811182821017156117c0576117c0611714565b604052919050565b5f67ffffffffffffffff8211156117e1576117e1611714565b5060051b60200190565b5f80604083850312156117fc575f80fd5b8235611807816116b6565b915060208381013567ffffffffffffffff811115611823575f80fd5b8401601f81018613611833575f80fd5b8035611846611841826117c8565b611797565b81815260059190911b82018301908381019088831115611864575f80fd5b928401925b8284101561188b57833561187c816116b6565b82529284019290840190611869565b80955050505050509250929050565b5f82601f8301126118a9575f80fd5b813567ffffffffffffffff8111156118c3576118c3611714565b6118d6601f8201601f1916602001611797565b8181528460208386010111156118ea575f80fd5b816020850160208301375f918101602001919091529392505050565b8060070b81146116ca575f80fd5b80356116d881611906565b8060030b81146116ca575f80fd5b80356116d88161191f565b803580151581146116d8575f80fd5b5f805f805f805f80610100898b03121561195f575f80fd5b883567ffffffffffffffff80821115611976575f80fd5b6119828c838d0161189a565b995060208b0135915080821115611997575f80fd5b6119a38c838d0161189a565b985060408b01359150808211156119b8575f80fd5b506119c58b828c0161189a565b9650506119d460608a01611914565b94506119e260808a01611914565b93506119f060a08a0161192d565b92506119fe60c08a01611938565b9150611a0c60e08a016116cd565b90509295985092959890939650565b5f805f8060808587031215611a2e575f80fd5b8435611a39816116b6565b93506020850135611a49816116b6565b92506040850135611a59816116b6565b9396929550929360600135925050565b5f82601f830112611a78575f80fd5b81356020611a88611841836117c8565b82815260059290921b84018101918181019086841115611aa6575f80fd5b8286015b84811015611bb757803567ffffffffffffffff80821115611ac9575f80fd5b908801906040601f19838c038101821315611ae2575f80fd5b611aea611728565b8885013581528285013584811115611b00575f80fd5b949094019360a0858e0383011215611b16575f80fd5b611b1e611751565b9150611b2b898601611938565b825282850135611b3a816116b6565b828a015260608581013585811115611b50575f80fd5b611b5e8f8c838a010161189a565b8585015250608093508386013585811115611b77575f80fd5b611b858f8c838a010161189a565b82850152505060a08501359450611b9b856116b6565b9181019390935280870192909252508352918301918301611aaa565b509695505050505050565b5f805f805f805f805f6101208a8c031215611bdb575f80fd5b893567ffffffffffffffff80821115611bf2575f80fd5b611bfe8d838e0161189a565b9a5060208c0135915080821115611c13575f80fd5b611c1f8d838e0161189a565b995060408c0135915080821115611c34575f80fd5b611c408d838e0161189a565b9850611c4e60608d01611914565b9750611c5c60808d01611914565b9650611c6a60a08d0161192d565b9550611c7860c08d01611938565b9450611c8660e08d016116cd565b93506101008c0135915080821115611c9c575f80fd5b50611ca98c828d01611a69565b9150509295985092959850929598565b5f805f805f8060c08789031215611cce575f80fd5b863567ffffffffffffffff80821115611ce5575f80fd5b611cf18a838b0161189a565b97506020890135915080821115611d06575f80fd5b611d128a838b0161189a565b96506040890135915080821115611d27575f80fd5b611d338a838b0161189a565b9550611d4160608a01611914565b9450611d4f60808a016116cd565b935060a0890135915080821115611d64575f80fd5b50611d7189828a01611a69565b9150509295509295509295565b5f82601f830112611d8d575f80fd5b81356020611d9d611841836117c8565b82815260a09283028501820192828201919087851115611dbb575f80fd5b8387015b85811015611e3d5781818a031215611dd5575f80fd5b611ddd611751565b8135611de881611906565b815281860135611df7816116b6565b818701526040611e08838201611938565b908201526060611e19838201611938565b90820152608082810135611e2c816116b6565b908201528452928401928101611dbf565b5090979650505050505050565b5f82601f830112611e59575f80fd5b81356020611e69611841836117c8565b82815260c09283028501820192828201919087851115611e87575f80fd5b8387015b85811015611e3d5781818a031215611ea1575f80fd5b611ea9611774565b8135611eb481611906565b815281860135611ec381611906565b81870152604082810135611ed681611906565b90820152606082810135611ee9816116b6565b908201526080611efa838201611938565b9082015260a082810135611f0d816116b6565b908201528452928401928101611e8b565b5f805f805f805f80610100898b031215611f36575f80fd5b611f3f896116cd565b9750602089013567ffffffffffffffff80821115611f5b575f80fd5b611f678c838d0161189a565b985060408b0135915080821115611f7c575f80fd5b611f888c838d0161189a565b975060608b0135915080821115611f9d575f80fd5b611fa98c838d0161189a565b9650611fb760808c01611914565b955060a08b0135915080821115611fcc575f80fd5b611fd88c838d01611d7e565b945060c08b0135915080821115611fed575f80fd5b611ff98c838d01611e4a565b935060e08b013591508082111561200e575f80fd5b5061201b8b828c01611a69565b9150509295985092959890939650565b5f806040838503121561203c575f80fd5b8235612047816116b6565b9150602083013567ffffffffffffffff811115612062575f80fd5b61206e8582860161189a565b9150509250929050565b5f5b8381101561209257818101518382015260200161207a565b50505f910152565b5f81518084526120b1816020860160208601612078565b601f01601f19169290920160200192915050565b828152604060208201525f6120dd604083018461209a565b949350505050565b5f82601f8301126120f4575f80fd5b81356020612104611841836117c8565b82815260059290921b84018101918181019086841115612122575f80fd5b8286015b84811015611bb757803567ffffffffffffffff811115612144575f80fd5b6121528986838b010161189a565b845250918301918301612126565b5f805f8060808587031215612173575f80fd5b843561217e816116b6565b9350602085013561218e816116b6565b9250604085013561219e81611906565b9150606085013567ffffffffffffffff8111156121b9575f80fd5b6121c5878288016120e5565b91505092959194509250565b5f815180845260208085019450602084015f5b8381101561220357815160070b875295820195908201906001016121e4565b509495945050505050565b8381528260070b6020820152606060408201525f61222f60608301846121d1565b95945050505050565b5f805f6060848603121561224a575f80fd5b8335612255816116b6565b9250602084013561226581611906565b9150604084013567ffffffffffffffff811115612280575f80fd5b61228c868287016120e5565b9150509250925092565b5f82601f8301126122a5575f80fd5b813560206122b5611841836117c8565b82815260c092830285018201928282019190878511156122d3575f80fd5b8387015b85811015611e3d5781818a0312156122ed575f80fd5b6122f5611774565b813561230081611906565b81528186013561230f81611906565b8187015260408281013561232281611906565b9082015260608281013561233581611906565b908201526080612346838201611938565b9082015260a082810135612359816116b6565b9082015284529284019281016122d7565b5f805f805f805f805f806101408b8d031215612384575f80fd5b61238d8b6116cd565b995060208b013567ffffffffffffffff808211156123a9575f80fd5b6123b58e838f0161189a565b9a5060408d01359150808211156123ca575f80fd5b6123d68e838f0161189a565b995060608d01359150808211156123eb575f80fd5b6123f78e838f0161189a565b985061240560808e01611914565b975061241360a08e01611914565b965061242160c08e0161192d565b955060e08d0135915080821115612436575f80fd5b6124428e838f01611d7e565b94506101008d0135915080821115612458575f80fd5b6124648e838f01612296565b93506101208d013591508082111561247a575f80fd5b506124878d828e01611a69565b9150509295989b9194979a5092959850565b5f805f606084860312156124ab575f80fd5b83356124b6816116b6565b925060208401356124c6816116b6565b929592945050506040919091013590565b634e487b7160e01b5f52603260045260245ffd5b5f82516124fc818460208701612078565b9190910192915050565b5f60208284031215612516575f80fd5b8151610cfa8161191f565b6001600160a01b0383168152604060208201525f6120dd604083018461209a565b8215158152604060208201525f6120dd604083018461209a565b8260070b8152604060208201525f6120dd60408301846121d1565b5f604082016001600160a01b0380861684526020604060208601528286518085526060870191506020880194505f5b818110156125c45785518516835294830194918301916001016125a6565b509098975050505050505050565b5f82825180855260208086019550808260051b8401018186015f5b84811015611e3d57601f198684030189528151604081518552858201519150808686015281511515818601528582015160606001600160a01b038083168289015283850151935060a09250608083818a015261264c60e08a018661209a565b92860151898403603f1901858b0152929450612668858461209a565b9501511660c097909701969096525050988401989250908301906001016125ed565b5f610160825181855261269f8286018261209a565b915050602083015184820360208601526126b9828261209a565b91505060408301516126d660408601826001600160a01b03169052565b50606083015184820360608601526126ee828261209a565b9150506080830151612704608086018215159052565b5060a083015161271960a086018260070b9052565b5060c083015161272d60c086018215159052565b5060e083015184820360e086015261274582826125d2565b9150506101008084015161278182870182805160070b82526001600160a01b036020820151166020830152604081015160070b60408301525050565b5090949350505050565b606081525f61279d606083018661268a565b90508360070b60208301528260030b6040830152949350505050565b5f80604083850312156127ca575f80fd5b82516127d58161191f565b6020840151909250611709816116b6565b602081525f610cfa602083018461268a565b5f815180845260208085019450602084015f5b83811015612203578151805160070b8852838101516001600160a01b03908116858a01526040808301511515908a01526060808301511515908a0152608091820151169088015260a0909601959082019060010161280b565b5f6060808352612877606084018761268a565b60208482038186015261288a82886127f8565b915060408583036040870152828751808552838501915083890194505f5b8181101561290b5785518051600790810b855286820151810b8786015285820151900b85850152878101516001600160a01b039081168986015260808083015115159086015260a09182015116908401529484019460c0909201916001016128a8565b50909a9950505050505050505050565b5f606082016001600160a01b038616835260208560070b60208501526060604085015281855180845260808601915060808160051b8701019350602087015f5b8281101561298957607f1988870301845261297786835161209a565b9550928401929084019060010161295b565b50939998505050505050505050565b5f805f606084860312156129aa575f80fd5b83516129b58161191f565b809350506020808501516129c881611906565b604086015190935067ffffffffffffffff8111156129e4575f80fd5b8501601f810187136129f4575f80fd5b8051612a02611841826117c8565b81815260059190911b82018301908381019089831115612a20575f80fd5b928401925b82841015612a47578351612a3881611906565b82529284019290840190612a25565b80955050505050509250925092565b5f60a0808352612a6960a084018961268a565b602060078960070b8287015260408960030b604088015260608785036060890152612a94858b6127f8565b9450608088860360808a0152858a518088528688019150868c0197505f5b81811015612b0c5788518051880b845288810151880b8985015286810151880b8785015285810151880b86850152848101511515858501528a01516001600160a01b03168a8401529787019760c090920191600101612ab2565b50909f9e505050505050505050505050505050565b634e487b7160e01b5f52602160045260245ffdfea26469706673582212200e1ef617cb2df316ead8f1287166e15db10bb2e54b25f229ad19cd7ce115c4e564736f6c63430008180033",
  "linkReferences": {},
  "deployedLinkReferences": {}
}