{
  "_format": "hh-sol-artifact-1",
  "contractName": "TokenTransferContract",
  "sourceName": "contracts/hts-precompile/examples/token-transfer/TokenTransferContract.sol",
  "abi": [
    {
      "anonymous": false,
      "inputs": [
        {
          "indexed": false,
          "internalType": "int256",
          "name": "responseCode",
          "type": "int256"
        }
      ],
      "name": "ResponseCode",
      "type": "event"
    },
    {
      "inputs": [
        {
          "components": [
            {
              "components": [
                {
                  "internalType": "address",
                  "name": "accountID",
                  "type": "address"
                },
                {
                  "internalType": "int64",
                  "name": "amount",
                  "type": "int64"
                },
                {
                  "internalType": "bool",
                  "name": "isApproval",
                  "type": "bool"
                }
              ],
              "internalType": "struct IHederaTokenService.AccountAmount[]",
              "name": "transfers",
              "type": "tuple[]"
            }
          ],
          "internalType": "struct IHederaTokenService.TransferList",
          "name": "transferList",
          "type": "tuple"
        },
        {
          "components": [
            {
              "internalType": "address",
              "name": "token",
              "type": "address"
            },
            {
              "components": [
                {
                  "internalType": "address",
                  "name": "accountID",
                  "type": "address"
                },
                {
                  "internalType": "int64",
                  "name": "amount",
                  "type": "int64"
                },
                {
                  "internalType": "bool",
                  "name": "isApproval",
                  "type": "bool"
                }
              ],
              "internalType": "struct IHederaTokenService.AccountAmount[]",
              "name": "transfers",
              "type": "tuple[]"
            },
            {
              "components": [
                {
                  "internalType": "address",
                  "name": "senderAccountID",
                  "type": "address"
                },
                {
                  "internalType": "address",
                  "name": "receiverAccountID",
                  "type": "address"
                },
                {
                  "internalType": "int64",
                  "name": "serialNumber",
                  "type": "int64"
                },
                {
                  "internalType": "bool",
                  "name": "isApproval",
                  "type": "bool"
                }
              ],
              "internalType": "struct IHederaTokenService.NftTransfer[]",
              "name": "nftTransfers",
              "type": "tuple[]"
            }
          ],
          "internalType": "struct IHederaTokenService.TokenTransferList[]",
          "name": "tokenTransferList",
          "type": "tuple[]"
        }
      ],
      "name": "cryptoTransferPublic",
      "outputs": [
        {
          "internalType": "int256",
          "name": "responseCode",
          "type": "int256"
        }
      ],
      "stateMutability": "nonpayable",
      "type": "function"
    },
    {
      "inputs": [
        {
          "internalType": "address",
          "name": "token",
          "type": "address"
        }
      ],
      "name": "getTokenExpiryInfo",
      "outputs": [
        {
          "internalType": "int256",
          "name": "responseCode",
          "type": "int256"
        },
        {
          "components": [
            {
              "internalType": "uint32",
              "name": "second",
              "type": "uint32"
            },
            {
              "internalType": "address",
              "name": "autoRenewAccount",
              "type": "address"
            },
            {
              "internalType": "uint32",
              "name": "autoRenewPeriod",
              "type": "uint32"
            }
          ],
          "internalType": "struct IHederaTokenService.Expiry",
          "name": "expiryInfo",
          "type": "tuple"
        }
      ],
      "stateMutability": "nonpayable",
      "type": "function"
    },
    {
      "inputs": [
        {
          "internalType": "address",
          "name": "token",
          "type": "address"
        },
        {
          "internalType": "address",
          "name": "account",
          "type": "address"
        }
      ],
      "name": "grantTokenKyc",
      "outputs": [
        {
          "internalType": "int64",
          "name": "responseCode",
          "type": "int64"
        }
      ],
      "stateMutability": "nonpayable",
      "type": "function"
    },
    {
      "inputs": [
        {
          "internalType": "address",
          "name": "token",
          "type": "address"
        },
        {
          "internalType": "address",
          "name": "account",
          "type": "address"
        }
      ],
      "name": "isKyc",
      "outputs": [
        {
          "internalType": "int64",
          "name": "responseCode",
          "type": "int64"
        },
        {
          "internalType": "bool",
          "name": "kycGranted",
          "type": "bool"
        }
      ],
      "stateMutability": "nonpayable",
      "type": "function"
    },
    {
      "inputs": [
        {
          "internalType": "address",
          "name": "token",
          "type": "address"
        }
      ],
      "name": "pauseToken",
      "outputs": [
        {
          "internalType": "int256",
          "name": "responseCode",
          "type": "int256"
        }
      ],
      "stateMutability": "nonpayable",
      "type": "function"
    },
    {
      "inputs": [
        {
          "internalType": "address",
          "name": "token",
          "type": "address"
        },
        {
          "internalType": "address",
          "name": "account",
          "type": "address"
        }
      ],
      "name": "revokeTokenKyc",
      "outputs": [
        {
          "internalType": "int64",
          "name": "responseCode",
          "type": "int64"
        }
      ],
      "stateMutability": "nonpayable",
      "type": "function"
    },
    {
      "inputs": [
        {
          "internalType": "address",
          "name": "token",
          "type": "address"
        },
        {
          "internalType": "address",
          "name": "from",
          "type": "address"
        },
        {
          "internalType": "address",
          "name": "to",
          "type": "address"
        },
        {
          "internalType": "uint256",
          "name": "amount",
          "type": "uint256"
        }
      ],
      "name": "transferFrom",
      "outputs": [
        {
          "internalType": "int64",
          "name": "responseCode",
          "type": "int64"
        }
      ],
      "stateMutability": "nonpayable",
      "type": "function"
    },
    {
      "inputs": [
        {
          "internalType": "address",
          "name": "token",
          "type": "address"
        },
        {
          "internalType": "address",
          "name": "from",
          "type": "address"
        },
        {
          "internalType": "address",
          "name": "to",
          "type": "address"
        },
        {
          "internalType": "uint256",
          "name": "serialNumber",
          "type": "uint256"
        }
      ],
      "name": "transferFromNFT",
      "outputs": [
        {
          "internalType": "int64",
          "name": "responseCode",
          "type": "int64"
        }
      ],
      "stateMutability": "nonpayable",
      "type": "function"
    },
    {
      "inputs": [
        {
          "internalType": "address",
          "name": "token",
          "type": "address"
        },
        {
          "internalType": "address",
          "name": "from",
          "type": "address"
        },
        {
          "internalType": "address",
          "name": "to",
          "type": "address"
        },
        {
          "internalType": "uint256",
          "name": "serialNumber",
          "type": "uint256"
        }
      ],
      "name": "transferFromNFTPublic",
      "outputs": [
        {
          "internalType": "int64",
          "name": "responseCode",
          "type": "int64"
        }
      ],
      "stateMutability": "nonpayable",
      "type": "function"
    },
    {
      "inputs": [
        {
          "internalType": "address",
          "name": "token",
          "type": "address"
        },
        {
          "internalType": "address",
          "name": "from",
          "type": "address"
        },
        {
          "internalType": "address",
          "name": "to",
          "type": "address"
        },
        {
          "internalType": "uint256",
          "name": "amount",
          "type": "uint256"
        }
      ],
      "name": "transferFromPublic",
      "outputs": [
        {
          "internalType": "int64",
          "name": "responseCode",
          "type": "int64"
        }
      ],
      "stateMutability": "nonpayable",
      "type": "function"
    },
    {
      "inputs": [
        {
          "internalType": "address",
          "name": "token",
          "type": "address"
        },
        {
          "internalType": "address",
          "name": "sender",
          "type": "address"
        },
        {
          "internalType": "address",
          "name": "receiver",
          "type": "address"
        },
        {
          "internalType": "int64",
          "name": "serialNumber",
          "type": "int64"
        }
      ],
      "name": "transferNFTPublic",
      "outputs": [
        {
          "internalType": "int256",
          "name": "responseCode",
          "type": "int256"
        }
      ],
      "stateMutability": "nonpayable",
      "type": "function"
    },
    {
      "inputs": [
        {
          "internalType": "address",
          "name": "token",
          "type": "address"
        },
        {
          "internalType": "address[]",
          "name": "sender",
          "type": "address[]"
        },
        {
          "internalType": "address[]",
          "name": "receiver",
          "type": "address[]"
        },
        {
          "internalType": "int64[]",
          "name": "serialNumber",
          "type": "int64[]"
        }
      ],
      "name": "transferNFTsPublic",
      "outputs": [
        {
          "internalType": "int256",
          "name": "responseCode",
          "type": "int256"
        }
      ],
      "stateMutability": "nonpayable",
      "type": "function"
    },
    {
      "inputs": [
        {
          "internalType": "address",
          "name": "token",
          "type": "address"
        },
        {
          "internalType": "address",
          "name": "sender",
          "type": "address"
        },
        {
          "internalType": "address",
          "name": "receiver",
          "type": "address"
        },
        {
          "internalType": "int64",
          "name": "amount",
          "type": "int64"
        }
      ],
      "name": "transferTokenPublic",
      "outputs": [
        {
          "internalType": "int256",
          "name": "responseCode",
          "type": "int256"
        }
      ],
      "stateMutability": "nonpayable",
      "type": "function"
    },
    {
      "inputs": [
        {
          "internalType": "address",
          "name": "token",
          "type": "address"
        },
        {
          "internalType": "address[]",
          "name": "accountId",
          "type": "address[]"
        },
        {
          "internalType": "int64[]",
          "name": "amount",
          "type": "int64[]"
        }
      ],
      "name": "transferTokensPublic",
      "outputs": [
        {
          "internalType": "int256",
          "name": "responseCode",
          "type": "int256"
        }
      ],
      "stateMutability": "nonpayable",
      "type": "function"
    },
    {
      "inputs": [
        {
          "internalType": "address",
          "name": "token",
          "type": "address"
        }
      ],
      "name": "unpauseToken",
      "outputs": [
        {
          "internalType": "int256",
          "name": "responseCode",
          "type": "int256"
        }
      ],
      "stateMutability": "nonpayable",
      "type": "function"
    },
    {
      "inputs": [
        {
          "internalType": "address",
          "name": "token",
          "type": "address"
        },
        {
          "components": [
            {
              "internalType": "uint32",
              "name": "second",
              "type": "uint32"
            },
            {
              "internalType": "address",
              "name": "autoRenewAccount",
              "type": "address"
            },
            {
              "internalType": "uint32",
              "name": "autoRenewPeriod",
              "type": "uint32"
            }
          ],
          "internalType": "struct IHederaTokenService.Expiry",
          "name": "expiryInfo",
          "type": "tuple"
        }
      ],
      "name": "updateTokenExpiryInfo",
      "outputs": [
        {
          "internalType": "int256",
          "name": "responseCode",
          "type": "int256"
        }
      ],
      "stateMutability": "nonpayable",
      "type": "function"
    },
    {
      "inputs": [
        {
          "internalType": "address",
          "name": "token",
          "type": "address"
        },
        {
          "components": [
            {
              "internalType": "string",
              "name": "name",
              "type": "string"
            },
            {
              "internalType": "string",
              "name": "symbol",
              "type": "string"
            },
            {
              "internalType": "address",
              "name": "treasury",
              "type": "address"
            },
            {
              "internalType": "string",
              "name": "memo",
              "type": "string"
            },
            {
              "internalType": "bool",
              "name": "tokenSupplyType",
              "type": "bool"
            },
            {
              "internalType": "int64",
              "name": "maxSupply",
              "type": "int64"
            },
            {
              "internalType": "bool",
              "name": "freezeDefault",
              "type": "bool"
            },
            {
              "components": [
                {
                  "internalType": "uint256",
                  "name": "keyType",
                  "type": "uint256"
                },
                {
                  "components": [
                    {
                      "internalType": "bool",
                      "name": "inheritAccountKey",
                      "type": "bool"
                    },
                    {
                      "internalType": "address",
                      "name": "contractId",
                      "type": "address"
                    },
                    {
                      "internalType": "bytes",
                      "name": "ed25519",
                      "type": "bytes"
                    },
                    {
                      "internalType": "bytes",
                      "name": "ECDSA_secp256k1",
                      "type": "bytes"
                    },
                    {
                      "internalType": "address",
                      "name": "delegatableContractId",
                      "type": "address"
                    }
                  ],
                  "internalType": "struct IHederaTokenService.KeyValue",
                  "name": "key",
                  "type": "tuple"
                }
              ],
              "internalType": "struct IHederaTokenService.TokenKey[]",
              "name": "tokenKeys",
              "type": "tuple[]"
            },
            {
              "components": [
                {
                  "internalType": "uint32",
                  "name": "second",
                  "type": "uint32"
                },
                {
                  "internalType": "address",
                  "name": "autoRenewAccount",
                  "type": "address"
                },
                {
                  "internalType": "uint32",
                  "name": "autoRenewPeriod",
                  "type": "uint32"
                }
              ],
              "internalType": "struct IHederaTokenService.Expiry",
              "name": "expiry",
              "type": "tuple"
            }
          ],
          "internalType": "struct IHederaTokenService.HederaToken",
          "name": "tokenInfo",
          "type": "tuple"
        }
      ],
      "name": "updateTokenInfo",
      "outputs": [
        {
          "internalType": "int256",
          "name": "responseCode",
          "type": "int256"
        }
      ],
      "stateMutability": "nonpayable",
      "type": "function"
    }
  ],
  "bytecode": "0x608060405234801561001057600080fd5b50600160208181527fa6eef7e35abe7026729641147f7915573c7e97b47efa546f5f6e3230263bcb499190915560027fcc69885fda6bcc1a4ace058b4a62bf5e179ea78fd58a1ccd71c22cc9b688792f5560047fd9d16d34ffb15ba3a3d852f0d403e2ce1d691fb54de27ac87cd2f993f3ec330f5560087f7dfe757ecd65cbd7922a9c0161e935dd7fdbcc0e999689c7d31633896b1fc60b5560107fedc95719e9a3b28dd8e80877cb5880a9be7de1a13fc8b05e7999683b6b567643557fe2689cd4a84e23ad2f564004f1c9013e9589d260bde6380aba3ca7e09e4df40c55600660005260407f8f331abe73332f95a25873e8b430885974c0409691f89d643119a11623a7924a55611dd0806101276000396000f3fe608060405234801561001057600080fd5b506004361061010b5760003560e01c80637c41ad2c116100a25780639b23d3d9116100715780639b23d3d91461021a578063af99c6331461022d578063cc2528f014610240578063d614cdb814610253578063f2c31ff41461027457600080fd5b80637c41ad2c146101ce578063842b71db146101e15780638f8d7f99146101f4578063970e23d21461020757600080fd5b806358131551116100de5780635813155114610182578063593d6e82146101955780636c40a777146101a85780636da6b1f0146101bb57600080fd5b806315dacbea1461011057806318370d341461013b5780633b3bff0f1461015c5780634ba670351461016f575b600080fd5b61012361011e366004610c38565b6102a1565b60405160079190910b81526020015b60405180910390f35b61014e61014936600461101a565b610395565b604051908152602001610132565b61014e61016a366004611162565b610472565b61014e61017d36600461117f565b61054c565b61014e6101903660046112a3565b6105aa565b61014e6101a3366004611319565b610606565b6101236101b6366004610c38565b610632565b61014e6101c936600461117f565b610711565b61014e6101dc366004611162565b61071f565b6101236101ef366004610c38565b61074d565b61012361020236600461134f565b610793565b61014e610215366004611388565b6107c9565b610123610228366004610c38565b6107e6565b61012361023b36600461134f565b61082b565b61014e61024e36600461142a565b610861565b610266610261366004611162565b61086f565b6040516101329291906114c5565b61028761028236600461134f565b610979565b6040805160079390930b8352901515602083015201610132565b6040516001600160a01b038581166024830152848116604483015283166064820152608481018290526000908190819061016790630aed65f560e11b9060a4015b60408051601f198184030181529181526020820180516001600160e01b03166001600160e01b0319909416939093179092529051610320919061152f565b6000604051808303816000865af19150503d806000811461035d576040519150601f19603f3d011682016040523d82523d6000602084013e610362565b606091505b509150915081610373576015610387565b80806020019051810190610387919061155d565b60030b979650505050505050565b60008060006101676001600160a01b03166318370d3460e01b86866040516024016103c1929190611668565b60408051601f198184030181529181526020820180516001600160e01b03166001600160e01b03199094169390931790925290516103ff919061152f565b6000604051808303816000865af19150503d806000811461043c576040519150601f19603f3d011682016040523d82523d6000602084013e610441565b606091505b509150915081610452576015610466565b80806020019051810190610466919061155d565b60030b95945050505050565b6040516001600160a01b03821660248201526000908190819061016790633b3bff0f60e01b906044015b60408051601f198184030181529181526020820180516001600160e01b03166001600160e01b03199094169390931790925290516104da919061152f565b6000604051808303816000865af19150503d8060008114610517576040519150601f19603f3d011682016040523d82523d6000602084013e61051c565b606091505b50915091508161052d576015610541565b80806020019051810190610541919061155d565b60030b949350505050565b600061055a85858585610a44565b90507f90a5cf4cffe88b4edbb041cfc7a8a812c48a5ec30b84640fb37690875168e3aa8160405161058d91815260200190565b60405180910390a1601681146105a257600080fd5b949350505050565b60006105b7848484610a8c565b90507f90a5cf4cffe88b4edbb041cfc7a8a812c48a5ec30b84640fb37690875168e3aa816040516105ea91815260200190565b60405180910390a1601681146105ff57600080fd5b9392505050565b60008060006101676001600160a01b031663593d6e8260e01b86866040516024016103c1929190611795565b604051639b23d3d960e01b81526001600160a01b038086166004830152808516602483015283166044820152606481018290526000903090639b23d3d9906084015b602060405180830381600087803b15801561068e57600080fd5b505af11580156106a2573d6000803e3d6000fd5b505050506040513d601f19601f820116820180604052508101906106c691906117d8565b604051600782900b81529091507f90a5cf4cffe88b4edbb041cfc7a8a812c48a5ec30b84640fb37690875168e3aa9060200160405180910390a1600781900b6016146105a257600080fd5b600061055a85858585610b6c565b6040516001600160a01b03821660248201526000908190819061016790631f106b4b60e21b9060440161049c565b604051630aed65f560e11b81526001600160a01b0380861660048301528085166024830152831660448201526064810182905260009030906315dacbea90608401610674565b6040516001600160a01b038381166024830152821660448201526000908190819061016790638f8d7f9960e01b906064016103c1565b60006105b76107d7856118a4565b6107e18486611905565b610bb4565b6040516001600160a01b038581166024830152848116604483015283166064820152608481018290526000908190819061016790639b23d3d960e01b9060a4016102e2565b6040516001600160a01b03838116602483015282166044820152600090819081906101679063af99c63360e01b906064016103c1565b600061055a85858585610be0565b604080516060810182526000808252602080830182905282840182905283516001600160a01b038616602480830191909152855180830390910181526044909101855290810180516001600160e01b0316631ac299b760e31b1790529251909283918291610167916108e1919061152f565b6000604051808303816000865af19150503d806000811461091e576040519150601f19603f3d011682016040523d82523d6000602084013e610923565b606091505b50604080516060810182526000808252602082018190529181019190915291935091508261095357601581610967565b818060200190518101906109679190611a9a565b60039190910b97909650945050505050565b604080516001600160a01b038481166024830152831660448083019190915282518083039091018152606490910182526020810180516001600160e01b0316633cb0c7fd60e21b1790529051600091829182918291610167916109db9161152f565b6000604051808303816000865af19150503d8060008114610a18576040519150601f19603f3d011682016040523d82523d6000602084013e610a1d565b606091505b509150915081610a305760156000610967565b808060200190518101906109679190611b15565b6040516001600160a01b038581166024830152848116604483015283166064820152600782900b6084820152600090819081906101679063eca3691760e01b9060a4016102e2565b60008060006101676001600160a01b03166382bba49360e01b878787604051602401610aba93929190611bb8565b60408051601f198184030181529181526020820180516001600160e01b03166001600160e01b0319909416939093179092529051610af8919061152f565b6000604051808303816000865af19150503d8060008114610b35576040519150601f19603f3d011682016040523d82523d6000602084013e610b3a565b606091505b509150915081610b4b576015610b5f565b80806020019051810190610b5f919061155d565b60030b9695505050505050565b6040516001600160a01b038581166024830152848116604483015283166064820152600782900b60848201526000908190819061016790635cfc901160e01b9060a4016102e2565b60008060006101676001600160a01b0316630e71804f60e01b86866040516024016103c1929190611c4a565b60008060006101676001600160a01b0316632c4ba19160e01b888888886040516024016102e29493929190611d47565b6001600160a01b0381168114610c2557600080fd5b50565b8035610c3381610c10565b919050565b60008060008060808587031215610c4e57600080fd5b8435610c5981610c10565b93506020850135610c6981610c10565b92506040850135610c7981610c10565b9396929550929360600135925050565b634e487b7160e01b600052604160045260246000fd5b6040805190810167ffffffffffffffff81118282101715610cc257610cc2610c89565b60405290565b60405160a0810167ffffffffffffffff81118282101715610cc257610cc2610c89565b6040516060810167ffffffffffffffff81118282101715610cc257610cc2610c89565b604051610120810167ffffffffffffffff81118282101715610cc257610cc2610c89565b6040516080810167ffffffffffffffff81118282101715610cc257610cc2610c89565b604051601f8201601f1916810167ffffffffffffffff81118282101715610d7e57610d7e610c89565b604052919050565b600082601f830112610d9757600080fd5b813567ffffffffffffffff811115610db157610db1610c89565b610dc4601f8201601f1916602001610d55565b818152846020838601011115610dd957600080fd5b816020850160208301376000918101602001919091529392505050565b8015158114610c2557600080fd5b8035610c3381610df6565b8060070b8114610c2557600080fd5b8035610c3381610e0f565b600067ffffffffffffffff821115610e4357610e43610c89565b5060051b60200190565b600082601f830112610e5e57600080fd5b81356020610e73610e6e83610e29565b610d55565b82815260059290921b84018101918181019086841115610e9257600080fd5b8286015b84811015610fa857803567ffffffffffffffff80821115610eb657600080fd5b908801906040601f19838c038101821315610ed057600080fd5b610ed8610c9f565b8885013581528285013584811115610eef57600080fd5b949094019360a0858e0383011215610f075760008081fd5b610f0f610cc8565b915088850135610f1e81610df6565b825284830135610f2d81610c10565b828a015260608581013585811115610f455760008081fd5b610f538f8c838a0101610d86565b8585015250608093508386013585811115610f6e5760008081fd5b610f7c8f8c838a0101610d86565b828501525050610f8e60a08601610c28565b928201929092528188015285525050918301918301610e96565b509695505050505050565b63ffffffff81168114610c2557600080fd5b600060608284031215610fd757600080fd5b610fdf610ceb565b90508135610fec81610fb3565b81526020820135610ffc81610c10565b6020820152604082013561100f81610fb3565b604082015292915050565b6000806040838503121561102d57600080fd5b823561103881610c10565b9150602083013567ffffffffffffffff8082111561105557600080fd5b90840190610160828703121561106a57600080fd5b611072610d0e565b82358281111561108157600080fd5b61108d88828601610d86565b8252506020830135828111156110a257600080fd5b6110ae88828601610d86565b6020830152506110c060408401610c28565b60408201526060830135828111156110d757600080fd5b6110e388828601610d86565b6060830152506110f560808401610e04565b608082015261110660a08401610e1e565b60a082015261111760c08401610e04565b60c082015260e08301358281111561112e57600080fd5b61113a88828601610e4d565b60e083015250610100915061115187838501610fc5565b828201528093505050509250929050565b60006020828403121561117457600080fd5b81356105ff81610c10565b6000806000806080858703121561119557600080fd5b84356111a081610c10565b935060208501356111b081610c10565b925060408501356111c081610c10565b915060608501356111d081610e0f565b939692955090935050565b600082601f8301126111ec57600080fd5b813560206111fc610e6e83610e29565b82815260059290921b8401810191818101908684111561121b57600080fd5b8286015b84811015610fa857803561123281610c10565b835291830191830161121f565b600082601f83011261125057600080fd5b81356020611260610e6e83610e29565b82815260059290921b8401810191818101908684111561127f57600080fd5b8286015b84811015610fa857803561129681610e0f565b8352918301918301611283565b6000806000606084860312156112b857600080fd5b83356112c381610c10565b9250602084013567ffffffffffffffff808211156112e057600080fd5b6112ec878388016111db565b9350604086013591508082111561130257600080fd5b5061130f8682870161123f565b9150509250925092565b6000806080838503121561132c57600080fd5b823561133781610c10565b91506113468460208501610fc5565b90509250929050565b6000806040838503121561136257600080fd5b823561136d81610c10565b9150602083013561137d81610c10565b809150509250929050565b60008060006040848603121561139d57600080fd5b833567ffffffffffffffff808211156113b557600080fd5b90850190602082880312156113c957600080fd5b909350602085013590808211156113df57600080fd5b818601915086601f8301126113f357600080fd5b81358181111561140257600080fd5b8760208260051b850101111561141757600080fd5b6020830194508093505050509250925092565b6000806000806080858703121561144057600080fd5b843561144b81610c10565b9350602085013567ffffffffffffffff8082111561146857600080fd5b611474888389016111db565b9450604087013591508082111561148a57600080fd5b611496888389016111db565b935060608701359150808211156114ac57600080fd5b506114b98782880161123f565b91505092959194509250565b828152608081016105ff6020830184805163ffffffff90811683526020808301516001600160a01b03169084015260409182015116910152565b60005b8381101561151a578181015183820152602001611502565b83811115611529576000848401525b50505050565b600082516115418184602087016114ff565b9190910192915050565b8051600381900b8114610c3357600080fd5b60006020828403121561156f57600080fd5b6105ff8261154b565b600081518084526115908160208601602086016114ff565b601f01601f19169290920160200192915050565b600081518084526020808501808196508360051b8101915082860160005b8581101561165b5782840389528151604081518652868201519150808787015281511515818701528682015160606001600160a01b03808316828a015283850151935060a09250608083818b015261161d60e08b0186611578565b928601518a8403603f1901858c01529294506116398584611578565b9501511660c098909801979097525050988501989350908401906001016115c2565b5091979650505050505050565b6001600160a01b0383168152604060208201526000825161016060408401526116956101a0840182611578565b90506020840151603f19808584030160608601526116b38383611578565b9250604086015191506116d160808601836001600160a01b03169052565b60608601519150808584030160a08601526116ec8383611578565b92506080860151915061170360c086018315159052565b60a0860151915061171960e086018360070b9052565b60c086015191506101006117308187018415159052565b60e08701519250818685030161012087015261174c84846115a4565b90870151805163ffffffff90811661014089015260208201516001600160a01b0316610160890152604082015116610180880152909350915061178c9050565b50949350505050565b6001600160a01b0383168152608081016105ff6020830184805163ffffffff90811683526020808301516001600160a01b03169084015260409182015116910152565b6000602082840312156117ea57600080fd5b81516105ff81610e0f565b600082601f83011261180657600080fd5b81356020611816610e6e83610e29565b8281526060928302850182019282820191908785111561183557600080fd5b8387015b858110156118975781818a0312156118515760008081fd5b611859610ceb565b813561186481610c10565b81528186013561187381610e0f565b8187015260408281013561188681610df6565b908201528452928401928101611839565b5090979650505050505050565b6000602082360312156118b657600080fd5b6040516020810167ffffffffffffffff82821081831117156118da576118da610c89565b8160405284359150808211156118ef57600080fd5b506118fc368286016117f5565b82525092915050565b6000611913610e6e84610e29565b80848252602080830192508560051b85013681111561193157600080fd5b855b81811015611a8e57803567ffffffffffffffff808211156119545760008081fd5b8189019150606080833603121561196b5760008081fd5b611973610ceb565b833561197e81610c10565b815283870135838111156119925760008081fd5b61199e368287016117f5565b8883015250604080850135848111156119b75760008081fd5b949094019336601f8601126119ce57600093508384fd5b843593506119de610e6e85610e29565b84815260079490941b850188019388810190368611156119fe5760008081fd5b958901955b85871015611a765760808736031215611a1c5760008081fd5b611a24610d32565b8735611a2f81610c10565b8152878b0135611a3e81610c10565b818c015287840135611a4f81610e0f565b8185015287860135611a6081610df6565b8187015282526080969096019590890190611a03565b91830191909152508852505050938201938201611933565b50919695505050505050565b6000808284036080811215611aae57600080fd5b611ab78461154b565b92506060601f1982011215611acb57600080fd5b50611ad4610ceb565b6020840151611ae281610fb3565b81526040840151611af281610c10565b60208201526060840151611b0581610fb3565b6040820152919491935090915050565b60008060408385031215611b2857600080fd5b611b318361154b565b9150602083015161137d81610df6565b600081518084526020808501945080840160005b83811015611b7a5781516001600160a01b031687529582019590820190600101611b55565b509495945050505050565b600081518084526020808501945080840160005b83811015611b7a57815160070b87529582019590820190600101611b99565b6001600160a01b0384168152606060208201526000611bda6060830185611b41565b8281036040840152611bec8185611b85565b9695505050505050565b600081518084526020808501945080840160005b83811015611b7a57815180516001600160a01b031688528381015160070b8489015260409081015115159088015260609096019590820190600101611c0a565b600060408083526060855160208084870152611c6883870183611bf6565b9150858203818701528187518084528284019150828160051b850101838a0160005b83811015611d3657601f1987840301855281516001600160a01b03808251168552878201518a89870152611cc08b870182611bf6565b928c0151868403878e01528051808552908a0193600092508a01905b80831015611d205784518051851683528b81015185168c8401528e81015160070b8f8401528d015115158d830152938a019360019290920191608090910190611cdc565b5097890197955050509186019150600101611c8a565b50909b9a5050505050505050505050565b6001600160a01b0385168152608060208201526000611d696080830186611b41565b8281036040840152611d7b8186611b41565b90508281036060840152611d8f8185611b85565b97965050505050505056fea2646970667358221220930dd81833aeaa211c243b81921da174efe160995968a466c246e4c08367298c64736f6c63430008090033",
  "linkReferences": {},
  "deployedLinkReferences": {}
}