{
  "_format": "hh-sol-artifact-1",
  "contractName": "TokenTransferContract",
  "sourceName": "contracts/hts-precompile/examples/token-transfer/TokenTransferContract.sol",
  "abi": [
    {
      "anonymous": false,
      "inputs": [
        {
          "indexed": false,
          "internalType": "int256",
          "name": "responseCode",
          "type": "int256"
        }
      ],
      "name": "ResponseCode",
      "type": "event"
    },
    {
      "inputs": [
        {
          "internalType": "address",
          "name": "token",
          "type": "address"
        },
        {
          "internalType": "address",
          "name": "approved",
          "type": "address"
        },
        {
          "internalType": "uint256",
          "name": "serialNumber",
          "type": "uint256"
        }
      ],
      "name": "approveNFTPublic",
      "outputs": [
        {
          "internalType": "int256",
          "name": "responseCode",
          "type": "int256"
        }
      ],
      "stateMutability": "nonpayable",
      "type": "function"
    },
    {
      "inputs": [
        {
          "internalType": "address",
          "name": "token",
          "type": "address"
        },
        {
          "internalType": "address",
          "name": "spender",
          "type": "address"
        },
        {
          "internalType": "uint256",
          "name": "amount",
          "type": "uint256"
        }
      ],
      "name": "approvePublic",
      "outputs": [
        {
          "internalType": "int256",
          "name": "responseCode",
          "type": "int256"
        }
      ],
      "stateMutability": "nonpayable",
      "type": "function"
    },
    {
      "inputs": [
        {
          "components": [
            {
              "components": [
                {
                  "internalType": "address",
                  "name": "accountID",
                  "type": "address"
                },
                {
                  "internalType": "int64",
                  "name": "amount",
                  "type": "int64"
                },
                {
                  "internalType": "bool",
                  "name": "isApproval",
                  "type": "bool"
                }
              ],
              "internalType": "struct IHederaTokenService.AccountAmount[]",
              "name": "transfers",
              "type": "tuple[]"
            }
          ],
          "internalType": "struct IHederaTokenService.TransferList",
          "name": "transferList",
          "type": "tuple"
        },
        {
          "components": [
            {
              "internalType": "address",
              "name": "token",
              "type": "address"
            },
            {
              "components": [
                {
                  "internalType": "address",
                  "name": "accountID",
                  "type": "address"
                },
                {
                  "internalType": "int64",
                  "name": "amount",
                  "type": "int64"
                },
                {
                  "internalType": "bool",
                  "name": "isApproval",
                  "type": "bool"
                }
              ],
              "internalType": "struct IHederaTokenService.AccountAmount[]",
              "name": "transfers",
              "type": "tuple[]"
            },
            {
              "components": [
                {
                  "internalType": "address",
                  "name": "senderAccountID",
                  "type": "address"
                },
                {
                  "internalType": "address",
                  "name": "receiverAccountID",
                  "type": "address"
                },
                {
                  "internalType": "int64",
                  "name": "serialNumber",
                  "type": "int64"
                },
                {
                  "internalType": "bool",
                  "name": "isApproval",
                  "type": "bool"
                }
              ],
              "internalType": "struct IHederaTokenService.NftTransfer[]",
              "name": "nftTransfers",
              "type": "tuple[]"
            }
          ],
          "internalType": "struct IHederaTokenService.TokenTransferList[]",
          "name": "tokenTransferList",
          "type": "tuple[]"
        }
      ],
      "name": "cryptoTransferPublic",
      "outputs": [
        {
          "internalType": "int256",
          "name": "responseCode",
          "type": "int256"
        }
      ],
      "stateMutability": "nonpayable",
      "type": "function"
    },
    {
      "inputs": [
        {
          "internalType": "address",
          "name": "token",
          "type": "address"
        },
        {
          "internalType": "address",
          "name": "approved",
          "type": "address"
        },
        {
          "internalType": "uint256",
          "name": "serialNumber",
          "type": "uint256"
        }
      ],
      "name": "delegateApproveNFTPublic",
      "outputs": [
        {
          "internalType": "int256",
          "name": "responseCode",
          "type": "int256"
        }
      ],
      "stateMutability": "nonpayable",
      "type": "function"
    },
    {
      "inputs": [
        {
          "internalType": "address",
          "name": "token",
          "type": "address"
        },
        {
          "internalType": "address",
          "name": "spender",
          "type": "address"
        },
        {
          "internalType": "uint256",
          "name": "amount",
          "type": "uint256"
        }
      ],
      "name": "delegateApprovePublic",
      "outputs": [
        {
          "internalType": "int256",
          "name": "responseCode",
          "type": "int256"
        }
      ],
      "stateMutability": "nonpayable",
      "type": "function"
    },
    {
      "inputs": [
        {
          "components": [
            {
              "components": [
                {
                  "internalType": "address",
                  "name": "accountID",
                  "type": "address"
                },
                {
                  "internalType": "int64",
                  "name": "amount",
                  "type": "int64"
                },
                {
                  "internalType": "bool",
                  "name": "isApproval",
                  "type": "bool"
                }
              ],
              "internalType": "struct IHederaTokenService.AccountAmount[]",
              "name": "transfers",
              "type": "tuple[]"
            }
          ],
          "internalType": "struct IHederaTokenService.TransferList",
          "name": "transferList",
          "type": "tuple"
        },
        {
          "components": [
            {
              "internalType": "address",
              "name": "token",
              "type": "address"
            },
            {
              "components": [
                {
                  "internalType": "address",
                  "name": "accountID",
                  "type": "address"
                },
                {
                  "internalType": "int64",
                  "name": "amount",
                  "type": "int64"
                },
                {
                  "internalType": "bool",
                  "name": "isApproval",
                  "type": "bool"
                }
              ],
              "internalType": "struct IHederaTokenService.AccountAmount[]",
              "name": "transfers",
              "type": "tuple[]"
            },
            {
              "components": [
                {
                  "internalType": "address",
                  "name": "senderAccountID",
                  "type": "address"
                },
                {
                  "internalType": "address",
                  "name": "receiverAccountID",
                  "type": "address"
                },
                {
                  "internalType": "int64",
                  "name": "serialNumber",
                  "type": "int64"
                },
                {
                  "internalType": "bool",
                  "name": "isApproval",
                  "type": "bool"
                }
              ],
              "internalType": "struct IHederaTokenService.NftTransfer[]",
              "name": "nftTransfers",
              "type": "tuple[]"
            }
          ],
          "internalType": "struct IHederaTokenService.TokenTransferList[]",
          "name": "tokenTransferList",
          "type": "tuple[]"
        }
      ],
      "name": "delegateCryptoTransferPublic",
      "outputs": [
        {
          "internalType": "int256",
          "name": "responseCode",
          "type": "int256"
        }
      ],
      "stateMutability": "nonpayable",
      "type": "function"
    },
    {
      "inputs": [
        {
          "internalType": "address",
          "name": "token",
          "type": "address"
        },
        {
          "internalType": "address",
          "name": "operator",
          "type": "address"
        },
        {
          "internalType": "bool",
          "name": "approved",
          "type": "bool"
        }
      ],
      "name": "delegateSetApprovalForAllPublic",
      "outputs": [
        {
          "internalType": "int256",
          "name": "responseCode",
          "type": "int256"
        }
      ],
      "stateMutability": "nonpayable",
      "type": "function"
    },
    {
      "inputs": [
        {
          "internalType": "address",
          "name": "token",
          "type": "address"
        },
        {
          "internalType": "address",
          "name": "from",
          "type": "address"
        },
        {
          "internalType": "address",
          "name": "to",
          "type": "address"
        },
        {
          "internalType": "uint256",
          "name": "amount",
          "type": "uint256"
        }
      ],
      "name": "delegateTransferFrom",
      "outputs": [
        {
          "internalType": "int64",
          "name": "responseCode",
          "type": "int64"
        }
      ],
      "stateMutability": "nonpayable",
      "type": "function"
    },
    {
      "inputs": [
        {
          "internalType": "address",
          "name": "token",
          "type": "address"
        },
        {
          "internalType": "address",
          "name": "from",
          "type": "address"
        },
        {
          "internalType": "address",
          "name": "to",
          "type": "address"
        },
        {
          "internalType": "uint256",
          "name": "serialNumber",
          "type": "uint256"
        }
      ],
      "name": "delegateTransferFromNFT",
      "outputs": [
        {
          "internalType": "int64",
          "name": "responseCode",
          "type": "int64"
        }
      ],
      "stateMutability": "nonpayable",
      "type": "function"
    },
    {
      "inputs": [
        {
          "internalType": "address",
          "name": "token",
          "type": "address"
        },
        {
          "internalType": "address",
          "name": "operator",
          "type": "address"
        },
        {
          "internalType": "bool",
          "name": "approved",
          "type": "bool"
        }
      ],
      "name": "setApprovalForAllPublic",
      "outputs": [
        {
          "internalType": "int256",
          "name": "responseCode",
          "type": "int256"
        }
      ],
      "stateMutability": "nonpayable",
      "type": "function"
    },
    {
      "inputs": [
        {
          "internalType": "address",
          "name": "token",
          "type": "address"
        },
        {
          "internalType": "address",
          "name": "from",
          "type": "address"
        },
        {
          "internalType": "address",
          "name": "to",
          "type": "address"
        },
        {
          "internalType": "uint256",
          "name": "amount",
          "type": "uint256"
        }
      ],
      "name": "transferFrom",
      "outputs": [
        {
          "internalType": "int64",
          "name": "responseCode",
          "type": "int64"
        }
      ],
      "stateMutability": "nonpayable",
      "type": "function"
    },
    {
      "inputs": [
        {
          "internalType": "address",
          "name": "token",
          "type": "address"
        },
        {
          "internalType": "address",
          "name": "from",
          "type": "address"
        },
        {
          "internalType": "address",
          "name": "to",
          "type": "address"
        },
        {
          "internalType": "uint256",
          "name": "serialNumber",
          "type": "uint256"
        }
      ],
      "name": "transferFromNFT",
      "outputs": [
        {
          "internalType": "int64",
          "name": "responseCode",
          "type": "int64"
        }
      ],
      "stateMutability": "nonpayable",
      "type": "function"
    },
    {
      "inputs": [
        {
          "internalType": "address",
          "name": "token",
          "type": "address"
        },
        {
          "internalType": "address",
          "name": "from",
          "type": "address"
        },
        {
          "internalType": "address",
          "name": "to",
          "type": "address"
        },
        {
          "internalType": "uint256",
          "name": "serialNumber",
          "type": "uint256"
        }
      ],
      "name": "transferFromNFTPublic",
      "outputs": [
        {
          "internalType": "int64",
          "name": "responseCode",
          "type": "int64"
        }
      ],
      "stateMutability": "nonpayable",
      "type": "function"
    },
    {
      "inputs": [
        {
          "internalType": "address",
          "name": "token",
          "type": "address"
        },
        {
          "internalType": "address",
          "name": "from",
          "type": "address"
        },
        {
          "internalType": "address",
          "name": "to",
          "type": "address"
        },
        {
          "internalType": "uint256",
          "name": "amount",
          "type": "uint256"
        }
      ],
      "name": "transferFromPublic",
      "outputs": [
        {
          "internalType": "int64",
          "name": "responseCode",
          "type": "int64"
        }
      ],
      "stateMutability": "nonpayable",
      "type": "function"
    },
    {
      "inputs": [
        {
          "internalType": "address",
          "name": "token",
          "type": "address"
        },
        {
          "internalType": "address",
          "name": "sender",
          "type": "address"
        },
        {
          "internalType": "address",
          "name": "receiver",
          "type": "address"
        },
        {
          "internalType": "int64",
          "name": "serialNumber",
          "type": "int64"
        }
      ],
      "name": "transferNFTPublic",
      "outputs": [
        {
          "internalType": "int256",
          "name": "responseCode",
          "type": "int256"
        }
      ],
      "stateMutability": "nonpayable",
      "type": "function"
    },
    {
      "inputs": [
        {
          "internalType": "address",
          "name": "token",
          "type": "address"
        },
        {
          "internalType": "address[]",
          "name": "sender",
          "type": "address[]"
        },
        {
          "internalType": "address[]",
          "name": "receiver",
          "type": "address[]"
        },
        {
          "internalType": "int64[]",
          "name": "serialNumber",
          "type": "int64[]"
        }
      ],
      "name": "transferNFTsPublic",
      "outputs": [
        {
          "internalType": "int256",
          "name": "responseCode",
          "type": "int256"
        }
      ],
      "stateMutability": "nonpayable",
      "type": "function"
    },
    {
      "inputs": [
        {
          "internalType": "address",
          "name": "token",
          "type": "address"
        },
        {
          "internalType": "address",
          "name": "sender",
          "type": "address"
        },
        {
          "internalType": "address",
          "name": "receiver",
          "type": "address"
        },
        {
          "internalType": "int64",
          "name": "amount",
          "type": "int64"
        }
      ],
      "name": "transferTokenPublic",
      "outputs": [
        {
          "internalType": "int256",
          "name": "responseCode",
          "type": "int256"
        }
      ],
      "stateMutability": "nonpayable",
      "type": "function"
    },
    {
      "inputs": [
        {
          "internalType": "address",
          "name": "token",
          "type": "address"
        },
        {
          "internalType": "address[]",
          "name": "accountId",
          "type": "address[]"
        },
        {
          "internalType": "int64[]",
          "name": "amount",
          "type": "int64[]"
        }
      ],
      "name": "transferTokensPublic",
      "outputs": [
        {
          "internalType": "int256",
          "name": "responseCode",
          "type": "int256"
        }
      ],
      "stateMutability": "nonpayable",
      "type": "function"
    }
  ],
  "bytecode": "0x608060405234801561001057600080fd5b50600160208181527fa6eef7e35abe7026729641147f7915573c7e97b47efa546f5f6e3230263bcb499190915560027fcc69885fda6bcc1a4ace058b4a62bf5e179ea78fd58a1ccd71c22cc9b688792f5560047fd9d16d34ffb15ba3a3d852f0d403e2ce1d691fb54de27ac87cd2f993f3ec330f5560087f7dfe757ecd65cbd7922a9c0161e935dd7fdbcc0e999689c7d31633896b1fc60b5560107fedc95719e9a3b28dd8e80877cb5880a9be7de1a13fc8b05e7999683b6b567643557fe2689cd4a84e23ad2f564004f1c9013e9589d260bde6380aba3ca7e09e4df40c55600660005260407f8f331abe73332f95a25873e8b430885974c0409691f89d643119a11623a7924a55611696806101276000396000f3fe608060405234801561001057600080fd5b50600436106101165760003560e01c80639b23d3d9116100a2578063df6c06f511610071578063df6c06f514610238578063eac6f3fe1461024b578063ef7839b61461025e578063f25b120014610271578063f848fec41461028457600080fd5b80639b23d3d9146101ec578063ac36efb4146101ff578063c76620ca14610212578063cc2528f01461022557600080fd5b80636c40a777116100e95780636c40a7771461018d5780636da6b1f0146101a0578063842b71db146101b3578063942e01a3146101c6578063970e23d2146101d957600080fd5b806311e1fc071461011b57806315dacbea146101465780634ba6703514610159578063581315511461017a575b600080fd5b61012e610129366004610c75565b610297565b60405160079190910b81526020015b60405180910390f35b61012e610154366004610c75565b610389565b61016c610167366004610cd2565b610445565b60405190815260200161013d565b61016c610188366004610eb5565b6104a3565b61012e61019b366004610c75565b6104ff565b61016c6101ae366004610cd2565b6105de565b61012e6101c1366004610c75565b6105ec565b61016c6101d4366004610f29565b610632565b61016c6101e7366004610f65565b61063f565b61012e6101fa366004610c75565b61065c565b61016c61020d366004610f65565b6106a1565b61016c610220366004611017565b6106be565b61016c61023336600461105a565b6106cb565b61016c610246366004610f29565b6106d9565b61012e610259366004610c75565b6106e6565b61016c61026c366004610f29565b61072b565b61016c61027f366004611017565b610738565b61016c610292366004610f29565b610745565b6040516001600160a01b038581166024830152848116604483015283166064820152608481018290526000908190819061016790639b23d3d960e01b9060a4015b60408051601f198184030181529181526020820180516001600160e01b03166001600160e01b031990941693909317909252905161031691906110f3565b600060405180830381855af49150503d8060008114610351576040519150601f19603f3d011682016040523d82523d6000602084013e610356565b606091505b50915091508161036757601561037b565b8080602001905181019061037b919061112e565b60030b979650505050505050565b6040516001600160a01b038581166024830152848116604483015283166064820152608481018290526000908190819061016790630aed65f560e11b9060a4015b60408051601f198184030181529181526020820180516001600160e01b03166001600160e01b031990941693909317909252905161040891906110f3565b6000604051808303816000865af19150503d8060008114610351576040519150601f19603f3d011682016040523d82523d6000602084013e610356565b600061045385858585610752565b90507f90a5cf4cffe88b4edbb041cfc7a8a812c48a5ec30b84640fb37690875168e3aa8160405161048691815260200190565b60405180910390a16016811461049b57600080fd5b949350505050565b60006104b084848461079a565b90507f90a5cf4cffe88b4edbb041cfc7a8a812c48a5ec30b84640fb37690875168e3aa816040516104e391815260200190565b60405180910390a1601681146104f857600080fd5b9392505050565b604051639b23d3d960e01b81526001600160a01b038086166004830152808516602483015283166044820152606481018290526000903090639b23d3d9906084015b602060405180830381600087803b15801561055b57600080fd5b505af115801561056f573d6000803e3d6000fd5b505050506040513d601f19601f820116820180604052508101906105939190611151565b604051600782900b81529091507f90a5cf4cffe88b4edbb041cfc7a8a812c48a5ec30b84640fb37690875168e3aa9060200160405180910390a1600781900b60161461049b57600080fd5b60006104538585858561087a565b604051630aed65f560e11b81526001600160a01b0380861660048301528085166024830152831660448201526064810182905260009030906315dacbea90608401610541565b60006104b08484846108c2565b60006104b061064d85611219565b610657848661127a565b610974565b6040516001600160a01b038581166024830152848116604483015283166064820152608481018290526000908190819061016790639b23d3d960e01b9060a4016103ca565b60006104b06106af85611219565b6106b9848661127a565b610a51565b60006104b0848484610af6565b600061045385858585610b34565b60006104b0848484610b64565b6040516001600160a01b038581166024830152848116604483015283166064820152608481018290526000908190819061016790630aed65f560e11b9060a4016102d8565b60006104b0848484610ba1565b60006104b0848484610bde565b60006104b0848484610c1c565b6040516001600160a01b038581166024830152848116604483015283166064820152600782900b6084820152600090819081906101679063eca3691760e01b9060a4016103ca565b60008060006101676001600160a01b03166382bba49360e01b8787876040516024016107c89392919061147e565b60408051601f198184030181529181526020820180516001600160e01b03166001600160e01b031990941693909317909252905161080691906110f3565b6000604051808303816000865af19150503d8060008114610843576040519150601f19603f3d011682016040523d82523d6000602084013e610848565b606091505b50915091508161085957601561086d565b8080602001905181019061086d919061112e565b60030b9695505050505050565b6040516001600160a01b038581166024830152848116604483015283166064820152600782900b60848201526000908190819061016790635cfc901160e01b9060a4016103ca565b6040516001600160a01b038481166024830152831660448201526064810182905260009081908190610167906307336aaf60e41b906084015b60408051601f198184030181529181526020820180516001600160e01b03166001600160e01b031990941693909317909252905161093991906110f3565b600060405180830381855af49150503d8060008114610843576040519150601f19603f3d011682016040523d82523d6000602084013e610848565b60008060006101676001600160a01b0316630e71804f60e01b86866040516024016109a0929190611510565b60408051601f198184030181529181526020820180516001600160e01b03166001600160e01b03199094169390931790925290516109de91906110f3565b6000604051808303816000865af19150503d8060008114610a1b576040519150601f19603f3d011682016040523d82523d6000602084013e610a20565b606091505b509150915081610a31576015610a45565b80806020019051810190610a45919061112e565b60030b95945050505050565b60008060006101676001600160a01b0316630e71804f60e01b8686604051602401610a7d929190611510565b60408051601f198184030181529181526020820180516001600160e01b03166001600160e01b0319909416939093179092529051610abb91906110f3565b600060405180830381855af49150503d8060008114610a1b576040519150601f19603f3d011682016040523d82523d6000602084013e610a20565b6040516001600160a01b0384811660248301528316604482015281151560648201526000908190819061016790631b3b02e560e11b906084016108fb565b60008060006101676001600160a01b0316632c4ba19160e01b888888886040516024016103ca949392919061160d565b6040516001600160a01b038481166024830152831660448201526064810182905260009081908190610167906307336aaf60e41b906084016107c8565b6040516001600160a01b0384811660248301528316604482015260648101829052600090819081906101679063e1f21c6760e01b906084016108fb565b6040516001600160a01b0384811660248301528316604482015281151560648201526000908190819061016790631b3b02e560e11b906084016107c8565b6040516001600160a01b0384811660248301528316604482015260648101829052600090819081906101679063e1f21c6760e01b906084016107c8565b80356001600160a01b0381168114610c7057600080fd5b919050565b60008060008060808587031215610c8b57600080fd5b610c9485610c59565b9350610ca260208601610c59565b9250610cb060408601610c59565b9396929550929360600135925050565b8060070b8114610ccf57600080fd5b50565b60008060008060808587031215610ce857600080fd5b610cf185610c59565b9350610cff60208601610c59565b9250610d0d60408601610c59565b91506060850135610d1d81610cc0565b939692955090935050565b634e487b7160e01b600052604160045260246000fd5b6040516060810167ffffffffffffffff81118282101715610d6157610d61610d28565b60405290565b6040516080810167ffffffffffffffff81118282101715610d6157610d61610d28565b604051601f8201601f1916810167ffffffffffffffff81118282101715610db357610db3610d28565b604052919050565b600067ffffffffffffffff821115610dd557610dd5610d28565b5060051b60200190565b600082601f830112610df057600080fd5b81356020610e05610e0083610dbb565b610d8a565b82815260059290921b84018101918181019086841115610e2457600080fd5b8286015b84811015610e4657610e3981610c59565b8352918301918301610e28565b509695505050505050565b600082601f830112610e6257600080fd5b81356020610e72610e0083610dbb565b82815260059290921b84018101918181019086841115610e9157600080fd5b8286015b84811015610e46578035610ea881610cc0565b8352918301918301610e95565b600080600060608486031215610eca57600080fd5b610ed384610c59565b9250602084013567ffffffffffffffff80821115610ef057600080fd5b610efc87838801610ddf565b93506040860135915080821115610f1257600080fd5b50610f1f86828701610e51565b9150509250925092565b600080600060608486031215610f3e57600080fd5b610f4784610c59565b9250610f5560208501610c59565b9150604084013590509250925092565b600080600060408486031215610f7a57600080fd5b833567ffffffffffffffff80821115610f9257600080fd5b9085019060208288031215610fa657600080fd5b90935060208501359080821115610fbc57600080fd5b818601915086601f830112610fd057600080fd5b813581811115610fdf57600080fd5b8760208260051b8501011115610ff457600080fd5b6020830194508093505050509250925092565b80358015158114610c7057600080fd5b60008060006060848603121561102c57600080fd5b61103584610c59565b925061104360208501610c59565b915061105160408501611007565b90509250925092565b6000806000806080858703121561107057600080fd5b61107985610c59565b9350602085013567ffffffffffffffff8082111561109657600080fd5b6110a288838901610ddf565b945060408701359150808211156110b857600080fd5b6110c488838901610ddf565b935060608701359150808211156110da57600080fd5b506110e787828801610e51565b91505092959194509250565b6000825160005b8181101561111457602081860181015185830152016110fa565b81811115611123576000828501525b509190910192915050565b60006020828403121561114057600080fd5b81518060030b81146104f857600080fd5b60006020828403121561116357600080fd5b81516104f881610cc0565b600082601f83011261117f57600080fd5b8135602061118f610e0083610dbb565b828152606092830285018201928282019190878511156111ae57600080fd5b8387015b8581101561120c5781818a0312156111ca5760008081fd5b6111d2610d3e565b6111db82610c59565b8152858201356111ea81610cc0565b8187015260406111fb838201611007565b9082015284529284019281016111b2565b5090979650505050505050565b60006020823603121561122b57600080fd5b6040516020810167ffffffffffffffff828210818311171561124f5761124f610d28565b81604052843591508082111561126457600080fd5b506112713682860161116e565b82525092915050565b6000611288610e0084610dbb565b80848252602080830192508560051b8501368111156112a657600080fd5b855b818110156113fb57803567ffffffffffffffff808211156112c95760008081fd5b818901915060608083360312156112e05760008081fd5b6112e8610d3e565b6112f184610c59565b815286840135838111156113055760008081fd5b6113113682870161116e565b88830152506040808501358481111561132a5760008081fd5b949094019336601f86011261134157600093508384fd5b84359350611351610e0085610dbb565b84815260079490941b850188019388810190368611156113715760008081fd5b958901955b858710156113e3576080873603121561138f5760008081fd5b611397610d67565b6113a088610c59565b81526113ad8b8901610c59565b8b820152838801356113be81610cc0565b818501526113cd888701611007565b8187015282526080969096019590890190611376565b918301919091525088525050509382019382016112a8565b50919695505050505050565b600081518084526020808501945080840160005b838110156114405781516001600160a01b03168752958201959082019060010161141b565b509495945050505050565b600081518084526020808501945080840160005b8381101561144057815160070b8752958201959082019060010161145f565b6001600160a01b03841681526060602082015260006114a06060830185611407565b82810360408401526114b2818561144b565b9695505050505050565b600081518084526020808501945080840160005b8381101561144057815180516001600160a01b031688528381015160070b84890152604090810151151590880152606090960195908201906001016114d0565b60006040808352606085516020808487015261152e838701836114bc565b9150858203818701528187518084528284019150828160051b850101838a0160005b838110156115fc57601f1987840301855281516001600160a01b03808251168552878201518a898701526115868b8701826114bc565b928c0151868403878e01528051808552908a0193600092508a01905b808310156115e65784518051851683528b81015185168c8401528e81015160070b8f8401528d015115158d830152938a0193600192909201916080909101906115a2565b5097890197955050509186019150600101611550565b50909b9a5050505050505050505050565b6001600160a01b038516815260806020820152600061162f6080830186611407565b82810360408401526116418186611407565b90508281036060840152611655818561144b565b97965050505050505056fea264697066735822122018ef42ee319b91bcf57d3dd0b0cef7fc3831cd4578a40730345053509949423164736f6c63430008090033",
  "linkReferences": {},
  "deployedLinkReferences": {}
}