{
  "_format": "hh-sol-artifact-1",
  "contractName": "TokenTransferContract",
  "sourceName": "contracts/hts-precompile/examples/token-transfer/TokenTransferContract.sol",
  "abi": [
    {
      "anonymous": false,
      "inputs": [
        {
          "indexed": false,
          "internalType": "bool",
          "name": "",
          "type": "bool"
        },
        {
          "indexed": false,
          "internalType": "bytes",
          "name": "",
          "type": "bytes"
        }
      ],
      "name": "CallResponseEvent",
      "type": "event"
    },
    {
      "anonymous": false,
      "inputs": [
        {
          "indexed": false,
          "internalType": "int256",
          "name": "responseCode",
          "type": "int256"
        }
      ],
      "name": "ResponseCode",
      "type": "event"
    },
    {
      "inputs": [
        {
          "internalType": "address",
          "name": "token",
          "type": "address"
        },
        {
          "internalType": "address",
          "name": "approved",
          "type": "address"
        },
        {
          "internalType": "uint256",
          "name": "serialNumber",
          "type": "uint256"
        }
      ],
      "name": "approveNFTPublic",
      "outputs": [
        {
          "internalType": "int256",
          "name": "responseCode",
          "type": "int256"
        }
      ],
      "stateMutability": "nonpayable",
      "type": "function"
    },
    {
      "inputs": [
        {
          "internalType": "address",
          "name": "token",
          "type": "address"
        },
        {
          "internalType": "address",
          "name": "spender",
          "type": "address"
        },
        {
          "internalType": "uint256",
          "name": "amount",
          "type": "uint256"
        }
      ],
      "name": "approvePublic",
      "outputs": [
        {
          "internalType": "int256",
          "name": "responseCode",
          "type": "int256"
        }
      ],
      "stateMutability": "nonpayable",
      "type": "function"
    },
    {
      "inputs": [
        {
          "components": [
            {
              "components": [
                {
                  "internalType": "address",
                  "name": "accountID",
                  "type": "address"
                },
                {
                  "internalType": "int64",
                  "name": "amount",
                  "type": "int64"
                },
                {
                  "internalType": "bool",
                  "name": "isApproval",
                  "type": "bool"
                }
              ],
              "internalType": "struct IHederaTokenService.AccountAmount[]",
              "name": "transfers",
              "type": "tuple[]"
            }
          ],
          "internalType": "struct IHederaTokenService.TransferList",
          "name": "transferList",
          "type": "tuple"
        },
        {
          "components": [
            {
              "internalType": "address",
              "name": "token",
              "type": "address"
            },
            {
              "components": [
                {
                  "internalType": "address",
                  "name": "accountID",
                  "type": "address"
                },
                {
                  "internalType": "int64",
                  "name": "amount",
                  "type": "int64"
                },
                {
                  "internalType": "bool",
                  "name": "isApproval",
                  "type": "bool"
                }
              ],
              "internalType": "struct IHederaTokenService.AccountAmount[]",
              "name": "transfers",
              "type": "tuple[]"
            },
            {
              "components": [
                {
                  "internalType": "address",
                  "name": "senderAccountID",
                  "type": "address"
                },
                {
                  "internalType": "address",
                  "name": "receiverAccountID",
                  "type": "address"
                },
                {
                  "internalType": "int64",
                  "name": "serialNumber",
                  "type": "int64"
                },
                {
                  "internalType": "bool",
                  "name": "isApproval",
                  "type": "bool"
                }
              ],
              "internalType": "struct IHederaTokenService.NftTransfer[]",
              "name": "nftTransfers",
              "type": "tuple[]"
            }
          ],
          "internalType": "struct IHederaTokenService.TokenTransferList[]",
          "name": "tokenTransferList",
          "type": "tuple[]"
        }
      ],
      "name": "cryptoTransferPublic",
      "outputs": [
        {
          "internalType": "int256",
          "name": "responseCode",
          "type": "int256"
        }
      ],
      "stateMutability": "nonpayable",
      "type": "function"
    },
    {
      "inputs": [
        {
          "internalType": "address",
          "name": "token",
          "type": "address"
        },
        {
          "internalType": "address",
          "name": "approved",
          "type": "address"
        },
        {
          "internalType": "uint256",
          "name": "serialNumber",
          "type": "uint256"
        }
      ],
      "name": "delegateApproveNFTPublic",
      "outputs": [
        {
          "internalType": "int256",
          "name": "responseCode",
          "type": "int256"
        }
      ],
      "stateMutability": "nonpayable",
      "type": "function"
    },
    {
      "inputs": [
        {
          "internalType": "address",
          "name": "token",
          "type": "address"
        },
        {
          "internalType": "address",
          "name": "spender",
          "type": "address"
        },
        {
          "internalType": "uint256",
          "name": "amount",
          "type": "uint256"
        }
      ],
      "name": "delegateApprovePublic",
      "outputs": [
        {
          "internalType": "int256",
          "name": "responseCode",
          "type": "int256"
        }
      ],
      "stateMutability": "nonpayable",
      "type": "function"
    },
    {
      "inputs": [
        {
          "components": [
            {
              "components": [
                {
                  "internalType": "address",
                  "name": "accountID",
                  "type": "address"
                },
                {
                  "internalType": "int64",
                  "name": "amount",
                  "type": "int64"
                },
                {
                  "internalType": "bool",
                  "name": "isApproval",
                  "type": "bool"
                }
              ],
              "internalType": "struct IHederaTokenService.AccountAmount[]",
              "name": "transfers",
              "type": "tuple[]"
            }
          ],
          "internalType": "struct IHederaTokenService.TransferList",
          "name": "transferList",
          "type": "tuple"
        },
        {
          "components": [
            {
              "internalType": "address",
              "name": "token",
              "type": "address"
            },
            {
              "components": [
                {
                  "internalType": "address",
                  "name": "accountID",
                  "type": "address"
                },
                {
                  "internalType": "int64",
                  "name": "amount",
                  "type": "int64"
                },
                {
                  "internalType": "bool",
                  "name": "isApproval",
                  "type": "bool"
                }
              ],
              "internalType": "struct IHederaTokenService.AccountAmount[]",
              "name": "transfers",
              "type": "tuple[]"
            },
            {
              "components": [
                {
                  "internalType": "address",
                  "name": "senderAccountID",
                  "type": "address"
                },
                {
                  "internalType": "address",
                  "name": "receiverAccountID",
                  "type": "address"
                },
                {
                  "internalType": "int64",
                  "name": "serialNumber",
                  "type": "int64"
                },
                {
                  "internalType": "bool",
                  "name": "isApproval",
                  "type": "bool"
                }
              ],
              "internalType": "struct IHederaTokenService.NftTransfer[]",
              "name": "nftTransfers",
              "type": "tuple[]"
            }
          ],
          "internalType": "struct IHederaTokenService.TokenTransferList[]",
          "name": "tokenTransferList",
          "type": "tuple[]"
        }
      ],
      "name": "delegateCryptoTransferPublic",
      "outputs": [
        {
          "internalType": "int256",
          "name": "responseCode",
          "type": "int256"
        }
      ],
      "stateMutability": "nonpayable",
      "type": "function"
    },
    {
      "inputs": [
        {
          "internalType": "address",
          "name": "token",
          "type": "address"
        },
        {
          "internalType": "address",
          "name": "operator",
          "type": "address"
        },
        {
          "internalType": "bool",
          "name": "approved",
          "type": "bool"
        }
      ],
      "name": "delegateSetApprovalForAllPublic",
      "outputs": [
        {
          "internalType": "int256",
          "name": "responseCode",
          "type": "int256"
        }
      ],
      "stateMutability": "nonpayable",
      "type": "function"
    },
    {
      "inputs": [
        {
          "internalType": "address",
          "name": "token",
          "type": "address"
        },
        {
          "internalType": "address",
          "name": "from",
          "type": "address"
        },
        {
          "internalType": "address",
          "name": "to",
          "type": "address"
        },
        {
          "internalType": "uint256",
          "name": "amount",
          "type": "uint256"
        }
      ],
      "name": "delegateTransferFrom",
      "outputs": [
        {
          "internalType": "int64",
          "name": "responseCode",
          "type": "int64"
        }
      ],
      "stateMutability": "nonpayable",
      "type": "function"
    },
    {
      "inputs": [
        {
          "internalType": "address",
          "name": "token",
          "type": "address"
        },
        {
          "internalType": "address",
          "name": "from",
          "type": "address"
        },
        {
          "internalType": "address",
          "name": "to",
          "type": "address"
        },
        {
          "internalType": "uint256",
          "name": "serialNumber",
          "type": "uint256"
        }
      ],
      "name": "delegateTransferFromNFT",
      "outputs": [
        {
          "internalType": "int64",
          "name": "responseCode",
          "type": "int64"
        }
      ],
      "stateMutability": "nonpayable",
      "type": "function"
    },
    {
      "inputs": [
        {
          "internalType": "address",
          "name": "token",
          "type": "address"
        },
        {
          "internalType": "bytes",
          "name": "encodedFunctionSelector",
          "type": "bytes"
        }
      ],
      "name": "redirectForToken",
      "outputs": [],
      "stateMutability": "nonpayable",
      "type": "function"
    },
    {
      "inputs": [
        {
          "internalType": "address",
          "name": "token",
          "type": "address"
        },
        {
          "internalType": "address",
          "name": "operator",
          "type": "address"
        },
        {
          "internalType": "bool",
          "name": "approved",
          "type": "bool"
        }
      ],
      "name": "setApprovalForAllPublic",
      "outputs": [
        {
          "internalType": "int256",
          "name": "responseCode",
          "type": "int256"
        }
      ],
      "stateMutability": "nonpayable",
      "type": "function"
    },
    {
      "inputs": [
        {
          "internalType": "address",
          "name": "token",
          "type": "address"
        },
        {
          "internalType": "address",
          "name": "from",
          "type": "address"
        },
        {
          "internalType": "address",
          "name": "to",
          "type": "address"
        },
        {
          "internalType": "uint256",
          "name": "amount",
          "type": "uint256"
        }
      ],
      "name": "transferFrom",
      "outputs": [
        {
          "internalType": "int64",
          "name": "responseCode",
          "type": "int64"
        }
      ],
      "stateMutability": "nonpayable",
      "type": "function"
    },
    {
      "inputs": [
        {
          "internalType": "address",
          "name": "token",
          "type": "address"
        },
        {
          "internalType": "address",
          "name": "from",
          "type": "address"
        },
        {
          "internalType": "address",
          "name": "to",
          "type": "address"
        },
        {
          "internalType": "uint256",
          "name": "serialNumber",
          "type": "uint256"
        }
      ],
      "name": "transferFromNFT",
      "outputs": [
        {
          "internalType": "int64",
          "name": "responseCode",
          "type": "int64"
        }
      ],
      "stateMutability": "nonpayable",
      "type": "function"
    },
    {
      "inputs": [
        {
          "internalType": "address",
          "name": "token",
          "type": "address"
        },
        {
          "internalType": "address",
          "name": "from",
          "type": "address"
        },
        {
          "internalType": "address",
          "name": "to",
          "type": "address"
        },
        {
          "internalType": "uint256",
          "name": "serialNumber",
          "type": "uint256"
        }
      ],
      "name": "transferFromNFTPublic",
      "outputs": [
        {
          "internalType": "int64",
          "name": "responseCode",
          "type": "int64"
        }
      ],
      "stateMutability": "nonpayable",
      "type": "function"
    },
    {
      "inputs": [
        {
          "internalType": "address",
          "name": "token",
          "type": "address"
        },
        {
          "internalType": "address",
          "name": "from",
          "type": "address"
        },
        {
          "internalType": "address",
          "name": "to",
          "type": "address"
        },
        {
          "internalType": "uint256",
          "name": "amount",
          "type": "uint256"
        }
      ],
      "name": "transferFromPublic",
      "outputs": [
        {
          "internalType": "int64",
          "name": "responseCode",
          "type": "int64"
        }
      ],
      "stateMutability": "nonpayable",
      "type": "function"
    },
    {
      "inputs": [
        {
          "internalType": "address",
          "name": "token",
          "type": "address"
        },
        {
          "internalType": "address",
          "name": "sender",
          "type": "address"
        },
        {
          "internalType": "address",
          "name": "receiver",
          "type": "address"
        },
        {
          "internalType": "int64",
          "name": "serialNumber",
          "type": "int64"
        }
      ],
      "name": "transferNFTPublic",
      "outputs": [
        {
          "internalType": "int256",
          "name": "responseCode",
          "type": "int256"
        }
      ],
      "stateMutability": "nonpayable",
      "type": "function"
    },
    {
      "inputs": [
        {
          "internalType": "address",
          "name": "token",
          "type": "address"
        },
        {
          "internalType": "address[]",
          "name": "sender",
          "type": "address[]"
        },
        {
          "internalType": "address[]",
          "name": "receiver",
          "type": "address[]"
        },
        {
          "internalType": "int64[]",
          "name": "serialNumber",
          "type": "int64[]"
        }
      ],
      "name": "transferNFTsPublic",
      "outputs": [
        {
          "internalType": "int256",
          "name": "responseCode",
          "type": "int256"
        }
      ],
      "stateMutability": "nonpayable",
      "type": "function"
    },
    {
      "inputs": [
        {
          "internalType": "address",
          "name": "token",
          "type": "address"
        },
        {
          "internalType": "address",
          "name": "sender",
          "type": "address"
        },
        {
          "internalType": "address",
          "name": "receiver",
          "type": "address"
        },
        {
          "internalType": "int64",
          "name": "amount",
          "type": "int64"
        }
      ],
      "name": "transferTokenPublic",
      "outputs": [
        {
          "internalType": "int256",
          "name": "responseCode",
          "type": "int256"
        }
      ],
      "stateMutability": "nonpayable",
      "type": "function"
    },
    {
      "inputs": [
        {
          "internalType": "address",
          "name": "token",
          "type": "address"
        },
        {
          "internalType": "address[]",
          "name": "accountId",
          "type": "address[]"
        },
        {
          "internalType": "int64[]",
          "name": "amount",
          "type": "int64[]"
        }
      ],
      "name": "transferTokensPublic",
      "outputs": [
        {
          "internalType": "int256",
          "name": "responseCode",
          "type": "int256"
        }
      ],
      "stateMutability": "nonpayable",
      "type": "function"
    }
  ],
  "bytecode": "0x608060405234801561001057600080fd5b50600160208181527fa6eef7e35abe7026729641147f7915573c7e97b47efa546f5f6e3230263bcb499190915560027fcc69885fda6bcc1a4ace058b4a62bf5e179ea78fd58a1ccd71c22cc9b688792f5560047fd9d16d34ffb15ba3a3d852f0d403e2ce1d691fb54de27ac87cd2f993f3ec330f5560087f7dfe757ecd65cbd7922a9c0161e935dd7fdbcc0e999689c7d31633896b1fc60b5560107fedc95719e9a3b28dd8e80877cb5880a9be7de1a13fc8b05e7999683b6b567643557fe2689cd4a84e23ad2f564004f1c9013e9589d260bde6380aba3ca7e09e4df40c55600660005260407f8f331abe73332f95a25873e8b430885974c0409691f89d643119a11623a7924a556118c4806101276000396000f3fe608060405234801561001057600080fd5b50600436106101215760003560e01c8063970e23d2116100ad578063df6c06f511610071578063df6c06f514610258578063eac6f3fe1461026b578063ef7839b61461027e578063f25b120014610291578063f848fec4146102a457600080fd5b8063970e23d2146101f95780639b23d3d91461020c578063ac36efb41461021f578063c76620ca14610232578063cc2528f01461024557600080fd5b8063618dc65e116100f4578063618dc65e146101985780636c40a777146101ad5780636da6b1f0146101c0578063842b71db146101d3578063942e01a3146101e657600080fd5b806311e1fc071461012657806315dacbea146101515780634ba67035146101645780635813155114610185575b600080fd5b610139610134366004610d83565b6102b7565b60405160079190910b81526020015b60405180910390f35b61013961015f366004610d83565b6103a9565b610177610172366004610de0565b610465565b604051908152602001610148565b610177610193366004610fc3565b6104c3565b6101ab6101a6366004611037565b61051f565b005b6101396101bb366004610d83565b61060d565b6101776101ce366004610de0565b6106ec565b6101396101e1366004610d83565b6106fa565b6101776101f43660046110dd565b610740565b610177610207366004611119565b61074d565b61013961021a366004610d83565b61076a565b61017761022d366004611119565b6107af565b6101776102403660046111cb565b6107cc565b61017761025336600461120e565b6107d9565b6101776102663660046110dd565b6107e7565b610139610279366004610d83565b6107f4565b61017761028c3660046110dd565b610839565b61017761029f3660046111cb565b610846565b6101776102b23660046110dd565b610853565b6040516001600160a01b038581166024830152848116604483015283166064820152608481018290526000908190819061016790639b23d3d960e01b9060a4015b60408051601f198184030181529181526020820180516001600160e01b03166001600160e01b031990941693909317909252905161033691906112d7565b600060405180830381855af49150503d8060008114610371576040519150601f19603f3d011682016040523d82523d6000602084013e610376565b606091505b50915091508161038757601561039b565b8080602001905181019061039b91906112f3565b60030b979650505050505050565b6040516001600160a01b038581166024830152848116604483015283166064820152608481018290526000908190819061016790630aed65f560e11b9060a4015b60408051601f198184030181529181526020820180516001600160e01b03166001600160e01b031990941693909317909252905161042891906112d7565b6000604051808303816000865af19150503d8060008114610371576040519150601f19603f3d011682016040523d82523d6000602084013e610376565b600061047385858585610860565b90507f90a5cf4cffe88b4edbb041cfc7a8a812c48a5ec30b84640fb37690875168e3aa816040516104a691815260200190565b60405180910390a1601681146104bb57600080fd5b949350505050565b60006104d08484846108a8565b90507f90a5cf4cffe88b4edbb041cfc7a8a812c48a5ec30b84640fb37690875168e3aa8160405161050391815260200190565b60405180910390a16016811461051857600080fd5b9392505050565b6000806101676001600160a01b031663618dc65e60e01b8585604051602401610549929190611342565b60408051601f198184030181529181526020820180516001600160e01b03166001600160e01b031990941693909317909252905161058791906112d7565b6000604051808303816000865af19150503d80600081146105c4576040519150601f19603f3d011682016040523d82523d6000602084013e6105c9565b606091505b50915091507f4af4780e06fe8cb9df64b0794fa6f01399af979175bb988e35e0e57e594567bc82826040516105ff929190611364565b60405180910390a150505050565b604051639b23d3d960e01b81526001600160a01b038086166004830152808516602483015283166044820152606481018290526000903090639b23d3d9906084015b602060405180830381600087803b15801561066957600080fd5b505af115801561067d573d6000803e3d6000fd5b505050506040513d601f19601f820116820180604052508101906106a1919061137f565b604051600782900b81529091507f90a5cf4cffe88b4edbb041cfc7a8a812c48a5ec30b84640fb37690875168e3aa9060200160405180910390a1600781900b6016146104bb57600080fd5b600061047385858585610988565b604051630aed65f560e11b81526001600160a01b0380861660048301528085166024830152831660448201526064810182905260009030906315dacbea9060840161064f565b60006104d08484846109d0565b60006104d061075b85611447565b61076584866114a8565b610a82565b6040516001600160a01b038581166024830152848116604483015283166064820152608481018290526000908190819061016790639b23d3d960e01b9060a4016103ea565b60006104d06107bd85611447565b6107c784866114a8565b610b5f565b60006104d0848484610c04565b600061047385858585610c42565b60006104d0848484610c72565b6040516001600160a01b038581166024830152848116604483015283166064820152608481018290526000908190819061016790630aed65f560e11b9060a4016102f8565b60006104d0848484610caf565b60006104d0848484610cec565b60006104d0848484610d2a565b6040516001600160a01b038581166024830152848116604483015283166064820152600782900b6084820152600090819081906101679063eca3691760e01b9060a4016103ea565b60008060006101676001600160a01b03166382bba49360e01b8787876040516024016108d6939291906116ac565b60408051601f198184030181529181526020820180516001600160e01b03166001600160e01b031990941693909317909252905161091491906112d7565b6000604051808303816000865af19150503d8060008114610951576040519150601f19603f3d011682016040523d82523d6000602084013e610956565b606091505b50915091508161096757601561097b565b8080602001905181019061097b91906112f3565b60030b9695505050505050565b6040516001600160a01b038581166024830152848116604483015283166064820152600782900b60848201526000908190819061016790635cfc901160e01b9060a4016103ea565b6040516001600160a01b038481166024830152831660448201526064810182905260009081908190610167906307336aaf60e41b906084015b60408051601f198184030181529181526020820180516001600160e01b03166001600160e01b0319909416939093179092529051610a4791906112d7565b600060405180830381855af49150503d8060008114610951576040519150601f19603f3d011682016040523d82523d6000602084013e610956565b60008060006101676001600160a01b0316630e71804f60e01b8686604051602401610aae92919061173e565b60408051601f198184030181529181526020820180516001600160e01b03166001600160e01b0319909416939093179092529051610aec91906112d7565b6000604051808303816000865af19150503d8060008114610b29576040519150601f19603f3d011682016040523d82523d6000602084013e610b2e565b606091505b509150915081610b3f576015610b53565b80806020019051810190610b5391906112f3565b60030b95945050505050565b60008060006101676001600160a01b0316630e71804f60e01b8686604051602401610b8b92919061173e565b60408051601f198184030181529181526020820180516001600160e01b03166001600160e01b0319909416939093179092529051610bc991906112d7565b600060405180830381855af49150503d8060008114610b29576040519150601f19603f3d011682016040523d82523d6000602084013e610b2e565b6040516001600160a01b0384811660248301528316604482015281151560648201526000908190819061016790631b3b02e560e11b90608401610a09565b60008060006101676001600160a01b0316632c4ba19160e01b888888886040516024016103ea949392919061183b565b6040516001600160a01b038481166024830152831660448201526064810182905260009081908190610167906307336aaf60e41b906084016108d6565b6040516001600160a01b0384811660248301528316604482015260648101829052600090819081906101679063e1f21c6760e01b90608401610a09565b6040516001600160a01b0384811660248301528316604482015281151560648201526000908190819061016790631b3b02e560e11b906084016108d6565b6040516001600160a01b0384811660248301528316604482015260648101829052600090819081906101679063e1f21c6760e01b906084016108d6565b80356001600160a01b0381168114610d7e57600080fd5b919050565b60008060008060808587031215610d9957600080fd5b610da285610d67565b9350610db060208601610d67565b9250610dbe60408601610d67565b9396929550929360600135925050565b8060070b8114610ddd57600080fd5b50565b60008060008060808587031215610df657600080fd5b610dff85610d67565b9350610e0d60208601610d67565b9250610e1b60408601610d67565b91506060850135610e2b81610dce565b939692955090935050565b634e487b7160e01b600052604160045260246000fd5b6040516060810167ffffffffffffffff81118282101715610e6f57610e6f610e36565b60405290565b6040516080810167ffffffffffffffff81118282101715610e6f57610e6f610e36565b604051601f8201601f1916810167ffffffffffffffff81118282101715610ec157610ec1610e36565b604052919050565b600067ffffffffffffffff821115610ee357610ee3610e36565b5060051b60200190565b600082601f830112610efe57600080fd5b81356020610f13610f0e83610ec9565b610e98565b82815260059290921b84018101918181019086841115610f3257600080fd5b8286015b84811015610f5457610f4781610d67565b8352918301918301610f36565b509695505050505050565b600082601f830112610f7057600080fd5b81356020610f80610f0e83610ec9565b82815260059290921b84018101918181019086841115610f9f57600080fd5b8286015b84811015610f54578035610fb681610dce565b8352918301918301610fa3565b600080600060608486031215610fd857600080fd5b610fe184610d67565b9250602084013567ffffffffffffffff80821115610ffe57600080fd5b61100a87838801610eed565b9350604086013591508082111561102057600080fd5b5061102d86828701610f5f565b9150509250925092565b6000806040838503121561104a57600080fd5b61105383610d67565b915060208084013567ffffffffffffffff8082111561107157600080fd5b818601915086601f83011261108557600080fd5b81358181111561109757611097610e36565b6110a9601f8201601f19168501610e98565b915080825287848285010111156110bf57600080fd5b80848401858401376000848284010152508093505050509250929050565b6000806000606084860312156110f257600080fd5b6110fb84610d67565b925061110960208501610d67565b9150604084013590509250925092565b60008060006040848603121561112e57600080fd5b833567ffffffffffffffff8082111561114657600080fd5b908501906020828803121561115a57600080fd5b9093506020850135908082111561117057600080fd5b818601915086601f83011261118457600080fd5b81358181111561119357600080fd5b8760208260051b85010111156111a857600080fd5b6020830194508093505050509250925092565b80358015158114610d7e57600080fd5b6000806000606084860312156111e057600080fd5b6111e984610d67565b92506111f760208501610d67565b9150611205604085016111bb565b90509250925092565b6000806000806080858703121561122457600080fd5b61122d85610d67565b9350602085013567ffffffffffffffff8082111561124a57600080fd5b61125688838901610eed565b9450604087013591508082111561126c57600080fd5b61127888838901610eed565b9350606087013591508082111561128e57600080fd5b5061129b87828801610f5f565b91505092959194509250565b60005b838110156112c25781810151838201526020016112aa565b838111156112d1576000848401525b50505050565b600082516112e98184602087016112a7565b9190910192915050565b60006020828403121561130557600080fd5b81518060030b811461051857600080fd5b6000815180845261132e8160208601602086016112a7565b601f01601f19169290920160200192915050565b6001600160a01b03831681526040602082015260006104bb6040830184611316565b82151581526040602082015260006104bb6040830184611316565b60006020828403121561139157600080fd5b815161051881610dce565b600082601f8301126113ad57600080fd5b813560206113bd610f0e83610ec9565b828152606092830285018201928282019190878511156113dc57600080fd5b8387015b8581101561143a5781818a0312156113f85760008081fd5b611400610e4c565b61140982610d67565b81528582013561141881610dce565b8187015260406114298382016111bb565b9082015284529284019281016113e0565b5090979650505050505050565b60006020823603121561145957600080fd5b6040516020810167ffffffffffffffff828210818311171561147d5761147d610e36565b81604052843591508082111561149257600080fd5b5061149f3682860161139c565b82525092915050565b60006114b6610f0e84610ec9565b80848252602080830192508560051b8501368111156114d457600080fd5b855b8181101561162957803567ffffffffffffffff808211156114f75760008081fd5b8189019150606080833603121561150e5760008081fd5b611516610e4c565b61151f84610d67565b815286840135838111156115335760008081fd5b61153f3682870161139c565b8883015250604080850135848111156115585760008081fd5b949094019336601f86011261156f57600093508384fd5b8435935061157f610f0e85610ec9565b84815260079490941b8501880193888101903686111561159f5760008081fd5b958901955b8587101561161157608087360312156115bd5760008081fd5b6115c5610e75565b6115ce88610d67565b81526115db8b8901610d67565b8b820152838801356115ec81610dce565b818501526115fb8887016111bb565b81870152825260809690960195908901906115a4565b918301919091525088525050509382019382016114d6565b50919695505050505050565b600081518084526020808501945080840160005b8381101561166e5781516001600160a01b031687529582019590820190600101611649565b509495945050505050565b600081518084526020808501945080840160005b8381101561166e57815160070b8752958201959082019060010161168d565b6001600160a01b03841681526060602082015260006116ce6060830185611635565b82810360408401526116e08185611679565b9695505050505050565b600081518084526020808501945080840160005b8381101561166e57815180516001600160a01b031688528381015160070b84890152604090810151151590880152606090960195908201906001016116fe565b60006040808352606085516020808487015261175c838701836116ea565b9150858203818701528187518084528284019150828160051b850101838a0160005b8381101561182a57601f1987840301855281516001600160a01b03808251168552878201518a898701526117b48b8701826116ea565b928c0151868403878e01528051808552908a0193600092508a01905b808310156118145784518051851683528b81015185168c8401528e81015160070b8f8401528d015115158d830152938a0193600192909201916080909101906117d0565b509789019795505050918601915060010161177e565b50909b9a5050505050505050505050565b6001600160a01b038516815260806020820152600061185d6080830186611635565b828103604084015261186f8186611635565b905082810360608401526118838185611679565b97965050505050505056fea26469706673582212203512f0f6ce95175a974b46db680b77cc9c0769bc68ef8673b9192cf60531e49b64736f6c63430008090033",
  "linkReferences": {},
  "deployedLinkReferences": {}
}