{
  "_format": "hh-sol-artifact-1",
  "contractName": "TokenTransferContract",
  "sourceName": "contracts/hts-precompile/examples/token-transfer/TokenTransferContract.sol",
  "abi": [
    {
      "anonymous": false,
      "inputs": [
        {
          "indexed": false,
          "internalType": "bool",
          "name": "",
          "type": "bool"
        },
        {
          "indexed": false,
          "internalType": "bytes",
          "name": "",
          "type": "bytes"
        }
      ],
      "name": "CallResponseEvent",
      "type": "event"
    },
    {
      "anonymous": false,
      "inputs": [
        {
          "indexed": false,
          "internalType": "int256",
          "name": "responseCode",
          "type": "int256"
        }
      ],
      "name": "ResponseCode",
      "type": "event"
    },
    {
      "inputs": [
        {
          "internalType": "address",
          "name": "token",
          "type": "address"
        },
        {
          "internalType": "address",
          "name": "approved",
          "type": "address"
        },
        {
          "internalType": "uint256",
          "name": "serialNumber",
          "type": "uint256"
        }
      ],
      "name": "approveNFTPublic",
      "outputs": [
        {
          "internalType": "int256",
          "name": "responseCode",
          "type": "int256"
        }
      ],
      "stateMutability": "nonpayable",
      "type": "function"
    },
    {
      "inputs": [
        {
          "internalType": "address",
          "name": "token",
          "type": "address"
        },
        {
          "internalType": "address",
          "name": "spender",
          "type": "address"
        },
        {
          "internalType": "uint256",
          "name": "amount",
          "type": "uint256"
        }
      ],
      "name": "approvePublic",
      "outputs": [
        {
          "internalType": "int256",
          "name": "responseCode",
          "type": "int256"
        }
      ],
      "stateMutability": "nonpayable",
      "type": "function"
    },
    {
      "inputs": [
        {
          "components": [
            {
              "components": [
                {
                  "internalType": "address",
                  "name": "accountID",
                  "type": "address"
                },
                {
                  "internalType": "int64",
                  "name": "amount",
                  "type": "int64"
                },
                {
                  "internalType": "bool",
                  "name": "isApproval",
                  "type": "bool"
                }
              ],
              "internalType": "struct IHederaTokenService.AccountAmount[]",
              "name": "transfers",
              "type": "tuple[]"
            }
          ],
          "internalType": "struct IHederaTokenService.TransferList",
          "name": "transferList",
          "type": "tuple"
        },
        {
          "components": [
            {
              "internalType": "address",
              "name": "token",
              "type": "address"
            },
            {
              "components": [
                {
                  "internalType": "address",
                  "name": "accountID",
                  "type": "address"
                },
                {
                  "internalType": "int64",
                  "name": "amount",
                  "type": "int64"
                },
                {
                  "internalType": "bool",
                  "name": "isApproval",
                  "type": "bool"
                }
              ],
              "internalType": "struct IHederaTokenService.AccountAmount[]",
              "name": "transfers",
              "type": "tuple[]"
            },
            {
              "components": [
                {
                  "internalType": "address",
                  "name": "senderAccountID",
                  "type": "address"
                },
                {
                  "internalType": "address",
                  "name": "receiverAccountID",
                  "type": "address"
                },
                {
                  "internalType": "int64",
                  "name": "serialNumber",
                  "type": "int64"
                },
                {
                  "internalType": "bool",
                  "name": "isApproval",
                  "type": "bool"
                }
              ],
              "internalType": "struct IHederaTokenService.NftTransfer[]",
              "name": "nftTransfers",
              "type": "tuple[]"
            }
          ],
          "internalType": "struct IHederaTokenService.TokenTransferList[]",
          "name": "tokenTransferList",
          "type": "tuple[]"
        }
      ],
      "name": "cryptoTransferPublic",
      "outputs": [
        {
          "internalType": "int256",
          "name": "responseCode",
          "type": "int256"
        }
      ],
      "stateMutability": "nonpayable",
      "type": "function"
    },
    {
      "inputs": [
        {
          "internalType": "address",
          "name": "token",
          "type": "address"
        },
        {
          "internalType": "bytes",
          "name": "encodedFunctionSelector",
          "type": "bytes"
        }
      ],
      "name": "redirectForToken",
      "outputs": [
        {
          "internalType": "int256",
          "name": "responseCode",
          "type": "int256"
        },
        {
          "internalType": "bytes",
          "name": "response",
          "type": "bytes"
        }
      ],
      "stateMutability": "nonpayable",
      "type": "function"
    },
    {
      "inputs": [
        {
          "internalType": "address",
          "name": "token",
          "type": "address"
        },
        {
          "internalType": "address",
          "name": "operator",
          "type": "address"
        },
        {
          "internalType": "bool",
          "name": "approved",
          "type": "bool"
        }
      ],
      "name": "setApprovalForAllPublic",
      "outputs": [
        {
          "internalType": "int256",
          "name": "responseCode",
          "type": "int256"
        }
      ],
      "stateMutability": "nonpayable",
      "type": "function"
    },
    {
      "inputs": [
        {
          "internalType": "address",
          "name": "token",
          "type": "address"
        },
        {
          "internalType": "address",
          "name": "from",
          "type": "address"
        },
        {
          "internalType": "address",
          "name": "to",
          "type": "address"
        },
        {
          "internalType": "uint256",
          "name": "amount",
          "type": "uint256"
        }
      ],
      "name": "transferFrom",
      "outputs": [
        {
          "internalType": "int64",
          "name": "responseCode",
          "type": "int64"
        }
      ],
      "stateMutability": "nonpayable",
      "type": "function"
    },
    {
      "inputs": [
        {
          "internalType": "address",
          "name": "token",
          "type": "address"
        },
        {
          "internalType": "address",
          "name": "from",
          "type": "address"
        },
        {
          "internalType": "address",
          "name": "to",
          "type": "address"
        },
        {
          "internalType": "uint256",
          "name": "serialNumber",
          "type": "uint256"
        }
      ],
      "name": "transferFromNFT",
      "outputs": [
        {
          "internalType": "int64",
          "name": "responseCode",
          "type": "int64"
        }
      ],
      "stateMutability": "nonpayable",
      "type": "function"
    },
    {
      "inputs": [
        {
          "internalType": "address",
          "name": "token",
          "type": "address"
        },
        {
          "internalType": "address",
          "name": "from",
          "type": "address"
        },
        {
          "internalType": "address",
          "name": "to",
          "type": "address"
        },
        {
          "internalType": "uint256",
          "name": "serialNumber",
          "type": "uint256"
        }
      ],
      "name": "transferFromNFTPublic",
      "outputs": [
        {
          "internalType": "int64",
          "name": "responseCode",
          "type": "int64"
        }
      ],
      "stateMutability": "nonpayable",
      "type": "function"
    },
    {
      "inputs": [
        {
          "internalType": "address",
          "name": "token",
          "type": "address"
        },
        {
          "internalType": "address",
          "name": "from",
          "type": "address"
        },
        {
          "internalType": "address",
          "name": "to",
          "type": "address"
        },
        {
          "internalType": "uint256",
          "name": "amount",
          "type": "uint256"
        }
      ],
      "name": "transferFromPublic",
      "outputs": [
        {
          "internalType": "int64",
          "name": "responseCode",
          "type": "int64"
        }
      ],
      "stateMutability": "nonpayable",
      "type": "function"
    },
    {
      "inputs": [
        {
          "internalType": "address",
          "name": "token",
          "type": "address"
        },
        {
          "internalType": "address",
          "name": "sender",
          "type": "address"
        },
        {
          "internalType": "address",
          "name": "receiver",
          "type": "address"
        },
        {
          "internalType": "int64",
          "name": "serialNumber",
          "type": "int64"
        }
      ],
      "name": "transferNFTPublic",
      "outputs": [
        {
          "internalType": "int256",
          "name": "responseCode",
          "type": "int256"
        }
      ],
      "stateMutability": "nonpayable",
      "type": "function"
    },
    {
      "inputs": [
        {
          "internalType": "address",
          "name": "token",
          "type": "address"
        },
        {
          "internalType": "address[]",
          "name": "sender",
          "type": "address[]"
        },
        {
          "internalType": "address[]",
          "name": "receiver",
          "type": "address[]"
        },
        {
          "internalType": "int64[]",
          "name": "serialNumber",
          "type": "int64[]"
        }
      ],
      "name": "transferNFTsPublic",
      "outputs": [
        {
          "internalType": "int256",
          "name": "responseCode",
          "type": "int256"
        }
      ],
      "stateMutability": "nonpayable",
      "type": "function"
    },
    {
      "inputs": [
        {
          "internalType": "address",
          "name": "token",
          "type": "address"
        },
        {
          "internalType": "address",
          "name": "sender",
          "type": "address"
        },
        {
          "internalType": "address",
          "name": "receiver",
          "type": "address"
        },
        {
          "internalType": "int64",
          "name": "amount",
          "type": "int64"
        }
      ],
      "name": "transferTokenPublic",
      "outputs": [
        {
          "internalType": "int256",
          "name": "responseCode",
          "type": "int256"
        }
      ],
      "stateMutability": "nonpayable",
      "type": "function"
    },
    {
      "inputs": [
        {
          "internalType": "address",
          "name": "token",
          "type": "address"
        },
        {
          "internalType": "address[]",
          "name": "accountId",
          "type": "address[]"
        },
        {
          "internalType": "int64[]",
          "name": "amount",
          "type": "int64[]"
        }
      ],
      "name": "transferTokensPublic",
      "outputs": [
        {
          "internalType": "int256",
          "name": "responseCode",
          "type": "int256"
        }
      ],
      "stateMutability": "nonpayable",
      "type": "function"
    }
  ],
  "bytecode": "0x608060405234801561001057600080fd5b50600160208181527fa6eef7e35abe7026729641147f7915573c7e97b47efa546f5f6e3230263bcb499190915560027fcc69885fda6bcc1a4ace058b4a62bf5e179ea78fd58a1ccd71c22cc9b688792f5560047fd9d16d34ffb15ba3a3d852f0d403e2ce1d691fb54de27ac87cd2f993f3ec330f5560087f7dfe757ecd65cbd7922a9c0161e935dd7fdbcc0e999689c7d31633896b1fc60b5560107fedc95719e9a3b28dd8e80877cb5880a9be7de1a13fc8b05e7999683b6b567643557fe2689cd4a84e23ad2f564004f1c9013e9589d260bde6380aba3ca7e09e4df40c55600660005260407f8f331abe73332f95a25873e8b430885974c0409691f89d643119a11623a7924a55611541806101276000396000f3fe608060405234801561001057600080fd5b50600436106100df5760003560e01c8063842b71db1161008c578063cc2528f011610066578063cc2528f0146101c3578063df6c06f5146101d6578063f25b1200146101e9578063f848fec4146101fc57600080fd5b8063842b71db1461018a578063970e23d21461019d5780639b23d3d9146101b057600080fd5b8063618dc65e116100bd578063618dc65e146101435780636c40a777146101645780636da6b1f01461017757600080fd5b806315dacbea146100e45780634ba670351461010f5780635813155114610130575b600080fd5b6100f76100f23660046109e7565b61020f565b60405160079190910b81526020015b60405180910390f35b61012261011d366004610a44565b610303565b604051908152602001610106565b61012261013e366004610c2f565b610361565b610156610151366004610ca3565b6103bd565b604051610106929190610d99565b6100f76101723660046109e7565b6104db565b610122610185366004610a44565b6105ab565b6100f76101983660046109e7565b6105b9565b6101226101ab366004610db2565b6105ff565b6100f76101be3660046109e7565b61061c565b6101226101d1366004610e54565b610661565b6101226101e4366004610eed565b61066f565b6101226101f7366004610f39565b61067c565b61012261020a366004610eed565b610689565b6040516001600160a01b038581166024830152848116604483015283166064820152608481018290526000908190819061016790630aed65f560e11b9060a4015b60408051601f198184030181529181526020820180516001600160e01b03166001600160e01b031990941693909317909252905161028e9190610f7c565b6000604051808303816000865af19150503d80600081146102cb576040519150601f19603f3d011682016040523d82523d6000602084013e6102d0565b606091505b5091509150816102e15760156102f5565b808060200190518101906102f59190610f98565b60030b979650505050505050565b600061031185858585610696565b90507f90a5cf4cffe88b4edbb041cfc7a8a812c48a5ec30b84640fb37690875168e3aa8160405161034491815260200190565b60405180910390a16016811461035957600080fd5b949350505050565b600061036e8484846106de565b90507f90a5cf4cffe88b4edbb041cfc7a8a812c48a5ec30b84640fb37690875168e3aa816040516103a191815260200190565b60405180910390a1601681146103b657600080fd5b9392505050565b600060606000806101676001600160a01b031663618dc65e60e01b87876040516024016103eb929190610fbb565b60408051601f198184030181529181526020820180516001600160e01b03166001600160e01b03199094169390931790925290516104299190610f7c565b6000604051808303816000865af19150503d8060008114610466576040519150601f19603f3d011682016040523d82523d6000602084013e61046b565b606091505b50915091507f4af4780e06fe8cb9df64b0794fa6f01399af979175bb988e35e0e57e594567bc82826040516104a1929190610fdd565b60405180910390a1816104c5576015604051806020016040528060008152506104c9565b6016815b60039190910b97909650945050505050565b604051639b23d3d960e01b81526001600160a01b038086166004830152808516602483015283166044820152606481018290526000903090639b23d3d9906084015b6020604051808303816000875af115801561053c573d6000803e3d6000fd5b505050506040513d601f19601f820116820180604052508101906105609190610ff8565b604051600782900b81529091507f90a5cf4cffe88b4edbb041cfc7a8a812c48a5ec30b84640fb37690875168e3aa9060200160405180910390a1600781900b60161461035957600080fd5b6000610311858585856107be565b604051630aed65f560e11b81526001600160a01b0380861660048301528085166024830152831660448201526064810182905260009030906315dacbea9060840161051d565b600061036e61060d856110c0565b6106178486611121565b610806565b6040516001600160a01b038581166024830152848116604483015283166064820152608481018290526000908190819061016790639b23d3d960e01b9060a401610250565b6000610311858585856108e3565b600061036e848484610913565b600061036e848484610950565b600061036e84848461098e565b6040516001600160a01b038581166024830152848116604483015283166064820152600782900b6084820152600090819081906101679063eca3691760e01b9060a401610250565b60008060006101676001600160a01b03166382bba49360e01b87878760405160240161070c93929190611327565b60408051601f198184030181529181526020820180516001600160e01b03166001600160e01b031990941693909317909252905161074a9190610f7c565b6000604051808303816000865af19150503d8060008114610787576040519150601f19603f3d011682016040523d82523d6000602084013e61078c565b606091505b50915091508161079d5760156107b1565b808060200190518101906107b19190610f98565b60030b9695505050505050565b6040516001600160a01b038581166024830152848116604483015283166064820152600782900b60848201526000908190819061016790635cfc901160e01b9060a401610250565b60008060006101676001600160a01b0316630e71804f60e01b86866040516024016108329291906113ba565b60408051601f198184030181529181526020820180516001600160e01b03166001600160e01b03199094169390931790925290516108709190610f7c565b6000604051808303816000865af19150503d80600081146108ad576040519150601f19603f3d011682016040523d82523d6000602084013e6108b2565b606091505b5091509150816108c35760156108d7565b808060200190518101906108d79190610f98565b60030b95945050505050565b60008060006101676001600160a01b0316632c4ba19160e01b8888888860405160240161025094939291906114b8565b6040516001600160a01b038481166024830152831660448201526064810182905260009081908190610167906307336aaf60e41b9060840161070c565b6040516001600160a01b0384811660248301528316604482015281151560648201526000908190819061016790631b3b02e560e11b9060840161070c565b6040516001600160a01b0384811660248301528316604482015260648101829052600090819081906101679063e1f21c6760e01b9060840161070c565b80356001600160a01b03811681146109e257600080fd5b919050565b600080600080608085870312156109fd57600080fd5b610a06856109cb565b9350610a14602086016109cb565b9250610a22604086016109cb565b9396929550929360600135925050565b8060070b8114610a4157600080fd5b50565b60008060008060808587031215610a5a57600080fd5b610a63856109cb565b9350610a71602086016109cb565b9250610a7f604086016109cb565b91506060850135610a8f81610a32565b939692955090935050565b634e487b7160e01b600052604160045260246000fd5b6040516060810167ffffffffffffffff81118282101715610ad357610ad3610a9a565b60405290565b6040516080810167ffffffffffffffff81118282101715610ad357610ad3610a9a565b604051601f8201601f1916810167ffffffffffffffff81118282101715610b2557610b25610a9a565b604052919050565b600067ffffffffffffffff821115610b4757610b47610a9a565b5060051b60200190565b600082601f830112610b6257600080fd5b81356020610b77610b7283610b2d565b610afc565b8083825260208201915060208460051b870101935086841115610b9957600080fd5b602086015b84811015610bbc57610baf816109cb565b8352918301918301610b9e565b509695505050505050565b600082601f830112610bd857600080fd5b81356020610be8610b7283610b2d565b8083825260208201915060208460051b870101935086841115610c0a57600080fd5b602086015b84811015610bbc578035610c2281610a32565b8352918301918301610c0f565b600080600060608486031215610c4457600080fd5b610c4d846109cb565b9250602084013567ffffffffffffffff80821115610c6a57600080fd5b610c7687838801610b51565b93506040860135915080821115610c8c57600080fd5b50610c9986828701610bc7565b9150509250925092565b60008060408385031215610cb657600080fd5b610cbf836109cb565b915060208084013567ffffffffffffffff80821115610cdd57600080fd5b818601915086601f830112610cf157600080fd5b813581811115610d0357610d03610a9a565b610d15601f8201601f19168501610afc565b91508082528784828501011115610d2b57600080fd5b80848401858401376000848284010152508093505050509250929050565b60005b83811015610d64578181015183820152602001610d4c565b50506000910152565b60008151808452610d85816020860160208601610d49565b601f01601f19169290920160200192915050565b8281526040602082015260006103596040830184610d6d565b600080600060408486031215610dc757600080fd5b833567ffffffffffffffff80821115610ddf57600080fd5b9085019060208288031215610df357600080fd5b90935060208501359080821115610e0957600080fd5b818601915086601f830112610e1d57600080fd5b813581811115610e2c57600080fd5b8760208260051b8501011115610e4157600080fd5b6020830194508093505050509250925092565b60008060008060808587031215610e6a57600080fd5b610e73856109cb565b9350602085013567ffffffffffffffff80821115610e9057600080fd5b610e9c88838901610b51565b94506040870135915080821115610eb257600080fd5b610ebe88838901610b51565b93506060870135915080821115610ed457600080fd5b50610ee187828801610bc7565b91505092959194509250565b600080600060608486031215610f0257600080fd5b610f0b846109cb565b9250610f19602085016109cb565b9150604084013590509250925092565b803580151581146109e257600080fd5b600080600060608486031215610f4e57600080fd5b610f57846109cb565b9250610f65602085016109cb565b9150610f7360408501610f29565b90509250925092565b60008251610f8e818460208701610d49565b9190910192915050565b600060208284031215610faa57600080fd5b81518060030b81146103b657600080fd5b6001600160a01b03831681526040602082015260006103596040830184610d6d565b82151581526040602082015260006103596040830184610d6d565b60006020828403121561100a57600080fd5b81516103b681610a32565b600082601f83011261102657600080fd5b81356020611036610b7283610b2d565b8281526060928302850182019282820191908785111561105557600080fd5b8387015b858110156110b35781818a0312156110715760008081fd5b611079610ab0565b611082826109cb565b81528582013561109181610a32565b8187015260406110a2838201610f29565b908201528452928401928101611059565b5090979650505050505050565b6000602082360312156110d257600080fd5b6040516020810167ffffffffffffffff82821081831117156110f6576110f6610a9a565b81604052843591508082111561110b57600080fd5b5061111836828601611015565b82525092915050565b600061112f610b7284610b2d565b80848252602080830192508560051b85013681111561114d57600080fd5b855b818110156112a257803567ffffffffffffffff808211156111705760008081fd5b818901915060608083360312156111875760008081fd5b61118f610ab0565b611198846109cb565b815286840135838111156111ac5760008081fd5b6111b836828701611015565b8883015250604080850135848111156111d15760008081fd5b949094019336601f8601126111e857600093508384fd5b843593506111f8610b7285610b2d565b84815260079490941b850188019388810190368611156112185760008081fd5b958901955b8587101561128a57608087360312156112365760008081fd5b61123e610ad9565b611247886109cb565b81526112548b89016109cb565b8b8201528388013561126581610a32565b81850152611274888701610f29565b818701528252608096909601959089019061121d565b9183019190915250885250505093820193820161114f565b50919695505050505050565b60008151808452602080850194506020840160005b838110156112e85781516001600160a01b0316875295820195908201906001016112c3565b509495945050505050565b60008151808452602080850194506020840160005b838110156112e857815160070b87529582019590820190600101611308565b6001600160a01b038416815260606020820152600061134960608301856112ae565b828103604084015261135b81856112f3565b9695505050505050565b60008151808452602080850194506020840160005b838110156112e857815180516001600160a01b031688528381015160070b848901526040908101511515908801526060909601959082019060010161137a565b6000604080835260608551602080848701526113d96060870183611365565b9150858203818701528187518084528284019150828160051b850101838a0160005b838110156114a757601f1987840301855281516001600160a01b03808251168552878201518a898701526114318b870182611365565b928c0151868403878e01528051808552908a0193600092508a01905b808310156114915784518051851683528b81015185168c8401528e81015160070b8f8401528d015115158d830152938a01936001929092019160809091019061144d565b50978901979550505091860191506001016113fb565b50909b9a5050505050505050505050565b6001600160a01b03851681526080602082015260006114da60808301866112ae565b82810360408401526114ec81866112ae565b9050828103606084015261150081856112f3565b97965050505050505056fea2646970667358221220189162899ac148248f63b2cd8cdfdfcb45c2b65edd61e956b18482e1e7408dbc64736f6c63430008170033",
  "linkReferences": {},
  "deployedLinkReferences": {}
}