{
  "_format": "hh-sol-artifact-1",
  "contractName": "TokenTransferContract",
  "sourceName": "contracts/hts-precompile/examples/token-transfer/TokenTransferContract.sol",
  "abi": [
    {
      "anonymous": false,
      "inputs": [
        {
          "indexed": false,
          "internalType": "bool",
          "name": "",
          "type": "bool"
        },
        {
          "indexed": false,
          "internalType": "bytes",
          "name": "",
          "type": "bytes"
        }
      ],
      "name": "CallResponseEvent",
      "type": "event"
    },
    {
      "anonymous": false,
      "inputs": [
        {
          "indexed": false,
          "internalType": "int256",
          "name": "responseCode",
          "type": "int256"
        }
      ],
      "name": "ResponseCode",
      "type": "event"
    },
    {
      "inputs": [
        {
          "internalType": "address",
          "name": "token",
          "type": "address"
        },
        {
          "internalType": "address",
          "name": "approved",
          "type": "address"
        },
        {
          "internalType": "uint256",
          "name": "serialNumber",
          "type": "uint256"
        }
      ],
      "name": "approveNFTPublic",
      "outputs": [
        {
          "internalType": "int256",
          "name": "responseCode",
          "type": "int256"
        }
      ],
      "stateMutability": "nonpayable",
      "type": "function"
    },
    {
      "inputs": [
        {
          "internalType": "address",
          "name": "token",
          "type": "address"
        },
        {
          "internalType": "address",
          "name": "spender",
          "type": "address"
        },
        {
          "internalType": "uint256",
          "name": "amount",
          "type": "uint256"
        }
      ],
      "name": "approvePublic",
      "outputs": [
        {
          "internalType": "int256",
          "name": "responseCode",
          "type": "int256"
        }
      ],
      "stateMutability": "nonpayable",
      "type": "function"
    },
    {
      "inputs": [
        {
          "components": [
            {
              "components": [
                {
                  "internalType": "address",
                  "name": "accountID",
                  "type": "address"
                },
                {
                  "internalType": "int64",
                  "name": "amount",
                  "type": "int64"
                },
                {
                  "internalType": "bool",
                  "name": "isApproval",
                  "type": "bool"
                }
              ],
              "internalType": "struct IHederaTokenService.AccountAmount[]",
              "name": "transfers",
              "type": "tuple[]"
            }
          ],
          "internalType": "struct IHederaTokenService.TransferList",
          "name": "transferList",
          "type": "tuple"
        },
        {
          "components": [
            {
              "internalType": "address",
              "name": "token",
              "type": "address"
            },
            {
              "components": [
                {
                  "internalType": "address",
                  "name": "accountID",
                  "type": "address"
                },
                {
                  "internalType": "int64",
                  "name": "amount",
                  "type": "int64"
                },
                {
                  "internalType": "bool",
                  "name": "isApproval",
                  "type": "bool"
                }
              ],
              "internalType": "struct IHederaTokenService.AccountAmount[]",
              "name": "transfers",
              "type": "tuple[]"
            },
            {
              "components": [
                {
                  "internalType": "address",
                  "name": "senderAccountID",
                  "type": "address"
                },
                {
                  "internalType": "address",
                  "name": "receiverAccountID",
                  "type": "address"
                },
                {
                  "internalType": "int64",
                  "name": "serialNumber",
                  "type": "int64"
                },
                {
                  "internalType": "bool",
                  "name": "isApproval",
                  "type": "bool"
                }
              ],
              "internalType": "struct IHederaTokenService.NftTransfer[]",
              "name": "nftTransfers",
              "type": "tuple[]"
            }
          ],
          "internalType": "struct IHederaTokenService.TokenTransferList[]",
          "name": "tokenTransferList",
          "type": "tuple[]"
        }
      ],
      "name": "cryptoTransferPublic",
      "outputs": [
        {
          "internalType": "int256",
          "name": "responseCode",
          "type": "int256"
        }
      ],
      "stateMutability": "nonpayable",
      "type": "function"
    },
    {
      "inputs": [
        {
          "internalType": "address",
          "name": "token",
          "type": "address"
        },
        {
          "internalType": "bytes",
          "name": "encodedFunctionSelector",
          "type": "bytes"
        }
      ],
      "name": "redirectForToken",
      "outputs": [
        {
          "internalType": "int256",
          "name": "responseCode",
          "type": "int256"
        },
        {
          "internalType": "bytes",
          "name": "response",
          "type": "bytes"
        }
      ],
      "stateMutability": "nonpayable",
      "type": "function"
    },
    {
      "inputs": [
        {
          "internalType": "address",
          "name": "token",
          "type": "address"
        },
        {
          "internalType": "address",
          "name": "operator",
          "type": "address"
        },
        {
          "internalType": "bool",
          "name": "approved",
          "type": "bool"
        }
      ],
      "name": "setApprovalForAllPublic",
      "outputs": [
        {
          "internalType": "int256",
          "name": "responseCode",
          "type": "int256"
        }
      ],
      "stateMutability": "nonpayable",
      "type": "function"
    },
    {
      "inputs": [
        {
          "internalType": "address",
          "name": "token",
          "type": "address"
        },
        {
          "internalType": "address",
          "name": "from",
          "type": "address"
        },
        {
          "internalType": "address",
          "name": "to",
          "type": "address"
        },
        {
          "internalType": "uint256",
          "name": "amount",
          "type": "uint256"
        }
      ],
      "name": "transferFrom",
      "outputs": [
        {
          "internalType": "int64",
          "name": "responseCode",
          "type": "int64"
        }
      ],
      "stateMutability": "nonpayable",
      "type": "function"
    },
    {
      "inputs": [
        {
          "internalType": "address",
          "name": "token",
          "type": "address"
        },
        {
          "internalType": "address",
          "name": "from",
          "type": "address"
        },
        {
          "internalType": "address",
          "name": "to",
          "type": "address"
        },
        {
          "internalType": "uint256",
          "name": "serialNumber",
          "type": "uint256"
        }
      ],
      "name": "transferFromNFT",
      "outputs": [
        {
          "internalType": "int64",
          "name": "responseCode",
          "type": "int64"
        }
      ],
      "stateMutability": "nonpayable",
      "type": "function"
    },
    {
      "inputs": [
        {
          "internalType": "address",
          "name": "token",
          "type": "address"
        },
        {
          "internalType": "address",
          "name": "from",
          "type": "address"
        },
        {
          "internalType": "address",
          "name": "to",
          "type": "address"
        },
        {
          "internalType": "uint256",
          "name": "serialNumber",
          "type": "uint256"
        }
      ],
      "name": "transferFromNFTPublic",
      "outputs": [
        {
          "internalType": "int64",
          "name": "responseCode",
          "type": "int64"
        }
      ],
      "stateMutability": "nonpayable",
      "type": "function"
    },
    {
      "inputs": [
        {
          "internalType": "address",
          "name": "token",
          "type": "address"
        },
        {
          "internalType": "address",
          "name": "from",
          "type": "address"
        },
        {
          "internalType": "address",
          "name": "to",
          "type": "address"
        },
        {
          "internalType": "uint256",
          "name": "amount",
          "type": "uint256"
        }
      ],
      "name": "transferFromPublic",
      "outputs": [
        {
          "internalType": "int64",
          "name": "responseCode",
          "type": "int64"
        }
      ],
      "stateMutability": "nonpayable",
      "type": "function"
    },
    {
      "inputs": [
        {
          "internalType": "address",
          "name": "token",
          "type": "address"
        },
        {
          "internalType": "address",
          "name": "sender",
          "type": "address"
        },
        {
          "internalType": "address",
          "name": "receiver",
          "type": "address"
        },
        {
          "internalType": "int64",
          "name": "serialNumber",
          "type": "int64"
        }
      ],
      "name": "transferNFTPublic",
      "outputs": [
        {
          "internalType": "int256",
          "name": "responseCode",
          "type": "int256"
        }
      ],
      "stateMutability": "nonpayable",
      "type": "function"
    },
    {
      "inputs": [
        {
          "internalType": "address",
          "name": "token",
          "type": "address"
        },
        {
          "internalType": "address[]",
          "name": "sender",
          "type": "address[]"
        },
        {
          "internalType": "address[]",
          "name": "receiver",
          "type": "address[]"
        },
        {
          "internalType": "int64[]",
          "name": "serialNumber",
          "type": "int64[]"
        }
      ],
      "name": "transferNFTsPublic",
      "outputs": [
        {
          "internalType": "int256",
          "name": "responseCode",
          "type": "int256"
        }
      ],
      "stateMutability": "nonpayable",
      "type": "function"
    },
    {
      "inputs": [
        {
          "internalType": "address",
          "name": "token",
          "type": "address"
        },
        {
          "internalType": "address",
          "name": "sender",
          "type": "address"
        },
        {
          "internalType": "address",
          "name": "receiver",
          "type": "address"
        },
        {
          "internalType": "int64",
          "name": "amount",
          "type": "int64"
        }
      ],
      "name": "transferTokenPublic",
      "outputs": [
        {
          "internalType": "int256",
          "name": "responseCode",
          "type": "int256"
        }
      ],
      "stateMutability": "nonpayable",
      "type": "function"
    },
    {
      "inputs": [
        {
          "internalType": "address",
          "name": "token",
          "type": "address"
        },
        {
          "internalType": "address[]",
          "name": "accountId",
          "type": "address[]"
        },
        {
          "internalType": "int64[]",
          "name": "amount",
          "type": "int64[]"
        }
      ],
      "name": "transferTokensPublic",
      "outputs": [
        {
          "internalType": "int256",
          "name": "responseCode",
          "type": "int256"
        }
      ],
      "stateMutability": "nonpayable",
      "type": "function"
    }
  ],
  "bytecode": "0x608060405234801561000f575f80fd5b50600160208181527fa6eef7e35abe7026729641147f7915573c7e97b47efa546f5f6e3230263bcb499190915560027fcc69885fda6bcc1a4ace058b4a62bf5e179ea78fd58a1ccd71c22cc9b688792f5560047fd9d16d34ffb15ba3a3d852f0d403e2ce1d691fb54de27ac87cd2f993f3ec330f5560087f7dfe757ecd65cbd7922a9c0161e935dd7fdbcc0e999689c7d31633896b1fc60b5560107fedc95719e9a3b28dd8e80877cb5880a9be7de1a13fc8b05e7999683b6b567643557fe2689cd4a84e23ad2f564004f1c9013e9589d260bde6380aba3ca7e09e4df40c5560065f5260407f8f331abe73332f95a25873e8b430885974c0409691f89d643119a11623a7924a55611552806101235f395ff3fe608060405234801561000f575f80fd5b50600436106100da575f3560e01c8063842b71db11610088578063cc2528f011610063578063cc2528f0146101bd578063df6c06f5146101d0578063f25b1200146101e3578063f848fec4146101f6575f80fd5b8063842b71db14610184578063970e23d2146101975780639b23d3d9146101aa575f80fd5b8063618dc65e116100b8578063618dc65e1461013d5780636c40a7771461015e5780636da6b1f014610171575f80fd5b806315dacbea146100de5780634ba6703514610109578063581315511461012a575b5f80fd5b6100f16100ec3660046109c0565b610209565b60405160079190910b81526020015b60405180910390f35b61011c610117366004610a19565b6102f8565b604051908152602001610100565b61011c610138366004610bf0565b610354565b61015061014b366004610c86565b6103ae565b604051610100929190610d59565b6100f161016c3660046109c0565b6104d5565b61011c61017f366004610a19565b6105a0565b6100f16101923660046109c0565b6105ad565b61011c6101a5366004610d71565b6105f2565b6100f16101b83660046109c0565b61060e565b61011c6101cb366004610e0a565b610652565b61011c6101de366004610e9d565b61065f565b61011c6101f1366004610ee5565b61066b565b61011c610204366004610e9d565b610677565b6040516001600160a01b038581166024830152848116604483015283166064820152608481018290525f908190819061016790630aed65f560e11b9060a4015b60408051601f198184030181529181526020820180516001600160e01b03166001600160e01b03199094169390931790925290516102879190610f25565b5f604051808303815f865af19150503d805f81146102c0576040519150601f19603f3d011682016040523d82523d5f602084013e6102c5565b606091505b5091509150816102d65760156102ea565b808060200190518101906102ea9190610f51565b60030b979650505050505050565b5f61030585858585610683565b90507f90a5cf4cffe88b4edbb041cfc7a8a812c48a5ec30b84640fb37690875168e3aa8160405161033891815260200190565b60405180910390a16016811461034c575f80fd5b949350505050565b5f6103608484846106ca565b90507f90a5cf4cffe88b4edbb041cfc7a8a812c48a5ec30b84640fb37690875168e3aa8160405161039391815260200190565b60405180910390a1601681146103a7575f80fd5b9392505050565b5f60605f806101676001600160a01b031663618dc65e60e01b87876040516024016103da929190610f6a565b60408051601f198184030181529181526020820180516001600160e01b03166001600160e01b03199094169390931790925290516104189190610f25565b5f604051808303815f865af19150503d805f8114610451576040519150601f19603f3d011682016040523d82523d5f602084013e610456565b606091505b50915091507f4af4780e06fe8cb9df64b0794fa6f01399af979175bb988e35e0e57e594567bc828260405161048c929190610f8b565b60405180910390a1816104af57601560405180602001604052805f8152506104c3565b808060200190518101906104c39190610fa5565b60039190910b97909650945050505050565b604051639b23d3d960e01b81526001600160a01b038086166004830152808516602483015283166044820152606481018290525f903090639b23d3d9906084015b6020604051808303815f875af1158015610532573d5f803e3d5ffd5b505050506040513d601f19601f82011682018060405250810190610556919061102a565b604051600782900b81529091507f90a5cf4cffe88b4edbb041cfc7a8a812c48a5ec30b84640fb37690875168e3aa9060200160405180910390a1600781900b60161461034c575f80fd5b5f610305858585856107a4565b604051630aed65f560e11b81526001600160a01b038086166004830152808516602483015283166044820152606481018290525f9030906315dacbea90608401610516565b5f6103606105ff856110ec565b610609848661114a565b6107eb565b6040516001600160a01b038581166024830152848116604483015283166064820152608481018290525f908190819061016790639b23d3d960e01b9060a401610249565b5f610305858585856108c2565b5f6103608484846108f0565b5f61036084848461092c565b5f610360848484610969565b6040516001600160a01b038581166024830152848116604483015283166064820152600782900b60848201525f90819081906101679063eca3691760e01b9060a401610249565b5f805f6101676001600160a01b03166382bba49360e01b8787876040516024016106f693929190611341565b60408051601f198184030181529181526020820180516001600160e01b03166001600160e01b03199094169390931790925290516107349190610f25565b5f604051808303815f865af19150503d805f811461076d576040519150601f19603f3d011682016040523d82523d5f602084013e610772565b606091505b509150915081610783576015610797565b808060200190518101906107979190610f51565b60030b9695505050505050565b6040516001600160a01b038581166024830152848116604483015283166064820152600782900b60848201525f908190819061016790635cfc901160e01b9060a401610249565b5f805f6101676001600160a01b0316630e71804f60e01b86866040516024016108159291906113d0565b60408051601f198184030181529181526020820180516001600160e01b03166001600160e01b03199094169390931790925290516108539190610f25565b5f604051808303815f865af19150503d805f811461088c576040519150601f19603f3d011682016040523d82523d5f602084013e610891565b606091505b5091509150816108a25760156108b6565b808060200190518101906108b69190610f51565b60030b95945050505050565b5f805f6101676001600160a01b0316632c4ba19160e01b8888888860405160240161024994939291906114ca565b6040516001600160a01b03848116602483015283166044820152606481018290525f9081908190610167906307336aaf60e41b906084016106f6565b6040516001600160a01b0384811660248301528316604482015281151560648201525f908190819061016790631b3b02e560e11b906084016106f6565b6040516001600160a01b03848116602483015283166044820152606481018290525f90819081906101679063e1f21c6760e01b906084016106f6565b80356001600160a01b03811681146109bb575f80fd5b919050565b5f805f80608085870312156109d3575f80fd5b6109dc856109a5565b93506109ea602086016109a5565b92506109f8604086016109a5565b9396929550929360600135925050565b8060070b8114610a16575f80fd5b50565b5f805f8060808587031215610a2c575f80fd5b610a35856109a5565b9350610a43602086016109a5565b9250610a51604086016109a5565b91506060850135610a6181610a08565b939692955090935050565b634e487b7160e01b5f52604160045260245ffd5b6040516060810167ffffffffffffffff81118282101715610aa357610aa3610a6c565b60405290565b6040516080810167ffffffffffffffff81118282101715610aa357610aa3610a6c565b604051601f8201601f1916810167ffffffffffffffff81118282101715610af557610af5610a6c565b604052919050565b5f67ffffffffffffffff821115610b1657610b16610a6c565b5060051b60200190565b5f82601f830112610b2f575f80fd5b81356020610b44610b3f83610afd565b610acc565b82815260059290921b84018101918181019086841115610b62575f80fd5b8286015b84811015610b8457610b77816109a5565b8352918301918301610b66565b509695505050505050565b5f82601f830112610b9e575f80fd5b81356020610bae610b3f83610afd565b82815260059290921b84018101918181019086841115610bcc575f80fd5b8286015b84811015610b84578035610be381610a08565b8352918301918301610bd0565b5f805f60608486031215610c02575f80fd5b610c0b846109a5565b9250602084013567ffffffffffffffff80821115610c27575f80fd5b610c3387838801610b20565b93506040860135915080821115610c48575f80fd5b50610c5586828701610b8f565b9150509250925092565b5f67ffffffffffffffff821115610c7857610c78610a6c565b50601f01601f191660200190565b5f8060408385031215610c97575f80fd5b610ca0836109a5565b9150602083013567ffffffffffffffff811115610cbb575f80fd5b8301601f81018513610ccb575f80fd5b8035610cd9610b3f82610c5f565b818152866020838501011115610ced575f80fd5b816020840160208301375f602083830101528093505050509250929050565b5f5b83811015610d26578181015183820152602001610d0e565b50505f910152565b5f8151808452610d45816020860160208601610d0c565b601f01601f19169290920160200192915050565b828152604060208201525f61034c6040830184610d2e565b5f805f60408486031215610d83575f80fd5b833567ffffffffffffffff80821115610d9a575f80fd5b9085019060208288031215610dad575f80fd5b90935060208501359080821115610dc2575f80fd5b818601915086601f830112610dd5575f80fd5b813581811115610de3575f80fd5b8760208260051b8501011115610df7575f80fd5b6020830194508093505050509250925092565b5f805f8060808587031215610e1d575f80fd5b610e26856109a5565b9350602085013567ffffffffffffffff80821115610e42575f80fd5b610e4e88838901610b20565b94506040870135915080821115610e63575f80fd5b610e6f88838901610b20565b93506060870135915080821115610e84575f80fd5b50610e9187828801610b8f565b91505092959194509250565b5f805f60608486031215610eaf575f80fd5b610eb8846109a5565b9250610ec6602085016109a5565b9150604084013590509250925092565b803580151581146109bb575f80fd5b5f805f60608486031215610ef7575f80fd5b610f00846109a5565b9250610f0e602085016109a5565b9150610f1c60408501610ed6565b90509250925092565b5f8251610f36818460208701610d0c565b9190910192915050565b8051600381900b81146109bb575f80fd5b5f60208284031215610f61575f80fd5b6103a782610f40565b6001600160a01b0383168152604060208201525f61034c6040830184610d2e565b8215158152604060208201525f61034c6040830184610d2e565b5f8060408385031215610fb6575f80fd5b610fbf83610f40565b9150602083015167ffffffffffffffff811115610fda575f80fd5b8301601f81018513610fea575f80fd5b8051610ff8610b3f82610c5f565b81815286602083850101111561100c575f80fd5b61101d826020830160208601610d0c565b8093505050509250929050565b5f6020828403121561103a575f80fd5b81516103a781610a08565b5f82601f830112611054575f80fd5b81356020611064610b3f83610afd565b82815260609283028501820192828201919087851115611082575f80fd5b8387015b858110156110df5781818a03121561109d575f8081fd5b6110a5610a80565b6110ae826109a5565b8152858201356110bd81610a08565b8187015260406110ce838201610ed6565b908201528452928401928101611086565b5090979650505050505050565b5f602082360312156110fc575f80fd5b6040516020810167ffffffffffffffff828210818311171561112057611120610a6c565b816040528435915080821115611134575f80fd5b5061114136828601611045565b82525092915050565b5f611157610b3f84610afd565b80848252602080830192508560051b850136811115611174575f80fd5b855b818110156112c257803567ffffffffffffffff80821115611196575f8081fd5b818901915060608083360312156111ac575f8081fd5b6111b4610a80565b6111bd846109a5565b815286840135838111156111d0575f8081fd5b6111dc36828701611045565b8883015250604080850135848111156111f4575f8081fd5b949094019336601f86011261120a575f93508384fd5b8435935061121a610b3f85610afd565b84815260079490941b85018801938881019036861115611239575f8081fd5b958901955b858710156112aa5760808736031215611256575f8081fd5b61125e610aa9565b611267886109a5565b81526112748b89016109a5565b8b8201528388013561128581610a08565b81850152611294888701610ed6565b818701528252608096909601959089019061123e565b91830191909152508852505050938201938201611176565b50919695505050505050565b5f8151808452602080850194508084015f5b838110156113055781516001600160a01b0316875295820195908201906001016112e0565b509495945050505050565b5f8151808452602080850194508084015f5b8381101561130557815160070b87529582019590820190600101611322565b6001600160a01b0384168152606060208201525f61136260608301856112ce565b82810360408401526113748185611310565b9695505050505050565b5f8151808452602080850194508084015f5b8381101561130557815180516001600160a01b031688528381015160070b8489015260409081015115159088015260609096019590820190600101611390565b5f604080835260608551602080848701526113ed8387018361137e565b9150858203818701528187518084528284019150828160051b850101838a015f5b838110156114b957601f1987840301855281516001600160a01b03808251168552878201518a898701526114448b87018261137e565b928c0151868403878e01528051808552908a01935f92508a01905b808310156114a35784518051851683528b81015185168c8401528e81015160070b8f8401528d015115158d830152938a01936001929092019160809091019061145f565b509789019795505050918601915060010161140e565b50909b9a5050505050505050505050565b6001600160a01b0385168152608060208201525f6114eb60808301866112ce565b82810360408401526114fd81866112ce565b905082810360608401526115118185611310565b97965050505050505056fea26469706673582212206e697eb4a628081368c53ae657e98040909778f7cb6efa9b9489ddd66bc7a5c964736f6c63430008140033",
  "linkReferences": {},
  "deployedLinkReferences": {}
}