{
  "_format": "hh-sol-artifact-1",
  "contractName": "ClimberSelector",
  "sourceName": "contracts/openzeppelin/ERC-165/ClimberSelector.sol",
  "abi": [
    {
      "inputs": [],
      "name": "calculateSelector",
      "outputs": [
        {
          "internalType": "bytes4",
          "name": "",
          "type": "bytes4"
        }
      ],
      "stateMutability": "pure",
      "type": "function"
    },
    {
      "inputs": [],
      "name": "calculateSelectorNotSupported",
      "outputs": [
        {
          "internalType": "bytes4",
          "name": "",
          "type": "bytes4"
        }
      ],
      "stateMutability": "pure",
      "type": "function"
    }
  ],
  "bytecode": "0x608060405234801561001057600080fd5b5060b78061001f6000396000f3fe6080604052348015600f57600080fd5b506004361060325760003560e01c8063467f51d4146037578063bb71eb3b146075575b600080fd5b63f6cef59760e01b5b6040517fffffffff00000000000000000000000000000000000000000000000000000000909116815260200160405180910390f35b639eda8ec960e01b604056fea2646970667358221220525b4c26395e84127aa49bf7f3e7f70b71ec78e027077b1144348602f817f4b264736f6c63430008170033",
  "linkReferences": {},
  "deployedLinkReferences": {}
}