{
  "_format": "hh-sol-artifact-1",
  "contractName": "SafeOperations",
  "sourceName": "contracts/safe-hts-precompile/SafeOperations.sol",
  "abi": [
    {
      "inputs": [],
      "name": "ApproveFailed",
      "type": "error"
    },
    {
      "inputs": [],
      "name": "BurnFailed",
      "type": "error"
    },
    {
      "inputs": [],
      "name": "CreateFungibleTokenFailed",
      "type": "error"
    },
    {
      "inputs": [],
      "name": "CreateFungibleTokenWithCustomFeesFailed",
      "type": "error"
    },
    {
      "inputs": [],
      "name": "CreateNonFungibleTokenFailed",
      "type": "error"
    },
    {
      "inputs": [],
      "name": "CreateNonFungibleTokenWithCustomFeesFailed",
      "type": "error"
    },
    {
      "inputs": [],
      "name": "CryptoTransferFailed",
      "type": "error"
    },
    {
      "inputs": [],
      "name": "FreezeTokenFailed",
      "type": "error"
    },
    {
      "inputs": [],
      "name": "GrantTokenKYCFailed",
      "type": "error"
    },
    {
      "inputs": [],
      "name": "MintFailed",
      "type": "error"
    },
    {
      "inputs": [],
      "name": "MultipleAssociationsFailed",
      "type": "error"
    },
    {
      "inputs": [],
      "name": "MultipleDissociationsFailed",
      "type": "error"
    },
    {
      "inputs": [],
      "name": "NFTApproveFailed",
      "type": "error"
    },
    {
      "inputs": [],
      "name": "NFTTransferFailed",
      "type": "error"
    },
    {
      "inputs": [],
      "name": "NFTsTransferFailed",
      "type": "error"
    },
    {
      "inputs": [],
      "name": "PauseTokenFailed",
      "type": "error"
    },
    {
      "inputs": [],
      "name": "RevokeTokenKYCFailed",
      "type": "error"
    },
    {
      "inputs": [],
      "name": "SetTokenApprovalForAllFailed",
      "type": "error"
    },
    {
      "inputs": [],
      "name": "SingleAssociationFailed",
      "type": "error"
    },
    {
      "inputs": [],
      "name": "SingleDissociationFailed",
      "type": "error"
    },
    {
      "inputs": [],
      "name": "TokenDeleteFailed",
      "type": "error"
    },
    {
      "inputs": [],
      "name": "TokenTransferFailed",
      "type": "error"
    },
    {
      "inputs": [],
      "name": "TokensTransferFailed",
      "type": "error"
    },
    {
      "inputs": [],
      "name": "UnfreezeTokenFailed",
      "type": "error"
    },
    {
      "inputs": [],
      "name": "UnpauseTokenFailed",
      "type": "error"
    },
    {
      "inputs": [],
      "name": "UpdateTokenExpiryInfoFailed",
      "type": "error"
    },
    {
      "inputs": [],
      "name": "UpdateTokenInfoFailed",
      "type": "error"
    },
    {
      "inputs": [],
      "name": "UpdateTokenKeysFailed",
      "type": "error"
    },
    {
      "inputs": [],
      "name": "WipeTokenAccountFailed",
      "type": "error"
    },
    {
      "inputs": [],
      "name": "WipeTokenAccountNFTFailed",
      "type": "error"
    },
    {
      "anonymous": false,
      "inputs": [
        {
          "indexed": false,
          "internalType": "int64",
          "name": "",
          "type": "int64"
        }
      ],
      "name": "BurnToken",
      "type": "event"
    },
    {
      "anonymous": false,
      "inputs": [
        {
          "indexed": false,
          "internalType": "int64[]",
          "name": "",
          "type": "int64[]"
        },
        {
          "indexed": false,
          "internalType": "int64",
          "name": "",
          "type": "int64"
        }
      ],
      "name": "MintedNft",
      "type": "event"
    },
    {
      "anonymous": false,
      "inputs": [
        {
          "indexed": false,
          "internalType": "int32",
          "name": "",
          "type": "int32"
        }
      ],
      "name": "ResponseCode",
      "type": "event"
    },
    {
      "anonymous": false,
      "inputs": [
        {
          "indexed": false,
          "internalType": "address",
          "name": "",
          "type": "address"
        }
      ],
      "name": "TokenCreated",
      "type": "event"
    },
    {
      "inputs": [
        {
          "internalType": "address",
          "name": "token",
          "type": "address"
        },
        {
          "internalType": "address",
          "name": "approved",
          "type": "address"
        },
        {
          "internalType": "int64",
          "name": "serialNumber",
          "type": "int64"
        }
      ],
      "name": "safeApproveNFTPublic",
      "outputs": [],
      "stateMutability": "nonpayable",
      "type": "function"
    },
    {
      "inputs": [
        {
          "internalType": "address",
          "name": "token",
          "type": "address"
        },
        {
          "internalType": "address",
          "name": "spender",
          "type": "address"
        },
        {
          "internalType": "uint256",
          "name": "amount",
          "type": "uint256"
        }
      ],
      "name": "safeApprovePublic",
      "outputs": [],
      "stateMutability": "nonpayable",
      "type": "function"
    },
    {
      "inputs": [
        {
          "internalType": "address",
          "name": "sender",
          "type": "address"
        },
        {
          "internalType": "address",
          "name": "tokenAddress",
          "type": "address"
        }
      ],
      "name": "safeAssociateTokenPublic",
      "outputs": [],
      "stateMutability": "nonpayable",
      "type": "function"
    },
    {
      "inputs": [
        {
          "internalType": "address",
          "name": "account",
          "type": "address"
        },
        {
          "internalType": "address[]",
          "name": "tokens",
          "type": "address[]"
        }
      ],
      "name": "safeAssociateTokensPublic",
      "outputs": [],
      "stateMutability": "nonpayable",
      "type": "function"
    },
    {
      "inputs": [
        {
          "internalType": "address",
          "name": "token",
          "type": "address"
        },
        {
          "internalType": "int64",
          "name": "amount",
          "type": "int64"
        },
        {
          "internalType": "int64[]",
          "name": "serialNumbers",
          "type": "int64[]"
        }
      ],
      "name": "safeBurnTokenPublic",
      "outputs": [
        {
          "internalType": "int64",
          "name": "newTotalSupply",
          "type": "int64"
        }
      ],
      "stateMutability": "nonpayable",
      "type": "function"
    },
    {
      "inputs": [],
      "name": "safeCreateFungibleTokenPublic",
      "outputs": [
        {
          "internalType": "address",
          "name": "tokenAddress",
          "type": "address"
        }
      ],
      "stateMutability": "payable",
      "type": "function"
    },
    {
      "inputs": [
        {
          "internalType": "address",
          "name": "feeCollector",
          "type": "address"
        },
        {
          "internalType": "address",
          "name": "existingTokenAddress",
          "type": "address"
        }
      ],
      "name": "safeCreateFungibleTokenWithCustomFeesPublic",
      "outputs": [
        {
          "internalType": "address",
          "name": "tokenAddress",
          "type": "address"
        }
      ],
      "stateMutability": "payable",
      "type": "function"
    },
    {
      "inputs": [],
      "name": "safeCreateNonFungibleTokenPublic",
      "outputs": [
        {
          "internalType": "address",
          "name": "tokenAddress",
          "type": "address"
        }
      ],
      "stateMutability": "payable",
      "type": "function"
    },
    {
      "inputs": [
        {
          "internalType": "address",
          "name": "feeCollector",
          "type": "address"
        },
        {
          "internalType": "address",
          "name": "existingTokenAddress",
          "type": "address"
        }
      ],
      "name": "safeCreateNonFungibleTokenWithCustomFeesPublic",
      "outputs": [
        {
          "internalType": "address",
          "name": "tokenAddress",
          "type": "address"
        }
      ],
      "stateMutability": "payable",
      "type": "function"
    },
    {
      "inputs": [
        {
          "components": [
            {
              "components": [
                {
                  "internalType": "address",
                  "name": "accountID",
                  "type": "address"
                },
                {
                  "internalType": "int64",
                  "name": "amount",
                  "type": "int64"
                },
                {
                  "internalType": "bool",
                  "name": "isApproval",
                  "type": "bool"
                }
              ],
              "internalType": "struct IHederaTokenService.AccountAmount[]",
              "name": "transfers",
              "type": "tuple[]"
            }
          ],
          "internalType": "struct IHederaTokenService.TransferList",
          "name": "transferList",
          "type": "tuple"
        },
        {
          "components": [
            {
              "internalType": "address",
              "name": "token",
              "type": "address"
            },
            {
              "components": [
                {
                  "internalType": "address",
                  "name": "accountID",
                  "type": "address"
                },
                {
                  "internalType": "int64",
                  "name": "amount",
                  "type": "int64"
                },
                {
                  "internalType": "bool",
                  "name": "isApproval",
                  "type": "bool"
                }
              ],
              "internalType": "struct IHederaTokenService.AccountAmount[]",
              "name": "transfers",
              "type": "tuple[]"
            },
            {
              "components": [
                {
                  "internalType": "address",
                  "name": "senderAccountID",
                  "type": "address"
                },
                {
                  "internalType": "address",
                  "name": "receiverAccountID",
                  "type": "address"
                },
                {
                  "internalType": "int64",
                  "name": "serialNumber",
                  "type": "int64"
                },
                {
                  "internalType": "bool",
                  "name": "isApproval",
                  "type": "bool"
                }
              ],
              "internalType": "struct IHederaTokenService.NftTransfer[]",
              "name": "nftTransfers",
              "type": "tuple[]"
            }
          ],
          "internalType": "struct IHederaTokenService.TokenTransferList[]",
          "name": "tokenTransferList",
          "type": "tuple[]"
        }
      ],
      "name": "safeCryptoTransferPublic",
      "outputs": [],
      "stateMutability": "nonpayable",
      "type": "function"
    },
    {
      "inputs": [
        {
          "internalType": "address",
          "name": "token",
          "type": "address"
        }
      ],
      "name": "safeDeleteTokenPublic",
      "outputs": [],
      "stateMutability": "nonpayable",
      "type": "function"
    },
    {
      "inputs": [
        {
          "internalType": "address",
          "name": "sender",
          "type": "address"
        },
        {
          "internalType": "address",
          "name": "tokenAddress",
          "type": "address"
        }
      ],
      "name": "safeDissociateTokenPublic",
      "outputs": [],
      "stateMutability": "nonpayable",
      "type": "function"
    },
    {
      "inputs": [
        {
          "internalType": "address",
          "name": "account",
          "type": "address"
        },
        {
          "internalType": "address[]",
          "name": "tokens",
          "type": "address[]"
        }
      ],
      "name": "safeDissociateTokensPublic",
      "outputs": [],
      "stateMutability": "nonpayable",
      "type": "function"
    },
    {
      "inputs": [
        {
          "internalType": "address",
          "name": "token",
          "type": "address"
        },
        {
          "internalType": "address",
          "name": "account",
          "type": "address"
        }
      ],
      "name": "safeFreezeTokenPublic",
      "outputs": [],
      "stateMutability": "nonpayable",
      "type": "function"
    },
    {
      "inputs": [
        {
          "internalType": "address",
          "name": "token",
          "type": "address"
        },
        {
          "internalType": "address",
          "name": "account",
          "type": "address"
        }
      ],
      "name": "safeGrantTokenKycPublic",
      "outputs": [],
      "stateMutability": "nonpayable",
      "type": "function"
    },
    {
      "inputs": [
        {
          "internalType": "address",
          "name": "token",
          "type": "address"
        },
        {
          "internalType": "int64",
          "name": "amount",
          "type": "int64"
        },
        {
          "internalType": "bytes[]",
          "name": "metadata",
          "type": "bytes[]"
        }
      ],
      "name": "safeMintTokenPublic",
      "outputs": [
        {
          "internalType": "int64",
          "name": "newTotalSupply",
          "type": "int64"
        },
        {
          "internalType": "int64[]",
          "name": "serialNumbers",
          "type": "int64[]"
        }
      ],
      "stateMutability": "nonpayable",
      "type": "function"
    },
    {
      "inputs": [
        {
          "internalType": "address",
          "name": "token",
          "type": "address"
        }
      ],
      "name": "safePauseTokenPublic",
      "outputs": [],
      "stateMutability": "nonpayable",
      "type": "function"
    },
    {
      "inputs": [
        {
          "internalType": "address",
          "name": "token",
          "type": "address"
        },
        {
          "internalType": "address",
          "name": "account",
          "type": "address"
        }
      ],
      "name": "safeRevokeTokenKycPublic",
      "outputs": [],
      "stateMutability": "nonpayable",
      "type": "function"
    },
    {
      "inputs": [
        {
          "internalType": "address",
          "name": "token",
          "type": "address"
        },
        {
          "internalType": "address",
          "name": "operator",
          "type": "address"
        },
        {
          "internalType": "bool",
          "name": "approved",
          "type": "bool"
        }
      ],
      "name": "safeSetApprovalForAllPublic",
      "outputs": [],
      "stateMutability": "nonpayable",
      "type": "function"
    },
    {
      "inputs": [
        {
          "internalType": "address",
          "name": "token",
          "type": "address"
        },
        {
          "internalType": "address",
          "name": "sender",
          "type": "address"
        },
        {
          "internalType": "address",
          "name": "receiver",
          "type": "address"
        },
        {
          "internalType": "int64",
          "name": "serialNum",
          "type": "int64"
        }
      ],
      "name": "safeTransferNFTPublic",
      "outputs": [],
      "stateMutability": "nonpayable",
      "type": "function"
    },
    {
      "inputs": [
        {
          "internalType": "address",
          "name": "token",
          "type": "address"
        },
        {
          "internalType": "address[]",
          "name": "sender",
          "type": "address[]"
        },
        {
          "internalType": "address[]",
          "name": "receiver",
          "type": "address[]"
        },
        {
          "internalType": "int64[]",
          "name": "serialNumber",
          "type": "int64[]"
        }
      ],
      "name": "safeTransferNFTsPublic",
      "outputs": [],
      "stateMutability": "nonpayable",
      "type": "function"
    },
    {
      "inputs": [
        {
          "internalType": "address",
          "name": "token",
          "type": "address"
        },
        {
          "internalType": "address",
          "name": "sender",
          "type": "address"
        },
        {
          "internalType": "address",
          "name": "receiver",
          "type": "address"
        },
        {
          "internalType": "int64",
          "name": "amount",
          "type": "int64"
        }
      ],
      "name": "safeTransferTokenPublic",
      "outputs": [],
      "stateMutability": "nonpayable",
      "type": "function"
    },
    {
      "inputs": [
        {
          "internalType": "address",
          "name": "token",
          "type": "address"
        },
        {
          "internalType": "address[]",
          "name": "accountIds",
          "type": "address[]"
        },
        {
          "internalType": "int64[]",
          "name": "amounts",
          "type": "int64[]"
        }
      ],
      "name": "safeTransferTokensPublic",
      "outputs": [],
      "stateMutability": "nonpayable",
      "type": "function"
    },
    {
      "inputs": [
        {
          "internalType": "address",
          "name": "token",
          "type": "address"
        },
        {
          "internalType": "address",
          "name": "account",
          "type": "address"
        }
      ],
      "name": "safeUnfreezeTokenPublic",
      "outputs": [],
      "stateMutability": "nonpayable",
      "type": "function"
    },
    {
      "inputs": [
        {
          "internalType": "address",
          "name": "token",
          "type": "address"
        }
      ],
      "name": "safeUnpauseTokenPublic",
      "outputs": [],
      "stateMutability": "nonpayable",
      "type": "function"
    },
    {
      "inputs": [
        {
          "internalType": "address",
          "name": "token",
          "type": "address"
        },
        {
          "components": [
            {
              "internalType": "int64",
              "name": "second",
              "type": "int64"
            },
            {
              "internalType": "address",
              "name": "autoRenewAccount",
              "type": "address"
            },
            {
              "internalType": "int64",
              "name": "autoRenewPeriod",
              "type": "int64"
            }
          ],
          "internalType": "struct IHederaTokenService.Expiry",
          "name": "expiryInfo",
          "type": "tuple"
        }
      ],
      "name": "safeUpdateTokenExpiryInfoPublic",
      "outputs": [],
      "stateMutability": "nonpayable",
      "type": "function"
    },
    {
      "inputs": [
        {
          "internalType": "address",
          "name": "token",
          "type": "address"
        },
        {
          "components": [
            {
              "internalType": "string",
              "name": "name",
              "type": "string"
            },
            {
              "internalType": "string",
              "name": "symbol",
              "type": "string"
            },
            {
              "internalType": "address",
              "name": "treasury",
              "type": "address"
            },
            {
              "internalType": "string",
              "name": "memo",
              "type": "string"
            },
            {
              "internalType": "bool",
              "name": "tokenSupplyType",
              "type": "bool"
            },
            {
              "internalType": "int64",
              "name": "maxSupply",
              "type": "int64"
            },
            {
              "internalType": "bool",
              "name": "freezeDefault",
              "type": "bool"
            },
            {
              "components": [
                {
                  "internalType": "uint256",
                  "name": "keyType",
                  "type": "uint256"
                },
                {
                  "components": [
                    {
                      "internalType": "bool",
                      "name": "inheritAccountKey",
                      "type": "bool"
                    },
                    {
                      "internalType": "address",
                      "name": "contractId",
                      "type": "address"
                    },
                    {
                      "internalType": "bytes",
                      "name": "ed25519",
                      "type": "bytes"
                    },
                    {
                      "internalType": "bytes",
                      "name": "ECDSA_secp256k1",
                      "type": "bytes"
                    },
                    {
                      "internalType": "address",
                      "name": "delegatableContractId",
                      "type": "address"
                    }
                  ],
                  "internalType": "struct IHederaTokenService.KeyValue",
                  "name": "key",
                  "type": "tuple"
                }
              ],
              "internalType": "struct IHederaTokenService.TokenKey[]",
              "name": "tokenKeys",
              "type": "tuple[]"
            },
            {
              "components": [
                {
                  "internalType": "int64",
                  "name": "second",
                  "type": "int64"
                },
                {
                  "internalType": "address",
                  "name": "autoRenewAccount",
                  "type": "address"
                },
                {
                  "internalType": "int64",
                  "name": "autoRenewPeriod",
                  "type": "int64"
                }
              ],
              "internalType": "struct IHederaTokenService.Expiry",
              "name": "expiry",
              "type": "tuple"
            }
          ],
          "internalType": "struct IHederaTokenService.HederaToken",
          "name": "tokenInfo",
          "type": "tuple"
        }
      ],
      "name": "safeUpdateTokenInfoPublic",
      "outputs": [],
      "stateMutability": "nonpayable",
      "type": "function"
    },
    {
      "inputs": [
        {
          "internalType": "address",
          "name": "token",
          "type": "address"
        },
        {
          "components": [
            {
              "internalType": "uint256",
              "name": "keyType",
              "type": "uint256"
            },
            {
              "components": [
                {
                  "internalType": "bool",
                  "name": "inheritAccountKey",
                  "type": "bool"
                },
                {
                  "internalType": "address",
                  "name": "contractId",
                  "type": "address"
                },
                {
                  "internalType": "bytes",
                  "name": "ed25519",
                  "type": "bytes"
                },
                {
                  "internalType": "bytes",
                  "name": "ECDSA_secp256k1",
                  "type": "bytes"
                },
                {
                  "internalType": "address",
                  "name": "delegatableContractId",
                  "type": "address"
                }
              ],
              "internalType": "struct IHederaTokenService.KeyValue",
              "name": "key",
              "type": "tuple"
            }
          ],
          "internalType": "struct IHederaTokenService.TokenKey[]",
          "name": "keys",
          "type": "tuple[]"
        }
      ],
      "name": "safeUpdateTokenKeysPublic",
      "outputs": [],
      "stateMutability": "nonpayable",
      "type": "function"
    },
    {
      "inputs": [
        {
          "internalType": "address",
          "name": "token",
          "type": "address"
        },
        {
          "internalType": "address",
          "name": "account",
          "type": "address"
        },
        {
          "internalType": "int64[]",
          "name": "serialNumbers",
          "type": "int64[]"
        }
      ],
      "name": "safeWipeTokenAccountNFTPublic",
      "outputs": [],
      "stateMutability": "nonpayable",
      "type": "function"
    },
    {
      "inputs": [
        {
          "internalType": "address",
          "name": "token",
          "type": "address"
        },
        {
          "internalType": "address",
          "name": "account",
          "type": "address"
        },
        {
          "internalType": "int64",
          "name": "amount",
          "type": "int64"
        }
      ],
      "name": "safeWipeTokenAccountPublic",
      "outputs": [],
      "stateMutability": "nonpayable",
      "type": "function"
    }
  ],
  "bytecode": "0x608060405234801561001057600080fd5b506145d0806100206000396000f3fe6080604052600436106101cd5760003560e01c8063a83f9679116100f7578063bea8e32e11610095578063e9adf74511610064578063e9adf74514610515578063edf8e82214610535578063f222723a14610555578063f5ca7b341461056857600080fd5b8063bea8e32e146104a2578063ce2e3c89146104b5578063da4d7d29146104d5578063dfc868eb146104f557600080fd5b8063b1897fe4116100d1578063b1897fe414610422578063b91d8ec214610442578063bb3a563014610462578063be7f2ed71461048257600080fd5b8063a83f9679146103c2578063abe75643146103e2578063adece39a1461040257600080fd5b8063419bb75d1161016f578063860101681161013e578063860101681461033457806388ccc3f31461035457806390c597d9146103745780639c95ceea1461039457600080fd5b8063419bb75d146102cc578063567faa0d146102ec57806372fffaad1461030c578063755d4c1b1461031457600080fd5b8063159d16c1116101ab578063159d16c11461024c578063204176f21461026c57806327877ab31461028c578063308aba98146102ac57600080fd5b806304bb3987146101d2578063075683d1146101f45780630a36520014610214575b600080fd5b3480156101de57600080fd5b506101f26101ed366004612de6565b610588565b005b34801561020057600080fd5b506101f261020f366004612e42565b6105bc565b34801561022057600080fd5b5061023461022f366004612ffb565b6105ea565b60405160079190910b81526020015b60405180910390f35b34801561025857600080fd5b506101f261026736600461305d565b61065a565b34801561027857600080fd5b506101f26102873660046130fa565b61068a565b610294610696565b6040516001600160a01b039091168152602001610243565b3480156102b857600080fd5b506101f26102c736600461336f565b6107c4565b3480156102d857600080fd5b506101f26102e73660046133bf565b6107ce565b3480156102f857600080fd5b506101f2610307366004613406565b610800565b61029461080a565b34801561032057600080fd5b506101f261032f366004612e42565b610924565b34801561034057600080fd5b506101f261034f36600461305d565b61092d565b34801561036057600080fd5b506101f261036f36600461344c565b610937565b34801561038057600080fd5b506101f261038f36600461347c565b610942565b3480156103a057600080fd5b506103b46103af3660046134c7565b61094d565b6040516102439291906135dd565b3480156103ce57600080fd5b506101f26103dd36600461305d565b6109c5565b3480156103ee57600080fd5b506101f26103fd366004613601565b6109cf565b34801561040e57600080fd5b506101f261041d36600461305d565b6109ea565b34801561042e57600080fd5b506101f261043d366004613406565b6109f4565b34801561044e57600080fd5b506101f261045d36600461305d565b6109fe565b34801561046e57600080fd5b506101f261047d366004612de6565b610a08565b34801561048e57600080fd5b506101f261049d3660046136a3565b610a14565b6102946104b036600461305d565b610a1f565b3480156104c157600080fd5b506101f26104d036600461370f565b610b66565b3480156104e157600080fd5b506101f26104f036600461347c565b610b71565b34801561050157600080fd5b506101f2610510366004612e42565b610b7c565b34801561052157600080fd5b506101f26105303660046137a5565b610b85565b34801561054157600080fd5b506101f261055036600461305d565b610b8f565b61029461056336600461305d565b610b99565b34801561057457600080fd5b506101f26105833660046137db565b610d37565b61059484848484610d41565b6040516016815260008051602061457b8339815191529060200160405180910390a150505050565b6105c581610e27565b6040516016815260008051602061457b8339815191529060200160405180910390a150565b60006105f7848484610ef0565b604051600782900b81529091507f53133e0356fe8800515f6b5d4118d1b488f960dd621cc18e91f1ddd508d854419060200160405180910390a16040516016815260008051602061457b8339815191529060200160405180910390a19392505050565b6106648282610ff9565b6040516016815260008051602061457b8339815191529060200160405180910390a15050565b610594848484846110cb565b60408051606080820183526000808352336020808501829052627a1200858701528551610160810187526009610120820190815268746f6b656e4e616d6560b81b610140830152815286518088018852600b81526a1d1bdad95b94de5b589bdb60aa1b818401528183015280870192909252855180870190965260048652636d656d6f60e01b9086015291820193909352600160808201526103e860a082015260c08101839052829060e0810161074b6111a5565b8152602001839052905061075e81611329565b6040516016815290935060008051602061457b8339815191529060200160405180910390a16040516001600160a01b03841681527f2e2b3f61b70d2d131b2a807371103cc98d51adcaa5e9a8f9c32658ad8426e74e9060200160405180910390a1505090565b6106648282611436565b6107d983838361150c565b6040516016815260008051602061457b8339815191529060200160405180910390a1505050565b61066482826115e7565b60408051610120810182526060808252602080830182815260008486018181528486018590526080860182905260a0860182905260c0860182905260e0860185905286519485018752818552848401829052848701829052610100860194909452855180870187526009815268746f6b656e4e616d6560b81b8185015285528551808701909652600b86526a1d1bdad95b94de5b589bdb60aa1b92860192909252939093523090526108bf8160c860086116bd565b6040516001600160a01b03821681529092507f2e2b3f61b70d2d131b2a807371103cc98d51adcaa5e9a8f9c32658ad8426e74e9060200160405180910390a16040516016815260008051602061457b8339815191529060200160405180910390a15090565b6105c5816117c7565b610664828261188b565b6107d9838383611957565b6107d9838383611a2f565b6000606061095c858585611b05565b60405191935091507f565ec5622bfe74fc2f81580234d95112d399dfaa1c273c617c3fffd9d388f83a906109939083908590613923565b60405180910390a16040516016815260008051602061457b8339815191529060200160405180910390a1935093915050565b6106648183611c24565b6107d96109db846139f5565b6109e58385613a56565b611cf0565b6106648282611dc5565b6106648282611e91565b6106648282611f67565b61059484848484612033565b6107d9838383612111565b60408051610120810182526060808252602080830182815260008486018181528486018590526080860182905260a0860182905260c0860182905260e0860185905286519485018752818552848401829052848701829052610100860194909452855180870187526009815268746f6b656e4e616d6560b81b8185015285528551808701909652600b86526a1d1bdad95b94de5b589bdb60aa1b928601929092529390935230905281610ad4600185876121e9565b90506000610aeb60046005600a601e60018b612371565b9050610afc8360c860088585612439565b6040516001600160a01b03821681529094507f2e2b3f61b70d2d131b2a807371103cc98d51adcaa5e9a8f9c32658ad8426e74e9060200160405180910390a16040516016815260008051602061457b8339815191529060200160405180910390a150505092915050565b6107d9838383612552565b6107d9838383612622565b6105c5816126f8565b61066482826127bb565b6106648183612891565b60408051610120810182526060808252602080830182815260008486018181528486018581526080870183905260a0870183905260c0870183905260e0870186905287519586018852828652858501839052858801839052610100870195909552865180880188526009815268746f6b656e4e616d6560b81b81860152865286518088018852600b81526a1d1bdad95b94de5b589bdb60aa1b8186015290925285518087019096526004808752636d656d6f60e01b9387019390935294909252309091528290610c6e906005600a878961295d565b60408051600080825260208201909252919250610cce918491610cc7565b6040805160a081018252600080825260208083018290529282018190526060820181905260808201528252600019909201910181610c8c5790505b5083612aef565b6040516001600160a01b03821681529093507f2e2b3f61b70d2d131b2a807371103cc98d51adcaa5e9a8f9c32658ad8426e74e9060200160405180910390a16040516016815260008051602061457b8339815191529060200160405180910390a1505092915050565b6106648282612bf8565b604080516001600160a01b038681166024830152858116604483015284166064820152600783900b6084808301919091528251808303909101815260a490910182526020810180516001600160e01b031663eca3691760e01b1790529051600091829161016791610db191613c0d565b6000604051808303816000865af19150503d8060008114610dee576040519150601f19603f3d011682016040523d82523d6000602084013e610df3565b606091505b5091509150610e028282612cd7565b610e1f5760405163022e258160e11b815260040160405180910390fd5b505050505050565b604080516001600160a01b03831660248083019190915282518083039091018152604490910182526020810180516001600160e01b0316631f106b4b60e21b1790529051600091829161016791610e7d91613c0d565b6000604051808303816000865af19150503d8060008114610eba576040519150601f19603f3d011682016040523d82523d6000602084013e610ebf565b606091505b5091509150610ece8282612cd7565b610eeb57604051630d797d9160e31b815260040160405180910390fd5b505050565b6000806000806101676001600160a01b031663d6910d0660e01b888888604051602401610f1f93929190613c29565b60408051601f198184030181529181526020820180516001600160e01b03166001600160e01b0319909416939093179092529051610f5d9190613c0d565b6000604051808303816000865af19150503d8060008114610f9a576040519150601f19603f3d011682016040523d82523d6000602084013e610f9f565b606091505b509150915081610fb25760156000610fc6565b80806020019051810190610fc69190613c6f565b94509250600383900b601614610fef57604051631bc5aabf60e21b815260040160405180910390fd5b5050509392505050565b604080516001600160a01b038481166024830152831660448083019190915282518083039091018152606490910182526020810180516001600160e01b03166316e3e16160e21b179052905160009182916101679161105791613c0d565b6000604051808303816000865af19150503d8060008114611094576040519150601f19603f3d011682016040523d82523d6000602084013e611099565b606091505b50915091506110a88282612cd7565b6110c557604051631a0a25f560e31b815260040160405180910390fd5b50505050565b6000806101676001600160a01b0316632c4ba19160e01b878787876040516024016110f99493929190613cd4565b60408051601f198184030181529181526020820180516001600160e01b03166001600160e01b03199094169390931790925290516111379190613c0d565b6000604051808303816000865af19150503d8060008114611174576040519150601f19603f3d011682016040523d82523d6000602084013e611179565b606091505b50915091506111888282612cd7565b610e1f57604051636d4b973960e01b815260040160405180910390fd5b60408051600580825260c0820190925260609160009190816020015b6111c9612d4e565b8152602001906001900390816111c15790505090506111e6612d64565b600181526111f2612d64565b600181526111fe612d64565b6001815261120a612d64565b60018152611216612d64565b600180825260408051808201909152908152602081018690528651879060009061124257611242613d27565b6020026020010181905250604051806040016040528060028152602001858152508660018151811061127657611276613d27565b602002602001018190525060405180604001604052806004815260200184815250866002815181106112aa576112aa613d27565b602002602001018190525060405180604001604052806008815260200183815250866003815181106112de576112de613d27565b6020026020010181905250604051806040016040528060108152602001828152508660048151811061131257611312613d27565b602002602001018190525085965050505050505090565b600061133482612d06565b60008060006101676001600160a01b03163463ea83f29360e01b8760405160240161135f9190613f2f565b60408051601f198184030181529181526020820180516001600160e01b03166001600160e01b031990941693909317909252905161139d9190613c0d565b60006040518083038185875af1925050503d80600081146113da576040519150601f19603f3d011682016040523d82523d6000602084013e6113df565b606091505b5091509150816113f25760156000611406565b808060200190518101906114069190613f42565b945060030b92506016831461142e57604051635850783b60e11b815260040160405180910390fd5b505050919050565b6000806101676001600160a01b0316636fc3cbaf60e01b8585604051602401611460929190613f6e565b60408051601f198184030181529181526020820180516001600160e01b03166001600160e01b031990941693909317909252905161149e9190613c0d565b6000604051808303816000865af19150503d80600081146114db576040519150601f19603f3d011682016040523d82523d6000602084013e6114e0565b606091505b50915091506114ef8282612cd7565b6110c5576040516315f62c9d60e21b815260040160405180910390fd5b604080516001600160a01b0385811660248301528416604482015282151560648083019190915282518083039091018152608490910182526020810180516001600160e01b0316631b3b02e560e11b179052905160009182916101679161157291613c0d565b6000604051808303816000865af19150503d80600081146115af576040519150601f19603f3d011682016040523d82523d6000602084013e6115b4565b606091505b50915091506115c38282612cd7565b6115e0576040516354b6b38d60e01b815260040160405180910390fd5b5050505050565b6000806101676001600160a01b03166378b6391860e01b8585604051602401611611929190613f90565b60408051601f198184030181529181526020820180516001600160e01b03166001600160e01b031990941693909317909252905161164f9190613c0d565b6000604051808303816000865af19150503d806000811461168c576040519150601f19603f3d011682016040523d82523d6000602084013e611691565b606091505b50915091506116a08282612cd7565b6110c55760405163de94cd4f60e01b815260040160405180910390fd5b60006116c884612d06565b60008060006101676001600160a01b031634630fb65bf360e01b8989896040516024016116f793929190613fb2565b60408051601f198184030181529181526020820180516001600160e01b03166001600160e01b03199094169390931790925290516117359190613c0d565b60006040518083038185875af1925050503d8060008114611772576040519150601f19603f3d011682016040523d82523d6000602084013e611777565b606091505b50915091508161178a576015600061179e565b8080602001905181019061179e9190613f42565b94509250600383900b601614610fef57604051636cc9c7cf60e11b815260040160405180910390fd5b604080516001600160a01b03831660248083019190915282518083039091018152604490910182526020810180516001600160e01b0316633b3bff0f60e01b179052905160009182916101679161181d91613c0d565b6000604051808303816000865af19150503d806000811461185a576040519150601f19603f3d011682016040523d82523d6000602084013e61185f565b606091505b509150915061186e8282612cd7565b610eeb5760405163f5db475160e01b815260040160405180910390fd5b604080516001600160a01b038481166024830152831660448083019190915282518083039091018152606490910182526020810180516001600160e01b031663af99c63360e01b17905290516000918291610167916118e991613c0d565b6000604051808303816000865af19150503d8060008114611926576040519150601f19603f3d011682016040523d82523d6000602084013e61192b565b606091505b509150915061193a8282612cd7565b6110c55760405163b5c2401d60e01b815260040160405180910390fd5b6000806101676001600160a01b031663f7f38e2660e01b86868660405160240161198393929190613fe1565b60408051601f198184030181529181526020820180516001600160e01b03166001600160e01b03199094169390931790925290516119c19190613c0d565b6000604051808303816000865af19150503d80600081146119fe576040519150601f19603f3d011682016040523d82523d6000602084013e611a03565b606091505b5091509150611a128282612cd7565b6115e057604051633c9afe0960e11b815260040160405180910390fd5b604080516001600160a01b03858116602483015284166044820152600783900b60648083019190915282518083039091018152608490910182526020810180516001600160e01b031663efef57f960e01b1790529051600091829161016791611a9791613c0d565b6000604051808303816000865af19150503d8060008114611ad4576040519150601f19603f3d011682016040523d82523d6000602084013e611ad9565b606091505b5091509150611ae88282612cd7565b6115e057604051634c55bcdb60e11b815260040160405180910390fd5b6000606060008060006101676001600160a01b031663e0f4059a60e01b898989604051602401611b379392919061400d565b60408051601f198184030181529181526020820180516001600160e01b03166001600160e01b0319909416939093179092529051611b759190613c0d565b6000604051808303816000865af19150503d8060008114611bb2576040519150601f19603f3d011682016040523d82523d6000602084013e611bb7565b606091505b509150915081611bda576040805160008082526020820190925260159190611bee565b80806020019051810190611bee919061408a565b90965094509250600383900b601614611c195760405162ec6f7b60e31b815260040160405180910390fd5b505050935093915050565b604080516001600160a01b038381166024830152841660448083019190915282518083039091018152606490910182526020810180516001600160e01b0316630132f29d60e31b1790529051600091829161016791611c8291613c0d565b6000604051808303816000865af19150503d8060008114611cbf576040519150601f19603f3d011682016040523d82523d6000602084013e611cc4565b606091505b5091509150611cd38282612cd7565b6110c5576040516314439df560e31b815260040160405180910390fd5b6000806101676001600160a01b0316630e71804f60e01b8585604051602401611d1a92919061419e565b60408051601f198184030181529181526020820180516001600160e01b03166001600160e01b0319909416939093179092529051611d589190613c0d565b6000604051808303816000865af19150503d8060008114611d95576040519150601f19603f3d011682016040523d82523d6000602084013e611d9a565b606091505b5091509150611da98282612cd7565b6110c55760405162eebe6360e81b815260040160405180910390fd5b604080516001600160a01b038481166024830152831660448083019190915282518083039091018152606490910182526020810180516001600160e01b0316638f8d7f9960e01b1790529051600091829161016791611e2391613c0d565b6000604051808303816000865af19150503d8060008114611e60576040519150601f19603f3d011682016040523d82523d6000602084013e611e65565b606091505b5091509150611e748282612cd7565b6110c557604051630fe6b06560e11b815260040160405180910390fd5b6000806101676001600160a01b0316632e63879b60e01b8585604051602401611ebb929190613f90565b60408051601f198184030181529181526020820180516001600160e01b03166001600160e01b0319909416939093179092529051611ef99190613c0d565b6000604051808303816000865af19150503d8060008114611f36576040519150601f19603f3d011682016040523d82523d6000602084013e611f3b565b606091505b5091509150611f4a8282612cd7565b6110c5576040516304abe53f60e51b815260040160405180910390fd5b604080516001600160a01b038481166024830152831660448083019190915282518083039091018152606490910182526020810180516001600160e01b03166352f9138760e01b1790529051600091829161016791611fc591613c0d565b6000604051808303816000865af19150503d8060008114612002576040519150601f19603f3d011682016040523d82523d6000602084013e612007565b606091505b50915091506120168282612cd7565b6110c557604051633b85464b60e11b815260040160405180910390fd5b604080516001600160a01b038681166024830152858116604483015284166064820152600783900b6084808301919091528251808303909101815260a490910182526020810180516001600160e01b0316635cfc901160e01b17905290516000918291610167916120a391613c0d565b6000604051808303816000865af19150503d80600081146120e0576040519150601f19603f3d011682016040523d82523d6000602084013e6120e5565b606091505b50915091506120f48282612cd7565b610e1f576040516308c0b8b360e31b815260040160405180910390fd5b6000806101676001600160a01b03166382bba49360e01b86868660405160240161213d9392919061429b565b60408051601f198184030181529181526020820180516001600160e01b03166001600160e01b031990941693909317909252905161217b9190613c0d565b6000604051808303816000865af19150503d80600081146121b8576040519150601f19603f3d011682016040523d82523d6000602084013e6121bd565b606091505b50915091506121cc8282612cd7565b6115e05760405163311bf68160e11b815260040160405180910390fd5b60408051600380825260808201909252606091816020015b6040805160a0810182526000808252602080830182905292820181905260608201819052608082015282526000199092019101816122015750506040805160a081018252600091810182905260608101829052600387900b81526001600160a01b038681166020830152851660808201529192506122bb6122838760026142d9565b856040805160a081018252600060208201819052606082015260039390930b83526001908301526001600160a01b0316608082015290565b905060006123086122cd8860046142d9565b866040805160a0810182526000602082018190529181019190915260039290920b8252600160608301526001600160a01b0316608082015290565b9050828460008151811061231e5761231e613d27565b6020026020010181905250818460018151811061233d5761233d613d27565b6020026020010181905250808460028151811061235c5761235c613d27565b60200260200101819052505050509392505050565b604080516001808252818301909252606091816020015b6040805160c08101825260008082526020808301829052928201819052606082018190526080820181905260a082015282526000199092019101816123885750506040805160c08101825260038a810b825289810b602083015288810b928201929092529086900b606082015284151560808201526001600160a01b03841660a0820152909150808260008151811061242357612423613d27565b6020026020010181905250509695505050505050565b600061244486612d06565b60008060006101676001600160a01b031634632af0c59a60e01b8b8b8b8b8b60405160240161247795949392919061437b565b60408051601f198184030181529181526020820180516001600160e01b03166001600160e01b03199094169390931790925290516124b59190613c0d565b60006040518083038185875af1925050503d80600081146124f2576040519150601f19603f3d011682016040523d82523d6000602084013e6124f7565b606091505b50915091508161250a576015600061251e565b8080602001905181019061251e9190613f42565b945060030b925060168314612546576040516351aeaaf760e11b815260040160405180910390fd5b50505095945050505050565b604080516001600160a01b03858116602483015284166044820152606480820184905282518083039091018152608490910182526020810180516001600160e01b031663e1f21c6760e01b17905290516000918291610167916125b491613c0d565b6000604051808303816000865af19150503d80600081146125f1576040519150601f19603f3d011682016040523d82523d6000602084013e6125f6565b606091505b50915091506126058282612cd7565b6115e057604051633e3f8f7360e01b815260040160405180910390fd5b604080516001600160a01b03858116602483015284166044820152600783900b60648083019190915282518083039091018152608490910182526020810180516001600160e01b03166307336aaf60e41b179052905160009182916101679161268a91613c0d565b6000604051808303816000865af19150503d80600081146126c7576040519150601f19603f3d011682016040523d82523d6000602084013e6126cc565b606091505b50915091506126db8282612cd7565b6115e0576040516323241c4960e01b815260040160405180910390fd5b604080516001600160a01b03831660248083019190915282518083039091018152604490910182526020810180516001600160e01b0316637834fb8960e11b179052905160009182916101679161274e91613c0d565b6000604051808303816000865af19150503d806000811461278b576040519150601f19603f3d011682016040523d82523d6000602084013e612790565b606091505b509150915061279f8282612cd7565b610eeb5760405162b4909160e51b815260040160405180910390fd5b6000806101676001600160a01b031663d27be6cd60e01b85856040516024016127e5929190614443565b60408051601f198184030181529181526020820180516001600160e01b03166001600160e01b03199094169390931790925290516128239190613c0d565b6000604051808303816000865af19150503d8060008114612860576040519150601f19603f3d011682016040523d82523d6000602084013e612865565b606091505b50915091506128748282612cd7565b6110c55760405163c779f09560e01b815260040160405180910390fd5b604080516001600160a01b038381166024830152841660448083019190915282518083039091018152606490910182526020810180516001600160e01b031663248a35ef60e11b17905290516000918291610167916128ef91613c0d565b6000604051808303816000865af19150503d806000811461292c576040519150601f19603f3d011682016040523d82523d6000602084013e612931565b606091505b50915091506129408282612cd7565b6110c557604051630aadd01b60e31b815260040160405180910390fd5b60408051600380825260808201909252606091816020015b6040805160c08101825260008082526020808301829052928201819052606082018190526080820181905260a082015282526000199092019101816129755750506040805160c08101825260009181018290526060810182905260808101829052600389810b825288900b60208201526001600160a01b03851660a0820152919250906040805160c08101825260038a810b825289810b602083015288900b91810191909152600060608201819052600160808301526001600160a01b03861660a08301529192506040805160c08101825260038b810b82528a810b602083015289900b918101919091526001600160a01b03808816606083015260006080830181905290871660a083015291925090508284600081518110612a9a57612a9a613d27565b60200260200101819052508184600181518110612ab957612ab9613d27565b60200260200101819052508084600281518110612ad857612ad8613d27565b602002602001018190525050505095945050505050565b6000612afa84612d06565b60008060006101676001600160a01b03163463abb54eb560e01b898989604051602401612b2993929190614486565b60408051601f198184030181529181526020820180516001600160e01b03166001600160e01b0319909416939093179092529051612b679190613c0d565b60006040518083038185875af1925050503d8060008114612ba4576040519150601f19603f3d011682016040523d82523d6000602084013e612ba9565b606091505b509150915081612bbc5760156000612bd0565b80806020019051810190612bd09190613f42565b945060030b925060168314610fef5760405163893b894d60e01b815260040160405180910390fd5b612c0181612d06565b6000806101676001600160a01b0316637d305cfa60e01b8585604051602401612c2b92919061453d565b60408051601f198184030181529181526020820180516001600160e01b03166001600160e01b0319909416939093179092529051612c699190613c0d565b6000604051808303816000865af19150503d8060008114612ca6576040519150601f19603f3d011682016040523d82523d6000602084013e612cab565b606091505b5091509150612cba8282612cd7565b6110c55760405163c2f7c6d760e01b815260040160405180910390fd5b6000601683612ce7576015612cfb565b82806020019051810190612cfb919061455f565b60030b149392505050565b6101008101515160070b158015612d2757506101008101516040015160070b155b15612d4657610100810180516276a70060409091015251306020909101525b50565b905290565b604051806040016040528060008152602001612d495b6040518060a0016040528060001515815260200160006001600160a01b03168152602001606081526020016060815260200160006001600160a01b031681525090565b6001600160a01b0381168114612d4657600080fd5b8035612dc781612da7565b919050565b8060070b8114612d4657600080fd5b8035612dc781612dcc565b60008060008060808587031215612dfc57600080fd5b8435612e0781612da7565b93506020850135612e1781612da7565b92506040850135612e2781612da7565b91506060850135612e3781612dcc565b939692955090935050565b600060208284031215612e5457600080fd5b8135612e5f81612da7565b9392505050565b634e487b7160e01b600052604160045260246000fd5b6040805190810167ffffffffffffffff81118282101715612e9f57612e9f612e66565b60405290565b60405160a0810167ffffffffffffffff81118282101715612e9f57612e9f612e66565b6040516060810167ffffffffffffffff81118282101715612e9f57612e9f612e66565b604051610120810167ffffffffffffffff81118282101715612e9f57612e9f612e66565b6040516080810167ffffffffffffffff81118282101715612e9f57612e9f612e66565b604051601f8201601f1916810167ffffffffffffffff81118282101715612f5b57612f5b612e66565b604052919050565b600067ffffffffffffffff821115612f7d57612f7d612e66565b5060051b60200190565b600082601f830112612f9857600080fd5b81356020612fad612fa883612f63565b612f32565b82815260059290921b84018101918181019086841115612fcc57600080fd5b8286015b84811015612ff0578035612fe381612dcc565b8352918301918301612fd0565b509695505050505050565b60008060006060848603121561301057600080fd5b833561301b81612da7565b9250602084013561302b81612dcc565b9150604084013567ffffffffffffffff81111561304757600080fd5b61305386828701612f87565b9150509250925092565b6000806040838503121561307057600080fd5b823561307b81612da7565b9150602083013561308b81612da7565b809150509250929050565b600082601f8301126130a757600080fd5b813560206130b7612fa883612f63565b82815260059290921b840181019181810190868411156130d657600080fd5b8286015b84811015612ff05780356130ed81612da7565b83529183019183016130da565b6000806000806080858703121561311057600080fd5b843561311b81612da7565b9350602085013567ffffffffffffffff8082111561313857600080fd5b61314488838901613096565b9450604087013591508082111561315a57600080fd5b61316688838901613096565b9350606087013591508082111561317c57600080fd5b5061318987828801612f87565b91505092959194509250565b80358015158114612dc757600080fd5b600082601f8301126131b657600080fd5b813567ffffffffffffffff8111156131d0576131d0612e66565b6131e3601f8201601f1916602001612f32565b8181528460208386010111156131f857600080fd5b816020850160208301376000918101602001919091529392505050565b600082601f83011261322657600080fd5b81356020613236612fa883612f63565b82815260059290921b8401810191818101908684111561325557600080fd5b8286015b84811015612ff057803567ffffffffffffffff8082111561327957600080fd5b908801906040601f19838c03810182131561329357600080fd5b61329b612e7c565b88850135815282850135848111156132b257600080fd5b949094019360a0858e03830112156132ca5760008081fd5b6132d2612ea5565b91506132df898601613195565b8252828501356132ee81612da7565b828a0152606085810135858111156133065760008081fd5b6133148f8c838a01016131a5565b858501525060809350838601358581111561332f5760008081fd5b61333d8f8c838a01016131a5565b82850152505060a0850135945061335385612da7565b9181019390935280870192909252508352918301918301613259565b6000806040838503121561338257600080fd5b823561338d81612da7565b9150602083013567ffffffffffffffff8111156133a957600080fd5b6133b585828601613215565b9150509250929050565b6000806000606084860312156133d457600080fd5b83356133df81612da7565b925060208401356133ef81612da7565b91506133fd60408501613195565b90509250925092565b6000806040838503121561341957600080fd5b823561342481612da7565b9150602083013567ffffffffffffffff81111561344057600080fd5b6133b585828601613096565b60008060006060848603121561346157600080fd5b833561346c81612da7565b9250602084013561302b81612da7565b60008060006060848603121561349157600080fd5b833561349c81612da7565b925060208401356134ac81612da7565b915060408401356134bc81612dcc565b809150509250925092565b6000806000606084860312156134dc57600080fd5b83356134e781612da7565b92506020848101356134f881612dcc565b9250604085013567ffffffffffffffff8082111561351557600080fd5b818701915087601f83011261352957600080fd5b8135613537612fa882612f63565b81815260059190911b8301840190848101908a83111561355657600080fd5b8585015b8381101561358e578035858111156135725760008081fd5b6135808d89838a01016131a5565b84525091860191860161355a565b508096505050505050509250925092565b600081518084526020808501945080840160005b838110156135d257815160070b875295820195908201906001016135b3565b509495945050505050565b8260070b81526040602082015260006135f9604083018461359f565b949350505050565b60008060006040848603121561361657600080fd5b833567ffffffffffffffff8082111561362e57600080fd5b908501906020828803121561364257600080fd5b9093506020850135908082111561365857600080fd5b818601915086601f83011261366c57600080fd5b81358181111561367b57600080fd5b8760208260051b850101111561369057600080fd5b6020830194508093505050509250925092565b6000806000606084860312156136b857600080fd5b83356136c381612da7565b9250602084013567ffffffffffffffff808211156136e057600080fd5b6136ec87838801613096565b9350604086013591508082111561370257600080fd5b5061305386828701612f87565b60008060006060848603121561372457600080fd5b833561372f81612da7565b9250602084013561373f81612da7565b929592945050506040919091013590565b60006060828403121561376257600080fd5b61376a612ec8565b9050813561377781612dcc565b8152602082013561378781612da7565b6020820152604082013561379a81612dcc565b604082015292915050565b600080608083850312156137b857600080fd5b82356137c381612da7565b91506137d28460208501613750565b90509250929050565b600080604083850312156137ee57600080fd5b82356137f981612da7565b9150602083013567ffffffffffffffff8082111561381657600080fd5b90840190610160828703121561382b57600080fd5b613833612eeb565b82358281111561384257600080fd5b61384e888286016131a5565b82525060208301358281111561386357600080fd5b61386f888286016131a5565b60208301525061388160408401612dbc565b604082015260608301358281111561389857600080fd5b6138a4888286016131a5565b6060830152506138b660808401613195565b60808201526138c760a08401612ddb565b60a08201526138d860c08401613195565b60c082015260e0830135828111156138ef57600080fd5b6138fb88828601613215565b60e083015250610100915061391287838501613750565b828201528093505050509250929050565b604081526000613936604083018561359f565b90508260070b60208301529392505050565b600082601f83011261395957600080fd5b81356020613969612fa883612f63565b8281526060928302850182019282820191908785111561398857600080fd5b8387015b858110156139e85781818a0312156139a45760008081fd5b6139ac612ec8565b81356139b781612da7565b8152818601356139c681612dcc565b8187015260406139d7838201613195565b90820152845292840192810161398c565b5090979650505050505050565b600060208236031215613a0757600080fd5b6040516020810167ffffffffffffffff8282108183111715613a2b57613a2b612e66565b816040528435915080821115613a4057600080fd5b50613a4d36828601613948565b82525092915050565b6000613a64612fa884612f63565b80848252602080830192508560051b850136811115613a8257600080fd5b855b81811015613bdd57803567ffffffffffffffff80821115613aa55760008081fd5b81890191506060808336031215613abc5760008081fd5b613ac4612ec8565b8335613acf81612da7565b81528387013583811115613ae35760008081fd5b613aef36828701613948565b888301525060408085013584811115613b085760008081fd5b949094019336601f860112613b1f57600093508384fd5b84359350613b2f612fa885612f63565b84815260079490941b85018801938881019036861115613b4f5760008081fd5b958901955b85871015613bc55760808736031215613b6d5760008081fd5b613b75612f0f565b8735613b8081612da7565b8152878b0135613b8f81612da7565b818c015287840135613ba081612dcc565b81850152613baf888701613195565b8187015282526080969096019590890190613b54565b91830191909152508852505050938201938201613a84565b50919695505050505050565b60005b83811015613c04578181015183820152602001613bec565b50506000910152565b60008251613c1f818460208701613be9565b9190910192915050565b6001600160a01b03841681528260070b6020820152606060408201526000613c54606083018461359f565b95945050505050565b8051600381900b8114612dc757600080fd5b60008060408385031215613c8257600080fd5b613c8b83613c5d565b9150602083015161308b81612dcc565b600081518084526020808501945080840160005b838110156135d25781516001600160a01b031687529582019590820190600101613caf565b6001600160a01b0385168152608060208201526000613cf66080830186613c9b565b8281036040840152613d088186613c9b565b90508281036060840152613d1c818561359f565b979650505050505050565b634e487b7160e01b600052603260045260246000fd5b60008151808452613d55816020860160208601613be9565b601f01601f19169290920160200192915050565b600081518084526020808501808196508360051b8101915082860160005b85811015613e205782840389528151604081518652868201519150808787015281511515818701528682015160606001600160a01b03808316828a015283850151935060a09250608083818b0152613de260e08b0186613d3d565b928601518a8403603f1901858c0152929450613dfe8584613d3d565b9501511660c09890980197909752505098850198935090840190600101613d87565b5091979650505050505050565b60006101608251818552613e4382860182613d3d565b91505060208301518482036020860152613e5d8282613d3d565b9150506040830151613e7a60408601826001600160a01b03169052565b5060608301518482036060860152613e928282613d3d565b9150506080830151613ea8608086018215159052565b5060a0830151613ebd60a086018260070b9052565b5060c0830151613ed160c086018215159052565b5060e083015184820360e0860152613ee98282613d69565b91505061010080840151613f2582870182805160070b82526001600160a01b036020820151166020830152604081015160070b60408301525050565b5090949350505050565b602081526000612e5f6020830184613e2d565b60008060408385031215613f5557600080fd5b613f5e83613c5d565b9150602083015161308b81612da7565b6001600160a01b03831681526040602082015260006135f96040830184613d69565b6001600160a01b03831681526040602082015260006135f96040830184613c9b565b606081526000613fc56060830186613e2d565b90508360070b60208301528260030b6040830152949350505050565b60006001600160a01b03808616835280851660208401525060606040830152613c54606083018461359f565b6000606082016001600160a01b038616835260208560070b818501526060604085015281855180845260808601915060808160051b870101935082870160005b8281101561407b57607f19888703018452614069868351613d3d565b9550928401929084019060010161404d565b50939998505050505050505050565b60008060006060848603121561409f57600080fd5b6140a884613c5d565b92506020808501516140b981612dcc565b604086015190935067ffffffffffffffff8111156140d657600080fd5b8501601f810187136140e757600080fd5b80516140f5612fa882612f63565b81815260059190911b8201830190838101908983111561411457600080fd5b928401925b8284101561413b57835161412c81612dcc565b82529284019290840190614119565b80955050505050509250925092565b600081518084526020808501945080840160005b838110156135d257815180516001600160a01b031688528381015160070b848901526040908101511515908801526060909601959082019060010161415e565b6000604080835260608551602080848701526141bc8387018361414a565b9150858203818701528187518084528284019150828160051b850101838a0160005b8381101561428a57601f1987840301855281516001600160a01b03808251168552878201518a898701526142148b87018261414a565b928c0151868403878e01528051808552908a0193600092508a01905b808310156142745784518051851683528b81015185168c8401528e81015160070b8f8401528d015115158d830152938a019360019290920191608090910190614230565b50978901979550505091860191506001016141de565b50909b9a5050505050505050505050565b6001600160a01b03841681526060602082015260006142bd6060830185613c9b565b82810360408401526142cf818561359f565b9695505050505050565b60008260030b8260030b028060030b915080821461430757634e487b7160e01b600052601160045260246000fd5b5092915050565b600081518084526020808501945080840160005b838110156135d2578151805160070b8852838101516001600160a01b03908116858a01526040808301511515908a01526060808301511515908a0152608091820151169088015260a09096019590820190600101614322565b600060a080835261438e81840189613e2d565b6020600789810b8287015260408960030b818801526060878503818901526143b6858b61430e565b94506080888603818a0152858a518088528688019150868c01975060005b8181101561442e5788518051880b845288810151880b8985015286810151880b8785015285810151880b86850152848101511515858501528a01516001600160a01b03168a8401529787019760c0909201916001016143d4565b50909f9e505050505050505050505050505050565b6001600160a01b038316815260808101612e5f6020830184805160070b82526001600160a01b036020820151166020830152604081015160070b60408301525050565b6000606080835261449981840187613e2d565b6020848203818601526144ac828861430e565b91506040858303818701528287518085528385019150838901945060005b8181101561452d5785518051600790810b855286820151810b8786015285820151900b85850152878101516001600160a01b039081168986015260808083015115159086015260a09182015116908401529484019460c0909201916001016144ca565b50909a9950505050505050505050565b6001600160a01b03831681526040602082015260006135f96040830184613e2d565b60006020828403121561457157600080fd5b612e5f82613c5d56fef439550dfaf7974fb4d395703abdb07ed45b72b335dcf7653e10bc0689ab25a0a2646970667358221220f7de8d45c803a89d2e604a752c0dcd515a880bc7194738a2e4eee9d0ed88640b64736f6c63430008140033",
  "linkReferences": {},
  "deployedLinkReferences": {}
}