{
  "_format": "hh-sol-artifact-1",
  "contractName": "SafeOperations",
  "sourceName": "contracts/safe-hts-precompile/SafeOperations.sol",
  "abi": [
    {
      "anonymous": false,
      "inputs": [
        {
          "components": [
            {
              "components": [
                {
                  "components": [
                    {
                      "internalType": "string",
                      "name": "name",
                      "type": "string"
                    },
                    {
                      "internalType": "string",
                      "name": "symbol",
                      "type": "string"
                    },
                    {
                      "internalType": "address",
                      "name": "treasury",
                      "type": "address"
                    },
                    {
                      "internalType": "string",
                      "name": "memo",
                      "type": "string"
                    },
                    {
                      "internalType": "bool",
                      "name": "tokenSupplyType",
                      "type": "bool"
                    },
                    {
                      "internalType": "int64",
                      "name": "maxSupply",
                      "type": "int64"
                    },
                    {
                      "internalType": "bool",
                      "name": "freezeDefault",
                      "type": "bool"
                    },
                    {
                      "components": [
                        {
                          "internalType": "uint256",
                          "name": "keyType",
                          "type": "uint256"
                        },
                        {
                          "components": [
                            {
                              "internalType": "bool",
                              "name": "inheritAccountKey",
                              "type": "bool"
                            },
                            {
                              "internalType": "address",
                              "name": "contractId",
                              "type": "address"
                            },
                            {
                              "internalType": "bytes",
                              "name": "ed25519",
                              "type": "bytes"
                            },
                            {
                              "internalType": "bytes",
                              "name": "ECDSA_secp256k1",
                              "type": "bytes"
                            },
                            {
                              "internalType": "address",
                              "name": "delegatableContractId",
                              "type": "address"
                            }
                          ],
                          "internalType": "struct IHederaTokenService.KeyValue",
                          "name": "key",
                          "type": "tuple"
                        }
                      ],
                      "internalType": "struct IHederaTokenService.TokenKey[]",
                      "name": "tokenKeys",
                      "type": "tuple[]"
                    },
                    {
                      "components": [
                        {
                          "internalType": "int64",
                          "name": "second",
                          "type": "int64"
                        },
                        {
                          "internalType": "address",
                          "name": "autoRenewAccount",
                          "type": "address"
                        },
                        {
                          "internalType": "int64",
                          "name": "autoRenewPeriod",
                          "type": "int64"
                        }
                      ],
                      "internalType": "struct IHederaTokenService.Expiry",
                      "name": "expiry",
                      "type": "tuple"
                    }
                  ],
                  "internalType": "struct IHederaTokenService.HederaToken",
                  "name": "token",
                  "type": "tuple"
                },
                {
                  "internalType": "int64",
                  "name": "totalSupply",
                  "type": "int64"
                },
                {
                  "internalType": "bool",
                  "name": "deleted",
                  "type": "bool"
                },
                {
                  "internalType": "bool",
                  "name": "defaultKycStatus",
                  "type": "bool"
                },
                {
                  "internalType": "bool",
                  "name": "pauseStatus",
                  "type": "bool"
                },
                {
                  "components": [
                    {
                      "internalType": "int64",
                      "name": "amount",
                      "type": "int64"
                    },
                    {
                      "internalType": "address",
                      "name": "tokenId",
                      "type": "address"
                    },
                    {
                      "internalType": "bool",
                      "name": "useHbarsForPayment",
                      "type": "bool"
                    },
                    {
                      "internalType": "bool",
                      "name": "useCurrentTokenForPayment",
                      "type": "bool"
                    },
                    {
                      "internalType": "address",
                      "name": "feeCollector",
                      "type": "address"
                    }
                  ],
                  "internalType": "struct IHederaTokenService.FixedFee[]",
                  "name": "fixedFees",
                  "type": "tuple[]"
                },
                {
                  "components": [
                    {
                      "internalType": "int64",
                      "name": "numerator",
                      "type": "int64"
                    },
                    {
                      "internalType": "int64",
                      "name": "denominator",
                      "type": "int64"
                    },
                    {
                      "internalType": "int64",
                      "name": "minimumAmount",
                      "type": "int64"
                    },
                    {
                      "internalType": "int64",
                      "name": "maximumAmount",
                      "type": "int64"
                    },
                    {
                      "internalType": "bool",
                      "name": "netOfTransfers",
                      "type": "bool"
                    },
                    {
                      "internalType": "address",
                      "name": "feeCollector",
                      "type": "address"
                    }
                  ],
                  "internalType": "struct IHederaTokenService.FractionalFee[]",
                  "name": "fractionalFees",
                  "type": "tuple[]"
                },
                {
                  "components": [
                    {
                      "internalType": "int64",
                      "name": "numerator",
                      "type": "int64"
                    },
                    {
                      "internalType": "int64",
                      "name": "denominator",
                      "type": "int64"
                    },
                    {
                      "internalType": "int64",
                      "name": "amount",
                      "type": "int64"
                    },
                    {
                      "internalType": "address",
                      "name": "tokenId",
                      "type": "address"
                    },
                    {
                      "internalType": "bool",
                      "name": "useHbarsForPayment",
                      "type": "bool"
                    },
                    {
                      "internalType": "address",
                      "name": "feeCollector",
                      "type": "address"
                    }
                  ],
                  "internalType": "struct IHederaTokenService.RoyaltyFee[]",
                  "name": "royaltyFees",
                  "type": "tuple[]"
                },
                {
                  "internalType": "string",
                  "name": "ledgerId",
                  "type": "string"
                }
              ],
              "internalType": "struct IHederaTokenService.TokenInfo",
              "name": "tokenInfo",
              "type": "tuple"
            },
            {
              "internalType": "int32",
              "name": "decimals",
              "type": "int32"
            }
          ],
          "indexed": false,
          "internalType": "struct IHederaTokenService.FungibleTokenInfo",
          "name": "fungibleTokenInfo",
          "type": "tuple"
        }
      ],
      "name": "FungibleTokenInfoEvent",
      "type": "event"
    },
    {
      "anonymous": false,
      "inputs": [
        {
          "indexed": false,
          "internalType": "address",
          "name": "token",
          "type": "address"
        }
      ],
      "name": "TokenCreated",
      "type": "event"
    },
    {
      "anonymous": false,
      "inputs": [
        {
          "components": [
            {
              "components": [
                {
                  "internalType": "string",
                  "name": "name",
                  "type": "string"
                },
                {
                  "internalType": "string",
                  "name": "symbol",
                  "type": "string"
                },
                {
                  "internalType": "address",
                  "name": "treasury",
                  "type": "address"
                },
                {
                  "internalType": "string",
                  "name": "memo",
                  "type": "string"
                },
                {
                  "internalType": "bool",
                  "name": "tokenSupplyType",
                  "type": "bool"
                },
                {
                  "internalType": "int64",
                  "name": "maxSupply",
                  "type": "int64"
                },
                {
                  "internalType": "bool",
                  "name": "freezeDefault",
                  "type": "bool"
                },
                {
                  "components": [
                    {
                      "internalType": "uint256",
                      "name": "keyType",
                      "type": "uint256"
                    },
                    {
                      "components": [
                        {
                          "internalType": "bool",
                          "name": "inheritAccountKey",
                          "type": "bool"
                        },
                        {
                          "internalType": "address",
                          "name": "contractId",
                          "type": "address"
                        },
                        {
                          "internalType": "bytes",
                          "name": "ed25519",
                          "type": "bytes"
                        },
                        {
                          "internalType": "bytes",
                          "name": "ECDSA_secp256k1",
                          "type": "bytes"
                        },
                        {
                          "internalType": "address",
                          "name": "delegatableContractId",
                          "type": "address"
                        }
                      ],
                      "internalType": "struct IHederaTokenService.KeyValue",
                      "name": "key",
                      "type": "tuple"
                    }
                  ],
                  "internalType": "struct IHederaTokenService.TokenKey[]",
                  "name": "tokenKeys",
                  "type": "tuple[]"
                },
                {
                  "components": [
                    {
                      "internalType": "int64",
                      "name": "second",
                      "type": "int64"
                    },
                    {
                      "internalType": "address",
                      "name": "autoRenewAccount",
                      "type": "address"
                    },
                    {
                      "internalType": "int64",
                      "name": "autoRenewPeriod",
                      "type": "int64"
                    }
                  ],
                  "internalType": "struct IHederaTokenService.Expiry",
                  "name": "expiry",
                  "type": "tuple"
                }
              ],
              "internalType": "struct IHederaTokenService.HederaToken",
              "name": "token",
              "type": "tuple"
            },
            {
              "internalType": "int64",
              "name": "totalSupply",
              "type": "int64"
            },
            {
              "internalType": "bool",
              "name": "deleted",
              "type": "bool"
            },
            {
              "internalType": "bool",
              "name": "defaultKycStatus",
              "type": "bool"
            },
            {
              "internalType": "bool",
              "name": "pauseStatus",
              "type": "bool"
            },
            {
              "components": [
                {
                  "internalType": "int64",
                  "name": "amount",
                  "type": "int64"
                },
                {
                  "internalType": "address",
                  "name": "tokenId",
                  "type": "address"
                },
                {
                  "internalType": "bool",
                  "name": "useHbarsForPayment",
                  "type": "bool"
                },
                {
                  "internalType": "bool",
                  "name": "useCurrentTokenForPayment",
                  "type": "bool"
                },
                {
                  "internalType": "address",
                  "name": "feeCollector",
                  "type": "address"
                }
              ],
              "internalType": "struct IHederaTokenService.FixedFee[]",
              "name": "fixedFees",
              "type": "tuple[]"
            },
            {
              "components": [
                {
                  "internalType": "int64",
                  "name": "numerator",
                  "type": "int64"
                },
                {
                  "internalType": "int64",
                  "name": "denominator",
                  "type": "int64"
                },
                {
                  "internalType": "int64",
                  "name": "minimumAmount",
                  "type": "int64"
                },
                {
                  "internalType": "int64",
                  "name": "maximumAmount",
                  "type": "int64"
                },
                {
                  "internalType": "bool",
                  "name": "netOfTransfers",
                  "type": "bool"
                },
                {
                  "internalType": "address",
                  "name": "feeCollector",
                  "type": "address"
                }
              ],
              "internalType": "struct IHederaTokenService.FractionalFee[]",
              "name": "fractionalFees",
              "type": "tuple[]"
            },
            {
              "components": [
                {
                  "internalType": "int64",
                  "name": "numerator",
                  "type": "int64"
                },
                {
                  "internalType": "int64",
                  "name": "denominator",
                  "type": "int64"
                },
                {
                  "internalType": "int64",
                  "name": "amount",
                  "type": "int64"
                },
                {
                  "internalType": "address",
                  "name": "tokenId",
                  "type": "address"
                },
                {
                  "internalType": "bool",
                  "name": "useHbarsForPayment",
                  "type": "bool"
                },
                {
                  "internalType": "address",
                  "name": "feeCollector",
                  "type": "address"
                }
              ],
              "internalType": "struct IHederaTokenService.RoyaltyFee[]",
              "name": "royaltyFees",
              "type": "tuple[]"
            },
            {
              "internalType": "string",
              "name": "ledgerId",
              "type": "string"
            }
          ],
          "indexed": false,
          "internalType": "struct IHederaTokenService.TokenInfo",
          "name": "tokenInfo",
          "type": "tuple"
        }
      ],
      "name": "TokenInfoEvent",
      "type": "event"
    },
    {
      "inputs": [
        {
          "internalType": "address",
          "name": "token",
          "type": "address"
        },
        {
          "internalType": "address",
          "name": "owner",
          "type": "address"
        },
        {
          "internalType": "address",
          "name": "spender",
          "type": "address"
        }
      ],
      "name": "safeAllowance",
      "outputs": [
        {
          "internalType": "uint256",
          "name": "allowance",
          "type": "uint256"
        }
      ],
      "stateMutability": "nonpayable",
      "type": "function"
    },
    {
      "inputs": [
        {
          "internalType": "address",
          "name": "token",
          "type": "address"
        },
        {
          "internalType": "address",
          "name": "spender",
          "type": "address"
        },
        {
          "internalType": "uint256",
          "name": "amount",
          "type": "uint256"
        }
      ],
      "name": "safeApprove",
      "outputs": [],
      "stateMutability": "nonpayable",
      "type": "function"
    },
    {
      "inputs": [
        {
          "internalType": "address",
          "name": "token",
          "type": "address"
        },
        {
          "internalType": "address",
          "name": "approved",
          "type": "address"
        },
        {
          "internalType": "int64",
          "name": "serialNumber",
          "type": "int64"
        }
      ],
      "name": "safeApproveNFT",
      "outputs": [],
      "stateMutability": "nonpayable",
      "type": "function"
    },
    {
      "inputs": [
        {
          "internalType": "address",
          "name": "sender",
          "type": "address"
        },
        {
          "internalType": "address",
          "name": "tokenAddress",
          "type": "address"
        }
      ],
      "name": "safeAssociateToken",
      "outputs": [],
      "stateMutability": "nonpayable",
      "type": "function"
    },
    {
      "inputs": [
        {
          "internalType": "address",
          "name": "account",
          "type": "address"
        },
        {
          "internalType": "address[]",
          "name": "tokens",
          "type": "address[]"
        }
      ],
      "name": "safeAssociateTokens",
      "outputs": [],
      "stateMutability": "nonpayable",
      "type": "function"
    },
    {
      "inputs": [
        {
          "internalType": "address",
          "name": "token",
          "type": "address"
        },
        {
          "internalType": "int64",
          "name": "amount",
          "type": "int64"
        },
        {
          "internalType": "int64[]",
          "name": "serialNumbers",
          "type": "int64[]"
        }
      ],
      "name": "safeBurnToken",
      "outputs": [
        {
          "internalType": "int64",
          "name": "newTotalSupply",
          "type": "int64"
        }
      ],
      "stateMutability": "nonpayable",
      "type": "function"
    },
    {
      "inputs": [],
      "name": "safeCreateFungibleToken",
      "outputs": [
        {
          "internalType": "address",
          "name": "tokenAddress",
          "type": "address"
        }
      ],
      "stateMutability": "payable",
      "type": "function"
    },
    {
      "inputs": [
        {
          "internalType": "address",
          "name": "feeCollector",
          "type": "address"
        },
        {
          "internalType": "address",
          "name": "existingTokenAddress",
          "type": "address"
        }
      ],
      "name": "safeCreateFungibleTokenWithCustomFees",
      "outputs": [
        {
          "internalType": "address",
          "name": "tokenAddress",
          "type": "address"
        }
      ],
      "stateMutability": "payable",
      "type": "function"
    },
    {
      "inputs": [],
      "name": "safeCreateNonFungibleToken",
      "outputs": [
        {
          "internalType": "address",
          "name": "tokenAddress",
          "type": "address"
        }
      ],
      "stateMutability": "payable",
      "type": "function"
    },
    {
      "inputs": [
        {
          "internalType": "address",
          "name": "feeCollector",
          "type": "address"
        },
        {
          "internalType": "address",
          "name": "existingTokenAddress",
          "type": "address"
        }
      ],
      "name": "safeCreateNonFungibleTokenWithCustomFees",
      "outputs": [
        {
          "internalType": "address",
          "name": "tokenAddress",
          "type": "address"
        }
      ],
      "stateMutability": "payable",
      "type": "function"
    },
    {
      "inputs": [
        {
          "components": [
            {
              "internalType": "address",
              "name": "token",
              "type": "address"
            },
            {
              "components": [
                {
                  "internalType": "address",
                  "name": "accountID",
                  "type": "address"
                },
                {
                  "internalType": "int64",
                  "name": "amount",
                  "type": "int64"
                },
                {
                  "internalType": "bool",
                  "name": "isApproval",
                  "type": "bool"
                }
              ],
              "internalType": "struct IHederaTokenService.AccountAmount[]",
              "name": "transfers",
              "type": "tuple[]"
            },
            {
              "components": [
                {
                  "internalType": "address",
                  "name": "senderAccountID",
                  "type": "address"
                },
                {
                  "internalType": "address",
                  "name": "receiverAccountID",
                  "type": "address"
                },
                {
                  "internalType": "int64",
                  "name": "serialNumber",
                  "type": "int64"
                },
                {
                  "internalType": "bool",
                  "name": "isApproval",
                  "type": "bool"
                }
              ],
              "internalType": "struct IHederaTokenService.NftTransfer[]",
              "name": "nftTransfers",
              "type": "tuple[]"
            }
          ],
          "internalType": "struct IHederaTokenService.TokenTransferList[]",
          "name": "tokenTransfers",
          "type": "tuple[]"
        }
      ],
      "name": "safeCryptoTransfer",
      "outputs": [],
      "stateMutability": "nonpayable",
      "type": "function"
    },
    {
      "inputs": [
        {
          "internalType": "address",
          "name": "token",
          "type": "address"
        }
      ],
      "name": "safeDeleteToken",
      "outputs": [],
      "stateMutability": "nonpayable",
      "type": "function"
    },
    {
      "inputs": [
        {
          "internalType": "address",
          "name": "sender",
          "type": "address"
        },
        {
          "internalType": "address",
          "name": "tokenAddress",
          "type": "address"
        }
      ],
      "name": "safeDissociateToken",
      "outputs": [],
      "stateMutability": "nonpayable",
      "type": "function"
    },
    {
      "inputs": [
        {
          "internalType": "address",
          "name": "account",
          "type": "address"
        },
        {
          "internalType": "address[]",
          "name": "tokens",
          "type": "address[]"
        }
      ],
      "name": "safeDissociateTokens",
      "outputs": [],
      "stateMutability": "nonpayable",
      "type": "function"
    },
    {
      "inputs": [
        {
          "internalType": "address",
          "name": "token",
          "type": "address"
        },
        {
          "internalType": "address",
          "name": "account",
          "type": "address"
        }
      ],
      "name": "safeFreezeToken",
      "outputs": [],
      "stateMutability": "nonpayable",
      "type": "function"
    },
    {
      "inputs": [
        {
          "internalType": "address",
          "name": "token",
          "type": "address"
        },
        {
          "internalType": "int64",
          "name": "serialNumber",
          "type": "int64"
        }
      ],
      "name": "safeGetApproved",
      "outputs": [
        {
          "internalType": "address",
          "name": "approved",
          "type": "address"
        }
      ],
      "stateMutability": "nonpayable",
      "type": "function"
    },
    {
      "inputs": [
        {
          "internalType": "address",
          "name": "token",
          "type": "address"
        }
      ],
      "name": "safeGetFungibleTokenInfo",
      "outputs": [
        {
          "components": [
            {
              "components": [
                {
                  "components": [
                    {
                      "internalType": "string",
                      "name": "name",
                      "type": "string"
                    },
                    {
                      "internalType": "string",
                      "name": "symbol",
                      "type": "string"
                    },
                    {
                      "internalType": "address",
                      "name": "treasury",
                      "type": "address"
                    },
                    {
                      "internalType": "string",
                      "name": "memo",
                      "type": "string"
                    },
                    {
                      "internalType": "bool",
                      "name": "tokenSupplyType",
                      "type": "bool"
                    },
                    {
                      "internalType": "int64",
                      "name": "maxSupply",
                      "type": "int64"
                    },
                    {
                      "internalType": "bool",
                      "name": "freezeDefault",
                      "type": "bool"
                    },
                    {
                      "components": [
                        {
                          "internalType": "uint256",
                          "name": "keyType",
                          "type": "uint256"
                        },
                        {
                          "components": [
                            {
                              "internalType": "bool",
                              "name": "inheritAccountKey",
                              "type": "bool"
                            },
                            {
                              "internalType": "address",
                              "name": "contractId",
                              "type": "address"
                            },
                            {
                              "internalType": "bytes",
                              "name": "ed25519",
                              "type": "bytes"
                            },
                            {
                              "internalType": "bytes",
                              "name": "ECDSA_secp256k1",
                              "type": "bytes"
                            },
                            {
                              "internalType": "address",
                              "name": "delegatableContractId",
                              "type": "address"
                            }
                          ],
                          "internalType": "struct IHederaTokenService.KeyValue",
                          "name": "key",
                          "type": "tuple"
                        }
                      ],
                      "internalType": "struct IHederaTokenService.TokenKey[]",
                      "name": "tokenKeys",
                      "type": "tuple[]"
                    },
                    {
                      "components": [
                        {
                          "internalType": "int64",
                          "name": "second",
                          "type": "int64"
                        },
                        {
                          "internalType": "address",
                          "name": "autoRenewAccount",
                          "type": "address"
                        },
                        {
                          "internalType": "int64",
                          "name": "autoRenewPeriod",
                          "type": "int64"
                        }
                      ],
                      "internalType": "struct IHederaTokenService.Expiry",
                      "name": "expiry",
                      "type": "tuple"
                    }
                  ],
                  "internalType": "struct IHederaTokenService.HederaToken",
                  "name": "token",
                  "type": "tuple"
                },
                {
                  "internalType": "int64",
                  "name": "totalSupply",
                  "type": "int64"
                },
                {
                  "internalType": "bool",
                  "name": "deleted",
                  "type": "bool"
                },
                {
                  "internalType": "bool",
                  "name": "defaultKycStatus",
                  "type": "bool"
                },
                {
                  "internalType": "bool",
                  "name": "pauseStatus",
                  "type": "bool"
                },
                {
                  "components": [
                    {
                      "internalType": "int64",
                      "name": "amount",
                      "type": "int64"
                    },
                    {
                      "internalType": "address",
                      "name": "tokenId",
                      "type": "address"
                    },
                    {
                      "internalType": "bool",
                      "name": "useHbarsForPayment",
                      "type": "bool"
                    },
                    {
                      "internalType": "bool",
                      "name": "useCurrentTokenForPayment",
                      "type": "bool"
                    },
                    {
                      "internalType": "address",
                      "name": "feeCollector",
                      "type": "address"
                    }
                  ],
                  "internalType": "struct IHederaTokenService.FixedFee[]",
                  "name": "fixedFees",
                  "type": "tuple[]"
                },
                {
                  "components": [
                    {
                      "internalType": "int64",
                      "name": "numerator",
                      "type": "int64"
                    },
                    {
                      "internalType": "int64",
                      "name": "denominator",
                      "type": "int64"
                    },
                    {
                      "internalType": "int64",
                      "name": "minimumAmount",
                      "type": "int64"
                    },
                    {
                      "internalType": "int64",
                      "name": "maximumAmount",
                      "type": "int64"
                    },
                    {
                      "internalType": "bool",
                      "name": "netOfTransfers",
                      "type": "bool"
                    },
                    {
                      "internalType": "address",
                      "name": "feeCollector",
                      "type": "address"
                    }
                  ],
                  "internalType": "struct IHederaTokenService.FractionalFee[]",
                  "name": "fractionalFees",
                  "type": "tuple[]"
                },
                {
                  "components": [
                    {
                      "internalType": "int64",
                      "name": "numerator",
                      "type": "int64"
                    },
                    {
                      "internalType": "int64",
                      "name": "denominator",
                      "type": "int64"
                    },
                    {
                      "internalType": "int64",
                      "name": "amount",
                      "type": "int64"
                    },
                    {
                      "internalType": "address",
                      "name": "tokenId",
                      "type": "address"
                    },
                    {
                      "internalType": "bool",
                      "name": "useHbarsForPayment",
                      "type": "bool"
                    },
                    {
                      "internalType": "address",
                      "name": "feeCollector",
                      "type": "address"
                    }
                  ],
                  "internalType": "struct IHederaTokenService.RoyaltyFee[]",
                  "name": "royaltyFees",
                  "type": "tuple[]"
                },
                {
                  "internalType": "string",
                  "name": "ledgerId",
                  "type": "string"
                }
              ],
              "internalType": "struct IHederaTokenService.TokenInfo",
              "name": "tokenInfo",
              "type": "tuple"
            },
            {
              "internalType": "int32",
              "name": "decimals",
              "type": "int32"
            }
          ],
          "internalType": "struct IHederaTokenService.FungibleTokenInfo",
          "name": "fungibleTokenInfo",
          "type": "tuple"
        }
      ],
      "stateMutability": "nonpayable",
      "type": "function"
    },
    {
      "inputs": [
        {
          "internalType": "address",
          "name": "token",
          "type": "address"
        },
        {
          "internalType": "int64",
          "name": "serialNumber",
          "type": "int64"
        }
      ],
      "name": "safeGetNonFungibleTokenInfo",
      "outputs": [
        {
          "components": [
            {
              "components": [
                {
                  "components": [
                    {
                      "internalType": "string",
                      "name": "name",
                      "type": "string"
                    },
                    {
                      "internalType": "string",
                      "name": "symbol",
                      "type": "string"
                    },
                    {
                      "internalType": "address",
                      "name": "treasury",
                      "type": "address"
                    },
                    {
                      "internalType": "string",
                      "name": "memo",
                      "type": "string"
                    },
                    {
                      "internalType": "bool",
                      "name": "tokenSupplyType",
                      "type": "bool"
                    },
                    {
                      "internalType": "int64",
                      "name": "maxSupply",
                      "type": "int64"
                    },
                    {
                      "internalType": "bool",
                      "name": "freezeDefault",
                      "type": "bool"
                    },
                    {
                      "components": [
                        {
                          "internalType": "uint256",
                          "name": "keyType",
                          "type": "uint256"
                        },
                        {
                          "components": [
                            {
                              "internalType": "bool",
                              "name": "inheritAccountKey",
                              "type": "bool"
                            },
                            {
                              "internalType": "address",
                              "name": "contractId",
                              "type": "address"
                            },
                            {
                              "internalType": "bytes",
                              "name": "ed25519",
                              "type": "bytes"
                            },
                            {
                              "internalType": "bytes",
                              "name": "ECDSA_secp256k1",
                              "type": "bytes"
                            },
                            {
                              "internalType": "address",
                              "name": "delegatableContractId",
                              "type": "address"
                            }
                          ],
                          "internalType": "struct IHederaTokenService.KeyValue",
                          "name": "key",
                          "type": "tuple"
                        }
                      ],
                      "internalType": "struct IHederaTokenService.TokenKey[]",
                      "name": "tokenKeys",
                      "type": "tuple[]"
                    },
                    {
                      "components": [
                        {
                          "internalType": "int64",
                          "name": "second",
                          "type": "int64"
                        },
                        {
                          "internalType": "address",
                          "name": "autoRenewAccount",
                          "type": "address"
                        },
                        {
                          "internalType": "int64",
                          "name": "autoRenewPeriod",
                          "type": "int64"
                        }
                      ],
                      "internalType": "struct IHederaTokenService.Expiry",
                      "name": "expiry",
                      "type": "tuple"
                    }
                  ],
                  "internalType": "struct IHederaTokenService.HederaToken",
                  "name": "token",
                  "type": "tuple"
                },
                {
                  "internalType": "int64",
                  "name": "totalSupply",
                  "type": "int64"
                },
                {
                  "internalType": "bool",
                  "name": "deleted",
                  "type": "bool"
                },
                {
                  "internalType": "bool",
                  "name": "defaultKycStatus",
                  "type": "bool"
                },
                {
                  "internalType": "bool",
                  "name": "pauseStatus",
                  "type": "bool"
                },
                {
                  "components": [
                    {
                      "internalType": "int64",
                      "name": "amount",
                      "type": "int64"
                    },
                    {
                      "internalType": "address",
                      "name": "tokenId",
                      "type": "address"
                    },
                    {
                      "internalType": "bool",
                      "name": "useHbarsForPayment",
                      "type": "bool"
                    },
                    {
                      "internalType": "bool",
                      "name": "useCurrentTokenForPayment",
                      "type": "bool"
                    },
                    {
                      "internalType": "address",
                      "name": "feeCollector",
                      "type": "address"
                    }
                  ],
                  "internalType": "struct IHederaTokenService.FixedFee[]",
                  "name": "fixedFees",
                  "type": "tuple[]"
                },
                {
                  "components": [
                    {
                      "internalType": "int64",
                      "name": "numerator",
                      "type": "int64"
                    },
                    {
                      "internalType": "int64",
                      "name": "denominator",
                      "type": "int64"
                    },
                    {
                      "internalType": "int64",
                      "name": "minimumAmount",
                      "type": "int64"
                    },
                    {
                      "internalType": "int64",
                      "name": "maximumAmount",
                      "type": "int64"
                    },
                    {
                      "internalType": "bool",
                      "name": "netOfTransfers",
                      "type": "bool"
                    },
                    {
                      "internalType": "address",
                      "name": "feeCollector",
                      "type": "address"
                    }
                  ],
                  "internalType": "struct IHederaTokenService.FractionalFee[]",
                  "name": "fractionalFees",
                  "type": "tuple[]"
                },
                {
                  "components": [
                    {
                      "internalType": "int64",
                      "name": "numerator",
                      "type": "int64"
                    },
                    {
                      "internalType": "int64",
                      "name": "denominator",
                      "type": "int64"
                    },
                    {
                      "internalType": "int64",
                      "name": "amount",
                      "type": "int64"
                    },
                    {
                      "internalType": "address",
                      "name": "tokenId",
                      "type": "address"
                    },
                    {
                      "internalType": "bool",
                      "name": "useHbarsForPayment",
                      "type": "bool"
                    },
                    {
                      "internalType": "address",
                      "name": "feeCollector",
                      "type": "address"
                    }
                  ],
                  "internalType": "struct IHederaTokenService.RoyaltyFee[]",
                  "name": "royaltyFees",
                  "type": "tuple[]"
                },
                {
                  "internalType": "string",
                  "name": "ledgerId",
                  "type": "string"
                }
              ],
              "internalType": "struct IHederaTokenService.TokenInfo",
              "name": "tokenInfo",
              "type": "tuple"
            },
            {
              "internalType": "int64",
              "name": "serialNumber",
              "type": "int64"
            },
            {
              "internalType": "address",
              "name": "ownerId",
              "type": "address"
            },
            {
              "internalType": "int64",
              "name": "creationTime",
              "type": "int64"
            },
            {
              "internalType": "bytes",
              "name": "metadata",
              "type": "bytes"
            },
            {
              "internalType": "address",
              "name": "spenderId",
              "type": "address"
            }
          ],
          "internalType": "struct IHederaTokenService.NonFungibleTokenInfo",
          "name": "nonFungibleTokenInfo",
          "type": "tuple"
        }
      ],
      "stateMutability": "nonpayable",
      "type": "function"
    },
    {
      "inputs": [
        {
          "internalType": "address",
          "name": "token",
          "type": "address"
        }
      ],
      "name": "safeGetTokenCustomFees",
      "outputs": [
        {
          "components": [
            {
              "internalType": "int64",
              "name": "amount",
              "type": "int64"
            },
            {
              "internalType": "address",
              "name": "tokenId",
              "type": "address"
            },
            {
              "internalType": "bool",
              "name": "useHbarsForPayment",
              "type": "bool"
            },
            {
              "internalType": "bool",
              "name": "useCurrentTokenForPayment",
              "type": "bool"
            },
            {
              "internalType": "address",
              "name": "feeCollector",
              "type": "address"
            }
          ],
          "internalType": "struct IHederaTokenService.FixedFee[]",
          "name": "fixedFees",
          "type": "tuple[]"
        },
        {
          "components": [
            {
              "internalType": "int64",
              "name": "numerator",
              "type": "int64"
            },
            {
              "internalType": "int64",
              "name": "denominator",
              "type": "int64"
            },
            {
              "internalType": "int64",
              "name": "minimumAmount",
              "type": "int64"
            },
            {
              "internalType": "int64",
              "name": "maximumAmount",
              "type": "int64"
            },
            {
              "internalType": "bool",
              "name": "netOfTransfers",
              "type": "bool"
            },
            {
              "internalType": "address",
              "name": "feeCollector",
              "type": "address"
            }
          ],
          "internalType": "struct IHederaTokenService.FractionalFee[]",
          "name": "fractionalFees",
          "type": "tuple[]"
        },
        {
          "components": [
            {
              "internalType": "int64",
              "name": "numerator",
              "type": "int64"
            },
            {
              "internalType": "int64",
              "name": "denominator",
              "type": "int64"
            },
            {
              "internalType": "int64",
              "name": "amount",
              "type": "int64"
            },
            {
              "internalType": "address",
              "name": "tokenId",
              "type": "address"
            },
            {
              "internalType": "bool",
              "name": "useHbarsForPayment",
              "type": "bool"
            },
            {
              "internalType": "address",
              "name": "feeCollector",
              "type": "address"
            }
          ],
          "internalType": "struct IHederaTokenService.RoyaltyFee[]",
          "name": "royaltyFees",
          "type": "tuple[]"
        }
      ],
      "stateMutability": "nonpayable",
      "type": "function"
    },
    {
      "inputs": [
        {
          "internalType": "address",
          "name": "token",
          "type": "address"
        }
      ],
      "name": "safeGetTokenDefaultFreezeStatus",
      "outputs": [
        {
          "internalType": "bool",
          "name": "defaultFreezeStatus",
          "type": "bool"
        }
      ],
      "stateMutability": "nonpayable",
      "type": "function"
    },
    {
      "inputs": [
        {
          "internalType": "address",
          "name": "token",
          "type": "address"
        }
      ],
      "name": "safeGetTokenDefaultKycStatus",
      "outputs": [
        {
          "internalType": "bool",
          "name": "defaultKycStatus",
          "type": "bool"
        }
      ],
      "stateMutability": "nonpayable",
      "type": "function"
    },
    {
      "inputs": [
        {
          "internalType": "address",
          "name": "token",
          "type": "address"
        }
      ],
      "name": "safeGetTokenExpiryInfo",
      "outputs": [
        {
          "components": [
            {
              "internalType": "int64",
              "name": "second",
              "type": "int64"
            },
            {
              "internalType": "address",
              "name": "autoRenewAccount",
              "type": "address"
            },
            {
              "internalType": "int64",
              "name": "autoRenewPeriod",
              "type": "int64"
            }
          ],
          "internalType": "struct IHederaTokenService.Expiry",
          "name": "expiry",
          "type": "tuple"
        }
      ],
      "stateMutability": "nonpayable",
      "type": "function"
    },
    {
      "inputs": [
        {
          "internalType": "address",
          "name": "token",
          "type": "address"
        }
      ],
      "name": "safeGetTokenInfo",
      "outputs": [
        {
          "components": [
            {
              "components": [
                {
                  "internalType": "string",
                  "name": "name",
                  "type": "string"
                },
                {
                  "internalType": "string",
                  "name": "symbol",
                  "type": "string"
                },
                {
                  "internalType": "address",
                  "name": "treasury",
                  "type": "address"
                },
                {
                  "internalType": "string",
                  "name": "memo",
                  "type": "string"
                },
                {
                  "internalType": "bool",
                  "name": "tokenSupplyType",
                  "type": "bool"
                },
                {
                  "internalType": "int64",
                  "name": "maxSupply",
                  "type": "int64"
                },
                {
                  "internalType": "bool",
                  "name": "freezeDefault",
                  "type": "bool"
                },
                {
                  "components": [
                    {
                      "internalType": "uint256",
                      "name": "keyType",
                      "type": "uint256"
                    },
                    {
                      "components": [
                        {
                          "internalType": "bool",
                          "name": "inheritAccountKey",
                          "type": "bool"
                        },
                        {
                          "internalType": "address",
                          "name": "contractId",
                          "type": "address"
                        },
                        {
                          "internalType": "bytes",
                          "name": "ed25519",
                          "type": "bytes"
                        },
                        {
                          "internalType": "bytes",
                          "name": "ECDSA_secp256k1",
                          "type": "bytes"
                        },
                        {
                          "internalType": "address",
                          "name": "delegatableContractId",
                          "type": "address"
                        }
                      ],
                      "internalType": "struct IHederaTokenService.KeyValue",
                      "name": "key",
                      "type": "tuple"
                    }
                  ],
                  "internalType": "struct IHederaTokenService.TokenKey[]",
                  "name": "tokenKeys",
                  "type": "tuple[]"
                },
                {
                  "components": [
                    {
                      "internalType": "int64",
                      "name": "second",
                      "type": "int64"
                    },
                    {
                      "internalType": "address",
                      "name": "autoRenewAccount",
                      "type": "address"
                    },
                    {
                      "internalType": "int64",
                      "name": "autoRenewPeriod",
                      "type": "int64"
                    }
                  ],
                  "internalType": "struct IHederaTokenService.Expiry",
                  "name": "expiry",
                  "type": "tuple"
                }
              ],
              "internalType": "struct IHederaTokenService.HederaToken",
              "name": "token",
              "type": "tuple"
            },
            {
              "internalType": "int64",
              "name": "totalSupply",
              "type": "int64"
            },
            {
              "internalType": "bool",
              "name": "deleted",
              "type": "bool"
            },
            {
              "internalType": "bool",
              "name": "defaultKycStatus",
              "type": "bool"
            },
            {
              "internalType": "bool",
              "name": "pauseStatus",
              "type": "bool"
            },
            {
              "components": [
                {
                  "internalType": "int64",
                  "name": "amount",
                  "type": "int64"
                },
                {
                  "internalType": "address",
                  "name": "tokenId",
                  "type": "address"
                },
                {
                  "internalType": "bool",
                  "name": "useHbarsForPayment",
                  "type": "bool"
                },
                {
                  "internalType": "bool",
                  "name": "useCurrentTokenForPayment",
                  "type": "bool"
                },
                {
                  "internalType": "address",
                  "name": "feeCollector",
                  "type": "address"
                }
              ],
              "internalType": "struct IHederaTokenService.FixedFee[]",
              "name": "fixedFees",
              "type": "tuple[]"
            },
            {
              "components": [
                {
                  "internalType": "int64",
                  "name": "numerator",
                  "type": "int64"
                },
                {
                  "internalType": "int64",
                  "name": "denominator",
                  "type": "int64"
                },
                {
                  "internalType": "int64",
                  "name": "minimumAmount",
                  "type": "int64"
                },
                {
                  "internalType": "int64",
                  "name": "maximumAmount",
                  "type": "int64"
                },
                {
                  "internalType": "bool",
                  "name": "netOfTransfers",
                  "type": "bool"
                },
                {
                  "internalType": "address",
                  "name": "feeCollector",
                  "type": "address"
                }
              ],
              "internalType": "struct IHederaTokenService.FractionalFee[]",
              "name": "fractionalFees",
              "type": "tuple[]"
            },
            {
              "components": [
                {
                  "internalType": "int64",
                  "name": "numerator",
                  "type": "int64"
                },
                {
                  "internalType": "int64",
                  "name": "denominator",
                  "type": "int64"
                },
                {
                  "internalType": "int64",
                  "name": "amount",
                  "type": "int64"
                },
                {
                  "internalType": "address",
                  "name": "tokenId",
                  "type": "address"
                },
                {
                  "internalType": "bool",
                  "name": "useHbarsForPayment",
                  "type": "bool"
                },
                {
                  "internalType": "address",
                  "name": "feeCollector",
                  "type": "address"
                }
              ],
              "internalType": "struct IHederaTokenService.RoyaltyFee[]",
              "name": "royaltyFees",
              "type": "tuple[]"
            },
            {
              "internalType": "string",
              "name": "ledgerId",
              "type": "string"
            }
          ],
          "internalType": "struct IHederaTokenService.TokenInfo",
          "name": "tokenInfo",
          "type": "tuple"
        }
      ],
      "stateMutability": "nonpayable",
      "type": "function"
    },
    {
      "inputs": [
        {
          "internalType": "address",
          "name": "token",
          "type": "address"
        },
        {
          "internalType": "uint256",
          "name": "keyType",
          "type": "uint256"
        }
      ],
      "name": "safeGetTokenKey",
      "outputs": [
        {
          "components": [
            {
              "internalType": "bool",
              "name": "inheritAccountKey",
              "type": "bool"
            },
            {
              "internalType": "address",
              "name": "contractId",
              "type": "address"
            },
            {
              "internalType": "bytes",
              "name": "ed25519",
              "type": "bytes"
            },
            {
              "internalType": "bytes",
              "name": "ECDSA_secp256k1",
              "type": "bytes"
            },
            {
              "internalType": "address",
              "name": "delegatableContractId",
              "type": "address"
            }
          ],
          "internalType": "struct IHederaTokenService.KeyValue",
          "name": "key",
          "type": "tuple"
        }
      ],
      "stateMutability": "nonpayable",
      "type": "function"
    },
    {
      "inputs": [
        {
          "internalType": "address",
          "name": "token",
          "type": "address"
        }
      ],
      "name": "safeGetTokenType",
      "outputs": [
        {
          "internalType": "int32",
          "name": "tokenType",
          "type": "int32"
        }
      ],
      "stateMutability": "nonpayable",
      "type": "function"
    },
    {
      "inputs": [
        {
          "internalType": "address",
          "name": "token",
          "type": "address"
        },
        {
          "internalType": "address",
          "name": "account",
          "type": "address"
        }
      ],
      "name": "safeGrantTokenKyc",
      "outputs": [],
      "stateMutability": "nonpayable",
      "type": "function"
    },
    {
      "inputs": [
        {
          "internalType": "address",
          "name": "token",
          "type": "address"
        },
        {
          "internalType": "address",
          "name": "owner",
          "type": "address"
        },
        {
          "internalType": "address",
          "name": "operator",
          "type": "address"
        }
      ],
      "name": "safeIsApprovedForAll",
      "outputs": [
        {
          "internalType": "bool",
          "name": "approved",
          "type": "bool"
        }
      ],
      "stateMutability": "nonpayable",
      "type": "function"
    },
    {
      "inputs": [
        {
          "internalType": "address",
          "name": "token",
          "type": "address"
        },
        {
          "internalType": "address",
          "name": "account",
          "type": "address"
        }
      ],
      "name": "safeIsFrozen",
      "outputs": [
        {
          "internalType": "bool",
          "name": "frozen",
          "type": "bool"
        }
      ],
      "stateMutability": "nonpayable",
      "type": "function"
    },
    {
      "inputs": [
        {
          "internalType": "address",
          "name": "token",
          "type": "address"
        },
        {
          "internalType": "address",
          "name": "account",
          "type": "address"
        }
      ],
      "name": "safeIsKyc",
      "outputs": [
        {
          "internalType": "bool",
          "name": "kycGranted",
          "type": "bool"
        }
      ],
      "stateMutability": "nonpayable",
      "type": "function"
    },
    {
      "inputs": [
        {
          "internalType": "address",
          "name": "token",
          "type": "address"
        }
      ],
      "name": "safeIsToken",
      "outputs": [
        {
          "internalType": "bool",
          "name": "isToken",
          "type": "bool"
        }
      ],
      "stateMutability": "nonpayable",
      "type": "function"
    },
    {
      "inputs": [
        {
          "internalType": "address",
          "name": "token",
          "type": "address"
        },
        {
          "internalType": "int64",
          "name": "amount",
          "type": "int64"
        },
        {
          "internalType": "bytes[]",
          "name": "metadata",
          "type": "bytes[]"
        }
      ],
      "name": "safeMintToken",
      "outputs": [
        {
          "internalType": "int64",
          "name": "newTotalSupply",
          "type": "int64"
        },
        {
          "internalType": "int64[]",
          "name": "serialNumbers",
          "type": "int64[]"
        }
      ],
      "stateMutability": "nonpayable",
      "type": "function"
    },
    {
      "inputs": [
        {
          "internalType": "address",
          "name": "token",
          "type": "address"
        }
      ],
      "name": "safePauseToken",
      "outputs": [],
      "stateMutability": "nonpayable",
      "type": "function"
    },
    {
      "inputs": [
        {
          "internalType": "address",
          "name": "token",
          "type": "address"
        },
        {
          "internalType": "address",
          "name": "account",
          "type": "address"
        }
      ],
      "name": "safeRevokeTokenKyc",
      "outputs": [],
      "stateMutability": "nonpayable",
      "type": "function"
    },
    {
      "inputs": [
        {
          "internalType": "address",
          "name": "token",
          "type": "address"
        },
        {
          "internalType": "address",
          "name": "operator",
          "type": "address"
        },
        {
          "internalType": "bool",
          "name": "approved",
          "type": "bool"
        }
      ],
      "name": "safeSetApprovalForAll",
      "outputs": [],
      "stateMutability": "nonpayable",
      "type": "function"
    },
    {
      "inputs": [
        {
          "internalType": "address",
          "name": "token",
          "type": "address"
        },
        {
          "internalType": "address",
          "name": "sender",
          "type": "address"
        },
        {
          "internalType": "address",
          "name": "receiver",
          "type": "address"
        },
        {
          "internalType": "int64",
          "name": "serialNum",
          "type": "int64"
        }
      ],
      "name": "safeTransferNFT",
      "outputs": [],
      "stateMutability": "nonpayable",
      "type": "function"
    },
    {
      "inputs": [
        {
          "internalType": "address",
          "name": "token",
          "type": "address"
        },
        {
          "internalType": "address[]",
          "name": "sender",
          "type": "address[]"
        },
        {
          "internalType": "address[]",
          "name": "receiver",
          "type": "address[]"
        },
        {
          "internalType": "int64[]",
          "name": "serialNumber",
          "type": "int64[]"
        }
      ],
      "name": "safeTransferNFTs",
      "outputs": [],
      "stateMutability": "nonpayable",
      "type": "function"
    },
    {
      "inputs": [
        {
          "internalType": "address",
          "name": "token",
          "type": "address"
        },
        {
          "internalType": "address",
          "name": "sender",
          "type": "address"
        },
        {
          "internalType": "address",
          "name": "receiver",
          "type": "address"
        },
        {
          "internalType": "int64",
          "name": "amount",
          "type": "int64"
        }
      ],
      "name": "safeTransferToken",
      "outputs": [],
      "stateMutability": "nonpayable",
      "type": "function"
    },
    {
      "inputs": [
        {
          "internalType": "address",
          "name": "token",
          "type": "address"
        },
        {
          "internalType": "address[]",
          "name": "accountIds",
          "type": "address[]"
        },
        {
          "internalType": "int64[]",
          "name": "amounts",
          "type": "int64[]"
        }
      ],
      "name": "safeTransferTokens",
      "outputs": [],
      "stateMutability": "nonpayable",
      "type": "function"
    },
    {
      "inputs": [
        {
          "internalType": "address",
          "name": "token",
          "type": "address"
        },
        {
          "internalType": "address",
          "name": "account",
          "type": "address"
        }
      ],
      "name": "safeUnfreezeToken",
      "outputs": [],
      "stateMutability": "nonpayable",
      "type": "function"
    },
    {
      "inputs": [
        {
          "internalType": "address",
          "name": "token",
          "type": "address"
        }
      ],
      "name": "safeUnpauseToken",
      "outputs": [],
      "stateMutability": "nonpayable",
      "type": "function"
    },
    {
      "inputs": [
        {
          "internalType": "address",
          "name": "token",
          "type": "address"
        },
        {
          "components": [
            {
              "internalType": "int64",
              "name": "second",
              "type": "int64"
            },
            {
              "internalType": "address",
              "name": "autoRenewAccount",
              "type": "address"
            },
            {
              "internalType": "int64",
              "name": "autoRenewPeriod",
              "type": "int64"
            }
          ],
          "internalType": "struct IHederaTokenService.Expiry",
          "name": "expiryInfo",
          "type": "tuple"
        }
      ],
      "name": "safeUpdateTokenExpiryInfo",
      "outputs": [],
      "stateMutability": "nonpayable",
      "type": "function"
    },
    {
      "inputs": [
        {
          "internalType": "address",
          "name": "token",
          "type": "address"
        },
        {
          "components": [
            {
              "internalType": "string",
              "name": "name",
              "type": "string"
            },
            {
              "internalType": "string",
              "name": "symbol",
              "type": "string"
            },
            {
              "internalType": "address",
              "name": "treasury",
              "type": "address"
            },
            {
              "internalType": "string",
              "name": "memo",
              "type": "string"
            },
            {
              "internalType": "bool",
              "name": "tokenSupplyType",
              "type": "bool"
            },
            {
              "internalType": "int64",
              "name": "maxSupply",
              "type": "int64"
            },
            {
              "internalType": "bool",
              "name": "freezeDefault",
              "type": "bool"
            },
            {
              "components": [
                {
                  "internalType": "uint256",
                  "name": "keyType",
                  "type": "uint256"
                },
                {
                  "components": [
                    {
                      "internalType": "bool",
                      "name": "inheritAccountKey",
                      "type": "bool"
                    },
                    {
                      "internalType": "address",
                      "name": "contractId",
                      "type": "address"
                    },
                    {
                      "internalType": "bytes",
                      "name": "ed25519",
                      "type": "bytes"
                    },
                    {
                      "internalType": "bytes",
                      "name": "ECDSA_secp256k1",
                      "type": "bytes"
                    },
                    {
                      "internalType": "address",
                      "name": "delegatableContractId",
                      "type": "address"
                    }
                  ],
                  "internalType": "struct IHederaTokenService.KeyValue",
                  "name": "key",
                  "type": "tuple"
                }
              ],
              "internalType": "struct IHederaTokenService.TokenKey[]",
              "name": "tokenKeys",
              "type": "tuple[]"
            },
            {
              "components": [
                {
                  "internalType": "int64",
                  "name": "second",
                  "type": "int64"
                },
                {
                  "internalType": "address",
                  "name": "autoRenewAccount",
                  "type": "address"
                },
                {
                  "internalType": "int64",
                  "name": "autoRenewPeriod",
                  "type": "int64"
                }
              ],
              "internalType": "struct IHederaTokenService.Expiry",
              "name": "expiry",
              "type": "tuple"
            }
          ],
          "internalType": "struct IHederaTokenService.HederaToken",
          "name": "tokenInfo",
          "type": "tuple"
        }
      ],
      "name": "safeUpdateTokenInfo",
      "outputs": [],
      "stateMutability": "nonpayable",
      "type": "function"
    },
    {
      "inputs": [
        {
          "internalType": "address",
          "name": "token",
          "type": "address"
        },
        {
          "components": [
            {
              "internalType": "uint256",
              "name": "keyType",
              "type": "uint256"
            },
            {
              "components": [
                {
                  "internalType": "bool",
                  "name": "inheritAccountKey",
                  "type": "bool"
                },
                {
                  "internalType": "address",
                  "name": "contractId",
                  "type": "address"
                },
                {
                  "internalType": "bytes",
                  "name": "ed25519",
                  "type": "bytes"
                },
                {
                  "internalType": "bytes",
                  "name": "ECDSA_secp256k1",
                  "type": "bytes"
                },
                {
                  "internalType": "address",
                  "name": "delegatableContractId",
                  "type": "address"
                }
              ],
              "internalType": "struct IHederaTokenService.KeyValue",
              "name": "key",
              "type": "tuple"
            }
          ],
          "internalType": "struct IHederaTokenService.TokenKey[]",
          "name": "keys",
          "type": "tuple[]"
        }
      ],
      "name": "safeUpdateTokenKeys",
      "outputs": [],
      "stateMutability": "nonpayable",
      "type": "function"
    },
    {
      "inputs": [
        {
          "internalType": "address",
          "name": "token",
          "type": "address"
        },
        {
          "internalType": "address",
          "name": "account",
          "type": "address"
        },
        {
          "internalType": "int64",
          "name": "amount",
          "type": "int64"
        }
      ],
      "name": "safeWipeTokenAccount",
      "outputs": [],
      "stateMutability": "nonpayable",
      "type": "function"
    },
    {
      "inputs": [
        {
          "internalType": "address",
          "name": "token",
          "type": "address"
        },
        {
          "internalType": "address",
          "name": "account",
          "type": "address"
        },
        {
          "internalType": "int64[]",
          "name": "serialNumbers",
          "type": "int64[]"
        }
      ],
      "name": "safeWipeTokenAccountNFT",
      "outputs": [],
      "stateMutability": "nonpayable",
      "type": "function"
    }
  ],
  "bytecode": "0x608060405234801561001057600080fd5b50614b3b806100206000396000f3fe6080604052600436106102c25760003560e01c806368b03db81161017f578063978df2a2116100e1578063cf58c3ea1161008a578063eb5625d911610064578063eb5625d914610882578063eccc07c6146108a2578063ed02ae71146108c257600080fd5b8063cf58c3ea1461083a578063dfb3bfc41461085a578063e1e787841461087a57600080fd5b8063b8a39cdd116100bb578063b8a39cdd146107cc578063ba2ad973146107ec578063be83aa991461081a57600080fd5b8063978df2a2146107795780639c7e98d0146107995780639d632dc6146107b957600080fd5b80637c6c6a8411610143578063894c66531161011d578063894c6653146107195780638d1433dd1461073957806394f74f3e1461075957600080fd5b80637c6c6a84146106b957806382ddffbf146106d957806387e6877c146106f957600080fd5b806368b03db8146106195780636e4333fd146106445780636efe63a514610671578063705314a01461069157806371e3ecb3146106b157600080fd5b80633e54fba81161022857806349c8532b116101ec57806354a0b16c116101c657806354a0b16c1461059957806355caeb09146105c6578063587da69a146105f957600080fd5b806349c8532b146105395780634ddd613b146105595780635140d67d1461057957600080fd5b80633e54fba81461046e578063421d02281461049e57806344f8e471146104cc57806348b14613146104f95780634959707b1461051957600080fd5b80631e4b26541161028a5780632ad145af116102645780632ad145af146103ff57806330d2a9f21461041f5780633364596e1461043f57600080fd5b80631e4b26541461038c5780631ffbb8d7146103ac57806327a84817146103cc57600080fd5b8063042a34b8146102c757806305923cee146102fd578063067fa1221461031f57806312d4da5e1461034c57806319cdce7e1461036c575b600080fd5b3480156102d357600080fd5b506102e76102e23660046123f1565b6108e2565b6040516102f491906128a8565b60405180910390f35b34801561030957600080fd5b5061031d6103183660046128f7565b6109b6565b005b34801561032b57600080fd5b5061033f61033a3660046123f1565b610a39565b6040516102f49190612942565b34801561035857600080fd5b5061031d610367366004612ce6565b610b01565b34801561037857600080fd5b5061031d6103873660046123f1565b610b6e565b34801561039857600080fd5b5061031d6103a73660046128f7565b610bdd565b3480156103b857600080fd5b5061031d6103c7366004612e2e565b610c2f565b3480156103d857600080fd5b506103ec6103e7366004612ecb565b610c77565b60405160079190910b81526020016102f4565b34801561040b57600080fd5b5061031d61041a366004612e2e565b610d0d565b34801561042b57600080fd5b5061031d61043a366004612fe4565b610d55565b34801561044b57600080fd5b5061045f61045a3660046123f1565b610d8c565b6040516102f4939291906131b3565b34801561047a57600080fd5b5061048e6104893660046131ec565b610e2f565b60405190151581526020016102f4565b3480156104aa57600080fd5b506104be6104b936600461322c565b610ecd565b6040516102f4929190613304565b3480156104d857600080fd5b506104ec6104e7366004613359565b610f6c565b6040516102f49190613385565b34801561050557600080fd5b5061031d610514366004613398565b61104f565b34801561052557600080fd5b5061048e610534366004612e2e565b61109f565b34801561054557600080fd5b5061031d6105543660046133d8565b611136565b34801561056557600080fd5b5061048e6105743660046123f1565b6111c2565b34801561058557600080fd5b5061048e610594366004612e2e565b611257565b3480156105a557600080fd5b506105b96105b4366004613434565b6112a2565b6040516102f49190613462565b3480156105d257600080fd5b506105e66105e13660046123f1565b611343565b60405160039190910b81526020016102f4565b34801561060557600080fd5b5061031d6106143660046133d8565b6113d1565b61062c610627366004612e2e565b61142b565b6040516001600160a01b0390911681526020016102f4565b34801561065057600080fd5b5061066461065f3660046123f1565b611545565b6040516102f491906134e6565b34801561067d57600080fd5b5061031d61068c36600461351a565b6115e9565b34801561069d57600080fd5b5061031d6106ac3660046135ae565b611624565b61062c61165d565b3480156106c557600080fd5b5061031d6106d43660046135fe565b611782565b3480156106e557600080fd5b5061031d6106f4366004612e2e565b6117bf565b34801561070557600080fd5b5061031d6107143660046135ae565b611807565b34801561072557600080fd5b5061031d6107343660046123f1565b611840565b34801561074557600080fd5b5061048e6107543660046123f1565b611880565b34801561076557600080fd5b5061031d610774366004612e2e565b6118c3565b34801561078557600080fd5b5061062c610794366004613434565b61190b565b3480156107a557600080fd5b5061031d6107b4366004612e2e565b6119a3565b61062c6107c7366004612e2e565b6119eb565b3480156107d857600080fd5b5061031d6107e7366004613699565b611b68565b3480156107f857600080fd5b5061080c6108073660046131ec565b611ba1565b6040519081526020016102f4565b34801561082657600080fd5b5061031d6108353660046136cf565b611c3f565b34801561084657600080fd5b5061031d6108553660046123f1565b611c7a565b34801561086657600080fd5b5061048e6108753660046123f1565b611cba565b61062c611cfd565b34801561088e57600080fd5b5061031d61089d36600461373b565b611dfe565b3480156108ae57600080fd5b5061031d6108bd366004612e2e565b611e4d565b3480156108ce57600080fd5b5061031d6108dd36600461377c565b611e95565b6108ea6122b0565b6040516285469760e31b81526001600160a01b038316600482015273__$64a275930a611d2694d2a05feb4a8b2aa0$__9063042a34b89060240160006040518083038186803b15801561093c57600080fd5b505af4158015610950573d6000803e3d6000fd5b505050506040513d6000823e601f3d908101601f191682016040526109789190810190613ea2565b90507f7f7b8516e7531232cb589acb38a8b5b904865145667f48fe2ed0623a86e4a1f0816040516109a991906128a8565b60405180910390a1919050565b6040516302c91e7760e11b81526001600160a01b03808516600483015283166024820152600782900b604482015273__$64a275930a611d2694d2a05feb4a8b2aa0$__906305923cee906064015b60006040518083038186803b158015610a1c57600080fd5b505af4158015610a30573d6000803e3d6000fd5b50505050505050565b610a416122d0565b60405163033fd09160e11b81526001600160a01b038316600482015273__$64a275930a611d2694d2a05feb4a8b2aa0$__9063067fa1229060240160006040518083038186803b158015610a9457600080fd5b505af4158015610aa8573d6000803e3d6000fd5b505050506040513d6000823e601f3d908101601f19168201604052610ad09190810190613f20565b90507f0ec0178c2674bea6c710e3ebf8acac901f6be0d51ab96110959e01fb1b223b27816040516109a99190612942565b6040516367ac845360e01b815273__$64a275930a611d2694d2a05feb4a8b2aa0$__906367ac845390610b3a90859085906004016140cb565b60006040518083038186803b158015610b5257600080fd5b505af4158015610b66573d6000803e3d6000fd5b505050505050565b604051630ce6e73f60e11b81526001600160a01b038216600482015273__$64a275930a611d2694d2a05feb4a8b2aa0$__906319cdce7e906024015b60006040518083038186803b158015610bc257600080fd5b505af4158015610bd6573d6000803e3d6000fd5b5050505050565b604051630792c99560e21b81526001600160a01b03808516600483015283166024820152600782900b604482015273__$64a275930a611d2694d2a05feb4a8b2aa0$__90631e4b265490606401610a04565b604051631ffbb8d760e01b81526001600160a01b0380841660048301528216602482015273__$64a275930a611d2694d2a05feb4a8b2aa0$__90631ffbb8d790604401610b3a565b6040516327a8481760e01b815260009073__$64a275930a611d2694d2a05feb4a8b2aa0$__906327a8481790610cb590879087908790600401614120565b60206040518083038186803b158015610ccd57600080fd5b505af4158015610ce1573d6000803e3d6000fd5b505050506040513d601f19601f82011682018060405250810190610d05919061414b565b949350505050565b604051632ad145af60e01b81526001600160a01b0380831660048301528316602482015273__$64a275930a611d2694d2a05feb4a8b2aa0$__90632ad145af90604401610b3a565b604051630962e27b60e01b815273__$64a275930a611d2694d2a05feb4a8b2aa0$__90630962e27b90610baa9084906004016141c9565b6040516319b22cb760e11b81526001600160a01b03821660048201526060908190819073__$64a275930a611d2694d2a05feb4a8b2aa0$__90633364596e9060240160006040518083038186803b158015610de657600080fd5b505af4158015610dfa573d6000803e3d6000fd5b505050506040513d6000823e601f3d908101601f19168201604052610e2291908101906142a0565b9196909550909350915050565b6040516307ca9f7560e31b81526001600160a01b03808516600483015280841660248301528216604482015260009073__$64a275930a611d2694d2a05feb4a8b2aa0$__90633e54fba89060640160206040518083038186803b158015610e9557600080fd5b505af4158015610ea9573d6000803e3d6000fd5b505050506040513d601f19601f82011682018060405250810190610d05919061431e565b6000606073__$64a275930a611d2694d2a05feb4a8b2aa0$__63421d02288686866040518463ffffffff1660e01b8152600401610f0c9392919061433b565b60006040518083038186803b158015610f2457600080fd5b505af4158015610f38573d6000803e3d6000fd5b505050506040513d6000823e601f3d908101601f19168201604052610f6091908101906143b8565b90969095509350505050565b610fb26040518060a0016040528060001515815260200160006001600160a01b03168152602001606081526020016060815260200160006001600160a01b031681525090565b6040516344f8e47160e01b81526001600160a01b03841660048201526024810183905273__$64a275930a611d2694d2a05feb4a8b2aa0$__906344f8e4719060440160006040518083038186803b15801561100c57600080fd5b505af4158015611020573d6000803e3d6000fd5b505050506040513d6000823e601f3d908101601f191682016040526110489190810190614469565b9392505050565b6040516348b1461360e01b81526001600160a01b03808516600483015283166024820152811515604482015273__$64a275930a611d2694d2a05feb4a8b2aa0$__906348b1461390606401610a04565b604051634959707b60e01b81526001600160a01b0380841660048301528216602482015260009073__$64a275930a611d2694d2a05feb4a8b2aa0$__90634959707b906044015b60206040518083038186803b1580156110fe57600080fd5b505af4158015611112573d6000803e3d6000fd5b505050506040513d601f19601f82011682018060405250810190611048919061431e565b6040516349c8532b60e01b81526001600160a01b038086166004830152808516602483015283166044820152600782900b606482015273__$64a275930a611d2694d2a05feb4a8b2aa0$__906349c8532b906084015b60006040518083038186803b1580156111a457600080fd5b505af41580156111b8573d6000803e3d6000fd5b5050505050505050565b604051634ddd613b60e01b81526001600160a01b038216600482015260009073__$64a275930a611d2694d2a05feb4a8b2aa0$__90634ddd613b906024015b60206040518083038186803b15801561121957600080fd5b505af415801561122d573d6000803e3d6000fd5b505050506040513d601f19601f82011682018060405250810190611251919061431e565b92915050565b604051635140d67d60e01b81526001600160a01b0380841660048301528216602482015260009073__$64a275930a611d2694d2a05feb4a8b2aa0$__90635140d67d906044016110e6565b6112aa61232b565b6040516315282c5b60e21b81526001600160a01b0384166004820152600783900b602482015273__$64a275930a611d2694d2a05feb4a8b2aa0$__906354a0b16c9060440160006040518083038186803b15801561130757600080fd5b505af415801561131b573d6000803e3d6000fd5b505050506040513d6000823e601f3d908101601f19168201604052611048919081019061449e565b6040516355caeb0960e01b81526001600160a01b038216600482015260009073__$64a275930a611d2694d2a05feb4a8b2aa0$__906355caeb099060240160206040518083038186803b15801561139957600080fd5b505af41580156113ad573d6000803e3d6000fd5b505050506040513d601f19601f820116820180604052508101906112519190614573565b604051632c3ed34d60e11b81526001600160a01b038086166004830152808516602483015283166044820152600782900b606482015273__$64a275930a611d2694d2a05feb4a8b2aa0$__9063587da69a9060840161118c565b6000611435612366565b6040805180820182526009815268746f6b656e4e616d6560b81b60208083019190915290835281518083018352600b81526a1d1bdad95b94de5b589bdb60aa1b81830152908301523090820152600061149060018587611ece565b905060006114a760046005600a601e60018b612056565b6040516341e3eeab60e01b815290915073__$64a275930a611d2694d2a05feb4a8b2aa0$__906341e3eeab906114eb90869060c89060089088908890600401614609565b60206040518083038186803b15801561150357600080fd5b505af4158015611517573d6000803e3d6000fd5b505050506040513d601f19601f8201168201806040525081019061153b91906146dc565b9695505050505050565b60408051606081018252600080825260208201819052818301529051636e4333fd60e01b81526001600160a01b038316600482015273__$64a275930a611d2694d2a05feb4a8b2aa0$__90636e4333fd9060240160606040518083038186803b1580156115b157600080fd5b505af41580156115c5573d6000803e3d6000fd5b505050506040513d601f19601f8201168201806040525081019061125191906146f9565b604051636efe63a560e01b815273__$64a275930a611d2694d2a05feb4a8b2aa0$__90636efe63a590610a0490869086908690600401614715565b60405163038298a560e51b815273__$64a275930a611d2694d2a05feb4a8b2aa0$__9063705314a090610b3a908590859060040161477a565b6000611667612366565b6040805180820182526009815268746f6b656e4e616d6560b81b60208083019190915290835281518083018352600b81526a1d1bdad95b94de5b589bdb60aa1b81830152908301523082820152516302004ccd60e01b815273__$64a275930a611d2694d2a05feb4a8b2aa0$__906302004ccd906116ef90849060c89060089060040161479c565b60206040518083038186803b15801561170757600080fd5b505af415801561171b573d6000803e3d6000fd5b505050506040513d601f19601f8201168201806040525081019061173f91906146dc565b6040516001600160a01b03821681529092507f2e2b3f61b70d2d131b2a807371103cc98d51adcaa5e9a8f9c32658ad8426e74e9060200160405180910390a15090565b604051631f1b1aa160e21b815273__$64a275930a611d2694d2a05feb4a8b2aa0$__90637c6c6a849061118c9087908790879087906004016147cb565b6040516382ddffbf60e01b81526001600160a01b0380841660048301528216602482015273__$64a275930a611d2694d2a05feb4a8b2aa0$__906382ddffbf90604401610b3a565b6040516321f9a1df60e21b815273__$64a275930a611d2694d2a05feb4a8b2aa0$__906387e6877c90610b3a908590859060040161477a565b60405163894c665360e01b81526001600160a01b038216600482015273__$64a275930a611d2694d2a05feb4a8b2aa0$__9063894c665390602401610baa565b604051638d1433dd60e01b81526001600160a01b038216600482015260009073__$64a275930a611d2694d2a05feb4a8b2aa0$__90638d1433dd90602401611201565b604051634a7ba79f60e11b81526001600160a01b0380841660048301528216602482015273__$64a275930a611d2694d2a05feb4a8b2aa0$__906394f74f3e90604401610b3a565b604051634bc6f95160e11b81526001600160a01b0383166004820152600782900b602482015260009073__$64a275930a611d2694d2a05feb4a8b2aa0$__9063978df2a29060440160206040518083038186803b15801561196b57600080fd5b505af415801561197f573d6000803e3d6000fd5b505050506040513d601f19601f8201168201806040525081019061104891906146dc565b6040516309c7e98d60e41b81526001600160a01b0380831660048301528316602482015273__$64a275930a611d2694d2a05feb4a8b2aa0$__90639c7e98d090604401610b3a565b60006119f5612366565b6040805180820182526009815268746f6b656e4e616d6560b81b60208083019190915290835281518083018352600b81526a1d1bdad95b94de5b589bdb60aa1b8183015283820152815180830183526004808252636d656d6f60e01b9282019290925260608401523091830191909152600090611a77906005600a878961211e565b905073__$64a275930a611d2694d2a05feb4a8b2aa0$__63ccc261fe836000604051908082528060200260200182016040528015611aef57816020015b6040805160a081018252600080825260208083018290529282018190526060820181905260808201528252600019909201910181611ab45790505b50846040518463ffffffff1660e01b8152600401611b0f9392919061481e565b60206040518083038186803b158015611b2757600080fd5b505af4158015611b3b573d6000803e3d6000fd5b505050506040513d601f19601f82011682018060405250810190611b5f91906146dc565b95945050505050565b6040516310e9065560e01b815273__$64a275930a611d2694d2a05feb4a8b2aa0$__906310e9065590610b3a90859085906004016148d2565b60405163ba2ad97360e01b81526001600160a01b03808516600483015280841660248301528216604482015260009073__$64a275930a611d2694d2a05feb4a8b2aa0$__9063ba2ad9739060640160206040518083038186803b158015611c0757600080fd5b505af4158015611c1b573d6000803e3d6000fd5b505050506040513d601f19601f82011682018060405250810190610d059190614915565b60405163be83aa9960e01b815273__$64a275930a611d2694d2a05feb4a8b2aa0$__9063be83aa9990610a049086908690869060040161492e565b6040516367ac61f560e11b81526001600160a01b038216600482015273__$64a275930a611d2694d2a05feb4a8b2aa0$__9063cf58c3ea90602401610baa565b6040516337eceff160e21b81526001600160a01b038216600482015260009073__$64a275930a611d2694d2a05feb4a8b2aa0$__9063dfb3bfc490602401611201565b6000611d07612366565b6040805180820182526009815268746f6b656e4e616d6560b81b60208083019190915290835281518083018352600b81526a1d1bdad95b94de5b589bdb60aa1b8183015283820152815180830183526004808252636d656d6f60e01b9282019290925260608401523083830152905163910f271160e01b815273__$64a275930a611d2694d2a05feb4a8b2aa0$__9163910f271191611da891859101614962565b60206040518083038186803b158015611dc057600080fd5b505af4158015611dd4573d6000803e3d6000fd5b505050506040513d601f19601f82011682018060405250810190611df891906146dc565b91505090565b60405163eb5625d960e01b81526001600160a01b038085166004830152831660248201526044810182905273__$64a275930a611d2694d2a05feb4a8b2aa0$__9063eb5625d990606401610a04565b60405163766603e360e11b81526001600160a01b0380841660048301528216602482015273__$64a275930a611d2694d2a05feb4a8b2aa0$__9063eccc07c690604401610b3a565b604051634e03000f60e01b815273__$64a275930a611d2694d2a05feb4a8b2aa0$__90634e03000f90610b3a9085908590600401614975565b60408051600380825260808201909252606091816020015b6040805160a081018252600080825260208083018290529282018190526060820181905260808201528252600019909201910181611ee65750506040805160a081018252600091810182905260608101829052600387900b81526001600160a01b03868116602083015285166080820152919250611fa0611f68876002614a60565b856040805160a081018252600060208201819052606082015260039390930b83526001908301526001600160a01b0316608082015290565b90506000611fed611fb2886004614a60565b866040805160a0810182526000602082018190529181019190915260039290920b8252600160608301526001600160a01b0316608082015290565b9050828460008151811061200357612003614aef565b6020026020010181905250818460018151811061202257612022614aef565b6020026020010181905250808460028151811061204157612041614aef565b60200260200101819052505050509392505050565b604080516001808252818301909252606091816020015b6040805160c08101825260008082526020808301829052928201819052606082018190526080820181905260a0820152825260001990920191018161206d5750506040805160c08101825260038a810b825289810b602083015288810b928201929092529086900b606082015284151560808201526001600160a01b03841660a0820152909150808260008151811061210857612108614aef565b6020026020010181905250509695505050505050565b60408051600380825260808201909252606091816020015b6040805160c08101825260008082526020808301829052928201819052606082018190526080820181905260a082015282526000199092019101816121365750506040805160c08101825260009181018290526060810182905260808101829052600389810b825288900b60208201526001600160a01b03851660a0820152919250906040805160c08101825260038a810b825289810b602083015288900b91810191909152600060608201819052600160808301526001600160a01b03861660a08301529192506040805160c08101825260038b810b82528a810b602083015289900b918101919091526001600160a01b03808816606083015260006080830181905290871660a08301529192509050828460008151811061225b5761225b614aef565b6020026020010181905250818460018151811061227a5761227a614aef565b6020026020010181905250808460028151811061229957612299614aef565b602002602001018190525050505095945050505050565b60405180604001604052806122c36122d0565b8152600060209091015290565b6040518061012001604052806122e4612366565b8152602001600060070b8152602001600015158152602001600015158152602001600015158152602001606081526020016060815260200160608152602001606081525090565b6040518060c0016040528061233e6122d0565b8152600060208201819052604082018190526060808301829052608083015260a09091015290565b60408051610120810182526060808252602080830182905260008385018190528284018390526080840181905260a0840181905260c0840181905260e0840183905284519283018552808352908201819052928101929092529061010082015290565b6001600160a01b03811681146123de57600080fd5b50565b80356123ec816123c9565b919050565b60006020828403121561240357600080fd5b8135611048816123c9565b60005b83811015612429578181015183820152602001612411565b83811115612438576000848401525b50505050565b6000815180845261245681602086016020860161240e565b601f01601f19169290920160200192915050565b805115158252600060208201516001600160a01b0380821660208601526040840151915060a060408601526124a260a086018361243e565b9150606084015185830360608701526124bb838261243e565b925050806080850151166080860152508091505092915050565b600082825180855260208086019550808260051b84010181860160005b8481101561253457858303601f1901895281518051845284015160408585018190526125208186018361246a565b9a86019a94505050908301906001016124f2565b5090979650505050505050565b600061016082518185526125578286018261243e565b91505060208301518482036020860152612571828261243e565b915050604083015161258e60408601826001600160a01b03169052565b50606083015184820360608601526125a6828261243e565b91505060808301516125bc608086018215159052565b5060a08301516125d160a086018260070b9052565b5060c08301516125e560c086018215159052565b5060e083015184820360e08601526125fd82826124d5565b9150506101008084015161263982870182805160070b82526001600160a01b036020820151166020830152604081015160070b60408301525050565b5090949350505050565b600081518084526020808501945080840160005b838110156126be576126ab878351805160070b825260208101516001600160a01b03808216602085015260408301511515604085015260608301511515606085015280608084015116608085015250505050565b60a0969096019590820190600101612657565b509495945050505050565b600081518084526020808501945080840160005b838110156126be5761273c878351805160070b8252602081015160070b6020830152604081015160070b6040830152606081015160070b60608301526080810151151560808301526001600160a01b0360a08201511660a08301525050565b60c09690960195908201906001016126dd565b600081518084526020808501945080840160005b838110156126be576127c5878351805160070b8252602081015160070b6020830152604081015160070b604083015260608101516001600160a01b0380821660608501526080830151151560808501528060a08401511660a085015250505050565b60c0969096019590820190600101612763565b600061012082518185526127ee82860182612541565b9150506020830151612805602086018260070b9052565b506040830151612819604086018215159052565b50606083015161282d606086018215159052565b506080830151612841608086018215159052565b5060a083015184820360a08601526128598282612643565b91505060c083015184820360c086015261287382826126c9565b91505060e083015184820360e086015261288d828261274f565b915050610100808401518583038287015261153b838261243e565b6020815260008251604060208401526128c460608401826127d8565b9050602084015160030b60408401528091505092915050565b8060070b81146123de57600080fd5b80356123ec816128dd565b60008060006060848603121561290c57600080fd5b8335612917816123c9565b92506020840135612927816123c9565b91506040840135612937816128dd565b809150509250925092565b60208152600061104860208301846127d8565b634e487b7160e01b600052604160045260246000fd5b6040805190810167ffffffffffffffff8111828210171561298e5761298e612955565b60405290565b60405160a0810167ffffffffffffffff8111828210171561298e5761298e612955565b6040516060810167ffffffffffffffff8111828210171561298e5761298e612955565b604051610120810167ffffffffffffffff8111828210171561298e5761298e612955565b6040516080810167ffffffffffffffff8111828210171561298e5761298e612955565b60405160c0810167ffffffffffffffff8111828210171561298e5761298e612955565b604051601f8201601f1916810167ffffffffffffffff81118282101715612a6d57612a6d612955565b604052919050565b600067ffffffffffffffff821115612a8f57612a8f612955565b50601f01601f191660200190565b600082601f830112612aae57600080fd5b8135612ac1612abc82612a75565b612a44565b818152846020838601011115612ad657600080fd5b816020850160208301376000918101602001919091529392505050565b80151581146123de57600080fd5b80356123ec81612af3565b600067ffffffffffffffff821115612b2657612b26612955565b5060051b60200190565b600082601f830112612b4157600080fd5b81356020612b51612abc83612b0c565b82815260059290921b84018101918181019086841115612b7057600080fd5b8286015b84811015612c8657803567ffffffffffffffff80821115612b9457600080fd5b908801906040601f19838c038101821315612bae57600080fd5b612bb661296b565b8885013581528285013584811115612bcd57600080fd5b949094019360a0858e0383011215612be55760008081fd5b612bed612994565b915088850135612bfc81612af3565b825284830135612c0b816123c9565b828a015260608581013585811115612c235760008081fd5b612c318f8c838a0101612a9d565b8585015250608093508386013585811115612c4c5760008081fd5b612c5a8f8c838a0101612a9d565b828501525050612c6c60a086016123e1565b928201929092528188015285525050918301918301612b74565b509695505050505050565b600060608284031215612ca357600080fd5b612cab6129b7565b90508135612cb8816128dd565b81526020820135612cc8816123c9565b60208201526040820135612cdb816128dd565b604082015292915050565b60008060408385031215612cf957600080fd5b8235612d04816123c9565b9150602083013567ffffffffffffffff80821115612d2157600080fd5b908401906101608287031215612d3657600080fd5b612d3e6129da565b823582811115612d4d57600080fd5b612d5988828601612a9d565b825250602083013582811115612d6e57600080fd5b612d7a88828601612a9d565b602083015250612d8c604084016123e1565b6040820152606083013582811115612da357600080fd5b612daf88828601612a9d565b606083015250612dc160808401612b01565b6080820152612dd260a084016128ec565b60a0820152612de360c08401612b01565b60c082015260e083013582811115612dfa57600080fd5b612e0688828601612b30565b60e0830152506101009150612e1d87838501612c91565b828201528093505050509250929050565b60008060408385031215612e4157600080fd5b8235612e4c816123c9565b91506020830135612e5c816123c9565b809150509250929050565b600082601f830112612e7857600080fd5b81356020612e88612abc83612b0c565b82815260059290921b84018101918181019086841115612ea757600080fd5b8286015b84811015612c86578035612ebe816128dd565b8352918301918301612eab565b600080600060608486031215612ee057600080fd5b8335612eeb816123c9565b92506020840135612efb816128dd565b9150604084013567ffffffffffffffff811115612f1757600080fd5b612f2386828701612e67565b9150509250925092565b600082601f830112612f3e57600080fd5b81356020612f4e612abc83612b0c565b82815260079290921b84018101918181019086841115612f6d57600080fd5b8286015b84811015612c865760808189031215612f8a5760008081fd5b612f926129fe565b8135612f9d816123c9565b815281850135612fac816123c9565b81860152604082810135612fbf816128dd565b90820152606082810135612fd281612af3565b90820152835291830191608001612f71565b600060208284031215612ff657600080fd5b67ffffffffffffffff808335111561300d57600080fd5b8235830184601f82011261302057600080fd5b61302d612abc8235612b0c565b81358082526020808301929160051b84010187101561304b57600080fd5b602083015b6020843560051b850101811015612c8657848135111561306f57600080fd5b803584016060818a03601f1901121561308757600080fd5b61308f6129b7565b61309c60208301356123c9565b6020820135815286604083013511156130b457600080fd5b604082013582018a603f8201126130ca57600080fd5b6130da612abc6020830135612b0c565b602082810135808352908201919060600283016040018d8111156130fd57600080fd5b6040840193505b80841015613173576060848f03121561311c57600080fd5b6131246129b7565b61312e85356123c9565b8435815261313f60208601356128dd565b602085013560208201526131566040860135612af3565b604085810135908201528352606090930192602090920191613104565b5060208401525050606082013587101561318c57600080fd5b61319f8a60206060850135850101612f2d565b604082015284525060209283019201613050565b6060815260006131c66060830186612643565b82810360208401526131d881866126c9565b9050828103604084015261153b818561274f565b60008060006060848603121561320157600080fd5b833561320c816123c9565b9250602084013561321c816123c9565b91506040840135612937816123c9565b60008060006060848603121561324157600080fd5b833561324c816123c9565b925060208481013561325d816128dd565b9250604085013567ffffffffffffffff8082111561327a57600080fd5b818701915087601f83011261328e57600080fd5b813561329c612abc82612b0c565b81815260059190911b8301840190848101908a8311156132bb57600080fd5b8585015b838110156132f3578035858111156132d75760008081fd5b6132e58d89838a0101612a9d565b8452509186019186016132bf565b508096505050505050509250925092565b600060408201600785810b84526020604081860152828651808552606087019150828801945060005b8181101561334b578551850b8352948301949183019160010161332d565b509098975050505050505050565b6000806040838503121561336c57600080fd5b8235613377816123c9565b946020939093013593505050565b602081526000611048602083018461246a565b6000806000606084860312156133ad57600080fd5b83356133b8816123c9565b925060208401356133c8816123c9565b9150604084013561293781612af3565b600080600080608085870312156133ee57600080fd5b84356133f9816123c9565b93506020850135613409816123c9565b92506040850135613419816123c9565b91506060850135613429816128dd565b939692955090935050565b6000806040838503121561344757600080fd5b8235613452816123c9565b91506020830135612e5c816128dd565b602081526000825160c0602084015261347e60e08401826127d8565b9050602084015160070b604084015260408401516001600160a01b038082166060860152606086015160070b608086015260808601519150601f198584030160a08601526134cc838361243e565b92508060a08701511660c086015250508091505092915050565b606081016112518284805160070b82526001600160a01b036020820151166020830152604081015160070b60408301525050565b60008060006060848603121561352f57600080fd5b833561353a816123c9565b92506020840135612efb816123c9565b600082601f83011261355b57600080fd5b8135602061356b612abc83612b0c565b82815260059290921b8401810191818101908684111561358a57600080fd5b8286015b84811015612c865780356135a1816123c9565b835291830191830161358e565b600080604083850312156135c157600080fd5b82356135cc816123c9565b9150602083013567ffffffffffffffff8111156135e857600080fd5b6135f48582860161354a565b9150509250929050565b6000806000806080858703121561361457600080fd5b843561361f816123c9565b9350602085013567ffffffffffffffff8082111561363c57600080fd5b6136488883890161354a565b9450604087013591508082111561365e57600080fd5b61366a8883890161354a565b9350606087013591508082111561368057600080fd5b5061368d87828801612e67565b91505092959194509250565b600080608083850312156136ac57600080fd5b82356136b7816123c9565b91506136c68460208501612c91565b90509250929050565b6000806000606084860312156136e457600080fd5b83356136ef816123c9565b9250602084013567ffffffffffffffff8082111561370c57600080fd5b6137188783880161354a565b9350604086013591508082111561372e57600080fd5b50612f2386828701612e67565b60008060006060848603121561375057600080fd5b833561375b816123c9565b9250602084013561376b816123c9565b929592945050506040919091013590565b6000806040838503121561378f57600080fd5b823561379a816123c9565b9150602083013567ffffffffffffffff8111156137b657600080fd5b6135f485828601612b30565b600082601f8301126137d357600080fd5b81516137e1612abc82612a75565b8181528460208386010111156137f657600080fd5b610d0582602083016020870161240e565b80516123ec816123c9565b80516123ec81612af3565b80516123ec816128dd565b600060a0828403121561383a57600080fd5b613842612994565b9050815161384f81612af3565b8152602082015161385f816123c9565b6020820152604082015167ffffffffffffffff8082111561387f57600080fd5b61388b858386016137c2565b604084015260608401519150808211156138a457600080fd5b506138b1848285016137c2565b60608301525060808201516138c5816123c9565b608082015292915050565b600082601f8301126138e157600080fd5b815160206138f1612abc83612b0c565b82815260059290921b8401810191818101908684111561391057600080fd5b8286015b84811015612c8657805167ffffffffffffffff808211156139355760008081fd5b908801906040828b03601f190181131561394f5760008081fd5b61395761296b565b8388015181529083015190828211156139705760008081fd5b61397e8c8984870101613828565b818901528652505050918301918301613914565b6000606082840312156139a457600080fd5b6139ac6129b7565b905081516139b9816128dd565b815260208201516139c9816123c9565b60208201526040820151612cdb816128dd565b600061016082840312156139ef57600080fd5b6139f76129da565b9050815167ffffffffffffffff80821115613a1157600080fd5b613a1d858386016137c2565b83526020840151915080821115613a3357600080fd5b613a3f858386016137c2565b6020840152613a5060408501613807565b60408401526060840151915080821115613a6957600080fd5b613a75858386016137c2565b6060840152613a8660808501613812565b6080840152613a9760a0850161381d565b60a0840152613aa860c08501613812565b60c084015260e0840151915080821115613ac157600080fd5b50613ace848285016138d0565b60e083015250610100613ae384828501613992565b9082015292915050565b600082601f830112613afe57600080fd5b81516020613b0e612abc83612b0c565b82815260a09283028501820192828201919087851115613b2d57600080fd5b8387015b858110156125345781818a031215613b495760008081fd5b613b51612994565b8151613b5c816128dd565b815281860151613b6b816123c9565b81870152604082810151613b7e81612af3565b90820152606082810151613b9181612af3565b90820152608082810151613ba4816123c9565b908201528452928401928101613b31565b600082601f830112613bc657600080fd5b81516020613bd6612abc83612b0c565b82815260c09283028501820192828201919087851115613bf557600080fd5b8387015b858110156125345781818a031215613c115760008081fd5b613c19612a21565b8151613c24816128dd565b815281860151613c33816128dd565b81870152604082810151613c46816128dd565b90820152606082810151613c59816128dd565b90820152608082810151613c6c81612af3565b9082015260a082810151613c7f816123c9565b908201528452928401928101613bf9565b600082601f830112613ca157600080fd5b81516020613cb1612abc83612b0c565b82815260c09283028501820192828201919087851115613cd057600080fd5b8387015b858110156125345781818a031215613cec5760008081fd5b613cf4612a21565b8151613cff816128dd565b815281860151613d0e816128dd565b81870152604082810151613d21816128dd565b90820152606082810151613d34816123c9565b90820152608082810151613d4781612af3565b9082015260a082810151613d5a816123c9565b908201528452928401928101613cd4565b60006101208284031215613d7e57600080fd5b613d866129da565b9050815167ffffffffffffffff80821115613da057600080fd5b613dac858386016139dc565b8352613dba6020850161381d565b6020840152613dcb60408501613812565b6040840152613ddc60608501613812565b6060840152613ded60808501613812565b608084015260a0840151915080821115613e0657600080fd5b613e1285838601613aed565b60a084015260c0840151915080821115613e2b57600080fd5b613e3785838601613bb5565b60c084015260e0840151915080821115613e5057600080fd5b613e5c85838601613c90565b60e084015261010091508184015181811115613e7757600080fd5b613e83868287016137c2565b8385015250505092915050565b8051600381900b81146123ec57600080fd5b600060208284031215613eb457600080fd5b815167ffffffffffffffff80821115613ecc57600080fd5b9083019060408286031215613ee057600080fd5b613ee861296b565b825182811115613ef757600080fd5b613f0387828601613d6b565b825250613f1260208401613e90565b602082015295945050505050565b600060208284031215613f3257600080fd5b815167ffffffffffffffff811115613f4957600080fd5b610d0584828501613d6b565b600082825180855260208086019550808260051b84010181860160005b8481101561253457601f198684030189528151604081518552858201519150808686015281511515818601528582015160606001600160a01b038083168289015283850151935060a09250608083818a0152613fd160e08a018661243e565b92860151898403603f1901858b0152929450613fed858461243e565b9501511660c09790970196909652505098840198925090830190600101613f72565b600061016082518185526140258286018261243e565b9150506020830151848203602086015261403f828261243e565b915050604083015161405c60408601826001600160a01b03169052565b5060608301518482036060860152614074828261243e565b915050608083015161408a608086018215159052565b5060a083015161409f60a086018260070b9052565b5060c08301516140b360c086018215159052565b5060e083015184820360e08601526125fd8282613f55565b6001600160a01b0383168152604060208201526000610d05604083018461400f565b600081518084526020808501945080840160005b838110156126be57815160070b87529582019590820190600101614101565b6001600160a01b03841681528260070b6020820152606060408201526000611b5f60608301846140ed565b60006020828403121561415d57600080fd5b8151611048816128dd565b600081518084526020808501945080840160005b838110156126be57815180516001600160a01b03908116895284820151168489015260408082015160070b908901526060908101511515908801526080909601959082019060010161417c565b60006020808301818452808551808352604092508286019150828160051b87010184880160005b8381101561334b57603f19898403018552815160608085016001600160a01b038084511687528a840151838c89015282815180855260808a0191508d83019450600092505b8083101561426d5784518051851683528e81015160070b8f8401528d015115158d830152938d01936001929092019190850190614235565b50948b0151888603898d0152946142848187614168565b9a8d019a98505050948a019450505060019190910190506141f0565b6000806000606084860312156142b557600080fd5b835167ffffffffffffffff808211156142cd57600080fd5b6142d987838801613aed565b945060208601519150808211156142ef57600080fd5b6142fb87838801613bb5565b9350604086015191508082111561431157600080fd5b50612f2386828701613c90565b60006020828403121561433057600080fd5b815161104881612af3565b6000606082016001600160a01b038616835260208560070b818501526060604085015281855180845260808601915060808160051b870101935082870160005b828110156143a957607f1988870301845261439786835161243e565b9550928401929084019060010161437b565b50939998505050505050505050565b600080604083850312156143cb57600080fd5b82516143d6816128dd565b8092505060208084015167ffffffffffffffff8111156143f557600080fd5b8401601f8101861361440657600080fd5b8051614414612abc82612b0c565b81815260059190911b8201830190838101908883111561443357600080fd5b928401925b8284101561445a57835161444b816128dd565b82529284019290840190614438565b80955050505050509250929050565b60006020828403121561447b57600080fd5b815167ffffffffffffffff81111561449257600080fd5b610d0584828501613828565b6000602082840312156144b057600080fd5b815167ffffffffffffffff808211156144c857600080fd5b9083019060c082860312156144dc57600080fd5b6144e4612a21565b8251828111156144f357600080fd5b6144ff87828601613d6b565b82525061450e6020840161381d565b602082015261451f60408401613807565b60408201526145306060840161381d565b606082015260808301518281111561454757600080fd5b614553878286016137c2565b60808301525061456560a08401613807565b60a082015295945050505050565b60006020828403121561458557600080fd5b61104882613e90565b600081518084526020808501945080840160005b838110156126be576145f6878351805160070b825260208101516001600160a01b03808216602085015260408301511515604085015260608301511515606085015280608084015116608085015250505050565b60a09690960195908201906001016145a2565b60a08152600061461c60a083018861400f565b60208760070b818501528660030b60408501528382036060850152614641828761458e565b8481036080860152855180825282870193509082019060005b818110156146cc576146b9838651805160070b8252602081015160070b6020830152604081015160070b6040830152606081015160070b60608301526080810151151560808301526001600160a01b0360a08201511660a08301525050565b9383019360c0929092019160010161465a565b50909a9950505050505050505050565b6000602082840312156146ee57600080fd5b8151611048816123c9565b60006060828403121561470b57600080fd5b6110488383613992565b60006001600160a01b03808616835280851660208401525060606040830152611b5f60608301846140ed565b600081518084526020808501945080840160005b838110156126be5781516001600160a01b031687529582019590820190600101614755565b6001600160a01b0383168152604060208201526000610d056040830184614741565b6060815260006147af606083018661400f565b90508360070b60208301528260030b6040830152949350505050565b6001600160a01b03851681526080602082015260006147ed6080830186614741565b82810360408401526147ff8186614741565b9050828103606084015261481381856140ed565b979650505050505050565b606081526000614831606083018661400f565b602083820381850152614844828761458e565b8481036040860152855180825282870193509082019060005b8181101561334b576148bf838651805160070b8252602081015160070b6020830152604081015160070b604083015260608101516001600160a01b0380821660608501526080830151151560808501528060a08401511660a085015250505050565b9383019360c0929092019160010161485d565b6001600160a01b0383168152608081016110486020830184805160070b82526001600160a01b036020820151166020830152604081015160070b60408301525050565b60006020828403121561492757600080fd5b5051919050565b6001600160a01b03841681526060602082015260006149506060830185614741565b828103604084015261153b81856140ed565b602081526000611048602083018461400f565b600060408083016001600160a01b03808716855260208381870152828751808552606094508488019150848160051b890101838a0160005b83811015614a39578a8303605f190185528151805184528601518684018a9052805115158a850152808701518816898501528981015160a060808087018290526149fa60e088018461243e565b92508b840151603f198885030183890152614a15848261243e565b91909401518b1660c0979097019690965250505093850193908501906001016149ad565b50909b9a5050505050505050505050565b634e487b7160e01b600052601160045260246000fd5b60008160030b8360030b637fffffff600082136000841383830485118282161615614a8d57614a8d614a4a565b637fffffff196000851282811687830587121615614aad57614aad614a4a565b60008712925085820587128484161615614ac957614ac9614a4a565b85850587128184161615614adf57614adf614a4a565b5050509290910295945050505050565b634e487b7160e01b600052603260045260246000fdfea264697066735822122090b1aa990bcb4b8f3c954bdb968083f3678271f6ad598b3a14c2b0ee3cab0ba764736f6c63430008090033",
  "linkReferences": {
    "contracts/safe-hts-precompile/SafeHTS.sol": {
      "SafeHTS": [
        {
          "length": 20,
          "start": 2343
        },
        {
          "length": 20,
          "start": 2566
        },
        {
          "length": 20,
          "start": 2687
        },
        {
          "length": 20,
          "start": 2864
        },
        {
          "length": 20,
          "start": 2988
        },
        {
          "length": 20,
          "start": 3117
        },
        {
          "length": 20,
          "start": 3189
        },
        {
          "length": 20,
          "start": 3241
        },
        {
          "length": 20,
          "start": 3411
        },
        {
          "length": 20,
          "start": 3460
        },
        {
          "length": 20,
          "start": 3537
        },
        {
          "length": 20,
          "start": 3712
        },
        {
          "length": 20,
          "start": 3827
        },
        {
          "length": 20,
          "start": 4087
        },
        {
          "length": 20,
          "start": 4253
        },
        {
          "length": 20,
          "start": 4328
        },
        {
          "length": 20,
          "start": 4494
        },
        {
          "length": 20,
          "start": 4611
        },
        {
          "length": 20,
          "start": 4768
        },
        {
          "length": 20,
          "start": 4850
        },
        {
          "length": 20,
          "start": 4996
        },
        {
          "length": 20,
          "start": 5161
        },
        {
          "length": 20,
          "start": 5337
        },
        {
          "length": 20,
          "start": 5532
        },
        {
          "length": 20,
          "start": 5656
        },
        {
          "length": 20,
          "start": 5715
        },
        {
          "length": 20,
          "start": 5857
        },
        {
          "length": 20,
          "start": 6065
        },
        {
          "length": 20,
          "start": 6149
        },
        {
          "length": 20,
          "start": 6198
        },
        {
          "length": 20,
          "start": 6270
        },
        {
          "length": 20,
          "start": 6337
        },
        {
          "length": 20,
          "start": 6409
        },
        {
          "length": 20,
          "start": 6486
        },
        {
          "length": 20,
          "start": 6633
        },
        {
          "length": 20,
          "start": 6811
        },
        {
          "length": 20,
          "start": 7063
        },
        {
          "length": 20,
          "start": 7154
        },
        {
          "length": 20,
          "start": 7278
        },
        {
          "length": 20,
          "start": 7352
        },
        {
          "length": 20,
          "start": 7419
        },
        {
          "length": 20,
          "start": 7586
        },
        {
          "length": 20,
          "start": 7755
        },
        {
          "length": 20,
          "start": 7827
        },
        {
          "length": 20,
          "start": 7876
        }
      ]
    }
  },
  "deployedLinkReferences": {
    "contracts/safe-hts-precompile/SafeHTS.sol": {
      "SafeHTS": [
        {
          "length": 20,
          "start": 2311
        },
        {
          "length": 20,
          "start": 2534
        },
        {
          "length": 20,
          "start": 2655
        },
        {
          "length": 20,
          "start": 2832
        },
        {
          "length": 20,
          "start": 2956
        },
        {
          "length": 20,
          "start": 3085
        },
        {
          "length": 20,
          "start": 3157
        },
        {
          "length": 20,
          "start": 3209
        },
        {
          "length": 20,
          "start": 3379
        },
        {
          "length": 20,
          "start": 3428
        },
        {
          "length": 20,
          "start": 3505
        },
        {
          "length": 20,
          "start": 3680
        },
        {
          "length": 20,
          "start": 3795
        },
        {
          "length": 20,
          "start": 4055
        },
        {
          "length": 20,
          "start": 4221
        },
        {
          "length": 20,
          "start": 4296
        },
        {
          "length": 20,
          "start": 4462
        },
        {
          "length": 20,
          "start": 4579
        },
        {
          "length": 20,
          "start": 4736
        },
        {
          "length": 20,
          "start": 4818
        },
        {
          "length": 20,
          "start": 4964
        },
        {
          "length": 20,
          "start": 5129
        },
        {
          "length": 20,
          "start": 5305
        },
        {
          "length": 20,
          "start": 5500
        },
        {
          "length": 20,
          "start": 5624
        },
        {
          "length": 20,
          "start": 5683
        },
        {
          "length": 20,
          "start": 5825
        },
        {
          "length": 20,
          "start": 6033
        },
        {
          "length": 20,
          "start": 6117
        },
        {
          "length": 20,
          "start": 6166
        },
        {
          "length": 20,
          "start": 6238
        },
        {
          "length": 20,
          "start": 6305
        },
        {
          "length": 20,
          "start": 6377
        },
        {
          "length": 20,
          "start": 6454
        },
        {
          "length": 20,
          "start": 6601
        },
        {
          "length": 20,
          "start": 6779
        },
        {
          "length": 20,
          "start": 7031
        },
        {
          "length": 20,
          "start": 7122
        },
        {
          "length": 20,
          "start": 7246
        },
        {
          "length": 20,
          "start": 7320
        },
        {
          "length": 20,
          "start": 7387
        },
        {
          "length": 20,
          "start": 7554
        },
        {
          "length": 20,
          "start": 7723
        },
        {
          "length": 20,
          "start": 7795
        },
        {
          "length": 20,
          "start": 7844
        }
      ]
    }
  }
}