{
  "_format": "hh-sol-artifact-1",
  "contractName": "SafeOperations",
  "sourceName": "contracts/safe-hts-precompile/SafeOperations.sol",
  "abi": [
    {
      "anonymous": false,
      "inputs": [
        {
          "components": [
            {
              "components": [
                {
                  "components": [
                    {
                      "internalType": "string",
                      "name": "name",
                      "type": "string"
                    },
                    {
                      "internalType": "string",
                      "name": "symbol",
                      "type": "string"
                    },
                    {
                      "internalType": "address",
                      "name": "treasury",
                      "type": "address"
                    },
                    {
                      "internalType": "string",
                      "name": "memo",
                      "type": "string"
                    },
                    {
                      "internalType": "bool",
                      "name": "tokenSupplyType",
                      "type": "bool"
                    },
                    {
                      "internalType": "int64",
                      "name": "maxSupply",
                      "type": "int64"
                    },
                    {
                      "internalType": "bool",
                      "name": "freezeDefault",
                      "type": "bool"
                    },
                    {
                      "components": [
                        {
                          "internalType": "uint256",
                          "name": "keyType",
                          "type": "uint256"
                        },
                        {
                          "components": [
                            {
                              "internalType": "bool",
                              "name": "inheritAccountKey",
                              "type": "bool"
                            },
                            {
                              "internalType": "address",
                              "name": "contractId",
                              "type": "address"
                            },
                            {
                              "internalType": "bytes",
                              "name": "ed25519",
                              "type": "bytes"
                            },
                            {
                              "internalType": "bytes",
                              "name": "ECDSA_secp256k1",
                              "type": "bytes"
                            },
                            {
                              "internalType": "address",
                              "name": "delegatableContractId",
                              "type": "address"
                            }
                          ],
                          "internalType": "struct IHederaTokenService.KeyValue",
                          "name": "key",
                          "type": "tuple"
                        }
                      ],
                      "internalType": "struct IHederaTokenService.TokenKey[]",
                      "name": "tokenKeys",
                      "type": "tuple[]"
                    },
                    {
                      "components": [
                        {
                          "internalType": "uint32",
                          "name": "second",
                          "type": "uint32"
                        },
                        {
                          "internalType": "address",
                          "name": "autoRenewAccount",
                          "type": "address"
                        },
                        {
                          "internalType": "uint32",
                          "name": "autoRenewPeriod",
                          "type": "uint32"
                        }
                      ],
                      "internalType": "struct IHederaTokenService.Expiry",
                      "name": "expiry",
                      "type": "tuple"
                    }
                  ],
                  "internalType": "struct IHederaTokenService.HederaToken",
                  "name": "token",
                  "type": "tuple"
                },
                {
                  "internalType": "uint64",
                  "name": "totalSupply",
                  "type": "uint64"
                },
                {
                  "internalType": "bool",
                  "name": "deleted",
                  "type": "bool"
                },
                {
                  "internalType": "bool",
                  "name": "defaultKycStatus",
                  "type": "bool"
                },
                {
                  "internalType": "bool",
                  "name": "pauseStatus",
                  "type": "bool"
                },
                {
                  "components": [
                    {
                      "internalType": "uint32",
                      "name": "amount",
                      "type": "uint32"
                    },
                    {
                      "internalType": "address",
                      "name": "tokenId",
                      "type": "address"
                    },
                    {
                      "internalType": "bool",
                      "name": "useHbarsForPayment",
                      "type": "bool"
                    },
                    {
                      "internalType": "bool",
                      "name": "useCurrentTokenForPayment",
                      "type": "bool"
                    },
                    {
                      "internalType": "address",
                      "name": "feeCollector",
                      "type": "address"
                    }
                  ],
                  "internalType": "struct IHederaTokenService.FixedFee[]",
                  "name": "fixedFees",
                  "type": "tuple[]"
                },
                {
                  "components": [
                    {
                      "internalType": "uint32",
                      "name": "numerator",
                      "type": "uint32"
                    },
                    {
                      "internalType": "uint32",
                      "name": "denominator",
                      "type": "uint32"
                    },
                    {
                      "internalType": "uint32",
                      "name": "minimumAmount",
                      "type": "uint32"
                    },
                    {
                      "internalType": "uint32",
                      "name": "maximumAmount",
                      "type": "uint32"
                    },
                    {
                      "internalType": "bool",
                      "name": "netOfTransfers",
                      "type": "bool"
                    },
                    {
                      "internalType": "address",
                      "name": "feeCollector",
                      "type": "address"
                    }
                  ],
                  "internalType": "struct IHederaTokenService.FractionalFee[]",
                  "name": "fractionalFees",
                  "type": "tuple[]"
                },
                {
                  "components": [
                    {
                      "internalType": "uint32",
                      "name": "numerator",
                      "type": "uint32"
                    },
                    {
                      "internalType": "uint32",
                      "name": "denominator",
                      "type": "uint32"
                    },
                    {
                      "internalType": "uint32",
                      "name": "amount",
                      "type": "uint32"
                    },
                    {
                      "internalType": "address",
                      "name": "tokenId",
                      "type": "address"
                    },
                    {
                      "internalType": "bool",
                      "name": "useHbarsForPayment",
                      "type": "bool"
                    },
                    {
                      "internalType": "address",
                      "name": "feeCollector",
                      "type": "address"
                    }
                  ],
                  "internalType": "struct IHederaTokenService.RoyaltyFee[]",
                  "name": "royaltyFees",
                  "type": "tuple[]"
                },
                {
                  "internalType": "string",
                  "name": "ledgerId",
                  "type": "string"
                }
              ],
              "internalType": "struct IHederaTokenService.TokenInfo",
              "name": "tokenInfo",
              "type": "tuple"
            },
            {
              "internalType": "uint32",
              "name": "decimals",
              "type": "uint32"
            }
          ],
          "indexed": false,
          "internalType": "struct IHederaTokenService.FungibleTokenInfo",
          "name": "fungibleTokenInfo",
          "type": "tuple"
        }
      ],
      "name": "FungibleTokenInfoEvent",
      "type": "event"
    },
    {
      "anonymous": false,
      "inputs": [
        {
          "indexed": false,
          "internalType": "address",
          "name": "token",
          "type": "address"
        }
      ],
      "name": "TokenCreated",
      "type": "event"
    },
    {
      "anonymous": false,
      "inputs": [
        {
          "components": [
            {
              "components": [
                {
                  "internalType": "string",
                  "name": "name",
                  "type": "string"
                },
                {
                  "internalType": "string",
                  "name": "symbol",
                  "type": "string"
                },
                {
                  "internalType": "address",
                  "name": "treasury",
                  "type": "address"
                },
                {
                  "internalType": "string",
                  "name": "memo",
                  "type": "string"
                },
                {
                  "internalType": "bool",
                  "name": "tokenSupplyType",
                  "type": "bool"
                },
                {
                  "internalType": "int64",
                  "name": "maxSupply",
                  "type": "int64"
                },
                {
                  "internalType": "bool",
                  "name": "freezeDefault",
                  "type": "bool"
                },
                {
                  "components": [
                    {
                      "internalType": "uint256",
                      "name": "keyType",
                      "type": "uint256"
                    },
                    {
                      "components": [
                        {
                          "internalType": "bool",
                          "name": "inheritAccountKey",
                          "type": "bool"
                        },
                        {
                          "internalType": "address",
                          "name": "contractId",
                          "type": "address"
                        },
                        {
                          "internalType": "bytes",
                          "name": "ed25519",
                          "type": "bytes"
                        },
                        {
                          "internalType": "bytes",
                          "name": "ECDSA_secp256k1",
                          "type": "bytes"
                        },
                        {
                          "internalType": "address",
                          "name": "delegatableContractId",
                          "type": "address"
                        }
                      ],
                      "internalType": "struct IHederaTokenService.KeyValue",
                      "name": "key",
                      "type": "tuple"
                    }
                  ],
                  "internalType": "struct IHederaTokenService.TokenKey[]",
                  "name": "tokenKeys",
                  "type": "tuple[]"
                },
                {
                  "components": [
                    {
                      "internalType": "uint32",
                      "name": "second",
                      "type": "uint32"
                    },
                    {
                      "internalType": "address",
                      "name": "autoRenewAccount",
                      "type": "address"
                    },
                    {
                      "internalType": "uint32",
                      "name": "autoRenewPeriod",
                      "type": "uint32"
                    }
                  ],
                  "internalType": "struct IHederaTokenService.Expiry",
                  "name": "expiry",
                  "type": "tuple"
                }
              ],
              "internalType": "struct IHederaTokenService.HederaToken",
              "name": "token",
              "type": "tuple"
            },
            {
              "internalType": "uint64",
              "name": "totalSupply",
              "type": "uint64"
            },
            {
              "internalType": "bool",
              "name": "deleted",
              "type": "bool"
            },
            {
              "internalType": "bool",
              "name": "defaultKycStatus",
              "type": "bool"
            },
            {
              "internalType": "bool",
              "name": "pauseStatus",
              "type": "bool"
            },
            {
              "components": [
                {
                  "internalType": "uint32",
                  "name": "amount",
                  "type": "uint32"
                },
                {
                  "internalType": "address",
                  "name": "tokenId",
                  "type": "address"
                },
                {
                  "internalType": "bool",
                  "name": "useHbarsForPayment",
                  "type": "bool"
                },
                {
                  "internalType": "bool",
                  "name": "useCurrentTokenForPayment",
                  "type": "bool"
                },
                {
                  "internalType": "address",
                  "name": "feeCollector",
                  "type": "address"
                }
              ],
              "internalType": "struct IHederaTokenService.FixedFee[]",
              "name": "fixedFees",
              "type": "tuple[]"
            },
            {
              "components": [
                {
                  "internalType": "uint32",
                  "name": "numerator",
                  "type": "uint32"
                },
                {
                  "internalType": "uint32",
                  "name": "denominator",
                  "type": "uint32"
                },
                {
                  "internalType": "uint32",
                  "name": "minimumAmount",
                  "type": "uint32"
                },
                {
                  "internalType": "uint32",
                  "name": "maximumAmount",
                  "type": "uint32"
                },
                {
                  "internalType": "bool",
                  "name": "netOfTransfers",
                  "type": "bool"
                },
                {
                  "internalType": "address",
                  "name": "feeCollector",
                  "type": "address"
                }
              ],
              "internalType": "struct IHederaTokenService.FractionalFee[]",
              "name": "fractionalFees",
              "type": "tuple[]"
            },
            {
              "components": [
                {
                  "internalType": "uint32",
                  "name": "numerator",
                  "type": "uint32"
                },
                {
                  "internalType": "uint32",
                  "name": "denominator",
                  "type": "uint32"
                },
                {
                  "internalType": "uint32",
                  "name": "amount",
                  "type": "uint32"
                },
                {
                  "internalType": "address",
                  "name": "tokenId",
                  "type": "address"
                },
                {
                  "internalType": "bool",
                  "name": "useHbarsForPayment",
                  "type": "bool"
                },
                {
                  "internalType": "address",
                  "name": "feeCollector",
                  "type": "address"
                }
              ],
              "internalType": "struct IHederaTokenService.RoyaltyFee[]",
              "name": "royaltyFees",
              "type": "tuple[]"
            },
            {
              "internalType": "string",
              "name": "ledgerId",
              "type": "string"
            }
          ],
          "indexed": false,
          "internalType": "struct IHederaTokenService.TokenInfo",
          "name": "tokenInfo",
          "type": "tuple"
        }
      ],
      "name": "TokenInfoEvent",
      "type": "event"
    },
    {
      "inputs": [
        {
          "internalType": "address",
          "name": "token",
          "type": "address"
        },
        {
          "internalType": "address",
          "name": "owner",
          "type": "address"
        },
        {
          "internalType": "address",
          "name": "spender",
          "type": "address"
        }
      ],
      "name": "safeAllowance",
      "outputs": [
        {
          "internalType": "uint256",
          "name": "allowance",
          "type": "uint256"
        }
      ],
      "stateMutability": "nonpayable",
      "type": "function"
    },
    {
      "inputs": [
        {
          "internalType": "address",
          "name": "token",
          "type": "address"
        },
        {
          "internalType": "address",
          "name": "spender",
          "type": "address"
        },
        {
          "internalType": "uint256",
          "name": "amount",
          "type": "uint256"
        }
      ],
      "name": "safeApprove",
      "outputs": [],
      "stateMutability": "nonpayable",
      "type": "function"
    },
    {
      "inputs": [
        {
          "internalType": "address",
          "name": "token",
          "type": "address"
        },
        {
          "internalType": "address",
          "name": "approved",
          "type": "address"
        },
        {
          "internalType": "int64",
          "name": "serialNumber",
          "type": "int64"
        }
      ],
      "name": "safeApproveNFT",
      "outputs": [],
      "stateMutability": "nonpayable",
      "type": "function"
    },
    {
      "inputs": [
        {
          "internalType": "address",
          "name": "sender",
          "type": "address"
        },
        {
          "internalType": "address",
          "name": "tokenAddress",
          "type": "address"
        }
      ],
      "name": "safeAssociateToken",
      "outputs": [],
      "stateMutability": "nonpayable",
      "type": "function"
    },
    {
      "inputs": [
        {
          "internalType": "address",
          "name": "account",
          "type": "address"
        },
        {
          "internalType": "address[]",
          "name": "tokens",
          "type": "address[]"
        }
      ],
      "name": "safeAssociateTokens",
      "outputs": [],
      "stateMutability": "nonpayable",
      "type": "function"
    },
    {
      "inputs": [
        {
          "internalType": "address",
          "name": "token",
          "type": "address"
        },
        {
          "internalType": "uint64",
          "name": "amount",
          "type": "uint64"
        },
        {
          "internalType": "int64[]",
          "name": "serialNumbers",
          "type": "int64[]"
        }
      ],
      "name": "safeBurnToken",
      "outputs": [
        {
          "internalType": "uint64",
          "name": "newTotalSupply",
          "type": "uint64"
        }
      ],
      "stateMutability": "nonpayable",
      "type": "function"
    },
    {
      "inputs": [],
      "name": "safeCreateFungibleToken",
      "outputs": [
        {
          "internalType": "address",
          "name": "tokenAddress",
          "type": "address"
        }
      ],
      "stateMutability": "payable",
      "type": "function"
    },
    {
      "inputs": [
        {
          "internalType": "address",
          "name": "feeCollector",
          "type": "address"
        },
        {
          "internalType": "address",
          "name": "existingTokenAddress",
          "type": "address"
        }
      ],
      "name": "safeCreateFungibleTokenWithCustomFees",
      "outputs": [
        {
          "internalType": "address",
          "name": "tokenAddress",
          "type": "address"
        }
      ],
      "stateMutability": "payable",
      "type": "function"
    },
    {
      "inputs": [],
      "name": "safeCreateNonFungibleToken",
      "outputs": [
        {
          "internalType": "address",
          "name": "tokenAddress",
          "type": "address"
        }
      ],
      "stateMutability": "payable",
      "type": "function"
    },
    {
      "inputs": [
        {
          "internalType": "address",
          "name": "feeCollector",
          "type": "address"
        },
        {
          "internalType": "address",
          "name": "existingTokenAddress",
          "type": "address"
        }
      ],
      "name": "safeCreateNonFungibleTokenWithCustomFees",
      "outputs": [
        {
          "internalType": "address",
          "name": "tokenAddress",
          "type": "address"
        }
      ],
      "stateMutability": "payable",
      "type": "function"
    },
    {
      "inputs": [
        {
          "components": [
            {
              "internalType": "address",
              "name": "token",
              "type": "address"
            },
            {
              "components": [
                {
                  "internalType": "address",
                  "name": "accountID",
                  "type": "address"
                },
                {
                  "internalType": "int64",
                  "name": "amount",
                  "type": "int64"
                },
                {
                  "internalType": "bool",
                  "name": "isApproval",
                  "type": "bool"
                }
              ],
              "internalType": "struct IHederaTokenService.AccountAmount[]",
              "name": "transfers",
              "type": "tuple[]"
            },
            {
              "components": [
                {
                  "internalType": "address",
                  "name": "senderAccountID",
                  "type": "address"
                },
                {
                  "internalType": "address",
                  "name": "receiverAccountID",
                  "type": "address"
                },
                {
                  "internalType": "int64",
                  "name": "serialNumber",
                  "type": "int64"
                },
                {
                  "internalType": "bool",
                  "name": "isApproval",
                  "type": "bool"
                }
              ],
              "internalType": "struct IHederaTokenService.NftTransfer[]",
              "name": "nftTransfers",
              "type": "tuple[]"
            }
          ],
          "internalType": "struct IHederaTokenService.TokenTransferList[]",
          "name": "tokenTransfers",
          "type": "tuple[]"
        }
      ],
      "name": "safeCryptoTransfer",
      "outputs": [],
      "stateMutability": "nonpayable",
      "type": "function"
    },
    {
      "inputs": [
        {
          "internalType": "address",
          "name": "token",
          "type": "address"
        }
      ],
      "name": "safeDeleteToken",
      "outputs": [],
      "stateMutability": "nonpayable",
      "type": "function"
    },
    {
      "inputs": [
        {
          "internalType": "address",
          "name": "sender",
          "type": "address"
        },
        {
          "internalType": "address",
          "name": "tokenAddress",
          "type": "address"
        }
      ],
      "name": "safeDissociateToken",
      "outputs": [],
      "stateMutability": "nonpayable",
      "type": "function"
    },
    {
      "inputs": [
        {
          "internalType": "address",
          "name": "account",
          "type": "address"
        },
        {
          "internalType": "address[]",
          "name": "tokens",
          "type": "address[]"
        }
      ],
      "name": "safeDissociateTokens",
      "outputs": [],
      "stateMutability": "nonpayable",
      "type": "function"
    },
    {
      "inputs": [
        {
          "internalType": "address",
          "name": "token",
          "type": "address"
        },
        {
          "internalType": "address",
          "name": "account",
          "type": "address"
        }
      ],
      "name": "safeFreezeToken",
      "outputs": [],
      "stateMutability": "nonpayable",
      "type": "function"
    },
    {
      "inputs": [
        {
          "internalType": "address",
          "name": "token",
          "type": "address"
        },
        {
          "internalType": "int64",
          "name": "serialNumber",
          "type": "int64"
        }
      ],
      "name": "safeGetApproved",
      "outputs": [
        {
          "internalType": "address",
          "name": "approved",
          "type": "address"
        }
      ],
      "stateMutability": "nonpayable",
      "type": "function"
    },
    {
      "inputs": [
        {
          "internalType": "address",
          "name": "token",
          "type": "address"
        }
      ],
      "name": "safeGetFungibleTokenInfo",
      "outputs": [
        {
          "components": [
            {
              "components": [
                {
                  "components": [
                    {
                      "internalType": "string",
                      "name": "name",
                      "type": "string"
                    },
                    {
                      "internalType": "string",
                      "name": "symbol",
                      "type": "string"
                    },
                    {
                      "internalType": "address",
                      "name": "treasury",
                      "type": "address"
                    },
                    {
                      "internalType": "string",
                      "name": "memo",
                      "type": "string"
                    },
                    {
                      "internalType": "bool",
                      "name": "tokenSupplyType",
                      "type": "bool"
                    },
                    {
                      "internalType": "int64",
                      "name": "maxSupply",
                      "type": "int64"
                    },
                    {
                      "internalType": "bool",
                      "name": "freezeDefault",
                      "type": "bool"
                    },
                    {
                      "components": [
                        {
                          "internalType": "uint256",
                          "name": "keyType",
                          "type": "uint256"
                        },
                        {
                          "components": [
                            {
                              "internalType": "bool",
                              "name": "inheritAccountKey",
                              "type": "bool"
                            },
                            {
                              "internalType": "address",
                              "name": "contractId",
                              "type": "address"
                            },
                            {
                              "internalType": "bytes",
                              "name": "ed25519",
                              "type": "bytes"
                            },
                            {
                              "internalType": "bytes",
                              "name": "ECDSA_secp256k1",
                              "type": "bytes"
                            },
                            {
                              "internalType": "address",
                              "name": "delegatableContractId",
                              "type": "address"
                            }
                          ],
                          "internalType": "struct IHederaTokenService.KeyValue",
                          "name": "key",
                          "type": "tuple"
                        }
                      ],
                      "internalType": "struct IHederaTokenService.TokenKey[]",
                      "name": "tokenKeys",
                      "type": "tuple[]"
                    },
                    {
                      "components": [
                        {
                          "internalType": "uint32",
                          "name": "second",
                          "type": "uint32"
                        },
                        {
                          "internalType": "address",
                          "name": "autoRenewAccount",
                          "type": "address"
                        },
                        {
                          "internalType": "uint32",
                          "name": "autoRenewPeriod",
                          "type": "uint32"
                        }
                      ],
                      "internalType": "struct IHederaTokenService.Expiry",
                      "name": "expiry",
                      "type": "tuple"
                    }
                  ],
                  "internalType": "struct IHederaTokenService.HederaToken",
                  "name": "token",
                  "type": "tuple"
                },
                {
                  "internalType": "uint64",
                  "name": "totalSupply",
                  "type": "uint64"
                },
                {
                  "internalType": "bool",
                  "name": "deleted",
                  "type": "bool"
                },
                {
                  "internalType": "bool",
                  "name": "defaultKycStatus",
                  "type": "bool"
                },
                {
                  "internalType": "bool",
                  "name": "pauseStatus",
                  "type": "bool"
                },
                {
                  "components": [
                    {
                      "internalType": "uint32",
                      "name": "amount",
                      "type": "uint32"
                    },
                    {
                      "internalType": "address",
                      "name": "tokenId",
                      "type": "address"
                    },
                    {
                      "internalType": "bool",
                      "name": "useHbarsForPayment",
                      "type": "bool"
                    },
                    {
                      "internalType": "bool",
                      "name": "useCurrentTokenForPayment",
                      "type": "bool"
                    },
                    {
                      "internalType": "address",
                      "name": "feeCollector",
                      "type": "address"
                    }
                  ],
                  "internalType": "struct IHederaTokenService.FixedFee[]",
                  "name": "fixedFees",
                  "type": "tuple[]"
                },
                {
                  "components": [
                    {
                      "internalType": "uint32",
                      "name": "numerator",
                      "type": "uint32"
                    },
                    {
                      "internalType": "uint32",
                      "name": "denominator",
                      "type": "uint32"
                    },
                    {
                      "internalType": "uint32",
                      "name": "minimumAmount",
                      "type": "uint32"
                    },
                    {
                      "internalType": "uint32",
                      "name": "maximumAmount",
                      "type": "uint32"
                    },
                    {
                      "internalType": "bool",
                      "name": "netOfTransfers",
                      "type": "bool"
                    },
                    {
                      "internalType": "address",
                      "name": "feeCollector",
                      "type": "address"
                    }
                  ],
                  "internalType": "struct IHederaTokenService.FractionalFee[]",
                  "name": "fractionalFees",
                  "type": "tuple[]"
                },
                {
                  "components": [
                    {
                      "internalType": "uint32",
                      "name": "numerator",
                      "type": "uint32"
                    },
                    {
                      "internalType": "uint32",
                      "name": "denominator",
                      "type": "uint32"
                    },
                    {
                      "internalType": "uint32",
                      "name": "amount",
                      "type": "uint32"
                    },
                    {
                      "internalType": "address",
                      "name": "tokenId",
                      "type": "address"
                    },
                    {
                      "internalType": "bool",
                      "name": "useHbarsForPayment",
                      "type": "bool"
                    },
                    {
                      "internalType": "address",
                      "name": "feeCollector",
                      "type": "address"
                    }
                  ],
                  "internalType": "struct IHederaTokenService.RoyaltyFee[]",
                  "name": "royaltyFees",
                  "type": "tuple[]"
                },
                {
                  "internalType": "string",
                  "name": "ledgerId",
                  "type": "string"
                }
              ],
              "internalType": "struct IHederaTokenService.TokenInfo",
              "name": "tokenInfo",
              "type": "tuple"
            },
            {
              "internalType": "uint32",
              "name": "decimals",
              "type": "uint32"
            }
          ],
          "internalType": "struct IHederaTokenService.FungibleTokenInfo",
          "name": "fungibleTokenInfo",
          "type": "tuple"
        }
      ],
      "stateMutability": "nonpayable",
      "type": "function"
    },
    {
      "inputs": [
        {
          "internalType": "address",
          "name": "token",
          "type": "address"
        },
        {
          "internalType": "int64",
          "name": "serialNumber",
          "type": "int64"
        }
      ],
      "name": "safeGetNonFungibleTokenInfo",
      "outputs": [
        {
          "components": [
            {
              "components": [
                {
                  "components": [
                    {
                      "internalType": "string",
                      "name": "name",
                      "type": "string"
                    },
                    {
                      "internalType": "string",
                      "name": "symbol",
                      "type": "string"
                    },
                    {
                      "internalType": "address",
                      "name": "treasury",
                      "type": "address"
                    },
                    {
                      "internalType": "string",
                      "name": "memo",
                      "type": "string"
                    },
                    {
                      "internalType": "bool",
                      "name": "tokenSupplyType",
                      "type": "bool"
                    },
                    {
                      "internalType": "int64",
                      "name": "maxSupply",
                      "type": "int64"
                    },
                    {
                      "internalType": "bool",
                      "name": "freezeDefault",
                      "type": "bool"
                    },
                    {
                      "components": [
                        {
                          "internalType": "uint256",
                          "name": "keyType",
                          "type": "uint256"
                        },
                        {
                          "components": [
                            {
                              "internalType": "bool",
                              "name": "inheritAccountKey",
                              "type": "bool"
                            },
                            {
                              "internalType": "address",
                              "name": "contractId",
                              "type": "address"
                            },
                            {
                              "internalType": "bytes",
                              "name": "ed25519",
                              "type": "bytes"
                            },
                            {
                              "internalType": "bytes",
                              "name": "ECDSA_secp256k1",
                              "type": "bytes"
                            },
                            {
                              "internalType": "address",
                              "name": "delegatableContractId",
                              "type": "address"
                            }
                          ],
                          "internalType": "struct IHederaTokenService.KeyValue",
                          "name": "key",
                          "type": "tuple"
                        }
                      ],
                      "internalType": "struct IHederaTokenService.TokenKey[]",
                      "name": "tokenKeys",
                      "type": "tuple[]"
                    },
                    {
                      "components": [
                        {
                          "internalType": "uint32",
                          "name": "second",
                          "type": "uint32"
                        },
                        {
                          "internalType": "address",
                          "name": "autoRenewAccount",
                          "type": "address"
                        },
                        {
                          "internalType": "uint32",
                          "name": "autoRenewPeriod",
                          "type": "uint32"
                        }
                      ],
                      "internalType": "struct IHederaTokenService.Expiry",
                      "name": "expiry",
                      "type": "tuple"
                    }
                  ],
                  "internalType": "struct IHederaTokenService.HederaToken",
                  "name": "token",
                  "type": "tuple"
                },
                {
                  "internalType": "uint64",
                  "name": "totalSupply",
                  "type": "uint64"
                },
                {
                  "internalType": "bool",
                  "name": "deleted",
                  "type": "bool"
                },
                {
                  "internalType": "bool",
                  "name": "defaultKycStatus",
                  "type": "bool"
                },
                {
                  "internalType": "bool",
                  "name": "pauseStatus",
                  "type": "bool"
                },
                {
                  "components": [
                    {
                      "internalType": "uint32",
                      "name": "amount",
                      "type": "uint32"
                    },
                    {
                      "internalType": "address",
                      "name": "tokenId",
                      "type": "address"
                    },
                    {
                      "internalType": "bool",
                      "name": "useHbarsForPayment",
                      "type": "bool"
                    },
                    {
                      "internalType": "bool",
                      "name": "useCurrentTokenForPayment",
                      "type": "bool"
                    },
                    {
                      "internalType": "address",
                      "name": "feeCollector",
                      "type": "address"
                    }
                  ],
                  "internalType": "struct IHederaTokenService.FixedFee[]",
                  "name": "fixedFees",
                  "type": "tuple[]"
                },
                {
                  "components": [
                    {
                      "internalType": "uint32",
                      "name": "numerator",
                      "type": "uint32"
                    },
                    {
                      "internalType": "uint32",
                      "name": "denominator",
                      "type": "uint32"
                    },
                    {
                      "internalType": "uint32",
                      "name": "minimumAmount",
                      "type": "uint32"
                    },
                    {
                      "internalType": "uint32",
                      "name": "maximumAmount",
                      "type": "uint32"
                    },
                    {
                      "internalType": "bool",
                      "name": "netOfTransfers",
                      "type": "bool"
                    },
                    {
                      "internalType": "address",
                      "name": "feeCollector",
                      "type": "address"
                    }
                  ],
                  "internalType": "struct IHederaTokenService.FractionalFee[]",
                  "name": "fractionalFees",
                  "type": "tuple[]"
                },
                {
                  "components": [
                    {
                      "internalType": "uint32",
                      "name": "numerator",
                      "type": "uint32"
                    },
                    {
                      "internalType": "uint32",
                      "name": "denominator",
                      "type": "uint32"
                    },
                    {
                      "internalType": "uint32",
                      "name": "amount",
                      "type": "uint32"
                    },
                    {
                      "internalType": "address",
                      "name": "tokenId",
                      "type": "address"
                    },
                    {
                      "internalType": "bool",
                      "name": "useHbarsForPayment",
                      "type": "bool"
                    },
                    {
                      "internalType": "address",
                      "name": "feeCollector",
                      "type": "address"
                    }
                  ],
                  "internalType": "struct IHederaTokenService.RoyaltyFee[]",
                  "name": "royaltyFees",
                  "type": "tuple[]"
                },
                {
                  "internalType": "string",
                  "name": "ledgerId",
                  "type": "string"
                }
              ],
              "internalType": "struct IHederaTokenService.TokenInfo",
              "name": "tokenInfo",
              "type": "tuple"
            },
            {
              "internalType": "int64",
              "name": "serialNumber",
              "type": "int64"
            },
            {
              "internalType": "address",
              "name": "ownerId",
              "type": "address"
            },
            {
              "internalType": "int64",
              "name": "creationTime",
              "type": "int64"
            },
            {
              "internalType": "bytes",
              "name": "metadata",
              "type": "bytes"
            },
            {
              "internalType": "address",
              "name": "spenderId",
              "type": "address"
            }
          ],
          "internalType": "struct IHederaTokenService.NonFungibleTokenInfo",
          "name": "nonFungibleTokenInfo",
          "type": "tuple"
        }
      ],
      "stateMutability": "nonpayable",
      "type": "function"
    },
    {
      "inputs": [
        {
          "internalType": "address",
          "name": "token",
          "type": "address"
        }
      ],
      "name": "safeGetTokenCustomFees",
      "outputs": [
        {
          "components": [
            {
              "internalType": "uint32",
              "name": "amount",
              "type": "uint32"
            },
            {
              "internalType": "address",
              "name": "tokenId",
              "type": "address"
            },
            {
              "internalType": "bool",
              "name": "useHbarsForPayment",
              "type": "bool"
            },
            {
              "internalType": "bool",
              "name": "useCurrentTokenForPayment",
              "type": "bool"
            },
            {
              "internalType": "address",
              "name": "feeCollector",
              "type": "address"
            }
          ],
          "internalType": "struct IHederaTokenService.FixedFee[]",
          "name": "fixedFees",
          "type": "tuple[]"
        },
        {
          "components": [
            {
              "internalType": "uint32",
              "name": "numerator",
              "type": "uint32"
            },
            {
              "internalType": "uint32",
              "name": "denominator",
              "type": "uint32"
            },
            {
              "internalType": "uint32",
              "name": "minimumAmount",
              "type": "uint32"
            },
            {
              "internalType": "uint32",
              "name": "maximumAmount",
              "type": "uint32"
            },
            {
              "internalType": "bool",
              "name": "netOfTransfers",
              "type": "bool"
            },
            {
              "internalType": "address",
              "name": "feeCollector",
              "type": "address"
            }
          ],
          "internalType": "struct IHederaTokenService.FractionalFee[]",
          "name": "fractionalFees",
          "type": "tuple[]"
        },
        {
          "components": [
            {
              "internalType": "uint32",
              "name": "numerator",
              "type": "uint32"
            },
            {
              "internalType": "uint32",
              "name": "denominator",
              "type": "uint32"
            },
            {
              "internalType": "uint32",
              "name": "amount",
              "type": "uint32"
            },
            {
              "internalType": "address",
              "name": "tokenId",
              "type": "address"
            },
            {
              "internalType": "bool",
              "name": "useHbarsForPayment",
              "type": "bool"
            },
            {
              "internalType": "address",
              "name": "feeCollector",
              "type": "address"
            }
          ],
          "internalType": "struct IHederaTokenService.RoyaltyFee[]",
          "name": "royaltyFees",
          "type": "tuple[]"
        }
      ],
      "stateMutability": "nonpayable",
      "type": "function"
    },
    {
      "inputs": [
        {
          "internalType": "address",
          "name": "token",
          "type": "address"
        }
      ],
      "name": "safeGetTokenDefaultFreezeStatus",
      "outputs": [
        {
          "internalType": "bool",
          "name": "defaultFreezeStatus",
          "type": "bool"
        }
      ],
      "stateMutability": "nonpayable",
      "type": "function"
    },
    {
      "inputs": [
        {
          "internalType": "address",
          "name": "token",
          "type": "address"
        }
      ],
      "name": "safeGetTokenDefaultKycStatus",
      "outputs": [
        {
          "internalType": "bool",
          "name": "defaultKycStatus",
          "type": "bool"
        }
      ],
      "stateMutability": "nonpayable",
      "type": "function"
    },
    {
      "inputs": [
        {
          "internalType": "address",
          "name": "token",
          "type": "address"
        }
      ],
      "name": "safeGetTokenExpiryInfo",
      "outputs": [
        {
          "components": [
            {
              "internalType": "uint32",
              "name": "second",
              "type": "uint32"
            },
            {
              "internalType": "address",
              "name": "autoRenewAccount",
              "type": "address"
            },
            {
              "internalType": "uint32",
              "name": "autoRenewPeriod",
              "type": "uint32"
            }
          ],
          "internalType": "struct IHederaTokenService.Expiry",
          "name": "expiry",
          "type": "tuple"
        }
      ],
      "stateMutability": "nonpayable",
      "type": "function"
    },
    {
      "inputs": [
        {
          "internalType": "address",
          "name": "token",
          "type": "address"
        }
      ],
      "name": "safeGetTokenInfo",
      "outputs": [
        {
          "components": [
            {
              "components": [
                {
                  "internalType": "string",
                  "name": "name",
                  "type": "string"
                },
                {
                  "internalType": "string",
                  "name": "symbol",
                  "type": "string"
                },
                {
                  "internalType": "address",
                  "name": "treasury",
                  "type": "address"
                },
                {
                  "internalType": "string",
                  "name": "memo",
                  "type": "string"
                },
                {
                  "internalType": "bool",
                  "name": "tokenSupplyType",
                  "type": "bool"
                },
                {
                  "internalType": "int64",
                  "name": "maxSupply",
                  "type": "int64"
                },
                {
                  "internalType": "bool",
                  "name": "freezeDefault",
                  "type": "bool"
                },
                {
                  "components": [
                    {
                      "internalType": "uint256",
                      "name": "keyType",
                      "type": "uint256"
                    },
                    {
                      "components": [
                        {
                          "internalType": "bool",
                          "name": "inheritAccountKey",
                          "type": "bool"
                        },
                        {
                          "internalType": "address",
                          "name": "contractId",
                          "type": "address"
                        },
                        {
                          "internalType": "bytes",
                          "name": "ed25519",
                          "type": "bytes"
                        },
                        {
                          "internalType": "bytes",
                          "name": "ECDSA_secp256k1",
                          "type": "bytes"
                        },
                        {
                          "internalType": "address",
                          "name": "delegatableContractId",
                          "type": "address"
                        }
                      ],
                      "internalType": "struct IHederaTokenService.KeyValue",
                      "name": "key",
                      "type": "tuple"
                    }
                  ],
                  "internalType": "struct IHederaTokenService.TokenKey[]",
                  "name": "tokenKeys",
                  "type": "tuple[]"
                },
                {
                  "components": [
                    {
                      "internalType": "uint32",
                      "name": "second",
                      "type": "uint32"
                    },
                    {
                      "internalType": "address",
                      "name": "autoRenewAccount",
                      "type": "address"
                    },
                    {
                      "internalType": "uint32",
                      "name": "autoRenewPeriod",
                      "type": "uint32"
                    }
                  ],
                  "internalType": "struct IHederaTokenService.Expiry",
                  "name": "expiry",
                  "type": "tuple"
                }
              ],
              "internalType": "struct IHederaTokenService.HederaToken",
              "name": "token",
              "type": "tuple"
            },
            {
              "internalType": "uint64",
              "name": "totalSupply",
              "type": "uint64"
            },
            {
              "internalType": "bool",
              "name": "deleted",
              "type": "bool"
            },
            {
              "internalType": "bool",
              "name": "defaultKycStatus",
              "type": "bool"
            },
            {
              "internalType": "bool",
              "name": "pauseStatus",
              "type": "bool"
            },
            {
              "components": [
                {
                  "internalType": "uint32",
                  "name": "amount",
                  "type": "uint32"
                },
                {
                  "internalType": "address",
                  "name": "tokenId",
                  "type": "address"
                },
                {
                  "internalType": "bool",
                  "name": "useHbarsForPayment",
                  "type": "bool"
                },
                {
                  "internalType": "bool",
                  "name": "useCurrentTokenForPayment",
                  "type": "bool"
                },
                {
                  "internalType": "address",
                  "name": "feeCollector",
                  "type": "address"
                }
              ],
              "internalType": "struct IHederaTokenService.FixedFee[]",
              "name": "fixedFees",
              "type": "tuple[]"
            },
            {
              "components": [
                {
                  "internalType": "uint32",
                  "name": "numerator",
                  "type": "uint32"
                },
                {
                  "internalType": "uint32",
                  "name": "denominator",
                  "type": "uint32"
                },
                {
                  "internalType": "uint32",
                  "name": "minimumAmount",
                  "type": "uint32"
                },
                {
                  "internalType": "uint32",
                  "name": "maximumAmount",
                  "type": "uint32"
                },
                {
                  "internalType": "bool",
                  "name": "netOfTransfers",
                  "type": "bool"
                },
                {
                  "internalType": "address",
                  "name": "feeCollector",
                  "type": "address"
                }
              ],
              "internalType": "struct IHederaTokenService.FractionalFee[]",
              "name": "fractionalFees",
              "type": "tuple[]"
            },
            {
              "components": [
                {
                  "internalType": "uint32",
                  "name": "numerator",
                  "type": "uint32"
                },
                {
                  "internalType": "uint32",
                  "name": "denominator",
                  "type": "uint32"
                },
                {
                  "internalType": "uint32",
                  "name": "amount",
                  "type": "uint32"
                },
                {
                  "internalType": "address",
                  "name": "tokenId",
                  "type": "address"
                },
                {
                  "internalType": "bool",
                  "name": "useHbarsForPayment",
                  "type": "bool"
                },
                {
                  "internalType": "address",
                  "name": "feeCollector",
                  "type": "address"
                }
              ],
              "internalType": "struct IHederaTokenService.RoyaltyFee[]",
              "name": "royaltyFees",
              "type": "tuple[]"
            },
            {
              "internalType": "string",
              "name": "ledgerId",
              "type": "string"
            }
          ],
          "internalType": "struct IHederaTokenService.TokenInfo",
          "name": "tokenInfo",
          "type": "tuple"
        }
      ],
      "stateMutability": "nonpayable",
      "type": "function"
    },
    {
      "inputs": [
        {
          "internalType": "address",
          "name": "token",
          "type": "address"
        },
        {
          "internalType": "uint256",
          "name": "keyType",
          "type": "uint256"
        }
      ],
      "name": "safeGetTokenKey",
      "outputs": [
        {
          "components": [
            {
              "internalType": "bool",
              "name": "inheritAccountKey",
              "type": "bool"
            },
            {
              "internalType": "address",
              "name": "contractId",
              "type": "address"
            },
            {
              "internalType": "bytes",
              "name": "ed25519",
              "type": "bytes"
            },
            {
              "internalType": "bytes",
              "name": "ECDSA_secp256k1",
              "type": "bytes"
            },
            {
              "internalType": "address",
              "name": "delegatableContractId",
              "type": "address"
            }
          ],
          "internalType": "struct IHederaTokenService.KeyValue",
          "name": "key",
          "type": "tuple"
        }
      ],
      "stateMutability": "nonpayable",
      "type": "function"
    },
    {
      "inputs": [
        {
          "internalType": "address",
          "name": "token",
          "type": "address"
        }
      ],
      "name": "safeGetTokenType",
      "outputs": [
        {
          "internalType": "int32",
          "name": "tokenType",
          "type": "int32"
        }
      ],
      "stateMutability": "nonpayable",
      "type": "function"
    },
    {
      "inputs": [
        {
          "internalType": "address",
          "name": "token",
          "type": "address"
        },
        {
          "internalType": "address",
          "name": "account",
          "type": "address"
        }
      ],
      "name": "safeGrantTokenKyc",
      "outputs": [],
      "stateMutability": "nonpayable",
      "type": "function"
    },
    {
      "inputs": [
        {
          "internalType": "address",
          "name": "token",
          "type": "address"
        },
        {
          "internalType": "address",
          "name": "owner",
          "type": "address"
        },
        {
          "internalType": "address",
          "name": "operator",
          "type": "address"
        }
      ],
      "name": "safeIsApprovedForAll",
      "outputs": [
        {
          "internalType": "bool",
          "name": "approved",
          "type": "bool"
        }
      ],
      "stateMutability": "nonpayable",
      "type": "function"
    },
    {
      "inputs": [
        {
          "internalType": "address",
          "name": "token",
          "type": "address"
        },
        {
          "internalType": "address",
          "name": "account",
          "type": "address"
        }
      ],
      "name": "safeIsFrozen",
      "outputs": [
        {
          "internalType": "bool",
          "name": "frozen",
          "type": "bool"
        }
      ],
      "stateMutability": "nonpayable",
      "type": "function"
    },
    {
      "inputs": [
        {
          "internalType": "address",
          "name": "token",
          "type": "address"
        },
        {
          "internalType": "address",
          "name": "account",
          "type": "address"
        }
      ],
      "name": "safeIsKyc",
      "outputs": [
        {
          "internalType": "bool",
          "name": "kycGranted",
          "type": "bool"
        }
      ],
      "stateMutability": "nonpayable",
      "type": "function"
    },
    {
      "inputs": [
        {
          "internalType": "address",
          "name": "token",
          "type": "address"
        }
      ],
      "name": "safeIsToken",
      "outputs": [
        {
          "internalType": "bool",
          "name": "isToken",
          "type": "bool"
        }
      ],
      "stateMutability": "nonpayable",
      "type": "function"
    },
    {
      "inputs": [
        {
          "internalType": "address",
          "name": "token",
          "type": "address"
        },
        {
          "internalType": "uint64",
          "name": "amount",
          "type": "uint64"
        },
        {
          "internalType": "bytes[]",
          "name": "metadata",
          "type": "bytes[]"
        }
      ],
      "name": "safeMintToken",
      "outputs": [
        {
          "internalType": "uint64",
          "name": "newTotalSupply",
          "type": "uint64"
        },
        {
          "internalType": "int64[]",
          "name": "serialNumbers",
          "type": "int64[]"
        }
      ],
      "stateMutability": "nonpayable",
      "type": "function"
    },
    {
      "inputs": [
        {
          "internalType": "address",
          "name": "token",
          "type": "address"
        }
      ],
      "name": "safePauseToken",
      "outputs": [],
      "stateMutability": "nonpayable",
      "type": "function"
    },
    {
      "inputs": [
        {
          "internalType": "address",
          "name": "token",
          "type": "address"
        },
        {
          "internalType": "address",
          "name": "account",
          "type": "address"
        }
      ],
      "name": "safeRevokeTokenKyc",
      "outputs": [],
      "stateMutability": "nonpayable",
      "type": "function"
    },
    {
      "inputs": [
        {
          "internalType": "address",
          "name": "token",
          "type": "address"
        },
        {
          "internalType": "address",
          "name": "operator",
          "type": "address"
        },
        {
          "internalType": "bool",
          "name": "approved",
          "type": "bool"
        }
      ],
      "name": "safeSetApprovalForAll",
      "outputs": [],
      "stateMutability": "nonpayable",
      "type": "function"
    },
    {
      "inputs": [
        {
          "internalType": "address",
          "name": "token",
          "type": "address"
        },
        {
          "internalType": "address",
          "name": "sender",
          "type": "address"
        },
        {
          "internalType": "address",
          "name": "receiver",
          "type": "address"
        },
        {
          "internalType": "int64",
          "name": "serialNum",
          "type": "int64"
        }
      ],
      "name": "safeTransferNFT",
      "outputs": [],
      "stateMutability": "nonpayable",
      "type": "function"
    },
    {
      "inputs": [
        {
          "internalType": "address",
          "name": "token",
          "type": "address"
        },
        {
          "internalType": "address[]",
          "name": "sender",
          "type": "address[]"
        },
        {
          "internalType": "address[]",
          "name": "receiver",
          "type": "address[]"
        },
        {
          "internalType": "int64[]",
          "name": "serialNumber",
          "type": "int64[]"
        }
      ],
      "name": "safeTransferNFTs",
      "outputs": [],
      "stateMutability": "nonpayable",
      "type": "function"
    },
    {
      "inputs": [
        {
          "internalType": "address",
          "name": "token",
          "type": "address"
        },
        {
          "internalType": "address",
          "name": "sender",
          "type": "address"
        },
        {
          "internalType": "address",
          "name": "receiver",
          "type": "address"
        },
        {
          "internalType": "int64",
          "name": "amount",
          "type": "int64"
        }
      ],
      "name": "safeTransferToken",
      "outputs": [],
      "stateMutability": "nonpayable",
      "type": "function"
    },
    {
      "inputs": [
        {
          "internalType": "address",
          "name": "token",
          "type": "address"
        },
        {
          "internalType": "address[]",
          "name": "accountIds",
          "type": "address[]"
        },
        {
          "internalType": "int64[]",
          "name": "amounts",
          "type": "int64[]"
        }
      ],
      "name": "safeTransferTokens",
      "outputs": [],
      "stateMutability": "nonpayable",
      "type": "function"
    },
    {
      "inputs": [
        {
          "internalType": "address",
          "name": "token",
          "type": "address"
        },
        {
          "internalType": "address",
          "name": "account",
          "type": "address"
        }
      ],
      "name": "safeUnfreezeToken",
      "outputs": [],
      "stateMutability": "nonpayable",
      "type": "function"
    },
    {
      "inputs": [
        {
          "internalType": "address",
          "name": "token",
          "type": "address"
        }
      ],
      "name": "safeUnpauseToken",
      "outputs": [],
      "stateMutability": "nonpayable",
      "type": "function"
    },
    {
      "inputs": [
        {
          "internalType": "address",
          "name": "token",
          "type": "address"
        },
        {
          "components": [
            {
              "internalType": "uint32",
              "name": "second",
              "type": "uint32"
            },
            {
              "internalType": "address",
              "name": "autoRenewAccount",
              "type": "address"
            },
            {
              "internalType": "uint32",
              "name": "autoRenewPeriod",
              "type": "uint32"
            }
          ],
          "internalType": "struct IHederaTokenService.Expiry",
          "name": "expiryInfo",
          "type": "tuple"
        }
      ],
      "name": "safeUpdateTokenExpiryInfo",
      "outputs": [],
      "stateMutability": "nonpayable",
      "type": "function"
    },
    {
      "inputs": [
        {
          "internalType": "address",
          "name": "token",
          "type": "address"
        },
        {
          "components": [
            {
              "internalType": "string",
              "name": "name",
              "type": "string"
            },
            {
              "internalType": "string",
              "name": "symbol",
              "type": "string"
            },
            {
              "internalType": "address",
              "name": "treasury",
              "type": "address"
            },
            {
              "internalType": "string",
              "name": "memo",
              "type": "string"
            },
            {
              "internalType": "bool",
              "name": "tokenSupplyType",
              "type": "bool"
            },
            {
              "internalType": "int64",
              "name": "maxSupply",
              "type": "int64"
            },
            {
              "internalType": "bool",
              "name": "freezeDefault",
              "type": "bool"
            },
            {
              "components": [
                {
                  "internalType": "uint256",
                  "name": "keyType",
                  "type": "uint256"
                },
                {
                  "components": [
                    {
                      "internalType": "bool",
                      "name": "inheritAccountKey",
                      "type": "bool"
                    },
                    {
                      "internalType": "address",
                      "name": "contractId",
                      "type": "address"
                    },
                    {
                      "internalType": "bytes",
                      "name": "ed25519",
                      "type": "bytes"
                    },
                    {
                      "internalType": "bytes",
                      "name": "ECDSA_secp256k1",
                      "type": "bytes"
                    },
                    {
                      "internalType": "address",
                      "name": "delegatableContractId",
                      "type": "address"
                    }
                  ],
                  "internalType": "struct IHederaTokenService.KeyValue",
                  "name": "key",
                  "type": "tuple"
                }
              ],
              "internalType": "struct IHederaTokenService.TokenKey[]",
              "name": "tokenKeys",
              "type": "tuple[]"
            },
            {
              "components": [
                {
                  "internalType": "uint32",
                  "name": "second",
                  "type": "uint32"
                },
                {
                  "internalType": "address",
                  "name": "autoRenewAccount",
                  "type": "address"
                },
                {
                  "internalType": "uint32",
                  "name": "autoRenewPeriod",
                  "type": "uint32"
                }
              ],
              "internalType": "struct IHederaTokenService.Expiry",
              "name": "expiry",
              "type": "tuple"
            }
          ],
          "internalType": "struct IHederaTokenService.HederaToken",
          "name": "tokenInfo",
          "type": "tuple"
        }
      ],
      "name": "safeUpdateTokenInfo",
      "outputs": [],
      "stateMutability": "nonpayable",
      "type": "function"
    },
    {
      "inputs": [
        {
          "internalType": "address",
          "name": "token",
          "type": "address"
        },
        {
          "components": [
            {
              "internalType": "uint256",
              "name": "keyType",
              "type": "uint256"
            },
            {
              "components": [
                {
                  "internalType": "bool",
                  "name": "inheritAccountKey",
                  "type": "bool"
                },
                {
                  "internalType": "address",
                  "name": "contractId",
                  "type": "address"
                },
                {
                  "internalType": "bytes",
                  "name": "ed25519",
                  "type": "bytes"
                },
                {
                  "internalType": "bytes",
                  "name": "ECDSA_secp256k1",
                  "type": "bytes"
                },
                {
                  "internalType": "address",
                  "name": "delegatableContractId",
                  "type": "address"
                }
              ],
              "internalType": "struct IHederaTokenService.KeyValue",
              "name": "key",
              "type": "tuple"
            }
          ],
          "internalType": "struct IHederaTokenService.TokenKey[]",
          "name": "keys",
          "type": "tuple[]"
        }
      ],
      "name": "safeUpdateTokenKeys",
      "outputs": [],
      "stateMutability": "nonpayable",
      "type": "function"
    },
    {
      "inputs": [
        {
          "internalType": "address",
          "name": "token",
          "type": "address"
        },
        {
          "internalType": "address",
          "name": "account",
          "type": "address"
        },
        {
          "internalType": "uint32",
          "name": "amount",
          "type": "uint32"
        }
      ],
      "name": "safeWipeTokenAccount",
      "outputs": [],
      "stateMutability": "nonpayable",
      "type": "function"
    },
    {
      "inputs": [
        {
          "internalType": "address",
          "name": "token",
          "type": "address"
        },
        {
          "internalType": "address",
          "name": "account",
          "type": "address"
        },
        {
          "internalType": "int64[]",
          "name": "serialNumbers",
          "type": "int64[]"
        }
      ],
      "name": "safeWipeTokenAccountNFT",
      "outputs": [],
      "stateMutability": "nonpayable",
      "type": "function"
    }
  ],
  "bytecode": "0x608060405234801561001057600080fd5b50614aab806100206000396000f3fe6080604052600436106102c25760003560e01c80636e4333fd1161017f5780639c7e98d0116100e1578063da49aa401161008a578063eb5625d911610064578063eb5625d914610887578063eccc07c6146108a7578063ed02ae71146108c757600080fd5b8063da49aa4014610827578063dfb3bfc41461085f578063e1e787841461087f57600080fd5b8063be83aa99116100bb578063be83aa99146107c7578063c82c93dc146107e7578063cf58c3ea1461080757600080fd5b80639c7e98d0146107665780639d632dc614610786578063ba2ad9731461079957600080fd5b806382ddffbf116101435780638d1433dd1161011d5780638d1433dd1461070657806394f74f3e14610726578063978df2a21461074657600080fd5b806382ddffbf146106a657806387e6877c146106c6578063894c6653146106e657600080fd5b80636e4333fd146106115780636efe63a51461063e578063705314a01461065e57806371e3ecb31461067e5780637c6c6a841461068657600080fd5b806344f8e471116102285780635140d67d116101ec57806356dc648b116101c657806356dc648b146105a6578063587da69a146105c657806368b03db8146105e657600080fd5b80635140d67d1461052657806354a0b16c1461054657806355caeb091461057357600080fd5b806344f8e4711461047957806348b14613146104a65780634959707b146104c657806349c8532b146104e65780634ddd613b1461050657600080fd5b80632ad145af1161028a578063321060ab11610264578063321060ab146103ec5780633364596e1461041a5780633e54fba81461044957600080fd5b80632ad145af1461038c5780632dbfc4a6146103ac57806330d2a9f2146103cc57600080fd5b8063042a34b8146102c757806305923cee146102fd578063067fa1221461031f57806319cdce7e1461034c5780631ffbb8d71461036c575b600080fd5b3480156102d357600080fd5b506102e76102e236600461240a565b6108e7565b6040516102f491906128cd565b60405180910390f35b34801561030957600080fd5b5061031d61031836600461291f565b6109bb565b005b34801561032b57600080fd5b5061033f61033a36600461240a565b610a3e565b6040516102f4919061296a565b34801561035857600080fd5b5061031d61036736600461240a565b610b06565b34801561037857600080fd5b5061031d61038736600461297d565b610b75565b34801561039857600080fd5b5061031d6103a736600461297d565b610bed565b3480156103b857600080fd5b5061031d6103c73660046129c8565b610c35565b3480156103d857600080fd5b5061031d6103e7366004612c24565b610c89565b3480156103f857600080fd5b5061040c610407366004612e7f565b610cc0565b6040516102f4929190612f56565b34801561042657600080fd5b5061043a61043536600461240a565b610d5f565b6040516102f493929190612fa3565b34801561045557600080fd5b50610469610464366004612fdc565b610e02565b60405190151581526020016102f4565b34801561048557600080fd5b5061049961049436600461301c565b610ea8565b6040516102f49190613048565b3480156104b257600080fd5b5061031d6104c136600461305b565b610f8b565b3480156104d257600080fd5b506104696104e136600461297d565b610fdb565b3480156104f257600080fd5b5061031d61050136600461309b565b611072565b34801561051257600080fd5b5061046961052136600461240a565b6110fe565b34801561053257600080fd5b5061046961054136600461297d565b611193565b34801561055257600080fd5b506105666105613660046130f7565b6111de565b6040516102f49190613125565b34801561057f57600080fd5b5061059361058e36600461240a565b61127f565b60405160039190910b81526020016102f4565b3480156105b257600080fd5b5061031d6105c13660046131fe565b61130d565b3480156105d257600080fd5b5061031d6105e136600461309b565b611346565b6105f96105f436600461297d565b6113a0565b6040516001600160a01b0390911681526020016102f4565b34801561061d57600080fd5b5061063161062c36600461240a565b6114ba565b6040516102f49190613234565b34801561064a57600080fd5b5061031d6106593660046132cc565b61155e565b34801561066a57600080fd5b5061031d610679366004613391565b611599565b6105f96115d2565b34801561069257600080fd5b5061031d6106a13660046133e0565b6116f7565b3480156106b257600080fd5b5061031d6106c136600461297d565b611734565b3480156106d257600080fd5b5061031d6106e1366004613391565b61177c565b3480156106f257600080fd5b5061031d61070136600461240a565b6117b5565b34801561071257600080fd5b5061046961072136600461240a565b6117f5565b34801561073257600080fd5b5061031d61074136600461297d565b611838565b34801561075257600080fd5b506105f96107613660046130f7565b611880565b34801561077257600080fd5b5061031d61078136600461297d565b611918565b6105f961079436600461297d565b611960565b3480156107a557600080fd5b506107b96107b4366004612fdc565b611add565b6040519081526020016102f4565b3480156107d357600080fd5b5061031d6107e236600461347a565b611b7b565b3480156107f357600080fd5b5061031d61080236600461363a565b611bb6565b34801561081357600080fd5b5061031d61082236600461240a565b611bef565b34801561083357600080fd5b50610847610842366004613781565b611c2f565b6040516001600160401b0390911681526020016102f4565b34801561086b57600080fd5b5061046961087a36600461240a565b611cbd565b6105f9611d00565b34801561089357600080fd5b5061031d6108a23660046137b1565b611e01565b3480156108b357600080fd5b5061031d6108c236600461297d565b611e50565b3480156108d357600080fd5b5061031d6108e23660046137f2565b611e98565b6108ef6122c3565b6040516285469760e31b81526001600160a01b038316600482015273__$64a275930a611d2694d2a05feb4a8b2aa0$__9063042a34b89060240160006040518083038186803b15801561094157600080fd5b505af4158015610955573d6000803e3d6000fd5b505050506040513d6000823e601f3d908101601f1916820160405261097d9190810190613f0c565b90507fcb828de8f42dd14be45006ec54538b595d985bc1eda5915fcaa310b1b268380b816040516109ae91906128cd565b60405180910390a1919050565b6040516302c91e7760e11b81526001600160a01b03808516600483015283166024820152600782900b604482015273__$64a275930a611d2694d2a05feb4a8b2aa0$__906305923cee906064015b60006040518083038186803b158015610a2157600080fd5b505af4158015610a35573d6000803e3d6000fd5b50505050505050565b610a466122e3565b60405163033fd09160e11b81526001600160a01b038316600482015273__$64a275930a611d2694d2a05feb4a8b2aa0$__9063067fa1229060240160006040518083038186803b158015610a9957600080fd5b505af4158015610aad573d6000803e3d6000fd5b505050506040513d6000823e601f3d908101601f19168201604052610ad59190810190613f8f565b90507fc74588f3f2e1bd432673c63aaf07a148454147f066fb904250e85024cd33fb63816040516109ae919061296a565b604051630ce6e73f60e11b81526001600160a01b038216600482015273__$64a275930a611d2694d2a05feb4a8b2aa0$__906319cdce7e906024015b60006040518083038186803b158015610b5a57600080fd5b505af4158015610b6e573d6000803e3d6000fd5b5050505050565b604051631ffbb8d760e01b81526001600160a01b0380841660048301528216602482015273__$64a275930a611d2694d2a05feb4a8b2aa0$__90631ffbb8d7906044015b60006040518083038186803b158015610bd157600080fd5b505af4158015610be5573d6000803e3d6000fd5b505050505050565b604051632ad145af60e01b81526001600160a01b0380831660048301528316602482015273__$64a275930a611d2694d2a05feb4a8b2aa0$__90632ad145af90604401610bb9565b6040516316dfe25360e11b81526001600160a01b0380851660048301528316602482015263ffffffff8216604482015273__$64a275930a611d2694d2a05feb4a8b2aa0$__90632dbfc4a690606401610a09565b604051630962e27b60e01b815273__$64a275930a611d2694d2a05feb4a8b2aa0$__90630962e27b90610b42908490600401614024565b6000606073__$64a275930a611d2694d2a05feb4a8b2aa0$__63321060ab8686866040518463ffffffff1660e01b8152600401610cff93929190614109565b60006040518083038186803b158015610d1757600080fd5b505af4158015610d2b573d6000803e3d6000fd5b505050506040513d6000823e601f3d908101601f19168201604052610d53919081019061418c565b90969095509350505050565b6040516319b22cb760e11b81526001600160a01b03821660048201526060908190819073__$64a275930a611d2694d2a05feb4a8b2aa0$__90633364596e9060240160006040518083038186803b158015610db957600080fd5b505af4158015610dcd573d6000803e3d6000fd5b505050506040513d6000823e601f3d908101601f19168201604052610df5919081019061423c565b9196909550909350915050565b6040516307ca9f7560e31b81526001600160a01b03808516600483015280841660248301528216604482015260009073__$64a275930a611d2694d2a05feb4a8b2aa0$__90633e54fba89060640160206040518083038186803b158015610e6857600080fd5b505af4158015610e7c573d6000803e3d6000fd5b505050506040513d601f19601f82011682018060405250810190610ea091906142b9565b949350505050565b610eee6040518060a0016040528060001515815260200160006001600160a01b03168152602001606081526020016060815260200160006001600160a01b031681525090565b6040516344f8e47160e01b81526001600160a01b03841660048201526024810183905273__$64a275930a611d2694d2a05feb4a8b2aa0$__906344f8e4719060440160006040518083038186803b158015610f4857600080fd5b505af4158015610f5c573d6000803e3d6000fd5b505050506040513d6000823e601f3d908101601f19168201604052610f8491908101906142d6565b9392505050565b6040516348b1461360e01b81526001600160a01b03808516600483015283166024820152811515604482015273__$64a275930a611d2694d2a05feb4a8b2aa0$__906348b1461390606401610a09565b604051634959707b60e01b81526001600160a01b0380841660048301528216602482015260009073__$64a275930a611d2694d2a05feb4a8b2aa0$__90634959707b906044015b60206040518083038186803b15801561103a57600080fd5b505af415801561104e573d6000803e3d6000fd5b505050506040513d601f19601f82011682018060405250810190610f8491906142b9565b6040516349c8532b60e01b81526001600160a01b038086166004830152808516602483015283166044820152600782900b606482015273__$64a275930a611d2694d2a05feb4a8b2aa0$__906349c8532b906084015b60006040518083038186803b1580156110e057600080fd5b505af41580156110f4573d6000803e3d6000fd5b5050505050505050565b604051634ddd613b60e01b81526001600160a01b038216600482015260009073__$64a275930a611d2694d2a05feb4a8b2aa0$__90634ddd613b906024015b60206040518083038186803b15801561115557600080fd5b505af4158015611169573d6000803e3d6000fd5b505050506040513d601f19601f8201168201806040525081019061118d91906142b9565b92915050565b604051635140d67d60e01b81526001600160a01b0380841660048301528216602482015260009073__$64a275930a611d2694d2a05feb4a8b2aa0$__90635140d67d90604401611022565b6111e6612344565b6040516315282c5b60e21b81526001600160a01b0384166004820152600783900b602482015273__$64a275930a611d2694d2a05feb4a8b2aa0$__906354a0b16c9060440160006040518083038186803b15801561124357600080fd5b505af4158015611257573d6000803e3d6000fd5b505050506040513d6000823e601f3d908101601f19168201604052610f84919081019061430a565b6040516355caeb0960e01b81526001600160a01b038216600482015260009073__$64a275930a611d2694d2a05feb4a8b2aa0$__906355caeb099060240160206040518083038186803b1580156112d557600080fd5b505af41580156112e9573d6000803e3d6000fd5b505050506040513d601f19601f8201168201806040525081019061118d91906143de565b6040516310e9065560e01b815273__$64a275930a611d2694d2a05feb4a8b2aa0$__906310e9065590610bb99085908590600401614401565b604051632c3ed34d60e11b81526001600160a01b038086166004830152808516602483015283166044820152600782900b606482015273__$64a275930a611d2694d2a05feb4a8b2aa0$__9063587da69a906084016110c8565b60006113aa61237f565b6040805180820182526009815268746f6b656e4e616d6560b81b60208083019190915290835281518083018352600b81526a1d1bdad95b94de5b589bdb60aa1b81830152908301523090820152600061140560018587611ed1565b9050600061141c60046005600a601e60018b612061565b60405163db297c8f60e01b815290915073__$64a275930a611d2694d2a05feb4a8b2aa0$__9063db297c8f9061146090869060c89060089088908890600401614642565b60206040518083038186803b15801561147857600080fd5b505af415801561148c573d6000803e3d6000fd5b505050506040513d601f19601f820116820180604052508101906114b09190614711565b9695505050505050565b60408051606081018252600080825260208201819052818301529051636e4333fd60e01b81526001600160a01b038316600482015273__$64a275930a611d2694d2a05feb4a8b2aa0$__90636e4333fd9060240160606040518083038186803b15801561152657600080fd5b505af415801561153a573d6000803e3d6000fd5b505050506040513d601f19601f8201168201806040525081019061118d919061472e565b604051636efe63a560e01b815273__$64a275930a611d2694d2a05feb4a8b2aa0$__90636efe63a590610a099086908690869060040161477d565b60405163038298a560e51b815273__$64a275930a611d2694d2a05feb4a8b2aa0$__9063705314a090610bb990859085906004016147e2565b60006115dc61237f565b6040805180820182526009815268746f6b656e4e616d6560b81b60208083019190915290835281518083018352600b81526a1d1bdad95b94de5b589bdb60aa1b818301529083015230828201525163371ea73560e21b815273__$64a275930a611d2694d2a05feb4a8b2aa0$__9063dc7a9cd49061166490849060c890600890600401614804565b60206040518083038186803b15801561167c57600080fd5b505af4158015611690573d6000803e3d6000fd5b505050506040513d601f19601f820116820180604052508101906116b49190614711565b6040516001600160a01b03821681529092507f2e2b3f61b70d2d131b2a807371103cc98d51adcaa5e9a8f9c32658ad8426e74e9060200160405180910390a15090565b604051631f1b1aa160e21b815273__$64a275930a611d2694d2a05feb4a8b2aa0$__90637c6c6a84906110c8908790879087908790600401614829565b6040516382ddffbf60e01b81526001600160a01b0380841660048301528216602482015273__$64a275930a611d2694d2a05feb4a8b2aa0$__906382ddffbf90604401610bb9565b6040516321f9a1df60e21b815273__$64a275930a611d2694d2a05feb4a8b2aa0$__906387e6877c90610bb990859085906004016147e2565b60405163894c665360e01b81526001600160a01b038216600482015273__$64a275930a611d2694d2a05feb4a8b2aa0$__9063894c665390602401610b42565b604051638d1433dd60e01b81526001600160a01b038216600482015260009073__$64a275930a611d2694d2a05feb4a8b2aa0$__90638d1433dd9060240161113d565b604051634a7ba79f60e11b81526001600160a01b0380841660048301528216602482015273__$64a275930a611d2694d2a05feb4a8b2aa0$__906394f74f3e90604401610bb9565b604051634bc6f95160e11b81526001600160a01b0383166004820152600782900b602482015260009073__$64a275930a611d2694d2a05feb4a8b2aa0$__9063978df2a29060440160206040518083038186803b1580156118e057600080fd5b505af41580156118f4573d6000803e3d6000fd5b505050506040513d601f19601f82011682018060405250810190610f849190614711565b6040516309c7e98d60e41b81526001600160a01b0380831660048301528316602482015273__$64a275930a611d2694d2a05feb4a8b2aa0$__90639c7e98d090604401610bb9565b600061196a61237f565b6040805180820182526009815268746f6b656e4e616d6560b81b60208083019190915290835281518083018352600b81526a1d1bdad95b94de5b589bdb60aa1b8183015283820152815180830183526004808252636d656d6f60e01b92820192909252606084015230918301919091526000906119ec906005600a878961212b565b905073__$64a275930a611d2694d2a05feb4a8b2aa0$__63ccc261fe836000604051908082528060200260200182016040528015611a6457816020015b6040805160a081018252600080825260208083018290529282018190526060820181905260808201528252600019909201910181611a295790505b50846040518463ffffffff1660e01b8152600401611a849392919061487c565b60206040518083038186803b158015611a9c57600080fd5b505af4158015611ab0573d6000803e3d6000fd5b505050506040513d601f19601f82011682018060405250810190611ad49190614711565b95945050505050565b60405163ba2ad97360e01b81526001600160a01b03808516600483015280841660248301528216604482015260009073__$64a275930a611d2694d2a05feb4a8b2aa0$__9063ba2ad9739060640160206040518083038186803b158015611b4357600080fd5b505af4158015611b57573d6000803e3d6000fd5b505050506040513d601f19601f82011682018060405250810190610ea09190614933565b60405163be83aa9960e01b815273__$64a275930a611d2694d2a05feb4a8b2aa0$__9063be83aa9990610a099086908690869060040161494c565b6040516367ac845360e01b815273__$64a275930a611d2694d2a05feb4a8b2aa0$__906367ac845390610bb99085908590600401614980565b6040516367ac61f560e11b81526001600160a01b038216600482015273__$64a275930a611d2694d2a05feb4a8b2aa0$__9063cf58c3ea90602401610b42565b60405163036926a960e61b815260009073__$64a275930a611d2694d2a05feb4a8b2aa0$__9063da49aa4090611c6d908790879087906004016149a2565b60206040518083038186803b158015611c8557600080fd5b505af4158015611c99573d6000803e3d6000fd5b505050506040513d601f19601f82011682018060405250810190610ea091906149d3565b6040516337eceff160e21b81526001600160a01b038216600482015260009073__$64a275930a611d2694d2a05feb4a8b2aa0$__9063dfb3bfc49060240161113d565b6000611d0a61237f565b6040805180820182526009815268746f6b656e4e616d6560b81b60208083019190915290835281518083018352600b81526a1d1bdad95b94de5b589bdb60aa1b8183015283820152815180830183526004808252636d656d6f60e01b9282019290925260608401523083830152905163910f271160e01b815273__$64a275930a611d2694d2a05feb4a8b2aa0$__9163910f271191611dab918591016149f0565b60206040518083038186803b158015611dc357600080fd5b505af4158015611dd7573d6000803e3d6000fd5b505050506040513d601f19601f82011682018060405250810190611dfb9190614711565b91505090565b60405163eb5625d960e01b81526001600160a01b038085166004830152831660248201526044810182905273__$64a275930a611d2694d2a05feb4a8b2aa0$__9063eb5625d990606401610a09565b60405163766603e360e11b81526001600160a01b0380841660048301528216602482015273__$64a275930a611d2694d2a05feb4a8b2aa0$__9063eccc07c690604401610bb9565b604051634e03000f60e01b815273__$64a275930a611d2694d2a05feb4a8b2aa0$__90634e03000f90610bb99085908590600401614a03565b60408051600380825260808201909252606091816020015b6040805160a081018252600080825260208083018290529282018190526060820181905260808201528252600019909201910181611ee95750506040805160a08101825260009181018290526060810182905263ffffffff871681526001600160a01b03868116602083015285166080820152919250611fa8611f6d876002614a25565b856040805160a081018252600060208201819052606082015263ffffffff9390931683526001908301526001600160a01b0316608082015290565b90506000611ff8611fba886004614a25565b866040805160a0810182526000602082018190529181019190915263ffffffff929092168252600160608301526001600160a01b0316608082015290565b9050828460008151811061200e5761200e614a5f565b6020026020010181905250818460018151811061202d5761202d614a5f565b6020026020010181905250808460028151811061204c5761204c614a5f565b60200260200101819052505050509392505050565b604080516001808252818301909252606091816020015b6040805160c08101825260008082526020808301829052928201819052606082018190526080820181905260a082015282526000199092019101816120785750506040805160c08101825263ffffffff808b168252808a16602083015280891692820192909252908616606082015284151560808201526001600160a01b03841660a0820152909150808260008151811061211557612115614a5f565b6020026020010181905250509695505050505050565b60408051600380825260808201909252606091816020015b6040805160c08101825260008082526020808301829052928201819052606082018190526080820181905260a082015282526000199092019101816121435750506040805160c0810182526000918101829052606081018290526080810182905263ffffffff808a168252881660208201526001600160a01b03851660a0820152919250906040805160c08101825263ffffffff808b168252808a166020830152881691810191909152600060608201819052600160808301526001600160a01b03861660a08301529192506040805160c08101825263ffffffff808c168252808b1660208301528916918101919091526001600160a01b03808816606083015260006080830181905290871660a08301529192509050828460008151811061226e5761226e614a5f565b6020026020010181905250818460018151811061228d5761228d614a5f565b602002602001018190525080846002815181106122ac576122ac614a5f565b602002602001018190525050505095945050505050565b60405180604001604052806122d66122e3565b8152600060209091015290565b6040518061012001604052806122f761237f565b815260200160006001600160401b03168152602001600015158152602001600015158152602001600015158152602001606081526020016060815260200160608152602001606081525090565b6040518060c001604052806123576122e3565b8152600060208201819052604082018190526060808301829052608083015260a09091015290565b60408051610120810182526060808252602080830182905260008385018190528284018390526080840181905260a0840181905260c0840181905260e0840183905284519283018552808352908201819052928101929092529061010082015290565b6001600160a01b03811681146123f757600080fd5b50565b8035612405816123e2565b919050565b60006020828403121561241c57600080fd5b8135610f84816123e2565b60005b8381101561244257818101518382015260200161242a565b83811115612451576000848401525b50505050565b6000815180845261246f816020860160208601612427565b601f01601f19169290920160200192915050565b805115158252600060208201516001600160a01b0380821660208601526040840151915060a060408601526124bb60a0860183612457565b9150606084015185830360608701526124d48382612457565b925050806080850151166080860152508091505092915050565b600082825180855260208086019550808260051b84010181860160005b8481101561254d57858303601f19018952815180518452840151604085850181905261253981860183612483565b9a86019a945050509083019060010161250b565b5090979650505050505050565b6000610160825181855261257082860182612457565b9150506020830151848203602086015261258a8282612457565b91505060408301516125a760408601826001600160a01b03169052565b50606083015184820360608601526125bf8282612457565b91505060808301516125d5608086018215159052565b5060a08301516125ea60a086018260070b9052565b5060c08301516125fe60c086018215159052565b5060e083015184820360e086015261261682826124ee565b61010085810151805163ffffffff9081168984015260208201516001600160a01b03166101208a015260408201511661014089015291935091505090949350505050565b600081518084526020808501945080840160005b838110156126d8576126c587835163ffffffff815116825260208101516001600160a01b03808216602085015260408301511515604085015260608301511515606085015280608084015116608085015250505050565b60a096909601959082019060010161266e565b509495945050505050565b600081518084526020808501945080840160005b838110156126d85761275887835163ffffffff808251168352806020830151166020840152806040830151166040840152806060830151166060840152506080810151151560808301526001600160a01b0360a08201511660a08301525050565b60c09690960195908201906001016126f7565b600081518084526020808501945080840160005b838110156126d8576127e487835163ffffffff8082511683528060208301511660208401528060408301511660408401525060608101516001600160a01b0380821660608501526080830151151560808501528060a08401511660a085015250505050565b60c096909601959082019060010161277f565b6000610120825181855261280d8286018261255a565b915050602083015161282a60208601826001600160401b03169052565b50604083015161283e604086018215159052565b506060830151612852606086018215159052565b506080830151612866608086018215159052565b5060a083015184820360a086015261287e828261265a565b91505060c083015184820360c086015261289882826126e3565b91505060e083015184820360e08601526128b2828261276b565b91505061010080840151858303828701526114b08382612457565b6020815260008251604060208401526128e960608401826127f7565b905063ffffffff60208501511660408401528091505092915050565b8060070b81146123f757600080fd5b803561240581612905565b60008060006060848603121561293457600080fd5b833561293f816123e2565b9250602084013561294f816123e2565b9150604084013561295f81612905565b809150509250925092565b602081526000610f8460208301846127f7565b6000806040838503121561299057600080fd5b823561299b816123e2565b915060208301356129ab816123e2565b809150509250929050565b63ffffffff811681146123f757600080fd5b6000806000606084860312156129dd57600080fd5b83356129e8816123e2565b925060208401356129f8816123e2565b9150604084013561295f816129b6565b634e487b7160e01b600052604160045260246000fd5b604051608081016001600160401b0381118282101715612a4057612a40612a08565b60405290565b604051606081016001600160401b0381118282101715612a4057612a40612a08565b604080519081016001600160401b0381118282101715612a4057612a40612a08565b60405160a081016001600160401b0381118282101715612a4057612a40612a08565b60405161012081016001600160401b0381118282101715612a4057612a40612a08565b60405160c081016001600160401b0381118282101715612a4057612a40612a08565b604051601f8201601f191681016001600160401b0381118282101715612b1957612b19612a08565b604052919050565b60006001600160401b03821115612b3a57612b3a612a08565b5060051b60200190565b80151581146123f757600080fd5b803561240581612b44565b600082601f830112612b6e57600080fd5b81356020612b83612b7e83612b21565b612af1565b82815260079290921b84018101918181019086841115612ba257600080fd5b8286015b84811015612c195760808189031215612bbf5760008081fd5b612bc7612a1e565b8135612bd2816123e2565b815281850135612be1816123e2565b81860152604082810135612bf481612905565b90820152606082810135612c0781612b44565b90820152835291830191608001612ba6565b509695505050505050565b600060208284031215612c3657600080fd5b6001600160401b038083351115612c4c57600080fd5b8235830184601f820112612c5f57600080fd5b612c6c612b7e8235612b21565b81358082526020808301929160051b840101871015612c8a57600080fd5b602083015b6020843560051b850101811015612c19578481351115612cae57600080fd5b803584016060818a03601f19011215612cc657600080fd5b612cce612a46565b612cdb60208301356123e2565b602082013581528660408301351115612cf357600080fd5b604082013582018a603f820112612d0957600080fd5b612d19612b7e6020830135612b21565b602082810135808352908201919060600283016040018d811115612d3c57600080fd5b6040840193505b80841015612db2576060848f031215612d5b57600080fd5b612d63612a46565b612d6d85356123e2565b84358152612d7e6020860135612905565b60208501356020820152612d956040860135612b44565b604085810135908201528352606090930192602090920191612d43565b50602084015250506060820135871015612dcb57600080fd5b612dde8a60206060850135850101612b5d565b604082015284525060209283019201612c8f565b6001600160401b03811681146123f757600080fd5b60006001600160401b03821115612e2057612e20612a08565b50601f01601f191660200190565b600082601f830112612e3f57600080fd5b8135612e4d612b7e82612e07565b818152846020838601011115612e6257600080fd5b816020850160208301376000918101602001919091529392505050565b600080600060608486031215612e9457600080fd5b8335612e9f816123e2565b9250602084810135612eb081612df2565b925060408501356001600160401b0380821115612ecc57600080fd5b818701915087601f830112612ee057600080fd5b8135612eee612b7e82612b21565b81815260059190911b8301840190848101908a831115612f0d57600080fd5b8585015b83811015612f4557803585811115612f295760008081fd5b612f378d89838a0101612e2e565b845250918601918601612f11565b508096505050505050509250925092565b6000604082016001600160401b03851683526020604081850152818551808452606086019150828701935060005b8181101561254d57845160070b83529383019391830191600101612f84565b606081526000612fb6606083018661265a565b8281036020840152612fc881866126e3565b905082810360408401526114b0818561276b565b600080600060608486031215612ff157600080fd5b8335612ffc816123e2565b9250602084013561300c816123e2565b9150604084013561295f816123e2565b6000806040838503121561302f57600080fd5b823561303a816123e2565b946020939093013593505050565b602081526000610f846020830184612483565b60008060006060848603121561307057600080fd5b833561307b816123e2565b9250602084013561308b816123e2565b9150604084013561295f81612b44565b600080600080608085870312156130b157600080fd5b84356130bc816123e2565b935060208501356130cc816123e2565b925060408501356130dc816123e2565b915060608501356130ec81612905565b939692955090935050565b6000806040838503121561310a57600080fd5b8235613115816123e2565b915060208301356129ab81612905565b602081526000825160c0602084015261314160e08401826127f7565b9050602084015160070b604084015260408401516001600160a01b038082166060860152606086015160070b608086015260808601519150601f198584030160a086015261318f8383612457565b92508060a08701511660c086015250508091505092915050565b6000606082840312156131bb57600080fd5b6131c3612a46565b905081356131d0816129b6565b815260208201356131e0816123e2565b602082015260408201356131f3816129b6565b604082015292915050565b6000806080838503121561321157600080fd5b823561321c816123e2565b915061322b84602085016131a9565b90509250929050565b6060810161118d8284805163ffffffff90811683526020808301516001600160a01b03169084015260409182015116910152565b600082601f83011261327957600080fd5b81356020613289612b7e83612b21565b82815260059290921b840181019181810190868411156132a857600080fd5b8286015b84811015612c195780356132bf81612905565b83529183019183016132ac565b6000806000606084860312156132e157600080fd5b83356132ec816123e2565b925060208401356132fc816123e2565b915060408401356001600160401b0381111561331757600080fd5b61332386828701613268565b9150509250925092565b600082601f83011261333e57600080fd5b8135602061334e612b7e83612b21565b82815260059290921b8401810191818101908684111561336d57600080fd5b8286015b84811015612c19578035613384816123e2565b8352918301918301613371565b600080604083850312156133a457600080fd5b82356133af816123e2565b915060208301356001600160401b038111156133ca57600080fd5b6133d68582860161332d565b9150509250929050565b600080600080608085870312156133f657600080fd5b8435613401816123e2565b935060208501356001600160401b038082111561341d57600080fd5b6134298883890161332d565b9450604087013591508082111561343f57600080fd5b61344b8883890161332d565b9350606087013591508082111561346157600080fd5b5061346e87828801613268565b91505092959194509250565b60008060006060848603121561348f57600080fd5b833561349a816123e2565b925060208401356001600160401b03808211156134b657600080fd5b6134c28783880161332d565b935060408601359150808211156134d857600080fd5b5061332386828701613268565b600082601f8301126134f657600080fd5b81356020613506612b7e83612b21565b82815260059290921b8401810191818101908684111561352557600080fd5b8286015b84811015612c195780356001600160401b038082111561354857600080fd5b908801906040601f19838c03810182131561356257600080fd5b61356a612a68565b888501358152828501358481111561358157600080fd5b949094019360a0858e03830112156135995760008081fd5b6135a1612a8a565b9150888501356135b081612b44565b8252848301356135bf816123e2565b828a0152606085810135858111156135d75760008081fd5b6135e58f8c838a0101612e2e565b85850152506080935083860135858111156136005760008081fd5b61360e8f8c838a0101612e2e565b82850152505061362060a086016123fa565b928201929092528188015285525050918301918301613529565b6000806040838503121561364d57600080fd5b8235613658816123e2565b915060208301356001600160401b038082111561367457600080fd5b90840190610160828703121561368957600080fd5b613691612aac565b8235828111156136a057600080fd5b6136ac88828601612e2e565b8252506020830135828111156136c157600080fd5b6136cd88828601612e2e565b6020830152506136df604084016123fa565b60408201526060830135828111156136f657600080fd5b61370288828601612e2e565b60608301525061371460808401612b52565b608082015261372560a08401612914565b60a082015261373660c08401612b52565b60c082015260e08301358281111561374d57600080fd5b613759888286016134e5565b60e0830152506101009150613770878385016131a9565b828201528093505050509250929050565b60008060006060848603121561379657600080fd5b83356137a1816123e2565b925060208401356132fc81612df2565b6000806000606084860312156137c657600080fd5b83356137d1816123e2565b925060208401356137e1816123e2565b929592945050506040919091013590565b6000806040838503121561380557600080fd5b8235613810816123e2565b915060208301356001600160401b0381111561382b57600080fd5b6133d6858286016134e5565b600082601f83011261384857600080fd5b8151613856612b7e82612e07565b81815284602083860101111561386b57600080fd5b610ea0826020830160208701612427565b8051612405816123e2565b805161240581612b44565b805161240581612905565b600060a082840312156138af57600080fd5b6138b7612a8a565b905081516138c481612b44565b815260208201516138d4816123e2565b602082015260408201516001600160401b03808211156138f357600080fd5b6138ff85838601613837565b6040840152606084015191508082111561391857600080fd5b5061392584828501613837565b6060830152506080820151613939816123e2565b608082015292915050565b600082601f83011261395557600080fd5b81516020613965612b7e83612b21565b82815260059290921b8401810191818101908684111561398457600080fd5b8286015b84811015612c195780516001600160401b03808211156139a85760008081fd5b908801906040828b03601f19018113156139c25760008081fd5b6139ca612a68565b8388015181529083015190828211156139e35760008081fd5b6139f18c898487010161389d565b818901528652505050918301918301613988565b600060608284031215613a1757600080fd5b613a1f612a46565b90508151613a2c816129b6565b81526020820151613a3c816123e2565b602082015260408201516131f3816129b6565b60006101608284031215613a6257600080fd5b613a6a612aac565b905081516001600160401b0380821115613a8357600080fd5b613a8f85838601613837565b83526020840151915080821115613aa557600080fd5b613ab185838601613837565b6020840152613ac26040850161387c565b60408401526060840151915080821115613adb57600080fd5b613ae785838601613837565b6060840152613af860808501613887565b6080840152613b0960a08501613892565b60a0840152613b1a60c08501613887565b60c084015260e0840151915080821115613b3357600080fd5b50613b4084828501613944565b60e083015250610100613b5584828501613a05565b9082015292915050565b805161240581612df2565b600082601f830112613b7b57600080fd5b81516020613b8b612b7e83612b21565b82815260a09283028501820192828201919087851115613baa57600080fd5b8387015b8581101561254d5781818a031215613bc65760008081fd5b613bce612a8a565b8151613bd9816129b6565b815281860151613be8816123e2565b81870152604082810151613bfb81612b44565b90820152606082810151613c0e81612b44565b90820152608082810151613c21816123e2565b908201528452928401928101613bae565b600082601f830112613c4357600080fd5b81516020613c53612b7e83612b21565b82815260c09283028501820192828201919087851115613c7257600080fd5b8387015b8581101561254d5781818a031215613c8e5760008081fd5b613c96612acf565b8151613ca1816129b6565b815281860151613cb0816129b6565b81870152604082810151613cc3816129b6565b90820152606082810151613cd6816129b6565b90820152608082810151613ce981612b44565b9082015260a082810151613cfc816123e2565b908201528452928401928101613c76565b600082601f830112613d1e57600080fd5b81516020613d2e612b7e83612b21565b82815260c09283028501820192828201919087851115613d4d57600080fd5b8387015b8581101561254d5781818a031215613d695760008081fd5b613d71612acf565b8151613d7c816129b6565b815281860151613d8b816129b6565b81870152604082810151613d9e816129b6565b90820152606082810151613db1816123e2565b90820152608082810151613dc481612b44565b9082015260a082810151613dd7816123e2565b908201528452928401928101613d51565b60006101208284031215613dfb57600080fd5b613e03612aac565b905081516001600160401b0380821115613e1c57600080fd5b613e2885838601613a4f565b8352613e3660208501613b5f565b6020840152613e4760408501613887565b6040840152613e5860608501613887565b6060840152613e6960808501613887565b608084015260a0840151915080821115613e8257600080fd5b613e8e85838601613b6a565b60a084015260c0840151915080821115613ea757600080fd5b613eb385838601613c32565b60c084015260e0840151915080821115613ecc57600080fd5b613ed885838601613d0d565b60e084015261010091508184015181811115613ef357600080fd5b613eff86828701613837565b8385015250505092915050565b600060208284031215613f1e57600080fd5b81516001600160401b0380821115613f3557600080fd5b9083019060408286031215613f4957600080fd5b613f51612a68565b825182811115613f6057600080fd5b613f6c87828601613de8565b82525060208301519250613f7f836129b6565b6020810192909252509392505050565b600060208284031215613fa157600080fd5b81516001600160401b03811115613fb757600080fd5b610ea084828501613de8565b600081518084526020808501945080840160005b838110156126d857815180516001600160a01b03908116895284820151168489015260408082015160070b9089015260609081015115159088015260809096019590820190600101613fd7565b60006020808301818452808551808352604092508286019150828160051b87010184880160005b838110156140fb57603f19898403018552815160608085016001600160a01b038084511687528a840151838c89015282815180855260808a0191508d83019450600092505b808310156140c85784518051851683528e81015160070b8f8401528d015115158d830152938d01936001929092019190850190614090565b50948b0151888603898d0152946140df8187613fc3565b9a8d019a98505050948a0194505050600191909101905061404b565b509098975050505050505050565b6000606082016001600160a01b038616835260206001600160401b038616818501526060604085015281855180845260808601915060808160051b870101935082870160005b8281101561417d57607f1988870301845261416b868351612457565b9550928401929084019060010161414f565b50939998505050505050505050565b6000806040838503121561419f57600080fd5b82516141aa81612df2565b809250506020808401516001600160401b038111156141c857600080fd5b8401601f810186136141d957600080fd5b80516141e7612b7e82612b21565b81815260059190911b8201830190838101908883111561420657600080fd5b928401925b8284101561422d57835161421e81612905565b8252928401929084019061420b565b80955050505050509250929050565b60008060006060848603121561425157600080fd5b83516001600160401b038082111561426857600080fd5b61427487838801613b6a565b9450602086015191508082111561428a57600080fd5b61429687838801613c32565b935060408601519150808211156142ac57600080fd5b5061332386828701613d0d565b6000602082840312156142cb57600080fd5b8151610f8481612b44565b6000602082840312156142e857600080fd5b81516001600160401b038111156142fe57600080fd5b610ea08482850161389d565b60006020828403121561431c57600080fd5b81516001600160401b038082111561433357600080fd5b9083019060c0828603121561434757600080fd5b61434f612acf565b82518281111561435e57600080fd5b61436a87828601613de8565b82525061437960208401613892565b602082015261438a6040840161387c565b604082015261439b60608401613892565b60608201526080830151828111156143b257600080fd5b6143be87828601613837565b6080830152506143d060a0840161387c565b60a082015295945050505050565b6000602082840312156143f057600080fd5b81518060030b8114610f8457600080fd5b6001600160a01b038316815260808101610f846020830184805163ffffffff90811683526020808301516001600160a01b03169084015260409182015116910152565b600081518084526020808501808196508360051b8101915082860160005b858110156144fb5782840389528151604081518652868201519150808787015281511515818701528682015160606001600160a01b03808316828a015283850151935060a09250608083818b01526144bd60e08b0186612457565b928601518a8403603f1901858c01529294506144d98584612457565b9501511660c09890980197909752505098850198935090840190600101614462565b5091979650505050505050565b6000610160825181855261451e82860182612457565b915050602083015184820360208601526145388282612457565b915050604083015161455560408601826001600160a01b03169052565b506060830151848203606086015261456d8282612457565b9150506080830151614583608086018215159052565b5060a083015161459860a086018260070b9052565b5060c08301516145ac60c086018215159052565b5060e083015184820360e08601526126168282614444565b600081518084526020808501945080840160005b838110156126d85761462f87835163ffffffff815116825260208101516001600160a01b03808216602085015260408301511515604085015260608301511515606085015280608084015116608085015250505050565b60a09690960195908201906001016145d8565b60a08152600061465560a0830188614508565b60208781850152866040850152838203606085015261467482876145c4565b8481036080860152855180825282870193509082019060005b81811015614701576146ee83865163ffffffff808251168352806020830151166020840152806040830151166040840152806060830151166060840152506080810151151560808301526001600160a01b0360a08201511660a08301525050565b9383019360c0929092019160010161468d565b50909a9950505050505050505050565b60006020828403121561472357600080fd5b8151610f84816123e2565b60006060828403121561474057600080fd5b610f848383613a05565b600081518084526020808501945080840160005b838110156126d857815160070b8752958201959082019060010161475e565b60006001600160a01b03808616835280851660208401525060606040830152611ad4606083018461474a565b600081518084526020808501945080840160005b838110156126d85781516001600160a01b0316875295820195908201906001016147bd565b6001600160a01b0383168152604060208201526000610ea060408301846147a9565b6060815260006148176060830186614508565b60208301949094525060400152919050565b6001600160a01b038516815260806020820152600061484b60808301866147a9565b828103604084015261485d81866147a9565b90508281036060840152614871818561474a565b979650505050505050565b60608152600061488f6060830186614508565b6020838203818501526148a282876145c4565b8481036040860152855180825282870193509082019060005b818110156140fb5761492083865163ffffffff8082511683528060208301511660208401528060408301511660408401525060608101516001600160a01b0380821660608501526080830151151560808501528060a08401511660a085015250505050565b9383019360c092909201916001016148bb565b60006020828403121561494557600080fd5b5051919050565b6001600160a01b038416815260606020820152600061496e60608301856147a9565b82810360408401526114b0818561474a565b6001600160a01b0383168152604060208201526000610ea06040830184614508565b6001600160a01b03841681526001600160401b0383166020820152606060408201526000611ad4606083018461474a565b6000602082840312156149e557600080fd5b8151610f8481612df2565b602081526000610f846020830184614508565b6001600160a01b0383168152604060208201526000610ea06040830184614444565b600063ffffffff80831681851681830481118215151615614a5657634e487b7160e01b600052601160045260246000fd5b02949350505050565b634e487b7160e01b600052603260045260246000fdfea26469706673582212201c51e8d287e8fd15c65cc297eaa8f904e5b7c533918205b4c2d2c51eca0be1c764736f6c63430008090033",
  "linkReferences": {
    "contracts/safe-hts-precompile/SafeHTS.sol": {
      "SafeHTS": [
        {
          "length": 20,
          "start": 2348
        },
        {
          "length": 20,
          "start": 2571
        },
        {
          "length": 20,
          "start": 2692
        },
        {
          "length": 20,
          "start": 2884
        },
        {
          "length": 20,
          "start": 3003
        },
        {
          "length": 20,
          "start": 3123
        },
        {
          "length": 20,
          "start": 3207
        },
        {
          "length": 20,
          "start": 3256
        },
        {
          "length": 20,
          "start": 3302
        },
        {
          "length": 20,
          "start": 3492
        },
        {
          "length": 20,
          "start": 3667
        },
        {
          "length": 20,
          "start": 3891
        },
        {
          "length": 20,
          "start": 4057
        },
        {
          "length": 20,
          "start": 4132
        },
        {
          "length": 20,
          "start": 4298
        },
        {
          "length": 20,
          "start": 4415
        },
        {
          "length": 20,
          "start": 4572
        },
        {
          "length": 20,
          "start": 4654
        },
        {
          "length": 20,
          "start": 4800
        },
        {
          "length": 20,
          "start": 4924
        },
        {
          "length": 20,
          "start": 5022
        },
        {
          "length": 20,
          "start": 5198
        },
        {
          "length": 20,
          "start": 5393
        },
        {
          "length": 20,
          "start": 5517
        },
        {
          "length": 20,
          "start": 5576
        },
        {
          "length": 20,
          "start": 5718
        },
        {
          "length": 20,
          "start": 5926
        },
        {
          "length": 20,
          "start": 6010
        },
        {
          "length": 20,
          "start": 6059
        },
        {
          "length": 20,
          "start": 6131
        },
        {
          "length": 20,
          "start": 6198
        },
        {
          "length": 20,
          "start": 6270
        },
        {
          "length": 20,
          "start": 6347
        },
        {
          "length": 20,
          "start": 6494
        },
        {
          "length": 20,
          "start": 6672
        },
        {
          "length": 20,
          "start": 6958
        },
        {
          "length": 20,
          "start": 7082
        },
        {
          "length": 20,
          "start": 7141
        },
        {
          "length": 20,
          "start": 7213
        },
        {
          "length": 20,
          "start": 7265
        },
        {
          "length": 20,
          "start": 7422
        },
        {
          "length": 20,
          "start": 7589
        },
        {
          "length": 20,
          "start": 7758
        },
        {
          "length": 20,
          "start": 7830
        },
        {
          "length": 20,
          "start": 7879
        }
      ]
    }
  },
  "deployedLinkReferences": {
    "contracts/safe-hts-precompile/SafeHTS.sol": {
      "SafeHTS": [
        {
          "length": 20,
          "start": 2316
        },
        {
          "length": 20,
          "start": 2539
        },
        {
          "length": 20,
          "start": 2660
        },
        {
          "length": 20,
          "start": 2852
        },
        {
          "length": 20,
          "start": 2971
        },
        {
          "length": 20,
          "start": 3091
        },
        {
          "length": 20,
          "start": 3175
        },
        {
          "length": 20,
          "start": 3224
        },
        {
          "length": 20,
          "start": 3270
        },
        {
          "length": 20,
          "start": 3460
        },
        {
          "length": 20,
          "start": 3635
        },
        {
          "length": 20,
          "start": 3859
        },
        {
          "length": 20,
          "start": 4025
        },
        {
          "length": 20,
          "start": 4100
        },
        {
          "length": 20,
          "start": 4266
        },
        {
          "length": 20,
          "start": 4383
        },
        {
          "length": 20,
          "start": 4540
        },
        {
          "length": 20,
          "start": 4622
        },
        {
          "length": 20,
          "start": 4768
        },
        {
          "length": 20,
          "start": 4892
        },
        {
          "length": 20,
          "start": 4990
        },
        {
          "length": 20,
          "start": 5166
        },
        {
          "length": 20,
          "start": 5361
        },
        {
          "length": 20,
          "start": 5485
        },
        {
          "length": 20,
          "start": 5544
        },
        {
          "length": 20,
          "start": 5686
        },
        {
          "length": 20,
          "start": 5894
        },
        {
          "length": 20,
          "start": 5978
        },
        {
          "length": 20,
          "start": 6027
        },
        {
          "length": 20,
          "start": 6099
        },
        {
          "length": 20,
          "start": 6166
        },
        {
          "length": 20,
          "start": 6238
        },
        {
          "length": 20,
          "start": 6315
        },
        {
          "length": 20,
          "start": 6462
        },
        {
          "length": 20,
          "start": 6640
        },
        {
          "length": 20,
          "start": 6926
        },
        {
          "length": 20,
          "start": 7050
        },
        {
          "length": 20,
          "start": 7109
        },
        {
          "length": 20,
          "start": 7181
        },
        {
          "length": 20,
          "start": 7233
        },
        {
          "length": 20,
          "start": 7390
        },
        {
          "length": 20,
          "start": 7557
        },
        {
          "length": 20,
          "start": 7726
        },
        {
          "length": 20,
          "start": 7798
        },
        {
          "length": 20,
          "start": 7847
        }
      ]
    }
  }
}