{
  "_format": "hh-sol-artifact-1",
  "contractName": "SafeOperations",
  "sourceName": "contracts/safe-hts-precompile/SafeOperations.sol",
  "abi": [
    {
      "anonymous": false,
      "inputs": [
        {
          "components": [
            {
              "components": [
                {
                  "components": [
                    {
                      "internalType": "string",
                      "name": "name",
                      "type": "string"
                    },
                    {
                      "internalType": "string",
                      "name": "symbol",
                      "type": "string"
                    },
                    {
                      "internalType": "address",
                      "name": "treasury",
                      "type": "address"
                    },
                    {
                      "internalType": "string",
                      "name": "memo",
                      "type": "string"
                    },
                    {
                      "internalType": "bool",
                      "name": "tokenSupplyType",
                      "type": "bool"
                    },
                    {
                      "internalType": "int64",
                      "name": "maxSupply",
                      "type": "int64"
                    },
                    {
                      "internalType": "bool",
                      "name": "freezeDefault",
                      "type": "bool"
                    },
                    {
                      "components": [
                        {
                          "internalType": "uint256",
                          "name": "keyType",
                          "type": "uint256"
                        },
                        {
                          "components": [
                            {
                              "internalType": "bool",
                              "name": "inheritAccountKey",
                              "type": "bool"
                            },
                            {
                              "internalType": "address",
                              "name": "contractId",
                              "type": "address"
                            },
                            {
                              "internalType": "bytes",
                              "name": "ed25519",
                              "type": "bytes"
                            },
                            {
                              "internalType": "bytes",
                              "name": "ECDSA_secp256k1",
                              "type": "bytes"
                            },
                            {
                              "internalType": "address",
                              "name": "delegatableContractId",
                              "type": "address"
                            }
                          ],
                          "internalType": "struct IHederaTokenService.KeyValue",
                          "name": "key",
                          "type": "tuple"
                        }
                      ],
                      "internalType": "struct IHederaTokenService.TokenKey[]",
                      "name": "tokenKeys",
                      "type": "tuple[]"
                    },
                    {
                      "components": [
                        {
                          "internalType": "int64",
                          "name": "second",
                          "type": "int64"
                        },
                        {
                          "internalType": "address",
                          "name": "autoRenewAccount",
                          "type": "address"
                        },
                        {
                          "internalType": "int64",
                          "name": "autoRenewPeriod",
                          "type": "int64"
                        }
                      ],
                      "internalType": "struct IHederaTokenService.Expiry",
                      "name": "expiry",
                      "type": "tuple"
                    }
                  ],
                  "internalType": "struct IHederaTokenService.HederaToken",
                  "name": "token",
                  "type": "tuple"
                },
                {
                  "internalType": "int64",
                  "name": "totalSupply",
                  "type": "int64"
                },
                {
                  "internalType": "bool",
                  "name": "deleted",
                  "type": "bool"
                },
                {
                  "internalType": "bool",
                  "name": "defaultKycStatus",
                  "type": "bool"
                },
                {
                  "internalType": "bool",
                  "name": "pauseStatus",
                  "type": "bool"
                },
                {
                  "components": [
                    {
                      "internalType": "int64",
                      "name": "amount",
                      "type": "int64"
                    },
                    {
                      "internalType": "address",
                      "name": "tokenId",
                      "type": "address"
                    },
                    {
                      "internalType": "bool",
                      "name": "useHbarsForPayment",
                      "type": "bool"
                    },
                    {
                      "internalType": "bool",
                      "name": "useCurrentTokenForPayment",
                      "type": "bool"
                    },
                    {
                      "internalType": "address",
                      "name": "feeCollector",
                      "type": "address"
                    }
                  ],
                  "internalType": "struct IHederaTokenService.FixedFee[]",
                  "name": "fixedFees",
                  "type": "tuple[]"
                },
                {
                  "components": [
                    {
                      "internalType": "int64",
                      "name": "numerator",
                      "type": "int64"
                    },
                    {
                      "internalType": "int64",
                      "name": "denominator",
                      "type": "int64"
                    },
                    {
                      "internalType": "int64",
                      "name": "minimumAmount",
                      "type": "int64"
                    },
                    {
                      "internalType": "int64",
                      "name": "maximumAmount",
                      "type": "int64"
                    },
                    {
                      "internalType": "bool",
                      "name": "netOfTransfers",
                      "type": "bool"
                    },
                    {
                      "internalType": "address",
                      "name": "feeCollector",
                      "type": "address"
                    }
                  ],
                  "internalType": "struct IHederaTokenService.FractionalFee[]",
                  "name": "fractionalFees",
                  "type": "tuple[]"
                },
                {
                  "components": [
                    {
                      "internalType": "int64",
                      "name": "numerator",
                      "type": "int64"
                    },
                    {
                      "internalType": "int64",
                      "name": "denominator",
                      "type": "int64"
                    },
                    {
                      "internalType": "int64",
                      "name": "amount",
                      "type": "int64"
                    },
                    {
                      "internalType": "address",
                      "name": "tokenId",
                      "type": "address"
                    },
                    {
                      "internalType": "bool",
                      "name": "useHbarsForPayment",
                      "type": "bool"
                    },
                    {
                      "internalType": "address",
                      "name": "feeCollector",
                      "type": "address"
                    }
                  ],
                  "internalType": "struct IHederaTokenService.RoyaltyFee[]",
                  "name": "royaltyFees",
                  "type": "tuple[]"
                },
                {
                  "internalType": "string",
                  "name": "ledgerId",
                  "type": "string"
                }
              ],
              "internalType": "struct IHederaTokenService.TokenInfo",
              "name": "tokenInfo",
              "type": "tuple"
            },
            {
              "internalType": "int32",
              "name": "decimals",
              "type": "int32"
            }
          ],
          "indexed": false,
          "internalType": "struct IHederaTokenService.FungibleTokenInfo",
          "name": "fungibleTokenInfo",
          "type": "tuple"
        }
      ],
      "name": "FungibleTokenInfoEvent",
      "type": "event"
    },
    {
      "anonymous": false,
      "inputs": [
        {
          "indexed": false,
          "internalType": "address",
          "name": "token",
          "type": "address"
        }
      ],
      "name": "TokenCreated",
      "type": "event"
    },
    {
      "anonymous": false,
      "inputs": [
        {
          "components": [
            {
              "components": [
                {
                  "internalType": "string",
                  "name": "name",
                  "type": "string"
                },
                {
                  "internalType": "string",
                  "name": "symbol",
                  "type": "string"
                },
                {
                  "internalType": "address",
                  "name": "treasury",
                  "type": "address"
                },
                {
                  "internalType": "string",
                  "name": "memo",
                  "type": "string"
                },
                {
                  "internalType": "bool",
                  "name": "tokenSupplyType",
                  "type": "bool"
                },
                {
                  "internalType": "int64",
                  "name": "maxSupply",
                  "type": "int64"
                },
                {
                  "internalType": "bool",
                  "name": "freezeDefault",
                  "type": "bool"
                },
                {
                  "components": [
                    {
                      "internalType": "uint256",
                      "name": "keyType",
                      "type": "uint256"
                    },
                    {
                      "components": [
                        {
                          "internalType": "bool",
                          "name": "inheritAccountKey",
                          "type": "bool"
                        },
                        {
                          "internalType": "address",
                          "name": "contractId",
                          "type": "address"
                        },
                        {
                          "internalType": "bytes",
                          "name": "ed25519",
                          "type": "bytes"
                        },
                        {
                          "internalType": "bytes",
                          "name": "ECDSA_secp256k1",
                          "type": "bytes"
                        },
                        {
                          "internalType": "address",
                          "name": "delegatableContractId",
                          "type": "address"
                        }
                      ],
                      "internalType": "struct IHederaTokenService.KeyValue",
                      "name": "key",
                      "type": "tuple"
                    }
                  ],
                  "internalType": "struct IHederaTokenService.TokenKey[]",
                  "name": "tokenKeys",
                  "type": "tuple[]"
                },
                {
                  "components": [
                    {
                      "internalType": "int64",
                      "name": "second",
                      "type": "int64"
                    },
                    {
                      "internalType": "address",
                      "name": "autoRenewAccount",
                      "type": "address"
                    },
                    {
                      "internalType": "int64",
                      "name": "autoRenewPeriod",
                      "type": "int64"
                    }
                  ],
                  "internalType": "struct IHederaTokenService.Expiry",
                  "name": "expiry",
                  "type": "tuple"
                }
              ],
              "internalType": "struct IHederaTokenService.HederaToken",
              "name": "token",
              "type": "tuple"
            },
            {
              "internalType": "int64",
              "name": "totalSupply",
              "type": "int64"
            },
            {
              "internalType": "bool",
              "name": "deleted",
              "type": "bool"
            },
            {
              "internalType": "bool",
              "name": "defaultKycStatus",
              "type": "bool"
            },
            {
              "internalType": "bool",
              "name": "pauseStatus",
              "type": "bool"
            },
            {
              "components": [
                {
                  "internalType": "int64",
                  "name": "amount",
                  "type": "int64"
                },
                {
                  "internalType": "address",
                  "name": "tokenId",
                  "type": "address"
                },
                {
                  "internalType": "bool",
                  "name": "useHbarsForPayment",
                  "type": "bool"
                },
                {
                  "internalType": "bool",
                  "name": "useCurrentTokenForPayment",
                  "type": "bool"
                },
                {
                  "internalType": "address",
                  "name": "feeCollector",
                  "type": "address"
                }
              ],
              "internalType": "struct IHederaTokenService.FixedFee[]",
              "name": "fixedFees",
              "type": "tuple[]"
            },
            {
              "components": [
                {
                  "internalType": "int64",
                  "name": "numerator",
                  "type": "int64"
                },
                {
                  "internalType": "int64",
                  "name": "denominator",
                  "type": "int64"
                },
                {
                  "internalType": "int64",
                  "name": "minimumAmount",
                  "type": "int64"
                },
                {
                  "internalType": "int64",
                  "name": "maximumAmount",
                  "type": "int64"
                },
                {
                  "internalType": "bool",
                  "name": "netOfTransfers",
                  "type": "bool"
                },
                {
                  "internalType": "address",
                  "name": "feeCollector",
                  "type": "address"
                }
              ],
              "internalType": "struct IHederaTokenService.FractionalFee[]",
              "name": "fractionalFees",
              "type": "tuple[]"
            },
            {
              "components": [
                {
                  "internalType": "int64",
                  "name": "numerator",
                  "type": "int64"
                },
                {
                  "internalType": "int64",
                  "name": "denominator",
                  "type": "int64"
                },
                {
                  "internalType": "int64",
                  "name": "amount",
                  "type": "int64"
                },
                {
                  "internalType": "address",
                  "name": "tokenId",
                  "type": "address"
                },
                {
                  "internalType": "bool",
                  "name": "useHbarsForPayment",
                  "type": "bool"
                },
                {
                  "internalType": "address",
                  "name": "feeCollector",
                  "type": "address"
                }
              ],
              "internalType": "struct IHederaTokenService.RoyaltyFee[]",
              "name": "royaltyFees",
              "type": "tuple[]"
            },
            {
              "internalType": "string",
              "name": "ledgerId",
              "type": "string"
            }
          ],
          "indexed": false,
          "internalType": "struct IHederaTokenService.TokenInfo",
          "name": "tokenInfo",
          "type": "tuple"
        }
      ],
      "name": "TokenInfoEvent",
      "type": "event"
    },
    {
      "inputs": [
        {
          "internalType": "address",
          "name": "token",
          "type": "address"
        },
        {
          "internalType": "address",
          "name": "owner",
          "type": "address"
        },
        {
          "internalType": "address",
          "name": "spender",
          "type": "address"
        }
      ],
      "name": "safeAllowance",
      "outputs": [
        {
          "internalType": "uint256",
          "name": "allowance",
          "type": "uint256"
        }
      ],
      "stateMutability": "nonpayable",
      "type": "function"
    },
    {
      "inputs": [
        {
          "internalType": "address",
          "name": "token",
          "type": "address"
        },
        {
          "internalType": "address",
          "name": "spender",
          "type": "address"
        },
        {
          "internalType": "uint256",
          "name": "amount",
          "type": "uint256"
        }
      ],
      "name": "safeApprove",
      "outputs": [],
      "stateMutability": "nonpayable",
      "type": "function"
    },
    {
      "inputs": [
        {
          "internalType": "address",
          "name": "token",
          "type": "address"
        },
        {
          "internalType": "address",
          "name": "approved",
          "type": "address"
        },
        {
          "internalType": "int64",
          "name": "serialNumber",
          "type": "int64"
        }
      ],
      "name": "safeApproveNFT",
      "outputs": [],
      "stateMutability": "nonpayable",
      "type": "function"
    },
    {
      "inputs": [
        {
          "internalType": "address",
          "name": "sender",
          "type": "address"
        },
        {
          "internalType": "address",
          "name": "tokenAddress",
          "type": "address"
        }
      ],
      "name": "safeAssociateToken",
      "outputs": [],
      "stateMutability": "nonpayable",
      "type": "function"
    },
    {
      "inputs": [
        {
          "internalType": "address",
          "name": "account",
          "type": "address"
        },
        {
          "internalType": "address[]",
          "name": "tokens",
          "type": "address[]"
        }
      ],
      "name": "safeAssociateTokens",
      "outputs": [],
      "stateMutability": "nonpayable",
      "type": "function"
    },
    {
      "inputs": [
        {
          "internalType": "address",
          "name": "token",
          "type": "address"
        },
        {
          "internalType": "int64",
          "name": "amount",
          "type": "int64"
        },
        {
          "internalType": "int64[]",
          "name": "serialNumbers",
          "type": "int64[]"
        }
      ],
      "name": "safeBurnToken",
      "outputs": [
        {
          "internalType": "int64",
          "name": "newTotalSupply",
          "type": "int64"
        }
      ],
      "stateMutability": "nonpayable",
      "type": "function"
    },
    {
      "inputs": [],
      "name": "safeCreateFungibleToken",
      "outputs": [
        {
          "internalType": "address",
          "name": "tokenAddress",
          "type": "address"
        }
      ],
      "stateMutability": "payable",
      "type": "function"
    },
    {
      "inputs": [
        {
          "internalType": "address",
          "name": "feeCollector",
          "type": "address"
        },
        {
          "internalType": "address",
          "name": "existingTokenAddress",
          "type": "address"
        }
      ],
      "name": "safeCreateFungibleTokenWithCustomFees",
      "outputs": [
        {
          "internalType": "address",
          "name": "tokenAddress",
          "type": "address"
        }
      ],
      "stateMutability": "payable",
      "type": "function"
    },
    {
      "inputs": [],
      "name": "safeCreateNonFungibleToken",
      "outputs": [
        {
          "internalType": "address",
          "name": "tokenAddress",
          "type": "address"
        }
      ],
      "stateMutability": "payable",
      "type": "function"
    },
    {
      "inputs": [
        {
          "internalType": "address",
          "name": "feeCollector",
          "type": "address"
        },
        {
          "internalType": "address",
          "name": "existingTokenAddress",
          "type": "address"
        }
      ],
      "name": "safeCreateNonFungibleTokenWithCustomFees",
      "outputs": [
        {
          "internalType": "address",
          "name": "tokenAddress",
          "type": "address"
        }
      ],
      "stateMutability": "payable",
      "type": "function"
    },
    {
      "inputs": [
        {
          "components": [
            {
              "internalType": "address",
              "name": "token",
              "type": "address"
            },
            {
              "components": [
                {
                  "internalType": "address",
                  "name": "accountID",
                  "type": "address"
                },
                {
                  "internalType": "int64",
                  "name": "amount",
                  "type": "int64"
                },
                {
                  "internalType": "bool",
                  "name": "isApproval",
                  "type": "bool"
                }
              ],
              "internalType": "struct IHederaTokenService.AccountAmount[]",
              "name": "transfers",
              "type": "tuple[]"
            },
            {
              "components": [
                {
                  "internalType": "address",
                  "name": "senderAccountID",
                  "type": "address"
                },
                {
                  "internalType": "address",
                  "name": "receiverAccountID",
                  "type": "address"
                },
                {
                  "internalType": "int64",
                  "name": "serialNumber",
                  "type": "int64"
                },
                {
                  "internalType": "bool",
                  "name": "isApproval",
                  "type": "bool"
                }
              ],
              "internalType": "struct IHederaTokenService.NftTransfer[]",
              "name": "nftTransfers",
              "type": "tuple[]"
            }
          ],
          "internalType": "struct IHederaTokenService.TokenTransferList[]",
          "name": "tokenTransfers",
          "type": "tuple[]"
        }
      ],
      "name": "safeCryptoTransfer",
      "outputs": [],
      "stateMutability": "nonpayable",
      "type": "function"
    },
    {
      "inputs": [
        {
          "internalType": "address",
          "name": "token",
          "type": "address"
        }
      ],
      "name": "safeDeleteToken",
      "outputs": [],
      "stateMutability": "nonpayable",
      "type": "function"
    },
    {
      "inputs": [
        {
          "internalType": "address",
          "name": "sender",
          "type": "address"
        },
        {
          "internalType": "address",
          "name": "tokenAddress",
          "type": "address"
        }
      ],
      "name": "safeDissociateToken",
      "outputs": [],
      "stateMutability": "nonpayable",
      "type": "function"
    },
    {
      "inputs": [
        {
          "internalType": "address",
          "name": "account",
          "type": "address"
        },
        {
          "internalType": "address[]",
          "name": "tokens",
          "type": "address[]"
        }
      ],
      "name": "safeDissociateTokens",
      "outputs": [],
      "stateMutability": "nonpayable",
      "type": "function"
    },
    {
      "inputs": [
        {
          "internalType": "address",
          "name": "token",
          "type": "address"
        },
        {
          "internalType": "address",
          "name": "account",
          "type": "address"
        }
      ],
      "name": "safeFreezeToken",
      "outputs": [],
      "stateMutability": "nonpayable",
      "type": "function"
    },
    {
      "inputs": [
        {
          "internalType": "address",
          "name": "token",
          "type": "address"
        },
        {
          "internalType": "int64",
          "name": "serialNumber",
          "type": "int64"
        }
      ],
      "name": "safeGetApproved",
      "outputs": [
        {
          "internalType": "address",
          "name": "approved",
          "type": "address"
        }
      ],
      "stateMutability": "nonpayable",
      "type": "function"
    },
    {
      "inputs": [
        {
          "internalType": "address",
          "name": "token",
          "type": "address"
        }
      ],
      "name": "safeGetFungibleTokenInfo",
      "outputs": [
        {
          "components": [
            {
              "components": [
                {
                  "components": [
                    {
                      "internalType": "string",
                      "name": "name",
                      "type": "string"
                    },
                    {
                      "internalType": "string",
                      "name": "symbol",
                      "type": "string"
                    },
                    {
                      "internalType": "address",
                      "name": "treasury",
                      "type": "address"
                    },
                    {
                      "internalType": "string",
                      "name": "memo",
                      "type": "string"
                    },
                    {
                      "internalType": "bool",
                      "name": "tokenSupplyType",
                      "type": "bool"
                    },
                    {
                      "internalType": "int64",
                      "name": "maxSupply",
                      "type": "int64"
                    },
                    {
                      "internalType": "bool",
                      "name": "freezeDefault",
                      "type": "bool"
                    },
                    {
                      "components": [
                        {
                          "internalType": "uint256",
                          "name": "keyType",
                          "type": "uint256"
                        },
                        {
                          "components": [
                            {
                              "internalType": "bool",
                              "name": "inheritAccountKey",
                              "type": "bool"
                            },
                            {
                              "internalType": "address",
                              "name": "contractId",
                              "type": "address"
                            },
                            {
                              "internalType": "bytes",
                              "name": "ed25519",
                              "type": "bytes"
                            },
                            {
                              "internalType": "bytes",
                              "name": "ECDSA_secp256k1",
                              "type": "bytes"
                            },
                            {
                              "internalType": "address",
                              "name": "delegatableContractId",
                              "type": "address"
                            }
                          ],
                          "internalType": "struct IHederaTokenService.KeyValue",
                          "name": "key",
                          "type": "tuple"
                        }
                      ],
                      "internalType": "struct IHederaTokenService.TokenKey[]",
                      "name": "tokenKeys",
                      "type": "tuple[]"
                    },
                    {
                      "components": [
                        {
                          "internalType": "int64",
                          "name": "second",
                          "type": "int64"
                        },
                        {
                          "internalType": "address",
                          "name": "autoRenewAccount",
                          "type": "address"
                        },
                        {
                          "internalType": "int64",
                          "name": "autoRenewPeriod",
                          "type": "int64"
                        }
                      ],
                      "internalType": "struct IHederaTokenService.Expiry",
                      "name": "expiry",
                      "type": "tuple"
                    }
                  ],
                  "internalType": "struct IHederaTokenService.HederaToken",
                  "name": "token",
                  "type": "tuple"
                },
                {
                  "internalType": "int64",
                  "name": "totalSupply",
                  "type": "int64"
                },
                {
                  "internalType": "bool",
                  "name": "deleted",
                  "type": "bool"
                },
                {
                  "internalType": "bool",
                  "name": "defaultKycStatus",
                  "type": "bool"
                },
                {
                  "internalType": "bool",
                  "name": "pauseStatus",
                  "type": "bool"
                },
                {
                  "components": [
                    {
                      "internalType": "int64",
                      "name": "amount",
                      "type": "int64"
                    },
                    {
                      "internalType": "address",
                      "name": "tokenId",
                      "type": "address"
                    },
                    {
                      "internalType": "bool",
                      "name": "useHbarsForPayment",
                      "type": "bool"
                    },
                    {
                      "internalType": "bool",
                      "name": "useCurrentTokenForPayment",
                      "type": "bool"
                    },
                    {
                      "internalType": "address",
                      "name": "feeCollector",
                      "type": "address"
                    }
                  ],
                  "internalType": "struct IHederaTokenService.FixedFee[]",
                  "name": "fixedFees",
                  "type": "tuple[]"
                },
                {
                  "components": [
                    {
                      "internalType": "int64",
                      "name": "numerator",
                      "type": "int64"
                    },
                    {
                      "internalType": "int64",
                      "name": "denominator",
                      "type": "int64"
                    },
                    {
                      "internalType": "int64",
                      "name": "minimumAmount",
                      "type": "int64"
                    },
                    {
                      "internalType": "int64",
                      "name": "maximumAmount",
                      "type": "int64"
                    },
                    {
                      "internalType": "bool",
                      "name": "netOfTransfers",
                      "type": "bool"
                    },
                    {
                      "internalType": "address",
                      "name": "feeCollector",
                      "type": "address"
                    }
                  ],
                  "internalType": "struct IHederaTokenService.FractionalFee[]",
                  "name": "fractionalFees",
                  "type": "tuple[]"
                },
                {
                  "components": [
                    {
                      "internalType": "int64",
                      "name": "numerator",
                      "type": "int64"
                    },
                    {
                      "internalType": "int64",
                      "name": "denominator",
                      "type": "int64"
                    },
                    {
                      "internalType": "int64",
                      "name": "amount",
                      "type": "int64"
                    },
                    {
                      "internalType": "address",
                      "name": "tokenId",
                      "type": "address"
                    },
                    {
                      "internalType": "bool",
                      "name": "useHbarsForPayment",
                      "type": "bool"
                    },
                    {
                      "internalType": "address",
                      "name": "feeCollector",
                      "type": "address"
                    }
                  ],
                  "internalType": "struct IHederaTokenService.RoyaltyFee[]",
                  "name": "royaltyFees",
                  "type": "tuple[]"
                },
                {
                  "internalType": "string",
                  "name": "ledgerId",
                  "type": "string"
                }
              ],
              "internalType": "struct IHederaTokenService.TokenInfo",
              "name": "tokenInfo",
              "type": "tuple"
            },
            {
              "internalType": "int32",
              "name": "decimals",
              "type": "int32"
            }
          ],
          "internalType": "struct IHederaTokenService.FungibleTokenInfo",
          "name": "fungibleTokenInfo",
          "type": "tuple"
        }
      ],
      "stateMutability": "nonpayable",
      "type": "function"
    },
    {
      "inputs": [
        {
          "internalType": "address",
          "name": "token",
          "type": "address"
        },
        {
          "internalType": "int64",
          "name": "serialNumber",
          "type": "int64"
        }
      ],
      "name": "safeGetNonFungibleTokenInfo",
      "outputs": [
        {
          "components": [
            {
              "components": [
                {
                  "components": [
                    {
                      "internalType": "string",
                      "name": "name",
                      "type": "string"
                    },
                    {
                      "internalType": "string",
                      "name": "symbol",
                      "type": "string"
                    },
                    {
                      "internalType": "address",
                      "name": "treasury",
                      "type": "address"
                    },
                    {
                      "internalType": "string",
                      "name": "memo",
                      "type": "string"
                    },
                    {
                      "internalType": "bool",
                      "name": "tokenSupplyType",
                      "type": "bool"
                    },
                    {
                      "internalType": "int64",
                      "name": "maxSupply",
                      "type": "int64"
                    },
                    {
                      "internalType": "bool",
                      "name": "freezeDefault",
                      "type": "bool"
                    },
                    {
                      "components": [
                        {
                          "internalType": "uint256",
                          "name": "keyType",
                          "type": "uint256"
                        },
                        {
                          "components": [
                            {
                              "internalType": "bool",
                              "name": "inheritAccountKey",
                              "type": "bool"
                            },
                            {
                              "internalType": "address",
                              "name": "contractId",
                              "type": "address"
                            },
                            {
                              "internalType": "bytes",
                              "name": "ed25519",
                              "type": "bytes"
                            },
                            {
                              "internalType": "bytes",
                              "name": "ECDSA_secp256k1",
                              "type": "bytes"
                            },
                            {
                              "internalType": "address",
                              "name": "delegatableContractId",
                              "type": "address"
                            }
                          ],
                          "internalType": "struct IHederaTokenService.KeyValue",
                          "name": "key",
                          "type": "tuple"
                        }
                      ],
                      "internalType": "struct IHederaTokenService.TokenKey[]",
                      "name": "tokenKeys",
                      "type": "tuple[]"
                    },
                    {
                      "components": [
                        {
                          "internalType": "int64",
                          "name": "second",
                          "type": "int64"
                        },
                        {
                          "internalType": "address",
                          "name": "autoRenewAccount",
                          "type": "address"
                        },
                        {
                          "internalType": "int64",
                          "name": "autoRenewPeriod",
                          "type": "int64"
                        }
                      ],
                      "internalType": "struct IHederaTokenService.Expiry",
                      "name": "expiry",
                      "type": "tuple"
                    }
                  ],
                  "internalType": "struct IHederaTokenService.HederaToken",
                  "name": "token",
                  "type": "tuple"
                },
                {
                  "internalType": "int64",
                  "name": "totalSupply",
                  "type": "int64"
                },
                {
                  "internalType": "bool",
                  "name": "deleted",
                  "type": "bool"
                },
                {
                  "internalType": "bool",
                  "name": "defaultKycStatus",
                  "type": "bool"
                },
                {
                  "internalType": "bool",
                  "name": "pauseStatus",
                  "type": "bool"
                },
                {
                  "components": [
                    {
                      "internalType": "int64",
                      "name": "amount",
                      "type": "int64"
                    },
                    {
                      "internalType": "address",
                      "name": "tokenId",
                      "type": "address"
                    },
                    {
                      "internalType": "bool",
                      "name": "useHbarsForPayment",
                      "type": "bool"
                    },
                    {
                      "internalType": "bool",
                      "name": "useCurrentTokenForPayment",
                      "type": "bool"
                    },
                    {
                      "internalType": "address",
                      "name": "feeCollector",
                      "type": "address"
                    }
                  ],
                  "internalType": "struct IHederaTokenService.FixedFee[]",
                  "name": "fixedFees",
                  "type": "tuple[]"
                },
                {
                  "components": [
                    {
                      "internalType": "int64",
                      "name": "numerator",
                      "type": "int64"
                    },
                    {
                      "internalType": "int64",
                      "name": "denominator",
                      "type": "int64"
                    },
                    {
                      "internalType": "int64",
                      "name": "minimumAmount",
                      "type": "int64"
                    },
                    {
                      "internalType": "int64",
                      "name": "maximumAmount",
                      "type": "int64"
                    },
                    {
                      "internalType": "bool",
                      "name": "netOfTransfers",
                      "type": "bool"
                    },
                    {
                      "internalType": "address",
                      "name": "feeCollector",
                      "type": "address"
                    }
                  ],
                  "internalType": "struct IHederaTokenService.FractionalFee[]",
                  "name": "fractionalFees",
                  "type": "tuple[]"
                },
                {
                  "components": [
                    {
                      "internalType": "int64",
                      "name": "numerator",
                      "type": "int64"
                    },
                    {
                      "internalType": "int64",
                      "name": "denominator",
                      "type": "int64"
                    },
                    {
                      "internalType": "int64",
                      "name": "amount",
                      "type": "int64"
                    },
                    {
                      "internalType": "address",
                      "name": "tokenId",
                      "type": "address"
                    },
                    {
                      "internalType": "bool",
                      "name": "useHbarsForPayment",
                      "type": "bool"
                    },
                    {
                      "internalType": "address",
                      "name": "feeCollector",
                      "type": "address"
                    }
                  ],
                  "internalType": "struct IHederaTokenService.RoyaltyFee[]",
                  "name": "royaltyFees",
                  "type": "tuple[]"
                },
                {
                  "internalType": "string",
                  "name": "ledgerId",
                  "type": "string"
                }
              ],
              "internalType": "struct IHederaTokenService.TokenInfo",
              "name": "tokenInfo",
              "type": "tuple"
            },
            {
              "internalType": "int64",
              "name": "serialNumber",
              "type": "int64"
            },
            {
              "internalType": "address",
              "name": "ownerId",
              "type": "address"
            },
            {
              "internalType": "int64",
              "name": "creationTime",
              "type": "int64"
            },
            {
              "internalType": "bytes",
              "name": "metadata",
              "type": "bytes"
            },
            {
              "internalType": "address",
              "name": "spenderId",
              "type": "address"
            }
          ],
          "internalType": "struct IHederaTokenService.NonFungibleTokenInfo",
          "name": "nonFungibleTokenInfo",
          "type": "tuple"
        }
      ],
      "stateMutability": "nonpayable",
      "type": "function"
    },
    {
      "inputs": [
        {
          "internalType": "address",
          "name": "token",
          "type": "address"
        }
      ],
      "name": "safeGetTokenCustomFees",
      "outputs": [
        {
          "components": [
            {
              "internalType": "int64",
              "name": "amount",
              "type": "int64"
            },
            {
              "internalType": "address",
              "name": "tokenId",
              "type": "address"
            },
            {
              "internalType": "bool",
              "name": "useHbarsForPayment",
              "type": "bool"
            },
            {
              "internalType": "bool",
              "name": "useCurrentTokenForPayment",
              "type": "bool"
            },
            {
              "internalType": "address",
              "name": "feeCollector",
              "type": "address"
            }
          ],
          "internalType": "struct IHederaTokenService.FixedFee[]",
          "name": "fixedFees",
          "type": "tuple[]"
        },
        {
          "components": [
            {
              "internalType": "int64",
              "name": "numerator",
              "type": "int64"
            },
            {
              "internalType": "int64",
              "name": "denominator",
              "type": "int64"
            },
            {
              "internalType": "int64",
              "name": "minimumAmount",
              "type": "int64"
            },
            {
              "internalType": "int64",
              "name": "maximumAmount",
              "type": "int64"
            },
            {
              "internalType": "bool",
              "name": "netOfTransfers",
              "type": "bool"
            },
            {
              "internalType": "address",
              "name": "feeCollector",
              "type": "address"
            }
          ],
          "internalType": "struct IHederaTokenService.FractionalFee[]",
          "name": "fractionalFees",
          "type": "tuple[]"
        },
        {
          "components": [
            {
              "internalType": "int64",
              "name": "numerator",
              "type": "int64"
            },
            {
              "internalType": "int64",
              "name": "denominator",
              "type": "int64"
            },
            {
              "internalType": "int64",
              "name": "amount",
              "type": "int64"
            },
            {
              "internalType": "address",
              "name": "tokenId",
              "type": "address"
            },
            {
              "internalType": "bool",
              "name": "useHbarsForPayment",
              "type": "bool"
            },
            {
              "internalType": "address",
              "name": "feeCollector",
              "type": "address"
            }
          ],
          "internalType": "struct IHederaTokenService.RoyaltyFee[]",
          "name": "royaltyFees",
          "type": "tuple[]"
        }
      ],
      "stateMutability": "nonpayable",
      "type": "function"
    },
    {
      "inputs": [
        {
          "internalType": "address",
          "name": "token",
          "type": "address"
        }
      ],
      "name": "safeGetTokenDefaultFreezeStatus",
      "outputs": [
        {
          "internalType": "bool",
          "name": "defaultFreezeStatus",
          "type": "bool"
        }
      ],
      "stateMutability": "nonpayable",
      "type": "function"
    },
    {
      "inputs": [
        {
          "internalType": "address",
          "name": "token",
          "type": "address"
        }
      ],
      "name": "safeGetTokenDefaultKycStatus",
      "outputs": [
        {
          "internalType": "bool",
          "name": "defaultKycStatus",
          "type": "bool"
        }
      ],
      "stateMutability": "nonpayable",
      "type": "function"
    },
    {
      "inputs": [
        {
          "internalType": "address",
          "name": "token",
          "type": "address"
        }
      ],
      "name": "safeGetTokenExpiryInfo",
      "outputs": [
        {
          "components": [
            {
              "internalType": "int64",
              "name": "second",
              "type": "int64"
            },
            {
              "internalType": "address",
              "name": "autoRenewAccount",
              "type": "address"
            },
            {
              "internalType": "int64",
              "name": "autoRenewPeriod",
              "type": "int64"
            }
          ],
          "internalType": "struct IHederaTokenService.Expiry",
          "name": "expiry",
          "type": "tuple"
        }
      ],
      "stateMutability": "nonpayable",
      "type": "function"
    },
    {
      "inputs": [
        {
          "internalType": "address",
          "name": "token",
          "type": "address"
        }
      ],
      "name": "safeGetTokenInfo",
      "outputs": [
        {
          "components": [
            {
              "components": [
                {
                  "internalType": "string",
                  "name": "name",
                  "type": "string"
                },
                {
                  "internalType": "string",
                  "name": "symbol",
                  "type": "string"
                },
                {
                  "internalType": "address",
                  "name": "treasury",
                  "type": "address"
                },
                {
                  "internalType": "string",
                  "name": "memo",
                  "type": "string"
                },
                {
                  "internalType": "bool",
                  "name": "tokenSupplyType",
                  "type": "bool"
                },
                {
                  "internalType": "int64",
                  "name": "maxSupply",
                  "type": "int64"
                },
                {
                  "internalType": "bool",
                  "name": "freezeDefault",
                  "type": "bool"
                },
                {
                  "components": [
                    {
                      "internalType": "uint256",
                      "name": "keyType",
                      "type": "uint256"
                    },
                    {
                      "components": [
                        {
                          "internalType": "bool",
                          "name": "inheritAccountKey",
                          "type": "bool"
                        },
                        {
                          "internalType": "address",
                          "name": "contractId",
                          "type": "address"
                        },
                        {
                          "internalType": "bytes",
                          "name": "ed25519",
                          "type": "bytes"
                        },
                        {
                          "internalType": "bytes",
                          "name": "ECDSA_secp256k1",
                          "type": "bytes"
                        },
                        {
                          "internalType": "address",
                          "name": "delegatableContractId",
                          "type": "address"
                        }
                      ],
                      "internalType": "struct IHederaTokenService.KeyValue",
                      "name": "key",
                      "type": "tuple"
                    }
                  ],
                  "internalType": "struct IHederaTokenService.TokenKey[]",
                  "name": "tokenKeys",
                  "type": "tuple[]"
                },
                {
                  "components": [
                    {
                      "internalType": "int64",
                      "name": "second",
                      "type": "int64"
                    },
                    {
                      "internalType": "address",
                      "name": "autoRenewAccount",
                      "type": "address"
                    },
                    {
                      "internalType": "int64",
                      "name": "autoRenewPeriod",
                      "type": "int64"
                    }
                  ],
                  "internalType": "struct IHederaTokenService.Expiry",
                  "name": "expiry",
                  "type": "tuple"
                }
              ],
              "internalType": "struct IHederaTokenService.HederaToken",
              "name": "token",
              "type": "tuple"
            },
            {
              "internalType": "int64",
              "name": "totalSupply",
              "type": "int64"
            },
            {
              "internalType": "bool",
              "name": "deleted",
              "type": "bool"
            },
            {
              "internalType": "bool",
              "name": "defaultKycStatus",
              "type": "bool"
            },
            {
              "internalType": "bool",
              "name": "pauseStatus",
              "type": "bool"
            },
            {
              "components": [
                {
                  "internalType": "int64",
                  "name": "amount",
                  "type": "int64"
                },
                {
                  "internalType": "address",
                  "name": "tokenId",
                  "type": "address"
                },
                {
                  "internalType": "bool",
                  "name": "useHbarsForPayment",
                  "type": "bool"
                },
                {
                  "internalType": "bool",
                  "name": "useCurrentTokenForPayment",
                  "type": "bool"
                },
                {
                  "internalType": "address",
                  "name": "feeCollector",
                  "type": "address"
                }
              ],
              "internalType": "struct IHederaTokenService.FixedFee[]",
              "name": "fixedFees",
              "type": "tuple[]"
            },
            {
              "components": [
                {
                  "internalType": "int64",
                  "name": "numerator",
                  "type": "int64"
                },
                {
                  "internalType": "int64",
                  "name": "denominator",
                  "type": "int64"
                },
                {
                  "internalType": "int64",
                  "name": "minimumAmount",
                  "type": "int64"
                },
                {
                  "internalType": "int64",
                  "name": "maximumAmount",
                  "type": "int64"
                },
                {
                  "internalType": "bool",
                  "name": "netOfTransfers",
                  "type": "bool"
                },
                {
                  "internalType": "address",
                  "name": "feeCollector",
                  "type": "address"
                }
              ],
              "internalType": "struct IHederaTokenService.FractionalFee[]",
              "name": "fractionalFees",
              "type": "tuple[]"
            },
            {
              "components": [
                {
                  "internalType": "int64",
                  "name": "numerator",
                  "type": "int64"
                },
                {
                  "internalType": "int64",
                  "name": "denominator",
                  "type": "int64"
                },
                {
                  "internalType": "int64",
                  "name": "amount",
                  "type": "int64"
                },
                {
                  "internalType": "address",
                  "name": "tokenId",
                  "type": "address"
                },
                {
                  "internalType": "bool",
                  "name": "useHbarsForPayment",
                  "type": "bool"
                },
                {
                  "internalType": "address",
                  "name": "feeCollector",
                  "type": "address"
                }
              ],
              "internalType": "struct IHederaTokenService.RoyaltyFee[]",
              "name": "royaltyFees",
              "type": "tuple[]"
            },
            {
              "internalType": "string",
              "name": "ledgerId",
              "type": "string"
            }
          ],
          "internalType": "struct IHederaTokenService.TokenInfo",
          "name": "tokenInfo",
          "type": "tuple"
        }
      ],
      "stateMutability": "nonpayable",
      "type": "function"
    },
    {
      "inputs": [
        {
          "internalType": "address",
          "name": "token",
          "type": "address"
        },
        {
          "internalType": "uint256",
          "name": "keyType",
          "type": "uint256"
        }
      ],
      "name": "safeGetTokenKey",
      "outputs": [
        {
          "components": [
            {
              "internalType": "bool",
              "name": "inheritAccountKey",
              "type": "bool"
            },
            {
              "internalType": "address",
              "name": "contractId",
              "type": "address"
            },
            {
              "internalType": "bytes",
              "name": "ed25519",
              "type": "bytes"
            },
            {
              "internalType": "bytes",
              "name": "ECDSA_secp256k1",
              "type": "bytes"
            },
            {
              "internalType": "address",
              "name": "delegatableContractId",
              "type": "address"
            }
          ],
          "internalType": "struct IHederaTokenService.KeyValue",
          "name": "key",
          "type": "tuple"
        }
      ],
      "stateMutability": "nonpayable",
      "type": "function"
    },
    {
      "inputs": [
        {
          "internalType": "address",
          "name": "token",
          "type": "address"
        }
      ],
      "name": "safeGetTokenType",
      "outputs": [
        {
          "internalType": "int32",
          "name": "tokenType",
          "type": "int32"
        }
      ],
      "stateMutability": "nonpayable",
      "type": "function"
    },
    {
      "inputs": [
        {
          "internalType": "address",
          "name": "token",
          "type": "address"
        },
        {
          "internalType": "address",
          "name": "account",
          "type": "address"
        }
      ],
      "name": "safeGrantTokenKyc",
      "outputs": [],
      "stateMutability": "nonpayable",
      "type": "function"
    },
    {
      "inputs": [
        {
          "internalType": "address",
          "name": "token",
          "type": "address"
        },
        {
          "internalType": "address",
          "name": "owner",
          "type": "address"
        },
        {
          "internalType": "address",
          "name": "operator",
          "type": "address"
        }
      ],
      "name": "safeIsApprovedForAll",
      "outputs": [
        {
          "internalType": "bool",
          "name": "approved",
          "type": "bool"
        }
      ],
      "stateMutability": "nonpayable",
      "type": "function"
    },
    {
      "inputs": [
        {
          "internalType": "address",
          "name": "token",
          "type": "address"
        },
        {
          "internalType": "address",
          "name": "account",
          "type": "address"
        }
      ],
      "name": "safeIsFrozen",
      "outputs": [
        {
          "internalType": "bool",
          "name": "frozen",
          "type": "bool"
        }
      ],
      "stateMutability": "nonpayable",
      "type": "function"
    },
    {
      "inputs": [
        {
          "internalType": "address",
          "name": "token",
          "type": "address"
        },
        {
          "internalType": "address",
          "name": "account",
          "type": "address"
        }
      ],
      "name": "safeIsKyc",
      "outputs": [
        {
          "internalType": "bool",
          "name": "kycGranted",
          "type": "bool"
        }
      ],
      "stateMutability": "nonpayable",
      "type": "function"
    },
    {
      "inputs": [
        {
          "internalType": "address",
          "name": "token",
          "type": "address"
        }
      ],
      "name": "safeIsToken",
      "outputs": [
        {
          "internalType": "bool",
          "name": "isToken",
          "type": "bool"
        }
      ],
      "stateMutability": "nonpayable",
      "type": "function"
    },
    {
      "inputs": [
        {
          "internalType": "address",
          "name": "token",
          "type": "address"
        },
        {
          "internalType": "int64",
          "name": "amount",
          "type": "int64"
        },
        {
          "internalType": "bytes[]",
          "name": "metadata",
          "type": "bytes[]"
        }
      ],
      "name": "safeMintToken",
      "outputs": [
        {
          "internalType": "int64",
          "name": "newTotalSupply",
          "type": "int64"
        },
        {
          "internalType": "int64[]",
          "name": "serialNumbers",
          "type": "int64[]"
        }
      ],
      "stateMutability": "nonpayable",
      "type": "function"
    },
    {
      "inputs": [
        {
          "internalType": "address",
          "name": "token",
          "type": "address"
        }
      ],
      "name": "safePauseToken",
      "outputs": [],
      "stateMutability": "nonpayable",
      "type": "function"
    },
    {
      "inputs": [
        {
          "internalType": "address",
          "name": "token",
          "type": "address"
        },
        {
          "internalType": "address",
          "name": "account",
          "type": "address"
        }
      ],
      "name": "safeRevokeTokenKyc",
      "outputs": [],
      "stateMutability": "nonpayable",
      "type": "function"
    },
    {
      "inputs": [
        {
          "internalType": "address",
          "name": "token",
          "type": "address"
        },
        {
          "internalType": "address",
          "name": "operator",
          "type": "address"
        },
        {
          "internalType": "bool",
          "name": "approved",
          "type": "bool"
        }
      ],
      "name": "safeSetApprovalForAll",
      "outputs": [],
      "stateMutability": "nonpayable",
      "type": "function"
    },
    {
      "inputs": [
        {
          "internalType": "address",
          "name": "token",
          "type": "address"
        },
        {
          "internalType": "address",
          "name": "sender",
          "type": "address"
        },
        {
          "internalType": "address",
          "name": "receiver",
          "type": "address"
        },
        {
          "internalType": "int64",
          "name": "serialNum",
          "type": "int64"
        }
      ],
      "name": "safeTransferNFT",
      "outputs": [],
      "stateMutability": "nonpayable",
      "type": "function"
    },
    {
      "inputs": [
        {
          "internalType": "address",
          "name": "token",
          "type": "address"
        },
        {
          "internalType": "address[]",
          "name": "sender",
          "type": "address[]"
        },
        {
          "internalType": "address[]",
          "name": "receiver",
          "type": "address[]"
        },
        {
          "internalType": "int64[]",
          "name": "serialNumber",
          "type": "int64[]"
        }
      ],
      "name": "safeTransferNFTs",
      "outputs": [],
      "stateMutability": "nonpayable",
      "type": "function"
    },
    {
      "inputs": [
        {
          "internalType": "address",
          "name": "token",
          "type": "address"
        },
        {
          "internalType": "address",
          "name": "sender",
          "type": "address"
        },
        {
          "internalType": "address",
          "name": "receiver",
          "type": "address"
        },
        {
          "internalType": "int64",
          "name": "amount",
          "type": "int64"
        }
      ],
      "name": "safeTransferToken",
      "outputs": [],
      "stateMutability": "nonpayable",
      "type": "function"
    },
    {
      "inputs": [
        {
          "internalType": "address",
          "name": "token",
          "type": "address"
        },
        {
          "internalType": "address[]",
          "name": "accountIds",
          "type": "address[]"
        },
        {
          "internalType": "int64[]",
          "name": "amounts",
          "type": "int64[]"
        }
      ],
      "name": "safeTransferTokens",
      "outputs": [],
      "stateMutability": "nonpayable",
      "type": "function"
    },
    {
      "inputs": [
        {
          "internalType": "address",
          "name": "token",
          "type": "address"
        },
        {
          "internalType": "address",
          "name": "account",
          "type": "address"
        }
      ],
      "name": "safeUnfreezeToken",
      "outputs": [],
      "stateMutability": "nonpayable",
      "type": "function"
    },
    {
      "inputs": [
        {
          "internalType": "address",
          "name": "token",
          "type": "address"
        }
      ],
      "name": "safeUnpauseToken",
      "outputs": [],
      "stateMutability": "nonpayable",
      "type": "function"
    },
    {
      "inputs": [
        {
          "internalType": "address",
          "name": "token",
          "type": "address"
        },
        {
          "components": [
            {
              "internalType": "int64",
              "name": "second",
              "type": "int64"
            },
            {
              "internalType": "address",
              "name": "autoRenewAccount",
              "type": "address"
            },
            {
              "internalType": "int64",
              "name": "autoRenewPeriod",
              "type": "int64"
            }
          ],
          "internalType": "struct IHederaTokenService.Expiry",
          "name": "expiryInfo",
          "type": "tuple"
        }
      ],
      "name": "safeUpdateTokenExpiryInfo",
      "outputs": [],
      "stateMutability": "nonpayable",
      "type": "function"
    },
    {
      "inputs": [
        {
          "internalType": "address",
          "name": "token",
          "type": "address"
        },
        {
          "components": [
            {
              "internalType": "string",
              "name": "name",
              "type": "string"
            },
            {
              "internalType": "string",
              "name": "symbol",
              "type": "string"
            },
            {
              "internalType": "address",
              "name": "treasury",
              "type": "address"
            },
            {
              "internalType": "string",
              "name": "memo",
              "type": "string"
            },
            {
              "internalType": "bool",
              "name": "tokenSupplyType",
              "type": "bool"
            },
            {
              "internalType": "int64",
              "name": "maxSupply",
              "type": "int64"
            },
            {
              "internalType": "bool",
              "name": "freezeDefault",
              "type": "bool"
            },
            {
              "components": [
                {
                  "internalType": "uint256",
                  "name": "keyType",
                  "type": "uint256"
                },
                {
                  "components": [
                    {
                      "internalType": "bool",
                      "name": "inheritAccountKey",
                      "type": "bool"
                    },
                    {
                      "internalType": "address",
                      "name": "contractId",
                      "type": "address"
                    },
                    {
                      "internalType": "bytes",
                      "name": "ed25519",
                      "type": "bytes"
                    },
                    {
                      "internalType": "bytes",
                      "name": "ECDSA_secp256k1",
                      "type": "bytes"
                    },
                    {
                      "internalType": "address",
                      "name": "delegatableContractId",
                      "type": "address"
                    }
                  ],
                  "internalType": "struct IHederaTokenService.KeyValue",
                  "name": "key",
                  "type": "tuple"
                }
              ],
              "internalType": "struct IHederaTokenService.TokenKey[]",
              "name": "tokenKeys",
              "type": "tuple[]"
            },
            {
              "components": [
                {
                  "internalType": "int64",
                  "name": "second",
                  "type": "int64"
                },
                {
                  "internalType": "address",
                  "name": "autoRenewAccount",
                  "type": "address"
                },
                {
                  "internalType": "int64",
                  "name": "autoRenewPeriod",
                  "type": "int64"
                }
              ],
              "internalType": "struct IHederaTokenService.Expiry",
              "name": "expiry",
              "type": "tuple"
            }
          ],
          "internalType": "struct IHederaTokenService.HederaToken",
          "name": "tokenInfo",
          "type": "tuple"
        }
      ],
      "name": "safeUpdateTokenInfo",
      "outputs": [],
      "stateMutability": "nonpayable",
      "type": "function"
    },
    {
      "inputs": [
        {
          "internalType": "address",
          "name": "token",
          "type": "address"
        },
        {
          "components": [
            {
              "internalType": "uint256",
              "name": "keyType",
              "type": "uint256"
            },
            {
              "components": [
                {
                  "internalType": "bool",
                  "name": "inheritAccountKey",
                  "type": "bool"
                },
                {
                  "internalType": "address",
                  "name": "contractId",
                  "type": "address"
                },
                {
                  "internalType": "bytes",
                  "name": "ed25519",
                  "type": "bytes"
                },
                {
                  "internalType": "bytes",
                  "name": "ECDSA_secp256k1",
                  "type": "bytes"
                },
                {
                  "internalType": "address",
                  "name": "delegatableContractId",
                  "type": "address"
                }
              ],
              "internalType": "struct IHederaTokenService.KeyValue",
              "name": "key",
              "type": "tuple"
            }
          ],
          "internalType": "struct IHederaTokenService.TokenKey[]",
          "name": "keys",
          "type": "tuple[]"
        }
      ],
      "name": "safeUpdateTokenKeys",
      "outputs": [],
      "stateMutability": "nonpayable",
      "type": "function"
    },
    {
      "inputs": [
        {
          "internalType": "address",
          "name": "token",
          "type": "address"
        },
        {
          "internalType": "address",
          "name": "account",
          "type": "address"
        },
        {
          "internalType": "int64",
          "name": "amount",
          "type": "int64"
        }
      ],
      "name": "safeWipeTokenAccount",
      "outputs": [],
      "stateMutability": "nonpayable",
      "type": "function"
    },
    {
      "inputs": [
        {
          "internalType": "address",
          "name": "token",
          "type": "address"
        },
        {
          "internalType": "address",
          "name": "account",
          "type": "address"
        },
        {
          "internalType": "int64[]",
          "name": "serialNumbers",
          "type": "int64[]"
        }
      ],
      "name": "safeWipeTokenAccountNFT",
      "outputs": [],
      "stateMutability": "nonpayable",
      "type": "function"
    }
  ],
  "bytecode": "0x608060405234801561000f575f80fd5b5061481f8061001d5f395ff3fe6080604052600436106102b5575f3560e01c806368b03db811610177578063978df2a2116100dc578063cf58c3ea11610087578063eb5625d911610062578063eb5625d91461084e578063eccc07c61461086d578063ed02ae711461088c575f80fd5b8063cf58c3ea14610808578063dfb3bfc414610827578063e1e7878414610846575f80fd5b8063b8a39cdd116100b7578063b8a39cdd1461079d578063ba2ad973146107bc578063be83aa99146107e9575f80fd5b8063978df2a21461074c5780639c7e98d01461076b5780639d632dc61461078a575f80fd5b80637c6c6a841161013c578063894c665311610117578063894c6653146106ef5780638d1433dd1461070e57806394f74f3e1461072d575f80fd5b80637c6c6a841461069257806382ddffbf146106b157806387e6877c146106d0575f80fd5b806368b03db8146105f55780636e4333fd146106205780636efe63a51461064c578063705314a01461066b57806371e3ecb31461068a575f80fd5b80633e54fba81161021d57806349c8532b116101e257806354a0b16c116101bd57806354a0b16c1461057857806355caeb09146105a4578063587da69a146105d6575f80fd5b806349c8532b1461051b5780634ddd613b1461053a5780635140d67d14610559575f80fd5b80633e54fba814610455578063421d02281461048457806344f8e471146104b157806348b14613146104dd5780634959707b146104fc575f80fd5b80631e4b26541161027d5780632ad145af116102585780632ad145af146103e957806330d2a9f2146104085780633364596e14610427575f80fd5b80631e4b2654146103795780631ffbb8d71461039857806327a84817146103b7575f80fd5b8063042a34b8146102b957806305923cee146102ee578063067fa1221461030f57806312d4da5e1461033b57806319cdce7e1461035a575b5f80fd5b3480156102c4575f80fd5b506102d86102d336600461223b565b6108ab565b6040516102e591906126d6565b60405180910390f35b3480156102f9575f80fd5b5061030d610308366004612723565b61096c565b005b34801561031a575f80fd5b5061032e61032936600461223b565b6109eb565b6040516102e5919061276b565b348015610346575f80fd5b5061030d610355366004612afa565b610aa0565b348015610365575f80fd5b5061030d61037436600461223b565b610b09565b348015610384575f80fd5b5061030d610393366004612723565b610b74565b3480156103a3575f80fd5b5061030d6103b2366004612c3a565b610bc6565b3480156103c2575f80fd5b506103d66103d1366004612cd2565b610c0e565b60405160079190910b81526020016102e5565b3480156103f4575f80fd5b5061030d610403366004612c3a565b610c92565b348015610413575f80fd5b5061030d610422366004612de3565b610cda565b348015610432575f80fd5b5061044661044136600461223b565b610d11565b6040516102e593929190612fa6565b348015610460575f80fd5b5061047461046f366004612fde565b610da1565b60405190151581526020016102e5565b34801561048f575f80fd5b506104a361049e36600461301b565b610e2d565b6040516102e59291906130ec565b3480156104bc575f80fd5b506104d06104cb36600461313f565b610eb8565b6040516102e59190613169565b3480156104e8575f80fd5b5061030d6104f736600461317b565b610f85565b348015610507575f80fd5b50610474610516366004612c3a565b610fd5565b348015610526575f80fd5b5061030d6105353660046131b8565b61105a565b348015610545575f80fd5b5061047461055436600461223b565b6110e2565b348015610564575f80fd5b50610474610573366004612c3a565b611165565b348015610583575f80fd5b50610597610592366004613211565b6111af565b6040516102e5919061323d565b3480156105af575f80fd5b506105c36105be36600461223b565b61123d565b60405160039190910b81526020016102e5565b3480156105e1575f80fd5b5061030d6105f03660046131b8565b6112b9565b610608610603366004612c3a565b611313565b6040516001600160a01b0390911681526020016102e5565b34801561062b575f80fd5b5061063f61063a36600461223b565b611419565b6040516102e591906132c0565b348015610657575f80fd5b5061030d6106663660046132f4565b6114ab565b348015610676575f80fd5b5061030d610685366004613382565b6114e6565b61060861151f565b34801561069d575f80fd5b5061030d6106ac3660046133cf565b611632565b3480156106bc575f80fd5b5061030d6106cb366004612c3a565b61166f565b3480156106db575f80fd5b5061030d6106ea366004613382565b6116b7565b3480156106fa575f80fd5b5061030d61070936600461223b565b6116f0565b348015610719575f80fd5b5061047461072836600461223b565b611730565b348015610738575f80fd5b5061030d610747366004612c3a565b611772565b348015610757575f80fd5b50610608610766366004613211565b6117ba565b348015610776575f80fd5b5061030d610785366004612c3a565b611840565b610608610798366004612c3a565b611888565b3480156107a8575f80fd5b5061030d6107b7366004613464565b6119ef565b3480156107c7575f80fd5b506107db6107d6366004612fde565b611a28565b6040519081526020016102e5565b3480156107f4575f80fd5b5061030d610803366004613498565b611ab4565b348015610813575f80fd5b5061030d61082236600461223b565b611aef565b348015610832575f80fd5b5061047461084136600461223b565b611b2f565b610608611b71565b348015610859575f80fd5b5061030d6108683660046134ff565b611c60565b348015610878575f80fd5b5061030d610887366004612c3a565b611caf565b348015610897575f80fd5b5061030d6108a636600461353d565b611cf7565b6108b3612102565b6040516285469760e31b81526001600160a01b038316600482015273__$64a275930a611d2694d2a05feb4a8b2aa0$__9063042a34b8906024015f60405180830381865af4158015610907573d5f803e3d5ffd5b505050506040513d5f823e601f3d908101601f1916820160405261092e9190810190613c37565b90507f7f7b8516e7531232cb589acb38a8b5b904865145667f48fe2ed0623a86e4a1f08160405161095f91906126d6565b60405180910390a1919050565b6040516302c91e7760e11b81526001600160a01b03808516600483015283166024820152600782900b604482015273__$64a275930a611d2694d2a05feb4a8b2aa0$__906305923cee906064015b5f6040518083038186803b1580156109d0575f80fd5b505af41580156109e2573d5f803e3d5ffd5b50505050505050565b6109f3612121565b60405163033fd09160e11b81526001600160a01b038316600482015273__$64a275930a611d2694d2a05feb4a8b2aa0$__9063067fa122906024015f60405180830381865af4158015610a48573d5f803e3d5ffd5b505050506040513d5f823e601f3d908101601f19168201604052610a6f9190810190613cb0565b90507f0ec0178c2674bea6c710e3ebf8acac901f6be0d51ab96110959e01fb1b223b278160405161095f919061276b565b6040516367ac845360e01b815273__$64a275930a611d2694d2a05feb4a8b2aa0$__906367ac845390610ad99085908590600401613e5f565b5f6040518083038186803b158015610aef575f80fd5b505af4158015610b01573d5f803e3d5ffd5b505050505050565b604051630ce6e73f60e11b81526001600160a01b038216600482015273__$64a275930a611d2694d2a05feb4a8b2aa0$__906319cdce7e906024015b5f6040518083038186803b158015610b5b575f80fd5b505af4158015610b6d573d5f803e3d5ffd5b5050505050565b604051630792c99560e21b81526001600160a01b03808516600483015283166024820152600782900b604482015273__$64a275930a611d2694d2a05feb4a8b2aa0$__90631e4b2654906064016109ba565b604051631ffbb8d760e01b81526001600160a01b0380841660048301528216602482015273__$64a275930a611d2694d2a05feb4a8b2aa0$__90631ffbb8d790604401610ad9565b6040516327a8481760e01b81525f9073__$64a275930a611d2694d2a05feb4a8b2aa0$__906327a8481790610c4b90879087908790600401613eb1565b602060405180830381865af4158015610c66573d5f803e3d5ffd5b505050506040513d601f19601f82011682018060405250810190610c8a9190613edb565b949350505050565b604051632ad145af60e01b81526001600160a01b0380831660048301528316602482015273__$64a275930a611d2694d2a05feb4a8b2aa0$__90632ad145af90604401610ad9565b604051630962e27b60e01b815273__$64a275930a611d2694d2a05feb4a8b2aa0$__90630962e27b90610b45908490600401613f55565b6040516319b22cb760e11b81526001600160a01b03821660048201526060908190819073__$64a275930a611d2694d2a05feb4a8b2aa0$__90633364596e906024015f60405180830381865af4158015610d6d573d5f803e3d5ffd5b505050506040513d5f823e601f3d908101601f19168201604052610d949190810190614029565b9196909550909350915050565b6040516307ca9f7560e31b81526001600160a01b0380851660048301528084166024830152821660448201525f9073__$64a275930a611d2694d2a05feb4a8b2aa0$__90633e54fba890606401602060405180830381865af4158015610e09573d5f803e3d5ffd5b505050506040513d601f19601f82011682018060405250810190610c8a91906140a1565b5f606073__$64a275930a611d2694d2a05feb4a8b2aa0$__63421d02288686866040518463ffffffff1660e01b8152600401610e6b939291906140bc565b5f60405180830381865af4158015610e85573d5f803e3d5ffd5b505050506040513d5f823e601f3d908101601f19168201604052610eac9190810190614137565b90969095509350505050565b610efb6040518060a001604052805f151581526020015f6001600160a01b0316815260200160608152602001606081526020015f6001600160a01b031681525090565b6040516344f8e47160e01b81526001600160a01b03841660048201526024810183905273__$64a275930a611d2694d2a05feb4a8b2aa0$__906344f8e471906044015f60405180830381865af4158015610f57573d5f803e3d5ffd5b505050506040513d5f823e601f3d908101601f19168201604052610f7e91908101906141e3565b9392505050565b6040516348b1461360e01b81526001600160a01b03808516600483015283166024820152811515604482015273__$64a275930a611d2694d2a05feb4a8b2aa0$__906348b14613906064016109ba565b604051634959707b60e01b81526001600160a01b038084166004830152821660248201525f9073__$64a275930a611d2694d2a05feb4a8b2aa0$__90634959707b906044015b602060405180830381865af4158015611036573d5f803e3d5ffd5b505050506040513d601f19601f82011682018060405250810190610f7e91906140a1565b6040516349c8532b60e01b81526001600160a01b038086166004830152808516602483015283166044820152600782900b606482015273__$64a275930a611d2694d2a05feb4a8b2aa0$__906349c8532b906084015b5f6040518083038186803b1580156110c6575f80fd5b505af41580156110d8573d5f803e3d5ffd5b5050505050505050565b604051634ddd613b60e01b81526001600160a01b03821660048201525f9073__$64a275930a611d2694d2a05feb4a8b2aa0$__90634ddd613b906024015b602060405180830381865af415801561113b573d5f803e3d5ffd5b505050506040513d601f19601f8201168201806040525081019061115f91906140a1565b92915050565b604051635140d67d60e01b81526001600160a01b038084166004830152821660248201525f9073__$64a275930a611d2694d2a05feb4a8b2aa0$__90635140d67d9060440161101b565b6111b7612178565b6040516315282c5b60e21b81526001600160a01b0384166004820152600783900b602482015273__$64a275930a611d2694d2a05feb4a8b2aa0$__906354a0b16c906044015f60405180830381865af4158015611216573d5f803e3d5ffd5b505050506040513d5f823e601f3d908101601f19168201604052610f7e9190810190614215565b6040516355caeb0960e01b81526001600160a01b03821660048201525f9073__$64a275930a611d2694d2a05feb4a8b2aa0$__906355caeb0990602401602060405180830381865af4158015611295573d5f803e3d5ffd5b505050506040513d601f19601f8201168201806040525081019061115f91906142e4565b604051632c3ed34d60e11b81526001600160a01b038086166004830152808516602483015283166044820152600782900b606482015273__$64a275930a611d2694d2a05feb4a8b2aa0$__9063587da69a906084016110b0565b5f61131c6121b2565b6040805180820182526009815268746f6b656e4e616d6560b81b60208083019190915290835281518083018352600b81526a1d1bdad95b94de5b589bdb60aa1b818301529083015230908201525f61137660018587611d30565b90505f61138c60046005600a601e60018b611eb1565b6040516341e3eeab60e01b815290915073__$64a275930a611d2694d2a05feb4a8b2aa0$__906341e3eeab906113d090869060c89060089088908890600401614376565b602060405180830381865af41580156113eb573d5f803e3d5ffd5b505050506040513d601f19601f8201168201806040525081019061140f9190614447565b9695505050505050565b604080516060810182525f80825260208201819052818301529051636e4333fd60e01b81526001600160a01b038316600482015273__$64a275930a611d2694d2a05feb4a8b2aa0$__90636e4333fd90602401606060405180830381865af4158015611487573d5f803e3d5ffd5b505050506040513d601f19601f8201168201806040525081019061115f9190614462565b604051636efe63a560e01b815273__$64a275930a611d2694d2a05feb4a8b2aa0$__90636efe63a5906109ba9086908690869060040161447c565b60405163038298a560e51b815273__$64a275930a611d2694d2a05feb4a8b2aa0$__9063705314a090610ad990859085906004016144de565b5f6115286121b2565b6040805180820182526009815268746f6b656e4e616d6560b81b60208083019190915290835281518083018352600b81526a1d1bdad95b94de5b589bdb60aa1b81830152908301523082820152516302004ccd60e01b815273__$64a275930a611d2694d2a05feb4a8b2aa0$__906302004ccd906115b090849060c8906008906004016144ff565b602060405180830381865af41580156115cb573d5f803e3d5ffd5b505050506040513d601f19601f820116820180604052508101906115ef9190614447565b6040516001600160a01b03821681529092507f2e2b3f61b70d2d131b2a807371103cc98d51adcaa5e9a8f9c32658ad8426e74e9060200160405180910390a15090565b604051631f1b1aa160e21b815273__$64a275930a611d2694d2a05feb4a8b2aa0$__90637c6c6a84906110b090879087908790879060040161452d565b6040516382ddffbf60e01b81526001600160a01b0380841660048301528216602482015273__$64a275930a611d2694d2a05feb4a8b2aa0$__906382ddffbf90604401610ad9565b6040516321f9a1df60e21b815273__$64a275930a611d2694d2a05feb4a8b2aa0$__906387e6877c90610ad990859085906004016144de565b60405163894c665360e01b81526001600160a01b038216600482015273__$64a275930a611d2694d2a05feb4a8b2aa0$__9063894c665390602401610b45565b604051638d1433dd60e01b81526001600160a01b03821660048201525f9073__$64a275930a611d2694d2a05feb4a8b2aa0$__90638d1433dd90602401611120565b604051634a7ba79f60e11b81526001600160a01b0380841660048301528216602482015273__$64a275930a611d2694d2a05feb4a8b2aa0$__906394f74f3e90604401610ad9565b604051634bc6f95160e11b81526001600160a01b0383166004820152600782900b60248201525f9073__$64a275930a611d2694d2a05feb4a8b2aa0$__9063978df2a290604401602060405180830381865af415801561181c573d5f803e3d5ffd5b505050506040513d601f19601f82011682018060405250810190610f7e9190614447565b6040516309c7e98d60e41b81526001600160a01b0380831660048301528316602482015273__$64a275930a611d2694d2a05feb4a8b2aa0$__90639c7e98d090604401610ad9565b5f6118916121b2565b6040805180820182526009815268746f6b656e4e616d6560b81b60208083019190915290835281518083018352600b81526a1d1bdad95b94de5b589bdb60aa1b8183015283820152815180830183526004808252636d656d6f60e01b92820192909252606084015230918301919091525f90611912906005600a8789611f76565b905073__$64a275930a611d2694d2a05feb4a8b2aa0$__63ccc261fe835f60405190808252806020026020018201604052801561198757816020015b6040805160a0810182525f808252602080830182905292820181905260608201819052608082015282525f1990920191018161194e5790505b50846040518463ffffffff1660e01b81526004016119a79392919061457f565b602060405180830381865af41580156119c2573d5f803e3d5ffd5b505050506040513d601f19601f820116820180604052508101906119e69190614447565b95945050505050565b6040516310e9065560e01b815273__$64a275930a611d2694d2a05feb4a8b2aa0$__906310e9065590610ad99085908590600401614631565b60405163ba2ad97360e01b81526001600160a01b0380851660048301528084166024830152821660448201525f9073__$64a275930a611d2694d2a05feb4a8b2aa0$__9063ba2ad97390606401602060405180830381865af4158015611a90573d5f803e3d5ffd5b505050506040513d601f19601f82011682018060405250810190610c8a9190614674565b60405163be83aa9960e01b815273__$64a275930a611d2694d2a05feb4a8b2aa0$__9063be83aa99906109ba9086908690869060040161468b565b6040516367ac61f560e11b81526001600160a01b038216600482015273__$64a275930a611d2694d2a05feb4a8b2aa0$__9063cf58c3ea90602401610b45565b6040516337eceff160e21b81526001600160a01b03821660048201525f9073__$64a275930a611d2694d2a05feb4a8b2aa0$__9063dfb3bfc490602401611120565b5f611b7a6121b2565b6040805180820182526009815268746f6b656e4e616d6560b81b60208083019190915290835281518083018352600b81526a1d1bdad95b94de5b589bdb60aa1b8183015283820152815180830183526004808252636d656d6f60e01b9282019290925260608401523083830152905163910f271160e01b815273__$64a275930a611d2694d2a05feb4a8b2aa0$__9163910f271191611c1b918591016146be565b602060405180830381865af4158015611c36573d5f803e3d5ffd5b505050506040513d601f19601f82011682018060405250810190611c5a9190614447565b91505090565b60405163eb5625d960e01b81526001600160a01b038085166004830152831660248201526044810182905273__$64a275930a611d2694d2a05feb4a8b2aa0$__9063eb5625d9906064016109ba565b60405163766603e360e11b81526001600160a01b0380841660048301528216602482015273__$64a275930a611d2694d2a05feb4a8b2aa0$__9063eccc07c690604401610ad9565b604051634e03000f60e01b815273__$64a275930a611d2694d2a05feb4a8b2aa0$__90634e03000f90610ad990859085906004016146d0565b60408051600380825260808201909252606091816020015b6040805160a0810182525f808252602080830182905292820181905260608201819052608082015282525f19909201910181611d485750506040805160a0810182525f91810182905260608101829052600387900b81526001600160a01b03868116602083015285166080820152919250611dfe611dc78760026147a3565b856040805160a0810182525f60208201819052606082015260039390930b83526001908301526001600160a01b0316608082015290565b90505f611e49611e0f8860046147a3565b866040805160a0810182525f602082018190529181019190915260039290920b8252600160608301526001600160a01b0316608082015290565b905082845f81518110611e5e57611e5e6147d5565b60200260200101819052508184600181518110611e7d57611e7d6147d5565b60200260200101819052508084600281518110611e9c57611e9c6147d5565b60200260200101819052505050509392505050565b604080516001808252818301909252606091816020015b6040805160c0810182525f8082526020808301829052928201819052606082018190526080820181905260a082015282525f19909201910181611ec85750506040805160c08101825260038a810b825289810b602083015288810b928201929092529086900b606082015284151560808201526001600160a01b03841660a082015290915080825f81518110611f6057611f606147d5565b6020026020010181905250509695505050505050565b60408051600380825260808201909252606091816020015b6040805160c0810182525f8082526020808301829052928201819052606082018190526080820181905260a082015282525f19909201910181611f8e5750506040805160c0810182525f9181018290526060810182905260808101829052600389810b825288900b60208201526001600160a01b03851660a0820152919250906040805160c08101825260038a810b825289810b602083015288900b918101919091525f60608201819052600160808301526001600160a01b03861660a08301529192506040805160c08101825260038b810b82528a810b602083015289900b918101919091526001600160a01b0380881660608301525f6080830181905290871660a0830152919250905082845f815181106120ad576120ad6147d5565b602002602001018190525081846001815181106120cc576120cc6147d5565b602002602001018190525080846002815181106120eb576120eb6147d5565b602002602001018190525050505095945050505050565b6040518060400160405280612115612121565b81525f60209091015290565b6040518061012001604052806121356121b2565b81526020015f60070b81526020015f151581526020015f151581526020015f15158152602001606081526020016060815260200160608152602001606081525090565b6040518060c0016040528061218b612121565b81525f60208201819052604082018190526060808301829052608083015260a09091015290565b6040805161012081018252606080825260208083018290525f8385018190528284018390526080840181905260a0840181905260c0840181905260e0840183905284519283018552808352908201819052928101929092529061010082015290565b6001600160a01b0381168114612228575f80fd5b50565b803561223681612214565b919050565b5f6020828403121561224b575f80fd5b8135610f7e81612214565b5f5b83811015612270578181015183820152602001612258565b50505f910152565b5f815180845261228f816020860160208601612256565b601f01601f19169290920160200192915050565b8051151582525f60208201516001600160a01b0380821660208601526040840151915060a060408601526122da60a0860183612278565b9150606084015185830360608701526122f38382612278565b925050806080850151166080860152508091505092915050565b5f82825180855260208086019550808260051b8401018186015f5b8481101561236a57858303601f190189528151805184528401516040858501819052612356818601836122a3565b9a86019a9450505090830190600101612328565b5090979650505050505050565b5f610160825181855261238c82860182612278565b915050602083015184820360208601526123a68282612278565b91505060408301516123c360408601826001600160a01b03169052565b50606083015184820360608601526123db8282612278565b91505060808301516123f1608086018215159052565b5060a083015161240660a086018260070b9052565b5060c083015161241a60c086018215159052565b5060e083015184820360e0860152612432828261230d565b9150506101008084015161246e82870182805160070b82526001600160a01b036020820151166020830152604081015160070b60408301525050565b5090949350505050565b5f8151808452602080850194508084015f5b838110156124f1576124de878351805160070b825260208101516001600160a01b03808216602085015260408301511515604085015260608301511515606085015280608084015116608085015250505050565b60a096909601959082019060010161248a565b509495945050505050565b5f8151808452602080850194508084015f5b838110156124f15761256d878351805160070b8252602081015160070b6020830152604081015160070b6040830152606081015160070b60608301526080810151151560808301526001600160a01b0360a08201511660a08301525050565b60c096909601959082019060010161250e565b5f8151808452602080850194508084015f5b838110156124f1576125f4878351805160070b8252602081015160070b6020830152604081015160070b604083015260608101516001600160a01b0380821660608501526080830151151560808501528060a08401511660a085015250505050565b60c0969096019590820190600101612592565b5f610120825181855261261c82860182612377565b9150506020830151612633602086018260070b9052565b506040830151612647604086018215159052565b50606083015161265b606086018215159052565b50608083015161266f608086018215159052565b5060a083015184820360a08601526126878282612478565b91505060c083015184820360c08601526126a182826124fc565b91505060e083015184820360e08601526126bb8282612580565b915050610100808401518583038287015261140f8382612278565b602081525f8251604060208401526126f16060840182612607565b9050602084015160030b60408401528091505092915050565b8060070b8114612228575f80fd5b80356122368161270a565b5f805f60608486031215612735575f80fd5b833561274081612214565b9250602084013561275081612214565b915060408401356127608161270a565b809150509250925092565b602081525f610f7e6020830184612607565b634e487b7160e01b5f52604160045260245ffd5b6040805190810167ffffffffffffffff811182821017156127b4576127b461277d565b60405290565b60405160a0810167ffffffffffffffff811182821017156127b4576127b461277d565b6040516060810167ffffffffffffffff811182821017156127b4576127b461277d565b604051610120810167ffffffffffffffff811182821017156127b4576127b461277d565b6040516080810167ffffffffffffffff811182821017156127b4576127b461277d565b60405160c0810167ffffffffffffffff811182821017156127b4576127b461277d565b604051601f8201601f1916810167ffffffffffffffff811182821017156128935761289361277d565b604052919050565b5f67ffffffffffffffff8211156128b4576128b461277d565b50601f01601f191660200190565b5f82601f8301126128d1575f80fd5b81356128e46128df8261289b565b61286a565b8181528460208386010111156128f8575f80fd5b816020850160208301375f918101602001919091529392505050565b8015158114612228575f80fd5b803561223681612914565b5f67ffffffffffffffff8211156129455761294561277d565b5060051b60200190565b5f82601f83011261295e575f80fd5b8135602061296e6128df8361292c565b82815260059290921b8401810191818101908684111561298c575f80fd5b8286015b84811015612a9c57803567ffffffffffffffff808211156129af575f80fd5b908801906040601f19838c0381018213156129c8575f80fd5b6129d0612791565b88850135815282850135848111156129e6575f80fd5b949094019360a0858e03830112156129fd575f8081fd5b612a056127ba565b915088850135612a1481612914565b825284830135612a2381612214565b828a015260608581013585811115612a3a575f8081fd5b612a488f8c838a01016128c2565b8585015250608093508386013585811115612a62575f8081fd5b612a708f8c838a01016128c2565b828501525050612a8260a0860161222b565b928201929092528188015285525050918301918301612990565b509695505050505050565b5f60608284031215612ab7575f80fd5b612abf6127dd565b90508135612acc8161270a565b81526020820135612adc81612214565b60208201526040820135612aef8161270a565b604082015292915050565b5f8060408385031215612b0b575f80fd5b8235612b1681612214565b9150602083013567ffffffffffffffff80821115612b32575f80fd5b908401906101608287031215612b46575f80fd5b612b4e612800565b823582811115612b5c575f80fd5b612b68888286016128c2565b825250602083013582811115612b7c575f80fd5b612b88888286016128c2565b602083015250612b9a6040840161222b565b6040820152606083013582811115612bb0575f80fd5b612bbc888286016128c2565b606083015250612bce60808401612921565b6080820152612bdf60a08401612718565b60a0820152612bf060c08401612921565b60c082015260e083013582811115612c06575f80fd5b612c128882860161294f565b60e0830152506101009150612c2987838501612aa7565b828201528093505050509250929050565b5f8060408385031215612c4b575f80fd5b8235612c5681612214565b91506020830135612c6681612214565b809150509250929050565b5f82601f830112612c80575f80fd5b81356020612c906128df8361292c565b82815260059290921b84018101918181019086841115612cae575f80fd5b8286015b84811015612a9c578035612cc58161270a565b8352918301918301612cb2565b5f805f60608486031215612ce4575f80fd5b8335612cef81612214565b92506020840135612cff8161270a565b9150604084013567ffffffffffffffff811115612d1a575f80fd5b612d2686828701612c71565b9150509250925092565b5f82601f830112612d3f575f80fd5b81356020612d4f6128df8361292c565b82815260079290921b84018101918181019086841115612d6d575f80fd5b8286015b84811015612a9c5760808189031215612d89575f8081fd5b612d91612824565b8135612d9c81612214565b815281850135612dab81612214565b81860152604082810135612dbe8161270a565b90820152606082810135612dd181612914565b90820152835291830191608001612d71565b5f60208284031215612df3575f80fd5b67ffffffffffffffff8083351115612e09575f80fd5b8235830184601f820112612e1b575f80fd5b612e286128df823561292c565b81358082526020808301929160051b840101871015612e45575f80fd5b602083015b6020843560051b850101811015612a9c578481351115612e68575f80fd5b803584016060818a03601f19011215612e7f575f80fd5b612e876127dd565b612e946020830135612214565b602082013581528660408301351115612eab575f80fd5b604082013582018a603f820112612ec0575f80fd5b612ed06128df602083013561292c565b602082810135808352908201919060600283016040018d811115612ef2575f80fd5b6040840193505b80841015612f67576060848f031215612f10575f80fd5b612f186127dd565b612f228535612214565b84358152612f33602086013561270a565b60208501356020820152612f4a6040860135612914565b604085810135908201528352606090930192602090920191612ef9565b50602084015250506060820135871015612f7f575f80fd5b612f928a60206060850135850101612d30565b604082015284525060209283019201612e4a565b606081525f612fb86060830186612478565b8281036020840152612fca81866124fc565b9050828103604084015261140f8185612580565b5f805f60608486031215612ff0575f80fd5b8335612ffb81612214565b9250602084013561300b81612214565b9150604084013561276081612214565b5f805f6060848603121561302d575f80fd5b833561303881612214565b92506020848101356130498161270a565b9250604085013567ffffffffffffffff80821115613065575f80fd5b818701915087601f830112613078575f80fd5b81356130866128df8261292c565b81815260059190911b8301840190848101908a8311156130a4575f80fd5b8585015b838110156130db578035858111156130bf575f8081fd5b6130cd8d89838a01016128c2565b8452509186019186016130a8565b508096505050505050509250925092565b5f60408201600785810b8452602060408186015282865180855260608701915082880194505f5b81811015613131578551850b83529483019491830191600101613113565b509098975050505050505050565b5f8060408385031215613150575f80fd5b823561315b81612214565b946020939093013593505050565b602081525f610f7e60208301846122a3565b5f805f6060848603121561318d575f80fd5b833561319881612214565b925060208401356131a881612214565b9150604084013561276081612914565b5f805f80608085870312156131cb575f80fd5b84356131d681612214565b935060208501356131e681612214565b925060408501356131f681612214565b915060608501356132068161270a565b939692955090935050565b5f8060408385031215613222575f80fd5b823561322d81612214565b91506020830135612c668161270a565b602081525f825160c0602084015261325860e0840182612607565b9050602084015160070b604084015260408401516001600160a01b038082166060860152606086015160070b608086015260808601519150601f198584030160a08601526132a68383612278565b92508060a08701511660c086015250508091505092915050565b6060810161115f8284805160070b82526001600160a01b036020820151166020830152604081015160070b60408301525050565b5f805f60608486031215613306575f80fd5b833561331181612214565b92506020840135612cff81612214565b5f82601f830112613330575f80fd5b813560206133406128df8361292c565b82815260059290921b8401810191818101908684111561335e575f80fd5b8286015b84811015612a9c57803561337581612214565b8352918301918301613362565b5f8060408385031215613393575f80fd5b823561339e81612214565b9150602083013567ffffffffffffffff8111156133b9575f80fd5b6133c585828601613321565b9150509250929050565b5f805f80608085870312156133e2575f80fd5b84356133ed81612214565b9350602085013567ffffffffffffffff80821115613409575f80fd5b61341588838901613321565b9450604087013591508082111561342a575f80fd5b61343688838901613321565b9350606087013591508082111561344b575f80fd5b5061345887828801612c71565b91505092959194509250565b5f8060808385031215613475575f80fd5b823561348081612214565b915061348f8460208501612aa7565b90509250929050565b5f805f606084860312156134aa575f80fd5b83356134b581612214565b9250602084013567ffffffffffffffff808211156134d1575f80fd5b6134dd87838801613321565b935060408601359150808211156134f2575f80fd5b50612d2686828701612c71565b5f805f60608486031215613511575f80fd5b833561351c81612214565b9250602084013561352c81612214565b929592945050506040919091013590565b5f806040838503121561354e575f80fd5b823561355981612214565b9150602083013567ffffffffffffffff811115613574575f80fd5b6133c58582860161294f565b5f82601f83011261358f575f80fd5b815161359d6128df8261289b565b8181528460208386010111156135b1575f80fd5b610c8a826020830160208701612256565b805161223681612214565b805161223681612914565b80516122368161270a565b5f60a082840312156135f3575f80fd5b6135fb6127ba565b9050815161360881612914565b8152602082015161361881612214565b6020820152604082015167ffffffffffffffff80821115613637575f80fd5b61364385838601613580565b6040840152606084015191508082111561365b575f80fd5b5061366884828501613580565b606083015250608082015161367c81612214565b608082015292915050565b5f82601f830112613696575f80fd5b815160206136a66128df8361292c565b82815260059290921b840181019181810190868411156136c4575f80fd5b8286015b84811015612a9c57805167ffffffffffffffff808211156136e8575f8081fd5b908801906040828b03601f1901811315613701575f8081fd5b613709612791565b838801518152908301519082821115613721575f8081fd5b61372f8c89848701016135e3565b8189015286525050509183019183016136c8565b5f60608284031215613753575f80fd5b61375b6127dd565b905081516137688161270a565b8152602082015161377881612214565b60208201526040820151612aef8161270a565b5f610160828403121561379c575f80fd5b6137a4612800565b9050815167ffffffffffffffff808211156137bd575f80fd5b6137c985838601613580565b835260208401519150808211156137de575f80fd5b6137ea85838601613580565b60208401526137fb604085016135c2565b60408401526060840151915080821115613813575f80fd5b61381f85838601613580565b6060840152613830608085016135cd565b608084015261384160a085016135d8565b60a084015261385260c085016135cd565b60c084015260e084015191508082111561386a575f80fd5b5061387784828501613687565b60e08301525061010061388c84828501613743565b9082015292915050565b5f82601f8301126138a5575f80fd5b815160206138b56128df8361292c565b82815260a092830285018201928282019190878511156138d3575f80fd5b8387015b8581101561236a5781818a0312156138ee575f8081fd5b6138f66127ba565b81516139018161270a565b81528186015161391081612214565b8187015260408281015161392381612914565b9082015260608281015161393681612914565b9082015260808281015161394981612214565b9082015284529284019281016138d7565b5f82601f830112613969575f80fd5b815160206139796128df8361292c565b82815260c09283028501820192828201919087851115613997575f80fd5b8387015b8581101561236a5781818a0312156139b2575f8081fd5b6139ba612847565b81516139c58161270a565b8152818601516139d48161270a565b818701526040828101516139e78161270a565b908201526060828101516139fa8161270a565b90820152608082810151613a0d81612914565b9082015260a082810151613a2081612214565b90820152845292840192810161399b565b5f82601f830112613a40575f80fd5b81516020613a506128df8361292c565b82815260c09283028501820192828201919087851115613a6e575f80fd5b8387015b8581101561236a5781818a031215613a89575f8081fd5b613a91612847565b8151613a9c8161270a565b815281860151613aab8161270a565b81870152604082810151613abe8161270a565b90820152606082810151613ad181612214565b90820152608082810151613ae481612914565b9082015260a082810151613af781612214565b908201528452928401928101613a72565b5f6101208284031215613b19575f80fd5b613b21612800565b9050815167ffffffffffffffff80821115613b3a575f80fd5b613b468583860161378b565b8352613b54602085016135d8565b6020840152613b65604085016135cd565b6040840152613b76606085016135cd565b6060840152613b87608085016135cd565b608084015260a0840151915080821115613b9f575f80fd5b613bab85838601613896565b60a084015260c0840151915080821115613bc3575f80fd5b613bcf8583860161395a565b60c084015260e0840151915080821115613be7575f80fd5b613bf385838601613a31565b60e084015261010091508184015181811115613c0d575f80fd5b613c1986828701613580565b8385015250505092915050565b8051600381900b8114612236575f80fd5b5f60208284031215613c47575f80fd5b815167ffffffffffffffff80821115613c5e575f80fd5b9083019060408286031215613c71575f80fd5b613c79612791565b825182811115613c87575f80fd5b613c9387828601613b08565b825250613ca260208401613c26565b602082015295945050505050565b5f60208284031215613cc0575f80fd5b815167ffffffffffffffff811115613cd6575f80fd5b610c8a84828501613b08565b5f81518084526020808501808196508360051b810191508286015f5b85811015613d975782840389528151604081518652868201519150808787015281511515818701528682015160606001600160a01b03808316828a015283850151935060a09250608083818b0152613d5960e08b0186612278565b928601518a8403603f1901858c0152929450613d758584612278565b9501511660c09890980197909752505098850198935090840190600101613cfe565b5091979650505050505050565b5f6101608251818552613db982860182612278565b91505060208301518482036020860152613dd38282612278565b9150506040830151613df060408601826001600160a01b03169052565b5060608301518482036060860152613e088282612278565b9150506080830151613e1e608086018215159052565b5060a0830151613e3360a086018260070b9052565b5060c0830151613e4760c086018215159052565b5060e083015184820360e08601526124328282613ce2565b6001600160a01b0383168152604060208201525f610c8a6040830184613da4565b5f8151808452602080850194508084015f5b838110156124f157815160070b87529582019590820190600101613e92565b6001600160a01b03841681528260070b6020820152606060408201525f6119e66060830184613e80565b5f60208284031215613eeb575f80fd5b8151610f7e8161270a565b5f8151808452602080850194508084015f5b838110156124f157815180516001600160a01b03908116895284820151168489015260408082015160070b9089015260609081015115159088015260809096019590820190600101613f08565b5f6020808301818452808551808352604092508286019150828160051b8701018488015f5b8381101561313157603f19898403018552815160608085016001600160a01b038084511687528a840151838c89015282815180855260808a0191508d830194505f92505b80831015613ff65784518051851683528e81015160070b8f8401528d015115158d830152938d01936001929092019190850190613fbe565b50948b0151888603898d01529461400d8187613ef6565b9a8d019a98505050948a01945050506001919091019050613f7a565b5f805f6060848603121561403b575f80fd5b835167ffffffffffffffff80821115614052575f80fd5b61405e87838801613896565b94506020860151915080821115614073575f80fd5b61407f8783880161395a565b93506040860151915080821115614094575f80fd5b50612d2686828701613a31565b5f602082840312156140b1575f80fd5b8151610f7e81612914565b5f606082016001600160a01b038616835260208560070b818501526060604085015281855180845260808601915060808160051b87010193508287015f5b8281101561412857607f19888703018452614116868351612278565b955092840192908401906001016140fa565b50939998505050505050505050565b5f8060408385031215614148575f80fd5b82516141538161270a565b8092505060208084015167ffffffffffffffff811115614171575f80fd5b8401601f81018613614181575f80fd5b805161418f6128df8261292c565b81815260059190911b820183019083810190888311156141ad575f80fd5b928401925b828410156141d45783516141c58161270a565b825292840192908401906141b2565b80955050505050509250929050565b5f602082840312156141f3575f80fd5b815167ffffffffffffffff811115614209575f80fd5b610c8a848285016135e3565b5f60208284031215614225575f80fd5b815167ffffffffffffffff8082111561423c575f80fd5b9083019060c0828603121561424f575f80fd5b614257612847565b825182811115614265575f80fd5b61427187828601613b08565b825250614280602084016135d8565b6020820152614291604084016135c2565b60408201526142a2606084016135d8565b60608201526080830151828111156142b8575f80fd5b6142c487828601613580565b6080830152506142d660a084016135c2565b60a082015295945050505050565b5f602082840312156142f4575f80fd5b610f7e82613c26565b5f8151808452602080850194508084015f5b838110156124f157614363878351805160070b825260208101516001600160a01b03808216602085015260408301511515604085015260608301511515606085015280608084015116608085015250505050565b60a096909601959082019060010161430f565b60a081525f61438860a0830188613da4565b60208760070b818501528660030b604085015283820360608501526143ad82876142fd565b848103608086015285518082528287019350908201905f5b8181101561443757614424838651805160070b8252602081015160070b6020830152604081015160070b6040830152606081015160070b60608301526080810151151560808301526001600160a01b0360a08201511660a08301525050565b9383019360c092909201916001016143c5565b50909a9950505050505050505050565b5f60208284031215614457575f80fd5b8151610f7e81612214565b5f60608284031215614472575f80fd5b610f7e8383613743565b5f6001600160a01b038086168352808516602084015250606060408301526119e66060830184613e80565b5f8151808452602080850194508084015f5b838110156124f15781516001600160a01b0316875295820195908201906001016144b9565b6001600160a01b0383168152604060208201525f610c8a60408301846144a7565b606081525f6145116060830186613da4565b90508360070b60208301528260030b6040830152949350505050565b6001600160a01b0385168152608060208201525f61454e60808301866144a7565b828103604084015261456081866144a7565b905082810360608401526145748185613e80565b979650505050505050565b606081525f6145916060830186613da4565b6020838203818501526145a482876142fd565b848103604086015285518082528287019350908201905f5b818110156131315761461e838651805160070b8252602081015160070b6020830152604081015160070b604083015260608101516001600160a01b0380821660608501526080830151151560808501528060a08401511660a085015250505050565b9383019360c092909201916001016145bc565b6001600160a01b038316815260808101610f7e6020830184805160070b82526001600160a01b036020820151166020830152604081015160070b60408301525050565b5f60208284031215614684575f80fd5b5051919050565b6001600160a01b0384168152606060208201525f6146ac60608301856144a7565b828103604084015261140f8185613e80565b602081525f610f7e6020830184613da4565b5f60408083016001600160a01b03808716855260208381870152828751808552606094508488019150848160051b890101838a015f5b83811015614792578a8303605f190185528151805184528601518684018a9052805115158a850152808701518816898501528981015160a0608080870182905261475360e0880184612278565b92508b840151603f19888503018389015261476e8482612278565b91909401518b1660c097909701969096525050509385019390850190600101614706565b50909b9a5050505050505050505050565b5f8260030b8260030b028060030b91508082146147ce57634e487b7160e01b5f52601160045260245ffd5b5092915050565b634e487b7160e01b5f52603260045260245ffdfea26469706673582212202db32e1bd31db4b619889c2b3431bb1e3dbe6c758991f8c50cd40126f2c2192e64736f6c63430008140033",
  "linkReferences": {
    "contracts/safe-hts-precompile/SafeHTS.sol": {
      "SafeHTS": [
        {
          "length": 20,
          "start": 2285
        },
        {
          "length": 20,
          "start": 2489
        },
        {
          "length": 20,
          "start": 2606
        },
        {
          "length": 20,
          "start": 2764
        },
        {
          "length": 20,
          "start": 2884
        },
        {
          "length": 20,
          "start": 3009
        },
        {
          "length": 20,
          "start": 3081
        },
        {
          "length": 20,
          "start": 3132
        },
        {
          "length": 20,
          "start": 3285
        },
        {
          "length": 20,
          "start": 3334
        },
        {
          "length": 20,
          "start": 3411
        },
        {
          "length": 20,
          "start": 3566
        },
        {
          "length": 20,
          "start": 3663
        },
        {
          "length": 20,
          "start": 3901
        },
        {
          "length": 20,
          "start": 4048
        },
        {
          "length": 20,
          "start": 4122
        },
        {
          "length": 20,
          "start": 4271
        },
        {
          "length": 20,
          "start": 4383
        },
        {
          "length": 20,
          "start": 4522
        },
        {
          "length": 20,
          "start": 4604
        },
        {
          "length": 20,
          "start": 4730
        },
        {
          "length": 20,
          "start": 4878
        },
        {
          "length": 20,
          "start": 5051
        },
        {
          "length": 20,
          "start": 5228
        },
        {
          "length": 20,
          "start": 5335
        },
        {
          "length": 20,
          "start": 5394
        },
        {
          "length": 20,
          "start": 5535
        },
        {
          "length": 20,
          "start": 5726
        },
        {
          "length": 20,
          "start": 5810
        },
        {
          "length": 20,
          "start": 5859
        },
        {
          "length": 20,
          "start": 5931
        },
        {
          "length": 20,
          "start": 5997
        },
        {
          "length": 20,
          "start": 6069
        },
        {
          "length": 20,
          "start": 6145
        },
        {
          "length": 20,
          "start": 6275
        },
        {
          "length": 20,
          "start": 6451
        },
        {
          "length": 20,
          "start": 6683
        },
        {
          "length": 20,
          "start": 6773
        },
        {
          "length": 20,
          "start": 6880
        },
        {
          "length": 20,
          "start": 6954
        },
        {
          "length": 20,
          "start": 7020
        },
        {
          "length": 20,
          "start": 7186
        },
        {
          "length": 20,
          "start": 7338
        },
        {
          "length": 20,
          "start": 7410
        },
        {
          "length": 20,
          "start": 7459
        }
      ]
    }
  },
  "deployedLinkReferences": {
    "contracts/safe-hts-precompile/SafeHTS.sol": {
      "SafeHTS": [
        {
          "length": 20,
          "start": 2256
        },
        {
          "length": 20,
          "start": 2460
        },
        {
          "length": 20,
          "start": 2577
        },
        {
          "length": 20,
          "start": 2735
        },
        {
          "length": 20,
          "start": 2855
        },
        {
          "length": 20,
          "start": 2980
        },
        {
          "length": 20,
          "start": 3052
        },
        {
          "length": 20,
          "start": 3103
        },
        {
          "length": 20,
          "start": 3256
        },
        {
          "length": 20,
          "start": 3305
        },
        {
          "length": 20,
          "start": 3382
        },
        {
          "length": 20,
          "start": 3537
        },
        {
          "length": 20,
          "start": 3634
        },
        {
          "length": 20,
          "start": 3872
        },
        {
          "length": 20,
          "start": 4019
        },
        {
          "length": 20,
          "start": 4093
        },
        {
          "length": 20,
          "start": 4242
        },
        {
          "length": 20,
          "start": 4354
        },
        {
          "length": 20,
          "start": 4493
        },
        {
          "length": 20,
          "start": 4575
        },
        {
          "length": 20,
          "start": 4701
        },
        {
          "length": 20,
          "start": 4849
        },
        {
          "length": 20,
          "start": 5022
        },
        {
          "length": 20,
          "start": 5199
        },
        {
          "length": 20,
          "start": 5306
        },
        {
          "length": 20,
          "start": 5365
        },
        {
          "length": 20,
          "start": 5506
        },
        {
          "length": 20,
          "start": 5697
        },
        {
          "length": 20,
          "start": 5781
        },
        {
          "length": 20,
          "start": 5830
        },
        {
          "length": 20,
          "start": 5902
        },
        {
          "length": 20,
          "start": 5968
        },
        {
          "length": 20,
          "start": 6040
        },
        {
          "length": 20,
          "start": 6116
        },
        {
          "length": 20,
          "start": 6246
        },
        {
          "length": 20,
          "start": 6422
        },
        {
          "length": 20,
          "start": 6654
        },
        {
          "length": 20,
          "start": 6744
        },
        {
          "length": 20,
          "start": 6851
        },
        {
          "length": 20,
          "start": 6925
        },
        {
          "length": 20,
          "start": 6991
        },
        {
          "length": 20,
          "start": 7157
        },
        {
          "length": 20,
          "start": 7309
        },
        {
          "length": 20,
          "start": 7381
        },
        {
          "length": 20,
          "start": 7430
        }
      ]
    }
  }
}