{
  "_format": "hh-sol-artifact-1",
  "contractName": "Main",
  "sourceName": "contracts/solidity/inhetitance/Main.sol",
  "abi": [
    {
      "inputs": [],
      "name": "classIdentifier",
      "outputs": [
        {
          "internalType": "string",
          "name": "",
          "type": "string"
        }
      ],
      "stateMutability": "pure",
      "type": "function"
    },
    {
      "inputs": [],
      "name": "getBalance",
      "outputs": [
        {
          "internalType": "uint256",
          "name": "",
          "type": "uint256"
        }
      ],
      "stateMutability": "view",
      "type": "function"
    },
    {
      "inputs": [],
      "name": "returnSuper",
      "outputs": [
        {
          "internalType": "string",
          "name": "",
          "type": "string"
        }
      ],
      "stateMutability": "view",
      "type": "function"
    },
    {
      "inputs": [],
      "name": "returnThis",
      "outputs": [
        {
          "internalType": "contract Main",
          "name": "",
          "type": "address"
        }
      ],
      "stateMutability": "view",
      "type": "function"
    },
    {
      "stateMutability": "payable",
      "type": "receive"
    }
  ],
  "bytecode": "0x608060405234801561001057600080fd5b5061018a806100206000396000f3fe6080604052600436106100435760003560e01c80630ab257b41461004f5780630b7113fc1461007a57806312065fe0146100955780638e2a04a5146100b057600080fd5b3661004a57005b600080fd5b34801561005b57600080fd5b506100646100dd565b6040516100719190610105565b60405180910390f35b34801561008657600080fd5b50604051308152602001610071565b3480156100a157600080fd5b50604051478152602001610071565b3480156100bc57600080fd5b5060408051808201909152600481526326b0b4b760e11b6020820152610064565b60606101006040805180820190915260048152634261736560e01b602082015290565b905090565b60006020808352835180602085015260005b8181101561013357858101830151858201604001528201610117565b506000604082860101526040601f19601f830116850101925050509291505056fea26469706673582212202427f859aee8540308302d1274e61d43d0d03fc98175a9c9875642b563a66c4764736f6c63430008170033",
  "linkReferences": {},
  "deployedLinkReferences": {}
}