{
  "_format": "hh-sol-artifact-1",
  "contractName": "Main",
  "sourceName": "contracts/solidity/inhetitance/Main.sol",
  "abi": [
    {
      "inputs": [],
      "name": "classIdentifier",
      "outputs": [
        {
          "internalType": "string",
          "name": "",
          "type": "string"
        }
      ],
      "stateMutability": "pure",
      "type": "function"
    },
    {
      "inputs": [
        {
          "internalType": "address",
          "name": "recipient",
          "type": "address"
        }
      ],
      "name": "destroyContract",
      "outputs": [],
      "stateMutability": "nonpayable",
      "type": "function"
    },
    {
      "inputs": [],
      "name": "getBalance",
      "outputs": [
        {
          "internalType": "uint256",
          "name": "",
          "type": "uint256"
        }
      ],
      "stateMutability": "view",
      "type": "function"
    },
    {
      "inputs": [],
      "name": "returnSuper",
      "outputs": [
        {
          "internalType": "string",
          "name": "",
          "type": "string"
        }
      ],
      "stateMutability": "view",
      "type": "function"
    },
    {
      "inputs": [],
      "name": "returnThis",
      "outputs": [
        {
          "internalType": "contract Main",
          "name": "",
          "type": "address"
        }
      ],
      "stateMutability": "view",
      "type": "function"
    },
    {
      "stateMutability": "payable",
      "type": "receive"
    }
  ],
  "bytecode": "0x608060405234801561001057600080fd5b5061020c806100206000396000f3fe60806040526004361061004e5760003560e01c8063016a37381461005a5780630ab257b41461007c5780630b7113fc146100a757806312065fe0146100c25780638e2a04a5146100dd57600080fd5b3661005557005b600080fd5b34801561006657600080fd5b5061007a61007536600461014b565b61010a565b005b34801561008857600080fd5b50610091610123565b60405161009e9190610188565b60405180910390f35b3480156100b357600080fd5b5060405130815260200161009e565b3480156100ce57600080fd5b5060405147815260200161009e565b3480156100e957600080fd5b5060408051808201909152600481526326b0b4b760e11b6020820152610091565b8073ffffffffffffffffffffffffffffffffffffffff16ff5b60606101466040805180820190915260048152634261736560e01b602082015290565b905090565b60006020828403121561015d57600080fd5b813573ffffffffffffffffffffffffffffffffffffffff8116811461018157600080fd5b9392505050565b600060208083528351808285015260005b818110156101b557858101830151858201604001528201610199565b506000604082860101526040601f19601f830116850101925050509291505056fea2646970667358221220f75b0ae26e3a7eeaa0c383a31814b04e7db8e8b2f8ba786a9c0e1e663bf3bfa064736f6c63430008140033",
  "linkReferences": {},
  "deployedLinkReferences": {}
}