{
  "_format": "hh-sol-artifact-1",
  "contractName": "Airdrop",
  "sourceName": "contracts/system-contracts/hedera-token-service/examples/hrc-904/Airdrop.sol",
  "abi": [
    {
      "anonymous": false,
      "inputs": [
        {
          "indexed": false,
          "internalType": "bool",
          "name": "",
          "type": "bool"
        },
        {
          "indexed": false,
          "internalType": "bytes",
          "name": "",
          "type": "bytes"
        }
      ],
      "name": "CallResponseEvent",
      "type": "event"
    },
    {
      "inputs": [
        {
          "internalType": "address[]",
          "name": "token",
          "type": "address[]"
        },
        {
          "internalType": "address[]",
          "name": "nft",
          "type": "address[]"
        },
        {
          "internalType": "address[]",
          "name": "tokenSenders",
          "type": "address[]"
        },
        {
          "internalType": "address[]",
          "name": "tokenReceivers",
          "type": "address[]"
        },
        {
          "internalType": "address[]",
          "name": "nftSenders",
          "type": "address[]"
        },
        {
          "internalType": "address[]",
          "name": "nftReceivers",
          "type": "address[]"
        },
        {
          "internalType": "int64",
          "name": "tokenAmount",
          "type": "int64"
        },
        {
          "internalType": "int64[]",
          "name": "serials",
          "type": "int64[]"
        }
      ],
      "name": "mixedAirdrop",
      "outputs": [
        {
          "internalType": "int64",
          "name": "responseCode",
          "type": "int64"
        }
      ],
      "stateMutability": "payable",
      "type": "function"
    },
    {
      "inputs": [
        {
          "internalType": "address[]",
          "name": "tokens",
          "type": "address[]"
        },
        {
          "internalType": "address",
          "name": "sender",
          "type": "address"
        },
        {
          "internalType": "address",
          "name": "receiver",
          "type": "address"
        },
        {
          "internalType": "int64",
          "name": "amount",
          "type": "int64"
        }
      ],
      "name": "multipleFtAirdrop",
      "outputs": [
        {
          "internalType": "int64",
          "name": "responseCode",
          "type": "int64"
        }
      ],
      "stateMutability": "payable",
      "type": "function"
    },
    {
      "inputs": [
        {
          "internalType": "address[]",
          "name": "nfts",
          "type": "address[]"
        },
        {
          "internalType": "address",
          "name": "sender",
          "type": "address"
        },
        {
          "internalType": "address",
          "name": "receiver",
          "type": "address"
        },
        {
          "internalType": "int64[]",
          "name": "serials",
          "type": "int64[]"
        }
      ],
      "name": "multipleNftAirdrop",
      "outputs": [
        {
          "internalType": "int64",
          "name": "responseCode",
          "type": "int64"
        }
      ],
      "stateMutability": "nonpayable",
      "type": "function"
    },
    {
      "inputs": [
        {
          "internalType": "address",
          "name": "token",
          "type": "address"
        },
        {
          "internalType": "address",
          "name": "sender",
          "type": "address"
        },
        {
          "internalType": "address",
          "name": "receiver",
          "type": "address"
        },
        {
          "internalType": "int64",
          "name": "serial",
          "type": "int64"
        }
      ],
      "name": "nftAirdrop",
      "outputs": [
        {
          "internalType": "int64",
          "name": "responseCode",
          "type": "int64"
        }
      ],
      "stateMutability": "payable",
      "type": "function"
    },
    {
      "inputs": [
        {
          "internalType": "address",
          "name": "token",
          "type": "address"
        },
        {
          "internalType": "address",
          "name": "sender",
          "type": "address"
        },
        {
          "internalType": "address[]",
          "name": "receivers",
          "type": "address[]"
        },
        {
          "internalType": "int64[]",
          "name": "serials",
          "type": "int64[]"
        }
      ],
      "name": "nftAirdropDistribute",
      "outputs": [
        {
          "internalType": "int64",
          "name": "responseCode",
          "type": "int64"
        }
      ],
      "stateMutability": "payable",
      "type": "function"
    },
    {
      "inputs": [
        {
          "internalType": "address",
          "name": "token",
          "type": "address"
        },
        {
          "internalType": "bytes",
          "name": "encodedFunctionSelector",
          "type": "bytes"
        }
      ],
      "name": "redirectForToken",
      "outputs": [
        {
          "internalType": "int256",
          "name": "responseCode",
          "type": "int256"
        },
        {
          "internalType": "bytes",
          "name": "response",
          "type": "bytes"
        }
      ],
      "stateMutability": "nonpayable",
      "type": "function"
    },
    {
      "inputs": [
        {
          "internalType": "address",
          "name": "token",
          "type": "address"
        },
        {
          "internalType": "address",
          "name": "sender",
          "type": "address"
        },
        {
          "internalType": "address",
          "name": "receiver",
          "type": "address"
        },
        {
          "internalType": "int64",
          "name": "amount",
          "type": "int64"
        }
      ],
      "name": "tokenAirdrop",
      "outputs": [
        {
          "internalType": "int64",
          "name": "responseCode",
          "type": "int64"
        }
      ],
      "stateMutability": "payable",
      "type": "function"
    },
    {
      "inputs": [
        {
          "internalType": "address",
          "name": "token",
          "type": "address"
        },
        {
          "internalType": "address",
          "name": "sender",
          "type": "address"
        },
        {
          "internalType": "address[]",
          "name": "receivers",
          "type": "address[]"
        },
        {
          "internalType": "int64",
          "name": "amount",
          "type": "int64"
        }
      ],
      "name": "tokenAirdropDistribute",
      "outputs": [
        {
          "internalType": "int64",
          "name": "responseCode",
          "type": "int64"
        }
      ],
      "stateMutability": "payable",
      "type": "function"
    },
    {
      "inputs": [
        {
          "internalType": "address",
          "name": "token",
          "type": "address"
        },
        {
          "internalType": "address",
          "name": "from",
          "type": "address"
        },
        {
          "internalType": "address",
          "name": "to",
          "type": "address"
        },
        {
          "internalType": "uint256",
          "name": "amount",
          "type": "uint256"
        }
      ],
      "name": "transferFrom",
      "outputs": [
        {
          "internalType": "int64",
          "name": "responseCode",
          "type": "int64"
        }
      ],
      "stateMutability": "nonpayable",
      "type": "function"
    },
    {
      "inputs": [
        {
          "internalType": "address",
          "name": "token",
          "type": "address"
        },
        {
          "internalType": "address",
          "name": "from",
          "type": "address"
        },
        {
          "internalType": "address",
          "name": "to",
          "type": "address"
        },
        {
          "internalType": "uint256",
          "name": "serialNumber",
          "type": "uint256"
        }
      ],
      "name": "transferFromNFT",
      "outputs": [
        {
          "internalType": "int64",
          "name": "responseCode",
          "type": "int64"
        }
      ],
      "stateMutability": "nonpayable",
      "type": "function"
    }
  ],
  "bytecode": "0x608060405234801561000f575f80fd5b50611a198061001d5f395ff3fe60806040526004361061008f575f3560e01c8063618dc65e11610057578063618dc65e14610122578063913073f91461014f5780639b23d3d9146101625780639ef773bf14610181578063c4d7ff7c14610194575f80fd5b8063061f87391461009357806315dacbea146100be5780631b79e5f9146100dd5780634e395634146100f057806352c0d7d41461010f575b5f80fd5b6100a66100a13660046112ba565b6101a7565b60405160079190910b81526020015b60405180910390f35b3480156100c9575f80fd5b506100a66100d8366004611325565b6102e3565b6100a66100eb36600461136d565b6103d2565b3480156100fb575f80fd5b506100a661010a3660046113fa565b61049e565b6100a661011d36600461136d565b610664565b34801561012d575f80fd5b5061014161013c36600461147a565b6107d7565b6040516100b5929190611567565b6100a661015d366004611587565b6108ee565b34801561016d575f80fd5b506100a661017c366004611325565b610b42565b6100a661018f3660046115e7565b610b86565b6100a66101a2366004611707565b610e66565b83515f90818167ffffffffffffffff8111156101c5576101c56111b3565b60405190808252806020026020018201604052801561022257816020015b61020f60405180606001604052805f6001600160a01b0316815260200160608152602001606081525090565b8152602001906001900390816101e35790505b5090505f5b828110156102bd5761025b60405180606001604052805f6001600160a01b0316815260200160608152602001606081525090565b88828151811061026d5761026d611759565b60209081029190910101516001600160a01b0316815261028e888888610ff8565b8160200181905250808383815181106102a9576102a9611759565b602090810291909101015250600101610227565b506102c7816110df565b9250600783900b6016146102d9575f80fd5b5050949350505050565b6040516001600160a01b038581166024830152848116604483015283166064820152608481018290525f908190819061016790630aed65f560e11b9060a4015b60408051601f198184030181529181526020820180516001600160e01b03166001600160e01b0319909416939093179092529051610361919061176d565b5f604051808303815f865af19150503d805f811461039a576040519150601f19603f3d011682016040523d82523d5f602084013e61039f565b606091505b5091509150816103b05760156103c4565b808060200190518101906103c49190611788565b60030b979650505050505050565b6040805160018082528183019092525f91829190816020015b61041760405180606001604052805f6001600160a01b0316815260200160608152602001606081525090565b8152602001906001900390816103eb57905050905061045860405180606001604052805f6001600160a01b0316815260200160608152602001606081525090565b6001600160a01b038716815261046f868686610ff8565b816020018190525080825f8151811061048a5761048a611759565b60200260200101819052506102c7826110df565b83515f90818167ffffffffffffffff8111156104bc576104bc6111b3565b60405190808252806020026020018201604052801561051957816020015b61050660405180606001604052805f6001600160a01b0316815260200160608152602001606081525090565b8152602001906001900390816104da5790505b5090505f5b828110156102bd5761055260405180606001604052805f6001600160a01b0316815260200160608152602001606081525090565b88828151811061056457610564611759565b60209081029190910101516001600160a01b031681526040805160018082528183019092525f91816020015b604080516080810182525f8082526020808301829052928201819052606082015282525f1990920191018161059057905050905061061689898986815181106105db576105db611759565b6020026020010151604080516080810182525f60608201526001600160a01b03948516815292909316602083015260070b9181019190915290565b815f8151811061062857610628611759565b60200260200101819052508082604001819052508184848151811061064f5761064f611759565b6020908102919091010152505060010161051e565b6040805160018082528183019092525f91829190816020015b6106a960405180606001604052805f6001600160a01b0316815260200160608152602001606081525090565b81526020019060019003908161067d5790505090506106ea60405180606001604052805f6001600160a01b0316815260200160608152602001606081525090565b6001600160a01b038781168252604080516080810182525f606082018190528984168252928816602080830191909152600788900b82840152825160018082528185019094529193929082015b604080516080810182525f8082526020808301829052928201819052606082015282525f1990920191018161073757905050905081815f8151811061077e5761077e611759565b602002602001018190525080836040018190525082845f815181106107a5576107a5611759565b60200260200101819052506107b9846110df565b9450600785900b6016146107cb575f80fd5b50505050949350505050565b5f60605f806101676001600160a01b031663618dc65e60e01b87876040516024016108039291906117af565b60408051601f198184030181529181526020820180516001600160e01b03166001600160e01b0319909416939093179092529051610841919061176d565b5f604051808303815f865af19150503d805f811461087a576040519150601f19603f3d011682016040523d82523d5f602084013e61087f565b606091505b50915091507f4af4780e06fe8cb9df64b0794fa6f01399af979175bb988e35e0e57e594567bc82826040516108b59291906117d0565b60405180910390a1816108d857601560405180602001604052805f8152506108dc565b6016815b60039190910b97909650945050505050565b5f80835160016108fe91906117fe565b6040805160018082528183019092529192505f9190816020015b61094460405180606001604052805f6001600160a01b0316815260200160608152602001606081525090565b81526020019060019003908161091857905050905061098560405180606001604052805f6001600160a01b0316815260200160608152602001606081525090565b6001600160a01b038881168252604080516060810182525f602082018190529181018290529189168252805b88518110156109ce576109c48883611817565b91506001016109b1565b506109d881611846565b60070b60208301525f8567ffffffffffffffff8111156109fa576109fa6111b3565b604051908082528060200260200182016040528015610a4357816020015b604080516060810182525f80825260208083018290529282015282525f19909201910181610a185790505b50905082815f81518110610a5957610a59611759565b602090810291909101015260015b86811015610af157604080516060810182525f80825260208201819052918101919091528a610a9760018461186b565b81518110610aa757610aa7611759565b6020908102919091018101516001600160a01b0316825260078b900b9082015282518190849084908110610add57610add611759565b602090810291909101015250600101610a67565b5080846020018190525083855f81518110610b0e57610b0e611759565b6020026020010181905250610b22856110df565b9650600787900b601614610b34575f80fd5b505050505050949350505050565b6040516001600160a01b038581166024830152848116604483015283166064820152608481018290525f908190819061016790639b23d3d960e01b9060a401610323565b5f8085518851610b9691906117fe565b90505f8167ffffffffffffffff811115610bb257610bb26111b3565b604051908082528060200260200182016040528015610c0f57816020015b610bfc60405180606001604052805f6001600160a01b0316815260200160608152602001606081525090565b815260200190600190039081610bd05790505b5090505f5b8951811015610ce057610c4960405180606001604052805f6001600160a01b0316815260200160608152602001606081525090565b8c8281518110610c5b57610c5b611759565b60209081029190910101516001600160a01b031681528a51610cb1908c9084908110610c8957610c89611759565b60200260200101518b8481518110610ca357610ca3611759565b602002602001015189610ff8565b816020018190525080838381518110610ccc57610ccc611759565b602090810291909101015250600101610c14565b5088515f5b83821015610e3b57610d1960405180606001604052805f6001600160a01b0316815260200160608152602001606081525090565b8c8281518110610d2b57610d2b611759565b60209081029190910101516001600160a01b031681526040805160018082528183019092525f91816020015b604080516080810182525f8082526020808301829052928201819052606082015282525f19909201910181610d57579050509050610dd48b8481518110610da057610da0611759565b60200260200101518b8581518110610dba57610dba611759565b60200260200101518a86815181106105db576105db611759565b815f81518110610de657610de6611759565b602002602001018190525080826040018190525081858581518110610e0d57610e0d611759565b60200260200101819052508380610e239061187e565b94505050508080610e339061187e565b915050610ce5565b50610e45826110df565b9350600784900b601614610e57575f80fd5b50505098975050505050505050565b81516040805160018082528183019092525f9291839190816020015b610eae60405180606001604052805f6001600160a01b0316815260200160608152602001606081525090565b815260200190600190039081610e82579050509050610eef60405180606001604052805f6001600160a01b0316815260200160608152602001606081525090565b6001600160a01b03881681525f8367ffffffffffffffff811115610f1557610f156111b3565b604051908082528060200260200182016040528015610f6557816020015b604080516080810182525f8082526020808301829052928201819052606082015282525f19909201910181610f335790505b5090505f5b84811015610fc757610fa289898381518110610f8857610f88611759565b60200260200101518984815181106105db576105db611759565b828281518110610fb457610fb4611759565b6020908102919091010152600101610f6a565b5080826040018190525081835f81518110610fe457610fe4611759565b60200260200101819052506107b9836110df565b60408051606080820183525f60208301819052928201929092526001600160a01b038516815261102783611846565b600790810b60208381019190915260408051606080820183525f828401526001600160a01b03891682529387900b818401528151600280825294810190925292909182015b604080516060810182525f80825260208083018290529282015282525f1990920191018161106c57905050925081835f815181106110ac576110ac611759565b602002602001018190525080836001815181106110cb576110cb611759565b602002602001018190525050509392505050565b5f805f6101676001600160a01b0316632f34811960e01b856040516024016111079190611901565b60408051601f198184030181529181526020820180516001600160e01b03166001600160e01b0319909416939093179092529051611145919061176d565b5f604051808303815f865af19150503d805f811461117e576040519150601f19603f3d011682016040523d82523d5f602084013e611183565b606091505b5091509150816111945760156111a8565b808060200190518101906111a89190611788565b60030b949350505050565b634e487b7160e01b5f52604160045260245ffd5b604051601f8201601f1916810167ffffffffffffffff811182821017156111f0576111f06111b3565b604052919050565b5f67ffffffffffffffff821115611211576112116111b3565b5060051b60200190565b80356001600160a01b0381168114611231575f80fd5b919050565b5f82601f830112611245575f80fd5b8135602061125a611255836111f8565b6111c7565b8083825260208201915060208460051b87010193508684111561127b575f80fd5b602086015b8481101561129e576112918161121b565b8352918301918301611280565b509695505050505050565b8035600781900b8114611231575f80fd5b5f805f80608085870312156112cd575f80fd5b843567ffffffffffffffff8111156112e3575f80fd5b6112ef87828801611236565b9450506112fe6020860161121b565b925061130c6040860161121b565b915061131a606086016112a9565b905092959194509250565b5f805f8060808587031215611338575f80fd5b6113418561121b565b935061134f6020860161121b565b925061135d6040860161121b565b9396929550929360600135925050565b5f805f8060808587031215611380575f80fd5b6113898561121b565b93506112fe6020860161121b565b5f82601f8301126113a6575f80fd5b813560206113b6611255836111f8565b8083825260208201915060208460051b8701019350868411156113d7575f80fd5b602086015b8481101561129e576113ed816112a9565b83529183019183016113dc565b5f805f806080858703121561140d575f80fd5b843567ffffffffffffffff80821115611424575f80fd5b61143088838901611236565b955061143e6020880161121b565b945061144c6040880161121b565b93506060870135915080821115611461575f80fd5b5061146e87828801611397565b91505092959194509250565b5f806040838503121561148b575f80fd5b6114948361121b565b915060208084013567ffffffffffffffff808211156114b1575f80fd5b818601915086601f8301126114c4575f80fd5b8135818111156114d6576114d66111b3565b6114e8601f8201601f191685016111c7565b915080825287848285010111156114fd575f80fd5b80848401858401375f848284010152508093505050509250929050565b5f5b8381101561153457818101518382015260200161151c565b50505f910152565b5f815180845261155381602086016020860161151a565b601f01601f19169290920160200192915050565b828152604060208201525f61157f604083018461153c565b949350505050565b5f805f806080858703121561159a575f80fd5b6115a38561121b565b93506115b16020860161121b565b9250604085013567ffffffffffffffff8111156115cc575f80fd5b6115d887828801611236565b92505061131a606086016112a9565b5f805f805f805f80610100898b0312156115ff575f80fd5b883567ffffffffffffffff80821115611616575f80fd5b6116228c838d01611236565b995060208b0135915080821115611637575f80fd5b6116438c838d01611236565b985060408b0135915080821115611658575f80fd5b6116648c838d01611236565b975060608b0135915080821115611679575f80fd5b6116858c838d01611236565b965060808b013591508082111561169a575f80fd5b6116a68c838d01611236565b955060a08b01359150808211156116bb575f80fd5b6116c78c838d01611236565b94506116d560c08c016112a9565b935060e08b01359150808211156116ea575f80fd5b506116f78b828c01611397565b9150509295985092959890939650565b5f805f806080858703121561171a575f80fd5b6117238561121b565b93506117316020860161121b565b9250604085013567ffffffffffffffff8082111561174d575f80fd5b61144c88838901611236565b634e487b7160e01b5f52603260045260245ffd5b5f825161177e81846020870161151a565b9190910192915050565b5f60208284031215611798575f80fd5b81518060030b81146117a8575f80fd5b9392505050565b6001600160a01b0383168152604060208201525f61157f604083018461153c565b8215158152604060208201525f61157f604083018461153c565b634e487b7160e01b5f52601160045260245ffd5b80820180821115611811576118116117ea565b92915050565b600781810b9083900b01677fffffffffffffff8113677fffffffffffffff1982121715611811576118116117ea565b5f8160070b677fffffffffffffff198103611863576118636117ea565b5f0392915050565b81810381811115611811576118116117ea565b5f6001820161188f5761188f6117ea565b5060010190565b5f815180845260208085019450602084015f5b838110156118f657815180516001600160a01b03908116895284820151168489015260408082015160070b90890152606090810151151590880152608090960195908201906001016118a9565b509495945050505050565b5f6020808301818452808551808352604092508286019150828160051b8701018488015f5b838110156119d557603f19898403018552815160608085016001600160a01b038084511687528a840151838c89015282815180855260808a0191508d830194505f92505b808310156119a25784518051851683528e81015160070b8f8401528d015115158d830152938d0193600192909201919085019061196a565b50948b0151888603898d0152946119b98187611896565b9a8d019a98505050948a01945050506001919091019050611926565b50909897505050505050505056fea2646970667358221220664b2810f77c2f635a1db3f825947c6b4d58c98b58f3e604b5235ff1311e657864736f6c63430008180033",
  "linkReferences": {},
  "deployedLinkReferences": {}
}