{
  "_format": "hh-sol-artifact-1",
  "contractName": "Airdrop",
  "sourceName": "contracts/system-contracts/hedera-token-service/examples/hrc-904/Airdrop.sol",
  "abi": [
    {
      "anonymous": false,
      "inputs": [
        {
          "indexed": false,
          "internalType": "bool",
          "name": "",
          "type": "bool"
        },
        {
          "indexed": false,
          "internalType": "bytes",
          "name": "",
          "type": "bytes"
        }
      ],
      "name": "CallResponseEvent",
      "type": "event"
    },
    {
      "inputs": [
        {
          "internalType": "address[]",
          "name": "token",
          "type": "address[]"
        },
        {
          "internalType": "address[]",
          "name": "nft",
          "type": "address[]"
        },
        {
          "internalType": "address[]",
          "name": "tokenSenders",
          "type": "address[]"
        },
        {
          "internalType": "address[]",
          "name": "tokenReceivers",
          "type": "address[]"
        },
        {
          "internalType": "address[]",
          "name": "nftSenders",
          "type": "address[]"
        },
        {
          "internalType": "address[]",
          "name": "nftReceivers",
          "type": "address[]"
        },
        {
          "internalType": "int64",
          "name": "tokenAmount",
          "type": "int64"
        },
        {
          "internalType": "int64[]",
          "name": "serials",
          "type": "int64[]"
        }
      ],
      "name": "mixedAirdrop",
      "outputs": [
        {
          "internalType": "int64",
          "name": "responseCode",
          "type": "int64"
        }
      ],
      "stateMutability": "payable",
      "type": "function"
    },
    {
      "inputs": [
        {
          "internalType": "address",
          "name": "token",
          "type": "address"
        },
        {
          "internalType": "address",
          "name": "sender",
          "type": "address"
        },
        {
          "internalType": "address",
          "name": "receiver",
          "type": "address"
        },
        {
          "internalType": "int64",
          "name": "serial",
          "type": "int64"
        }
      ],
      "name": "nftAirdrop",
      "outputs": [
        {
          "internalType": "int64",
          "name": "responseCode",
          "type": "int64"
        }
      ],
      "stateMutability": "payable",
      "type": "function"
    },
    {
      "inputs": [
        {
          "internalType": "address",
          "name": "token",
          "type": "address"
        },
        {
          "internalType": "address",
          "name": "sender",
          "type": "address"
        },
        {
          "internalType": "address[]",
          "name": "receivers",
          "type": "address[]"
        }
      ],
      "name": "nftAirdropDistribute",
      "outputs": [
        {
          "internalType": "int64",
          "name": "responseCode",
          "type": "int64"
        }
      ],
      "stateMutability": "payable",
      "type": "function"
    },
    {
      "inputs": [
        {
          "internalType": "address[]",
          "name": "nfts",
          "type": "address[]"
        },
        {
          "internalType": "address",
          "name": "sender",
          "type": "address"
        },
        {
          "internalType": "address",
          "name": "receiver",
          "type": "address"
        },
        {
          "internalType": "int64[]",
          "name": "serials",
          "type": "int64[]"
        }
      ],
      "name": "nftNAmountAirdrops",
      "outputs": [
        {
          "internalType": "int64",
          "name": "responseCode",
          "type": "int64"
        }
      ],
      "stateMutability": "nonpayable",
      "type": "function"
    },
    {
      "inputs": [
        {
          "internalType": "address",
          "name": "token",
          "type": "address"
        },
        {
          "internalType": "bytes",
          "name": "encodedFunctionSelector",
          "type": "bytes"
        }
      ],
      "name": "redirectForToken",
      "outputs": [
        {
          "internalType": "int256",
          "name": "responseCode",
          "type": "int256"
        },
        {
          "internalType": "bytes",
          "name": "response",
          "type": "bytes"
        }
      ],
      "stateMutability": "nonpayable",
      "type": "function"
    },
    {
      "inputs": [
        {
          "internalType": "address",
          "name": "token",
          "type": "address"
        },
        {
          "internalType": "address",
          "name": "sender",
          "type": "address"
        },
        {
          "internalType": "address",
          "name": "receiver",
          "type": "address"
        },
        {
          "internalType": "int64",
          "name": "amount",
          "type": "int64"
        }
      ],
      "name": "tokenAirdrop",
      "outputs": [
        {
          "internalType": "int64",
          "name": "responseCode",
          "type": "int64"
        }
      ],
      "stateMutability": "payable",
      "type": "function"
    },
    {
      "inputs": [
        {
          "internalType": "address",
          "name": "token",
          "type": "address"
        },
        {
          "internalType": "address",
          "name": "sender",
          "type": "address"
        },
        {
          "internalType": "address[]",
          "name": "receivers",
          "type": "address[]"
        },
        {
          "internalType": "int64",
          "name": "amount",
          "type": "int64"
        }
      ],
      "name": "tokenAirdropDistribute",
      "outputs": [
        {
          "internalType": "int64",
          "name": "responseCode",
          "type": "int64"
        }
      ],
      "stateMutability": "payable",
      "type": "function"
    },
    {
      "inputs": [
        {
          "internalType": "address[]",
          "name": "tokens",
          "type": "address[]"
        },
        {
          "internalType": "address",
          "name": "sender",
          "type": "address"
        },
        {
          "internalType": "address",
          "name": "receiver",
          "type": "address"
        },
        {
          "internalType": "int64",
          "name": "amount",
          "type": "int64"
        }
      ],
      "name": "tokenNAmountAirdrops",
      "outputs": [
        {
          "internalType": "int64",
          "name": "responseCode",
          "type": "int64"
        }
      ],
      "stateMutability": "payable",
      "type": "function"
    },
    {
      "inputs": [
        {
          "internalType": "address",
          "name": "token",
          "type": "address"
        },
        {
          "internalType": "address",
          "name": "from",
          "type": "address"
        },
        {
          "internalType": "address",
          "name": "to",
          "type": "address"
        },
        {
          "internalType": "uint256",
          "name": "amount",
          "type": "uint256"
        }
      ],
      "name": "transferFrom",
      "outputs": [
        {
          "internalType": "int64",
          "name": "responseCode",
          "type": "int64"
        }
      ],
      "stateMutability": "nonpayable",
      "type": "function"
    },
    {
      "inputs": [
        {
          "internalType": "address",
          "name": "token",
          "type": "address"
        },
        {
          "internalType": "address",
          "name": "from",
          "type": "address"
        },
        {
          "internalType": "address",
          "name": "to",
          "type": "address"
        },
        {
          "internalType": "uint256",
          "name": "serialNumber",
          "type": "uint256"
        }
      ],
      "name": "transferFromNFT",
      "outputs": [
        {
          "internalType": "int64",
          "name": "responseCode",
          "type": "int64"
        }
      ],
      "stateMutability": "nonpayable",
      "type": "function"
    }
  ],
  "bytecode": "0x608060405234801561000f575f80fd5b50611a968061001d5f395ff3fe60806040526004361061008f575f3560e01c8063913073f911610057578063913073f9146101305780639b23d3d9146101435780639ef773bf14610162578063b047158b14610175578063ba7ee6e514610194575f80fd5b806315dacbea146100935780631b79e5f9146100ca57806341f6417f146100dd57806352c0d7d4146100f0578063618dc65e14610103575b5f80fd5b34801561009e575f80fd5b506100b26100ad36600461121e565b6101a7565b60405160079190910b81526020015b60405180910390f35b6100b26100d8366004611277565b610296565b6100b26100eb3660046113a3565b61037e565b6100b26100fe366004611277565b61049e565b34801561010e575f80fd5b5061012261011d3660046113e7565b610611565b6040516100c19291906114d4565b6100b261013e3660046114f4565b610728565b34801561014e575f80fd5b506100b261015d36600461121e565b61097c565b6100b26101703660046115b7565b6109c0565b348015610180575f80fd5b506100b261018f3660046116d7565b610cdb565b6100b26101a2366004611757565b610e66565b6040516001600160a01b038581166024830152848116604483015283166064820152608481018290525f908190819061016790630aed65f560e11b9060a4015b60408051601f198184030181529181526020820180516001600160e01b03166001600160e01b031990941693909317909252905161022591906117b1565b5f604051808303815f865af19150503d805f811461025e576040519150601f19603f3d011682016040523d82523d5f602084013e610263565b606091505b509150915081610274576015610288565b8080602001905181019061028891906117cc565b60030b979650505050505050565b6040805160018082528183019092525f91829190816020015b6102db60405180606001604052805f6001600160a01b0316815260200160608152602001606081525090565b8152602001906001900390816102af57905050905061031c60405180606001604052805f6001600160a01b0316815260200160608152602001606081525090565b6001600160a01b0387168152610333868686611048565b816020018190525080825f8151811061034e5761034e6117f3565b60200260200101819052506103628261112f565b9250600783900b601614610374575f80fd5b5050949350505050565b83515f90818167ffffffffffffffff81111561039c5761039c6112c8565b6040519080825280602002602001820160405280156103f957816020015b6103e660405180606001604052805f6001600160a01b0316815260200160608152602001606081525090565b8152602001906001900390816103ba5790505b5090505f5b828110156104945761043260405180606001604052805f6001600160a01b0316815260200160608152602001606081525090565b888281518110610444576104446117f3565b60209081029190910101516001600160a01b03168152610465888888611048565b816020018190525080838381518110610480576104806117f3565b6020908102919091010152506001016103fe565b506103628161112f565b6040805160018082528183019092525f91829190816020015b6104e360405180606001604052805f6001600160a01b0316815260200160608152602001606081525090565b8152602001906001900390816104b757905050905061052460405180606001604052805f6001600160a01b0316815260200160608152602001606081525090565b6001600160a01b038781168252604080516080810182525f606082018190528984168252928816602080830191909152600788900b82840152825160018082528185019094529193929082015b604080516080810182525f8082526020808301829052928201819052606082015282525f1990920191018161057157905050905081815f815181106105b8576105b86117f3565b602002602001018190525080836040018190525082845f815181106105df576105df6117f3565b60200260200101819052506105f38461112f565b9450600785900b601614610605575f80fd5b50505050949350505050565b5f60605f806101676001600160a01b031663618dc65e60e01b878760405160240161063d929190611807565b60408051601f198184030181529181526020820180516001600160e01b03166001600160e01b031990941693909317909252905161067b91906117b1565b5f604051808303815f865af19150503d805f81146106b4576040519150601f19603f3d011682016040523d82523d5f602084013e6106b9565b606091505b50915091507f4af4780e06fe8cb9df64b0794fa6f01399af979175bb988e35e0e57e594567bc82826040516106ef929190611828565b60405180910390a18161071257601560405180602001604052805f815250610716565b6016815b60039190910b97909650945050505050565b5f80835160016107389190611856565b6040805160018082528183019092529192505f9190816020015b61077e60405180606001604052805f6001600160a01b0316815260200160608152602001606081525090565b8152602001906001900390816107525790505090506107bf60405180606001604052805f6001600160a01b0316815260200160608152602001606081525090565b6001600160a01b038881168252604080516060810182525f602082018190529181018290529189168252805b8851811015610808576107fe888361186f565b91506001016107eb565b506108128161189e565b60070b60208301525f8567ffffffffffffffff811115610834576108346112c8565b60405190808252806020026020018201604052801561087d57816020015b604080516060810182525f80825260208083018290529282015282525f199092019101816108525790505b50905082815f81518110610893576108936117f3565b602090810291909101015260015b8681101561092b57604080516060810182525f80825260208201819052918101919091528a6108d16001846118c3565b815181106108e1576108e16117f3565b6020908102919091018101516001600160a01b0316825260078b900b9082015282518190849084908110610917576109176117f3565b6020908102919091010152506001016108a1565b5080846020018190525083855f81518110610948576109486117f3565b602002602001018190525061095c8561112f565b9650600787900b60161461096e575f80fd5b505050505050949350505050565b6040516001600160a01b038581166024830152848116604483015283166064820152608481018290525f908190819061016790639b23d3d960e01b9060a4016101e7565b5f80855188516109d09190611856565b90505f8167ffffffffffffffff8111156109ec576109ec6112c8565b604051908082528060200260200182016040528015610a4957816020015b610a3660405180606001604052805f6001600160a01b0316815260200160608152602001606081525090565b815260200190600190039081610a0a5790505b5090505f5b8951811015610b1a57610a8360405180606001604052805f6001600160a01b0316815260200160608152602001606081525090565b8c8281518110610a9557610a956117f3565b60209081029190910101516001600160a01b031681528a51610aeb908c9084908110610ac357610ac36117f3565b60200260200101518b8481518110610add57610add6117f3565b602002602001015189611048565b816020018190525080838381518110610b0657610b066117f3565b602090810291909101015250600101610a4e565b5088515f5b83821015610cb057610b5360405180606001604052805f6001600160a01b0316815260200160608152602001606081525090565b8c8281518110610b6557610b656117f3565b60209081029190910101516001600160a01b031681526040805160018082528183019092525f91816020015b604080516080810182525f8082526020808301829052928201819052606082015282525f19909201910181610b91579050509050610c498b8481518110610bda57610bda6117f3565b60200260200101518b8581518110610bf457610bf46117f3565b60200260200101518a8681518110610c0e57610c0e6117f3565b6020026020010151604080516080810182525f60608201526001600160a01b03948516815292909316602083015260070b9181019190915290565b815f81518110610c5b57610c5b6117f3565b602002602001018190525080826040018190525081858581518110610c8257610c826117f3565b60200260200101819052508380610c98906118d6565b94505050508080610ca8906118d6565b915050610b1f565b50610cba8261112f565b9350600784900b601614610ccc575f80fd5b50505098975050505050505050565b83515f90818167ffffffffffffffff811115610cf957610cf96112c8565b604051908082528060200260200182016040528015610d5657816020015b610d4360405180606001604052805f6001600160a01b0316815260200160608152602001606081525090565b815260200190600190039081610d175790505b5090505f5b8281101561049457610d8f60405180606001604052805f6001600160a01b0316815260200160608152602001606081525090565b888281518110610da157610da16117f3565b60209081029190910101516001600160a01b031681526040805160018082528183019092525f91816020015b604080516080810182525f8082526020808301829052928201819052606082015282525f19909201910181610dcd579050509050610e188989898681518110610c0e57610c0e6117f3565b815f81518110610e2a57610e2a6117f3565b602002602001018190525080826040018190525081848481518110610e5157610e516117f3565b60209081029190910101525050600101610d5b565b80516040805160018082528183019092525f9291839190816020015b610eae60405180606001604052805f6001600160a01b0316815260200160608152602001606081525090565b815260200190600190039081610e82579050509050610eef60405180606001604052805f6001600160a01b0316815260200160608152602001606081525090565b6001600160a01b03871681525f8367ffffffffffffffff811115610f1557610f156112c8565b604051908082528060200260200182016040528015610f6557816020015b604080516080810182525f8082526020808301829052928201819052606082015282525f19909201910181610f335790505b50905060015f5b85811015610ff957610fc689898381518110610f8a57610f8a6117f3565b602002602001015184604080516080810182525f60608201526001600160a01b03948516815292909316602083015260070b9181019190915290565b838281518110610fd857610fd86117f3565b60200260200101819052508180610fee906118ee565b925050600101610f6c565b5081836040018190525082845f81518110611016576110166117f3565b602002602001018190525061102a8461112f565b9550600786900b60161461103c575f80fd5b50505050509392505050565b60408051606080820183525f60208301819052928201929092526001600160a01b03851681526110778361189e565b600790810b60208381019190915260408051606080820183525f828401526001600160a01b03891682529387900b818401528151600280825294810190925292909182015b604080516060810182525f80825260208083018290529282015282525f199092019101816110bc57905050925081835f815181106110fc576110fc6117f3565b6020026020010181905250808360018151811061111b5761111b6117f3565b602002602001018190525050509392505050565b5f805f6101676001600160a01b0316632f34811960e01b85604051602401611157919061197e565b60408051601f198184030181529181526020820180516001600160e01b03166001600160e01b031990941693909317909252905161119591906117b1565b5f604051808303815f865af19150503d805f81146111ce576040519150601f19603f3d011682016040523d82523d5f602084013e6111d3565b606091505b5091509150816111e45760156111f8565b808060200190518101906111f891906117cc565b60030b949350505050565b80356001600160a01b0381168114611219575f80fd5b919050565b5f805f8060808587031215611231575f80fd5b61123a85611203565b935061124860208601611203565b925061125660408601611203565b9396929550929360600135925050565b8035600781900b8114611219575f80fd5b5f805f806080858703121561128a575f80fd5b61129385611203565b93506112a160208601611203565b92506112af60408601611203565b91506112bd60608601611266565b905092959194509250565b634e487b7160e01b5f52604160045260245ffd5b604051601f8201601f1916810167ffffffffffffffff81118282101715611305576113056112c8565b604052919050565b5f67ffffffffffffffff821115611326576113266112c8565b5060051b60200190565b5f82601f83011261133f575f80fd5b8135602061135461134f8361130d565b6112dc565b8083825260208201915060208460051b870101935086841115611375575f80fd5b602086015b848110156113985761138b81611203565b835291830191830161137a565b509695505050505050565b5f805f80608085870312156113b6575f80fd5b843567ffffffffffffffff8111156113cc575f80fd5b6113d887828801611330565b9450506112a160208601611203565b5f80604083850312156113f8575f80fd5b61140183611203565b915060208084013567ffffffffffffffff8082111561141e575f80fd5b818601915086601f830112611431575f80fd5b813581811115611443576114436112c8565b611455601f8201601f191685016112dc565b9150808252878482850101111561146a575f80fd5b80848401858401375f848284010152508093505050509250929050565b5f5b838110156114a1578181015183820152602001611489565b50505f910152565b5f81518084526114c0816020860160208601611487565b601f01601f19169290920160200192915050565b828152604060208201525f6114ec60408301846114a9565b949350505050565b5f805f8060808587031215611507575f80fd5b61151085611203565b935061151e60208601611203565b9250604085013567ffffffffffffffff811115611539575f80fd5b61154587828801611330565b9250506112bd60608601611266565b5f82601f830112611563575f80fd5b8135602061157361134f8361130d565b8083825260208201915060208460051b870101935086841115611594575f80fd5b602086015b84811015611398576115aa81611266565b8352918301918301611599565b5f805f805f805f80610100898b0312156115cf575f80fd5b883567ffffffffffffffff808211156115e6575f80fd5b6115f28c838d01611330565b995060208b0135915080821115611607575f80fd5b6116138c838d01611330565b985060408b0135915080821115611628575f80fd5b6116348c838d01611330565b975060608b0135915080821115611649575f80fd5b6116558c838d01611330565b965060808b013591508082111561166a575f80fd5b6116768c838d01611330565b955060a08b013591508082111561168b575f80fd5b6116978c838d01611330565b94506116a560c08c01611266565b935060e08b01359150808211156116ba575f80fd5b506116c78b828c01611554565b9150509295985092959890939650565b5f805f80608085870312156116ea575f80fd5b843567ffffffffffffffff80821115611701575f80fd5b61170d88838901611330565b955061171b60208801611203565b945061172960408801611203565b9350606087013591508082111561173e575f80fd5b5061174b87828801611554565b91505092959194509250565b5f805f60608486031215611769575f80fd5b61177284611203565b925061178060208501611203565b9150604084013567ffffffffffffffff81111561179b575f80fd5b6117a786828701611330565b9150509250925092565b5f82516117c2818460208701611487565b9190910192915050565b5f602082840312156117dc575f80fd5b81518060030b81146117ec575f80fd5b9392505050565b634e487b7160e01b5f52603260045260245ffd5b6001600160a01b0383168152604060208201525f6114ec60408301846114a9565b8215158152604060208201525f6114ec60408301846114a9565b634e487b7160e01b5f52601160045260245ffd5b8082018082111561186957611869611842565b92915050565b600781810b9083900b01677fffffffffffffff8113677fffffffffffffff198212171561186957611869611842565b5f8160070b677fffffffffffffff1981036118bb576118bb611842565b5f0392915050565b8181038181111561186957611869611842565b5f600182016118e7576118e7611842565b5060010190565b5f8160070b677fffffffffffffff810361190a5761190a611842565b60010192915050565b5f815180845260208085019450602084015f5b8381101561197357815180516001600160a01b03908116895284820151168489015260408082015160070b9089015260609081015115159088015260809096019590820190600101611926565b509495945050505050565b5f6020808301818452808551808352604092508286019150828160051b8701018488015f5b83811015611a5257603f19898403018552815160608085016001600160a01b038084511687528a840151838c89015282815180855260808a0191508d830194505f92505b80831015611a1f5784518051851683528e81015160070b8f8401528d015115158d830152938d019360019290920191908501906119e7565b50948b0151888603898d015294611a368187611913565b9a8d019a98505050948a019450505060019190910190506119a3565b50909897505050505050505056fea264697066735822122057053f68ecf6b40e5e4cb3a633c37fb552750c25e6d0ead00a73491e232946cb64736f6c63430008180033",
  "linkReferences": {},
  "deployedLinkReferences": {}
}