{
  "_format": "hh-sol-artifact-1",
  "contractName": "Airdrop",
  "sourceName": "contracts/system-contracts/hedera-token-service/examples/hrc-904/Airdrop.sol",
  "abi": [
    {
      "anonymous": false,
      "inputs": [
        {
          "indexed": false,
          "internalType": "bool",
          "name": "",
          "type": "bool"
        },
        {
          "indexed": false,
          "internalType": "bytes",
          "name": "",
          "type": "bytes"
        }
      ],
      "name": "CallResponseEvent",
      "type": "event"
    },
    {
      "inputs": [
        {
          "internalType": "address[]",
          "name": "token",
          "type": "address[]"
        },
        {
          "internalType": "address[]",
          "name": "nft",
          "type": "address[]"
        },
        {
          "internalType": "address[]",
          "name": "tokenSenders",
          "type": "address[]"
        },
        {
          "internalType": "address[]",
          "name": "tokenReceivers",
          "type": "address[]"
        },
        {
          "internalType": "address[]",
          "name": "nftSenders",
          "type": "address[]"
        },
        {
          "internalType": "address[]",
          "name": "nftReceivers",
          "type": "address[]"
        },
        {
          "internalType": "int64",
          "name": "tokenAmount",
          "type": "int64"
        },
        {
          "internalType": "int64[]",
          "name": "serials",
          "type": "int64[]"
        }
      ],
      "name": "mixedAirdrop",
      "outputs": [
        {
          "internalType": "int64",
          "name": "responseCode",
          "type": "int64"
        }
      ],
      "stateMutability": "payable",
      "type": "function"
    },
    {
      "inputs": [
        {
          "internalType": "address",
          "name": "token",
          "type": "address"
        },
        {
          "internalType": "address",
          "name": "sender",
          "type": "address"
        },
        {
          "internalType": "address",
          "name": "receiver",
          "type": "address"
        },
        {
          "internalType": "int64",
          "name": "serial",
          "type": "int64"
        }
      ],
      "name": "nftAirdrop",
      "outputs": [
        {
          "internalType": "int64",
          "name": "responseCode",
          "type": "int64"
        }
      ],
      "stateMutability": "payable",
      "type": "function"
    },
    {
      "inputs": [
        {
          "internalType": "address",
          "name": "token",
          "type": "address"
        },
        {
          "internalType": "address",
          "name": "sender",
          "type": "address"
        },
        {
          "internalType": "address[]",
          "name": "receivers",
          "type": "address[]"
        }
      ],
      "name": "nftAirdropDistribute",
      "outputs": [
        {
          "internalType": "int64",
          "name": "responseCode",
          "type": "int64"
        }
      ],
      "stateMutability": "payable",
      "type": "function"
    },
    {
      "inputs": [
        {
          "internalType": "address[]",
          "name": "nft",
          "type": "address[]"
        },
        {
          "internalType": "address[]",
          "name": "senders",
          "type": "address[]"
        },
        {
          "internalType": "address[]",
          "name": "receivers",
          "type": "address[]"
        },
        {
          "internalType": "int64[]",
          "name": "serials",
          "type": "int64[]"
        }
      ],
      "name": "nftNAmountAirdrops",
      "outputs": [
        {
          "internalType": "int64",
          "name": "responseCode",
          "type": "int64"
        }
      ],
      "stateMutability": "nonpayable",
      "type": "function"
    },
    {
      "inputs": [
        {
          "internalType": "address",
          "name": "token",
          "type": "address"
        },
        {
          "internalType": "bytes",
          "name": "encodedFunctionSelector",
          "type": "bytes"
        }
      ],
      "name": "redirectForToken",
      "outputs": [
        {
          "internalType": "int256",
          "name": "responseCode",
          "type": "int256"
        },
        {
          "internalType": "bytes",
          "name": "response",
          "type": "bytes"
        }
      ],
      "stateMutability": "nonpayable",
      "type": "function"
    },
    {
      "inputs": [
        {
          "internalType": "address",
          "name": "token",
          "type": "address"
        },
        {
          "internalType": "address",
          "name": "sender",
          "type": "address"
        },
        {
          "internalType": "address",
          "name": "receiver",
          "type": "address"
        },
        {
          "internalType": "int64",
          "name": "amount",
          "type": "int64"
        }
      ],
      "name": "tokenAirdrop",
      "outputs": [
        {
          "internalType": "int64",
          "name": "responseCode",
          "type": "int64"
        }
      ],
      "stateMutability": "payable",
      "type": "function"
    },
    {
      "inputs": [
        {
          "internalType": "address",
          "name": "token",
          "type": "address"
        },
        {
          "internalType": "address",
          "name": "sender",
          "type": "address"
        },
        {
          "internalType": "address[]",
          "name": "receivers",
          "type": "address[]"
        },
        {
          "internalType": "int64",
          "name": "amount",
          "type": "int64"
        }
      ],
      "name": "tokenAirdropDistribute",
      "outputs": [
        {
          "internalType": "int64",
          "name": "responseCode",
          "type": "int64"
        }
      ],
      "stateMutability": "payable",
      "type": "function"
    },
    {
      "inputs": [
        {
          "internalType": "address[]",
          "name": "tokens",
          "type": "address[]"
        },
        {
          "internalType": "address[]",
          "name": "senders",
          "type": "address[]"
        },
        {
          "internalType": "address[]",
          "name": "receivers",
          "type": "address[]"
        },
        {
          "internalType": "int64",
          "name": "amount",
          "type": "int64"
        }
      ],
      "name": "tokenNAmountAirdrops",
      "outputs": [
        {
          "internalType": "int64",
          "name": "responseCode",
          "type": "int64"
        }
      ],
      "stateMutability": "payable",
      "type": "function"
    },
    {
      "inputs": [
        {
          "internalType": "address",
          "name": "token",
          "type": "address"
        },
        {
          "internalType": "address",
          "name": "from",
          "type": "address"
        },
        {
          "internalType": "address",
          "name": "to",
          "type": "address"
        },
        {
          "internalType": "uint256",
          "name": "amount",
          "type": "uint256"
        }
      ],
      "name": "transferFrom",
      "outputs": [
        {
          "internalType": "int64",
          "name": "responseCode",
          "type": "int64"
        }
      ],
      "stateMutability": "nonpayable",
      "type": "function"
    },
    {
      "inputs": [
        {
          "internalType": "address",
          "name": "token",
          "type": "address"
        },
        {
          "internalType": "address",
          "name": "from",
          "type": "address"
        },
        {
          "internalType": "address",
          "name": "to",
          "type": "address"
        },
        {
          "internalType": "uint256",
          "name": "serialNumber",
          "type": "uint256"
        }
      ],
      "name": "transferFromNFT",
      "outputs": [
        {
          "internalType": "int64",
          "name": "responseCode",
          "type": "int64"
        }
      ],
      "stateMutability": "nonpayable",
      "type": "function"
    }
  ],
  "bytecode": "0x608060405234801561000f575f80fd5b50611b3d8061001d5f395ff3fe60806040526004361061008f575f3560e01c8063913073f911610057578063913073f9146101305780639b23d3d9146101435780639ef773bf14610162578063ba7ee6e514610175578063e6c6ac4c14610188575f80fd5b806315dacbea146100935780631b79e5f9146100ca57806352c0d7d4146100dd578063618dc65e146100f05780637da131bf1461011d575b5f80fd5b34801561009e575f80fd5b506100b26100ad36600461127d565b6101a7565b60405160079190910b81526020015b60405180910390f35b6100b26100d83660046112d6565b610296565b6100b26100eb3660046112d6565b61037e565b3480156100fb575f80fd5b5061010f61010a36600461136c565b6104f1565b6040516100c1929190611459565b6100b261012b36600461150f565b610608565b6100b261013e366004611597565b61075d565b34801561014e575f80fd5b506100b261015d36600461127d565b6109a7565b6100b261017036600461164b565b6109eb565b6100b261018336600461176b565b610d06565b348015610193575f80fd5b506100b26101a23660046117c5565b610eea565b6040516001600160a01b038581166024830152848116604483015283166064820152608481018290525f908190819061016790630aed65f560e11b9060a4015b60408051601f198184030181529181526020820180516001600160e01b03166001600160e01b0319909416939093179092529051610225919061186b565b5f604051808303815f865af19150503d805f811461025e576040519150601f19603f3d011682016040523d82523d5f602084013e610263565b606091505b509150915081610274576015610288565b808060200190518101906102889190611886565b60030b979650505050505050565b6040805160018082528183019092525f91829190816020015b6102db60405180606001604052805f6001600160a01b0316815260200160608152602001606081525090565b8152602001906001900390816102af57905050905061031c60405180606001604052805f6001600160a01b0316815260200160608152602001606081525090565b6001600160a01b03871681526103338686866110a7565b816020018190525080825f8151811061034e5761034e6118ad565b60200260200101819052506103628261118e565b9250600783900b601614610374575f80fd5b5050949350505050565b6040805160018082528183019092525f91829190816020015b6103c360405180606001604052805f6001600160a01b0316815260200160608152602001606081525090565b81526020019060019003908161039757905050905061040460405180606001604052805f6001600160a01b0316815260200160608152602001606081525090565b6001600160a01b038781168252604080516080810182525f606082018190528984168252928816602080830191909152600788900b82840152825160018082528185019094529193929082015b604080516080810182525f8082526020808301829052928201819052606082015282525f1990920191018161045157905050905081815f81518110610498576104986118ad565b602002602001018190525080836040018190525082845f815181106104bf576104bf6118ad565b60200260200101819052506104d38461118e565b9450600785900b6016146104e5575f80fd5b50505050949350505050565b5f60605f806101676001600160a01b031663618dc65e60e01b878760405160240161051d9291906118c1565b60408051601f198184030181529181526020820180516001600160e01b03166001600160e01b031990941693909317909252905161055b919061186b565b5f604051808303815f865af19150503d805f8114610594576040519150601f19603f3d011682016040523d82523d5f602084013e610599565b606091505b50915091507f4af4780e06fe8cb9df64b0794fa6f01399af979175bb988e35e0e57e594567bc82826040516105cf9291906118e2565b60405180910390a1816105f257601560405180602001604052805f8152506105f6565b6016815b60039190910b97909650945050505050565b82515f90818167ffffffffffffffff81111561062657610626611327565b60405190808252806020026020018201604052801561068357816020015b61067060405180606001604052805f6001600160a01b0316815260200160608152602001606081525090565b8152602001906001900390816106445790505b5090505f5b82811015610753576106bc60405180606001604052805f6001600160a01b0316815260200160608152602001606081525090565b8882815181106106ce576106ce6118ad565b60209081029190910101516001600160a01b031681528751610724908990849081106106fc576106fc6118ad565b6020026020010151888481518110610716576107166118ad565b6020026020010151886110a7565b81602001819052508083838151811061073f5761073f6118ad565b602090810291909101015250600101610688565b506103628161118e565b5f808351600161076d9190611910565b6040805160018082528183019092529192505f9190816020015b6107b360405180606001604052805f6001600160a01b0316815260200160608152602001606081525090565b8152602001906001900390816107875790505090506107f460405180606001604052805f6001600160a01b0316815260200160608152602001606081525090565b6001600160a01b038881168252604080516060810182525f602082018190529181018290529189168252805b885181101561083d576108338883611929565b9150600101610820565b5061084781611958565b60070b60208301525f8567ffffffffffffffff81111561086957610869611327565b6040519080825280602002602001820160405280156108b257816020015b604080516060810182525f80825260208083018290529282015282525f199092019101816108875790505b50905082815f815181106108c8576108c86118ad565b602090810291909101015260015b8681101561095657604080516060810182525f80825260208201819052918101919091528a828151811061090c5761090c6118ad565b6020908102919091018101516001600160a01b0316825260078b900b9082015282518190849084908110610942576109426118ad565b6020908102919091010152506001016108d6565b5080846020018190525083855f81518110610973576109736118ad565b60200260200101819052506109878561118e565b9650600787900b601614610999575f80fd5b505050505050949350505050565b6040516001600160a01b038581166024830152848116604483015283166064820152608481018290525f908190819061016790639b23d3d960e01b9060a4016101e7565b5f80855188516109fb9190611910565b90505f8167ffffffffffffffff811115610a1757610a17611327565b604051908082528060200260200182016040528015610a7457816020015b610a6160405180606001604052805f6001600160a01b0316815260200160608152602001606081525090565b815260200190600190039081610a355790505b5090505f5b8951811015610b4557610aae60405180606001604052805f6001600160a01b0316815260200160608152602001606081525090565b8c8281518110610ac057610ac06118ad565b60209081029190910101516001600160a01b031681528a51610b16908c9084908110610aee57610aee6118ad565b60200260200101518b8481518110610b0857610b086118ad565b6020026020010151896110a7565b816020018190525080838381518110610b3157610b316118ad565b602090810291909101015250600101610a79565b5088515f5b83821015610cdb57610b7e60405180606001604052805f6001600160a01b0316815260200160608152602001606081525090565b8c8281518110610b9057610b906118ad565b60209081029190910101516001600160a01b031681526040805160018082528183019092525f91816020015b604080516080810182525f8082526020808301829052928201819052606082015282525f19909201910181610bbc579050509050610c748b8481518110610c0557610c056118ad565b60200260200101518b8581518110610c1f57610c1f6118ad565b60200260200101518a8681518110610c3957610c396118ad565b6020026020010151604080516080810182525f60608201526001600160a01b03948516815292909316602083015260070b9181019190915290565b815f81518110610c8657610c866118ad565b602002602001018190525080826040018190525081858581518110610cad57610cad6118ad565b60200260200101819052508380610cc39061197d565b94505050508080610cd39061197d565b915050610b4a565b50610ce58261118e565b9350600784900b601614610cf7575f80fd5b50505098975050505050505050565b80516040805160018082528183019092525f9291839190816020015b610d4e60405180606001604052805f6001600160a01b0316815260200160608152602001606081525090565b815260200190600190039081610d22579050509050610d8f60405180606001604052805f6001600160a01b0316815260200160608152602001606081525090565b6001600160a01b03871681525f8367ffffffffffffffff811115610db557610db5611327565b604051908082528060200260200182016040528015610e0557816020015b604080516080810182525f8082526020808301829052928201819052606082015282525f19909201910181610dd35790505b5090505f5b84811015610e9c575f60019050610e6989898481518110610e2d57610e2d6118ad565b602002602001015183604080516080810182525f60608201526001600160a01b03948516815292909316602083015260070b9181019190915290565b838381518110610e7b57610e7b6118ad565b60200260200101819052508080610e9190611995565b505050600101610e0a565b5080826040018190525081835f81518110610eb957610eb96118ad565b6020026020010181905250610ecd8361118e565b9450600785900b601614610edf575f80fd5b505050509392505050565b83515f90818167ffffffffffffffff811115610f0857610f08611327565b604051908082528060200260200182016040528015610f6557816020015b610f5260405180606001604052805f6001600160a01b0316815260200160608152602001606081525090565b815260200190600190039081610f265790505b5090505f5b8281101561075357610f9e60405180606001604052805f6001600160a01b0316815260200160608152602001606081525090565b888281518110610fb057610fb06118ad565b60209081029190910101516001600160a01b031681526040805160018082528183019092525f91816020015b604080516080810182525f8082526020808301829052928201819052606082015282525f19909201910181610fdc579050509050611059898481518110611025576110256118ad565b602002602001015189858151811061103f5761103f6118ad565b6020026020010151898681518110610c3957610c396118ad565b815f8151811061106b5761106b6118ad565b602002602001018190525080826040018190525081848481518110611092576110926118ad565b60209081029190910101525050600101610f6a565b60408051606080820183525f60208301819052928201929092526001600160a01b03851681526110d683611958565b600790810b60208381019190915260408051606080820183525f828401526001600160a01b03891682529387900b818401528151600280825294810190925292909182015b604080516060810182525f80825260208083018290529282015282525f1990920191018161111b57905050925081835f8151811061115b5761115b6118ad565b6020026020010181905250808360018151811061117a5761117a6118ad565b602002602001018190525050509392505050565b5f805f6101676001600160a01b0316632f34811960e01b856040516024016111b69190611a25565b60408051601f198184030181529181526020820180516001600160e01b03166001600160e01b03199094169390931790925290516111f4919061186b565b5f604051808303815f865af19150503d805f811461122d576040519150601f19603f3d011682016040523d82523d5f602084013e611232565b606091505b509150915081611243576015611257565b808060200190518101906112579190611886565b60030b949350505050565b80356001600160a01b0381168114611278575f80fd5b919050565b5f805f8060808587031215611290575f80fd5b61129985611262565b93506112a760208601611262565b92506112b560408601611262565b9396929550929360600135925050565b8035600781900b8114611278575f80fd5b5f805f80608085870312156112e9575f80fd5b6112f285611262565b935061130060208601611262565b925061130e60408601611262565b915061131c606086016112c5565b905092959194509250565b634e487b7160e01b5f52604160045260245ffd5b604051601f8201601f1916810167ffffffffffffffff8111828210171561136457611364611327565b604052919050565b5f806040838503121561137d575f80fd5b61138683611262565b915060208084013567ffffffffffffffff808211156113a3575f80fd5b818601915086601f8301126113b6575f80fd5b8135818111156113c8576113c8611327565b6113da601f8201601f1916850161133b565b915080825287848285010111156113ef575f80fd5b80848401858401375f848284010152508093505050509250929050565b5f5b8381101561142657818101518382015260200161140e565b50505f910152565b5f815180845261144581602086016020860161140c565b601f01601f19169290920160200192915050565b828152604060208201525f611471604083018461142e565b949350505050565b5f67ffffffffffffffff82111561149257611492611327565b5060051b60200190565b5f82601f8301126114ab575f80fd5b813560206114c06114bb83611479565b61133b565b8083825260208201915060208460051b8701019350868411156114e1575f80fd5b602086015b84811015611504576114f781611262565b83529183019183016114e6565b509695505050505050565b5f805f8060808587031215611522575f80fd5b843567ffffffffffffffff80821115611539575f80fd5b6115458883890161149c565b9550602087013591508082111561155a575f80fd5b6115668883890161149c565b9450604087013591508082111561157b575f80fd5b506115888782880161149c565b92505061131c606086016112c5565b5f805f80608085870312156115aa575f80fd5b6115b385611262565b93506115c160208601611262565b9250604085013567ffffffffffffffff8111156115dc575f80fd5b6115888782880161149c565b5f82601f8301126115f7575f80fd5b813560206116076114bb83611479565b8083825260208201915060208460051b870101935086841115611628575f80fd5b602086015b848110156115045761163e816112c5565b835291830191830161162d565b5f805f805f805f80610100898b031215611663575f80fd5b883567ffffffffffffffff8082111561167a575f80fd5b6116868c838d0161149c565b995060208b013591508082111561169b575f80fd5b6116a78c838d0161149c565b985060408b01359150808211156116bc575f80fd5b6116c88c838d0161149c565b975060608b01359150808211156116dd575f80fd5b6116e98c838d0161149c565b965060808b01359150808211156116fe575f80fd5b61170a8c838d0161149c565b955060a08b013591508082111561171f575f80fd5b61172b8c838d0161149c565b945061173960c08c016112c5565b935060e08b013591508082111561174e575f80fd5b5061175b8b828c016115e8565b9150509295985092959890939650565b5f805f6060848603121561177d575f80fd5b61178684611262565b925061179460208501611262565b9150604084013567ffffffffffffffff8111156117af575f80fd5b6117bb8682870161149c565b9150509250925092565b5f805f80608085870312156117d8575f80fd5b843567ffffffffffffffff808211156117ef575f80fd5b6117fb8883890161149c565b95506020870135915080821115611810575f80fd5b61181c8883890161149c565b94506040870135915080821115611831575f80fd5b61183d8883890161149c565b93506060870135915080821115611852575f80fd5b5061185f878288016115e8565b91505092959194509250565b5f825161187c81846020870161140c565b9190910192915050565b5f60208284031215611896575f80fd5b81518060030b81146118a6575f80fd5b9392505050565b634e487b7160e01b5f52603260045260245ffd5b6001600160a01b0383168152604060208201525f611471604083018461142e565b8215158152604060208201525f611471604083018461142e565b634e487b7160e01b5f52601160045260245ffd5b80820180821115611923576119236118fc565b92915050565b600781810b9083900b01677fffffffffffffff8113677fffffffffffffff1982121715611923576119236118fc565b5f8160070b677fffffffffffffff198103611975576119756118fc565b5f0392915050565b5f6001820161198e5761198e6118fc565b5060010190565b5f8160070b677fffffffffffffff81036119b1576119b16118fc565b60010192915050565b5f815180845260208085019450602084015f5b83811015611a1a57815180516001600160a01b03908116895284820151168489015260408082015160070b90890152606090810151151590880152608090960195908201906001016119cd565b509495945050505050565b5f6020808301818452808551808352604092508286019150828160051b8701018488015f5b83811015611af957603f19898403018552815160608085016001600160a01b038084511687528a840151838c89015282815180855260808a0191508d830194505f92505b80831015611ac65784518051851683528e81015160070b8f8401528d015115158d830152938d01936001929092019190850190611a8e565b50948b0151888603898d015294611add81876119ba565b9a8d019a98505050948a01945050506001919091019050611a4a565b50909897505050505050505056fea2646970667358221220fc2235cd4c274b368668d0bb37053277b5ab1d358dda041231cf6ad37ac8287d64736f6c63430008180033",
  "linkReferences": {},
  "deployedLinkReferences": {}
}