{
  "_format": "hh-sol-artifact-1",
  "contractName": "Airdrop",
  "sourceName": "contracts/system-contracts/hedera-token-service/examples/hrc-904/Airdrop.sol",
  "abi": [
    {
      "anonymous": false,
      "inputs": [
        {
          "indexed": false,
          "internalType": "bool",
          "name": "",
          "type": "bool"
        },
        {
          "indexed": false,
          "internalType": "bytes",
          "name": "",
          "type": "bytes"
        }
      ],
      "name": "CallResponseEvent",
      "type": "event"
    },
    {
      "inputs": [
        {
          "internalType": "address[]",
          "name": "token",
          "type": "address[]"
        },
        {
          "internalType": "address[]",
          "name": "nft",
          "type": "address[]"
        },
        {
          "internalType": "address[]",
          "name": "tokenSenders",
          "type": "address[]"
        },
        {
          "internalType": "address[]",
          "name": "tokenReceivers",
          "type": "address[]"
        },
        {
          "internalType": "address[]",
          "name": "nftSenders",
          "type": "address[]"
        },
        {
          "internalType": "address[]",
          "name": "nftReceivers",
          "type": "address[]"
        },
        {
          "internalType": "int64",
          "name": "tokenAmount",
          "type": "int64"
        },
        {
          "internalType": "int64[]",
          "name": "serials",
          "type": "int64[]"
        }
      ],
      "name": "mixedAirdrop",
      "outputs": [
        {
          "internalType": "int64",
          "name": "responseCode",
          "type": "int64"
        }
      ],
      "stateMutability": "payable",
      "type": "function"
    },
    {
      "inputs": [
        {
          "internalType": "address",
          "name": "token",
          "type": "address"
        },
        {
          "internalType": "address",
          "name": "sender",
          "type": "address"
        },
        {
          "internalType": "address",
          "name": "receiver",
          "type": "address"
        },
        {
          "internalType": "int64",
          "name": "serial",
          "type": "int64"
        }
      ],
      "name": "nftAirdrop",
      "outputs": [
        {
          "internalType": "int64",
          "name": "responseCode",
          "type": "int64"
        }
      ],
      "stateMutability": "payable",
      "type": "function"
    },
    {
      "inputs": [
        {
          "internalType": "address",
          "name": "token",
          "type": "address"
        },
        {
          "internalType": "address",
          "name": "sender",
          "type": "address"
        },
        {
          "internalType": "address[]",
          "name": "receivers",
          "type": "address[]"
        }
      ],
      "name": "nftAirdropDistribute",
      "outputs": [
        {
          "internalType": "int64",
          "name": "responseCode",
          "type": "int64"
        }
      ],
      "stateMutability": "payable",
      "type": "function"
    },
    {
      "inputs": [
        {
          "internalType": "address[]",
          "name": "nft",
          "type": "address[]"
        },
        {
          "internalType": "address[]",
          "name": "senders",
          "type": "address[]"
        },
        {
          "internalType": "address[]",
          "name": "receivers",
          "type": "address[]"
        },
        {
          "internalType": "int64[]",
          "name": "serials",
          "type": "int64[]"
        }
      ],
      "name": "nftNAmountAirdrops",
      "outputs": [
        {
          "internalType": "int64",
          "name": "responseCode",
          "type": "int64"
        }
      ],
      "stateMutability": "nonpayable",
      "type": "function"
    },
    {
      "inputs": [
        {
          "internalType": "address",
          "name": "token",
          "type": "address"
        },
        {
          "internalType": "bytes",
          "name": "encodedFunctionSelector",
          "type": "bytes"
        }
      ],
      "name": "redirectForToken",
      "outputs": [
        {
          "internalType": "int256",
          "name": "responseCode",
          "type": "int256"
        },
        {
          "internalType": "bytes",
          "name": "response",
          "type": "bytes"
        }
      ],
      "stateMutability": "nonpayable",
      "type": "function"
    },
    {
      "inputs": [
        {
          "internalType": "address",
          "name": "token",
          "type": "address"
        },
        {
          "internalType": "address",
          "name": "sender",
          "type": "address"
        },
        {
          "internalType": "address",
          "name": "receiver",
          "type": "address"
        },
        {
          "internalType": "int64",
          "name": "amount",
          "type": "int64"
        }
      ],
      "name": "tokenAirdrop",
      "outputs": [
        {
          "internalType": "int64",
          "name": "responseCode",
          "type": "int64"
        }
      ],
      "stateMutability": "payable",
      "type": "function"
    },
    {
      "inputs": [
        {
          "internalType": "address",
          "name": "token",
          "type": "address"
        },
        {
          "internalType": "address",
          "name": "sender",
          "type": "address"
        },
        {
          "internalType": "address[]",
          "name": "receivers",
          "type": "address[]"
        },
        {
          "internalType": "int64",
          "name": "amount",
          "type": "int64"
        }
      ],
      "name": "tokenAirdropDistribute",
      "outputs": [
        {
          "internalType": "int64",
          "name": "responseCode",
          "type": "int64"
        }
      ],
      "stateMutability": "payable",
      "type": "function"
    },
    {
      "inputs": [
        {
          "internalType": "address[]",
          "name": "tokens",
          "type": "address[]"
        },
        {
          "internalType": "address[]",
          "name": "senders",
          "type": "address[]"
        },
        {
          "internalType": "address[]",
          "name": "receivers",
          "type": "address[]"
        },
        {
          "internalType": "int64",
          "name": "amount",
          "type": "int64"
        }
      ],
      "name": "tokenNAmountAirdrops",
      "outputs": [
        {
          "internalType": "int64",
          "name": "responseCode",
          "type": "int64"
        }
      ],
      "stateMutability": "payable",
      "type": "function"
    },
    {
      "inputs": [
        {
          "internalType": "address",
          "name": "token",
          "type": "address"
        },
        {
          "internalType": "address",
          "name": "from",
          "type": "address"
        },
        {
          "internalType": "address",
          "name": "to",
          "type": "address"
        },
        {
          "internalType": "uint256",
          "name": "amount",
          "type": "uint256"
        }
      ],
      "name": "transferFrom",
      "outputs": [
        {
          "internalType": "int64",
          "name": "responseCode",
          "type": "int64"
        }
      ],
      "stateMutability": "nonpayable",
      "type": "function"
    },
    {
      "inputs": [
        {
          "internalType": "address",
          "name": "token",
          "type": "address"
        },
        {
          "internalType": "address",
          "name": "from",
          "type": "address"
        },
        {
          "internalType": "address",
          "name": "to",
          "type": "address"
        },
        {
          "internalType": "uint256",
          "name": "serialNumber",
          "type": "uint256"
        }
      ],
      "name": "transferFromNFT",
      "outputs": [
        {
          "internalType": "int64",
          "name": "responseCode",
          "type": "int64"
        }
      ],
      "stateMutability": "nonpayable",
      "type": "function"
    }
  ],
  "bytecode": "0x608060405234801561000f575f80fd5b50611bab8061001d5f395ff3fe60806040526004361061008f575f3560e01c8063913073f911610057578063913073f9146101305780639b23d3d9146101435780639ef773bf14610162578063ba7ee6e514610175578063e6c6ac4c14610188575f80fd5b806315dacbea146100935780631b79e5f9146100ca57806352c0d7d4146100dd578063618dc65e146100f05780637da131bf1461011d575b5f80fd5b34801561009e575f80fd5b506100b26100ad3660046112eb565b6101a7565b60405160079190910b81526020015b60405180910390f35b6100b26100d8366004611344565b610296565b6100b26100eb366004611344565b61037e565b3480156100fb575f80fd5b5061010f61010a3660046113da565b6104f1565b6040516100c19291906114c7565b6100b261012b36600461157d565b610608565b6100b261013e366004611605565b61075d565b34801561014e575f80fd5b506100b261015d3660046112eb565b610a17565b6100b26101703660046116b9565b610a5b565b6100b26101833660046117d9565b610d76565b348015610193575f80fd5b506100b26101a2366004611833565b610f58565b6040516001600160a01b038581166024830152848116604483015283166064820152608481018290525f908190819061016790630aed65f560e11b9060a4015b60408051601f198184030181529181526020820180516001600160e01b03166001600160e01b031990941693909317909252905161022591906118d9565b5f604051808303815f865af19150503d805f811461025e576040519150601f19603f3d011682016040523d82523d5f602084013e610263565b606091505b509150915081610274576015610288565b8080602001905181019061028891906118f4565b60030b979650505050505050565b6040805160018082528183019092525f91829190816020015b6102db60405180606001604052805f6001600160a01b0316815260200160608152602001606081525090565b8152602001906001900390816102af57905050905061031c60405180606001604052805f6001600160a01b0316815260200160608152602001606081525090565b6001600160a01b0387168152610333868686611115565b816020018190525080825f8151811061034e5761034e61191b565b6020026020010181905250610362826111fc565b9250600783900b601614610374575f80fd5b5050949350505050565b6040805160018082528183019092525f91829190816020015b6103c360405180606001604052805f6001600160a01b0316815260200160608152602001606081525090565b81526020019060019003908161039757905050905061040460405180606001604052805f6001600160a01b0316815260200160608152602001606081525090565b6001600160a01b038781168252604080516080810182525f606082018190528984168252928816602080830191909152600788900b82840152825160018082528185019094529193929082015b604080516080810182525f8082526020808301829052928201819052606082015282525f1990920191018161045157905050905081815f815181106104985761049861191b565b602002602001018190525080836040018190525082845f815181106104bf576104bf61191b565b60200260200101819052506104d3846111fc565b9450600785900b6016146104e5575f80fd5b50505050949350505050565b5f60605f806101676001600160a01b031663618dc65e60e01b878760405160240161051d92919061192f565b60408051601f198184030181529181526020820180516001600160e01b03166001600160e01b031990941693909317909252905161055b91906118d9565b5f604051808303815f865af19150503d805f8114610594576040519150601f19603f3d011682016040523d82523d5f602084013e610599565b606091505b50915091507f4af4780e06fe8cb9df64b0794fa6f01399af979175bb988e35e0e57e594567bc82826040516105cf929190611950565b60405180910390a1816105f257601560405180602001604052805f8152506105f6565b6016815b60039190910b97909650945050505050565b82515f90818167ffffffffffffffff81111561062657610626611395565b60405190808252806020026020018201604052801561068357816020015b61067060405180606001604052805f6001600160a01b0316815260200160608152602001606081525090565b8152602001906001900390816106445790505b5090505f5b82811015610753576106bc60405180606001604052805f6001600160a01b0316815260200160608152602001606081525090565b8882815181106106ce576106ce61191b565b60209081029190910101516001600160a01b031681528751610724908990849081106106fc576106fc61191b565b60200260200101518884815181106107165761071661191b565b602002602001015188611115565b81602001819052508083838151811061073f5761073f61191b565b602090810291909101015250600101610688565b50610362816111fc565b5f808351600161076d919061197e565b90505f8167ffffffffffffffff81111561078957610789611395565b6040519080825280602002602001820160405280156107e657816020015b6107d360405180606001604052805f6001600160a01b0316815260200160608152602001606081525090565b8152602001906001900390816107a75790505b50905061081560405180606001604052805f6001600160a01b0316815260200160608152602001606081525090565b6001600160a01b038881168252604080516060810182525f602082018190529181018290529189168252805b885181101561085e576108548883611997565b9150600101610841565b50610868816119c6565b60070b60208301525f8567ffffffffffffffff81111561088a5761088a611395565b6040519080825280602002602001820160405280156108d357816020015b604080516060810182525f80825260208083018290529282015282525f199092019101816108a85790505b50905082815f815181106108e9576108e961191b565b60200260200101819052505f5b895181101561097e57604080516060810182525f80825260208201819052918101919091528a828151811061092d5761092d61191b565b6020908102919091018101516001600160a01b0316825260078b900b90820152808361095a84600161197e565b8151811061096a5761096a61191b565b6020908102919091010152506001016108f6565b5080846020018190525083855f8151811061099b5761099b61191b565b60200260200101819052506109af856111fc565b9650600787900b601614610a095760405162461bcd60e51b815260206004820152600e60248201527f41697264726f70206661696c6564000000000000000000000000000000000000604482015260640160405180910390fd5b505050505050949350505050565b6040516001600160a01b038581166024830152848116604483015283166064820152608481018290525f908190819061016790639b23d3d960e01b9060a4016101e7565b5f8085518851610a6b919061197e565b90505f8167ffffffffffffffff811115610a8757610a87611395565b604051908082528060200260200182016040528015610ae457816020015b610ad160405180606001604052805f6001600160a01b0316815260200160608152602001606081525090565b815260200190600190039081610aa55790505b5090505f5b8951811015610bb557610b1e60405180606001604052805f6001600160a01b0316815260200160608152602001606081525090565b8c8281518110610b3057610b3061191b565b60209081029190910101516001600160a01b031681528a51610b86908c9084908110610b5e57610b5e61191b565b60200260200101518b8481518110610b7857610b7861191b565b602002602001015189611115565b816020018190525080838381518110610ba157610ba161191b565b602090810291909101015250600101610ae9565b5088515f5b83821015610d4b57610bee60405180606001604052805f6001600160a01b0316815260200160608152602001606081525090565b8c8281518110610c0057610c0061191b565b60209081029190910101516001600160a01b031681526040805160018082528183019092525f91816020015b604080516080810182525f8082526020808301829052928201819052606082015282525f19909201910181610c2c579050509050610ce48b8481518110610c7557610c7561191b565b60200260200101518b8581518110610c8f57610c8f61191b565b60200260200101518a8681518110610ca957610ca961191b565b6020026020010151604080516080810182525f60608201526001600160a01b03948516815292909316602083015260070b9181019190915290565b815f81518110610cf657610cf661191b565b602002602001018190525080826040018190525081858581518110610d1d57610d1d61191b565b60200260200101819052508380610d33906119eb565b94505050508080610d43906119eb565b915050610bba565b50610d55826111fc565b9350600784900b601614610d67575f80fd5b50505098975050505050505050565b80516040805160018082528183019092525f9291839190816020015b610dbe60405180606001604052805f6001600160a01b0316815260200160608152602001606081525090565b815260200190600190039081610d92579050509050610dff60405180606001604052805f6001600160a01b0316815260200160608152602001606081525090565b6001600160a01b03871681525f8367ffffffffffffffff811115610e2557610e25611395565b604051908082528060200260200182016040528015610e7557816020015b604080516080810182525f8082526020808301829052928201819052606082015282525f19909201910181610e435790505b50905060015f5b85811015610f0957610ed689898381518110610e9a57610e9a61191b565b602002602001015184604080516080810182525f60608201526001600160a01b03948516815292909316602083015260070b9181019190915290565b838281518110610ee857610ee861191b565b60200260200101819052508180610efe90611a03565b925050600101610e7c565b5081836040018190525082845f81518110610f2657610f2661191b565b6020026020010181905250610f3a846111fc565b9550600786900b601614610f4c575f80fd5b50505050509392505050565b83515f90818167ffffffffffffffff811115610f7657610f76611395565b604051908082528060200260200182016040528015610fd357816020015b610fc060405180606001604052805f6001600160a01b0316815260200160608152602001606081525090565b815260200190600190039081610f945790505b5090505f5b828110156107535761100c60405180606001604052805f6001600160a01b0316815260200160608152602001606081525090565b88828151811061101e5761101e61191b565b60209081029190910101516001600160a01b031681526040805160018082528183019092525f91816020015b604080516080810182525f8082526020808301829052928201819052606082015282525f1990920191018161104a5790505090506110c78984815181106110935761109361191b565b60200260200101518985815181106110ad576110ad61191b565b6020026020010151898681518110610ca957610ca961191b565b815f815181106110d9576110d961191b565b6020026020010181905250808260400181905250818484815181106111005761110061191b565b60209081029190910101525050600101610fd8565b60408051606080820183525f60208301819052928201929092526001600160a01b0385168152611144836119c6565b600790810b60208381019190915260408051606080820183525f828401526001600160a01b03891682529387900b818401528151600280825294810190925292909182015b604080516060810182525f80825260208083018290529282015282525f1990920191018161118957905050925081835f815181106111c9576111c961191b565b602002602001018190525080836001815181106111e8576111e861191b565b602002602001018190525050509392505050565b5f805f6101676001600160a01b0316632f34811960e01b856040516024016112249190611a93565b60408051601f198184030181529181526020820180516001600160e01b03166001600160e01b031990941693909317909252905161126291906118d9565b5f604051808303815f865af19150503d805f811461129b576040519150601f19603f3d011682016040523d82523d5f602084013e6112a0565b606091505b5091509150816112b15760156112c5565b808060200190518101906112c591906118f4565b60030b949350505050565b80356001600160a01b03811681146112e6575f80fd5b919050565b5f805f80608085870312156112fe575f80fd5b611307856112d0565b9350611315602086016112d0565b9250611323604086016112d0565b9396929550929360600135925050565b8035600781900b81146112e6575f80fd5b5f805f8060808587031215611357575f80fd5b611360856112d0565b935061136e602086016112d0565b925061137c604086016112d0565b915061138a60608601611333565b905092959194509250565b634e487b7160e01b5f52604160045260245ffd5b604051601f8201601f1916810167ffffffffffffffff811182821017156113d2576113d2611395565b604052919050565b5f80604083850312156113eb575f80fd5b6113f4836112d0565b915060208084013567ffffffffffffffff80821115611411575f80fd5b818601915086601f830112611424575f80fd5b81358181111561143657611436611395565b611448601f8201601f191685016113a9565b9150808252878482850101111561145d575f80fd5b80848401858401375f848284010152508093505050509250929050565b5f5b8381101561149457818101518382015260200161147c565b50505f910152565b5f81518084526114b381602086016020860161147a565b601f01601f19169290920160200192915050565b828152604060208201525f6114df604083018461149c565b949350505050565b5f67ffffffffffffffff82111561150057611500611395565b5060051b60200190565b5f82601f830112611519575f80fd5b8135602061152e611529836114e7565b6113a9565b8083825260208201915060208460051b87010193508684111561154f575f80fd5b602086015b8481101561157257611565816112d0565b8352918301918301611554565b509695505050505050565b5f805f8060808587031215611590575f80fd5b843567ffffffffffffffff808211156115a7575f80fd5b6115b38883890161150a565b955060208701359150808211156115c8575f80fd5b6115d48883890161150a565b945060408701359150808211156115e9575f80fd5b506115f68782880161150a565b92505061138a60608601611333565b5f805f8060808587031215611618575f80fd5b611621856112d0565b935061162f602086016112d0565b9250604085013567ffffffffffffffff81111561164a575f80fd5b6115f68782880161150a565b5f82601f830112611665575f80fd5b81356020611675611529836114e7565b8083825260208201915060208460051b870101935086841115611696575f80fd5b602086015b84811015611572576116ac81611333565b835291830191830161169b565b5f805f805f805f80610100898b0312156116d1575f80fd5b883567ffffffffffffffff808211156116e8575f80fd5b6116f48c838d0161150a565b995060208b0135915080821115611709575f80fd5b6117158c838d0161150a565b985060408b013591508082111561172a575f80fd5b6117368c838d0161150a565b975060608b013591508082111561174b575f80fd5b6117578c838d0161150a565b965060808b013591508082111561176c575f80fd5b6117788c838d0161150a565b955060a08b013591508082111561178d575f80fd5b6117998c838d0161150a565b94506117a760c08c01611333565b935060e08b01359150808211156117bc575f80fd5b506117c98b828c01611656565b9150509295985092959890939650565b5f805f606084860312156117eb575f80fd5b6117f4846112d0565b9250611802602085016112d0565b9150604084013567ffffffffffffffff81111561181d575f80fd5b6118298682870161150a565b9150509250925092565b5f805f8060808587031215611846575f80fd5b843567ffffffffffffffff8082111561185d575f80fd5b6118698883890161150a565b9550602087013591508082111561187e575f80fd5b61188a8883890161150a565b9450604087013591508082111561189f575f80fd5b6118ab8883890161150a565b935060608701359150808211156118c0575f80fd5b506118cd87828801611656565b91505092959194509250565b5f82516118ea81846020870161147a565b9190910192915050565b5f60208284031215611904575f80fd5b81518060030b8114611914575f80fd5b9392505050565b634e487b7160e01b5f52603260045260245ffd5b6001600160a01b0383168152604060208201525f6114df604083018461149c565b8215158152604060208201525f6114df604083018461149c565b634e487b7160e01b5f52601160045260245ffd5b808201808211156119915761199161196a565b92915050565b600781810b9083900b01677fffffffffffffff8113677fffffffffffffff19821217156119915761199161196a565b5f8160070b677fffffffffffffff1981036119e3576119e361196a565b5f0392915050565b5f600182016119fc576119fc61196a565b5060010190565b5f8160070b677fffffffffffffff8103611a1f57611a1f61196a565b60010192915050565b5f815180845260208085019450602084015f5b83811015611a8857815180516001600160a01b03908116895284820151168489015260408082015160070b9089015260609081015115159088015260809096019590820190600101611a3b565b509495945050505050565b5f6020808301818452808551808352604092508286019150828160051b8701018488015f5b83811015611b6757603f19898403018552815160608085016001600160a01b038084511687528a840151838c89015282815180855260808a0191508d830194505f92505b80831015611b345784518051851683528e81015160070b8f8401528d015115158d830152938d01936001929092019190850190611afc565b50948b0151888603898d015294611b4b8187611a28565b9a8d019a98505050948a01945050506001919091019050611ab8565b50909897505050505050505056fea26469706673582212201471a221a7263fef38de787beb6afc6700c8411f871f74509d5f3ad0f6a1972c64736f6c63430008180033",
  "linkReferences": {},
  "deployedLinkReferences": {}
}