{
  "_format": "hh-sol-artifact-1",
  "contractName": "Airdrop",
  "sourceName": "contracts/system-contracts/hedera-token-service/examples/hrc-904/Airdrop.sol",
  "abi": [
    {
      "anonymous": false,
      "inputs": [
        {
          "indexed": false,
          "internalType": "bool",
          "name": "",
          "type": "bool"
        },
        {
          "indexed": false,
          "internalType": "bytes",
          "name": "",
          "type": "bytes"
        }
      ],
      "name": "CallResponseEvent",
      "type": "event"
    },
    {
      "inputs": [
        {
          "internalType": "address[]",
          "name": "token",
          "type": "address[]"
        },
        {
          "internalType": "address[]",
          "name": "nft",
          "type": "address[]"
        },
        {
          "internalType": "address[]",
          "name": "tokenSenders",
          "type": "address[]"
        },
        {
          "internalType": "address[]",
          "name": "tokenReceivers",
          "type": "address[]"
        },
        {
          "internalType": "address[]",
          "name": "nftSenders",
          "type": "address[]"
        },
        {
          "internalType": "address[]",
          "name": "nftReceivers",
          "type": "address[]"
        },
        {
          "internalType": "int64",
          "name": "tokenAmount",
          "type": "int64"
        },
        {
          "internalType": "int64[]",
          "name": "serials",
          "type": "int64[]"
        }
      ],
      "name": "mixedAirdrop",
      "outputs": [
        {
          "internalType": "int64",
          "name": "responseCode",
          "type": "int64"
        }
      ],
      "stateMutability": "payable",
      "type": "function"
    },
    {
      "inputs": [
        {
          "internalType": "address[]",
          "name": "tokens",
          "type": "address[]"
        },
        {
          "internalType": "address",
          "name": "sender",
          "type": "address"
        },
        {
          "internalType": "address",
          "name": "receiver",
          "type": "address"
        },
        {
          "internalType": "int64",
          "name": "amount",
          "type": "int64"
        }
      ],
      "name": "multipleFtAirdrop",
      "outputs": [
        {
          "internalType": "int64",
          "name": "responseCode",
          "type": "int64"
        }
      ],
      "stateMutability": "payable",
      "type": "function"
    },
    {
      "inputs": [
        {
          "internalType": "address[]",
          "name": "nfts",
          "type": "address[]"
        },
        {
          "internalType": "address",
          "name": "sender",
          "type": "address"
        },
        {
          "internalType": "address",
          "name": "receiver",
          "type": "address"
        },
        {
          "internalType": "int64[]",
          "name": "serials",
          "type": "int64[]"
        }
      ],
      "name": "multipleNftAirdrop",
      "outputs": [
        {
          "internalType": "int64",
          "name": "responseCode",
          "type": "int64"
        }
      ],
      "stateMutability": "nonpayable",
      "type": "function"
    },
    {
      "inputs": [
        {
          "internalType": "address",
          "name": "token",
          "type": "address"
        },
        {
          "internalType": "address",
          "name": "sender",
          "type": "address"
        },
        {
          "internalType": "address",
          "name": "receiver",
          "type": "address"
        },
        {
          "internalType": "int64",
          "name": "serial",
          "type": "int64"
        }
      ],
      "name": "nftAirdrop",
      "outputs": [
        {
          "internalType": "int64",
          "name": "responseCode",
          "type": "int64"
        }
      ],
      "stateMutability": "payable",
      "type": "function"
    },
    {
      "inputs": [
        {
          "internalType": "address",
          "name": "token",
          "type": "address"
        },
        {
          "internalType": "address",
          "name": "sender",
          "type": "address"
        },
        {
          "internalType": "address[]",
          "name": "receivers",
          "type": "address[]"
        }
      ],
      "name": "nftAirdropDistribute",
      "outputs": [
        {
          "internalType": "int64",
          "name": "responseCode",
          "type": "int64"
        }
      ],
      "stateMutability": "payable",
      "type": "function"
    },
    {
      "inputs": [
        {
          "internalType": "address",
          "name": "token",
          "type": "address"
        },
        {
          "internalType": "bytes",
          "name": "encodedFunctionSelector",
          "type": "bytes"
        }
      ],
      "name": "redirectForToken",
      "outputs": [
        {
          "internalType": "int256",
          "name": "responseCode",
          "type": "int256"
        },
        {
          "internalType": "bytes",
          "name": "response",
          "type": "bytes"
        }
      ],
      "stateMutability": "nonpayable",
      "type": "function"
    },
    {
      "inputs": [
        {
          "internalType": "address",
          "name": "token",
          "type": "address"
        },
        {
          "internalType": "address",
          "name": "sender",
          "type": "address"
        },
        {
          "internalType": "address",
          "name": "receiver",
          "type": "address"
        },
        {
          "internalType": "int64",
          "name": "amount",
          "type": "int64"
        }
      ],
      "name": "tokenAirdrop",
      "outputs": [
        {
          "internalType": "int64",
          "name": "responseCode",
          "type": "int64"
        }
      ],
      "stateMutability": "payable",
      "type": "function"
    },
    {
      "inputs": [
        {
          "internalType": "address",
          "name": "token",
          "type": "address"
        },
        {
          "internalType": "address",
          "name": "sender",
          "type": "address"
        },
        {
          "internalType": "address[]",
          "name": "receivers",
          "type": "address[]"
        },
        {
          "internalType": "int64",
          "name": "amount",
          "type": "int64"
        }
      ],
      "name": "tokenAirdropDistribute",
      "outputs": [
        {
          "internalType": "int64",
          "name": "responseCode",
          "type": "int64"
        }
      ],
      "stateMutability": "payable",
      "type": "function"
    },
    {
      "inputs": [
        {
          "internalType": "address",
          "name": "token",
          "type": "address"
        },
        {
          "internalType": "address",
          "name": "from",
          "type": "address"
        },
        {
          "internalType": "address",
          "name": "to",
          "type": "address"
        },
        {
          "internalType": "uint256",
          "name": "amount",
          "type": "uint256"
        }
      ],
      "name": "transferFrom",
      "outputs": [
        {
          "internalType": "int64",
          "name": "responseCode",
          "type": "int64"
        }
      ],
      "stateMutability": "nonpayable",
      "type": "function"
    },
    {
      "inputs": [
        {
          "internalType": "address",
          "name": "token",
          "type": "address"
        },
        {
          "internalType": "address",
          "name": "from",
          "type": "address"
        },
        {
          "internalType": "address",
          "name": "to",
          "type": "address"
        },
        {
          "internalType": "uint256",
          "name": "serialNumber",
          "type": "uint256"
        }
      ],
      "name": "transferFromNFT",
      "outputs": [
        {
          "internalType": "int64",
          "name": "responseCode",
          "type": "int64"
        }
      ],
      "stateMutability": "nonpayable",
      "type": "function"
    }
  ],
  "bytecode": "0x608060405234801561000f575f80fd5b50611a968061001d5f395ff3fe60806040526004361061008f575f3560e01c8063618dc65e11610057578063618dc65e14610122578063913073f91461014f5780639b23d3d9146101625780639ef773bf14610181578063ba7ee6e514610194575f80fd5b8063061f87391461009357806315dacbea146100be5780631b79e5f9146100dd5780634e395634146100f057806352c0d7d41461010f575b5f80fd5b6100a66100a136600461130a565b6101a7565b60405160079190910b81526020015b60405180910390f35b3480156100c9575f80fd5b506100a66100d8366004611375565b6102e3565b6100a66100eb3660046113bd565b6103d2565b3480156100fb575f80fd5b506100a661010a36600461144a565b61049e565b6100a661011d3660046113bd565b610664565b34801561012d575f80fd5b5061014161013c3660046114ca565b6107d7565b6040516100b59291906115b7565b6100a661015d3660046115d7565b6108ee565b34801561016d575f80fd5b506100a661017c366004611375565b610b42565b6100a661018f366004611637565b610b86565b6100a66101a2366004611757565b610e66565b83515f90818167ffffffffffffffff8111156101c5576101c5611203565b60405190808252806020026020018201604052801561022257816020015b61020f60405180606001604052805f6001600160a01b0316815260200160608152602001606081525090565b8152602001906001900390816101e35790505b5090505f5b828110156102bd5761025b60405180606001604052805f6001600160a01b0316815260200160608152602001606081525090565b88828151811061026d5761026d6117b1565b60209081029190910101516001600160a01b0316815261028e888888611048565b8160200181905250808383815181106102a9576102a96117b1565b602090810291909101015250600101610227565b506102c78161112f565b9250600783900b6016146102d9575f80fd5b5050949350505050565b6040516001600160a01b038581166024830152848116604483015283166064820152608481018290525f908190819061016790630aed65f560e11b9060a4015b60408051601f198184030181529181526020820180516001600160e01b03166001600160e01b031990941693909317909252905161036191906117c5565b5f604051808303815f865af19150503d805f811461039a576040519150601f19603f3d011682016040523d82523d5f602084013e61039f565b606091505b5091509150816103b05760156103c4565b808060200190518101906103c491906117e0565b60030b979650505050505050565b6040805160018082528183019092525f91829190816020015b61041760405180606001604052805f6001600160a01b0316815260200160608152602001606081525090565b8152602001906001900390816103eb57905050905061045860405180606001604052805f6001600160a01b0316815260200160608152602001606081525090565b6001600160a01b038716815261046f868686611048565b816020018190525080825f8151811061048a5761048a6117b1565b60200260200101819052506102c78261112f565b83515f90818167ffffffffffffffff8111156104bc576104bc611203565b60405190808252806020026020018201604052801561051957816020015b61050660405180606001604052805f6001600160a01b0316815260200160608152602001606081525090565b8152602001906001900390816104da5790505b5090505f5b828110156102bd5761055260405180606001604052805f6001600160a01b0316815260200160608152602001606081525090565b888281518110610564576105646117b1565b60209081029190910101516001600160a01b031681526040805160018082528183019092525f91816020015b604080516080810182525f8082526020808301829052928201819052606082015282525f1990920191018161059057905050905061061689898986815181106105db576105db6117b1565b6020026020010151604080516080810182525f60608201526001600160a01b03948516815292909316602083015260070b9181019190915290565b815f81518110610628576106286117b1565b60200260200101819052508082604001819052508184848151811061064f5761064f6117b1565b6020908102919091010152505060010161051e565b6040805160018082528183019092525f91829190816020015b6106a960405180606001604052805f6001600160a01b0316815260200160608152602001606081525090565b81526020019060019003908161067d5790505090506106ea60405180606001604052805f6001600160a01b0316815260200160608152602001606081525090565b6001600160a01b038781168252604080516080810182525f606082018190528984168252928816602080830191909152600788900b82840152825160018082528185019094529193929082015b604080516080810182525f8082526020808301829052928201819052606082015282525f1990920191018161073757905050905081815f8151811061077e5761077e6117b1565b602002602001018190525080836040018190525082845f815181106107a5576107a56117b1565b60200260200101819052506107b98461112f565b9450600785900b6016146107cb575f80fd5b50505050949350505050565b5f60605f806101676001600160a01b031663618dc65e60e01b8787604051602401610803929190611807565b60408051601f198184030181529181526020820180516001600160e01b03166001600160e01b031990941693909317909252905161084191906117c5565b5f604051808303815f865af19150503d805f811461087a576040519150601f19603f3d011682016040523d82523d5f602084013e61087f565b606091505b50915091507f4af4780e06fe8cb9df64b0794fa6f01399af979175bb988e35e0e57e594567bc82826040516108b5929190611828565b60405180910390a1816108d857601560405180602001604052805f8152506108dc565b6016815b60039190910b97909650945050505050565b5f80835160016108fe9190611856565b6040805160018082528183019092529192505f9190816020015b61094460405180606001604052805f6001600160a01b0316815260200160608152602001606081525090565b81526020019060019003908161091857905050905061098560405180606001604052805f6001600160a01b0316815260200160608152602001606081525090565b6001600160a01b038881168252604080516060810182525f602082018190529181018290529189168252805b88518110156109ce576109c4888361186f565b91506001016109b1565b506109d88161189e565b60070b60208301525f8567ffffffffffffffff8111156109fa576109fa611203565b604051908082528060200260200182016040528015610a4357816020015b604080516060810182525f80825260208083018290529282015282525f19909201910181610a185790505b50905082815f81518110610a5957610a596117b1565b602090810291909101015260015b86811015610af157604080516060810182525f80825260208201819052918101919091528a610a976001846118c3565b81518110610aa757610aa76117b1565b6020908102919091018101516001600160a01b0316825260078b900b9082015282518190849084908110610add57610add6117b1565b602090810291909101015250600101610a67565b5080846020018190525083855f81518110610b0e57610b0e6117b1565b6020026020010181905250610b228561112f565b9650600787900b601614610b34575f80fd5b505050505050949350505050565b6040516001600160a01b038581166024830152848116604483015283166064820152608481018290525f908190819061016790639b23d3d960e01b9060a401610323565b5f8085518851610b969190611856565b90505f8167ffffffffffffffff811115610bb257610bb2611203565b604051908082528060200260200182016040528015610c0f57816020015b610bfc60405180606001604052805f6001600160a01b0316815260200160608152602001606081525090565b815260200190600190039081610bd05790505b5090505f5b8951811015610ce057610c4960405180606001604052805f6001600160a01b0316815260200160608152602001606081525090565b8c8281518110610c5b57610c5b6117b1565b60209081029190910101516001600160a01b031681528a51610cb1908c9084908110610c8957610c896117b1565b60200260200101518b8481518110610ca357610ca36117b1565b602002602001015189611048565b816020018190525080838381518110610ccc57610ccc6117b1565b602090810291909101015250600101610c14565b5088515f5b83821015610e3b57610d1960405180606001604052805f6001600160a01b0316815260200160608152602001606081525090565b8c8281518110610d2b57610d2b6117b1565b60209081029190910101516001600160a01b031681526040805160018082528183019092525f91816020015b604080516080810182525f8082526020808301829052928201819052606082015282525f19909201910181610d57579050509050610dd48b8481518110610da057610da06117b1565b60200260200101518b8581518110610dba57610dba6117b1565b60200260200101518a86815181106105db576105db6117b1565b815f81518110610de657610de66117b1565b602002602001018190525080826040018190525081858581518110610e0d57610e0d6117b1565b60200260200101819052508380610e23906118d6565b94505050508080610e33906118d6565b915050610ce5565b50610e458261112f565b9350600784900b601614610e57575f80fd5b50505098975050505050505050565b80516040805160018082528183019092525f9291839190816020015b610eae60405180606001604052805f6001600160a01b0316815260200160608152602001606081525090565b815260200190600190039081610e82579050509050610eef60405180606001604052805f6001600160a01b0316815260200160608152602001606081525090565b6001600160a01b03871681525f8367ffffffffffffffff811115610f1557610f15611203565b604051908082528060200260200182016040528015610f6557816020015b604080516080810182525f8082526020808301829052928201819052606082015282525f19909201910181610f335790505b50905060015f5b85811015610ff957610fc689898381518110610f8a57610f8a6117b1565b602002602001015184604080516080810182525f60608201526001600160a01b03948516815292909316602083015260070b9181019190915290565b838281518110610fd857610fd86117b1565b60200260200101819052508180610fee906118ee565b925050600101610f6c565b5081836040018190525082845f81518110611016576110166117b1565b602002602001018190525061102a8461112f565b9550600786900b60161461103c575f80fd5b50505050509392505050565b60408051606080820183525f60208301819052928201929092526001600160a01b03851681526110778361189e565b600790810b60208381019190915260408051606080820183525f828401526001600160a01b03891682529387900b818401528151600280825294810190925292909182015b604080516060810182525f80825260208083018290529282015282525f199092019101816110bc57905050925081835f815181106110fc576110fc6117b1565b6020026020010181905250808360018151811061111b5761111b6117b1565b602002602001018190525050509392505050565b5f805f6101676001600160a01b0316632f34811960e01b85604051602401611157919061197e565b60408051601f198184030181529181526020820180516001600160e01b03166001600160e01b031990941693909317909252905161119591906117c5565b5f604051808303815f865af19150503d805f81146111ce576040519150601f19603f3d011682016040523d82523d5f602084013e6111d3565b606091505b5091509150816111e45760156111f8565b808060200190518101906111f891906117e0565b60030b949350505050565b634e487b7160e01b5f52604160045260245ffd5b604051601f8201601f1916810167ffffffffffffffff8111828210171561124057611240611203565b604052919050565b5f67ffffffffffffffff82111561126157611261611203565b5060051b60200190565b80356001600160a01b0381168114611281575f80fd5b919050565b5f82601f830112611295575f80fd5b813560206112aa6112a583611248565b611217565b8083825260208201915060208460051b8701019350868411156112cb575f80fd5b602086015b848110156112ee576112e18161126b565b83529183019183016112d0565b509695505050505050565b8035600781900b8114611281575f80fd5b5f805f806080858703121561131d575f80fd5b843567ffffffffffffffff811115611333575f80fd5b61133f87828801611286565b94505061134e6020860161126b565b925061135c6040860161126b565b915061136a606086016112f9565b905092959194509250565b5f805f8060808587031215611388575f80fd5b6113918561126b565b935061139f6020860161126b565b92506113ad6040860161126b565b9396929550929360600135925050565b5f805f80608085870312156113d0575f80fd5b6113d98561126b565b935061134e6020860161126b565b5f82601f8301126113f6575f80fd5b813560206114066112a583611248565b8083825260208201915060208460051b870101935086841115611427575f80fd5b602086015b848110156112ee5761143d816112f9565b835291830191830161142c565b5f805f806080858703121561145d575f80fd5b843567ffffffffffffffff80821115611474575f80fd5b61148088838901611286565b955061148e6020880161126b565b945061149c6040880161126b565b935060608701359150808211156114b1575f80fd5b506114be878288016113e7565b91505092959194509250565b5f80604083850312156114db575f80fd5b6114e48361126b565b915060208084013567ffffffffffffffff80821115611501575f80fd5b818601915086601f830112611514575f80fd5b81358181111561152657611526611203565b611538601f8201601f19168501611217565b9150808252878482850101111561154d575f80fd5b80848401858401375f848284010152508093505050509250929050565b5f5b8381101561158457818101518382015260200161156c565b50505f910152565b5f81518084526115a381602086016020860161156a565b601f01601f19169290920160200192915050565b828152604060208201525f6115cf604083018461158c565b949350505050565b5f805f80608085870312156115ea575f80fd5b6115f38561126b565b93506116016020860161126b565b9250604085013567ffffffffffffffff81111561161c575f80fd5b61162887828801611286565b92505061136a606086016112f9565b5f805f805f805f80610100898b03121561164f575f80fd5b883567ffffffffffffffff80821115611666575f80fd5b6116728c838d01611286565b995060208b0135915080821115611687575f80fd5b6116938c838d01611286565b985060408b01359150808211156116a8575f80fd5b6116b48c838d01611286565b975060608b01359150808211156116c9575f80fd5b6116d58c838d01611286565b965060808b01359150808211156116ea575f80fd5b6116f68c838d01611286565b955060a08b013591508082111561170b575f80fd5b6117178c838d01611286565b945061172560c08c016112f9565b935060e08b013591508082111561173a575f80fd5b506117478b828c016113e7565b9150509295985092959890939650565b5f805f60608486031215611769575f80fd5b6117728461126b565b92506117806020850161126b565b9150604084013567ffffffffffffffff81111561179b575f80fd5b6117a786828701611286565b9150509250925092565b634e487b7160e01b5f52603260045260245ffd5b5f82516117d681846020870161156a565b9190910192915050565b5f602082840312156117f0575f80fd5b81518060030b8114611800575f80fd5b9392505050565b6001600160a01b0383168152604060208201525f6115cf604083018461158c565b8215158152604060208201525f6115cf604083018461158c565b634e487b7160e01b5f52601160045260245ffd5b8082018082111561186957611869611842565b92915050565b600781810b9083900b01677fffffffffffffff8113677fffffffffffffff198212171561186957611869611842565b5f8160070b677fffffffffffffff1981036118bb576118bb611842565b5f0392915050565b8181038181111561186957611869611842565b5f600182016118e7576118e7611842565b5060010190565b5f8160070b677fffffffffffffff810361190a5761190a611842565b60010192915050565b5f815180845260208085019450602084015f5b8381101561197357815180516001600160a01b03908116895284820151168489015260408082015160070b9089015260609081015115159088015260809096019590820190600101611926565b509495945050505050565b5f6020808301818452808551808352604092508286019150828160051b8701018488015f5b83811015611a5257603f19898403018552815160608085016001600160a01b038084511687528a840151838c89015282815180855260808a0191508d830194505f92505b80831015611a1f5784518051851683528e81015160070b8f8401528d015115158d830152938d019360019290920191908501906119e7565b50948b0151888603898d015294611a368187611913565b9a8d019a98505050948a019450505060019190910190506119a3565b50909897505050505050505056fea264697066735822122062dace3e50632b90de3436346350f7e07123977321b00ee799b3c3a55555737464736f6c63430008180033",
  "linkReferences": {},
  "deployedLinkReferences": {}
}