{
  "_format": "hh-sol-artifact-1",
  "contractName": "CrowdFund",
  "sourceName": "contracts/openzeppelin/ownable/CrowdFund.sol",
  "abi": [
    {
      "inputs": [
        {
          "internalType": "address",
          "name": "_owner",
          "type": "address"
        }
      ],
      "stateMutability": "nonpayable",
      "type": "constructor"
    },
    {
      "inputs": [
        {
          "internalType": "uint256",
          "name": "balance",
          "type": "uint256"
        }
      ],
      "name": "InsufficientBalance",
      "type": "error"
    },
    {
      "inputs": [
        {
          "internalType": "address",
          "name": "owner",
          "type": "address"
        }
      ],
      "name": "OwnableInvalidOwner",
      "type": "error"
    },
    {
      "inputs": [
        {
          "internalType": "address",
          "name": "account",
          "type": "address"
        }
      ],
      "name": "OwnableUnauthorizedAccount",
      "type": "error"
    },
    {
      "inputs": [
        {
          "internalType": "uint256",
          "name": "amount",
          "type": "uint256"
        }
      ],
      "name": "WithdrawlError",
      "type": "error"
    },
    {
      "anonymous": false,
      "inputs": [
        {
          "indexed": false,
          "internalType": "address",
          "name": "depositer",
          "type": "address"
        },
        {
          "indexed": false,
          "internalType": "uint256",
          "name": "amount",
          "type": "uint256"
        }
      ],
      "name": "Deposit",
      "type": "event"
    },
    {
      "anonymous": false,
      "inputs": [
        {
          "indexed": true,
          "internalType": "address",
          "name": "previousOwner",
          "type": "address"
        },
        {
          "indexed": true,
          "internalType": "address",
          "name": "newOwner",
          "type": "address"
        }
      ],
      "name": "OwnershipTransferred",
      "type": "event"
    },
    {
      "anonymous": false,
      "inputs": [
        {
          "indexed": false,
          "internalType": "address",
          "name": "withdrawer",
          "type": "address"
        },
        {
          "indexed": false,
          "internalType": "uint256",
          "name": "amount",
          "type": "uint256"
        }
      ],
      "name": "Withdraw",
      "type": "event"
    },
    {
      "inputs": [],
      "name": "balance",
      "outputs": [
        {
          "internalType": "uint256",
          "name": "",
          "type": "uint256"
        }
      ],
      "stateMutability": "view",
      "type": "function"
    },
    {
      "inputs": [],
      "name": "deposit",
      "outputs": [],
      "stateMutability": "payable",
      "type": "function"
    },
    {
      "inputs": [],
      "name": "owner",
      "outputs": [
        {
          "internalType": "address",
          "name": "",
          "type": "address"
        }
      ],
      "stateMutability": "view",
      "type": "function"
    },
    {
      "inputs": [],
      "name": "renounceOwnership",
      "outputs": [],
      "stateMutability": "nonpayable",
      "type": "function"
    },
    {
      "inputs": [
        {
          "internalType": "address",
          "name": "newOwner",
          "type": "address"
        }
      ],
      "name": "transferOwnership",
      "outputs": [],
      "stateMutability": "nonpayable",
      "type": "function"
    },
    {
      "inputs": [
        {
          "internalType": "uint256",
          "name": "amount",
          "type": "uint256"
        }
      ],
      "name": "withdraw",
      "outputs": [],
      "stateMutability": "nonpayable",
      "type": "function"
    }
  ],
  "bytecode": "0x608060405234801561001057600080fd5b5060405161050538038061050583398101604081905261002f916100be565b806001600160a01b03811661005e57604051631e4fbdf760e01b81526000600482015260240160405180910390fd5b6100678161006e565b50506100ee565b600080546001600160a01b038381166001600160a01b0319831681178455604051919092169283917f8be0079c531659141344cd1fd0a4f28419497f9722a3daafe3b4186f6b6457e09190a35050565b6000602082840312156100d057600080fd5b81516001600160a01b03811681146100e757600080fd5b9392505050565b610408806100fd6000396000f3fe6080604052600436106100655760003560e01c8063b69ef8a811610043578063b69ef8a8146100ce578063d0e30db0146100ec578063f2fde38b146100f457600080fd5b80632e1a7d4d1461006a578063715018a61461008c5780638da5cb5b146100a1575b600080fd5b34801561007657600080fd5b5061008a610085366004610347565b610114565b005b34801561009857600080fd5b5061008a610218565b3480156100ad57600080fd5b506000546040516001600160a01b0390911681526020015b60405180910390f35b3480156100da57600080fd5b506001546040519081526020016100c5565b61008a61022c565b34801561010057600080fd5b5061008a61010f366004610360565b61027f565b61011c6102bd565b60015481111561014e57600154604051639266535160e01b815260040161014591815260200190565b60405180910390fd5b806001600082825461016091906103a6565b9091555050604051600090339083908381818185875af1925050503d80600081146101a7576040519150601f19603f3d011682016040523d82523d6000602084013e6101ac565b606091505b50509050806101d157604051634471b01960e11b815260048101839052602401610145565b7f884edad9ce6fa2440d8a54cc123490eb96d2768479d49ff9c7366125a942436433604080516001600160a01b039092168252602082018590520160405180910390a15050565b6102206102bd565b61022a60006102ea565b565b346001600082825461023e91906103bf565b90915550506040805133815234602082015281517fe1fffcc4923d04b559f4d29a8bfc6cda04eb5b0d3c460751c2402c5c5cc9109c929181900390910190a1565b6102876102bd565b6001600160a01b0381166102b157604051631e4fbdf760e01b815260006004820152602401610145565b6102ba816102ea565b50565b6000546001600160a01b0316331461022a5760405163118cdaa760e01b8152336004820152602401610145565b600080546001600160a01b0383811673ffffffffffffffffffffffffffffffffffffffff19831681178455604051919092169283917f8be0079c531659141344cd1fd0a4f28419497f9722a3daafe3b4186f6b6457e09190a35050565b60006020828403121561035957600080fd5b5035919050565b60006020828403121561037257600080fd5b81356001600160a01b038116811461038957600080fd5b9392505050565b634e487b7160e01b600052601160045260246000fd5b818103818111156103b9576103b9610390565b92915050565b808201808211156103b9576103b961039056fea26469706673582212201464a820ab4750a730d6c253d30c3288b12c22f09093e9098efae251d1f5e39264736f6c63430008170033",
  "linkReferences": {},
  "deployedLinkReferences": {}
}