{
  "_format": "hh-sol-artifact-1",
  "contractName": "TokenCreateCustomContract",
  "sourceName": "contracts/hts-precompile/examples/token-create/TokenCreateCustom.sol",
  "abi": [
    {
      "anonymous": false,
      "inputs": [
        {
          "indexed": false,
          "internalType": "bool",
          "name": "",
          "type": "bool"
        },
        {
          "indexed": false,
          "internalType": "bytes",
          "name": "",
          "type": "bytes"
        }
      ],
      "name": "CallResponseEvent",
      "type": "event"
    },
    {
      "anonymous": false,
      "inputs": [
        {
          "indexed": false,
          "internalType": "address",
          "name": "tokenAddress",
          "type": "address"
        }
      ],
      "name": "CreatedToken",
      "type": "event"
    },
    {
      "anonymous": false,
      "inputs": [
        {
          "indexed": false,
          "internalType": "int64",
          "name": "newTotalSupply",
          "type": "int64"
        },
        {
          "indexed": false,
          "internalType": "int64[]",
          "name": "serialNumbers",
          "type": "int64[]"
        }
      ],
      "name": "MintedToken",
      "type": "event"
    },
    {
      "anonymous": false,
      "inputs": [
        {
          "indexed": false,
          "internalType": "int256",
          "name": "responseCode",
          "type": "int256"
        }
      ],
      "name": "ResponseCode",
      "type": "event"
    },
    {
      "anonymous": false,
      "inputs": [
        {
          "indexed": false,
          "internalType": "address",
          "name": "tokenAddress",
          "type": "address"
        },
        {
          "indexed": false,
          "internalType": "address",
          "name": "receiver",
          "type": "address"
        },
        {
          "indexed": false,
          "internalType": "int64",
          "name": "amount",
          "type": "int64"
        }
      ],
      "name": "TransferToken",
      "type": "event"
    },
    {
      "inputs": [
        {
          "internalType": "address",
          "name": "account",
          "type": "address"
        },
        {
          "internalType": "address",
          "name": "token",
          "type": "address"
        }
      ],
      "name": "associateTokenPublic",
      "outputs": [
        {
          "internalType": "int256",
          "name": "responseCode",
          "type": "int256"
        }
      ],
      "stateMutability": "nonpayable",
      "type": "function"
    },
    {
      "inputs": [
        {
          "internalType": "address",
          "name": "account",
          "type": "address"
        },
        {
          "internalType": "address[]",
          "name": "tokens",
          "type": "address[]"
        }
      ],
      "name": "associateTokensPublic",
      "outputs": [
        {
          "internalType": "int256",
          "name": "responseCode",
          "type": "int256"
        }
      ],
      "stateMutability": "nonpayable",
      "type": "function"
    },
    {
      "inputs": [
        {
          "internalType": "string",
          "name": "name",
          "type": "string"
        },
        {
          "internalType": "string",
          "name": "symbol",
          "type": "string"
        },
        {
          "internalType": "string",
          "name": "memo",
          "type": "string"
        },
        {
          "internalType": "int64",
          "name": "initialTotalSupply",
          "type": "int64"
        },
        {
          "internalType": "int64",
          "name": "maxSupply",
          "type": "int64"
        },
        {
          "internalType": "int32",
          "name": "decimals",
          "type": "int32"
        },
        {
          "internalType": "bool",
          "name": "freezeDefaultStatus",
          "type": "bool"
        },
        {
          "internalType": "address",
          "name": "treasury",
          "type": "address"
        },
        {
          "components": [
            {
              "internalType": "uint256",
              "name": "keyType",
              "type": "uint256"
            },
            {
              "components": [
                {
                  "internalType": "bool",
                  "name": "inheritAccountKey",
                  "type": "bool"
                },
                {
                  "internalType": "address",
                  "name": "contractId",
                  "type": "address"
                },
                {
                  "internalType": "bytes",
                  "name": "ed25519",
                  "type": "bytes"
                },
                {
                  "internalType": "bytes",
                  "name": "ECDSA_secp256k1",
                  "type": "bytes"
                },
                {
                  "internalType": "address",
                  "name": "delegatableContractId",
                  "type": "address"
                }
              ],
              "internalType": "struct IHederaTokenService.KeyValue",
              "name": "key",
              "type": "tuple"
            }
          ],
          "internalType": "struct IHederaTokenService.TokenKey[]",
          "name": "keys",
          "type": "tuple[]"
        }
      ],
      "name": "createFungibleTokenPublic",
      "outputs": [],
      "stateMutability": "payable",
      "type": "function"
    },
    {
      "inputs": [
        {
          "internalType": "address",
          "name": "treasury",
          "type": "address"
        },
        {
          "internalType": "address",
          "name": "fixedFeeTokenAddress",
          "type": "address"
        },
        {
          "internalType": "string",
          "name": "name",
          "type": "string"
        },
        {
          "internalType": "string",
          "name": "symbol",
          "type": "string"
        },
        {
          "internalType": "string",
          "name": "memo",
          "type": "string"
        },
        {
          "internalType": "int64",
          "name": "initialTotalSupply",
          "type": "int64"
        },
        {
          "internalType": "int64",
          "name": "maxSupply",
          "type": "int64"
        },
        {
          "internalType": "int32",
          "name": "decimals",
          "type": "int32"
        },
        {
          "components": [
            {
              "internalType": "uint256",
              "name": "keyType",
              "type": "uint256"
            },
            {
              "components": [
                {
                  "internalType": "bool",
                  "name": "inheritAccountKey",
                  "type": "bool"
                },
                {
                  "internalType": "address",
                  "name": "contractId",
                  "type": "address"
                },
                {
                  "internalType": "bytes",
                  "name": "ed25519",
                  "type": "bytes"
                },
                {
                  "internalType": "bytes",
                  "name": "ECDSA_secp256k1",
                  "type": "bytes"
                },
                {
                  "internalType": "address",
                  "name": "delegatableContractId",
                  "type": "address"
                }
              ],
              "internalType": "struct IHederaTokenService.KeyValue",
              "name": "key",
              "type": "tuple"
            }
          ],
          "internalType": "struct IHederaTokenService.TokenKey[]",
          "name": "keys",
          "type": "tuple[]"
        }
      ],
      "name": "createFungibleTokenWithCustomFeesPublic",
      "outputs": [],
      "stateMutability": "payable",
      "type": "function"
    },
    {
      "inputs": [
        {
          "internalType": "string",
          "name": "name",
          "type": "string"
        },
        {
          "internalType": "string",
          "name": "symbol",
          "type": "string"
        },
        {
          "internalType": "string",
          "name": "memo",
          "type": "string"
        },
        {
          "internalType": "int64",
          "name": "maxSupply",
          "type": "int64"
        },
        {
          "internalType": "address",
          "name": "treasury",
          "type": "address"
        },
        {
          "components": [
            {
              "internalType": "uint256",
              "name": "keyType",
              "type": "uint256"
            },
            {
              "components": [
                {
                  "internalType": "bool",
                  "name": "inheritAccountKey",
                  "type": "bool"
                },
                {
                  "internalType": "address",
                  "name": "contractId",
                  "type": "address"
                },
                {
                  "internalType": "bytes",
                  "name": "ed25519",
                  "type": "bytes"
                },
                {
                  "internalType": "bytes",
                  "name": "ECDSA_secp256k1",
                  "type": "bytes"
                },
                {
                  "internalType": "address",
                  "name": "delegatableContractId",
                  "type": "address"
                }
              ],
              "internalType": "struct IHederaTokenService.KeyValue",
              "name": "key",
              "type": "tuple"
            }
          ],
          "internalType": "struct IHederaTokenService.TokenKey[]",
          "name": "keys",
          "type": "tuple[]"
        }
      ],
      "name": "createNonFungibleTokenPublic",
      "outputs": [],
      "stateMutability": "payable",
      "type": "function"
    },
    {
      "inputs": [
        {
          "internalType": "address",
          "name": "treasury",
          "type": "address"
        },
        {
          "internalType": "address",
          "name": "fixedFeeTokenAddress",
          "type": "address"
        },
        {
          "internalType": "string",
          "name": "name",
          "type": "string"
        },
        {
          "internalType": "string",
          "name": "symbol",
          "type": "string"
        },
        {
          "internalType": "string",
          "name": "memo",
          "type": "string"
        },
        {
          "internalType": "int64",
          "name": "maxSupply",
          "type": "int64"
        },
        {
          "components": [
            {
              "internalType": "uint256",
              "name": "keyType",
              "type": "uint256"
            },
            {
              "components": [
                {
                  "internalType": "bool",
                  "name": "inheritAccountKey",
                  "type": "bool"
                },
                {
                  "internalType": "address",
                  "name": "contractId",
                  "type": "address"
                },
                {
                  "internalType": "bytes",
                  "name": "ed25519",
                  "type": "bytes"
                },
                {
                  "internalType": "bytes",
                  "name": "ECDSA_secp256k1",
                  "type": "bytes"
                },
                {
                  "internalType": "address",
                  "name": "delegatableContractId",
                  "type": "address"
                }
              ],
              "internalType": "struct IHederaTokenService.KeyValue",
              "name": "key",
              "type": "tuple"
            }
          ],
          "internalType": "struct IHederaTokenService.TokenKey[]",
          "name": "keys",
          "type": "tuple[]"
        }
      ],
      "name": "createNonFungibleTokenWithCustomFeesPublic",
      "outputs": [],
      "stateMutability": "payable",
      "type": "function"
    },
    {
      "inputs": [
        {
          "internalType": "address",
          "name": "token",
          "type": "address"
        },
        {
          "internalType": "address",
          "name": "account",
          "type": "address"
        }
      ],
      "name": "grantTokenKycPublic",
      "outputs": [
        {
          "internalType": "int64",
          "name": "responseCode",
          "type": "int64"
        }
      ],
      "stateMutability": "nonpayable",
      "type": "function"
    },
    {
      "inputs": [
        {
          "internalType": "address",
          "name": "token",
          "type": "address"
        },
        {
          "internalType": "address",
          "name": "receiver",
          "type": "address"
        },
        {
          "internalType": "int64",
          "name": "amount",
          "type": "int64"
        },
        {
          "internalType": "bytes[]",
          "name": "metadata",
          "type": "bytes[]"
        }
      ],
      "name": "mintNonFungibleTokenToAddressPublic",
      "outputs": [
        {
          "internalType": "int256",
          "name": "responseCode",
          "type": "int256"
        },
        {
          "internalType": "int64",
          "name": "newTotalSupply",
          "type": "int64"
        },
        {
          "internalType": "int64[]",
          "name": "serialNumbers",
          "type": "int64[]"
        }
      ],
      "stateMutability": "nonpayable",
      "type": "function"
    },
    {
      "inputs": [
        {
          "internalType": "address",
          "name": "token",
          "type": "address"
        },
        {
          "internalType": "int64",
          "name": "amount",
          "type": "int64"
        },
        {
          "internalType": "bytes[]",
          "name": "metadata",
          "type": "bytes[]"
        }
      ],
      "name": "mintTokenPublic",
      "outputs": [
        {
          "internalType": "int256",
          "name": "responseCode",
          "type": "int256"
        },
        {
          "internalType": "int64",
          "name": "newTotalSupply",
          "type": "int64"
        },
        {
          "internalType": "int64[]",
          "name": "serialNumbers",
          "type": "int64[]"
        }
      ],
      "stateMutability": "nonpayable",
      "type": "function"
    },
    {
      "inputs": [
        {
          "internalType": "address",
          "name": "token",
          "type": "address"
        },
        {
          "internalType": "address",
          "name": "receiver",
          "type": "address"
        },
        {
          "internalType": "int64",
          "name": "amount",
          "type": "int64"
        },
        {
          "internalType": "bytes[]",
          "name": "metadata",
          "type": "bytes[]"
        }
      ],
      "name": "mintTokenToAddressPublic",
      "outputs": [
        {
          "internalType": "int256",
          "name": "responseCode",
          "type": "int256"
        },
        {
          "internalType": "int64",
          "name": "newTotalSupply",
          "type": "int64"
        },
        {
          "internalType": "int64[]",
          "name": "serialNumbers",
          "type": "int64[]"
        }
      ],
      "stateMutability": "nonpayable",
      "type": "function"
    },
    {
      "inputs": [
        {
          "internalType": "address",
          "name": "token",
          "type": "address"
        },
        {
          "internalType": "bytes",
          "name": "encodedFunctionSelector",
          "type": "bytes"
        }
      ],
      "name": "redirectForToken",
      "outputs": [
        {
          "internalType": "int256",
          "name": "responseCode",
          "type": "int256"
        },
        {
          "internalType": "bytes",
          "name": "response",
          "type": "bytes"
        }
      ],
      "stateMutability": "nonpayable",
      "type": "function"
    },
    {
      "inputs": [
        {
          "internalType": "address",
          "name": "token",
          "type": "address"
        },
        {
          "internalType": "address",
          "name": "from",
          "type": "address"
        },
        {
          "internalType": "address",
          "name": "to",
          "type": "address"
        },
        {
          "internalType": "uint256",
          "name": "amount",
          "type": "uint256"
        }
      ],
      "name": "transferFrom",
      "outputs": [
        {
          "internalType": "int64",
          "name": "responseCode",
          "type": "int64"
        }
      ],
      "stateMutability": "nonpayable",
      "type": "function"
    },
    {
      "inputs": [
        {
          "internalType": "address",
          "name": "token",
          "type": "address"
        },
        {
          "internalType": "address",
          "name": "from",
          "type": "address"
        },
        {
          "internalType": "address",
          "name": "to",
          "type": "address"
        },
        {
          "internalType": "uint256",
          "name": "serialNumber",
          "type": "uint256"
        }
      ],
      "name": "transferFromNFT",
      "outputs": [
        {
          "internalType": "int64",
          "name": "responseCode",
          "type": "int64"
        }
      ],
      "stateMutability": "nonpayable",
      "type": "function"
    }
  ],
  "bytecode": "0x608060405234801561000f575f80fd5b50600160208181527fa6eef7e35abe7026729641147f7915573c7e97b47efa546f5f6e3230263bcb499190915560027fcc69885fda6bcc1a4ace058b4a62bf5e179ea78fd58a1ccd71c22cc9b688792f5560047fd9d16d34ffb15ba3a3d852f0d403e2ce1d691fb54de27ac87cd2f993f3ec330f5560087f7dfe757ecd65cbd7922a9c0161e935dd7fdbcc0e999689c7d31633896b1fc60b5560107fedc95719e9a3b28dd8e80877cb5880a9be7de1a13fc8b05e7999683b6b567643557fe2689cd4a84e23ad2f564004f1c9013e9589d260bde6380aba3ca7e09e4df40c5560065f5260407f8f331abe73332f95a25873e8b430885974c0409691f89d643119a11623a7924a55612446806101235f395ff3fe6080604052600436106100ce575f3560e01c8063618dc65e1161007c578063c827bd3211610057578063c827bd32146101ef578063de84a7791461021d578063f4a01e5b1461023c578063fec394da1461025b575f80fd5b8063618dc65e146101905780639b23d3d9146101bd578063a8c40459146101dc575f80fd5b806329fc46e6116100ac57806329fc46e614610155578063424f165e1461016a578063566300c61461017d575f80fd5b80630fd2601e146100d2578063118741e71461010957806315dacbea14610136575b5f80fd5b3480156100dd575f80fd5b506100f16100ec36600461137f565b61027a565b60405160079190910b81526020015b60405180910390f35b348015610114575f80fd5b5061012861012336600461146a565b6102d5565b604051908152602001610100565b348015610141575f80fd5b506100f1610150366004611519565b610327565b610168610163366004611778565b610416565b005b61016861017836600461186f565b6104ee565b61016861018b366004611934565b6105c0565b34801561019b575f80fd5b506101af6101aa3660046119f8565b610835565b604051610100929190611a92565b3480156101c8575f80fd5b506100f16101d7366004611519565b61095c565b6101686101ea366004611ab2565b6109a0565b3480156101fa575f80fd5b5061020e610209366004611c04565b610b82565b60405161010093929190611cb1565b348015610228575f80fd5b5061020e610237366004611cdb565b610c1a565b348015610247575f80fd5b5061012861025636600461137f565b610cb2565b348015610266575f80fd5b5061020e610275366004611c04565b610cbd565b5f6102858383610cdf565b604051600782900b81529091507f90a5cf4cffe88b4edbb041cfc7a8a812c48a5ec30b84640fb37690875168e3aa9060200160405180910390a1600781900b6016146102cf575f80fd5b92915050565b5f6102e08383610dbd565b90507f90a5cf4cffe88b4edbb041cfc7a8a812c48a5ec30b84640fb37690875168e3aa8160405161031391815260200190565b60405180910390a1601681146102cf575f80fd5b6040516001600160a01b038581166024830152848116604483015283166064820152608481018290525f908190819061016790630aed65f560e11b9060a4015b60408051601f198184030181529181526020820180516001600160e01b03166001600160e01b03199094169390931790925290516103a59190611d39565b5f604051808303815f865af19150503d805f81146103de576040519150601f19603f3d011682016040523d82523d5f602084013e6103e3565b606091505b5091509150816103f4576015610408565b808060200190518101906104089190611d54565b60030b979650505050505050565b60408051606080820183525f8083526001600160a01b0386166020808501829052627a1200858701528551610120810187528f81529081018e9052948501529083018a905260016080840152600788900b60a084015285151560c084015260e08301849052610100830182905290919080610492838b8a610de7565b9092509050601682146104a3575f80fd5b6040516001600160a01b03821681527f7bb17726df1f3adee8aa00ba8e8bc5d6f182af3bbf77604639cb7f008dd3b4ed9060200160405180910390a150505050505050505050505050565b60408051606080820183525f8083526001600160a01b0386166020808501829052627a1200858701528551610120810187528c81529081018b90529485015290830187905260016080840152600786900b60a084015260c0830181905260e0830184905261010083018290529091908061056783610f07565b909250905060168214610578575f80fd5b6040516001600160a01b03821681527f7bb17726df1f3adee8aa00ba8e8bc5d6f182af3bbf77604639cb7f008dd3b4ed9060200160405180910390a150505050505050505050565b60408051606080820183525f8083526001600160a01b038d166020808501829052627a1200858701528551610120810187528d81529081018c905280860191909152918201899052600160808301819052600788900b60a084015260c0830182905260e083018690526101008301849052845181815280860190955292939192909190816020015b6040805160a0810182525f808252602080830182905292820181905260608201819052608082015282525f199092019101816106485750506040805160a081018252600181526001600160a01b038e811660208301525f928201839052606082018390528f1660808201528251929350918391906106c8576106c8611d76565b60209081029190910101526040805160018082528183019092525f91816020015b6040805160c0810182525f8082526020808301829052928201819052606082018190526080820181905260a082015282525f199092019101816106e95790505090506040518060c00160405280600460070b8152602001600560070b8152602001600a60070b8152602001601e60070b81526020015f151581526020018e6001600160a01b0316815250815f8151811061078557610785611d76565b60200260200101819052505f8061079f858b8a878761100f565b915091507f90a5cf4cffe88b4edbb041cfc7a8a812c48a5ec30b84640fb37690875168e3aa826040516107d491815260200190565b60405180910390a1601682146107e8575f80fd5b6040516001600160a01b03821681527f7bb17726df1f3adee8aa00ba8e8bc5d6f182af3bbf77604639cb7f008dd3b4ed9060200160405180910390a1505050505050505050505050505050565b5f60605f806101676001600160a01b031663618dc65e60e01b8787604051602401610861929190611d8a565b60408051601f198184030181529181526020820180516001600160e01b03166001600160e01b031990941693909317909252905161089f9190611d39565b5f604051808303815f865af19150503d805f81146108d8576040519150601f19603f3d011682016040523d82523d5f602084013e6108dd565b606091505b50915091507f4af4780e06fe8cb9df64b0794fa6f01399af979175bb988e35e0e57e594567bc8282604051610913929190611dab565b60405180910390a18161093657601560405180602001604052805f81525061094a565b8080602001905181019061094a9190611dc5565b60039190910b97909650945050505050565b6040516001600160a01b038581166024830152848116604483015283166064820152608481018290525f908190819061016790639b23d3d960e01b9060a401610367565b60408051606080820183525f8083526001600160a01b038b166020808501829052627a1200858701528551610120810187528b81529081018a905280860191909152918201879052600160808301819052600787900b60a084015260c0830182905260e083018690526101008301849052845181815280860190955292939192909190816020015b6040805160a0810182525f808252602080830182905292820181905260608201819052608082015282525f19909201910181610a285750506040805160a081018252600181526001600160a01b038c811660208301525f928201839052606082018390528d166080820152825192935091839190610aa857610aa8611d76565b60209081029190910101526040805160018082528183019092525f91816020015b6040805160c0810182525f8082526020808301829052928201819052606082018190526080820181905260a082015282525f19909201910181610ac95790505090506040518060c00160405280600460070b8152602001600560070b8152602001600a60070b81526020018b6001600160a01b031681526020015f151581526020018c6001600160a01b0316815250815f81518110610b6a57610b6a611d76565b60200260200101819052505f80610492858585611135565b5f806060610b91878686610c1a565b809350819450829550505050610bc2873088845f81518110610bb557610bb5611d76565b602002602001015161119e565b50604080516001600160a01b03898116825288166020820152600787900b8183015290517f215c8eec9aa8fa57cdc8525400a046bf00ff93b20cc529980e01c1ef114fc2289181900360600190a19450945094915050565b5f806060610c298686866111e5565b60405183815292955090935091507f90a5cf4cffe88b4edbb041cfc7a8a812c48a5ec30b84640fb37690875168e3aa9060200160405180910390a160168314610c70575f80fd5b7ffc6b20023c4bac8ff1c48c1693e0cea5cd3c2163e9c2da41c58f17dd6d9f163d8282604051610ca1929190611e4d565b60405180910390a193509350939050565b5f6102e083836112dc565b5f806060610ccc878686610c1a565b91945092509050610bc287308888611311565b6040516001600160a01b038381166024830152821660448201525f908190819061016790638f8d7f9960e01b906064015b60408051601f198184030181529181526020820180516001600160e01b03166001600160e01b0319909416939093179092529051610d4e9190611d39565b5f604051808303815f865af19150503d805f8114610d87576040519150601f19603f3d011682016040523d82523d5f602084013e610d8c565b606091505b509150915081610d9d576015610db1565b80806020019051810190610db19190611d54565b60030b95945050505050565b5f805f6101676001600160a01b0316632e63879b60e01b8686604051602401610d10929190611e68565b5f80848061010001515f015160070b5f148015610e0e57506101008101516040015160070b155b15610e24576101008101516276a7006040909101525b5f806101676001600160a01b031634630fb65bf360e01b8a8a8a604051602401610e5093929190612084565b60408051601f198184030181529181526020820180516001600160e01b03166001600160e01b0319909416939093179092529051610e8e9190611d39565b5f6040518083038185875af1925050503d805f8114610ec8576040519150601f19603f3d011682016040523d82523d5f602084013e610ecd565b606091505b509150915081610edf5760155f610ef3565b80806020019051810190610ef391906120b2565b60039190910b999098509650505050505050565b5f80828061010001515f015160070b5f148015610f2e57506101008101516040015160070b155b15610f44576101008101516276a7006040909101525b5f806101676001600160a01b03163463ea83f29360e01b88604051602401610f6c91906120df565b60408051601f198184030181529181526020820180516001600160e01b03166001600160e01b0319909416939093179092529051610faa9190611d39565b5f6040518083038185875af1925050503d805f8114610fe4576040519150601f19603f3d011682016040523d82523d5f602084013e610fe9565b606091505b509150915081610ffb5760155f61094a565b8080602001905181019061094a91906120b2565b5f80868061010001515f015160070b5f14801561103657506101008101516040015160070b155b1561104c576101008101516276a7006040909101525b5f806101676001600160a01b031634632af0c59a60e01b8c8c8c8c8c60405160240161107c95949392919061215c565b60408051601f198184030181529181526020820180516001600160e01b03166001600160e01b03199094169390931790925290516110ba9190611d39565b5f6040518083038185875af1925050503d805f81146110f4576040519150601f19603f3d011682016040523d82523d5f602084013e6110f9565b606091505b50915091508161110b5760155f61111f565b8080602001905181019061111f91906120b2565b60039190910b9b909a5098505050505050505050565b5f80848061010001515f015160070b5f14801561115c57506101008101516040015160070b155b15611172576101008101516276a7006040909101525b5f806101676001600160a01b03163463abb54eb560e01b8a8a8a604051602401610e5093929190612222565b6040516001600160a01b038581166024830152848116604483015283166064820152600782900b60848201525f908190819061016790635cfc901160e01b9060a401610367565b5f8060605f806101676001600160a01b031663e0f4059a60e01b898989604051602401611214939291906122d7565b60408051601f198184030181529181526020820180516001600160e01b03166001600160e01b03199094169390931790925290516112529190611d39565b5f604051808303815f865af19150503d805f811461128b576040519150601f19603f3d011682016040523d82523d5f602084013e611290565b606091505b5091509150816112b257604080515f80825260208201909252601591906112c6565b808060200190518101906112c69190612352565b60039290920b9a90995090975095505050505050565b6040516001600160a01b038381166024830152821660448201525f90819081906101679063248a35ef60e11b90606401610d10565b6040516001600160a01b038581166024830152848116604483015283166064820152600782900b60848201525f90819081906101679063eca3691760e01b9060a401610367565b6001600160a01b038116811461136c575f80fd5b50565b803561137a81611358565b919050565b5f8060408385031215611390575f80fd5b823561139b81611358565b915060208301356113ab81611358565b809150509250929050565b634e487b7160e01b5f52604160045260245ffd5b6040805190810167ffffffffffffffff811182821017156113ed576113ed6113b6565b60405290565b60405160a0810167ffffffffffffffff811182821017156113ed576113ed6113b6565b604051601f8201601f1916810167ffffffffffffffff8111828210171561143f5761143f6113b6565b604052919050565b5f67ffffffffffffffff821115611460576114606113b6565b5060051b60200190565b5f806040838503121561147b575f80fd5b823561148681611358565b915060208381013567ffffffffffffffff8111156114a2575f80fd5b8401601f810186136114b2575f80fd5b80356114c56114c082611447565b611416565b81815260059190911b820183019083810190888311156114e3575f80fd5b928401925b8284101561150a5783356114fb81611358565b825292840192908401906114e8565b80955050505050509250929050565b5f805f806080858703121561152c575f80fd5b843561153781611358565b9350602085013561154781611358565b9250604085013561155781611358565b9396929550929360600135925050565b5f67ffffffffffffffff821115611580576115806113b6565b50601f01601f191660200190565b5f82601f83011261159d575f80fd5b81356115ab6114c082611567565b8181528460208386010111156115bf575f80fd5b816020850160208301375f918101602001919091529392505050565b8060070b811461136c575f80fd5b803561137a816115db565b8060030b811461136c575f80fd5b803561137a816115f4565b8035801515811461137a575f80fd5b5f82601f83011261162b575f80fd5b8135602061163b6114c083611447565b82815260059290921b84018101918181019086841115611659575f80fd5b8286015b8481101561176d57803567ffffffffffffffff8082111561167c575f80fd5b908801906040601f19838c038101821315611695575f80fd5b61169d6113ca565b88850135815282850135848111156116b3575f80fd5b949094019360a0858e03830112156116ca575f8081fd5b6116d26113f3565b91506116df89860161160d565b8252828501356116ee81611358565b828a015260608581013585811115611705575f8081fd5b6117138f8c838a010161158e565b858501525060809350838601358581111561172d575f8081fd5b61173b8f8c838a010161158e565b82850152505060a0850135945061175185611358565b918101939093528087019290925250835291830191830161165d565b509695505050505050565b5f805f805f805f805f6101208a8c031215611791575f80fd5b893567ffffffffffffffff808211156117a8575f80fd5b6117b48d838e0161158e565b9a5060208c01359150808211156117c9575f80fd5b6117d58d838e0161158e565b995060408c01359150808211156117ea575f80fd5b6117f68d838e0161158e565b985061180460608d016115e9565b975061181260808d016115e9565b965061182060a08d01611602565b955061182e60c08d0161160d565b945061183c60e08d0161136f565b93506101008c0135915080821115611852575f80fd5b5061185f8c828d0161161c565b9150509295985092959850929598565b5f805f805f8060c08789031215611884575f80fd5b863567ffffffffffffffff8082111561189b575f80fd5b6118a78a838b0161158e565b975060208901359150808211156118bc575f80fd5b6118c88a838b0161158e565b965060408901359150808211156118dd575f80fd5b6118e98a838b0161158e565b95506118f760608a016115e9565b945061190560808a0161136f565b935060a089013591508082111561191a575f80fd5b5061192789828a0161161c565b9150509295509295509295565b5f805f805f805f805f6101208a8c03121561194d575f80fd5b6119568a61136f565b985061196460208b0161136f565b975060408a013567ffffffffffffffff80821115611980575f80fd5b61198c8d838e0161158e565b985060608c01359150808211156119a1575f80fd5b6119ad8d838e0161158e565b975060808c01359150808211156119c2575f80fd5b6119ce8d838e0161158e565b96506119dc60a08d016115e9565b95506119ea60c08d016115e9565b945061183c60e08d01611602565b5f8060408385031215611a09575f80fd5b8235611a1481611358565b9150602083013567ffffffffffffffff811115611a2f575f80fd5b611a3b8582860161158e565b9150509250929050565b5f5b83811015611a5f578181015183820152602001611a47565b50505f910152565b5f8151808452611a7e816020860160208601611a45565b601f01601f19169290920160200192915050565b828152604060208201525f611aaa6040830184611a67565b949350505050565b5f805f805f805f60e0888a031215611ac8575f80fd5b611ad18861136f565b9650611adf6020890161136f565b9550604088013567ffffffffffffffff80821115611afb575f80fd5b611b078b838c0161158e565b965060608a0135915080821115611b1c575f80fd5b611b288b838c0161158e565b955060808a0135915080821115611b3d575f80fd5b611b498b838c0161158e565b9450611b5760a08b016115e9565b935060c08a0135915080821115611b6c575f80fd5b50611b798a828b0161161c565b91505092959891949750929550565b5f82601f830112611b97575f80fd5b81356020611ba76114c083611447565b82815260059290921b84018101918181019086841115611bc5575f80fd5b8286015b8481101561176d57803567ffffffffffffffff811115611be8575f8081fd5b611bf68986838b010161158e565b845250918301918301611bc9565b5f805f8060808587031215611c17575f80fd5b8435611c2281611358565b93506020850135611c3281611358565b92506040850135611c42816115db565b9150606085013567ffffffffffffffff811115611c5d575f80fd5b611c6987828801611b88565b91505092959194509250565b5f8151808452602080850194508084015f5b83811015611ca657815160070b87529582019590820190600101611c87565b509495945050505050565b8381528260070b6020820152606060408201525f611cd26060830184611c75565b95945050505050565b5f805f60608486031215611ced575f80fd5b8335611cf881611358565b92506020840135611d08816115db565b9150604084013567ffffffffffffffff811115611d23575f80fd5b611d2f86828701611b88565b9150509250925092565b5f8251611d4a818460208701611a45565b9190910192915050565b5f60208284031215611d64575f80fd5b8151611d6f816115f4565b9392505050565b634e487b7160e01b5f52603260045260245ffd5b6001600160a01b0383168152604060208201525f611aaa6040830184611a67565b8215158152604060208201525f611aaa6040830184611a67565b5f8060408385031215611dd6575f80fd5b8251611de1816115f4565b602084015190925067ffffffffffffffff811115611dfd575f80fd5b8301601f81018513611e0d575f80fd5b8051611e1b6114c082611567565b818152866020838501011115611e2f575f80fd5b611e40826020830160208601611a45565b8093505050509250929050565b8260070b8152604060208201525f611aaa6040830184611c75565b5f604082016001600160a01b038086168452602060408186015282865180855260608701915082880194505f5b81811015611eb3578551851683529483019491830191600101611e95565b509098975050505050505050565b5f81518084526020808501808196508360051b810191508286015f5b85811015611f765782840389528151604081518652868201519150808787015281511515818701528682015160606001600160a01b03808316828a015283850151935060a09250608083818b0152611f3860e08b0186611a67565b928601518a8403603f1901858c0152929450611f548584611a67565b9501511660c09890980197909752505098850198935090840190600101611edd565b5091979650505050505050565b5f6101608251818552611f9882860182611a67565b91505060208301518482036020860152611fb28282611a67565b9150506040830151611fcf60408601826001600160a01b03169052565b5060608301518482036060860152611fe78282611a67565b9150506080830151611ffd608086018215159052565b5060a083015161201260a086018260070b9052565b5060c083015161202660c086018215159052565b5060e083015184820360e086015261203e8282611ec1565b9150506101008084015161207a82870182805160070b82526001600160a01b036020820151166020830152604081015160070b60408301525050565b5090949350505050565b606081525f6120966060830186611f83565b90508360070b60208301528260030b6040830152949350505050565b5f80604083850312156120c3575f80fd5b82516120ce816115f4565b60208401519092506113ab81611358565b602081525f611d6f6020830184611f83565b5f8151808452602080850194508084015f5b83811015611ca6578151805160070b8852838101516001600160a01b03908116858a01526040808301511515908a01526060808301511515908a0152608091820151169088015260a09096019590820190600101612103565b5f60a080835261216e81840189611f83565b6020600789810b8287015260408960030b81880152606087850381890152612196858b6120f1565b94506080888603818a0152858a518088528688019150868c0197505f5b8181101561220d5788518051880b845288810151880b8985015286810151880b8785015285810151880b86850152848101511515858501528a01516001600160a01b03168a8401529787019760c0909201916001016121b3565b50909f9e505050505050505050505050505050565b5f606080835261223481840187611f83565b60208482038186015261224782886120f1565b9150604085830381870152828751808552838501915083890194505f5b818110156122c75785518051600790810b855286820151810b8786015285820151900b85850152878101516001600160a01b039081168986015260808083015115159086015260a09182015116908401529484019460c090920191600101612264565b50909a9950505050505050505050565b5f606082016001600160a01b038616835260208560070b818501526060604085015281855180845260808601915060808160051b87010193508287015f5b8281101561234357607f19888703018452612331868351611a67565b95509284019290840190600101612315565b50939998505050505050505050565b5f805f60608486031215612364575f80fd5b835161236f816115f4565b80935050602080850151612382816115db565b604086015190935067ffffffffffffffff81111561239e575f80fd5b8501601f810187136123ae575f80fd5b80516123bc6114c082611447565b81815260059190911b820183019083810190898311156123da575f80fd5b928401925b828410156124015783516123f2816115db565b825292840192908401906123df565b8095505050505050925092509256fea264697066735822122090fdd015237317c67ed1399ac6bc7d8dd28c24a29b272be94356e106189bca3d64736f6c63430008140033",
  "linkReferences": {},
  "deployedLinkReferences": {}
}