{
  "_format": "hh-sol-artifact-1",
  "contractName": "TokenCreateCustomContract",
  "sourceName": "contracts/hts-precompile/examples/token-create/TokenCreateCustom.sol",
  "abi": [
    {
      "anonymous": false,
      "inputs": [
        {
          "indexed": false,
          "internalType": "bool",
          "name": "",
          "type": "bool"
        },
        {
          "indexed": false,
          "internalType": "bytes",
          "name": "",
          "type": "bytes"
        }
      ],
      "name": "CallResponseEvent",
      "type": "event"
    },
    {
      "anonymous": false,
      "inputs": [
        {
          "indexed": false,
          "internalType": "address",
          "name": "tokenAddress",
          "type": "address"
        }
      ],
      "name": "CreatedToken",
      "type": "event"
    },
    {
      "anonymous": false,
      "inputs": [
        {
          "indexed": false,
          "internalType": "int64",
          "name": "newTotalSupply",
          "type": "int64"
        },
        {
          "indexed": false,
          "internalType": "int64[]",
          "name": "serialNumbers",
          "type": "int64[]"
        }
      ],
      "name": "MintedToken",
      "type": "event"
    },
    {
      "anonymous": false,
      "inputs": [
        {
          "indexed": false,
          "internalType": "int256",
          "name": "responseCode",
          "type": "int256"
        }
      ],
      "name": "ResponseCode",
      "type": "event"
    },
    {
      "anonymous": false,
      "inputs": [
        {
          "indexed": false,
          "internalType": "address",
          "name": "tokenAddress",
          "type": "address"
        },
        {
          "indexed": false,
          "internalType": "address",
          "name": "receiver",
          "type": "address"
        },
        {
          "indexed": false,
          "internalType": "int64",
          "name": "amount",
          "type": "int64"
        }
      ],
      "name": "TransferToken",
      "type": "event"
    },
    {
      "inputs": [
        {
          "internalType": "address",
          "name": "account",
          "type": "address"
        },
        {
          "internalType": "address",
          "name": "token",
          "type": "address"
        }
      ],
      "name": "associateTokenPublic",
      "outputs": [
        {
          "internalType": "int256",
          "name": "responseCode",
          "type": "int256"
        }
      ],
      "stateMutability": "nonpayable",
      "type": "function"
    },
    {
      "inputs": [
        {
          "internalType": "address",
          "name": "account",
          "type": "address"
        },
        {
          "internalType": "address[]",
          "name": "tokens",
          "type": "address[]"
        }
      ],
      "name": "associateTokensPublic",
      "outputs": [
        {
          "internalType": "int256",
          "name": "responseCode",
          "type": "int256"
        }
      ],
      "stateMutability": "nonpayable",
      "type": "function"
    },
    {
      "inputs": [
        {
          "internalType": "string",
          "name": "name",
          "type": "string"
        },
        {
          "internalType": "string",
          "name": "symbol",
          "type": "string"
        },
        {
          "internalType": "string",
          "name": "memo",
          "type": "string"
        },
        {
          "internalType": "int64",
          "name": "initialTotalSupply",
          "type": "int64"
        },
        {
          "internalType": "int64",
          "name": "maxSupply",
          "type": "int64"
        },
        {
          "internalType": "int32",
          "name": "decimals",
          "type": "int32"
        },
        {
          "internalType": "bool",
          "name": "freezeDefaultStatus",
          "type": "bool"
        },
        {
          "internalType": "address",
          "name": "treasury",
          "type": "address"
        },
        {
          "components": [
            {
              "internalType": "uint256",
              "name": "keyType",
              "type": "uint256"
            },
            {
              "components": [
                {
                  "internalType": "bool",
                  "name": "inheritAccountKey",
                  "type": "bool"
                },
                {
                  "internalType": "address",
                  "name": "contractId",
                  "type": "address"
                },
                {
                  "internalType": "bytes",
                  "name": "ed25519",
                  "type": "bytes"
                },
                {
                  "internalType": "bytes",
                  "name": "ECDSA_secp256k1",
                  "type": "bytes"
                },
                {
                  "internalType": "address",
                  "name": "delegatableContractId",
                  "type": "address"
                }
              ],
              "internalType": "struct IHederaTokenService.KeyValue",
              "name": "key",
              "type": "tuple"
            }
          ],
          "internalType": "struct IHederaTokenService.TokenKey[]",
          "name": "keys",
          "type": "tuple[]"
        }
      ],
      "name": "createFungibleTokenPublic",
      "outputs": [],
      "stateMutability": "payable",
      "type": "function"
    },
    {
      "inputs": [
        {
          "internalType": "address",
          "name": "treasury",
          "type": "address"
        },
        {
          "internalType": "address",
          "name": "fixedFeeTokenAddress",
          "type": "address"
        },
        {
          "internalType": "string",
          "name": "name",
          "type": "string"
        },
        {
          "internalType": "string",
          "name": "symbol",
          "type": "string"
        },
        {
          "internalType": "string",
          "name": "memo",
          "type": "string"
        },
        {
          "internalType": "int64",
          "name": "initialTotalSupply",
          "type": "int64"
        },
        {
          "internalType": "int64",
          "name": "maxSupply",
          "type": "int64"
        },
        {
          "internalType": "int32",
          "name": "decimals",
          "type": "int32"
        },
        {
          "components": [
            {
              "internalType": "uint256",
              "name": "keyType",
              "type": "uint256"
            },
            {
              "components": [
                {
                  "internalType": "bool",
                  "name": "inheritAccountKey",
                  "type": "bool"
                },
                {
                  "internalType": "address",
                  "name": "contractId",
                  "type": "address"
                },
                {
                  "internalType": "bytes",
                  "name": "ed25519",
                  "type": "bytes"
                },
                {
                  "internalType": "bytes",
                  "name": "ECDSA_secp256k1",
                  "type": "bytes"
                },
                {
                  "internalType": "address",
                  "name": "delegatableContractId",
                  "type": "address"
                }
              ],
              "internalType": "struct IHederaTokenService.KeyValue",
              "name": "key",
              "type": "tuple"
            }
          ],
          "internalType": "struct IHederaTokenService.TokenKey[]",
          "name": "keys",
          "type": "tuple[]"
        }
      ],
      "name": "createFungibleTokenWithCustomFeesPublic",
      "outputs": [],
      "stateMutability": "payable",
      "type": "function"
    },
    {
      "inputs": [
        {
          "internalType": "string",
          "name": "name",
          "type": "string"
        },
        {
          "internalType": "string",
          "name": "symbol",
          "type": "string"
        },
        {
          "internalType": "string",
          "name": "memo",
          "type": "string"
        },
        {
          "internalType": "int64",
          "name": "maxSupply",
          "type": "int64"
        },
        {
          "internalType": "address",
          "name": "treasury",
          "type": "address"
        },
        {
          "components": [
            {
              "internalType": "uint256",
              "name": "keyType",
              "type": "uint256"
            },
            {
              "components": [
                {
                  "internalType": "bool",
                  "name": "inheritAccountKey",
                  "type": "bool"
                },
                {
                  "internalType": "address",
                  "name": "contractId",
                  "type": "address"
                },
                {
                  "internalType": "bytes",
                  "name": "ed25519",
                  "type": "bytes"
                },
                {
                  "internalType": "bytes",
                  "name": "ECDSA_secp256k1",
                  "type": "bytes"
                },
                {
                  "internalType": "address",
                  "name": "delegatableContractId",
                  "type": "address"
                }
              ],
              "internalType": "struct IHederaTokenService.KeyValue",
              "name": "key",
              "type": "tuple"
            }
          ],
          "internalType": "struct IHederaTokenService.TokenKey[]",
          "name": "keys",
          "type": "tuple[]"
        }
      ],
      "name": "createNonFungibleTokenPublic",
      "outputs": [],
      "stateMutability": "payable",
      "type": "function"
    },
    {
      "inputs": [
        {
          "internalType": "address",
          "name": "treasury",
          "type": "address"
        },
        {
          "internalType": "address",
          "name": "fixedFeeTokenAddress",
          "type": "address"
        },
        {
          "internalType": "string",
          "name": "name",
          "type": "string"
        },
        {
          "internalType": "string",
          "name": "symbol",
          "type": "string"
        },
        {
          "internalType": "string",
          "name": "memo",
          "type": "string"
        },
        {
          "internalType": "int64",
          "name": "maxSupply",
          "type": "int64"
        },
        {
          "components": [
            {
              "internalType": "uint256",
              "name": "keyType",
              "type": "uint256"
            },
            {
              "components": [
                {
                  "internalType": "bool",
                  "name": "inheritAccountKey",
                  "type": "bool"
                },
                {
                  "internalType": "address",
                  "name": "contractId",
                  "type": "address"
                },
                {
                  "internalType": "bytes",
                  "name": "ed25519",
                  "type": "bytes"
                },
                {
                  "internalType": "bytes",
                  "name": "ECDSA_secp256k1",
                  "type": "bytes"
                },
                {
                  "internalType": "address",
                  "name": "delegatableContractId",
                  "type": "address"
                }
              ],
              "internalType": "struct IHederaTokenService.KeyValue",
              "name": "key",
              "type": "tuple"
            }
          ],
          "internalType": "struct IHederaTokenService.TokenKey[]",
          "name": "keys",
          "type": "tuple[]"
        }
      ],
      "name": "createNonFungibleTokenWithCustomFeesPublic",
      "outputs": [],
      "stateMutability": "payable",
      "type": "function"
    },
    {
      "inputs": [
        {
          "internalType": "address",
          "name": "token",
          "type": "address"
        },
        {
          "internalType": "address",
          "name": "account",
          "type": "address"
        }
      ],
      "name": "grantTokenKycPublic",
      "outputs": [
        {
          "internalType": "int64",
          "name": "responseCode",
          "type": "int64"
        }
      ],
      "stateMutability": "nonpayable",
      "type": "function"
    },
    {
      "inputs": [
        {
          "internalType": "address",
          "name": "token",
          "type": "address"
        },
        {
          "internalType": "address",
          "name": "receiver",
          "type": "address"
        },
        {
          "internalType": "int64",
          "name": "amount",
          "type": "int64"
        },
        {
          "internalType": "bytes[]",
          "name": "metadata",
          "type": "bytes[]"
        }
      ],
      "name": "mintNonFungibleTokenToAddressPublic",
      "outputs": [
        {
          "internalType": "int256",
          "name": "responseCode",
          "type": "int256"
        },
        {
          "internalType": "int64",
          "name": "newTotalSupply",
          "type": "int64"
        },
        {
          "internalType": "int64[]",
          "name": "serialNumbers",
          "type": "int64[]"
        }
      ],
      "stateMutability": "nonpayable",
      "type": "function"
    },
    {
      "inputs": [
        {
          "internalType": "address",
          "name": "token",
          "type": "address"
        },
        {
          "internalType": "int64",
          "name": "amount",
          "type": "int64"
        },
        {
          "internalType": "bytes[]",
          "name": "metadata",
          "type": "bytes[]"
        }
      ],
      "name": "mintTokenPublic",
      "outputs": [
        {
          "internalType": "int256",
          "name": "responseCode",
          "type": "int256"
        },
        {
          "internalType": "int64",
          "name": "newTotalSupply",
          "type": "int64"
        },
        {
          "internalType": "int64[]",
          "name": "serialNumbers",
          "type": "int64[]"
        }
      ],
      "stateMutability": "nonpayable",
      "type": "function"
    },
    {
      "inputs": [
        {
          "internalType": "address",
          "name": "token",
          "type": "address"
        },
        {
          "internalType": "address",
          "name": "receiver",
          "type": "address"
        },
        {
          "internalType": "int64",
          "name": "amount",
          "type": "int64"
        },
        {
          "internalType": "bytes[]",
          "name": "metadata",
          "type": "bytes[]"
        }
      ],
      "name": "mintTokenToAddressPublic",
      "outputs": [
        {
          "internalType": "int256",
          "name": "responseCode",
          "type": "int256"
        },
        {
          "internalType": "int64",
          "name": "newTotalSupply",
          "type": "int64"
        },
        {
          "internalType": "int64[]",
          "name": "serialNumbers",
          "type": "int64[]"
        }
      ],
      "stateMutability": "nonpayable",
      "type": "function"
    },
    {
      "inputs": [
        {
          "internalType": "address",
          "name": "token",
          "type": "address"
        },
        {
          "internalType": "bytes",
          "name": "encodedFunctionSelector",
          "type": "bytes"
        }
      ],
      "name": "redirectForToken",
      "outputs": [
        {
          "internalType": "int256",
          "name": "responseCode",
          "type": "int256"
        },
        {
          "internalType": "bytes",
          "name": "response",
          "type": "bytes"
        }
      ],
      "stateMutability": "nonpayable",
      "type": "function"
    },
    {
      "inputs": [
        {
          "internalType": "address",
          "name": "token",
          "type": "address"
        },
        {
          "internalType": "address",
          "name": "from",
          "type": "address"
        },
        {
          "internalType": "address",
          "name": "to",
          "type": "address"
        },
        {
          "internalType": "uint256",
          "name": "amount",
          "type": "uint256"
        }
      ],
      "name": "transferFrom",
      "outputs": [
        {
          "internalType": "int64",
          "name": "responseCode",
          "type": "int64"
        }
      ],
      "stateMutability": "nonpayable",
      "type": "function"
    },
    {
      "inputs": [
        {
          "internalType": "address",
          "name": "token",
          "type": "address"
        },
        {
          "internalType": "address",
          "name": "from",
          "type": "address"
        },
        {
          "internalType": "address",
          "name": "to",
          "type": "address"
        },
        {
          "internalType": "uint256",
          "name": "serialNumber",
          "type": "uint256"
        }
      ],
      "name": "transferFromNFT",
      "outputs": [
        {
          "internalType": "int64",
          "name": "responseCode",
          "type": "int64"
        }
      ],
      "stateMutability": "nonpayable",
      "type": "function"
    }
  ],
  "bytecode": "0x608060405234801561001057600080fd5b50600160208181527fa6eef7e35abe7026729641147f7915573c7e97b47efa546f5f6e3230263bcb499190915560027fcc69885fda6bcc1a4ace058b4a62bf5e179ea78fd58a1ccd71c22cc9b688792f5560047fd9d16d34ffb15ba3a3d852f0d403e2ce1d691fb54de27ac87cd2f993f3ec330f5560087f7dfe757ecd65cbd7922a9c0161e935dd7fdbcc0e999689c7d31633896b1fc60b5560107fedc95719e9a3b28dd8e80877cb5880a9be7de1a13fc8b05e7999683b6b567643557fe2689cd4a84e23ad2f564004f1c9013e9589d260bde6380aba3ca7e09e4df40c55600660005260407f8f331abe73332f95a25873e8b430885974c0409691f89d643119a11623a7924a55612498806101276000396000f3fe6080604052600436106100d25760003560e01c8063618dc65e1161007f578063c827bd3211610059578063c827bd32146101f9578063de84a77914610228578063f4a01e5b14610248578063fec394da1461026857600080fd5b8063618dc65e146101985780639b23d3d9146101c6578063a8c40459146101e657600080fd5b806329fc46e6116100b057806329fc46e61461015d578063424f165e14610172578063566300c61461018557600080fd5b80630fd2601e146100d7578063118741e71461010f57806315dacbea1461013d575b600080fd5b3480156100e357600080fd5b506100f76100f23660046113db565b610288565b60405160079190910b81526020015b60405180910390f35b34801561011b57600080fd5b5061012f61012a3660046114cb565b6102e5565b604051908152602001610106565b34801561014957600080fd5b506100f761015836600461157f565b610339565b61017061016b3660046117e9565b61042d565b005b6101706101803660046118ea565b610507565b6101706101933660046119b7565b6105db565b3480156101a457600080fd5b506101b86101b3366004611a84565b61085b565b604051610106929190611b24565b3480156101d257600080fd5b506100f76101e136600461157f565b610979565b6101706101f4366004611b45565b6109be565b34801561020557600080fd5b50610219610214366004611ca4565b610baa565b60405161010693929190611d58565b34801561023457600080fd5b50610219610243366004611d83565b610c44565b34801561025457600080fd5b5061012f6102633660046113db565b610cde565b34801561027457600080fd5b50610219610283366004611ca4565b610cea565b60006102948383610d0d565b604051600782900b81529091507f90a5cf4cffe88b4edbb041cfc7a8a812c48a5ec30b84640fb37690875168e3aa9060200160405180910390a1600781900b6016146102df57600080fd5b92915050565b60006102f18383610df0565b90507f90a5cf4cffe88b4edbb041cfc7a8a812c48a5ec30b84640fb37690875168e3aa8160405161032491815260200190565b60405180910390a1601681146102df57600080fd5b6040516001600160a01b038581166024830152848116604483015283166064820152608481018290526000908190819061016790630aed65f560e11b9060a4015b60408051601f198184030181529181526020820180516001600160e01b03166001600160e01b03199094169390931790925290516103b89190611de5565b6000604051808303816000865af19150503d80600081146103f5576040519150601f19603f3d011682016040523d82523d6000602084013e6103fa565b606091505b50915091508161040b57601561041f565b8080602001905181019061041f9190611e01565b60030b979650505050505050565b604080516060808201835260008083526001600160a01b0386166020808501829052627a1200858701528551610120810187528f81529081018e9052948501529083018a905260016080840152600788900b60a084015285151560c084015260e083018490526101008301829052909190806104aa838b8a610e1c565b9092509050601682146104bc57600080fd5b6040516001600160a01b03821681527f7bb17726df1f3adee8aa00ba8e8bc5d6f182af3bbf77604639cb7f008dd3b4ed9060200160405180910390a150505050505050505050505050565b604080516060808201835260008083526001600160a01b0386166020808501829052627a1200858701528551610120810187528c81529081018b90529485015290830187905260016080840152600786900b60a084015260c0830181905260e0830184905261010083018290529091908061058183610f44565b90925090506016821461059357600080fd5b6040516001600160a01b03821681527f7bb17726df1f3adee8aa00ba8e8bc5d6f182af3bbf77604639cb7f008dd3b4ed9060200160405180910390a150505050505050505050565b604080516060808201835260008083526001600160a01b038d166020808501829052627a1200858701528551610120810187528d81529081018c905280860191909152918201899052600160808301819052600788900b60a084015260c0830182905260e083018690526101008301849052845181815280860190955292939192909190816020015b6040805160a0810182526000808252602080830182905292820181905260608201819052608082015282526000199092019101816106645750506040805160a081018252600181526001600160a01b038e811660208301526000928201839052606082018390528f1660808201528251929350918391906106e7576106e7611e25565b6020908102919091010152604080516001808252818301909252600091816020015b6040805160c08101825260008082526020808301829052928201819052606082018190526080820181905260a082015282526000199092019101816107095790505090506040518060c00160405280600460070b8152602001600560070b8152602001600a60070b8152602001601e60070b81526020016000151581526020018e6001600160a01b0316815250816000815181106107a9576107a9611e25565b60200260200101819052506000806107c4858b8a8787611054565b915091507f90a5cf4cffe88b4edbb041cfc7a8a812c48a5ec30b84640fb37690875168e3aa826040516107f991815260200190565b60405180910390a16016821461080e57600080fd5b6040516001600160a01b03821681527f7bb17726df1f3adee8aa00ba8e8bc5d6f182af3bbf77604639cb7f008dd3b4ed9060200160405180910390a1505050505050505050505050505050565b600060606000806101676001600160a01b031663618dc65e60e01b8787604051602401610889929190611e3b565b60408051601f198184030181529181526020820180516001600160e01b03166001600160e01b03199094169390931790925290516108c79190611de5565b6000604051808303816000865af19150503d8060008114610904576040519150601f19603f3d011682016040523d82523d6000602084013e610909565b606091505b50915091507f4af4780e06fe8cb9df64b0794fa6f01399af979175bb988e35e0e57e594567bc828260405161093f929190611e5d565b60405180910390a18161096357601560405180602001604052806000815250610967565b6016815b60039190910b97909650945050505050565b6040516001600160a01b038581166024830152848116604483015283166064820152608481018290526000908190819061016790639b23d3d960e01b9060a40161037a565b604080516060808201835260008083526001600160a01b038b166020808501829052627a1200858701528551610120810187528b81529081018a905280860191909152918201879052600160808301819052600787900b60a084015260c0830182905260e083018690526101008301849052845181815280860190955292939192909190816020015b6040805160a081018252600080825260208083018290529282018190526060820181905260808201528252600019909201910181610a475750506040805160a081018252600181526001600160a01b038c811660208301526000928201839052606082018390528d166080820152825192935091839190610aca57610aca611e25565b6020908102919091010152604080516001808252818301909252600091816020015b6040805160c08101825260008082526020808301829052928201819052606082018190526080820181905260a08201528252600019909201910181610aec5790505090506040518060c00160405280600460070b8152602001600560070b8152602001600a60070b81526020018b6001600160a01b031681526020016000151581526020018c6001600160a01b031681525081600081518110610b9157610b91611e25565b60200260200101819052506000806104aa858585611182565b6000806060610bba878686610c44565b809350819450829550505050610bec87308884600081518110610bdf57610bdf611e25565b60200260200101516111ef565b50604080516001600160a01b03898116825288166020820152600787900b8183015290517f215c8eec9aa8fa57cdc8525400a046bf00ff93b20cc529980e01c1ef114fc2289181900360600190a19450945094915050565b6000806060610c54868686611237565b60405183815292955090935091507f90a5cf4cffe88b4edbb041cfc7a8a812c48a5ec30b84640fb37690875168e3aa9060200160405180910390a160168314610c9c57600080fd5b7ffc6b20023c4bac8ff1c48c1693e0cea5cd3c2163e9c2da41c58f17dd6d9f163d8282604051610ccd929190611e78565b60405180910390a193509350939050565b60006102f18383611335565b6000806060610cfa878686610c44565b91945092509050610bec8730888861136b565b6040516001600160a01b038381166024830152821660448201526000908190819061016790638f8d7f9960e01b906064015b60408051601f198184030181529181526020820180516001600160e01b03166001600160e01b0319909416939093179092529051610d7d9190611de5565b6000604051808303816000865af19150503d8060008114610dba576040519150601f19603f3d011682016040523d82523d6000602084013e610dbf565b606091505b509150915081610dd0576015610de4565b80806020019051810190610de49190611e01565b60030b95945050505050565b60008060006101676001600160a01b0316632e63879b60e01b8686604051602401610d3f929190611e94565b600080848061010001516000015160070b6000148015610e4657506101008101516040015160070b155b15610e5c576101008101516276a7006040909101525b6000806101676001600160a01b031634630fb65bf360e01b8a8a8a604051602401610e89939291906120ba565b60408051601f198184030181529181526020820180516001600160e01b03166001600160e01b0319909416939093179092529051610ec79190611de5565b60006040518083038185875af1925050503d8060008114610f04576040519150601f19603f3d011682016040523d82523d6000602084013e610f09565b606091505b509150915081610f1c5760156000610f30565b80806020019051810190610f3091906120e9565b60039190910b999098509650505050505050565b600080828061010001516000015160070b6000148015610f6e57506101008101516040015160070b155b15610f84576101008101516276a7006040909101525b6000806101676001600160a01b03163463ea83f29360e01b88604051602401610fad9190612118565b60408051601f198184030181529181526020820180516001600160e01b03166001600160e01b0319909416939093179092529051610feb9190611de5565b60006040518083038185875af1925050503d8060008114611028576040519150601f19603f3d011682016040523d82523d6000602084013e61102d565b606091505b5091509150816110405760156000610967565b8080602001905181019061096791906120e9565b600080868061010001516000015160070b600014801561107e57506101008101516040015160070b155b15611094576101008101516276a7006040909101525b6000806101676001600160a01b031634632af0c59a60e01b8c8c8c8c8c6040516024016110c5959493929190612199565b60408051601f198184030181529181526020820180516001600160e01b03166001600160e01b03199094169390931790925290516111039190611de5565b60006040518083038185875af1925050503d8060008114611140576040519150601f19603f3d011682016040523d82523d6000602084013e611145565b606091505b509150915081611158576015600061116c565b8080602001905181019061116c91906120e9565b60039190910b9b909a5098505050505050505050565b600080848061010001516000015160070b60001480156111ac57506101008101516040015160070b155b156111c2576101008101516276a7006040909101525b6000806101676001600160a01b03163463abb54eb560e01b8a8a8a604051602401610e8993929190612266565b6040516001600160a01b038581166024830152848116604483015283166064820152600782900b60848201526000908190819061016790635cfc901160e01b9060a40161037a565b60008060606000806101676001600160a01b031663e0f4059a60e01b8989896040516024016112689392919061231f565b60408051601f198184030181529181526020820180516001600160e01b03166001600160e01b03199094169390931790925290516112a69190611de5565b6000604051808303816000865af19150503d80600081146112e3576040519150601f19603f3d011682016040523d82523d6000602084013e6112e8565b606091505b50915091508161130b57604080516000808252602082019092526015919061131f565b8080602001905181019061131f919061239e565b60039290920b9a90995090975095505050505050565b6040516001600160a01b03838116602483015282166044820152600090819081906101679063248a35ef60e11b90606401610d3f565b6040516001600160a01b038581166024830152848116604483015283166064820152600782900b6084820152600090819081906101679063eca3691760e01b9060a40161037a565b6001600160a01b03811681146113c857600080fd5b50565b80356113d6816113b3565b919050565b600080604083850312156113ee57600080fd5b82356113f9816113b3565b91506020830135611409816113b3565b809150509250929050565b634e487b7160e01b600052604160045260246000fd5b6040805190810167ffffffffffffffff8111828210171561144d5761144d611414565b60405290565b60405160a0810167ffffffffffffffff8111828210171561144d5761144d611414565b604051601f8201601f1916810167ffffffffffffffff8111828210171561149f5761149f611414565b604052919050565b600067ffffffffffffffff8211156114c1576114c1611414565b5060051b60200190565b600080604083850312156114de57600080fd5b82356114e9816113b3565b915060208381013567ffffffffffffffff81111561150657600080fd5b8401601f8101861361151757600080fd5b803561152a611525826114a7565b611476565b81815260059190911b8201830190838101908883111561154957600080fd5b928401925b82841015611570578335611561816113b3565b8252928401929084019061154e565b80955050505050509250929050565b6000806000806080858703121561159557600080fd5b84356115a0816113b3565b935060208501356115b0816113b3565b925060408501356115c0816113b3565b9396929550929360600135925050565b600082601f8301126115e157600080fd5b813567ffffffffffffffff8111156115fb576115fb611414565b61160e601f8201601f1916602001611476565b81815284602083860101111561162357600080fd5b816020850160208301376000918101602001919091529392505050565b8060070b81146113c857600080fd5b80356113d681611640565b8060030b81146113c857600080fd5b80356113d68161165a565b803580151581146113d657600080fd5b600082601f83011261169557600080fd5b813560206116a5611525836114a7565b82815260059290921b840181019181810190868411156116c457600080fd5b8286015b848110156117de57803567ffffffffffffffff808211156116e857600080fd5b908801906040601f19838c03810182131561170257600080fd5b61170a61142a565b888501358152828501358481111561172157600080fd5b949094019360a0858e03830112156117395760008081fd5b611741611453565b915061174e898601611674565b82528285013561175d816113b3565b828a0152606085810135858111156117755760008081fd5b6117838f8c838a01016115d0565b858501525060809350838601358581111561179e5760008081fd5b6117ac8f8c838a01016115d0565b82850152505060a085013594506117c2856113b3565b91810193909352808701929092525083529183019183016116c8565b509695505050505050565b60008060008060008060008060006101208a8c03121561180857600080fd5b893567ffffffffffffffff8082111561182057600080fd5b61182c8d838e016115d0565b9a5060208c013591508082111561184257600080fd5b61184e8d838e016115d0565b995060408c013591508082111561186457600080fd5b6118708d838e016115d0565b985061187e60608d0161164f565b975061188c60808d0161164f565b965061189a60a08d01611669565b95506118a860c08d01611674565b94506118b660e08d016113cb565b93506101008c01359150808211156118cd57600080fd5b506118da8c828d01611684565b9150509295985092959850929598565b60008060008060008060c0878903121561190357600080fd5b863567ffffffffffffffff8082111561191b57600080fd5b6119278a838b016115d0565b9750602089013591508082111561193d57600080fd5b6119498a838b016115d0565b9650604089013591508082111561195f57600080fd5b61196b8a838b016115d0565b955061197960608a0161164f565b945061198760808a016113cb565b935060a089013591508082111561199d57600080fd5b506119aa89828a01611684565b9150509295509295509295565b60008060008060008060008060006101208a8c0312156119d657600080fd5b6119df8a6113cb565b98506119ed60208b016113cb565b975060408a013567ffffffffffffffff80821115611a0a57600080fd5b611a168d838e016115d0565b985060608c0135915080821115611a2c57600080fd5b611a388d838e016115d0565b975060808c0135915080821115611a4e57600080fd5b611a5a8d838e016115d0565b9650611a6860a08d0161164f565b9550611a7660c08d0161164f565b94506118b660e08d01611669565b60008060408385031215611a9757600080fd5b8235611aa2816113b3565b9150602083013567ffffffffffffffff811115611abe57600080fd5b611aca858286016115d0565b9150509250929050565b60005b83811015611aef578181015183820152602001611ad7565b50506000910152565b60008151808452611b10816020860160208601611ad4565b601f01601f19169290920160200192915050565b828152604060208201526000611b3d6040830184611af8565b949350505050565b600080600080600080600060e0888a031215611b6057600080fd5b611b69886113cb565b9650611b77602089016113cb565b9550604088013567ffffffffffffffff80821115611b9457600080fd5b611ba08b838c016115d0565b965060608a0135915080821115611bb657600080fd5b611bc28b838c016115d0565b955060808a0135915080821115611bd857600080fd5b611be48b838c016115d0565b9450611bf260a08b0161164f565b935060c08a0135915080821115611c0857600080fd5b50611c158a828b01611684565b91505092959891949750929550565b600082601f830112611c3557600080fd5b81356020611c45611525836114a7565b82815260059290921b84018101918181019086841115611c6457600080fd5b8286015b848110156117de57803567ffffffffffffffff811115611c885760008081fd5b611c968986838b01016115d0565b845250918301918301611c68565b60008060008060808587031215611cba57600080fd5b8435611cc5816113b3565b93506020850135611cd5816113b3565b92506040850135611ce581611640565b9150606085013567ffffffffffffffff811115611d0157600080fd5b611d0d87828801611c24565b91505092959194509250565b60008151808452602080850194506020840160005b83811015611d4d57815160070b87529582019590820190600101611d2e565b509495945050505050565b8381528260070b6020820152606060408201526000611d7a6060830184611d19565b95945050505050565b600080600060608486031215611d9857600080fd5b8335611da3816113b3565b92506020840135611db381611640565b9150604084013567ffffffffffffffff811115611dcf57600080fd5b611ddb86828701611c24565b9150509250925092565b60008251611df7818460208701611ad4565b9190910192915050565b600060208284031215611e1357600080fd5b8151611e1e8161165a565b9392505050565b634e487b7160e01b600052603260045260246000fd5b6001600160a01b0383168152604060208201526000611b3d6040830184611af8565b8215158152604060208201526000611b3d6040830184611af8565b8260070b8152604060208201526000611b3d6040830184611d19565b6000604082016001600160a01b03808616845260206040602086015282865180855260608701915060208801945060005b81811015611ee3578551851683529483019491830191600101611ec5565b509098975050505050505050565b600082825180855260208086019550808260051b84010181860160005b84811015611fab57601f198684030189528151604081518552858201519150808686015281511515818601528582015160606001600160a01b038083168289015283850151935060a09250608083818a0152611f6d60e08a0186611af8565b92860151898403603f1901858b0152929450611f898584611af8565b9501511660c09790970196909652505098840198925090830190600101611f0e565b5090979650505050505050565b60006101608251818552611fce82860182611af8565b91505060208301518482036020860152611fe88282611af8565b915050604083015161200560408601826001600160a01b03169052565b506060830151848203606086015261201d8282611af8565b9150506080830151612033608086018215159052565b5060a083015161204860a086018260070b9052565b5060c083015161205c60c086018215159052565b5060e083015184820360e08601526120748282611ef1565b915050610100808401516120b082870182805160070b82526001600160a01b036020820151166020830152604081015160070b60408301525050565b5090949350505050565b6060815260006120cd6060830186611fb8565b90508360070b60208301528260030b6040830152949350505050565b600080604083850312156120fc57600080fd5b82516121078161165a565b6020840151909250611409816113b3565b602081526000611e1e6020830184611fb8565b60008151808452602080850194506020840160005b83811015611d4d578151805160070b8852838101516001600160a01b03908116858a01526040808301511515908a01526060808301511515908a0152608091820151169088015260a09096019590820190600101612140565b600060a08083526121ad60a0840189611fb8565b602060078960070b8287015260408960030b6040880152606087850360608901526121d8858b61212b565b9450608088860360808a0152858a518088528688019150868c01975060005b818110156122515788518051880b845288810151880b8985015286810151880b8785015285810151880b86850152848101511515858501528a01516001600160a01b03168a8401529787019760c0909201916001016121f7565b50909f9e505050505050505050505050505050565b6000606080835261227a6060840187611fb8565b60208482038186015261228d828861212b565b9150604085830360408701528287518085528385019150838901945060005b8181101561230f5785518051600790810b855286820151810b8786015285820151900b85850152878101516001600160a01b039081168986015260808083015115159086015260a09182015116908401529484019460c0909201916001016122ac565b50909a9950505050505050505050565b6000606082016001600160a01b038616835260208560070b60208501526060604085015281855180845260808601915060808160051b87010193506020870160005b8281101561238f57607f1988870301845261237d868351611af8565b95509284019290840190600101612361565b50939998505050505050505050565b6000806000606084860312156123b357600080fd5b83516123be8161165a565b809350506020808501516123d181611640565b604086015190935067ffffffffffffffff8111156123ee57600080fd5b8501601f810187136123ff57600080fd5b805161240d611525826114a7565b81815260059190911b8201830190838101908983111561242c57600080fd5b928401925b8284101561245357835161244481611640565b82529284019290840190612431565b8095505050505050925092509256fea2646970667358221220b8296f48a775ff02aa340b241d086b06f9d71770188c6e8a5480fa6e6dec1c6d64736f6c63430008170033",
  "linkReferences": {},
  "deployedLinkReferences": {}
}