{
  "_format": "hh-sol-artifact-1",
  "contractName": "TokenCreateCustomContract",
  "sourceName": "contracts/hts-precompile/examples/token-create/TokenCreateCustom.sol",
  "abi": [
    {
      "anonymous": false,
      "inputs": [
        {
          "indexed": false,
          "internalType": "address",
          "name": "tokenAddress",
          "type": "address"
        }
      ],
      "name": "CreatedToken",
      "type": "event"
    },
    {
      "anonymous": false,
      "inputs": [
        {
          "indexed": false,
          "internalType": "int256",
          "name": "responseCode",
          "type": "int256"
        }
      ],
      "name": "ResponseCode",
      "type": "event"
    },
    {
      "inputs": [
        {
          "internalType": "string",
          "name": "name",
          "type": "string"
        },
        {
          "internalType": "string",
          "name": "symbol",
          "type": "string"
        },
        {
          "internalType": "string",
          "name": "memo",
          "type": "string"
        },
        {
          "internalType": "int64",
          "name": "initialTotalSupply",
          "type": "int64"
        },
        {
          "internalType": "int64",
          "name": "maxSupply",
          "type": "int64"
        },
        {
          "internalType": "int32",
          "name": "decimals",
          "type": "int32"
        },
        {
          "internalType": "bool",
          "name": "freezeDefaultStatus",
          "type": "bool"
        },
        {
          "internalType": "address",
          "name": "treasury",
          "type": "address"
        },
        {
          "internalType": "bytes",
          "name": "key",
          "type": "bytes"
        }
      ],
      "name": "createFungibleTokenPublic",
      "outputs": [],
      "stateMutability": "payable",
      "type": "function"
    },
    {
      "inputs": [
        {
          "internalType": "address",
          "name": "token",
          "type": "address"
        },
        {
          "internalType": "address",
          "name": "from",
          "type": "address"
        },
        {
          "internalType": "address",
          "name": "to",
          "type": "address"
        },
        {
          "internalType": "uint256",
          "name": "amount",
          "type": "uint256"
        }
      ],
      "name": "delegateTransferFrom",
      "outputs": [
        {
          "internalType": "int64",
          "name": "responseCode",
          "type": "int64"
        }
      ],
      "stateMutability": "nonpayable",
      "type": "function"
    },
    {
      "inputs": [
        {
          "internalType": "address",
          "name": "token",
          "type": "address"
        },
        {
          "internalType": "address",
          "name": "from",
          "type": "address"
        },
        {
          "internalType": "address",
          "name": "to",
          "type": "address"
        },
        {
          "internalType": "uint256",
          "name": "serialNumber",
          "type": "uint256"
        }
      ],
      "name": "delegateTransferFromNFT",
      "outputs": [
        {
          "internalType": "int64",
          "name": "responseCode",
          "type": "int64"
        }
      ],
      "stateMutability": "nonpayable",
      "type": "function"
    },
    {
      "inputs": [
        {
          "internalType": "address",
          "name": "token",
          "type": "address"
        },
        {
          "internalType": "address",
          "name": "from",
          "type": "address"
        },
        {
          "internalType": "address",
          "name": "to",
          "type": "address"
        },
        {
          "internalType": "uint256",
          "name": "amount",
          "type": "uint256"
        }
      ],
      "name": "transferFrom",
      "outputs": [
        {
          "internalType": "int64",
          "name": "responseCode",
          "type": "int64"
        }
      ],
      "stateMutability": "nonpayable",
      "type": "function"
    },
    {
      "inputs": [
        {
          "internalType": "address",
          "name": "token",
          "type": "address"
        },
        {
          "internalType": "address",
          "name": "from",
          "type": "address"
        },
        {
          "internalType": "address",
          "name": "to",
          "type": "address"
        },
        {
          "internalType": "uint256",
          "name": "serialNumber",
          "type": "uint256"
        }
      ],
      "name": "transferFromNFT",
      "outputs": [
        {
          "internalType": "int64",
          "name": "responseCode",
          "type": "int64"
        }
      ],
      "stateMutability": "nonpayable",
      "type": "function"
    }
  ],
  "bytecode": "0x608060405234801561001057600080fd5b50600160208181527fa6eef7e35abe7026729641147f7915573c7e97b47efa546f5f6e3230263bcb499190915560027fcc69885fda6bcc1a4ace058b4a62bf5e179ea78fd58a1ccd71c22cc9b688792f5560047fd9d16d34ffb15ba3a3d852f0d403e2ce1d691fb54de27ac87cd2f993f3ec330f5560087f7dfe757ecd65cbd7922a9c0161e935dd7fdbcc0e999689c7d31633896b1fc60b5560107fedc95719e9a3b28dd8e80877cb5880a9be7de1a13fc8b05e7999683b6b567643557fe2689cd4a84e23ad2f564004f1c9013e9589d260bde6380aba3ca7e09e4df40c55600660005260407f8f331abe73332f95a25873e8b430885974c0409691f89d643119a11623a7924a55610dc5806101276000396000f3fe60806040526004361061004a5760003560e01c806311e1fc071461004f57806315dacbea146100865780639b23d3d9146100a6578063eac6f3fe146100c6578063f7bddff8146100e6575b600080fd5b34801561005b57600080fd5b5061006f61006a366004610869565b6100fb565b60405160079190910b815260200160405180910390f35b34801561009257600080fd5b5061006f6100a1366004610869565b6101ed565b3480156100b257600080fd5b5061006f6100c1366004610869565b6102a9565b3480156100d257600080fd5b5061006f6100e1366004610869565b6102ee565b6100f96100f4366004610999565b610333565b005b6040516001600160a01b038581166024830152848116604483015283166064820152608481018290526000908190819061016790639b23d3d960e01b9060a4015b60408051601f198184030181529181526020820180516001600160e01b03166001600160e01b031990941693909317909252905161017a9190610aca565b600060405180830381855af49150503d80600081146101b5576040519150601f19603f3d011682016040523d82523d6000602084013e6101ba565b606091505b5091509150816101cb5760156101df565b808060200190518101906101df9190610ae6565b60030b979650505050505050565b6040516001600160a01b038581166024830152848116604483015283166064820152608481018290526000908190819061016790630aed65f560e11b9060a4015b60408051601f198184030181529181526020820180516001600160e01b03166001600160e01b031990941693909317909252905161026c9190610aca565b6000604051808303816000865af19150503d80600081146101b5576040519150601f19603f3d011682016040523d82523d6000602084013e6101ba565b6040516001600160a01b038581166024830152848116604483015283166064820152608481018290526000908190819061016790639b23d3d960e01b9060a40161022e565b6040516001600160a01b038581166024830152848116604483015283166064820152608481018290526000908190819061016790630aed65f560e11b9060a40161013c565b60408051600580825260c08201909252600091816020015b6103536107e4565b81526020019060019003908161034b5790505090506103756006600384610531565b8160008151811061038857610388610b0a565b60200260200101819052506103a06001600384610531565b816001815181106103b3576103b3610b0a565b60200260200101819052506103cb6002600384610531565b816002815181106103de576103de610b0a565b60200260200101819052506103f66004600384610531565b8160038151811061040957610409610b0a565b602002602001018190525061042060038084610531565b8160048151811061043357610433610b0a565b602002602001018190525060006040518060600160405280600060070b8152602001856001600160a01b03168152602001627a120060070b815250905060006040518061012001604052808d81526020018c8152602001866001600160a01b031681526020018b81526020016001151581526020018960070b815260200187151581526020018481526020018381525090506000806104d3838c8b610566565b9092509050601682146104e557600080fd5b6040516001600160a01b03821681527f7bb17726df1f3adee8aa00ba8e8bc5d6f182af3bbf77604639cb7f008dd3b4ed9060200160405180910390a15050505050505050505050505050565b6105396107e4565b604051806040016040528061054d8661068e565b815260200161055c85856106cd565b9052949350505050565b600080848061010001516000015160070b600014801561059057506101008101516040015160070b155b156105a6576101008101516276a7006040909101525b6000806101676001600160a01b031634630fb65bf360e01b8a8a8a6040516024016105d393929190610c10565b60408051601f198184030181529181526020820180516001600160e01b03166001600160e01b03199094169390931790925290516106119190610aca565b60006040518083038185875af1925050503d806000811461064e576040519150601f19603f3d011682016040523d82523d6000602084013e610653565b606091505b509150915081610666576015600061067a565b8080602001905181019061067a9190610d3f565b60039190910b999098509650505050505050565b6000600160008360068111156106a6576106a6610d79565b60068111156106b7576106b7610d79565b8152602001908152602001600020549050919050565b6107136040518060a0016040528060001515815260200160006001600160a01b03168152602001606081526020016060815260200160006001600160a01b031681525090565b600083600481111561072757610727610d79565b141561073657600181526107de565b600183600481111561074a5761074a610d79565b1415610766576000546001600160a01b031660208201526107de565b600283600481111561077a5761077a610d79565b141561078c57604081018290526107de565b60038360048111156107a0576107a0610d79565b14156107b257606081018290526107de565b60048360048111156107c6576107c6610d79565b14156107de576000546001600160a01b031660808201525b92915050565b60405180604001604052806000815260200161083c6040518060a0016040528060001515815260200160006001600160a01b03168152602001606081526020016060815260200160006001600160a01b031681525090565b905290565b6001600160a01b038116811461085657600080fd5b50565b803561086481610841565b919050565b6000806000806080858703121561087f57600080fd5b843561088a81610841565b9350602085013561089a81610841565b925060408501356108aa81610841565b9396929550929360600135925050565b634e487b7160e01b600052604160045260246000fd5b600082601f8301126108e157600080fd5b813567ffffffffffffffff808211156108fc576108fc6108ba565b604051601f8301601f19908116603f01168101908282118183101715610924576109246108ba565b8160405283815286602085880101111561093d57600080fd5b836020870160208301376000602085830101528094505050505092915050565b8035600781900b811461086457600080fd5b8060030b811461085657600080fd5b80356108648161096f565b8035801515811461086457600080fd5b60008060008060008060008060006101208a8c0312156109b857600080fd5b893567ffffffffffffffff808211156109d057600080fd5b6109dc8d838e016108d0565b9a5060208c01359150808211156109f257600080fd5b6109fe8d838e016108d0565b995060408c0135915080821115610a1457600080fd5b610a208d838e016108d0565b9850610a2e60608d0161095d565b9750610a3c60808d0161095d565b9650610a4a60a08d0161097e565b9550610a5860c08d01610989565b9450610a6660e08d01610859565b93506101008c0135915080821115610a7d57600080fd5b50610a8a8c828d016108d0565b9150509295985092959850929598565b60005b83811015610ab5578181015183820152602001610a9d565b83811115610ac4576000848401525b50505050565b60008251610adc818460208701610a9a565b9190910192915050565b600060208284031215610af857600080fd5b8151610b038161096f565b9392505050565b634e487b7160e01b600052603260045260246000fd5b60008151808452610b38816020860160208601610a9a565b601f01601f19169290920160200192915050565b600081518084526020808501808196508360051b8101915082860160005b85811015610c035782840389528151604081518652868201519150808787015281511515818701528682015160606001600160a01b03808316828a015283850151935060a09250608083818b0152610bc560e08b0186610b20565b928601518a8403603f1901858c0152929450610be18584610b20565b9501511660c09890980197909752505098850198935090840190600101610b6a565b5091979650505050505050565b6060815260008451610160806060850152610c2f6101c0850183610b20565b91506020870151605f1980868503016080870152610c4d8483610b20565b935060408901519150610c6b60a08701836001600160a01b03169052565b60608901519150808685030160c0870152610c868483610b20565b935060808901519150610c9d60e087018315159052565b60a08901519150610100610cb58188018460070b9052565b60c08a0151151561012088015260e08a015187860383016101408901529250610cde8584610b4c565b9450808a015192505050610d1a82860182805160070b82526001600160a01b036020820151166020830152604081015160070b60408301525050565b5050600785900b60208401529050610d37604083018460030b9052565b949350505050565b60008060408385031215610d5257600080fd5b8251610d5d8161096f565b6020840151909250610d6e81610841565b809150509250929050565b634e487b7160e01b600052602160045260246000fdfea26469706673582212206acf1e3e20331a93c12bd54ee6d9d372932bdc1ebe13fc0157c1ef19cc04b47964736f6c63430008090033",
  "linkReferences": {},
  "deployedLinkReferences": {}
}