{
  "_format": "hh-sol-artifact-1",
  "contractName": "TokenCreateCustomContract",
  "sourceName": "contracts/hts-precompile/examples/token-create/TokenCreateCustom.sol",
  "abi": [
    {
      "anonymous": false,
      "inputs": [
        {
          "indexed": false,
          "internalType": "bool",
          "name": "",
          "type": "bool"
        },
        {
          "indexed": false,
          "internalType": "bytes",
          "name": "",
          "type": "bytes"
        }
      ],
      "name": "CallResponseEvent",
      "type": "event"
    },
    {
      "anonymous": false,
      "inputs": [
        {
          "indexed": false,
          "internalType": "address",
          "name": "tokenAddress",
          "type": "address"
        }
      ],
      "name": "CreatedToken",
      "type": "event"
    },
    {
      "anonymous": false,
      "inputs": [
        {
          "indexed": false,
          "internalType": "int64",
          "name": "newTotalSupply",
          "type": "int64"
        },
        {
          "indexed": false,
          "internalType": "int64[]",
          "name": "serialNumbers",
          "type": "int64[]"
        }
      ],
      "name": "MintedToken",
      "type": "event"
    },
    {
      "anonymous": false,
      "inputs": [
        {
          "indexed": false,
          "internalType": "int256",
          "name": "responseCode",
          "type": "int256"
        }
      ],
      "name": "ResponseCode",
      "type": "event"
    },
    {
      "anonymous": false,
      "inputs": [
        {
          "indexed": false,
          "internalType": "address",
          "name": "tokenAddress",
          "type": "address"
        },
        {
          "indexed": false,
          "internalType": "address",
          "name": "receiver",
          "type": "address"
        },
        {
          "indexed": false,
          "internalType": "int64",
          "name": "amount",
          "type": "int64"
        }
      ],
      "name": "TransferToken",
      "type": "event"
    },
    {
      "inputs": [
        {
          "internalType": "address",
          "name": "account",
          "type": "address"
        },
        {
          "internalType": "address",
          "name": "token",
          "type": "address"
        }
      ],
      "name": "associateTokenPublic",
      "outputs": [
        {
          "internalType": "int256",
          "name": "responseCode",
          "type": "int256"
        }
      ],
      "stateMutability": "nonpayable",
      "type": "function"
    },
    {
      "inputs": [
        {
          "internalType": "address",
          "name": "account",
          "type": "address"
        },
        {
          "internalType": "address[]",
          "name": "tokens",
          "type": "address[]"
        }
      ],
      "name": "associateTokensPublic",
      "outputs": [
        {
          "internalType": "int256",
          "name": "responseCode",
          "type": "int256"
        }
      ],
      "stateMutability": "nonpayable",
      "type": "function"
    },
    {
      "inputs": [
        {
          "internalType": "string",
          "name": "name",
          "type": "string"
        },
        {
          "internalType": "string",
          "name": "symbol",
          "type": "string"
        },
        {
          "internalType": "string",
          "name": "memo",
          "type": "string"
        },
        {
          "internalType": "int64",
          "name": "initialTotalSupply",
          "type": "int64"
        },
        {
          "internalType": "int64",
          "name": "maxSupply",
          "type": "int64"
        },
        {
          "internalType": "int32",
          "name": "decimals",
          "type": "int32"
        },
        {
          "internalType": "bool",
          "name": "freezeDefaultStatus",
          "type": "bool"
        },
        {
          "internalType": "address",
          "name": "treasury",
          "type": "address"
        },
        {
          "components": [
            {
              "internalType": "uint256",
              "name": "keyType",
              "type": "uint256"
            },
            {
              "components": [
                {
                  "internalType": "bool",
                  "name": "inheritAccountKey",
                  "type": "bool"
                },
                {
                  "internalType": "address",
                  "name": "contractId",
                  "type": "address"
                },
                {
                  "internalType": "bytes",
                  "name": "ed25519",
                  "type": "bytes"
                },
                {
                  "internalType": "bytes",
                  "name": "ECDSA_secp256k1",
                  "type": "bytes"
                },
                {
                  "internalType": "address",
                  "name": "delegatableContractId",
                  "type": "address"
                }
              ],
              "internalType": "struct IHederaTokenService.KeyValue",
              "name": "key",
              "type": "tuple"
            }
          ],
          "internalType": "struct IHederaTokenService.TokenKey[]",
          "name": "keys",
          "type": "tuple[]"
        }
      ],
      "name": "createFungibleTokenPublic",
      "outputs": [],
      "stateMutability": "payable",
      "type": "function"
    },
    {
      "inputs": [
        {
          "internalType": "address",
          "name": "treasury",
          "type": "address"
        },
        {
          "internalType": "address",
          "name": "fixedFeeTokenAddress",
          "type": "address"
        },
        {
          "internalType": "string",
          "name": "name",
          "type": "string"
        },
        {
          "internalType": "string",
          "name": "symbol",
          "type": "string"
        },
        {
          "internalType": "string",
          "name": "memo",
          "type": "string"
        },
        {
          "internalType": "int64",
          "name": "initialTotalSupply",
          "type": "int64"
        },
        {
          "internalType": "int64",
          "name": "maxSupply",
          "type": "int64"
        },
        {
          "internalType": "int32",
          "name": "decimals",
          "type": "int32"
        },
        {
          "internalType": "int64",
          "name": "feeAmount",
          "type": "int64"
        },
        {
          "components": [
            {
              "internalType": "uint256",
              "name": "keyType",
              "type": "uint256"
            },
            {
              "components": [
                {
                  "internalType": "bool",
                  "name": "inheritAccountKey",
                  "type": "bool"
                },
                {
                  "internalType": "address",
                  "name": "contractId",
                  "type": "address"
                },
                {
                  "internalType": "bytes",
                  "name": "ed25519",
                  "type": "bytes"
                },
                {
                  "internalType": "bytes",
                  "name": "ECDSA_secp256k1",
                  "type": "bytes"
                },
                {
                  "internalType": "address",
                  "name": "delegatableContractId",
                  "type": "address"
                }
              ],
              "internalType": "struct IHederaTokenService.KeyValue",
              "name": "key",
              "type": "tuple"
            }
          ],
          "internalType": "struct IHederaTokenService.TokenKey[]",
          "name": "keys",
          "type": "tuple[]"
        }
      ],
      "name": "createFungibleTokenWithCustomFeesPublic",
      "outputs": [],
      "stateMutability": "payable",
      "type": "function"
    },
    {
      "inputs": [
        {
          "internalType": "string",
          "name": "name",
          "type": "string"
        },
        {
          "internalType": "string",
          "name": "symbol",
          "type": "string"
        },
        {
          "internalType": "string",
          "name": "memo",
          "type": "string"
        },
        {
          "internalType": "int64",
          "name": "maxSupply",
          "type": "int64"
        },
        {
          "internalType": "address",
          "name": "treasury",
          "type": "address"
        },
        {
          "components": [
            {
              "internalType": "uint256",
              "name": "keyType",
              "type": "uint256"
            },
            {
              "components": [
                {
                  "internalType": "bool",
                  "name": "inheritAccountKey",
                  "type": "bool"
                },
                {
                  "internalType": "address",
                  "name": "contractId",
                  "type": "address"
                },
                {
                  "internalType": "bytes",
                  "name": "ed25519",
                  "type": "bytes"
                },
                {
                  "internalType": "bytes",
                  "name": "ECDSA_secp256k1",
                  "type": "bytes"
                },
                {
                  "internalType": "address",
                  "name": "delegatableContractId",
                  "type": "address"
                }
              ],
              "internalType": "struct IHederaTokenService.KeyValue",
              "name": "key",
              "type": "tuple"
            }
          ],
          "internalType": "struct IHederaTokenService.TokenKey[]",
          "name": "keys",
          "type": "tuple[]"
        }
      ],
      "name": "createNonFungibleTokenPublic",
      "outputs": [],
      "stateMutability": "payable",
      "type": "function"
    },
    {
      "inputs": [
        {
          "internalType": "address",
          "name": "treasury",
          "type": "address"
        },
        {
          "internalType": "address",
          "name": "fixedFeeTokenAddress",
          "type": "address"
        },
        {
          "internalType": "string",
          "name": "name",
          "type": "string"
        },
        {
          "internalType": "string",
          "name": "symbol",
          "type": "string"
        },
        {
          "internalType": "string",
          "name": "memo",
          "type": "string"
        },
        {
          "internalType": "int64",
          "name": "maxSupply",
          "type": "int64"
        },
        {
          "internalType": "int64",
          "name": "feeAmount",
          "type": "int64"
        },
        {
          "components": [
            {
              "internalType": "uint256",
              "name": "keyType",
              "type": "uint256"
            },
            {
              "components": [
                {
                  "internalType": "bool",
                  "name": "inheritAccountKey",
                  "type": "bool"
                },
                {
                  "internalType": "address",
                  "name": "contractId",
                  "type": "address"
                },
                {
                  "internalType": "bytes",
                  "name": "ed25519",
                  "type": "bytes"
                },
                {
                  "internalType": "bytes",
                  "name": "ECDSA_secp256k1",
                  "type": "bytes"
                },
                {
                  "internalType": "address",
                  "name": "delegatableContractId",
                  "type": "address"
                }
              ],
              "internalType": "struct IHederaTokenService.KeyValue",
              "name": "key",
              "type": "tuple"
            }
          ],
          "internalType": "struct IHederaTokenService.TokenKey[]",
          "name": "keys",
          "type": "tuple[]"
        }
      ],
      "name": "createNonFungibleTokenWithCustomFeesPublic",
      "outputs": [],
      "stateMutability": "payable",
      "type": "function"
    },
    {
      "inputs": [
        {
          "internalType": "address",
          "name": "token",
          "type": "address"
        },
        {
          "internalType": "address",
          "name": "account",
          "type": "address"
        }
      ],
      "name": "grantTokenKycPublic",
      "outputs": [
        {
          "internalType": "int64",
          "name": "responseCode",
          "type": "int64"
        }
      ],
      "stateMutability": "nonpayable",
      "type": "function"
    },
    {
      "inputs": [
        {
          "internalType": "address",
          "name": "token",
          "type": "address"
        },
        {
          "internalType": "address",
          "name": "receiver",
          "type": "address"
        },
        {
          "internalType": "int64",
          "name": "amount",
          "type": "int64"
        },
        {
          "internalType": "bytes[]",
          "name": "metadata",
          "type": "bytes[]"
        }
      ],
      "name": "mintNonFungibleTokenToAddressPublic",
      "outputs": [
        {
          "internalType": "int256",
          "name": "responseCode",
          "type": "int256"
        },
        {
          "internalType": "int64",
          "name": "newTotalSupply",
          "type": "int64"
        },
        {
          "internalType": "int64[]",
          "name": "serialNumbers",
          "type": "int64[]"
        }
      ],
      "stateMutability": "nonpayable",
      "type": "function"
    },
    {
      "inputs": [
        {
          "internalType": "address",
          "name": "token",
          "type": "address"
        },
        {
          "internalType": "int64",
          "name": "amount",
          "type": "int64"
        },
        {
          "internalType": "bytes[]",
          "name": "metadata",
          "type": "bytes[]"
        }
      ],
      "name": "mintTokenPublic",
      "outputs": [
        {
          "internalType": "int256",
          "name": "responseCode",
          "type": "int256"
        },
        {
          "internalType": "int64",
          "name": "newTotalSupply",
          "type": "int64"
        },
        {
          "internalType": "int64[]",
          "name": "serialNumbers",
          "type": "int64[]"
        }
      ],
      "stateMutability": "nonpayable",
      "type": "function"
    },
    {
      "inputs": [
        {
          "internalType": "address",
          "name": "token",
          "type": "address"
        },
        {
          "internalType": "address",
          "name": "receiver",
          "type": "address"
        },
        {
          "internalType": "int64",
          "name": "amount",
          "type": "int64"
        },
        {
          "internalType": "bytes[]",
          "name": "metadata",
          "type": "bytes[]"
        }
      ],
      "name": "mintTokenToAddressPublic",
      "outputs": [
        {
          "internalType": "int256",
          "name": "responseCode",
          "type": "int256"
        },
        {
          "internalType": "int64",
          "name": "newTotalSupply",
          "type": "int64"
        },
        {
          "internalType": "int64[]",
          "name": "serialNumbers",
          "type": "int64[]"
        }
      ],
      "stateMutability": "nonpayable",
      "type": "function"
    },
    {
      "inputs": [
        {
          "internalType": "address",
          "name": "token",
          "type": "address"
        },
        {
          "internalType": "bytes",
          "name": "encodedFunctionSelector",
          "type": "bytes"
        }
      ],
      "name": "redirectForToken",
      "outputs": [
        {
          "internalType": "int256",
          "name": "responseCode",
          "type": "int256"
        },
        {
          "internalType": "bytes",
          "name": "response",
          "type": "bytes"
        }
      ],
      "stateMutability": "nonpayable",
      "type": "function"
    },
    {
      "inputs": [
        {
          "internalType": "address",
          "name": "token",
          "type": "address"
        },
        {
          "internalType": "address",
          "name": "from",
          "type": "address"
        },
        {
          "internalType": "address",
          "name": "to",
          "type": "address"
        },
        {
          "internalType": "uint256",
          "name": "amount",
          "type": "uint256"
        }
      ],
      "name": "transferFrom",
      "outputs": [
        {
          "internalType": "int64",
          "name": "responseCode",
          "type": "int64"
        }
      ],
      "stateMutability": "nonpayable",
      "type": "function"
    },
    {
      "inputs": [
        {
          "internalType": "address",
          "name": "token",
          "type": "address"
        },
        {
          "internalType": "address",
          "name": "from",
          "type": "address"
        },
        {
          "internalType": "address",
          "name": "to",
          "type": "address"
        },
        {
          "internalType": "uint256",
          "name": "serialNumber",
          "type": "uint256"
        }
      ],
      "name": "transferFromNFT",
      "outputs": [
        {
          "internalType": "int64",
          "name": "responseCode",
          "type": "int64"
        }
      ],
      "stateMutability": "nonpayable",
      "type": "function"
    }
  ],
  "bytecode": "0x608060405234801561001057600080fd5b50600160208181527fa6eef7e35abe7026729641147f7915573c7e97b47efa546f5f6e3230263bcb499190915560027fcc69885fda6bcc1a4ace058b4a62bf5e179ea78fd58a1ccd71c22cc9b688792f5560047fd9d16d34ffb15ba3a3d852f0d403e2ce1d691fb54de27ac87cd2f993f3ec330f5560087f7dfe757ecd65cbd7922a9c0161e935dd7fdbcc0e999689c7d31633896b1fc60b5560107fedc95719e9a3b28dd8e80877cb5880a9be7de1a13fc8b05e7999683b6b567643557fe2689cd4a84e23ad2f564004f1c9013e9589d260bde6380aba3ca7e09e4df40c55600660005260407f8f331abe73332f95a25873e8b430885974c0409691f89d643119a11623a7924a5561256c806101276000396000f3fe6080604052600436106100d25760003560e01c8063618dc65e1161007f578063c827bd3211610059578063c827bd32146101f9578063de84a77914610228578063f4a01e5b14610248578063fec394da1461026857600080fd5b8063618dc65e146101985780639b23d3d9146101c6578063bb330b12146101e657600080fd5b806329fc46e6116100b057806329fc46e61461015d578063424f165e1461017257806353b4f6781461018557600080fd5b80630fd2601e146100d7578063118741e71461010f57806315dacbea1461013d575b600080fd5b3480156100e357600080fd5b506100f76100f2366004611458565b610288565b60405160079190910b81526020015b60405180910390f35b34801561011b57600080fd5b5061012f61012a366004611548565b6102e5565b604051908152602001610106565b34801561014957600080fd5b506100f76101583660046115fc565b610339565b61017061016b366004611866565b61042d565b005b610170610180366004611967565b610507565b610170610193366004611a34565b6105db565b3480156101a457600080fd5b506101b86101b3366004611b24565b610834565b604051610106929190611bc4565b3480156101d257600080fd5b506100f76101e13660046115fc565b610952565b6101706101f4366004611be5565b610997565b34801561020557600080fd5b50610219610214366004611d78565b610c27565b60405161010693929190611e2c565b34801561023457600080fd5b50610219610243366004611e57565b610cc1565b34801561025457600080fd5b5061012f610263366004611458565b610d5b565b34801561027457600080fd5b50610219610283366004611d78565b610d67565b60006102948383610d8a565b604051600782900b81529091507f90a5cf4cffe88b4edbb041cfc7a8a812c48a5ec30b84640fb37690875168e3aa9060200160405180910390a1600781900b6016146102df57600080fd5b92915050565b60006102f18383610e6d565b90507f90a5cf4cffe88b4edbb041cfc7a8a812c48a5ec30b84640fb37690875168e3aa8160405161032491815260200190565b60405180910390a1601681146102df57600080fd5b6040516001600160a01b038581166024830152848116604483015283166064820152608481018290526000908190819061016790630aed65f560e11b9060a4015b60408051601f198184030181529181526020820180516001600160e01b03166001600160e01b03199094169390931790925290516103b89190611eb9565b6000604051808303816000865af19150503d80600081146103f5576040519150601f19603f3d011682016040523d82523d6000602084013e6103fa565b606091505b50915091508161040b57601561041f565b8080602001905181019061041f9190611ed5565b60030b979650505050505050565b604080516060808201835260008083526001600160a01b0386166020808501829052627a1200858701528551610120810187528f81529081018e9052948501529083018a905260016080840152600788900b60a084015285151560c084015260e083018490526101008301829052909190806104aa838b8a610e99565b9092509050601682146104bc57600080fd5b6040516001600160a01b03821681527f7bb17726df1f3adee8aa00ba8e8bc5d6f182af3bbf77604639cb7f008dd3b4ed9060200160405180910390a150505050505050505050505050565b604080516060808201835260008083526001600160a01b0386166020808501829052627a1200858701528551610120810187528c81529081018b90529485015290830187905260016080840152600786900b60a084015260c0830181905260e0830184905261010083018290529091908061058183610fc1565b90925090506016821461059357600080fd5b6040516001600160a01b03821681527f7bb17726df1f3adee8aa00ba8e8bc5d6f182af3bbf77604639cb7f008dd3b4ed9060200160405180910390a150505050505050505050565b604080516060808201835260008083526001600160a01b038c166020808501829052627a1200858701528551610120810187528c81529081018b905280860191909152918201889052600160808301819052600788900b60a084015260c0830182905260e083018690526101008301849052845181815280860190955292939192909190816020015b6040805160a0810182526000808252602080830182905292820181905260608201819052608082015282526000199092019101816106645790505090506040518060a001604052808660070b81526020018b6001600160a01b031681526020016000151581526020016000151581526020018c6001600160a01b0316815250816000815181106106f6576106f6611ef9565b6020908102919091010152604080516001808252818301909252600091816020015b6040805160c08101825260008082526020808301829052928201819052606082018190526080820181905260a082015282526000199092019101816107185790505090506040518060c00160405280600460070b8152602001600560070b8152602001600a60070b81526020018c6001600160a01b031681526020016000151581526020018d6001600160a01b0316815250816000815181106107bd576107bd611ef9565b60200260200101819052506000806107d68585856110d1565b9092509050601682146107e857600080fd5b6040516001600160a01b03821681527f7bb17726df1f3adee8aa00ba8e8bc5d6f182af3bbf77604639cb7f008dd3b4ed9060200160405180910390a15050505050505050505050505050565b600060606000806101676001600160a01b031663618dc65e60e01b8787604051602401610862929190611f0f565b60408051601f198184030181529181526020820180516001600160e01b03166001600160e01b03199094169390931790925290516108a09190611eb9565b6000604051808303816000865af19150503d80600081146108dd576040519150601f19603f3d011682016040523d82523d6000602084013e6108e2565b606091505b50915091507f4af4780e06fe8cb9df64b0794fa6f01399af979175bb988e35e0e57e594567bc8282604051610918929190611f31565b60405180910390a18161093c57601560405180602001604052806000815250610940565b6016815b60039190910b97909650945050505050565b6040516001600160a01b038581166024830152848116604483015283166064820152608481018290526000908190819061016790639b23d3d960e01b9060a40161037a565b604080516060808201835260008083526001600160a01b038e166020808501829052627a1200858701528551610120810187528e81529081018d9052808601919091529182018a9052600160808301819052600789900b60a084015260c0830182905260e083018690526101008301849052845181815280860190955292939192909190816020015b6040805160a081018252600080825260208083018290529282018190526060820181905260808201528252600019909201910181610a205790505090506040518060a001604052808660070b81526020018d6001600160a01b031681526020016000151581526020016000151581526020018e6001600160a01b031681525081600081518110610ab257610ab2611ef9565b6020908102919091010152604080516001808252818301909252600091816020015b6040805160c08101825260008082526020808301829052928201819052606082018190526080820181905260a08201528252600019909201910181610ad45790505090506040518060c00160405280600460070b8152602001600560070b8152602001600a60070b8152602001601e60070b81526020016000151581526020018f6001600160a01b031681525081600081518110610b7457610b74611ef9565b6020026020010181905250600080610b8f858c8b878761113e565b915091507f90a5cf4cffe88b4edbb041cfc7a8a812c48a5ec30b84640fb37690875168e3aa82604051610bc491815260200190565b60405180910390a160168214610bd957600080fd5b6040516001600160a01b03821681527f7bb17726df1f3adee8aa00ba8e8bc5d6f182af3bbf77604639cb7f008dd3b4ed9060200160405180910390a150505050505050505050505050505050565b6000806060610c37878686610cc1565b809350819450829550505050610c6987308884600081518110610c5c57610c5c611ef9565b602002602001015161126c565b50604080516001600160a01b03898116825288166020820152600787900b8183015290517f215c8eec9aa8fa57cdc8525400a046bf00ff93b20cc529980e01c1ef114fc2289181900360600190a19450945094915050565b6000806060610cd18686866112b4565b60405183815292955090935091507f90a5cf4cffe88b4edbb041cfc7a8a812c48a5ec30b84640fb37690875168e3aa9060200160405180910390a160168314610d1957600080fd5b7ffc6b20023c4bac8ff1c48c1693e0cea5cd3c2163e9c2da41c58f17dd6d9f163d8282604051610d4a929190611f4c565b60405180910390a193509350939050565b60006102f183836113b2565b6000806060610d77878686610cc1565b91945092509050610c69873088886113e8565b6040516001600160a01b038381166024830152821660448201526000908190819061016790638f8d7f9960e01b906064015b60408051601f198184030181529181526020820180516001600160e01b03166001600160e01b0319909416939093179092529051610dfa9190611eb9565b6000604051808303816000865af19150503d8060008114610e37576040519150601f19603f3d011682016040523d82523d6000602084013e610e3c565b606091505b509150915081610e4d576015610e61565b80806020019051810190610e619190611ed5565b60030b95945050505050565b60008060006101676001600160a01b0316632e63879b60e01b8686604051602401610dbc929190611f68565b600080848061010001516000015160070b6000148015610ec357506101008101516040015160070b155b15610ed9576101008101516276a7006040909101525b6000806101676001600160a01b031634630fb65bf360e01b8a8a8a604051602401610f069392919061218e565b60408051601f198184030181529181526020820180516001600160e01b03166001600160e01b0319909416939093179092529051610f449190611eb9565b60006040518083038185875af1925050503d8060008114610f81576040519150601f19603f3d011682016040523d82523d6000602084013e610f86565b606091505b509150915081610f995760156000610fad565b80806020019051810190610fad91906121bd565b60039190910b999098509650505050505050565b600080828061010001516000015160070b6000148015610feb57506101008101516040015160070b155b15611001576101008101516276a7006040909101525b6000806101676001600160a01b03163463ea83f29360e01b8860405160240161102a91906121ec565b60408051601f198184030181529181526020820180516001600160e01b03166001600160e01b03199094169390931790925290516110689190611eb9565b60006040518083038185875af1925050503d80600081146110a5576040519150601f19603f3d011682016040523d82523d6000602084013e6110aa565b606091505b5091509150816110bd5760156000610940565b8080602001905181019061094091906121bd565b600080848061010001516000015160070b60001480156110fb57506101008101516040015160070b155b15611111576101008101516276a7006040909101525b6000806101676001600160a01b03163463abb54eb560e01b8a8a8a604051602401610f069392919061226d565b600080868061010001516000015160070b600014801561116857506101008101516040015160070b155b1561117e576101008101516276a7006040909101525b6000806101676001600160a01b031634632af0c59a60e01b8c8c8c8c8c6040516024016111af959493929190612326565b60408051601f198184030181529181526020820180516001600160e01b03166001600160e01b03199094169390931790925290516111ed9190611eb9565b60006040518083038185875af1925050503d806000811461122a576040519150601f19603f3d011682016040523d82523d6000602084013e61122f565b606091505b5091509150816112425760156000611256565b8080602001905181019061125691906121bd565b60039190910b9b909a5098505050505050505050565b6040516001600160a01b038581166024830152848116604483015283166064820152600782900b60848201526000908190819061016790635cfc901160e01b9060a40161037a565b60008060606000806101676001600160a01b031663e0f4059a60e01b8989896040516024016112e5939291906123f3565b60408051601f198184030181529181526020820180516001600160e01b03166001600160e01b03199094169390931790925290516113239190611eb9565b6000604051808303816000865af19150503d8060008114611360576040519150601f19603f3d011682016040523d82523d6000602084013e611365565b606091505b50915091508161138857604080516000808252602082019092526015919061139c565b8080602001905181019061139c9190612472565b60039290920b9a90995090975095505050505050565b6040516001600160a01b03838116602483015282166044820152600090819081906101679063248a35ef60e11b90606401610dbc565b6040516001600160a01b038581166024830152848116604483015283166064820152600782900b6084820152600090819081906101679063eca3691760e01b9060a40161037a565b6001600160a01b038116811461144557600080fd5b50565b803561145381611430565b919050565b6000806040838503121561146b57600080fd5b823561147681611430565b9150602083013561148681611430565b809150509250929050565b634e487b7160e01b600052604160045260246000fd5b6040805190810167ffffffffffffffff811182821017156114ca576114ca611491565b60405290565b60405160a0810167ffffffffffffffff811182821017156114ca576114ca611491565b604051601f8201601f1916810167ffffffffffffffff8111828210171561151c5761151c611491565b604052919050565b600067ffffffffffffffff82111561153e5761153e611491565b5060051b60200190565b6000806040838503121561155b57600080fd5b823561156681611430565b915060208381013567ffffffffffffffff81111561158357600080fd5b8401601f8101861361159457600080fd5b80356115a76115a282611524565b6114f3565b81815260059190911b820183019083810190888311156115c657600080fd5b928401925b828410156115ed5783356115de81611430565b825292840192908401906115cb565b80955050505050509250929050565b6000806000806080858703121561161257600080fd5b843561161d81611430565b9350602085013561162d81611430565b9250604085013561163d81611430565b9396929550929360600135925050565b600082601f83011261165e57600080fd5b813567ffffffffffffffff81111561167857611678611491565b61168b601f8201601f19166020016114f3565b8181528460208386010111156116a057600080fd5b816020850160208301376000918101602001919091529392505050565b8060070b811461144557600080fd5b8035611453816116bd565b8060030b811461144557600080fd5b8035611453816116d7565b8035801515811461145357600080fd5b600082601f83011261171257600080fd5b813560206117226115a283611524565b82815260059290921b8401810191818101908684111561174157600080fd5b8286015b8481101561185b57803567ffffffffffffffff8082111561176557600080fd5b908801906040601f19838c03810182131561177f57600080fd5b6117876114a7565b888501358152828501358481111561179e57600080fd5b949094019360a0858e03830112156117b65760008081fd5b6117be6114d0565b91506117cb8986016116f1565b8252828501356117da81611430565b828a0152606085810135858111156117f25760008081fd5b6118008f8c838a010161164d565b858501525060809350838601358581111561181b5760008081fd5b6118298f8c838a010161164d565b82850152505060a0850135945061183f85611430565b9181019390935280870192909252508352918301918301611745565b509695505050505050565b60008060008060008060008060006101208a8c03121561188557600080fd5b893567ffffffffffffffff8082111561189d57600080fd5b6118a98d838e0161164d565b9a5060208c01359150808211156118bf57600080fd5b6118cb8d838e0161164d565b995060408c01359150808211156118e157600080fd5b6118ed8d838e0161164d565b98506118fb60608d016116cc565b975061190960808d016116cc565b965061191760a08d016116e6565b955061192560c08d016116f1565b945061193360e08d01611448565b93506101008c013591508082111561194a57600080fd5b506119578c828d01611701565b9150509295985092959850929598565b60008060008060008060c0878903121561198057600080fd5b863567ffffffffffffffff8082111561199857600080fd5b6119a48a838b0161164d565b975060208901359150808211156119ba57600080fd5b6119c68a838b0161164d565b965060408901359150808211156119dc57600080fd5b6119e88a838b0161164d565b95506119f660608a016116cc565b9450611a0460808a01611448565b935060a0890135915080821115611a1a57600080fd5b50611a2789828a01611701565b9150509295509295509295565b600080600080600080600080610100898b031215611a5157600080fd5b611a5a89611448565b9750611a6860208a01611448565b9650604089013567ffffffffffffffff80821115611a8557600080fd5b611a918c838d0161164d565b975060608b0135915080821115611aa757600080fd5b611ab38c838d0161164d565b965060808b0135915080821115611ac957600080fd5b611ad58c838d0161164d565b9550611ae360a08c016116cc565b9450611af160c08c016116cc565b935060e08b0135915080821115611b0757600080fd5b50611b148b828c01611701565b9150509295985092959890939650565b60008060408385031215611b3757600080fd5b8235611b4281611430565b9150602083013567ffffffffffffffff811115611b5e57600080fd5b611b6a8582860161164d565b9150509250929050565b60005b83811015611b8f578181015183820152602001611b77565b50506000910152565b60008151808452611bb0816020860160208601611b74565b601f01601f19169290920160200192915050565b828152604060208201526000611bdd6040830184611b98565b949350505050565b6000806000806000806000806000806101408b8d031215611c0557600080fd5b611c0e8b611448565b9950611c1c60208c01611448565b985060408b013567ffffffffffffffff80821115611c3957600080fd5b611c458e838f0161164d565b995060608d0135915080821115611c5b57600080fd5b611c678e838f0161164d565b985060808d0135915080821115611c7d57600080fd5b611c898e838f0161164d565b9750611c9760a08e016116cc565b9650611ca560c08e016116cc565b9550611cb360e08e016116e6565b9450611cc26101008e016116cc565b93506101208d0135915080821115611cd957600080fd5b50611ce68d828e01611701565b9150509295989b9194979a5092959850565b600082601f830112611d0957600080fd5b81356020611d196115a283611524565b82815260059290921b84018101918181019086841115611d3857600080fd5b8286015b8481101561185b57803567ffffffffffffffff811115611d5c5760008081fd5b611d6a8986838b010161164d565b845250918301918301611d3c565b60008060008060808587031215611d8e57600080fd5b8435611d9981611430565b93506020850135611da981611430565b92506040850135611db9816116bd565b9150606085013567ffffffffffffffff811115611dd557600080fd5b611de187828801611cf8565b91505092959194509250565b60008151808452602080850194506020840160005b83811015611e2157815160070b87529582019590820190600101611e02565b509495945050505050565b8381528260070b6020820152606060408201526000611e4e6060830184611ded565b95945050505050565b600080600060608486031215611e6c57600080fd5b8335611e7781611430565b92506020840135611e87816116bd565b9150604084013567ffffffffffffffff811115611ea357600080fd5b611eaf86828701611cf8565b9150509250925092565b60008251611ecb818460208701611b74565b9190910192915050565b600060208284031215611ee757600080fd5b8151611ef2816116d7565b9392505050565b634e487b7160e01b600052603260045260246000fd5b6001600160a01b0383168152604060208201526000611bdd6040830184611b98565b8215158152604060208201526000611bdd6040830184611b98565b8260070b8152604060208201526000611bdd6040830184611ded565b6000604082016001600160a01b03808616845260206040602086015282865180855260608701915060208801945060005b81811015611fb7578551851683529483019491830191600101611f99565b509098975050505050505050565b600082825180855260208086019550808260051b84010181860160005b8481101561207f57601f198684030189528151604081518552858201519150808686015281511515818601528582015160606001600160a01b038083168289015283850151935060a09250608083818a015261204160e08a0186611b98565b92860151898403603f1901858b015292945061205d8584611b98565b9501511660c09790970196909652505098840198925090830190600101611fe2565b5090979650505050505050565b600061016082518185526120a282860182611b98565b915050602083015184820360208601526120bc8282611b98565b91505060408301516120d960408601826001600160a01b03169052565b50606083015184820360608601526120f18282611b98565b9150506080830151612107608086018215159052565b5060a083015161211c60a086018260070b9052565b5060c083015161213060c086018215159052565b5060e083015184820360e08601526121488282611fc5565b9150506101008084015161218482870182805160070b82526001600160a01b036020820151166020830152604081015160070b60408301525050565b5090949350505050565b6060815260006121a1606083018661208c565b90508360070b60208301528260030b6040830152949350505050565b600080604083850312156121d057600080fd5b82516121db816116d7565b602084015190925061148681611430565b602081526000611ef2602083018461208c565b60008151808452602080850194506020840160005b83811015611e21578151805160070b8852838101516001600160a01b03908116858a01526040808301511515908a01526060808301511515908a0152608091820151169088015260a09096019590820190600101612214565b60006060808352612281606084018761208c565b60208482038186015261229482886121ff565b9150604085830360408701528287518085528385019150838901945060005b818110156123165785518051600790810b855286820151810b8786015285820151900b85850152878101516001600160a01b039081168986015260808083015115159086015260a09182015116908401529484019460c0909201916001016122b3565b50909a9950505050505050505050565b600060a080835261233a60a084018961208c565b602060078960070b8287015260408960030b604088015260608785036060890152612365858b6121ff565b9450608088860360808a0152858a518088528688019150868c01975060005b818110156123de5788518051880b845288810151880b8985015286810151880b8785015285810151880b86850152848101511515858501528a01516001600160a01b03168a8401529787019760c090920191600101612384565b50909f9e505050505050505050505050505050565b6000606082016001600160a01b038616835260208560070b60208501526060604085015281855180845260808601915060808160051b87010193506020870160005b8281101561246357607f19888703018452612451868351611b98565b95509284019290840190600101612435565b50939998505050505050505050565b60008060006060848603121561248757600080fd5b8351612492816116d7565b809350506020808501516124a5816116bd565b604086015190935067ffffffffffffffff8111156124c257600080fd5b8501601f810187136124d357600080fd5b80516124e16115a282611524565b81815260059190911b8201830190838101908983111561250057600080fd5b928401925b82841015612527578351612518816116bd565b82529284019290840190612505565b8095505050505050925092509256fea2646970667358221220f545ed1684576e322f86daca558c844efc3bae013f6f196c82e4ef76bb79165764736f6c63430008170033",
  "linkReferences": {},
  "deployedLinkReferences": {}
}