{
  "_format": "hh-sol-artifact-1",
  "contractName": "TokenCreateCustomContract",
  "sourceName": "contracts/hts-precompile/examples/token-create/TokenCreateCustom.sol",
  "abi": [
    {
      "anonymous": false,
      "inputs": [
        {
          "indexed": false,
          "internalType": "bool",
          "name": "",
          "type": "bool"
        },
        {
          "indexed": false,
          "internalType": "bytes",
          "name": "",
          "type": "bytes"
        }
      ],
      "name": "CallResponseEvent",
      "type": "event"
    },
    {
      "anonymous": false,
      "inputs": [
        {
          "indexed": false,
          "internalType": "address",
          "name": "tokenAddress",
          "type": "address"
        }
      ],
      "name": "CreatedToken",
      "type": "event"
    },
    {
      "anonymous": false,
      "inputs": [
        {
          "indexed": false,
          "internalType": "int256",
          "name": "responseCode",
          "type": "int256"
        }
      ],
      "name": "ResponseCode",
      "type": "event"
    },
    {
      "inputs": [
        {
          "internalType": "string",
          "name": "name",
          "type": "string"
        },
        {
          "internalType": "string",
          "name": "symbol",
          "type": "string"
        },
        {
          "internalType": "string",
          "name": "memo",
          "type": "string"
        },
        {
          "internalType": "int64",
          "name": "initialTotalSupply",
          "type": "int64"
        },
        {
          "internalType": "int64",
          "name": "maxSupply",
          "type": "int64"
        },
        {
          "internalType": "int32",
          "name": "decimals",
          "type": "int32"
        },
        {
          "internalType": "bool",
          "name": "freezeDefaultStatus",
          "type": "bool"
        },
        {
          "internalType": "address",
          "name": "treasury",
          "type": "address"
        },
        {
          "internalType": "bytes",
          "name": "key",
          "type": "bytes"
        }
      ],
      "name": "createFungibleTokenPublic",
      "outputs": [],
      "stateMutability": "payable",
      "type": "function"
    },
    {
      "inputs": [
        {
          "internalType": "address",
          "name": "token",
          "type": "address"
        },
        {
          "internalType": "bytes",
          "name": "encodedFunctionSelector",
          "type": "bytes"
        }
      ],
      "name": "redirectForToken",
      "outputs": [],
      "stateMutability": "nonpayable",
      "type": "function"
    },
    {
      "inputs": [
        {
          "internalType": "address",
          "name": "token",
          "type": "address"
        },
        {
          "internalType": "address",
          "name": "from",
          "type": "address"
        },
        {
          "internalType": "address",
          "name": "to",
          "type": "address"
        },
        {
          "internalType": "uint256",
          "name": "amount",
          "type": "uint256"
        }
      ],
      "name": "transferFrom",
      "outputs": [
        {
          "internalType": "int64",
          "name": "responseCode",
          "type": "int64"
        }
      ],
      "stateMutability": "nonpayable",
      "type": "function"
    },
    {
      "inputs": [
        {
          "internalType": "address",
          "name": "token",
          "type": "address"
        },
        {
          "internalType": "address",
          "name": "from",
          "type": "address"
        },
        {
          "internalType": "address",
          "name": "to",
          "type": "address"
        },
        {
          "internalType": "uint256",
          "name": "serialNumber",
          "type": "uint256"
        }
      ],
      "name": "transferFromNFT",
      "outputs": [
        {
          "internalType": "int64",
          "name": "responseCode",
          "type": "int64"
        }
      ],
      "stateMutability": "nonpayable",
      "type": "function"
    }
  ],
  "bytecode": "0x608060405234801561000f575f80fd5b50600160208181527fa6eef7e35abe7026729641147f7915573c7e97b47efa546f5f6e3230263bcb499190915560027fcc69885fda6bcc1a4ace058b4a62bf5e179ea78fd58a1ccd71c22cc9b688792f5560047fd9d16d34ffb15ba3a3d852f0d403e2ce1d691fb54de27ac87cd2f993f3ec330f5560087f7dfe757ecd65cbd7922a9c0161e935dd7fdbcc0e999689c7d31633896b1fc60b5560107fedc95719e9a3b28dd8e80877cb5880a9be7de1a13fc8b05e7999683b6b567643557fe2689cd4a84e23ad2f564004f1c9013e9589d260bde6380aba3ca7e09e4df40c5560065f5260407f8f331abe73332f95a25873e8b430885974c0409691f89d643119a11623a7924a55610dae806101235f395ff3fe60806040526004361061003e575f3560e01c806315dacbea14610042578063618dc65e146100785780639b23d3d914610099578063f7bddff8146100b8575b5f80fd5b34801561004d575f80fd5b5061006161005c3660046107fb565b6100cb565b60405160079190910b815260200160405180910390f35b348015610083575f80fd5b506100976100923660046108e6565b6101ba565b005b3480156100a4575f80fd5b506100616100b33660046107fb565b6102a3565b6100976100c636600461096c565b6102e7565b6040516001600160a01b038581166024830152848116604483015283166064820152608481018290525f908190819061016790630aed65f560e11b9060a4015b60408051601f198184030181529181526020820180516001600160e01b03166001600160e01b03199094169390931790925290516101499190610a85565b5f604051808303815f865af19150503d805f8114610182576040519150601f19603f3d011682016040523d82523d5f602084013e610187565b606091505b5091509150816101985760156101ac565b808060200190518101906101ac9190610aa0565b60030b979650505050505050565b5f806101676001600160a01b031663618dc65e60e01b85856040516024016101e3929190610aed565b60408051601f198184030181529181526020820180516001600160e01b03166001600160e01b03199094169390931790925290516102219190610a85565b5f604051808303815f865af19150503d805f811461025a576040519150601f19603f3d011682016040523d82523d5f602084013e61025f565b606091505b50915091507f4af4780e06fe8cb9df64b0794fa6f01399af979175bb988e35e0e57e594567bc8282604051610295929190610b16565b60405180910390a150505050565b6040516001600160a01b038581166024830152848116604483015283166064820152608481018290525f908190819061016790639b23d3d960e01b9060a40161010b565b60408051600580825260c082019092525f91816020015b61030661077b565b8152602001906001900390816102fe57905050905061032860066003846104de565b815f8151811061033a5761033a610b30565b602002602001018190525061035260016003846104de565b8160018151811061036557610365610b30565b602002602001018190525061037d60026003846104de565b8160028151811061039057610390610b30565b60200260200101819052506103a860046003846104de565b816003815181106103bb576103bb610b30565b60200260200101819052506103d2600380846104de565b816004815181106103e5576103e5610b30565b60200260200101819052505f60405180606001604052805f60070b8152602001856001600160a01b03168152602001627a120060070b81525090505f6040518061012001604052808d81526020018c8152602001866001600160a01b031681526020018b81526020016001151581526020018960070b815260200187151581526020018481526020018381525090505f80610481838c8b610513565b909250905060168214610492575f80fd5b6040516001600160a01b03821681527f7bb17726df1f3adee8aa00ba8e8bc5d6f182af3bbf77604639cb7f008dd3b4ed9060200160405180910390a15050505050505050505050505050565b6104e661077b565b60405180604001604052806104fa86610633565b8152602001610509858561066f565b9052949350505050565b5f80848061010001515f015160070b5f14801561053a57506101008101516040015160070b155b15610550576101008101516276a7006040909101525b5f806101676001600160a01b031634630fb65bf360e01b8a8a8a60405160240161057c93929190610c06565b60408051601f198184030181529181526020820180516001600160e01b03166001600160e01b03199094169390931790925290516105ba9190610a85565b5f6040518083038185875af1925050503d805f81146105f4576040519150601f19603f3d011682016040523d82523d5f602084013e6105f9565b606091505b50915091508161060b5760155f61061f565b8080602001905181019061061f9190610d2c565b60039190910b999098509650505050505050565b5f60015f83600681111561064957610649610d64565b600681111561065a5761065a610d64565b81526020019081526020015f20549050919050565b6106b26040518060a001604052805f151581526020015f6001600160a01b0316815260200160608152602001606081526020015f6001600160a01b031681525090565b5f8360048111156106c5576106c5610d64565b036106d35760018152610775565b60018360048111156106e7576106e7610d64565b03610701575f546001600160a01b03166020820152610775565b600283600481111561071557610715610d64565b036107265760408101829052610775565b600383600481111561073a5761073a610d64565b0361074b5760608101829052610775565b600483600481111561075f5761075f610d64565b03610775575f546001600160a01b031660808201525b92915050565b60405180604001604052805f81526020016107cf6040518060a001604052805f151581526020015f6001600160a01b0316815260200160608152602001606081526020015f6001600160a01b031681525090565b905290565b6001600160a01b03811681146107e8575f80fd5b50565b80356107f6816107d4565b919050565b5f805f806080858703121561080e575f80fd5b8435610819816107d4565b93506020850135610829816107d4565b92506040850135610839816107d4565b9396929550929360600135925050565b634e487b7160e01b5f52604160045260245ffd5b5f82601f83011261086c575f80fd5b813567ffffffffffffffff8082111561088757610887610849565b604051601f8301601f19908116603f011681019082821181831017156108af576108af610849565b816040528381528660208588010111156108c7575f80fd5b836020870160208301375f602085830101528094505050505092915050565b5f80604083850312156108f7575f80fd5b8235610902816107d4565b9150602083013567ffffffffffffffff81111561091d575f80fd5b6109298582860161085d565b9150509250929050565b8035600781900b81146107f6575f80fd5b8060030b81146107e8575f80fd5b80356107f681610944565b803580151581146107f6575f80fd5b5f805f805f805f805f6101208a8c031215610985575f80fd5b893567ffffffffffffffff8082111561099c575f80fd5b6109a88d838e0161085d565b9a5060208c01359150808211156109bd575f80fd5b6109c98d838e0161085d565b995060408c01359150808211156109de575f80fd5b6109ea8d838e0161085d565b98506109f860608d01610933565b9750610a0660808d01610933565b9650610a1460a08d01610952565b9550610a2260c08d0161095d565b9450610a3060e08d016107eb565b93506101008c0135915080821115610a46575f80fd5b50610a538c828d0161085d565b9150509295985092959850929598565b5f5b83811015610a7d578181015183820152602001610a65565b50505f910152565b5f8251610a96818460208701610a63565b9190910192915050565b5f60208284031215610ab0575f80fd5b8151610abb81610944565b9392505050565b5f8151808452610ad9816020860160208601610a63565b601f01601f19169290920160200192915050565b6001600160a01b0383168152604060208201525f610b0e6040830184610ac2565b949350505050565b8215158152604060208201525f610b0e6040830184610ac2565b634e487b7160e01b5f52603260045260245ffd5b5f81518084526020808501808196508360051b810191508286015f5b85811015610bf95782840389528151604081518652868201519150808787015281511515818701528682015160606001600160a01b03808316828a015283850151935060a09250608083818b0152610bbb60e08b0186610ac2565b928601518a8403603f1901858c0152929450610bd78584610ac2565b9501511660c09890980197909752505098850198935090840190600101610b60565b5091979650505050505050565b606081525f8451610160806060850152610c246101c0850183610ac2565b91506020870151605f1980868503016080870152610c428483610ac2565b935060408901519150610c6060a08701836001600160a01b03169052565b60608901519150808685030160c0870152610c7b8483610ac2565b935060808901519150610c9260e087018315159052565b60a08901519150610100610caa8188018460070b9052565b60c08a0151151561012088015260e08a015187860383016101408901529250610cd38584610b44565b9450808a015192505050610d0f82860182805160070b82526001600160a01b036020820151166020830152604081015160070b60408301525050565b5050600785900b60208401529050610b0e604083018460030b9052565b5f8060408385031215610d3d575f80fd5b8251610d4881610944565b6020840151909250610d59816107d4565b809150509250929050565b634e487b7160e01b5f52602160045260245ffdfea2646970667358221220e58b6e6769966f118bc58b7c11b005be237a20be3e355ae50d2a80a44fb1b09d64736f6c63430008140033",
  "linkReferences": {},
  "deployedLinkReferences": {}
}