{
  "_format": "hh-sol-artifact-1",
  "contractName": "TokenCreateCustomContract",
  "sourceName": "contracts/hts-precompile/examples/token-create/TokenCreateCustom.sol",
  "abi": [
    {
      "anonymous": false,
      "inputs": [
        {
          "indexed": false,
          "internalType": "bool",
          "name": "",
          "type": "bool"
        },
        {
          "indexed": false,
          "internalType": "bytes",
          "name": "",
          "type": "bytes"
        }
      ],
      "name": "CallResponseEvent",
      "type": "event"
    },
    {
      "anonymous": false,
      "inputs": [
        {
          "indexed": false,
          "internalType": "address",
          "name": "tokenAddress",
          "type": "address"
        }
      ],
      "name": "CreatedToken",
      "type": "event"
    },
    {
      "anonymous": false,
      "inputs": [
        {
          "indexed": false,
          "internalType": "int256",
          "name": "responseCode",
          "type": "int256"
        }
      ],
      "name": "ResponseCode",
      "type": "event"
    },
    {
      "inputs": [
        {
          "internalType": "string",
          "name": "name",
          "type": "string"
        },
        {
          "internalType": "string",
          "name": "symbol",
          "type": "string"
        },
        {
          "internalType": "string",
          "name": "memo",
          "type": "string"
        },
        {
          "internalType": "int64",
          "name": "initialTotalSupply",
          "type": "int64"
        },
        {
          "internalType": "int64",
          "name": "maxSupply",
          "type": "int64"
        },
        {
          "internalType": "int32",
          "name": "decimals",
          "type": "int32"
        },
        {
          "internalType": "bool",
          "name": "freezeDefaultStatus",
          "type": "bool"
        },
        {
          "internalType": "address",
          "name": "treasury",
          "type": "address"
        },
        {
          "internalType": "bytes",
          "name": "key",
          "type": "bytes"
        }
      ],
      "name": "createFungibleTokenPublic",
      "outputs": [],
      "stateMutability": "payable",
      "type": "function"
    },
    {
      "inputs": [
        {
          "internalType": "address",
          "name": "token",
          "type": "address"
        },
        {
          "internalType": "address",
          "name": "from",
          "type": "address"
        },
        {
          "internalType": "address",
          "name": "to",
          "type": "address"
        },
        {
          "internalType": "uint256",
          "name": "amount",
          "type": "uint256"
        }
      ],
      "name": "delegateTransferFrom",
      "outputs": [
        {
          "internalType": "int64",
          "name": "responseCode",
          "type": "int64"
        }
      ],
      "stateMutability": "nonpayable",
      "type": "function"
    },
    {
      "inputs": [
        {
          "internalType": "address",
          "name": "token",
          "type": "address"
        },
        {
          "internalType": "address",
          "name": "from",
          "type": "address"
        },
        {
          "internalType": "address",
          "name": "to",
          "type": "address"
        },
        {
          "internalType": "uint256",
          "name": "serialNumber",
          "type": "uint256"
        }
      ],
      "name": "delegateTransferFromNFT",
      "outputs": [
        {
          "internalType": "int64",
          "name": "responseCode",
          "type": "int64"
        }
      ],
      "stateMutability": "nonpayable",
      "type": "function"
    },
    {
      "inputs": [
        {
          "internalType": "address",
          "name": "token",
          "type": "address"
        },
        {
          "internalType": "bytes",
          "name": "encodedFunctionSelector",
          "type": "bytes"
        }
      ],
      "name": "redirectForToken",
      "outputs": [],
      "stateMutability": "nonpayable",
      "type": "function"
    },
    {
      "inputs": [
        {
          "internalType": "address",
          "name": "token",
          "type": "address"
        },
        {
          "internalType": "address",
          "name": "from",
          "type": "address"
        },
        {
          "internalType": "address",
          "name": "to",
          "type": "address"
        },
        {
          "internalType": "uint256",
          "name": "amount",
          "type": "uint256"
        }
      ],
      "name": "transferFrom",
      "outputs": [
        {
          "internalType": "int64",
          "name": "responseCode",
          "type": "int64"
        }
      ],
      "stateMutability": "nonpayable",
      "type": "function"
    },
    {
      "inputs": [
        {
          "internalType": "address",
          "name": "token",
          "type": "address"
        },
        {
          "internalType": "address",
          "name": "from",
          "type": "address"
        },
        {
          "internalType": "address",
          "name": "to",
          "type": "address"
        },
        {
          "internalType": "uint256",
          "name": "serialNumber",
          "type": "uint256"
        }
      ],
      "name": "transferFromNFT",
      "outputs": [
        {
          "internalType": "int64",
          "name": "responseCode",
          "type": "int64"
        }
      ],
      "stateMutability": "nonpayable",
      "type": "function"
    }
  ],
  "bytecode": "0x608060405234801561001057600080fd5b50600160208181527fa6eef7e35abe7026729641147f7915573c7e97b47efa546f5f6e3230263bcb499190915560027fcc69885fda6bcc1a4ace058b4a62bf5e179ea78fd58a1ccd71c22cc9b688792f5560047fd9d16d34ffb15ba3a3d852f0d403e2ce1d691fb54de27ac87cd2f993f3ec330f5560087f7dfe757ecd65cbd7922a9c0161e935dd7fdbcc0e999689c7d31633896b1fc60b5560107fedc95719e9a3b28dd8e80877cb5880a9be7de1a13fc8b05e7999683b6b567643557fe2689cd4a84e23ad2f564004f1c9013e9589d260bde6380aba3ca7e09e4df40c55600660005260407f8f331abe73332f95a25873e8b430885974c0409691f89d643119a11623a7924a55610f78806101276000396000f3fe6080604052600436106100655760003560e01c80639b23d3d9116100435780639b23d3d9146100e3578063eac6f3fe14610103578063f7bddff81461012357600080fd5b806311e1fc071461006a57806315dacbea146100a1578063618dc65e146100c1575b600080fd5b34801561007657600080fd5b5061008a610085366004610992565b610136565b60405160079190910b815260200160405180910390f35b3480156100ad57600080fd5b5061008a6100bc366004610992565b610228565b3480156100cd57600080fd5b506100e16100dc366004610a86565b6102e4565b005b3480156100ef57600080fd5b5061008a6100fe366004610992565b6103d2565b34801561010f57600080fd5b5061008a61011e366004610992565b610417565b6100e1610131366004610b12565b61045c565b6040516001600160a01b038581166024830152848116604483015283166064820152608481018290526000908190819061016790639b23d3d960e01b9060a4015b60408051601f198184030181529181526020820180516001600160e01b03166001600160e01b03199094169390931790925290516101b59190610c43565b600060405180830381855af49150503d80600081146101f0576040519150601f19603f3d011682016040523d82523d6000602084013e6101f5565b606091505b50915091508161020657601561021a565b8080602001905181019061021a9190610c5f565b60030b979650505050505050565b6040516001600160a01b038581166024830152848116604483015283166064820152608481018290526000908190819061016790630aed65f560e11b9060a4015b60408051601f198184030181529181526020820180516001600160e01b03166001600160e01b03199094169390931790925290516102a79190610c43565b6000604051808303816000865af19150503d80600081146101f0576040519150601f19603f3d011682016040523d82523d6000602084013e6101f5565b6000806101676001600160a01b031663618dc65e60e01b858560405160240161030e929190610caf565b60408051601f198184030181529181526020820180516001600160e01b03166001600160e01b031990941693909317909252905161034c9190610c43565b6000604051808303816000865af19150503d8060008114610389576040519150601f19603f3d011682016040523d82523d6000602084013e61038e565b606091505b50915091507f4af4780e06fe8cb9df64b0794fa6f01399af979175bb988e35e0e57e594567bc82826040516103c4929190610cd9565b60405180910390a150505050565b6040516001600160a01b038581166024830152848116604483015283166064820152608481018290526000908190819061016790639b23d3d960e01b9060a401610269565b6040516001600160a01b038581166024830152848116604483015283166064820152608481018290526000908190819061016790630aed65f560e11b9060a401610177565b60408051600580825260c08201909252600091816020015b61047c61090d565b81526020019060019003908161047457905050905061049e600660038461065a565b816000815181106104b1576104b1610cf4565b60200260200101819052506104c9600160038461065a565b816001815181106104dc576104dc610cf4565b60200260200101819052506104f4600260038461065a565b8160028151811061050757610507610cf4565b602002602001018190525061051f600460038461065a565b8160038151811061053257610532610cf4565b60200260200101819052506105496003808461065a565b8160048151811061055c5761055c610cf4565b602002602001018190525060006040518060600160405280600060070b8152602001856001600160a01b03168152602001627a120060070b815250905060006040518061012001604052808d81526020018c8152602001866001600160a01b031681526020018b81526020016001151581526020018960070b815260200187151581526020018481526020018381525090506000806105fc838c8b61068f565b90925090506016821461060e57600080fd5b6040516001600160a01b03821681527f7bb17726df1f3adee8aa00ba8e8bc5d6f182af3bbf77604639cb7f008dd3b4ed9060200160405180910390a15050505050505050505050505050565b61066261090d565b6040518060400160405280610676866107b7565b815260200161068585856107f6565b9052949350505050565b600080848061010001516000015160070b60001480156106b957506101008101516040015160070b155b156106cf576101008101516276a7006040909101525b6000806101676001600160a01b031634630fb65bf360e01b8a8a8a6040516024016106fc93929190610dcb565b60408051601f198184030181529181526020820180516001600160e01b03166001600160e01b031990941693909317909252905161073a9190610c43565b60006040518083038185875af1925050503d8060008114610777576040519150601f19603f3d011682016040523d82523d6000602084013e61077c565b606091505b50915091508161078f57601560006107a3565b808060200190518101906107a39190610ef2565b60039190910b999098509650505050505050565b6000600160008360068111156107cf576107cf610f2c565b60068111156107e0576107e0610f2c565b8152602001908152602001600020549050919050565b61083c6040518060a0016040528060001515815260200160006001600160a01b03168152602001606081526020016060815260200160006001600160a01b031681525090565b600083600481111561085057610850610f2c565b141561085f5760018152610907565b600183600481111561087357610873610f2c565b141561088f576000546001600160a01b03166020820152610907565b60028360048111156108a3576108a3610f2c565b14156108b55760408101829052610907565b60038360048111156108c9576108c9610f2c565b14156108db5760608101829052610907565b60048360048111156108ef576108ef610f2c565b1415610907576000546001600160a01b031660808201525b92915050565b6040518060400160405280600081526020016109656040518060a0016040528060001515815260200160006001600160a01b03168152602001606081526020016060815260200160006001600160a01b031681525090565b905290565b6001600160a01b038116811461097f57600080fd5b50565b803561098d8161096a565b919050565b600080600080608085870312156109a857600080fd5b84356109b38161096a565b935060208501356109c38161096a565b925060408501356109d38161096a565b9396929550929360600135925050565b634e487b7160e01b600052604160045260246000fd5b600082601f830112610a0a57600080fd5b813567ffffffffffffffff80821115610a2557610a256109e3565b604051601f8301601f19908116603f01168101908282118183101715610a4d57610a4d6109e3565b81604052838152866020858801011115610a6657600080fd5b836020870160208301376000602085830101528094505050505092915050565b60008060408385031215610a9957600080fd5b8235610aa48161096a565b9150602083013567ffffffffffffffff811115610ac057600080fd5b610acc858286016109f9565b9150509250929050565b8035600781900b811461098d57600080fd5b8060030b811461097f57600080fd5b803561098d81610ae8565b8035801515811461098d57600080fd5b60008060008060008060008060006101208a8c031215610b3157600080fd5b893567ffffffffffffffff80821115610b4957600080fd5b610b558d838e016109f9565b9a5060208c0135915080821115610b6b57600080fd5b610b778d838e016109f9565b995060408c0135915080821115610b8d57600080fd5b610b998d838e016109f9565b9850610ba760608d01610ad6565b9750610bb560808d01610ad6565b9650610bc360a08d01610af7565b9550610bd160c08d01610b02565b9450610bdf60e08d01610982565b93506101008c0135915080821115610bf657600080fd5b50610c038c828d016109f9565b9150509295985092959850929598565b60005b83811015610c2e578181015183820152602001610c16565b83811115610c3d576000848401525b50505050565b60008251610c55818460208701610c13565b9190910192915050565b600060208284031215610c7157600080fd5b8151610c7c81610ae8565b9392505050565b60008151808452610c9b816020860160208601610c13565b601f01601f19169290920160200192915050565b6001600160a01b0383168152604060208201526000610cd16040830184610c83565b949350505050565b8215158152604060208201526000610cd16040830184610c83565b634e487b7160e01b600052603260045260246000fd5b6000815180845260208085019450848260051b860182860160005b85811015610dbe5783830389528151604081518552868201519150808786015281511515818601528682015160606001600160a01b038083168289015283850151935060a09250608083818a0152610d8060e08a0186610c83565b92860151898403603f1901858b0152929450610d9c8584610c83565b9501511660c09790970196909652505098850198925090840190600101610d25565b5090979650505050505050565b6060815260008451610160806060850152610dea6101c0850183610c83565b91506020870151605f1980868503016080870152610e088483610c83565b935060408901519150610e2660a08701836001600160a01b03169052565b60608901519150808685030160c0870152610e418483610c83565b935060808901519150610e5860e087018315159052565b60a08901519150610100610e708188018460070b9052565b60c08a0151151561012088015260e08a015187860383016101408901529250610e998584610d0a565b9450808a015192505050610ed582860182805160070b82526001600160a01b036020820151166020830152604081015160070b60408301525050565b5050600785900b60208401529050610cd1604083018460030b9052565b60008060408385031215610f0557600080fd5b8251610f1081610ae8565b6020840151909250610f218161096a565b809150509250929050565b634e487b7160e01b600052602160045260246000fdfea26469706673582212208daa1d98dfc66e002d26aee607c0d0348d64f5294085da45aada2194ef64418f64736f6c63430008090033",
  "linkReferences": {},
  "deployedLinkReferences": {}
}