{
  "_format": "hh-sol-artifact-1",
  "contractName": "TokenCreateCustomContract",
  "sourceName": "contracts/hts-precompile/examples/token-create/TokenCreateCustom.sol",
  "abi": [
    {
      "anonymous": false,
      "inputs": [
        {
          "indexed": false,
          "internalType": "bool",
          "name": "",
          "type": "bool"
        },
        {
          "indexed": false,
          "internalType": "bytes",
          "name": "",
          "type": "bytes"
        }
      ],
      "name": "CallResponseEvent",
      "type": "event"
    },
    {
      "anonymous": false,
      "inputs": [
        {
          "indexed": false,
          "internalType": "address",
          "name": "tokenAddress",
          "type": "address"
        }
      ],
      "name": "CreatedToken",
      "type": "event"
    },
    {
      "anonymous": false,
      "inputs": [
        {
          "indexed": false,
          "internalType": "int256",
          "name": "responseCode",
          "type": "int256"
        }
      ],
      "name": "ResponseCode",
      "type": "event"
    },
    {
      "inputs": [
        {
          "internalType": "string",
          "name": "name",
          "type": "string"
        },
        {
          "internalType": "string",
          "name": "symbol",
          "type": "string"
        },
        {
          "internalType": "string",
          "name": "memo",
          "type": "string"
        },
        {
          "internalType": "int64",
          "name": "initialTotalSupply",
          "type": "int64"
        },
        {
          "internalType": "int64",
          "name": "maxSupply",
          "type": "int64"
        },
        {
          "internalType": "int32",
          "name": "decimals",
          "type": "int32"
        },
        {
          "internalType": "bool",
          "name": "freezeDefaultStatus",
          "type": "bool"
        },
        {
          "internalType": "address",
          "name": "treasury",
          "type": "address"
        },
        {
          "internalType": "bytes",
          "name": "key",
          "type": "bytes"
        }
      ],
      "name": "createFungibleTokenPublic",
      "outputs": [],
      "stateMutability": "payable",
      "type": "function"
    },
    {
      "inputs": [
        {
          "internalType": "address",
          "name": "token",
          "type": "address"
        },
        {
          "internalType": "bytes",
          "name": "encodedFunctionSelector",
          "type": "bytes"
        }
      ],
      "name": "redirectForToken",
      "outputs": [
        {
          "internalType": "bool",
          "name": "success",
          "type": "bool"
        },
        {
          "internalType": "bytes",
          "name": "result",
          "type": "bytes"
        }
      ],
      "stateMutability": "nonpayable",
      "type": "function"
    },
    {
      "inputs": [
        {
          "internalType": "address",
          "name": "token",
          "type": "address"
        },
        {
          "internalType": "address",
          "name": "from",
          "type": "address"
        },
        {
          "internalType": "address",
          "name": "to",
          "type": "address"
        },
        {
          "internalType": "uint256",
          "name": "amount",
          "type": "uint256"
        }
      ],
      "name": "transferFrom",
      "outputs": [
        {
          "internalType": "int64",
          "name": "responseCode",
          "type": "int64"
        }
      ],
      "stateMutability": "nonpayable",
      "type": "function"
    },
    {
      "inputs": [
        {
          "internalType": "address",
          "name": "token",
          "type": "address"
        },
        {
          "internalType": "address",
          "name": "from",
          "type": "address"
        },
        {
          "internalType": "address",
          "name": "to",
          "type": "address"
        },
        {
          "internalType": "uint256",
          "name": "serialNumber",
          "type": "uint256"
        }
      ],
      "name": "transferFromNFT",
      "outputs": [
        {
          "internalType": "int64",
          "name": "responseCode",
          "type": "int64"
        }
      ],
      "stateMutability": "nonpayable",
      "type": "function"
    }
  ],
  "bytecode": "0x608060405234801561000f575f80fd5b50600160208181527fa6eef7e35abe7026729641147f7915573c7e97b47efa546f5f6e3230263bcb499190915560027fcc69885fda6bcc1a4ace058b4a62bf5e179ea78fd58a1ccd71c22cc9b688792f5560047fd9d16d34ffb15ba3a3d852f0d403e2ce1d691fb54de27ac87cd2f993f3ec330f5560087f7dfe757ecd65cbd7922a9c0161e935dd7fdbcc0e999689c7d31633896b1fc60b5560107fedc95719e9a3b28dd8e80877cb5880a9be7de1a13fc8b05e7999683b6b567643557fe2689cd4a84e23ad2f564004f1c9013e9589d260bde6380aba3ca7e09e4df40c5560065f5260407f8f331abe73332f95a25873e8b430885974c0409691f89d643119a11623a7924a55610dc1806101235f395ff3fe60806040526004361061003e575f3560e01c806315dacbea14610042578063618dc65e146100795780639b23d3d9146100a6578063f7bddff8146100c5575b5f80fd5b34801561004d575f80fd5b5061006161005c36600461080e565b6100da565b60405160079190910b81526020015b60405180910390f35b348015610084575f80fd5b506100986100933660046108f9565b6101c9565b604051610070929190610993565b3480156100b1575f80fd5b506100616100c036600461080e565b6102b6565b6100d86100d33660046109ee565b6102fa565b005b6040516001600160a01b038581166024830152848116604483015283166064820152608481018290525f908190819061016790630aed65f560e11b9060a4015b60408051601f198184030181529181526020820180516001600160e01b03166001600160e01b03199094169390931790925290516101589190610ae5565b5f604051808303815f865af19150503d805f8114610191576040519150601f19603f3d011682016040523d82523d5f602084013e610196565b606091505b5091509150816101a75760156101bb565b808060200190518101906101bb9190610b00565b60030b979650505050505050565b5f60606101676001600160a01b031663618dc65e60e01b85856040516024016101f3929190610b22565b60408051601f198184030181529181526020820180516001600160e01b03166001600160e01b03199094169390931790925290516102319190610ae5565b5f604051808303815f865af19150503d805f811461026a576040519150601f19603f3d011682016040523d82523d5f602084013e61026f565b606091505b5060405191935091507f4af4780e06fe8cb9df64b0794fa6f01399af979175bb988e35e0e57e594567bc906102a79084908490610993565b60405180910390a19250929050565b6040516001600160a01b038581166024830152848116604483015283166064820152608481018290525f908190819061016790639b23d3d960e01b9060a40161011a565b60408051600580825260c082019092525f91816020015b61031961078e565b81526020019060019003908161031157905050905061033b60066003846104f1565b815f8151811061034d5761034d610b43565b602002602001018190525061036560016003846104f1565b8160018151811061037857610378610b43565b602002602001018190525061039060026003846104f1565b816002815181106103a3576103a3610b43565b60200260200101819052506103bb60046003846104f1565b816003815181106103ce576103ce610b43565b60200260200101819052506103e5600380846104f1565b816004815181106103f8576103f8610b43565b60200260200101819052505f60405180606001604052805f60070b8152602001856001600160a01b03168152602001627a120060070b81525090505f6040518061012001604052808d81526020018c8152602001866001600160a01b031681526020018b81526020016001151581526020018960070b815260200187151581526020018481526020018381525090505f80610494838c8b610526565b9092509050601682146104a5575f80fd5b6040516001600160a01b03821681527f7bb17726df1f3adee8aa00ba8e8bc5d6f182af3bbf77604639cb7f008dd3b4ed9060200160405180910390a15050505050505050505050505050565b6104f961078e565b604051806040016040528061050d86610646565b815260200161051c8585610682565b9052949350505050565b5f80848061010001515f015160070b5f14801561054d57506101008101516040015160070b155b15610563576101008101516276a7006040909101525b5f806101676001600160a01b031634630fb65bf360e01b8a8a8a60405160240161058f93929190610c19565b60408051601f198184030181529181526020820180516001600160e01b03166001600160e01b03199094169390931790925290516105cd9190610ae5565b5f6040518083038185875af1925050503d805f8114610607576040519150601f19603f3d011682016040523d82523d5f602084013e61060c565b606091505b50915091508161061e5760155f610632565b808060200190518101906106329190610d3f565b60039190910b999098509650505050505050565b5f60015f83600681111561065c5761065c610d77565b600681111561066d5761066d610d77565b81526020019081526020015f20549050919050565b6106c56040518060a001604052805f151581526020015f6001600160a01b0316815260200160608152602001606081526020015f6001600160a01b031681525090565b5f8360048111156106d8576106d8610d77565b036106e65760018152610788565b60018360048111156106fa576106fa610d77565b03610714575f546001600160a01b03166020820152610788565b600283600481111561072857610728610d77565b036107395760408101829052610788565b600383600481111561074d5761074d610d77565b0361075e5760608101829052610788565b600483600481111561077257610772610d77565b03610788575f546001600160a01b031660808201525b92915050565b60405180604001604052805f81526020016107e26040518060a001604052805f151581526020015f6001600160a01b0316815260200160608152602001606081526020015f6001600160a01b031681525090565b905290565b6001600160a01b03811681146107fb575f80fd5b50565b8035610809816107e7565b919050565b5f805f8060808587031215610821575f80fd5b843561082c816107e7565b9350602085013561083c816107e7565b9250604085013561084c816107e7565b9396929550929360600135925050565b634e487b7160e01b5f52604160045260245ffd5b5f82601f83011261087f575f80fd5b813567ffffffffffffffff8082111561089a5761089a61085c565b604051601f8301601f19908116603f011681019082821181831017156108c2576108c261085c565b816040528381528660208588010111156108da575f80fd5b836020870160208301375f602085830101528094505050505092915050565b5f806040838503121561090a575f80fd5b8235610915816107e7565b9150602083013567ffffffffffffffff811115610930575f80fd5b61093c85828601610870565b9150509250929050565b5f5b83811015610960578181015183820152602001610948565b50505f910152565b5f815180845261097f816020860160208601610946565b601f01601f19169290920160200192915050565b8215158152604060208201525f6109ad6040830184610968565b949350505050565b8035600781900b8114610809575f80fd5b8060030b81146107fb575f80fd5b8035610809816109c6565b80358015158114610809575f80fd5b5f805f805f805f805f6101208a8c031215610a07575f80fd5b893567ffffffffffffffff80821115610a1e575f80fd5b610a2a8d838e01610870565b9a5060208c0135915080821115610a3f575f80fd5b610a4b8d838e01610870565b995060408c0135915080821115610a60575f80fd5b610a6c8d838e01610870565b9850610a7a60608d016109b5565b9750610a8860808d016109b5565b9650610a9660a08d016109d4565b9550610aa460c08d016109df565b9450610ab260e08d016107fe565b93506101008c0135915080821115610ac8575f80fd5b50610ad58c828d01610870565b9150509295985092959850929598565b5f8251610af6818460208701610946565b9190910192915050565b5f60208284031215610b10575f80fd5b8151610b1b816109c6565b9392505050565b6001600160a01b0383168152604060208201525f6109ad6040830184610968565b634e487b7160e01b5f52603260045260245ffd5b5f81518084526020808501808196508360051b810191508286015f5b85811015610c0c5782840389528151604081518652868201519150808787015281511515818701528682015160606001600160a01b03808316828a015283850151935060a09250608083818b0152610bce60e08b0186610968565b928601518a8403603f1901858c0152929450610bea8584610968565b9501511660c09890980197909752505098850198935090840190600101610b73565b5091979650505050505050565b606081525f8451610160806060850152610c376101c0850183610968565b91506020870151605f1980868503016080870152610c558483610968565b935060408901519150610c7360a08701836001600160a01b03169052565b60608901519150808685030160c0870152610c8e8483610968565b935060808901519150610ca560e087018315159052565b60a08901519150610100610cbd8188018460070b9052565b60c08a0151151561012088015260e08a015187860383016101408901529250610ce68584610b57565b9450808a015192505050610d2282860182805160070b82526001600160a01b036020820151166020830152604081015160070b60408301525050565b5050600785900b602084015290506109ad604083018460030b9052565b5f8060408385031215610d50575f80fd5b8251610d5b816109c6565b6020840151909250610d6c816107e7565b809150509250929050565b634e487b7160e01b5f52602160045260245ffdfea26469706673582212204886d0b7aef472adaba2230ac28ca29e69aaa679004252465f1e09080bc150b264736f6c63430008140033",
  "linkReferences": {},
  "deployedLinkReferences": {}
}