{
  "_format": "hh-sol-artifact-1",
  "contractName": "TokenCreateCustomContract",
  "sourceName": "contracts/hts-precompile/examples/token-create/TokenCreateCustom.sol",
  "abi": [
    {
      "anonymous": false,
      "inputs": [
        {
          "indexed": false,
          "internalType": "bool",
          "name": "",
          "type": "bool"
        },
        {
          "indexed": false,
          "internalType": "bytes",
          "name": "",
          "type": "bytes"
        }
      ],
      "name": "CallResponseEvent",
      "type": "event"
    },
    {
      "anonymous": false,
      "inputs": [
        {
          "indexed": false,
          "internalType": "address",
          "name": "tokenAddress",
          "type": "address"
        }
      ],
      "name": "CreatedToken",
      "type": "event"
    },
    {
      "anonymous": false,
      "inputs": [
        {
          "indexed": false,
          "internalType": "int64",
          "name": "newTotalSupply",
          "type": "int64"
        },
        {
          "indexed": false,
          "internalType": "int64[]",
          "name": "serialNumbers",
          "type": "int64[]"
        }
      ],
      "name": "MintedToken",
      "type": "event"
    },
    {
      "anonymous": false,
      "inputs": [
        {
          "indexed": false,
          "internalType": "int256",
          "name": "responseCode",
          "type": "int256"
        }
      ],
      "name": "ResponseCode",
      "type": "event"
    },
    {
      "anonymous": false,
      "inputs": [
        {
          "indexed": false,
          "internalType": "address",
          "name": "tokenAddress",
          "type": "address"
        },
        {
          "indexed": false,
          "internalType": "address",
          "name": "receiver",
          "type": "address"
        },
        {
          "indexed": false,
          "internalType": "int64",
          "name": "amount",
          "type": "int64"
        }
      ],
      "name": "TransferToken",
      "type": "event"
    },
    {
      "inputs": [
        {
          "internalType": "address",
          "name": "account",
          "type": "address"
        },
        {
          "internalType": "address",
          "name": "token",
          "type": "address"
        }
      ],
      "name": "associateTokenPublic",
      "outputs": [
        {
          "internalType": "int256",
          "name": "responseCode",
          "type": "int256"
        }
      ],
      "stateMutability": "nonpayable",
      "type": "function"
    },
    {
      "inputs": [
        {
          "internalType": "address",
          "name": "account",
          "type": "address"
        },
        {
          "internalType": "address[]",
          "name": "tokens",
          "type": "address[]"
        }
      ],
      "name": "associateTokensPublic",
      "outputs": [
        {
          "internalType": "int256",
          "name": "responseCode",
          "type": "int256"
        }
      ],
      "stateMutability": "nonpayable",
      "type": "function"
    },
    {
      "inputs": [
        {
          "internalType": "string",
          "name": "name",
          "type": "string"
        },
        {
          "internalType": "string",
          "name": "symbol",
          "type": "string"
        },
        {
          "internalType": "string",
          "name": "memo",
          "type": "string"
        },
        {
          "internalType": "int64",
          "name": "initialTotalSupply",
          "type": "int64"
        },
        {
          "internalType": "int64",
          "name": "maxSupply",
          "type": "int64"
        },
        {
          "internalType": "int32",
          "name": "decimals",
          "type": "int32"
        },
        {
          "internalType": "bool",
          "name": "freezeDefaultStatus",
          "type": "bool"
        },
        {
          "internalType": "address",
          "name": "treasury",
          "type": "address"
        },
        {
          "internalType": "bytes",
          "name": "key",
          "type": "bytes"
        }
      ],
      "name": "createFungibleTokenPublic",
      "outputs": [],
      "stateMutability": "payable",
      "type": "function"
    },
    {
      "inputs": [
        {
          "internalType": "address",
          "name": "treasury",
          "type": "address"
        },
        {
          "internalType": "address",
          "name": "fixedFeeTokenAddress",
          "type": "address"
        },
        {
          "internalType": "string",
          "name": "name",
          "type": "string"
        },
        {
          "internalType": "string",
          "name": "symbol",
          "type": "string"
        },
        {
          "internalType": "string",
          "name": "memo",
          "type": "string"
        },
        {
          "internalType": "int64",
          "name": "initialTotalSupply",
          "type": "int64"
        },
        {
          "internalType": "int64",
          "name": "maxSupply",
          "type": "int64"
        },
        {
          "internalType": "int32",
          "name": "decimals",
          "type": "int32"
        },
        {
          "internalType": "bytes",
          "name": "key",
          "type": "bytes"
        }
      ],
      "name": "createFungibleTokenWithCustomFeesPublic",
      "outputs": [],
      "stateMutability": "payable",
      "type": "function"
    },
    {
      "inputs": [
        {
          "internalType": "string",
          "name": "name",
          "type": "string"
        },
        {
          "internalType": "string",
          "name": "symbol",
          "type": "string"
        },
        {
          "internalType": "string",
          "name": "memo",
          "type": "string"
        },
        {
          "internalType": "int64",
          "name": "maxSupply",
          "type": "int64"
        },
        {
          "internalType": "address",
          "name": "treasury",
          "type": "address"
        },
        {
          "internalType": "bytes",
          "name": "key",
          "type": "bytes"
        }
      ],
      "name": "createNonFungibleTokenPublic",
      "outputs": [],
      "stateMutability": "payable",
      "type": "function"
    },
    {
      "inputs": [
        {
          "internalType": "address",
          "name": "treasury",
          "type": "address"
        },
        {
          "internalType": "address",
          "name": "fixedFeeTokenAddress",
          "type": "address"
        },
        {
          "internalType": "string",
          "name": "name",
          "type": "string"
        },
        {
          "internalType": "string",
          "name": "symbol",
          "type": "string"
        },
        {
          "internalType": "string",
          "name": "memo",
          "type": "string"
        },
        {
          "internalType": "int64",
          "name": "maxSupply",
          "type": "int64"
        },
        {
          "internalType": "bytes",
          "name": "key",
          "type": "bytes"
        }
      ],
      "name": "createNonFungibleTokenWithCustomFeesPublic",
      "outputs": [],
      "stateMutability": "payable",
      "type": "function"
    },
    {
      "inputs": [
        {
          "internalType": "address",
          "name": "token",
          "type": "address"
        },
        {
          "internalType": "address",
          "name": "account",
          "type": "address"
        }
      ],
      "name": "grantTokenKycPublic",
      "outputs": [
        {
          "internalType": "int64",
          "name": "responseCode",
          "type": "int64"
        }
      ],
      "stateMutability": "nonpayable",
      "type": "function"
    },
    {
      "inputs": [
        {
          "internalType": "address",
          "name": "token",
          "type": "address"
        },
        {
          "internalType": "address",
          "name": "receiver",
          "type": "address"
        },
        {
          "internalType": "int64",
          "name": "amount",
          "type": "int64"
        },
        {
          "internalType": "bytes[]",
          "name": "metadata",
          "type": "bytes[]"
        }
      ],
      "name": "mintNonFungibleTokenToAddressPublic",
      "outputs": [
        {
          "internalType": "int256",
          "name": "responseCode",
          "type": "int256"
        },
        {
          "internalType": "int64",
          "name": "newTotalSupply",
          "type": "int64"
        },
        {
          "internalType": "int64[]",
          "name": "serialNumbers",
          "type": "int64[]"
        }
      ],
      "stateMutability": "nonpayable",
      "type": "function"
    },
    {
      "inputs": [
        {
          "internalType": "address",
          "name": "token",
          "type": "address"
        },
        {
          "internalType": "int64",
          "name": "amount",
          "type": "int64"
        },
        {
          "internalType": "bytes[]",
          "name": "metadata",
          "type": "bytes[]"
        }
      ],
      "name": "mintTokenPublic",
      "outputs": [
        {
          "internalType": "int256",
          "name": "responseCode",
          "type": "int256"
        },
        {
          "internalType": "int64",
          "name": "newTotalSupply",
          "type": "int64"
        },
        {
          "internalType": "int64[]",
          "name": "serialNumbers",
          "type": "int64[]"
        }
      ],
      "stateMutability": "nonpayable",
      "type": "function"
    },
    {
      "inputs": [
        {
          "internalType": "address",
          "name": "token",
          "type": "address"
        },
        {
          "internalType": "address",
          "name": "receiver",
          "type": "address"
        },
        {
          "internalType": "int64",
          "name": "amount",
          "type": "int64"
        },
        {
          "internalType": "bytes[]",
          "name": "metadata",
          "type": "bytes[]"
        }
      ],
      "name": "mintTokenToAddressPublic",
      "outputs": [
        {
          "internalType": "int256",
          "name": "responseCode",
          "type": "int256"
        },
        {
          "internalType": "int64",
          "name": "newTotalSupply",
          "type": "int64"
        },
        {
          "internalType": "int64[]",
          "name": "serialNumbers",
          "type": "int64[]"
        }
      ],
      "stateMutability": "nonpayable",
      "type": "function"
    },
    {
      "inputs": [
        {
          "internalType": "address",
          "name": "token",
          "type": "address"
        },
        {
          "internalType": "bytes",
          "name": "encodedFunctionSelector",
          "type": "bytes"
        }
      ],
      "name": "redirectForToken",
      "outputs": [
        {
          "internalType": "int256",
          "name": "responseCode",
          "type": "int256"
        },
        {
          "internalType": "bytes",
          "name": "response",
          "type": "bytes"
        }
      ],
      "stateMutability": "nonpayable",
      "type": "function"
    },
    {
      "inputs": [
        {
          "internalType": "address",
          "name": "token",
          "type": "address"
        },
        {
          "internalType": "address",
          "name": "from",
          "type": "address"
        },
        {
          "internalType": "address",
          "name": "to",
          "type": "address"
        },
        {
          "internalType": "uint256",
          "name": "amount",
          "type": "uint256"
        }
      ],
      "name": "transferFrom",
      "outputs": [
        {
          "internalType": "int64",
          "name": "responseCode",
          "type": "int64"
        }
      ],
      "stateMutability": "nonpayable",
      "type": "function"
    },
    {
      "inputs": [
        {
          "internalType": "address",
          "name": "token",
          "type": "address"
        },
        {
          "internalType": "address",
          "name": "from",
          "type": "address"
        },
        {
          "internalType": "address",
          "name": "to",
          "type": "address"
        },
        {
          "internalType": "uint256",
          "name": "serialNumber",
          "type": "uint256"
        }
      ],
      "name": "transferFromNFT",
      "outputs": [
        {
          "internalType": "int64",
          "name": "responseCode",
          "type": "int64"
        }
      ],
      "stateMutability": "nonpayable",
      "type": "function"
    }
  ],
  "bytecode": "0x608060405234801561000f575f80fd5b50600160208181527fa6eef7e35abe7026729641147f7915573c7e97b47efa546f5f6e3230263bcb499190915560027fcc69885fda6bcc1a4ace058b4a62bf5e179ea78fd58a1ccd71c22cc9b688792f5560047fd9d16d34ffb15ba3a3d852f0d403e2ce1d691fb54de27ac87cd2f993f3ec330f5560087f7dfe757ecd65cbd7922a9c0161e935dd7fdbcc0e999689c7d31633896b1fc60b5560107fedc95719e9a3b28dd8e80877cb5880a9be7de1a13fc8b05e7999683b6b567643557fe2689cd4a84e23ad2f564004f1c9013e9589d260bde6380aba3ca7e09e4df40c5560065f5260407f8f331abe73332f95a25873e8b430885974c0409691f89d643119a11623a7924a55612981806101235f395ff3fe6080604052600436106100ce575f3560e01c80639b23d3d91161007c578063f4a01e5b11610057578063f4a01e5b14610216578063f7bddff814610235578063fd66cabc14610248578063fec394da1461025b575f80fd5b80639b23d3d9146101aa578063c827bd32146101c9578063de84a779146101f7575f80fd5b8063527bc8af116100ac578063527bc8af146101555780635fe21a391461016a578063618dc65e1461017d575f80fd5b80630fd2601e146100d2578063118741e71461010957806315dacbea14610136575b5f80fd5b3480156100dd575f80fd5b506100f16100ec366004611a43565b61027a565b60405160079190910b81526020015b60405180910390f35b348015610114575f80fd5b50610128610123366004611ae2565b6102d5565b604051908152602001610100565b348015610141575f80fd5b506100f1610150366004611b91565b610327565b610168610163366004611c6c565b610416565b005b610168610178366004611d5b565b610785565b348015610188575f80fd5b5061019c610197366004611e52565b610b39565b604051610100929190611eec565b3480156101b5575f80fd5b506100f16101c4366004611b91565b610c60565b3480156101d4575f80fd5b506101e86101e3366004611f93565b610ca4565b60405161010093929190612040565b348015610202575f80fd5b506101e861021136600461206a565b610d3c565b348015610221575f80fd5b50610128610230366004611a43565b610dd4565b6101686102433660046120d7565b610ddf565b61016861025636600461219b565b610fa3565b348015610266575f80fd5b506101e8610275366004611f93565b6111ac565b5f61028583836111ce565b604051600782900b81529091507f90a5cf4cffe88b4edbb041cfc7a8a812c48a5ec30b84640fb37690875168e3aa9060200160405180910390a1600781900b6016146102cf575f80fd5b92915050565b5f6102e083836112ac565b90507f90a5cf4cffe88b4edbb041cfc7a8a812c48a5ec30b84640fb37690875168e3aa8160405161031391815260200190565b60405180910390a1601681146102cf575f80fd5b6040516001600160a01b038581166024830152848116604483015283166064820152608481018290525f908190819061016790630aed65f560e11b9060a4015b60408051601f198184030181529181526020820180516001600160e01b03166001600160e01b03199094169390931790925290516103a59190612260565b5f604051808303815f865af19150503d805f81146103de576040519150601f19603f3d011682016040523d82523d5f602084013e6103e3565b606091505b5091509150816103f4576015610408565b80806020019051810190610408919061227b565b60030b979650505050505050565b60408051600680825260e082019092525f91816020015b6104356119c3565b81526020019060019003908161042d5790505090506104565f6003846112d6565b815f815181106104685761046861229d565b602002602001018190525061048060016003846112d6565b816001815181106104935761049361229d565b60200260200101819052506104ab60026003846112d6565b816002815181106104be576104be61229d565b60200260200101819052506104d660046003846112d6565b816003815181106104e9576104e961229d565b6020026020010181905250610500600380846112d6565b816004815181106105135761051361229d565b602002602001018190525061052b60066003846112d6565b8160058151811061053e5761053e61229d565b60209081029190910181019190915260408051606080820183525f8083526001600160a01b038d16838601819052627a1200848601528451610120810186528c81529586018b905285850152908401889052600160808501819052600788900b60a086015260c0850182905260e08501869052610100850183905283518181528085019094529193929091816020015b6040805160a0810182525f808252602080830182905292820181905260608201819052608082015282525f199092019101816105ce5750506040805160a081018252600181526001600160a01b038d811660208301525f928201839052606082018390528e16608082015282519293509183919061064e5761064e61229d565b60209081029190910101526040805160018082528183019092525f91816020015b6040805160c0810182525f8082526020808301829052928201819052606082018190526080820181905260a082015282525f1990920191018161066f5790505090506040518060c00160405280600460070b8152602001600560070b8152602001600a60070b81526020018c6001600160a01b031681526020015f151581526020018d6001600160a01b0316815250815f815181106107105761071061229d565b60200260200101819052505f8061072885858561130b565b909250905060168214610739575f80fd5b6040516001600160a01b03821681527f7bb17726df1f3adee8aa00ba8e8bc5d6f182af3bbf77604639cb7f008dd3b4ed9060200160405180910390a15050505050505050505050505050565b60408051600680825260e082019092525f91816020015b6107a46119c3565b81526020019060019003908161079c5790505090506107c55f6003846112d6565b815f815181106107d7576107d761229d565b60200260200101819052506107ef60016003846112d6565b816001815181106108025761080261229d565b602002602001018190525061081a60026003846112d6565b8160028151811061082d5761082d61229d565b602002602001018190525061084560046003846112d6565b816003815181106108585761085861229d565b602002602001018190525061086f600380846112d6565b816004815181106108825761088261229d565b602002602001018190525061089a60066003846112d6565b816005815181106108ad576108ad61229d565b60209081029190910181019190915260408051606080820183525f8083526001600160a01b038f16838601819052627a1200848601528451610120810186528e81529586018d9052858501529084018a9052600160808501819052600789900b60a086015260c0850182905260e08501869052610100850183905283518181528085019094529193929091816020015b6040805160a0810182525f808252602080830182905292820181905260608201819052608082015282525f1990920191018161093d5790505090506040518060a00160405280600160070b81526020018d6001600160a01b031681526020015f151581526020015f151581526020018e6001600160a01b0316815250815f815181106109cb576109cb61229d565b60209081029190910101526040805160018082528183019092525f91816020015b6040805160c0810182525f8082526020808301829052928201819052606082018190526080820181905260a082015282525f199092019101816109ec5790505090506040518060c00160405280600460070b8152602001600560070b8152602001600a60070b8152602001601e60070b81526020015f151581526020018f6001600160a01b0316815250815f81518110610a8857610a8861229d565b60200260200101819052505f80610aa2858c8b878761142b565b915091507f90a5cf4cffe88b4edbb041cfc7a8a812c48a5ec30b84640fb37690875168e3aa82604051610ad791815260200190565b60405180910390a160168214610aeb575f80fd5b6040516001600160a01b03821681527f7bb17726df1f3adee8aa00ba8e8bc5d6f182af3bbf77604639cb7f008dd3b4ed9060200160405180910390a150505050505050505050505050505050565b5f60605f806101676001600160a01b031663618dc65e60e01b8787604051602401610b659291906122b1565b60408051601f198184030181529181526020820180516001600160e01b03166001600160e01b0319909416939093179092529051610ba39190612260565b5f604051808303815f865af19150503d805f8114610bdc576040519150601f19603f3d011682016040523d82523d5f602084013e610be1565b606091505b50915091507f4af4780e06fe8cb9df64b0794fa6f01399af979175bb988e35e0e57e594567bc8282604051610c179291906122d2565b60405180910390a181610c3a57601560405180602001604052805f815250610c4e565b80806020019051810190610c4e91906122ec565b60039190910b97909650945050505050565b6040516001600160a01b038581166024830152848116604483015283166064820152608481018290525f908190819061016790639b23d3d960e01b9060a401610367565b5f806060610cb3878686610d3c565b809350819450829550505050610ce4873088845f81518110610cd757610cd761229d565b6020026020010151611551565b50604080516001600160a01b03898116825288166020820152600787900b8183015290517f215c8eec9aa8fa57cdc8525400a046bf00ff93b20cc529980e01c1ef114fc2289181900360600190a19450945094915050565b5f806060610d4b868686611598565b60405183815292955090935091507f90a5cf4cffe88b4edbb041cfc7a8a812c48a5ec30b84640fb37690875168e3aa9060200160405180910390a160168314610d92575f80fd5b7ffc6b20023c4bac8ff1c48c1693e0cea5cd3c2163e9c2da41c58f17dd6d9f163d8282604051610dc3929190612374565b60405180910390a193509350939050565b5f6102e0838361168f565b60408051600680825260e082019092525f91816020015b610dfe6119c3565b815260200190600190039081610df6579050509050610e1f5f6003846112d6565b815f81518110610e3157610e3161229d565b6020026020010181905250610e4960016003846112d6565b81600181518110610e5c57610e5c61229d565b6020026020010181905250610e7460026003846112d6565b81600281518110610e8757610e8761229d565b6020026020010181905250610e9f60046003846112d6565b81600381518110610eb257610eb261229d565b6020026020010181905250610ec9600380846112d6565b81600481518110610edc57610edc61229d565b6020026020010181905250610ef460066003846112d6565b81600581518110610f0757610f0761229d565b60200260200101819052505f60405180606001604052805f60070b8152602001856001600160a01b03168152602001627a120060070b81525090505f6040518061012001604052808d81526020018c8152602001866001600160a01b031681526020018b81526020016001151581526020018960070b815260200187151581526020018481526020018381525090505f80610728838c8b6116c4565b60408051600680825260e082019092525f91816020015b610fc26119c3565b815260200190600190039081610fba579050509050610fe35f6003846112d6565b815f81518110610ff557610ff561229d565b602002602001018190525061100d60016003846112d6565b816001815181106110205761102061229d565b602002602001018190525061103860026003846112d6565b8160028151811061104b5761104b61229d565b602002602001018190525061106360046003846112d6565b816003815181106110765761107661229d565b602002602001018190525061108d600380846112d6565b816004815181106110a0576110a061229d565b60200260200101819052506110b860066003846112d6565b816005815181106110cb576110cb61229d565b60209081029190910181019190915260408051606080820183525f8083526001600160a01b038816838601819052627a1200848601528451610120810186528d81529586018c905293850193909352830188905260016080840152600787900b60a084015260c0830182905260e0830184905261010083018190529190806111528361172d565b909250905060168214611163575f80fd5b6040516001600160a01b03821681527f7bb17726df1f3adee8aa00ba8e8bc5d6f182af3bbf77604639cb7f008dd3b4ed9060200160405180910390a15050505050505050505050565b5f8060606111bb878686610d3c565b91945092509050610ce487308888611835565b6040516001600160a01b038381166024830152821660448201525f908190819061016790638f8d7f9960e01b906064015b60408051601f198184030181529181526020820180516001600160e01b03166001600160e01b031990941693909317909252905161123d9190612260565b5f604051808303815f865af19150503d805f8114611276576040519150601f19603f3d011682016040523d82523d5f602084013e61127b565b606091505b50915091508161128c5760156112a0565b808060200190518101906112a0919061227b565b60030b95945050505050565b5f805f6101676001600160a01b0316632e63879b60e01b86866040516024016111ff92919061238f565b6112de6119c3565b60405180604001604052806112f28661187c565b815260200161130185856118b8565b9052949350505050565b5f80848061010001515f015160070b5f14801561133257506101008101516040015160070b155b15611348576101008101516276a7006040909101525b5f806101676001600160a01b03163463abb54eb560e01b8a8a8a60405160240161137493929190612616565b60408051601f198184030181529181526020820180516001600160e01b03166001600160e01b03199094169390931790925290516113b29190612260565b5f6040518083038185875af1925050503d805f81146113ec576040519150601f19603f3d011682016040523d82523d5f602084013e6113f1565b606091505b5091509150816114035760155f611417565b8080602001905181019061141791906126cb565b60039190910b999098509650505050505050565b5f80868061010001515f015160070b5f14801561145257506101008101516040015160070b155b15611468576101008101516276a7006040909101525b5f806101676001600160a01b031634632af0c59a60e01b8c8c8c8c8c6040516024016114989594939291906126f8565b60408051601f198184030181529181526020820180516001600160e01b03166001600160e01b03199094169390931790925290516114d69190612260565b5f6040518083038185875af1925050503d805f8114611510576040519150601f19603f3d011682016040523d82523d5f602084013e611515565b606091505b5091509150816115275760155f61153b565b8080602001905181019061153b91906126cb565b60039190910b9b909a5098505050505050505050565b6040516001600160a01b038581166024830152848116604483015283166064820152600782900b60848201525f908190819061016790635cfc901160e01b9060a401610367565b5f8060605f806101676001600160a01b031663e0f4059a60e01b8989896040516024016115c7939291906127be565b60408051601f198184030181529181526020820180516001600160e01b03166001600160e01b03199094169390931790925290516116059190612260565b5f604051808303815f865af19150503d805f811461163e576040519150601f19603f3d011682016040523d82523d5f602084013e611643565b606091505b50915091508161166557604080515f8082526020820190925260159190611679565b808060200190518101906116799190612839565b60039290920b9a90995090975095505050505050565b6040516001600160a01b038381166024830152821660448201525f90819081906101679063248a35ef60e11b906064016111ff565b5f80848061010001515f015160070b5f1480156116eb57506101008101516040015160070b155b15611701576101008101516276a7006040909101525b5f806101676001600160a01b031634630fb65bf360e01b8a8a8a604051602401611374939291906128f7565b5f80828061010001515f015160070b5f14801561175457506101008101516040015160070b155b1561176a576101008101516276a7006040909101525b5f806101676001600160a01b03163463ea83f29360e01b886040516024016117929190612925565b60408051601f198184030181529181526020820180516001600160e01b03166001600160e01b03199094169390931790925290516117d09190612260565b5f6040518083038185875af1925050503d805f811461180a576040519150601f19603f3d011682016040523d82523d5f602084013e61180f565b606091505b5091509150816118215760155f610c4e565b80806020019051810190610c4e91906126cb565b6040516001600160a01b038581166024830152848116604483015283166064820152600782900b60848201525f90819081906101679063eca3691760e01b9060a401610367565b5f60015f83600681111561189257611892612937565b60068111156118a3576118a3612937565b81526020019081526020015f20549050919050565b6118fb6040518060a001604052805f151581526020015f6001600160a01b0316815260200160608152602001606081526020015f6001600160a01b031681525090565b5f83600481111561190e5761190e612937565b0361191c57600181526102cf565b600183600481111561193057611930612937565b0361194a575f546001600160a01b031660208201526102cf565b600283600481111561195e5761195e612937565b0361196f57604081018290526102cf565b600383600481111561198357611983612937565b0361199457606081018290526102cf565b60048360048111156119a8576119a8612937565b036102cf575f546001600160a01b0316608082015292915050565b60405180604001604052805f8152602001611a176040518060a001604052805f151581526020015f6001600160a01b0316815260200160608152602001606081526020015f6001600160a01b031681525090565b905290565b6001600160a01b0381168114611a30575f80fd5b50565b8035611a3e81611a1c565b919050565b5f8060408385031215611a54575f80fd5b8235611a5f81611a1c565b91506020830135611a6f81611a1c565b809150509250929050565b634e487b7160e01b5f52604160045260245ffd5b604051601f8201601f1916810167ffffffffffffffff81118282101715611ab757611ab7611a7a565b604052919050565b5f67ffffffffffffffff821115611ad857611ad8611a7a565b5060051b60200190565b5f8060408385031215611af3575f80fd5b8235611afe81611a1c565b915060208381013567ffffffffffffffff811115611b1a575f80fd5b8401601f81018613611b2a575f80fd5b8035611b3d611b3882611abf565b611a8e565b81815260059190911b82018301908381019088831115611b5b575f80fd5b928401925b82841015611b82578335611b7381611a1c565b82529284019290840190611b60565b80955050505050509250929050565b5f805f8060808587031215611ba4575f80fd5b8435611baf81611a1c565b93506020850135611bbf81611a1c565b92506040850135611bcf81611a1c565b9396929550929360600135925050565b5f67ffffffffffffffff821115611bf857611bf8611a7a565b50601f01601f191660200190565b5f82601f830112611c15575f80fd5b8135611c23611b3882611bdf565b818152846020838601011115611c37575f80fd5b816020850160208301375f918101602001919091529392505050565b8060070b8114611a30575f80fd5b8035611a3e81611c53565b5f805f805f805f60e0888a031215611c82575f80fd5b611c8b88611a33565b9650611c9960208901611a33565b9550604088013567ffffffffffffffff80821115611cb5575f80fd5b611cc18b838c01611c06565b965060608a0135915080821115611cd6575f80fd5b611ce28b838c01611c06565b955060808a0135915080821115611cf7575f80fd5b611d038b838c01611c06565b9450611d1160a08b01611c61565b935060c08a0135915080821115611d26575f80fd5b50611d338a828b01611c06565b91505092959891949750929550565b8060030b8114611a30575f80fd5b8035611a3e81611d42565b5f805f805f805f805f6101208a8c031215611d74575f80fd5b611d7d8a611a33565b9850611d8b60208b01611a33565b975060408a013567ffffffffffffffff80821115611da7575f80fd5b611db38d838e01611c06565b985060608c0135915080821115611dc8575f80fd5b611dd48d838e01611c06565b975060808c0135915080821115611de9575f80fd5b611df58d838e01611c06565b9650611e0360a08d01611c61565b9550611e1160c08d01611c61565b9450611e1f60e08d01611d50565b93506101008c0135915080821115611e35575f80fd5b50611e428c828d01611c06565b9150509295985092959850929598565b5f8060408385031215611e63575f80fd5b8235611e6e81611a1c565b9150602083013567ffffffffffffffff811115611e89575f80fd5b611e9585828601611c06565b9150509250929050565b5f5b83811015611eb9578181015183820152602001611ea1565b50505f910152565b5f8151808452611ed8816020860160208601611e9f565b601f01601f19169290920160200192915050565b828152604060208201525f611f046040830184611ec1565b949350505050565b5f82601f830112611f1b575f80fd5b81356020611f2b611b3883611abf565b82815260059290921b84018101918181019086841115611f49575f80fd5b8286015b84811015611f8857803567ffffffffffffffff811115611f6c575f8081fd5b611f7a8986838b0101611c06565b845250918301918301611f4d565b509695505050505050565b5f805f8060808587031215611fa6575f80fd5b8435611fb181611a1c565b93506020850135611fc181611a1c565b92506040850135611fd181611c53565b9150606085013567ffffffffffffffff811115611fec575f80fd5b611ff887828801611f0c565b91505092959194509250565b5f8151808452602080850194508084015f5b8381101561203557815160070b87529582019590820190600101612016565b509495945050505050565b8381528260070b6020820152606060408201525f6120616060830184612004565b95945050505050565b5f805f6060848603121561207c575f80fd5b833561208781611a1c565b9250602084013561209781611c53565b9150604084013567ffffffffffffffff8111156120b2575f80fd5b6120be86828701611f0c565b9150509250925092565b80358015158114611a3e575f80fd5b5f805f805f805f805f6101208a8c0312156120f0575f80fd5b893567ffffffffffffffff80821115612107575f80fd5b6121138d838e01611c06565b9a5060208c0135915080821115612128575f80fd5b6121348d838e01611c06565b995060408c0135915080821115612149575f80fd5b6121558d838e01611c06565b985061216360608d01611c61565b975061217160808d01611c61565b965061217f60a08d01611d50565b955061218d60c08d016120c8565b9450611e1f60e08d01611a33565b5f805f805f8060c087890312156121b0575f80fd5b863567ffffffffffffffff808211156121c7575f80fd5b6121d38a838b01611c06565b975060208901359150808211156121e8575f80fd5b6121f48a838b01611c06565b96506040890135915080821115612209575f80fd5b6122158a838b01611c06565b955061222360608a01611c61565b945061223160808a01611a33565b935060a0890135915080821115612246575f80fd5b5061225389828a01611c06565b9150509295509295509295565b5f8251612271818460208701611e9f565b9190910192915050565b5f6020828403121561228b575f80fd5b815161229681611d42565b9392505050565b634e487b7160e01b5f52603260045260245ffd5b6001600160a01b0383168152604060208201525f611f046040830184611ec1565b8215158152604060208201525f611f046040830184611ec1565b5f80604083850312156122fd575f80fd5b825161230881611d42565b602084015190925067ffffffffffffffff811115612324575f80fd5b8301601f81018513612334575f80fd5b8051612342611b3882611bdf565b818152866020838501011115612356575f80fd5b612367826020830160208601611e9f565b8093505050509250929050565b8260070b8152604060208201525f611f046040830184612004565b5f604082016001600160a01b038086168452602060408186015282865180855260608701915082880194505f5b818110156123da5785518516835294830194918301916001016123bc565b509098975050505050505050565b5f81518084526020808501808196508360051b810191508286015f5b8581101561249d5782840389528151604081518652868201519150808787015281511515818701528682015160606001600160a01b03808316828a015283850151935060a09250608083818b015261245f60e08b0186611ec1565b928601518a8403603f1901858c015292945061247b8584611ec1565b9501511660c09890980197909752505098850198935090840190600101612404565b5091979650505050505050565b5f61016082518185526124bf82860182611ec1565b915050602083015184820360208601526124d98282611ec1565b91505060408301516124f660408601826001600160a01b03169052565b506060830151848203606086015261250e8282611ec1565b9150506080830151612524608086018215159052565b5060a083015161253960a086018260070b9052565b5060c083015161254d60c086018215159052565b5060e083015184820360e086015261256582826123e8565b915050610100808401516125a182870182805160070b82526001600160a01b036020820151166020830152604081015160070b60408301525050565b5090949350505050565b5f8151808452602080850194508084015f5b83811015612035578151805160070b8852838101516001600160a01b03908116858a01526040808301511515908a01526060808301511515908a0152608091820151169088015260a090960195908201906001016125bd565b5f6060808352612628818401876124aa565b60208482038186015261263b82886125ab565b9150604085830381870152828751808552838501915083890194505f5b818110156126bb5785518051600790810b855286820151810b8786015285820151900b85850152878101516001600160a01b039081168986015260808083015115159086015260a09182015116908401529484019460c090920191600101612658565b50909a9950505050505050505050565b5f80604083850312156126dc575f80fd5b82516126e781611d42565b6020840151909250611a6f81611a1c565b5f60a080835261270a818401896124aa565b6020600789810b8287015260408960030b81880152606087850381890152612732858b6125ab565b94506080888603818a0152858a518088528688019150868c0197505f5b818110156127a95788518051880b845288810151880b8985015286810151880b8785015285810151880b86850152848101511515858501528a01516001600160a01b03168a8401529787019760c09092019160010161274f565b50909f9e505050505050505050505050505050565b5f606082016001600160a01b038616835260208560070b818501526060604085015281855180845260808601915060808160051b87010193508287015f5b8281101561282a57607f19888703018452612818868351611ec1565b955092840192908401906001016127fc565b50939998505050505050505050565b5f805f6060848603121561284b575f80fd5b835161285681611d42565b8093505060208085015161286981611c53565b604086015190935067ffffffffffffffff811115612885575f80fd5b8501601f81018713612895575f80fd5b80516128a3611b3882611abf565b81815260059190911b820183019083810190898311156128c1575f80fd5b928401925b828410156128e85783516128d981611c53565b825292840192908401906128c6565b80955050505050509250925092565b606081525f61290960608301866124aa565b90508360070b60208301528260030b6040830152949350505050565b602081525f61229660208301846124aa565b634e487b7160e01b5f52602160045260245ffdfea26469706673582212201f882f6798d07090e799fd8e42f3d4745d8b0cd60bfd3828ef4f35eac1b26b5a64736f6c63430008140033",
  "linkReferences": {},
  "deployedLinkReferences": {}
}