{
  "_format": "hh-sol-artifact-1",
  "contractName": "TokenCreateCustomContract",
  "sourceName": "contracts/hts-precompile/examples/token-create/TokenCreateCustom.sol",
  "abi": [
    {
      "anonymous": false,
      "inputs": [
        {
          "indexed": false,
          "internalType": "bool",
          "name": "",
          "type": "bool"
        },
        {
          "indexed": false,
          "internalType": "bytes",
          "name": "",
          "type": "bytes"
        }
      ],
      "name": "CallResponseEvent",
      "type": "event"
    },
    {
      "anonymous": false,
      "inputs": [
        {
          "indexed": false,
          "internalType": "address",
          "name": "tokenAddress",
          "type": "address"
        }
      ],
      "name": "CreatedToken",
      "type": "event"
    },
    {
      "anonymous": false,
      "inputs": [
        {
          "indexed": false,
          "internalType": "int64",
          "name": "newTotalSupply",
          "type": "int64"
        },
        {
          "indexed": false,
          "internalType": "int64[]",
          "name": "serialNumbers",
          "type": "int64[]"
        }
      ],
      "name": "MintedToken",
      "type": "event"
    },
    {
      "anonymous": false,
      "inputs": [
        {
          "indexed": false,
          "internalType": "int256",
          "name": "responseCode",
          "type": "int256"
        }
      ],
      "name": "ResponseCode",
      "type": "event"
    },
    {
      "anonymous": false,
      "inputs": [
        {
          "indexed": false,
          "internalType": "address",
          "name": "tokenAddress",
          "type": "address"
        },
        {
          "indexed": false,
          "internalType": "address",
          "name": "receiver",
          "type": "address"
        },
        {
          "indexed": false,
          "internalType": "int64",
          "name": "amount",
          "type": "int64"
        }
      ],
      "name": "TransferToken",
      "type": "event"
    },
    {
      "inputs": [
        {
          "internalType": "address",
          "name": "account",
          "type": "address"
        },
        {
          "internalType": "address",
          "name": "token",
          "type": "address"
        }
      ],
      "name": "associateTokenPublic",
      "outputs": [
        {
          "internalType": "int256",
          "name": "responseCode",
          "type": "int256"
        }
      ],
      "stateMutability": "nonpayable",
      "type": "function"
    },
    {
      "inputs": [
        {
          "internalType": "address",
          "name": "account",
          "type": "address"
        },
        {
          "internalType": "address[]",
          "name": "tokens",
          "type": "address[]"
        }
      ],
      "name": "associateTokensPublic",
      "outputs": [
        {
          "internalType": "int256",
          "name": "responseCode",
          "type": "int256"
        }
      ],
      "stateMutability": "nonpayable",
      "type": "function"
    },
    {
      "inputs": [
        {
          "internalType": "string",
          "name": "name",
          "type": "string"
        },
        {
          "internalType": "string",
          "name": "symbol",
          "type": "string"
        },
        {
          "internalType": "string",
          "name": "memo",
          "type": "string"
        },
        {
          "internalType": "int64",
          "name": "initialTotalSupply",
          "type": "int64"
        },
        {
          "internalType": "int64",
          "name": "maxSupply",
          "type": "int64"
        },
        {
          "internalType": "int32",
          "name": "decimals",
          "type": "int32"
        },
        {
          "internalType": "bool",
          "name": "freezeDefaultStatus",
          "type": "bool"
        },
        {
          "internalType": "address",
          "name": "treasury",
          "type": "address"
        },
        {
          "internalType": "bytes",
          "name": "key",
          "type": "bytes"
        }
      ],
      "name": "createFungibleTokenPublic",
      "outputs": [],
      "stateMutability": "payable",
      "type": "function"
    },
    {
      "inputs": [
        {
          "internalType": "address",
          "name": "treasury",
          "type": "address"
        },
        {
          "internalType": "address",
          "name": "fixedFeeTokenAddress",
          "type": "address"
        },
        {
          "internalType": "string",
          "name": "name",
          "type": "string"
        },
        {
          "internalType": "string",
          "name": "symbol",
          "type": "string"
        },
        {
          "internalType": "string",
          "name": "memo",
          "type": "string"
        },
        {
          "internalType": "int64",
          "name": "initialTotalSupply",
          "type": "int64"
        },
        {
          "internalType": "int64",
          "name": "maxSupply",
          "type": "int64"
        },
        {
          "internalType": "int32",
          "name": "decimals",
          "type": "int32"
        },
        {
          "internalType": "bytes",
          "name": "key",
          "type": "bytes"
        }
      ],
      "name": "createFungibleTokenWithCustomFeesPublic",
      "outputs": [],
      "stateMutability": "payable",
      "type": "function"
    },
    {
      "inputs": [
        {
          "internalType": "string",
          "name": "name",
          "type": "string"
        },
        {
          "internalType": "string",
          "name": "symbol",
          "type": "string"
        },
        {
          "internalType": "string",
          "name": "memo",
          "type": "string"
        },
        {
          "internalType": "int64",
          "name": "maxSupply",
          "type": "int64"
        },
        {
          "internalType": "address",
          "name": "treasury",
          "type": "address"
        },
        {
          "internalType": "bytes",
          "name": "key",
          "type": "bytes"
        }
      ],
      "name": "createNonFungibleTokenPublic",
      "outputs": [],
      "stateMutability": "payable",
      "type": "function"
    },
    {
      "inputs": [
        {
          "internalType": "address",
          "name": "treasury",
          "type": "address"
        },
        {
          "internalType": "address",
          "name": "fixedFeeTokenAddress",
          "type": "address"
        },
        {
          "internalType": "string",
          "name": "name",
          "type": "string"
        },
        {
          "internalType": "string",
          "name": "symbol",
          "type": "string"
        },
        {
          "internalType": "string",
          "name": "memo",
          "type": "string"
        },
        {
          "internalType": "int64",
          "name": "maxSupply",
          "type": "int64"
        },
        {
          "internalType": "bytes",
          "name": "key",
          "type": "bytes"
        }
      ],
      "name": "createNonFungibleTokenWithCustomFeesPublic",
      "outputs": [],
      "stateMutability": "payable",
      "type": "function"
    },
    {
      "inputs": [
        {
          "internalType": "address",
          "name": "token",
          "type": "address"
        },
        {
          "internalType": "address",
          "name": "account",
          "type": "address"
        }
      ],
      "name": "grantTokenKycPublic",
      "outputs": [
        {
          "internalType": "int64",
          "name": "responseCode",
          "type": "int64"
        }
      ],
      "stateMutability": "nonpayable",
      "type": "function"
    },
    {
      "inputs": [
        {
          "internalType": "address",
          "name": "token",
          "type": "address"
        },
        {
          "internalType": "address",
          "name": "receiver",
          "type": "address"
        },
        {
          "internalType": "int64",
          "name": "amount",
          "type": "int64"
        },
        {
          "internalType": "bytes[]",
          "name": "metadata",
          "type": "bytes[]"
        }
      ],
      "name": "mintNonFungibleTokenToAddressPublic",
      "outputs": [
        {
          "internalType": "int256",
          "name": "responseCode",
          "type": "int256"
        },
        {
          "internalType": "int64",
          "name": "newTotalSupply",
          "type": "int64"
        },
        {
          "internalType": "int64[]",
          "name": "serialNumbers",
          "type": "int64[]"
        }
      ],
      "stateMutability": "nonpayable",
      "type": "function"
    },
    {
      "inputs": [
        {
          "internalType": "address",
          "name": "token",
          "type": "address"
        },
        {
          "internalType": "int64",
          "name": "amount",
          "type": "int64"
        },
        {
          "internalType": "bytes[]",
          "name": "metadata",
          "type": "bytes[]"
        }
      ],
      "name": "mintTokenPublic",
      "outputs": [
        {
          "internalType": "int256",
          "name": "responseCode",
          "type": "int256"
        },
        {
          "internalType": "int64",
          "name": "newTotalSupply",
          "type": "int64"
        },
        {
          "internalType": "int64[]",
          "name": "serialNumbers",
          "type": "int64[]"
        }
      ],
      "stateMutability": "nonpayable",
      "type": "function"
    },
    {
      "inputs": [
        {
          "internalType": "address",
          "name": "token",
          "type": "address"
        },
        {
          "internalType": "address",
          "name": "receiver",
          "type": "address"
        },
        {
          "internalType": "int64",
          "name": "amount",
          "type": "int64"
        },
        {
          "internalType": "bytes[]",
          "name": "metadata",
          "type": "bytes[]"
        }
      ],
      "name": "mintTokenToAddressPublic",
      "outputs": [
        {
          "internalType": "int256",
          "name": "responseCode",
          "type": "int256"
        },
        {
          "internalType": "int64",
          "name": "newTotalSupply",
          "type": "int64"
        },
        {
          "internalType": "int64[]",
          "name": "serialNumbers",
          "type": "int64[]"
        }
      ],
      "stateMutability": "nonpayable",
      "type": "function"
    },
    {
      "inputs": [
        {
          "internalType": "address",
          "name": "token",
          "type": "address"
        },
        {
          "internalType": "bytes",
          "name": "encodedFunctionSelector",
          "type": "bytes"
        }
      ],
      "name": "redirectForToken",
      "outputs": [
        {
          "internalType": "int256",
          "name": "responseCode",
          "type": "int256"
        },
        {
          "internalType": "bytes",
          "name": "response",
          "type": "bytes"
        }
      ],
      "stateMutability": "nonpayable",
      "type": "function"
    },
    {
      "inputs": [
        {
          "internalType": "address",
          "name": "token",
          "type": "address"
        },
        {
          "internalType": "address",
          "name": "from",
          "type": "address"
        },
        {
          "internalType": "address",
          "name": "to",
          "type": "address"
        },
        {
          "internalType": "uint256",
          "name": "amount",
          "type": "uint256"
        }
      ],
      "name": "transferFrom",
      "outputs": [
        {
          "internalType": "int64",
          "name": "responseCode",
          "type": "int64"
        }
      ],
      "stateMutability": "nonpayable",
      "type": "function"
    },
    {
      "inputs": [
        {
          "internalType": "address",
          "name": "token",
          "type": "address"
        },
        {
          "internalType": "address",
          "name": "from",
          "type": "address"
        },
        {
          "internalType": "address",
          "name": "to",
          "type": "address"
        },
        {
          "internalType": "uint256",
          "name": "serialNumber",
          "type": "uint256"
        }
      ],
      "name": "transferFromNFT",
      "outputs": [
        {
          "internalType": "int64",
          "name": "responseCode",
          "type": "int64"
        }
      ],
      "stateMutability": "nonpayable",
      "type": "function"
    }
  ],
  "bytecode": "0x608060405234801561000f575f80fd5b50600160208181527fa6eef7e35abe7026729641147f7915573c7e97b47efa546f5f6e3230263bcb499190915560027fcc69885fda6bcc1a4ace058b4a62bf5e179ea78fd58a1ccd71c22cc9b688792f5560047fd9d16d34ffb15ba3a3d852f0d403e2ce1d691fb54de27ac87cd2f993f3ec330f5560087f7dfe757ecd65cbd7922a9c0161e935dd7fdbcc0e999689c7d31633896b1fc60b5560107fedc95719e9a3b28dd8e80877cb5880a9be7de1a13fc8b05e7999683b6b567643557fe2689cd4a84e23ad2f564004f1c9013e9589d260bde6380aba3ca7e09e4df40c5560065f5260407f8f331abe73332f95a25873e8b430885974c0409691f89d643119a11623a7924a5561294e806101235f395ff3fe6080604052600436106100ce575f3560e01c80639b23d3d91161007c578063f4a01e5b11610057578063f4a01e5b14610216578063f7bddff814610235578063fd66cabc14610248578063fec394da1461025b575f80fd5b80639b23d3d9146101aa578063c827bd32146101c9578063de84a779146101f7575f80fd5b8063527bc8af116100ac578063527bc8af146101555780635fe21a391461016a578063618dc65e1461017d575f80fd5b80630fd2601e146100d2578063118741e71461010957806315dacbea14610136575b5f80fd5b3480156100dd575f80fd5b506100f16100ec366004611a17565b61027a565b60405160079190910b81526020015b60405180910390f35b348015610114575f80fd5b50610128610123366004611ab6565b6102d5565b604051908152602001610100565b348015610141575f80fd5b506100f1610150366004611b65565b610327565b610168610163366004611c40565b610416565b005b610168610178366004611d2f565b61075c565b348015610188575f80fd5b5061019c610197366004611e26565b610ae7565b604051610100929190611ec0565b3480156101b5575f80fd5b506100f16101c4366004611b65565b610c0e565b3480156101d4575f80fd5b506101e86101e3366004611f67565b610c52565b60405161010093929190612014565b348015610202575f80fd5b506101e861021136600461203e565b610cea565b348015610221575f80fd5b50610128610230366004611a17565b610d82565b6101686102433660046120ab565b610d8d565b61016861025636600461216f565b610f28565b348015610266575f80fd5b506101e8610275366004611f67565b611108565b5f610285838361112a565b604051600782900b81529091507f90a5cf4cffe88b4edbb041cfc7a8a812c48a5ec30b84640fb37690875168e3aa9060200160405180910390a1600781900b6016146102cf575f80fd5b92915050565b5f6102e08383611208565b90507f90a5cf4cffe88b4edbb041cfc7a8a812c48a5ec30b84640fb37690875168e3aa8160405161031391815260200190565b60405180910390a1601681146102cf575f80fd5b6040516001600160a01b038581166024830152848116604483015283166064820152608481018290525f908190819061016790630aed65f560e11b9060a4015b60408051601f198184030181529181526020820180516001600160e01b03166001600160e01b03199094169390931790925290516103a59190612234565b5f604051808303815f865af19150503d805f81146103de576040519150601f19603f3d011682016040523d82523d5f602084013e6103e3565b606091505b5091509150816103f4576015610408565b80806020019051810190610408919061224f565b60030b979650505050505050565b60408051600580825260c082019092525f91816020015b610435611997565b81526020019060019003908161042d5790505090506104585f6006600385611232565b815f8151811061046a5761046a61226a565b60200260200101819052506104826001600384611269565b816001815181106104955761049561226a565b60200260200101819052506104ad6002600384611269565b816002815181106104c0576104c061226a565b60200260200101819052506104d86004600384611269565b816003815181106104eb576104eb61226a565b602002602001018190525061050260038084611269565b816004815181106105155761051561226a565b60209081029190910181019190915260408051606080820183525f8083526001600160a01b038d16838601819052627a1200848601528451610120810186528c81529586018b905285850152908401889052600160808501819052600788900b60a086015260c0850182905260e08501869052610100850183905283518181528085019094529193929091816020015b6040805160a0810182525f808252602080830182905292820181905260608201819052608082015282525f199092019101816105a55750506040805160a081018252600181526001600160a01b038d811660208301525f928201839052606082018390528e1660808201528251929350918391906106255761062561226a565b60209081029190910101526040805160018082528183019092525f91816020015b6040805160c0810182525f8082526020808301829052928201819052606082018190526080820181905260a082015282525f199092019101816106465790505090506040518060c00160405280600460070b8152602001600560070b8152602001600a60070b81526020018c6001600160a01b031681526020015f151581526020018d6001600160a01b0316815250815f815181106106e7576106e761226a565b60200260200101819052505f806106ff85858561129e565b909250905060168214610710575f80fd5b6040516001600160a01b03821681527f7bb17726df1f3adee8aa00ba8e8bc5d6f182af3bbf77604639cb7f008dd3b4ed9060200160405180910390a15050505050505050505050505050565b60408051600580825260c082019092525f91816020015b61077b611997565b81526020019060019003908161077357905050905061079e5f6006600385611232565b815f815181106107b0576107b061226a565b60200260200101819052506107c86001600384611269565b816001815181106107db576107db61226a565b60200260200101819052506107f36002600384611269565b816002815181106108065761080661226a565b602002602001018190525061081e6004600384611269565b816003815181106108315761083161226a565b602002602001018190525061084860038084611269565b8160048151811061085b5761085b61226a565b60209081029190910181019190915260408051606080820183525f8083526001600160a01b038f16838601819052627a1200848601528451610120810186528e81529586018d9052858501529084018a9052600160808501819052600789900b60a086015260c0850182905260e08501869052610100850183905283518181528085019094529193929091816020015b6040805160a0810182525f808252602080830182905292820181905260608201819052608082015282525f199092019101816108eb5790505090506040518060a00160405280600160070b81526020018d6001600160a01b031681526020015f151581526020015f151581526020018e6001600160a01b0316815250815f815181106109795761097961226a565b60209081029190910101526040805160018082528183019092525f91816020015b6040805160c0810182525f8082526020808301829052928201819052606082018190526080820181905260a082015282525f1990920191018161099a5790505090506040518060c00160405280600460070b8152602001600560070b8152602001600a60070b8152602001601e60070b81526020015f151581526020018f6001600160a01b0316815250815f81518110610a3657610a3661226a565b60200260200101819052505f80610a50858c8b87876113be565b915091507f90a5cf4cffe88b4edbb041cfc7a8a812c48a5ec30b84640fb37690875168e3aa82604051610a8591815260200190565b60405180910390a160168214610a99575f80fd5b6040516001600160a01b03821681527f7bb17726df1f3adee8aa00ba8e8bc5d6f182af3bbf77604639cb7f008dd3b4ed9060200160405180910390a150505050505050505050505050505050565b5f60605f806101676001600160a01b031663618dc65e60e01b8787604051602401610b1392919061227e565b60408051601f198184030181529181526020820180516001600160e01b03166001600160e01b0319909416939093179092529051610b519190612234565b5f604051808303815f865af19150503d805f8114610b8a576040519150601f19603f3d011682016040523d82523d5f602084013e610b8f565b606091505b50915091507f4af4780e06fe8cb9df64b0794fa6f01399af979175bb988e35e0e57e594567bc8282604051610bc592919061229f565b60405180910390a181610be857601560405180602001604052805f815250610bfc565b80806020019051810190610bfc91906122b9565b60039190910b97909650945050505050565b6040516001600160a01b038581166024830152848116604483015283166064820152608481018290525f908190819061016790639b23d3d960e01b9060a401610367565b5f806060610c61878686610cea565b809350819450829550505050610c92873088845f81518110610c8557610c8561226a565b60200260200101516114e4565b50604080516001600160a01b03898116825288166020820152600787900b8183015290517f215c8eec9aa8fa57cdc8525400a046bf00ff93b20cc529980e01c1ef114fc2289181900360600190a19450945094915050565b5f806060610cf986868661152b565b60405183815292955090935091507f90a5cf4cffe88b4edbb041cfc7a8a812c48a5ec30b84640fb37690875168e3aa9060200160405180910390a160168314610d40575f80fd5b7ffc6b20023c4bac8ff1c48c1693e0cea5cd3c2163e9c2da41c58f17dd6d9f163d8282604051610d71929190612341565b60405180910390a193509350939050565b5f6102e08383611622565b60408051600580825260c082019092525f91816020015b610dac611997565b815260200190600190039081610da4579050509050610dcf5f6006600385611232565b815f81518110610de157610de161226a565b6020026020010181905250610df96001600384611269565b81600181518110610e0c57610e0c61226a565b6020026020010181905250610e246002600384611269565b81600281518110610e3757610e3761226a565b6020026020010181905250610e4f6004600384611269565b81600381518110610e6257610e6261226a565b6020026020010181905250610e7960038084611269565b81600481518110610e8c57610e8c61226a565b60200260200101819052505f60405180606001604052805f60070b8152602001856001600160a01b03168152602001627a120060070b81525090505f6040518061012001604052808d81526020018c8152602001866001600160a01b031681526020018b81526020016001151581526020018960070b815260200187151581526020018481526020018381525090505f806106ff838c8b611657565b60408051600580825260c082019092525f91816020015b610f47611997565b815260200190600190039081610f3f579050509050610f6a5f6006600385611232565b815f81518110610f7c57610f7c61226a565b6020026020010181905250610f946001600384611269565b81600181518110610fa757610fa761226a565b6020026020010181905250610fbf6002600384611269565b81600281518110610fd257610fd261226a565b6020026020010181905250610fea6004600384611269565b81600381518110610ffd57610ffd61226a565b602002602001018190525061101460038084611269565b816004815181106110275761102761226a565b60209081029190910181019190915260408051606080820183525f8083526001600160a01b038816838601819052627a1200848601528451610120810186528d81529586018c905293850193909352830188905260016080840152600787900b60a084015260c0830182905260e0830184905261010083018190529190806110ae836116c0565b9092509050601682146110bf575f80fd5b6040516001600160a01b03821681527f7bb17726df1f3adee8aa00ba8e8bc5d6f182af3bbf77604639cb7f008dd3b4ed9060200160405180910390a15050505050505050505050565b5f806060611117878686610cea565b91945092509050610c92873088886117c8565b6040516001600160a01b038381166024830152821660448201525f908190819061016790638f8d7f9960e01b906064015b60408051601f198184030181529181526020820180516001600160e01b03166001600160e01b03199094169390931790925290516111999190612234565b5f604051808303815f865af19150503d805f81146111d2576040519150601f19603f3d011682016040523d82523d5f602084013e6111d7565b606091505b5091509150816111e85760156111fc565b808060200190518101906111fc919061224f565b60030b95945050505050565b5f805f6101676001600160a01b0316632e63879b60e01b868660405160240161115b92919061235c565b61123a611997565b604051806040016040528061124f878761180f565b815260200161125e8585611850565b905295945050505050565b611271611997565b60405180604001604052806112858661195b565b81526020016112948585611850565b9052949350505050565b5f80848061010001515f015160070b5f1480156112c557506101008101516040015160070b155b156112db576101008101516276a7006040909101525b5f806101676001600160a01b03163463abb54eb560e01b8a8a8a604051602401611307939291906125e3565b60408051601f198184030181529181526020820180516001600160e01b03166001600160e01b03199094169390931790925290516113459190612234565b5f6040518083038185875af1925050503d805f811461137f576040519150601f19603f3d011682016040523d82523d5f602084013e611384565b606091505b5091509150816113965760155f6113aa565b808060200190518101906113aa9190612698565b60039190910b999098509650505050505050565b5f80868061010001515f015160070b5f1480156113e557506101008101516040015160070b155b156113fb576101008101516276a7006040909101525b5f806101676001600160a01b031634632af0c59a60e01b8c8c8c8c8c60405160240161142b9594939291906126c5565b60408051601f198184030181529181526020820180516001600160e01b03166001600160e01b03199094169390931790925290516114699190612234565b5f6040518083038185875af1925050503d805f81146114a3576040519150601f19603f3d011682016040523d82523d5f602084013e6114a8565b606091505b5091509150816114ba5760155f6114ce565b808060200190518101906114ce9190612698565b60039190910b9b909a5098505050505050505050565b6040516001600160a01b038581166024830152848116604483015283166064820152600782900b60848201525f908190819061016790635cfc901160e01b9060a401610367565b5f8060605f806101676001600160a01b031663e0f4059a60e01b89898960405160240161155a9392919061278b565b60408051601f198184030181529181526020820180516001600160e01b03166001600160e01b03199094169390931790925290516115989190612234565b5f604051808303815f865af19150503d805f81146115d1576040519150601f19603f3d011682016040523d82523d5f602084013e6115d6565b606091505b5091509150816115f857604080515f808252602082019092526015919061160c565b8080602001905181019061160c9190612806565b60039290920b9a90995090975095505050505050565b6040516001600160a01b038381166024830152821660448201525f90819081906101679063248a35ef60e11b9060640161115b565b5f80848061010001515f015160070b5f14801561167e57506101008101516040015160070b155b15611694576101008101516276a7006040909101525b5f806101676001600160a01b031634630fb65bf360e01b8a8a8a604051602401611307939291906128c4565b5f80828061010001515f015160070b5f1480156116e757506101008101516040015160070b155b156116fd576101008101516276a7006040909101525b5f806101676001600160a01b03163463ea83f29360e01b8860405160240161172591906128f2565b60408051601f198184030181529181526020820180516001600160e01b03166001600160e01b03199094169390931790925290516117639190612234565b5f6040518083038185875af1925050503d805f811461179d576040519150601f19603f3d011682016040523d82523d5f602084013e6117a2565b606091505b5091509150816117b45760155f610bfc565b80806020019051810190610bfc9190612698565b6040516001600160a01b038581166024830152848116604483015283166064820152600782900b60848201525f90819081906101679063eca3691760e01b9060a401610367565b5f61183283600681111561182557611825612904565b600160ff9091161b821790565b905061184982600681111561182557611825612904565b9392505050565b6118936040518060a001604052805f151581526020015f6001600160a01b0316815260200160608152602001606081526020015f6001600160a01b031681525090565b5f8360048111156118a6576118a6612904565b036118b457600181526102cf565b60018360048111156118c8576118c8612904565b036118e2575f546001600160a01b031660208201526102cf565b60028360048111156118f6576118f6612904565b0361190757604081018290526102cf565b600383600481111561191b5761191b612904565b0361192c57606081018290526102cf565b600483600481111561194057611940612904565b036102cf575f546001600160a01b0316608082015292915050565b5f60015f83600681111561197157611971612904565b600681111561198257611982612904565b81526020019081526020015f20549050919050565b60405180604001604052805f81526020016119eb6040518060a001604052805f151581526020015f6001600160a01b0316815260200160608152602001606081526020015f6001600160a01b031681525090565b905290565b6001600160a01b0381168114611a04575f80fd5b50565b8035611a12816119f0565b919050565b5f8060408385031215611a28575f80fd5b8235611a33816119f0565b91506020830135611a43816119f0565b809150509250929050565b634e487b7160e01b5f52604160045260245ffd5b604051601f8201601f1916810167ffffffffffffffff81118282101715611a8b57611a8b611a4e565b604052919050565b5f67ffffffffffffffff821115611aac57611aac611a4e565b5060051b60200190565b5f8060408385031215611ac7575f80fd5b8235611ad2816119f0565b915060208381013567ffffffffffffffff811115611aee575f80fd5b8401601f81018613611afe575f80fd5b8035611b11611b0c82611a93565b611a62565b81815260059190911b82018301908381019088831115611b2f575f80fd5b928401925b82841015611b56578335611b47816119f0565b82529284019290840190611b34565b80955050505050509250929050565b5f805f8060808587031215611b78575f80fd5b8435611b83816119f0565b93506020850135611b93816119f0565b92506040850135611ba3816119f0565b9396929550929360600135925050565b5f67ffffffffffffffff821115611bcc57611bcc611a4e565b50601f01601f191660200190565b5f82601f830112611be9575f80fd5b8135611bf7611b0c82611bb3565b818152846020838601011115611c0b575f80fd5b816020850160208301375f918101602001919091529392505050565b8060070b8114611a04575f80fd5b8035611a1281611c27565b5f805f805f805f60e0888a031215611c56575f80fd5b611c5f88611a07565b9650611c6d60208901611a07565b9550604088013567ffffffffffffffff80821115611c89575f80fd5b611c958b838c01611bda565b965060608a0135915080821115611caa575f80fd5b611cb68b838c01611bda565b955060808a0135915080821115611ccb575f80fd5b611cd78b838c01611bda565b9450611ce560a08b01611c35565b935060c08a0135915080821115611cfa575f80fd5b50611d078a828b01611bda565b91505092959891949750929550565b8060030b8114611a04575f80fd5b8035611a1281611d16565b5f805f805f805f805f6101208a8c031215611d48575f80fd5b611d518a611a07565b9850611d5f60208b01611a07565b975060408a013567ffffffffffffffff80821115611d7b575f80fd5b611d878d838e01611bda565b985060608c0135915080821115611d9c575f80fd5b611da88d838e01611bda565b975060808c0135915080821115611dbd575f80fd5b611dc98d838e01611bda565b9650611dd760a08d01611c35565b9550611de560c08d01611c35565b9450611df360e08d01611d24565b93506101008c0135915080821115611e09575f80fd5b50611e168c828d01611bda565b9150509295985092959850929598565b5f8060408385031215611e37575f80fd5b8235611e42816119f0565b9150602083013567ffffffffffffffff811115611e5d575f80fd5b611e6985828601611bda565b9150509250929050565b5f5b83811015611e8d578181015183820152602001611e75565b50505f910152565b5f8151808452611eac816020860160208601611e73565b601f01601f19169290920160200192915050565b828152604060208201525f611ed86040830184611e95565b949350505050565b5f82601f830112611eef575f80fd5b81356020611eff611b0c83611a93565b82815260059290921b84018101918181019086841115611f1d575f80fd5b8286015b84811015611f5c57803567ffffffffffffffff811115611f40575f8081fd5b611f4e8986838b0101611bda565b845250918301918301611f21565b509695505050505050565b5f805f8060808587031215611f7a575f80fd5b8435611f85816119f0565b93506020850135611f95816119f0565b92506040850135611fa581611c27565b9150606085013567ffffffffffffffff811115611fc0575f80fd5b611fcc87828801611ee0565b91505092959194509250565b5f8151808452602080850194508084015f5b8381101561200957815160070b87529582019590820190600101611fea565b509495945050505050565b8381528260070b6020820152606060408201525f6120356060830184611fd8565b95945050505050565b5f805f60608486031215612050575f80fd5b833561205b816119f0565b9250602084013561206b81611c27565b9150604084013567ffffffffffffffff811115612086575f80fd5b61209286828701611ee0565b9150509250925092565b80358015158114611a12575f80fd5b5f805f805f805f805f6101208a8c0312156120c4575f80fd5b893567ffffffffffffffff808211156120db575f80fd5b6120e78d838e01611bda565b9a5060208c01359150808211156120fc575f80fd5b6121088d838e01611bda565b995060408c013591508082111561211d575f80fd5b6121298d838e01611bda565b985061213760608d01611c35565b975061214560808d01611c35565b965061215360a08d01611d24565b955061216160c08d0161209c565b9450611df360e08d01611a07565b5f805f805f8060c08789031215612184575f80fd5b863567ffffffffffffffff8082111561219b575f80fd5b6121a78a838b01611bda565b975060208901359150808211156121bc575f80fd5b6121c88a838b01611bda565b965060408901359150808211156121dd575f80fd5b6121e98a838b01611bda565b95506121f760608a01611c35565b945061220560808a01611a07565b935060a089013591508082111561221a575f80fd5b5061222789828a01611bda565b9150509295509295509295565b5f8251612245818460208701611e73565b9190910192915050565b5f6020828403121561225f575f80fd5b815161184981611d16565b634e487b7160e01b5f52603260045260245ffd5b6001600160a01b0383168152604060208201525f611ed86040830184611e95565b8215158152604060208201525f611ed86040830184611e95565b5f80604083850312156122ca575f80fd5b82516122d581611d16565b602084015190925067ffffffffffffffff8111156122f1575f80fd5b8301601f81018513612301575f80fd5b805161230f611b0c82611bb3565b818152866020838501011115612323575f80fd5b612334826020830160208601611e73565b8093505050509250929050565b8260070b8152604060208201525f611ed86040830184611fd8565b5f604082016001600160a01b038086168452602060408186015282865180855260608701915082880194505f5b818110156123a7578551851683529483019491830191600101612389565b509098975050505050505050565b5f81518084526020808501808196508360051b810191508286015f5b8581101561246a5782840389528151604081518652868201519150808787015281511515818701528682015160606001600160a01b03808316828a015283850151935060a09250608083818b015261242c60e08b0186611e95565b928601518a8403603f1901858c01529294506124488584611e95565b9501511660c098909801979097525050988501989350908401906001016123d1565b5091979650505050505050565b5f610160825181855261248c82860182611e95565b915050602083015184820360208601526124a68282611e95565b91505060408301516124c360408601826001600160a01b03169052565b50606083015184820360608601526124db8282611e95565b91505060808301516124f1608086018215159052565b5060a083015161250660a086018260070b9052565b5060c083015161251a60c086018215159052565b5060e083015184820360e086015261253282826123b5565b9150506101008084015161256e82870182805160070b82526001600160a01b036020820151166020830152604081015160070b60408301525050565b5090949350505050565b5f8151808452602080850194508084015f5b83811015612009578151805160070b8852838101516001600160a01b03908116858a01526040808301511515908a01526060808301511515908a0152608091820151169088015260a0909601959082019060010161258a565b5f60608083526125f581840187612477565b6020848203818601526126088288612578565b9150604085830381870152828751808552838501915083890194505f5b818110156126885785518051600790810b855286820151810b8786015285820151900b85850152878101516001600160a01b039081168986015260808083015115159086015260a09182015116908401529484019460c090920191600101612625565b50909a9950505050505050505050565b5f80604083850312156126a9575f80fd5b82516126b481611d16565b6020840151909250611a43816119f0565b5f60a08083526126d781840189612477565b6020600789810b8287015260408960030b818801526060878503818901526126ff858b612578565b94506080888603818a0152858a518088528688019150868c0197505f5b818110156127765788518051880b845288810151880b8985015286810151880b8785015285810151880b86850152848101511515858501528a01516001600160a01b03168a8401529787019760c09092019160010161271c565b50909f9e505050505050505050505050505050565b5f606082016001600160a01b038616835260208560070b818501526060604085015281855180845260808601915060808160051b87010193508287015f5b828110156127f757607f198887030184526127e5868351611e95565b955092840192908401906001016127c9565b50939998505050505050505050565b5f805f60608486031215612818575f80fd5b835161282381611d16565b8093505060208085015161283681611c27565b604086015190935067ffffffffffffffff811115612852575f80fd5b8501601f81018713612862575f80fd5b8051612870611b0c82611a93565b81815260059190911b8201830190838101908983111561288e575f80fd5b928401925b828410156128b55783516128a681611c27565b82529284019290840190612893565b80955050505050509250925092565b606081525f6128d66060830186612477565b90508360070b60208301528260030b6040830152949350505050565b602081525f6118496020830184612477565b634e487b7160e01b5f52602160045260245ffdfea2646970667358221220b215059336ceda2dada07c9e0ac0d17130039df3489ff95e919f85680131cb9864736f6c63430008140033",
  "linkReferences": {},
  "deployedLinkReferences": {}
}