{
  "_format": "hh-sol-artifact-1",
  "contractName": "TokenCreateCustomContract",
  "sourceName": "contracts/hts-precompile/examples/token-create/TokenCreateCustom.sol",
  "abi": [
    {
      "anonymous": false,
      "inputs": [
        {
          "indexed": false,
          "internalType": "address",
          "name": "tokenAddress",
          "type": "address"
        }
      ],
      "name": "CreatedToken",
      "type": "event"
    },
    {
      "anonymous": false,
      "inputs": [
        {
          "indexed": false,
          "internalType": "int256",
          "name": "responseCode",
          "type": "int256"
        }
      ],
      "name": "ResponseCode",
      "type": "event"
    },
    {
      "inputs": [
        {
          "internalType": "string",
          "name": "name",
          "type": "string"
        },
        {
          "internalType": "string",
          "name": "symbol",
          "type": "string"
        },
        {
          "internalType": "string",
          "name": "memo",
          "type": "string"
        },
        {
          "internalType": "uint64",
          "name": "initialTotalSupply",
          "type": "uint64"
        },
        {
          "internalType": "int64",
          "name": "maxSupply",
          "type": "int64"
        },
        {
          "internalType": "uint32",
          "name": "decimals",
          "type": "uint32"
        },
        {
          "internalType": "bool",
          "name": "freezeDefaultStatus",
          "type": "bool"
        },
        {
          "internalType": "address",
          "name": "treasury",
          "type": "address"
        },
        {
          "internalType": "bytes",
          "name": "key",
          "type": "bytes"
        }
      ],
      "name": "createFungibleTokenPublic",
      "outputs": [],
      "stateMutability": "payable",
      "type": "function"
    },
    {
      "inputs": [
        {
          "internalType": "address",
          "name": "token",
          "type": "address"
        },
        {
          "internalType": "address",
          "name": "from",
          "type": "address"
        },
        {
          "internalType": "address",
          "name": "to",
          "type": "address"
        },
        {
          "internalType": "uint256",
          "name": "amount",
          "type": "uint256"
        }
      ],
      "name": "delegateTransferFrom",
      "outputs": [
        {
          "internalType": "int64",
          "name": "responseCode",
          "type": "int64"
        }
      ],
      "stateMutability": "nonpayable",
      "type": "function"
    },
    {
      "inputs": [
        {
          "internalType": "address",
          "name": "token",
          "type": "address"
        },
        {
          "internalType": "address",
          "name": "from",
          "type": "address"
        },
        {
          "internalType": "address",
          "name": "to",
          "type": "address"
        },
        {
          "internalType": "uint256",
          "name": "serialNumber",
          "type": "uint256"
        }
      ],
      "name": "delegateTransferFromNFT",
      "outputs": [
        {
          "internalType": "int64",
          "name": "responseCode",
          "type": "int64"
        }
      ],
      "stateMutability": "nonpayable",
      "type": "function"
    },
    {
      "inputs": [
        {
          "internalType": "address",
          "name": "token",
          "type": "address"
        },
        {
          "internalType": "address",
          "name": "from",
          "type": "address"
        },
        {
          "internalType": "address",
          "name": "to",
          "type": "address"
        },
        {
          "internalType": "uint256",
          "name": "amount",
          "type": "uint256"
        }
      ],
      "name": "transferFrom",
      "outputs": [
        {
          "internalType": "int64",
          "name": "responseCode",
          "type": "int64"
        }
      ],
      "stateMutability": "nonpayable",
      "type": "function"
    },
    {
      "inputs": [
        {
          "internalType": "address",
          "name": "token",
          "type": "address"
        },
        {
          "internalType": "address",
          "name": "from",
          "type": "address"
        },
        {
          "internalType": "address",
          "name": "to",
          "type": "address"
        },
        {
          "internalType": "uint256",
          "name": "serialNumber",
          "type": "uint256"
        }
      ],
      "name": "transferFromNFT",
      "outputs": [
        {
          "internalType": "int64",
          "name": "responseCode",
          "type": "int64"
        }
      ],
      "stateMutability": "nonpayable",
      "type": "function"
    }
  ],
  "bytecode": "0x608060405234801561001057600080fd5b50600160208181527fa6eef7e35abe7026729641147f7915573c7e97b47efa546f5f6e3230263bcb499190915560027fcc69885fda6bcc1a4ace058b4a62bf5e179ea78fd58a1ccd71c22cc9b688792f5560047fd9d16d34ffb15ba3a3d852f0d403e2ce1d691fb54de27ac87cd2f993f3ec330f5560087f7dfe757ecd65cbd7922a9c0161e935dd7fdbcc0e999689c7d31633896b1fc60b5560107fedc95719e9a3b28dd8e80877cb5880a9be7de1a13fc8b05e7999683b6b567643557fe2689cd4a84e23ad2f564004f1c9013e9589d260bde6380aba3ca7e09e4df40c55600660005260407f8f331abe73332f95a25873e8b430885974c0409691f89d643119a11623a7924a55610df3806101276000396000f3fe60806040526004361061004a5760003560e01c806311e1fc071461004f57806315dacbea146100865780635cbde966146100a65780639b23d3d9146100bb578063eac6f3fe146100db575b600080fd5b34801561005b57600080fd5b5061006f61006a366004610875565b6100fb565b60405160079190910b815260200160405180910390f35b34801561009257600080fd5b5061006f6100a1366004610875565b6101ed565b6100b96100b43660046109b7565b6102a9565b005b3480156100c757600080fd5b5061006f6100d6366004610875565b6104ad565b3480156100e757600080fd5b5061006f6100f6366004610875565b6104f2565b6040516001600160a01b038581166024830152848116604483015283166064820152608481018290526000908190819061016790639b23d3d960e01b9060a4015b60408051601f198184030181529181526020820180516001600160e01b03166001600160e01b031990941693909317909252905161017a9190610ae8565b600060405180830381855af49150503d80600081146101b5576040519150601f19603f3d011682016040523d82523d6000602084013e6101ba565b606091505b5091509150816101cb5760156101df565b808060200190518101906101df9190610b16565b60030b979650505050505050565b6040516001600160a01b038581166024830152848116604483015283166064820152608481018290526000908190819061016790630aed65f560e11b9060a4015b60408051601f198184030181529181526020820180516001600160e01b03166001600160e01b031990941693909317909252905161026c9190610ae8565b6000604051808303816000865af19150503d80600081146101b5576040519150601f19603f3d011682016040523d82523d6000602084013e6101ba565b60408051600580825260c08201909252600091816020015b6102c96107f0565b8152602001906001900390816102c15790505090506102eb6006600384610537565b816000815181106102fe576102fe610b38565b60200260200101819052506103166001600384610537565b8160018151811061032957610329610b38565b60200260200101819052506103416002600384610537565b8160028151811061035457610354610b38565b602002602001018190525061036c6004600384610537565b8160038151811061037f5761037f610b38565b602002602001018190525061039660038084610537565b816004815181106103a9576103a9610b38565b602002602001018190525060006040518060600160405280600063ffffffff168152602001856001600160a01b03168152602001627a120063ffffffff16815250905060006040518061012001604052808d81526020018c8152602001866001600160a01b031681526020018b81526020016001151581526020018960070b8152602001871515815260200184815260200183815250905060008061044f838c8b61056c565b90925090506016821461046157600080fd5b6040516001600160a01b03821681527f7bb17726df1f3adee8aa00ba8e8bc5d6f182af3bbf77604639cb7f008dd3b4ed9060200160405180910390a15050505050505050505050505050565b6040516001600160a01b038581166024830152848116604483015283166064820152608481018290526000908190819061016790639b23d3d960e01b9060a40161022e565b6040516001600160a01b038581166024830152848116604483015283166064820152608481018290526000908190819061016790630aed65f560e11b9060a40161013c565b61053f6107f0565b60405180604001604052806105538661069a565b815260200161056285856106d9565b9052949350505050565b600080848061010001516000015163ffffffff16600014801561059c57506101008101516040015163ffffffff16155b156105b2576101008101516276a7006040909101525b6000806101676001600160a01b03163463c23baeb660e01b8a8a8a6040516024016105df93929190610c3e565b60408051601f198184030181529181526020820180516001600160e01b03166001600160e01b031990941693909317909252905161061d9190610ae8565b60006040518083038185875af1925050503d806000811461065a576040519150601f19603f3d011682016040523d82523d6000602084013e61065f565b606091505b5091509150816106725760156000610686565b808060200190518101906106869190610d70565b60039190910b999098509650505050505050565b6000600160008360068111156106b2576106b2610da7565b60068111156106c3576106c3610da7565b8152602001908152602001600020549050919050565b61071f6040518060a0016040528060001515815260200160006001600160a01b03168152602001606081526020016060815260200160006001600160a01b031681525090565b600083600481111561073357610733610da7565b141561074257600181526107ea565b600183600481111561075657610756610da7565b1415610772576000546001600160a01b031660208201526107ea565b600283600481111561078657610786610da7565b141561079857604081018290526107ea565b60038360048111156107ac576107ac610da7565b14156107be57606081018290526107ea565b60048360048111156107d2576107d2610da7565b14156107ea576000546001600160a01b031660808201525b92915050565b6040518060400160405280600081526020016108486040518060a0016040528060001515815260200160006001600160a01b03168152602001606081526020016060815260200160006001600160a01b031681525090565b905290565b6001600160a01b038116811461086257600080fd5b50565b80356108708161084d565b919050565b6000806000806080858703121561088b57600080fd5b84356108968161084d565b935060208501356108a68161084d565b925060408501356108b68161084d565b9396929550929360600135925050565b634e487b7160e01b600052604160045260246000fd5b600082601f8301126108ed57600080fd5b813567ffffffffffffffff80821115610908576109086108c6565b604051601f8301601f19908116603f01168101908282118183101715610930576109306108c6565b8160405283815286602085880101111561094957600080fd5b836020870160208301376000602085830101528094505050505092915050565b803567ffffffffffffffff8116811461087057600080fd5b8035600781900b811461087057600080fd5b803563ffffffff8116811461087057600080fd5b8035801515811461087057600080fd5b60008060008060008060008060006101208a8c0312156109d657600080fd5b893567ffffffffffffffff808211156109ee57600080fd5b6109fa8d838e016108dc565b9a5060208c0135915080821115610a1057600080fd5b610a1c8d838e016108dc565b995060408c0135915080821115610a3257600080fd5b610a3e8d838e016108dc565b9850610a4c60608d01610969565b9750610a5a60808d01610981565b9650610a6860a08d01610993565b9550610a7660c08d016109a7565b9450610a8460e08d01610865565b93506101008c0135915080821115610a9b57600080fd5b50610aa88c828d016108dc565b9150509295985092959850929598565b60005b83811015610ad3578181015183820152602001610abb565b83811115610ae2576000848401525b50505050565b60008251610afa818460208701610ab8565b9190910192915050565b8051600381900b811461087057600080fd5b600060208284031215610b2857600080fd5b610b3182610b04565b9392505050565b634e487b7160e01b600052603260045260246000fd5b60008151808452610b66816020860160208601610ab8565b601f01601f19169290920160200192915050565b600081518084526020808501808196508360051b8101915082860160005b85811015610c315782840389528151604081518652868201519150808787015281511515818701528682015160606001600160a01b03808316828a015283850151935060a09250608083818b0152610bf360e08b0186610b4e565b928601518a8403603f1901858c0152929450610c0f8584610b4e565b9501511660c09890980197909752505098850198935090840190600101610b98565b5091979650505050505050565b6060815260008451610160806060850152610c5d6101c0850183610b4e565b91506020870151605f1980868503016080870152610c7b8483610b4e565b935060408901519150610c9960a08701836001600160a01b03169052565b60608901519150808685030160c0870152610cb48483610b4e565b935060808901519150610ccb60e087018315159052565b60a08901519150610100610ce38188018460070b9052565b60c08a0151151561012088015260e08a015187860383016101408901529250610d0c8584610b7a565b9450808a015192505050610d4882860182805163ffffffff90811683526020808301516001600160a01b03169084015260409182015116910152565b505067ffffffffffffffff85166020840152905063ffffffff83166040830152949350505050565b60008060408385031215610d8357600080fd5b610d8c83610b04565b91506020830151610d9c8161084d565b809150509250929050565b634e487b7160e01b600052602160045260246000fdfea2646970667358221220e16e1677ebdd6915c792e5f5ea3da78b18864f09e0a7dc86f1d8a7e9f6f1c6d364736f6c63430008090033",
  "linkReferences": {},
  "deployedLinkReferences": {}
}