{
  "_format": "hh-sol-artifact-1",
  "contractName": "PaymentChannel",
  "sourceName": "contracts/solidity/payment-channel/PaymentChannel.sol",
  "abi": [
    {
      "inputs": [
        {
          "internalType": "address payable",
          "name": "recipientAddress",
          "type": "address"
        },
        {
          "internalType": "uint256",
          "name": "duration",
          "type": "uint256"
        }
      ],
      "stateMutability": "payable",
      "type": "constructor"
    },
    {
      "anonymous": false,
      "inputs": [
        {
          "indexed": false,
          "internalType": "uint256",
          "name": "contractBalance",
          "type": "uint256"
        },
        {
          "indexed": false,
          "internalType": "uint256",
          "name": "senderBalance",
          "type": "uint256"
        },
        {
          "indexed": false,
          "internalType": "uint256",
          "name": "recipientBalance",
          "type": "uint256"
        }
      ],
      "name": "AccountBalances",
      "type": "event"
    },
    {
      "inputs": [],
      "name": "claimTimeout",
      "outputs": [],
      "stateMutability": "nonpayable",
      "type": "function"
    },
    {
      "inputs": [
        {
          "internalType": "uint256",
          "name": "amount",
          "type": "uint256"
        },
        {
          "internalType": "bytes",
          "name": "signature",
          "type": "bytes"
        }
      ],
      "name": "close",
      "outputs": [],
      "stateMutability": "nonpayable",
      "type": "function"
    },
    {
      "inputs": [],
      "name": "expiration",
      "outputs": [
        {
          "internalType": "uint256",
          "name": "",
          "type": "uint256"
        }
      ],
      "stateMutability": "view",
      "type": "function"
    },
    {
      "inputs": [
        {
          "internalType": "uint256",
          "name": "newExpiration",
          "type": "uint256"
        }
      ],
      "name": "extend",
      "outputs": [],
      "stateMutability": "nonpayable",
      "type": "function"
    },
    {
      "inputs": [],
      "name": "recipient",
      "outputs": [
        {
          "internalType": "address payable",
          "name": "",
          "type": "address"
        }
      ],
      "stateMutability": "view",
      "type": "function"
    },
    {
      "inputs": [],
      "name": "sender",
      "outputs": [
        {
          "internalType": "address payable",
          "name": "",
          "type": "address"
        }
      ],
      "stateMutability": "view",
      "type": "function"
    }
  ],
  "bytecode": "0x608060405260405161061f38038061061f83398101604081905261002291610060565b60008054336001600160a01b031991821617909155600180549091166001600160a01b038416179055610055814261009a565b600255506100c19050565b6000806040838503121561007357600080fd5b82516001600160a01b038116811461008a57600080fd5b6020939093015192949293505050565b808201808211156100bb57634e487b7160e01b600052601160045260246000fd5b92915050565b61054f806100d06000396000f3fe608060405234801561001057600080fd5b50600436106100725760003560e01c806366d003ac1161005057806366d003ac146100b057806367e404ce146100db5780639714378c146100ee57600080fd5b80630e1da6c314610077578063415ffba7146100815780634665096d14610094575b600080fd5b61007f610101565b005b61007f61008f366004610445565b61014d565b61009d60025481565b6040519081526020015b60405180910390f35b6001546100c3906001600160a01b031681565b6040516001600160a01b0390911681526020016100a7565b6000546100c3906001600160a01b031681565b61007f6100fc366004610500565b610295565b60025442101561011057600080fd5b600080546040516001600160a01b03909116914780156108fc02929091818181858888f1935050505015801561014a573d6000803e3d6000fd5b50565b6001546001600160a01b0316331461016457600080fd5b61016e82826102bf565b61017757600080fd5b600054600154604080514781526001600160a01b03938416316020820152929091163182820152517f65492bec4194183744a254e3c04830d526449fdc4886f167f48573c68a8920019181900360600190a16001546040516001600160a01b039091169083156108fc029084906000818181858888f19350505050158015610203573d6000803e3d6000fd5b50600080546040516001600160a01b03909116914780156108fc02929091818181858888f1935050505015801561023e573d6000803e3d6000fd5b50600054600154604080514781526001600160a01b03938416316020820152929091163182820152517f65492bec4194183744a254e3c04830d526449fdc4886f167f48573c68a8920019181900360600190a15050565b6000546001600160a01b031633146102ac57600080fd5b60025481116102ba57600080fd5b600255565b6040516bffffffffffffffffffffffff193060601b16602082015260348101839052600090819061035690605401604051602081830303815290604052805190602001206040517f19457468657265756d205369676e6564204d6573736167653a0a3332000000006020820152603c8101829052600090605c01604051602081830303815290604052805190602001209050919050565b6000549091506001600160a01b031661036f8285610381565b6001600160a01b031614949350505050565b60008060008061039085610400565b6040805160008152602081018083528b905260ff8516918101919091526060810183905260808101829052929550909350915060019060a0016020604051602081039080840390855afa1580156103eb573d6000803e3d6000fd5b5050604051601f190151979650505050505050565b6000806000835160411461041357600080fd5b5050506020810151604082015160609092015160001a92909190565b634e487b7160e01b600052604160045260246000fd5b6000806040838503121561045857600080fd5b82359150602083013567ffffffffffffffff8082111561047757600080fd5b818501915085601f83011261048b57600080fd5b81358181111561049d5761049d61042f565b604051601f8201601f19908116603f011681019083821181831017156104c5576104c561042f565b816040528281528860208487010111156104de57600080fd5b8260208601602083013760006020848301015280955050505050509250929050565b60006020828403121561051257600080fd5b503591905056fea2646970667358221220d3620c8584c9b999495b198ead2e1adc3dba3de6861b16039563f3975d47c94a64736f6c63430008170033",
  "linkReferences": {},
  "deployedLinkReferences": {}
}