{
  "_format": "hh-sol-artifact-1",
  "contractName": "ERC2981Test",
  "sourceName": "contracts/openzeppelin/ERC-2981/ERC2981.sol",
  "abi": [
    {
      "inputs": [],
      "stateMutability": "nonpayable",
      "type": "constructor"
    },
    {
      "inputs": [
        {
          "internalType": "uint256",
          "name": "numerator",
          "type": "uint256"
        },
        {
          "internalType": "uint256",
          "name": "denominator",
          "type": "uint256"
        }
      ],
      "name": "ERC2981InvalidDefaultRoyalty",
      "type": "error"
    },
    {
      "inputs": [
        {
          "internalType": "address",
          "name": "receiver",
          "type": "address"
        }
      ],
      "name": "ERC2981InvalidDefaultRoyaltyReceiver",
      "type": "error"
    },
    {
      "inputs": [
        {
          "internalType": "uint256",
          "name": "tokenId",
          "type": "uint256"
        },
        {
          "internalType": "uint256",
          "name": "numerator",
          "type": "uint256"
        },
        {
          "internalType": "uint256",
          "name": "denominator",
          "type": "uint256"
        }
      ],
      "name": "ERC2981InvalidTokenRoyalty",
      "type": "error"
    },
    {
      "inputs": [
        {
          "internalType": "uint256",
          "name": "tokenId",
          "type": "uint256"
        },
        {
          "internalType": "address",
          "name": "receiver",
          "type": "address"
        }
      ],
      "name": "ERC2981InvalidTokenRoyaltyReceiver",
      "type": "error"
    },
    {
      "inputs": [],
      "name": "feeDenominator",
      "outputs": [
        {
          "internalType": "uint256",
          "name": "",
          "type": "uint256"
        }
      ],
      "stateMutability": "pure",
      "type": "function"
    },
    {
      "inputs": [
        {
          "internalType": "uint256",
          "name": "tokenId",
          "type": "uint256"
        }
      ],
      "name": "resetTokenRoyalty",
      "outputs": [],
      "stateMutability": "nonpayable",
      "type": "function"
    },
    {
      "inputs": [
        {
          "internalType": "uint256",
          "name": "tokenId",
          "type": "uint256"
        },
        {
          "internalType": "uint256",
          "name": "salePrice",
          "type": "uint256"
        }
      ],
      "name": "royaltyInfo",
      "outputs": [
        {
          "internalType": "address",
          "name": "",
          "type": "address"
        },
        {
          "internalType": "uint256",
          "name": "",
          "type": "uint256"
        }
      ],
      "stateMutability": "view",
      "type": "function"
    },
    {
      "inputs": [
        {
          "internalType": "address",
          "name": "receiver",
          "type": "address"
        },
        {
          "internalType": "uint96",
          "name": "feeNumerator",
          "type": "uint96"
        }
      ],
      "name": "setDefaultRoyalty",
      "outputs": [],
      "stateMutability": "nonpayable",
      "type": "function"
    },
    {
      "inputs": [
        {
          "internalType": "uint256",
          "name": "tokenId",
          "type": "uint256"
        },
        {
          "internalType": "address",
          "name": "receiver",
          "type": "address"
        },
        {
          "internalType": "uint96",
          "name": "feeNumerator",
          "type": "uint96"
        }
      ],
      "name": "setTokenRoyalty",
      "outputs": [],
      "stateMutability": "nonpayable",
      "type": "function"
    },
    {
      "inputs": [
        {
          "internalType": "bytes4",
          "name": "interfaceId",
          "type": "bytes4"
        }
      ],
      "name": "supportsInterface",
      "outputs": [
        {
          "internalType": "bool",
          "name": "",
          "type": "bool"
        }
      ],
      "stateMutability": "view",
      "type": "function"
    }
  ],
  "bytecode": "0x608060405234801561001057600080fd5b5061051e806100206000396000f3fe608060405234801561001057600080fd5b50600436106100725760003560e01c80632a55205a116100505780632a55205a146100c45780635944c753146100f65780638a616bc01461010957600080fd5b806301ffc9a71461007757806304634d8d1461009f578063180b0d7e146100b4575b600080fd5b61008a610085366004610393565b610128565b60405190151581526020015b60405180910390f35b6100b26100ad3660046103f7565b61015f565b005b6040516127108152602001610096565b6100d76100d236600461042a565b61016d565b604080516001600160a01b039093168352602083019190915201610096565b6100b261010436600461044c565b610219565b6100b2610117366004610488565b600090815260016020526040812055565b60006001600160e01b0319821663152a902d60e11b148061015957506301ffc9a760e01b6001600160e01b03198316145b92915050565b6101698282610229565b5050565b60008281526001602090815260408083208151808301909252546001600160a01b038116808352600160a01b9091046001600160601b03169282019290925282916101e25750604080518082019091526000546001600160a01b0381168252600160a01b90046001600160601b031660208201525b602081015160009061271090610201906001600160601b0316876104a1565b61020b91906104c6565b915196919550909350505050565b6102248383836102d1565b505050565b6127106001600160601b03821681101561026d57604051636f483d0960e01b81526001600160601b0383166004820152602481018290526044015b60405180910390fd5b6001600160a01b03831661029757604051635b6cc80560e11b815260006004820152602401610264565b50604080518082019091526001600160a01b039092168083526001600160601b039091166020909201829052600160a01b90910217600055565b6127106001600160601b0382168110156103175760405163dfd1fc1b60e01b8152600481018590526001600160601b038316602482015260448101829052606401610264565b6001600160a01b03831661034857604051634b4f842960e11b81526004810185905260006024820152604401610264565b506040805180820182526001600160a01b0393841681526001600160601b0392831660208083019182526000968752600190529190942093519051909116600160a01b029116179055565b6000602082840312156103a557600080fd5b81356001600160e01b0319811681146103bd57600080fd5b9392505050565b80356001600160a01b03811681146103db57600080fd5b919050565b80356001600160601b03811681146103db57600080fd5b6000806040838503121561040a57600080fd5b610413836103c4565b9150610421602084016103e0565b90509250929050565b6000806040838503121561043d57600080fd5b50508035926020909101359150565b60008060006060848603121561046157600080fd5b83359250610471602085016103c4565b915061047f604085016103e0565b90509250925092565b60006020828403121561049a57600080fd5b5035919050565b808202811582820484141761015957634e487b7160e01b600052601160045260246000fd5b6000826104e357634e487b7160e01b600052601260045260246000fd5b50049056fea2646970667358221220b9f1f82e3a9e94b76f5b9506361e8f6323c30c8a5ec3bb70a4723c4b6c10cc6e64736f6c63430008170033",
  "linkReferences": {},
  "deployedLinkReferences": {}
}